{"abi":[{"type":"constructor","inputs":[],"stateMutability":"nonpayable"},{"type":"receive","stateMutability":"payable"},{"type":"function","name":"UPGRADE_INTERFACE_VERSION","inputs":[],"outputs":[{"name":"","type":"string","internalType":"string"}],"stateMutability":"view"},{"type":"function","name":"authorizedChains","inputs":[{"name":"","type":"uint32","internalType":"uint32"}],"outputs":[{"name":"","type":"bool","internalType":"bool"}],"stateMutability":"view"},{"type":"function","name":"bridge","inputs":[],"outputs":[{"name":"","type":"address","internalType":"contract IThirdChainBridge"}],"stateMutability":"view"},{"type":"function","name":"chainNames","inputs":[{"name":"","type":"uint32","internalType":"uint32"}],"outputs":[{"name":"","type":"string","internalType":"string"}],"stateMutability":"view"},{"type":"function","name":"claimRewards","inputs":[{"name":"_options","type":"bytes","internalType":"bytes"}],"outputs":[],"stateMutability":"payable"},{"type":"function","name":"emergencyUpdateUserBalance","inputs":[{"name":"user","type":"address","internalType":"address"},{"name":"newBalance","type":"uint256","internalType":"uint256"}],"outputs":[],"stateMutability":"nonpayable"},{"type":"function","name":"emergencyWithdraw","inputs":[{"name":"amount","type":"uint256","internalType":"uint256"}],"outputs":[],"stateMutability":"nonpayable"},{"type":"function","name":"getAuthorizedChains","inputs":[],"outputs":[{"name":"chains","type":"uint32[]","internalType":"uint32[]"},{"name":"authorized","type":"bool[]","internalType":"bool[]"},{"name":"names","type":"string[]","internalType":"string[]"}],"stateMutability":"view"},{"type":"function","name":"getChainName","inputs":[{"name":"chainEid","type":"uint32","internalType":"uint32"}],"outputs":[{"name":"","type":"string","internalType":"string"}],"stateMutability":"view"},{"type":"function","name":"getClaimableRewards","inputs":[{"name":"user","type":"address","internalType":"address"}],"outputs":[{"name":"","type":"uint256","internalType":"uint256"}],"stateMutability":"view"},{"type":"function","name":"getUserReferrer","inputs":[{"name":"user","type":"address","internalType":"address"}],"outputs":[{"name":"","type":"address","internalType":"address"}],"stateMutability":"view"},{"type":"function","name":"getUserRewardInfo","inputs":[{"name":"user","type":"address","internalType":"address"}],"outputs":[{"name":"claimableAmount","type":"uint256","internalType":"uint256"},{"name":"totalClaimed","type":"uint256","internalType":"uint256"}],"stateMutability":"view"},{"type":"function","name":"handleCreateProfile","inputs":[{"name":"user","type":"address","internalType":"address"},{"name":"referrer","type":"address","internalType":"address"},{"name":"sourceChain","type":"uint32","internalType":"uint32"}],"outputs":[],"stateMutability":"nonpayable"},{"type":"function","name":"handleStakeDataUpdate","inputs":[{"name":"staker","type":"address","internalType":"address"},{"name":"amount","type":"uint256","internalType":"uint256"},{"name":"unlockTime","type":"uint256","internalType":"uint256"},{"name":"durationMinutes","type":"uint256","internalType":"uint256"},{"name":"isActive","type":"bool","internalType":"bool"},{"name":"","type":"uint32","internalType":"uint32"}],"outputs":[],"stateMutability":"nonpayable"},{"type":"function","name":"handleSyncClaimableRewards","inputs":[{"name":"user","type":"address","internalType":"address"},{"name":"claimableAmount","type":"uint256","internalType":"uint256"},{"name":"sourceChain","type":"uint32","internalType":"uint32"}],"outputs":[],"stateMutability":"nonpayable"},{"type":"function","name":"initialize","inputs":[{"name":"_owner","type":"address","internalType":"address"},{"name":"_openworkToken","type":"address","internalType":"address"},{"name":"_bridge","type":"address","internalType":"address"}],"outputs":[],"stateMutability":"nonpayable"},{"type":"function","name":"isChainAuthorized","inputs":[{"name":"chainEid","type":"uint32","internalType":"uint32"}],"outputs":[{"name":"","type":"bool","internalType":"bool"}],"stateMutability":"view"},{"type":"function","name":"mainDAO","inputs":[],"outputs":[{"name":"","type":"address","internalType":"contract IMainDAO"}],"stateMutability":"view"},{"type":"function","name":"openworkToken","inputs":[],"outputs":[{"name":"","type":"address","internalType":"contract IERC20"}],"stateMutability":"view"},{"type":"function","name":"owner","inputs":[],"outputs":[{"name":"","type":"address","internalType":"address"}],"stateMutability":"view"},{"type":"function","name":"proxiableUUID","inputs":[],"outputs":[{"name":"","type":"bytes32","internalType":"bytes32"}],"stateMutability":"view"},{"type":"function","name":"quoteClaimSync","inputs":[{"name":"user","type":"address","internalType":"address"},{"name":"claimAmount","type":"uint256","internalType":"uint256"},{"name":"_options","type":"bytes","internalType":"bytes"}],"outputs":[{"name":"fee","type":"uint256","internalType":"uint256"}],"stateMutability":"view"},{"type":"function","name":"quoteStakeUpdate","inputs":[{"name":"staker","type":"address","internalType":"address"},{"name":"amount","type":"uint256","internalType":"uint256"},{"name":"unlockTime","type":"uint256","internalType":"uint256"},{"name":"durationMinutes","type":"uint256","internalType":"uint256"},{"name":"isActive","type":"bool","internalType":"bool"},{"name":"_options","type":"bytes","internalType":"bytes"}],"outputs":[{"name":"fee","type":"uint256","internalType":"uint256"}],"stateMutability":"view"},{"type":"function","name":"renounceOwnership","inputs":[],"outputs":[],"stateMutability":"nonpayable"},{"type":"function","name":"sendStakeUpdateCrossChain","inputs":[{"name":"staker","type":"address","internalType":"address"},{"name":"amount","type":"uint256","internalType":"uint256"},{"name":"unlockTime","type":"uint256","internalType":"uint256"},{"name":"durationMinutes","type":"uint256","internalType":"uint256"},{"name":"isActive","type":"bool","internalType":"bool"},{"name":"_options","type":"bytes","internalType":"bytes"}],"outputs":[],"stateMutability":"payable"},{"type":"function","name":"setBridge","inputs":[{"name":"_bridge","type":"address","internalType":"address"}],"outputs":[],"stateMutability":"nonpayable"},{"type":"function","name":"setMainDAO","inputs":[{"name":"_mainDAO","type":"address","internalType":"address"}],"outputs":[],"stateMutability":"nonpayable"},{"type":"function","name":"setOpenworkToken","inputs":[{"name":"_token","type":"address","internalType":"address"}],"outputs":[],"stateMutability":"nonpayable"},{"type":"function","name":"transferOwnership","inputs":[{"name":"newOwner","type":"address","internalType":"address"}],"outputs":[],"stateMutability":"nonpayable"},{"type":"function","name":"updateAuthorizedChain","inputs":[{"name":"_chainEid","type":"uint32","internalType":"uint32"},{"name":"_authorized","type":"bool","internalType":"bool"},{"name":"_chainName","type":"string","internalType":"string"}],"outputs":[],"stateMutability":"nonpayable"},{"type":"function","name":"upgradeFromDAO","inputs":[{"name":"newImplementation","type":"address","internalType":"address"}],"outputs":[],"stateMutability":"nonpayable"},{"type":"function","name":"upgradeToAndCall","inputs":[{"name":"newImplementation","type":"address","internalType":"address"},{"name":"data","type":"bytes","internalType":"bytes"}],"outputs":[],"stateMutability":"payable"},{"type":"function","name":"userClaimableBalance","inputs":[{"name":"","type":"address","internalType":"address"}],"outputs":[{"name":"","type":"uint256","internalType":"uint256"}],"stateMutability":"view"},{"type":"function","name":"userReferrers","inputs":[{"name":"","type":"address","internalType":"address"}],"outputs":[{"name":"","type":"address","internalType":"address"}],"stateMutability":"view"},{"type":"function","name":"userTotalClaimed","inputs":[{"name":"","type":"address","internalType":"address"}],"outputs":[{"name":"","type":"uint256","internalType":"uint256"}],"stateMutability":"view"},{"type":"event","name":"AuthorizedChainUpdated","inputs":[{"name":"chainEid","type":"uint32","indexed":true,"internalType":"uint32"},{"name":"authorized","type":"bool","indexed":false,"internalType":"bool"},{"name":"chainName","type":"string","indexed":false,"internalType":"string"}],"anonymous":false},{"type":"event","name":"BridgeUpdated","inputs":[{"name":"oldBridge","type":"address","indexed":true,"internalType":"address"},{"name":"newBridge","type":"address","indexed":true,"internalType":"address"}],"anonymous":false},{"type":"event","name":"ClaimableBalanceUpdated","inputs":[{"name":"user","type":"address","indexed":true,"internalType":"address"},{"name":"newBalance","type":"uint256","indexed":false,"internalType":"uint256"},{"name":"sourceChain","type":"uint32","indexed":true,"internalType":"uint32"}],"anonymous":false},{"type":"event","name":"ContractUpdated","inputs":[{"name":"contractType","type":"string","indexed":false,"internalType":"string"},{"name":"newAddress","type":"address","indexed":false,"internalType":"address"}],"anonymous":false},{"type":"event","name":"Initialized","inputs":[{"name":"version","type":"uint64","indexed":false,"internalType":"uint64"}],"anonymous":false},{"type":"event","name":"OwnershipTransferred","inputs":[{"name":"previousOwner","type":"address","indexed":true,"internalType":"address"},{"name":"newOwner","type":"address","indexed":true,"internalType":"address"}],"anonymous":false},{"type":"event","name":"ProfileCreated","inputs":[{"name":"user","type":"address","indexed":true,"internalType":"address"},{"name":"referrer","type":"address","indexed":true,"internalType":"address"},{"name":"sourceChain","type":"uint32","indexed":true,"internalType":"uint32"}],"anonymous":false},{"type":"event","name":"RewardsClaimed","inputs":[{"name":"user","type":"address","indexed":true,"internalType":"address"},{"name":"amount","type":"uint256","indexed":false,"internalType":"uint256"}],"anonymous":false},{"type":"event","name":"StakeDataForwarded","inputs":[{"name":"staker","type":"address","indexed":true,"internalType":"address"},{"name":"isActive","type":"bool","indexed":false,"internalType":"bool"}],"anonymous":false},{"type":"event","name":"Upgraded","inputs":[{"name":"implementation","type":"address","indexed":true,"internalType":"address"}],"anonymous":false},{"type":"error","name":"AddressEmptyCode","inputs":[{"name":"target","type":"address","internalType":"address"}]},{"type":"error","name":"ERC1967InvalidImplementation","inputs":[{"name":"implementation","type":"address","internalType":"address"}]},{"type":"error","name":"ERC1967NonPayable","inputs":[]},{"type":"error","name":"FailedInnerCall","inputs":[]},{"type":"error","name":"InvalidInitialization","inputs":[]},{"type":"error","name":"NotInitializing","inputs":[]},{"type":"error","name":"OwnableInvalidOwner","inputs":[{"name":"owner","type":"address","internalType":"address"}]},{"type":"error","name":"OwnableUnauthorizedAccount","inputs":[{"name":"account","type":"address","internalType":"address"}]},{"type":"error","name":"ReentrancyGuardReentrantCall","inputs":[]},{"type":"error","name":"UUPSUnauthorizedCallContext","inputs":[]},{"type":"error","name":"UUPSUnsupportedProxiableUUID","inputs":[{"name":"slot","type":"bytes32","internalType":"bytes32"}]}],"bytecode":{"object":"0x60a080604052346100c957306080525f51602061241e5f395f51905f525460ff8160401c166100ba576002600160401b03196001600160401b03821601610067575b60405161235090816100ce8239608051818181611103015281816111a701526114bf0152f35b6001600160401b0319166001600160401b039081175f51602061241e5f395f51905f525581527fc7f505b2f371ae2175ee4913f4499e1f2633a7b5936321eed1cdaeb6115181d290602090a15f80610041565b63f92ee8a960e01b5f5260045ffd5b5f80fdfe6080604052600436101561001a575b3615610018575f80fd5b005b5f5f3560e01c80630361cc8514611b05578063123a4abf146118875780631616a683146117885780632b86f2da14611714578063308e401e146113ee57806336144c9a146109ba57806340634e3b14611471578063426ad3f5146114275780634d966893146113ee5780634f1ef2861461115757806352d1902d146110f05780635312ea8e146110755780635c708f9314610f765780635f00d69f14610f2c5780636268347f14610ef35780636951731014610ea9578063715018a614610e5357806372d7ed6114610c40578063821295a814610bc957806384bb819314610a9b5780638da5cb5b14610a665780638dd14802146109fb5780638f63489d146109ba578063a89fd08214610993578063ad3cb1cc14610946578063b5a4fe1f146108d3578063b68dc1dc146108ab578063c0c53b8b1461060a578063dc59e6371461027f578063e190febc146102b9578063e54622391461027f578063e78cea9214610256578063eedcf50a1461022d578063f2fde38b146102005763fbeefe11146101a6575061000e565b346101fd5760403660031901126101fd57806101c0611ca6565b5f51602061221b5f395f51905f526020602435926101dc61213e565b6001600160a01b03168085526004825260408086208590555193845292a380f35b80fd5b50346101fd5760203660031901126101fd5761022a61021d611ca6565b61022561213e565b6120e0565b80f35b50346101fd57806003193601126101fd576001546040516001600160a01b039091168152602090f35b50346101fd57806003193601126101fd576002546040516001600160a01b039091168152602090f35b50346101fd5760203660031901126101fd5760ff604060209263ffffffff6102a5611b3a565b168152600684522054166040519015158152f35b5060203660031901126101fd576004356001600160401b0381116104d6576102e5903690600401611d23565b9060025f5160206122db5f395f51905f5254146105fb5760025f5160206122db5f395f51905f5255338352600460205260408320549182156105c05783546040516370a0823160e01b815230600482015290602090829060249082906001600160a01b03165afa80156105b5578491869161057c575b50106105375733845260046020528360408120553384526005602052604084208054908482018092116105235755835460405163a9059cbb60e01b81528593929160209082906001600160a01b03168187816103bb8b3360048401611e46565b03925af18015610518576103d69185916104e9575b50611e61565b6002546001600160a01b0316908161042b575b83856040519081527ffc30cddea38e2bf4d6ea7d3f9ed3b6ad7f176419f4963bd81318067a4aee73fe60203392a260015f5160206122db5f395f51905f525580f35b6040519161044f83610441883360208401611ecb565b03601f198101855284611bab565b803b156104e55761049785936104a960405196879586948594636d42e1e360e01b86526060600487015261048560648701611ea5565b86810360031901602488015290611c82565b84810360031901604486015291611ef6565b039134905af180156104da576104c1575b80806103e9565b816104cb91611bab565b6104d657815f6104ba565b5080fd5b6040513d84823e3d90fd5b8480fd5b61050b915060203d602011610511575b6105038183611bab565b810190611e2e565b5f6103d0565b503d6104f9565b6040513d86823e3d90fd5b634e487b7160e01b86526011600452602486fd5b60405162461bcd60e51b815260206004820152601d60248201527f496e73756666696369656e7420636f6e74726163742062616c616e63650000006044820152606490fd5b9150506020813d6020116105ad575b8161059860209383611bab565b810103126105a9578390515f61035b565b5f80fd5b3d915061058b565b6040513d87823e3d90fd5b60405162461bcd60e51b81526020600482015260136024820152724e6f207265776172647320746f20636c61696d60681b6044820152606490fd5b633ee5aeb560e01b8352600483fd5b50346101fd5760603660031901126101fd57610624611ca6565b61062c611cbc565b6044356001600160a01b03811691908290036108a7575f5160206122fb5f395f51905f5254604081901c60ff161593906001600160401b0381168015908161089f575b6001149081610895575b15908161088c575b5061087d576001600160401b031981166001175f5160206122fb5f395f51905f52556106bf919085610855575b506106b7612171565b610225612171565b6106c7612171565b6106cf612171565b60015f5160206122db5f395f51905f52556106e8612171565b60018060a01b031660018060a01b031984541617835560018060a01b03196002541617600255619ce18252600660205260408220600160ff19825416179055619d288252600660205260408220600160ff19825416179055619d278252600660205260408220600160ff19825416179055619ce1825260076020526040822061077a6107748254611b73565b82612010565b60206f457468657265756d205365706f6c696160801b019055619d2882526007602052604082206107ae6107748254611b73565b60206f4f7074696d69736d205365706f6c696160801b019055619d2782526007602052604082206107e26107748254611b73565b60206f417262697472756d205365706f6c696160801b0190556108025780f35b60ff60401b195f5160206122fb5f395f51905f5254165f5160206122fb5f395f51905f52557fc7f505b2f371ae2175ee4913f4499e1f2633a7b5936321eed1cdaeb6115181d2602060405160018152a180f35b6001600160481b0319166001600160401b01175f5160206122fb5f395f51905f52555f6106ae565b63f92ee8a960e01b8652600486fd5b9050155f610681565b303b159150610679565b86915061066f565b8380fd5b50346101fd5760206108cb6108bf36611d50565b9594909493919361209e565b604051908152f35b50346101fd5760203660031901126101fd575f51602061225b5f395f51905f5260806108fd611ca6565b61090561213e565b60018060a01b03168060018060a01b03196001541617600155604051906040825260076040830152664d61696e44414f60c81b60608301526020820152a180f35b50346101fd57806003193601126101fd575061098f604051610969604082611bab565b60058152640352e302e360dc1b6020820152604051918291602083526020830190611c82565b0390f35b50346101fd57806003193601126101fd57546040516001600160a01b039091168152602090f35b50346101fd5760203660031901126101fd576020906001600160a01b036109df611ca6565b16815260038252604060018060a01b0391205416604051908152f35b50346101fd5760203660031901126101fd57610a15611ca6565b610a1d61213e565b600280546001600160a01b039283166001600160a01b0319821681179092559091167faae9beddccf584528e87b66c6ff2563825c8a1433305b8a656e9b5f9bf3904998380a380f35b50346101fd57806003193601126101fd575f5160206121fb5f395f51905f52546040516001600160a01b039091168152602090f35b50610aa536611d50565b92909493919560018060a01b03600154163303610b78576002546001600160a01b0316928315610b42578897610ae8936104419260405198899560208701612062565b803b156104e5576104978593610b1e60405196879586948594636d42e1e360e01b86526060600487015261048560648701612040565b039134905af180156104da57610b315750f35b81610b3b91611bab565b6101fd5780f35b60405162461bcd60e51b815260206004820152600e60248201526d109c9a5919d9481b9bdd081cd95d60921b6044820152606490fd5b60405162461bcd60e51b8152602060048201526024808201527f4f6e6c79204d61696e2044414f2063616e2073656e64207374616b65207570646044820152636174657360e01b6064820152608490fd5b50346101fd5760203660031901126101fd575f51602061225b5f395f51905f526080610bf3611ca6565b610bfb61213e565b60018060a01b03168060018060a01b03198554161784556040519060408252600d60408301526c27b832b73bb7b935aa37b5b2b760991b60608301526020820152a180f35b50346101fd5760603660031901126101fd57610c5a611b3a565b9060243580151592838203610e4f576044356001600160401b0381116108a757366023820112156108a757610c9e63ffffffff913690602481600401359101611ced565b91610ca761213e565b169182845260066020526040842060ff1981541660ff871617905580610e45575b610cff575b5f5160206122bb5f395f51905f529084610cf96040519283928352604060208401526040830190611c82565b0390a280f35b818352600760205260408320815194906001600160401b038611610e3157610d278154611b73565b601f8111610dee575b50602095601f8111600114610d7f578086975f5160206122bb5f395f51905f52969791610d74575b508160011b915f199060031b1c19161790555b93929150610ccd565b90508401515f610d58565b81865286862096601f198216875b818110610dd657509782916001935f5160206122bb5f395f51905f5298999a10610dbe575b5050811b019055610d6b565b8601515f1960f88460031b161c191690555f80610db2565b868301518a5560019099019860209283019201610d8d565b86811115610d3057610e23908287526020872090601f890160051c9060208a10610e29575b601f82910160051c039101611ff5565b5f610d30565b889150610e13565b634e487b7160e01b85526041600452602485fd5b5080511515610cc8565b8280fd5b50346101fd57806003193601126101fd57610e6c61213e565b5f5160206121fb5f395f51905f5280546001600160a01b0319811690915581906001600160a01b03165f51602061227b5f395f51905f528280a380f35b50346101fd5760203660031901126101fd57604090816001600160a01b03610ecf611ca6565b16918281526004602052818120549281526005602052205482519182526020820152f35b50346101fd5760203660031901126101fd576020906040906001600160a01b03610f1b611ca6565b168152600583522054604051908152f35b50346101fd5760603660031901126101fd57610f46611ca6565b90604435906001600160401b0382116101fd5760206108cb84610f6c3660048701611d23565b9160243590611f3e565b50346101fd5760603660031901126101fd57610f90611ca6565b610f98611cbc565b90610fa1611b60565b90610fb760018060a01b03600254163314611dd7565b6001600160a01b0316918215611039576001600160a01b03169063ffffffff908215158061102f575b61100e575b16917fdacfab8bdded849db54335f502a9570ef133c550e0b98ae86babf523cf7be21e8480a480f35b83855260036020526040852080546001600160a01b03191684179055610fe5565b5083831415610fe0565b60405162461bcd60e51b8152602060048201526014602482015273496e76616c69642075736572206164647265737360601b6044820152606490fd5b50346101fd5760203660031901126101fd5761108f61213e565b8060206110d660018060a01b0383541660018060a01b035f5160206121fb5f395f51905f52541660405194858094819363a9059cbb60e01b83526004359060048401611e46565b03925af180156104da5761022a9183916104e95750611e61565b50346101fd57806003193601126101fd577f00000000000000000000000000000000000000000000000000000000000000006001600160a01b031630036111485760206040515f51602061223b5f395f51905f528152f35b63703e46dd60e11b8152600490fd5b5060403660031901126101fd5761116c611ca6565b906024356001600160401b0381116104d657366023820112156104d65761119d903690602481600401359101611ced565b6001600160a01b037f0000000000000000000000000000000000000000000000000000000000000000163081149081156113cc575b506113bd575f5160206121fb5f395f51905f52546001600160a01b0316331480156113a9575b8015611395575b15611359576040516352d1902d60e01b8152926001600160a01b0381169190602085600481865afa80958596611325575b5061124957634c9c8ce360e01b84526004839052602484fd5b9091845f51602061223b5f395f51905f5281036113135750813b15611301575f51602061223b5f395f51905f5280546001600160a01b031916821790555f51602061229b5f395f51905f528480a281518390156112e757808360206112db95519101845af43d156112df573d916112bf83611cd2565b926112cd6040519485611bab565b83523d85602085013e61219c565b5080f35b60609161219c565b505050346112f25780f35b63b398979f60e01b8152600490fd5b634c9c8ce360e01b8452600452602483fd5b632a87526960e21b8552600452602484fd5b9095506020813d602011611351575b8161134160209383611bab565b810103126104e55751945f611230565b3d9150611334565b60405162461bcd60e51b8152602060048201526014602482015273556e617574686f72697a6564207570677261646560601b6044820152606490fd5b506001546001600160a01b031633146111ff565b506002546001600160a01b031633146111f8565b63703e46dd60e11b8252600482fd5b5f51602061223b5f395f51905f52546001600160a01b0316141590505f6111d2565b50346101fd5760203660031901126101fd576020906040906001600160a01b03611416611ca6565b168152600483522054604051908152f35b50346101fd5760203660031901126101fd5761145d604061098f9263ffffffff61144f611b3a565b168152600760205220611be2565b604051918291602083526020830190611c82565b50346101fd5760203660031901126101fd5761148b611ca6565b6001546001600160a01b03169190338390036116d857602090604051936114b28386611bab565b8385526001600160a01b037f0000000000000000000000000000000000000000000000000000000000000000163081149081156116b6575b506116a7575f5160206121fb5f395f51905f52546001600160a01b03163314908115611692575b8115611688575b501561164c576040516352d1902d60e01b81526001600160a01b03821694908381600481895afa859181611619575b5061156057634c9c8ce360e01b85526004869052602485fd5b5f51602061223b5f395f51905f5281036113135750813b15611605575f51602061223b5f395f51905f5280546001600160a01b0319168617905592938493905f51602061229b5f395f51905f528580a28051156115fb57928084846112db96519101845af4903d156115f2573d6115d681611cd2565b906115e46040519283611bab565b81528581943d92013e61219c565b6060925061219c565b5050506112f25780f35b634c9c8ce360e01b84526004859052602484fd5b9091508481813d8311611645575b6116318183611bab565b810103126116415751905f611547565b8580fd5b503d611627565b60405162461bcd60e51b8152600481018390526014602482015273556e617574686f72697a6564207570677261646560601b6044820152606490fd5b905033145f611518565b6002546001600160a01b031633149150611511565b63703e46dd60e11b8452600484fd5b5f51602061223b5f395f51905f52546001600160a01b0316141590505f6114ea565b60405162461bcd60e51b81526020600482015260146024820152734f6e6c792044414f2063616e207570677261646560601b6044820152606490fd5b50346101fd5760603660031901126101fd5761172e611ca6565b602435905f51602061221b5f395f51905f52602063ffffffff61174f611b60565b9361176560018060a01b03600254163314611dd7565b6001600160a01b031680875260048352604080882087905551958652931693a380f35b50346105a95760c03660031901126105a9576117a2611ca6565b6084358015158091036105a9576117b7611b4d565b506117cd60018060a01b03600254163314611dd7565b6001546001600160a01b031691826117e3578380f35b823b156105a9575f809160a46040518094819363ea8c2d9960e01b835260018060a01b0316978860048401526024356024840152604435604484015260643560648401528760848401525af19081611872575b5061184057808380f35b60207f848a38d5c0078d70cadc73539cd8038846f9998a5a4bf0e2227eaa3abd7cd03e91604051908152a25f80808380f35b61187f9194505f90611bab565b5f925f611836565b346105a9575f3660031901126105a9576040516118a5608082611bab565b60038152602081016060368237815115611af157619ce19052805160011015611af157619d286040820152805160021015611af157619d2760608201528051906119076118f183611dac565b926118ff6040519485611bab565b808452611dac565b602083019190601f19013683378051906119236118f183611dac565b602083019290601f190136843781519261193c84611dac565b9361194a6040519586611bab565b808552611959601f1991611dac565b015f5b818110611ae05750505f5b83518110156119fe578063ffffffff61198260019387611dc3565b511661198e828a611dc3565b5263ffffffff61199e8287611dc3565b51165f52600660205260ff60405f2054166119b98286611dc3565b901515905263ffffffff6119cd8287611dc3565b51165f5260076020526119e260405f20611be2565b6119ec8288611dc3565b526119f78187611dc3565b5001611967565b5091509392604051948594606086019060608752518091526080860192905f5b818110611ac1575050506020908583038287015251918281520191905f5b818110611aa6575050508281036040840152815180825260208201916020808360051b8301019401925f915b838310611a755786860387f35b919395509193602080611a94600193601f198682030187528951611c82565b97019301930190928695949293611a68565b82511515845286955060209384019390920191600101611a3c565b825163ffffffff16855288975060209485019490920191600101611a1e565b80606060208093890101520161195c565b634e487b7160e01b5f52603260045260245ffd5b346105a95760203660031901126105a95763ffffffff611b23611b3a565b165f52600760205261098f61145d60405f20611be2565b6004359063ffffffff821682036105a957565b60a4359063ffffffff821682036105a957565b6044359063ffffffff821682036105a957565b90600182811c92168015611ba1575b6020831014611b8d57565b634e487b7160e01b5f52602260045260245ffd5b91607f1691611b82565b601f909101601f19168101906001600160401b03821190821017611bce57604052565b634e487b7160e01b5f52604160045260245ffd5b9060405191825f825492611bf584611b73565b8084529360018116908115611c605750600114611c1c575b50611c1a92500383611bab565b565b90505f9291925260205f20905f915b818310611c44575050906020611c1a928201015f611c0d565b6020919350806001915483858901015201910190918492611c2b565b905060209250611c1a94915060ff191682840152151560051b8201015f611c0d565b805180835260209291819084018484015e5f828201840152601f01601f1916010190565b600435906001600160a01b03821682036105a957565b602435906001600160a01b03821682036105a957565b6001600160401b038111611bce57601f01601f191660200190565b929192611cf982611cd2565b91611d076040519384611bab565b8294818452818301116105a9578281602093845f960137010152565b9181601f840112156105a9578235916001600160401b0383116105a957602083818601950101116105a957565b9060c06003198301126105a9576004356001600160a01b03811681036105a9579160243591604435916064359160843580151581036105a9579160a435906001600160401b0382116105a957611da891600401611d23565b9091565b6001600160401b038111611bce5760051b60200190565b8051821015611af15760209160051b010190565b15611dde57565b60405162461bcd60e51b815260206004820152602260248201527f4f6e6c79206272696467652063616e2063616c6c20746869732066756e63746960448201526137b760f11b6064820152608490fd5b908160209103126105a9575180151581036105a95790565b6001600160a01b039091168152602081019190915260400190565b15611e6857565b60405162461bcd60e51b8152602060048201526015602482015274151bdad95b881d1c985b9cd9995c8819985a5b1959605a1b6044820152606490fd5b601381527275706461746555736572436c61696d4461746160681b602082015260400190565b6040909392919360608152611ee260608201611ea5565b6001600160a01b0390951660208201520152565b908060209392818452848401375f828201840152601f01601f1916010190565b91611f2d611f3b9492604085526040850190611c82565b926020818503910152611ef6565b90565b6002549193909290916001600160a01b0316908115611fec57611f9d94611f80602095611f72604051938492898401611ecb565b03601f198101835282611bab565b6040516376fc7a2d60e11b81529586948593849360048501611f16565b03915afa908115611fe1575f91611fb2575090565b90506020813d602011611fd9575b81611fcd60209383611bab565b810103126105a9575190565b3d9150611fc0565b6040513d5f823e3d90fd5b50505050505f90565b5f5b82811061200357505050565b5f82820155600101611ff7565b90601f811161201d575050565b60108111612029575050565b611c1a915f52601f60205f20910160051c90611ff5565b600f81526e7570646174655374616b654461746160881b602082015260400190565b93909594919260a09360c0865261207b60c08701612040565b97600180871b031660208701526040860152606085015260808401521515910152565b600254929694956001600160a01b03909316939084156120d457611f72602097611f8093611f9d9a6040519687958c8701612062565b50505050505050505f90565b6001600160a01b0316801561212b575f5160206121fb5f395f51905f5280546001600160a01b0319811683179091556001600160a01b03165f51602061227b5f395f51905f525f80a3565b631e4fbdf760e01b5f525f60045260245ffd5b5f5160206121fb5f395f51905f52546001600160a01b0316330361215e57565b63118cdaa760e01b5f523360045260245ffd5b60ff5f5160206122fb5f395f51905f525460401c161561218d57565b631afcd79f60e31b5f5260045ffd5b906121c057508051156121b157805190602001fd5b630a12f52160e11b5f5260045ffd5b815115806121f1575b6121d1575090565b639996b31560e01b5f9081526001600160a01b0391909116600452602490fd5b50803b156121c956fe9016d09d72d40fdae2fd8ceac6b6234c7706214fd39c1cd1e609a0528c1993006f65eda1f4a8514319821682a1a79b30d490c908be4601f048bb0ec7b1050d8f360894a13ba1a3210667c828492db98dca3e2076cc3735a920a3ca505d382bbcf611fec7babefd259c57ea5b6006acff8140ab17bb816c65ba0aa7e36c09caa88be0079c531659141344cd1fd0a4f28419497f9722a3daafe3b4186f6b6457e0bc7cd75a20ee27fd9adebab32041f755214dbc6bffa90cc0225b39da2e5c2d3b1c7d141c8b1cde9d77693870ecf60de9b9829ad204a113f7630dcc328246e61f9b779b17422d0df92223018b32b4d1fa46e071723d6817e2486d003becc55f00f0c57e16840df040f15088dc2f81fe391c3923bec73e23a9662efc9c229c6a00a2646970667358221220cf22075883ca9b219b88c016b9109adae2ef1d36dce0a48aa556ae0cdaba499864736f6c63430008210033f0c57e16840df040f15088dc2f81fe391c3923bec73e23a9662efc9c229c6a00","linkReferences":{}},"methodIdentifiers":{"UPGRADE_INTERFACE_VERSION()":"ad3cb1cc","authorizedChains(uint32)":"dc59e637","bridge()":"e78cea92","chainNames(uint32)":"0361cc85","claimRewards(bytes)":"e190febc","emergencyUpdateUserBalance(address,uint256)":"fbeefe11","emergencyWithdraw(uint256)":"5312ea8e","getAuthorizedChains()":"123a4abf","getChainName(uint32)":"426ad3f5","getClaimableRewards(address)":"308e401e","getUserReferrer(address)":"36144c9a","getUserRewardInfo(address)":"69517310","handleCreateProfile(address,address,uint32)":"5c708f93","handleStakeDataUpdate(address,uint256,uint256,uint256,bool,uint32)":"1616a683","handleSyncClaimableRewards(address,uint256,uint32)":"2b86f2da","initialize(address,address,address)":"c0c53b8b","isChainAuthorized(uint32)":"e5462239","mainDAO()":"eedcf50a","openworkToken()":"a89fd082","owner()":"8da5cb5b","proxiableUUID()":"52d1902d","quoteClaimSync(address,uint256,bytes)":"5f00d69f","quoteStakeUpdate(address,uint256,uint256,uint256,bool,bytes)":"b68dc1dc","renounceOwnership()":"715018a6","sendStakeUpdateCrossChain(address,uint256,uint256,uint256,bool,bytes)":"84bb8193","setBridge(address)":"8dd14802","setMainDAO(address)":"b5a4fe1f","setOpenworkToken(address)":"821295a8","transferOwnership(address)":"f2fde38b","updateAuthorizedChain(uint32,bool,string)":"72d7ed61","upgradeFromDAO(address)":"40634e3b","upgradeToAndCall(address,bytes)":"4f1ef286","userClaimableBalance(address)":"4d966893","userReferrers(address)":"8f63489d","userTotalClaimed(address)":"6268347f"},"id":81}