{"abi":[{"type":"constructor","inputs":[{"name":"implementation","type":"address","internalType":"address"},{"name":"data","type":"bytes","internalType":"bytes"}],"stateMutability":"nonpayable"},{"type":"fallback","stateMutability":"payable"},{"type":"receive","stateMutability":"payable"},{"type":"function","name":"getImplementation","inputs":[],"outputs":[{"name":"impl","type":"address","internalType":"address"}],"stateMutability":"view"},{"type":"function","name":"supportsUUPS","inputs":[],"outputs":[{"name":"","type":"bool","internalType":"bool"}],"stateMutability":"pure"},{"type":"event","name":"Upgraded","inputs":[{"name":"implementation","type":"address","indexed":true,"internalType":"address"}],"anonymous":false},{"type":"error","name":"AddressEmptyCode","inputs":[{"name":"target","type":"address","internalType":"address"}]},{"type":"error","name":"ERC1967InvalidImplementation","inputs":[{"name":"implementation","type":"address","internalType":"address"}]},{"type":"error","name":"ERC1967NonPayable","inputs":[]},{"type":"error","name":"FailedInnerCall","inputs":[]}],"bytecode":{"object":"0x60806040523461015f575f61031b908138038061001b81610163565b938439820160408382031261015f5782516001600160a01b0381169390919084830361015f576020810151906001600160401b03821161015f57019381601f8601121561015f5784516100756100708261019c565b610163565b9581875260208701936020838301011161015f57815f926020809301865e87010152823b1561014d577f360894a13ba1a3210667c828492db98dca3e2076cc3735a920a3ca505d382bbc80546001600160a01b031916821790557fbc7cd75a20ee27fd9adebab32041f755214dbc6bffa90cc0225b39da2e5c2d3b5f80a28351156101445782809161012a955190845af4903d1561013b573d61011a6100708261019c565b908152809360203d92013e6101b7565b505b60405161010590816102168239f35b606092506101b7565b5050505061012c565b634c9c8ce360e01b5f5260045260245ffd5b5f80fd5b6040519190601f01601f191682016001600160401b0381118382101761018857604052565b634e487b7160e01b5f52604160045260245ffd5b6001600160401b03811161018857601f01601f191660200190565b906101db57508051156101cc57805190602001fd5b630a12f52160e11b5f5260045ffd5b8151158061020c575b6101ec575090565b639996b31560e01b5f9081526001600160a01b0391909116600452602490fd5b50803b156101e456fe608060405260043610156013575b36607a57005b5f3560e01c8063286ac1bb1460615763aaf10f4203600d5734605d575f366003190112605d575f5160206100b05f395f51905f52546040516001600160a01b039091168152602090f35b5f80fd5b34605d575f366003190112605d57600160805260206080f35b5f5160206100b05f395f51905f52545f9081906001600160a01b0316368280378136915af43d5f803e1560ab573d5ff35b3d5ffdfe360894a13ba1a3210667c828492db98dca3e2076cc3735a920a3ca505d382bbca2646970667358221220620839f21f0786adad4d9f85eb15602cb2102310ac987cee9f26b2d4a09e83e364736f6c63430008210033","linkReferences":{}},"methodIdentifiers":{"getImplementation()":"aaf10f42","supportsUUPS()":"286ac1bb"},"id":92}