{"abi":[{"type":"function","name":"getStakerInfo","inputs":[{"name":"","type":"address","internalType":"address"}],"outputs":[{"name":"stakeAmount","type":"uint256","internalType":"uint256"},{"name":"startTime","type":"uint256","internalType":"uint256"},{"name":"durationMinutes","type":"uint256","internalType":"uint256"},{"name":"isActive","type":"bool","internalType":"bool"}],"stateMutability":"pure"}],"bytecode":{"object":"0x60808060405234601357609b908160188239f35b5f80fdfe60808060405260043610156011575f80fd5b5f3560e01c63733bdef0146023575f80fd5b3460615760203660031901126061576004356001600160a01b03811603606157806103e8608092525f6020820152603c604082015260016060820152f35b5f80fdfea264697066735822122047cdb0b83c37c9fa5f15d1185a33cada8bfeabf085255f2d564a39b0665276b564736f6c63430008210033","linkReferences":{}},"methodIdentifiers":{"getStakerInfo(address)":"733bdef0"},"id":0}