{"abi":[{"type":"constructor","inputs":[],"stateMutability":"nonpayable"},{"type":"function","name":"UPGRADE_INTERFACE_VERSION","inputs":[],"outputs":[{"name":"","type":"string","internalType":"string"}],"stateMutability":"view"},{"type":"function","name":"addPortfolio","inputs":[{"name":"_portfolioHash","type":"string","internalType":"string"}],"outputs":[],"stateMutability":"nonpayable"},{"type":"function","name":"applyToJob","inputs":[{"name":"_jobId","type":"string","internalType":"string"},{"name":"_appHash","type":"string","internalType":"string"},{"name":"_descriptions","type":"string[]","internalType":"string[]"},{"name":"_amounts","type":"uint256[]","internalType":"uint256[]"},{"name":"_preferredChainDomain","type":"uint32","internalType":"uint32"}],"outputs":[],"stateMutability":"nonpayable"},{"type":"function","name":"athenaClientContract","inputs":[],"outputs":[{"name":"","type":"address","internalType":"address"}],"stateMutability":"view"},{"type":"function","name":"createProfile","inputs":[{"name":"_ipfsHash","type":"string","internalType":"string"},{"name":"_referrerAddress","type":"address","internalType":"address"}],"outputs":[],"stateMutability":"nonpayable"},{"type":"function","name":"emergencyWithdrawUSDC","inputs":[],"outputs":[],"stateMutability":"nonpayable"},{"type":"function","name":"getApplication","inputs":[{"name":"_jobId","type":"string","internalType":"string"},{"name":"_appId","type":"uint256","internalType":"uint256"}],"outputs":[{"name":"","type":"tuple","internalType":"struct NativeArbOpenWorkJobContract.Application","components":[{"name":"id","type":"uint256","internalType":"uint256"},{"name":"jobId","type":"string","internalType":"string"},{"name":"applicant","type":"address","internalType":"address"},{"name":"applicationHash","type":"string","internalType":"string"},{"name":"proposedMilestones","type":"tuple[]","internalType":"struct NativeArbOpenWorkJobContract.MilestonePayment[]","components":[{"name":"descriptionHash","type":"string","internalType":"string"},{"name":"amount","type":"uint256","internalType":"uint256"}]}]}],"stateMutability":"view"},{"type":"function","name":"getEscrowBalance","inputs":[{"name":"_jobId","type":"string","internalType":"string"}],"outputs":[{"name":"escrowed","type":"uint256","internalType":"uint256"},{"name":"released","type":"uint256","internalType":"uint256"},{"name":"remaining","type":"uint256","internalType":"uint256"}],"stateMutability":"view"},{"type":"function","name":"getJob","inputs":[{"name":"_jobId","type":"string","internalType":"string"}],"outputs":[{"name":"","type":"tuple","internalType":"struct NativeArbOpenWorkJobContract.Job","components":[{"name":"id","type":"string","internalType":"string"},{"name":"jobGiver","type":"address","internalType":"address"},{"name":"applicants","type":"address[]","internalType":"address[]"},{"name":"jobDetailHash","type":"string","internalType":"string"},{"name":"status","type":"uint8","internalType":"enum NativeArbOpenWorkJobContract.JobStatus"},{"name":"workSubmissions","type":"string[]","internalType":"string[]"},{"name":"milestonePayments","type":"tuple[]","internalType":"struct NativeArbOpenWorkJobContract.MilestonePayment[]","components":[{"name":"descriptionHash","type":"string","internalType":"string"},{"name":"amount","type":"uint256","internalType":"uint256"}]},{"name":"finalMilestones","type":"tuple[]","internalType":"struct NativeArbOpenWorkJobContract.MilestonePayment[]","components":[{"name":"descriptionHash","type":"string","internalType":"string"},{"name":"amount","type":"uint256","internalType":"uint256"}]},{"name":"totalPaid","type":"uint256","internalType":"uint256"},{"name":"currentLockedAmount","type":"uint256","internalType":"uint256"},{"name":"currentMilestone","type":"uint256","internalType":"uint256"},{"name":"selectedApplicant","type":"address","internalType":"address"},{"name":"selectedApplicationId","type":"uint256","internalType":"uint256"},{"name":"totalEscrowed","type":"uint256","internalType":"uint256"},{"name":"totalReleased","type":"uint256","internalType":"uint256"}]}],"stateMutability":"view"},{"type":"function","name":"getJobApplicationCount","inputs":[{"name":"_jobId","type":"string","internalType":"string"}],"outputs":[{"name":"","type":"uint256","internalType":"uint256"}],"stateMutability":"view"},{"type":"function","name":"getJobCount","inputs":[],"outputs":[{"name":"","type":"uint256","internalType":"uint256"}],"stateMutability":"view"},{"type":"function","name":"getJobStatus","inputs":[{"name":"_jobId","type":"string","internalType":"string"}],"outputs":[{"name":"","type":"uint8","internalType":"enum NativeArbOpenWorkJobContract.JobStatus"}],"stateMutability":"view"},{"type":"function","name":"getRating","inputs":[{"name":"_user","type":"address","internalType":"address"}],"outputs":[{"name":"","type":"uint256","internalType":"uint256"}],"stateMutability":"view"},{"type":"function","name":"getTotalPlatformPayments","inputs":[],"outputs":[{"name":"","type":"uint256","internalType":"uint256"}],"stateMutability":"view"},{"type":"function","name":"hasProfile","inputs":[{"name":"","type":"address","internalType":"address"}],"outputs":[{"name":"","type":"bool","internalType":"bool"}],"stateMutability":"view"},{"type":"function","name":"initialize","inputs":[{"name":"_owner","type":"address","internalType":"address"},{"name":"_usdcToken","type":"address","internalType":"address"},{"name":"_nowjc","type":"address","internalType":"address"}],"outputs":[],"stateMutability":"nonpayable"},{"type":"function","name":"isJobOpen","inputs":[{"name":"_jobId","type":"string","internalType":"string"}],"outputs":[{"name":"","type":"bool","internalType":"bool"}],"stateMutability":"view"},{"type":"function","name":"jobApplicationCounter","inputs":[{"name":"","type":"string","internalType":"string"}],"outputs":[{"name":"","type":"uint256","internalType":"uint256"}],"stateMutability":"view"},{"type":"function","name":"jobApplications","inputs":[{"name":"","type":"string","internalType":"string"},{"name":"","type":"uint256","internalType":"uint256"}],"outputs":[{"name":"id","type":"uint256","internalType":"uint256"},{"name":"jobId","type":"string","internalType":"string"},{"name":"applicant","type":"address","internalType":"address"},{"name":"applicationHash","type":"string","internalType":"string"}],"stateMutability":"view"},{"type":"function","name":"jobCounter","inputs":[],"outputs":[{"name":"","type":"uint256","internalType":"uint256"}],"stateMutability":"view"},{"type":"function","name":"jobRatings","inputs":[{"name":"","type":"string","internalType":"string"},{"name":"","type":"address","internalType":"address"}],"outputs":[{"name":"","type":"uint256","internalType":"uint256"}],"stateMutability":"view"},{"type":"function","name":"jobs","inputs":[{"name":"","type":"string","internalType":"string"}],"outputs":[{"name":"id","type":"string","internalType":"string"},{"name":"jobGiver","type":"address","internalType":"address"},{"name":"jobDetailHash","type":"string","internalType":"string"},{"name":"status","type":"uint8","internalType":"enum NativeArbOpenWorkJobContract.JobStatus"},{"name":"totalPaid","type":"uint256","internalType":"uint256"},{"name":"currentLockedAmount","type":"uint256","internalType":"uint256"},{"name":"currentMilestone","type":"uint256","internalType":"uint256"},{"name":"selectedApplicant","type":"address","internalType":"address"},{"name":"selectedApplicationId","type":"uint256","internalType":"uint256"},{"name":"totalEscrowed","type":"uint256","internalType":"uint256"},{"name":"totalReleased","type":"uint256","internalType":"uint256"}],"stateMutability":"view"},{"type":"function","name":"lockNextMilestone","inputs":[{"name":"_jobId","type":"string","internalType":"string"}],"outputs":[],"stateMutability":"nonpayable"},{"type":"function","name":"nowjc","inputs":[],"outputs":[{"name":"","type":"address","internalType":"contract INativeNOWJC"}],"stateMutability":"view"},{"type":"function","name":"owner","inputs":[],"outputs":[{"name":"","type":"address","internalType":"address"}],"stateMutability":"view"},{"type":"function","name":"postJob","inputs":[{"name":"_jobDetailHash","type":"string","internalType":"string"},{"name":"_descriptions","type":"string[]","internalType":"string[]"},{"name":"_amounts","type":"uint256[]","internalType":"uint256[]"}],"outputs":[],"stateMutability":"nonpayable"},{"type":"function","name":"profileManager","inputs":[],"outputs":[{"name":"","type":"address","internalType":"address"}],"stateMutability":"view"},{"type":"function","name":"profiles","inputs":[{"name":"","type":"address","internalType":"address"}],"outputs":[{"name":"userAddress","type":"address","internalType":"address"},{"name":"ipfsHash","type":"string","internalType":"string"},{"name":"referrerAddress","type":"address","internalType":"address"}],"stateMutability":"view"},{"type":"function","name":"proxiableUUID","inputs":[],"outputs":[{"name":"","type":"bytes32","internalType":"bytes32"}],"stateMutability":"view"},{"type":"function","name":"rate","inputs":[{"name":"_jobId","type":"string","internalType":"string"},{"name":"_userToRate","type":"address","internalType":"address"},{"name":"_rating","type":"uint256","internalType":"uint256"}],"outputs":[],"stateMutability":"nonpayable"},{"type":"function","name":"releaseAndLockNext","inputs":[{"name":"_jobId","type":"string","internalType":"string"}],"outputs":[],"stateMutability":"nonpayable"},{"type":"function","name":"releasePayment","inputs":[{"name":"_jobId","type":"string","internalType":"string"}],"outputs":[],"stateMutability":"nonpayable"},{"type":"function","name":"removePortfolioItem","inputs":[{"name":"_index","type":"uint256","internalType":"uint256"}],"outputs":[],"stateMutability":"nonpayable"},{"type":"function","name":"renounceOwnership","inputs":[],"outputs":[],"stateMutability":"nonpayable"},{"type":"function","name":"resolveDispute","inputs":[{"name":"_jobId","type":"string","internalType":"string"},{"name":"_jobGiverWins","type":"bool","internalType":"bool"}],"outputs":[],"stateMutability":"nonpayable"},{"type":"function","name":"setAthenaClientContract","inputs":[{"name":"_athenaClient","type":"address","internalType":"address"}],"outputs":[],"stateMutability":"nonpayable"},{"type":"function","name":"setNOWJC","inputs":[{"name":"_nowjc","type":"address","internalType":"address"}],"outputs":[],"stateMutability":"nonpayable"},{"type":"function","name":"setProfileManager","inputs":[{"name":"_profileManager","type":"address","internalType":"address"}],"outputs":[],"stateMutability":"nonpayable"},{"type":"function","name":"setUSDCToken","inputs":[{"name":"_newToken","type":"address","internalType":"address"}],"outputs":[],"stateMutability":"nonpayable"},{"type":"function","name":"startDirectContract","inputs":[{"name":"_jobTaker","type":"address","internalType":"address"},{"name":"_jobDetailHash","type":"string","internalType":"string"},{"name":"_descriptions","type":"string[]","internalType":"string[]"},{"name":"_amounts","type":"uint256[]","internalType":"uint256[]"},{"name":"_jobTakerChainDomain","type":"uint32","internalType":"uint32"}],"outputs":[],"stateMutability":"nonpayable"},{"type":"function","name":"startJob","inputs":[{"name":"_jobId","type":"string","internalType":"string"},{"name":"_appId","type":"uint256","internalType":"uint256"},{"name":"_useAppMilestones","type":"bool","internalType":"bool"}],"outputs":[],"stateMutability":"nonpayable"},{"type":"function","name":"submitWork","inputs":[{"name":"_jobId","type":"string","internalType":"string"},{"name":"_submissionHash","type":"string","internalType":"string"}],"outputs":[],"stateMutability":"nonpayable"},{"type":"function","name":"totalPlatformPayments","inputs":[],"outputs":[{"name":"","type":"uint256","internalType":"uint256"}],"stateMutability":"view"},{"type":"function","name":"transferOwnership","inputs":[{"name":"newOwner","type":"address","internalType":"address"}],"outputs":[],"stateMutability":"nonpayable"},{"type":"function","name":"updatePortfolioItem","inputs":[{"name":"_index","type":"uint256","internalType":"uint256"},{"name":"_newPortfolioHash","type":"string","internalType":"string"}],"outputs":[],"stateMutability":"nonpayable"},{"type":"function","name":"updateProfile","inputs":[{"name":"_newIpfsHash","type":"string","internalType":"string"}],"outputs":[],"stateMutability":"nonpayable"},{"type":"function","name":"upgradeToAndCall","inputs":[{"name":"newImplementation","type":"address","internalType":"address"},{"name":"data","type":"bytes","internalType":"bytes"}],"outputs":[],"stateMutability":"payable"},{"type":"function","name":"usdcToken","inputs":[],"outputs":[{"name":"","type":"address","internalType":"contract IERC20"}],"stateMutability":"view"},{"type":"function","name":"userRatings","inputs":[{"name":"","type":"address","internalType":"address"},{"name":"","type":"uint256","internalType":"uint256"}],"outputs":[{"name":"","type":"uint256","internalType":"uint256"}],"stateMutability":"view"},{"type":"function","name":"withdraw","inputs":[],"outputs":[],"stateMutability":"nonpayable"},{"type":"event","name":"DisputeResolved","inputs":[{"name":"jobId","type":"string","indexed":true,"internalType":"string"},{"name":"jobGiverWins","type":"bool","indexed":false,"internalType":"bool"},{"name":"winner","type":"address","indexed":false,"internalType":"address"},{"name":"amount","type":"uint256","indexed":false,"internalType":"uint256"}],"anonymous":false},{"type":"event","name":"FundsSent","inputs":[{"name":"jobId","type":"string","indexed":true,"internalType":"string"},{"name":"jobGiver","type":"address","indexed":true,"internalType":"address"},{"name":"amount","type":"uint256","indexed":false,"internalType":"uint256"}],"anonymous":false},{"type":"event","name":"Initialized","inputs":[{"name":"version","type":"uint64","indexed":false,"internalType":"uint64"}],"anonymous":false},{"type":"event","name":"JobApplication","inputs":[{"name":"jobId","type":"string","indexed":true,"internalType":"string"},{"name":"applicationId","type":"uint256","indexed":true,"internalType":"uint256"},{"name":"applicant","type":"address","indexed":true,"internalType":"address"},{"name":"applicationHash","type":"string","indexed":false,"internalType":"string"}],"anonymous":false},{"type":"event","name":"JobPosted","inputs":[{"name":"jobId","type":"string","indexed":true,"internalType":"string"},{"name":"jobGiver","type":"address","indexed":true,"internalType":"address"},{"name":"jobDetailHash","type":"string","indexed":false,"internalType":"string"}],"anonymous":false},{"type":"event","name":"JobStarted","inputs":[{"name":"jobId","type":"string","indexed":true,"internalType":"string"},{"name":"applicationId","type":"uint256","indexed":true,"internalType":"uint256"},{"name":"selectedApplicant","type":"address","indexed":true,"internalType":"address"},{"name":"useApplicantMilestones","type":"bool","indexed":false,"internalType":"bool"}],"anonymous":false},{"type":"event","name":"JobStatusChanged","inputs":[{"name":"jobId","type":"string","indexed":true,"internalType":"string"},{"name":"newStatus","type":"uint8","indexed":false,"internalType":"enum NativeArbOpenWorkJobContract.JobStatus"}],"anonymous":false},{"type":"event","name":"MilestoneLocked","inputs":[{"name":"jobId","type":"string","indexed":true,"internalType":"string"},{"name":"newMilestone","type":"uint256","indexed":false,"internalType":"uint256"},{"name":"lockedAmount","type":"uint256","indexed":false,"internalType":"uint256"}],"anonymous":false},{"type":"event","name":"NOWJCSet","inputs":[{"name":"nowjc","type":"address","indexed":true,"internalType":"address"}],"anonymous":false},{"type":"event","name":"OwnershipTransferred","inputs":[{"name":"previousOwner","type":"address","indexed":true,"internalType":"address"},{"name":"newOwner","type":"address","indexed":true,"internalType":"address"}],"anonymous":false},{"type":"event","name":"PaymentReleased","inputs":[{"name":"jobId","type":"string","indexed":true,"internalType":"string"},{"name":"jobGiver","type":"address","indexed":true,"internalType":"address"},{"name":"applicant","type":"address","indexed":true,"internalType":"address"},{"name":"amount","type":"uint256","indexed":false,"internalType":"uint256"},{"name":"milestone","type":"uint256","indexed":false,"internalType":"uint256"}],"anonymous":false},{"type":"event","name":"PaymentReleasedAndNextMilestoneLocked","inputs":[{"name":"jobId","type":"string","indexed":true,"internalType":"string"},{"name":"releasedAmount","type":"uint256","indexed":false,"internalType":"uint256"},{"name":"lockedAmount","type":"uint256","indexed":false,"internalType":"uint256"},{"name":"milestone","type":"uint256","indexed":false,"internalType":"uint256"}],"anonymous":false},{"type":"event","name":"PlatformTotalUpdated","inputs":[{"name":"newTotal","type":"uint256","indexed":false,"internalType":"uint256"}],"anonymous":false},{"type":"event","name":"PortfolioAdded","inputs":[{"name":"user","type":"address","indexed":true,"internalType":"address"},{"name":"portfolioHash","type":"string","indexed":false,"internalType":"string"}],"anonymous":false},{"type":"event","name":"ProfileCreated","inputs":[{"name":"user","type":"address","indexed":true,"internalType":"address"},{"name":"ipfsHash","type":"string","indexed":false,"internalType":"string"},{"name":"referrer","type":"address","indexed":false,"internalType":"address"}],"anonymous":false},{"type":"event","name":"ProfileUpdated","inputs":[{"name":"user","type":"address","indexed":true,"internalType":"address"},{"name":"newIpfsHash","type":"string","indexed":false,"internalType":"string"}],"anonymous":false},{"type":"event","name":"Upgraded","inputs":[{"name":"implementation","type":"address","indexed":true,"internalType":"address"}],"anonymous":false},{"type":"event","name":"UserRated","inputs":[{"name":"jobId","type":"string","indexed":true,"internalType":"string"},{"name":"rater","type":"address","indexed":true,"internalType":"address"},{"name":"rated","type":"address","indexed":true,"internalType":"address"},{"name":"rating","type":"uint256","indexed":false,"internalType":"uint256"}],"anonymous":false},{"type":"event","name":"WorkSubmitted","inputs":[{"name":"jobId","type":"string","indexed":true,"internalType":"string"},{"name":"applicant","type":"address","indexed":true,"internalType":"address"},{"name":"submissionHash","type":"string","indexed":false,"internalType":"string"},{"name":"milestone","type":"uint256","indexed":false,"internalType":"uint256"}],"anonymous":false},{"type":"error","name":"AddressEmptyCode","inputs":[{"name":"target","type":"address","internalType":"address"}]},{"type":"error","name":"AddressInsufficientBalance","inputs":[{"name":"account","type":"address","internalType":"address"}]},{"type":"error","name":"ERC1967InvalidImplementation","inputs":[{"name":"implementation","type":"address","internalType":"address"}]},{"type":"error","name":"ERC1967NonPayable","inputs":[]},{"type":"error","name":"FailedInnerCall","inputs":[]},{"type":"error","name":"InvalidInitialization","inputs":[]},{"type":"error","name":"NotInitializing","inputs":[]},{"type":"error","name":"OwnableInvalidOwner","inputs":[{"name":"owner","type":"address","internalType":"address"}]},{"type":"error","name":"OwnableUnauthorizedAccount","inputs":[{"name":"account","type":"address","internalType":"address"}]},{"type":"error","name":"ReentrancyGuardReentrantCall","inputs":[]},{"type":"error","name":"SafeERC20FailedOperation","inputs":[{"name":"token","type":"address","internalType":"address"}]},{"type":"error","name":"UUPSUnauthorizedCallContext","inputs":[]},{"type":"error","name":"UUPSUnsupportedProxiableUUID","inputs":[{"name":"slot","type":"bytes32","internalType":"bytes32"}]}],"bytecode":{"object":"0x60a080604052346100c257306080525f516020614a9f5f395f51905f525460ff8160401c166100b3576002600160401b03196001600160401b03821601610060575b6040516149d890816100c7823960805181818161268001526128cf0152f35b6001600160401b0319166001600160401b039081175f516020614a9f5f395f51905f525581527fc7f505b2f371ae2175ee4913f4499e1f2633a7b5936321eed1cdaeb6115181d290602090a15f80610041565b63f92ee8a960e01b5f5260045ffd5b5f80fdfe60806040526004361015610011575f80fd5b5f5f3560e01c80629299e31461377157806306d1ab4b14612e2c5780630b150296146135835780630d2e0c591461355a5780630f5a9d011461350d5780630f6b87511461341e57806311b5a16d1461338a57806311eac8551461336157806328a6f4d2146132cb578063317601141461305357806338f34ca114612e4a5780633a02898014612e2c5780633ccfd60b14612da45780634b18d3c214612acb5780634f1ef2861461287f5780634f5c8c77146127e65780634fef1488146126d457806350355d76146110b057806352d1902d1461266d57806359e774a4146124e55780636caa539714611fa7578063715018a614611f5157806373829d8514611ee257806377e3240714611adc57806380fc9c0e14611ab05780638817f333146117145780638c1e161f1461168f5780638da5cb5b1461165a5780639000a87f146115cb578063916100a8146114a1578063a53ae22614611478578063a6b160961461121e578063a787c80b146111df578063a8efdfe814611196578063ad3cb1cc1461114d578063ad76397e146110ce578063b02b4a2f146110b0578063b05e6f5a14610fa1578063b58766ba14610f02578063bbe1562714610e9c578063be001f6f14610e45578063c0c53b8b14610c93578063c9ef53af146108fa578063ce422626146106e4578063ddd794c614610697578063dec8bed414610322578063eb7d901b146102ed578063f2fde38b146102c0578063f3f5142e146102975763f4653c0b1461023f575f80fd5b3461029457602036600319011261029457600435906001600160401b0382116102945760208080610273366004870161392f565b604051928184925191829101835e8101600481520301902054604051908152f35b80fd5b5034610294578060031936011261029457600c546040516001600160a01b039091168152602090f35b5034610294576020366003190112610294576102ea6102dd61394d565b6102e5614501565b61446b565b80f35b503461029457602036600319011261029457600435906001600160401b0382116102945760208080610273366004870161392f565b5034610294576060366003190112610294576004356001600160401b0381116105dd5761035390369060040161392f565b602435604435908115158092036106935761036c6144c9565b6040519161039b610394855194602081818901978089835e8101600281520301902054613b76565b1515613f1f565b60405160208186518087835e810160028152030190209260018060a01b03600185015416330361064f57600484019060ff825416600481101561063b576106045783600c86979601556020604051809287518091835e6003908201908152030190208387526020526040862060020154600b860180546001600160a01b0319166001600160a01b0392909216919091179055805460ff19166001179055600a840185905560078401926006850192865b84548110156104da5761045e8186614044565b508654600160401b8110156104c65780600161047d9201895588614044565b9190916104b2579081600193928203610499575b50500161044b565b83816104a6829385614397565b01549101555f80610491565b634e487b7160e01b8a5260048a905260248afd5b634e487b7160e01b8a52604160045260248afd5b5086935085858054156105f057908592918352610514600d6001602086200154926105058488614534565b83600982015501918254614023565b9055600a546001600160a01b0316803b156105ec578260405180926304eb333f60e11b825233600483015260806024830152818381610556608482018b613ab2565b8860448301528b606483015203925af180156105e1576105c8575b5061059c935f5160206148a35f395f51905f52602061058f86613ec8565b92604051908152a4613ec8565b5f5160206148835f395f51905f52602060405160018152a260015f5160206149635f395f51905f525580f35b6105d38380926138bb565b6105dd5785610571565b5080fd5b6040513d85823e3d90fd5b8280fd5b634e487b7160e01b86526032600452602486fd5b60405162461bcd60e51b815260206004820152600f60248201526e2537b11034b9903737ba1037b832b760891b6044820152606490fd5b634e487b7160e01b88526021600452602488fd5b60405162461bcd60e51b815260206004820152601c60248201527b27b7363c903537b11033b4bb32b91031b0b71039ba30b93a103537b160211b6044820152606490fd5b8380fd5b5034610294576020366003190112610294576106b161394d565b6106b9614501565b6001600160a01b03166106cd811515613ee4565b600b80546001600160a01b03191691909117905580f35b5034610294576040366003190112610294576004356001600160401b0381116105dd5761071590369060040161392f565b6024359081158015928381036108f657600b546001600160a01b031633036108bc57604051602081855180838801835e810160028152030190209061075d6103948354613b76565b600482019460ff865416600481101561063b57600161077c9114613f9d565b6009830195865490811561088357600e7f8d0e98aef4d85d348d57e4cbfeb62a4757630a03b8a5d7dcb72210e777439743958a6108159a6060975f1461086f5760018301546001600160a01b0316995b610830575b55016107de838254614023565b9055805460ff191660021790556107f486613ec8565b604080519384526001600160a01b03909616602084015294820152a2613ec8565b5f5160206148835f395f51905f52602060405160028152a280f35b61083c86600854614023565b6008556008830161084e878254614023565b90555f5160206148435f395f51905f526020600854604051908152a16107d1565b600b8301546001600160a01b0316996107cc565b60405162461bcd60e51b8152602060048201526011602482015270139bc8199d5b991cc8195cd8dc9bddd959607a1b6044820152606490fd5b60405162461bcd60e51b815260206004820152601260248201527113db9b1e48105d1a195b984810db1a595b9d60721b6044820152606490fd5b8480fd5b50346102945760a0366003190112610294576004356001600160401b0381116105dd5761092b90369060040161392f565b6024356001600160401b0381116105ec5761094a90369060040161392f565b916044356001600160401b0381116105dd5761096a9036906004016139a6565b926064356001600160401b0381116105ec5761098a903690600401613a24565b91610993613b42565b9161099c6144c9565b600c546001600160a01b03168015159081610c2e575b5015610bf557855115610ba4576109cf86959395518551146140d2565b604051835190602081818701938085835e81016004815203019020906109f58254614164565b8092556020604051809287518091835e810160038152030190208184526020526040832093818555610a2a8160018701613e04565b6002850180546001600160a01b03191633179055610a4b8360038701613e04565b6004849501945b8851811015610a975780610a91610a6b6001938c614110565b51610a76838b614110565b5160405191610a8483613855565b8252602082015288614172565b01610a52565b508387878a60018060a01b03600a5416803b156108f657610af18587610b039663ffffffff610b278498610b158f996040519c8d9b8c9a8b9963fc5dee8160e01b8b523360048c015260c060248c015260c48b0190613ab2565b8981036003190160448b015290613ab2565b878103600319016064890152906141c0565b85810360031901608487015290614218565b911660a483015203925af18015610b9957610b84575b5050610b4890613ec8565b5f5160206148c35f395f51905f526040516020815280610b6d33966020830190613ab2565b0390a460015f5160206149635f395f51905f525580f35b81610b8e916138bb565b610693578385610b3d565b6040513d84823e3d90fd5b60405162461bcd60e51b815260206004820152602360248201527f4d7573742070726f706f7365206174206c65617374206f6e65206d696c6573746044820152626f6e6560e81b6064820152608490fd5b60405162461bcd60e51b81526020600482015260116024820152704d75737420686176652070726f66696c6560781b6044820152606490fd5b60405163a787c80b60e01b81523360048201529150602090829060249082905afa9081156105e1578391610c64575b505f6109b2565b610c86915060203d602011610c8c575b610c7e81836138bb565b81019061437f565b5f610c5d565b503d610c74565b503461029457606036600319011261029457610cad61394d565b610cb5613963565b6044356001600160a01b0381169190829003610693575f5160206149835f395f51905f5254604081901c60ff161593906001600160401b03811680159081610e3d575b6001149081610e33575b159081610e2a575b50610e1b576001600160401b031981166001175f5160206149835f395f51905f5255610d69919085610df3575b50610d4061478a565b610d4861478a565b60015f5160206149635f395f51905f5255610d6161478a565b6102e561478a565b610d7161478a565b60018060a01b031660018060a01b0319600954161760095560018060a01b0319600a541617600a55610da05780f35b60ff60401b195f5160206149835f395f51905f5254165f5160206149835f395f51905f52557fc7f505b2f371ae2175ee4913f4499e1f2633a7b5936321eed1cdaeb6115181d2602060405160018152a180f35b6001600160481b0319166001600160401b01175f5160206149835f395f51905f52555f610d37565b63f92ee8a960e01b8652600486fd5b9050155f610d0a565b303b159150610d02565b869150610cf8565b503461029457604036600319011261029457610e5f61394d565b6001600160a01b0316815260066020526040812080546024359290831015610294576020610e8d8484613cc5565b90549060031b1c604051908152f35b5034610294576020366003190112610294576040906001600160a01b03610ec161394d565b16815260208190522080546001600160a01b0316610efe610ee460018401613bae565b92600260018060a01b039101541660405193849384613c8f565b0390f35b5034610294576020366003190112610294576004356001600160401b0381116105dd576004610f3660ff923690830161392f565b602060405191610f5f6103948251948481818601978089835e8101600281520301902054613b76565b604051928391518091835e81016002815203019020015416906004821015610f8d5760208260405190158152f35b634e487b7160e01b81526021600452602490fd5b503461029457602036600319011261029457600435906001600160401b03821161029457602061106b8180610fd9366004880161392f565b604051928184925191829101835e81016002815203019020610ffa81613bae565b9060018060a01b036001820154169061101560038201613bae565b60ff6004830154169360088301546009840154600a8501549161108661107b60018060a01b03600b8901541695600c89015497600e600d8b01549a01549a6040519e8f9e8f946101608652610160860190613ab2565b9301528c820360408e0152613ab2565b9860608b0190613b55565b608089015260a088015260c087015260e08601526101008501526101208401526101408301520390f35b50346102945780600319360112610294576020600754604051908152f35b5034610294576020366003190112610294576110e861394d565b6110f0614501565b6001600160a01b0316801561111657600c80546001600160a01b03191691909117905580f35b60405162461bcd60e51b815260206004820152600f60248201526e496e76616c6964206164647265737360881b6044820152606490fd5b503461029457806003193601126102945750610efe6040516111706040826138bb565b60058152640352e302e360dc1b6020820152604051918291602083526020830190613ab2565b5034610294576020806111a836613c4e565b9290604051928184925191829101835e810160058152030190209060018060a01b03165f52602052602060405f2054604051908152f35b50346102945760203660031901126102945760209060ff906040906001600160a01b0361120a61394d565b168152600184522054166040519015158152f35b5034610294576020366003190112610294576004356001600160401b0381116105dd5761124f90369060040161392f565b6112576144c9565b604051602081835180838601835e8101600281520301902061127c6103948254613b76565b60018101546001600160a01b0316330361142857600481019160ff83541660048110156114145760016112af9114613f9d565b6009820191848354936112c3851515613fe3565b600883016112d2868254614023565b9055600e83016112e3868254614023565b9055556112f283600854614023565b600855600a8101938454600783015411156113e2575b50600a5485906001600160a01b0316803b156105dd57816040518092639110e03160e01b82528183816113408b8b336004850161405d565b03925af18015610b99576113cd575b5050600b015492546001600160a01b03909316929061136d90613ec8565b9060405192835260208301527fa71f1661a883ae6cc97d4b6c49515c53bc3ad70681a1cdf669785aca9356ee2760403393a45f5160206148435f395f51905f526020600854604051908152a160015f5160206149635f395f51905f525580f35b816113d7916138bb565b6108f657845f61134f565b805460ff191660021790556113f682613ec8565b5f5160206148835f395f51905f52602060405160028152a25f611308565b634e487b7160e01b85526021600452602485fd5b60405162461bcd60e51b815260206004820152602260248201527f4f6e6c79206a6f622067697665722063616e2072656c65617365207061796d656044820152611b9d60f21b6064820152608490fd5b5034610294578060031936011261029457600b546040516001600160a01b039091168152602090f35b5034610294576114b036613c4e565b906114b96144c9565b600c546001600160a01b03166114d0811515613cee565b81511561158a578084913b156105dd5781604051809263d888cc2760e01b82528183816115028a8a3360048501613c8f565b03925af18015610b9957611575575b50507f5874afb0d71e1f97e546fc6b15493e51e5ccbefa591556f8c6a80c8c5151a84f9061154a60405191604083526040830190613ab2565b6001600160a01b039093166020820152339281900390a260015f5160206149635f395f51905f525580f35b8161157f916138bb565b6105ec57825f611511565b60405162461bcd60e51b81526020600482015260196024820152784950465320686173682063616e6e6f7420626520656d70747960381b6044820152606490fd5b5034610294576040906020806115e036613a81565b92908551928184925191829101835e81016003815203019020908252602052208054610efe61161160018401613bae565b9261162b600360018060a01b036002840154169201613bae565b6116476040519586958652608060208701526080860190613ab2565b9160408501528382036060850152613ab2565b50346102945780600319360112610294575f5160206148635f395f51905f52546040516001600160a01b039091168152602090f35b503461029457602036600319011261029457600435906001600160401b03821161029457602060ff60046116c53686830161392f565b83604051916116ed6103948251948481818601978089835e8101600281520301902054613b76565b604051928391518091835e810160028152030190200154166117126040518092613b55565bf35b5034610294576060366003190112610294576004356001600160401b0381116105dd5761174590369060040161392f565b61174d613963565b604435906117596144c9565b604051835190602081818701938085835e810160028152030190206117816103948254613b76565b60ff6004820154166004811015611a9c5760018114908115611a91575b5015611a5657600184101580611a4b575b15611a115760405160208187518086835e8101600581520301902060018060a01b0384165f5260205260405f20546119dc5760018060a01b0360018201541680331491826119c2575b8215611990575b505015611952576020604051809286518091835e8101600581520301902060018060a01b0382165f526020528160405f205560018060a01b031691828452600660205260408420805490600160401b82101561193e579061186591600182018155613cc5565b81545f1960039290921b91821b19169084901b179055600c5484906001600160a01b0316806118da575b505061189a90613ec8565b6040519182527f210dac24c32efa80ef08f803d73e7033bee07555af4a95a00e79a488121b0bd660203393a460015f5160206149635f395f51905f525580f35b803b156105dd57816040518092633511d4c560e11b82523360048301526080602483015281838161190e608482018a613ab2565b8b60448301528a606483015203925af18015610b99571561188f5781611933916138bb565b61069357835f61188f565b634e487b7160e01b86526041600452602486fd5b60405162461bcd60e51b81526020600482015260166024820152754e6f7420617574686f72697a656420746f207261746560501b6044820152606490fd5b600b01546001600160a01b031633149150816119af575b505f806117ff565b6001600160a01b0384161490505f6119a7565b600b8101546001600160a01b0386811691161492506117f8565b60405162461bcd60e51b815260206004820152600d60248201526c105b1c9958591e481c985d1959609a1b6044820152606490fd5b60405162461bcd60e51b8152602060048201526012602482015271526174696e67206d75737420626520312d3560701b6044820152606490fd5b5060058411156117af565b60405162461bcd60e51b8152602060048201526013602482015272129bd8881b5d5cdd081899481cdd185c9d1959606a1b6044820152606490fd5b60029150145f61179e565b634e487b7160e01b87526021600452602487fd5b5034610294576020366003190112610294576020611ad4611acf61394d565b6142d2565b604051908152f35b5034610294576020366003190112610294576004356001600160401b0381116105dd57611b0d90369060040161392f565b816101c0604051611b1d8161389f565b6060815282602082015260606040820152606080820152826080820152606060a0820152606060c0820152606060e08201528261010082015282610120820152826101408201528261016082015282610180820152826101a08201520152602060405191611ba46103948251948481818601978089835e8101600281520301902054613b76565b604051928391518091835e8101600281520301902090604051611bc68161389f565b611bcf83613bae565b815260018060a01b03600184015416926020820193845260028101926040518085602082975493848152019084526020842092845b818110611ec0575050611c19925003856138bb565b60408301938452611c2c60038301613bae565b6060840190815260ff6004840154166004811015611eac57608085015260058301958654611c598161398f565b97611c67604051998a6138bb565b8189528452602080852085918a015b838310611e8f575050505060a08501968752611c9460068501614266565b9160c08601928352600e611caa60078701614266565b9560e0880196875260088101546101008901526009810154610120890152600a81015461014089015260018060a01b03600b82015416610160890152600c810154610180890152600d8101546101a089015201546101c08701526040519660208852611d2487516101e060208b01526102008a0190613ab2565b92516001600160a01b0316604089015251878303601f190160608901528051808452602091820193919091019190855b818110611e7057505051878203601f19016080890152611d749250613ab2565b95611d87608086015160a0880190613b55565b5191601f198688030160c08701528251808852602088016020808360051b8b0101950192905b828210611e44578880896101c0611de98b611dd58c8c51601f198883030160e0890152613ad6565b9051858203601f1901610100870152613ad6565b9161010081015161012085015261012081015161014085015261014081015161016085015260018060a01b03610160820151166101808501526101808101516101a08501526101a08101518285015201516101e08301520390f35b90919294602080611e626001938d601f199082030186528951613ab2565b970192019201909291611dad565b84516001600160a01b0316845260209485019490930192600101611d54565b600160208192611e9e85613bae565b815201920192019190611c76565b634e487b7160e01b83526021600452602483fd5b84546001600160a01b0316835260019485019489945060209093019201611c04565b503461029457602036600319011261029457611efc61394d565b611f04614501565b6001600160a01b0316611f18811515613ee4565b600a80546001600160a01b031916821790557f8ab673704932cb2fefd0b419683fd655475837529cdce24fbecad2c8f80672e08280a280f35b5034610294578060031936011261029457611f6a614501565b5f5160206148635f395f51905f5280546001600160a01b0319811690915581906001600160a01b03165f5160206149235f395f51905f528280a380f35b50346102945760a036600319011261029457611fc161394d565b6024356001600160401b0381116105ec57611fe090369060040161392f565b906044356001600160401b038111610693576120009036906004016139a6565b926064356001600160401b0381116105dd57612020903690600401613a24565b93612029613b42565b926120326144c9565b6001600160a01b031680156124a45761204d82511515614087565b61205a82518751146140d2565b829383945b87518610156120875761207f600191612078888b614110565b5190614023565b95019461205f565b60209495509561209988971515614124565b6120a2466145b2565b9561210160016120bf6120b6600754614164565b806007556145b2565b88604051998a92818085019d8e815192839201905e840190602d60f81b83830152805192839101602183015e010184838201520301601f1981018852876138bb565b6040516020818851808b835e81016002815203019020916121228784613e04565b6001830180546001600160a01b031916331790556121438160038501613e04565b60048301805460ff19166001908117909155600b840180546001600160a01b03191687179055600c840155600a830182905560078301966006840195835b8b89518210156121fd57906121f76001926121dc836121d5818f8f6121d0906121aa8484614110565b51906121b6858a614110565b51604051926121c484613855565b83526020830152614172565b614110565b5192614110565b51604051916121ea83613855565b825260208201528c614172565b01612181565b9895969750508960405160208185518085835e81016004815203019020906122258254614164565b8092556020604051809286518091835e81016003815203019020818652602052604085209781895561225a8460018b01613e04565b6002890180546001600160a01b0319168417905560038901805461227d90613b76565b601f8111612478575b50604181558652602086205f5160206149435f395f51905f529055969760040196855b87518110156122e857806122e28c6122c7836121d56001968e614110565b51604051916122d583613855565b825260208201528b614172565b016122a9565b5089878a8251156124645790829161230d600d60208c9796015192610505848c614534565b9055600a546001600160a01b0316803b156108f6578785888b9663ffffffff6123a1849861238f61236b9961237d6040519d8e9c8d9b8c9a636009b51f60e01b8c523360048d015260248c015260e060448c015260e48b0190613ab2565b8981036003190160648b015290613ab2565b878103600319016084890152906141c0565b8581036003190160a487015290614218565b911660c483015203925af18015610b995761244f575b505061059c936123c684613ec8565b5f5160206149035f395f51905f5260405160208152806123eb33956020830190613ab2565b0390a381816123f985613ec8565b5f5160206148c35f395f51905f526060604051602081526020808201525f5160206149435f395f51905f526040820152a461243383613ec8565b5f5160206148a35f395f51905f526020604051888152a4613ec8565b81612459916138bb565b6108f65784866123b7565b634e487b7160e01b89526032600452602489fd5b6020811115612286578188526020882061249e91601f0160051c5f190190600101613d9c565b8b612286565b60405162461bcd60e51b8152602060048201526019602482015278496e76616c6964206a6f622074616b6572206164647265737360381b6044820152606490fd5b5034610294576124f436613a81565b6060608060409493945161250781613884565b84815282602082015284604082015282808201520152604051835190602081818701938085835e8101600381520301902082845260205260408320541561262b5760206040948551928391518091835e810160038152030190209082526020522060405161257481613884565b81548152610efe61258760018401613bae565b6020830190815260028401546001600160a01b031660408401908152909390612618906125c960046125bb60038601613bae565b946060880195865201614266565b92608086019384526125f6604051978897602089525160208901525160a0604089015260c0880190613ab2565b91516001600160a01b0316606087015251858203601f19016080870152613ab2565b9051838203601f190160a0850152613ad6565b60405162461bcd60e51b815260206004820152601a602482015279105c1c1b1a58d85d1a5bdb88191bd95cc81b9bdd08195e1a5cdd60321b6044820152606490fd5b50346102945780600319360112610294577f00000000000000000000000000000000000000000000000000000000000000006001600160a01b031630036126c55760206040515f5160206148e35f395f51905f528152f35b63703e46dd60e11b8152600490fd5b50346102945780600319360112610294576126ed614501565b6009546040516370a0823160e01b81523060048201526001600160a01b0390911690602081602481855afa9081156105e15783916127b4575b50801561277d576102ea9161277860018060a01b035f5160206148635f395f51905f52541661276a60405194859263a9059cbb60e01b60208501526024840161424b565b03601f1981018452836138bb565b61471f565b60405162461bcd60e51b815260206004820152600f60248201526e4e6f20555344432062616c616e636560881b6044820152606490fd5b90506020813d6020116127de575b816127cf602093836138bb565b810103126105ec57515f612726565b3d91506127c2565b5034610294576020366003190112610294576128006144c9565b600c5481906001600160a01b0316612819811515613cee565b803b1561287c5781604051809263efe24b8d60e01b8252818381612843600435336004840161424b565b03925af18015610b9957612867575b5060015f5160206149635f395f51905f525580f35b81612871916138bb565b61029457805f612852565b50fd5b5060403660031901126102945761289461394d565b906024356001600160401b0381116105dd57366023820112156105dd576128c59036906024816004013591016138f9565b6001600160a01b037f000000000000000000000000000000000000000000000000000000000000000016308114908115612aa9575b50612a9a575f5160206148635f395f51905f52546001600160a01b03163303612a5e576040516352d1902d60e01b8152926001600160a01b0381169190602085600481865afa80958596612a2a575b5061296257634c9c8ce360e01b84526004839052602484fd5b9091845f5160206148e35f395f51905f528103612a185750813b15612a06575f5160206148e35f395f51905f5280546001600160a01b031916821790557fbc7cd75a20ee27fd9adebab32041f755214dbc6bffa90cc0225b39da2e5c2d3b8480a281518390156129ec57808360206129e895519101845af46129e26147b5565b916147e4565b5080f35b505050346129f75780f35b63b398979f60e01b8152600490fd5b634c9c8ce360e01b8452600452602483fd5b632a87526960e21b8552600452602484fd5b9095506020813d602011612a56575b81612a46602093836138bb565b810103126108f65751945f612949565b3d9150612a39565b60405162461bcd60e51b8152602060048201526014602482015273556e617574686f72697a6564207570677261646560601b6044820152606490fd5b63703e46dd60e11b8252600482fd5b5f5160206148e35f395f51905f52546001600160a01b0316141590505f6128fa565b5034610294576060366003190112610294576004356001600160401b0381116105dd57612afc90369060040161392f565b906024356001600160401b0381116105dd57612b1c9036906004016139a6565b6044356001600160401b0381116105ec57612b3b903690600401613a24565b92612b446144c9565b612b5082511515614087565b612b5d82518551146140d2565b8291825b8551841015612b8257612b7a6001916120788689614110565b930192612b61565b9160209185612b9388951515614124565b612b9c466145b2565b612bf06001612baf6120b6600754614164565b876040519889928180850197805191829101895e840190602d60f81b83830152805192839101602183015e010185838201520301601f1981018752866138bb565b6020604051809287518091835e8101600281520301902092612c128585613e04565b6001840180546001600160a01b03191633179055612c338160038601613e04565b6004840160ff1981541690556006829401935b8351811015612c8b5780612c85612c5f60019387614110565b51612c6a838b614110565b5160405191612c7883613855565b8252602082015287614172565b01612c46565b50600a54859083906001600160a01b03168886823b1561069357612cf592612cdd8587612d198296612d078c976040519a8b998a9889976321587b2960e11b895260a060048a015260a4890190613ab2565b33602489015287810360031901604489015290613ab2565b858103600319016064870152906141c0565b83810360031901608485015290614218565b03925af18015610b9957612d8f575b5050612d6491612d3782613ec8565b5f5160206149035f395f51905f526040516020815280612d5c33956020830190613ab2565b0390a3613ec8565b5f5160206148835f395f51905f526020604051848152a260015f5160206149635f395f51905f525580f35b81612d99916138bb565b6105ec578284612d28565b5034610294578060031936011261029457612dbd614501565b478015612dfa575f5160206148635f395f51905f525482918291829182916001600160a01b031682f115612dee5780f35b604051903d90823e3d90fd5b60405162461bcd60e51b815260206004820152600a6024820152694e6f2062616c616e636560b01b6044820152606490fd5b50346102945780600319360112610294576020600854604051908152f35b5034610294576020366003190112610294576004356001600160401b0381116105dd57612e7b90369060040161392f565b612e836144c9565b604051602081835180838601835e8101600281520301902090612ea96103948354613b76565b612ec060018060a01b036001840154163314613f60565b60ff600483015416600481101561303f576001612edd9114613f9d565b60098201918254612ffa57600a810190815460078201612eff81548310613d55565b60018201808311612fe657600d9392600192612f1c928755614044565b5001548095612f2b8287614534565b5501612f38848254614023565b9055600a5484906001600160a01b0316803b156105dd5781604051809263f4f5d3c760e01b8252818381612f718b8b336004850161405d565b03925af18015610b9957612fd1575b50507fb9422fa51238140c2297fbab91a9525e85400eea5c9666d16562298ea0e0981c91612fb16040925491613ec8565b9382519182526020820152a260015f5160206149635f395f51905f525580f35b81612fdb916138bb565b61069357835f612f80565b634e487b7160e01b88526011600452602488fd5b60405162461bcd60e51b815260206004820152601d60248201527f50726576696f7573207061796d656e74206e6f742072656c65617365640000006044820152606490fd5b634e487b7160e01b84526021600452602484fd5b5034610294576020366003190112610294576004356001600160401b0381116105dd5761308490369060040161392f565b61308c6144c9565b604051602081835180838601835e810160028152030190206130b16103948254613b76565b6130c860018060a01b036001830154163314613f60565b600481019060ff82541660048110156114145760016130e79114613f9d565b60098101908154906130fa821515613fe3565b600a810193845490613113600784019283541015613d55565b60088301613122858254614023565b9055600e8301613133858254614023565b905561314184600854614023565b600855855490600182018092116132b7578187558254899283911061328057505085545f1981019291508211612fe657613180600d9392600192614044565b500154809461318f8289614534565b550161319c838254614023565b90555b600a5485906001600160a01b0316803b156105dd5781604051809263024ef77f60e31b8252336004830152608060248301528183816131e1608482018d613ab2565b8960448301528a606483015203925af18015610b995761326b575b505061323a61322d7f881f9575e6bc96f2ebd076de5584e663c5e7489d82f21f00777994a223cfb061945495613ec8565b9460405193849384613979565b0390a25f5160206148435f395f51905f526020600854604051908152a160015f5160206149635f395f51905f525580f35b81613275916138bb565b6108f657845f6131fc565b925092509355600260ff1982541617905561329a84613ec8565b5f5160206148835f395f51905f52602060405160028152a261319f565b634e487b7160e01b89526011600452602489fd5b503461029457604036600319011261029457806024356001600160401b03811161287c576132fd90369060040161392f565b6133056144c9565b600c546001600160a01b031661331c811515613cee565b803b1561335d576128438392918392604051948580948193633e41d85560e11b83523360048401526004356024840152606060448401526064830190613ab2565b5050fd5b50346102945780600319360112610294576009546040516001600160a01b039091168152602090f35b5034610294576020366003190112610294576004356001600160401b0381116105dd5760206133be8192369060040161392f565b604051928184925191829101835e810160028152030190206133e36103948254613b76565b600e600d820154910154918282039082821161340a5750610efe9060405193849384613979565b634e487b7160e01b81526011600452602490fd5b5034610294576020366003190112610294576004356001600160401b0381116105dd5761344f90369060040161392f565b6134576144c9565b600c5482906001600160a01b0316613470811515613cee565b803b156105dd57816040518092631618bf5960e11b8252818381613498893360048401613d33565b03925af18015610b99576134f8575b50507fcc18228e480194b6eb176cebd651be35a4eb3236a2461b112a3e89ea1b1c40dd60405160208152806134e133946020830190613ab2565b0390a260015f5160206149635f395f51905f525580f35b81613502916138bb565b6105dd57815f6134a7565b50346102945760203660031901126102945761352761394d565b61352f614501565b6001600160a01b0316613543811515613ee4565b600980546001600160a01b03191691909117905580f35b5034610294578060031936011261029457600a546040516001600160a01b039091168152602090f35b5034610294576040366003190112610294576004356001600160401b0381116105dd576135b490369060040161392f565b6024356001600160401b0381116105ec576135d390369060040161392f565b6135db6144c9565b60405161361e600a845192602081818801958087835e810160028152030190200154600760405160208188518088835e8101600281520301902001541015613d55565b600560405160208186518086835e8101600281520301902001805490600160401b82101561193e579061365691600182018155613cc5565b61375d578261366491613e04565b600a5484906001600160a01b0316803b156105dd5781604051809263ba24596360e01b8252336004830152606060248301528183816136bb6136a9606483018d613ab2565b8281036003190160448401528b613ab2565b03925af18015610b9957613748575b5050613712600a7f2de280d2b7315f889cbea3ddc5c9ebfb1773caba023a73cc8fa272e9b28585c2926020604051809288518091835e81016002815203019020015493613ec8565b9161372860405191604083526040830190613ab2565b9360208201528033940390a360015f5160206149635f395f51905f525580f35b81613752916138bb565b61069357835f6136ca565b634e487b7160e01b85526004859052602485fd5b5034613851576020366003190112613851576004356001600160401b038111613851576137a290369060040161392f565b6137aa6144c9565b600c546001600160a01b03166137c1811515613cee565b803b15613851575f60405180926318ccd60160e11b82528183816137e9883360048401613d33565b03925af1801561384657613831575b507fdd635a4cd84864e37e4479dbfc2ec667acfa473c83c8422a8ac9d9d07599b01c60405160208152806134e133946020830190613ab2565b61383e9192505f906138bb565b5f905f6137f8565b6040513d5f823e3d90fd5b5f80fd5b604081019081106001600160401b0382111761387057604052565b634e487b7160e01b5f52604160045260245ffd5b60a081019081106001600160401b0382111761387057604052565b6101e081019081106001600160401b0382111761387057604052565b601f909101601f19168101906001600160401b0382119082101761387057604052565b6001600160401b03811161387057601f01601f191660200190565b929192613905826138de565b9161391360405193846138bb565b829481845281830111613851578281602093845f960137010152565b9080601f830112156138515781602061394a933591016138f9565b90565b600435906001600160a01b038216820361385157565b602435906001600160a01b038216820361385157565b6040919493926060820195825260208201520152565b6001600160401b0381116138705760051b60200190565b9080601f830112156138515781356139bd8161398f565b926139cb60405194856138bb565b81845260208085019260051b820101918383116138515760208201905b8382106139f757505050505090565b81356001600160401b03811161385157602091613a198784809488010161392f565b8152019101906139e8565b9080601f83011215613851578135613a3b8161398f565b92613a4960405194856138bb565b81845260208085019260051b82010192831161385157602001905b828210613a715750505090565b8135815260209182019101613a64565b604060031982011261385157600435906001600160401b03821161385157613aab9160040161392f565b9060243590565b805180835260209291819084018484015e5f828201840152601f01601f1916010190565b9080602083519182815201916020808360051b8301019401925f915b838310613b0157505050505090565b9091929394602080600192601f198582030186528851908280613b2d8451604085526040850190613ab2565b93015191015297019301930191939290613af2565b6084359063ffffffff8216820361385157565b906004821015613b625752565b634e487b7160e01b5f52602160045260245ffd5b90600182811c92168015613ba4575b6020831014613b9057565b634e487b7160e01b5f52602260045260245ffd5b91607f1691613b85565b9060405191825f825492613bc184613b76565b8084529360018116908115613c2c5750600114613be8575b50613be6925003836138bb565b565b90505f9291925260205f20905f915b818310613c10575050906020613be6928201015f613bd9565b6020919350806001915483858901015201910190918492613bf7565b905060209250613be694915060ff191682840152151560051b8201015f613bd9565b604060031982011261385157600435906001600160401b03821161385157613c789160040161392f565b906024356001600160a01b03811681036138515790565b91613cb59060409295949560018060a01b03168452606060208501526060840190613ab2565b6001600160a01b03909416910152565b8054821015613cda575f5260205f2001905f90565b634e487b7160e01b5f52603260045260245ffd5b15613cf557565b60405162461bcd60e51b8152602060048201526016602482015275141c9bd99a5b1953585b9859d95c881b9bdd081cd95d60521b6044820152606490fd5b6001600160a01b03909116815260406020820181905261394a92910190613ab2565b15613d5c57565b60405162461bcd60e51b8152602060048201526018602482015277105b1b081b5a5b195cdd1bdb995cc818dbdb5c1b195d195960421b6044820152606490fd5b5f5b828110613daa57505050565b5f82820155600101613d9e565b91601f8211613dc557505050565b808211613dd157505050565b613be6925f5260205f20916020601f830160051c9210613dfc575b601f82910160051c039101613d9c565b5f9150613dec565b81519192916001600160401b03811161387057613e2b81613e258454613b76565b84613db7565b6020601f8211600114613e6a578190613e5b9394955f92613e5f575b50508160011b915f199060031b1c19161790565b9055565b015190505f80613e47565b601f19821690835f52805f20915f5b818110613eb057509583600195969710613e98575b505050811b019055565b01515f1960f88460031b161c191690555f8080613e8e565b9192602060018192868b015181550194019201613e79565b602090604051918183925191829101835e81015f815203902090565b15613eeb57565b60405162461bcd60e51b815260206004820152600c60248201526b5a65726f206164647265737360a01b6044820152606490fd5b15613f2657565b60405162461bcd60e51b8152602060048201526012602482015271129bd888191bd95cc81b9bdd08195e1a5cdd60721b6044820152606490fd5b15613f6757565b60405162461bcd60e51b815260206004820152600e60248201526d27b7363c903537b11033b4bb32b960911b6044820152606490fd5b15613fa457565b60405162461bcd60e51b81526020600482015260176024820152764a6f62206d75737420626520696e2070726f677265737360481b6044820152606490fd5b15613fea57565b60405162461bcd60e51b8152602060048201526011602482015270139bc81c185e5b595b9d081b1bd8dad959607a1b6044820152606490fd5b9190820180921161403057565b634e487b7160e01b5f52601160045260245ffd5b8054821015613cda575f5260205f209060011b01905f90565b9392916140829060409260018060a01b03168652606060208701526060860190613ab2565b930152565b1561408e57565b606460405162461bcd60e51b815260206004820152602060248201527f4d7573742068617665206174206c65617374206f6e65206d696c6573746f6e656044820152fd5b156140d957565b60405162461bcd60e51b815260206004820152600f60248201526e098cadccee8d040dad2e6dac2e8c6d608b1b6044820152606490fd5b8051821015613cda5760209160051b010190565b1561412b57565b60405162461bcd60e51b81526020600482015260116024820152700546f74616c206d757374206265203e203607c1b6044820152606490fd5b5f1981146140305760010190565b8054600160401b8110156138705761418f91600182018155614044565b9190916141ad576020816141a66001935185613e04565b0151910155565b634e487b7160e01b5f525f60045260245ffd5b9080602083519182815201916020808360051b8301019401925f915b8383106141eb57505050505090565b9091929394602080614209600193601f198682030187528951613ab2565b970193019301919392906141dc565b90602080835192838152019201905f5b8181106142355750505090565b8251845260209384019390920191600101614228565b6001600160a01b039091168152602081019190915260400190565b9081546142728161398f565b9261428060405194856138bb565b81845260208401905f5260205f205f915b83831061429e5750505050565b600260206001926040516142b181613855565b6142ba86613bae565b81528486015483820152815201920192019190614291565b60018060a01b03165f52600660205260405f20604051808260208294549384815201905f5260205f20925f5b818110614366575050614313925003826138bb565b805115614361575f90815b815183101561433f576143376001916120788585614110565b92019161431e565b91505190811561434d570490565b634e487b7160e01b5f52601260045260245ffd5b505f90565b84548352600194850194869450602090930192016142fe565b90816020910312613851575180151581036138515790565b919091828114614466576143ab8354613b76565b6001600160401b038111613870576143c781613e258454613b76565b5f93601f821160011461440157613e5b92939482915f926143f65750508160011b915f199060031b1c19161790565b015490505f80613e47565b601f198216905f5260205f2094835f5260205f20915f5b81811061444e5750958360019596971061443657505050811b019055565b01545f1960f88460031b161c191690555f8080613e8e565b9192600180602092868b015481550194019201614418565b509050565b6001600160a01b031680156144b6575f5160206148635f395f51905f5280546001600160a01b0319811683179091556001600160a01b03165f5160206149235f395f51905f525f80a3565b631e4fbdf760e01b5f525f60045260245ffd5b60025f5160206149635f395f51905f5254146144f25760025f5160206149635f395f51905f5255565b633ee5aeb560e01b5f5260045ffd5b5f5160206148635f395f51905f52546001600160a01b0316330361452157565b63118cdaa760e01b5f523360045260245ffd5b600954600a546040516323b872dd60e01b60208201523360248201526001600160a01b03918216604482015260648082018690528152614584939261457f92166127786084836138bb565b613ec8565b6040519182527f22f34457537e11fadd17cb52d1dbfbbc88b5d212fb353a45b3af2f33d29b739560203393a3565b5f908072184f03e93ff9f4daa797ed6e38ed64bf6a1f0160401b8110156146fc575b600a906904ee2d6d415b85acef8160201b8110156146e0575b662386f26fc100008110156146cc575b6305f5e1008110156146bb575b6127108110156146ac575b606481101561469e575b1015614693575b600a60216001840193614638856138de565b9461464660405196876138bb565b808652614655601f19916138de565b013660208701378401015b5f1901916f181899199a1a9b1b9c1cb0b131b232b360811b8282061a835304801561468e57600a9091614660565b505090565b600190910190614626565b60646002910493019261461f565b61271060049104930192614615565b6305f5e1006008910493019261460a565b662386f26fc10000601091049301926145fd565b602093909301926904ee2d6d415b85acef8160201b90046145ed565b506040915072184f03e93ff9f4daa797ed6e38ed64bf6a1f0160401b81046145d4565b5f806147479260018060a01b03169360208151910182865af16147406147b5565b90836147e4565b805190811515918261476f575b505061475d5750565b635274afe760e01b5f5260045260245ffd5b614782925060208091830101910161437f565b155f80614754565b60ff5f5160206149835f395f51905f525460401c16156147a657565b631afcd79f60e31b5f5260045ffd5b3d156147df573d906147c6826138de565b916147d460405193846138bb565b82523d5f602084013e565b606090565b9061480857508051156147f957805190602001fd5b630a12f52160e11b5f5260045ffd5b81511580614839575b614819575090565b639996b31560e01b5f9081526001600160a01b0391909116600452602490fd5b50803b1561481156fee9504a94451f4126ae0c712985621221e857e1235516c8c6fd40d7a24bd6a01a9016d09d72d40fdae2fd8ceac6b6234c7706214fd39c1cd1e609a0528c19930090048e2f7021decb3bccdc9c96fb747f7c82ca94b921ff7c7cc130daa897a6ddbeb163b9824b55e200a056e0082832866e8d8f931ba431b29b8919466a05faa5264fe7e90ee05d618ec81396b56ead08e622a37d2696239d6029610e48c3a86e360894a13ba1a3210667c828492db98dca3e2076cc3735a920a3ca505d382bbcc7649f14606d56993fd676bf6b21baf658647cc2921deec0cde7a0f2f8031c8d8be0079c531659141344cd1fd0a4f28419497f9722a3daafe3b4186f6b6457e06469726563742d636f6e74726163742d6175746f2d6170706c69636174696f6e9b779b17422d0df92223018b32b4d1fa46e071723d6817e2486d003becc55f00f0c57e16840df040f15088dc2f81fe391c3923bec73e23a9662efc9c229c6a00a2646970667358221220a69b858bb5c501f1fe869883f45a257970eb42f4d1dbbe7fb337a76915fe94d164736f6c63430008210033f0c57e16840df040f15088dc2f81fe391c3923bec73e23a9662efc9c229c6a00","linkReferences":{}},"methodIdentifiers":{"UPGRADE_INTERFACE_VERSION()":"ad3cb1cc","addPortfolio(string)":"0f6b8751","applyToJob(string,string,string[],uint256[],uint32)":"c9ef53af","athenaClientContract()":"a53ae226","createProfile(string,address)":"916100a8","emergencyWithdrawUSDC()":"4fef1488","getApplication(string,uint256)":"59e774a4","getEscrowBalance(string)":"11b5a16d","getJob(string)":"77e32407","getJobApplicationCount(string)":"eb7d901b","getJobCount()":"b02b4a2f","getJobStatus(string)":"8c1e161f","getRating(address)":"80fc9c0e","getTotalPlatformPayments()":"3a028980","hasProfile(address)":"a787c80b","initialize(address,address,address)":"c0c53b8b","isJobOpen(string)":"b58766ba","jobApplicationCounter(string)":"f4653c0b","jobApplications(string,uint256)":"9000a87f","jobCounter()":"50355d76","jobRatings(string,address)":"a8efdfe8","jobs(string)":"b05e6f5a","lockNextMilestone(string)":"38f34ca1","nowjc()":"0d2e0c59","owner()":"8da5cb5b","postJob(string,string[],uint256[])":"4b18d3c2","profileManager()":"f3f5142e","profiles(address)":"bbe15627","proxiableUUID()":"52d1902d","rate(string,address,uint256)":"8817f333","releaseAndLockNext(string)":"31760114","releasePayment(string)":"a6b16096","removePortfolioItem(uint256)":"4f5c8c77","renounceOwnership()":"715018a6","resolveDispute(string,bool)":"ce422626","setAthenaClientContract(address)":"ddd794c6","setNOWJC(address)":"73829d85","setProfileManager(address)":"ad76397e","setUSDCToken(address)":"0f5a9d01","startDirectContract(address,string,string[],uint256[],uint32)":"6caa5397","startJob(string,uint256,bool)":"dec8bed4","submitWork(string,string)":"0b150296","totalPlatformPayments()":"06d1ab4b","transferOwnership(address)":"f2fde38b","updatePortfolioItem(uint256,string)":"28a6f4d2","updateProfile(string)":"009299e3","upgradeToAndCall(address,bytes)":"4f1ef286","usdcToken()":"11eac855","userRatings(address,uint256)":"be001f6f","withdraw()":"3ccfd60b"},"id":16}