{"abi":[{"type":"constructor","inputs":[],"stateMutability":"nonpayable"},{"type":"function","name":"UPGRADE_INTERFACE_VERSION","inputs":[],"outputs":[{"name":"","type":"string","internalType":"string"}],"stateMutability":"view"},{"type":"function","name":"addPortfolio","inputs":[{"name":"_portfolioHash","type":"string","internalType":"string"}],"outputs":[],"stateMutability":"nonpayable"},{"type":"function","name":"applyToJob","inputs":[{"name":"_jobId","type":"string","internalType":"string"},{"name":"_appHash","type":"string","internalType":"string"},{"name":"_descriptions","type":"string[]","internalType":"string[]"},{"name":"_amounts","type":"uint256[]","internalType":"uint256[]"},{"name":"_preferredChainDomain","type":"uint32","internalType":"uint32"}],"outputs":[],"stateMutability":"nonpayable"},{"type":"function","name":"athenaClientContract","inputs":[],"outputs":[{"name":"","type":"address","internalType":"address"}],"stateMutability":"view"},{"type":"function","name":"createProfile","inputs":[{"name":"_ipfsHash","type":"string","internalType":"string"},{"name":"_referrerAddress","type":"address","internalType":"address"}],"outputs":[],"stateMutability":"nonpayable"},{"type":"function","name":"emergencyWithdrawUSDC","inputs":[],"outputs":[],"stateMutability":"nonpayable"},{"type":"function","name":"getApplication","inputs":[{"name":"_jobId","type":"string","internalType":"string"},{"name":"_appId","type":"uint256","internalType":"uint256"}],"outputs":[{"name":"","type":"tuple","internalType":"struct NativeArbOpenWorkJobContract.Application","components":[{"name":"id","type":"uint256","internalType":"uint256"},{"name":"jobId","type":"string","internalType":"string"},{"name":"applicant","type":"address","internalType":"address"},{"name":"applicationHash","type":"string","internalType":"string"},{"name":"proposedMilestones","type":"tuple[]","internalType":"struct NativeArbOpenWorkJobContract.MilestonePayment[]","components":[{"name":"descriptionHash","type":"string","internalType":"string"},{"name":"amount","type":"uint256","internalType":"uint256"}]}]}],"stateMutability":"view"},{"type":"function","name":"getEscrowBalance","inputs":[{"name":"_jobId","type":"string","internalType":"string"}],"outputs":[{"name":"escrowed","type":"uint256","internalType":"uint256"},{"name":"released","type":"uint256","internalType":"uint256"},{"name":"remaining","type":"uint256","internalType":"uint256"}],"stateMutability":"view"},{"type":"function","name":"getJob","inputs":[{"name":"_jobId","type":"string","internalType":"string"}],"outputs":[{"name":"","type":"tuple","internalType":"struct NativeArbOpenWorkJobContract.Job","components":[{"name":"id","type":"string","internalType":"string"},{"name":"jobGiver","type":"address","internalType":"address"},{"name":"applicants","type":"address[]","internalType":"address[]"},{"name":"jobDetailHash","type":"string","internalType":"string"},{"name":"status","type":"uint8","internalType":"enum NativeArbOpenWorkJobContract.JobStatus"},{"name":"workSubmissions","type":"string[]","internalType":"string[]"},{"name":"milestonePayments","type":"tuple[]","internalType":"struct NativeArbOpenWorkJobContract.MilestonePayment[]","components":[{"name":"descriptionHash","type":"string","internalType":"string"},{"name":"amount","type":"uint256","internalType":"uint256"}]},{"name":"finalMilestones","type":"tuple[]","internalType":"struct NativeArbOpenWorkJobContract.MilestonePayment[]","components":[{"name":"descriptionHash","type":"string","internalType":"string"},{"name":"amount","type":"uint256","internalType":"uint256"}]},{"name":"totalPaid","type":"uint256","internalType":"uint256"},{"name":"currentLockedAmount","type":"uint256","internalType":"uint256"},{"name":"currentMilestone","type":"uint256","internalType":"uint256"},{"name":"selectedApplicant","type":"address","internalType":"address"},{"name":"selectedApplicationId","type":"uint256","internalType":"uint256"},{"name":"totalEscrowed","type":"uint256","internalType":"uint256"},{"name":"totalReleased","type":"uint256","internalType":"uint256"}]}],"stateMutability":"view"},{"type":"function","name":"getJobApplicationCount","inputs":[{"name":"_jobId","type":"string","internalType":"string"}],"outputs":[{"name":"","type":"uint256","internalType":"uint256"}],"stateMutability":"view"},{"type":"function","name":"getJobCount","inputs":[],"outputs":[{"name":"","type":"uint256","internalType":"uint256"}],"stateMutability":"view"},{"type":"function","name":"getJobStatus","inputs":[{"name":"_jobId","type":"string","internalType":"string"}],"outputs":[{"name":"","type":"uint8","internalType":"enum NativeArbOpenWorkJobContract.JobStatus"}],"stateMutability":"view"},{"type":"function","name":"getRating","inputs":[{"name":"_user","type":"address","internalType":"address"}],"outputs":[{"name":"","type":"uint256","internalType":"uint256"}],"stateMutability":"view"},{"type":"function","name":"getTotalPlatformPayments","inputs":[],"outputs":[{"name":"","type":"uint256","internalType":"uint256"}],"stateMutability":"view"},{"type":"function","name":"hasProfile","inputs":[{"name":"","type":"address","internalType":"address"}],"outputs":[{"name":"","type":"bool","internalType":"bool"}],"stateMutability":"view"},{"type":"function","name":"initialize","inputs":[{"name":"_owner","type":"address","internalType":"address"},{"name":"_usdcToken","type":"address","internalType":"address"},{"name":"_nowjc","type":"address","internalType":"address"}],"outputs":[],"stateMutability":"nonpayable"},{"type":"function","name":"isJobOpen","inputs":[{"name":"_jobId","type":"string","internalType":"string"}],"outputs":[{"name":"","type":"bool","internalType":"bool"}],"stateMutability":"view"},{"type":"function","name":"jobApplicationCounter","inputs":[{"name":"","type":"string","internalType":"string"}],"outputs":[{"name":"","type":"uint256","internalType":"uint256"}],"stateMutability":"view"},{"type":"function","name":"jobApplications","inputs":[{"name":"","type":"string","internalType":"string"},{"name":"","type":"uint256","internalType":"uint256"}],"outputs":[{"name":"id","type":"uint256","internalType":"uint256"},{"name":"jobId","type":"string","internalType":"string"},{"name":"applicant","type":"address","internalType":"address"},{"name":"applicationHash","type":"string","internalType":"string"}],"stateMutability":"view"},{"type":"function","name":"jobCounter","inputs":[],"outputs":[{"name":"","type":"uint256","internalType":"uint256"}],"stateMutability":"view"},{"type":"function","name":"jobRatings","inputs":[{"name":"","type":"string","internalType":"string"},{"name":"","type":"address","internalType":"address"}],"outputs":[{"name":"","type":"uint256","internalType":"uint256"}],"stateMutability":"view"},{"type":"function","name":"jobs","inputs":[{"name":"","type":"string","internalType":"string"}],"outputs":[{"name":"id","type":"string","internalType":"string"},{"name":"jobGiver","type":"address","internalType":"address"},{"name":"jobDetailHash","type":"string","internalType":"string"},{"name":"status","type":"uint8","internalType":"enum NativeArbOpenWorkJobContract.JobStatus"},{"name":"totalPaid","type":"uint256","internalType":"uint256"},{"name":"currentLockedAmount","type":"uint256","internalType":"uint256"},{"name":"currentMilestone","type":"uint256","internalType":"uint256"},{"name":"selectedApplicant","type":"address","internalType":"address"},{"name":"selectedApplicationId","type":"uint256","internalType":"uint256"},{"name":"totalEscrowed","type":"uint256","internalType":"uint256"},{"name":"totalReleased","type":"uint256","internalType":"uint256"}],"stateMutability":"view"},{"type":"function","name":"lockNextMilestone","inputs":[{"name":"_jobId","type":"string","internalType":"string"}],"outputs":[],"stateMutability":"nonpayable"},{"type":"function","name":"nowjc","inputs":[],"outputs":[{"name":"","type":"address","internalType":"contract INativeNOWJC"}],"stateMutability":"view"},{"type":"function","name":"owner","inputs":[],"outputs":[{"name":"","type":"address","internalType":"address"}],"stateMutability":"view"},{"type":"function","name":"postJob","inputs":[{"name":"_jobDetailHash","type":"string","internalType":"string"},{"name":"_descriptions","type":"string[]","internalType":"string[]"},{"name":"_amounts","type":"uint256[]","internalType":"uint256[]"}],"outputs":[],"stateMutability":"nonpayable"},{"type":"function","name":"profileManager","inputs":[],"outputs":[{"name":"","type":"address","internalType":"address"}],"stateMutability":"view"},{"type":"function","name":"profiles","inputs":[{"name":"","type":"address","internalType":"address"}],"outputs":[{"name":"userAddress","type":"address","internalType":"address"},{"name":"ipfsHash","type":"string","internalType":"string"},{"name":"referrerAddress","type":"address","internalType":"address"}],"stateMutability":"view"},{"type":"function","name":"proxiableUUID","inputs":[],"outputs":[{"name":"","type":"bytes32","internalType":"bytes32"}],"stateMutability":"view"},{"type":"function","name":"rate","inputs":[{"name":"_jobId","type":"string","internalType":"string"},{"name":"_userToRate","type":"address","internalType":"address"},{"name":"_rating","type":"uint256","internalType":"uint256"}],"outputs":[],"stateMutability":"nonpayable"},{"type":"function","name":"releaseAndLockNext","inputs":[{"name":"_jobId","type":"string","internalType":"string"}],"outputs":[],"stateMutability":"nonpayable"},{"type":"function","name":"releasePayment","inputs":[{"name":"_jobId","type":"string","internalType":"string"}],"outputs":[],"stateMutability":"nonpayable"},{"type":"function","name":"removePortfolioItem","inputs":[{"name":"_index","type":"uint256","internalType":"uint256"}],"outputs":[],"stateMutability":"nonpayable"},{"type":"function","name":"renounceOwnership","inputs":[],"outputs":[],"stateMutability":"nonpayable"},{"type":"function","name":"resolveDispute","inputs":[{"name":"_jobId","type":"string","internalType":"string"},{"name":"_jobGiverWins","type":"bool","internalType":"bool"}],"outputs":[],"stateMutability":"nonpayable"},{"type":"function","name":"setAthenaClientContract","inputs":[{"name":"_athenaClient","type":"address","internalType":"address"}],"outputs":[],"stateMutability":"nonpayable"},{"type":"function","name":"setNOWJC","inputs":[{"name":"_nowjc","type":"address","internalType":"address"}],"outputs":[],"stateMutability":"nonpayable"},{"type":"function","name":"setProfileManager","inputs":[{"name":"_profileManager","type":"address","internalType":"address"}],"outputs":[],"stateMutability":"nonpayable"},{"type":"function","name":"setUSDCToken","inputs":[{"name":"_newToken","type":"address","internalType":"address"}],"outputs":[],"stateMutability":"nonpayable"},{"type":"function","name":"startDirectContract","inputs":[{"name":"_jobTaker","type":"address","internalType":"address"},{"name":"_jobDetailHash","type":"string","internalType":"string"},{"name":"_descriptions","type":"string[]","internalType":"string[]"},{"name":"_amounts","type":"uint256[]","internalType":"uint256[]"},{"name":"_jobTakerChainDomain","type":"uint32","internalType":"uint32"}],"outputs":[],"stateMutability":"nonpayable"},{"type":"function","name":"startJob","inputs":[{"name":"_jobId","type":"string","internalType":"string"},{"name":"_appId","type":"uint256","internalType":"uint256"},{"name":"_useAppMilestones","type":"bool","internalType":"bool"}],"outputs":[],"stateMutability":"nonpayable"},{"type":"function","name":"submitWork","inputs":[{"name":"_jobId","type":"string","internalType":"string"},{"name":"_submissionHash","type":"string","internalType":"string"}],"outputs":[],"stateMutability":"nonpayable"},{"type":"function","name":"totalPlatformPayments","inputs":[],"outputs":[{"name":"","type":"uint256","internalType":"uint256"}],"stateMutability":"view"},{"type":"function","name":"transferOwnership","inputs":[{"name":"newOwner","type":"address","internalType":"address"}],"outputs":[],"stateMutability":"nonpayable"},{"type":"function","name":"updatePortfolioItem","inputs":[{"name":"_index","type":"uint256","internalType":"uint256"},{"name":"_newPortfolioHash","type":"string","internalType":"string"}],"outputs":[],"stateMutability":"nonpayable"},{"type":"function","name":"updateProfile","inputs":[{"name":"_newIpfsHash","type":"string","internalType":"string"}],"outputs":[],"stateMutability":"nonpayable"},{"type":"function","name":"upgradeToAndCall","inputs":[{"name":"newImplementation","type":"address","internalType":"address"},{"name":"data","type":"bytes","internalType":"bytes"}],"outputs":[],"stateMutability":"payable"},{"type":"function","name":"usdcToken","inputs":[],"outputs":[{"name":"","type":"address","internalType":"contract IERC20"}],"stateMutability":"view"},{"type":"function","name":"userRatings","inputs":[{"name":"","type":"address","internalType":"address"},{"name":"","type":"uint256","internalType":"uint256"}],"outputs":[{"name":"","type":"uint256","internalType":"uint256"}],"stateMutability":"view"},{"type":"function","name":"withdraw","inputs":[],"outputs":[],"stateMutability":"nonpayable"},{"type":"event","name":"DisputeResolved","inputs":[{"name":"jobId","type":"string","indexed":true,"internalType":"string"},{"name":"jobGiverWins","type":"bool","indexed":false,"internalType":"bool"},{"name":"winner","type":"address","indexed":false,"internalType":"address"},{"name":"amount","type":"uint256","indexed":false,"internalType":"uint256"}],"anonymous":false},{"type":"event","name":"FundsSent","inputs":[{"name":"jobId","type":"string","indexed":true,"internalType":"string"},{"name":"jobGiver","type":"address","indexed":true,"internalType":"address"},{"name":"amount","type":"uint256","indexed":false,"internalType":"uint256"}],"anonymous":false},{"type":"event","name":"Initialized","inputs":[{"name":"version","type":"uint64","indexed":false,"internalType":"uint64"}],"anonymous":false},{"type":"event","name":"JobApplication","inputs":[{"name":"jobId","type":"string","indexed":true,"internalType":"string"},{"name":"applicationId","type":"uint256","indexed":true,"internalType":"uint256"},{"name":"applicant","type":"address","indexed":true,"internalType":"address"},{"name":"applicationHash","type":"string","indexed":false,"internalType":"string"}],"anonymous":false},{"type":"event","name":"JobPosted","inputs":[{"name":"jobId","type":"string","indexed":true,"internalType":"string"},{"name":"jobGiver","type":"address","indexed":true,"internalType":"address"},{"name":"jobDetailHash","type":"string","indexed":false,"internalType":"string"}],"anonymous":false},{"type":"event","name":"JobStarted","inputs":[{"name":"jobId","type":"string","indexed":true,"internalType":"string"},{"name":"applicationId","type":"uint256","indexed":true,"internalType":"uint256"},{"name":"selectedApplicant","type":"address","indexed":true,"internalType":"address"},{"name":"useApplicantMilestones","type":"bool","indexed":false,"internalType":"bool"}],"anonymous":false},{"type":"event","name":"JobStatusChanged","inputs":[{"name":"jobId","type":"string","indexed":true,"internalType":"string"},{"name":"newStatus","type":"uint8","indexed":false,"internalType":"enum NativeArbOpenWorkJobContract.JobStatus"}],"anonymous":false},{"type":"event","name":"MilestoneLocked","inputs":[{"name":"jobId","type":"string","indexed":true,"internalType":"string"},{"name":"newMilestone","type":"uint256","indexed":false,"internalType":"uint256"},{"name":"lockedAmount","type":"uint256","indexed":false,"internalType":"uint256"}],"anonymous":false},{"type":"event","name":"NOWJCSet","inputs":[{"name":"nowjc","type":"address","indexed":true,"internalType":"address"}],"anonymous":false},{"type":"event","name":"OwnershipTransferred","inputs":[{"name":"previousOwner","type":"address","indexed":true,"internalType":"address"},{"name":"newOwner","type":"address","indexed":true,"internalType":"address"}],"anonymous":false},{"type":"event","name":"PaymentReleased","inputs":[{"name":"jobId","type":"string","indexed":true,"internalType":"string"},{"name":"jobGiver","type":"address","indexed":true,"internalType":"address"},{"name":"applicant","type":"address","indexed":true,"internalType":"address"},{"name":"amount","type":"uint256","indexed":false,"internalType":"uint256"},{"name":"milestone","type":"uint256","indexed":false,"internalType":"uint256"}],"anonymous":false},{"type":"event","name":"PaymentReleasedAndNextMilestoneLocked","inputs":[{"name":"jobId","type":"string","indexed":true,"internalType":"string"},{"name":"releasedAmount","type":"uint256","indexed":false,"internalType":"uint256"},{"name":"lockedAmount","type":"uint256","indexed":false,"internalType":"uint256"},{"name":"milestone","type":"uint256","indexed":false,"internalType":"uint256"}],"anonymous":false},{"type":"event","name":"PlatformTotalUpdated","inputs":[{"name":"newTotal","type":"uint256","indexed":false,"internalType":"uint256"}],"anonymous":false},{"type":"event","name":"PortfolioAdded","inputs":[{"name":"user","type":"address","indexed":true,"internalType":"address"},{"name":"portfolioHash","type":"string","indexed":false,"internalType":"string"}],"anonymous":false},{"type":"event","name":"ProfileCreated","inputs":[{"name":"user","type":"address","indexed":true,"internalType":"address"},{"name":"ipfsHash","type":"string","indexed":false,"internalType":"string"},{"name":"referrer","type":"address","indexed":false,"internalType":"address"}],"anonymous":false},{"type":"event","name":"ProfileUpdated","inputs":[{"name":"user","type":"address","indexed":true,"internalType":"address"},{"name":"newIpfsHash","type":"string","indexed":false,"internalType":"string"}],"anonymous":false},{"type":"event","name":"Upgraded","inputs":[{"name":"implementation","type":"address","indexed":true,"internalType":"address"}],"anonymous":false},{"type":"event","name":"UserRated","inputs":[{"name":"jobId","type":"string","indexed":true,"internalType":"string"},{"name":"rater","type":"address","indexed":true,"internalType":"address"},{"name":"rated","type":"address","indexed":true,"internalType":"address"},{"name":"rating","type":"uint256","indexed":false,"internalType":"uint256"}],"anonymous":false},{"type":"event","name":"WorkSubmitted","inputs":[{"name":"jobId","type":"string","indexed":true,"internalType":"string"},{"name":"applicant","type":"address","indexed":true,"internalType":"address"},{"name":"submissionHash","type":"string","indexed":false,"internalType":"string"},{"name":"milestone","type":"uint256","indexed":false,"internalType":"uint256"}],"anonymous":false},{"type":"error","name":"AddressEmptyCode","inputs":[{"name":"target","type":"address","internalType":"address"}]},{"type":"error","name":"AddressInsufficientBalance","inputs":[{"name":"account","type":"address","internalType":"address"}]},{"type":"error","name":"ERC1967InvalidImplementation","inputs":[{"name":"implementation","type":"address","internalType":"address"}]},{"type":"error","name":"ERC1967NonPayable","inputs":[]},{"type":"error","name":"FailedInnerCall","inputs":[]},{"type":"error","name":"InvalidInitialization","inputs":[]},{"type":"error","name":"NotInitializing","inputs":[]},{"type":"error","name":"OwnableInvalidOwner","inputs":[{"name":"owner","type":"address","internalType":"address"}]},{"type":"error","name":"OwnableUnauthorizedAccount","inputs":[{"name":"account","type":"address","internalType":"address"}]},{"type":"error","name":"ReentrancyGuardReentrantCall","inputs":[]},{"type":"error","name":"SafeERC20FailedOperation","inputs":[{"name":"token","type":"address","internalType":"address"}]},{"type":"error","name":"UUPSUnauthorizedCallContext","inputs":[]},{"type":"error","name":"UUPSUnsupportedProxiableUUID","inputs":[{"name":"slot","type":"bytes32","internalType":"bytes32"}]}],"bytecode":{"object":"0x60a080604052346100c257306080525f516020614a555f395f51905f525460ff8160401c166100b3576002600160401b03196001600160401b03821601610060575b60405161498e90816100c7823960805181818161263601526128850152f35b6001600160401b0319166001600160401b039081175f516020614a555f395f51905f525581527fc7f505b2f371ae2175ee4913f4499e1f2633a7b5936321eed1cdaeb6115181d290602090a15f80610041565b63f92ee8a960e01b5f5260045ffd5b5f80fdfe60806040526004361015610011575f80fd5b5f5f3560e01c80629299e31461372757806306d1ab4b14612de25780630b150296146135395780630d2e0c59146135105780630f5a9d01146134c35780630f6b8751146133d457806311b5a16d1461334057806311eac8551461331757806328a6f4d214613281578063317601141461300957806338f34ca114612e005780633a02898014612de25780633ccfd60b14612d5a5780634b18d3c214612a815780634f1ef286146128355780634f5c8c771461279c5780634fef14881461268a57806350355d761461107a57806352d1902d1461262357806359e774a41461249b5780636caa539714611f5d578063715018a614611f0757806373829d8514611e9857806377e3240714611a9257806380fc9c0e14611a665780638817f333146116de5780638c1e161f146116595780638da5cb5b146116245780639000a87f14611595578063916100a81461146b578063a53ae22614611442578063a6b16096146111e8578063a787c80b146111a9578063a8efdfe814611160578063ad3cb1cc14611117578063ad76397e14611098578063b02b4a2f1461107a578063b05e6f5a14610f6b578063b58766ba14610ecc578063bbe1562714610e66578063be001f6f14610e0f578063c0c53b8b14610c5d578063c9ef53af146108c4578063ce4226261461069a578063ddd794c61461064d578063dec8bed414610322578063eb7d901b146102ed578063f2fde38b146102c0578063f3f5142e146102975763f4653c0b1461023f575f80fd5b3461029457602036600319011261029457600435906001600160401b038211610294576020808061027336600487016138e5565b604051928184925191829101835e8101600481520301902054604051908152f35b80fd5b5034610294578060031936011261029457600c546040516001600160a01b039091168152602090f35b5034610294576020366003190112610294576102ea6102dd613903565b6102e56144b7565b614421565b80f35b503461029457602036600319011261029457600435906001600160401b038211610294576020808061027336600487016138e5565b5034610294576060366003190112610294576004356001600160401b038111610593576103539036906004016138e5565b602435604435908115158092036106495761036c61447f565b60405161039a610393855192602081818901958087835e8101600281520301902054613b2c565b1515613ed5565b6020604051809286518091835e810160028152030190209160018060a01b036001840154163303610605576004830160ff81541660048110156105f1576105ba5782600c8596950155600160ff1982541617905584600a8501558492600685019260078601945b8454811015610490576104148186613ffa565b508654600160401b81101561047c578060016104339201895588613ffa565b91909161046857908160019392820361044f575b505001610401565b838161045c82938561434d565b01549101555f80610447565b634e487b7160e01b8a5260048a905260248afd5b634e487b7160e01b8a52604160045260248afd5b5086935085858054156105a6579085929183526104ca600d6001602086200154926104bb84886144ea565b83600982015501918254613fd9565b9055600a546001600160a01b0316803b156105a2578260405180926304eb333f60e11b82523360048301526080602483015281838161050c608482018b613a68565b8860448301528b606483015203925af180156105975761057e575b50610552935f5160206148595f395f51905f52602061054586613e7e565b92604051908152a4613e7e565b5f5160206148395f395f51905f52602060405160018152a260015f5160206149195f395f51905f525580f35b610589838092613871565b6105935785610527565b5080fd5b6040513d85823e3d90fd5b8280fd5b634e487b7160e01b86526032600452602486fd5b60405162461bcd60e51b815260206004820152600f60248201526e2537b11034b9903737ba1037b832b760891b6044820152606490fd5b634e487b7160e01b87526021600452602487fd5b60405162461bcd60e51b815260206004820152601c60248201527b27b7363c903537b11033b4bb32b91031b0b71039ba30b93a103537b160211b6044820152606490fd5b8380fd5b503461029457602036600319011261029457610667613903565b61066f6144b7565b6001600160a01b0316610683811515613e9a565b600b80546001600160a01b03191691909117905580f35b5034610294576040366003190112610294576004356001600160401b038111610593576106cb9036906004016138e5565b6024359081158015928381036108c057600b546001600160a01b0316330361088657604051602081855180838801835e81016002815203019020906107136103938354613b2c565b600482019460ff86541660048110156108725760016107329114613f53565b6009830195865490811561083957600e7f8d0e98aef4d85d348d57e4cbfeb62a4757630a03b8a5d7dcb72210e777439743958a6107cb9a6060975f146108255760018301546001600160a01b0316995b6107e6575b5501610794838254613fd9565b9055805460ff191660021790556107aa86613e7e565b604080519384526001600160a01b03909616602084015294820152a2613e7e565b5f5160206148395f395f51905f52602060405160028152a280f35b6107f286600854613fd9565b60085560088301610804878254613fd9565b90555f5160206147f95f395f51905f526020600854604051908152a1610787565b600b8301546001600160a01b031699610782565b60405162461bcd60e51b8152602060048201526011602482015270139bc8199d5b991cc8195cd8dc9bddd959607a1b6044820152606490fd5b634e487b7160e01b88526021600452602488fd5b60405162461bcd60e51b815260206004820152601260248201527113db9b1e48105d1a195b984810db1a595b9d60721b6044820152606490fd5b8480fd5b50346102945760a0366003190112610294576004356001600160401b038111610593576108f59036906004016138e5565b6024356001600160401b0381116105a2576109149036906004016138e5565b916044356001600160401b0381116105935761093490369060040161395c565b926064356001600160401b0381116105a2576109549036906004016139da565b9161095d613af8565b9161096661447f565b600c546001600160a01b03168015159081610bf8575b5015610bbf57855115610b6e576109998695939551855114614088565b604051835190602081818701938085835e81016004815203019020906109bf825461411a565b8092556020604051809287518091835e8101600381520301902081845260205260408320938185556109f48160018701613dba565b6002850180546001600160a01b03191633179055610a158360038701613dba565b6004849501945b8851811015610a615780610a5b610a356001938c6140c6565b51610a40838b6140c6565b5160405191610a4e8361380b565b8252602082015288614128565b01610a1c565b508387878a60018060a01b03600a5416803b156108c057610abb8587610acd9663ffffffff610af18498610adf8f996040519c8d9b8c9a8b9963fc5dee8160e01b8b523360048c015260c060248c015260c48b0190613a68565b8981036003190160448b015290613a68565b87810360031901606489015290614176565b858103600319016084870152906141ce565b911660a483015203925af18015610b6357610b4e575b5050610b1290613e7e565b5f5160206148795f395f51905f526040516020815280610b3733966020830190613a68565b0390a460015f5160206149195f395f51905f525580f35b81610b5891613871565b610649578385610b07565b6040513d84823e3d90fd5b60405162461bcd60e51b815260206004820152602360248201527f4d7573742070726f706f7365206174206c65617374206f6e65206d696c6573746044820152626f6e6560e81b6064820152608490fd5b60405162461bcd60e51b81526020600482015260116024820152704d75737420686176652070726f66696c6560781b6044820152606490fd5b60405163a787c80b60e01b81523360048201529150602090829060249082905afa908115610597578391610c2e575b505f61097c565b610c50915060203d602011610c56575b610c488183613871565b810190614335565b5f610c27565b503d610c3e565b503461029457606036600319011261029457610c77613903565b610c7f613919565b6044356001600160a01b0381169190829003610649575f5160206149395f395f51905f5254604081901c60ff161593906001600160401b03811680159081610e07575b6001149081610dfd575b159081610df4575b50610de5576001600160401b031981166001175f5160206149395f395f51905f5255610d33919085610dbd575b50610d0a614740565b610d12614740565b60015f5160206149195f395f51905f5255610d2b614740565b6102e5614740565b610d3b614740565b60018060a01b031660018060a01b0319600954161760095560018060a01b0319600a541617600a55610d6a5780f35b60ff60401b195f5160206149395f395f51905f5254165f5160206149395f395f51905f52557fc7f505b2f371ae2175ee4913f4499e1f2633a7b5936321eed1cdaeb6115181d2602060405160018152a180f35b6001600160481b0319166001600160401b01175f5160206149395f395f51905f52555f610d01565b63f92ee8a960e01b8652600486fd5b9050155f610cd4565b303b159150610ccc565b869150610cc2565b503461029457604036600319011261029457610e29613903565b6001600160a01b0316815260066020526040812080546024359290831015610294576020610e578484613c7b565b90549060031b1c604051908152f35b5034610294576020366003190112610294576040906001600160a01b03610e8b613903565b16815260208190522080546001600160a01b0316610ec8610eae60018401613b64565b92600260018060a01b039101541660405193849384613c45565b0390f35b5034610294576020366003190112610294576004356001600160401b038111610593576004610f0060ff92369083016138e5565b602060405191610f296103938251948481818601978089835e8101600281520301902054613b2c565b604051928391518091835e81016002815203019020015416906004821015610f575760208260405190158152f35b634e487b7160e01b81526021600452602490fd5b503461029457602036600319011261029457600435906001600160401b0382116102945760206110358180610fa336600488016138e5565b604051928184925191829101835e81016002815203019020610fc481613b64565b9060018060a01b0360018201541690610fdf60038201613b64565b60ff6004830154169360088301546009840154600a8501549161105061104560018060a01b03600b8901541695600c89015497600e600d8b01549a01549a6040519e8f9e8f946101608652610160860190613a68565b9301528c820360408e0152613a68565b9860608b0190613b0b565b608089015260a088015260c087015260e08601526101008501526101208401526101408301520390f35b50346102945780600319360112610294576020600754604051908152f35b5034610294576020366003190112610294576110b2613903565b6110ba6144b7565b6001600160a01b031680156110e057600c80546001600160a01b03191691909117905580f35b60405162461bcd60e51b815260206004820152600f60248201526e496e76616c6964206164647265737360881b6044820152606490fd5b503461029457806003193601126102945750610ec860405161113a604082613871565b60058152640352e302e360dc1b6020820152604051918291602083526020830190613a68565b50346102945760208061117236613c04565b9290604051928184925191829101835e810160058152030190209060018060a01b03165f52602052602060405f2054604051908152f35b50346102945760203660031901126102945760209060ff906040906001600160a01b036111d4613903565b168152600184522054166040519015158152f35b5034610294576020366003190112610294576004356001600160401b038111610593576112199036906004016138e5565b61122161447f565b604051602081835180838601835e810160028152030190206112466103938254613b2c565b60018101546001600160a01b031633036113f257600481019160ff83541660048110156113de5760016112799114613f53565b60098201918483549361128d851515613f99565b6008830161129c868254613fd9565b9055600e83016112ad868254613fd9565b9055556112bc83600854613fd9565b600855600a8101938454600783015411156113ac575b50600a5485906001600160a01b0316803b1561059357816040518092639110e03160e01b825281838161130a8b8b3360048501614013565b03925af18015610b6357611397575b5050600b015492546001600160a01b03909316929061133790613e7e565b9060405192835260208301527fa71f1661a883ae6cc97d4b6c49515c53bc3ad70681a1cdf669785aca9356ee2760403393a45f5160206147f95f395f51905f526020600854604051908152a160015f5160206149195f395f51905f525580f35b816113a191613871565b6108c057845f611319565b805460ff191660021790556113c082613e7e565b5f5160206148395f395f51905f52602060405160028152a25f6112d2565b634e487b7160e01b85526021600452602485fd5b60405162461bcd60e51b815260206004820152602260248201527f4f6e6c79206a6f622067697665722063616e2072656c65617365207061796d656044820152611b9d60f21b6064820152608490fd5b5034610294578060031936011261029457600b546040516001600160a01b039091168152602090f35b50346102945761147a36613c04565b9061148361447f565b600c546001600160a01b031661149a811515613ca4565b815115611554578084913b156105935781604051809263d888cc2760e01b82528183816114cc8a8a3360048501613c45565b03925af18015610b635761153f575b50507f5874afb0d71e1f97e546fc6b15493e51e5ccbefa591556f8c6a80c8c5151a84f9061151460405191604083526040830190613a68565b6001600160a01b039093166020820152339281900390a260015f5160206149195f395f51905f525580f35b8161154991613871565b6105a257825f6114db565b60405162461bcd60e51b81526020600482015260196024820152784950465320686173682063616e6e6f7420626520656d70747960381b6044820152606490fd5b5034610294576040906020806115aa36613a37565b92908551928184925191829101835e81016003815203019020908252602052208054610ec86115db60018401613b64565b926115f5600360018060a01b036002840154169201613b64565b6116116040519586958652608060208701526080860190613a68565b9160408501528382036060850152613a68565b50346102945780600319360112610294575f5160206148195f395f51905f52546040516001600160a01b039091168152602090f35b503461029457602036600319011261029457600435906001600160401b03821161029457602060ff600461168f368683016138e5565b83604051916116b76103938251948481818601978089835e8101600281520301902054613b2c565b604051928391518091835e810160028152030190200154166116dc6040518092613b0b565bf35b5034610294576060366003190112610294576004356001600160401b0381116105935761170f9036906004016138e5565b611717613919565b6044359061172361447f565b604051835190602081818701938085835e8101600281520301902061174b6103938254613b2c565b60ff60048201541660048110156105f15760018114908115611a5b575b5015611a2057600184101580611a15575b156119db5760405160208187518086835e8101600581520301902060018060a01b0384165f5260205260405f20546119a65760018060a01b03600182015416803314918261198c575b821561195a575b50501561191c576020604051809286518091835e8101600581520301902060018060a01b0382165f526020528160405f205560018060a01b031691828452600660205260408420805490600160401b821015611908579061182f91600182018155613c7b565b81545f1960039290921b91821b19169084901b179055600c5484906001600160a01b0316806118a4575b505061186490613e7e565b6040519182527f210dac24c32efa80ef08f803d73e7033bee07555af4a95a00e79a488121b0bd660203393a460015f5160206149195f395f51905f525580f35b803b1561059357816040518092633511d4c560e11b8252336004830152608060248301528183816118d8608482018a613a68565b8b60448301528a606483015203925af18015610b63571561185957816118fd91613871565b61064957835f611859565b634e487b7160e01b86526041600452602486fd5b60405162461bcd60e51b81526020600482015260166024820152754e6f7420617574686f72697a656420746f207261746560501b6044820152606490fd5b600b01546001600160a01b03163314915081611979575b505f806117c9565b6001600160a01b0384161490505f611971565b600b8101546001600160a01b0386811691161492506117c2565b60405162461bcd60e51b815260206004820152600d60248201526c105b1c9958591e481c985d1959609a1b6044820152606490fd5b60405162461bcd60e51b8152602060048201526012602482015271526174696e67206d75737420626520312d3560701b6044820152606490fd5b506005841115611779565b60405162461bcd60e51b8152602060048201526013602482015272129bd8881b5d5cdd081899481cdd185c9d1959606a1b6044820152606490fd5b60029150145f611768565b5034610294576020366003190112610294576020611a8a611a85613903565b614288565b604051908152f35b5034610294576020366003190112610294576004356001600160401b03811161059357611ac39036906004016138e5565b816101c0604051611ad381613855565b6060815282602082015260606040820152606080820152826080820152606060a0820152606060c0820152606060e08201528261010082015282610120820152826101408201528261016082015282610180820152826101a08201520152602060405191611b5a6103938251948481818601978089835e8101600281520301902054613b2c565b604051928391518091835e8101600281520301902090604051611b7c81613855565b611b8583613b64565b815260018060a01b03600184015416926020820193845260028101926040518085602082975493848152019084526020842092845b818110611e76575050611bcf92500385613871565b60408301938452611be260038301613b64565b6060840190815260ff6004840154166004811015611e6257608085015260058301958654611c0f81613945565b97611c1d604051998a613871565b8189528452602080852085918a015b838310611e45575050505060a08501968752611c4a6006850161421c565b9160c08601928352600e611c606007870161421c565b9560e0880196875260088101546101008901526009810154610120890152600a81015461014089015260018060a01b03600b82015416610160890152600c810154610180890152600d8101546101a089015201546101c08701526040519660208852611cda87516101e060208b01526102008a0190613a68565b92516001600160a01b0316604089015251878303601f190160608901528051808452602091820193919091019190855b818110611e2657505051878203601f19016080890152611d2a9250613a68565b95611d3d608086015160a0880190613b0b565b5191601f198688030160c08701528251808852602088016020808360051b8b0101950192905b828210611dfa578880896101c0611d9f8b611d8b8c8c51601f198883030160e0890152613a8c565b9051858203601f1901610100870152613a8c565b9161010081015161012085015261012081015161014085015261014081015161016085015260018060a01b03610160820151166101808501526101808101516101a08501526101a08101518285015201516101e08301520390f35b90919294602080611e186001938d601f199082030186528951613a68565b970192019201909291611d63565b84516001600160a01b0316845260209485019490930192600101611d0a565b600160208192611e5485613b64565b815201920192019190611c2c565b634e487b7160e01b83526021600452602483fd5b84546001600160a01b0316835260019485019489945060209093019201611bba565b503461029457602036600319011261029457611eb2613903565b611eba6144b7565b6001600160a01b0316611ece811515613e9a565b600a80546001600160a01b031916821790557f8ab673704932cb2fefd0b419683fd655475837529cdce24fbecad2c8f80672e08280a280f35b5034610294578060031936011261029457611f206144b7565b5f5160206148195f395f51905f5280546001600160a01b0319811690915581906001600160a01b03165f5160206148d95f395f51905f528280a380f35b50346102945760a036600319011261029457611f77613903565b6024356001600160401b0381116105a257611f969036906004016138e5565b906044356001600160401b03811161064957611fb690369060040161395c565b926064356001600160401b03811161059357611fd69036906004016139da565b93611fdf613af8565b92611fe861447f565b6001600160a01b0316801561245a576120038251151561403d565b6120108251875114614088565b829383945b875186101561203d5761203560019161202e888b6140c6565b5190613fd9565b950194612015565b60209495509561204f889715156140da565b61205846614568565b956120b7600161207561206c60075461411a565b80600755614568565b88604051998a92818085019d8e815192839201905e840190602d60f81b83830152805192839101602183015e010184838201520301601f198101885287613871565b6040516020818851808b835e81016002815203019020916120d88784613dba565b6001830180546001600160a01b031916331790556120f98160038501613dba565b60048301805460ff19166001908117909155600b840180546001600160a01b03191687179055600c840155600a830182905560078301966006840195835b8b89518210156121b357906121ad6001926121928361218b818f8f6121869061216084846140c6565b519061216c858a6140c6565b516040519261217a8461380b565b83526020830152614128565b6140c6565b51926140c6565b51604051916121a08361380b565b825260208201528c614128565b01612137565b9895969750508960405160208185518085835e81016004815203019020906121db825461411a565b8092556020604051809286518091835e8101600381520301902081865260205260408520978189556122108460018b01613dba565b6002890180546001600160a01b0319168417905560038901805461223390613b2c565b601f811161242e575b50604181558652602086205f5160206148f95f395f51905f529055969760040196855b875181101561229e57806122988c61227d8361218b6001968e6140c6565b516040519161228b8361380b565b825260208201528b614128565b0161225f565b5089878a82511561241a579082916122c3600d60208c97960151926104bb848c6144ea565b9055600a546001600160a01b0316803b156108c0578785888b9663ffffffff6123578498612345612321996123336040519d8e9c8d9b8c9a636009b51f60e01b8c523360048d015260248c015260e060448c015260e48b0190613a68565b8981036003190160648b015290613a68565b87810360031901608489015290614176565b8581036003190160a4870152906141ce565b911660c483015203925af18015610b6357612405575b50506105529361237c84613e7e565b5f5160206148b95f395f51905f5260405160208152806123a133956020830190613a68565b0390a381816123af85613e7e565b5f5160206148795f395f51905f526060604051602081526020808201525f5160206148f95f395f51905f526040820152a46123e983613e7e565b5f5160206148595f395f51905f526020604051888152a4613e7e565b8161240f91613871565b6108c057848661236d565b634e487b7160e01b89526032600452602489fd5b602081111561223c578188526020882061245491601f0160051c5f190190600101613d52565b8b61223c565b60405162461bcd60e51b8152602060048201526019602482015278496e76616c6964206a6f622074616b6572206164647265737360381b6044820152606490fd5b5034610294576124aa36613a37565b606060806040949394516124bd8161383a565b84815282602082015284604082015282808201520152604051835190602081818701938085835e810160038152030190208284526020526040832054156125e15760206040948551928391518091835e810160038152030190209082526020522060405161252a8161383a565b81548152610ec861253d60018401613b64565b6020830190815260028401546001600160a01b0316604084019081529093906125ce9061257f600461257160038601613b64565b94606088019586520161421c565b92608086019384526125ac604051978897602089525160208901525160a0604089015260c0880190613a68565b91516001600160a01b0316606087015251858203601f19016080870152613a68565b9051838203601f190160a0850152613a8c565b60405162461bcd60e51b815260206004820152601a602482015279105c1c1b1a58d85d1a5bdb88191bd95cc81b9bdd08195e1a5cdd60321b6044820152606490fd5b50346102945780600319360112610294577f00000000000000000000000000000000000000000000000000000000000000006001600160a01b0316300361267b5760206040515f5160206148995f395f51905f528152f35b63703e46dd60e11b8152600490fd5b50346102945780600319360112610294576126a36144b7565b6009546040516370a0823160e01b81523060048201526001600160a01b0390911690602081602481855afa90811561059757839161276a575b508015612733576102ea9161272e60018060a01b035f5160206148195f395f51905f52541661272060405194859263a9059cbb60e01b602085015260248401614201565b03601f198101845283613871565b6146d5565b60405162461bcd60e51b815260206004820152600f60248201526e4e6f20555344432062616c616e636560881b6044820152606490fd5b90506020813d602011612794575b8161278560209383613871565b810103126105a257515f6126dc565b3d9150612778565b5034610294576020366003190112610294576127b661447f565b600c5481906001600160a01b03166127cf811515613ca4565b803b156128325781604051809263efe24b8d60e01b82528183816127f96004353360048401614201565b03925af18015610b635761281d575b5060015f5160206149195f395f51905f525580f35b8161282791613871565b61029457805f612808565b50fd5b5060403660031901126102945761284a613903565b906024356001600160401b03811161059357366023820112156105935761287b9036906024816004013591016138af565b6001600160a01b037f000000000000000000000000000000000000000000000000000000000000000016308114908115612a5f575b50612a50575f5160206148195f395f51905f52546001600160a01b03163303612a14576040516352d1902d60e01b8152926001600160a01b0381169190602085600481865afa809585966129e0575b5061291857634c9c8ce360e01b84526004839052602484fd5b9091845f5160206148995f395f51905f5281036129ce5750813b156129bc575f5160206148995f395f51905f5280546001600160a01b031916821790557fbc7cd75a20ee27fd9adebab32041f755214dbc6bffa90cc0225b39da2e5c2d3b8480a281518390156129a2578083602061299e95519101845af461299861476b565b9161479a565b5080f35b505050346129ad5780f35b63b398979f60e01b8152600490fd5b634c9c8ce360e01b8452600452602483fd5b632a87526960e21b8552600452602484fd5b9095506020813d602011612a0c575b816129fc60209383613871565b810103126108c05751945f6128ff565b3d91506129ef565b60405162461bcd60e51b8152602060048201526014602482015273556e617574686f72697a6564207570677261646560601b6044820152606490fd5b63703e46dd60e11b8252600482fd5b5f5160206148995f395f51905f52546001600160a01b0316141590505f6128b0565b5034610294576060366003190112610294576004356001600160401b03811161059357612ab29036906004016138e5565b906024356001600160401b03811161059357612ad290369060040161395c565b6044356001600160401b0381116105a257612af19036906004016139da565b92612afa61447f565b612b068251151561403d565b612b138251855114614088565b8291825b8551841015612b3857612b3060019161202e86896140c6565b930192612b17565b9160209185612b49889515156140da565b612b5246614568565b612ba66001612b6561206c60075461411a565b876040519889928180850197805191829101895e840190602d60f81b83830152805192839101602183015e010185838201520301601f198101875286613871565b6020604051809287518091835e8101600281520301902092612bc88585613dba565b6001840180546001600160a01b03191633179055612be98160038601613dba565b6004840160ff1981541690556006829401935b8351811015612c415780612c3b612c15600193876140c6565b51612c20838b6140c6565b5160405191612c2e8361380b565b8252602082015287614128565b01612bfc565b50600a54859083906001600160a01b03168886823b1561064957612cab92612c938587612ccf8296612cbd8c976040519a8b998a9889976321587b2960e11b895260a060048a015260a4890190613a68565b33602489015287810360031901604489015290613a68565b85810360031901606487015290614176565b838103600319016084850152906141ce565b03925af18015610b6357612d45575b5050612d1a91612ced82613e7e565b5f5160206148b95f395f51905f526040516020815280612d1233956020830190613a68565b0390a3613e7e565b5f5160206148395f395f51905f526020604051848152a260015f5160206149195f395f51905f525580f35b81612d4f91613871565b6105a2578284612cde565b5034610294578060031936011261029457612d736144b7565b478015612db0575f5160206148195f395f51905f525482918291829182916001600160a01b031682f115612da45780f35b604051903d90823e3d90fd5b60405162461bcd60e51b815260206004820152600a6024820152694e6f2062616c616e636560b01b6044820152606490fd5b50346102945780600319360112610294576020600854604051908152f35b5034610294576020366003190112610294576004356001600160401b03811161059357612e319036906004016138e5565b612e3961447f565b604051602081835180838601835e8101600281520301902090612e5f6103938354613b2c565b612e7660018060a01b036001840154163314613f16565b60ff6004830154166004811015612ff5576001612e939114613f53565b60098201918254612fb057600a810190815460078201612eb581548310613d0b565b60018201808311612f9c57600d9392600192612ed2928755613ffa565b5001548095612ee182876144ea565b5501612eee848254613fd9565b9055600a5484906001600160a01b0316803b156105935781604051809263f4f5d3c760e01b8252818381612f278b8b3360048501614013565b03925af18015610b6357612f87575b50507fb9422fa51238140c2297fbab91a9525e85400eea5c9666d16562298ea0e0981c91612f676040925491613e7e565b9382519182526020820152a260015f5160206149195f395f51905f525580f35b81612f9191613871565b61064957835f612f36565b634e487b7160e01b88526011600452602488fd5b60405162461bcd60e51b815260206004820152601d60248201527f50726576696f7573207061796d656e74206e6f742072656c65617365640000006044820152606490fd5b634e487b7160e01b84526021600452602484fd5b5034610294576020366003190112610294576004356001600160401b0381116105935761303a9036906004016138e5565b61304261447f565b604051602081835180838601835e810160028152030190206130676103938254613b2c565b61307e60018060a01b036001830154163314613f16565b600481019060ff82541660048110156113de57600161309d9114613f53565b60098101908154906130b0821515613f99565b600a8101938454906130c9600784019283541015613d0b565b600883016130d8858254613fd9565b9055600e83016130e9858254613fd9565b90556130f784600854613fd9565b6008558554906001820180921161326d578187558254899283911061323657505085545f1981019291508211612f9c57613136600d9392600192613ffa565b500154809461314582896144ea565b5501613152838254613fd9565b90555b600a5485906001600160a01b0316803b156105935781604051809263024ef77f60e31b825233600483015260806024830152818381613197608482018d613a68565b8960448301528a606483015203925af18015610b6357613221575b50506131f06131e37f881f9575e6bc96f2ebd076de5584e663c5e7489d82f21f00777994a223cfb061945495613e7e565b946040519384938461392f565b0390a25f5160206147f95f395f51905f526020600854604051908152a160015f5160206149195f395f51905f525580f35b8161322b91613871565b6108c057845f6131b2565b925092509355600260ff1982541617905561325084613e7e565b5f5160206148395f395f51905f52602060405160028152a2613155565b634e487b7160e01b89526011600452602489fd5b503461029457604036600319011261029457806024356001600160401b038111612832576132b39036906004016138e5565b6132bb61447f565b600c546001600160a01b03166132d2811515613ca4565b803b15613313576127f98392918392604051948580948193633e41d85560e11b83523360048401526004356024840152606060448401526064830190613a68565b5050fd5b50346102945780600319360112610294576009546040516001600160a01b039091168152602090f35b5034610294576020366003190112610294576004356001600160401b038111610593576020613374819236906004016138e5565b604051928184925191829101835e810160028152030190206133996103938254613b2c565b600e600d82015491015491828203908282116133c05750610ec8906040519384938461392f565b634e487b7160e01b81526011600452602490fd5b5034610294576020366003190112610294576004356001600160401b038111610593576134059036906004016138e5565b61340d61447f565b600c5482906001600160a01b0316613426811515613ca4565b803b1561059357816040518092631618bf5960e11b825281838161344e893360048401613ce9565b03925af18015610b63576134ae575b50507fcc18228e480194b6eb176cebd651be35a4eb3236a2461b112a3e89ea1b1c40dd604051602081528061349733946020830190613a68565b0390a260015f5160206149195f395f51905f525580f35b816134b891613871565b61059357815f61345d565b5034610294576020366003190112610294576134dd613903565b6134e56144b7565b6001600160a01b03166134f9811515613e9a565b600980546001600160a01b03191691909117905580f35b5034610294578060031936011261029457600a546040516001600160a01b039091168152602090f35b5034610294576040366003190112610294576004356001600160401b0381116105935761356a9036906004016138e5565b6024356001600160401b0381116105a2576135899036906004016138e5565b61359161447f565b6040516135d4600a845192602081818801958087835e810160028152030190200154600760405160208188518088835e8101600281520301902001541015613d0b565b600560405160208186518086835e8101600281520301902001805490600160401b821015611908579061360c91600182018155613c7b565b613713578261361a91613dba565b600a5484906001600160a01b0316803b156105935781604051809263ba24596360e01b82523360048301526060602483015281838161367161365f606483018d613a68565b8281036003190160448401528b613a68565b03925af18015610b63576136fe575b50506136c8600a7f2de280d2b7315f889cbea3ddc5c9ebfb1773caba023a73cc8fa272e9b28585c2926020604051809288518091835e81016002815203019020015493613e7e565b916136de60405191604083526040830190613a68565b9360208201528033940390a360015f5160206149195f395f51905f525580f35b8161370891613871565b61064957835f613680565b634e487b7160e01b85526004859052602485fd5b5034613807576020366003190112613807576004356001600160401b038111613807576137589036906004016138e5565b61376061447f565b600c546001600160a01b0316613777811515613ca4565b803b15613807575f60405180926318ccd60160e11b825281838161379f883360048401613ce9565b03925af180156137fc576137e7575b507fdd635a4cd84864e37e4479dbfc2ec667acfa473c83c8422a8ac9d9d07599b01c604051602081528061349733946020830190613a68565b6137f49192505f90613871565b5f905f6137ae565b6040513d5f823e3d90fd5b5f80fd5b604081019081106001600160401b0382111761382657604052565b634e487b7160e01b5f52604160045260245ffd5b60a081019081106001600160401b0382111761382657604052565b6101e081019081106001600160401b0382111761382657604052565b601f909101601f19168101906001600160401b0382119082101761382657604052565b6001600160401b03811161382657601f01601f191660200190565b9291926138bb82613894565b916138c96040519384613871565b829481845281830111613807578281602093845f960137010152565b9080601f8301121561380757816020613900933591016138af565b90565b600435906001600160a01b038216820361380757565b602435906001600160a01b038216820361380757565b6040919493926060820195825260208201520152565b6001600160401b0381116138265760051b60200190565b9080601f8301121561380757813561397381613945565b926139816040519485613871565b81845260208085019260051b820101918383116138075760208201905b8382106139ad57505050505090565b81356001600160401b038111613807576020916139cf878480948801016138e5565b81520191019061399e565b9080601f830112156138075781356139f181613945565b926139ff6040519485613871565b81845260208085019260051b82010192831161380757602001905b828210613a275750505090565b8135815260209182019101613a1a565b604060031982011261380757600435906001600160401b03821161380757613a61916004016138e5565b9060243590565b805180835260209291819084018484015e5f828201840152601f01601f1916010190565b9080602083519182815201916020808360051b8301019401925f915b838310613ab757505050505090565b9091929394602080600192601f198582030186528851908280613ae38451604085526040850190613a68565b93015191015297019301930191939290613aa8565b6084359063ffffffff8216820361380757565b906004821015613b185752565b634e487b7160e01b5f52602160045260245ffd5b90600182811c92168015613b5a575b6020831014613b4657565b634e487b7160e01b5f52602260045260245ffd5b91607f1691613b3b565b9060405191825f825492613b7784613b2c565b8084529360018116908115613be25750600114613b9e575b50613b9c92500383613871565b565b90505f9291925260205f20905f915b818310613bc6575050906020613b9c928201015f613b8f565b6020919350806001915483858901015201910190918492613bad565b905060209250613b9c94915060ff191682840152151560051b8201015f613b8f565b604060031982011261380757600435906001600160401b03821161380757613c2e916004016138e5565b906024356001600160a01b03811681036138075790565b91613c6b9060409295949560018060a01b03168452606060208501526060840190613a68565b6001600160a01b03909416910152565b8054821015613c90575f5260205f2001905f90565b634e487b7160e01b5f52603260045260245ffd5b15613cab57565b60405162461bcd60e51b8152602060048201526016602482015275141c9bd99a5b1953585b9859d95c881b9bdd081cd95d60521b6044820152606490fd5b6001600160a01b03909116815260406020820181905261390092910190613a68565b15613d1257565b60405162461bcd60e51b8152602060048201526018602482015277105b1b081b5a5b195cdd1bdb995cc818dbdb5c1b195d195960421b6044820152606490fd5b5f5b828110613d6057505050565b5f82820155600101613d54565b91601f8211613d7b57505050565b808211613d8757505050565b613b9c925f5260205f20916020601f830160051c9210613db2575b601f82910160051c039101613d52565b5f9150613da2565b81519192916001600160401b03811161382657613de181613ddb8454613b2c565b84613d6d565b6020601f8211600114613e20578190613e119394955f92613e15575b50508160011b915f199060031b1c19161790565b9055565b015190505f80613dfd565b601f19821690835f52805f20915f5b818110613e6657509583600195969710613e4e575b505050811b019055565b01515f1960f88460031b161c191690555f8080613e44565b9192602060018192868b015181550194019201613e2f565b602090604051918183925191829101835e81015f815203902090565b15613ea157565b60405162461bcd60e51b815260206004820152600c60248201526b5a65726f206164647265737360a01b6044820152606490fd5b15613edc57565b60405162461bcd60e51b8152602060048201526012602482015271129bd888191bd95cc81b9bdd08195e1a5cdd60721b6044820152606490fd5b15613f1d57565b60405162461bcd60e51b815260206004820152600e60248201526d27b7363c903537b11033b4bb32b960911b6044820152606490fd5b15613f5a57565b60405162461bcd60e51b81526020600482015260176024820152764a6f62206d75737420626520696e2070726f677265737360481b6044820152606490fd5b15613fa057565b60405162461bcd60e51b8152602060048201526011602482015270139bc81c185e5b595b9d081b1bd8dad959607a1b6044820152606490fd5b91908201809211613fe657565b634e487b7160e01b5f52601160045260245ffd5b8054821015613c90575f5260205f209060011b01905f90565b9392916140389060409260018060a01b03168652606060208701526060860190613a68565b930152565b1561404457565b606460405162461bcd60e51b815260206004820152602060248201527f4d7573742068617665206174206c65617374206f6e65206d696c6573746f6e656044820152fd5b1561408f57565b60405162461bcd60e51b815260206004820152600f60248201526e098cadccee8d040dad2e6dac2e8c6d608b1b6044820152606490fd5b8051821015613c905760209160051b010190565b156140e157565b60405162461bcd60e51b81526020600482015260116024820152700546f74616c206d757374206265203e203607c1b6044820152606490fd5b5f198114613fe65760010190565b8054600160401b8110156138265761414591600182018155613ffa565b9190916141635760208161415c6001935185613dba565b0151910155565b634e487b7160e01b5f525f60045260245ffd5b9080602083519182815201916020808360051b8301019401925f915b8383106141a157505050505090565b90919293946020806141bf600193601f198682030187528951613a68565b97019301930191939290614192565b90602080835192838152019201905f5b8181106141eb5750505090565b82518452602093840193909201916001016141de565b6001600160a01b039091168152602081019190915260400190565b90815461422881613945565b926142366040519485613871565b81845260208401905f5260205f205f915b8383106142545750505050565b600260206001926040516142678161380b565b61427086613b64565b81528486015483820152815201920192019190614247565b60018060a01b03165f52600660205260405f20604051808260208294549384815201905f5260205f20925f5b81811061431c5750506142c992500382613871565b805115614317575f90815b81518310156142f5576142ed60019161202e85856140c6565b9201916142d4565b915051908115614303570490565b634e487b7160e01b5f52601260045260245ffd5b505f90565b84548352600194850194869450602090930192016142b4565b90816020910312613807575180151581036138075790565b91909182811461441c576143618354613b2c565b6001600160401b0381116138265761437d81613ddb8454613b2c565b5f93601f82116001146143b757613e1192939482915f926143ac5750508160011b915f199060031b1c19161790565b015490505f80613dfd565b601f198216905f5260205f2094835f5260205f20915f5b818110614404575095836001959697106143ec57505050811b019055565b01545f1960f88460031b161c191690555f8080613e44565b9192600180602092868b0154815501940192016143ce565b509050565b6001600160a01b0316801561446c575f5160206148195f395f51905f5280546001600160a01b0319811683179091556001600160a01b03165f5160206148d95f395f51905f525f80a3565b631e4fbdf760e01b5f525f60045260245ffd5b60025f5160206149195f395f51905f5254146144a85760025f5160206149195f395f51905f5255565b633ee5aeb560e01b5f5260045ffd5b5f5160206148195f395f51905f52546001600160a01b031633036144d757565b63118cdaa760e01b5f523360045260245ffd5b600954600a546040516323b872dd60e01b60208201523360248201526001600160a01b0391821660448201526064808201869052815261453a9392614535921661272e608483613871565b613e7e565b6040519182527f22f34457537e11fadd17cb52d1dbfbbc88b5d212fb353a45b3af2f33d29b739560203393a3565b5f908072184f03e93ff9f4daa797ed6e38ed64bf6a1f0160401b8110156146b2575b600a906904ee2d6d415b85acef8160201b811015614696575b662386f26fc10000811015614682575b6305f5e100811015614671575b612710811015614662575b6064811015614654575b1015614649575b600a602160018401936145ee85613894565b946145fc6040519687613871565b80865261460b601f1991613894565b013660208701378401015b5f1901916f181899199a1a9b1b9c1cb0b131b232b360811b8282061a835304801561464457600a9091614616565b505090565b6001909101906145dc565b6064600291049301926145d5565b612710600491049301926145cb565b6305f5e100600891049301926145c0565b662386f26fc10000601091049301926145b3565b602093909301926904ee2d6d415b85acef8160201b90046145a3565b506040915072184f03e93ff9f4daa797ed6e38ed64bf6a1f0160401b810461458a565b5f806146fd9260018060a01b03169360208151910182865af16146f661476b565b908361479a565b8051908115159182614725575b50506147135750565b635274afe760e01b5f5260045260245ffd5b6147389250602080918301019101614335565b155f8061470a565b60ff5f5160206149395f395f51905f525460401c161561475c57565b631afcd79f60e31b5f5260045ffd5b3d15614795573d9061477c82613894565b9161478a6040519384613871565b82523d5f602084013e565b606090565b906147be57508051156147af57805190602001fd5b630a12f52160e11b5f5260045ffd5b815115806147ef575b6147cf575090565b639996b31560e01b5f9081526001600160a01b0391909116600452602490fd5b50803b156147c756fee9504a94451f4126ae0c712985621221e857e1235516c8c6fd40d7a24bd6a01a9016d09d72d40fdae2fd8ceac6b6234c7706214fd39c1cd1e609a0528c19930090048e2f7021decb3bccdc9c96fb747f7c82ca94b921ff7c7cc130daa897a6ddbeb163b9824b55e200a056e0082832866e8d8f931ba431b29b8919466a05faa5264fe7e90ee05d618ec81396b56ead08e622a37d2696239d6029610e48c3a86e360894a13ba1a3210667c828492db98dca3e2076cc3735a920a3ca505d382bbcc7649f14606d56993fd676bf6b21baf658647cc2921deec0cde7a0f2f8031c8d8be0079c531659141344cd1fd0a4f28419497f9722a3daafe3b4186f6b6457e06469726563742d636f6e74726163742d6175746f2d6170706c69636174696f6e9b779b17422d0df92223018b32b4d1fa46e071723d6817e2486d003becc55f00f0c57e16840df040f15088dc2f81fe391c3923bec73e23a9662efc9c229c6a00a264697066735822122017a40ade6d98f994cccb1a8532f83a9c97fd8b0c427988a561b43dce1f23b15c64736f6c63430008210033f0c57e16840df040f15088dc2f81fe391c3923bec73e23a9662efc9c229c6a00","linkReferences":{}},"methodIdentifiers":{"UPGRADE_INTERFACE_VERSION()":"ad3cb1cc","addPortfolio(string)":"0f6b8751","applyToJob(string,string,string[],uint256[],uint32)":"c9ef53af","athenaClientContract()":"a53ae226","createProfile(string,address)":"916100a8","emergencyWithdrawUSDC()":"4fef1488","getApplication(string,uint256)":"59e774a4","getEscrowBalance(string)":"11b5a16d","getJob(string)":"77e32407","getJobApplicationCount(string)":"eb7d901b","getJobCount()":"b02b4a2f","getJobStatus(string)":"8c1e161f","getRating(address)":"80fc9c0e","getTotalPlatformPayments()":"3a028980","hasProfile(address)":"a787c80b","initialize(address,address,address)":"c0c53b8b","isJobOpen(string)":"b58766ba","jobApplicationCounter(string)":"f4653c0b","jobApplications(string,uint256)":"9000a87f","jobCounter()":"50355d76","jobRatings(string,address)":"a8efdfe8","jobs(string)":"b05e6f5a","lockNextMilestone(string)":"38f34ca1","nowjc()":"0d2e0c59","owner()":"8da5cb5b","postJob(string,string[],uint256[])":"4b18d3c2","profileManager()":"f3f5142e","profiles(address)":"bbe15627","proxiableUUID()":"52d1902d","rate(string,address,uint256)":"8817f333","releaseAndLockNext(string)":"31760114","releasePayment(string)":"a6b16096","removePortfolioItem(uint256)":"4f5c8c77","renounceOwnership()":"715018a6","resolveDispute(string,bool)":"ce422626","setAthenaClientContract(address)":"ddd794c6","setNOWJC(address)":"73829d85","setProfileManager(address)":"ad76397e","setUSDCToken(address)":"0f5a9d01","startDirectContract(address,string,string[],uint256[],uint32)":"6caa5397","startJob(string,uint256,bool)":"dec8bed4","submitWork(string,string)":"0b150296","totalPlatformPayments()":"06d1ab4b","transferOwnership(address)":"f2fde38b","updatePortfolioItem(uint256,string)":"28a6f4d2","updateProfile(string)":"009299e3","upgradeToAndCall(address,bytes)":"4f1ef286","usdcToken()":"11eac855","userRatings(address,uint256)":"be001f6f","withdraw()":"3ccfd60b"},"id":16}