{"abi":[{"type":"constructor","inputs":[],"stateMutability":"nonpayable"},{"type":"function","name":"UPGRADE_INTERFACE_VERSION","inputs":[],"outputs":[{"name":"","type":"string","internalType":"string"}],"stateMutability":"view"},{"type":"function","name":"addPortfolio","inputs":[{"name":"_portfolioHash","type":"string","internalType":"string"}],"outputs":[],"stateMutability":"nonpayable"},{"type":"function","name":"applyToJob","inputs":[{"name":"_jobId","type":"string","internalType":"string"},{"name":"_appHash","type":"string","internalType":"string"},{"name":"_descriptions","type":"string[]","internalType":"string[]"},{"name":"_amounts","type":"uint256[]","internalType":"uint256[]"},{"name":"_preferredChainDomain","type":"uint32","internalType":"uint32"}],"outputs":[],"stateMutability":"nonpayable"},{"type":"function","name":"athenaClientContract","inputs":[],"outputs":[{"name":"","type":"address","internalType":"address"}],"stateMutability":"view"},{"type":"function","name":"createProfile","inputs":[{"name":"_ipfsHash","type":"string","internalType":"string"},{"name":"_referrerAddress","type":"address","internalType":"address"}],"outputs":[],"stateMutability":"nonpayable"},{"type":"function","name":"emergencyWithdrawUSDC","inputs":[],"outputs":[],"stateMutability":"nonpayable"},{"type":"function","name":"getApplication","inputs":[{"name":"_jobId","type":"string","internalType":"string"},{"name":"_appId","type":"uint256","internalType":"uint256"}],"outputs":[{"name":"","type":"tuple","internalType":"struct NativeArbOpenWorkJobContract.Application","components":[{"name":"id","type":"uint256","internalType":"uint256"},{"name":"jobId","type":"string","internalType":"string"},{"name":"applicant","type":"address","internalType":"address"},{"name":"applicationHash","type":"string","internalType":"string"},{"name":"proposedMilestones","type":"tuple[]","internalType":"struct NativeArbOpenWorkJobContract.MilestonePayment[]","components":[{"name":"descriptionHash","type":"string","internalType":"string"},{"name":"amount","type":"uint256","internalType":"uint256"}]}]}],"stateMutability":"view"},{"type":"function","name":"getEscrowBalance","inputs":[{"name":"_jobId","type":"string","internalType":"string"}],"outputs":[{"name":"escrowed","type":"uint256","internalType":"uint256"},{"name":"released","type":"uint256","internalType":"uint256"},{"name":"remaining","type":"uint256","internalType":"uint256"}],"stateMutability":"view"},{"type":"function","name":"getJob","inputs":[{"name":"_jobId","type":"string","internalType":"string"}],"outputs":[{"name":"","type":"tuple","internalType":"struct NativeArbOpenWorkJobContract.Job","components":[{"name":"id","type":"string","internalType":"string"},{"name":"jobGiver","type":"address","internalType":"address"},{"name":"applicants","type":"address[]","internalType":"address[]"},{"name":"jobDetailHash","type":"string","internalType":"string"},{"name":"status","type":"uint8","internalType":"enum NativeArbOpenWorkJobContract.JobStatus"},{"name":"workSubmissions","type":"string[]","internalType":"string[]"},{"name":"milestonePayments","type":"tuple[]","internalType":"struct NativeArbOpenWorkJobContract.MilestonePayment[]","components":[{"name":"descriptionHash","type":"string","internalType":"string"},{"name":"amount","type":"uint256","internalType":"uint256"}]},{"name":"finalMilestones","type":"tuple[]","internalType":"struct NativeArbOpenWorkJobContract.MilestonePayment[]","components":[{"name":"descriptionHash","type":"string","internalType":"string"},{"name":"amount","type":"uint256","internalType":"uint256"}]},{"name":"totalPaid","type":"uint256","internalType":"uint256"},{"name":"currentLockedAmount","type":"uint256","internalType":"uint256"},{"name":"currentMilestone","type":"uint256","internalType":"uint256"},{"name":"selectedApplicant","type":"address","internalType":"address"},{"name":"selectedApplicationId","type":"uint256","internalType":"uint256"},{"name":"totalEscrowed","type":"uint256","internalType":"uint256"},{"name":"totalReleased","type":"uint256","internalType":"uint256"}]}],"stateMutability":"view"},{"type":"function","name":"getJobApplicationCount","inputs":[{"name":"_jobId","type":"string","internalType":"string"}],"outputs":[{"name":"","type":"uint256","internalType":"uint256"}],"stateMutability":"view"},{"type":"function","name":"getJobCount","inputs":[],"outputs":[{"name":"","type":"uint256","internalType":"uint256"}],"stateMutability":"view"},{"type":"function","name":"getJobStatus","inputs":[{"name":"_jobId","type":"string","internalType":"string"}],"outputs":[{"name":"","type":"uint8","internalType":"enum NativeArbOpenWorkJobContract.JobStatus"}],"stateMutability":"view"},{"type":"function","name":"getProfile","inputs":[{"name":"_user","type":"address","internalType":"address"}],"outputs":[{"name":"","type":"tuple","internalType":"struct NativeArbOpenWorkJobContract.Profile","components":[{"name":"userAddress","type":"address","internalType":"address"},{"name":"ipfsHash","type":"string","internalType":"string"},{"name":"referrerAddress","type":"address","internalType":"address"},{"name":"portfolioHashes","type":"string[]","internalType":"string[]"}]}],"stateMutability":"view"},{"type":"function","name":"getRating","inputs":[{"name":"_user","type":"address","internalType":"address"}],"outputs":[{"name":"","type":"uint256","internalType":"uint256"}],"stateMutability":"view"},{"type":"function","name":"getTotalPlatformPayments","inputs":[],"outputs":[{"name":"","type":"uint256","internalType":"uint256"}],"stateMutability":"view"},{"type":"function","name":"hasProfile","inputs":[{"name":"","type":"address","internalType":"address"}],"outputs":[{"name":"","type":"bool","internalType":"bool"}],"stateMutability":"view"},{"type":"function","name":"initialize","inputs":[{"name":"_owner","type":"address","internalType":"address"},{"name":"_usdcToken","type":"address","internalType":"address"},{"name":"_nowjc","type":"address","internalType":"address"}],"outputs":[],"stateMutability":"nonpayable"},{"type":"function","name":"isJobOpen","inputs":[{"name":"_jobId","type":"string","internalType":"string"}],"outputs":[{"name":"","type":"bool","internalType":"bool"}],"stateMutability":"view"},{"type":"function","name":"jobApplicationCounter","inputs":[{"name":"","type":"string","internalType":"string"}],"outputs":[{"name":"","type":"uint256","internalType":"uint256"}],"stateMutability":"view"},{"type":"function","name":"jobApplications","inputs":[{"name":"","type":"string","internalType":"string"},{"name":"","type":"uint256","internalType":"uint256"}],"outputs":[{"name":"id","type":"uint256","internalType":"uint256"},{"name":"jobId","type":"string","internalType":"string"},{"name":"applicant","type":"address","internalType":"address"},{"name":"applicationHash","type":"string","internalType":"string"}],"stateMutability":"view"},{"type":"function","name":"jobCounter","inputs":[],"outputs":[{"name":"","type":"uint256","internalType":"uint256"}],"stateMutability":"view"},{"type":"function","name":"jobRatings","inputs":[{"name":"","type":"string","internalType":"string"},{"name":"","type":"address","internalType":"address"}],"outputs":[{"name":"","type":"uint256","internalType":"uint256"}],"stateMutability":"view"},{"type":"function","name":"jobs","inputs":[{"name":"","type":"string","internalType":"string"}],"outputs":[{"name":"id","type":"string","internalType":"string"},{"name":"jobGiver","type":"address","internalType":"address"},{"name":"jobDetailHash","type":"string","internalType":"string"},{"name":"status","type":"uint8","internalType":"enum NativeArbOpenWorkJobContract.JobStatus"},{"name":"totalPaid","type":"uint256","internalType":"uint256"},{"name":"currentLockedAmount","type":"uint256","internalType":"uint256"},{"name":"currentMilestone","type":"uint256","internalType":"uint256"},{"name":"selectedApplicant","type":"address","internalType":"address"},{"name":"selectedApplicationId","type":"uint256","internalType":"uint256"},{"name":"totalEscrowed","type":"uint256","internalType":"uint256"},{"name":"totalReleased","type":"uint256","internalType":"uint256"}],"stateMutability":"view"},{"type":"function","name":"lockNextMilestone","inputs":[{"name":"_jobId","type":"string","internalType":"string"}],"outputs":[],"stateMutability":"nonpayable"},{"type":"function","name":"nowjc","inputs":[],"outputs":[{"name":"","type":"address","internalType":"contract INativeNOWJC"}],"stateMutability":"view"},{"type":"function","name":"owner","inputs":[],"outputs":[{"name":"","type":"address","internalType":"address"}],"stateMutability":"view"},{"type":"function","name":"postJob","inputs":[{"name":"_jobDetailHash","type":"string","internalType":"string"},{"name":"_descriptions","type":"string[]","internalType":"string[]"},{"name":"_amounts","type":"uint256[]","internalType":"uint256[]"}],"outputs":[],"stateMutability":"nonpayable"},{"type":"function","name":"profiles","inputs":[{"name":"","type":"address","internalType":"address"}],"outputs":[{"name":"userAddress","type":"address","internalType":"address"},{"name":"ipfsHash","type":"string","internalType":"string"},{"name":"referrerAddress","type":"address","internalType":"address"}],"stateMutability":"view"},{"type":"function","name":"proxiableUUID","inputs":[],"outputs":[{"name":"","type":"bytes32","internalType":"bytes32"}],"stateMutability":"view"},{"type":"function","name":"rate","inputs":[{"name":"_jobId","type":"string","internalType":"string"},{"name":"_userToRate","type":"address","internalType":"address"},{"name":"_rating","type":"uint256","internalType":"uint256"}],"outputs":[],"stateMutability":"nonpayable"},{"type":"function","name":"releaseAndLockNext","inputs":[{"name":"_jobId","type":"string","internalType":"string"}],"outputs":[],"stateMutability":"nonpayable"},{"type":"function","name":"releasePayment","inputs":[{"name":"_jobId","type":"string","internalType":"string"}],"outputs":[],"stateMutability":"nonpayable"},{"type":"function","name":"renounceOwnership","inputs":[],"outputs":[],"stateMutability":"nonpayable"},{"type":"function","name":"resolveDispute","inputs":[{"name":"_jobId","type":"string","internalType":"string"},{"name":"_jobGiverWins","type":"bool","internalType":"bool"}],"outputs":[],"stateMutability":"nonpayable"},{"type":"function","name":"setAthenaClientContract","inputs":[{"name":"_athenaClient","type":"address","internalType":"address"}],"outputs":[],"stateMutability":"nonpayable"},{"type":"function","name":"setNOWJC","inputs":[{"name":"_nowjc","type":"address","internalType":"address"}],"outputs":[],"stateMutability":"nonpayable"},{"type":"function","name":"setUSDCToken","inputs":[{"name":"_newToken","type":"address","internalType":"address"}],"outputs":[],"stateMutability":"nonpayable"},{"type":"function","name":"startDirectContract","inputs":[{"name":"_jobTaker","type":"address","internalType":"address"},{"name":"_jobDetailHash","type":"string","internalType":"string"},{"name":"_descriptions","type":"string[]","internalType":"string[]"},{"name":"_amounts","type":"uint256[]","internalType":"uint256[]"},{"name":"_jobTakerChainDomain","type":"uint32","internalType":"uint32"}],"outputs":[],"stateMutability":"nonpayable"},{"type":"function","name":"startJob","inputs":[{"name":"_jobId","type":"string","internalType":"string"},{"name":"_appId","type":"uint256","internalType":"uint256"},{"name":"_useAppMilestones","type":"bool","internalType":"bool"}],"outputs":[],"stateMutability":"nonpayable"},{"type":"function","name":"submitWork","inputs":[{"name":"_jobId","type":"string","internalType":"string"},{"name":"_submissionHash","type":"string","internalType":"string"}],"outputs":[],"stateMutability":"nonpayable"},{"type":"function","name":"totalPlatformPayments","inputs":[],"outputs":[{"name":"","type":"uint256","internalType":"uint256"}],"stateMutability":"view"},{"type":"function","name":"transferOwnership","inputs":[{"name":"newOwner","type":"address","internalType":"address"}],"outputs":[],"stateMutability":"nonpayable"},{"type":"function","name":"updateProfile","inputs":[{"name":"_newIpfsHash","type":"string","internalType":"string"}],"outputs":[],"stateMutability":"nonpayable"},{"type":"function","name":"upgradeToAndCall","inputs":[{"name":"newImplementation","type":"address","internalType":"address"},{"name":"data","type":"bytes","internalType":"bytes"}],"outputs":[],"stateMutability":"payable"},{"type":"function","name":"usdcToken","inputs":[],"outputs":[{"name":"","type":"address","internalType":"contract IERC20"}],"stateMutability":"view"},{"type":"function","name":"userRatings","inputs":[{"name":"","type":"address","internalType":"address"},{"name":"","type":"uint256","internalType":"uint256"}],"outputs":[{"name":"","type":"uint256","internalType":"uint256"}],"stateMutability":"view"},{"type":"function","name":"withdraw","inputs":[],"outputs":[],"stateMutability":"nonpayable"},{"type":"event","name":"DisputeResolved","inputs":[{"name":"jobId","type":"string","indexed":true,"internalType":"string"},{"name":"jobGiverWins","type":"bool","indexed":false,"internalType":"bool"},{"name":"winner","type":"address","indexed":false,"internalType":"address"},{"name":"amount","type":"uint256","indexed":false,"internalType":"uint256"}],"anonymous":false},{"type":"event","name":"FundsSent","inputs":[{"name":"jobId","type":"string","indexed":true,"internalType":"string"},{"name":"jobGiver","type":"address","indexed":true,"internalType":"address"},{"name":"amount","type":"uint256","indexed":false,"internalType":"uint256"}],"anonymous":false},{"type":"event","name":"Initialized","inputs":[{"name":"version","type":"uint64","indexed":false,"internalType":"uint64"}],"anonymous":false},{"type":"event","name":"JobApplication","inputs":[{"name":"jobId","type":"string","indexed":true,"internalType":"string"},{"name":"applicationId","type":"uint256","indexed":true,"internalType":"uint256"},{"name":"applicant","type":"address","indexed":true,"internalType":"address"},{"name":"applicationHash","type":"string","indexed":false,"internalType":"string"}],"anonymous":false},{"type":"event","name":"JobPosted","inputs":[{"name":"jobId","type":"string","indexed":true,"internalType":"string"},{"name":"jobGiver","type":"address","indexed":true,"internalType":"address"},{"name":"jobDetailHash","type":"string","indexed":false,"internalType":"string"}],"anonymous":false},{"type":"event","name":"JobStarted","inputs":[{"name":"jobId","type":"string","indexed":true,"internalType":"string"},{"name":"applicationId","type":"uint256","indexed":true,"internalType":"uint256"},{"name":"selectedApplicant","type":"address","indexed":true,"internalType":"address"},{"name":"useApplicantMilestones","type":"bool","indexed":false,"internalType":"bool"}],"anonymous":false},{"type":"event","name":"JobStatusChanged","inputs":[{"name":"jobId","type":"string","indexed":true,"internalType":"string"},{"name":"newStatus","type":"uint8","indexed":false,"internalType":"enum NativeArbOpenWorkJobContract.JobStatus"}],"anonymous":false},{"type":"event","name":"MilestoneLocked","inputs":[{"name":"jobId","type":"string","indexed":true,"internalType":"string"},{"name":"newMilestone","type":"uint256","indexed":false,"internalType":"uint256"},{"name":"lockedAmount","type":"uint256","indexed":false,"internalType":"uint256"}],"anonymous":false},{"type":"event","name":"NOWJCSet","inputs":[{"name":"nowjc","type":"address","indexed":true,"internalType":"address"}],"anonymous":false},{"type":"event","name":"OwnershipTransferred","inputs":[{"name":"previousOwner","type":"address","indexed":true,"internalType":"address"},{"name":"newOwner","type":"address","indexed":true,"internalType":"address"}],"anonymous":false},{"type":"event","name":"PaymentReleased","inputs":[{"name":"jobId","type":"string","indexed":true,"internalType":"string"},{"name":"jobGiver","type":"address","indexed":true,"internalType":"address"},{"name":"applicant","type":"address","indexed":true,"internalType":"address"},{"name":"amount","type":"uint256","indexed":false,"internalType":"uint256"},{"name":"milestone","type":"uint256","indexed":false,"internalType":"uint256"}],"anonymous":false},{"type":"event","name":"PaymentReleasedAndNextMilestoneLocked","inputs":[{"name":"jobId","type":"string","indexed":true,"internalType":"string"},{"name":"releasedAmount","type":"uint256","indexed":false,"internalType":"uint256"},{"name":"lockedAmount","type":"uint256","indexed":false,"internalType":"uint256"},{"name":"milestone","type":"uint256","indexed":false,"internalType":"uint256"}],"anonymous":false},{"type":"event","name":"PlatformTotalUpdated","inputs":[{"name":"newTotal","type":"uint256","indexed":false,"internalType":"uint256"}],"anonymous":false},{"type":"event","name":"PortfolioAdded","inputs":[{"name":"user","type":"address","indexed":true,"internalType":"address"},{"name":"portfolioHash","type":"string","indexed":false,"internalType":"string"}],"anonymous":false},{"type":"event","name":"ProfileCreated","inputs":[{"name":"user","type":"address","indexed":true,"internalType":"address"},{"name":"ipfsHash","type":"string","indexed":false,"internalType":"string"},{"name":"referrer","type":"address","indexed":false,"internalType":"address"}],"anonymous":false},{"type":"event","name":"ProfileUpdated","inputs":[{"name":"user","type":"address","indexed":true,"internalType":"address"},{"name":"newIpfsHash","type":"string","indexed":false,"internalType":"string"}],"anonymous":false},{"type":"event","name":"Upgraded","inputs":[{"name":"implementation","type":"address","indexed":true,"internalType":"address"}],"anonymous":false},{"type":"event","name":"UserRated","inputs":[{"name":"jobId","type":"string","indexed":true,"internalType":"string"},{"name":"rater","type":"address","indexed":true,"internalType":"address"},{"name":"rated","type":"address","indexed":true,"internalType":"address"},{"name":"rating","type":"uint256","indexed":false,"internalType":"uint256"}],"anonymous":false},{"type":"event","name":"WorkSubmitted","inputs":[{"name":"jobId","type":"string","indexed":true,"internalType":"string"},{"name":"applicant","type":"address","indexed":true,"internalType":"address"},{"name":"submissionHash","type":"string","indexed":false,"internalType":"string"},{"name":"milestone","type":"uint256","indexed":false,"internalType":"uint256"}],"anonymous":false},{"type":"error","name":"AddressEmptyCode","inputs":[{"name":"target","type":"address","internalType":"address"}]},{"type":"error","name":"AddressInsufficientBalance","inputs":[{"name":"account","type":"address","internalType":"address"}]},{"type":"error","name":"ERC1967InvalidImplementation","inputs":[{"name":"implementation","type":"address","internalType":"address"}]},{"type":"error","name":"ERC1967NonPayable","inputs":[]},{"type":"error","name":"FailedInnerCall","inputs":[]},{"type":"error","name":"InvalidInitialization","inputs":[]},{"type":"error","name":"NotInitializing","inputs":[]},{"type":"error","name":"OwnableInvalidOwner","inputs":[{"name":"owner","type":"address","internalType":"address"}]},{"type":"error","name":"OwnableUnauthorizedAccount","inputs":[{"name":"account","type":"address","internalType":"address"}]},{"type":"error","name":"ReentrancyGuardReentrantCall","inputs":[]},{"type":"error","name":"SafeERC20FailedOperation","inputs":[{"name":"token","type":"address","internalType":"address"}]},{"type":"error","name":"UUPSUnauthorizedCallContext","inputs":[]},{"type":"error","name":"UUPSUnsupportedProxiableUUID","inputs":[{"name":"slot","type":"bytes32","internalType":"bytes32"}]}],"bytecode":{"object":"0x60a080604052346100c257306080525f516020614b255f395f51905f525460ff8160401c166100b3576002600160401b03196001600160401b03821601610060575b604051614a5e90816100c7823960805181818161262201526127d70152f35b6001600160401b0319166001600160401b039081175f516020614b255f395f51905f525581527fc7f505b2f371ae2175ee4913f4499e1f2633a7b5936321eed1cdaeb6115181d290602090a15f80610041565b63f92ee8a960e01b5f5260045ffd5b5f80fdfe60806040526004361015610011575f80fd5b5f5f3560e01c80629299e31461373657806306d1ab4b14612d345780630b150296146135805780630d2e0c59146135575780630f53a4701461344d5780630f5a9d01146134005780630f6b8751146132a157806311b5a16d1461320d57806311eac855146131e45780633176011414612f6c57806338f34ca114612d525780633a02898014612d345780633ccfd60b14612cac5780634b18d3c2146129d35780634f1ef286146127875780634fef14881461267657806350355d7614610fcd57806352d1902d1461260f57806359e774a4146124875780636caa539714611f49578063715018a614611ef357806373829d8514611e8457806377e3240714611b1c57806380fc9c0e14611af05780638817f3331461176e5780638c1e161f146116e95780638da5cb5b146116b45780639000a87f14611625578063916100a814611344578063a53ae2261461131b578063a6b16096146110bc578063a787c80b1461107d578063a8efdfe814611034578063ad3cb1cc14610feb578063b02b4a2f14610fcd578063b05e6f5a14610ebe578063b58766ba14610e1f578063bbe1562714610db9578063be001f6f14610d62578063c0c53b8b14610bb0578063c9ef53af1461087a578063ce42262614610650578063ddd794c614610603578063dec8bed4146102d8578063eb7d901b146102a3578063f2fde38b146102765763f4653c0b1461021e575f80fd5b3461027357602036600319011261027357600435906001600160401b0382116102735760208080610252366004870161393f565b604051928184925191829101835e8101600481520301902054604051908152f35b80fd5b5034610273576020366003190112610273576102a061029361395d565b61029b61457e565b6144e8565b80f35b503461027357602036600319011261027357600435906001600160401b0382116102735760208080610252366004870161393f565b5034610273576060366003190112610273576004356001600160401b0381116105495761030990369060040161393f565b602435604435908115158092036105ff57610322614546565b604051610350610349855192602081818901958087835e8101600281520301902054613bde565b1515614064565b6020604051809286518091835e810160028152030190209160018060a01b0360018401541633036105bb576004830160ff81541660048110156105a7576105705782600c8596950155600160ff1982541617905584600a8501558492600685019260078601945b8454811015610446576103ca8186614189565b508654600160401b811015610432578060016103e99201895588614189565b91909161041e579081600193928203610405575b5050016103b7565b8381610412829385614414565b01549101555f806103fd565b634e487b7160e01b8a5260048a905260248afd5b634e487b7160e01b8a52604160045260248afd5b50869350858580541561055c57908592918352610480600d60016020862001549261047184886145b1565b83600982015501918254614168565b9055600a546001600160a01b0316803b15610558578260405180926304eb333f60e11b8252336004830152608060248301528183816104c2608482018b613989565b8860448301528b606483015203925af1801561054d57610534575b50610508935f5160206149295f395f51905f5260206104fb86613fb8565b92604051908152a4613fb8565b5f5160206149095f395f51905f52602060405160018152a260015f5160206149e95f395f51905f525580f35b61053f8380926138cb565b61054957856104dd565b5080fd5b6040513d85823e3d90fd5b8280fd5b634e487b7160e01b86526032600452602486fd5b60405162461bcd60e51b815260206004820152600f60248201526e2537b11034b9903737ba1037b832b760891b6044820152606490fd5b634e487b7160e01b87526021600452602487fd5b60405162461bcd60e51b815260206004820152601c60248201527b27b7363c903537b11033b4bb32b91031b0b71039ba30b93a103537b160211b6044820152606490fd5b8380fd5b50346102735760203660031901126102735761061d61395d565b61062561457e565b6001600160a01b0316610639811515614029565b600b80546001600160a01b03191691909117905580f35b5034610273576040366003190112610273576004356001600160401b0381116105495761068190369060040161393f565b60243590811580159283810361087657600b546001600160a01b0316330361083c57604051602081855180838801835e81016002815203019020906106c96103498354613bde565b600482019460ff86541660048110156108285760016106e891146140e2565b600983019586549081156107ef57600e7f8d0e98aef4d85d348d57e4cbfeb62a4757630a03b8a5d7dcb72210e777439743958a6107819a6060975f146107db5760018301546001600160a01b0316995b61079c575b550161074a838254614168565b9055805460ff1916600217905561076086613fb8565b604080519384526001600160a01b03909616602084015294820152a2613fb8565b5f5160206149095f395f51905f52602060405160028152a280f35b6107a886600854614168565b600855600883016107ba878254614168565b90555f5160206148c95f395f51905f526020600854604051908152a161073d565b600b8301546001600160a01b031699610738565b60405162461bcd60e51b8152602060048201526011602482015270139bc8199d5b991cc8195cd8dc9bddd959607a1b6044820152606490fd5b634e487b7160e01b88526021600452602488fd5b60405162461bcd60e51b815260206004820152601260248201527113db9b1e48105d1a195b984810db1a595b9d60721b6044820152606490fd5b8480fd5b50346102735760a0366003190112610273576004356001600160401b038111610549576108ab90369060040161393f565b6024356001600160401b038111610558576108ca90369060040161393f565b916044356001600160401b038111610549576108ea903690600401613a32565b926064356001600160401b0381116105585761090a903690600401613ab0565b91610913613baa565b9161091c614546565b338252600160205260ff60408320541615610b6e57855115610b1d5761094886959395518551146141ed565b604051835190602081818701938085835e810160048152030190209061096e825461427f565b8092556020604051809287518091835e8101600381520301902081845260205260408320938185556109a38160018701613e4b565b6002850180546001600160a01b031916331790556109c48360038701613e4b565b6004849501945b8851811015610a105780610a0a6109e46001938c61422b565b516109ef838b61422b565b51604051916109fd83613879565b825260208201528861428d565b016109cb565b508387878a60018060a01b03600a5416803b1561087657610a6a8587610a7c9663ffffffff610aa08498610a8e8f996040519c8d9b8c9a8b9963fc5dee8160e01b8b523360048c015260c060248c015260c48b0190613989565b8981036003190160448b015290613989565b878103600319016064890152906139ad565b858103600319016084870152906142c8565b911660a483015203925af18015610b1257610afd575b5050610ac190613fb8565b5f5160206149495f395f51905f526040516020815280610ae633966020830190613989565b0390a460015f5160206149e95f395f51905f525580f35b81610b07916138cb565b6105ff578385610ab6565b6040513d84823e3d90fd5b60405162461bcd60e51b815260206004820152602360248201527f4d7573742070726f706f7365206174206c65617374206f6e65206d696c6573746044820152626f6e6560e81b6064820152608490fd5b60405162461bcd60e51b815260206004820152601a6024820152794d75737420686176652070726f66696c6520746f206170706c7960301b6044820152606490fd5b503461027357606036600319011261027357610bca61395d565b610bd2613973565b6044356001600160a01b03811691908290036105ff575f516020614a095f395f51905f5254604081901c60ff161593906001600160401b03811680159081610d5a575b6001149081610d50575b159081610d47575b50610d38576001600160401b031981166001175f516020614a095f395f51905f5255610c86919085610d10575b50610c5d614810565b610c65614810565b60015f5160206149e95f395f51905f5255610c7e614810565b61029b614810565b610c8e614810565b60018060a01b031660018060a01b0319600954161760095560018060a01b0319600a541617600a55610cbd5780f35b60ff60401b195f516020614a095f395f51905f5254165f516020614a095f395f51905f52557fc7f505b2f371ae2175ee4913f4499e1f2633a7b5936321eed1cdaeb6115181d2602060405160018152a180f35b6001600160481b0319166001600160401b01175f516020614a095f395f51905f52555f610c54565b63f92ee8a960e01b8652600486fd5b9050155f610c27565b303b159150610c1f565b869150610c15565b503461027357604036600319011261027357610d7c61395d565b6001600160a01b0316815260066020526040812080546024359290831015610273576020610daa8484613d2d565b90549060031b1c604051908152f35b5034610273576020366003190112610273576040906001600160a01b03610dde61395d565b16815260208190522080546001600160a01b0316610e1b610e0160018401613c16565b92600260018060a01b039101541660405193849384613cf7565b0390f35b5034610273576020366003190112610273576004356001600160401b038111610549576004610e5360ff923690830161393f565b602060405191610e7c6103498251948481818601978089835e8101600281520301902054613bde565b604051928391518091835e81016002815203019020015416906004821015610eaa5760208260405190158152f35b634e487b7160e01b81526021600452602490fd5b503461027357602036600319011261027357600435906001600160401b038211610273576020610f888180610ef6366004880161393f565b604051928184925191829101835e81016002815203019020610f1781613c16565b9060018060a01b0360018201541690610f3260038201613c16565b60ff6004830154169360088301546009840154600a85015491610fa3610f9860018060a01b03600b8901541695600c89015497600e600d8b01549a01549a6040519e8f9e8f946101608652610160860190613989565b9301528c820360408e0152613989565b9860608b0190613bbd565b608089015260a088015260c087015260e08601526101008501526101208401526101408301520390f35b50346102735780600319360112610273576020600754604051908152f35b503461027357806003193601126102735750610e1b60405161100e6040826138cb565b60058152640352e302e360dc1b6020820152604051918291602083526020830190613989565b50346102735760208061104636613cb6565b9290604051928184925191829101835e810160058152030190209060018060a01b03165f52602052602060405f2054604051908152f35b50346102735760203660031901126102735760209060ff906040906001600160a01b036110a861395d565b168152600184522054166040519015158152f35b5034610273576020366003190112610273576004356001600160401b038111610549576110ed90369060040161393f565b6110f5614546565b604051602081835180838601835e8101600281520301902061111a6103498254613bde565b60018101546001600160a01b031633036112cb57600481019160ff83541660048110156112b757600161114d91146140e2565b600982019184835493611161851515614128565b60088301611170868254614168565b9055600e8301611181868254614168565b90555561119083600854614168565b600855600a810193845460078301541115611285575b50600a5485906001600160a01b0316803b1561054957816040518092635358b04b60e11b8252602060048301528183816111e3602482018b613989565b03925af18015610b1257611270575b5050600b015492546001600160a01b03909316929061121090613fb8565b9060405192835260208301527fa71f1661a883ae6cc97d4b6c49515c53bc3ad70681a1cdf669785aca9356ee2760403393a45f5160206148c95f395f51905f526020600854604051908152a160015f5160206149e95f395f51905f525580f35b8161127a916138cb565b61087657845f6111f2565b805460ff1916600217905561129982613fb8565b5f5160206149095f395f51905f52602060405160028152a25f6111a6565b634e487b7160e01b85526021600452602485fd5b60405162461bcd60e51b815260206004820152602260248201527f4f6e6c79206a6f622067697665722063616e2072656c65617365207061796d656044820152611b9d60f21b6064820152608490fd5b5034610273578060031936011261027357600b546040516001600160a01b039091168152602090f35b50346102735761135336613cb6565b61135b614546565b338352600160205260ff6040842054166115e75761137b82511515613d9b565b6020916040519161138c84846138cb565b8483526040519261139c8461384a565b338085528585018481526001600160a01b03848116604080890182815260608a01968752948b528a8a528a20975188546001600160a01b03191692169190911787559051909560039290916113f49060018401613e4b565b516002820180546001600160a01b0319166001600160a01b039290921691909117905591518051929190910190600160401b83116115d3578690825484845580851061154b575b509188528688208894939285928991015b8484106115245750503385525050600180875260408420805460ff1916909117905550600a546001600160a01b0316803b156105585760405163d888cc2760e01b815291839183918290849082906114a9908a3360048501613cf7565b03925af18015610b125761150f575b50507f5874afb0d71e1f97e546fc6b15493e51e5ccbefa591556f8c6a80c8c5151a84f916114f160405192604084526040840190613989565b938201528033930390a260015f5160206149e95f395f51905f525580f35b81611519916138cb565b6105ff57835f6114b8565b6001929394959650908161153a84935186613e4b565b01920192019091878995949361144c565b838a528480848c20019103908a5b82811061156757505061143b565b81929394508b81600193018c61157d8254613bde565b80611592575b50505050019089939291611559565b601f811186146115a9575050555b8b5f8c81611583565b8284529083206115c491601f0160051c5f1901908601613de3565b808252818d81209155556115a0565b634e487b7160e01b88526041600452602488fd5b60405162461bcd60e51b815260206004820152601660248201527550726f66696c6520616c72656164792065786973747360501b6044820152606490fd5b50346102735760409060208061163a36613b0d565b92908551928184925191829101835e81016003815203019020908252602052208054610e1b61166b60018401613c16565b92611685600360018060a01b036002840154169201613c16565b6116a16040519586958652608060208701526080860190613989565b9160408501528382036060850152613989565b50346102735780600319360112610273575f5160206148e95f395f51905f52546040516001600160a01b039091168152602090f35b503461027357602036600319011261027357600435906001600160401b03821161027357602060ff600461171f3686830161393f565b83604051916117476103498251948481818601978089835e8101600281520301902054613bde565b604051928391518091835e8101600281520301902001541661176c6040518092613bbd565bf35b5034610273576060366003190112610273576004356001600160401b0381116105495761179f90369060040161393f565b6117a7613973565b604435906117b3614546565b604051835190602081818701938085835e810160028152030190206117db6103498254613bde565b60ff60048201541660048110156105a75760018114908115611ae5575b5015611aaa57600184101580611a9f575b15611a655760405160208187518086835e8101600581520301902060018060a01b0384165f5260205260405f2054611a305760018060a01b036001820154168033149182611a16575b82156119e4575b5050156119a6576020604051809286518091835e8101600581520301902060018060a01b0382165f526020528160405f205560018060a01b031691828452600660205260408420805490600160401b82101561199257906118bf91600182018155613d2d565b81545f1960039290921b91821b19169084901b179055600a5484906001600160a01b0316803b1561054957816040518092633511d4c560e11b825233600483015260806024830152818381611917608482018a613989565b8b60448301528a606483015203925af18015610b125761197d575b505061193d90613fb8565b6040519182527f210dac24c32efa80ef08f803d73e7033bee07555af4a95a00e79a488121b0bd660203393a460015f5160206149e95f395f51905f525580f35b81611987916138cb565b6105ff57835f611932565b634e487b7160e01b86526041600452602486fd5b60405162461bcd60e51b81526020600482015260166024820152754e6f7420617574686f72697a656420746f207261746560501b6044820152606490fd5b600b01546001600160a01b03163314915081611a03575b505f80611859565b6001600160a01b0384161490505f6119fb565b600b8101546001600160a01b038681169116149250611852565b60405162461bcd60e51b815260206004820152600d60248201526c105b1c9958591e481c985d1959609a1b6044820152606490fd5b60405162461bcd60e51b8152602060048201526012602482015271526174696e67206d75737420626520312d3560701b6044820152606490fd5b506005841115611809565b60405162461bcd60e51b8152602060048201526013602482015272129bd8881b5d5cdd081899481cdd185c9d1959606a1b6044820152606490fd5b60029150145f6117f8565b5034610273576020366003190112610273576020611b14611b0f61395d565b614367565b604051908152f35b5034610273576020366003190112610273576004356001600160401b03811161054957611b4d90369060040161393f565b816101c0604051611b5d816138af565b6060815282602082015260606040820152606080820152826080820152606060a0820152606060c0820152606060e08201528261010082015282610120820152826101408201528261016082015282610180820152826101a08201520152602060405191611be46103498251948481818601978089835e8101600281520301902054613bde565b604051928391518091835e8101600281520301902060405191611c06836138af565b611c0f82613c16565b835260018060a01b03600183015416906020840191825260028301926040518085602082975493848152019085526020852092855b818110611e62575050611c59925003856138cb565b60408501938452611c6c60038201613c16565b926060860193845260ff60048301541693608087019460048110156112b7578552909290611c9c60058401613fd4565b60a0880190815296611cb0600685016142fb565b60c0820190815297611cc4600786016142fb565b9860e08301998a5260088601549761010084019889526009870154926101208501938452600a880154946101408101958652600160a01b60019003600b8a015416966101608201978852600c8a0154986101808301998a52600d8b01549a6101a084019b8c52600e01549b6101c084019c8d526040519e8f946020865251602086016101e090526102008601611d5991613989565b91516001600160a01b0316604086015251848203601f1901606090950194909452835180825260209182019491909101915b818110611e43575050508c9d938d611df094611dca611dbe611e049996611ddd9651601f19868303016080870152613989565b935160a0840190613bbd565b519060c0601f19828503019101526139ad565b90518c8203601f190160e08e0152613b3e565b90518a8203601f19016101008c0152613b3e565b96516101208901525161014088015251610160870152516001600160a01b0316610180860152516101a0850152516101c0840152516101e08301520390f35b82516001600160a01b0316855260209485019490920191600101611d8b565b84546001600160a01b0316835260019485019489945060209093019201611c44565b503461027357602036600319011261027357611e9e61395d565b611ea661457e565b6001600160a01b0316611eba811515614029565b600a80546001600160a01b031916821790557f8ab673704932cb2fefd0b419683fd655475837529cdce24fbecad2c8f80672e08280a280f35b5034610273578060031936011261027357611f0c61457e565b5f5160206148e95f395f51905f5280546001600160a01b0319811690915581906001600160a01b03165f5160206149a95f395f51905f528280a380f35b50346102735760a036600319011261027357611f6361395d565b6024356001600160401b03811161055857611f8290369060040161393f565b906044356001600160401b0381116105ff57611fa2903690600401613a32565b926064356001600160401b03811161054957611fc2903690600401613ab0565b93611fcb613baa565b92611fd4614546565b6001600160a01b0316801561244657611fef825115156141a2565b611ffc82518751146141ed565b829383945b87518610156120295761202160019161201a888b61422b565b5190614168565b950194612001565b60209495509561203b8897151561423f565b6120444661462f565b956120a3600161206161205860075461427f565b8060075561462f565b88604051998a92818085019d8e815192839201905e840190602d60f81b83830152805192839101602183015e010184838201520301601f1981018852876138cb565b6040516020818851808b835e81016002815203019020916120c48784613e4b565b6001830180546001600160a01b031916331790556120e58160038501613e4b565b60048301805460ff19166001908117909155600b840180546001600160a01b03191687179055600c840155600a830182905560078301966006840195835b8b895182101561219f579061219960019261217e83612177818f8f6121729061214c848461422b565b5190612158858a61422b565b516040519261216684613879565b8352602083015261428d565b61422b565b519261422b565b516040519161218c83613879565b825260208201528c61428d565b01612123565b9895969750508960405160208185518085835e81016004815203019020906121c7825461427f565b8092556020604051809286518091835e8101600381520301902081865260205260408520978189556121fc8460018b01613e4b565b6002890180546001600160a01b0319168417905560038901805461221f90613bde565b601f811161241a575b50604181558652602086205f5160206149c95f395f51905f529055969760040196855b875181101561228a57806122848c612269836121776001968e61422b565b516040519161227783613879565b825260208201528b61428d565b0161224b565b5089878a825115612406579082916122af600d60208c9796015192610471848c6145b1565b9055600a546001600160a01b0316803b15610876578785888b9663ffffffff612343849861233161230d9961231f6040519d8e9c8d9b8c9a636009b51f60e01b8c523360048d015260248c015260e060448c015260e48b0190613989565b8981036003190160648b015290613989565b878103600319016084890152906139ad565b8581036003190160a4870152906142c8565b911660c483015203925af18015610b12576123f1575b50506105089361236884613fb8565b5f5160206149895f395f51905f52604051602081528061238d33956020830190613989565b0390a3818161239b85613fb8565b5f5160206149495f395f51905f526060604051602081526020808201525f5160206149c95f395f51905f526040820152a46123d583613fb8565b5f5160206149295f395f51905f526020604051888152a4613fb8565b816123fb916138cb565b610876578486612359565b634e487b7160e01b89526032600452602489fd5b6020811115612228578188526020882061244091601f0160051c5f190190600101613de3565b8b612228565b60405162461bcd60e51b8152602060048201526019602482015278496e76616c6964206a6f622074616b6572206164647265737360381b6044820152606490fd5b50346102735761249636613b0d565b606060806040949394516124a981613894565b84815282602082015284604082015282808201520152604051835190602081818701938085835e810160038152030190208284526020526040832054156125cd5760206040948551928391518091835e810160038152030190209082526020522060405161251681613894565b81548152610e1b61252960018401613c16565b6020830190815260028401546001600160a01b0316604084019081529093906125ba9061256b600461255d60038601613c16565b9460608801958652016142fb565b9260808601938452612598604051978897602089525160208901525160a0604089015260c0880190613989565b91516001600160a01b0316606087015251858203601f19016080870152613989565b9051838203601f190160a0850152613b3e565b60405162461bcd60e51b815260206004820152601a602482015279105c1c1b1a58d85d1a5bdb88191bd95cc81b9bdd08195e1a5cdd60321b6044820152606490fd5b50346102735780600319360112610273577f00000000000000000000000000000000000000000000000000000000000000006001600160a01b031630036126675760206040515f5160206149695f395f51905f528152f35b63703e46dd60e11b8152600490fd5b503461027357806003193601126102735761268f61457e565b6009546040516370a0823160e01b81523060048201526001600160a01b0390911690602081602481855afa90811561054d578391612755575b50801561271e575f5160206148e95f395f51905f525460405163a9059cbb60e01b60208201526001600160a01b0390911660248201526044808201929092529081526102a0916127196064836138cb565b61479c565b60405162461bcd60e51b815260206004820152600f60248201526e4e6f20555344432062616c616e636560881b6044820152606490fd5b90506020813d60201161277f575b81612770602093836138cb565b8101031261055857515f6126c8565b3d9150612763565b5060403660031901126102735761279c61395d565b906024356001600160401b0381116105495736602382011215610549576127cd903690602481600401359101613909565b6001600160a01b037f0000000000000000000000000000000000000000000000000000000000000000163081149081156129b1575b506129a2575f5160206148e95f395f51905f52546001600160a01b03163303612966576040516352d1902d60e01b8152926001600160a01b0381169190602085600481865afa80958596612932575b5061286a57634c9c8ce360e01b84526004839052602484fd5b9091845f5160206149695f395f51905f5281036129205750813b1561290e575f5160206149695f395f51905f5280546001600160a01b031916821790557fbc7cd75a20ee27fd9adebab32041f755214dbc6bffa90cc0225b39da2e5c2d3b8480a281518390156128f457808360206128f095519101845af46128ea61483b565b9161486a565b5080f35b505050346128ff5780f35b63b398979f60e01b8152600490fd5b634c9c8ce360e01b8452600452602483fd5b632a87526960e21b8552600452602484fd5b9095506020813d60201161295e575b8161294e602093836138cb565b810103126108765751945f612851565b3d9150612941565b60405162461bcd60e51b8152602060048201526014602482015273556e617574686f72697a6564207570677261646560601b6044820152606490fd5b63703e46dd60e11b8252600482fd5b5f5160206149695f395f51905f52546001600160a01b0316141590505f612802565b5034610273576060366003190112610273576004356001600160401b03811161054957612a0490369060040161393f565b906024356001600160401b03811161054957612a24903690600401613a32565b6044356001600160401b03811161055857612a43903690600401613ab0565b92612a4c614546565b612a58825115156141a2565b612a6582518551146141ed565b8291825b8551841015612a8a57612a8260019161201a868961422b565b930192612a69565b9160209185612a9b8895151561423f565b612aa44661462f565b612af86001612ab761205860075461427f565b876040519889928180850197805191829101895e840190602d60f81b83830152805192839101602183015e010185838201520301601f1981018752866138cb565b6020604051809287518091835e8101600281520301902092612b1a8585613e4b565b6001840180546001600160a01b03191633179055612b3b8160038601613e4b565b6004840160ff1981541690556006829401935b8351811015612b935780612b8d612b676001938761422b565b51612b72838b61422b565b5160405191612b8083613879565b825260208201528761428d565b01612b4e565b50600a54859083906001600160a01b03168886823b156105ff57612bfd92612be58587612c218296612c0f8c976040519a8b998a9889976321587b2960e11b895260a060048a015260a4890190613989565b33602489015287810360031901604489015290613989565b858103600319016064870152906139ad565b838103600319016084850152906142c8565b03925af18015610b1257612c97575b5050612c6c91612c3f82613fb8565b5f5160206149895f395f51905f526040516020815280612c6433956020830190613989565b0390a3613fb8565b5f5160206149095f395f51905f526020604051848152a260015f5160206149e95f395f51905f525580f35b81612ca1916138cb565b610558578284612c30565b5034610273578060031936011261027357612cc561457e565b478015612d02575f5160206148e95f395f51905f525482918291829182916001600160a01b031682f115612cf65780f35b604051903d90823e3d90fd5b60405162461bcd60e51b815260206004820152600a6024820152694e6f2062616c616e636560b01b6044820152606490fd5b50346102735780600319360112610273576020600854604051908152f35b5034610273576020366003190112610273576004356001600160401b03811161054957612d8390369060040161393f565b612d8b614546565b604051602081835180838601835e8101600281520301902090612db16103498354613bde565b612dc860018060a01b0360018401541633146140a5565b60ff6004830154166004811015612f58576001612de591146140e2565b60098201918254612f1357600a810190815460078201612e0781548310613f31565b60018201808311612eff57600d9392600192612e24928755614189565b5001548095612e3382876145b1565b5501612e40848254614168565b9055600a5484906001600160a01b0316803b156105495781604051809263f4f5d3c760e01b825233600483015260606024830152818381612e84606482018b613989565b8b604483015203925af18015610b1257612eea575b50507fb9422fa51238140c2297fbab91a9525e85400eea5c9666d16562298ea0e0981c91612eca6040925491613fb8565b9382519182526020820152a260015f5160206149e95f395f51905f525580f35b81612ef4916138cb565b6105ff57835f612e99565b634e487b7160e01b88526011600452602488fd5b60405162461bcd60e51b815260206004820152601d60248201527f50726576696f7573207061796d656e74206e6f742072656c65617365640000006044820152606490fd5b634e487b7160e01b84526021600452602484fd5b5034610273576020366003190112610273576004356001600160401b03811161054957612f9d90369060040161393f565b612fa5614546565b604051602081835180838601835e81016002815203019020612fca6103498254613bde565b612fe160018060a01b0360018301541633146140a5565b600481019060ff82541660048110156112b757600161300091146140e2565b6009810190815490613013821515614128565b600a81019384549061302c600784019283541015613f31565b6008830161303b858254614168565b9055600e830161304c858254614168565b905561305a84600854614168565b600855855490600182018092116131d0578187558254899283911061319957505085545f1981019291508211612eff57613099600d9392600192614189565b50015480946130a882896145b1565b55016130b5838254614168565b90555b600a5485906001600160a01b0316803b156105495781604051809263024ef77f60e31b8252336004830152608060248301528183816130fa608482018d613989565b8960448301528a606483015203925af18015610b1257613184575b50506131536131467f881f9575e6bc96f2ebd076de5584e663c5e7489d82f21f00777994a223cfb061945495613fb8565b9460405193849384613a05565b0390a25f5160206148c95f395f51905f526020600854604051908152a160015f5160206149e95f395f51905f525580f35b8161318e916138cb565b61087657845f613115565b925092509355600260ff198254161790556131b384613fb8565b5f5160206149095f395f51905f52602060405160028152a26130b8565b634e487b7160e01b89526011600452602489fd5b50346102735780600319360112610273576009546040516001600160a01b039091168152602090f35b5034610273576020366003190112610273576004356001600160401b0381116105495760206132418192369060040161393f565b604051928184925191829101835e810160028152030190206132666103498254613bde565b600e600d820154910154918282039082821161328d5750610e1b9060405193849384613a05565b634e487b7160e01b81526011600452602490fd5b5034610273576020366003190112610273576004356001600160401b038111610549576132d290369060040161393f565b6132da614546565b33825260016020526132f260ff604084205416613d56565b8051156133bb57338252816020526133108160036040852001613f78565b600a5482906001600160a01b0316803b1561054957816040518092633c8f5e0160e01b8252818381613346893360048401613f0f565b03925af18015610b12576133a6575b50507fcc18228e480194b6eb176cebd651be35a4eb3236a2461b112a3e89ea1b1c40dd604051602081528061338f33946020830190613989565b0390a260015f5160206149e95f395f51905f525580f35b816133b0916138cb565b61054957815f613355565b60405162461bcd60e51b815260206004820152601e60248201527f506f7274666f6c696f20686173682063616e6e6f7420626520656d70747900006044820152606490fd5b50346102735760203660031901126102735761341a61395d565b61342261457e565b6001600160a01b0316613436811515614029565b600980546001600160a01b03191691909117905580f35b50346102735760203660031901126102735760409061346a61395d565b60608084516134788161384a565b8481528160208201528486820152015260018060a01b031680825260016020526134a760ff8484205416613d56565b815280602052206040516134ba8161384a565b81546001600160a01b03168152610e1b6134d660018401613c16565b6020830190815260028401546001600160a01b031660408401908152909361350090600301613fd4565b606084019081526135356040519586956020875260018060a01b039051166020870152516080604087015260a0860190613989565b91516001600160a01b0316606085015251838203601f190160808501526139ad565b5034610273578060031936011261027357600a546040516001600160a01b039091168152602090f35b5034610273576040366003190112610273576004356001600160401b038111610549576135b190369060040161393f565b6024356001600160401b038111610558576135d090369060040161393f565b6135d8614546565b60405161361b600a845192602081818801958087835e810160028152030190200154600760405160208188518088835e8101600281520301902001541015613f31565b61363d82600560405160208188518088835e8101600281520301902001613f78565b600a5484906001600160a01b0316803b156105495781604051809263ba24596360e01b825233600483015260606024830152818381613694613682606483018d613989565b8281036003190160448401528b613989565b03925af18015610b1257613721575b50506136eb600a7f2de280d2b7315f889cbea3ddc5c9ebfb1773caba023a73cc8fa272e9b28585c2926020604051809288518091835e81016002815203019020015493613fb8565b9161370160405191604083526040830190613989565b9360208201528033940390a360015f5160206149e95f395f51905f525580f35b8161372b916138cb565b6105ff57835f6136a3565b5034613846576020366003190112613846576004356001600160401b0381116138465761376790369060040161393f565b61376f614546565b335f52600160205261378760ff60405f205416613d56565b61379381511515613d9b565b335f525f6020526137aa81600160405f2001613e4b565b600a546001600160a01b0316803b15613846575f60405180926318ccd60160e11b82528183816137de883360048401613f0f565b03925af1801561383b57613826575b507fdd635a4cd84864e37e4479dbfc2ec667acfa473c83c8422a8ac9d9d07599b01c604051602081528061338f33946020830190613989565b6138339192505f906138cb565b5f905f6137ed565b6040513d5f823e3d90fd5b5f80fd5b608081019081106001600160401b0382111761386557604052565b634e487b7160e01b5f52604160045260245ffd5b604081019081106001600160401b0382111761386557604052565b60a081019081106001600160401b0382111761386557604052565b6101e081019081106001600160401b0382111761386557604052565b601f909101601f19168101906001600160401b0382119082101761386557604052565b6001600160401b03811161386557601f01601f191660200190565b929192613915826138ee565b9161392360405193846138cb565b829481845281830111613846578281602093845f960137010152565b9080601f830112156138465781602061395a93359101613909565b90565b600435906001600160a01b038216820361384657565b602435906001600160a01b038216820361384657565b805180835260209291819084018484015e5f828201840152601f01601f1916010190565b9080602083519182815201916020808360051b8301019401925f915b8383106139d857505050505090565b90919293946020806139f6600193601f198682030187528951613989565b970193019301919392906139c9565b6040919493926060820195825260208201520152565b6001600160401b0381116138655760051b60200190565b9080601f83011215613846578135613a4981613a1b565b92613a5760405194856138cb565b81845260208085019260051b820101918383116138465760208201905b838210613a8357505050505090565b81356001600160401b03811161384657602091613aa58784809488010161393f565b815201910190613a74565b9080601f83011215613846578135613ac781613a1b565b92613ad560405194856138cb565b81845260208085019260051b82010192831161384657602001905b828210613afd5750505090565b8135815260209182019101613af0565b604060031982011261384657600435906001600160401b03821161384657613b379160040161393f565b9060243590565b9080602083519182815201916020808360051b8301019401925f915b838310613b6957505050505090565b9091929394602080600192601f198582030186528851908280613b958451604085526040850190613989565b93015191015297019301930191939290613b5a565b6084359063ffffffff8216820361384657565b906004821015613bca5752565b634e487b7160e01b5f52602160045260245ffd5b90600182811c92168015613c0c575b6020831014613bf857565b634e487b7160e01b5f52602260045260245ffd5b91607f1691613bed565b9060405191825f825492613c2984613bde565b8084529360018116908115613c945750600114613c50575b50613c4e925003836138cb565b565b90505f9291925260205f20905f915b818310613c78575050906020613c4e928201015f613c41565b6020919350806001915483858901015201910190918492613c5f565b905060209250613c4e94915060ff191682840152151560051b8201015f613c41565b604060031982011261384657600435906001600160401b03821161384657613ce09160040161393f565b906024356001600160a01b03811681036138465790565b91613d1d9060409295949560018060a01b03168452606060208501526060840190613989565b6001600160a01b03909416910152565b8054821015613d42575f5260205f2001905f90565b634e487b7160e01b5f52603260045260245ffd5b15613d5d57565b60405162461bcd60e51b8152602060048201526016602482015275141c9bd99a5b1948191bd95cc81b9bdd08195e1a5cdd60521b6044820152606490fd5b15613da257565b60405162461bcd60e51b81526020600482015260196024820152784950465320686173682063616e6e6f7420626520656d70747960381b6044820152606490fd5b5f5b828110613df157505050565b5f82820155600101613de5565b91601f8211613e0c57505050565b808211613e1857505050565b613c4e925f5260205f20916020601f830160051c9210613e43575b601f82910160051c039101613de3565b5f9150613e33565b81519192916001600160401b03811161386557613e7281613e6c8454613bde565b84613dfe565b6020601f8211600114613eb1578190613ea29394955f92613ea6575b50508160011b915f199060031b1c19161790565b9055565b015190505f80613e8e565b601f19821690835f52805f20915f5b818110613ef757509583600195969710613edf575b505050811b019055565b01515f1960f88460031b161c191690555f8080613ed5565b9192602060018192868b015181550194019201613ec0565b6001600160a01b03909116815260406020820181905261395a92910190613989565b15613f3857565b60405162461bcd60e51b8152602060048201526018602482015277105b1b081b5a5b195cdd1bdb995cc818dbdb5c1b195d195960421b6044820152606490fd5b8054600160401b81101561386557613f9591600182018155613d2d565b919091613fa557613c4e91613e4b565b634e487b7160e01b5f525f60045260245ffd5b602090604051918183925191829101835e81015f815203902090565b908154613fe081613a1b565b92613fee60405194856138cb565b81845260208401905f5260205f205f915b83831061400c5750505050565b60016020819261401b85613c16565b815201920192019190613fff565b1561403057565b60405162461bcd60e51b815260206004820152600c60248201526b5a65726f206164647265737360a01b6044820152606490fd5b1561406b57565b60405162461bcd60e51b8152602060048201526012602482015271129bd888191bd95cc81b9bdd08195e1a5cdd60721b6044820152606490fd5b156140ac57565b60405162461bcd60e51b815260206004820152600e60248201526d27b7363c903537b11033b4bb32b960911b6044820152606490fd5b156140e957565b60405162461bcd60e51b81526020600482015260176024820152764a6f62206d75737420626520696e2070726f677265737360481b6044820152606490fd5b1561412f57565b60405162461bcd60e51b8152602060048201526011602482015270139bc81c185e5b595b9d081b1bd8dad959607a1b6044820152606490fd5b9190820180921161417557565b634e487b7160e01b5f52601160045260245ffd5b8054821015613d42575f5260205f209060011b01905f90565b156141a957565b606460405162461bcd60e51b815260206004820152602060248201527f4d7573742068617665206174206c65617374206f6e65206d696c6573746f6e656044820152fd5b156141f457565b60405162461bcd60e51b815260206004820152600f60248201526e098cadccee8d040dad2e6dac2e8c6d608b1b6044820152606490fd5b8051821015613d425760209160051b010190565b1561424657565b60405162461bcd60e51b81526020600482015260116024820152700546f74616c206d757374206265203e203607c1b6044820152606490fd5b5f1981146141755760010190565b8054600160401b811015613865576142aa91600182018155614189565b919091613fa5576020816142c16001935185613e4b565b0151910155565b90602080835192838152019201905f5b8181106142e55750505090565b82518452602093840193909201916001016142d8565b90815461430781613a1b565b9261431560405194856138cb565b81845260208401905f5260205f205f915b8383106143335750505050565b6002602060019260405161434681613879565b61434f86613c16565b81528486015483820152815201920192019190614326565b60018060a01b03165f52600660205260405f20604051808260208294549384815201905f5260205f20925f5b8181106143fb5750506143a8925003826138cb565b8051156143f6575f90815b81518310156143d4576143cc60019161201a858561422b565b9201916143b3565b9150519081156143e2570490565b634e487b7160e01b5f52601260045260245ffd5b505f90565b8454835260019485019486945060209093019201614393565b9190918281146144e3576144288354613bde565b6001600160401b0381116138655761444481613e6c8454613bde565b5f93601f821160011461447e57613ea292939482915f926144735750508160011b915f199060031b1c19161790565b015490505f80613e8e565b601f198216905f5260205f2094835f5260205f20915f5b8181106144cb575095836001959697106144b357505050811b019055565b01545f1960f88460031b161c191690555f8080613ed5565b9192600180602092868b015481550194019201614495565b509050565b6001600160a01b03168015614533575f5160206148e95f395f51905f5280546001600160a01b0319811683179091556001600160a01b03165f5160206149a95f395f51905f525f80a3565b631e4fbdf760e01b5f525f60045260245ffd5b60025f5160206149e95f395f51905f52541461456f5760025f5160206149e95f395f51905f5255565b633ee5aeb560e01b5f5260045ffd5b5f5160206148e95f395f51905f52546001600160a01b0316330361459e57565b63118cdaa760e01b5f523360045260245ffd5b600954600a546040516323b872dd60e01b60208201523360248201526001600160a01b0391821660448201526064808201869052815261460193926145fc92166127196084836138cb565b613fb8565b6040519182527f22f34457537e11fadd17cb52d1dbfbbc88b5d212fb353a45b3af2f33d29b739560203393a3565b5f908072184f03e93ff9f4daa797ed6e38ed64bf6a1f0160401b811015614779575b600a906904ee2d6d415b85acef8160201b81101561475d575b662386f26fc10000811015614749575b6305f5e100811015614738575b612710811015614729575b606481101561471b575b1015614710575b600a602160018401936146b5856138ee565b946146c360405196876138cb565b8086526146d2601f19916138ee565b013660208701378401015b5f1901916f181899199a1a9b1b9c1cb0b131b232b360811b8282061a835304801561470b57600a90916146dd565b505090565b6001909101906146a3565b60646002910493019261469c565b61271060049104930192614692565b6305f5e10060089104930192614687565b662386f26fc100006010910493019261467a565b602093909301926904ee2d6d415b85acef8160201b900461466a565b506040915072184f03e93ff9f4daa797ed6e38ed64bf6a1f0160401b8104614651565b5f806147c49260018060a01b03169360208151910182865af16147bd61483b565b908361486a565b80519081151591826147ec575b50506147da5750565b635274afe760e01b5f5260045260245ffd5b81925090602091810103126138465760200151801590811503613846575f806147d1565b60ff5f516020614a095f395f51905f525460401c161561482c57565b631afcd79f60e31b5f5260045ffd5b3d15614865573d9061484c826138ee565b9161485a60405193846138cb565b82523d5f602084013e565b606090565b9061488e575080511561487f57805190602001fd5b630a12f52160e11b5f5260045ffd5b815115806148bf575b61489f575090565b639996b31560e01b5f9081526001600160a01b0391909116600452602490fd5b50803b1561489756fee9504a94451f4126ae0c712985621221e857e1235516c8c6fd40d7a24bd6a01a9016d09d72d40fdae2fd8ceac6b6234c7706214fd39c1cd1e609a0528c19930090048e2f7021decb3bccdc9c96fb747f7c82ca94b921ff7c7cc130daa897a6ddbeb163b9824b55e200a056e0082832866e8d8f931ba431b29b8919466a05faa5264fe7e90ee05d618ec81396b56ead08e622a37d2696239d6029610e48c3a86e360894a13ba1a3210667c828492db98dca3e2076cc3735a920a3ca505d382bbcc7649f14606d56993fd676bf6b21baf658647cc2921deec0cde7a0f2f8031c8d8be0079c531659141344cd1fd0a4f28419497f9722a3daafe3b4186f6b6457e06469726563742d636f6e74726163742d6175746f2d6170706c69636174696f6e9b779b17422d0df92223018b32b4d1fa46e071723d6817e2486d003becc55f00f0c57e16840df040f15088dc2f81fe391c3923bec73e23a9662efc9c229c6a00a2646970667358221220c53e1ba402f7c46af24c7e07eda569af2458d9069c9ab516c6d1011cc04c800264736f6c63430008210033f0c57e16840df040f15088dc2f81fe391c3923bec73e23a9662efc9c229c6a00","linkReferences":{}},"methodIdentifiers":{"UPGRADE_INTERFACE_VERSION()":"ad3cb1cc","addPortfolio(string)":"0f6b8751","applyToJob(string,string,string[],uint256[],uint32)":"c9ef53af","athenaClientContract()":"a53ae226","createProfile(string,address)":"916100a8","emergencyWithdrawUSDC()":"4fef1488","getApplication(string,uint256)":"59e774a4","getEscrowBalance(string)":"11b5a16d","getJob(string)":"77e32407","getJobApplicationCount(string)":"eb7d901b","getJobCount()":"b02b4a2f","getJobStatus(string)":"8c1e161f","getProfile(address)":"0f53a470","getRating(address)":"80fc9c0e","getTotalPlatformPayments()":"3a028980","hasProfile(address)":"a787c80b","initialize(address,address,address)":"c0c53b8b","isJobOpen(string)":"b58766ba","jobApplicationCounter(string)":"f4653c0b","jobApplications(string,uint256)":"9000a87f","jobCounter()":"50355d76","jobRatings(string,address)":"a8efdfe8","jobs(string)":"b05e6f5a","lockNextMilestone(string)":"38f34ca1","nowjc()":"0d2e0c59","owner()":"8da5cb5b","postJob(string,string[],uint256[])":"4b18d3c2","profiles(address)":"bbe15627","proxiableUUID()":"52d1902d","rate(string,address,uint256)":"8817f333","releaseAndLockNext(string)":"31760114","releasePayment(string)":"a6b16096","renounceOwnership()":"715018a6","resolveDispute(string,bool)":"ce422626","setAthenaClientContract(address)":"ddd794c6","setNOWJC(address)":"73829d85","setUSDCToken(address)":"0f5a9d01","startDirectContract(address,string,string[],uint256[],uint32)":"6caa5397","startJob(string,uint256,bool)":"dec8bed4","submitWork(string,string)":"0b150296","totalPlatformPayments()":"06d1ab4b","transferOwnership(address)":"f2fde38b","updateProfile(string)":"009299e3","upgradeToAndCall(address,bytes)":"4f1ef286","usdcToken()":"11eac855","userRatings(address,uint256)":"be001f6f","withdraw()":"3ccfd60b"},"id":95}