{"abi":[{"type":"constructor","inputs":[],"stateMutability":"nonpayable"},{"type":"function","name":"UPGRADE_INTERFACE_VERSION","inputs":[],"outputs":[{"name":"","type":"string","internalType":"string"}],"stateMutability":"view"},{"type":"function","name":"accumulatedCommission","inputs":[],"outputs":[{"name":"","type":"uint256","internalType":"uint256"}],"stateMutability":"view"},{"type":"function","name":"addAuthorizedContract","inputs":[{"name":"contractAddress","type":"address","internalType":"address"}],"outputs":[],"stateMutability":"nonpayable"},{"type":"function","name":"admins","inputs":[{"name":"","type":"address","internalType":"address"}],"outputs":[{"name":"","type":"bool","internalType":"bool"}],"stateMutability":"view"},{"type":"function","name":"applyToJob","inputs":[{"name":"_applicant","type":"address","internalType":"address"},{"name":"_jobId","type":"string","internalType":"string"},{"name":"_applicationHash","type":"string","internalType":"string"},{"name":"_descriptions","type":"string[]","internalType":"string[]"},{"name":"_amounts","type":"uint256[]","internalType":"uint256[]"},{"name":"_preferredChainDomain","type":"uint32","internalType":"uint32"}],"outputs":[],"stateMutability":"nonpayable"},{"type":"function","name":"authorizedContracts","inputs":[{"name":"","type":"address","internalType":"address"}],"outputs":[{"name":"","type":"bool","internalType":"bool"}],"stateMutability":"view"},{"type":"function","name":"bridge","inputs":[],"outputs":[{"name":"","type":"address","internalType":"address"}],"stateMutability":"view"},{"type":"function","name":"calculateCommission","inputs":[{"name":"amount","type":"uint256","internalType":"uint256"}],"outputs":[{"name":"","type":"uint256","internalType":"uint256"}],"stateMutability":"view"},{"type":"function","name":"calculateTokensForAmount","inputs":[{"name":"","type":"address","internalType":"address"},{"name":"additionalAmount","type":"uint256","internalType":"uint256"}],"outputs":[{"name":"","type":"uint256","internalType":"uint256"}],"stateMutability":"view"},{"type":"function","name":"cctpReceiver","inputs":[],"outputs":[{"name":"","type":"address","internalType":"address"}],"stateMutability":"view"},{"type":"function","name":"cctpTransceiver","inputs":[],"outputs":[{"name":"","type":"address","internalType":"address"}],"stateMutability":"view"},{"type":"function","name":"commissionPercentage","inputs":[],"outputs":[{"name":"","type":"uint256","internalType":"uint256"}],"stateMutability":"view"},{"type":"function","name":"genesis","inputs":[],"outputs":[{"name":"","type":"address","internalType":"contract IOpenworkGenesis"}],"stateMutability":"view"},{"type":"function","name":"getJob","inputs":[{"name":"_jobId","type":"string","internalType":"string"}],"outputs":[{"name":"","type":"tuple","internalType":"struct IOpenworkGenesis.Job","components":[{"name":"id","type":"string","internalType":"string"},{"name":"jobGiver","type":"address","internalType":"address"},{"name":"applicants","type":"address[]","internalType":"address[]"},{"name":"jobDetailHash","type":"string","internalType":"string"},{"name":"status","type":"uint8","internalType":"enum IOpenworkGenesis.JobStatus"},{"name":"workSubmissions","type":"string[]","internalType":"string[]"},{"name":"milestonePayments","type":"tuple[]","internalType":"struct IOpenworkGenesis.MilestonePayment[]","components":[{"name":"descriptionHash","type":"string","internalType":"string"},{"name":"amount","type":"uint256","internalType":"uint256"}]},{"name":"finalMilestones","type":"tuple[]","internalType":"struct IOpenworkGenesis.MilestonePayment[]","components":[{"name":"descriptionHash","type":"string","internalType":"string"},{"name":"amount","type":"uint256","internalType":"uint256"}]},{"name":"totalPaid","type":"uint256","internalType":"uint256"},{"name":"currentMilestone","type":"uint256","internalType":"uint256"},{"name":"selectedApplicant","type":"address","internalType":"address"},{"name":"selectedApplicationId","type":"uint256","internalType":"uint256"}]}],"stateMutability":"view"},{"type":"function","name":"getUserEarnedTokens","inputs":[{"name":"user","type":"address","internalType":"address"}],"outputs":[{"name":"","type":"uint256","internalType":"uint256"}],"stateMutability":"view"},{"type":"function","name":"getUserGovernanceActions","inputs":[{"name":"user","type":"address","internalType":"address"}],"outputs":[{"name":"","type":"uint256","internalType":"uint256"}],"stateMutability":"view"},{"type":"function","name":"getUserGovernanceActionsInBand","inputs":[{"name":"user","type":"address","internalType":"address"},{"name":"band","type":"uint256","internalType":"uint256"}],"outputs":[{"name":"","type":"uint256","internalType":"uint256"}],"stateMutability":"view"},{"type":"function","name":"getUserRewardInfo","inputs":[{"name":"user","type":"address","internalType":"address"}],"outputs":[{"name":"totalTokens","type":"uint256","internalType":"uint256"},{"name":"governanceActions","type":"uint256","internalType":"uint256"}],"stateMutability":"view"},{"type":"function","name":"handleReleasePaymentCrossChain","inputs":[{"name":"_jobGiver","type":"address","internalType":"address"},{"name":"_jobId","type":"string","internalType":"string"},{"name":"_amount","type":"uint256","internalType":"uint256"},{"name":"_targetChainDomain","type":"uint32","internalType":"uint32"},{"name":"_targetRecipient","type":"address","internalType":"address"}],"outputs":[],"stateMutability":"nonpayable"},{"type":"function","name":"handleStartDirectContract","inputs":[{"name":"_jobGiver","type":"address","internalType":"address"},{"name":"_jobTaker","type":"address","internalType":"address"},{"name":"_jobId","type":"string","internalType":"string"},{"name":"_jobDetailHash","type":"string","internalType":"string"},{"name":"_descriptions","type":"string[]","internalType":"string[]"},{"name":"_amounts","type":"uint256[]","internalType":"uint256[]"},{"name":"_jobTakerChainDomain","type":"uint32","internalType":"uint32"}],"outputs":[],"stateMutability":"nonpayable"},{"type":"function","name":"handleUpdateUserClaimData","inputs":[{"name":"user","type":"address","internalType":"address"},{"name":"claimedTokens","type":"uint256","internalType":"uint256"}],"outputs":[],"stateMutability":"nonpayable"},{"type":"function","name":"incrementGovernanceAction","inputs":[{"name":"user","type":"address","internalType":"address"}],"outputs":[],"stateMutability":"nonpayable"},{"type":"function","name":"initialize","inputs":[{"name":"_owner","type":"address","internalType":"address"},{"name":"_bridge","type":"address","internalType":"address"},{"name":"_genesis","type":"address","internalType":"address"},{"name":"_rewardsContract","type":"address","internalType":"address"},{"name":"_usdcToken","type":"address","internalType":"address"},{"name":"_cctpReceiver","type":"address","internalType":"address"}],"outputs":[],"stateMutability":"nonpayable"},{"type":"function","name":"isAuthorizedContract","inputs":[{"name":"contractAddress","type":"address","internalType":"address"}],"outputs":[{"name":"","type":"bool","internalType":"bool"}],"stateMutability":"view"},{"type":"function","name":"jobApplicantChainDomain","inputs":[{"name":"","type":"string","internalType":"string"},{"name":"","type":"address","internalType":"address"}],"outputs":[{"name":"","type":"uint32","internalType":"uint32"}],"stateMutability":"view"},{"type":"function","name":"lockNextMilestone","inputs":[{"name":"","type":"address","internalType":"address"},{"name":"_jobId","type":"string","internalType":"string"},{"name":"_lockedAmount","type":"uint256","internalType":"uint256"}],"outputs":[],"stateMutability":"nonpayable"},{"type":"function","name":"minCommission","inputs":[],"outputs":[{"name":"","type":"uint256","internalType":"uint256"}],"stateMutability":"view"},{"type":"function","name":"nativeAthena","inputs":[],"outputs":[{"name":"","type":"address","internalType":"address"}],"stateMutability":"view"},{"type":"function","name":"nativeDAO","inputs":[],"outputs":[{"name":"","type":"address","internalType":"address"}],"stateMutability":"view"},{"type":"function","name":"owner","inputs":[],"outputs":[{"name":"","type":"address","internalType":"address"}],"stateMutability":"view"},{"type":"function","name":"postJob","inputs":[{"name":"_jobId","type":"string","internalType":"string"},{"name":"_jobGiver","type":"address","internalType":"address"},{"name":"_jobDetailHash","type":"string","internalType":"string"},{"name":"_descriptions","type":"string[]","internalType":"string[]"},{"name":"_amounts","type":"uint256[]","internalType":"uint256[]"}],"outputs":[],"stateMutability":"nonpayable"},{"type":"function","name":"proxiableUUID","inputs":[],"outputs":[{"name":"","type":"bytes32","internalType":"bytes32"}],"stateMutability":"view"},{"type":"function","name":"releaseDisputedFunds","inputs":[{"name":"_recipient","type":"address","internalType":"address"},{"name":"_amount","type":"uint256","internalType":"uint256"},{"name":"_targetChainDomain","type":"uint32","internalType":"uint32"}],"outputs":[],"stateMutability":"nonpayable"},{"type":"function","name":"releasePayment","inputs":[{"name":"_jobGiver","type":"address","internalType":"address"},{"name":"_jobId","type":"string","internalType":"string"},{"name":"_amount","type":"uint256","internalType":"uint256"}],"outputs":[],"stateMutability":"nonpayable"},{"type":"function","name":"releasePaymentAndLockNext","inputs":[{"name":"_jobGiver","type":"address","internalType":"address"},{"name":"_jobId","type":"string","internalType":"string"},{"name":"_releasedAmount","type":"uint256","internalType":"uint256"},{"name":"_lockedAmount","type":"uint256","internalType":"uint256"}],"outputs":[],"stateMutability":"nonpayable"},{"type":"function","name":"removeAuthorizedContract","inputs":[{"name":"contractAddress","type":"address","internalType":"address"}],"outputs":[],"stateMutability":"nonpayable"},{"type":"function","name":"renounceOwnership","inputs":[],"outputs":[],"stateMutability":"nonpayable"},{"type":"function","name":"rewardsContract","inputs":[],"outputs":[{"name":"","type":"address","internalType":"contract IOpenWorkRewards"}],"stateMutability":"view"},{"type":"function","name":"setAdmin","inputs":[{"name":"_admin","type":"address","internalType":"address"},{"name":"_status","type":"bool","internalType":"bool"}],"outputs":[],"stateMutability":"nonpayable"},{"type":"function","name":"setApplicantChainDomain","inputs":[{"name":"_jobId","type":"string","internalType":"string"},{"name":"_applicant","type":"address","internalType":"address"},{"name":"_chainDomain","type":"uint32","internalType":"uint32"}],"outputs":[],"stateMutability":"nonpayable"},{"type":"function","name":"setBridge","inputs":[{"name":"_bridge","type":"address","internalType":"address"}],"outputs":[],"stateMutability":"nonpayable"},{"type":"function","name":"setCCTPReceiver","inputs":[{"name":"_cctpReceiver","type":"address","internalType":"address"}],"outputs":[],"stateMutability":"nonpayable"},{"type":"function","name":"setCCTPTransceiver","inputs":[{"name":"_cctpTransceiver","type":"address","internalType":"address"}],"outputs":[],"stateMutability":"nonpayable"},{"type":"function","name":"setCommissionPercentage","inputs":[{"name":"_percentage","type":"uint256","internalType":"uint256"}],"outputs":[],"stateMutability":"nonpayable"},{"type":"function","name":"setGenesis","inputs":[{"name":"_genesis","type":"address","internalType":"address"}],"outputs":[],"stateMutability":"nonpayable"},{"type":"function","name":"setMinCommission","inputs":[{"name":"_minCommission","type":"uint256","internalType":"uint256"}],"outputs":[],"stateMutability":"nonpayable"},{"type":"function","name":"setNativeAthena","inputs":[{"name":"_nativeAthena","type":"address","internalType":"address"}],"outputs":[],"stateMutability":"nonpayable"},{"type":"function","name":"setNativeDAO","inputs":[{"name":"_nativeDAO","type":"address","internalType":"address"}],"outputs":[],"stateMutability":"nonpayable"},{"type":"function","name":"setRewardsContract","inputs":[{"name":"_rewardsContract","type":"address","internalType":"address"}],"outputs":[],"stateMutability":"nonpayable"},{"type":"function","name":"setTreasury","inputs":[{"name":"_treasury","type":"address","internalType":"address"}],"outputs":[],"stateMutability":"nonpayable"},{"type":"function","name":"setUsdcToken","inputs":[{"name":"_newToken","type":"address","internalType":"address"}],"outputs":[],"stateMutability":"nonpayable"},{"type":"function","name":"startJob","inputs":[{"name":"","type":"address","internalType":"address"},{"name":"_jobId","type":"string","internalType":"string"},{"name":"_applicationId","type":"uint256","internalType":"uint256"},{"name":"_useApplicantMilestones","type":"bool","internalType":"bool"}],"outputs":[],"stateMutability":"nonpayable"},{"type":"function","name":"submitWork","inputs":[{"name":"_applicant","type":"address","internalType":"address"},{"name":"_jobId","type":"string","internalType":"string"},{"name":"_submissionHash","type":"string","internalType":"string"}],"outputs":[],"stateMutability":"nonpayable"},{"type":"function","name":"syncRewardsData","inputs":[{"name":"_options","type":"bytes","internalType":"bytes"}],"outputs":[],"stateMutability":"payable"},{"type":"function","name":"teamTokensAllocated","inputs":[{"name":"user","type":"address","internalType":"address"}],"outputs":[{"name":"","type":"uint256","internalType":"uint256"}],"stateMutability":"view"},{"type":"function","name":"transferOwnership","inputs":[{"name":"newOwner","type":"address","internalType":"address"}],"outputs":[],"stateMutability":"nonpayable"},{"type":"function","name":"treasury","inputs":[],"outputs":[{"name":"","type":"address","internalType":"address"}],"stateMutability":"view"},{"type":"function","name":"upgradeFromDAO","inputs":[{"name":"newImplementation","type":"address","internalType":"address"}],"outputs":[],"stateMutability":"nonpayable"},{"type":"function","name":"upgradeToAndCall","inputs":[{"name":"newImplementation","type":"address","internalType":"address"},{"name":"data","type":"bytes","internalType":"bytes"}],"outputs":[],"stateMutability":"payable"},{"type":"function","name":"usdcToken","inputs":[],"outputs":[{"name":"","type":"address","internalType":"contract IERC20"}],"stateMutability":"view"},{"type":"function","name":"withdrawAllCommission","inputs":[],"outputs":[],"stateMutability":"nonpayable"},{"type":"function","name":"withdrawCommission","inputs":[{"name":"amount","type":"uint256","internalType":"uint256"}],"outputs":[],"stateMutability":"nonpayable"},{"type":"event","name":"AdminUpdated","inputs":[{"name":"admin","type":"address","indexed":true,"internalType":"address"},{"name":"status","type":"bool","indexed":false,"internalType":"bool"}],"anonymous":false},{"type":"event","name":"AuthorizedContractAdded","inputs":[{"name":"contractAddress","type":"address","indexed":true,"internalType":"address"}],"anonymous":false},{"type":"event","name":"AuthorizedContractRemoved","inputs":[{"name":"contractAddress","type":"address","indexed":true,"internalType":"address"}],"anonymous":false},{"type":"event","name":"BridgeUpdated","inputs":[{"name":"oldBridge","type":"address","indexed":true,"internalType":"address"},{"name":"newBridge","type":"address","indexed":true,"internalType":"address"}],"anonymous":false},{"type":"event","name":"ClaimDataUpdated","inputs":[{"name":"user","type":"address","indexed":true,"internalType":"address"},{"name":"claimedJobTokens","type":"uint256","indexed":false,"internalType":"uint256"},{"name":"claimedGovernanceTokens","type":"uint256","indexed":false,"internalType":"uint256"}],"anonymous":false},{"type":"event","name":"CommissionDeducted","inputs":[{"name":"jobId","type":"string","indexed":true,"internalType":"string"},{"name":"grossAmount","type":"uint256","indexed":false,"internalType":"uint256"},{"name":"commission","type":"uint256","indexed":false,"internalType":"uint256"},{"name":"netAmount","type":"uint256","indexed":false,"internalType":"uint256"}],"anonymous":false},{"type":"event","name":"CommissionPercentageUpdated","inputs":[{"name":"oldPercentage","type":"uint256","indexed":false,"internalType":"uint256"},{"name":"newPercentage","type":"uint256","indexed":false,"internalType":"uint256"}],"anonymous":false},{"type":"event","name":"CommissionWithdrawn","inputs":[{"name":"treasury","type":"address","indexed":true,"internalType":"address"},{"name":"amount","type":"uint256","indexed":false,"internalType":"uint256"}],"anonymous":false},{"type":"event","name":"DisputedFundsReleased","inputs":[{"name":"jobId","type":"string","indexed":true,"internalType":"string"},{"name":"winner","type":"address","indexed":true,"internalType":"address"},{"name":"winnerChainDomain","type":"uint32","indexed":false,"internalType":"uint32"},{"name":"amount","type":"uint256","indexed":false,"internalType":"uint256"}],"anonymous":false},{"type":"event","name":"GenesisUpdated","inputs":[{"name":"oldGenesis","type":"address","indexed":true,"internalType":"address"},{"name":"newGenesis","type":"address","indexed":true,"internalType":"address"}],"anonymous":false},{"type":"event","name":"GovernanceActionIncremented","inputs":[{"name":"user","type":"address","indexed":true,"internalType":"address"},{"name":"newGovernanceActionCount","type":"uint256","indexed":false,"internalType":"uint256"},{"name":"band","type":"uint256","indexed":true,"internalType":"uint256"}],"anonymous":false},{"type":"event","name":"Initialized","inputs":[{"name":"version","type":"uint64","indexed":false,"internalType":"uint64"}],"anonymous":false},{"type":"event","name":"JobApplication","inputs":[{"name":"jobId","type":"string","indexed":true,"internalType":"string"},{"name":"applicationId","type":"uint256","indexed":true,"internalType":"uint256"},{"name":"applicant","type":"address","indexed":true,"internalType":"address"},{"name":"applicationHash","type":"string","indexed":false,"internalType":"string"}],"anonymous":false},{"type":"event","name":"JobPosted","inputs":[{"name":"jobId","type":"string","indexed":true,"internalType":"string"},{"name":"jobGiver","type":"address","indexed":true,"internalType":"address"},{"name":"jobDetailHash","type":"string","indexed":false,"internalType":"string"}],"anonymous":false},{"type":"event","name":"JobStarted","inputs":[{"name":"jobId","type":"string","indexed":true,"internalType":"string"},{"name":"applicationId","type":"uint256","indexed":true,"internalType":"uint256"},{"name":"selectedApplicant","type":"address","indexed":true,"internalType":"address"},{"name":"useApplicantMilestones","type":"bool","indexed":false,"internalType":"bool"}],"anonymous":false},{"type":"event","name":"JobStatusChanged","inputs":[{"name":"jobId","type":"string","indexed":true,"internalType":"string"},{"name":"newStatus","type":"uint8","indexed":false,"internalType":"enum IOpenworkGenesis.JobStatus"}],"anonymous":false},{"type":"event","name":"MilestoneLocked","inputs":[{"name":"jobId","type":"string","indexed":true,"internalType":"string"},{"name":"newMilestone","type":"uint256","indexed":false,"internalType":"uint256"},{"name":"lockedAmount","type":"uint256","indexed":false,"internalType":"uint256"}],"anonymous":false},{"type":"event","name":"MinCommissionUpdated","inputs":[{"name":"oldMin","type":"uint256","indexed":false,"internalType":"uint256"},{"name":"newMin","type":"uint256","indexed":false,"internalType":"uint256"}],"anonymous":false},{"type":"event","name":"NativeAthenaUpdated","inputs":[{"name":"oldNativeAthena","type":"address","indexed":true,"internalType":"address"},{"name":"newNativeAthena","type":"address","indexed":true,"internalType":"address"}],"anonymous":false},{"type":"event","name":"NativeDAOUpdated","inputs":[{"name":"oldNativeDAO","type":"address","indexed":true,"internalType":"address"},{"name":"newNativeDAO","type":"address","indexed":true,"internalType":"address"}],"anonymous":false},{"type":"event","name":"OwnershipTransferred","inputs":[{"name":"previousOwner","type":"address","indexed":true,"internalType":"address"},{"name":"newOwner","type":"address","indexed":true,"internalType":"address"}],"anonymous":false},{"type":"event","name":"PaymentReleased","inputs":[{"name":"jobId","type":"string","indexed":true,"internalType":"string"},{"name":"jobGiver","type":"address","indexed":true,"internalType":"address"},{"name":"applicant","type":"address","indexed":true,"internalType":"address"},{"name":"amount","type":"uint256","indexed":false,"internalType":"uint256"},{"name":"milestone","type":"uint256","indexed":false,"internalType":"uint256"}],"anonymous":false},{"type":"event","name":"PaymentReleasedAndNextMilestoneLocked","inputs":[{"name":"jobId","type":"string","indexed":true,"internalType":"string"},{"name":"releasedAmount","type":"uint256","indexed":false,"internalType":"uint256"},{"name":"lockedAmount","type":"uint256","indexed":false,"internalType":"uint256"},{"name":"milestone","type":"uint256","indexed":false,"internalType":"uint256"}],"anonymous":false},{"type":"event","name":"PortfolioAdded","inputs":[{"name":"user","type":"address","indexed":true,"internalType":"address"},{"name":"portfolioHash","type":"string","indexed":false,"internalType":"string"}],"anonymous":false},{"type":"event","name":"ProfileCreated","inputs":[{"name":"user","type":"address","indexed":true,"internalType":"address"},{"name":"ipfsHash","type":"string","indexed":false,"internalType":"string"},{"name":"referrer","type":"address","indexed":false,"internalType":"address"}],"anonymous":false},{"type":"event","name":"RewardsContractUpdated","inputs":[{"name":"oldRewards","type":"address","indexed":true,"internalType":"address"},{"name":"newRewards","type":"address","indexed":true,"internalType":"address"}],"anonymous":false},{"type":"event","name":"RewardsDataSynced","inputs":[{"name":"user","type":"address","indexed":true,"internalType":"address"},{"name":"syncType","type":"uint256","indexed":false,"internalType":"uint256"},{"name":"claimableAmount","type":"uint256","indexed":false,"internalType":"uint256"},{"name":"reserved","type":"uint256","indexed":false,"internalType":"uint256"}],"anonymous":false},{"type":"event","name":"TokensEarned","inputs":[{"name":"user","type":"address","indexed":true,"internalType":"address"},{"name":"tokensEarned","type":"uint256","indexed":false,"internalType":"uint256"},{"name":"newPlatformTotal","type":"uint256","indexed":false,"internalType":"uint256"},{"name":"newUserTotalTokens","type":"uint256","indexed":false,"internalType":"uint256"}],"anonymous":false},{"type":"event","name":"TreasuryUpdated","inputs":[{"name":"oldTreasury","type":"address","indexed":true,"internalType":"address"},{"name":"newTreasury","type":"address","indexed":true,"internalType":"address"}],"anonymous":false},{"type":"event","name":"Upgraded","inputs":[{"name":"implementation","type":"address","indexed":true,"internalType":"address"}],"anonymous":false},{"type":"event","name":"UserRated","inputs":[{"name":"jobId","type":"string","indexed":true,"internalType":"string"},{"name":"rater","type":"address","indexed":true,"internalType":"address"},{"name":"rated","type":"address","indexed":true,"internalType":"address"},{"name":"rating","type":"uint256","indexed":false,"internalType":"uint256"}],"anonymous":false},{"type":"event","name":"WorkSubmitted","inputs":[{"name":"jobId","type":"string","indexed":true,"internalType":"string"},{"name":"applicant","type":"address","indexed":true,"internalType":"address"},{"name":"submissionHash","type":"string","indexed":false,"internalType":"string"},{"name":"milestone","type":"uint256","indexed":false,"internalType":"uint256"}],"anonymous":false},{"type":"error","name":"AddressEmptyCode","inputs":[{"name":"target","type":"address","internalType":"address"}]},{"type":"error","name":"AddressInsufficientBalance","inputs":[{"name":"account","type":"address","internalType":"address"}]},{"type":"error","name":"ERC1967InvalidImplementation","inputs":[{"name":"implementation","type":"address","internalType":"address"}]},{"type":"error","name":"ERC1967NonPayable","inputs":[]},{"type":"error","name":"FailedInnerCall","inputs":[]},{"type":"error","name":"InvalidInitialization","inputs":[]},{"type":"error","name":"NotInitializing","inputs":[]},{"type":"error","name":"OwnableInvalidOwner","inputs":[{"name":"owner","type":"address","internalType":"address"}]},{"type":"error","name":"OwnableUnauthorizedAccount","inputs":[{"name":"account","type":"address","internalType":"address"}]},{"type":"error","name":"SafeERC20FailedOperation","inputs":[{"name":"token","type":"address","internalType":"address"}]},{"type":"error","name":"UUPSUnauthorizedCallContext","inputs":[]},{"type":"error","name":"UUPSUnsupportedProxiableUUID","inputs":[{"name":"slot","type":"bytes32","internalType":"bytes32"}]}],"bytecode":{"object":"0x60a080604052346100d557306080526064600f55620f42406010555f5160206158ef5f395f51905f525460ff8160401c166100c6576002600160401b03196001600160401b03821601610073575b60405161581590816100da8239608051818181612cd801528181612d7c01526133400152f35b6001600160401b0319166001600160401b039081175f5160206158ef5f395f51905f525581527fc7f505b2f371ae2175ee4913f4499e1f2633a7b5936321eed1cdaeb6115181d290602090a15f8061004d565b63f92ee8a960e01b5f5260045ffd5b5f80fdfe60806040526004361015610011575f80fd5b5f5f3560e01c806309d6667e14613ece5780630f0166e114613eaa57806311eac85514613e815780631277bbf8146139b457806317face8414613908578063220cce97146138df57806323dc878c146138b657806329f8d96d1461383e578063301f8257146135d457806339b87c8f1461353557806340634e3b146132f3578063429b62e5146132b457806342b0f652146130a85780634b0bddd214612ff45780634efac43f14612f795780634f1ef28614612d2c57806352d1902d14612cc55780635843905f14612ca15780635d886f2214612c445780636009b51f1461263057806361d027b31461260757806366d0ead314611461578063687694ae146125de57806369517310146125ae5780636c2db78f14612585578063715018a61461252f57806377e324071461230a57806387e821d61461210e5780638da5cb5b146120d95780638dd148021461205e5780639110e03114611e3257806394928b8414611e0a57806398eaa4a714611d8657806399f426be14611b53578063a2f7cb2614611ad8578063a7f0b3de14611ab1578063ad3cb1cc14611a64578063ae69367314611a46578063b9acee1d14611902578063ba2459631461176a578063c088797b146116ce578063cc2a9a5b146114dd578063ce9b4321146114be578063d575fe64146114a0578063d5b9221b14611461578063d6e3c76a14611404578063dc209f13146113db578063de8fd3af14611376578063dfa0dfa5146112fb578063e4a9d8ee1461129e578063e4e2a85614610bbc578063e6b165ed14610b46578063e78cea9214610b1d578063e848635514610af5578063eb14b35314610a7e578063eca688ea14610a60578063f0f44260146109a3578063f14db78314610977578063f27bf0bf146108b1578063f2fde38b14610884578063f4f5d3c7146106d25763fc5dee81146102c4575f80fd5b346106cf5760c03660031901126106cf576102dd614392565b6024356001600160401b03811161069a576102fc903690600401614464565b6044356001600160401b0381116106265761031b903690600401614464565b926064356001600160401b0381116106cd5761033b9036906004016144ac565b6084356001600160401b03811161069a5761035a90369060040161452a565b9460a43563ffffffff811680910361062657338452600560205261038460ff60408620541661465d565b6103918351885114614c5f565b83546040516377e3240760e01b815260206004820152976001600160a01b0390911695908589806103c56024820186614587565b03818a5afa9889156106c257869961069e575b5060208901516001600160a01b0389811699916103f891168a1415614e49565b865b60408b01518051821015610464578a906001600160a01b039061041e9084906149fa565b51161461042d576001016103fa565b60405162461bcd60e51b815260206004820152600f60248201526e105b1c9958591e48185c1c1b1a5959608a1b6044820152606490fd5b50509588968198803b1561069a576040516206d86360e41b81529183918391829084908290610497908b60048401614e7b565b03925af1801561061b57610681575b505060018060a01b03875416906040519563eb7d901b60e01b875260206004880152602087806104d96024820188614587565b0381865afa96871561067657899761063e575b506001870180971161062a5790829189933b156106265786926105408587610580829661056e8f978f61055c906040519c8d9b8c9a8b9963bd015d7960e01b8b5261010060048c01526101048b0190614587565b9260248a01526044890152600319888303016064890152614587565b85810360031901608487015290614c9d565b8381036003190160a485015290614cf5565b8a60c48301528d60e483015203925af1801561061b57610602575b50506105e76105fc915f5160206156a05f395f51905f5293604051602081845180838701835e8101600c815203019020885f5260205260405f209063ffffffff19825416179055614a4b565b92604051918291602083526020830190614587565b0390a480f35b8161060c916143f0565b61061757858761059b565b8580fd5b6040513d84823e3d90fd5b8380fd5b634e487b7160e01b89526011600452602489fd5b9096506020813d60201161066e575b8161065a602093836143f0565b8101031261066a575195896104ec565b5f80fd5b3d915061064d565b6040513d8b823e3d90fd5b8161068b916143f0565b6106965786886104a6565b8680fd5b8280fd5b6106bb9199503d8088833e6106b381836143f0565b8101906147ce565b975f6103d8565b6040513d88823e3d90fd5b505b80fd5b50346106cf576106e136614617565b915033835260056020526106fb60ff60408520541661465d565b82546040516377e3240760e01b815260206004820152906001600160a01b031684828061072b6024820187614587565b0381845afa91821561087957859261085d575b5061012082019160e08351910151511115610828578151906001820180921161081457908186923b1561069a57604051635839ccbd60e11b81529183918391829084908290610791908b600484016147b2565b03925af1801561061b576107ff575b50505190600182018092116107eb577fb9422fa51238140c2297fbab91a9525e85400eea5c9666d16562298ea0e0981c916107dc604092614a4b565b9382519182526020820152a280f35b634e487b7160e01b84526011600452602484fd5b81610809916143f0565b61062657835f6107a0565b634e487b7160e01b86526011600452602486fd5b60405162461bcd60e51b815260206004820152600d60248201526c105b1b0818dbdb5c1b195d1959609a1b6044820152606490fd5b6108729192503d8087833e6106b381836143f0565b905f61073e565b6040513d87823e3d90fd5b50346106cf5760203660031901126106cf576108ae6108a1614392565b6108a9615514565b615258565b80f35b50346106cf57806003193601126106cf57338152600b6020526108da60ff60408320541661465d565b600e54801561094257600e829055600654600d546109069183916001600160a01b0390811691166152b6565b600d546040519182526001600160a01b0316907fd244b5a3b2e3977ecffe1a5e5ab7661aadfecbae24be711b7a72bb42bd1b2db090602090a280f35b60405162461bcd60e51b815260206004820152600d60248201526c27379031b7b6b6b4b9b9b4b7b760991b6044820152606490fd5b50346106cf5760203660031901126106cf57602061099b610996614392565b6151ce565b604051908152f35b50346106cf5760203660031901126106cf576109bd614392565b338252600b6020526109d560ff60408420541661465d565b6001600160a01b03168015610a2857600d80546001600160a01b0319811683179091556001600160a01b03167f4ab5be82436d353e61ca18726e984e561f5c1cc7c6d38b29d2553c790434705a8380a380f35b60405162461bcd60e51b815260206004820152601060248201526f496e76616c696420747265617375727960801b6044820152606490fd5b50346106cf57806003193601126106cf576020601054604051908152f35b50346106cf5760203660031901126106cf57610a98614392565b338252600b602052610ab060ff60408420541661465d565b81546001600160a01b039182166001600160a01b031982168117845591167f5f1d51aab4bd6e41be6c7feda322db860d93d0058238bf871dfafd43ecc951f98380a380f35b50346106cf5760403660031901126106cf57602061099b610b14614392565b60243590615152565b50346106cf57806003193601126106cf576002546040516001600160a01b039091168152602090f35b50346106cf5760203660031901126106cf57610b60614392565b338252600b602052610b7860ff60408420541661465d565b6001600160a01b0316808252600560205260408220805460ff191690557f98a35376356c1565159c1b44676fcfa951a2287e2a816e208cf92e7aeb585a4f8280a280f35b50346106cf5760a03660031901126106cf57610bd6614392565b6024356001600160401b03811161069a57610bf5903690600401614464565b60643563ffffffff811680910361062657610c0e6143be565b913385526005602052610c2760ff60408720541661465d565b6008546001600160a01b0316928315611263576001600160a01b031693610c4f851515614c1f565b610c5c6044351515614be2565b610c64614fc9565b5085546040516377e3240760e01b81526020600482015290879082906001600160a01b03168180610c986024820189614587565b03915afa90811561125857879161123e575b50610140810151610cc5906001600160a01b03161515614ae9565b6080810151600481101561122a575f19016111ef57610120810193845194851515806111e0575b156111a7576006546040516370a0823160e01b81523060048201526001600160a01b039091169790936020856024818c5afa94851561119c578b95611167575b5060e0019687515f19820191821161115357602091610d4a916149fa565b51015161270f810281159082810461270f1482171561113f57612710900486106110ee578160011b91820460021417156110da57841161107757610d8d84615124565b928385111561102657610dc760208c93610da78789614b24565b9b8c918660405180968195829463095ea7b360e01b845260048401614bb1565b03925af1801561101b57610fee575b506008546001600160a01b0316803b1561069a578a9160848b858094604051968795869463269258dd60e01b86526004860152602485015260448401526103e860648401525af1801561061b57610fd9575b5050610e3682600e54614b45565b600e55610e44878686615351565b885489906001600160a01b0316803b156106cd57604051636167f40760e11b81529082908290818381610e7b8f8e600484016147b2565b03925af1801561061b57610fc0575b505051945151851015610ef9575b83604093925f5160206157c05f395f51905f52610ede93610ec65f5160206157805f395f51905f5298614a4b565b92610ed68b895193849384614bcc565b0390a2614a4b565b825195865260208601949094526001600160a01b031693a480f35b875488906001600160a01b0316803b156106cd57816040518092632d6f93f960e21b825260406004830152818381610f34604482018d614587565b6002602483015203925af1801561061b57610fa1575b5093604093925f5160206157c05f395f51905f52610ede935f5160206157805f395f51905f52975f5160206156405f395f51905f526020610f8a87614a4b565b928a51905060028152a29350509293509350610e98565b81610fae919594956143f0565b610fbc57875f939293610f4a565b8780fd5b81610fca916143f0565b610fd557885f610e8a565b8880fd5b81610fe3916143f0565b610fd557885f610e28565b61100f9060203d602011611014575b61100781836143f0565b810190614b99565b610dd6565b503d610ffd565b6040513d85823e3d90fd5b60405162461bcd60e51b815260206004820152602360248201527f42616c616e636520696e73756666696369656e7420666f7220636f6d6d69737360448201526234b7b760e91b6064820152608490fd5b60405162461bcd60e51b815260206004820152603560248201527f556e65787065637465642062616c616e6365202d20706f737369626c6520636f6044820152741b98dd5c9c995b9d081a9bd88818dbdb999b1a58dd605a1b6064820152608490fd5b634e487b7160e01b8b52601160045260248bfd5b60405162461bcd60e51b8152602060048201526024808201527f496e73756666696369656e742062616c616e63652061667465722043435450206044820152636665657360e01b6064820152608490fd5b634e487b7160e01b8d52601160045260248dfd5b634e487b7160e01b8c52601160045260248cfd5b9094506020813d602011611194575b81611183602093836143f0565b8101031261066a57519360e0610d2c565b3d9150611176565b6040513d8d823e3d90fd5b60405162461bcd60e51b8152602060048201526011602482015270496e76616c6964206d696c6573746f6e6560781b6044820152606490fd5b5060e083015151861115610cec565b60405162461bcd60e51b81526020600482015260136024820152724a6f62206e6f7420696e2070726f677265737360681b6044820152606490fd5b634e487b7160e01b88526021600452602488fd5b61125291503d8089833e6106b381836143f0565b5f610caa565b6040513d89823e3d90fd5b60405162461bcd60e51b8152602060048201526013602482015272151c985b9cd8d95a5d995c881b9bdd081cd95d606a1b6044820152606490fd5b50346106cf5760203660031901126106cf576112b8614392565b338252600b6020526112d060ff60408420541661465d565b6001600160a01b03166112e4811515614e0b565b600880546001600160a01b03191691909117905580f35b50346106cf5760203660031901126106cf57611315614392565b338252600b60205261132d60ff60408420541661465d565b600180546001600160a01b039283166001600160a01b0319821681179092559091167f1411e470e89195b3fc751143c6dfe8c8cb1207e319c33747a017fb39e13ef92c8380a380f35b50346106cf5760203660031901126106cf577f42ddeacb574f2550f7e8d8e42de1ed9b952f6b6f5c3616afeaa9922896ea5ec46040600435338452600b6020526113c560ff838620541661465d565b601054908060105582519182526020820152a180f35b50346106cf57806003193601126106cf576009546040516001600160a01b039091168152602090f35b50346106cf5760203660031901126106cf5761141e614392565b338252600b60205261143660ff60408420541661465d565b6001600160a01b031661144a811515614e0b565b600780546001600160a01b03191691909117905580f35b50346106cf5760203660031901126106cf5760209060ff906040906001600160a01b0361148c614392565b168152600584522054166040519015158152f35b50346106cf57806003193601126106cf576020600f54604051908152f35b50346106cf5760203660031901126106cf57602061099b600435615124565b50346106cf5760c03660031901126106cf576114f7614392565b6114ff6143a8565b6044356001600160a01b03811690819003610626576064356001600160a01b038116908190036116ca576115316143be565b9160a4359360018060a01b038516809503610696575f5160206157a05f395f51905f5254604081901c60ff161596906001600160401b038116801590816116c2575b60011490816116b8575b1590816116af575b506116a0576001600160401b031981166001175f5160206157a05f395f51905f52556115c3919088611678575b506115bb615547565b6108a9615547565b6115cb615547565b600280546001600160a01b03199081166001600160a01b0393841617909155875481169290921787556001805483169390931790925560068054821693909216929092179055600780549091169190911790556116255780f35b60ff60401b195f5160206157a05f395f51905f5254165f5160206157a05f395f51905f52557fc7f505b2f371ae2175ee4913f4499e1f2633a7b5936321eed1cdaeb6115181d2602060405160018152a180f35b6001600160481b0319166001600160401b01175f5160206157a05f395f51905f52555f6115b2565b63f92ee8a960e01b8952600489fd5b9050155f611585565b303b15915061157d565b899150611573565b8480fd5b50346106cf5760603660031901126106cf576004356001600160401b0381116106cd576116ff903690600401614464565b6117076143a8565b602080611712614482565b933386526005825261172a60ff604088205416615026565b604051928184925191829101835e8101600c8152030190209060018060a01b03165f5260205263ffffffff60405f20911663ffffffff1982541617905580f35b50346106cf5760603660031901126106cf57611784614392565b6024356001600160401b03811161069a576117a3903690600401614464565b906044356001600160401b038111610626576117c3903690600401614464565b9133845260056020526117dc60ff60408620541661465d565b835484906001600160a01b0316803b156106cd57816040518092632c47fa9760e01b82526040600483015281838161182c61181a604483018b614587565b8281036003190160248401528c614587565b03925af1801561061b576118ed575b505083546040516377e3240760e01b8152602060048201529190859083906001600160a01b031681806118716024820187614587565b03915afa8015610879576101206118b4917f2de280d2b7315f889cbea3ddc5c9ebfb1773caba023a73cc8fa272e9b28585c29488916118d3575b50015191614a4b565b926118cd60405192839260018060a01b031696836147b2565b0390a380f35b6118e791503d808a833e6106b381836143f0565b5f6118ab565b816118f7916143f0565b61062657835f61183b565b50346106cf5760403660031901126106cf5761191c614392565b60243590338352600560205261193860ff60408520541661465d565b825483906001600160a01b0316803b156106cd5781604051809263286fd04f60e01b825281838161196d8a8a60048401614bb1565b03925af1801561061b57611a31575b50506001546001600160a01b0316806119ba575b5060405f5160206156605f395f51905f5291815193845284602085015260018060a01b031692a280f35b9060206040518093635b92f3d960e01b82528187816119dd898860048401614bb1565b03925af1908115611a26575f5160206156605f395f51905f5292604092611a07575b509150611990565b611a1f9060203d6020116110145761100781836143f0565b505f6119ff565b6040513d86823e3d90fd5b81611a3b916143f0565b61069a57825f61197c565b50346106cf57806003193601126106cf576020600e54604051908152f35b50346106cf57806003193601126106cf5750611aad604051611a876040826143f0565b60058152640352e302e360dc1b6020820152604051918291602083526020830190614587565b0390f35b50346106cf57806003193601126106cf57546040516001600160a01b039091168152602090f35b50346106cf5760203660031901126106cf57611af2614392565b338252600b602052611b0a60ff60408420541661465d565b600a80546001600160a01b039283166001600160a01b0319821681179092559091167febf0307548e44546701f6014620caeea64df200e2b3925bfd3c75d354fd7410d8380a380f35b50346106cf5760203660031901126106cf57611b6d614392565b338252600560205260ff60408320541615611d4f5781546001600160a01b0316908290823b156106cd5760405163033ba21d60e31b81526001600160a01b03909116600482018190529282908290602490829084905af1801561061b57611d3a575b506001546001600160a01b031680611cf5575b50506001546001600160a01b03168015611ced57602060049160405192838092636bb9f8df60e11b82525afa90811561101b578391611cbb575b50905b825460405163f14db78360e01b81526004810183905290602090829060249082906001600160a01b03165afa908115611a26578491611c88575b5060207fea1851b2332e25f0d6427525a451a05fcf1b65ca9a4b096a85a2e4e40e6ac69991604051908152a380f35b90506020813d602011611cb3575b81611ca3602093836143f0565b8101031261066a57516020611c59565b3d9150611c96565b90506020813d602011611ce5575b81611cd6602093836143f0565b8101031261066a57515f611c1c565b3d9150611cc9565b508190611c1f565b803b156106cd5781809160246040518094819363369eca8f60e21b83528860048401525af1801561061b5715611be25781611d2f916143f0565b6106cd57815f611be2565b81611d44916143f0565b6106cd57815f611bcf565b60405162461bcd60e51b815260206004820152600f60248201526e13db9b1e48185d5d1a1bdc9a5e9959608a1b6044820152606490fd5b50346106cf5760203660031901126106cf57611da0614392565b338252600b602052611db860ff60408420541661465d565b6001600160a01b0316611dcc811515614e0b565b808252600560205260408220805460ff191660011790557f351e40fe333cede9dd79a1ef4d16228b1702f272eb2c2166ec3c7ee6a9d4ce2c8280a280f35b50346106cf5760403660031901126106cf57611e24614392565b50602061099b602435615063565b50346106cf57611e4136614617565b90913384526005602052611e5b60ff604086205416615026565b83546040516377e3240760e01b81526020600482015290859082906001600160a01b03168180611e8e602482018a614587565b03915afa801561087957610140918691612044575b50018051611ebb906001600160a01b03161515614ae9565b611ec6831515614be2565b611ecf83615124565b92611eda8482614b24565b93611ee781600e54614b45565b600e556006548351611f079187916001600160a01b0390811691166152b6565b865487906001600160a01b0316803b156106cd57604051636167f40760e11b81529082908290818381611f3e8d8f600484016147b2565b03925af1801561061b5761202f575b5080546001600160a01b0316803b156106cd5760408051632d6f93f960e21b815260048101919091529082908290818381611f8b604482018f614587565b6002602483015203925af1801561061b5761201a575b50505f5160206157805f395f51905f52926040925f5160206157c05f395f51905f52611ffe93611fd2898b8a615351565b611fdb8a614a4b565b92611feb8a885193849384614bcc565b0390a2516001600160a01b031695614a4b565b8151948552602085018790526001600160a01b0390931693a480f35b81612024916143f0565b61069657865f611fa1565b81612039916143f0565b61069657865f611f4d565b61205891503d8088833e6106b381836143f0565b5f611ea3565b50346106cf5760203660031901126106cf57612078614392565b338252600b60205261209060ff60408420541661465d565b600280546001600160a01b039283166001600160a01b0319821681179092559091167faae9beddccf584528e87b66c6ff2563825c8a1433305b8a656e9b5f9bf3904998380a380f35b50346106cf57806003193601126106cf575f5160206156205f395f51905f52546040516001600160a01b039091168152602090f35b5060203660031901126106cf576004356001600160401b0381116106cd57366023820112156106cd576004810135906001600160401b03821161069a57366024838301011161069a576002546001600160a01b03169182156122d4576001546001600160a01b031680156122cc5760206024916040519283809263057bd6b560e51b82523360048301525afa90811561087957859161229a575b50925b8315612269578492813b1561062657839160246084859360405196879586948593633f8190a360e21b85523360048601528c828601526060604486015282606486015201848401378181018301879052601f01601f1916810103019134905af1801561061b57612254575b5050604051906001825260208201528160408201527f377a25b6705fa575725f64a9e9cee303a5037feaf4bc831a8595345c24ae076960603392a280f35b8161225e916143f0565b6106cd57815f612216565b60405162461bcd60e51b81526020600482015260096024820152684e6f20746f6b656e7360b81b6044820152606490fd5b90506020813d6020116122c4575b816122b5602093836143f0565b8101031261066a57515f6121a8565b3d91506122a8565b5083926121ab565b60405162461bcd60e51b815260206004820152600e60248201526d109c9a5919d9481b9bdd081cd95d60921b6044820152606490fd5b50346106cf5760203660031901126106cf57600435816001600160401b0382116106cf5761233f612375923690600401614464565b612347614fc9565b5060018060a01b0382541660405180809581946377e3240760e01b8352602060048401526024830190614587565b03915afa90811561061b578291612515575b5060405190602082526123a8815161018060208501526101a0840190614587565b60018060a01b0360208301511660408401526040820151601f1984830301606085015260208082519384815201910191855b8181106124f65750506060830151848203601f190160808601526123fe9250614587565b92608082015160048110156124e25760a084015260a082015193601f198482030160c0850152845190818152602081016020808460051b840101970193915b8383106124b55786808761016061247e6124678d60c0850151601f198783030160e08801526145ab565b60e0840151858203601f19016101008701526145ab565b9161010081015161012085015261012081015161014085015260018060a01b03610140820151168285015201516101808301520390f35b90919293966020806124d3600193601f198682030187528b51614587565b9901930193019193929061243d565b634e487b7160e01b82526021600452602482fd5b83516001600160a01b03168352602093840193909201916001016123da565b61252991503d8084833e6106b381836143f0565b5f612387565b50346106cf57806003193601126106cf57612548615514565b5f5160206156205f395f51905f5280546001600160a01b0319811690915581906001600160a01b03165f5160206157005f395f51905f528280a380f35b50346106cf57806003193601126106cf576007546040516001600160a01b039091168152602090f35b50346106cf5760203660031901126106cf5760406125d26125cd614392565b614ea3565b82519182526020820152f35b50346106cf57806003193601126106cf57600a546040516001600160a01b039091168152602090f35b50346106cf57806003193601126106cf57600d546040516001600160a01b039091168152602090f35b50346106cf5760e03660031901126106cf5761264a614392565b6126526143a8565b6044356001600160401b03811161062657612671903690600401614464565b906064356001600160401b0381116116ca57612691903690600401614464565b926084356001600160401b038111610617576126b19036906004016144ac565b60a4356001600160401b038111610696576126d090369060040161452a565b9160c43563ffffffff8116809103610fbc5733885260056020526126fa60ff60408a20541661465d565b87546040516259565560e61b81526020600482018190526001600160a01b039092169291818061272d602482018c614587565b0381865afa908115612c39578a91612c1a575b50612be0576127528451865114614c5f565b835115612ba45788956001600160a01b03808216949081169361277785871415614e49565b803b15610fd5578a89918893838d6127a68d604051988997889687956324f808a560e01b875260048701614d28565b03925af1908115612b99578891612b84575b505086546001600160a01b0316803b15610fbc576127ef9188918a836040518096819582946206d86360e41b845260048401614e7b565b03925af1908115611258578791612b6f575b505085546001600160a01b0316803b156106965786604061288a9261284a838c61289c85519788968795869463bd015d7960e01b86526101006004870152610104860190614587565b600160248601528d6044860152603c85820360031981016064880152602083525f5160206157405f395f51905f526020840152016084860152018d614c9d565b8281036003190160a48401528d614cf5565b8860c48301528a60e483015203925af1908115611258578791612b5a575b5050604051602081895180838c01835e8101600c815203019020835f5260205260405f209063ffffffff1982541617905560018060a01b03855416803b156106175760405163177e220b60e11b8152606060048201529086908290818381612925606482018e614587565b8960248301526001604483015203925af19081156106c2578691612b45575b505084546001600160a01b0316803b1561061757856040518092632d6f93f960e21b8252604060048301528183816129808d6044830190614587565b6001602483015203925af19081156106c2578691612b30575b505084546001600160a01b0316803b1561061757856040518092635839ccbd60e11b8252604060048301528183816129d58d6044830190614587565b6001602483015203925af19081156106c2578691612b1b575b505b8351811015612a775785546001600160a01b0316612a0e82866149fa565b51612a1983886149fa565b51823b15610fd557612a46928992838c604051968795869485936346cae72f60e11b855260048501614a22565b03925af1908115611258578791612a62575b50506001016129f0565b81612a6c916143f0565b61061757855f612a58565b85612b008885858c5f5160206156e05f395f51905f52612a996105e786614a4b565b0390a3806001612aa884614a4b565b5f5160206156a05f395f51905f526060604051602081526020808201525f5160206157405f395f51905f526040820152a46001612ae483614a4b565b5f5160206156805f395f51905f526020604051888152a4614a4b565b5f5160206156405f395f51905f52602060405160018152a280f35b81612b25916143f0565b6116ca57845f6129ee565b81612b3a916143f0565b6116ca57845f612999565b81612b4f916143f0565b6116ca57845f612944565b81612b64916143f0565b61061757855f6128ba565b81612b79916143f0565b61061757855f612801565b81612b8e916143f0565b61069657865f6127b8565b6040513d8a823e3d90fd5b60405162461bcd60e51b81526020600482015260146024820152734d7573742068617665206d696c6573746f6e657360601b6044820152606490fd5b60405162461bcd60e51b81526020600482015260126024820152714a6f6220616c72656164792065786973747360701b6044820152606490fd5b612c33915060203d6020116110145761100781836143f0565b5f612740565b6040513d8c823e3d90fd5b50346106cf5760203660031901126106cf57612c5e614392565b338252600b602052612c7660ff60408420541661465d565b6001600160a01b0316612c8a811515614e0b565b600680546001600160a01b03191691909117905580f35b50346106cf5760203660031901126106cf57602061099b612cc0614392565b614d81565b50346106cf57806003193601126106cf577f00000000000000000000000000000000000000000000000000000000000000006001600160a01b03163003612d1d5760206040515f5160206156c05f395f51905f528152f35b63703e46dd60e11b8152600490fd5b5060403660031901126106cf57612d41614392565b906024356001600160401b0381116106cd57366023820112156106cd57612d7290369060248160040135910161442e565b6001600160a01b037f000000000000000000000000000000000000000000000000000000000000000016308114908115612f57575b50612f48575f5160206156205f395f51905f52546001600160a01b031633148015612f34575b15612f00576040516352d1902d60e01b8152926001600160a01b0381169190602085600481865afa80958596612ecc575b50612e1757634c9c8ce360e01b84526004839052602484fd5b9091845f5160206156c05f395f51905f528103612eba5750813b15612ea8575f5160206156c05f395f51905f5280546001600160a01b031916821790555f5160206157205f395f51905f528480a28151839015612e8e5780836020612e8a95519101845af4612e84615572565b916155a1565b5080f35b50505034612e995780f35b63b398979f60e01b8152600490fd5b634c9c8ce360e01b8452600452602483fd5b632a87526960e21b8552600452602484fd5b9095506020813d602011612ef8575b81612ee8602093836143f0565b810103126116ca5751945f612dfe565b3d9150612edb565b60405162461bcd60e51b815260206004820152600c60248201526b155b985d5d1a1bdc9a5e995960a21b6044820152606490fd5b506002546001600160a01b03163314612dcd565b63703e46dd60e11b8252600482fd5b5f5160206156c05f395f51905f52546001600160a01b0316141590505f612da7565b50346106cf5760203660031901126106cf57612f93614392565b338252600b602052612fab60ff60408420541661465d565b600980546001600160a01b039283166001600160a01b0319821681179092559091167f07d9e59518f3d6cbceb6404066ae85fc348e3793c127eb912fb9d55f384233d98380a380f35b50346106cf5760403660031901126106cf5761300e614392565b6024359081151580920361069a5760207f235bc17e7930760029e9f4d860a2a8089976de5b381cf8380fc11c1d88a111339160018060a01b035f5160206156205f395f51905f52541633148015613094575b6130699061465d565b6001600160a01b0316808552600b82526040808620805460ff191660ff87161790555193845292a280f35b50600a546001600160a01b03163314613060565b50346106cf5760a03660031901126106cf576004356001600160401b0381116106cd576130d9903690600401614464565b6130e16143a8565b906044356001600160401b03811161062657613101903690600401614464565b6064356001600160401b0381116116ca576131209036906004016144ac565b6084356001600160401b0381116106175761313f90369060040161452a565b90338652600560205261315860ff60408820541661465d565b85546040516259565560e61b81526020600482018190526001600160a01b0390921691818061318a602482018a614587565b0381855afa908115612b99578891613295575b506132635786926131b18351825114614c5f565b813b156106265783918783886131df8995604051988997889687956324f808a560e01b875260048701614d28565b03925af1801561061b5761324e575b5050613234925f5160206156e05f395f51905f5261322c61320e85614a4b565b926040519182916020835260018060a01b0316956020830190614587565b0390a3614a4b565b5f5160206156405f395f51905f526020604051848152a280f35b81613258916143f0565b61062657835f6131ee565b60405162461bcd60e51b815260206004820152600a6024820152694a6f622065786973747360b01b6044820152606490fd5b6132ae915060203d6020116110145761100781836143f0565b5f61319d565b50346106cf5760203660031901126106cf5760209060ff906040906001600160a01b036132df614392565b168152600b84522054166040519015158152f35b50346106cf5760203660031901126106cf5761330d614392565b6002546001600160a01b03169190338390036135025760405160209361333385836143f0565b8382526001600160a01b037f0000000000000000000000000000000000000000000000000000000000000000163081149081156134e0575b506134d1575f5160206156205f395f51905f52546001600160a01b031633149081156134c7575b5015613493576040516352d1902d60e01b81526001600160a01b03831694908181600481895afa859181613464575b506133da57634c9c8ce360e01b85526004869052602485fd5b5f5160206156c05f395f51905f528103612eba5750823b15613450575f5160206156c05f395f51905f5280546001600160a01b0319168617905592938493905f5160206157205f395f51905f528580a2815115613446578151612e8a9492839201845af4612e84615572565b505050612e995780f35b634c9c8ce360e01b84526004859052602484fd5b9091508281813d831161348c575b61347c81836143f0565b810103126106175751905f6133c1565b503d613472565b60405162461bcd60e51b815260048101859052600c60248201526b155b985d5d1a1bdc9a5e995960a21b6044820152606490fd5b905033145f613392565b63703e46dd60e11b8452600484fd5b5f5160206156c05f395f51905f52546001600160a01b0316141590505f61336b565b60405162461bcd60e51b815260206004820152600b60248201526a4f6e6c792062726964676560a81b6044820152606490fd5b50346106cf5760203660031901126106cf57600435338252600b60205261356260ff60408420541661465d565b6103e881116135a55760407fdd875544ddd76d96f6d22d7b445e849b486258026a9fb9bd1f3434766b1e920191600f549080600f5582519182526020820152a180f35b60405162461bcd60e51b81526020600482015260076024820152664d61782031302560c81b6044820152606490fd5b50346106cf5760603660031901126106cf576135ee614392565b602435906135fa614482565b9160018060a01b03600954163314801561382a575b156137f0576001600160a01b0382169263ffffffff9290613631851515614c1f565b61363c831515614be2565b61364583615124565b906136508285614b24565b94859161365f84600e54614b45565b600e551692600384036136e857604093926136a25f5160206157605f395f51905f5296935f5160206157c05f395f51905f529360018060a01b03600654166152b6565b60078551666469737075746560c81b815220926136c488875193849384614bcc565b0390a260078251666469737075746560c81b8152209382519182526020820152a380f35b50600854613730916020916001600160a01b0316613707811515614b52565b60018060a01b0360065416908a60405180968195829463095ea7b360e01b845260048401614bb1565b03925af18015611258576137d3575b5060085486906001600160a01b0316803b156106cd5781809160846040518094819363269258dd60e01b83528b60048401528960248401528c60448401526103e860648401525af1801561061b576137ba575b5050905f5160206157605f395f51905f52925f5160206157c05f395f51905f526040936136a2565b816137c7919493946143f0565b6106175790855f613792565b6137eb9060203d6020116110145761100781836143f0565b61373f565b60405162461bcd60e51b81526020600482015260126024820152714f6e6c7920417468656e61206f722044414f60701b6044820152606490fd5b50600a546001600160a01b0316331461360f565b50346106cf5760403660031901126106cf576004356001600160401b0381116106cd5761386f903690600401614464565b60208061387a6143a8565b92604051928184925191829101835e8101600c8152030190209060018060a01b03165f52602052602063ffffffff60405f205416604051908152f35b50346106cf57806003193601126106cf576008546040516001600160a01b039091168152602090f35b50346106cf57806003193601126106cf576001546040516001600160a01b039091168152602090f35b50346106cf5760203660031901126106cf57600435338252600b60205261393560ff60408420541661465d565b600e5480821161397557816139549161394f821515614be2565b614b24565b600e55600654600d546109069183916001600160a01b0390811691166152b6565b60405162461bcd60e51b815260206004820152601760248201527624b739bab33334b1b4b2b73a1031b7b6b6b4b9b9b4b7b760491b6044820152606490fd5b50346106cf5760803660031901126106cf576139ce614392565b6024356001600160401b03811161069a576139ed903690600401614464565b604435903384526005602052613a0960ff60408620541661465d565b83546040516377e3240760e01b8152602060048201529390859085906001600160a01b03168180613a3d6024820188614587565b03915afa938415610879578594613e65575b5061014084018051909490613a6e906001600160a01b03161515614ae9565b613a7784615124565b9186613a838487614b24565b8097613a9186600e54614b45565b600e55604051602081895180838c01835e600c9082019081520301902081516001600160a01b03165f908152602091909152604090205463ffffffff1660038103613d7b57506006549051613af393506001600160a01b0390811691166152b6565b86546001600160a01b0316803b15610fbc57876040518092636167f40760e11b8252818381613b268d8c600484016147b2565b03925af1888115613d6f5788928792613d55575b5050613b4592615351565b8554610120919091015160018101916001600160a01b0316908210613d4157908187923b1561069a57604051635839ccbd60e11b81529183918391829084908290613b94908b600484016147b2565b03925af1801561061b57613d2c575b505084546040516377e3240760e01b815260206004820152919086906001600160a01b0316818480613bd86024820189614587565b0381845afa93841561061b578294613d10575b5061012084019360e085519101515110613c62575b5050905f5160206156005f395f51905f52935f5160206157c05f395f51905f52613c4893613c2d86614a4b565b92613c3e8960405193849384614bcc565b0390a25191614a4b565b92613c5c6040519283926064359084614bcc565b0390a280f35b803b156106cd57816040518092632d6f93f960e21b825260406004830152818381613c90604482018c614587565b6002602483015203925af1801561061b57613cf7575b5050905f5160206156005f395f51905f52935f5160206157c05f395f51905f52613c4893613cd386614a4b565b5f5160206156405f395f51905f52602060405160028152a292935087919550613c00565b81613d04919493946143f0565b6106175790855f613ca6565b613d259194503d8084833e6106b381836143f0565b925f613beb565b81613d36916143f0565b6116ca57845f613ba3565b634e487b7160e01b87526011600452602487fd5b819350613d6292506143f0565b610696578584885f613b3a565b604051903d90823e3d90fd5b6008549092613dc591602091906001600160a01b0316613d9c811515614b52565b60018060a01b0360065416908760405180968195829463095ea7b360e01b845260048401614bb1565b03925af18015611a2657613e48575b5060085490516001600160a01b0390811692911690813b156106265760848a858094604051968795869463269258dd60e01b86526004860152602485015260448401526103e860648401525af1801561061b57613e33575b5050613af3565b81613e3d916143f0565b61069657865f613e2c565b613e609060203d6020116110145761100781836143f0565b613dd4565b613e7a9194503d8087833e6106b381836143f0565b925f613a4f565b50346106cf57806003193601126106cf576006546040516001600160a01b039091168152602090f35b50346106cf5760203660031901126106cf57602061099b613ec9614392565b614a67565b503461066a57608036600319011261066a57613ee8614392565b506024356001600160401b03811161066a57613f08903690600401614464565b90604435606435928315159182850361066a57335f526005602052613f3360ff60405f20541661465d565b60018060a01b035f54169460405193632e68140160e11b85525f8580613f5d8688600484016147b2565b03818a5afa94851561427b575f956142a0575b506040516377e3240760e01b8152602060048201525f8180613f956024820189614587565b03818b5afa90811561427b575f91614286575b506040860180516001600160a01b031698909390803b1561066a5760405163177e220b60e11b815260606004820152995f918b91829084908290613fef606483018e614587565b9060248301528b604483015203925af1801561427b57614261575b87549798509596949588956001600160a01b0316803b156106965760408051632d6f93f960e21b815260048101919091529087908290818381614050604482018f614587565b6001602483015203925af190811561125857879161424c575b505085546001600160a01b0316803b156106965760408051635839ccbd60e11b8152600481019190915290879082908183816140a8604482018f614587565b6001602483015203925af1908115611258578791614237575b50501561419a5750835b60808701805190815183101561415e5760206140fe846140f58160018060a01b038c5416966149fa565b515193516149fa565b510151823b15610fbc5761412d928892838b604051968795869485936346cae72f60e11b855260048501614a22565b03925af19081156106c2578691614149575b50506001016140cb565b81614153916143f0565b6116ca57845f61413f565b5050509250612b0094505b516001600160a01b0316915f5160206156805f395f51905f52602061418d86614a4b565b92604051908152a4614a4b565b9550835b60c0870180519081518310156142285760206141c8846140f58160018060a01b038c5416966149fa565b510151823b15610fbc576141f7928892838b604051968795869485936346cae72f60e11b855260048501614a22565b03925af19081156106c2578691614213575b505060010161419e565b8161421d916143f0565b6116ca57845f614209565b5050509250612b009450614169565b81614241916143f0565b61061757855f6140c1565b81614256916143f0565b61061757855f614069565b94959650965f614270916143f0565b5f959493879061400a565b6040513d5f823e3d90fd5b61429a91503d805f833e6106b381836143f0565b5f613fa8565b9094503d805f833e6142b281836143f0565b81019060208183031261066a578051906001600160401b03821161066a570160a08183031261066a576040519160a083016001600160401b0381118482101761437e576040528151835260208201516001600160401b03811161066a578161431b91840161468f565b602084015261432c604083016146d5565b604084015260608201516001600160401b03811161066a578161435091840161468f565b606084015260808201516001600160401b03811161066a5761437292016146e9565b6080820152935f613f70565b634e487b7160e01b5f52604160045260245ffd5b600435906001600160a01b038216820361066a57565b602435906001600160a01b038216820361066a57565b608435906001600160a01b038216820361066a57565b61018081019081106001600160401b0382111761437e57604052565b601f909101601f19168101906001600160401b0382119082101761437e57604052565b6001600160401b03811161437e57601f01601f191660200190565b92919261443a82614413565b9161444860405193846143f0565b82948184528183011161066a578281602093845f960137010152565b9080601f8301121561066a5781602061447f9335910161442e565b90565b6044359063ffffffff8216820361066a57565b6001600160401b03811161437e5760051b60200190565b9080601f8301121561066a5781356144c381614495565b926144d160405194856143f0565b81845260208085019260051b8201019183831161066a5760208201905b8382106144fd57505050505090565b81356001600160401b03811161066a5760209161451f87848094880101614464565b8152019101906144ee565b9080601f8301121561066a57813561454181614495565b9261454f60405194856143f0565b81845260208085019260051b82010192831161066a57602001905b8282106145775750505090565b813581526020918201910161456a565b805180835260209291819084018484015e5f828201840152601f01601f1916010190565b9080602083519182815201916020808360051b8301019401925f915b8383106145d657505050505090565b9091929394602080600192601f1985820301865288519082806146028451604085526040850190614587565b930151910152970193019301919392906145c7565b90606060031983011261066a576004356001600160a01b038116810361066a5791602435906001600160401b03821161066a5761465691600401614464565b9060443590565b1561466457565b606460405162461bcd60e51b8152602060048201526004602482015263082eae8d60e31b6044820152fd5b81601f8201121561066a578051906146a682614413565b926146b460405194856143f0565b8284526020838301011161066a57815f9260208093018386015e8301015290565b51906001600160a01b038216820361066a57565b81601f8201121561066a5780519061470082614495565b9261470e60405194856143f0565b82845260208085019360051b8301019181831161066a5760208101935b83851061473a57505050505090565b84516001600160401b03811161066a5782016040818503601f19011261066a5760408051929083016001600160401b0381118482101761437e576040526020820151926001600160401b03841161066a5760408361479f88602080988198010161468f565b835201518382015281520194019361472b565b9291906147c9602091604086526040860190614587565b930152565b60208183031261066a578051906001600160401b03821161066a5701906101808282031261066a5760405191614803836143d4565b80516001600160401b03811161066a578261481f91830161468f565b835261482d602082016146d5565b602084015260408101516001600160401b03811161066a57810182601f8201121561066a5780519061485e82614495565b9161486c60405193846143f0565b80835260208084019160051b8301019185831161066a57602001905b8282106149e257505050604084015260608101516001600160401b03811161066a57826148b691830161468f565b60608401526080810151600481101561066a57608084015260a08101516001600160401b03811161066a57810182601f8201121561066a5780516148f981614495565b9161490760405193846143f0565b81835260208084019260051b8201019185831161066a5760208201905b8382106149b5575050505060a084015260c08101516001600160401b03811161066a57826149539183016146e9565b60c084015260e08101516001600160401b03811161066a576101609261497a9183016146e9565b60e08401526101008101516101008401526101208101516101208401526149a461014082016146d5565b610140840152015161016082015290565b81516001600160401b03811161066a576020916149d78984809488010161468f565b815201910190614924565b602080916149ef846146d5565b815201910190614888565b8051821015614a0e5760209160051b010190565b634e487b7160e01b5f52603260045260245ffd5b9392916147c990614a3d604093606088526060880190614587565b908682036020880152614587565b602090604051918183925191829101835e81015f815203902090565b6001546001600160a01b03169081614a7f5750505f90565b604051630f0166e160e01b81526001600160a01b03909116600482015290602090829060249082905afa90811561427b575f91614aba575090565b90506020813d602011614ae1575b81614ad5602093836143f0565b8101031261066a575190565b3d9150614ac8565b15614af057565b60405162461bcd60e51b815260206004820152600c60248201526b139bc8185c1c1b1a58d85b9d60a21b6044820152606490fd5b91908203918211614b3157565b634e487b7160e01b5f52601160045260245ffd5b91908201809211614b3157565b15614b5957565b60405162461bcd60e51b815260206004820152601860248201527710d0d51408151c985b9cd8d95a5d995c881b9bdd081cd95d60421b6044820152606490fd5b9081602091031261066a5751801515810361066a5790565b6001600160a01b039091168152602081019190915260400190565b6040919493926060820195825260208201520152565b15614be957565b60405162461bcd60e51b815260206004820152600e60248201526d125b9d985b1a5908185b5bdd5b9d60921b6044820152606490fd5b15614c2657565b60405162461bcd60e51b8152602060048201526011602482015270125b9d985b1a59081c9958da5c1a595b9d607a1b6044820152606490fd5b15614c6657565b60405162461bcd60e51b815260206004820152600f60248201526e098cadccee8d040dad2e6dac2e8c6d608b1b6044820152606490fd5b9080602083519182815201916020808360051b8301019401925f915b838310614cc857505050505090565b9091929394602080614ce6600193601f198682030187528951614587565b97019301930191939290614cb9565b90602080835192838152019201905f5b818110614d125750505090565b8251845260209384019390920191600101614d05565b9390614d739261447f9694614d48614d659360a0895260a0890190614587565b6001600160a01b0390921660208801528682036040880152614587565b908482036060860152614c9d565b916080818403910152614cf5565b6001546001600160a01b031680614dd157505f54604051635843905f60e01b81526001600160a01b0392831660048201529160209183916024918391165afa90811561427b575f91614aba575090565b6040516378359b2960e01b81526001600160a01b039092166004830152602090829060249082905afa90811561427b575f91614aba575090565b15614e1257565b60405162461bcd60e51b815260206004820152600f60248201526e496e76616c6964206164647265737360881b6044820152606490fd5b15614e5057565b606460405162461bcd60e51b815260206004820152600460248201526329b2b63360e11b6044820152fd5b90614e93602091949394604084526040840190614587565b6001600160a01b03909416910152565b6001549091906001600160a01b03168015614f51576040516378359b2960e01b81526001600160a01b039093166004840181905292602081602481855afa801561427b575f90614f1e575b60209150936024604051809481936323312a8360e01b835260048301525afa90811561427b575f91614aba575090565b506020813d602011614f49575b81614f38602093836143f0565b8101031261066a5760209051614eee565b3d9150614f2b565b505f5460408051630695173160e41b81526001600160a01b03948516600482015293909184916024918391165afa91821561427b575f905f93614f9357509190565b9250506040823d604011614fc1575b81614faf604093836143f0565b8101031261066a576020825192015190565b3d9150614fa2565b60405190614fd6826143d4565b5f610160836060815282602082015260606040820152606080820152826080820152606060a0820152606060c0820152606060e08201528261010082015282610120820152826101408201520152565b1561502d57565b60405162461bcd60e51b815260206004820152600e60248201526d139bdd08185d5d1a1bdc9a5e995960921b6044820152606490fd5b6001546001600160a01b0316908161507b5750505f90565b5f546040516306d1ab4b60e01b81529190602090839060049082906001600160a01b03165afa91821561427b575f926150ef575b509060446150bf60209383614b45565b916040519485938492630ba69e4160e41b8452600484015260248301525afa90811561427b575f91614aba575090565b91506020823d60201161511c575b8161510a602093836143f0565b8101031261066a5790519060446150af565b3d91506150fd565b600f5490818102918183041490151715614b315761271090046010548082115f1461514d575090565b905090565b6001546001600160a01b0316806151a957505f5460405163e848635560e01b81529260209284926001600160a01b031691839182916151949160048401614bb1565b03915afa90811561427b575f91614aba575090565b60405163e848635560e01b815292602092849291839182916151949160048401614bb1565b6001546001600160a01b03168061521e57505f5460405163f14db78360e01b81526001600160a01b0392831660048201529160209183916024918391165afa90811561427b575f91614aba575090565b6040516323312a8360e01b81526001600160a01b039092166004830152602090829060249082905afa90811561427b575f91614aba575090565b6001600160a01b031680156152a3575f5160206156205f395f51905f5280546001600160a01b0319811683179091556001600160a01b03165f5160206157005f395f51905f525f80a3565b631e4fbdf760e01b5f525f60045260245ffd5b5f61530e9281926152f06152e296604051978891602083019563a9059cbb60e01b875260248401614bb1565b03601f1981018852876143f0565b60018060a01b031694519082865af1615307615572565b90836155a1565b8051908115159182615336575b50506153245750565b635274afe760e01b5f5260045260245ffd5b6153499250602080918301019101614b99565b155f8061531b565b6001549091906001600160a01b0316801561550e576153975f60018060a01b0381541693604051809381926377e3240760e01b8352602060048401526024830190614587565b0381865afa90811561427b576004916020915f916154f4575b5061014001516040516306d1ab4b60e01b81526001600160a01b03909116949092839182905afa801561427b5785915f916154bc575b506084926153f75f96938793614b45565b604051978896879563ba293e0760e01b875260018060a01b031660048701526024860152604485015260648401525af1801561427b576154345750565b3d805f833e61544381836143f0565b81019060208183031261066a578051906001600160401b03821161066a570181601f8201121561066a5780519060208061547c84614495565b61548960405191826143f0565b848152019260051b82010192831161066a57602001905b8282106154ac57505050565b81518152602091820191016154a0565b949150506020843d6020116154ec575b816154d9602093836143f0565b8101031261066a579251849060846153e6565b3d91506154cc565b61550891503d805f833e6106b381836143f0565b5f6153b0565b50505050565b5f5160206156205f395f51905f52546001600160a01b0316330361553457565b63118cdaa760e01b5f523360045260245ffd5b60ff5f5160206157a05f395f51905f525460401c161561556357565b631afcd79f60e31b5f5260045ffd5b3d1561559c573d9061558382614413565b9161559160405193846143f0565b82523d5f602084013e565b606090565b906155c557508051156155b657805190602001fd5b630a12f52160e11b5f5260045ffd5b815115806155f6575b6155d6575090565b639996b31560e01b5f9081526001600160a01b0391909116600452602490fd5b50803b156155ce56fe881f9575e6bc96f2ebd076de5584e663c5e7489d82f21f00777994a223cfb0619016d09d72d40fdae2fd8ceac6b6234c7706214fd39c1cd1e609a0528c19930090048e2f7021decb3bccdc9c96fb747f7c82ca94b921ff7c7cc130daa897a6dda939d97e93c6e94641c360ee489fc68625303001132de2255a364b26627e1590beb163b9824b55e200a056e0082832866e8d8f931ba431b29b8919466a05faa5264fe7e90ee05d618ec81396b56ead08e622a37d2696239d6029610e48c3a86e360894a13ba1a3210667c828492db98dca3e2076cc3735a920a3ca505d382bbcc7649f14606d56993fd676bf6b21baf658647cc2921deec0cde7a0f2f8031c8d8be0079c531659141344cd1fd0a4f28419497f9722a3daafe3b4186f6b6457e0bc7cd75a20ee27fd9adebab32041f755214dbc6bffa90cc0225b39da2e5c2d3b6469726563742d636f6e74726163742d6175746f2d6170706c69636174696f6e68f68b90ee152498d69c44929da4e330c22f2a9cce2356deb44d690362f3d0b9a71f1661a883ae6cc97d4b6c49515c53bc3ad70681a1cdf669785aca9356ee27f0c57e16840df040f15088dc2f81fe391c3923bec73e23a9662efc9c229c6a00799bd8ebd9dd237a3fdfa8abd96d3f80ad584603a8e4a943e7cfc01dbd7fead9a2646970667358221220db54673d9ac5a69c84b6dbdaf9a676983e51aa574889151c39fbb0f111bda0e564736f6c63430008210033f0c57e16840df040f15088dc2f81fe391c3923bec73e23a9662efc9c229c6a00","linkReferences":{}},"methodIdentifiers":{"UPGRADE_INTERFACE_VERSION()":"ad3cb1cc","accumulatedCommission()":"ae693673","addAuthorizedContract(address)":"98eaa4a7","admins(address)":"429b62e5","applyToJob(address,string,string,string[],uint256[],uint32)":"fc5dee81","authorizedContracts(address)":"d5b9221b","bridge()":"e78cea92","calculateCommission(uint256)":"ce9b4321","calculateTokensForAmount(address,uint256)":"94928b84","cctpReceiver()":"6c2db78f","cctpTransceiver()":"23dc878c","commissionPercentage()":"d575fe64","genesis()":"a7f0b3de","getJob(string)":"77e32407","getUserEarnedTokens(address)":"5843905f","getUserGovernanceActions(address)":"f14db783","getUserGovernanceActionsInBand(address,uint256)":"e8486355","getUserRewardInfo(address)":"69517310","handleReleasePaymentCrossChain(address,string,uint256,uint32,address)":"e4e2a856","handleStartDirectContract(address,address,string,string,string[],uint256[],uint32)":"6009b51f","handleUpdateUserClaimData(address,uint256)":"b9acee1d","incrementGovernanceAction(address)":"99f426be","initialize(address,address,address,address,address,address)":"cc2a9a5b","isAuthorizedContract(address)":"66d0ead3","jobApplicantChainDomain(string,address)":"29f8d96d","lockNextMilestone(address,string,uint256)":"f4f5d3c7","minCommission()":"eca688ea","nativeAthena()":"dc209f13","nativeDAO()":"687694ae","owner()":"8da5cb5b","postJob(string,address,string,string[],uint256[])":"42b0f652","proxiableUUID()":"52d1902d","releaseDisputedFunds(address,uint256,uint32)":"301f8257","releasePayment(address,string,uint256)":"9110e031","releasePaymentAndLockNext(address,string,uint256,uint256)":"1277bbf8","removeAuthorizedContract(address)":"e6b165ed","renounceOwnership()":"715018a6","rewardsContract()":"220cce97","setAdmin(address,bool)":"4b0bddd2","setApplicantChainDomain(string,address,uint32)":"c088797b","setBridge(address)":"8dd14802","setCCTPReceiver(address)":"d6e3c76a","setCCTPTransceiver(address)":"e4a9d8ee","setCommissionPercentage(uint256)":"39b87c8f","setGenesis(address)":"eb14b353","setMinCommission(uint256)":"de8fd3af","setNativeAthena(address)":"4efac43f","setNativeDAO(address)":"a2f7cb26","setRewardsContract(address)":"dfa0dfa5","setTreasury(address)":"f0f44260","setUsdcToken(address)":"5d886f22","startJob(address,string,uint256,bool)":"09d6667e","submitWork(address,string,string)":"ba245963","syncRewardsData(bytes)":"87e821d6","teamTokensAllocated(address)":"0f0166e1","transferOwnership(address)":"f2fde38b","treasury()":"61d027b3","upgradeFromDAO(address)":"40634e3b","upgradeToAndCall(address,bytes)":"4f1ef286","usdcToken()":"11eac855","withdrawAllCommission()":"f27bf0bf","withdrawCommission(uint256)":"17face84"},"id":18}