{"abi":[{"type":"constructor","inputs":[],"stateMutability":"nonpayable"},{"type":"function","name":"UPGRADE_INTERFACE_VERSION","inputs":[],"outputs":[{"name":"","type":"string","internalType":"string"}],"stateMutability":"view"},{"type":"function","name":"askAthena","inputs":[{"name":"_description","type":"string","internalType":"string"},{"name":"_hash","type":"string","internalType":"string"},{"name":"_targetOracle","type":"string","internalType":"string"},{"name":"_feeAmount","type":"uint256","internalType":"uint256"}],"outputs":[],"stateMutability":"nonpayable"},{"type":"function","name":"emergencyWithdrawUSDC","inputs":[],"outputs":[],"stateMutability":"nonpayable"},{"type":"function","name":"getContractBalance","inputs":[],"outputs":[{"name":"","type":"uint256","internalType":"uint256"}],"stateMutability":"view"},{"type":"function","name":"initialize","inputs":[{"name":"_owner","type":"address","internalType":"address"},{"name":"_usdcToken","type":"address","internalType":"address"},{"name":"_nativeAthena","type":"address","internalType":"address"},{"name":"_jobContract","type":"address","internalType":"address"}],"outputs":[],"stateMutability":"nonpayable"},{"type":"function","name":"isCallerInvolvedInJob","inputs":[{"name":"_jobId","type":"string","internalType":"string"},{"name":"_caller","type":"address","internalType":"address"}],"outputs":[{"name":"","type":"bool","internalType":"bool"}],"stateMutability":"view"},{"type":"function","name":"jobContract","inputs":[],"outputs":[{"name":"","type":"address","internalType":"contract ILocalOpenWorkJobContract"}],"stateMutability":"view"},{"type":"function","name":"jobDisputeExists","inputs":[{"name":"","type":"string","internalType":"string"}],"outputs":[{"name":"","type":"bool","internalType":"bool"}],"stateMutability":"view"},{"type":"function","name":"minDisputeFee","inputs":[],"outputs":[{"name":"","type":"uint256","internalType":"uint256"}],"stateMutability":"view"},{"type":"function","name":"nativeAthena","inputs":[],"outputs":[{"name":"","type":"address","internalType":"contract INativeAthena"}],"stateMutability":"view"},{"type":"function","name":"owner","inputs":[],"outputs":[{"name":"","type":"address","internalType":"address"}],"stateMutability":"view"},{"type":"function","name":"proxiableUUID","inputs":[],"outputs":[{"name":"","type":"bytes32","internalType":"bytes32"}],"stateMutability":"view"},{"type":"function","name":"raiseDispute","inputs":[{"name":"_jobId","type":"string","internalType":"string"},{"name":"_disputeHash","type":"string","internalType":"string"},{"name":"_oracleName","type":"string","internalType":"string"},{"name":"_feeAmount","type":"uint256","internalType":"uint256"},{"name":"_disputedAmount","type":"uint256","internalType":"uint256"}],"outputs":[],"stateMutability":"nonpayable"},{"type":"function","name":"renounceOwnership","inputs":[],"outputs":[],"stateMutability":"nonpayable"},{"type":"function","name":"setJobContract","inputs":[{"name":"_jobContract","type":"address","internalType":"address"}],"outputs":[],"stateMutability":"nonpayable"},{"type":"function","name":"setMinDisputeFee","inputs":[{"name":"_minFee","type":"uint256","internalType":"uint256"}],"outputs":[],"stateMutability":"nonpayable"},{"type":"function","name":"setNativeAthena","inputs":[{"name":"_nativeAthena","type":"address","internalType":"address"}],"outputs":[],"stateMutability":"nonpayable"},{"type":"function","name":"setUSDCToken","inputs":[{"name":"_newToken","type":"address","internalType":"address"}],"outputs":[],"stateMutability":"nonpayable"},{"type":"function","name":"submitSkillVerification","inputs":[{"name":"_applicationHash","type":"string","internalType":"string"},{"name":"_feeAmount","type":"uint256","internalType":"uint256"},{"name":"_targetOracleName","type":"string","internalType":"string"}],"outputs":[],"stateMutability":"nonpayable"},{"type":"function","name":"transferOwnership","inputs":[{"name":"newOwner","type":"address","internalType":"address"}],"outputs":[],"stateMutability":"nonpayable"},{"type":"function","name":"upgradeToAndCall","inputs":[{"name":"newImplementation","type":"address","internalType":"address"},{"name":"data","type":"bytes","internalType":"bytes"}],"outputs":[],"stateMutability":"payable"},{"type":"function","name":"usdcToken","inputs":[],"outputs":[{"name":"","type":"address","internalType":"contract IERC20"}],"stateMutability":"view"},{"type":"function","name":"withdraw","inputs":[],"outputs":[],"stateMutability":"nonpayable"},{"type":"event","name":"AthenaAsked","inputs":[{"name":"caller","type":"address","indexed":true,"internalType":"address"},{"name":"targetOracle","type":"string","indexed":false,"internalType":"string"},{"name":"feeAmount","type":"uint256","indexed":false,"internalType":"uint256"}],"anonymous":false},{"type":"event","name":"DisputeRaised","inputs":[{"name":"caller","type":"address","indexed":true,"internalType":"address"},{"name":"jobId","type":"string","indexed":false,"internalType":"string"},{"name":"feeAmount","type":"uint256","indexed":false,"internalType":"uint256"}],"anonymous":false},{"type":"event","name":"Initialized","inputs":[{"name":"version","type":"uint64","indexed":false,"internalType":"uint64"}],"anonymous":false},{"type":"event","name":"JobContractSet","inputs":[{"name":"jobContract","type":"address","indexed":true,"internalType":"address"}],"anonymous":false},{"type":"event","name":"MinDisputeFeeSet","inputs":[{"name":"newMinFee","type":"uint256","indexed":false,"internalType":"uint256"}],"anonymous":false},{"type":"event","name":"NativeAthenaSet","inputs":[{"name":"nativeAthena","type":"address","indexed":true,"internalType":"address"}],"anonymous":false},{"type":"event","name":"OwnershipTransferred","inputs":[{"name":"previousOwner","type":"address","indexed":true,"internalType":"address"},{"name":"newOwner","type":"address","indexed":true,"internalType":"address"}],"anonymous":false},{"type":"event","name":"SkillVerificationSubmitted","inputs":[{"name":"caller","type":"address","indexed":true,"internalType":"address"},{"name":"targetOracleName","type":"string","indexed":false,"internalType":"string"},{"name":"feeAmount","type":"uint256","indexed":false,"internalType":"uint256"}],"anonymous":false},{"type":"event","name":"Upgraded","inputs":[{"name":"implementation","type":"address","indexed":true,"internalType":"address"}],"anonymous":false},{"type":"error","name":"AddressEmptyCode","inputs":[{"name":"target","type":"address","internalType":"address"}]},{"type":"error","name":"AddressInsufficientBalance","inputs":[{"name":"account","type":"address","internalType":"address"}]},{"type":"error","name":"ERC1967InvalidImplementation","inputs":[{"name":"implementation","type":"address","internalType":"address"}]},{"type":"error","name":"ERC1967NonPayable","inputs":[]},{"type":"error","name":"FailedInnerCall","inputs":[]},{"type":"error","name":"InvalidInitialization","inputs":[]},{"type":"error","name":"NotInitializing","inputs":[]},{"type":"error","name":"OwnableInvalidOwner","inputs":[{"name":"owner","type":"address","internalType":"address"}]},{"type":"error","name":"OwnableUnauthorizedAccount","inputs":[{"name":"account","type":"address","internalType":"address"}]},{"type":"error","name":"ReentrancyGuardReentrantCall","inputs":[]},{"type":"error","name":"SafeERC20FailedOperation","inputs":[{"name":"token","type":"address","internalType":"address"}]},{"type":"error","name":"UUPSUnauthorizedCallContext","inputs":[]},{"type":"error","name":"UUPSUnsupportedProxiableUUID","inputs":[{"name":"slot","type":"bytes32","internalType":"bytes32"}]}],"bytecode":{"object":"0x60a080604052346100c257306080525f516020611ba45f395f51905f525460ff8160401c166100b3576002600160401b03196001600160401b03821601610060575b604051611add90816100c78239608051818181610a9a0152610c4d0152f35b6001600160401b0319166001600160401b039081175f516020611ba45f395f51905f525581527fc7f505b2f371ae2175ee4913f4499e1f2633a7b5936321eed1cdaeb6115181d290602090a15f80610041565b63f92ee8a960e01b5f5260045ffd5b5f80fdfe60806040526004361015610011575f80fd5b5f5f3560e01c80630f5a9d0114610fe357806311eac85514610fbc5780632dcd8c5e14610f705780633ccfd60b14610ef65780634e80f72014610e9c5780634efac43f14610e2f5780634f1ef28614610bff5780634fef148814610aee57806352d1902d14610a885780635bb11f1614610a6b5780636751aaa7146108d15780636f9fb98a14610839578063715018a6146107e3578063893ebc21146106a45780638da5cb5b1461066f578063ad3cb1cc14610622578063af076fed146105d4578063afd86a76146105ab578063d13a668a146103c4578063dc209f131461039b578063f2fde38b14610373578063f8c8765e146101885763fad58b2114610117575f80fd5b346101855760203660031901126101855761013061102d565b610138611718565b6001600160a01b031661014c811515611123565b600280546001600160a01b031916821790557f304494bf425d372cd4944eb07ea90d9dc4c10a7b83cf5963382ef35e5220974f8280a280f35b80fd5b5034610185576080366003190112610185576101a261102d565b6101aa611043565b6044356001600160a01b0381169081900361036f576064356001600160a01b038116929083900361036b575f516020611a885f395f51905f5254604081901c60ff161594906001600160401b03811680159081610363575b6001149081610359575b159081610350575b50610341576001600160401b031981166001175f516020611a885f395f51905f5255610278919086610319575b5061024a61194f565b61025261194f565b60015f516020611a685f395f51905f525561026b61194f565b61027361194f565b6116ba565b61028061194f565b84546001600160a01b03919091166001600160a01b031991821617855560018054821692909217909155600280549091169190911790556302faf0806003556102c65780f35b60ff60401b195f516020611a885f395f51905f5254165f516020611a885f395f51905f52557fc7f505b2f371ae2175ee4913f4499e1f2633a7b5936321eed1cdaeb6115181d2602060405160018152a180f35b6001600160481b0319166001600160401b01175f516020611a885f395f51905f52555f610241565b63f92ee8a960e01b8752600487fd5b9050155f610214565b303b15915061020c565b879150610202565b8480fd5b8380fd5b50346101855760203660031901126101855761039861039061102d565b610273611718565b80f35b50346101855780600319360112610185576001546040516001600160a01b039091168152602090f35b50346101855760a0366003190112610185576004356001600160401b0381116105a7576103f59036906004016110e1565b6024356001600160401b038111610598576104149036906004016110e1565b826044356001600160401b0381116105a7576104349036906004016110e1565b916064359261044161174b565b61044c84151561115e565b600254610463906001600160a01b031615156111b8565b82546001546104829186916001600160a01b0390811691339116611783565b604051602081875180838a01835e600490820190815203019020805460ff19166001908117909155546001600160a01b031691823b1561036f57604051630a2724d960e11b815260c06004820152928492849283918591839161051491610502906104f060c486018f6110ff565b858103600319016024870152906110ff565b838103600319016044850152906110ff565b89606483015260843560848301523360a483015203925af1801561059c57610583575b505061056c7fd4882c6b71dfbb8df0a01fa4cd97676f243a56dd525df6b891b2e1700e514e899160405191829133958361119c565b0390a260015f516020611a685f395f51905f525580f35b8161058d91611059565b61059857825f610537565b8280fd5b6040513d84823e3d90fd5b5080fd5b50346101855780600319360112610185576002546040516001600160a01b039091168152602090f35b503461018557604036600319011261018557600435906001600160401b03821161018557602061061861060a36600486016110e1565b610612611043565b90611335565b6040519015158152f35b50346101855780600319360112610185575061066b604051610645604082611059565b60058152640352e302e360dc1b60208201526040519182916020835260208301906110ff565b0390f35b50346101855780600319360112610185575f516020611a085f395f51905f52546040516001600160a01b039091168152602090f35b5034610185576060366003190112610185576004356001600160401b0381116105a7576106d59036906004016110e1565b602435826044356001600160401b0381116105a7576106f89036906004016110e1565b9261070161174b565b61070c83151561115e565b815460015461072b9185916001600160a01b0390811691339116611783565b6001546001600160a01b0316803b1561059857610772839161078a9383604051809681958294635c877f1760e11b84523360048501526080602485015260848401906110ff565b8a60448401526003198382030160648401528b6110ff565b03925af1801561059c576107ce575b505061056c7f57a19a14e05f795127118ced839213d8dc4e0ba006d3f26bdaa6326ece9780c19160405191829133958361119c565b816107d891611059565b61059857825f610799565b50346101855780600319360112610185576107fc611718565b5f516020611a085f395f51905f5280546001600160a01b0319811690915581906001600160a01b03165f516020611a485f395f51905f528280a380f35b503461018557806003193601126101855780546040516370a0823160e01b81523060048201529190602090839060249082906001600160a01b03165afa9081156108c5579061088e575b602090604051908152f35b506020813d6020116108bd575b816108a860209383611059565b810103126108b95760209051610883565b5f80fd5b3d915061089b565b604051903d90823e3d90fd5b50346108b95760803660031901126108b9576004356001600160401b0381116108b9576109029036906004016110e1565b6024356001600160401b0381116108b9576109219036906004016110e1565b6044356001600160401b0381116108b9576109409036906004016110e1565b916064359161094d61174b565b61095883151561115e565b5f546001546109779185916001600160a01b0390811691339116611783565b6001546001600160a01b03169061098d846117c9565b91803b156108b9576109d05f6109e295610a0682966109f4604051998a9889978896630e10dea960e31b885233600489015260a0602489015260a48801906110ff565b868103600319016044880152906110ff565b8481036003190160648601528c6110ff565b838103600319016084850152906110ff565b03925af18015610a6057610a49575b5061056c7f197d18d93525bf8291b812976e0bee94d5ac86a17b09253f33d1d5a4cd5fa6309160405191829133958361119c565b610a569193505f90611059565b5f9161056c610a15565b6040513d5f823e3d90fd5b346108b9575f3660031901126108b9576020600354604051908152f35b346108b9575f3660031901126108b9577f00000000000000000000000000000000000000000000000000000000000000006001600160a01b03163003610adf5760206040515f516020611a285f395f51905f528152f35b63703e46dd60e11b5f5260045ffd5b346108b9575f3660031901126108b957610b06611718565b5f546040516370a0823160e01b81523060048201526001600160a01b0390911690602081602481855afa908115610a60575f91610bcd575b508015610b96575f516020611a085f395f51905f525460405163a9059cbb60e01b60208201526001600160a01b039091166024820152604480820192909252908152610b9491610b8f606483611059565b6118db565b005b60405162461bcd60e51b815260206004820152600f60248201526e4e6f20555344432062616c616e636560881b6044820152606490fd5b90506020813d602011610bf7575b81610be860209383611059565b810103126108b9575182610b3e565b3d9150610bdb565b60403660031901126108b957610c1361102d565b6024356001600160401b0381116108b957366023820112156108b957610c439036906024816004013591016110ab565b6001600160a01b037f000000000000000000000000000000000000000000000000000000000000000016308114908115610e0d575b50610adf575f516020611a085f395f51905f52546001600160a01b03163303610dd1576040516352d1902d60e01b81526001600160a01b0383169290602081600481875afa5f9181610d9d575b50610cdd5783634c9c8ce360e01b5f5260045260245ffd5b805f516020611a285f395f51905f52859203610d8b5750813b15610d79575f516020611a285f395f51905f5280546001600160a01b031916821790557fbc7cd75a20ee27fd9adebab32041f755214dbc6bffa90cc0225b39da2e5c2d3b5f80a2815115610d61575f80836020610b9495519101845af4610d5b61197a565b916119a9565b505034610d6a57005b63b398979f60e01b5f5260045ffd5b634c9c8ce360e01b5f5260045260245ffd5b632a87526960e21b5f5260045260245ffd5b9091506020813d602011610dc9575b81610db960209383611059565b810103126108b957519085610cc5565b3d9150610dac565b60405162461bcd60e51b8152602060048201526014602482015273556e617574686f72697a6564207570677261646560601b6044820152606490fd5b5f516020611a285f395f51905f52546001600160a01b03161415905083610c78565b346108b95760203660031901126108b957610e4861102d565b610e50611718565b6001600160a01b0316610e64811515611123565b600180546001600160a01b031916821790557f97576c6a1664aeed3a860d271f8c21f5be9e39372cd70cc40d930153796aa8605f80a2005b346108b95760203660031901126108b9576004356001600160401b0381116108b95760ff602080610ed2819436906004016110e1565b604051928184925191829101835e8101600481520301902054166040519015158152f35b346108b9575f3660031901126108b957610f0e611718565b478015610f3e575f516020611a085f395f51905f52545f918291829182916001600160a01b031682f115610a6057005b60405162461bcd60e51b815260206004820152600a6024820152694e6f2062616c616e636560b01b6044820152606490fd5b346108b95760203660031901126108b9577f17ae1dabd8883d761135b7f80925a40a4ea0f01e7cd58ecfcb80cc2eac048c7c6020600435610faf611718565b80600355604051908152a1005b346108b9575f3660031901126108b9575f546040516001600160a01b039091168152602090f35b346108b95760203660031901126108b957610ffc61102d565b611004611718565b6001600160a01b0316611018811515611123565b5f80546001600160a01b031916919091179055005b600435906001600160a01b03821682036108b957565b602435906001600160a01b03821682036108b957565b601f909101601f19168101906001600160401b0382119082101761107c57604052565b634e487b7160e01b5f52604160045260245ffd5b6001600160401b03811161107c57601f01601f191660200190565b9291926110b782611090565b916110c56040519384611059565b8294818452818301116108b9578281602093845f960137010152565b9080601f830112156108b9578160206110fc933591016110ab565b90565b805180835260209291819084018484015e5f828201840152601f01601f1916010190565b1561112a57565b60405162461bcd60e51b815260206004820152600c60248201526b5a65726f206164647265737360a01b6044820152606490fd5b1561116557565b60405162461bcd60e51b815260206004820152600f60248201526e0466565206d757374206265203e203608c1b6044820152606490fd5b9291906111b36020916040865260408601906110ff565b930152565b156111bf57565b60405162461bcd60e51b8152602060048201526014602482015273129bd88818dbdb9d1c9858dd081b9bdd081cd95d60621b6044820152606490fd5b81601f820112156108b95780519061121282611090565b926112206040519485611059565b828452602083830101116108b957815f9260208093018386015e8301015290565b51906001600160a01b03821682036108b957565b6001600160401b03811161107c5760051b60200190565b81601f820112156108b95780519061128382611255565b926112916040519485611059565b82845260208085019360051b830101918183116108b95760208101935b8385106112bd57505050505090565b84516001600160401b0381116108b95782016040818503601f1901126108b95760408051929083016001600160401b0381118482101761107c576040526020820151926001600160401b0384116108b9576040836113228860208098819801016111fb565b83520151838201528152019401936112ae565b60025461137692915f916001600160a01b03166113538115156111b8565b60405180809681946377e3240760e01b83526020600484015260248301906110ff565b03915afa918215610a60575f92611440575b50815151156113c45760208201516001600160a01b03918216911681148015611429575b611422576080820151600481101561140e57156113ca575b50505f90565b5f5b6040830151805182101561140357600582901b01602001516001600160a01b031682146113fb576001016113cc565b505050600190565b505050505f806113c4565b634e487b7160e01b5f52602160045260245ffd5b5050600190565b506101608201516001600160a01b031681146113ac565b9091503d805f833e6114528183611059565b8101906020818303126108b9578051906001600160401b0382116108b95701906101e0828203126108b957604051916101e083016001600160401b0381118482101761107c5760405280516001600160401b0381116108b957826114b79183016111fb565b83526114c560208201611241565b602084015260408101516001600160401b0381116108b957810182601f820112156108b9578051906114f682611255565b916115046040519384611059565b80835260208084019160051b830101918583116108b957602001905b8282106116a257505050604084015260608101516001600160401b0381116108b9578261154e9183016111fb565b6060840152608081015160048110156108b957608084015260a08101516001600160401b0381116108b957810182601f820112156108b957805161159181611255565b9161159f6040519384611059565b81835260208084019260051b820101918583116108b95760208201905b838210611675575050505060a084015260c08101516001600160401b0381116108b957826115eb91830161126c565b60c084015260e08101516001600160401b0381116108b9576101c09261161291830161126c565b60e08401526101008101516101008401526101208101516101208401526101408101516101408401526116486101608201611241565b6101608401526101808101516101808401526101a08101516101a084015201516101c0820152905f611388565b81516001600160401b0381116108b957602091611697898480948801016111fb565b8152019101906115bc565b602080916116af84611241565b815201910190611520565b6001600160a01b03168015611705575f516020611a085f395f51905f5280546001600160a01b0319811683179091556001600160a01b03165f516020611a485f395f51905f525f80a3565b631e4fbdf760e01b5f525f60045260245ffd5b5f516020611a085f395f51905f52546001600160a01b0316330361173857565b63118cdaa760e01b5f523360045260245ffd5b60025f516020611a685f395f51905f5254146117745760025f516020611a685f395f51905f5255565b633ee5aeb560e01b5f5260045ffd5b6040516323b872dd60e01b60208201526001600160a01b0392831660248201529290911660448301526064808301939093529181526117c791610b8f608483611059565b565b9081156118ba579080815f925b61189d57506117e482611090565b916117f26040519384611059565b808352601f1961180182611090565b01366020850137905b818115611897575f1983019283116118835782600a830492600a8402848104600a14851517156118835781039081116118835760ff166030019060ff8211611883578551111561186f5760f81b6001600160f81b0319165f1a908401601f015361180a565b634e487b7160e01b5f52603260045260245ffd5b634e487b7160e01b5f52601160045260245ffd5b50505090565b909290915f198114611883576001600a91019204809391936117d6565b90506040516118ca604082611059565b60018152600360fc1b602082015290565b5f806119039260018060a01b03169360208151910182865af16118fc61197a565b90836119a9565b805190811515918261192b575b50506119195750565b635274afe760e01b5f5260045260245ffd5b81925090602091810103126108b957602001518015908115036108b9575f80611910565b60ff5f516020611a885f395f51905f525460401c161561196b57565b631afcd79f60e31b5f5260045ffd5b3d156119a4573d9061198b82611090565b916119996040519384611059565b82523d5f602084013e565b606090565b906119cd57508051156119be57805190602001fd5b630a12f52160e11b5f5260045ffd5b815115806119fe575b6119de575090565b639996b31560e01b5f9081526001600160a01b0391909116600452602490fd5b50803b156119d656fe9016d09d72d40fdae2fd8ceac6b6234c7706214fd39c1cd1e609a0528c199300360894a13ba1a3210667c828492db98dca3e2076cc3735a920a3ca505d382bbc8be0079c531659141344cd1fd0a4f28419497f9722a3daafe3b4186f6b6457e09b779b17422d0df92223018b32b4d1fa46e071723d6817e2486d003becc55f00f0c57e16840df040f15088dc2f81fe391c3923bec73e23a9662efc9c229c6a00a2646970667358221220a3284956007e83639b3f6b669df8e8d82470026f863546c8c8755449a2262bc464736f6c63430008210033f0c57e16840df040f15088dc2f81fe391c3923bec73e23a9662efc9c229c6a00","linkReferences":{}},"methodIdentifiers":{"UPGRADE_INTERFACE_VERSION()":"ad3cb1cc","askAthena(string,string,string,uint256)":"6751aaa7","emergencyWithdrawUSDC()":"4fef1488","getContractBalance()":"6f9fb98a","initialize(address,address,address,address)":"f8c8765e","isCallerInvolvedInJob(string,address)":"af076fed","jobContract()":"afd86a76","jobDisputeExists(string)":"4e80f720","minDisputeFee()":"5bb11f16","nativeAthena()":"dc209f13","owner()":"8da5cb5b","proxiableUUID()":"52d1902d","raiseDispute(string,string,string,uint256,uint256)":"d13a668a","renounceOwnership()":"715018a6","setJobContract(address)":"fad58b21","setMinDisputeFee(uint256)":"2dcd8c5e","setNativeAthena(address)":"4efac43f","setUSDCToken(address)":"0f5a9d01","submitSkillVerification(string,uint256,string)":"893ebc21","transferOwnership(address)":"f2fde38b","upgradeToAndCall(address,bytes)":"4f1ef286","usdcToken()":"11eac855","withdraw()":"3ccfd60b"},"id":94}