{"abi":[{"type":"constructor","inputs":[{"name":"_genesis","type":"address","internalType":"address"}],"stateMutability":"nonpayable"},{"type":"function","name":"genesis","inputs":[],"outputs":[{"name":"","type":"address","internalType":"contract IOpenworkGenesis"}],"stateMutability":"view"},{"type":"function","name":"getActiveAskAthenaApplications","inputs":[],"outputs":[{"name":"","type":"tuple[]","internalType":"struct IOpenworkGenesis.AskAthenaApplication[]","components":[{"name":"id","type":"uint256","internalType":"uint256"},{"name":"applicant","type":"address","internalType":"address"},{"name":"description","type":"string","internalType":"string"},{"name":"hash","type":"string","internalType":"string"},{"name":"targetOracle","type":"string","internalType":"string"},{"name":"fees","type":"string","internalType":"string"},{"name":"votesFor","type":"uint256","internalType":"uint256"},{"name":"votesAgainst","type":"uint256","internalType":"uint256"},{"name":"isVotingActive","type":"bool","internalType":"bool"},{"name":"timeStamp","type":"uint256","internalType":"uint256"},{"name":"result","type":"bool","internalType":"bool"},{"name":"isFinalized","type":"bool","internalType":"bool"}]}],"stateMutability":"view"},{"type":"function","name":"getActiveDisputes","inputs":[],"outputs":[{"name":"","type":"tuple[]","internalType":"struct IOpenworkGenesis.Dispute[]","components":[{"name":"jobId","type":"string","internalType":"string"},{"name":"disputedAmount","type":"uint256","internalType":"uint256"},{"name":"hash","type":"string","internalType":"string"},{"name":"disputeRaiserAddress","type":"address","internalType":"address"},{"name":"votesFor","type":"uint256","internalType":"uint256"},{"name":"votesAgainst","type":"uint256","internalType":"uint256"},{"name":"result","type":"bool","internalType":"bool"},{"name":"isVotingActive","type":"bool","internalType":"bool"},{"name":"isFinalized","type":"bool","internalType":"bool"},{"name":"timeStamp","type":"uint256","internalType":"uint256"},{"name":"fees","type":"uint256","internalType":"uint256"}]}],"stateMutability":"view"},{"type":"function","name":"getActiveSkillApplications","inputs":[],"outputs":[{"name":"","type":"tuple[]","internalType":"struct IOpenworkGenesis.SkillVerificationApplication[]","components":[{"name":"id","type":"uint256","internalType":"uint256"},{"name":"applicant","type":"address","internalType":"address"},{"name":"applicationHash","type":"string","internalType":"string"},{"name":"feeAmount","type":"uint256","internalType":"uint256"},{"name":"targetOracleName","type":"string","internalType":"string"},{"name":"votesFor","type":"uint256","internalType":"uint256"},{"name":"votesAgainst","type":"uint256","internalType":"uint256"},{"name":"isVotingActive","type":"bool","internalType":"bool"},{"name":"timeStamp","type":"uint256","internalType":"uint256"},{"name":"result","type":"bool","internalType":"bool"},{"name":"isFinalized","type":"bool","internalType":"bool"}]}],"stateMutability":"view"},{"type":"function","name":"getAllAskAthenaIds","inputs":[],"outputs":[{"name":"","type":"uint256[]","internalType":"uint256[]"}],"stateMutability":"view"},{"type":"function","name":"getAllDisputeIds","inputs":[],"outputs":[{"name":"","type":"string[]","internalType":"string[]"}],"stateMutability":"view"},{"type":"function","name":"getAllJobApplications","inputs":[],"outputs":[{"name":"","type":"tuple[]","internalType":"struct IOpenworkGenesis.Application[]","components":[{"name":"id","type":"uint256","internalType":"uint256"},{"name":"jobId","type":"string","internalType":"string"},{"name":"applicant","type":"address","internalType":"address"},{"name":"applicationHash","type":"string","internalType":"string"},{"name":"proposedMilestones","type":"tuple[]","internalType":"struct IOpenworkGenesis.MilestonePayment[]","components":[{"name":"descriptionHash","type":"string","internalType":"string"},{"name":"amount","type":"uint256","internalType":"uint256"}]},{"name":"preferredPaymentChainDomain","type":"uint32","internalType":"uint32"},{"name":"preferredPaymentAddress","type":"address","internalType":"address"}]}],"stateMutability":"view"},{"type":"function","name":"getAllSkillApplicationIds","inputs":[],"outputs":[{"name":"","type":"uint256[]","internalType":"uint256[]"}],"stateMutability":"view"},{"type":"function","name":"getApplicationsByApplicant","inputs":[{"name":"applicant","type":"address","internalType":"address"}],"outputs":[{"name":"","type":"tuple[]","internalType":"struct IOpenworkGenesis.Application[]","components":[{"name":"id","type":"uint256","internalType":"uint256"},{"name":"jobId","type":"string","internalType":"string"},{"name":"applicant","type":"address","internalType":"address"},{"name":"applicationHash","type":"string","internalType":"string"},{"name":"proposedMilestones","type":"tuple[]","internalType":"struct IOpenworkGenesis.MilestonePayment[]","components":[{"name":"descriptionHash","type":"string","internalType":"string"},{"name":"amount","type":"uint256","internalType":"uint256"}]},{"name":"preferredPaymentChainDomain","type":"uint32","internalType":"uint32"},{"name":"preferredPaymentAddress","type":"address","internalType":"address"}]}],"stateMutability":"view"},{"type":"function","name":"getApplicationsByJob","inputs":[{"name":"jobId","type":"string","internalType":"string"}],"outputs":[{"name":"","type":"tuple[]","internalType":"struct IOpenworkGenesis.Application[]","components":[{"name":"id","type":"uint256","internalType":"uint256"},{"name":"jobId","type":"string","internalType":"string"},{"name":"applicant","type":"address","internalType":"address"},{"name":"applicationHash","type":"string","internalType":"string"},{"name":"proposedMilestones","type":"tuple[]","internalType":"struct IOpenworkGenesis.MilestonePayment[]","components":[{"name":"descriptionHash","type":"string","internalType":"string"},{"name":"amount","type":"uint256","internalType":"uint256"}]},{"name":"preferredPaymentChainDomain","type":"uint32","internalType":"uint32"},{"name":"preferredPaymentAddress","type":"address","internalType":"address"}]}],"stateMutability":"view"},{"type":"function","name":"getAskAthenaApplicationsBatch","inputs":[{"name":"startIndex","type":"uint256","internalType":"uint256"},{"name":"count","type":"uint256","internalType":"uint256"}],"outputs":[{"name":"","type":"uint256[]","internalType":"uint256[]"}],"stateMutability":"view"},{"type":"function","name":"getAskAthenaCount","inputs":[],"outputs":[{"name":"","type":"uint256","internalType":"uint256"}],"stateMutability":"view"},{"type":"function","name":"getDisputesBatch","inputs":[{"name":"startIndex","type":"uint256","internalType":"uint256"},{"name":"count","type":"uint256","internalType":"uint256"}],"outputs":[{"name":"","type":"string[]","internalType":"string[]"}],"stateMutability":"view"},{"type":"function","name":"getInProgressJobs","inputs":[],"outputs":[{"name":"","type":"tuple[]","internalType":"struct IOpenworkGenesis.Job[]","components":[{"name":"id","type":"string","internalType":"string"},{"name":"jobGiver","type":"address","internalType":"address"},{"name":"applicants","type":"address[]","internalType":"address[]"},{"name":"jobDetailHash","type":"string","internalType":"string"},{"name":"status","type":"uint8","internalType":"enum IOpenworkGenesis.JobStatus"},{"name":"workSubmissions","type":"string[]","internalType":"string[]"},{"name":"milestonePayments","type":"tuple[]","internalType":"struct IOpenworkGenesis.MilestonePayment[]","components":[{"name":"descriptionHash","type":"string","internalType":"string"},{"name":"amount","type":"uint256","internalType":"uint256"}]},{"name":"finalMilestones","type":"tuple[]","internalType":"struct IOpenworkGenesis.MilestonePayment[]","components":[{"name":"descriptionHash","type":"string","internalType":"string"},{"name":"amount","type":"uint256","internalType":"uint256"}]},{"name":"totalPaid","type":"uint256","internalType":"uint256"},{"name":"currentMilestone","type":"uint256","internalType":"uint256"},{"name":"selectedApplicant","type":"address","internalType":"address"},{"name":"selectedApplicationId","type":"uint256","internalType":"uint256"}]}],"stateMutability":"view"},{"type":"function","name":"getJobsByPosterWithStatus","inputs":[{"name":"poster","type":"address","internalType":"address"},{"name":"status","type":"uint8","internalType":"enum IOpenworkGenesis.JobStatus"}],"outputs":[{"name":"","type":"tuple[]","internalType":"struct IOpenworkGenesis.Job[]","components":[{"name":"id","type":"string","internalType":"string"},{"name":"jobGiver","type":"address","internalType":"address"},{"name":"applicants","type":"address[]","internalType":"address[]"},{"name":"jobDetailHash","type":"string","internalType":"string"},{"name":"status","type":"uint8","internalType":"enum IOpenworkGenesis.JobStatus"},{"name":"workSubmissions","type":"string[]","internalType":"string[]"},{"name":"milestonePayments","type":"tuple[]","internalType":"struct IOpenworkGenesis.MilestonePayment[]","components":[{"name":"descriptionHash","type":"string","internalType":"string"},{"name":"amount","type":"uint256","internalType":"uint256"}]},{"name":"finalMilestones","type":"tuple[]","internalType":"struct IOpenworkGenesis.MilestonePayment[]","components":[{"name":"descriptionHash","type":"string","internalType":"string"},{"name":"amount","type":"uint256","internalType":"uint256"}]},{"name":"totalPaid","type":"uint256","internalType":"uint256"},{"name":"currentMilestone","type":"uint256","internalType":"uint256"},{"name":"selectedApplicant","type":"address","internalType":"address"},{"name":"selectedApplicationId","type":"uint256","internalType":"uint256"}]}],"stateMutability":"view"},{"type":"function","name":"getJobsByStatus","inputs":[{"name":"status","type":"uint8","internalType":"enum IOpenworkGenesis.JobStatus"}],"outputs":[{"name":"","type":"tuple[]","internalType":"struct IOpenworkGenesis.Job[]","components":[{"name":"id","type":"string","internalType":"string"},{"name":"jobGiver","type":"address","internalType":"address"},{"name":"applicants","type":"address[]","internalType":"address[]"},{"name":"jobDetailHash","type":"string","internalType":"string"},{"name":"status","type":"uint8","internalType":"enum IOpenworkGenesis.JobStatus"},{"name":"workSubmissions","type":"string[]","internalType":"string[]"},{"name":"milestonePayments","type":"tuple[]","internalType":"struct IOpenworkGenesis.MilestonePayment[]","components":[{"name":"descriptionHash","type":"string","internalType":"string"},{"name":"amount","type":"uint256","internalType":"uint256"}]},{"name":"finalMilestones","type":"tuple[]","internalType":"struct IOpenworkGenesis.MilestonePayment[]","components":[{"name":"descriptionHash","type":"string","internalType":"string"},{"name":"amount","type":"uint256","internalType":"uint256"}]},{"name":"totalPaid","type":"uint256","internalType":"uint256"},{"name":"currentMilestone","type":"uint256","internalType":"uint256"},{"name":"selectedApplicant","type":"address","internalType":"address"},{"name":"selectedApplicationId","type":"uint256","internalType":"uint256"}]}],"stateMutability":"view"},{"type":"function","name":"getOpenJobs","inputs":[],"outputs":[{"name":"","type":"tuple[]","internalType":"struct IOpenworkGenesis.Job[]","components":[{"name":"id","type":"string","internalType":"string"},{"name":"jobGiver","type":"address","internalType":"address"},{"name":"applicants","type":"address[]","internalType":"address[]"},{"name":"jobDetailHash","type":"string","internalType":"string"},{"name":"status","type":"uint8","internalType":"enum IOpenworkGenesis.JobStatus"},{"name":"workSubmissions","type":"string[]","internalType":"string[]"},{"name":"milestonePayments","type":"tuple[]","internalType":"struct IOpenworkGenesis.MilestonePayment[]","components":[{"name":"descriptionHash","type":"string","internalType":"string"},{"name":"amount","type":"uint256","internalType":"uint256"}]},{"name":"finalMilestones","type":"tuple[]","internalType":"struct IOpenworkGenesis.MilestonePayment[]","components":[{"name":"descriptionHash","type":"string","internalType":"string"},{"name":"amount","type":"uint256","internalType":"uint256"}]},{"name":"totalPaid","type":"uint256","internalType":"uint256"},{"name":"currentMilestone","type":"uint256","internalType":"uint256"},{"name":"selectedApplicant","type":"address","internalType":"address"},{"name":"selectedApplicationId","type":"uint256","internalType":"uint256"}]}],"stateMutability":"view"},{"type":"function","name":"getSkillApplicationCount","inputs":[],"outputs":[{"name":"","type":"uint256","internalType":"uint256"}],"stateMutability":"view"},{"type":"function","name":"getSkillApplicationsBatch","inputs":[{"name":"startIndex","type":"uint256","internalType":"uint256"},{"name":"count","type":"uint256","internalType":"uint256"}],"outputs":[{"name":"","type":"uint256[]","internalType":"uint256[]"}],"stateMutability":"view"}],"bytecode":{"object":"0x60a03461012757601f612fd638819003918201601f19168301916001600160401b0383118484101761012b5780849260209460405283398101031261012757516001600160a01b038116908190036101275780156100e257608052604051612e96908161014082396080518181816101120152818161022b015281816102fb015281816104ec01528181610797015281816108810152818161093101528181610a8e01528181610b5401528181610bb801528181610ca701528181610ecf01528181611208015281816113f701528181611778015281816119050152611b970152f35b60405162461bcd60e51b815260206004820152601760248201527f496e76616c69642067656e6573697320616464726573730000000000000000006044820152606490fd5b5f80fd5b634e487b7160e01b5f52604160045260245ffdfe6080806040526004361015610012575f80fd5b5f3560e01c90816303a09d1814611b7b57508063063155c1146118dc57806310d2f8c4146117305780631321c95e146116e75780631b25de7f146113d8578063367d9655146111eb57806355e90ada14610eb0578063918e84cb14610c8857806396cd976414610b95578063a063380714610b2f578063a57607c214610a69578063a642f542146108b0578063a7f0b3de1461086c578063bb4c867414610774578063c213aca3146104cd578063dd8f7d1b146102cc578063e980bd3014610206578063e9e3163c146101965763fe0d3ce8146100ed575f80fd5b3461017f575f36600319011261017f57604051635f75a56d60e11b81526020816004817f00000000000000000000000000000000000000000000000000000000000000006001600160a01b03165afa801561018b575f90610154575b602090604051908152f35b506020813d602011610183575b8161016e602093836122c3565b8101031261017f5760209051610149565b5f80fd5b3d9150610161565b6040513d5f823e3d90fd5b3461017f575f36600319011261017f5760405163dd8f7d1b60e01b8152600160048201525f81602481305afa801561018b576101e0915f916101e4575b50604051918291826120a6565b0390f35b61020091503d805f833e6101f881836122c3565b8101906129fa565b826101d3565b3461017f575f36600319011261017f5760405163db144d0160e01b81526020816004817f00000000000000000000000000000000000000000000000000000000000000006001600160a01b03165afa90811561018b575f9161029a575b5061026d81612d69565b905f5b81811061028557604051806101e08582612223565b808061029360019386612404565b5201610270565b90506020813d6020116102c4575b816102b5602093836122c3565b8101031261017f575181610263565b3d91506102a8565b3461017f57602036600319011261017f576004356004811015908161017f576040516388c8837f60e01b8152907f00000000000000000000000000000000000000000000000000000000000000006001600160a01b0316905f83600481855afa92831561018b575f936104a9575b505f915f5b84518110156103f8576103795f6103568388612404565b51604051809381926377e3240760e01b8352602060048401526024830190611ed9565b0381865afa801561018b576080915f916103d6575b50015160048110156103c257866103c25783146103ae575b60010161033f565b926103ba600191612542565b9390506103a6565b634e487b7160e01b5f52602160045260245ffd5b6103f291503d805f833e6103ea81836122c3565b810190612935565b8861038e565b509392916104059061295a565b5f915f5b845181101561049b576104205f6103568388612404565b03818b5afa90811561018b575f91610481575b50608081015160048110156103c257876103c2578314610457575b50600101610409565b8461047a916104696001949787612404565b526104748186612404565b50612542565b939061044e565b61049591503d805f833e6103ea81836122c3565b88610433565b604051806101e085826120a6565b6104c69193503d805f833e6104be81836122c3565b8101906123dc565b918461033a565b3461017f575f36600319011261017f576040516388c8837f60e01b81527f00000000000000000000000000000000000000000000000000000000000000006001600160a01b03165f82600481845afa91821561018b575f92610758575b505f915f5b81518110156106325760015b600a81111561054e575b5060010161052f565b936105d25f60206105b0600161056787899a989a612404565b5183806105738d612d9b565b6040519684889551918291018487015e840190602d60f81b83830152805192839101602183015e010185838201520301601f1981018352826122c3565b6040518093819263a54294af60e01b8352602060048401526024830190611ed9565b0381865afa90811561018b575f91610610575b50515115610607576105f96105ff91612542565b94612542565b92909261053b565b93929092610545565b61062c91503d805f833e61062481836122c3565b81019061244d565b866105e5565b509161063d90612beb565b915f925f5b82518110156107425760015b600a811115610661575b50600101610642565b9460206106bf60016106768588999699612404565b5183806106828c612d9b565b6040519684889551918291018487015e840190602d60f81b83830152805192839101602183015e01015f838201520301601f1981018352826122c3565b60405163a54294af60e01b8152602060048201525f81806106e36024820186611ed9565b0381875afa90811561018b575f91610728575b5051511561071e5781610710916104696107169487612404565b95612542565b93909361064e565b5094939093610658565b61073c91503d805f833e61062481836122c3565b886106f6565b604051602080825281906101e09082018561204e565b61076d9192503d805f833e6104be81836122c3565b908261052a565b3461017f576107823661220d565b604051635f75a56d60e11b81526020816004817f00000000000000000000000000000000000000000000000000000000000000006001600160a01b03165afa801561018b5783905f90610836575b6107e592506107e0818310612b89565b612bd1565b908181111561082f57505b6107f981612d69565b915f5b82811061081157604051806101e08682612223565b8061081e60019284612bde565b6108288287612404565b52016107fc565b90506107f0565b50506020813d602011610864575b81610851602093836122c3565b8101031261017f57826107e591516107d0565b3d9150610844565b3461017f575f36600319011261017f576040517f00000000000000000000000000000000000000000000000000000000000000006001600160a01b03168152602090f35b3461017f57602036600319011261017f576004356001600160401b03811161017f573660238201121561017f5780600401356108eb816122e6565b916108f960405193846122c3565b818352366024838301011161017f57815f92602460209301838601378301015260405163eb7d901b60e01b81526020600482018190527f00000000000000000000000000000000000000000000000000000000000000006001600160a01b03169082806109696024820187611ed9565b0381845afa91821561018b575f92610a35575b5061098682612714565b9260015b838111156109a057604051806101e08782611f7f565b604051632e68140160e11b8152905f82806109bf8487600484016126f8565b0381875afa91821561018b575f92610a11575b505f198101918183116109fd5782610474916109f16109f8958a612404565b5287612404565b61098a565b634e487b7160e01b5f52601160045260245ffd5b610a2e9192503d805f833e610a2681836122c3565b810190612619565b90866109d2565b9091506020813d602011610a61575b81610a51602093836122c3565b8101031261017f5751908361097c565b3d9150610a44565b3461017f575f36600319011261017f57604051635f75a56d60e11b81526020816004817f00000000000000000000000000000000000000000000000000000000000000006001600160a01b03165afa90811561018b575f91610afd575b50610ad081612d69565b905f5b818110610ae857604051806101e08582612223565b8080610af660019386612404565b5201610ad3565b90506020813d602011610b27575b81610b18602093836122c3565b8101031261017f575181610ac6565b3d9150610b0b565b3461017f575f36600319011261017f5760405163db144d0160e01b81526020816004817f00000000000000000000000000000000000000000000000000000000000000006001600160a01b03165afa801561018b575f9061015457602090604051908152f35b3461017f57610ba33661220d565b60405163db144d0160e01b81526020816004817f00000000000000000000000000000000000000000000000000000000000000006001600160a01b03165afa801561018b5783905f90610c52575b610c0192506107e0818310612b89565b9081811115610c4b57505b610c1581612d69565b915f5b828110610c2d57604051806101e08682612223565b80610c3a60019284612bde565b610c448287612404565b5201610c18565b9050610c0c565b50506020813d602011610c80575b81610c6d602093836122c3565b8101031261017f5782610c019151610bf1565b3d9150610c60565b3461017f575f36600319011261017f576040516388c8837f60e01b81527f00000000000000000000000000000000000000000000000000000000000000006001600160a01b0316905f81600481855afa90811561018b575f91610e96575b505f91825b8251841015610d7f57610d256020610d038686612404565b516040518093819263eb7d901b60e01b83528460048401526024830190611ed9565b0381865afa90811561018b575f91610d4d575b50610d4590600192612bde565b930192610ceb565b90506020813d8211610d77575b81610d67602093836122c3565b8101031261017f57516001610d38565b3d9150610d5a565b610d8890612714565b5f5f5b8451811015610e8857610da36020610d038388612404565b0381885afa90811561018b575f91610e57575b5060015b81811115610dcc575050600101610d8b565b92610dfc5f85610de0868b969a979b612404565b51604051632e68140160e11b81529384928392600484016126f8565b0381875afa91821561018b57610e3392610e2d925f91610e3d575b50610e228289612404565b526104748188612404565b93612542565b9591949095610dba565b610e5191503d805f833e610a2681836122c3565b8a610e17565b90506020813d8211610e80575b81610e71602093836122c3565b8101031261017f575186610db6565b3d9150610e64565b604051806101e08582611f7f565b610eaa91503d805f833e6104be81836122c3565b82610ce6565b3461017f575f36600319011261017f57604051635f75a56d60e11b81527f00000000000000000000000000000000000000000000000000000000000000006001600160a01b031690602081600481855afa90811561018b575f916111b9575b505f915f5b82811061114e5750610f2583612301565b92610f3360405194856122c3565b808452610f42601f1991612301565b015f5b8181106110e85750505f905f5b83811061106e57846040518091602082016020835281518091526040830190602060408260051b8601019301915f905b828210610f9157505050500390f35b919360019193955060208091603f1989820301855287519081518152848060a01b038383015116838201526101608061101a611008610ff6610fe460408801516101806040890152610180880190611ed9565b60608801518782036060890152611ed9565b60808701518682036080880152611ed9565b60a086015185820360a0870152611ed9565b9360c081015160c085015260e081015160e085015261010081015115156101008501526101208101516101208501526101408101511515610140850152015115159101529601920192018594939192610f82565b604051634cc7894760e11b8152600481018290525f81602481865afa90811561018b575f916110c6575b506101008101516110ad575b50600101610f52565b836110bf91610e226001949689612404565b92906110a4565b6110e291503d805f833e6110da81836122c3565b810190612c34565b86611098565b6020906040516110f78161228c565b5f81525f838201526060604082015260608082015260606080820152606060a08201525f60c08201525f60e08201525f6101008201525f6101208201525f6101408201525f61016082015282828801015201610f45565b604051634cc7894760e11b8152600481018290525f81602481865afa801561018b57610100915f9161119f575b50015161118b575b600101610f14565b92611197600191612542565b939050611183565b6111b391503d805f833e6110da81836122c3565b8661117b565b90506020813d6020116111e3575b816111d4602093836122c3565b8101031261017f575182610f0f565b3d91506111c7565b3461017f576111f93661220d565b6040516388c8837f60e01b81527f00000000000000000000000000000000000000000000000000000000000000006001600160a01b03169290915f83600481875afa92831561018b575f936113bc575b5061125683518310612b89565b611261828451612bd1565b90818111156113b45750905b5f5f5b83811061134c575061128190612beb565b925f915f5b8481106112a357604051602080825281906101e09082018961204e565b6112dd5f6112ba6112b48486612bde565b86612404565b516040518093819263a54294af60e01b8352602060048401526024830190611ed9565b03818b5afa90811561018b575f91611332575b505151611300575b600101611286565b9261132a6001916113146112b48786612bde565b5161131f828a612404565b526104748189612404565b9390506112f8565b61134691503d805f833e61062481836122c3565b886112f0565b6113635f6112ba61135d8487612bde565b88612404565b03818a5afa90811561018b575f9161139a575b505151611386575b600101611270565b90611392600191612542565b91905061137e565b6113ae91503d805f833e61062481836122c3565b87611376565b90509061126d565b6113d19193503d805f833e6104be81836122c3565b9184611249565b3461017f575f36600319011261017f5760405163db144d0160e01b81527f00000000000000000000000000000000000000000000000000000000000000006001600160a01b031690602081600481855afa90811561018b575f916116b5575b505f915f5b82811061164b575061144d83612301565b9261145b60405194856122c3565b80845261146a601f1991612301565b015f5b8181106115ed5750505f905f5b83811061157457846040518091602082016020835281518091526040830190602060408260051b8601019301915f905b8282106114b957505050500390f35b919360019193955060208091603f1989820301855287519081518152848060a01b038383015116838201526101408061152261150660408601516101606040870152610160860190611ed9565b6060860151606086015260808601518582036080870152611ed9565b9360a081015160a085015260c081015160c085015260e0810151151560e085015261010081015161010085015261012081015115156101208501520151151591015296019201920185949391926114aa565b6040516314c2c26560e31b8152600481018290525f81602481865afa90811561018b575f916115cb575b5060e08101516115b2575b5060010161147a565b836115c491610e226001949689612404565b92906115a9565b6115e791503d805f833e6115df81836122c3565b810190612a94565b8661159e565b6020906040516115fc8161225c565b5f81525f83820152606060408201525f6060820152606060808201525f60a08201525f60c08201525f60e08201525f6101008201525f6101208201525f6101408201528282880101520161146d565b6040516314c2c26560e31b8152600481018290525f81602481865afa801561018b5760e0915f9161169b575b500151611687575b60010161143c565b92611693600191612542565b93905061167f565b6116af91503d805f833e6115df81836122c3565b86611677565b90506020813d6020116116df575b816116d0602093836122c3565b8101031261017f575182611437565b3d91506116c3565b3461017f575f36600319011261017f5760405163dd8f7d1b60e01b81525f6004820181905281602481305afa801561018b576101e0915f916101e45750604051918291826120a6565b3461017f57604036600319011261017f57611749611efd565b602435906004821015918261017f576040516369f452bf60e11b81526001600160a01b039283166004820152917f000000000000000000000000000000000000000000000000000000000000000016905f83602481855afa92831561018b575f936118c0575b505f915f5b845181101561182e576117cb5f6103568388612404565b0381865afa801561018b576080915f91611814575b50015160048110156103c257866103c2578314611800575b6001016117b4565b9261180c600191612542565b9390506117f8565b61182891503d805f833e6103ea81836122c3565b886117e0565b5093929161183b9061295a565b5f915f5b845181101561049b576118565f6103568388612404565b03818b5afa90811561018b575f916118a6575b50608081015160048110156103c257876103c257831461188d575b5060010161183f565b8461189f916104696001949787612404565b9390611884565b6118ba91503d805f833e6103ea81836122c3565b88611869565b6118d59193503d805f833e6104be81836122c3565b91846117af565b3461017f57602036600319011261017f576118f5611efd565b6040516388c8837f60e01b8152907f00000000000000000000000000000000000000000000000000000000000000006001600160a01b03165f83600481845afa92831561018b575f93611b5f575b50905f906001600160a01b0316815b8451811015611a415761196a6020610d038388612404565b0381885afa90811561018b575f91611a10575b5060015b81811115611993575050600101611952565b6119a65f82610de0868b969a979b612404565b0381875afa801561018b5785915f916119f6575b50604001516001600160a01b0316146119e1575b6119d790612542565b9591949095611981565b936119ee6119d791612542565b9490506119ce565b611a0a91503d805f833e610a2681836122c3565b896119ba565b90506020813d8211611a39575b81611a2a602093836122c3565b8101031261017f57518661197d565b3d9150611a1d565b5090611a4c90612714565b5f905f5b8551811015611b5157611a686020610d038389612404565b0381895afa90811561018b575f91611b20575b5060015b81811115611a91575050600101611a50565b611aa45f82610de0868c969b979c612404565b0381875afa90811561018b575f91611b06575b5060408101516001600160a01b03168714611ae1575b50611ad790612542565b9691959096611a7f565b85611aff91611af4611ad7949888612404565b526104748187612404565b9490611acd565b611b1a91503d805f833e610a2681836122c3565b89611ab7565b90506020813d8211611b49575b81611b3a602093836122c3565b8101031261017f575187611a7b565b3d9150611b2d565b604051806101e08482611f7f565b611b749193503d805f833e6104be81836122c3565b9183611943565b3461017f575f36600319011261017f576388c8837f60e01b81527f00000000000000000000000000000000000000000000000000000000000000006001600160a01b0316905f81600481855afa90811561018b575f91611ebf575b505f5f5b8251811015611c8b5760015b600a811115611bf9575b50600101611bda565b611c1d5f60206105b06001611c11878a9b989b612404565b51838061057389612d9b565b0381865afa90811561018b575f91611c71575b5080515115611c685760e00151611c53575b611c4b90612542565b939093611be6565b91611c60611c4b91612542565b929050611c42565b50939093611bf0565b611c8591503d805f833e61062481836122c3565b86611c30565b50611c9581612301565b90611ca360405192836122c3565b808252611cb2601f1991612301565b015f5b818110611e615750505f905f5b8351811015611d6e5760015b600a811115611ce1575b50600101611cc2565b611cf95f60206105b06001611c11878b9c989c612404565b0381865afa90811561018b575f91611d54575b5080515115611d4b5760e0810151611d31575b50611d2990612542565b949094611cce565b84611d4491610469611d29949787612404565b9390611d1f565b50949094611cd8565b611d6891503d805f833e61062481836122c3565b87611d0c565b506040518091602082016020835281518091526040830190602060408260051b8601019301915f905b828210611da657505050500390f35b919360019193955060208091603f1989820301855287519061014080611df4611dda85516101608652610160860190611ed9565b868601518786015260408601518582036040870152611ed9565b93878060a01b0360608201511660608501526080810151608085015260a081015160a085015260c0810151151560c085015260e0810151151560e0850152610100810151151561010085015261012081015161012085015201519101529601920192018594939192611d97565b602090604051611e708161225c565b606081525f83820152606060408201525f60608201525f60808201525f60a08201525f60c08201525f60e08201525f6101008201525f6101208201525f61014082015282828601015201611cb5565b611ed391503d805f833e6104be81836122c3565b82611bd6565b805180835260209291819084018484015e5f828201840152601f01601f1916010190565b600435906001600160a01b038216820361017f57565b9080602083519182815201916020808360051b8301019401925f915b838310611f3e57505050505090565b9091929394602080600192601f198582030186528851908280611f6a8451604085526040850190611ed9565b93015191015297019301930191939290611f2f565b602081016020825282518091526040820191602060408360051b8301019401925f915b838310611fb157505050505090565b9091929394602080600192603f198582030186528851908151815260c061202061200e611feb8686015160e08887015260e0860190611ed9565b888060a01b03604087015116604086015260608601518582036060870152611ed9565b60808501518482036080860152611f13565b9263ffffffff60a08201511660a084015281878060a01b039101511691015297019301930191939290611fa2565b9080602083519182815201916020808360051b8301019401925f915b83831061207957505050505090565b9091929394602080612097600193601f198682030187528951611ed9565b9701930193019193929061206a565b6020810160208252825180915260408201602060408360051b8501019401925f905b8382106120d757505050505090565b9091929394603f1982820301845285516120fc81516101808452610180840190611ed9565b60018060a01b03602083015116602084015260408201518382036040850152602080825193848152019101915f905b8082106121eb57505061214b915060608301518482036060860152611ed9565b60808201519160048310156103c25783610160806121ab612199612187602098978998608060019c015260a088015187820360a089015261204e565b60c087015186820360c0880152611f13565b60e086015185820360e0870152611f13565b93610100810151610100850152610120810151610120850152878060a01b03610140820151166101408501520151910152970194019201909392936120c8565b83516001600160a01b031683526020938401939092019160019091019061212b565b604090600319011261017f576004359060243590565b60206040818301928281528451809452019201905f5b8181106122465750505090565b8251845260209384019390920191600101612239565b61016081019081106001600160401b0382111761227857604052565b634e487b7160e01b5f52604160045260245ffd5b61018081019081106001600160401b0382111761227857604052565b60e081019081106001600160401b0382111761227857604052565b601f909101601f19168101906001600160401b0382119082101761227857604052565b6001600160401b03811161227857601f01601f191660200190565b6001600160401b0381116122785760051b60200190565b81601f8201121561017f5780519061232f826122e6565b9261233d60405194856122c3565b8284526020838301011161017f57815f9260208093018386015e8301015290565b9080601f8301121561017f57815161237581612301565b9261238360405194856122c3565b81845260208085019260051b8201019183831161017f5760208201905b8382106123af57505050505090565b81516001600160401b03811161017f576020916123d187848094880101612318565b8152019101906123a0565b9060208282031261017f5781516001600160401b03811161017f57612401920161235e565b90565b80518210156124185760209160051b010190565b634e487b7160e01b5f52603260045260245ffd5b51906001600160a01b038216820361017f57565b5190811515820361017f57565b60208183031261017f578051906001600160401b03821161017f5701906101608282031261017f57604051916124828361225c565b80516001600160401b03811161017f578261249e918301612318565b83526020818101519084015260408101516001600160401b03811161017f57610140926124cc918301612318565b60408401526124dd6060820161242c565b60608401526080810151608084015260a081015160a084015261250260c08201612440565b60c084015261251360e08201612440565b60e08401526125256101008201612440565b610100840152610120810151610120840152015161014082015290565b5f1981146109fd5760010190565b81601f8201121561017f5780519061256782612301565b9261257560405194856122c3565b82845260208085019360051b8301019181831161017f5760208101935b8385106125a157505050505090565b84516001600160401b03811161017f5782016040818503601f19011261017f5760408051929083016001600160401b03811184821017612278576040526020820151926001600160401b03841161017f57604083612606886020809881980101612318565b8352015183820152815201940193612592565b60208183031261017f578051906001600160401b03821161017f570160e08183031261017f576040519161264c836122a8565b8151835260208201516001600160401b03811161017f578161266f918401612318565b60208401526126806040830161242c565b604084015260608201516001600160401b03811161017f57816126a4918401612318565b60608401526080820151906001600160401b03821161017f576126c8918301612550565b608083015260a081015163ffffffff8116810361017f5760a08301526126f09060c00161242c565b60c082015290565b92919061270f602091604086526040860190611ed9565b930152565b9061271e82612301565b61272b60405191826122c3565b828152809261273c601f1991612301565b01905f5b82811061274c57505050565b60209060405161275b816122a8565b5f81526060838201525f6040820152606080820152606060808201525f60a08201525f60c082015282828501015201612740565b9190916101808184031261017f57604051906127aa8261228c565b8051919384926001600160401b03811161017f57816127ca918401612318565b83526127d86020830161242c565b602084015260408201516001600160401b03811161017f57820181601f8201121561017f5780519061280982612301565b9161281760405193846122c3565b80835260208084019160051b8301019184831161017f57602001905b82821061291d57505050604084015260608201516001600160401b03811161017f5781612861918401612318565b60608401526080820151600481101561017f57608084015260a08201516001600160401b03811161017f578161289891840161235e565b60a084015260c08201516001600160401b03811161017f57816128bc918401612550565b60c084015260e0820151916001600160401b03831161017f576128e6610160939284938301612550565b60e0850152610100810151610100850152610120810151610120850152612910610140820161242c565b6101408501520151910152565b6020809161292a8461242c565b815201910190612833565b9060208282031261017f5781516001600160401b03811161017f57612401920161278f565b9061296482612301565b61297160405191826122c3565b8281528092612982601f1991612301565b01905f5b82811061299257505050565b6020906040516129a18161228c565b606081525f83820152606060408201526060808201525f6080820152606060a0820152606060c0820152606060e08201525f6101008201525f6101208201525f6101408201525f61016082015282828501015201612986565b60208183031261017f578051906001600160401b03821161017f57019080601f8301121561017f578151612a2d81612301565b92612a3b60405194856122c3565b81845260208085019260051b8201019183831161017f5760208201905b838210612a6757505050505090565b81516001600160401b03811161017f57602091612a898784809488010161278f565b815201910190612a58565b60208183031261017f578051906001600160401b03821161017f57016101608183031261017f5760405191612ac88361225c565b81518352612ad86020830161242c565b602084015260408201516001600160401b03811161017f5781612afc918401612318565b6040840152606082810151908401526080820151916001600160401b03831161017f57612b3161014092612b80948301612318565b608085015260a081015160a085015260c081015160c0850152612b5660e08201612440565b60e0850152610100810151610100850152612b746101208201612440565b61012085015201612440565b61014082015290565b15612b9057565b60405162461bcd60e51b8152602060048201526019602482015278537461727420696e646578206f7574206f6620626f756e647360381b6044820152606490fd5b919082039182116109fd57565b919082018092116109fd57565b90612bf582612301565b612c0260405191826122c3565b8281528092612c13601f1991612301565b01905f5b828110612c2357505050565b806060602080938501015201612c17565b60208183031261017f578051906001600160401b03821161017f57016101808183031261017f5760405191612c688361228c565b81518352612c786020830161242c565b602084015260408201516001600160401b03811161017f5781612c9c918401612318565b604084015260608201516001600160401b03811161017f5781612cc0918401612318565b606084015260808201516001600160401b03811161017f5781612ce4918401612318565b608084015260a0820151916001600160401b03831161017f57612d0f61016092612d60948301612318565b60a085015260c081015160c085015260e081015160e0850152612d356101008201612440565b610100850152610120810151610120850152612d546101408201612440565b61014085015201612440565b61016082015290565b90612d7382612301565b612d8060405191826122c3565b8281528092612d91601f1991612301565b0190602036910137565b8015612e40575f81805b612e2c5750612db3816122e6565b90612dc160405192836122c3565b808252601f19612dd0826122e6565b013660208401375b80928015612e25575f1982019182116109fd578193600a820660300192836030116109fd578451111561241857600a9260f81b6001600160f81b0319165f1a908401601f01530491612dd8565b5050905090565b90612e38600a91612542565b910480612da5565b50604051612e4f6040826122c3565b60018152600360fc1b60208201529056fea2646970667358221220d13b3ea83f6443d3cd8ed7aaec500ac5823084da19188357708cb512f244de0464736f6c63430008210033","linkReferences":{}},"methodIdentifiers":{"genesis()":"a7f0b3de","getActiveAskAthenaApplications()":"55e90ada","getActiveDisputes()":"03a09d18","getActiveSkillApplications()":"1b25de7f","getAllAskAthenaIds()":"a57607c2","getAllDisputeIds()":"c213aca3","getAllJobApplications()":"918e84cb","getAllSkillApplicationIds()":"e980bd30","getApplicationsByApplicant(address)":"063155c1","getApplicationsByJob(string)":"a642f542","getAskAthenaApplicationsBatch(uint256,uint256)":"bb4c8674","getAskAthenaCount()":"fe0d3ce8","getDisputesBatch(uint256,uint256)":"367d9655","getInProgressJobs()":"e9e3163c","getJobsByPosterWithStatus(address,uint8)":"10d2f8c4","getJobsByStatus(uint8)":"dd8f7d1b","getOpenJobs()":"1321c95e","getSkillApplicationCount()":"a0633807","getSkillApplicationsBatch(uint256,uint256)":"96cd9764"},"id":78}