{"abi":[{"type":"constructor","inputs":[],"stateMutability":"nonpayable"},{"type":"function","name":"UPGRADE_INTERFACE_VERSION","inputs":[],"outputs":[{"name":"","type":"string","internalType":"string"}],"stateMutability":"view"},{"type":"function","name":"addPortfolio","inputs":[{"name":"_user","type":"address","internalType":"address"},{"name":"_portfolioHash","type":"string","internalType":"string"}],"outputs":[],"stateMutability":"nonpayable"},{"type":"function","name":"admins","inputs":[{"name":"","type":"address","internalType":"address"}],"outputs":[{"name":"","type":"bool","internalType":"bool"}],"stateMutability":"view"},{"type":"function","name":"bridge","inputs":[],"outputs":[{"name":"","type":"address","internalType":"address"}],"stateMutability":"view"},{"type":"function","name":"createProfile","inputs":[{"name":"_user","type":"address","internalType":"address"},{"name":"_ipfsHash","type":"string","internalType":"string"},{"name":"_referrerAddress","type":"address","internalType":"address"}],"outputs":[],"stateMutability":"nonpayable"},{"type":"function","name":"genesis","inputs":[],"outputs":[{"name":"","type":"address","internalType":"contract IOpenworkGenesis"}],"stateMutability":"view"},{"type":"function","name":"getAllProfileUsers","inputs":[],"outputs":[{"name":"","type":"address[]","internalType":"address[]"}],"stateMutability":"view"},{"type":"function","name":"getProfile","inputs":[{"name":"_user","type":"address","internalType":"address"}],"outputs":[{"name":"userAddress","type":"address","internalType":"address"},{"name":"ipfsHash","type":"string","internalType":"string"},{"name":"referrerAddress","type":"address","internalType":"address"},{"name":"portfolioHashes","type":"string[]","internalType":"string[]"}],"stateMutability":"view"},{"type":"function","name":"getProfileByIndex","inputs":[{"name":"_index","type":"uint256","internalType":"uint256"}],"outputs":[{"name":"userAddress","type":"address","internalType":"address"},{"name":"ipfsHash","type":"string","internalType":"string"},{"name":"referrerAddress","type":"address","internalType":"address"},{"name":"portfolioHashes","type":"string[]","internalType":"string[]"}],"stateMutability":"view"},{"type":"function","name":"getProfileCount","inputs":[],"outputs":[{"name":"","type":"uint256","internalType":"uint256"}],"stateMutability":"view"},{"type":"function","name":"getUserRating","inputs":[{"name":"_user","type":"address","internalType":"address"}],"outputs":[{"name":"","type":"uint256","internalType":"uint256"}],"stateMutability":"view"},{"type":"function","name":"getUserRatings","inputs":[{"name":"_user","type":"address","internalType":"address"}],"outputs":[{"name":"","type":"uint256[]","internalType":"uint256[]"}],"stateMutability":"view"},{"type":"function","name":"hasProfile","inputs":[{"name":"_user","type":"address","internalType":"address"}],"outputs":[{"name":"","type":"bool","internalType":"bool"}],"stateMutability":"view"},{"type":"function","name":"initialize","inputs":[{"name":"_owner","type":"address","internalType":"address"},{"name":"_bridge","type":"address","internalType":"address"},{"name":"_genesis","type":"address","internalType":"address"}],"outputs":[],"stateMutability":"nonpayable"},{"type":"function","name":"nativeDAO","inputs":[],"outputs":[{"name":"","type":"address","internalType":"address"}],"stateMutability":"view"},{"type":"function","name":"owner","inputs":[],"outputs":[{"name":"","type":"address","internalType":"address"}],"stateMutability":"view"},{"type":"function","name":"proxiableUUID","inputs":[],"outputs":[{"name":"","type":"bytes32","internalType":"bytes32"}],"stateMutability":"view"},{"type":"function","name":"rate","inputs":[{"name":"_rater","type":"address","internalType":"address"},{"name":"_jobId","type":"string","internalType":"string"},{"name":"_userToRate","type":"address","internalType":"address"},{"name":"_rating","type":"uint256","internalType":"uint256"}],"outputs":[],"stateMutability":"nonpayable"},{"type":"function","name":"removePortfolioItem","inputs":[{"name":"_user","type":"address","internalType":"address"},{"name":"_index","type":"uint256","internalType":"uint256"}],"outputs":[],"stateMutability":"nonpayable"},{"type":"function","name":"renounceOwnership","inputs":[],"outputs":[],"stateMutability":"nonpayable"},{"type":"function","name":"setAdmin","inputs":[{"name":"_admin","type":"address","internalType":"address"},{"name":"_status","type":"bool","internalType":"bool"}],"outputs":[],"stateMutability":"nonpayable"},{"type":"function","name":"setBridge","inputs":[{"name":"_bridge","type":"address","internalType":"address"}],"outputs":[],"stateMutability":"nonpayable"},{"type":"function","name":"setGenesis","inputs":[{"name":"_genesis","type":"address","internalType":"address"}],"outputs":[],"stateMutability":"nonpayable"},{"type":"function","name":"setNativeDAO","inputs":[{"name":"_nativeDAO","type":"address","internalType":"address"}],"outputs":[],"stateMutability":"nonpayable"},{"type":"function","name":"transferOwnership","inputs":[{"name":"newOwner","type":"address","internalType":"address"}],"outputs":[],"stateMutability":"nonpayable"},{"type":"function","name":"updatePortfolioItem","inputs":[{"name":"_user","type":"address","internalType":"address"},{"name":"_index","type":"uint256","internalType":"uint256"},{"name":"_newPortfolioHash","type":"string","internalType":"string"}],"outputs":[],"stateMutability":"nonpayable"},{"type":"function","name":"updateProfile","inputs":[{"name":"_user","type":"address","internalType":"address"},{"name":"_newIpfsHash","type":"string","internalType":"string"}],"outputs":[],"stateMutability":"nonpayable"},{"type":"function","name":"upgradeFromDAO","inputs":[{"name":"newImplementation","type":"address","internalType":"address"}],"outputs":[],"stateMutability":"nonpayable"},{"type":"function","name":"upgradeToAndCall","inputs":[{"name":"newImplementation","type":"address","internalType":"address"},{"name":"data","type":"bytes","internalType":"bytes"}],"outputs":[],"stateMutability":"payable"},{"type":"event","name":"AdminUpdated","inputs":[{"name":"admin","type":"address","indexed":true,"internalType":"address"},{"name":"status","type":"bool","indexed":false,"internalType":"bool"}],"anonymous":false},{"type":"event","name":"BridgeUpdated","inputs":[{"name":"oldBridge","type":"address","indexed":true,"internalType":"address"},{"name":"newBridge","type":"address","indexed":true,"internalType":"address"}],"anonymous":false},{"type":"event","name":"GenesisUpdated","inputs":[{"name":"oldGenesis","type":"address","indexed":true,"internalType":"address"},{"name":"newGenesis","type":"address","indexed":true,"internalType":"address"}],"anonymous":false},{"type":"event","name":"Initialized","inputs":[{"name":"version","type":"uint64","indexed":false,"internalType":"uint64"}],"anonymous":false},{"type":"event","name":"NativeDAOUpdated","inputs":[{"name":"oldDAO","type":"address","indexed":true,"internalType":"address"},{"name":"newDAO","type":"address","indexed":true,"internalType":"address"}],"anonymous":false},{"type":"event","name":"OwnershipTransferred","inputs":[{"name":"previousOwner","type":"address","indexed":true,"internalType":"address"},{"name":"newOwner","type":"address","indexed":true,"internalType":"address"}],"anonymous":false},{"type":"event","name":"PortfolioAdded","inputs":[{"name":"user","type":"address","indexed":true,"internalType":"address"},{"name":"portfolioHash","type":"string","indexed":false,"internalType":"string"}],"anonymous":false},{"type":"event","name":"PortfolioItemRemoved","inputs":[{"name":"user","type":"address","indexed":true,"internalType":"address"},{"name":"index","type":"uint256","indexed":false,"internalType":"uint256"}],"anonymous":false},{"type":"event","name":"PortfolioItemUpdated","inputs":[{"name":"user","type":"address","indexed":true,"internalType":"address"},{"name":"index","type":"uint256","indexed":false,"internalType":"uint256"},{"name":"newPortfolioHash","type":"string","indexed":false,"internalType":"string"}],"anonymous":false},{"type":"event","name":"ProfileCreated","inputs":[{"name":"user","type":"address","indexed":true,"internalType":"address"},{"name":"ipfsHash","type":"string","indexed":false,"internalType":"string"},{"name":"referrer","type":"address","indexed":true,"internalType":"address"}],"anonymous":false},{"type":"event","name":"ProfileUpdated","inputs":[{"name":"user","type":"address","indexed":true,"internalType":"address"},{"name":"newIpfsHash","type":"string","indexed":false,"internalType":"string"}],"anonymous":false},{"type":"event","name":"Upgraded","inputs":[{"name":"implementation","type":"address","indexed":true,"internalType":"address"}],"anonymous":false},{"type":"event","name":"UserRated","inputs":[{"name":"jobId","type":"string","indexed":true,"internalType":"string"},{"name":"rater","type":"address","indexed":true,"internalType":"address"},{"name":"rated","type":"address","indexed":true,"internalType":"address"},{"name":"rating","type":"uint256","indexed":false,"internalType":"uint256"}],"anonymous":false},{"type":"error","name":"AddressEmptyCode","inputs":[{"name":"target","type":"address","internalType":"address"}]},{"type":"error","name":"ERC1967InvalidImplementation","inputs":[{"name":"implementation","type":"address","internalType":"address"}]},{"type":"error","name":"ERC1967NonPayable","inputs":[]},{"type":"error","name":"FailedInnerCall","inputs":[]},{"type":"error","name":"InvalidInitialization","inputs":[]},{"type":"error","name":"NotInitializing","inputs":[]},{"type":"error","name":"OwnableInvalidOwner","inputs":[{"name":"owner","type":"address","internalType":"address"}]},{"type":"error","name":"OwnableUnauthorizedAccount","inputs":[{"name":"account","type":"address","internalType":"address"}]},{"type":"error","name":"UUPSUnauthorizedCallContext","inputs":[]},{"type":"error","name":"UUPSUnsupportedProxiableUUID","inputs":[{"name":"slot","type":"bytes32","internalType":"bytes32"}]}],"bytecode":{"object":"0x60a080604052346100c957306080525f5160206121905f395f51905f525460ff8160401c166100ba576002600160401b03196001600160401b03821601610067575b6040516120c290816100ce8239608051818181610ed001528181610f7401526113300152f35b6001600160401b0319166001600160401b039081175f5160206121905f395f51905f525581527fc7f505b2f371ae2175ee4913f4499e1f2633a7b5936321eed1cdaeb6115181d290602090a15f80610041565b63f92ee8a960e01b5f5260045ffd5b5f80fdfe6080806040526004361015610012575f80fd5b5f905f3560e01c9081630f53a470146118a35750806326d74479146117a85780632c317eb2146116935780633199ac02146115435780633697611a1461152557806340634e3b146112df578063429b62e5146112a0578063460168c3146112745780634b0bddd2146111985780634f1ef28614610f2457806352d1902d14610ebd578063687694ae14610e945780636a23a98a14610cdc578063715018a614610c865780637c83b0aa14610ae15780638da5cb5b14610aac5780638dd1480214610a41578063a2f7cb26146109d6578063a787c80b14610957578063a7f0b3de14610930578063ad3cb1cc146108e3578063b0cc40601461081b578063c0c53b8b1461066d578063d888cc271461042a578063e78cea9214610401578063eb14b3531461039a578063efe24b8d14610253578063f2fde38b146102265763f50336f91461015d575f80fd5b346102235760203660031901126102235761017661191e565b815460405163f50336f960e01b81526001600160a01b03928316600482015291839183916024918391165afa9081156102185782916101f6575b5090604051918291602083016020845282518091526020604085019301915b8181106101dd575050500390f35b82518452859450602093840193909201916001016101cf565b61021291503d8084833e61020a81836119fa565b810190611d94565b5f6101b0565b6040513d84823e3d90fd5b80fd5b50346102235760203660031901126102235761025061024361191e565b61024b611f30565b611ed2565b80f35b50346102235760403660031901126102235761026d61191e565b6024359061028660018060a01b03600154163314611c98565b6001600160a01b03169061029b821515611cd2565b825460405163a787c80b60e01b81526004810184905284916001600160a01b031690602081602481855afa801561038f576102dd918491610360575b50611d2d565b803b1561035c5781809160446040518094819363efe24b8d60e01b83528960048401528860248401525af1801561021857610343575b505060207f71896b71d4d23246e9605b719083d8266614b1316d706a9fff17e4d4e9857c7a91604051908152a280f35b8161034d916119fa565b61035857825f610313565b8280fd5b5080fd5b610382915060203d602011610388575b61037a81836119fa565b810190611d15565b5f6102d7565b503d610370565b6040513d85823e3d90fd5b5034610223576020366003190112610223576103b461191e565b6103bc611f30565b81546001600160a01b039182166001600160a01b031982168117845591167f5f1d51aab4bd6e41be6c7feda322db860d93d0058238bf871dfafd43ecc951f98380a380f35b50346102235780600319360112610223576001546040516001600160a01b039091168152602090f35b50346102235760603660031901126102235761044461191e565b6024356001600160401b03811161035857610463903690600401611a82565b61046b611934565b9161048160018060a01b03600154163314611c98565b6001600160a01b031690610496821515611cd2565b835460405163a787c80b60e01b81526004810184905290602090829060249082906001600160a01b03165afa908115610662578591610643575b5061060557600254600160401b8110156105f1578060016104f49201600255611c6c565b8154600391821b85811b6001600160a01b0390911b1990911617909155545f1981146105dd57600101600355835484906001600160a01b0316803b1561035c57816040518092630c80432360e31b825286600483015260606024830152818381610561606482018a61194a565b6001600160a01b03909b16604482018190529a03925af18015610218576105c4575b50506105be7f5874afb0d71e1f97e546fc6b15493e51e5ccbefa591556f8c6a80c8c5151a84f9160405191829160208352602083019061194a565b0390a380f35b816105ce916119fa565b6105d957835f610583565b8380fd5b634e487b7160e01b85526011600452602485fd5b634e487b7160e01b85526041600452602485fd5b60405162461bcd60e51b815260206004820152601660248201527550726f66696c6520616c72656164792065786973747360501b6044820152606490fd5b61065c915060203d6020116103885761037a81836119fa565b5f6104d0565b6040513d87823e3d90fd5b50346102235760603660031901126102235761068761191e565b6024356001600160a01b0381169190829003610358576106a5611934565b5f51602061206d5f395f51905f5254604081901c60ff161593906001600160401b03811680159081610813575b6001149081610809575b159081610800575b506107f1576001600160401b031981166001175f51602061206d5f395f51905f5255846107c9575b50610715611f63565b61071d611f63565b61072683611ed2565b61072e611f63565b600180546001600160a01b031990811692909217815585549091166001600160a01b0392831617855591168352600460205260408320805460ff191690911790556107765780f35b60ff60401b195f51602061206d5f395f51905f5254165f51602061206d5f395f51905f52557fc7f505b2f371ae2175ee4913f4499e1f2633a7b5936321eed1cdaeb6115181d2602060405160018152a180f35b6001600160481b0319166001600160401b01175f51602061206d5f395f51905f52555f61070c565b63f92ee8a960e01b8652600486fd5b9050155f6106e4565b303b1591506106dc565b8691506106d2565b503461022357806003193601126102235760405160028054808352908352602082019081907f405787fa12a823e0f2b7631cc41b3ba8828b3321ca811111fa75cd3aa3bb5ace90855b8181106108c4575050508261087a9103836119fa565b604051928392602084019060208552518091526040840192915b8181106108a2575050500390f35b82516001600160a01b0316845285945060209384019390920191600101610894565b82546001600160a01b0316845260209093019260019283019201610864565b50346102235780600319360112610223575061092c6040516109066040826119fa565b60058152640352e302e360dc1b602082015260405191829160208352602083019061194a565b0390f35b5034610223578060031936011261022357546040516001600160a01b039091168152602090f35b50346102235760203660031901126102235761097161191e565b815460405163a787c80b60e01b81526001600160a01b0392831660048201529160209183916024918391165afa90811561021857602092916109b9575b506040519015158152f35b6109d09150823d84116103885761037a81836119fa565b5f6109ae565b5034610223576020366003190112610223576109f061191e565b6109f8611f30565b600580546001600160a01b039283166001600160a01b0319821681179092559091167febf0307548e44546701f6014620caeea64df200e2b3925bfd3c75d354fd7410d8380a380f35b503461022357602036600319011261022357610a5b61191e565b610a63611f30565b600180546001600160a01b039283166001600160a01b0319821681179092559091167faae9beddccf584528e87b66c6ff2563825c8a1433305b8a656e9b5f9bf3904998380a380f35b50346102235780600319360112610223575f516020611fed5f395f51905f52546040516001600160a01b039091168152602090f35b503461022357606036600319011261022357610afb61191e565b6024356044356001600160401b0381116105d957610b1d903690600401611a82565b91610b3360018060a01b03600154163314611c98565b6001600160a01b031691610b48831515611cd2565b835460405163a787c80b60e01b8152600481018590526001600160a01b0390911690602081602481855afa8015610c7b57610b899187916103605750611d2d565b815115610c36578085913b1561035c57816040518092633e41d85560e11b825287600483015286602483015260606044830152818381610bcc606482018a61194a565b03925af1801561021857610c21575b50507fc39f56c165e6e8a9ac36c2adf54383775830c65cc8239fb382b4baf459233ab791610c1b604051928392835260406020840152604083019061194a565b0390a280f35b81610c2b916119fa565b6105d957835f610bdb565b60405162461bcd60e51b815260206004820152601e60248201527f506f7274666f6c696f20686173682063616e6e6f7420626520656d70747900006044820152606490fd5b6040513d88823e3d90fd5b5034610223578060031936011261022357610c9f611f30565b5f516020611fed5f395f51905f5280546001600160a01b0319811690915581906001600160a01b03165f51602061202d5f395f51905f528280a380f35b503461022357608036600319011261022357610cf661191e565b6024356001600160401b03811161035857610d15903690600401611a82565b90610d1e611934565b9060643591610d3860018060a01b03600154163314611c98565b82151580610e89575b15610e4f576001600160a01b0316928315610e1857845485906001600160a01b0316803b1561035c5781604051809263037da98d60e11b825260606004830152818381610d91606482018a61194a565b8c60248301528b604483015203925af1801561021857610dff575b50506020807f210dac24c32efa80ef08f803d73e7033bee07555af4a95a00e79a488121b0bd692604051918183925191829101835e81018881520390206040519485526001600160a01b0390931693a480f35b81610e09916119fa565b610e1457845f610dac565b8480fd5b60405162461bcd60e51b815260206004820152600f60248201526e496e76616c6964206164647265737360881b6044820152606490fd5b60405162461bcd60e51b8152602060048201526012602482015271526174696e67206d75737420626520312d3560701b6044820152606490fd5b506005831115610d41565b50346102235780600319360112610223576005546040516001600160a01b039091168152602090f35b50346102235780600319360112610223577f00000000000000000000000000000000000000000000000000000000000000006001600160a01b03163003610f155760206040515f51602061200d5f395f51905f528152f35b63703e46dd60e11b8152600490fd5b50604036600319011261022357610f3961191e565b906024356001600160401b03811161035c573660238201121561035c57610f6a903690602481600401359101611a4c565b6001600160a01b037f000000000000000000000000000000000000000000000000000000000000000016308114908115611176575b50611167575f516020611fed5f395f51905f52546001600160a01b031633148015611153575b1561111f576040516352d1902d60e01b8152926001600160a01b0381169190602085600481865afa809585966110eb575b5061100f57634c9c8ce360e01b84526004839052602484fd5b9091845f51602061200d5f395f51905f5281036110d95750813b156110c7575f51602061200d5f395f51905f5280546001600160a01b031916821790555f51602061204d5f395f51905f528480a281518390156110ad57808360206110a195519101845af43d156110a5573d9161108583611a31565b9261109360405194856119fa565b83523d85602085013e611f8e565b5080f35b606091611f8e565b505050346110b85780f35b63b398979f60e01b8152600490fd5b634c9c8ce360e01b8452600452602483fd5b632a87526960e21b8552600452602484fd5b9095506020813d602011611117575b81611107602093836119fa565b81010312610e145751945f610ff6565b3d91506110fa565b60405162461bcd60e51b815260206004820152600c60248201526b155b985d5d1a1bdc9a5e995960a21b6044820152606490fd5b506001546001600160a01b03163314610fc5565b63703e46dd60e11b8252600482fd5b5f51602061200d5f395f51905f52546001600160a01b0316141590505f610f9f565b5034610223576040366003190112610223576111b261191e565b60243590811515809203610358575f516020611fed5f395f51905f52546001600160a01b031633148015611260575b156112355760207f235bc17e7930760029e9f4d860a2a8089976de5b381cf8380fc11c1d88a111339160018060a01b031692838552600482526040852060ff1981541660ff8316179055604051908152a280f35b606460405162461bcd60e51b8152602060048201526004602482015263082eae8d60e31b6044820152fd5b506005546001600160a01b031633146111e1565b503461022357602036600319011261022357602061129861129361191e565b611e0d565b604051908152f35b50346102235760203660031901126102235760209060ff906040906001600160a01b036112cb61191e565b168152600484522054166040519015158152f35b5034610223576020366003190112610223576112f961191e565b6001546001600160a01b03169190611312338414611c98565b6020906040519361132383866119fa565b8385526001600160a01b037f000000000000000000000000000000000000000000000000000000000000000016308114908115611503575b506114f4575f516020611fed5f395f51905f52546001600160a01b031633149081156114ea575b50156114b6576040516352d1902d60e01b81526001600160a01b03821694908381600481895afa859181611483575b506113ca57634c9c8ce360e01b85526004869052602485fd5b5f51602061200d5f395f51905f5281036110d95750813b1561146f575f51602061200d5f395f51905f5280546001600160a01b0319168617905592938493905f51602061204d5f395f51905f528580a280511561146557928084846110a196519101845af4903d1561145c573d61144081611a31565b9061144e60405192836119fa565b81528581943d92013e611f8e565b60609250611f8e565b5050506110b85780f35b634c9c8ce360e01b84526004859052602484fd5b9091508481813d83116114af575b61149b81836119fa565b810103126114ab5751905f6113b1565b8580fd5b503d611491565b60405162461bcd60e51b815260048101839052600c60248201526b155b985d5d1a1bdc9a5e995960a21b6044820152606490fd5b905033145f611382565b63703e46dd60e11b8452600484fd5b5f51602061200d5f395f51905f52546001600160a01b0316141590505f61135b565b50346102235780600319360112610223576020600354604051908152f35b50346102235761155236611aa0565b61156760018060a01b03600154163314611c98565b6001600160a01b0382169161157d831515611cd2565b835460405163a787c80b60e01b8152600481018590526001600160a01b039091169190602081602481865afa8015610c7b576115bf9187916103605750611d2d565b825115611652578185923b15610358578383916115f3938360405180968195829463ce40998560e01b845260048401611d72565b03925af180156102185761163d575b5050610c1b7fdd635a4cd84864e37e4479dbfc2ec667acfa473c83c8422a8ac9d9d07599b01c9160405191829160208352602083019061194a565b81611647916119fa565b61035857825f611602565b60405162461bcd60e51b81526020600482015260196024820152784950465320686173682063616e6e6f7420626520656d70747960381b6044820152606490fd5b50346117a4576116a236611aa0565b6116b760018060a01b03600154163314611c98565b6001600160a01b038216916116cd831515611cd2565b5f5460405163a787c80b60e01b8152600481018590526001600160a01b0390911690602081602481855afa80156117995761170e915f916103605750611d2d565b803b156117a457825f916117399383604051809681958294631618bf5960e11b845260048401611d72565b03925af1801561179957611782575b50610c1b7fcc18228e480194b6eb176cebd651be35a4eb3236a2461b112a3e89ea1b1c40dd9160405191829160208352602083019061194a565b61178f9193505f906119fa565b5f91610c1b611748565b6040513d5f823e3d90fd5b5f80fd5b346117a45760203660031901126117a457600435600354811015611868576117cf90611c6c565b90545f805460405162f53a4760e41b815260039490941b9290921c6001600160a01b039081166004850152909183916024918391165afa908115611799575f91611846575b5080516020820151604080840151606090940151905193849361092c936001600160a01b03928316929091168561196e565b61186291503d805f833e61185a81836119fa565b810190611b50565b81611814565b60405162461bcd60e51b8152602060048201526013602482015272496e646578206f7574206f6620626f756e647360681b6044820152606490fd5b346117a45760203660031901126117a4575f816024816118c161191e565b845462f53a4760e41b83526001600160a01b039182166004840152165afa908115611799575f91611846575080516020820151604080840151606090940151905193849361092c936001600160a01b03928316929091168561196e565b600435906001600160a01b03821682036117a457565b604435906001600160a01b03821682036117a457565b805180835260209291819084018484015e5f828201840152601f01601f1916010190565b9161198e9160018060a01b0316835260806020840152608083019061194a565b9160018060a01b031660408201526060818303910152815180825260208201916020808360051b8301019401925f915b8383106119cd57505050505090565b90919293946020806119eb600193601f19868203018752895161194a565b970193019301919392906119be565b601f909101601f19168101906001600160401b03821190821017611a1d57604052565b634e487b7160e01b5f52604160045260245ffd5b6001600160401b038111611a1d57601f01601f191660200190565b929192611a5882611a31565b91611a6660405193846119fa565b8294818452818301116117a4578281602093845f960137010152565b9080601f830112156117a457816020611a9d93359101611a4c565b90565b9060406003198301126117a4576004356001600160a01b03811681036117a45791602435906001600160401b0382116117a457611a9d91600401611a82565b51906001600160a01b03821682036117a457565b81601f820112156117a457805190611b0a82611a31565b92611b1860405194856119fa565b828452602083830101116117a457815f9260208093018386015e8301015290565b6001600160401b038111611a1d5760051b60200190565b6020818303126117a4578051906001600160401b0382116117a45701906080828203126117a45760405191608083016001600160401b03811184821017611a1d57604052611b9d81611adf565b835260208101516001600160401b0381116117a45782611bbe918301611af3565b6020840152611bcf60408201611adf565b60408401526060810151906001600160401b0382116117a457019080601f830112156117a4578151611c0081611b39565b92611c0e60405194856119fa565b81845260208085019260051b820101918383116117a45760208201905b838210611c3f575050505050606082015290565b81516001600160401b0381116117a457602091611c6187848094880101611af3565b815201910190611c2b565b600254811015611c845760025f5260205f2001905f90565b634e487b7160e01b5f52603260045260245ffd5b15611c9f57565b60405162461bcd60e51b815260206004820152600b60248201526a4f6e6c792062726964676560a81b6044820152606490fd5b15611cd957565b60405162461bcd60e51b8152602060048201526014602482015273496e76616c69642075736572206164647265737360601b6044820152606490fd5b908160209103126117a4575180151581036117a45790565b15611d3457565b60405162461bcd60e51b8152602060048201526016602482015275141c9bd99a5b1948191bd95cc81b9bdd08195e1a5cdd60521b6044820152606490fd5b6001600160a01b039091168152604060208201819052611a9d9291019061194a565b6020818303126117a4578051906001600160401b0382116117a457019080601f830112156117a4578151611dc781611b39565b92611dd560405194856119fa565b81845260208085019260051b8201019283116117a457602001905b828210611dfd5750505090565b8151815260209182019101611df0565b5f805460405163f50336f960e01b81526001600160a01b039384166004820152939284916024918391165afa918215611799575f92611eb6575b50815115611eb1575f91825b8151841015611e8e5760208460051b830101518101809111611e7a57600190930192611e53565b634e487b7160e01b5f52601160045260245ffd5b91925051908115611e9d570490565b634e487b7160e01b5f52601260045260245ffd5b5f9150565b611ecb9192503d805f833e61020a81836119fa565b905f611e47565b6001600160a01b03168015611f1d575f516020611fed5f395f51905f5280546001600160a01b0319811683179091556001600160a01b03165f51602061202d5f395f51905f525f80a3565b631e4fbdf760e01b5f525f60045260245ffd5b5f516020611fed5f395f51905f52546001600160a01b03163303611f5057565b63118cdaa760e01b5f523360045260245ffd5b60ff5f51602061206d5f395f51905f525460401c1615611f7f57565b631afcd79f60e31b5f5260045ffd5b90611fb25750805115611fa357805190602001fd5b630a12f52160e11b5f5260045ffd5b81511580611fe3575b611fc3575090565b639996b31560e01b5f9081526001600160a01b0391909116600452602490fd5b50803b15611fbb56fe9016d09d72d40fdae2fd8ceac6b6234c7706214fd39c1cd1e609a0528c199300360894a13ba1a3210667c828492db98dca3e2076cc3735a920a3ca505d382bbc8be0079c531659141344cd1fd0a4f28419497f9722a3daafe3b4186f6b6457e0bc7cd75a20ee27fd9adebab32041f755214dbc6bffa90cc0225b39da2e5c2d3bf0c57e16840df040f15088dc2f81fe391c3923bec73e23a9662efc9c229c6a00a2646970667358221220d5e4717e1d7d850ef92236f43a792200a0f78028828df5845893cc405736ed6d64736f6c63430008210033f0c57e16840df040f15088dc2f81fe391c3923bec73e23a9662efc9c229c6a00","linkReferences":{}},"methodIdentifiers":{"UPGRADE_INTERFACE_VERSION()":"ad3cb1cc","addPortfolio(address,string)":"2c317eb2","admins(address)":"429b62e5","bridge()":"e78cea92","createProfile(address,string,address)":"d888cc27","genesis()":"a7f0b3de","getAllProfileUsers()":"b0cc4060","getProfile(address)":"0f53a470","getProfileByIndex(uint256)":"26d74479","getProfileCount()":"3697611a","getUserRating(address)":"460168c3","getUserRatings(address)":"f50336f9","hasProfile(address)":"a787c80b","initialize(address,address,address)":"c0c53b8b","nativeDAO()":"687694ae","owner()":"8da5cb5b","proxiableUUID()":"52d1902d","rate(address,string,address,uint256)":"6a23a98a","removePortfolioItem(address,uint256)":"efe24b8d","renounceOwnership()":"715018a6","setAdmin(address,bool)":"4b0bddd2","setBridge(address)":"8dd14802","setGenesis(address)":"eb14b353","setNativeDAO(address)":"a2f7cb26","transferOwnership(address)":"f2fde38b","updatePortfolioItem(address,uint256,string)":"7c83b0aa","updateProfile(address,string)":"3199ac02","upgradeFromDAO(address)":"40634e3b","upgradeToAndCall(address,bytes)":"4f1ef286"},"id":9}