{"abi":[{"type":"constructor","inputs":[],"stateMutability":"nonpayable"},{"type":"function","name":"UPGRADE_INTERFACE_VERSION","inputs":[],"outputs":[{"name":"","type":"string","internalType":"string"}],"stateMutability":"view"},{"type":"function","name":"addPortfolio","inputs":[{"name":"_user","type":"address","internalType":"address"},{"name":"_portfolioHash","type":"string","internalType":"string"}],"outputs":[],"stateMutability":"nonpayable"},{"type":"function","name":"admins","inputs":[{"name":"","type":"address","internalType":"address"}],"outputs":[{"name":"","type":"bool","internalType":"bool"}],"stateMutability":"view"},{"type":"function","name":"bridge","inputs":[],"outputs":[{"name":"","type":"address","internalType":"address"}],"stateMutability":"view"},{"type":"function","name":"createProfile","inputs":[{"name":"_user","type":"address","internalType":"address"},{"name":"_ipfsHash","type":"string","internalType":"string"},{"name":"_referrerAddress","type":"address","internalType":"address"}],"outputs":[],"stateMutability":"nonpayable"},{"type":"function","name":"genesis","inputs":[],"outputs":[{"name":"","type":"address","internalType":"contract IOpenworkGenesis"}],"stateMutability":"view"},{"type":"function","name":"getAllProfileUsers","inputs":[],"outputs":[{"name":"","type":"address[]","internalType":"address[]"}],"stateMutability":"view"},{"type":"function","name":"getProfile","inputs":[{"name":"_user","type":"address","internalType":"address"}],"outputs":[{"name":"userAddress","type":"address","internalType":"address"},{"name":"ipfsHash","type":"string","internalType":"string"},{"name":"referrerAddress","type":"address","internalType":"address"},{"name":"portfolioHashes","type":"string[]","internalType":"string[]"}],"stateMutability":"view"},{"type":"function","name":"getProfileByIndex","inputs":[{"name":"_index","type":"uint256","internalType":"uint256"}],"outputs":[{"name":"userAddress","type":"address","internalType":"address"},{"name":"ipfsHash","type":"string","internalType":"string"},{"name":"referrerAddress","type":"address","internalType":"address"},{"name":"portfolioHashes","type":"string[]","internalType":"string[]"}],"stateMutability":"view"},{"type":"function","name":"getProfileCount","inputs":[],"outputs":[{"name":"","type":"uint256","internalType":"uint256"}],"stateMutability":"view"},{"type":"function","name":"getUserRating","inputs":[{"name":"_user","type":"address","internalType":"address"}],"outputs":[{"name":"","type":"uint256","internalType":"uint256"}],"stateMutability":"view"},{"type":"function","name":"getUserRatings","inputs":[{"name":"_user","type":"address","internalType":"address"}],"outputs":[{"name":"","type":"uint256[]","internalType":"uint256[]"}],"stateMutability":"view"},{"type":"function","name":"hasProfile","inputs":[{"name":"_user","type":"address","internalType":"address"}],"outputs":[{"name":"","type":"bool","internalType":"bool"}],"stateMutability":"view"},{"type":"function","name":"initialize","inputs":[{"name":"_owner","type":"address","internalType":"address"},{"name":"_bridge","type":"address","internalType":"address"},{"name":"_genesis","type":"address","internalType":"address"}],"outputs":[],"stateMutability":"nonpayable"},{"type":"function","name":"nativeDAO","inputs":[],"outputs":[{"name":"","type":"address","internalType":"address"}],"stateMutability":"view"},{"type":"function","name":"owner","inputs":[],"outputs":[{"name":"","type":"address","internalType":"address"}],"stateMutability":"view"},{"type":"function","name":"proxiableUUID","inputs":[],"outputs":[{"name":"","type":"bytes32","internalType":"bytes32"}],"stateMutability":"view"},{"type":"function","name":"rate","inputs":[{"name":"_rater","type":"address","internalType":"address"},{"name":"_jobId","type":"string","internalType":"string"},{"name":"_userToRate","type":"address","internalType":"address"},{"name":"_rating","type":"uint256","internalType":"uint256"}],"outputs":[],"stateMutability":"nonpayable"},{"type":"function","name":"removePortfolioItem","inputs":[{"name":"_user","type":"address","internalType":"address"},{"name":"_index","type":"uint256","internalType":"uint256"}],"outputs":[],"stateMutability":"nonpayable"},{"type":"function","name":"renounceOwnership","inputs":[],"outputs":[],"stateMutability":"nonpayable"},{"type":"function","name":"setAdmin","inputs":[{"name":"_admin","type":"address","internalType":"address"},{"name":"_status","type":"bool","internalType":"bool"}],"outputs":[],"stateMutability":"nonpayable"},{"type":"function","name":"setBridge","inputs":[{"name":"_bridge","type":"address","internalType":"address"}],"outputs":[],"stateMutability":"nonpayable"},{"type":"function","name":"setGenesis","inputs":[{"name":"_genesis","type":"address","internalType":"address"}],"outputs":[],"stateMutability":"nonpayable"},{"type":"function","name":"setNativeDAO","inputs":[{"name":"_nativeDAO","type":"address","internalType":"address"}],"outputs":[],"stateMutability":"nonpayable"},{"type":"function","name":"transferOwnership","inputs":[{"name":"newOwner","type":"address","internalType":"address"}],"outputs":[],"stateMutability":"nonpayable"},{"type":"function","name":"updatePortfolioItem","inputs":[{"name":"_user","type":"address","internalType":"address"},{"name":"_index","type":"uint256","internalType":"uint256"},{"name":"_newPortfolioHash","type":"string","internalType":"string"}],"outputs":[],"stateMutability":"nonpayable"},{"type":"function","name":"updateProfile","inputs":[{"name":"_user","type":"address","internalType":"address"},{"name":"_newIpfsHash","type":"string","internalType":"string"}],"outputs":[],"stateMutability":"nonpayable"},{"type":"function","name":"upgradeFromDAO","inputs":[{"name":"newImplementation","type":"address","internalType":"address"}],"outputs":[],"stateMutability":"nonpayable"},{"type":"function","name":"upgradeToAndCall","inputs":[{"name":"newImplementation","type":"address","internalType":"address"},{"name":"data","type":"bytes","internalType":"bytes"}],"outputs":[],"stateMutability":"payable"},{"type":"event","name":"AdminUpdated","inputs":[{"name":"admin","type":"address","indexed":true,"internalType":"address"},{"name":"status","type":"bool","indexed":false,"internalType":"bool"}],"anonymous":false},{"type":"event","name":"BridgeUpdated","inputs":[{"name":"oldBridge","type":"address","indexed":true,"internalType":"address"},{"name":"newBridge","type":"address","indexed":true,"internalType":"address"}],"anonymous":false},{"type":"event","name":"GenesisUpdated","inputs":[{"name":"oldGenesis","type":"address","indexed":true,"internalType":"address"},{"name":"newGenesis","type":"address","indexed":true,"internalType":"address"}],"anonymous":false},{"type":"event","name":"Initialized","inputs":[{"name":"version","type":"uint64","indexed":false,"internalType":"uint64"}],"anonymous":false},{"type":"event","name":"NativeDAOUpdated","inputs":[{"name":"oldDAO","type":"address","indexed":true,"internalType":"address"},{"name":"newDAO","type":"address","indexed":true,"internalType":"address"}],"anonymous":false},{"type":"event","name":"OwnershipTransferred","inputs":[{"name":"previousOwner","type":"address","indexed":true,"internalType":"address"},{"name":"newOwner","type":"address","indexed":true,"internalType":"address"}],"anonymous":false},{"type":"event","name":"PortfolioAdded","inputs":[{"name":"user","type":"address","indexed":true,"internalType":"address"},{"name":"portfolioHash","type":"string","indexed":false,"internalType":"string"}],"anonymous":false},{"type":"event","name":"PortfolioItemRemoved","inputs":[{"name":"user","type":"address","indexed":true,"internalType":"address"},{"name":"index","type":"uint256","indexed":false,"internalType":"uint256"}],"anonymous":false},{"type":"event","name":"PortfolioItemUpdated","inputs":[{"name":"user","type":"address","indexed":true,"internalType":"address"},{"name":"index","type":"uint256","indexed":false,"internalType":"uint256"},{"name":"newPortfolioHash","type":"string","indexed":false,"internalType":"string"}],"anonymous":false},{"type":"event","name":"ProfileCreated","inputs":[{"name":"user","type":"address","indexed":true,"internalType":"address"},{"name":"ipfsHash","type":"string","indexed":false,"internalType":"string"},{"name":"referrer","type":"address","indexed":true,"internalType":"address"}],"anonymous":false},{"type":"event","name":"ProfileUpdated","inputs":[{"name":"user","type":"address","indexed":true,"internalType":"address"},{"name":"newIpfsHash","type":"string","indexed":false,"internalType":"string"}],"anonymous":false},{"type":"event","name":"Upgraded","inputs":[{"name":"implementation","type":"address","indexed":true,"internalType":"address"}],"anonymous":false},{"type":"event","name":"UserRated","inputs":[{"name":"jobId","type":"string","indexed":true,"internalType":"string"},{"name":"rater","type":"address","indexed":true,"internalType":"address"},{"name":"rated","type":"address","indexed":true,"internalType":"address"},{"name":"rating","type":"uint256","indexed":false,"internalType":"uint256"}],"anonymous":false},{"type":"error","name":"AddressEmptyCode","inputs":[{"name":"target","type":"address","internalType":"address"}]},{"type":"error","name":"ERC1967InvalidImplementation","inputs":[{"name":"implementation","type":"address","internalType":"address"}]},{"type":"error","name":"ERC1967NonPayable","inputs":[]},{"type":"error","name":"FailedInnerCall","inputs":[]},{"type":"error","name":"InvalidInitialization","inputs":[]},{"type":"error","name":"NotInitializing","inputs":[]},{"type":"error","name":"OwnableInvalidOwner","inputs":[{"name":"owner","type":"address","internalType":"address"}]},{"type":"error","name":"OwnableUnauthorizedAccount","inputs":[{"name":"account","type":"address","internalType":"address"}]},{"type":"error","name":"UUPSUnauthorizedCallContext","inputs":[]},{"type":"error","name":"UUPSUnsupportedProxiableUUID","inputs":[{"name":"slot","type":"bytes32","internalType":"bytes32"}]}],"bytecode":{"object":"0x60a080604052346100c957306080525f51602061245e5f395f51905f525460ff8160401c166100ba576002600160401b03196001600160401b03821601610067575b60405161239090816100ce82396080518181816111940152818161123801526115f40152f35b6001600160401b0319166001600160401b039081175f51602061245e5f395f51905f525581527fc7f505b2f371ae2175ee4913f4499e1f2633a7b5936321eed1cdaeb6115181d290602090a15f80610041565b63f92ee8a960e01b5f5260045ffd5b5f80fdfe6080806040526004361015610012575f80fd5b5f905f3560e01c9081630f53a47014611b675750806326d7447914611a6c5780632c317eb2146119575780633199ac02146118075780633697611a146117e957806340634e3b146115a3578063429b62e514611564578063460168c3146115385780634b0bddd21461145c5780634f1ef286146111e857806352d1902d14611181578063687694ae146111585780636a23a98a14610cdc578063715018a614610c865780637c83b0aa14610ae15780638da5cb5b14610aac5780638dd1480214610a41578063a2f7cb26146109d6578063a787c80b14610957578063a7f0b3de14610930578063ad3cb1cc146108e3578063b0cc40601461081b578063c0c53b8b1461066d578063d888cc271461042a578063e78cea9214610401578063eb14b3531461039a578063efe24b8d14610253578063f2fde38b146102265763f50336f91461015d575f80fd5b3461022357602036600319011261022357610176611be2565b815460405163f50336f960e01b81526001600160a01b03928316600482015291839183916024918391165afa9081156102185782916101f6575b5090604051918291602083016020845282518091526020604085019301915b8181106101dd575050500390f35b82518452859450602093840193909201916001016101cf565b61021291503d8084833e61020a8183611cbe565b810190612062565b5f6101b0565b6040513d84823e3d90fd5b80fd5b503461022357602036600319011261022357610250610243611be2565b61024b6121fe565b6121a0565b80f35b50346102235760403660031901126102235761026d611be2565b6024359061028660018060a01b03600154163314611f66565b6001600160a01b03169061029b821515611fa0565b825460405163a787c80b60e01b81526004810184905284916001600160a01b031690602081602481855afa801561038f576102dd918491610360575b50611ffb565b803b1561035c5781809160446040518094819363efe24b8d60e01b83528960048401528860248401525af1801561021857610343575b505060207f71896b71d4d23246e9605b719083d8266614b1316d706a9fff17e4d4e9857c7a91604051908152a280f35b8161034d91611cbe565b61035857825f610313565b8280fd5b5080fd5b610382915060203d602011610388575b61037a8183611cbe565b810190611fe3565b5f6102d7565b503d610370565b6040513d85823e3d90fd5b5034610223576020366003190112610223576103b4611be2565b6103bc6121fe565b81546001600160a01b039182166001600160a01b031982168117845591167f5f1d51aab4bd6e41be6c7feda322db860d93d0058238bf871dfafd43ecc951f98380a380f35b50346102235780600319360112610223576001546040516001600160a01b039091168152602090f35b503461022357606036600319011261022357610444611be2565b6024356001600160401b03811161035857610463903690600401611d46565b61046b611bf8565b9161048160018060a01b03600154163314611f66565b6001600160a01b031690610496821515611fa0565b835460405163a787c80b60e01b81526004810184905290602090829060249082906001600160a01b03165afa908115610662578591610643575b5061060557600254600160401b8110156105f1578060016104f49201600255611f3a565b8154600391821b85811b6001600160a01b0390911b1990911617909155545f1981146105dd57600101600355835484906001600160a01b0316803b1561035c57816040518092630c80432360e31b825286600483015260606024830152818381610561606482018a611c0e565b6001600160a01b03909b16604482018190529a03925af18015610218576105c4575b50506105be7f5874afb0d71e1f97e546fc6b15493e51e5ccbefa591556f8c6a80c8c5151a84f91604051918291602083526020830190611c0e565b0390a380f35b816105ce91611cbe565b6105d957835f610583565b8380fd5b634e487b7160e01b85526011600452602485fd5b634e487b7160e01b85526041600452602485fd5b60405162461bcd60e51b815260206004820152601660248201527550726f66696c6520616c72656164792065786973747360501b6044820152606490fd5b61065c915060203d6020116103885761037a8183611cbe565b5f6104d0565b6040513d87823e3d90fd5b503461022357606036600319011261022357610687611be2565b6024356001600160a01b0381169190829003610358576106a5611bf8565b5f51602061233b5f395f51905f5254604081901c60ff161593906001600160401b03811680159081610813575b6001149081610809575b159081610800575b506107f1576001600160401b031981166001175f51602061233b5f395f51905f5255846107c9575b50610715612231565b61071d612231565b610726836121a0565b61072e612231565b600180546001600160a01b031990811692909217815585549091166001600160a01b0392831617855591168352600460205260408320805460ff191690911790556107765780f35b60ff60401b195f51602061233b5f395f51905f5254165f51602061233b5f395f51905f52557fc7f505b2f371ae2175ee4913f4499e1f2633a7b5936321eed1cdaeb6115181d2602060405160018152a180f35b6001600160481b0319166001600160401b01175f51602061233b5f395f51905f52555f61070c565b63f92ee8a960e01b8652600486fd5b9050155f6106e4565b303b1591506106dc565b8691506106d2565b503461022357806003193601126102235760405160028054808352908352602082019081907f405787fa12a823e0f2b7631cc41b3ba8828b3321ca811111fa75cd3aa3bb5ace90855b8181106108c4575050508261087a910383611cbe565b604051928392602084019060208552518091526040840192915b8181106108a2575050500390f35b82516001600160a01b0316845285945060209384019390920191600101610894565b82546001600160a01b0316845260209093019260019283019201610864565b50346102235780600319360112610223575061092c604051610906604082611cbe565b60058152640352e302e360dc1b6020820152604051918291602083526020830190611c0e565b0390f35b5034610223578060031936011261022357546040516001600160a01b039091168152602090f35b503461022357602036600319011261022357610971611be2565b815460405163a787c80b60e01b81526001600160a01b0392831660048201529160209183916024918391165afa90811561021857602092916109b9575b506040519015158152f35b6109d09150823d84116103885761037a8183611cbe565b5f6109ae565b5034610223576020366003190112610223576109f0611be2565b6109f86121fe565b600580546001600160a01b039283166001600160a01b0319821681179092559091167febf0307548e44546701f6014620caeea64df200e2b3925bfd3c75d354fd7410d8380a380f35b503461022357602036600319011261022357610a5b611be2565b610a636121fe565b600180546001600160a01b039283166001600160a01b0319821681179092559091167faae9beddccf584528e87b66c6ff2563825c8a1433305b8a656e9b5f9bf3904998380a380f35b50346102235780600319360112610223575f5160206122bb5f395f51905f52546040516001600160a01b039091168152602090f35b503461022357606036600319011261022357610afb611be2565b6024356044356001600160401b0381116105d957610b1d903690600401611d46565b91610b3360018060a01b03600154163314611f66565b6001600160a01b031691610b48831515611fa0565b835460405163a787c80b60e01b8152600481018590526001600160a01b0390911690602081602481855afa8015610c7b57610b899187916103605750611ffb565b815115610c36578085913b1561035c57816040518092633e41d85560e11b825287600483015286602483015260606044830152818381610bcc606482018a611c0e565b03925af1801561021857610c21575b50507fc39f56c165e6e8a9ac36c2adf54383775830c65cc8239fb382b4baf459233ab791610c1b6040519283928352604060208401526040830190611c0e565b0390a280f35b81610c2b91611cbe565b6105d957835f610bdb565b60405162461bcd60e51b815260206004820152601e60248201527f506f7274666f6c696f20686173682063616e6e6f7420626520656d70747900006044820152606490fd5b6040513d88823e3d90fd5b5034610223578060031936011261022357610c9f6121fe565b5f5160206122bb5f395f51905f5280546001600160a01b0319811690915581906001600160a01b03165f5160206122fb5f395f51905f528280a380f35b503461022357608036600319011261022357610cf6611be2565b6024356001600160401b03811161035857610d15903690600401611d46565b90610d1e611bf8565b9160643590610d3860018060a01b03600154163314611f66565b8115158061114d575b156111135784546040516377e3240760e01b815260206004820152936001600160a01b0390911690868580610d796024820187611c0e565b0381855afa948515611108578795610f49575b5084515115610f0f5760208501516001600160a01b039182169588929091169081871480610ef5575b15610ebd5750505060015b15610e7f578086913b1561035c5781604051809263037da98d60e11b825260606004830152818381610df5606482018a611c0e565b6001600160a01b03909c1660248201819052604482018b90529b03925af1801561021857610e66575b50506020807f210dac24c32efa80ef08f803d73e7033bee07555af4a95a00e79a488121b0bd692604051918183925191829101835e810188815203902092604051908152a480f35b81610e7091611cbe565b610e7b57845f610e1e565b8480fd5b60405162461bcd60e51b81526020600482015260166024820152754e6f7420617574686f72697a656420746f207261746560501b6044820152606490fd5b61010001516001600160a01b031686149081610ee2575b5015610dc057506001610dc0565b6001600160a01b0388161490505f610ed4565b506101008101516001600160a01b03898116911614610db5565b60405162461bcd60e51b8152602060048201526012602482015271129bd888191bd95cc81b9bdd08195e1a5cdd60721b6044820152606490fd5b9094503d8088833e610f5b8183611cbe565b810190602081830312611100578051906001600160401b03821161110457019061014082820312611100576040519161014083016001600160401b038111848210176110ec5760405280516001600160401b0381116110cc5782610fc0918301611db7565b8352610fce60208201611da3565b602084015260408101516001600160401b0381116110cc57810182601f820112156110cc57805190610fff82611dfd565b9161100d6040519384611cbe565b80835260208084019160051b830101918583116110e857602001905b8282106110d057505050604084015260608101516001600160401b0381116110cc5782611057918301611db7565b6060840152608081015160048110156110cc57608084015260a08101516001600160401b0381116110cc5761012092611091918301611e14565b60a084015260c081015160c084015260e081015160e08401526110b76101008201611da3565b6101008401520151610120820152935f610d8c565b8980fd5b602080916110dd84611da3565b815201910190611029565b8c80fd5b634e487b7160e01b8a52604160045260248afd5b8780fd5b8880fd5b6040513d89823e3d90fd5b60405162461bcd60e51b8152602060048201526012602482015271526174696e67206d75737420626520312d3560701b6044820152606490fd5b506005821115610d41565b50346102235780600319360112610223576005546040516001600160a01b039091168152602090f35b50346102235780600319360112610223577f00000000000000000000000000000000000000000000000000000000000000006001600160a01b031630036111d95760206040515f5160206122db5f395f51905f528152f35b63703e46dd60e11b8152600490fd5b506040366003190112610223576111fd611be2565b906024356001600160401b03811161035c573660238201121561035c5761122e903690602481600401359101611d10565b6001600160a01b037f00000000000000000000000000000000000000000000000000000000000000001630811490811561143a575b5061142b575f5160206122bb5f395f51905f52546001600160a01b031633148015611417575b156113e3576040516352d1902d60e01b8152926001600160a01b0381169190602085600481865afa809585966113af575b506112d357634c9c8ce360e01b84526004839052602484fd5b9091845f5160206122db5f395f51905f52810361139d5750813b1561138b575f5160206122db5f395f51905f5280546001600160a01b031916821790555f51602061231b5f395f51905f528480a28151839015611371578083602061136595519101845af43d15611369573d9161134983611cf5565b926113576040519485611cbe565b83523d85602085013e61225c565b5080f35b60609161225c565b5050503461137c5780f35b63b398979f60e01b8152600490fd5b634c9c8ce360e01b8452600452602483fd5b632a87526960e21b8552600452602484fd5b9095506020813d6020116113db575b816113cb60209383611cbe565b81010312610e7b5751945f6112ba565b3d91506113be565b60405162461bcd60e51b815260206004820152600c60248201526b155b985d5d1a1bdc9a5e995960a21b6044820152606490fd5b506001546001600160a01b03163314611289565b63703e46dd60e11b8252600482fd5b5f5160206122db5f395f51905f52546001600160a01b0316141590505f611263565b503461022357604036600319011261022357611476611be2565b60243590811515809203610358575f5160206122bb5f395f51905f52546001600160a01b031633148015611524575b156114f95760207f235bc17e7930760029e9f4d860a2a8089976de5b381cf8380fc11c1d88a111339160018060a01b031692838552600482526040852060ff1981541660ff8316179055604051908152a280f35b606460405162461bcd60e51b8152602060048201526004602482015263082eae8d60e31b6044820152fd5b506005546001600160a01b031633146114a5565b503461022357602036600319011261022357602061155c611557611be2565b6120db565b604051908152f35b50346102235760203660031901126102235760209060ff906040906001600160a01b0361158f611be2565b168152600484522054166040519015158152f35b5034610223576020366003190112610223576115bd611be2565b6001546001600160a01b031691906115d6338414611f66565b602090604051936115e78386611cbe565b8385526001600160a01b037f0000000000000000000000000000000000000000000000000000000000000000163081149081156117c7575b506117b8575f5160206122bb5f395f51905f52546001600160a01b031633149081156117ae575b501561177a576040516352d1902d60e01b81526001600160a01b03821694908381600481895afa859181611747575b5061168e57634c9c8ce360e01b85526004869052602485fd5b5f5160206122db5f395f51905f52810361139d5750813b15611733575f5160206122db5f395f51905f5280546001600160a01b0319168617905592938493905f51602061231b5f395f51905f528580a2805115611729579280848461136596519101845af4903d15611720573d61170481611cf5565b906117126040519283611cbe565b81528581943d92013e61225c565b6060925061225c565b50505061137c5780f35b634c9c8ce360e01b84526004859052602484fd5b9091508481813d8311611773575b61175f8183611cbe565b8101031261176f5751905f611675565b8580fd5b503d611755565b60405162461bcd60e51b815260048101839052600c60248201526b155b985d5d1a1bdc9a5e995960a21b6044820152606490fd5b905033145f611646565b63703e46dd60e11b8452600484fd5b5f5160206122db5f395f51905f52546001600160a01b0316141590505f61161f565b50346102235780600319360112610223576020600354604051908152f35b50346102235761181636611d64565b61182b60018060a01b03600154163314611f66565b6001600160a01b03821691611841831515611fa0565b835460405163a787c80b60e01b8152600481018590526001600160a01b039091169190602081602481865afa8015610c7b576118839187916103605750611ffb565b825115611916578185923b15610358578383916118b7938360405180968195829463ce40998560e01b845260048401612040565b03925af1801561021857611901575b5050610c1b7fdd635a4cd84864e37e4479dbfc2ec667acfa473c83c8422a8ac9d9d07599b01c91604051918291602083526020830190611c0e565b8161190b91611cbe565b61035857825f6118c6565b60405162461bcd60e51b81526020600482015260196024820152784950465320686173682063616e6e6f7420626520656d70747960381b6044820152606490fd5b5034611a685761196636611d64565b61197b60018060a01b03600154163314611f66565b6001600160a01b03821691611991831515611fa0565b5f5460405163a787c80b60e01b8152600481018590526001600160a01b0390911690602081602481855afa8015611a5d576119d2915f916103605750611ffb565b803b15611a6857825f916119fd9383604051809681958294631618bf5960e11b845260048401612040565b03925af18015611a5d57611a46575b50610c1b7fcc18228e480194b6eb176cebd651be35a4eb3236a2461b112a3e89ea1b1c40dd91604051918291602083526020830190611c0e565b611a539193505f90611cbe565b5f91610c1b611a0c565b6040513d5f823e3d90fd5b5f80fd5b34611a68576020366003190112611a6857600435600354811015611b2c57611a9390611f3a565b90545f805460405162f53a4760e41b815260039490941b9290921c6001600160a01b039081166004850152909183916024918391165afa908115611a5d575f91611b0a575b5080516020820151604080840151606090940151905193849361092c936001600160a01b039283169290911685611c32565b611b2691503d805f833e611b1e8183611cbe565b810190611e92565b81611ad8565b60405162461bcd60e51b8152602060048201526013602482015272496e646578206f7574206f6620626f756e647360681b6044820152606490fd5b34611a68576020366003190112611a68575f81602481611b85611be2565b845462f53a4760e41b83526001600160a01b039182166004840152165afa908115611a5d575f91611b0a575080516020820151604080840151606090940151905193849361092c936001600160a01b039283169290911685611c32565b600435906001600160a01b0382168203611a6857565b604435906001600160a01b0382168203611a6857565b805180835260209291819084018484015e5f828201840152601f01601f1916010190565b91611c529160018060a01b03168352608060208401526080830190611c0e565b9160018060a01b031660408201526060818303910152815180825260208201916020808360051b8301019401925f915b838310611c9157505050505090565b9091929394602080611caf600193601f198682030187528951611c0e565b97019301930191939290611c82565b601f909101601f19168101906001600160401b03821190821017611ce157604052565b634e487b7160e01b5f52604160045260245ffd5b6001600160401b038111611ce157601f01601f191660200190565b929192611d1c82611cf5565b91611d2a6040519384611cbe565b829481845281830111611a68578281602093845f960137010152565b9080601f83011215611a6857816020611d6193359101611d10565b90565b906040600319830112611a68576004356001600160a01b0381168103611a685791602435906001600160401b038211611a6857611d6191600401611d46565b51906001600160a01b0382168203611a6857565b81601f82011215611a6857805190611dce82611cf5565b92611ddc6040519485611cbe565b82845260208383010111611a6857815f9260208093018386015e8301015290565b6001600160401b038111611ce15760051b60200190565b9080601f83011215611a68578151611e2b81611dfd565b92611e396040519485611cbe565b81845260208085019260051b82010191838311611a685760208201905b838210611e6557505050505090565b81516001600160401b038111611a6857602091611e8787848094880101611db7565b815201910190611e56565b602081830312611a68578051906001600160401b038211611a685701608081830312611a685760405191608083016001600160401b03811184821017611ce157604052611ede82611da3565b835260208201516001600160401b038111611a685781611eff918401611db7565b6020840152611f1060408301611da3565b604084015260608201516001600160401b038111611a6857611f329201611e14565b606082015290565b600254811015611f525760025f5260205f2001905f90565b634e487b7160e01b5f52603260045260245ffd5b15611f6d57565b60405162461bcd60e51b815260206004820152600b60248201526a4f6e6c792062726964676560a81b6044820152606490fd5b15611fa757565b60405162461bcd60e51b8152602060048201526014602482015273496e76616c69642075736572206164647265737360601b6044820152606490fd5b90816020910312611a6857518015158103611a685790565b1561200257565b60405162461bcd60e51b8152602060048201526016602482015275141c9bd99a5b1948191bd95cc81b9bdd08195e1a5cdd60521b6044820152606490fd5b6001600160a01b039091168152604060208201819052611d6192910190611c0e565b602081830312611a68578051906001600160401b038211611a6857019080601f83011215611a6857815161209581611dfd565b926120a36040519485611cbe565b81845260208085019260051b820101928311611a6857602001905b8282106120cb5750505090565b81518152602091820191016120be565b5f805460405163f50336f960e01b81526001600160a01b039384166004820152939284916024918391165afa918215611a5d575f92612184575b5081511561217f575f91825b815184101561215c5760208460051b83010151810180911161214857600190930192612121565b634e487b7160e01b5f52601160045260245ffd5b9192505190811561216b570490565b634e487b7160e01b5f52601260045260245ffd5b5f9150565b6121999192503d805f833e61020a8183611cbe565b905f612115565b6001600160a01b031680156121eb575f5160206122bb5f395f51905f5280546001600160a01b0319811683179091556001600160a01b03165f5160206122fb5f395f51905f525f80a3565b631e4fbdf760e01b5f525f60045260245ffd5b5f5160206122bb5f395f51905f52546001600160a01b0316330361221e57565b63118cdaa760e01b5f523360045260245ffd5b60ff5f51602061233b5f395f51905f525460401c161561224d57565b631afcd79f60e31b5f5260045ffd5b90612280575080511561227157805190602001fd5b630a12f52160e11b5f5260045ffd5b815115806122b1575b612291575090565b639996b31560e01b5f9081526001600160a01b0391909116600452602490fd5b50803b1561228956fe9016d09d72d40fdae2fd8ceac6b6234c7706214fd39c1cd1e609a0528c199300360894a13ba1a3210667c828492db98dca3e2076cc3735a920a3ca505d382bbc8be0079c531659141344cd1fd0a4f28419497f9722a3daafe3b4186f6b6457e0bc7cd75a20ee27fd9adebab32041f755214dbc6bffa90cc0225b39da2e5c2d3bf0c57e16840df040f15088dc2f81fe391c3923bec73e23a9662efc9c229c6a00a26469706673582212207b66d661f59c24f1c29d82c4aef76e93d36e3d409fbd3fe310ae1cda3c0a170f64736f6c63430008210033f0c57e16840df040f15088dc2f81fe391c3923bec73e23a9662efc9c229c6a00","linkReferences":{}},"methodIdentifiers":{"UPGRADE_INTERFACE_VERSION()":"ad3cb1cc","addPortfolio(address,string)":"2c317eb2","admins(address)":"429b62e5","bridge()":"e78cea92","createProfile(address,string,address)":"d888cc27","genesis()":"a7f0b3de","getAllProfileUsers()":"b0cc4060","getProfile(address)":"0f53a470","getProfileByIndex(uint256)":"26d74479","getProfileCount()":"3697611a","getUserRating(address)":"460168c3","getUserRatings(address)":"f50336f9","hasProfile(address)":"a787c80b","initialize(address,address,address)":"c0c53b8b","nativeDAO()":"687694ae","owner()":"8da5cb5b","proxiableUUID()":"52d1902d","rate(address,string,address,uint256)":"6a23a98a","removePortfolioItem(address,uint256)":"efe24b8d","renounceOwnership()":"715018a6","setAdmin(address,bool)":"4b0bddd2","setBridge(address)":"8dd14802","setGenesis(address)":"eb14b353","setNativeDAO(address)":"a2f7cb26","transferOwnership(address)":"f2fde38b","updatePortfolioItem(address,uint256,string)":"7c83b0aa","updateProfile(address,string)":"3199ac02","upgradeFromDAO(address)":"40634e3b","upgradeToAndCall(address,bytes)":"4f1ef286"},"id":19}