{"abi":[{"type":"constructor","inputs":[],"stateMutability":"nonpayable"},{"type":"function","name":"UPGRADE_INTERFACE_VERSION","inputs":[],"outputs":[{"name":"","type":"string","internalType":"string"}],"stateMutability":"view"},{"type":"function","name":"addAuthorizedContract","inputs":[{"name":"_contract","type":"address","internalType":"address"},{"name":"_status","type":"bool","internalType":"bool"}],"outputs":[],"stateMutability":"nonpayable"},{"type":"function","name":"addPortfolio","inputs":[{"name":"_user","type":"address","internalType":"address"},{"name":"_portfolioHash","type":"string","internalType":"string"}],"outputs":[],"stateMutability":"nonpayable"},{"type":"function","name":"admins","inputs":[{"name":"","type":"address","internalType":"address"}],"outputs":[{"name":"","type":"bool","internalType":"bool"}],"stateMutability":"view"},{"type":"function","name":"authorizedContracts","inputs":[{"name":"","type":"address","internalType":"address"}],"outputs":[{"name":"","type":"bool","internalType":"bool"}],"stateMutability":"view"},{"type":"function","name":"bridge","inputs":[],"outputs":[{"name":"","type":"address","internalType":"address"}],"stateMutability":"view"},{"type":"function","name":"createProfile","inputs":[{"name":"_user","type":"address","internalType":"address"},{"name":"_ipfsHash","type":"string","internalType":"string"},{"name":"_referrerAddress","type":"address","internalType":"address"}],"outputs":[],"stateMutability":"nonpayable"},{"type":"function","name":"genesis","inputs":[],"outputs":[{"name":"","type":"address","internalType":"contract IOpenworkGenesis"}],"stateMutability":"view"},{"type":"function","name":"getAllProfileUsers","inputs":[],"outputs":[{"name":"","type":"address[]","internalType":"address[]"}],"stateMutability":"view"},{"type":"function","name":"getProfile","inputs":[{"name":"_user","type":"address","internalType":"address"}],"outputs":[{"name":"userAddress","type":"address","internalType":"address"},{"name":"ipfsHash","type":"string","internalType":"string"},{"name":"referrerAddress","type":"address","internalType":"address"},{"name":"portfolioHashes","type":"string[]","internalType":"string[]"}],"stateMutability":"view"},{"type":"function","name":"getProfileByIndex","inputs":[{"name":"_index","type":"uint256","internalType":"uint256"}],"outputs":[{"name":"userAddress","type":"address","internalType":"address"},{"name":"ipfsHash","type":"string","internalType":"string"},{"name":"referrerAddress","type":"address","internalType":"address"},{"name":"portfolioHashes","type":"string[]","internalType":"string[]"}],"stateMutability":"view"},{"type":"function","name":"getProfileCount","inputs":[],"outputs":[{"name":"","type":"uint256","internalType":"uint256"}],"stateMutability":"view"},{"type":"function","name":"getUserRating","inputs":[{"name":"_user","type":"address","internalType":"address"}],"outputs":[{"name":"","type":"uint256","internalType":"uint256"}],"stateMutability":"view"},{"type":"function","name":"getUserRatings","inputs":[{"name":"_user","type":"address","internalType":"address"}],"outputs":[{"name":"","type":"uint256[]","internalType":"uint256[]"}],"stateMutability":"view"},{"type":"function","name":"hasProfile","inputs":[{"name":"_user","type":"address","internalType":"address"}],"outputs":[{"name":"","type":"bool","internalType":"bool"}],"stateMutability":"view"},{"type":"function","name":"initialize","inputs":[{"name":"_owner","type":"address","internalType":"address"},{"name":"_bridge","type":"address","internalType":"address"},{"name":"_genesis","type":"address","internalType":"address"}],"outputs":[],"stateMutability":"nonpayable"},{"type":"function","name":"nativeDAO","inputs":[],"outputs":[{"name":"","type":"address","internalType":"address"}],"stateMutability":"view"},{"type":"function","name":"owner","inputs":[],"outputs":[{"name":"","type":"address","internalType":"address"}],"stateMutability":"view"},{"type":"function","name":"proxiableUUID","inputs":[],"outputs":[{"name":"","type":"bytes32","internalType":"bytes32"}],"stateMutability":"view"},{"type":"function","name":"rate","inputs":[{"name":"_rater","type":"address","internalType":"address"},{"name":"_jobId","type":"string","internalType":"string"},{"name":"_userToRate","type":"address","internalType":"address"},{"name":"_rating","type":"uint256","internalType":"uint256"}],"outputs":[],"stateMutability":"nonpayable"},{"type":"function","name":"removePortfolioItem","inputs":[{"name":"_user","type":"address","internalType":"address"},{"name":"_index","type":"uint256","internalType":"uint256"}],"outputs":[],"stateMutability":"nonpayable"},{"type":"function","name":"renounceOwnership","inputs":[],"outputs":[],"stateMutability":"nonpayable"},{"type":"function","name":"setAdmin","inputs":[{"name":"_admin","type":"address","internalType":"address"},{"name":"_status","type":"bool","internalType":"bool"}],"outputs":[],"stateMutability":"nonpayable"},{"type":"function","name":"setBridge","inputs":[{"name":"_bridge","type":"address","internalType":"address"}],"outputs":[],"stateMutability":"nonpayable"},{"type":"function","name":"setGenesis","inputs":[{"name":"_genesis","type":"address","internalType":"address"}],"outputs":[],"stateMutability":"nonpayable"},{"type":"function","name":"setNativeDAO","inputs":[{"name":"_nativeDAO","type":"address","internalType":"address"}],"outputs":[],"stateMutability":"nonpayable"},{"type":"function","name":"transferOwnership","inputs":[{"name":"newOwner","type":"address","internalType":"address"}],"outputs":[],"stateMutability":"nonpayable"},{"type":"function","name":"updatePortfolioItem","inputs":[{"name":"_user","type":"address","internalType":"address"},{"name":"_index","type":"uint256","internalType":"uint256"},{"name":"_newPortfolioHash","type":"string","internalType":"string"}],"outputs":[],"stateMutability":"nonpayable"},{"type":"function","name":"updateProfile","inputs":[{"name":"_user","type":"address","internalType":"address"},{"name":"_newIpfsHash","type":"string","internalType":"string"}],"outputs":[],"stateMutability":"nonpayable"},{"type":"function","name":"upgradeFromDAO","inputs":[{"name":"newImplementation","type":"address","internalType":"address"}],"outputs":[],"stateMutability":"nonpayable"},{"type":"function","name":"upgradeToAndCall","inputs":[{"name":"newImplementation","type":"address","internalType":"address"},{"name":"data","type":"bytes","internalType":"bytes"}],"outputs":[],"stateMutability":"payable"},{"type":"event","name":"AdminUpdated","inputs":[{"name":"admin","type":"address","indexed":true,"internalType":"address"},{"name":"status","type":"bool","indexed":false,"internalType":"bool"}],"anonymous":false},{"type":"event","name":"AuthorizedContractUpdated","inputs":[{"name":"contractAddress","type":"address","indexed":true,"internalType":"address"},{"name":"status","type":"bool","indexed":false,"internalType":"bool"}],"anonymous":false},{"type":"event","name":"BridgeUpdated","inputs":[{"name":"oldBridge","type":"address","indexed":true,"internalType":"address"},{"name":"newBridge","type":"address","indexed":true,"internalType":"address"}],"anonymous":false},{"type":"event","name":"GenesisUpdated","inputs":[{"name":"oldGenesis","type":"address","indexed":true,"internalType":"address"},{"name":"newGenesis","type":"address","indexed":true,"internalType":"address"}],"anonymous":false},{"type":"event","name":"Initialized","inputs":[{"name":"version","type":"uint64","indexed":false,"internalType":"uint64"}],"anonymous":false},{"type":"event","name":"NativeDAOUpdated","inputs":[{"name":"oldDAO","type":"address","indexed":true,"internalType":"address"},{"name":"newDAO","type":"address","indexed":true,"internalType":"address"}],"anonymous":false},{"type":"event","name":"OwnershipTransferred","inputs":[{"name":"previousOwner","type":"address","indexed":true,"internalType":"address"},{"name":"newOwner","type":"address","indexed":true,"internalType":"address"}],"anonymous":false},{"type":"event","name":"PortfolioAdded","inputs":[{"name":"user","type":"address","indexed":true,"internalType":"address"},{"name":"portfolioHash","type":"string","indexed":false,"internalType":"string"}],"anonymous":false},{"type":"event","name":"PortfolioItemRemoved","inputs":[{"name":"user","type":"address","indexed":true,"internalType":"address"},{"name":"index","type":"uint256","indexed":false,"internalType":"uint256"}],"anonymous":false},{"type":"event","name":"PortfolioItemUpdated","inputs":[{"name":"user","type":"address","indexed":true,"internalType":"address"},{"name":"index","type":"uint256","indexed":false,"internalType":"uint256"},{"name":"newPortfolioHash","type":"string","indexed":false,"internalType":"string"}],"anonymous":false},{"type":"event","name":"ProfileCreated","inputs":[{"name":"user","type":"address","indexed":true,"internalType":"address"},{"name":"ipfsHash","type":"string","indexed":false,"internalType":"string"},{"name":"referrer","type":"address","indexed":true,"internalType":"address"}],"anonymous":false},{"type":"event","name":"ProfileUpdated","inputs":[{"name":"user","type":"address","indexed":true,"internalType":"address"},{"name":"newIpfsHash","type":"string","indexed":false,"internalType":"string"}],"anonymous":false},{"type":"event","name":"Upgraded","inputs":[{"name":"implementation","type":"address","indexed":true,"internalType":"address"}],"anonymous":false},{"type":"event","name":"UserRated","inputs":[{"name":"jobId","type":"string","indexed":true,"internalType":"string"},{"name":"rater","type":"address","indexed":true,"internalType":"address"},{"name":"rated","type":"address","indexed":true,"internalType":"address"},{"name":"rating","type":"uint256","indexed":false,"internalType":"uint256"}],"anonymous":false},{"type":"error","name":"AddressEmptyCode","inputs":[{"name":"target","type":"address","internalType":"address"}]},{"type":"error","name":"ERC1967InvalidImplementation","inputs":[{"name":"implementation","type":"address","internalType":"address"}]},{"type":"error","name":"ERC1967NonPayable","inputs":[]},{"type":"error","name":"FailedInnerCall","inputs":[]},{"type":"error","name":"InvalidInitialization","inputs":[]},{"type":"error","name":"NotInitializing","inputs":[]},{"type":"error","name":"OwnableInvalidOwner","inputs":[{"name":"owner","type":"address","internalType":"address"}]},{"type":"error","name":"OwnableUnauthorizedAccount","inputs":[{"name":"account","type":"address","internalType":"address"}]},{"type":"error","name":"UUPSUnauthorizedCallContext","inputs":[]},{"type":"error","name":"UUPSUnsupportedProxiableUUID","inputs":[{"name":"slot","type":"bytes32","internalType":"bytes32"}]}],"bytecode":{"object":"0x60a080604052346100c957306080525f51602061228d5f395f51905f525460ff8160401c166100ba576002600160401b03196001600160401b03821601610067575b6040516121bf90816100ce8239608051818181610fae0152818161105201526113e20152f35b6001600160401b0319166001600160401b039081175f51602061228d5f395f51905f525581527fc7f505b2f371ae2175ee4913f4499e1f2633a7b5936321eed1cdaeb6115181d290602090a15f80610041565b63f92ee8a960e01b5f5260045ffd5b5f80fdfe6080806040526004361015610012575f80fd5b5f905f3560e01c9081630f53a470146119435750806326d74479146118485780632c317eb21461173d5780633199ac02146115f75780633697611a146115d957806340634e3b1461139f578063429b62e514611360578063460168c3146113345780634b0bddd2146112705780634f1ef2861461100257806352d1902d14610f9b578063680e482e14610eec578063687694ae14610ec35780636a23a98a14610d18578063715018a614610cc25780637c83b0aa14610b275780638da5cb5b14610af25780638dd1480214610a87578063a2f7cb2614610a1c578063a787c80b1461099d578063a7f0b3de14610976578063ad3cb1cc14610929578063b0cc406014610861578063c0c53b8b146106b3578063d5b9221b14610674578063d888cc271461043b578063e78cea9214610412578063eb14b353146103ab578063efe24b8d14610269578063f2fde38b1461023c5763f50336f914610173575f80fd5b346102395760203660031901126102395761018c6119be565b815460405163f50336f960e01b81526001600160a01b03928316600482015291839183916024918391165afa90811561022e57829161020c575b5090604051918291602083016020845282518091526020604085019301915b8181106101f3575050500390f35b82518452859450602093840193909201916001016101e5565b61022891503d8084833e6102208183611a9a565b810190611e66565b5f6101c6565b6040513d84823e3d90fd5b80fd5b5034610239576020366003190112610239576102666102596119be565b61026161202d565b611fa4565b80f35b5034610239576040366003190112610239576102836119be565b60243590610297610292612002565b611d67565b6001600160a01b0316906102ac821515611da4565b825460405163a787c80b60e01b81526004810184905284916001600160a01b031690602081602481855afa80156103a0576102ee918491610371575b50611dff565b803b1561036d5781809160446040518094819363efe24b8d60e01b83528960048401528860248401525af1801561022e57610354575b505060207f71896b71d4d23246e9605b719083d8266614b1316d706a9fff17e4d4e9857c7a91604051908152a280f35b8161035e91611a9a565b61036957825f610324565b8280fd5b5080fd5b610393915060203d602011610399575b61038b8183611a9a565b810190611de7565b5f6102e8565b503d610381565b6040513d85823e3d90fd5b5034610239576020366003190112610239576103c56119be565b6103cd61202d565b81546001600160a01b039182166001600160a01b031982168117845591167f5f1d51aab4bd6e41be6c7feda322db860d93d0058238bf871dfafd43ecc951f98380a380f35b50346102395780600319360112610239576001546040516001600160a01b039091168152602090f35b5034610239576060366003190112610239576104556119be565b6024356001600160401b03811161036957610474903690600401611b22565b61047c6119d4565b91610488610292612002565b6001600160a01b03169061049d821515611da4565b835460405163a787c80b60e01b81526004810184905290602090829060249082906001600160a01b03165afa90811561066957859161064a575b5061060c57600254600160401b8110156105f8578060016104fb9201600255611d3b565b8154600391821b85811b6001600160a01b0390911b1990911617909155545f1981146105e457600101600355835484906001600160a01b0316803b1561036d57816040518092630c80432360e31b825286600483015260606024830152818381610568606482018a6119ea565b6001600160a01b03909b16604482018190529a03925af1801561022e576105cb575b50506105c57f5874afb0d71e1f97e546fc6b15493e51e5ccbefa591556f8c6a80c8c5151a84f916040519182916020835260208301906119ea565b0390a380f35b816105d591611a9a565b6105e057835f61058a565b8380fd5b634e487b7160e01b85526011600452602485fd5b634e487b7160e01b85526041600452602485fd5b60405162461bcd60e51b815260206004820152601660248201527550726f66696c6520616c72656164792065786973747360501b6044820152606490fd5b610663915060203d6020116103995761038b8183611a9a565b5f6104d7565b6040513d87823e3d90fd5b50346102395760203660031901126102395760209060ff906040906001600160a01b0361069f6119be565b168152600684522054166040519015158152f35b5034610239576060366003190112610239576106cd6119be565b6024356001600160a01b0381169190829003610369576106eb6119d4565b5f51602061216a5f395f51905f5254604081901c60ff161593906001600160401b03811680159081610859575b600114908161084f575b159081610846575b50610837576001600160401b031981166001175f51602061216a5f395f51905f52558461080f575b5061075b612060565b610763612060565b61076c83611fa4565b610774612060565b600180546001600160a01b031990811692909217815585549091166001600160a01b0392831617855591168352600460205260408320805460ff191690911790556107bc5780f35b60ff60401b195f51602061216a5f395f51905f5254165f51602061216a5f395f51905f52557fc7f505b2f371ae2175ee4913f4499e1f2633a7b5936321eed1cdaeb6115181d2602060405160018152a180f35b6001600160481b0319166001600160401b01175f51602061216a5f395f51905f52555f610752565b63f92ee8a960e01b8652600486fd5b9050155f61072a565b303b159150610722565b869150610718565b503461023957806003193601126102395760405160028054808352908352602082019081907f405787fa12a823e0f2b7631cc41b3ba8828b3321ca811111fa75cd3aa3bb5ace90855b81811061090a57505050826108c0910383611a9a565b604051928392602084019060208552518091526040840192915b8181106108e8575050500390f35b82516001600160a01b03168452859450602093840193909201916001016108da565b82546001600160a01b03168452602090930192600192830192016108aa565b50346102395780600319360112610239575061097260405161094c604082611a9a565b60058152640352e302e360dc1b60208201526040519182916020835260208301906119ea565b0390f35b5034610239578060031936011261023957546040516001600160a01b039091168152602090f35b5034610239576020366003190112610239576109b76119be565b815460405163a787c80b60e01b81526001600160a01b0392831660048201529160209183916024918391165afa90811561022e57602092916109ff575b506040519015158152f35b610a169150823d84116103995761038b8183611a9a565b5f6109f4565b503461023957602036600319011261023957610a366119be565b610a3e61202d565b600580546001600160a01b039283166001600160a01b0319821681179092559091167febf0307548e44546701f6014620caeea64df200e2b3925bfd3c75d354fd7410d8380a380f35b503461023957602036600319011261023957610aa16119be565b610aa961202d565b600180546001600160a01b039283166001600160a01b0319821681179092559091167faae9beddccf584528e87b66c6ff2563825c8a1433305b8a656e9b5f9bf3904998380a380f35b50346102395780600319360112610239575f5160206120ea5f395f51905f52546040516001600160a01b039091168152602090f35b503461023957606036600319011261023957610b416119be565b6024356044356001600160401b0381116105e057610b63903690600401611b22565b91610b6f610292612002565b6001600160a01b031691610b84831515611da4565b835460405163a787c80b60e01b8152600481018590526001600160a01b0390911690602081602481855afa8015610cb757610bc59187916103715750611dff565b815115610c72578085913b1561036d57816040518092633e41d85560e11b825287600483015286602483015260606044830152818381610c08606482018a6119ea565b03925af1801561022e57610c5d575b50507fc39f56c165e6e8a9ac36c2adf54383775830c65cc8239fb382b4baf459233ab791610c5760405192839283526040602084015260408301906119ea565b0390a280f35b81610c6791611a9a565b6105e057835f610c17565b60405162461bcd60e51b815260206004820152601e60248201527f506f7274666f6c696f20686173682063616e6e6f7420626520656d70747900006044820152606490fd5b6040513d88823e3d90fd5b5034610239578060031936011261023957610cdb61202d565b5f5160206120ea5f395f51905f5280546001600160a01b0319811690915581906001600160a01b03165f51602061212a5f395f51905f528280a380f35b503461023957608036600319011261023957610d326119be565b6024356001600160401b03811161036957610d51903690600401611b22565b90610d5a6119d4565b9060643591610d6a610292612002565b82151580610eb8575b15610e7e576001600160a01b0316928315610e4a57845485906001600160a01b0316803b1561036d5781604051809263037da98d60e11b825260606004830152818381610dc3606482018a6119ea565b8c60248301528b604483015203925af1801561022e57610e31575b50506020807f210dac24c32efa80ef08f803d73e7033bee07555af4a95a00e79a488121b0bd692604051918183925191829101835e81018881520390206040519485526001600160a01b0390931693a480f35b81610e3b91611a9a565b610e4657845f610dde565b8480fd5b60405162461bcd60e51b815260206004820152600c60248201526b24b73b30b634b2103ab9b2b960a11b6044820152606490fd5b60405162461bcd60e51b8152602060048201526012602482015271526174696e67206d75737420626520312d3560701b6044820152606490fd5b506005831115610d73565b50346102395780600319360112610239576005546040516001600160a01b039091168152602090f35b503461023957610efb36611b7f565b90610f0461202d565b6001600160a01b0316908115610f645760207f8f689f580b739f90591fbd591709dd98941c0afe7a47c812b93e978c4702bceb9183855260068252610f5881604087209060ff801983541691151516179055565b6040519015158152a280f35b60405162461bcd60e51b815260206004820152600f60248201526e496e76616c6964206164647265737360881b6044820152606490fd5b50346102395780600319360112610239577f00000000000000000000000000000000000000000000000000000000000000006001600160a01b03163003610ff35760206040515f51602061210a5f395f51905f528152f35b63703e46dd60e11b8152600490fd5b506040366003190112610239576110176119be565b906024356001600160401b03811161036d573660238201121561036d57611048903690602481600401359101611aec565b6001600160a01b037f00000000000000000000000000000000000000000000000000000000000000001630811490811561124e575b5061123f575f5160206120ea5f395f51905f52546001600160a01b031633148015611231575b156111fd576040516352d1902d60e01b8152926001600160a01b0381169190602085600481865afa809585966111c9575b506110ed57634c9c8ce360e01b84526004839052602484fd5b9091845f51602061210a5f395f51905f5281036111b75750813b156111a5575f51602061210a5f395f51905f5280546001600160a01b031916821790555f51602061214a5f395f51905f528480a2815183901561118b578083602061117f95519101845af43d15611183573d9161116383611ad1565b926111716040519485611a9a565b83523d85602085013e61208b565b5080f35b60609161208b565b505050346111965780f35b63b398979f60e01b8152600490fd5b634c9c8ce360e01b8452600452602483fd5b632a87526960e21b8552600452602484fd5b9095506020813d6020116111f5575b816111e560209383611a9a565b81010312610e465751945f6110d4565b3d91506111d8565b60405162461bcd60e51b815260206004820152600c60248201526b155b985d5d1a1bdc9a5e995960a21b6044820152606490fd5b5061123a612002565b6110a3565b63703e46dd60e11b8252600482fd5b5f51602061210a5f395f51905f52546001600160a01b0316141590505f61107d565b50346102395761127f36611b7f565b9060018060a01b035f5160206120ea5f395f51905f52541633148015611320575b156112f5576001600160a01b03168083526004602090815260408420805460ff191660ff8515151617905590917f235bc17e7930760029e9f4d860a2a8089976de5b381cf8380fc11c1d88a111339190610f58565b606460405162461bcd60e51b8152602060048201526004602482015263082eae8d60e31b6044820152fd5b506005546001600160a01b031633146112a0565b50346102395760203660031901126102395760206113586113536119be565b611edf565b604051908152f35b50346102395760203660031901126102395760209060ff906040906001600160a01b0361138b6119be565b168152600484522054166040519015158152f35b5034610239576020366003190112610239576113b96119be565b906113c5610292612002565b6020604051926113d58285611a9a565b8284526001600160a01b037f0000000000000000000000000000000000000000000000000000000000000000163081149081156115b7575b506115a8575f5160206120ea5f395f51905f52546001600160a01b03163314801561159a575b15611566576040516352d1902d60e01b81526001600160a01b03821694908381600481895afa859181611533575b5061147a57634c9c8ce360e01b85526004869052602485fd5b5f51602061210a5f395f51905f5281036111b75750813b1561151f575f51602061210a5f395f51905f5280546001600160a01b0319168617905592938493905f51602061214a5f395f51905f528580a2805115611515579280848461117f96519101845af4903d1561150c573d6114f081611ad1565b906114fe6040519283611a9a565b81528581943d92013e61208b565b6060925061208b565b5050506111965780f35b634c9c8ce360e01b84526004859052602484fd5b9091508481813d831161155f575b61154b8183611a9a565b8101031261155b5751905f611461565b8580fd5b503d611541565b60405162461bcd60e51b815260048101839052600c60248201526b155b985d5d1a1bdc9a5e995960a21b6044820152606490fd5b506115a3612002565b611433565b63703e46dd60e11b8352600483fd5b5f51602061210a5f395f51905f52546001600160a01b0316141590505f61140d565b50346102395780600319360112610239576020600354604051908152f35b50346102395761160636611b40565b611611610292612002565b6001600160a01b03821691611627831515611da4565b835460405163a787c80b60e01b8152600481018590526001600160a01b039091169190602081602481865afa8015610cb7576116699187916103715750611dff565b8251156116fc578185923b156103695783839161169d938360405180968195829463ce40998560e01b845260048401611e44565b03925af1801561022e576116e7575b5050610c577fdd635a4cd84864e37e4479dbfc2ec667acfa473c83c8422a8ac9d9d07599b01c916040519182916020835260208301906119ea565b816116f191611a9a565b61036957825f6116ac565b60405162461bcd60e51b81526020600482015260196024820152784950465320686173682063616e6e6f7420626520656d70747960381b6044820152606490fd5b50346118445761174c36611b40565b611757610292612002565b6001600160a01b0382169161176d831515611da4565b5f5460405163a787c80b60e01b8152600481018590526001600160a01b0390911690602081602481855afa8015611839576117ae915f916103715750611dff565b803b1561184457825f916117d99383604051809681958294631618bf5960e11b845260048401611e44565b03925af1801561183957611822575b50610c577fcc18228e480194b6eb176cebd651be35a4eb3236a2461b112a3e89ea1b1c40dd916040519182916020835260208301906119ea565b61182f9193505f90611a9a565b5f91610c576117e8565b6040513d5f823e3d90fd5b5f80fd5b34611844576020366003190112611844576004356003548110156119085761186f90611d3b565b90545f805460405162f53a4760e41b815260039490941b9290921c6001600160a01b039081166004850152909183916024918391165afa908115611839575f916118e6575b50805160208201516040808401516060909401519051938493610972936001600160a01b039283169290911685611a0e565b61190291503d805f833e6118fa8183611a9a565b810190611c1f565b816118b4565b60405162461bcd60e51b8152602060048201526013602482015272496e646578206f7574206f6620626f756e647360681b6044820152606490fd5b34611844576020366003190112611844575f816024816119616119be565b845462f53a4760e41b83526001600160a01b039182166004840152165afa908115611839575f916118e65750805160208201516040808401516060909401519051938493610972936001600160a01b039283169290911685611a0e565b600435906001600160a01b038216820361184457565b604435906001600160a01b038216820361184457565b805180835260209291819084018484015e5f828201840152601f01601f1916010190565b91611a2e9160018060a01b031683526080602084015260808301906119ea565b9160018060a01b031660408201526060818303910152815180825260208201916020808360051b8301019401925f915b838310611a6d57505050505090565b9091929394602080611a8b600193601f1986820301875289516119ea565b97019301930191939290611a5e565b601f909101601f19168101906001600160401b03821190821017611abd57604052565b634e487b7160e01b5f52604160045260245ffd5b6001600160401b038111611abd57601f01601f191660200190565b929192611af882611ad1565b91611b066040519384611a9a565b829481845281830111611844578281602093845f960137010152565b9080601f8301121561184457816020611b3d93359101611aec565b90565b906040600319830112611844576004356001600160a01b03811681036118445791602435906001600160401b03821161184457611b3d91600401611b22565b6040906003190112611844576004356001600160a01b0381168103611844579060243580151581036118445790565b51906001600160a01b038216820361184457565b81601f8201121561184457805190611bd982611ad1565b92611be76040519485611a9a565b8284526020838301011161184457815f9260208093018386015e8301015290565b6001600160401b038111611abd5760051b60200190565b602081830312611844578051906001600160401b0382116118445701906080828203126118445760405191608083016001600160401b03811184821017611abd57604052611c6c81611bae565b835260208101516001600160401b0381116118445782611c8d918301611bc2565b6020840152611c9e60408201611bae565b60408401526060810151906001600160401b03821161184457019080601f83011215611844578151611ccf81611c08565b92611cdd6040519485611a9a565b81845260208085019260051b820101918383116118445760208201905b838210611d0e575050505050606082015290565b81516001600160401b03811161184457602091611d3087848094880101611bc2565b815201910190611cfa565b600254811015611d535760025f5260205f2001905f90565b634e487b7160e01b5f52603260045260245ffd5b15611d6e57565b60405162461bcd60e51b815260206004820152600e60248201526d139bdd08185d5d1a1bdc9a5e995960921b6044820152606490fd5b15611dab57565b60405162461bcd60e51b8152602060048201526014602482015273496e76616c69642075736572206164647265737360601b6044820152606490fd5b90816020910312611844575180151581036118445790565b15611e0657565b60405162461bcd60e51b8152602060048201526016602482015275141c9bd99a5b1948191bd95cc81b9bdd08195e1a5cdd60521b6044820152606490fd5b6001600160a01b039091168152604060208201819052611b3d929101906119ea565b602081830312611844578051906001600160401b03821161184457019080601f83011215611844578151611e9981611c08565b92611ea76040519485611a9a565b81845260208085019260051b82010192831161184457602001905b828210611ecf5750505090565b8151815260209182019101611ec2565b5f805460405163f50336f960e01b81526001600160a01b039384166004820152939284916024918391165afa918215611839575f92611f88575b50815115611f83575f91825b8151841015611f605760208460051b830101518101809111611f4c57600190930192611f25565b634e487b7160e01b5f52601160045260245ffd5b91925051908115611f6f570490565b634e487b7160e01b5f52601260045260245ffd5b5f9150565b611f9d9192503d805f833e6102208183611a9a565b905f611f19565b6001600160a01b03168015611fef575f5160206120ea5f395f51905f5280546001600160a01b0319811683179091556001600160a01b03165f51602061212a5f395f51905f525f80a3565b631e4fbdf760e01b5f525f60045260245ffd5b6001546001600160a01b0316331480156120195790565b50335f52600660205260ff60405f20541690565b5f5160206120ea5f395f51905f52546001600160a01b0316330361204d57565b63118cdaa760e01b5f523360045260245ffd5b60ff5f51602061216a5f395f51905f525460401c161561207c57565b631afcd79f60e31b5f5260045ffd5b906120af57508051156120a057805190602001fd5b630a12f52160e11b5f5260045ffd5b815115806120e0575b6120c0575090565b639996b31560e01b5f9081526001600160a01b0391909116600452602490fd5b50803b156120b856fe9016d09d72d40fdae2fd8ceac6b6234c7706214fd39c1cd1e609a0528c199300360894a13ba1a3210667c828492db98dca3e2076cc3735a920a3ca505d382bbc8be0079c531659141344cd1fd0a4f28419497f9722a3daafe3b4186f6b6457e0bc7cd75a20ee27fd9adebab32041f755214dbc6bffa90cc0225b39da2e5c2d3bf0c57e16840df040f15088dc2f81fe391c3923bec73e23a9662efc9c229c6a00a2646970667358221220bff72518af681cc5fdb0921cbfc15d37a282d11dbf2d5e4fc7dd86a2d2e2c67564736f6c63430008210033f0c57e16840df040f15088dc2f81fe391c3923bec73e23a9662efc9c229c6a00","linkReferences":{}},"methodIdentifiers":{"UPGRADE_INTERFACE_VERSION()":"ad3cb1cc","addAuthorizedContract(address,bool)":"680e482e","addPortfolio(address,string)":"2c317eb2","admins(address)":"429b62e5","authorizedContracts(address)":"d5b9221b","bridge()":"e78cea92","createProfile(address,string,address)":"d888cc27","genesis()":"a7f0b3de","getAllProfileUsers()":"b0cc4060","getProfile(address)":"0f53a470","getProfileByIndex(uint256)":"26d74479","getProfileCount()":"3697611a","getUserRating(address)":"460168c3","getUserRatings(address)":"f50336f9","hasProfile(address)":"a787c80b","initialize(address,address,address)":"c0c53b8b","nativeDAO()":"687694ae","owner()":"8da5cb5b","proxiableUUID()":"52d1902d","rate(address,string,address,uint256)":"6a23a98a","removePortfolioItem(address,uint256)":"efe24b8d","renounceOwnership()":"715018a6","setAdmin(address,bool)":"4b0bddd2","setBridge(address)":"8dd14802","setGenesis(address)":"eb14b353","setNativeDAO(address)":"a2f7cb26","transferOwnership(address)":"f2fde38b","updatePortfolioItem(address,uint256,string)":"7c83b0aa","updateProfile(address,string)":"3199ac02","upgradeFromDAO(address)":"40634e3b","upgradeToAndCall(address,bytes)":"4f1ef286"},"id":27}