{"abi":[{"type":"constructor","inputs":[],"stateMutability":"nonpayable"},{"type":"function","name":"UPGRADE_INTERFACE_VERSION","inputs":[],"outputs":[{"name":"","type":"string","internalType":"string"}],"stateMutability":"view"},{"type":"function","name":"addPortfolio","inputs":[{"name":"_portfolioHash","type":"string","internalType":"string"},{"name":"_nativeOptions","type":"bytes","internalType":"bytes"}],"outputs":[],"stateMutability":"payable"},{"type":"function","name":"applyToJob","inputs":[{"name":"_jobId","type":"string","internalType":"string"},{"name":"_appHash","type":"string","internalType":"string"},{"name":"_descriptions","type":"string[]","internalType":"string[]"},{"name":"_amounts","type":"uint256[]","internalType":"uint256[]"},{"name":"_preferredChainDomain","type":"uint32","internalType":"uint32"},{"name":"_nativeOptions","type":"bytes","internalType":"bytes"}],"outputs":[],"stateMutability":"payable"},{"type":"function","name":"athenaClientContract","inputs":[],"outputs":[{"name":"","type":"address","internalType":"address"}],"stateMutability":"view"},{"type":"function","name":"bridge","inputs":[],"outputs":[{"name":"","type":"address","internalType":"contract ILayerZeroBridge"}],"stateMutability":"view"},{"type":"function","name":"cctpMintRecipient","inputs":[],"outputs":[{"name":"","type":"address","internalType":"address"}],"stateMutability":"view"},{"type":"function","name":"cctpSender","inputs":[],"outputs":[{"name":"","type":"address","internalType":"address"}],"stateMutability":"view"},{"type":"function","name":"chainId","inputs":[],"outputs":[{"name":"","type":"uint32","internalType":"uint32"}],"stateMutability":"view"},{"type":"function","name":"createProfile","inputs":[{"name":"_ipfsHash","type":"string","internalType":"string"},{"name":"_referrerAddress","type":"address","internalType":"address"},{"name":"_nativeOptions","type":"bytes","internalType":"bytes"}],"outputs":[],"stateMutability":"payable"},{"type":"function","name":"emergencyWithdrawUSDT","inputs":[],"outputs":[],"stateMutability":"nonpayable"},{"type":"function","name":"getApplication","inputs":[{"name":"_jobId","type":"string","internalType":"string"},{"name":"_appId","type":"uint256","internalType":"uint256"}],"outputs":[{"name":"","type":"tuple","internalType":"struct CrossChainLocalOpenWorkJobContract.Application","components":[{"name":"id","type":"uint256","internalType":"uint256"},{"name":"jobId","type":"string","internalType":"string"},{"name":"applicant","type":"address","internalType":"address"},{"name":"applicationHash","type":"string","internalType":"string"},{"name":"proposedMilestones","type":"tuple[]","internalType":"struct CrossChainLocalOpenWorkJobContract.MilestonePayment[]","components":[{"name":"descriptionHash","type":"string","internalType":"string"},{"name":"amount","type":"uint256","internalType":"uint256"}]}]}],"stateMutability":"view"},{"type":"function","name":"getEscrowBalance","inputs":[{"name":"_jobId","type":"string","internalType":"string"}],"outputs":[{"name":"escrowed","type":"uint256","internalType":"uint256"},{"name":"released","type":"uint256","internalType":"uint256"},{"name":"remaining","type":"uint256","internalType":"uint256"}],"stateMutability":"view"},{"type":"function","name":"getJob","inputs":[{"name":"_jobId","type":"string","internalType":"string"}],"outputs":[{"name":"","type":"tuple","internalType":"struct CrossChainLocalOpenWorkJobContract.Job","components":[{"name":"id","type":"string","internalType":"string"},{"name":"jobGiver","type":"address","internalType":"address"},{"name":"applicants","type":"address[]","internalType":"address[]"},{"name":"jobDetailHash","type":"string","internalType":"string"},{"name":"status","type":"uint8","internalType":"enum CrossChainLocalOpenWorkJobContract.JobStatus"},{"name":"workSubmissions","type":"string[]","internalType":"string[]"},{"name":"milestonePayments","type":"tuple[]","internalType":"struct CrossChainLocalOpenWorkJobContract.MilestonePayment[]","components":[{"name":"descriptionHash","type":"string","internalType":"string"},{"name":"amount","type":"uint256","internalType":"uint256"}]},{"name":"finalMilestones","type":"tuple[]","internalType":"struct CrossChainLocalOpenWorkJobContract.MilestonePayment[]","components":[{"name":"descriptionHash","type":"string","internalType":"string"},{"name":"amount","type":"uint256","internalType":"uint256"}]},{"name":"totalPaid","type":"uint256","internalType":"uint256"},{"name":"currentLockedAmount","type":"uint256","internalType":"uint256"},{"name":"currentMilestone","type":"uint256","internalType":"uint256"},{"name":"selectedApplicant","type":"address","internalType":"address"},{"name":"selectedApplicationId","type":"uint256","internalType":"uint256"},{"name":"totalEscrowed","type":"uint256","internalType":"uint256"},{"name":"totalReleased","type":"uint256","internalType":"uint256"}]}],"stateMutability":"view"},{"type":"function","name":"getJobApplicationCount","inputs":[{"name":"_jobId","type":"string","internalType":"string"}],"outputs":[{"name":"","type":"uint256","internalType":"uint256"}],"stateMutability":"view"},{"type":"function","name":"getJobCount","inputs":[],"outputs":[{"name":"","type":"uint256","internalType":"uint256"}],"stateMutability":"view"},{"type":"function","name":"getJobStatus","inputs":[{"name":"_jobId","type":"string","internalType":"string"}],"outputs":[{"name":"","type":"uint8","internalType":"enum CrossChainLocalOpenWorkJobContract.JobStatus"}],"stateMutability":"view"},{"type":"function","name":"getProfile","inputs":[{"name":"_user","type":"address","internalType":"address"}],"outputs":[{"name":"","type":"tuple","internalType":"struct CrossChainLocalOpenWorkJobContract.Profile","components":[{"name":"userAddress","type":"address","internalType":"address"},{"name":"ipfsHash","type":"string","internalType":"string"},{"name":"referrerAddress","type":"address","internalType":"address"},{"name":"portfolioHashes","type":"string[]","internalType":"string[]"}]}],"stateMutability":"view"},{"type":"function","name":"getRating","inputs":[{"name":"_user","type":"address","internalType":"address"}],"outputs":[{"name":"","type":"uint256","internalType":"uint256"}],"stateMutability":"view"},{"type":"function","name":"getTotalPlatformPayments","inputs":[],"outputs":[{"name":"","type":"uint256","internalType":"uint256"}],"stateMutability":"view"},{"type":"function","name":"hasProfile","inputs":[{"name":"","type":"address","internalType":"address"}],"outputs":[{"name":"","type":"bool","internalType":"bool"}],"stateMutability":"view"},{"type":"function","name":"initialize","inputs":[{"name":"_owner","type":"address","internalType":"address"},{"name":"_usdtToken","type":"address","internalType":"address"},{"name":"_chainId","type":"uint32","internalType":"uint32"},{"name":"_bridge","type":"address","internalType":"address"},{"name":"_cctpSender","type":"address","internalType":"address"}],"outputs":[],"stateMutability":"nonpayable"},{"type":"function","name":"isJobOpen","inputs":[{"name":"_jobId","type":"string","internalType":"string"}],"outputs":[{"name":"","type":"bool","internalType":"bool"}],"stateMutability":"view"},{"type":"function","name":"jobApplicationCounter","inputs":[{"name":"","type":"string","internalType":"string"}],"outputs":[{"name":"","type":"uint256","internalType":"uint256"}],"stateMutability":"view"},{"type":"function","name":"jobApplications","inputs":[{"name":"","type":"string","internalType":"string"},{"name":"","type":"uint256","internalType":"uint256"}],"outputs":[{"name":"id","type":"uint256","internalType":"uint256"},{"name":"jobId","type":"string","internalType":"string"},{"name":"applicant","type":"address","internalType":"address"},{"name":"applicationHash","type":"string","internalType":"string"}],"stateMutability":"view"},{"type":"function","name":"jobCounter","inputs":[],"outputs":[{"name":"","type":"uint256","internalType":"uint256"}],"stateMutability":"view"},{"type":"function","name":"jobRatings","inputs":[{"name":"","type":"string","internalType":"string"},{"name":"","type":"address","internalType":"address"}],"outputs":[{"name":"","type":"uint256","internalType":"uint256"}],"stateMutability":"view"},{"type":"function","name":"jobs","inputs":[{"name":"","type":"string","internalType":"string"}],"outputs":[{"name":"id","type":"string","internalType":"string"},{"name":"jobGiver","type":"address","internalType":"address"},{"name":"jobDetailHash","type":"string","internalType":"string"},{"name":"status","type":"uint8","internalType":"enum CrossChainLocalOpenWorkJobContract.JobStatus"},{"name":"totalPaid","type":"uint256","internalType":"uint256"},{"name":"currentLockedAmount","type":"uint256","internalType":"uint256"},{"name":"currentMilestone","type":"uint256","internalType":"uint256"},{"name":"selectedApplicant","type":"address","internalType":"address"},{"name":"selectedApplicationId","type":"uint256","internalType":"uint256"},{"name":"totalEscrowed","type":"uint256","internalType":"uint256"},{"name":"totalReleased","type":"uint256","internalType":"uint256"}],"stateMutability":"view"},{"type":"function","name":"lockNextMilestone","inputs":[{"name":"_jobId","type":"string","internalType":"string"},{"name":"_nativeOptions","type":"bytes","internalType":"bytes"}],"outputs":[],"stateMutability":"payable"},{"type":"function","name":"owner","inputs":[],"outputs":[{"name":"","type":"address","internalType":"address"}],"stateMutability":"view"},{"type":"function","name":"postJob","inputs":[{"name":"_jobDetailHash","type":"string","internalType":"string"},{"name":"_descriptions","type":"string[]","internalType":"string[]"},{"name":"_amounts","type":"uint256[]","internalType":"uint256[]"},{"name":"_nativeOptions","type":"bytes","internalType":"bytes"}],"outputs":[],"stateMutability":"payable"},{"type":"function","name":"profiles","inputs":[{"name":"","type":"address","internalType":"address"}],"outputs":[{"name":"userAddress","type":"address","internalType":"address"},{"name":"ipfsHash","type":"string","internalType":"string"},{"name":"referrerAddress","type":"address","internalType":"address"}],"stateMutability":"view"},{"type":"function","name":"proxiableUUID","inputs":[],"outputs":[{"name":"","type":"bytes32","internalType":"bytes32"}],"stateMutability":"view"},{"type":"function","name":"rate","inputs":[{"name":"_jobId","type":"string","internalType":"string"},{"name":"_userToRate","type":"address","internalType":"address"},{"name":"_rating","type":"uint256","internalType":"uint256"},{"name":"_nativeOptions","type":"bytes","internalType":"bytes"}],"outputs":[],"stateMutability":"payable"},{"type":"function","name":"releaseAndLockNext","inputs":[{"name":"_jobId","type":"string","internalType":"string"},{"name":"_nativeOptions","type":"bytes","internalType":"bytes"}],"outputs":[],"stateMutability":"payable"},{"type":"function","name":"releasePaymentCrossChain","inputs":[{"name":"_jobId","type":"string","internalType":"string"},{"name":"_targetChainDomain","type":"uint32","internalType":"uint32"},{"name":"_targetRecipient","type":"address","internalType":"address"},{"name":"_nativeOptions","type":"bytes","internalType":"bytes"}],"outputs":[],"stateMutability":"payable"},{"type":"function","name":"removePortfolioItem","inputs":[{"name":"_index","type":"uint256","internalType":"uint256"},{"name":"_nativeOptions","type":"bytes","internalType":"bytes"}],"outputs":[],"stateMutability":"payable"},{"type":"function","name":"renounceOwnership","inputs":[],"outputs":[],"stateMutability":"nonpayable"},{"type":"function","name":"resolveDispute","inputs":[{"name":"_jobId","type":"string","internalType":"string"},{"name":"_jobGiverWins","type":"bool","internalType":"bool"}],"outputs":[],"stateMutability":"nonpayable"},{"type":"function","name":"setAthenaClientContract","inputs":[{"name":"_athenaClient","type":"address","internalType":"address"}],"outputs":[],"stateMutability":"nonpayable"},{"type":"function","name":"setBridge","inputs":[{"name":"_bridge","type":"address","internalType":"address"}],"outputs":[],"stateMutability":"nonpayable"},{"type":"function","name":"setCCTPMintRecipient","inputs":[{"name":"_mintRecipient","type":"address","internalType":"address"}],"outputs":[],"stateMutability":"nonpayable"},{"type":"function","name":"setCCTPSender","inputs":[{"name":"_cctpSender","type":"address","internalType":"address"}],"outputs":[],"stateMutability":"nonpayable"},{"type":"function","name":"setUSDTToken","inputs":[{"name":"_newToken","type":"address","internalType":"address"}],"outputs":[],"stateMutability":"nonpayable"},{"type":"function","name":"startDirectContract","inputs":[{"name":"_jobTaker","type":"address","internalType":"address"},{"name":"_jobDetailHash","type":"string","internalType":"string"},{"name":"_descriptions","type":"string[]","internalType":"string[]"},{"name":"_amounts","type":"uint256[]","internalType":"uint256[]"},{"name":"_jobTakerChainDomain","type":"uint32","internalType":"uint32"},{"name":"_nativeOptions","type":"bytes","internalType":"bytes"}],"outputs":[],"stateMutability":"payable"},{"type":"function","name":"startJob","inputs":[{"name":"_jobId","type":"string","internalType":"string"},{"name":"_appId","type":"uint256","internalType":"uint256"},{"name":"_useAppMilestones","type":"bool","internalType":"bool"},{"name":"_nativeOptions","type":"bytes","internalType":"bytes"}],"outputs":[],"stateMutability":"payable"},{"type":"function","name":"submitWork","inputs":[{"name":"_jobId","type":"string","internalType":"string"},{"name":"_submissionHash","type":"string","internalType":"string"},{"name":"_nativeOptions","type":"bytes","internalType":"bytes"}],"outputs":[],"stateMutability":"payable"},{"type":"function","name":"totalPlatformPayments","inputs":[],"outputs":[{"name":"","type":"uint256","internalType":"uint256"}],"stateMutability":"view"},{"type":"function","name":"transferOwnership","inputs":[{"name":"newOwner","type":"address","internalType":"address"}],"outputs":[],"stateMutability":"nonpayable"},{"type":"function","name":"updateLocalPlatformTotal","inputs":[{"name":"newTotal","type":"uint256","internalType":"uint256"}],"outputs":[],"stateMutability":"nonpayable"},{"type":"function","name":"updatePortfolioItem","inputs":[{"name":"_index","type":"uint256","internalType":"uint256"},{"name":"_newPortfolioHash","type":"string","internalType":"string"},{"name":"_nativeOptions","type":"bytes","internalType":"bytes"}],"outputs":[],"stateMutability":"payable"},{"type":"function","name":"updateProfile","inputs":[{"name":"_newIpfsHash","type":"string","internalType":"string"},{"name":"_nativeOptions","type":"bytes","internalType":"bytes"}],"outputs":[],"stateMutability":"payable"},{"type":"function","name":"upgradeFromDAO","inputs":[{"name":"newImplementation","type":"address","internalType":"address"}],"outputs":[],"stateMutability":"nonpayable"},{"type":"function","name":"upgradeToAndCall","inputs":[{"name":"newImplementation","type":"address","internalType":"address"},{"name":"data","type":"bytes","internalType":"bytes"}],"outputs":[],"stateMutability":"payable"},{"type":"function","name":"usdtToken","inputs":[],"outputs":[{"name":"","type":"address","internalType":"contract IERC20"}],"stateMutability":"view"},{"type":"function","name":"userRatings","inputs":[{"name":"","type":"address","internalType":"address"},{"name":"","type":"uint256","internalType":"uint256"}],"outputs":[{"name":"","type":"uint256","internalType":"uint256"}],"stateMutability":"view"},{"type":"function","name":"withdraw","inputs":[],"outputs":[],"stateMutability":"nonpayable"},{"type":"event","name":"BridgeSet","inputs":[{"name":"bridge","type":"address","indexed":true,"internalType":"address"}],"anonymous":false},{"type":"event","name":"CCTPMintRecipientSet","inputs":[{"name":"mintRecipient","type":"address","indexed":true,"internalType":"address"}],"anonymous":false},{"type":"event","name":"DisputeResolved","inputs":[{"name":"jobId","type":"string","indexed":true,"internalType":"string"},{"name":"jobGiverWins","type":"bool","indexed":false,"internalType":"bool"},{"name":"winner","type":"address","indexed":false,"internalType":"address"},{"name":"amount","type":"uint256","indexed":false,"internalType":"uint256"}],"anonymous":false},{"type":"event","name":"FundsSent","inputs":[{"name":"jobId","type":"string","indexed":true,"internalType":"string"},{"name":"jobGiver","type":"address","indexed":true,"internalType":"address"},{"name":"amount","type":"uint256","indexed":false,"internalType":"uint256"}],"anonymous":false},{"type":"event","name":"Initialized","inputs":[{"name":"version","type":"uint64","indexed":false,"internalType":"uint64"}],"anonymous":false},{"type":"event","name":"JobApplication","inputs":[{"name":"jobId","type":"string","indexed":true,"internalType":"string"},{"name":"applicationId","type":"uint256","indexed":true,"internalType":"uint256"},{"name":"applicant","type":"address","indexed":true,"internalType":"address"},{"name":"applicationHash","type":"string","indexed":false,"internalType":"string"}],"anonymous":false},{"type":"event","name":"JobPosted","inputs":[{"name":"jobId","type":"string","indexed":true,"internalType":"string"},{"name":"jobGiver","type":"address","indexed":true,"internalType":"address"},{"name":"jobDetailHash","type":"string","indexed":false,"internalType":"string"}],"anonymous":false},{"type":"event","name":"JobStarted","inputs":[{"name":"jobId","type":"string","indexed":true,"internalType":"string"},{"name":"applicationId","type":"uint256","indexed":true,"internalType":"uint256"},{"name":"selectedApplicant","type":"address","indexed":true,"internalType":"address"},{"name":"useApplicantMilestones","type":"bool","indexed":false,"internalType":"bool"}],"anonymous":false},{"type":"event","name":"JobStatusChanged","inputs":[{"name":"jobId","type":"string","indexed":true,"internalType":"string"},{"name":"newStatus","type":"uint8","indexed":false,"internalType":"enum CrossChainLocalOpenWorkJobContract.JobStatus"}],"anonymous":false},{"type":"event","name":"MilestoneLocked","inputs":[{"name":"jobId","type":"string","indexed":true,"internalType":"string"},{"name":"newMilestone","type":"uint256","indexed":false,"internalType":"uint256"},{"name":"lockedAmount","type":"uint256","indexed":false,"internalType":"uint256"}],"anonymous":false},{"type":"event","name":"OwnershipTransferred","inputs":[{"name":"previousOwner","type":"address","indexed":true,"internalType":"address"},{"name":"newOwner","type":"address","indexed":true,"internalType":"address"}],"anonymous":false},{"type":"event","name":"PaymentReleased","inputs":[{"name":"jobId","type":"string","indexed":true,"internalType":"string"},{"name":"jobGiver","type":"address","indexed":true,"internalType":"address"},{"name":"applicant","type":"address","indexed":true,"internalType":"address"},{"name":"amount","type":"uint256","indexed":false,"internalType":"uint256"},{"name":"milestone","type":"uint256","indexed":false,"internalType":"uint256"}],"anonymous":false},{"type":"event","name":"PaymentReleasedAndNextMilestoneLocked","inputs":[{"name":"jobId","type":"string","indexed":true,"internalType":"string"},{"name":"releasedAmount","type":"uint256","indexed":false,"internalType":"uint256"},{"name":"lockedAmount","type":"uint256","indexed":false,"internalType":"uint256"},{"name":"milestone","type":"uint256","indexed":false,"internalType":"uint256"}],"anonymous":false},{"type":"event","name":"PlatformTotalUpdated","inputs":[{"name":"newTotal","type":"uint256","indexed":false,"internalType":"uint256"}],"anonymous":false},{"type":"event","name":"PortfolioAdded","inputs":[{"name":"user","type":"address","indexed":true,"internalType":"address"},{"name":"portfolioHash","type":"string","indexed":false,"internalType":"string"}],"anonymous":false},{"type":"event","name":"PortfolioItemRemoved","inputs":[{"name":"user","type":"address","indexed":true,"internalType":"address"},{"name":"index","type":"uint256","indexed":false,"internalType":"uint256"}],"anonymous":false},{"type":"event","name":"PortfolioItemUpdated","inputs":[{"name":"user","type":"address","indexed":true,"internalType":"address"},{"name":"index","type":"uint256","indexed":false,"internalType":"uint256"},{"name":"newPortfolioHash","type":"string","indexed":false,"internalType":"string"}],"anonymous":false},{"type":"event","name":"ProfileCreated","inputs":[{"name":"user","type":"address","indexed":true,"internalType":"address"},{"name":"ipfsHash","type":"string","indexed":false,"internalType":"string"},{"name":"referrer","type":"address","indexed":false,"internalType":"address"}],"anonymous":false},{"type":"event","name":"ProfileUpdated","inputs":[{"name":"user","type":"address","indexed":true,"internalType":"address"},{"name":"newIpfsHash","type":"string","indexed":false,"internalType":"string"}],"anonymous":false},{"type":"event","name":"Upgraded","inputs":[{"name":"implementation","type":"address","indexed":true,"internalType":"address"}],"anonymous":false},{"type":"event","name":"UserRated","inputs":[{"name":"jobId","type":"string","indexed":true,"internalType":"string"},{"name":"rater","type":"address","indexed":true,"internalType":"address"},{"name":"rated","type":"address","indexed":true,"internalType":"address"},{"name":"rating","type":"uint256","indexed":false,"internalType":"uint256"}],"anonymous":false},{"type":"event","name":"WorkSubmitted","inputs":[{"name":"jobId","type":"string","indexed":true,"internalType":"string"},{"name":"applicant","type":"address","indexed":true,"internalType":"address"},{"name":"submissionHash","type":"string","indexed":false,"internalType":"string"},{"name":"milestone","type":"uint256","indexed":false,"internalType":"uint256"}],"anonymous":false},{"type":"error","name":"AddressEmptyCode","inputs":[{"name":"target","type":"address","internalType":"address"}]},{"type":"error","name":"AddressInsufficientBalance","inputs":[{"name":"account","type":"address","internalType":"address"}]},{"type":"error","name":"ERC1967InvalidImplementation","inputs":[{"name":"implementation","type":"address","internalType":"address"}]},{"type":"error","name":"ERC1967NonPayable","inputs":[]},{"type":"error","name":"FailedInnerCall","inputs":[]},{"type":"error","name":"InvalidInitialization","inputs":[]},{"type":"error","name":"NotInitializing","inputs":[]},{"type":"error","name":"OwnableInvalidOwner","inputs":[{"name":"owner","type":"address","internalType":"address"}]},{"type":"error","name":"OwnableUnauthorizedAccount","inputs":[{"name":"account","type":"address","internalType":"address"}]},{"type":"error","name":"ReentrancyGuardReentrantCall","inputs":[]},{"type":"error","name":"SafeERC20FailedOperation","inputs":[{"name":"token","type":"address","internalType":"address"}]},{"type":"error","name":"UUPSUnauthorizedCallContext","inputs":[]},{"type":"error","name":"UUPSUnsupportedProxiableUUID","inputs":[{"name":"slot","type":"bytes32","internalType":"bytes32"}]}],"bytecode":{"object":"0x60a080604052346100c957306080525f516020615e8d5f395f51905f525460ff8160401c166100ba576002600160401b03196001600160401b03821601610067575b604051615dbf90816100ce823960805181818161328101528181613325015261360f0152f35b6001600160401b0319166001600160401b039081175f516020615e8d5f395f51905f525581527fc7f505b2f371ae2175ee4913f4499e1f2633a7b5936321eed1cdaeb6115181d290602090a15f80610041565b63f92ee8a960e01b5f5260045ffd5b5f80fdfe60806040526004361015610011575f80fd5b5f5f3560e01c806303edef0e1461427157806306d1ab4b14613bf35780630f53a4701461416757806310c2fc0e146140aa57806311b5a16d146140165780633106467514613c115780633a02898014613bf35780633ccfd60b14613b5f5780633d91c1131461381857806340634e3b146135c257806340fa717d1461352a5780634f1ef286146132d557806350355d7614611b6457806352d1902d1461326e57806359e774a4146130e65780635b72bf4914612eda57806366e226bd14612e555780636eeb9b1014612d44578063715018a614612cee578063739f834d14612cc557806377e32407146129495780637c2f2c7e146125eb5780638000c5a41461225d57806380fc9c0e1461223157806383a7080f14611f7b5780638c1e161f14611ef65780638c865b2114611e6c5780638da5cb5b14611e375780638dd1480214611d885780639000a87f14611cf95780639a8a059214611cd2578063a53ae22614611ca9578063a787c80b14611c6a578063a8efdfe814611bf8578063a98ad46c14611bcf578063ad3cb1cc14611b82578063b02b4a2f14611b64578063b05e6f5a14611a55578063b58766ba146119b6578063bbe156271461193d578063be001f6f146118e6578063ce422626146116c5578063d37ff4941461149f578063d3988d471461115f578063d4daf73614611044578063ddd794c614610fab578063e612e80914610f82578063e78cea9214610f59578063eb7d901b146108a3578063ecc5cc8d14610e30578063f0e71ef814610aea578063f2c919f214610926578063f2fde38b146108f9578063f4653c0b146108a3578063f71fe487146105435763faa9834b14610282575f80fd5b604036600319011261054057600435906024356001600160401b038111610457576102b1903690600401614a4f565b92906102bb6156f7565b33835260016020526102d360ff604085205416615072565b338352826020526102ec60036040852001548310615601565b3383528260205260036040842001545f19810190811161052c578083036104d5575b50338352826020526003604084200193845480156104c1575f19016103338187614cf2565b9690966104ad57858761034a829998979854614c1a565b8061046a575b5050505560405190606060208301526103898261036f608082016156d1565b33604083015287606083015203601f1981018452836148b8565b600b546001600160a01b0316803b15610466576103dd85936103ef60405196879586948594636d42e1e360e01b8652606060048701526103cb606487016156d1565b86810360031901602488015290614a7c565b84810360031901604486015291615036565b039134905af1801561045b57610442575b50506040519081527f71896b71d4d23246e9605b719083d8266614b1316d706a9fff17e4d4e9857c7a60203392a260015f516020615d4a5f395f51905f525580f35b8161044c916148b8565b61045757815f610400565b5080fd5b6040513d84823e3d90fd5b8480fd5b601f81116001146104805750555b845f80610350565b8183526020832061049d91601f0160051c5f190190600101614e4a565b8082528160208120915555610478565b634e487b7160e01b86526004869052602486fd5b634e487b7160e01b85526031600452602485fd5b6104ec903385528460205260036040862001614cf2565b50338452836020526105048360036040872001614cf2565b610518579061051291615164565b5f61030e565b634e487b7160e01b85526004859052602485fd5b634e487b7160e01b84526011600452602484fd5b80fd5b5061054d36614bab565b6105556156f7565b604051602081855180838801835e8101600281520301902061058161057a8254614c1a565b151561510c565b60018101546001600160a01b0316330361085257600481019260ff845416600481101561083e5760016105b491146154a7565b60098201928354926105c7841515615596565b600a8101958654906105e06007840192835410156152bf565b600883016105ef878254614dc3565b9055600e8301610600878254614dc3565b905561060e86600954614dc3565b6009558754906001820180921161082a5781895582548b92839291106107ef57505087545f19810192915082116107db57916001610651600d938c979695614f76565b5001548097610660828c6158fe565b550161066d868254614dc3565b90555b6040519060a06020830152601960c0830152781c995b19585cd954185e5b595b9d105b99131bd8dad3995e1d603a1b60e083015233604083015260e060608301526106dd826106c361010082018b614a7c565b8760808301528860a083015203601f1981018452836148b8565b600b546001600160a01b0316803b15610466576103dd859361074660405196879586948594636d42e1e360e01b86526060600487015260126064870152711c995b19585cd9505b99131bd8dad3995e1d60721b608487015260a0602487015260a4860190614a7c565b039134905af1801561045b576107c6575b50506107956107887f881f9575e6bc96f2ebd076de5584e663c5e7489d82f21f00777994a223cfb061945495615056565b9460405193849384614af8565b0390a25f516020615c0a5f395f51905f526020600954604051908152a160015f516020615d4a5f395f51905f525580f35b816107d0916148b8565b61046657845f610757565b634e487b7160e01b8a52601160045260248afd5b92509493925095849055600260ff1982541617905561080d87615056565b5f516020615c4a5f395f51905f52602060405160028152a2610670565b634e487b7160e01b8b52601160045260248bfd5b634e487b7160e01b87526021600452602487fd5b60405162461bcd60e51b815260206004820152602360248201527f4f6e6c79206a6f622067697665722063616e2072656c6561736520616e64206c6044820152626f636b60e81b6064820152608490fd5b503461054057602036600319011261054057600435906001600160401b03821161054057602080806108d8366004870161492c565b604051928184925191829101835e8101600481520301902054604051908152f35b50346105405760203660031901126105405761092361091661480b565b61091e615ae2565b615673565b80f35b506060366003190112610540576004356024356001600160401b038111610ae65761095590369060040161492c565b90826044356001600160401b03811161045757610976903690600401614a4f565b61097e6156f7565b338352600160205261099660ff604085205416615072565b6109a28551151561552b565b338352826020526109bb60036040852001548510615601565b338352826020526109dc856109d68660036040882001614cf2565b90615306565b6040519060806020830152610a2682610a186109fa60a0830161564d565b336040840152886060840152601f1983820301608084015289614a7c565b03601f1981018452836148b8565b600b546001600160a01b0316803b15610466576103dd8593610a6860405196879586948594636d42e1e360e01b8652606060048701526103cb6064870161564d565b039134905af1801561045b57610ad1575b50507fc39f56c165e6e8a9ac36c2adf54383775830c65cc8239fb382b4baf459233ab7906040519081526040602082015280610aba33946040830190614a7c565b0390a260015f516020615d4a5f395f51905f525580f35b81610adb916148b8565b610ae657825f610a79565b8280fd5b506080366003190112610540576004356001600160401b03811161045757610b1690369060040161492c565b60243563ffffffff8116809103610ae6576044356001600160a01b0381169290839003610e2c576064356001600160401b03811161046657610b5c903690600401614a4f565b610b646156f7565b604051602081855180838801835e8101600281520301902091610b8a61057a8454614c1a565b60018301546001600160a01b03163303610ddc57600483019460ff8654166004811015610dc8576001610bbd91146154a7565b6009840192835496610bd0881515615596565b8815610d885789809555600e8601610be9898254614dc3565b9055610bf788600954614dc3565b600955600a8601956007875491015490818110610d3d575b505050610c68604051809360c06020830152610c48610c3060e084016155d6565b336040850152838103601f190160608501528a614a7c565b908a608084015260a08301528a60c083015203601f1981018452836148b8565b600b546001600160a01b0316803b15610466576103dd8593610caa60405196879586948594636d42e1e360e01b8652606060048701526103cb606487016155d6565b039134905af1801561045b57610d28575b5050610cc8905491615056565b9060405192835260208301527fa71f1661a883ae6cc97d4b6c49515c53bc3ad70681a1cdf669785aca9356ee2760403393a45f516020615c0a5f395f51905f526020600954604051908152a160015f516020615d4a5f395f51905f525580f35b81610d32916148b8565b61046657845f610cbb565b610d4690614e3c565b80885511610d56575b8080610c0f565b805460ff19166002179055610d6a86615056565b5f516020615c4a5f395f51905f52602060405160028152a25f610d4f565b60405162461bcd60e51b8152602060048201526018602482015277125b9d985b1a59081d185c99d95d081c9958da5c1a595b9d60421b6044820152606490fd5b634e487b7160e01b89526021600452602489fd5b60405162461bcd60e51b815260206004820152602260248201527f4f6e6c79206a6f622067697665722063616e2072656c65617365207061796d656044820152611b9d60f21b6064820152608490fd5b8380fd5b5080610e3b36614bab565b610e469392936156f7565b3383526001602052610e5e60ff604085205416615072565b610e6a8451151561552b565b33835282602052610e818460036040862001615315565b6040519060606020830152610eb782610a18610e9f60808301615577565b336040840152828103601f1901606084015288614a7c565b600b546001600160a01b0316803b15610466576103dd8593610ef960405196879586948594636d42e1e360e01b8652606060048701526103cb60648701615577565b039134905af1801561045b57610f44575b50507fcc18228e480194b6eb176cebd651be35a4eb3236a2461b112a3e89ea1b1c40dd6040516020815280610aba33946020830190614a7c565b81610f4e916148b8565b61045757815f610f0a565b5034610540578060031936011261054057600b546040516001600160a01b039091168152602090f35b5034610540578060031936011261054057600d546040516001600160a01b039091168152602090f35b503461054057602036600319011261054057610fc561480b565b610fcd615ae2565b6001600160a01b03168015610ff357600880546001600160a01b03191691909117905580f35b60405162461bcd60e51b8152602060048201526024808201527f417468656e6120636c69656e7420616464726573732063616e6e6f74206265206044820152637a65726f60e01b6064820152608490fd5b503461054057806003193601126105405761105d615ae2565b600a546040516370a0823160e01b81523060048201526001600160a01b0390911690602081602481855afa908115611154578391611122575b5080156110df57610923916110da60018060a01b035f516020615c2a5f395f51905f525416610a1860405194859263a9059cbb60e01b6020850152602484016158b4565b615b40565b60405162461bcd60e51b815260206004820152601b60248201527a4e6f20555344542062616c616e636520746f20776974686472617760281b6044820152606490fd5b90506020813d60201161114c575b8161113d602093836148b8565b81010312610ae657515f611096565b3d9150611130565b6040513d85823e3d90fd5b506080366003190112610540576004356001600160401b0381116104575761118b90369060040161492c565b6024356001600160401b038111610ae6576111aa903690600401614961565b6044356001600160401b038111610e2c576111c99036906004016149df565b906064356001600160401b038111610466576111e9903690600401614a4f565b90916111f36156f7565b6111ff81511515614d07565b61120c8151855114614d52565b85805b85518810156112375761122f6001916112288a89614daf565b5190614dc3565b97019661120f565b6112478791969594961515614de4565b602061125d63ffffffff600a5460a01c1661572f565b6112ba6001611279611270600754614e3c565b8060075561572f565b846040519586928180850197805191829101895e840190602d60f81b83830152805192839101602183015e010187838201520301601f1981018452836148b8565b6020604051809284518091835e81016002815203019020946112dc8287614eb2565b6001860180546001600160a01b031916331790556112fd8360038801614eb2565b6004860160ff1981541690556006849601955b8551811015611355578061134f61132960019389614daf565b51611334838c614daf565b516040519161134283614837565b8252602082015289614f8f565b01611310565b5060405160c06020820152849190896113d082610a188c6113be8c6113ac61139461138260e08801615511565b878103601f190160408901528d614a7c565b336060880152868103601f190160808801528d614a7c565b858103601f190160a087015290614aa0565b838103601f190160c085015290615003565b600b546001600160a01b0316803b15610466576103dd859361141260405196879586948594636d42e1e360e01b8652606060048701526103cb60648701615511565b039134905af1801561045b5761148a575b505061145f9161143282615056565b5f516020615cca5f395f51905f52604051602081528061145733956020830190614a7c565b0390a3615056565b5f516020615c4a5f395f51905f526020604051848152a260015f516020615d4a5f395f51905f525580f35b81611494916148b8565b610ae6578284611423565b50346105405760a0366003190112610540576114b961480b565b6114c1614821565b6044359063ffffffff82168203610e2c576064356001600160a01b0381169190829003610466576084356001600160a01b03811693908490036116c1575f516020615d6a5f395f51905f5254604081901c60ff161595906001600160401b038116801590816116b9575b60011490816116af575b1590816116a6575b50611697576001600160401b031981166001175f516020615d6a5f395f51905f525561159c91908761166f575b50611573615b15565b61157b615b15565b60015f516020615d4a5f395f51905f5255611594615b15565b61091e615b15565b6115a4615b15565b600a80546001600160c01b0319166001600160a01b039093169290921760a09190911b63ffffffff60a01b16179055600b80546001600160a01b0319908116929092179055600c8054821692909217909155600d8054909116739e39b37275854449782f1a2a4524405ce79d6c1e17905561161c5780f35b60ff60401b195f516020615d6a5f395f51905f5254165f516020615d6a5f395f51905f52557fc7f505b2f371ae2175ee4913f4499e1f2633a7b5936321eed1cdaeb6115181d2602060405160018152a180f35b6001600160481b0319166001600160401b01175f516020615d6a5f395f51905f52555f61156a565b63f92ee8a960e01b8852600488fd5b9050155f61153d565b303b159150611535565b88915061152b565b8580fd5b5034610540576040366003190112610540576004356001600160401b038111610457576116f690369060040161492c565b60243590811515808303610e2c576008546001600160a01b0316330361189157604051602081845180838701835e810160028152030190209261173c61057a8554614c1a565b600484019360ff855416600481101561083e57600161175b91146154a7565b600981019283548015611858576117ef96600e6060947f8d0e98aef4d85d348d57e4cbfeb62a4757630a03b8a5d7dcb72210e777439743965f1461180a5760018101546001600160a01b0316978b905b55016117b8838254614dc3565b9055805460ff191660021790556117ce86615056565b604080519384526001600160a01b03909616602084015294820152a2615056565b5f516020615c4a5f395f51905f52602060405160028152a280f35b8a60018060a01b03600b830154169861182586600954614dc3565b60095560088301611837878254614dc3565b90555f516020615c0a5f395f51905f526020600954604051908152a16117ab565b60405162461bcd60e51b8152602060048201526011602482015270139bc8199d5b991cc8195cd8dc9bddd959607a1b6044820152606490fd5b60405162461bcd60e51b815260206004820152602760248201527f4f6e6c7920417468656e6120436c69656e742063616e207265736f6c766520646044820152666973707574657360c81b6064820152608490fd5b50346105405760403660031901126105405761190061480b565b6001600160a01b031681526006602052604081208054602435929083101561054057602061192e8484614cf2565b90549060031b1c604051908152f35b5034610540576020366003190112610540576040906001600160a01b0361196261480b565b16815260208190522080546001600160a01b031661198260018301614c52565b91600260018060a01b03910154166119ac6040519384938452606060208501526060840190614a7c565b9060408301520390f35b5034610540576020366003190112610540576004356001600160401b0381116104575760046119ea60ff923690830161492c565b602060405191611a1361057a8251948481818601978089835e8101600281520301902054614c1a565b604051928391518091835e81016002815203019020015416906004821015611a415760208260405190158152f35b634e487b7160e01b81526021600452602490fd5b503461054057602036600319011261054057600435906001600160401b038211610540576020611b1f8180611a8d366004880161492c565b604051928184925191829101835e81016002815203019020611aae81614c52565b9060018060a01b0360018201541690611ac960038201614c52565b60ff6004830154169360088301546009840154600a85015491611b3a611b2f60018060a01b03600b8901541695600c89015497600e600d8b01549a01549a6040519e8f9e8f946101608652610160860190614a7c565b9301528c820360408e0152614a7c565b9860608b0190614bf9565b608089015260a088015260c087015260e08601526101008501526101208401526101408301520390f35b50346105405780600319360112610540576020600754604051908152f35b503461054057806003193601126105405750611bcb604051611ba56040826148b8565b60058152640352e302e360dc1b6020820152604051918291602083526020830190614a7c565b0390f35b5034610540578060031936011261054057600a546040516001600160a01b039091168152602090f35b5034610540576040366003190112610540576004356001600160401b03811161045757611c2990369060040161492c565b602080611c34614821565b92604051928184925191829101835e810160058152030190209060018060a01b03165f52602052602060405f2054604051908152f35b50346105405760203660031901126105405760209060ff906040906001600160a01b03611c9561480b565b168152600184522054166040519015158152f35b50346105405780600319360112610540576008546040516001600160a01b039091168152602090f35b5034610540578060031936011261054057602063ffffffff600a5460a01c16604051908152f35b503461054057604090602080611d0e36614b0e565b92908551928184925191829101835e81016003815203019020908252602052208054611bcb611d3f60018401614c52565b92611d59600360018060a01b036002840154169201614c52565b611d756040519586958652608060208701526080860190614a7c565b9160408501528382036060850152614a7c565b503461054057602036600319011261054057611da261480b565b611daa615ae2565b6001600160a01b03168015611df257600b80546001600160a01b031916821790557fa49730bff544fd0b716395c592e39c6fd2d2481a19b9229b5b240483db95a4958280a280f35b60405162461bcd60e51b815260206004820152601d60248201527f42726964676520616464726573732063616e6e6f74206265207a65726f0000006044820152606490fd5b50346105405780600319360112610540575f516020615c2a5f395f51905f52546040516001600160a01b039091168152602090f35b503461054057602036600319011261054057600435611e89615ae2565b6009548110611eb1576020815f516020615c0a5f395f51905f5292600955604051908152a180f35b60405162461bcd60e51b815260206004820152601e60248201527f43616e6e6f7420646563726561736520706c6174666f726d20746f74616c00006044820152606490fd5b503461054057602036600319011261054057600435906001600160401b03821161054057602060ff6004611f2c3686830161492c565b8360405191611f5461057a8251948481818601978089835e8101600281520301902054614c1a565b604051928391518091835e81016002815203019020015416611f796040518092614bf9565bf35b50611f8536614bab565b9190611f8f6156f7565b604051602081845180838701835e8101600281520301902090611fb561057a8354614c1a565b60018201546001600160a01b031633036121e25760ff60048301541660048110156121ce576001611fe691146154a7565b6009820193845461218957600a8301928354600782018054821161214557600182018083116107db57612024600d938b979695936001938a55614f76565b5001548098612033828a6158fe565b5501612040878254614dc3565b9055604051906080602083015261208c8261207861206060a083016154ed565b336040840152828103601f1901606084015289614a7c565b89608083015203601f1981018452836148b8565b600b546001600160a01b0316803b15610466576103dd85936120ce60405196879586948594636d42e1e360e01b8652606060048701526103cb606487016154ed565b039134905af1801561045b57612130575b50507fb9422fa51238140c2297fbab91a9525e85400eea5c9666d16562298ea0e0981c916121106040925491615056565b9382519182526020820152a260015f516020615d4a5f395f51905f525580f35b8161213a916148b8565b610e2c57835f6120df565b606460405162461bcd60e51b815260206004820152602060248201527f416c6c206d696c6573746f6e657320616c726561647920636f6d706c657465646044820152fd5b60405162461bcd60e51b815260206004820152601d60248201527f50726576696f7573207061796d656e74206e6f742072656c65617365640000006044820152606490fd5b634e487b7160e01b86526021600452602486fd5b60405162461bcd60e51b815260206004820152602160248201527f4f6e6c79206a6f622067697665722063616e206c6f636b206d696c6573746f6e6044820152606560f81b6064820152608490fd5b503461054057602036600319011261054057602061225561225061480b565b6153fa565b604051908152f35b5060c0366003190112610540576004356001600160401b0381116104575761228990369060040161492c565b6024356001600160401b038111610ae6576122a890369060040161492c565b6044356001600160401b038111610e2c576122c7903690600401614961565b6064356001600160401b038111610466576122e69036906004016149df565b936122ef614a3c565b9260a4356001600160401b038111610ae65761230f903690600401614a4f565b956123186156f7565b338452600160205260ff604085205416156125a957845115612558576123448597969751895114614d52565b60405191815192602081818501958087835e810160048152030190209261236b8454614e3c565b8094556020604051809285518091835e8101600381520301902083865260205260408520968388556123a08360018a01614eb2565b6002880180546001600160a01b031916331790556123c18560038a01614eb2565b6004869801975b875181101561240e57806124088c6123ed836123e66001968e614daf565b5192614daf565b51604051916123fb83614837565b825260208201528b614f8f565b016123c8565b509061245e86926124a9858c63ffffffff8f612494906124828f6124708f6040519b8c9960e060208c01526124466101008c016153dd565b3360408d01528b8103601f190160608d015290614a7c565b898103601f190160808b015290614a7c565b878103601f190160a089015290614aa0565b858103601f190160c087015290615003565b911660e083015203601f1981018452836148b8565b600b546001600160a01b0316803b15610466576103dd85936124eb60405196879586948594636d42e1e360e01b8652606060048701526103cb606487016153dd565b039134905af1801561045b57612543575b505061250790615056565b5f516020615c8a5f395f51905f52604051602081528061252c33966020830190614a7c565b0390a460015f516020615d4a5f395f51905f525580f35b8161254d916148b8565b610e2c5783856124fc565b60405162461bcd60e51b815260206004820152602360248201527f4d7573742070726f706f7365206174206c65617374206f6e65206d696c6573746044820152626f6e6560e81b6064820152608490fd5b60405162461bcd60e51b815260206004820152601a6024820152794d75737420686176652070726f66696c6520746f206170706c7960301b6044820152606490fd5b506060366003190112610540576004356001600160401b0381116104575761261790369060040161492c565b61261f614821565b6044356001600160401b038111610e2c5761263e903690600401614a4f565b92906126486156f7565b338552600160205260ff60408620541661290b5761266882511515615355565b60209360405161267886826148b8565b868152600360405161268981614866565b338082528882018781526001600160a01b03988916604080850182815260608601978852938d528c8c528c20935184546001600160a01b0319169a16999099178355516126d99060018401614eb2565b516002820180546001600160a01b0319166001600160a01b039290921691909117905591518051929190910190600160401b83116128f7578790825484845580851061286d575b50918952878920899594939286928a91015b8484106128445750505050503383526001865260408320600160ff198254161790556040519060808783015261278582612771610e9f60a083016153bd565b88608083015203601f1981018452836148b8565b600b546001600160a01b0316803b15610466576103dd85936127c760405196879586948594636d42e1e360e01b8652606060048701526103cb606487016153bd565b039134905af1801561045b5761282f575b50507f5874afb0d71e1f97e546fc6b15493e51e5ccbefa591556f8c6a80c8c5151a84f9161281160405192604084526040840190614a7c565b938201528033930390a260015f516020615d4a5f395f51905f525580f35b81612839916148b8565b610e2c57835f6127d8565b600192939495969750908161285b84935186614eb2565b01920192019091888a96959493612732565b838b528480848d20019103908b5b828110612889575050612720565b81929394508c81600193018d61289f8254614c1a565b90816128b5575b5050505001908a93929161287b565b81601f85931187146128cf57505050555b8c5f808e6128a6565b8383528183206128ea91601f0160051c5f1901908801614e4a565b82825281209155556128c6565b634e487b7160e01b89526041600452602489fd5b60405162461bcd60e51b815260206004820152601660248201527550726f66696c6520616c72656164792065786973747360501b6044820152606490fd5b5034610540576020366003190112610540576004356001600160401b0381116104575761297a90369060040161492c565b816101c060405161298a8161489c565b6060815282602082015260606040820152606080820152826080820152606060a0820152606060c0820152606060e08201528261010082015282610120820152826101408201528261016082015282610180820152826101a08201520152602060405191612a1161057a8251948481818601978089835e8101600281520301902054614c1a565b604051928391518091835e8101600281520301902060405191612a338361489c565b612a3c82614c52565b835260018060a01b03600183015416906020840191825260028301926040518085602082975493848152019085526020852092855b818110612ca3575050612a86925003856148b8565b60408501938452612a9960038201614c52565b926060860193845260ff6004830154169360808701946004811015612c8f578552909290612ac9600584016150b7565b60a0880190815296612add60068501615253565b60c0820190815297612af160078601615253565b9860e08301998a5260088601549761010084019889526009870154926101208501938452600a880154946101408101958652600160a01b60019003600b8a015416966101608201978852600c8a0154986101808301998a52600d8b01549a6101a084019b8c52600e01549b6101c084019c8d526040519e8f946020865251602086016101e090526102008601612b8691614a7c565b91516001600160a01b0316604086015251848203601f1901606090950194909452835180825260209182019491909101915b818110612c70575050508c9d938d612c1d94612bf7612beb612c319996612c0a9651601f19868303016080870152614a7c565b935160a0840190614bf9565b519060c0601f1982850301910152614aa0565b90518c8203601f190160e08e0152614b3f565b90518a8203601f19016101008c0152614b3f565b96516101208901525161014088015251610160870152516001600160a01b0316610180860152516101a0850152516101c0840152516101e08301520390f35b82516001600160a01b0316855260209485019490920191600101612bb8565b634e487b7160e01b85526021600452602485fd5b84546001600160a01b0316835260019485019489945060209093019201612a71565b5034610540578060031936011261054057600c546040516001600160a01b039091168152602090f35b5034610540578060031936011261054057612d07615ae2565b5f516020615c2a5f395f51905f5280546001600160a01b0319811690915581906001600160a01b03165f516020615cea5f395f51905f528280a380f35b5080612d4f36614bab565b612d5a9392936156f7565b3383526001602052612d7260ff604085205416615072565b612d7e84511515615355565b33835282602052612d958460016040862001614eb2565b6040519060606020830152612db382610a18610e9f6080830161539d565b600b546001600160a01b0316803b15610466576103dd8593612df560405196879586948594636d42e1e360e01b8652606060048701526103cb6064870161539d565b039134905af1801561045b57612e40575b50507fdd635a4cd84864e37e4479dbfc2ec667acfa473c83c8422a8ac9d9d07599b01c6040516020815280610aba33946020830190614a7c565b81612e4a916148b8565b61045757815f612e06565b503461054057602036600319011261054057612e6f61480b565b612e77615ae2565b6001600160a01b03168015612e9d57600a80546001600160a01b03191691909117905580f35b60405162461bcd60e51b8152602060048201526015602482015274496e76616c696420746f6b656e206164647265737360581b6044820152606490fd5b506060366003190112610540576004356001600160401b03811161045757612f0690369060040161492c565b6024356001600160401b038111610ae657612f2590369060040161492c565b826044356001600160401b03811161045757612f45903690600401614a4f565b9190612f4f6156f7565b60405192612f93600a875195602081818b0198808a835e81016002815203019020015460076040516020818b51808b835e81016002815203019020015410156152bf565b612fb58560056040516020818b51808b835e8101600281520301902001615315565b604051906080602083015261300082610a18612fee612fd660a08401615338565b336040850152838103601f190160608501528b614a7c565b828103601f1901608084015289614a7c565b600b546001600160a01b0316803b15610466576103dd859361304260405196879586948594636d42e1e360e01b8652606060048701526103cb60648701615338565b039134905af1801561045b576130d1575b505061309b600a7f2de280d2b7315f889cbea3ddc5c9ebfb1773caba023a73cc8fa272e9b28585c2926020604051809288518091835e81016002815203019020015493615056565b916130b160405191604083526040830190614a7c565b9360208201528033940390a360015f516020615d4a5f395f51905f525580f35b816130db916148b8565b610e2c57835f613053565b5034610540576130f536614b0e565b6060608060409493945161310881614881565b84815282602082015284604082015282808201520152604051835190602081818701938085835e8101600381520301902082845260205260408320541561322c5760206040948551928391518091835e810160038152030190209082526020522060405161317581614881565b81548152611bcb61318860018401614c52565b6020830190815260028401546001600160a01b031660408401908152909390613219906131ca60046131bc60038601614c52565b946060880195865201615253565b92608086019384526131f7604051978897602089525160208901525160a0604089015260c0880190614a7c565b91516001600160a01b0316606087015251858203601f19016080870152614a7c565b9051838203601f190160a0850152614b3f565b60405162461bcd60e51b815260206004820152601a602482015279105c1c1b1a58d85d1a5bdb88191bd95cc81b9bdd08195e1a5cdd60321b6044820152606490fd5b50346105405780600319360112610540577f00000000000000000000000000000000000000000000000000000000000000006001600160a01b031630036132c65760206040515f516020615caa5f395f51905f528152f35b63703e46dd60e11b8152600490fd5b506040366003190112610540576132ea61480b565b906024356001600160401b03811161045757366023820112156104575761331b9036906024816004013591016148f6565b6001600160a01b037f000000000000000000000000000000000000000000000000000000000000000016308114908115613508575b506134f9575f516020615c2a5f395f51905f52546001600160a01b0316331480156134e5575b156134a9576040516352d1902d60e01b8152926001600160a01b0381169190602085600481865afa80958596613475575b506133c057634c9c8ce360e01b84526004839052602484fd5b9091845f516020615caa5f395f51905f5281036134635750813b15613451575f516020615caa5f395f51905f5280546001600160a01b031916821790555f516020615d0a5f395f51905f528480a28151839015613437578083602061343395519101845af461342d6158cf565b91615bab565b5080f35b505050346134425780f35b63b398979f60e01b8152600490fd5b634c9c8ce360e01b8452600452602483fd5b632a87526960e21b8552600452602484fd5b9095506020813d6020116134a1575b81613491602093836148b8565b810103126104665751945f6133a7565b3d9150613484565b60405162461bcd60e51b8152602060048201526014602482015273556e617574686f72697a6564207570677261646560601b6044820152606490fd5b50600b546001600160a01b03163314613376565b63703e46dd60e11b8252600482fd5b5f516020615caa5f395f51905f52546001600160a01b0316141590505f613350565b50346105405760203660031901126105405761354461480b565b61354c615ae2565b6001600160a01b0316801561357257600c80546001600160a01b03191691909117905580f35b60405162461bcd60e51b815260206004820152602260248201527f434354502073656e64657220616464726573732063616e6e6f74206265207a65604482015261726f60f01b6064820152608490fd5b5034610540576020366003190112610540576135dc61480b565b600b546001600160a01b03169190338390036137d95760405160209361360285836148b8565b8382526001600160a01b037f0000000000000000000000000000000000000000000000000000000000000000163081149081156137b7575b506137a8575f516020615c2a5f395f51905f52546001600160a01b0316331490811561379e575b5015613762576040516352d1902d60e01b81526001600160a01b03831694908181600481895afa859181613733575b506136a957634c9c8ce360e01b85526004869052602485fd5b5f516020615caa5f395f51905f5281036134635750823b1561371f575f516020615caa5f395f51905f5280546001600160a01b0319168617905592938493905f516020615d0a5f395f51905f528580a28151156137155781516134339492839201845af461342d6158cf565b5050506134425780f35b634c9c8ce360e01b84526004859052602484fd5b9091508281813d831161375b575b61374b81836148b8565b810103126116c15751905f613690565b503d613741565b60405162461bcd60e51b8152600481018590526014602482015273556e617574686f72697a6564207570677261646560601b6044820152606490fd5b905033145f613661565b63703e46dd60e11b8452600484fd5b5f516020615caa5f395f51905f52546001600160a01b0316141590505f61363a565b60405162461bcd60e51b81526020600482015260176024820152764f6e6c79206272696467652063616e207570677261646560481b6044820152606490fd5b506080366003190112610540576004356001600160401b0381116104575761384490369060040161492c565b602435604435801515809103610e2c576064356001600160401b03811161046657613873903690600401614a4f565b91909361387e6156f7565b6040516138a561057a835192602081818701958087835e8101600281520301902054614c1a565b6020604051809284518091835e810160028152030190209360018060a01b036001860154163303613b1b576004850160ff8154166004811015610dc857613ae45781600c8798970155600160ff1982541617905586600a8701558694600687019460078801965b865481101561399b5761391f8188614f76565b508854600160401b8110156139875780600161393e92018b558a614f76565b91909161397357908160019392820361395a575b50500161390c565b8381613967829385615164565b01549101555f80613952565b634e487b7160e01b8c5260048c905260248cfd5b634e487b7160e01b8c52604160045260248cfd5b508895508787805415613ad05790879493929185526139d7600d6001602088200154926139c8848a6158fe565b83600982015501918254614dc3565b90556040519060a06020830152613a11826139f761206060c08301615238565b8660808301528960a083015203601f1981018452836148b8565b600b546001600160a01b0316803b156116c1576103dd8693613a5360405196879586948594636d42e1e360e01b8652606060048701526103cb60648701615238565b039134905af1801561115457613abb575b50613a8f935f516020615c6a5f395f51905f526020613a8286615056565b92604051908152a4615056565b5f516020615c4a5f395f51905f52602060405160018152a260015f516020615d4a5f395f51905f525580f35b613ac68380926148b8565b6104575785613a64565b634e487b7160e01b88526032600452602488fd5b60405162461bcd60e51b815260206004820152600f60248201526e2537b11034b9903737ba1037b832b760891b6044820152606490fd5b60405162461bcd60e51b815260206004820152601c60248201527b27b7363c903537b11033b4bb32b91031b0b71039ba30b93a103537b160211b6044820152606490fd5b5034610540578060031936011261054057613b78615ae2565b478015613bb5575f516020615c2a5f395f51905f525482918291829182916001600160a01b031682f115613ba95780f35b604051903d90823e3d90fd5b60405162461bcd60e51b81526020600482015260166024820152754e6f2062616c616e636520746f20776974686472617760501b6044820152606490fd5b50346105405780600319360112610540576020600954604051908152f35b506080366003190112610540576004356001600160401b03811161045757613c3d90369060040161492c565b613c45614821565b90604435906064356001600160401b03811161046657613c69903690600401614a4f565b93613c726156f7565b604051835190602081818701938085835e81016002815203019020613c9a61057a8254614c1a565b60ff6004820154166004811015610dc8576001811490811561400b575b5015613fd057600186101580613fc5575b15613f805760405160208187518086835e8101600581520301902060018060a01b0384165f5260205260405f2054613f3b5760018060a01b036001820154168033149182613f21575b8215613eef575b505015613e94576020604051809286518091835e8101600581520301902060018060a01b0382165f526020528360405f205560018060a01b031693848652600660205260408620805490600160401b821015613e805781613d819160018a969594018155614cf2565b81549060031b9087821b915f19901b19161790556040519060a06020830152613dcd82613db3610e9f60c0830161514d565b8960808301528860a083015203601f1981018452836148b8565b600b546001600160a01b0316803b15610466576103dd8593613e0f60405196879586948594636d42e1e360e01b8652606060048701526103cb6064870161514d565b039134905af1801561045b57613e6b575b5050613e2b90615056565b6040519182527f210dac24c32efa80ef08f803d73e7033bee07555af4a95a00e79a488121b0bd660203393a460015f516020615d4a5f395f51905f525580f35b81613e75916148b8565b610e2c57835f613e20565b634e487b7160e01b88526041600452602488fd5b60405162461bcd60e51b815260206004820152602d60248201527f4e6f7420617574686f72697a656420746f20726174652074686973207573657260448201526c103337b9103a3434b9903537b160991b6064820152608490fd5b600b01546001600160a01b03163314915081613f0e575b505f80613d18565b6001600160a01b0384161490505f613f06565b600b8101546001600160a01b038681169116149250613d11565b60405162461bcd60e51b815260206004820152601f60248201527f5573657220616c726561647920726174656420666f722074686973206a6f62006044820152606490fd5b60405162461bcd60e51b815260206004820152601e60248201527f526174696e67206d757374206265206265747765656e203120616e64203500006044820152606490fd5b506005861115613cc8565b60405162461bcd60e51b8152602060048201526013602482015272129bd8881b5d5cdd081899481cdd185c9d1959606a1b6044820152606490fd5b60029150145f613cb7565b5034610540576020366003190112610540576004356001600160401b03811161045757602061404a8192369060040161492c565b604051928184925191829101835e8101600281520301902061406f61057a8254614c1a565b600e600d82015491015491828203908282116140965750611bcb9060405193849384614af8565b634e487b7160e01b81526011600452602490fd5b5034610540576020366003190112610540576140c461480b565b6140cc615ae2565b6001600160a01b0316801561411457600d80546001600160a01b031916821790557f6a6a3ea8c90f67a837c2bf7d7ceb8d003f2bedbde28220f34ff818cca43af5b28280a280f35b60405162461bcd60e51b815260206004820152602560248201527f4d696e7420726563697069656e742063616e6e6f74206265207a65726f206164604482015264647265737360d81b6064820152608490fd5b50346105405760203660031901126105405760409061418461480b565b606080845161419281614866565b8481528160208201528486820152015260018060a01b031680825260016020526141c160ff8484205416615072565b815280602052206040516141d481614866565b81546001600160a01b03168152611bcb6141f060018401614c52565b6020830190815260028401546001600160a01b031660408401908152909361421a906003016150b7565b6060840190815261424f6040519586956020875260018060a01b039051166020870152516080604087015260a0860190614a7c565b91516001600160a01b0316606085015251838203601f19016080850152614aa0565b5060c03660031901126147855761428661480b565b906024356001600160401b038111614785576142a690369060040161492c565b906044356001600160401b038111614785576142c6903690600401614961565b906064356001600160401b038111614785576142e69036906004016149df565b936142ef614a3c565b9260a4356001600160401b0381116147855761430f903690600401614a4f565b926143186156f7565b6001600160a01b03169283156147ca5761433483511515614d07565b6143418351895114614d52565b5f95865b89518810156143665761435e6001916112288a8d614daf565b970196614345565b89975061437889919796971515614de4565b61438c63ffffffff600a5460a01c1661572f565b9560206143e460016143a2611270600754614e3c565b83604051948592818085019e8f815192839201905e840190602d60f81b83830152805192839101602183015e01015f838201520301601f1981018352826148b8565b6040516020818351808c835e8101600281520301902098614405828b614eb2565b60018a0180546001600160a01b031916331790556144268460038c01614eb2565b60048a01805460ff19166001908117909155600b8b0180546001600160a01b03191683179055600c8b01555f600a8b0181905560078b019960068c019890915b8d8b518210156144c957906144c36001928e61449d8f8f86826144b76144bc93614491848097614daf565b519061449d858b614daf565b51604051926144ab84614837565b83526020830152614f8f565b614daf565b5193614daf565b01614466565b9a97989950508b60405160208187518087835e81016004815203019020926144f18454614e3c565b8094556020604051809288518091835e81016003815203019020835f5260205260405f2099838b556145268660018d01614eb2565b60028b0180546001600160a01b0319168617905560038b01805461454990614c1a565b601f811161479d575b506041819c9b9c555f525f516020615d2a5f395f51905f5260205f205560045f9a01995b89518110156145b657806145b08e614595836123e68f96600197614daf565b51604051916145a383614837565b825260208201528d614f8f565b01614576565b50888c8c8151156147895763ffffffff61466383614651614679968f61463f908f8f9c600d6145ef916139c86020859e015180956158fe565b905561462d6040519c8d9a61010060208d015261460f6101208d01614fdd565b918c60403391015260608d0152601f198c83030160808d0152614a7c565b898103601f190160a08b015290614a7c565b878103601f190160c089015290614aa0565b858103601f190160e087015290615003565b911661010083015203601f1981018452836148b8565b600b546001600160a01b0316803b15614785576103dd5f936146bb60405196879586948594636d42e1e360e01b8652606060048701526103cb60648701614fdd565b039134905af1801561477a57614764575b50613a8f93946146db84615056565b5f516020615cca5f395f51905f52604051602081528061470033956020830190614a7c565b0390a3818161470e85615056565b5f516020615c8a5f395f51905f526060604051602081526020808201525f516020615d2a5f395f51905f526040820152a461474883615056565b5f516020615c6a5f395f51905f526020604051888152a4615056565b613a8f94505f614773916148b8565b5f936146cc565b6040513d5f823e3d90fd5b5f80fd5b634e487b7160e01b5f52603260045260245ffd5b6020811115614552575f828152602090206147c491601f0160051c5f190190600101614e4a565b8d614552565b60405162461bcd60e51b8152602060048201526019602482015278496e76616c6964206a6f622074616b6572206164647265737360381b6044820152606490fd5b600435906001600160a01b038216820361478557565b602435906001600160a01b038216820361478557565b604081019081106001600160401b0382111761485257604052565b634e487b7160e01b5f52604160045260245ffd5b608081019081106001600160401b0382111761485257604052565b60a081019081106001600160401b0382111761485257604052565b6101e081019081106001600160401b0382111761485257604052565b601f909101601f19168101906001600160401b0382119082101761485257604052565b6001600160401b03811161485257601f01601f191660200190565b929192614902826148db565b9161491060405193846148b8565b829481845281830111614785578281602093845f960137010152565b9080601f8301121561478557816020614947933591016148f6565b90565b6001600160401b0381116148525760051b60200190565b9080601f830112156147855781356149788161494a565b9261498660405194856148b8565b81845260208085019260051b820101918383116147855760208201905b8382106149b257505050505090565b81356001600160401b038111614785576020916149d48784809488010161492c565b8152019101906149a3565b9080601f830112156147855781356149f68161494a565b92614a0460405194856148b8565b81845260208085019260051b82010192831161478557602001905b828210614a2c5750505090565b8135815260209182019101614a1f565b6084359063ffffffff8216820361478557565b9181601f84011215614785578235916001600160401b038311614785576020838186019501011161478557565b805180835260209291819084018484015e5f828201840152601f01601f1916010190565b9080602083519182815201916020808360051b8301019401925f915b838310614acb57505050505090565b9091929394602080614ae9600193601f198682030187528951614a7c565b97019301930191939290614abc565b6040919493926060820195825260208201520152565b604060031982011261478557600435906001600160401b03821161478557614b389160040161492c565b9060243590565b9080602083519182815201916020808360051b8301019401925f915b838310614b6a57505050505090565b9091929394602080600192601f198582030186528851908280614b968451604085526040850190614a7c565b93015191015297019301930191939290614b5b565b906040600319830112614785576004356001600160401b0381116147855782614bd69160040161492c565b91602435906001600160401b03821161478557614bf591600401614a4f565b9091565b906004821015614c065752565b634e487b7160e01b5f52602160045260245ffd5b90600182811c92168015614c48575b6020831014614c3457565b634e487b7160e01b5f52602260045260245ffd5b91607f1691614c29565b9060405191825f825492614c6584614c1a565b8084529360018116908115614cd05750600114614c8c575b50614c8a925003836148b8565b565b90505f9291925260205f20905f915b818310614cb4575050906020614c8a928201015f614c7d565b6020919350806001915483858901015201910190918492614c9b565b905060209250614c8a94915060ff191682840152151560051b8201015f614c7d565b8054821015614789575f5260205f2001905f90565b15614d0e57565b606460405162461bcd60e51b815260206004820152602060248201527f4d7573742068617665206174206c65617374206f6e65206d696c6573746f6e656044820152fd5b15614d5957565b60405162461bcd60e51b815260206004820152602860248201527f4465736372697074696f6e7320616e6420616d6f756e7473206c656e677468206044820152670dad2e6dac2e8c6d60c31b6064820152608490fd5b80518210156147895760209160051b010190565b91908201809211614dd057565b634e487b7160e01b5f52601160045260245ffd5b15614deb57565b60405162461bcd60e51b815260206004820152602360248201527f546f74616c20616d6f756e74206d75737420626520677265617465722074686160448201526206e20360ec1b6064820152608490fd5b5f198114614dd05760010190565b5f5b828110614e5857505050565b5f82820155600101614e4c565b91601f8211614e7357505050565b808211614e7f57505050565b614c8a925f5260205f20916020601f830160051c9210614eaa575b601f82910160051c039101614e4a565b5f9150614e9a565b81519192916001600160401b03811161485257614ed981614ed38454614c1a565b84614e65565b6020601f8211600114614f18578190614f099394955f92614f0d575b50508160011b915f199060031b1c19161790565b9055565b015190505f80614ef5565b601f19821690835f52805f20915f5b818110614f5e57509583600195969710614f46575b505050811b019055565b01515f1960f88460031b161c191690555f8080614f3c565b9192602060018192868b015181550194019201614f27565b8054821015614789575f5260205f209060011b01905f90565b8054600160401b81101561485257614fac91600182018155614f76565b919091614fca57602081614fc36001935185614eb2565b0151910155565b634e487b7160e01b5f525f60045260245ffd5b60138152721cdd185c9d111a5c9958dd10dbdb9d1c9858dd606a1b602082015260400190565b90602080835192838152019201905f5b8181106150205750505090565b8251845260209384019390920191600101615013565b908060209392818452848401375f828201840152601f01601f1916010190565b602090604051918183925191829101835e81015f815203902090565b1561507957565b60405162461bcd60e51b8152602060048201526016602482015275141c9bd99a5b1948191bd95cc81b9bdd08195e1a5cdd60521b6044820152606490fd5b9081546150c38161494a565b926150d160405194856148b8565b81845260208401905f5260205f205f915b8383106150ef5750505050565b6001602081926150fe85614c52565b8152019201920191906150e2565b1561511357565b60405162461bcd60e51b8152602060048201526012602482015271129bd888191bd95cc81b9bdd08195e1a5cdd60721b6044820152606490fd5b60048152637261746560e01b602082015260400190565b919091828114615233576151788354614c1a565b6001600160401b0381116148525761519481614ed38454614c1a565b5f93601f82116001146151ce57614f0992939482915f926151c35750508160011b915f199060031b1c19161790565b015490505f80614ef5565b601f198216905f5260205f2094835f5260205f20915f5b81811061521b5750958360019596971061520357505050811b019055565b01545f1960f88460031b161c191690555f8080614f3c565b9192600180602092868b0154815501940192016151e5565b509050565b600881526739ba30b93a2537b160c11b602082015260400190565b90815461525f8161494a565b9261526d60405194856148b8565b81845260208401905f5260205f205f915b83831061528b5750505050565b6002602060019260405161529e81614837565b6152a786614c52565b8152848601548382015281520192019201919061527e565b156152c657565b60405162461bcd60e51b8152602060048201526018602482015277105b1b081b5a5b195cdd1bdb995cc818dbdb5c1b195d195960421b6044820152606490fd5b9190614fca57614c8a91614eb2565b80549190600160401b83101561485257826109d6916001614c8a95018155614cf2565b600a8152697375626d6974576f726b60b01b602082015260400190565b1561535c57565b60405162461bcd60e51b81526020600482015260196024820152784950465320686173682063616e6e6f7420626520656d70747960381b6044820152606490fd5b600d81526c75706461746550726f66696c6560981b602082015260400190565b600d81526c63726561746550726f66696c6560981b602082015260400190565b600a81526930b838363caa37a537b160b11b602082015260400190565b60018060a01b03165f52600660205260405f20604051808260208294549384815201905f5260205f20925f5b81811061548e57505061543b925003826148b8565b805115615489575f90815b81518310156154675761545f6001916112288585614daf565b920191615446565b915051908115615475570490565b634e487b7160e01b5f52601260045260245ffd5b505f90565b8454835260019485019486945060209093019201615426565b156154ae57565b60405162461bcd60e51b81526020600482015260176024820152764a6f62206d75737420626520696e2070726f677265737360481b6044820152606490fd5b60118152706c6f636b4e6578744d696c6573746f6e6560781b602082015260400190565b60078152663837b9ba2537b160c91b602082015260400190565b1561553257565b60405162461bcd60e51b815260206004820152601e60248201527f506f7274666f6c696f20686173682063616e6e6f7420626520656d70747900006044820152606490fd5b600c81526b616464506f7274666f6c696f60a01b602082015260400190565b1561559d57565b60405162461bcd60e51b8152602060048201526011602482015270139bc81c185e5b595b9d081b1bd8dad959607a1b6044820152606490fd5b60188152773932b632b0b9b2a830bcb6b2b73a21b937b9b9a1b430b4b760411b602082015260400190565b1561560857565b60405162461bcd60e51b815260206004820152601d60248201527f506f7274666f6c696f20696e646578206f7574206f6620626f756e64730000006044820152606490fd5b6013815272757064617465506f7274666f6c696f4974656d60681b602082015260400190565b6001600160a01b031680156156be575f516020615c2a5f395f51905f5280546001600160a01b0319811683179091556001600160a01b03165f516020615cea5f395f51905f525f80a3565b631e4fbdf760e01b5f525f60045260245ffd5b601381527272656d6f7665506f7274666f6c696f4974656d60681b602082015260400190565b60025f516020615d4a5f395f51905f5254146157205760025f516020615d4a5f395f51905f5255565b633ee5aeb560e01b5f5260045ffd5b5f908072184f03e93ff9f4daa797ed6e38ed64bf6a1f0160401b811015615879575b600a906904ee2d6d415b85acef8160201b81101561585d575b662386f26fc10000811015615849575b6305f5e100811015615838575b612710811015615829575b606481101561581b575b1015615810575b600a602160018401936157b5856148db565b946157c360405196876148b8565b8086526157d2601f19916148db565b013660208701378401015b5f1901916f181899199a1a9b1b9c1cb0b131b232b360811b8282061a835304801561580b57600a90916157dd565b505090565b6001909101906157a3565b60646002910493019261579c565b61271060049104930192615792565b6305f5e10060089104930192615787565b662386f26fc100006010910493019261577a565b602093909301926904ee2d6d415b85acef8160201b900461576a565b506040915072184f03e93ff9f4daa797ed6e38ed64bf6a1f0160401b8104615751565b90816020910312614785575180151581036147855790565b6001600160a01b039091168152602081019190915260400190565b3d156158f9573d906158e0826148db565b916158ee60405193846148b8565b82523d5f602084013e565b606090565b600c546001600160a01b031615615aa757600a546040516323b872dd60e01b602082015233602482015230604482015260648082018590528152615950916001600160a01b03166110da6084836148b8565b600a54600c5460405163095ea7b360e01b81529160209183916001600160a01b039081169183915f91839161598b918b9116600484016158b4565b03925af1801561477a57615a7a575b50600d54600c5460405163269258dd60e01b6020820190815260248201869052600360448301526001600160a01b0393841660648301526103e860848084019190915282525f938493169183906159f260a4826148b8565b51925af16159fe6158cf565b5015615a3b57615a0d90615056565b6040519182527f22f34457537e11fadd17cb52d1dbfbbc88b5d212fb353a45b3af2f33d29b739560203393a3565b60405162461bcd60e51b815260206004820152601760248201527610d0d514081cd95b99195c8818d85b1b0819985a5b1959604a1b6044820152606490fd5b615a9b9060203d602011615aa0575b615a9381836148b8565b81019061589c565b61599a565b503d615a89565b60405162461bcd60e51b815260206004820152601360248201527210d0d514081cd95b99195c881b9bdd081cd95d606a1b6044820152606490fd5b5f516020615c2a5f395f51905f52546001600160a01b03163303615b0257565b63118cdaa760e01b5f523360045260245ffd5b60ff5f516020615d6a5f395f51905f525460401c1615615b3157565b631afcd79f60e31b5f5260045ffd5b5f80615b689260018060a01b03169360208151910182865af1615b616158cf565b9083615bab565b8051908115159182615b90575b5050615b7e5750565b635274afe760e01b5f5260045260245ffd5b615ba3925060208091830101910161589c565b155f80615b75565b90615bcf5750805115615bc057805190602001fd5b630a12f52160e11b5f5260045ffd5b81511580615c00575b615be0575090565b639996b31560e01b5f9081526001600160a01b0391909116600452602490fd5b50803b15615bd856fee9504a94451f4126ae0c712985621221e857e1235516c8c6fd40d7a24bd6a01a9016d09d72d40fdae2fd8ceac6b6234c7706214fd39c1cd1e609a0528c19930090048e2f7021decb3bccdc9c96fb747f7c82ca94b921ff7c7cc130daa897a6ddbeb163b9824b55e200a056e0082832866e8d8f931ba431b29b8919466a05faa5264fe7e90ee05d618ec81396b56ead08e622a37d2696239d6029610e48c3a86e360894a13ba1a3210667c828492db98dca3e2076cc3735a920a3ca505d382bbcc7649f14606d56993fd676bf6b21baf658647cc2921deec0cde7a0f2f8031c8d8be0079c531659141344cd1fd0a4f28419497f9722a3daafe3b4186f6b6457e0bc7cd75a20ee27fd9adebab32041f755214dbc6bffa90cc0225b39da2e5c2d3b6469726563742d636f6e74726163742d6175746f2d6170706c69636174696f6e9b779b17422d0df92223018b32b4d1fa46e071723d6817e2486d003becc55f00f0c57e16840df040f15088dc2f81fe391c3923bec73e23a9662efc9c229c6a00a264697066735822122034f397faa66d7a7d29c9ac09030c3aa6ee6d47a9cc56c911656e39a7bf4694ed64736f6c63430008210033f0c57e16840df040f15088dc2f81fe391c3923bec73e23a9662efc9c229c6a00","linkReferences":{}},"methodIdentifiers":{"UPGRADE_INTERFACE_VERSION()":"ad3cb1cc","addPortfolio(string,bytes)":"ecc5cc8d","applyToJob(string,string,string[],uint256[],uint32,bytes)":"8000c5a4","athenaClientContract()":"a53ae226","bridge()":"e78cea92","cctpMintRecipient()":"e612e809","cctpSender()":"739f834d","chainId()":"9a8a0592","createProfile(string,address,bytes)":"7c2f2c7e","emergencyWithdrawUSDT()":"d4daf736","getApplication(string,uint256)":"59e774a4","getEscrowBalance(string)":"11b5a16d","getJob(string)":"77e32407","getJobApplicationCount(string)":"eb7d901b","getJobCount()":"b02b4a2f","getJobStatus(string)":"8c1e161f","getProfile(address)":"0f53a470","getRating(address)":"80fc9c0e","getTotalPlatformPayments()":"3a028980","hasProfile(address)":"a787c80b","initialize(address,address,uint32,address,address)":"d37ff494","isJobOpen(string)":"b58766ba","jobApplicationCounter(string)":"f4653c0b","jobApplications(string,uint256)":"9000a87f","jobCounter()":"50355d76","jobRatings(string,address)":"a8efdfe8","jobs(string)":"b05e6f5a","lockNextMilestone(string,bytes)":"83a7080f","owner()":"8da5cb5b","postJob(string,string[],uint256[],bytes)":"d3988d47","profiles(address)":"bbe15627","proxiableUUID()":"52d1902d","rate(string,address,uint256,bytes)":"31064675","releaseAndLockNext(string,bytes)":"f71fe487","releasePaymentCrossChain(string,uint32,address,bytes)":"f0e71ef8","removePortfolioItem(uint256,bytes)":"faa9834b","renounceOwnership()":"715018a6","resolveDispute(string,bool)":"ce422626","setAthenaClientContract(address)":"ddd794c6","setBridge(address)":"8dd14802","setCCTPMintRecipient(address)":"10c2fc0e","setCCTPSender(address)":"40fa717d","setUSDTToken(address)":"66e226bd","startDirectContract(address,string,string[],uint256[],uint32,bytes)":"03edef0e","startJob(string,uint256,bool,bytes)":"3d91c113","submitWork(string,string,bytes)":"5b72bf49","totalPlatformPayments()":"06d1ab4b","transferOwnership(address)":"f2fde38b","updateLocalPlatformTotal(uint256)":"8c865b21","updatePortfolioItem(uint256,string,bytes)":"f2c919f2","updateProfile(string,bytes)":"6eeb9b10","upgradeFromDAO(address)":"40634e3b","upgradeToAndCall(address,bytes)":"4f1ef286","usdtToken()":"a98ad46c","userRatings(address,uint256)":"be001f6f","withdraw()":"3ccfd60b"},"id":79}