{"abi":[{"type":"constructor","inputs":[],"stateMutability":"nonpayable"},{"type":"function","name":"UPGRADE_INTERFACE_VERSION","inputs":[],"outputs":[{"name":"","type":"string","internalType":"string"}],"stateMutability":"view"},{"type":"function","name":"addPortfolio","inputs":[{"name":"user","type":"address","internalType":"address"},{"name":"portfolioHash","type":"string","internalType":"string"}],"outputs":[],"stateMutability":"nonpayable"},{"type":"function","name":"authorizeContract","inputs":[{"name":"_contract","type":"address","internalType":"address"},{"name":"_authorized","type":"bool","internalType":"bool"}],"outputs":[],"stateMutability":"nonpayable"},{"type":"function","name":"authorizedContracts","inputs":[{"name":"","type":"address","internalType":"address"}],"outputs":[{"name":"","type":"bool","internalType":"bool"}],"stateMutability":"view"},{"type":"function","name":"getAllProfileAddresses","inputs":[],"outputs":[{"name":"","type":"address[]","internalType":"address[]"}],"stateMutability":"view"},{"type":"function","name":"getJobRating","inputs":[{"name":"jobId","type":"string","internalType":"string"},{"name":"user","type":"address","internalType":"address"}],"outputs":[{"name":"","type":"uint256","internalType":"uint256"}],"stateMutability":"view"},{"type":"function","name":"getProfile","inputs":[{"name":"user","type":"address","internalType":"address"}],"outputs":[{"name":"","type":"tuple","internalType":"struct ProfileGenesis.Profile","components":[{"name":"userAddress","type":"address","internalType":"address"},{"name":"ipfsHash","type":"string","internalType":"string"},{"name":"referrerAddress","type":"address","internalType":"address"},{"name":"portfolioHashes","type":"string[]","internalType":"string[]"}]}],"stateMutability":"view"},{"type":"function","name":"getProfileAddressesBatch","inputs":[{"name":"startIndex","type":"uint256","internalType":"uint256"},{"name":"count","type":"uint256","internalType":"uint256"}],"outputs":[{"name":"addresses","type":"address[]","internalType":"address[]"}],"stateMutability":"view"},{"type":"function","name":"getProfileCount","inputs":[],"outputs":[{"name":"","type":"uint256","internalType":"uint256"}],"stateMutability":"view"},{"type":"function","name":"getUserRatings","inputs":[{"name":"user","type":"address","internalType":"address"}],"outputs":[{"name":"","type":"uint256[]","internalType":"uint256[]"}],"stateMutability":"view"},{"type":"function","name":"getUserReferrer","inputs":[{"name":"user","type":"address","internalType":"address"}],"outputs":[{"name":"","type":"address","internalType":"address"}],"stateMutability":"view"},{"type":"function","name":"hasProfile","inputs":[{"name":"","type":"address","internalType":"address"}],"outputs":[{"name":"","type":"bool","internalType":"bool"}],"stateMutability":"view"},{"type":"function","name":"initialize","inputs":[{"name":"_owner","type":"address","internalType":"address"}],"outputs":[],"stateMutability":"nonpayable"},{"type":"function","name":"jobRatings","inputs":[{"name":"","type":"string","internalType":"string"},{"name":"","type":"address","internalType":"address"}],"outputs":[{"name":"","type":"uint256","internalType":"uint256"}],"stateMutability":"view"},{"type":"function","name":"owner","inputs":[],"outputs":[{"name":"","type":"address","internalType":"address"}],"stateMutability":"view"},{"type":"function","name":"profiles","inputs":[{"name":"","type":"address","internalType":"address"}],"outputs":[{"name":"userAddress","type":"address","internalType":"address"},{"name":"ipfsHash","type":"string","internalType":"string"},{"name":"referrerAddress","type":"address","internalType":"address"}],"stateMutability":"view"},{"type":"function","name":"proxiableUUID","inputs":[],"outputs":[{"name":"","type":"bytes32","internalType":"bytes32"}],"stateMutability":"view"},{"type":"function","name":"removePortfolioItem","inputs":[{"name":"user","type":"address","internalType":"address"},{"name":"index","type":"uint256","internalType":"uint256"}],"outputs":[],"stateMutability":"nonpayable"},{"type":"function","name":"setJobRating","inputs":[{"name":"jobId","type":"string","internalType":"string"},{"name":"user","type":"address","internalType":"address"},{"name":"rating","type":"uint256","internalType":"uint256"}],"outputs":[],"stateMutability":"nonpayable"},{"type":"function","name":"setProfile","inputs":[{"name":"user","type":"address","internalType":"address"},{"name":"ipfsHash","type":"string","internalType":"string"},{"name":"referrer","type":"address","internalType":"address"}],"outputs":[],"stateMutability":"nonpayable"},{"type":"function","name":"transferOwnership","inputs":[{"name":"newOwner","type":"address","internalType":"address"}],"outputs":[],"stateMutability":"nonpayable"},{"type":"function","name":"updatePortfolioItem","inputs":[{"name":"user","type":"address","internalType":"address"},{"name":"index","type":"uint256","internalType":"uint256"},{"name":"newPortfolioHash","type":"string","internalType":"string"}],"outputs":[],"stateMutability":"nonpayable"},{"type":"function","name":"updateProfileIpfsHash","inputs":[{"name":"user","type":"address","internalType":"address"},{"name":"newIpfsHash","type":"string","internalType":"string"}],"outputs":[],"stateMutability":"nonpayable"},{"type":"function","name":"upgradeToAndCall","inputs":[{"name":"newImplementation","type":"address","internalType":"address"},{"name":"data","type":"bytes","internalType":"bytes"}],"outputs":[],"stateMutability":"payable"},{"type":"function","name":"userRatings","inputs":[{"name":"","type":"address","internalType":"address"},{"name":"","type":"uint256","internalType":"uint256"}],"outputs":[{"name":"","type":"uint256","internalType":"uint256"}],"stateMutability":"view"},{"type":"function","name":"userReferrers","inputs":[{"name":"","type":"address","internalType":"address"}],"outputs":[{"name":"","type":"address","internalType":"address"}],"stateMutability":"view"},{"type":"event","name":"ContractAuthorized","inputs":[{"name":"contractAddress","type":"address","indexed":true,"internalType":"address"},{"name":"authorized","type":"bool","indexed":false,"internalType":"bool"}],"anonymous":false},{"type":"event","name":"Initialized","inputs":[{"name":"version","type":"uint64","indexed":false,"internalType":"uint64"}],"anonymous":false},{"type":"event","name":"OwnershipTransferred","inputs":[{"name":"previousOwner","type":"address","indexed":true,"internalType":"address"},{"name":"newOwner","type":"address","indexed":true,"internalType":"address"}],"anonymous":false},{"type":"event","name":"PortfolioItemRemoved","inputs":[{"name":"user","type":"address","indexed":true,"internalType":"address"},{"name":"index","type":"uint256","indexed":false,"internalType":"uint256"}],"anonymous":false},{"type":"event","name":"PortfolioItemUpdated","inputs":[{"name":"user","type":"address","indexed":true,"internalType":"address"},{"name":"index","type":"uint256","indexed":false,"internalType":"uint256"},{"name":"newPortfolioHash","type":"string","indexed":false,"internalType":"string"}],"anonymous":false},{"type":"event","name":"ProfileUpdated","inputs":[{"name":"user","type":"address","indexed":true,"internalType":"address"},{"name":"newIpfsHash","type":"string","indexed":false,"internalType":"string"}],"anonymous":false},{"type":"event","name":"Upgraded","inputs":[{"name":"implementation","type":"address","indexed":true,"internalType":"address"}],"anonymous":false},{"type":"error","name":"AddressEmptyCode","inputs":[{"name":"target","type":"address","internalType":"address"}]},{"type":"error","name":"ERC1967InvalidImplementation","inputs":[{"name":"implementation","type":"address","internalType":"address"}]},{"type":"error","name":"ERC1967NonPayable","inputs":[]},{"type":"error","name":"FailedInnerCall","inputs":[]},{"type":"error","name":"InvalidInitialization","inputs":[]},{"type":"error","name":"NotInitializing","inputs":[]},{"type":"error","name":"UUPSUnauthorizedCallContext","inputs":[]},{"type":"error","name":"UUPSUnsupportedProxiableUUID","inputs":[{"name":"slot","type":"bytes32","internalType":"bytes32"}]}],"bytecode":{"object":"0x60a080604052346100c257306080525f516020611c035f395f51905f525460ff8160401c166100b3576002600160401b03196001600160401b03821601610060575b604051611b3c90816100c78239608051818181610ef40152610f960152f35b6001600160401b0319166001600160401b039081175f516020611c035f395f51905f525581527fc7f505b2f371ae2175ee4913f4499e1f2633a7b5936321eed1cdaeb6115181d290602090a15f80610041565b63f92ee8a960e01b5f5260045ffd5b5f80fdfe60806040526004361015610011575f80fd5b5f3560e01c806306fb531a146113ab5780630f53a4701461120f5780632c317eb21461117957806336144c9a1461087c5780633697611a1461115c5780634f1ef28614610f4857806352d1902d14610ee257806358596a0814610dc85780635cbeb13f14610d3f5780636402191814610a7857806366822da9146109ef5780637c83b0aa146108e45780638da5cb5b146108bc5780638f63489d1461087c578063951d7f9a146107f7578063a787c80b1461083f578063a8efdfe8146107f7578063ad3cb1cc146107ac578063bbe1562714610732578063be001f6f146106da578063c4d66de814610572578063ce409985146104b9578063d5b9221b1461047d578063efe24b8d1461029b578063f2fde38b146101ef5763f50336f914610137575f80fd5b346101eb5760203660031901126101eb576001600160a01b0361015861153b565b165f52600660205260405f20604051806020835491828152019081935f5260205f20905f5b8181106101d557505050816101939103826114a9565b604051918291602083019060208452518091526040830191905f5b8181106101bc575050500390f35b82518452859450602093840193909201916001016101ae565b825484526020909301926001928301920161017d565b5f80fd5b346101eb5760203660031901126101eb5761020861153b565b600154906001600160a01b03821690610222338314611910565b6001600160a01b0316918215610267576001600160a01b03191682176001557f8be0079c531659141344cd1fd0a4f28419497f9722a3daafe3b4186f6b6457e05f80a3005b60405162461bcd60e51b815260206004820152600c60248201526b5a65726f206164647265737360a01b6044820152606490fd5b346101eb5760403660031901126101eb576102b461153b565b60243590335f525f60205260ff60405f2054168015610469575b6102d79061173c565b60018060a01b031690815f5260036020526102f860ff60405f205416611790565b815f526002602052610312600360405f2001548210611948565b815f526002602052600360405f2001545f1981019081116104555780820361040e575b50815f526002602052600360405f200190815480156103fa575f19019061035c8284611727565b9290926103e7577f71896b71d4d23246e9605b719083d8266614b1316d706a9fff17e4d4e9857c7a938361039260209554611637565b90816103a5575b505055604051908152a2005b81601f5f93116001146103bc5750555b8680610399565b8183528683206103d891601f0160051c841901906001016117d5565b808252818681209155556103b5565b634e487b7160e01b5f525f60045260245ffd5b634e487b7160e01b5f52603160045260245ffd5b61042690835f526002602052600360405f2001611727565b50825f52600260205261043f82600360405f2001611727565b9190916103e75761044f91611994565b82610335565b634e487b7160e01b5f52601160045260245ffd5b506001546001600160a01b031633146102ce565b346101eb5760203660031901126101eb576001600160a01b0361049e61153b565b165f525f602052602060ff60405f2054166040519015158152f35b346101eb576105597fdd635a4cd84864e37e4479dbfc2ec667acfa473c83c8422a8ac9d9d07599b01c6104eb36611575565b9290335f525f60205260ff60405f205416801561055e575b61050c9061173c565b60018060a01b031692835f52600360205261052d60ff60405f205416611790565b835f52600260205261054581600160405f200161183d565b604051918291602083526020830190611551565b0390a2005b506001546001600160a01b03163314610503565b346101eb5760203660031901126101eb5761058b61153b565b5f516020611ae75f395f51905f5254604081901c60ff1615906001600160401b038116801590816106d2575b60011490816106c8575b1590816106bf575b506106b0576001600160401b031981166001175f516020611ae75f395f51905f525581610688575b505f516020611ae75f395f51905f52549160ff8360401c161561067957600180546001600160a01b0319166001600160a01b039290921691909117905561063457005b60ff60401b19165f516020611ae75f395f51905f5255604051600181527fc7f505b2f371ae2175ee4913f4499e1f2633a7b5936321eed1cdaeb6115181d290602090a1005b631afcd79f60e31b5f5260045ffd5b6001600160481b0319166001600160401b01175f516020611ae75f395f51905f5255826105f1565b63f92ee8a960e01b5f5260045ffd5b905015846105c9565b303b1591506105c1565b8391506105b7565b346101eb5760403660031901126101eb576106f361153b565b6001600160a01b03165f908152600660205260409020805460243591908210156101eb5760209161072391611727565b90549060031b1c604051908152f35b346101eb5760203660031901126101eb576001600160a01b0361075361153b565b165f90815260026020526040902080546001600160a01b03166107786001830161166f565b91600260018060a01b03910154166107a26040519384938452606060208501526060840190611551565b9060408301520390f35b346101eb575f3660031901126101eb576107f36040516107cd6040826114a9565b60058152640352e302e360dc1b6020820152604051918291602083526020830190611551565b0390f35b346101eb57602080610808366115f6565b9290604051928184925191829101835e810160058152030190209060018060a01b03165f52602052602060405f2054604051908152f35b346101eb5760203660031901126101eb576001600160a01b0361086061153b565b165f526003602052602060ff60405f2054166040519015158152f35b346101eb5760203660031901126101eb576001600160a01b0361089d61153b565b165f526004602052602060018060a01b0360405f205416604051908152f35b346101eb575f3660031901126101eb576001546040516001600160a01b039091168152602090f35b346101eb5760603660031901126101eb576108fd61153b565b60243590604435906001600160401b0382116101eb576109427fc39f56c165e6e8a9ac36c2adf54383775830c65cc8239fb382b4baf459233ab792369060040161151d565b90335f525f60205260ff60405f20541680156109db575b6109629061173c565b60018060a01b031692835f52600360205261098360ff60405f205416611790565b835f52600260205261099d600360405f2001548210611948565b835f5260026020526109bf826109b983600360405f2001611727565b90611901565b6105596040519283928352604060208401526040830190611551565b506001546001600160a01b03163314610959565b346101eb575f3660031901126101eb57604051600780548083525f91825260208301917fa66cc928b5edb82af9bd49922954155ab7b0942694bea4ce44661d9a8736c68891905b818110610a59576107f385610a4d818703826114a9565b604051918291826115b4565b82546001600160a01b0316845260209093019260019283019201610a36565b346101eb5760603660031901126101eb57610a9161153b565b6024356001600160401b0381116101eb57610ab090369060040161151d565b6044356001600160a01b03811692908390036101eb57335f525f60205260ff60405f2054168015610d2b575b610ae59061173c565b6001600160a01b03165f8181526003602052604090205490919060ff1615610cca575b602090600360405191610b1b84846114a9565b5f835260405190610b2b8261148e565b8582528482019081526040808301888152606084019586525f8881526002885291909120925183546001600160a01b0319166001600160a01b03919091161783559051610b7b906001840161183d565b516002820180546001600160a01b0319166001600160a01b039290921691909117905591518051929190910190600160401b8311610cb65783908254848455808510610c32575b5001905f52825f20835f925b848410610c1457878783815f526003815260405f20600160ff1982541617905582610bf557005b5f918252600490526040902080546001600160a01b0319169091179055005b60019181610c248493518661183d565b019201920191908490610bce565b835f528480845f20019103905f5b828110610c4e575050610bc2565b81929394508060019201610c628154611637565b9081610c76575b5050019086939291610c40565b81601f5f93118514610c8c5750555b8a80610c69565b8183528a8320610ca791601f0160051c8419019086016117d5565b808252818a8120915555610c85565b634e487b7160e01b5f52604160045260245ffd5b600754600160401b811015610cb657806001610ce9920160075561170f565b81546001600160a01b0360039290921b91821b19169084901b1790556009545f8381526008602052604090208190555f19811461045557600101600955610b08565b506001546001600160a01b03163314610adc565b346101eb5760403660031901126101eb57610d5861153b565b602435908115158092036101eb5760207f3213ab8ec2ed122402f038736b41878b69ae9f61f49a7edd0666bce891d29fc991610d9f60018060a01b03600154163314611910565b60018060a01b031692835f525f825260405f2060ff1981541660ff8316179055604051908152a2005b346101eb5760403660031901126101eb576004356024356009549081831015610ea1578282039182116104555781811115610e9a57505b610e0881611779565b91610e1660405193846114a9565b818352601f19610e2583611779565b013660208501375f5b828110610e4357604051806107f386826115b4565b80820180831161045557610e569061170f565b9054855160039290921b1c6001600160a01b03169190811015610e865760019160208260051b8701015201610e2e565b634e487b7160e01b5f52603260045260245ffd5b9050610dff565b60405162461bcd60e51b8152602060048201526019602482015278537461727420696e646578206f7574206f6620626f756e647360381b6044820152606490fd5b346101eb575f3660031901126101eb577f00000000000000000000000000000000000000000000000000000000000000006001600160a01b03163003610f395760206040515f516020611ac75f395f51905f528152f35b63703e46dd60e11b5f5260045ffd5b60403660031901126101eb57610f5c61153b565b6024356001600160401b0381116101eb57366023820112156101eb57610f8c9036906024816004013591016114e7565b6001600160a01b037f00000000000000000000000000000000000000000000000000000000000000001630811490811561113a575b50610f3957610fdb60018060a01b03600154163314611910565b6040516352d1902d60e01b81526001600160a01b0383169290602081600481875afa5f9181611106575b5061101d5783634c9c8ce360e01b5f5260045260245ffd5b805f516020611ac75f395f51905f528592036110f45750813b156110e2575f516020611ac75f395f51905f5280546001600160a01b031916821790557fbc7cd75a20ee27fd9adebab32041f755214dbc6bffa90cc0225b39da2e5c2d3b5f80a28151156110ca575f808360206110c095519101845af43d156110c2573d916110a4836114cc565b926110b260405194856114a9565b83523d5f602085013e611a68565b005b606091611a68565b5050346110d357005b63b398979f60e01b5f5260045ffd5b634c9c8ce360e01b5f5260045260245ffd5b632a87526960e21b5f5260045260245ffd5b9091506020813d602011611132575b81611122602093836114a9565b810103126101eb57519085611005565b3d9150611115565b5f516020611ac75f395f51905f52546001600160a01b03161415905083610fc1565b346101eb575f3660031901126101eb576020600954604051908152f35b346101eb5761118736611575565b90335f525f60205260ff60405f20541680156111fb575b6111a79061173c565b6001600160a01b03165f818152600360205260409020546111ca9060ff16611790565b5f526002602052600360405f200190815491600160401b831015610cb657826109b99160016110c095018155611727565b506001546001600160a01b0316331461119e565b346101eb5760203660031901126101eb5761122861153b565b6060806040516112378161148e565b5f81528160208201525f6040820152015260018060a01b03165f52600260205260405f206040516112678161148e565b81546001600160a01b031681526112806001830161166f565b6020820190815260028301546001600160a01b031660408301908152600390930180549193916112af81611779565b916112bd60405193846114a9565b81835260208301905f5260205f205f915b83831061138457505050506060830190815261130e6040519485946020865260018060a01b039051166020860152516080604086015260a0850190611551565b91516001600160a01b0316606084015251601f1983830301608084015280518083526020600582901b8401810193928101925f918101905b8383106113535786860387f35b919395509193602080611372600193601f198682030187528951611551565b97019301930190928695949293611346565b600160208192611398859b98999a9b61166f565b81520192019201919096959493966112ce565b346101eb5760603660031901126101eb576004356001600160401b0381116101eb576113db90369060040161151d565b6024356001600160a01b038116908190036101eb5760208060443593335f525f825260ff60405f205416801561147a575b6114159061173c565b604051928184925191829101835e81016005815203019020815f526020528160405f20555f52600660205260405f208054600160401b811015610cb65761146191600182018155611727565b819291549060031b91821b915f19901b19161790555f80f35b506001546001600160a01b0316331461140c565b608081019081106001600160401b03821117610cb657604052565b601f909101601f19168101906001600160401b03821190821017610cb657604052565b6001600160401b038111610cb657601f01601f191660200190565b9291926114f3826114cc565b9161150160405193846114a9565b8294818452818301116101eb578281602093845f960137010152565b9080601f830112156101eb57816020611538933591016114e7565b90565b600435906001600160a01b03821682036101eb57565b805180835260209291819084018484015e5f828201840152601f01601f1916010190565b9060406003198301126101eb576004356001600160a01b03811681036101eb5791602435906001600160401b0382116101eb576115389160040161151d565b60206040818301928281528451809452019201905f5b8181106115d75750505090565b82516001600160a01b03168452602093840193909201916001016115ca565b60406003198201126101eb57600435906001600160401b0382116101eb576116209160040161151d565b906024356001600160a01b03811681036101eb5790565b90600182811c92168015611665575b602083101461165157565b634e487b7160e01b5f52602260045260245ffd5b91607f1691611646565b9060405191825f82549261168284611637565b80845293600181169081156116ed57506001146116a9575b506116a7925003836114a9565b565b90505f9291925260205f20905f915b8183106116d15750509060206116a7928201015f61169a565b60209193508060019154838589010152019101909184926116b8565b9050602092506116a794915060ff191682840152151560051b8201015f61169a565b600754811015610e865760075f5260205f2001905f90565b8054821015610e86575f5260205f2001905f90565b1561174357565b60405162461bcd60e51b815260206004820152600e60248201526d139bdd08185d5d1a1bdc9a5e995960921b6044820152606490fd5b6001600160401b038111610cb65760051b60200190565b1561179757565b60405162461bcd60e51b8152602060048201526016602482015275141c9bd99a5b1948191bd95cc81b9bdd08195e1a5cdd60521b6044820152606490fd5b5f5b8281106117e357505050565b5f828201556001016117d7565b91601f82116117fe57505050565b80821161180a57505050565b6116a7925f5260205f20916020601f830160051c9210611835575b601f82910160051c0391016117d5565b5f9150611825565b81519192916001600160401b038111610cb6576118648161185e8454611637565b846117f0565b6020601f82116001146118a35781906118949394955f92611898575b50508160011b915f199060031b1c19161790565b9055565b015190505f80611880565b601f19821690835f52805f20915f5b8181106118e9575095836001959697106118d1575b505050811b019055565b01515f1960f88460031b161c191690555f80806118c7565b9192602060018192868b0151815501940192016118b2565b91906103e7576116a79161183d565b1561191757565b60405162461bcd60e51b81526020600482015260096024820152682737ba1037bbb732b960b91b6044820152606490fd5b1561194f57565b60405162461bcd60e51b815260206004820152601d60248201527f506f7274666f6c696f20696e646578206f7574206f6620626f756e64730000006044820152606490fd5b919091828114611a63576119a88354611637565b6001600160401b038111610cb6576119c48161185e8454611637565b5f93601f82116001146119fe5761189492939482915f926119f35750508160011b915f199060031b1c19161790565b015490505f80611880565b601f198216905f5260205f2094835f5260205f20915f5b818110611a4b57509583600195969710611a3357505050811b019055565b01545f1960f88460031b161c191690555f80806118c7565b9192600180602092868b015481550194019201611a15565b509050565b90611a8c5750805115611a7d57805190602001fd5b630a12f52160e11b5f5260045ffd5b81511580611abd575b611a9d575090565b639996b31560e01b5f9081526001600160a01b0391909116600452602490fd5b50803b15611a9556fe360894a13ba1a3210667c828492db98dca3e2076cc3735a920a3ca505d382bbcf0c57e16840df040f15088dc2f81fe391c3923bec73e23a9662efc9c229c6a00a26469706673582212204e9300549d2968187a4ce3712e0b6e7ece166a30ed169c7fd0df2a707ac24f4864736f6c63430008210033f0c57e16840df040f15088dc2f81fe391c3923bec73e23a9662efc9c229c6a00","linkReferences":{}},"methodIdentifiers":{"UPGRADE_INTERFACE_VERSION()":"ad3cb1cc","addPortfolio(address,string)":"2c317eb2","authorizeContract(address,bool)":"5cbeb13f","authorizedContracts(address)":"d5b9221b","getAllProfileAddresses()":"66822da9","getJobRating(string,address)":"951d7f9a","getProfile(address)":"0f53a470","getProfileAddressesBatch(uint256,uint256)":"58596a08","getProfileCount()":"3697611a","getUserRatings(address)":"f50336f9","getUserReferrer(address)":"36144c9a","hasProfile(address)":"a787c80b","initialize(address)":"c4d66de8","jobRatings(string,address)":"a8efdfe8","owner()":"8da5cb5b","profiles(address)":"bbe15627","proxiableUUID()":"52d1902d","removePortfolioItem(address,uint256)":"efe24b8d","setJobRating(string,address,uint256)":"06fb531a","setProfile(address,string,address)":"64021918","transferOwnership(address)":"f2fde38b","updatePortfolioItem(address,uint256,string)":"7c83b0aa","updateProfileIpfsHash(address,string)":"ce409985","upgradeToAndCall(address,bytes)":"4f1ef286","userRatings(address,uint256)":"be001f6f","userReferrers(address)":"8f63489d"},"id":90}