{"abi":[{"type":"constructor","inputs":[],"stateMutability":"nonpayable"},{"type":"receive","stateMutability":"payable"},{"type":"function","name":"BALLOT_TYPEHASH","inputs":[],"outputs":[{"name":"","type":"bytes32","internalType":"bytes32"}],"stateMutability":"view"},{"type":"function","name":"CLOCK_MODE","inputs":[],"outputs":[{"name":"","type":"string","internalType":"string"}],"stateMutability":"pure"},{"type":"function","name":"COUNTING_MODE","inputs":[],"outputs":[{"name":"","type":"string","internalType":"string"}],"stateMutability":"pure"},{"type":"function","name":"EXTENDED_BALLOT_TYPEHASH","inputs":[],"outputs":[{"name":"","type":"bytes32","internalType":"bytes32"}],"stateMutability":"view"},{"type":"function","name":"MIN_STAKE","inputs":[],"outputs":[{"name":"","type":"uint256","internalType":"uint256"}],"stateMutability":"view"},{"type":"function","name":"UPGRADE_INTERFACE_VERSION","inputs":[],"outputs":[{"name":"","type":"string","internalType":"string"}],"stateMutability":"view"},{"type":"function","name":"allStakers","inputs":[{"name":"","type":"uint256","internalType":"uint256"}],"outputs":[{"name":"","type":"address","internalType":"address"}],"stateMutability":"view"},{"type":"function","name":"bridge","inputs":[],"outputs":[{"name":"","type":"address","internalType":"contract IThirdChainBridge"}],"stateMutability":"view"},{"type":"function","name":"cancel","inputs":[{"name":"targets","type":"address[]","internalType":"address[]"},{"name":"values","type":"uint256[]","internalType":"uint256[]"},{"name":"calldatas","type":"bytes[]","internalType":"bytes[]"},{"name":"descriptionHash","type":"bytes32","internalType":"bytes32"}],"outputs":[{"name":"","type":"uint256","internalType":"uint256"}],"stateMutability":"nonpayable"},{"type":"function","name":"castVote","inputs":[{"name":"proposalId","type":"uint256","internalType":"uint256"},{"name":"support","type":"uint8","internalType":"uint8"}],"outputs":[{"name":"","type":"uint256","internalType":"uint256"}],"stateMutability":"nonpayable"},{"type":"function","name":"castVote","inputs":[{"name":"proposalId","type":"uint256","internalType":"uint256"},{"name":"support","type":"uint8","internalType":"uint8"},{"name":"_options","type":"bytes","internalType":"bytes"}],"outputs":[{"name":"","type":"uint256","internalType":"uint256"}],"stateMutability":"payable"},{"type":"function","name":"castVoteBySig","inputs":[{"name":"proposalId","type":"uint256","internalType":"uint256"},{"name":"support","type":"uint8","internalType":"uint8"},{"name":"voter","type":"address","internalType":"address"},{"name":"signature","type":"bytes","internalType":"bytes"}],"outputs":[{"name":"","type":"uint256","internalType":"uint256"}],"stateMutability":"nonpayable"},{"type":"function","name":"castVoteWithReason","inputs":[{"name":"proposalId","type":"uint256","internalType":"uint256"},{"name":"support","type":"uint8","internalType":"uint8"},{"name":"reason","type":"string","internalType":"string"}],"outputs":[{"name":"","type":"uint256","internalType":"uint256"}],"stateMutability":"nonpayable"},{"type":"function","name":"castVoteWithReasonAndParams","inputs":[{"name":"proposalId","type":"uint256","internalType":"uint256"},{"name":"support","type":"uint8","internalType":"uint8"},{"name":"reason","type":"string","internalType":"string"},{"name":"params","type":"bytes","internalType":"bytes"}],"outputs":[{"name":"","type":"uint256","internalType":"uint256"}],"stateMutability":"nonpayable"},{"type":"function","name":"castVoteWithReasonAndParamsBySig","inputs":[{"name":"proposalId","type":"uint256","internalType":"uint256"},{"name":"support","type":"uint8","internalType":"uint8"},{"name":"voter","type":"address","internalType":"address"},{"name":"reason","type":"string","internalType":"string"},{"name":"params","type":"bytes","internalType":"bytes"},{"name":"signature","type":"bytes","internalType":"bytes"}],"outputs":[{"name":"","type":"uint256","internalType":"uint256"}],"stateMutability":"nonpayable"},{"type":"function","name":"chainId","inputs":[],"outputs":[{"name":"","type":"uint32","internalType":"uint32"}],"stateMutability":"view"},{"type":"function","name":"clock","inputs":[],"outputs":[{"name":"","type":"uint48","internalType":"uint48"}],"stateMutability":"view"},{"type":"function","name":"delegate","inputs":[{"name":"delegatee","type":"address","internalType":"address"}],"outputs":[],"stateMutability":"nonpayable"},{"type":"function","name":"delegatedVotingPower","inputs":[{"name":"","type":"address","internalType":"address"}],"outputs":[{"name":"","type":"uint256","internalType":"uint256"}],"stateMutability":"view"},{"type":"function","name":"delegates","inputs":[{"name":"","type":"address","internalType":"address"}],"outputs":[{"name":"","type":"address","internalType":"address"}],"stateMutability":"view"},{"type":"function","name":"eip712Domain","inputs":[],"outputs":[{"name":"fields","type":"bytes1","internalType":"bytes1"},{"name":"name","type":"string","internalType":"string"},{"name":"version","type":"string","internalType":"string"},{"name":"chainId","type":"uint256","internalType":"uint256"},{"name":"verifyingContract","type":"address","internalType":"address"},{"name":"salt","type":"bytes32","internalType":"bytes32"},{"name":"extensions","type":"uint256[]","internalType":"uint256[]"}],"stateMutability":"view"},{"type":"function","name":"emergencyWithdrawTokens","inputs":[{"name":"amount","type":"uint256","internalType":"uint256"}],"outputs":[],"stateMutability":"nonpayable"},{"type":"function","name":"execute","inputs":[{"name":"targets","type":"address[]","internalType":"address[]"},{"name":"values","type":"uint256[]","internalType":"uint256[]"},{"name":"calldatas","type":"bytes[]","internalType":"bytes[]"},{"name":"descriptionHash","type":"bytes32","internalType":"bytes32"}],"outputs":[{"name":"","type":"uint256","internalType":"uint256"}],"stateMutability":"payable"},{"type":"function","name":"getActiveProposalIds","inputs":[],"outputs":[{"name":"activeIds","type":"uint256[]","internalType":"uint256[]"},{"name":"states","type":"uint8[]","internalType":"enum IGovernor.ProposalState[]"}],"stateMutability":"view"},{"type":"function","name":"getAllProposalIds","inputs":[],"outputs":[{"name":"ids","type":"uint256[]","internalType":"uint256[]"},{"name":"states","type":"uint8[]","internalType":"enum IGovernor.ProposalState[]"}],"stateMutability":"view"},{"type":"function","name":"getAllStakers","inputs":[],"outputs":[{"name":"","type":"address[]","internalType":"address[]"}],"stateMutability":"view"},{"type":"function","name":"getCombinedGovernancePower","inputs":[{"name":"account","type":"address","internalType":"address"}],"outputs":[{"name":"","type":"uint256","internalType":"uint256"}],"stateMutability":"view"},{"type":"function","name":"getGovernanceEligibility","inputs":[{"name":"account","type":"address","internalType":"address"}],"outputs":[{"name":"canPropose","type":"bool","internalType":"bool"},{"name":"canVote","type":"bool","internalType":"bool"},{"name":"stakeAmount","type":"uint256","internalType":"uint256"},{"name":"rewardTokens","type":"uint256","internalType":"uint256"},{"name":"combinedPower","type":"uint256","internalType":"uint256"},{"name":"votingPower","type":"uint256","internalType":"uint256"}],"stateMutability":"view"},{"type":"function","name":"getProposalCount","inputs":[],"outputs":[{"name":"","type":"uint256","internalType":"uint256"}],"stateMutability":"view"},{"type":"function","name":"getStakerInfo","inputs":[{"name":"staker","type":"address","internalType":"address"}],"outputs":[{"name":"amount","type":"uint256","internalType":"uint256"},{"name":"unlockTime","type":"uint256","internalType":"uint256"},{"name":"durationMinutes","type":"uint256","internalType":"uint256"},{"name":"hasStake","type":"bool","internalType":"bool"}],"stateMutability":"view"},{"type":"function","name":"getUnstakeAvailableTime","inputs":[{"name":"staker","type":"address","internalType":"address"}],"outputs":[{"name":"","type":"uint256","internalType":"uint256"}],"stateMutability":"view"},{"type":"function","name":"getVotes","inputs":[{"name":"account","type":"address","internalType":"address"},{"name":"timepoint","type":"uint256","internalType":"uint256"}],"outputs":[{"name":"","type":"uint256","internalType":"uint256"}],"stateMutability":"view"},{"type":"function","name":"getVotesWithParams","inputs":[{"name":"account","type":"address","internalType":"address"},{"name":"timepoint","type":"uint256","internalType":"uint256"},{"name":"params","type":"bytes","internalType":"bytes"}],"outputs":[{"name":"","type":"uint256","internalType":"uint256"}],"stateMutability":"view"},{"type":"function","name":"getVotingPower","inputs":[{"name":"account","type":"address","internalType":"address"}],"outputs":[{"name":"own","type":"uint256","internalType":"uint256"},{"name":"delegated","type":"uint256","internalType":"uint256"},{"name":"reward","type":"uint256","internalType":"uint256"},{"name":"total","type":"uint256","internalType":"uint256"}],"stateMutability":"view"},{"type":"function","name":"handleSyncVotingPower","inputs":[{"name":"user","type":"address","internalType":"address"},{"name":"totalRewards","type":"uint256","internalType":"uint256"},{"name":"sourceChain","type":"uint32","internalType":"uint32"}],"outputs":[],"stateMutability":"nonpayable"},{"type":"function","name":"hasVoted","inputs":[{"name":"proposalId","type":"uint256","internalType":"uint256"},{"name":"account","type":"address","internalType":"address"}],"outputs":[{"name":"","type":"bool","internalType":"bool"}],"stateMutability":"view"},{"type":"function","name":"hashProposal","inputs":[{"name":"targets","type":"address[]","internalType":"address[]"},{"name":"values","type":"uint256[]","internalType":"uint256[]"},{"name":"calldatas","type":"bytes[]","internalType":"bytes[]"},{"name":"descriptionHash","type":"bytes32","internalType":"bytes32"}],"outputs":[{"name":"","type":"uint256","internalType":"uint256"}],"stateMutability":"pure"},{"type":"function","name":"initialize","inputs":[{"name":"_owner","type":"address","internalType":"address"},{"name":"_openworkToken","type":"address","internalType":"address"},{"name":"_chainId","type":"uint32","internalType":"uint32"},{"name":"_bridge","type":"address","internalType":"address"}],"outputs":[],"stateMutability":"nonpayable"},{"type":"function","name":"isStaker","inputs":[{"name":"","type":"address","internalType":"address"}],"outputs":[{"name":"","type":"bool","internalType":"bool"}],"stateMutability":"view"},{"type":"function","name":"name","inputs":[],"outputs":[{"name":"","type":"string","internalType":"string"}],"stateMutability":"view"},{"type":"function","name":"nonces","inputs":[{"name":"owner","type":"address","internalType":"address"}],"outputs":[{"name":"","type":"uint256","internalType":"uint256"}],"stateMutability":"view"},{"type":"function","name":"onERC1155BatchReceived","inputs":[{"name":"","type":"address","internalType":"address"},{"name":"","type":"address","internalType":"address"},{"name":"","type":"uint256[]","internalType":"uint256[]"},{"name":"","type":"uint256[]","internalType":"uint256[]"},{"name":"","type":"bytes","internalType":"bytes"}],"outputs":[{"name":"","type":"bytes4","internalType":"bytes4"}],"stateMutability":"nonpayable"},{"type":"function","name":"onERC1155Received","inputs":[{"name":"","type":"address","internalType":"address"},{"name":"","type":"address","internalType":"address"},{"name":"","type":"uint256","internalType":"uint256"},{"name":"","type":"uint256","internalType":"uint256"},{"name":"","type":"bytes","internalType":"bytes"}],"outputs":[{"name":"","type":"bytes4","internalType":"bytes4"}],"stateMutability":"nonpayable"},{"type":"function","name":"onERC721Received","inputs":[{"name":"","type":"address","internalType":"address"},{"name":"","type":"address","internalType":"address"},{"name":"","type":"uint256","internalType":"uint256"},{"name":"","type":"bytes","internalType":"bytes"}],"outputs":[{"name":"","type":"bytes4","internalType":"bytes4"}],"stateMutability":"nonpayable"},{"type":"function","name":"openworkToken","inputs":[],"outputs":[{"name":"","type":"address","internalType":"contract IERC20"}],"stateMutability":"view"},{"type":"function","name":"owner","inputs":[],"outputs":[{"name":"","type":"address","internalType":"address"}],"stateMutability":"view"},{"type":"function","name":"proposalDeadline","inputs":[{"name":"proposalId","type":"uint256","internalType":"uint256"}],"outputs":[{"name":"","type":"uint256","internalType":"uint256"}],"stateMutability":"view"},{"type":"function","name":"proposalEta","inputs":[{"name":"proposalId","type":"uint256","internalType":"uint256"}],"outputs":[{"name":"","type":"uint256","internalType":"uint256"}],"stateMutability":"view"},{"type":"function","name":"proposalIds","inputs":[{"name":"","type":"uint256","internalType":"uint256"}],"outputs":[{"name":"","type":"uint256","internalType":"uint256"}],"stateMutability":"view"},{"type":"function","name":"proposalNeedsQueuing","inputs":[{"name":"","type":"uint256","internalType":"uint256"}],"outputs":[{"name":"","type":"bool","internalType":"bool"}],"stateMutability":"view"},{"type":"function","name":"proposalProposer","inputs":[{"name":"proposalId","type":"uint256","internalType":"uint256"}],"outputs":[{"name":"","type":"address","internalType":"address"}],"stateMutability":"view"},{"type":"function","name":"proposalSnapshot","inputs":[{"name":"proposalId","type":"uint256","internalType":"uint256"}],"outputs":[{"name":"","type":"uint256","internalType":"uint256"}],"stateMutability":"view"},{"type":"function","name":"proposalThreshold","inputs":[],"outputs":[{"name":"","type":"uint256","internalType":"uint256"}],"stateMutability":"view"},{"type":"function","name":"proposalThresholdAmount","inputs":[],"outputs":[{"name":"","type":"uint256","internalType":"uint256"}],"stateMutability":"view"},{"type":"function","name":"proposalVotes","inputs":[{"name":"proposalId","type":"uint256","internalType":"uint256"}],"outputs":[{"name":"againstVotes","type":"uint256","internalType":"uint256"},{"name":"forVotes","type":"uint256","internalType":"uint256"},{"name":"abstainVotes","type":"uint256","internalType":"uint256"}],"stateMutability":"view"},{"type":"function","name":"propose","inputs":[{"name":"targets","type":"address[]","internalType":"address[]"},{"name":"values","type":"uint256[]","internalType":"uint256[]"},{"name":"calldatas","type":"bytes[]","internalType":"bytes[]"},{"name":"description","type":"string","internalType":"string"},{"name":"_options","type":"bytes","internalType":"bytes"}],"outputs":[{"name":"","type":"uint256","internalType":"uint256"}],"stateMutability":"payable"},{"type":"function","name":"propose","inputs":[{"name":"targets","type":"address[]","internalType":"address[]"},{"name":"values","type":"uint256[]","internalType":"uint256[]"},{"name":"calldatas","type":"bytes[]","internalType":"bytes[]"},{"name":"description","type":"string","internalType":"string"}],"outputs":[{"name":"","type":"uint256","internalType":"uint256"}],"stateMutability":"nonpayable"},{"type":"function","name":"proxiableUUID","inputs":[],"outputs":[{"name":"","type":"bytes32","internalType":"bytes32"}],"stateMutability":"view"},{"type":"function","name":"queue","inputs":[{"name":"targets","type":"address[]","internalType":"address[]"},{"name":"values","type":"uint256[]","internalType":"uint256[]"},{"name":"calldatas","type":"bytes[]","internalType":"bytes[]"},{"name":"descriptionHash","type":"bytes32","internalType":"bytes32"}],"outputs":[{"name":"","type":"uint256","internalType":"uint256"}],"stateMutability":"nonpayable"},{"type":"function","name":"quorum","inputs":[{"name":"","type":"uint256","internalType":"uint256"}],"outputs":[{"name":"","type":"uint256","internalType":"uint256"}],"stateMutability":"pure"},{"type":"function","name":"quoteGovernanceNotification","inputs":[{"name":"account","type":"address","internalType":"address"},{"name":"_options","type":"bytes","internalType":"bytes"}],"outputs":[{"name":"fee","type":"uint256","internalType":"uint256"}],"stateMutability":"view"},{"type":"function","name":"quoteStakeUpdate","inputs":[{"name":"staker","type":"address","internalType":"address"},{"name":"isActive","type":"bool","internalType":"bool"},{"name":"_options","type":"bytes","internalType":"bytes"}],"outputs":[{"name":"fee","type":"uint256","internalType":"uint256"}],"stateMutability":"view"},{"type":"function","name":"relay","inputs":[{"name":"target","type":"address","internalType":"address"},{"name":"value","type":"uint256","internalType":"uint256"},{"name":"data","type":"bytes","internalType":"bytes"}],"outputs":[],"stateMutability":"payable"},{"type":"function","name":"removeStake","inputs":[{"name":"staker","type":"address","internalType":"address"},{"name":"removeAmount","type":"uint256","internalType":"uint256"},{"name":"_options","type":"bytes","internalType":"bytes"}],"outputs":[],"stateMutability":"payable"},{"type":"function","name":"renounceOwnership","inputs":[],"outputs":[],"stateMutability":"nonpayable"},{"type":"function","name":"setBridge","inputs":[{"name":"_bridge","type":"address","internalType":"address"}],"outputs":[],"stateMutability":"nonpayable"},{"type":"function","name":"setProposalThreshold","inputs":[{"name":"newProposalThreshold","type":"uint256","internalType":"uint256"}],"outputs":[],"stateMutability":"nonpayable"},{"type":"function","name":"setVotingDelay","inputs":[{"name":"newVotingDelay","type":"uint48","internalType":"uint48"}],"outputs":[],"stateMutability":"nonpayable"},{"type":"function","name":"setVotingPeriod","inputs":[{"name":"newVotingPeriod","type":"uint32","internalType":"uint32"}],"outputs":[],"stateMutability":"nonpayable"},{"type":"function","name":"stake","inputs":[{"name":"amount","type":"uint256","internalType":"uint256"},{"name":"durationMinutes","type":"uint256","internalType":"uint256"},{"name":"_options","type":"bytes","internalType":"bytes"}],"outputs":[],"stateMutability":"payable"},{"type":"function","name":"stakes","inputs":[{"name":"","type":"address","internalType":"address"}],"outputs":[{"name":"amount","type":"uint256","internalType":"uint256"},{"name":"unlockTime","type":"uint256","internalType":"uint256"},{"name":"durationMinutes","type":"uint256","internalType":"uint256"}],"stateMutability":"view"},{"type":"function","name":"state","inputs":[{"name":"proposalId","type":"uint256","internalType":"uint256"}],"outputs":[{"name":"","type":"uint8","internalType":"enum IGovernor.ProposalState"}],"stateMutability":"view"},{"type":"function","name":"supportsInterface","inputs":[{"name":"interfaceId","type":"bytes4","internalType":"bytes4"}],"outputs":[{"name":"","type":"bool","internalType":"bool"}],"stateMutability":"view"},{"type":"function","name":"transferOwnership","inputs":[{"name":"newOwner","type":"address","internalType":"address"}],"outputs":[],"stateMutability":"nonpayable"},{"type":"function","name":"unstake","inputs":[{"name":"_options","type":"bytes","internalType":"bytes"}],"outputs":[],"stateMutability":"payable"},{"type":"function","name":"unstakeDelay","inputs":[],"outputs":[{"name":"","type":"uint256","internalType":"uint256"}],"stateMutability":"view"},{"type":"function","name":"unstakeRequestTime","inputs":[{"name":"","type":"address","internalType":"address"}],"outputs":[{"name":"","type":"uint256","internalType":"uint256"}],"stateMutability":"view"},{"type":"function","name":"updateProposalThreshold","inputs":[{"name":"newThreshold","type":"uint256","internalType":"uint256"}],"outputs":[],"stateMutability":"nonpayable"},{"type":"function","name":"updateUnstakeDelay","inputs":[{"name":"newDelay","type":"uint256","internalType":"uint256"}],"outputs":[],"stateMutability":"nonpayable"},{"type":"function","name":"updateVotingThreshold","inputs":[{"name":"newThreshold","type":"uint256","internalType":"uint256"}],"outputs":[],"stateMutability":"nonpayable"},{"type":"function","name":"upgradeContract","inputs":[{"name":"targetChainId","type":"uint32","internalType":"uint32"},{"name":"targetProxy","type":"address","internalType":"address"},{"name":"newImplementation","type":"address","internalType":"address"},{"name":"_options","type":"bytes","internalType":"bytes"}],"outputs":[],"stateMutability":"payable"},{"type":"function","name":"upgradeToAndCall","inputs":[{"name":"newImplementation","type":"address","internalType":"address"},{"name":"data","type":"bytes","internalType":"bytes"}],"outputs":[],"stateMutability":"payable"},{"type":"function","name":"userTotalRewards","inputs":[{"name":"","type":"address","internalType":"address"}],"outputs":[{"name":"","type":"uint256","internalType":"uint256"}],"stateMutability":"view"},{"type":"function","name":"version","inputs":[],"outputs":[{"name":"","type":"string","internalType":"string"}],"stateMutability":"view"},{"type":"function","name":"votingDelay","inputs":[],"outputs":[{"name":"","type":"uint256","internalType":"uint256"}],"stateMutability":"view"},{"type":"function","name":"votingPeriod","inputs":[],"outputs":[{"name":"","type":"uint256","internalType":"uint256"}],"stateMutability":"view"},{"type":"function","name":"votingThresholdAmount","inputs":[],"outputs":[{"name":"","type":"uint256","internalType":"uint256"}],"stateMutability":"view"},{"type":"function","name":"withdraw","inputs":[],"outputs":[],"stateMutability":"nonpayable"},{"type":"event","name":"BridgeUpdated","inputs":[{"name":"newBridge","type":"address","indexed":true,"internalType":"address"}],"anonymous":false},{"type":"event","name":"CrossContractCallFailed","inputs":[{"name":"account","type":"address","indexed":true,"internalType":"address"},{"name":"reason","type":"string","indexed":false,"internalType":"string"}],"anonymous":false},{"type":"event","name":"DelegateChanged","inputs":[{"name":"delegator","type":"address","indexed":true,"internalType":"address"},{"name":"fromDelegate","type":"address","indexed":true,"internalType":"address"},{"name":"toDelegate","type":"address","indexed":true,"internalType":"address"}],"anonymous":false},{"type":"event","name":"EIP712DomainChanged","inputs":[],"anonymous":false},{"type":"event","name":"GovernanceActionSentToBridge","inputs":[{"name":"user","type":"address","indexed":true,"internalType":"address"},{"name":"action","type":"string","indexed":false,"internalType":"string"},{"name":"fee","type":"uint256","indexed":false,"internalType":"uint256"}],"anonymous":false},{"type":"event","name":"Initialized","inputs":[{"name":"version","type":"uint64","indexed":false,"internalType":"uint64"}],"anonymous":false},{"type":"event","name":"OwnershipTransferred","inputs":[{"name":"previousOwner","type":"address","indexed":true,"internalType":"address"},{"name":"newOwner","type":"address","indexed":true,"internalType":"address"}],"anonymous":false},{"type":"event","name":"ProposalCanceled","inputs":[{"name":"proposalId","type":"uint256","indexed":false,"internalType":"uint256"}],"anonymous":false},{"type":"event","name":"ProposalCreated","inputs":[{"name":"proposalId","type":"uint256","indexed":false,"internalType":"uint256"},{"name":"proposer","type":"address","indexed":false,"internalType":"address"},{"name":"targets","type":"address[]","indexed":false,"internalType":"address[]"},{"name":"values","type":"uint256[]","indexed":false,"internalType":"uint256[]"},{"name":"signatures","type":"string[]","indexed":false,"internalType":"string[]"},{"name":"calldatas","type":"bytes[]","indexed":false,"internalType":"bytes[]"},{"name":"voteStart","type":"uint256","indexed":false,"internalType":"uint256"},{"name":"voteEnd","type":"uint256","indexed":false,"internalType":"uint256"},{"name":"description","type":"string","indexed":false,"internalType":"string"}],"anonymous":false},{"type":"event","name":"ProposalExecuted","inputs":[{"name":"proposalId","type":"uint256","indexed":false,"internalType":"uint256"}],"anonymous":false},{"type":"event","name":"ProposalQueued","inputs":[{"name":"proposalId","type":"uint256","indexed":false,"internalType":"uint256"},{"name":"etaSeconds","type":"uint256","indexed":false,"internalType":"uint256"}],"anonymous":false},{"type":"event","name":"ProposalThresholdSet","inputs":[{"name":"oldProposalThreshold","type":"uint256","indexed":false,"internalType":"uint256"},{"name":"newProposalThreshold","type":"uint256","indexed":false,"internalType":"uint256"}],"anonymous":false},{"type":"event","name":"StakeCreated","inputs":[{"name":"staker","type":"address","indexed":true,"internalType":"address"},{"name":"amount","type":"uint256","indexed":false,"internalType":"uint256"},{"name":"durationMinutes","type":"uint256","indexed":false,"internalType":"uint256"}],"anonymous":false},{"type":"event","name":"StakeDataSentCrossChain","inputs":[{"name":"staker","type":"address","indexed":true,"internalType":"address"},{"name":"isActive","type":"bool","indexed":false,"internalType":"bool"},{"name":"fee","type":"uint256","indexed":false,"internalType":"uint256"}],"anonymous":false},{"type":"event","name":"StakeRemoved","inputs":[{"name":"staker","type":"address","indexed":true,"internalType":"address"},{"name":"amount","type":"uint256","indexed":false,"internalType":"uint256"}],"anonymous":false},{"type":"event","name":"ThresholdUpdated","inputs":[{"name":"thresholdType","type":"string","indexed":false,"internalType":"string"},{"name":"newThreshold","type":"uint256","indexed":false,"internalType":"uint256"}],"anonymous":false},{"type":"event","name":"UnstakeCompleted","inputs":[{"name":"staker","type":"address","indexed":true,"internalType":"address"},{"name":"amount","type":"uint256","indexed":false,"internalType":"uint256"}],"anonymous":false},{"type":"event","name":"UnstakeRequested","inputs":[{"name":"staker","type":"address","indexed":true,"internalType":"address"},{"name":"requestTime","type":"uint256","indexed":false,"internalType":"uint256"},{"name":"availableTime","type":"uint256","indexed":false,"internalType":"uint256"}],"anonymous":false},{"type":"event","name":"Upgraded","inputs":[{"name":"implementation","type":"address","indexed":true,"internalType":"address"}],"anonymous":false},{"type":"event","name":"UserRewardsSynced","inputs":[{"name":"user","type":"address","indexed":true,"internalType":"address"},{"name":"totalRewards","type":"uint256","indexed":false,"internalType":"uint256"},{"name":"sourceChain","type":"uint32","indexed":false,"internalType":"uint32"}],"anonymous":false},{"type":"event","name":"VoteCast","inputs":[{"name":"voter","type":"address","indexed":true,"internalType":"address"},{"name":"proposalId","type":"uint256","indexed":false,"internalType":"uint256"},{"name":"support","type":"uint8","indexed":false,"internalType":"uint8"},{"name":"weight","type":"uint256","indexed":false,"internalType":"uint256"},{"name":"reason","type":"string","indexed":false,"internalType":"string"}],"anonymous":false},{"type":"event","name":"VoteCastWithParams","inputs":[{"name":"voter","type":"address","indexed":true,"internalType":"address"},{"name":"proposalId","type":"uint256","indexed":false,"internalType":"uint256"},{"name":"support","type":"uint8","indexed":false,"internalType":"uint8"},{"name":"weight","type":"uint256","indexed":false,"internalType":"uint256"},{"name":"reason","type":"string","indexed":false,"internalType":"string"},{"name":"params","type":"bytes","indexed":false,"internalType":"bytes"}],"anonymous":false},{"type":"event","name":"VotingDelaySet","inputs":[{"name":"oldVotingDelay","type":"uint256","indexed":false,"internalType":"uint256"},{"name":"newVotingDelay","type":"uint256","indexed":false,"internalType":"uint256"}],"anonymous":false},{"type":"event","name":"VotingPeriodSet","inputs":[{"name":"oldVotingPeriod","type":"uint256","indexed":false,"internalType":"uint256"},{"name":"newVotingPeriod","type":"uint256","indexed":false,"internalType":"uint256"}],"anonymous":false},{"type":"error","name":"AddressEmptyCode","inputs":[{"name":"target","type":"address","internalType":"address"}]},{"type":"error","name":"ERC1967InvalidImplementation","inputs":[{"name":"implementation","type":"address","internalType":"address"}]},{"type":"error","name":"ERC1967NonPayable","inputs":[]},{"type":"error","name":"FailedInnerCall","inputs":[]},{"type":"error","name":"GovernorAlreadyCastVote","inputs":[{"name":"voter","type":"address","internalType":"address"}]},{"type":"error","name":"GovernorAlreadyQueuedProposal","inputs":[{"name":"proposalId","type":"uint256","internalType":"uint256"}]},{"type":"error","name":"GovernorDisabledDeposit","inputs":[]},{"type":"error","name":"GovernorInsufficientProposerVotes","inputs":[{"name":"proposer","type":"address","internalType":"address"},{"name":"votes","type":"uint256","internalType":"uint256"},{"name":"threshold","type":"uint256","internalType":"uint256"}]},{"type":"error","name":"GovernorInvalidProposalLength","inputs":[{"name":"targets","type":"uint256","internalType":"uint256"},{"name":"calldatas","type":"uint256","internalType":"uint256"},{"name":"values","type":"uint256","internalType":"uint256"}]},{"type":"error","name":"GovernorInvalidSignature","inputs":[{"name":"voter","type":"address","internalType":"address"}]},{"type":"error","name":"GovernorInvalidVoteType","inputs":[]},{"type":"error","name":"GovernorInvalidVotingPeriod","inputs":[{"name":"votingPeriod","type":"uint256","internalType":"uint256"}]},{"type":"error","name":"GovernorNonexistentProposal","inputs":[{"name":"proposalId","type":"uint256","internalType":"uint256"}]},{"type":"error","name":"GovernorNotQueuedProposal","inputs":[{"name":"proposalId","type":"uint256","internalType":"uint256"}]},{"type":"error","name":"GovernorOnlyExecutor","inputs":[{"name":"account","type":"address","internalType":"address"}]},{"type":"error","name":"GovernorOnlyProposer","inputs":[{"name":"account","type":"address","internalType":"address"}]},{"type":"error","name":"GovernorQueueNotImplemented","inputs":[]},{"type":"error","name":"GovernorRestrictedProposer","inputs":[{"name":"proposer","type":"address","internalType":"address"}]},{"type":"error","name":"GovernorUnexpectedProposalState","inputs":[{"name":"proposalId","type":"uint256","internalType":"uint256"},{"name":"current","type":"uint8","internalType":"enum IGovernor.ProposalState"},{"name":"expectedStates","type":"bytes32","internalType":"bytes32"}]},{"type":"error","name":"InvalidAccountNonce","inputs":[{"name":"account","type":"address","internalType":"address"},{"name":"currentNonce","type":"uint256","internalType":"uint256"}]},{"type":"error","name":"InvalidInitialization","inputs":[]},{"type":"error","name":"NotInitializing","inputs":[]},{"type":"error","name":"OwnableInvalidOwner","inputs":[{"name":"owner","type":"address","internalType":"address"}]},{"type":"error","name":"OwnableUnauthorizedAccount","inputs":[{"name":"account","type":"address","internalType":"address"}]},{"type":"error","name":"QueueEmpty","inputs":[]},{"type":"error","name":"QueueFull","inputs":[]},{"type":"error","name":"ReentrancyGuardReentrantCall","inputs":[]},{"type":"error","name":"SafeCastOverflowedUintDowncast","inputs":[{"name":"bits","type":"uint8","internalType":"uint8"},{"name":"value","type":"uint256","internalType":"uint256"}]},{"type":"error","name":"UUPSUnauthorizedCallContext","inputs":[]},{"type":"error","name":"UUPSUnsupportedProxiableUUID","inputs":[{"name":"slot","type":"bytes32","internalType":"bytes32"}]}],"bytecode":{"object":"0x60a080604052346100c257306080525f5160206159695f395f51905f525460ff8160401c166100b3576002600160401b03196001600160401b03821601610060575b6040516158a290816100c7823960805181818161245401526124e70152f35b6001600160401b0319166001600160401b039081175f5160206159695f395f51905f525581527fc7f505b2f371ae2175ee4913f4499e1f2633a7b5936321eed1cdaeb6115181d290602090a15f80610041565b63f92ee8a960e01b5f5260045ffd5b5f80fdfe608080604052600436101561001c575b50361561001a575f80fd5b005b5f905f3560e01c90816301ffc9a7146135895750806302a251a31461355757806306fdde0314613488578063143489d014613458578063150b7a0214613403578063160cbed7146133d857806316934fc4146133905780632656227d146132b65780632d63f693146132985780632fe3e261146132715780633222012f146132545780633890b1521461321c5780633932abb1146131eb5780633c3653e214612f785780633c502fbc14612e355780633c9838ef14612e125780633ccfd60b14612d8c5780633e4f49e614612d5f5780633e6df50414612c8957806340f53c4714612b1a5780634385963214612ac1578063452115d6146129f257806348c35d46146126e35780634bf5d7e9146126915780634f1ef286146124a857806352d1902d14612441578063544ffc9c146123fa57806354fd4d50146123ca578063567813881461238057806357ad62791461231d578063587cde1e146122dc57806359e498151461219d5780635b8d0e0d1461205e5780635c19a95c14611ed25780635f398a1414611e5c5780636e3cfd4214611dfb5780636e4f88c814611d695780636f1e853314611d2a578063701ea6de14611d06578063715018a614611cb057806371a1aea714611ba0578063733bdef014611b2c57806378f924a614611a5357806379051887146119c85780637b3c71d3146119965780637d5e81e2146118f85780637ecebe00146118b3578063808213981461189057806384b0196e146117955780638bd7e1fa146117405780638da5cb5b1461170b5780638dd14802146116635780638ff262e31461156b57806391ddadf4146115485780639a802a6d146114de5780639a8a0592146114b75780639b644a231461147d5780639d36475b14611424578063a468306014611406578063a89fd082146113df578063a9a95294146113c2578063ab58fb8e146113a3578063ad3cb1cc1461135a578063b58131b014610f26578063bb4d4436146112a8578063bc197c8114611212578063c01f9e37146111f3578063c08cc02d146111d5578063c28bc2fa14611198578063c3214d6c14611154578063c59057e414611137578063cb1c2b5c14611113578063d052ca8514611013578063dd4e2ba514610fb2578063deaaa7cc14610f8a578063df7cda6d14610f44578063e1582a7f14610f26578063e540d01d14610e7f578063e78cea9214610e56578063eb9019d414610d9e578063ece40cc114610d44578063ed1f26681461059f578063efa90d361461050c578063f23a6e61146104b2578063f2fde38b14610485578063f6a3f3cf1461044c578063f8ce560a146104275763f9a5c6390361000f5734610424576020366003190112610424576020906040906001600160a01b03610413613618565b168152600983522054604051908152f35b80fd5b50346104245760203660031901126104245760206040516802b5e3af16b18800008152f35b5034610424576020366003190112610424576020906040906001600160a01b03610474613618565b168152600583522054604051908152f35b5034610424576020366003190112610424576104af6104a2613618565b6104aa614cb2565b614705565b80f35b50346104245760a0366003190112610424576104cc613618565b506104d561362e565b506084356001600160401b038111610508576104f59036906004016136fd565b5060405163f23a6e6160e01b8152602090f35b5080fd5b5034610424578060031936011261042457600b5461052981613f84565b9061053381613f84565b925b81811061055157505061054d60405192839283613a47565b0390f35b8061055d600192613b06565b90549060031b1c61056e8286613cd2565b5261059961058a61057e83613b06565b90549060031b1c613dd6565b6105948388613cd2565b613fb6565b01610535565b5034610424576080366003190112610424576105b9613618565b6105c161362e565b6105c96139b5565b6064356001600160a01b0381169190829003610d40575f5160206157ed5f395f51905f5254604081901c60ff161593906001600160401b03811680159081610d38575b6001149081610d2e575b159081610d25575b50610d16576001600160401b031981166001175f5160206157ed5f395f51905f525584610cee575b5060409485516106568782613689565b600b81526a4f70656e576f726b44414f60a81b60208201526106766153bb565b61067e613f1e565b6106866153bb565b81516001600160401b038111610bed576106ad5f5160206155ad5f395f51905f5254613b1e565b601f8111610c86575b50806020601f8211600114610c0c578b91610c01575b508160011b915f199060031b1c1916175f5160206155ad5f395f51905f52555b8051906001600160401b038211610bed5781906107165f51602061562d5f395f51905f5254613b1e565b601f8111610b7d575b50602090601f8311600114610b01578b92610af6575b50508160011b915f199060031b1c1916175f51602061562d5f395f51905f52555b875f51602061564d5f395f51905f5255875f51602061580d5f395f51905f525561077e6153bb565b8051906001600160401b038211610ae2576107a65f5160206157cd5f395f51905f5254613b1e565b601f8111610a7a575b50602090601f83116001146109fa576109149392918a91836109ef575b50508160011b915f199060031b1c1916175f5160206157cd5f395f51905f52555b6107f56153bb565b6107fd6153bb565b5f51602061560d5f395f51905f528765ffffffffffff5f51602061558d5f395f51905f5254168151908152603c6020820152a1603c65ffffffffffff195f51602061558d5f395f51905f525416175f51602061558d5f395f51905f52555f51602061558d5f395f51905f52545f51602061574d5f395f51905f5288805163ffffffff8460301c16815261012c6020820152a163ffffffff60301b1916604b60321b175f51602061558d5f395f51905f52555f51602061568d5f395f51905f5254875190815268056bc75e2d6310000060208201525f51602061556d5f395f51905f52908890a168056bc75e2d631000005f51602061568d5f395f51905f52556109046153bb565b61090c6153bb565b6104aa6153bb565b61091c6153bb565b6109246153bb565b60015f5160206157ad5f395f51905f525561093d6153bb565b85546001600160a01b0319166001600160a01b0391909116178555600180546001600160c01b03191660a09290921b63ffffffff60a01b169190911791909117905568056bc75e2d631000006002556802b5e3af16b1880000600355620151806004556109a8575080f35b5f5160206157ed5f395f51905f52805460ff60401b1916905551600181527fc7f505b2f371ae2175ee4913f4499e1f2633a7b5936321eed1cdaeb6115181d290602090a180f35b015190505f806107cc565b5f5160206157cd5f395f51905f528a52818a209190601f1984168b5b818110610a62575091600193918561091497969410610a4a575b505050811b015f5160206157cd5f395f51905f52556107ed565b01515f1960f88460031b161c191690555f8080610a30565b92936020600181928786015181550195019301610a16565b828111156107af575f5160206157cd5f395f51905f528a52601f830160051c5f51602061554d5f395f51905f5260208510610ada575b81601f9101920160051c03908a5b828110610acc5750506107af565b6001908c8184015501610abe565b8b9150610ab0565b634e487b7160e01b89526041600452602489fd5b015190505f80610735565b5f51602061562d5f395f51905f528c52818c209250601f1984168c5b818110610b655750908460019594939210610b4d575b505050811b015f51602061562d5f395f51905f5255610756565b01515f1960f88460031b161c191690555f8080610b33565b92936020600181928786015181550195019301610b1d565b8281111561071f575f51602061562d5f395f51905f528c52909150601f830160051c5f51602061582d5f395f51905f5260208510610be5575b849392601f0160051c82900391018c5b828110610bd457505061071f565b8082018e9055859450600101610bc6565b8c9150610bb6565b634e487b7160e01b8a52604160045260248afd5b90508301515f6106cc565b5f5160206155ad5f395f51905f528c52808c209150601f1983168c5b818110610c6e57509083600194939210610c56575b5050811b015f5160206155ad5f395f51905f52556106ec565b8501515f1960f88460031b161c191690555f80610c3d565b9192602060018192868a015181550194019201610c28565b818111156106b6575f5160206155ad5f395f51905f528b52601f820160051c5f5160206156ad5f395f51905f5260208410610ce6575b81601f9101920160051c03908b5b828110610cd85750506106b6565b6001908d8184015501610cca565b8c9150610cbc565b6001600160481b0319166001600160401b01175f5160206157ed5f395f51905f52555f610646565b63f92ee8a960e01b8752600487fd5b9050155f61061e565b303b159150610616565b86915061060c565b8480fd5b503461042457602036600319011261042457600435610d61614c96565b5f51602061556d5f395f51905f5260405f51602061568d5f395f51905f52548151908152836020820152a15f51602061568d5f395f51905f525580f35b503461042457604036600319011261042457610e37610dbb613618565b91610e3260209382604051610dd08782613689565b5260018060a01b03169182815260068552604081209060408051610df38161365a565b600284549485835260018101548a84015201549182910152819280610e3f575b5050808460409252600587528181205494815260098752205490613d49565b613d49565b604051908152f35b604092935090610e4e91613f0b565b91905f610e13565b50346104245780600319360112610424576001546040516001600160a01b039091168152602090f35b503461042457602036600319011261042457610e996139a2565b610ea1614c96565b63ffffffff8116908115610f12575f51602061574d5f395f51905f5260405f51602061558d5f395f51905f52549381519063ffffffff8660301c1682526020820152a163ffffffff60301b1990911660309190911b63ffffffff60301b16175f51602061558d5f395f51905f525580f35b63f1cfbf0560e01b83526004839052602483fd5b50346104245780600319360112610424576020600254604051908152f35b503461042457604036600319011261042457610f5e613618565b90602435906001600160401b038211610424576020610e3784610f843660048701613900565b916146cc565b503461042457806003193601126104245760206040515f5160206155ed5f395f51905f528152f35b50346104245780600319360112610424575061054d604051610fd5604082613689565b602081527f737570706f72743d627261766f2671756f72756d3d666f722c6162737461696e60208201526040519182916020835260208301906135f4565b50346104245760203660031901126104245760c090611030613618565b60018060a01b038116808352600660205260408320549181845260056020526110ce611060604086205492613daa565b92610e32602096806040516110758a82613689565b528281526006885260408120906040805161108f8161365a565b600284549485835260018101548d840152015491829101528192806110fc575b505080846040925260058a528181205494815260098a52205490613d49565b92600254831015946003548410159060405196875286015260408501526060840152608083015260a0820152f35b60409293509061110b91613f0b565b91905f6110af565b5034610424578060031936011261042457602060405168056bc75e2d631000008152f35b5034610424576020610e3761114b3661387b565b92919091614614565b50346104245760203660031901126104245760043590600c5482101561042457602061117f83613ada565b905460405160039290921b1c6001600160a01b03168152f35b506111d181806111a73661392d565b91906111b1614c96565b826040519384928337810185815203925af16111cb61458d565b906152d9565b5080f35b50346104245780600319360112610424576020600b54604051908152f35b5034610424576020366003190112610424576020610e3760043561452e565b50346104245760a03660031901126104245761122c613618565b5061123561362e565b506044356001600160401b038111610508576112559036906004016137a0565b506064356001600160401b038111610508576112759036906004016137a0565b506084356001600160401b038111610508576112959036906004016136fd565b5060405163bc197c8160e01b8152602090f35b5034610424576020366003190112610424576080906001600160a01b036112cd613618565b168082526006602052604080832081516112e68161365a565b815480825260018301546020830152600290920154920182905280156113505760409161131291613f0b565b925b8281526009602052818120549281526005602052205461133881610e328486613d49565b91604051938452602084015260408301526060820152f35b5050604082611314565b50346104245780600319360112610424575061054d60405161137d604082613689565b60058152640352e302e360dc1b60208201526040519182916020835260208301906135f4565b5034610424576020366003190112610424576020610e37600435614508565b503461042457602036600319011261042457602090604051908152f35b5034610424578060031936011261042457546040516001600160a01b039091168152602090f35b50346104245780600319360112610424576020600354604051908152f35b6020610e378361144e61145561143936613a9e565b91939294906114466144e6565b9236916136c7565b9033614ce5565b604051916114638684613689565b838352604051936114748786613689565b84523390614ff3565b50346104245760203660031901126104245760043590600b548210156104245760206114a883613b06565b90549060031b1c604051908152f35b5034610424578060031936011261042457602063ffffffff60015460a01c16604051908152f35b5034610424576060366003190112610424576114f8613618565b6044356001600160401b0381116115445791610e32610e379261152160209536906004016136fd565b5060018060a01b03169182815260068552604081209060408051610df38161365a565b8280fd5b5034610424578060031936011261042457602060405165ffffffffffff42168152f35b503461042457608036600319011261042457600435906115896139c8565b611591613644565b6064356001600160401b03811161165f576115b09036906004016136fd565b6116196115bc83614e73565b9161161360405160208101905f5160206155ed5f395f51905f52825289604082015260ff8816606082015260018060a01b0387169586608083015260a082015260a0815261160b60c082613689565b519020614ea1565b84614f23565b1561164d576020610e3785878686604051926116358785613689565b848452604051946116468887613689565b8552614ff3565b6394ab6c0760e01b8452600452602483fd5b8380fd5b50346104245760203660031901126104245761167d613618565b611685614cb2565b6001600160a01b031680156116cd57600180546001600160a01b031916821790557fe1694c0b21fdceff6411daed547c7463c2341b9695387bc82595b5b9b1851d4a8280a280f35b60405162461bcd60e51b8152602060048201526016602482015275496e76616c696420627269646765206164647265737360501b6044820152606490fd5b50346104245780600319360112610424575f5160206155cd5f395f51905f52546040516001600160a01b039091168152602090f35b50346104245760603660031901126104245761175a613618565b60243591821515830361042457604435906001600160401b038211610424576020610e37858561178d3660048801613900565b9290916143fe565b50346104245780600319360112610424575f51602061564d5f395f51905f5254158061187a575b1561183d576118109061054d6117d0613b56565b916117d9613c12565b61181e604051916117eb602084613689565b8383525f368137604051968796600f60f81b885260e0602089015260e08801906135f4565b9086820360408801526135f4565b9146606086015230608086015260a085015283820360c0850152613a14565b60405162461bcd60e51b81526020600482015260156024820152741152540dcc4c8e88155b9a5b9a5d1a585b1a5e9959605a1b6044820152606490fd5b505f51602061580d5f395f51905f5254156117bc565b5034610424576020366003190112610424576118aa614c96565b60043560045580f35b5034610424576020366003190112610424576020906040906001600160a01b036118db613618565b1681525f5160206156ed5f395f51905f5283522054604051908152f35b5034610424576080366003190112610424576004356001600160401b03811161050857611929903690600401613732565b906024356001600160401b038111610508576119499036906004016137a0565b6044356001600160401b038111611544576119689036906004016137fd565b91606435906001600160401b038211610424576020610e3786868661199036600489016136fd565b92613fc2565b503461042457610e376020916119b96119ae36613a9e565b9391929336916136c7565b91604051936114748786613689565b50346104245760203660031901126104245760043565ffffffffffff8116809103610508576119f5614c96565b5f51602061560d5f395f51905f52604065ffffffffffff5f51602061558d5f395f51905f5254168151908152836020820152a165ffffffffffff195f51602061558d5f395f51905f525416175f51602061558d5f395f51905f525580f35b503461042457606036600319011261042457611a6d613618565b602435611a786139b5565b6001549092906001600160a01b03163303611adc577f3fb93b7bf9681d0e57a61f253b648d14e320cd0ab3ffd0954ab063310a4864909163ffffffff60409260018060a01b031694858752600560205282848820558351928352166020820152a280f35b60405162461bcd60e51b815260206004820152602260248201527f4f6e6c79206272696467652063616e2063616c6c20746869732066756e63746960448201526137b760f11b6064820152608490fd5b5034610424576020366003190112610424576080906040906001600160a01b03611b54613618565b168152600660205220604051611b698161365a565b6040825491828152600260018501549485602084015201549182910152604051928284526020840152604083015215156060820152f35b50346104245780600319360112610424578081600b54925b838110611c635750611bd2611bcc83613f84565b92613f84565b9281825b828110611bec576040518061054d888883613a47565b611bf861057e82613b06565b6008811015611c4f5760018114611c13575b50600101611bd6565b8192611c43611c4892611c27600195613b06565b90549060031b1c611c38848b613cd2565b52610594838b613cd2565b613f76565b9190611c0a565b634e487b7160e01b85526021600452602485fd5b611c6f61057e82613b06565b6008811015611c9c57600114611c88575b600101611bb8565b91611c94600191613f76565b929050611c80565b634e487b7160e01b83526021600452602483fd5b5034610424578060031936011261042457611cc9614cb2565b5f5160206155cd5f395f51905f5280546001600160a01b0319811690915581906001600160a01b03165f51602061572d5f395f51905f528280a380f35b5034610424576020366003190112610424576020610e37611d25613618565b613f3d565b50346104245760203660031901126104245760209060ff906040906001600160a01b03611d55613618565b168152600a84522054166040519015158152f35b5034610424578060031936011261042457604051600c8054808352908352909160208301917fdf6966c971051c3d54ec59162606531493a51404a002842f56009d7e5cf4a8c7915b818110611ddc5761054d85611dc881870382613689565b6040519182916020835260208301906139d8565b82546001600160a01b0316845260209093019260019283019201611db1565b5034610424576020366003190112610424575f51602061566d5f395f51905f526080600435611e28614c96565b806003556040519060408252600f60408301526e1d9bdd1a5b99d51a1c995cda1bdb19608a1b60608301526020820152a180f35b503461042457608036600319011261042457611e766139c8565b6044356001600160401b03811161154457611e95903690600401613900565b92606435906001600160401b038211610424576020610e378686611ec887611ec03660048a016136fd565b9336916136c7565b9033600435614ff3565b503461042457602036600319011261042457611eec613618565b338252600860205260408220546001600160a01b03918216911681811461200f573383526006602052604083205415611fd3573383526006602052611f4560408420543385526006602052600260408620015490613f0b565b81611fb5575b82611f96575b503380845260086020526040842080546001600160a01b031916841790557f3134e8a2e6d97e929a7e54011ea5485d7d196dd5f0ba4d4ef95803e8e3fc257f8480a480f35b8284526009602052611fad60408520918254613d49565b90555f611f51565b818452600960205260408420611fcc828254613d9d565b9055611f4b565b60405162461bcd60e51b81526020600482015260146024820152734e6f207374616b6520746f2064656c656761746560601b6044820152606490fd5b60405162461bcd60e51b815260206004820152602160248201527f416c72656164792064656c65676174656420746f2074686973206164647265736044820152607360f81b6064820152608490fd5b50346104245760c03660031901126104245760043561207b6139c8565b612083613644565b6064356001600160401b038111610d40576120a2903690600401613900565b6084356001600160401b038111612199576120c19036906004016136fd565b9560a4356001600160401b038111610508576120e19036906004016136fd565b6121676120ed86614e73565b916121616120fc3687896136c7565b602081519101208b5160208d01206040519060208201925f51602061576d5f395f51905f5284528d604084015260ff8d16606084015260018060a01b038c169788608085015260a084015260c083015260e082015260e0815261160b61010082613689565b87614f23565b15612186576020610e3789898989612180368a8c6136c7565b92614ff3565b6394ab6c0760e01b825260045260249150fd5b8680fd5b5060a0366003190112610424576004356001600160401b038111610508576121c9903690600401613732565b6024356001600160401b038111611544576121e89036906004016137a0565b6044356001600160401b03811161165f576122079036906004016137fd565b6064356001600160401b038111610d40576122269036906004016136fd565b608435939092906001600160401b0385116122d85761227e61144e612252612283973690600401613900565b919060405192612263604085613689565b600784526670726f706f736560c81b602085015236916136c7565b613fc2565b600b54600160401b8110156122c457916122a583600160209501600b55613b06565b81545f1960039290921b91821b19169084901b17905550604051908152f35b634e487b7160e01b83526041600452602483fd5b8580fd5b5034610424576020366003190112610424576020906001600160a01b03612301613618565b16815260088252604060018060a01b0391205416604051908152f35b5034610424576020366003190112610424575f51602061566d5f395f51905f52608060043561234a614c96565b80600255604051906040825260116040830152701c1c9bdc1bdcd85b151a1c995cda1bdb19607a1b60608301526020820152a180f35b503461042457604036600319011261042457610e376020916123a06139c8565b604051906123ae8583613689565b828252604051926123bf8685613689565b835233600435614ff3565b503461042457806003193601126104245761054d6123e6613f1e565b6040519182916020835260208301906135f4565b50346104245760203660031901126104245760409060043581525f51602061570d5f395f51905f5260205220805461054d60026001840154930154604051938493846138ea565b50346104245780600319360112610424577f00000000000000000000000000000000000000000000000000000000000000006001600160a01b031630036124995760206040515f5160206156cd5f395f51905f528152f35b63703e46dd60e11b8152600490fd5b506040366003190112610424576124bd613618565b906024356001600160401b038111610508576124dd9036906004016136fd565b6001600160a01b037f00000000000000000000000000000000000000000000000000000000000000001630811490811561266f575b506126605761251f614cb2565b6040516352d1902d60e01b8152926001600160a01b0381169190602085600481865afa80958596612628575b5061256457634c9c8ce360e01b84526004839052602484fd5b9091845f5160206156cd5f395f51905f5281036126165750813b15612604575f5160206156cd5f395f51905f5280546001600160a01b031916821790557fbc7cd75a20ee27fd9adebab32041f755214dbc6bffa90cc0225b39da2e5c2d3b8480a281518390156125ea57808360206111d195519101845af46125e461458d565b9161545e565b505050346125f55780f35b63b398979f60e01b8152600490fd5b634c9c8ce360e01b8452600452602483fd5b632a87526960e21b8552600452602484fd5b9095506020813d602011612658575b8161264460209383613689565b810103126126545751945f61254b565b5f80fd5b3d9150612637565b63703e46dd60e11b8252600482fd5b5f5160206156cd5f395f51905f52546001600160a01b0316141590505f612512565b50346104245780600319360112610424575061054d6040516126b4604082613689565b600e81526d06d6f64653d74696d657374616d760941b60208201526040519182916020835260208301906135f4565b506060366003190112610424576024356004356044356001600160401b03811161165f57612715903690600401613900565b9190926127206147a8565b68056bc75e2d6310000082106129af576001811015806129a4575b1561296057338552600660205260408520546129295784546040516323b872dd60e01b81523360048201523060248201526044810184905290602090829060649082908a906001600160a01b03165af1801561291e576128f1575b50603c8102818104603c14821517156128dd576127b39042613d49565b6002604051916127c28361365a565b8483526020830190815260408301908482523389526006602052604089209351845551600184015551910155338552600a60205260ff60408620541615612860575b9161284c93916128469360405191825260208201527f072db3cafa6572052b0c3c566f5726ae74e0e6c44d5557b3523273a690aef83f60403392a236916136c7565b336149ad565b60015f5160206157ad5f395f51905f525580f35b600c54600160401b8110156128c95791612846939161288984600161284c989601600c55613ada565b81546001600160a01b0360039290921b91821b1916339182901b179091558752600a60205260408720805460ff1916600117905592945090925090612804565b634e487b7160e01b86526041600452602486fd5b634e487b7160e01b86526011600452602486fd5b6129129060203d602011612917575b61290a8183613689565b810190613d6a565b612796565b503d612900565b6040513d88823e3d90fd5b60405162461bcd60e51b815260206004820152600f60248201526e416c7265616479207374616b696e6760881b6044820152606490fd5b60405162461bcd60e51b815260206004820152601c60248201527b4475726174696f6e206d75737420626520312d33206d696e7574657360201b6044820152606490fd5b50600381111561273b565b60405162461bcd60e51b815260206004820152601b60248201527a4d696e696d756d207374616b652069732031303020746f6b656e7360281b6044820152606490fd5b503461042457612a013661387b565b9392612a1285838584969596614614565b612a1d600182614763565b506001600160a01b0390612a3090613cac565b163303612aae5793604092612a4792602096614614565b91612a53603b84614763565b508281525f51602061552d5f395f51905f5284522080546001600160f81b0316600160f81b1790556040518181527f789cf55be980739dad1d0699b93b58e806b51c9d96619bfa8fe0a28abaa7b30c908390a1604051908152f35b63233d98e360e01b845233600452602484fd5b50346104245760403660031901126104245760036040612adf61362e565b9260043581525f51602061570d5f395f51905f5260205220019060018060a01b03165f52602052602060ff60405f2054166040519015158152f35b50608036600319011261265457612b2f6139a2565b612b3761362e565b612b3f613644565b606435929091906001600160401b03841161265457612b6385943690600401613900565b91612b6c614cb2565b63ffffffff60015491169063ffffffff8160a01c1682145f14612bf7575050505060018060a01b031690813b15612bf3576040516340634e3b60e01b81526001600160a01b0390911660048201529082908290602490829084905af18015612be857612bd757505080f35b81612be191613689565b6104245780f35b6040513d84823e3d90fd5b5050fd5b9295509093926001600160a01b039092169190823b1561265457604051631c18c1db60e01b815260048101919091526001600160a01b039182166024820152921660448301526080606483015290925f9284929183918291612c5e91608484019190613eeb565b039134905af18015612c7e57612c72575080f35b61001a91505f90613689565b6040513d5f823e3d90fd5b3461265457602036600319011261265457612ca2614cb2565b5f6020612ce960018060a01b0383541660018060a01b035f5160206155cd5f395f51905f52541660405194858094819363a9059cbb60e01b83526004359060048401613d82565b03925af1908115612c7e575f91612d40575b5015612d0357005b60405162461bcd60e51b8152602060048201526015602482015274151bdad95b881d1c985b9cd9995c8819985a5b1959605a1b6044820152606490fd5b612d59915060203d6020116129175761290a8183613689565b81612cfb565b34612654576020366003190112612654576020612d7d600435613dd6565b612d8a6040518092613995565bf35b34612654575f36600319011261265457612da4614cb2565b478015612dd4575f5160206155cd5f395f51905f52545f918291829182916001600160a01b031682f115612c7e57005b60405162461bcd60e51b81526020600482015260166024820152754e6f2062616c616e636520746f20776974686472617760501b6044820152606490fd5b34612654576020366003190112612654576020610e37612e30613618565b613daa565b612e3e3661392d565b929190612e49614c96565b612e516147a8565b60018060a01b03831690815f526006602052612e7260405f20541515613d0c565b815f52600660205260405f20548311612f3557612efe94825f52600660205260405f20612ea0858254613d9d565b9055600192805f52600660205268056bc75e2d6310000060405f205410612f11575b7fa018dcbc822f59fb0d0c3e7a86c8e4259b9676cdea9e5fc26279b9c4c5d86eef6020612ef89596604051908152a236916136c7565b91614b38565b60015f5160206157ad5f395f51905f5255005b5f818152600660205260408120818155600181018290556002018190559350612ec2565b60405162461bcd60e51b815260206004820152601b60248201527a52656d6f766520616d6f756e742065786365656473207374616b6560281b6044820152606490fd5b6020366003190112612654576004356001600160401b03811161265457612fa3903690600401613900565b90612fac6147a8565b335f52600660205260405f2060405190612fc58261365a565b612fea8154808452600260018401549360208601948552015460408501521515613d0c565b5142106131b157335f52600760205260405f2054155f1461306757505050335f5260076020524260405f205561302260045442613d49565b6040519042825260208201527f57e41df54512c76148b5ba9b643d149752b0d35e493b969bd017d0a3fe5228cf60403392a260015f5160206157ad5f395f51905f5255005b335f52600760205261308060405f205460045490613d49565b42106131745751335f908152600660208181526040808420848155600181018590556002018490556007825283209290925590529061315b565b60018060a01b035f5416926020604051809563a9059cbb60e01b8252815f816130e7893360048401613d82565b03925af1928315612c7e57613139946131339461313e575b506040519081527fdf2b996992aeaae3212b8d32b9c3c224196146804bed6814ec28d864b4eb3fc560203392a236916136c7565b336147e0565b612efe565b6131569060203d6020116129175761290a8183613689565b6130ff565b335f52600a60205260405f2060ff1981541690556130ba565b60405162461bcd60e51b8152602060048201526015602482015274155b9cdd185ad94819195b185e481b9bdd081b595d605a1b6044820152606490fd5b60405162461bcd60e51b815260206004820152601260248201527114dd185ad9481cdd1a5b1b081b1bd8dad95960721b6044820152606490fd5b34612654575f36600319011261265457602065ffffffffffff5f51602061558d5f395f51905f525416604051908152f35b34612654576020366003190112612654576001600160a01b0361323d613618565b165f526007602052602060405f2054604051908152f35b34612654575f366003190112612654576020600454604051908152f35b34612654575f3660031901126126545760206040515f51602061576d5f395f51905f528152f35b34612654576020366003190112612654576020610e37600435613ce6565b6132cd6132c23661387b565b818385969395614614565b916020936132de8560101785614763565b505f8481525f51602061552d5f395f51905f52865260408120805460ff60f01b1916600160f01b1790555b815181101561335d576001906133565f806001600160a01b0361332c8588613cd2565b5116613338858a613cd2565b5190613344868a613cd2565b51918c83519301915af16111cb61458d565b5001613309565b85857f712ae1383f79ac853f8d882153778e0260ef8f03b504e2866e0593e04d2b291f82604051838152a1604051908152f35b34612654576020366003190112612654576001600160a01b036133b1613618565b165f52600660205260405f20805461054d60026001840154930154604051938493846138ea565b34612654576133f360106133ee61114b3661387b565b614763565b50634844252360e11b5f5260045ffd5b346126545760803660031901126126545761341c613618565b5061342561362e565b506064356001600160401b038111612654576134459036906004016136fd565b50604051630a85bd0160e11b8152602090f35b34612654576020366003190112612654576020613476600435613cac565b6040516001600160a01b039091168152f35b34612654575f366003190112612654576040515f5f5160206157cd5f395f51905f52546134b481613b1e565b808452906001811690811561353357506001146134dc575b61054d836123e681850382613689565b5f5160206157cd5f395f51905f525f9081525f51602061554d5f395f51905f52939250905b808210613519575090915081016020016123e66134cc565b919260018160209254838588010152019101909291613501565b60ff191660208086019190915291151560051b840190910191506123e690506134cc565b34612654575f36600319011261265457602063ffffffff5f51602061558d5f395f51905f525460301c16604051908152f35b34612654576020366003190112612654576004359063ffffffff60e01b8216809203612654576020916332a2ad4360e11b81149081156135e3575b81156135d2575b5015158152f35b6301ffc9a760e01b149050836135cb565b630271189760e51b811491506135c4565b805180835260209291819084018484015e5f828201840152601f01601f1916010190565b600435906001600160a01b038216820361265457565b602435906001600160a01b038216820361265457565b604435906001600160a01b038216820361265457565b606081019081106001600160401b0382111761367557604052565b634e487b7160e01b5f52604160045260245ffd5b601f909101601f19168101906001600160401b0382119082101761367557604052565b6001600160401b03811161367557601f01601f191660200190565b9291926136d3826136ac565b916136e16040519384613689565b829481845281830111612654578281602093845f960137010152565b9080601f8301121561265457816020613718933591016136c7565b90565b6001600160401b0381116136755760051b60200190565b9080601f830112156126545781359061374a8261371b565b926137586040519485613689565b82845260208085019360051b82010191821161265457602001915b8183106137805750505090565b82356001600160a01b038116810361265457815260209283019201613773565b9080601f830112156126545781356137b78161371b565b926137c56040519485613689565b81845260208085019260051b82010192831161265457602001905b8282106137ed5750505090565b81358152602091820191016137e0565b9080601f830112156126545781356138148161371b565b926138226040519485613689565b81845260208085019260051b820101918383116126545760208201905b83821061384e57505050505090565b81356001600160401b03811161265457602091613870878480948801016136fd565b81520191019061383f565b6080600319820112612654576004356001600160401b03811161265457816138a591600401613732565b916024356001600160401b03811161265457826138c4916004016137a0565b91604435906001600160401b038211612654576138e3916004016137fd565b9060643590565b6040919493926060820195825260208201520152565b9181601f84011215612654578235916001600160401b038311612654576020838186019501011161265457565b6060600319820112612654576004356001600160a01b0381168103612654579160243591604435906001600160401b0382116126545761396f91600401613900565b9091565b600881101561398157602452565b634e487b7160e01b5f52602160045260245ffd5b9060088210156139815752565b6004359063ffffffff8216820361265457565b6044359063ffffffff8216820361265457565b6024359060ff8216820361265457565b90602080835192838152019201905f5b8181106139f55750505090565b82516001600160a01b03168452602093840193909201916001016139e8565b90602080835192838152019201905f5b818110613a315750505090565b8251845260209384019390920191600101613a24565b90613a5a90604083526040830190613a14565b906020818303910152602080835192838152019201905f5b818110613a7f5750505090565b90919260208082613a936001948851613995565b019401929101613a72565b6060600319820112612654576004359160243560ff811681036126545791604435906001600160401b0382116126545761396f91600401613900565b600c54811015613af257600c5f5260205f2001905f90565b634e487b7160e01b5f52603260045260245ffd5b600b54811015613af257600b5f5260205f2001905f90565b90600182811c92168015613b4c575b6020831014613b3857565b634e487b7160e01b5f52602260045260245ffd5b91607f1691613b2d565b604051905f825f5160206155ad5f395f51905f525491613b7583613b1e565b8083529260018116908115613bf35750600114613b9b575b613b9992500383613689565b565b505f5160206155ad5f395f51905f525f90815290915f5160206156ad5f395f51905f525b818310613bd7575050906020613b9992820101613b8d565b6020919350806001915483858901015201910190918492613bbf565b60209250613b9994915060ff191682840152151560051b820101613b8d565b604051905f825f51602061562d5f395f51905f525491613c3183613b1e565b8083529260018116908115613bf35750600114613c5457613b9992500383613689565b505f51602061562d5f395f51905f525f90815290915f51602061582d5f395f51905f525b818310613c90575050906020613b9992820101613b8d565b6020919350806001915483858901015201910190918492613c78565b5f9081525f51602061552d5f395f51905f5260205260409020546001600160a01b031690565b8051821015613af25760209160051b010190565b5f525f51602061552d5f395f51905f5260205265ffffffffffff60405f205460a01c1690565b15613d1357565b60405162461bcd60e51b815260206004820152600e60248201526d139bc81cdd185ad948199bdd5b9960921b6044820152606490fd5b91908201809211613d5657565b634e487b7160e01b5f52601160045260245ffd5b90816020910312612654575180151581036126545790565b6001600160a01b039091168152602081019190915260400190565b91908203918211613d5657565b6001600160a01b03165f9081526006602090815260408083205460059092529091205461371891613d49565b805f525f51602061552d5f395f51905f5260205260405f205460ff8160f01c16613ee45760f81c613ede57613e0a81613ce6565b8015613ecb5765ffffffffffff421680911015613ec557613e2a8261452e565b10613e355750600190565b805f525f51602061570d5f395f51905f52602052613e6a60405f20613e5983613ce6565b506002600182015491015490613d49565b6802b5e3af16b1880000118015613e9e575b15613e875750600390565b613e9090614508565b613e9957600490565b600590565b50805f525f51602061570d5f395f51905f5260205260405f20600181015490541015613e7c565b50505f90565b50636ad0607560e01b5f5260045260245ffd5b50600290565b5050600790565b908060209392818452848401375f828201840152601f01601f1916010190565b81810292918115918404141715613d5657565b60405190613f2d604083613689565b60018252603160f81b6020830152565b6001600160a01b03165f8181526007602052604090205415613f71575f52600760205261371860405f205460045490613d49565b505f90565b5f198114613d565760010190565b90613f8e8261371b565b613f9b6040519182613689565b8281528092613fac601f199161371b565b0190602036910137565b60088210156139815752565b919092613fcf813361521e565b1561436857600254806142b0575b50613ff081516020830120838686614614565b9383518151908181148015906142a5575b801561429d575b614282575050845f525f51602061552d5f395f51905f5260205265ffffffffffff60405f205460a01c166142595761405e65ffffffffffff5f51602061558d5f395f51905f52541665ffffffffffff4216613d49565b5f51602061558d5f395f51905f52545f8781525f51602061552d5f395f51905f526020526040902080546001600160a01b03191633178155919460309190911c63ffffffff169165ffffffffffff861161424157805463ffffffff841161422957600160a01b600160f01b03191660a087901b65ffffffffffff60a01b161760d084901b63ffffffff60d01b161790558551916140fa8361371b565b926141086040519485613689565b808452614117601f199161371b565b015f5b8181106142185750506141306141629187613d49565b93614154604051988a8a523360208b015261012060408b01526101208a01906139d8565b9088820360608a0152613a14565b8681036080880152825180825260208201916020808360051b8301019501925f915b8383106141eb575050505050926141e5926141cc8388979496887f7d84a6263ae0d98d3329bd7b46bb4e8d6f98cd35a7adb45c274c8b7fd5ebd5e09a980360a08901526145bc565b9260c086015260e08501528382036101008501526135f4565b0390a190565b9091929395602080614209600193601f198682030187528a516135f4565b98019301930191939290614184565b80606060208093880101520161411a565b836306dfcc6560e41b5f52602060045260245260445ffd5b856306dfcc6560e41b5f52603060045260245260445ffd5b6142798561426681613dd6565b906331b75e4d60e01b5f52600452613973565b5f60445260645ffd5b845190630447b05d60e41b5f5260045260245260445260645ffd5b508015614008565b508451811415614001565b65ffffffffffff4281165f190111613d565761433160205f6040516142d58382613689565b52335f5260068152610e3260405f20604080516142f18161365a565b6002835493848352600181015487840152015491829101525f9180614357575b5050335f5260058352600960405f205493335f525260405f205490613d49565b81811061433e5750613fdd565b636121770b60e11b5f523360045260245260445260645ffd5b6143619250613f0b565b5f80614311565b63d9b3955760e01b5f523360045260245ffd5b600f81526e7570646174655374616b654461746160881b602082015260400190565b93909594919260a09360c086526143b660c0870161437b565b97600180871b031660208701526040860152606085015260808401521515910152565b916143f061371894926040855260408501906135f4565b926020818503910152613eeb565b6001549193909290916001600160a01b03169081156144dd576144999461447c60209560018060a01b0381165f526006875261446e60405f209360408051956144468761365a565b8054968781526002600183015492838e840152015492839101526040519687958c870161439d565b03601f198101835282613689565b6040516376fc7a2d60e11b815295869485938493600485016143d9565b03915afa908115612c7e575f916144ae575090565b90506020813d6020116144d5575b816144c960209383613689565b81010312612654575190565b3d91506144bc565b50505050505f90565b604051906144f5604083613689565b6004825263766f746560e01b6020830152565b5f525f51602061552d5f395f51905f5260205265ffffffffffff600160405f2001541690565b805f525f51602061552d5f395f51905f5260205265ffffffffffff60405f205460a01c16905f525f51602061552d5f395f51905f5260205263ffffffff60405f205460d01c160165ffffffffffff8111613d565765ffffffffffff1690565b3d156145b7573d9061459e826136ac565b916145ac6040519384613689565b82523d5f602084013e565b606090565b9080602083519182815201916020808360051b8301019401925f915b8383106145e757505050505090565b9091929394602080614605600193601f1986820301875289516135f4565b970193019301919392906145d8565b92906146759161466161464f9460405195869461463d602087019960808b5260a08801906139d8565b868103601f1901604088015290613a14565b848103601f19016060860152906145bc565b90608083015203601f198101835282613689565b51902090565b601981527834b731b932b6b2b73a23b7bb32b93730b731b2a0b1ba34b7b760391b602082015260400190565b9190916040815260206146bc6040830161467b565b6001600160a01b03909416910152565b600154919290916001600160a01b031680156146fd576144999361446e61447c6020956040519283918883016146a7565b505050505f90565b6001600160a01b03168015614750575f5160206155cd5f395f51905f5280546001600160a01b0319811683179091556001600160a01b03165f51602061572d5f395f51905f525f80a3565b631e4fbdf760e01b5f525f60045260245ffd5b9061476d82613dd6565b9160088310156139815781600160ff85161b161561478a57505090565b6331b75e4d60e01b5f526004526147a082613973565b60445260645ffd5b60025f5160206157ad5f395f51905f5254146147d15760025f5160206157ad5f395f51905f5255565b633ee5aeb560e01b5f5260045ffd5b60015490915f916001600160a01b031680156149a7576001600160a01b0384165f818152600660205260408082208151939761484f93909261446e926148258761365a565b8054968781526002600183015492836020840152015492839101526040519687956020870161439d565b6040516376fc7a2d60e11b8152604060048201526020818061488961487760448301876135f4565b828103600319016024840152886135f4565b0381865afa5f9181614973575b506148a357505050505050565b9283151580614969575b6148ba575b505050505050565b823b156126545761491692614904855f9460405196879586948593636d42e1e360e01b8552606060048601526148f26064860161437b565b858103600319016024870152906135f4565b838103600319016044850152906135f4565b03925af19081614954575b5061492f575b8080806148b2565b5f51602061584d5f395f51905f529160409182519182526020820152a25f8080614927565b6149619193505f90613689565b5f915f614921565b50834710156148ad565b9091506020813d60201161499f575b8161498f60209383613689565b810103126126545751905f614896565b3d9150614982565b50505050565b6001549091906001600160a01b03168015614b335760018060a01b03831692835f526006602052614a1860405f209161446e600160408051956149ef8761365a565b80549687815260028483015492836020840152015492839101526040519687956020870161439d565b6040516376fc7a2d60e11b81526040600482015260208180614a4061487760448301876135f4565b0381865afa5f9181614aff575b50614a59575050505050565b9283151580614af5575b614a6f575b5050505050565b823b1561265457614aa792614904855f9460405196879586948593636d42e1e360e01b8552606060048601526148f26064860161437b565b03925af19081614ae5575b50614ac0575b808080614a68565b60405f51602061584d5f395f51905f5291815190600182526020820152a25f80614ab8565b5f614aef91613689565b5f614ab2565b5083471015614a63565b9091506020813d602011614b2b575b81614b1b60209383613689565b810103126126545751905f614a4d565b3d9150614b0e565b505050565b6001549092906001600160a01b031680156149a75760018060a01b03841693845f526006602052614b7960405f209161446e8660408051956148258761365a565b6040516376fc7a2d60e11b81526040600482015260208180614ba161487760448301876135f4565b0381865afa5f9181614c62575b50614bbb57505050505050565b9283151580614c58575b614bd157505050505050565b823b1561265457614c0992614904855f9460405196879586948593636d42e1e360e01b8552606060048601526148f26064860161437b565b03925af19081614c48575b50614c21578080806148b2565b5f51602061584d5f395f51905f5291604091825191151582526020820152a25f8080614927565b5f614c5291613689565b5f614c14565b5083471015614bc5565b9091506020813d602011614c8e575b81614c7e60209383613689565b810103126126545751905f614bae565b3d9150614c71565b333003614c9f57565b6347096e4760e01b5f523360045260245ffd5b5f5160206155cd5f395f51905f52546001600160a01b03163303614cd257565b63118cdaa760e01b5f523360045260245ffd5b60015490926001600160a01b03909116908115614e2e5760405190614d1f82614d1187602083016146a7565b03601f198101845283613689565b823b1561265457604051636d42e1e360e01b815260606004820152925f92849283918291614d5791614904906148f26064860161467b565b039134905af19081614e1e575b50614dce57505f51602061578d5f395f51905f5260806040519260208452602a60208501527f4661696c656420746f2073656e6420676f7665726e616e636520616374696f6e60408501526920746f2042726964676560b01b606085015260018060a01b031692a2565b614e077f3ab3332381030646b4894519d6c65174858f221d0ed4a69f85b258efa68b75f4916040519182916040835260408301906135f4565b3460208301526001600160a01b03909416930390a2565b5f614e2891613689565b5f614d64565b5050505f51602061578d5f395f51905f5260606040519260208452600e60208501526d109c9a5919d9481b9bdd081cd95d60921b604085015260018060a01b031692a2565b6001600160a01b03165f9081525f5160206156ed5f395f51905f526020526040902080546001810190915590565b604290614eac6154a3565b614eb46154fa565b6040519060208201927f8b73c3c69bb8fe3d512ecc4cf759cc79239f7b179b0ffacaa9a75d522b39400f8452604083015260608201524660808201523060a082015260a08152614f0560c082613689565b519020906040519161190160f01b8352600283015260228201522090565b90614f2e83826152e6565b50600481959295101561398157159384614fdd575b508315614f51575b50505090565b5f93509061446e614f898594936040519283916020830195630b135d3f60e11b875260248401526040604484015260648301906135f4565b51915afa614f9561458d565b81614fcf575b81614faa575b505f8080614f4b565b80516020808301935090820191909103126126545751630b135d3f60e11b145f614fa1565b905060208151101590614f9b565b6001600160a01b0384811691161493505f614f43565b929190346151f6575b615007600285614763565b5061501184613ce6565b5060018060a01b031692835f52600660205261507e60405f20604080516150378161365a565b600283549384835260018101546020840152015491829101525f91806151e5575b5050855f526005602052610e3260405f205491875f52600960205260405f205490613d49565b94815f525f51602061570d5f395f51905f5260205260405f209260038401865f528060205260ff60405f2054166151d2579060ff91875f5260205260405f2060018319825416179055169283155f14615190576150dc878254613d49565b90555b8051615135575061512f7fb8e138887d0aa13bab447e82de9d5c1777041ecd21ca36ba824ff1e6c07ddda493604051938493845260208401528660408401526080606084015260808301906135f4565b0390a290565b61512f906151827fe2babfbac5889a709b63bb7f598b324e08bc5a4fb9ec647fb3cbc9ec07eb8712956040519586958652602086015288604086015260a0606086015260a08501906135f4565b9083820360808501526135f4565b600184036151ad576001016151a6878254613d49565b90556150df565b600284036151c3576002016151a6878254613d49565b6303599be160e11b5f5260045ffd5b866371c6af4960e01b5f5260045260245ffd5b6151ef9250613f0b565b5f80615058565b6152196152016144e6565b60405190615210602083613689565b5f825283614ce5565b614ffc565b8151603481106152d15760131981840101516001600160a01b0319166b1b91f1b211f2119351b859f160a31b016152d1575f926027198201828111613d565791905b81831061527b575050506001600160a01b0391821691161490565b9091938151851015613af257818501602001516152a1906001600160f81b031916615320565b9190156152c65760041b6010600160a01b031660ff9190911617936001019190615260565b505050505050600190565b505050600190565b909190613b99575061539d565b81519190604183036153165761530f9250602082015190606060408401519301515f1a906153e6565b9192909190565b50505f9160029190565b60f81c9081602f1080615393575b1561534057600191602f190160ff1690565b8160401080615389575b1561535c576001916036190160ff1690565b816060108061537f575b15615378576001916056190160ff1690565b5f91508190565b5060678210615366565b506047821061534a565b50603a821061532e565b8051156153ac57805190602001fd5b630a12f52160e11b5f5260045ffd5b60ff5f5160206157ed5f395f51905f525460401c16156153d757565b631afcd79f60e31b5f5260045ffd5b91906fa2a8918ca85bafe22016d0b997e4df60600160ff1b038411615453579160209360809260ff5f9560405194855216868401526040830152606082015282805260015afa15612c7e575f516001600160a01b0381161561544957905f905f90565b505f906001905f90565b5050505f9160039190565b90615469575061539d565b8151158061549a575b61547a575090565b639996b31560e01b5f9081526001600160a01b0391909116600452602490fd5b50803b15615472565b6154ab613b56565b80519081156154bb576020012090565b50505f51602061564d5f395f51905f525480156154d55790565b507fc5d2460186f7233c927e7db2dcc703c0e500b653ca82273b7bfad8045d85a47090565b615502613c12565b8051908115615512576020012090565b50505f51602061580d5f395f51905f525480156154d5579056fe7c712897014dbe49c045ef1299aa2d5f9e67e48eea4403efa21f1e0f3ac0cb01da13dda7583a39a3cd73e8830529c760837228fa4683752c823b17e10548aad5ccb45da8d5717e6c4544694297c4ba5cf151d455c9bb0ed4fc7a38411bc0546100d7616c8fe29c6c2fbe1d0c5bc8f2faa4c35b43746e70b24b4d532752affd01a16a46d94261c7517cc8ff89f61c0ce93598e3c849801011dee649a6a557d1029016d09d72d40fdae2fd8ceac6b6234c7706214fd39c1cd1e609a0528c199300f2aad550cf55f045cb27e9c559f9889fdfb6e6cdaa032301d6ea397784ae51d7c565b045403dc03c2eea82b81a0465edad9e2e7fc4d97e11421c209da93d7a93a16a46d94261c7517cc8ff89f61c0ce93598e3c849801011dee649a6a557d103a16a46d94261c7517cc8ff89f61c0ce93598e3c849801011dee649a6a557d100bc563de8c41ac66a7038e5cdcc313d786622bb5a46f1f62d154e52c7fd363d6800d7616c8fe29c6c2fbe1d0c5bc8f2faa4c35b43746e70b24b4d532752affd0042ad5d3e1f2e6e70edcf6d991b8a3023d3fca8047a131592f9edb9fd9b89d57d360894a13ba1a3210667c828492db98dca3e2076cc3735a920a3ca505d382bbc5ab42ced628888259c08ac98db1eb0cf702fc1501344311d8b100cd1bfe4bb00a1cefa0f43667ef127a258e673c94202a79b656e62899531c4376d87a7f398008be0079c531659141344cd1fd0a4f28419497f9722a3daafe3b4186f6b6457e07e3f7f0708a84de9203036abaa450dccc85ad5ff52f78c170f3edb55cf5e88283e83946653575f9a39005e1545185629e92736b7528ab20ca3816f315424a81146ecbc801ccac6a4acdd3233ab8c2d559a72d3e616fcfef07b134ee00a1701729b779b17422d0df92223018b32b4d1fa46e071723d6817e2486d003becc55f007c712897014dbe49c045ef1299aa2d5f9e67e48eea4403efa21f1e0f3ac0cb00f0c57e16840df040f15088dc2f81fe391c3923bec73e23a9662efc9c229c6a00a16a46d94261c7517cc8ff89f61c0ce93598e3c849801011dee649a6a557d1015f9ce34815f8e11431c7bb75a8e6886a91478f7ffc1dbb0a98dc240fddd76b75ebf541de409c6ebac8fa4dbf2e5d240088f13b22880b1484b7e85cc1d577ef61a2646970667358221220487945d129ad00c9e2f2294d9257060da1b536c7b637ac47140c73195130355d64736f6c63430008210033f0c57e16840df040f15088dc2f81fe391c3923bec73e23a9662efc9c229c6a00","linkReferences":{}},"methodIdentifiers":{"BALLOT_TYPEHASH()":"deaaa7cc","CLOCK_MODE()":"4bf5d7e9","COUNTING_MODE()":"dd4e2ba5","EXTENDED_BALLOT_TYPEHASH()":"2fe3e261","MIN_STAKE()":"cb1c2b5c","UPGRADE_INTERFACE_VERSION()":"ad3cb1cc","allStakers(uint256)":"c3214d6c","bridge()":"e78cea92","cancel(address[],uint256[],bytes[],bytes32)":"452115d6","castVote(uint256,uint8)":"56781388","castVote(uint256,uint8,bytes)":"9d36475b","castVoteBySig(uint256,uint8,address,bytes)":"8ff262e3","castVoteWithReason(uint256,uint8,string)":"7b3c71d3","castVoteWithReasonAndParams(uint256,uint8,string,bytes)":"5f398a14","castVoteWithReasonAndParamsBySig(uint256,uint8,address,string,bytes,bytes)":"5b8d0e0d","chainId()":"9a8a0592","clock()":"91ddadf4","delegate(address)":"5c19a95c","delegatedVotingPower(address)":"f9a5c639","delegates(address)":"587cde1e","eip712Domain()":"84b0196e","emergencyWithdrawTokens(uint256)":"3e6df504","execute(address[],uint256[],bytes[],bytes32)":"2656227d","getActiveProposalIds()":"71a1aea7","getAllProposalIds()":"efa90d36","getAllStakers()":"6e4f88c8","getCombinedGovernancePower(address)":"3c9838ef","getGovernanceEligibility(address)":"d052ca85","getProposalCount()":"c08cc02d","getStakerInfo(address)":"733bdef0","getUnstakeAvailableTime(address)":"701ea6de","getVotes(address,uint256)":"eb9019d4","getVotesWithParams(address,uint256,bytes)":"9a802a6d","getVotingPower(address)":"bb4d4436","handleSyncVotingPower(address,uint256,uint32)":"78f924a6","hasVoted(uint256,address)":"43859632","hashProposal(address[],uint256[],bytes[],bytes32)":"c59057e4","initialize(address,address,uint32,address)":"ed1f2668","isStaker(address)":"6f1e8533","name()":"06fdde03","nonces(address)":"7ecebe00","onERC1155BatchReceived(address,address,uint256[],uint256[],bytes)":"bc197c81","onERC1155Received(address,address,uint256,uint256,bytes)":"f23a6e61","onERC721Received(address,address,uint256,bytes)":"150b7a02","openworkToken()":"a89fd082","owner()":"8da5cb5b","proposalDeadline(uint256)":"c01f9e37","proposalEta(uint256)":"ab58fb8e","proposalIds(uint256)":"9b644a23","proposalNeedsQueuing(uint256)":"a9a95294","proposalProposer(uint256)":"143489d0","proposalSnapshot(uint256)":"2d63f693","proposalThreshold()":"b58131b0","proposalThresholdAmount()":"e1582a7f","proposalVotes(uint256)":"544ffc9c","propose(address[],uint256[],bytes[],string)":"7d5e81e2","propose(address[],uint256[],bytes[],string,bytes)":"59e49815","proxiableUUID()":"52d1902d","queue(address[],uint256[],bytes[],bytes32)":"160cbed7","quorum(uint256)":"f8ce560a","quoteGovernanceNotification(address,bytes)":"df7cda6d","quoteStakeUpdate(address,bool,bytes)":"8bd7e1fa","relay(address,uint256,bytes)":"c28bc2fa","removeStake(address,uint256,bytes)":"3c502fbc","renounceOwnership()":"715018a6","setBridge(address)":"8dd14802","setProposalThreshold(uint256)":"ece40cc1","setVotingDelay(uint48)":"79051887","setVotingPeriod(uint32)":"e540d01d","stake(uint256,uint256,bytes)":"48c35d46","stakes(address)":"16934fc4","state(uint256)":"3e4f49e6","supportsInterface(bytes4)":"01ffc9a7","transferOwnership(address)":"f2fde38b","unstake(bytes)":"3c3653e2","unstakeDelay()":"3222012f","unstakeRequestTime(address)":"3890b152","updateProposalThreshold(uint256)":"57ad6279","updateUnstakeDelay(uint256)":"80821398","updateVotingThreshold(uint256)":"6e3cfd42","upgradeContract(uint32,address,address,bytes)":"40f53c47","upgradeToAndCall(address,bytes)":"4f1ef286","userTotalRewards(address)":"f6a3f3cf","version()":"54fd4d50","votingDelay()":"3932abb1","votingPeriod()":"02a251a3","votingThresholdAmount()":"a4683060","withdraw()":"3ccfd60b"},"id":80}