{"abi":[{"type":"constructor","inputs":[],"stateMutability":"nonpayable"},{"type":"function","name":"UPGRADE_INTERFACE_VERSION","inputs":[],"outputs":[{"name":"","type":"string","internalType":"string"}],"stateMutability":"view"},{"type":"function","name":"accumulatedCommission","inputs":[],"outputs":[{"name":"","type":"uint256","internalType":"uint256"}],"stateMutability":"view"},{"type":"function","name":"addAuthorizedContract","inputs":[{"name":"contractAddress","type":"address","internalType":"address"}],"outputs":[],"stateMutability":"nonpayable"},{"type":"function","name":"applyToJob","inputs":[{"name":"_applicant","type":"address","internalType":"address"},{"name":"_jobId","type":"string","internalType":"string"},{"name":"_applicationHash","type":"string","internalType":"string"},{"name":"_descriptions","type":"string[]","internalType":"string[]"},{"name":"_amounts","type":"uint256[]","internalType":"uint256[]"},{"name":"_preferredChainDomain","type":"uint32","internalType":"uint32"}],"outputs":[],"stateMutability":"nonpayable"},{"type":"function","name":"authorizedContracts","inputs":[{"name":"","type":"address","internalType":"address"}],"outputs":[{"name":"","type":"bool","internalType":"bool"}],"stateMutability":"view"},{"type":"function","name":"batchAddAuthorizedContracts","inputs":[{"name":"contracts","type":"address[]","internalType":"address[]"}],"outputs":[],"stateMutability":"nonpayable"},{"type":"function","name":"bridge","inputs":[],"outputs":[{"name":"","type":"address","internalType":"address"}],"stateMutability":"view"},{"type":"function","name":"calculateCommission","inputs":[{"name":"amount","type":"uint256","internalType":"uint256"}],"outputs":[{"name":"","type":"uint256","internalType":"uint256"}],"stateMutability":"view"},{"type":"function","name":"calculateTokensForAmount","inputs":[{"name":"","type":"address","internalType":"address"},{"name":"additionalAmount","type":"uint256","internalType":"uint256"}],"outputs":[{"name":"","type":"uint256","internalType":"uint256"}],"stateMutability":"view"},{"type":"function","name":"cctpReceiver","inputs":[],"outputs":[{"name":"","type":"address","internalType":"address"}],"stateMutability":"view"},{"type":"function","name":"cctpTransceiver","inputs":[],"outputs":[{"name":"","type":"address","internalType":"address"}],"stateMutability":"view"},{"type":"function","name":"commissionPercentage","inputs":[],"outputs":[{"name":"","type":"uint256","internalType":"uint256"}],"stateMutability":"view"},{"type":"function","name":"createProfile","inputs":[{"name":"","type":"address","internalType":"address"},{"name":"","type":"string","internalType":"string"},{"name":"","type":"address","internalType":"address"}],"outputs":[],"stateMutability":"nonpayable"},{"type":"function","name":"genesis","inputs":[],"outputs":[{"name":"","type":"address","internalType":"contract IOpenworkGenesis"}],"stateMutability":"view"},{"type":"function","name":"getJob","inputs":[{"name":"_jobId","type":"string","internalType":"string"}],"outputs":[{"name":"","type":"tuple","internalType":"struct NativeOpenWorkJobContract.Job","components":[{"name":"id","type":"string","internalType":"string"},{"name":"jobGiver","type":"address","internalType":"address"},{"name":"applicants","type":"address[]","internalType":"address[]"},{"name":"jobDetailHash","type":"string","internalType":"string"},{"name":"status","type":"uint8","internalType":"enum NativeOpenWorkJobContract.JobStatus"},{"name":"workSubmissions","type":"string[]","internalType":"string[]"},{"name":"milestonePayments","type":"tuple[]","internalType":"struct NativeOpenWorkJobContract.MilestonePayment[]","components":[{"name":"descriptionHash","type":"string","internalType":"string"},{"name":"amount","type":"uint256","internalType":"uint256"}]},{"name":"finalMilestones","type":"tuple[]","internalType":"struct NativeOpenWorkJobContract.MilestonePayment[]","components":[{"name":"descriptionHash","type":"string","internalType":"string"},{"name":"amount","type":"uint256","internalType":"uint256"}]},{"name":"totalPaid","type":"uint256","internalType":"uint256"},{"name":"currentMilestone","type":"uint256","internalType":"uint256"},{"name":"selectedApplicant","type":"address","internalType":"address"},{"name":"selectedApplicationId","type":"uint256","internalType":"uint256"}]}],"stateMutability":"view"},{"type":"function","name":"getUserEarnedTokens","inputs":[{"name":"user","type":"address","internalType":"address"}],"outputs":[{"name":"","type":"uint256","internalType":"uint256"}],"stateMutability":"view"},{"type":"function","name":"getUserGovernanceActions","inputs":[{"name":"user","type":"address","internalType":"address"}],"outputs":[{"name":"","type":"uint256","internalType":"uint256"}],"stateMutability":"view"},{"type":"function","name":"getUserGovernanceActionsInBand","inputs":[{"name":"user","type":"address","internalType":"address"},{"name":"band","type":"uint256","internalType":"uint256"}],"outputs":[{"name":"","type":"uint256","internalType":"uint256"}],"stateMutability":"view"},{"type":"function","name":"getUserRewardInfo","inputs":[{"name":"user","type":"address","internalType":"address"}],"outputs":[{"name":"totalTokens","type":"uint256","internalType":"uint256"},{"name":"governanceActions","type":"uint256","internalType":"uint256"}],"stateMutability":"view"},{"type":"function","name":"handleReleasePaymentCrossChain","inputs":[{"name":"_jobGiver","type":"address","internalType":"address"},{"name":"_jobId","type":"string","internalType":"string"},{"name":"_amount","type":"uint256","internalType":"uint256"},{"name":"_targetChainDomain","type":"uint32","internalType":"uint32"},{"name":"_targetRecipient","type":"address","internalType":"address"}],"outputs":[],"stateMutability":"nonpayable"},{"type":"function","name":"handleStartDirectContract","inputs":[{"name":"_jobGiver","type":"address","internalType":"address"},{"name":"_jobTaker","type":"address","internalType":"address"},{"name":"_jobId","type":"string","internalType":"string"},{"name":"_jobDetailHash","type":"string","internalType":"string"},{"name":"_descriptions","type":"string[]","internalType":"string[]"},{"name":"_amounts","type":"uint256[]","internalType":"uint256[]"},{"name":"_jobTakerChainDomain","type":"uint32","internalType":"uint32"}],"outputs":[],"stateMutability":"nonpayable"},{"type":"function","name":"handleUpdateUserClaimData","inputs":[{"name":"user","type":"address","internalType":"address"},{"name":"claimedTokens","type":"uint256","internalType":"uint256"}],"outputs":[],"stateMutability":"nonpayable"},{"type":"function","name":"incrementGovernanceAction","inputs":[{"name":"user","type":"address","internalType":"address"}],"outputs":[],"stateMutability":"nonpayable"},{"type":"function","name":"initialize","inputs":[{"name":"_owner","type":"address","internalType":"address"},{"name":"_bridge","type":"address","internalType":"address"},{"name":"_genesis","type":"address","internalType":"address"},{"name":"_rewardsContract","type":"address","internalType":"address"},{"name":"_usdtToken","type":"address","internalType":"address"},{"name":"_cctpReceiver","type":"address","internalType":"address"}],"outputs":[],"stateMutability":"nonpayable"},{"type":"function","name":"isAuthorizedContract","inputs":[{"name":"contractAddress","type":"address","internalType":"address"}],"outputs":[{"name":"","type":"bool","internalType":"bool"}],"stateMutability":"view"},{"type":"function","name":"jobApplicantChainDomain","inputs":[{"name":"","type":"string","internalType":"string"},{"name":"","type":"address","internalType":"address"}],"outputs":[{"name":"","type":"uint32","internalType":"uint32"}],"stateMutability":"view"},{"type":"function","name":"lockNextMilestone","inputs":[{"name":"","type":"address","internalType":"address"},{"name":"_jobId","type":"string","internalType":"string"},{"name":"_lockedAmount","type":"uint256","internalType":"uint256"}],"outputs":[],"stateMutability":"nonpayable"},{"type":"function","name":"minCommission","inputs":[],"outputs":[{"name":"","type":"uint256","internalType":"uint256"}],"stateMutability":"view"},{"type":"function","name":"nativeAthena","inputs":[],"outputs":[{"name":"","type":"address","internalType":"address"}],"stateMutability":"view"},{"type":"function","name":"owner","inputs":[],"outputs":[{"name":"","type":"address","internalType":"address"}],"stateMutability":"view"},{"type":"function","name":"postJob","inputs":[{"name":"_jobId","type":"string","internalType":"string"},{"name":"_jobGiver","type":"address","internalType":"address"},{"name":"_jobDetailHash","type":"string","internalType":"string"},{"name":"_descriptions","type":"string[]","internalType":"string[]"},{"name":"_amounts","type":"uint256[]","internalType":"uint256[]"}],"outputs":[],"stateMutability":"nonpayable"},{"type":"function","name":"proxiableUUID","inputs":[],"outputs":[{"name":"","type":"bytes32","internalType":"bytes32"}],"stateMutability":"view"},{"type":"function","name":"rate","inputs":[{"name":"_rater","type":"address","internalType":"address"},{"name":"_jobId","type":"string","internalType":"string"},{"name":"_userToRate","type":"address","internalType":"address"},{"name":"_rating","type":"uint256","internalType":"uint256"}],"outputs":[],"stateMutability":"nonpayable"},{"type":"function","name":"releaseDisputedFunds","inputs":[{"name":"_recipient","type":"address","internalType":"address"},{"name":"_amount","type":"uint256","internalType":"uint256"},{"name":"_targetChainDomain","type":"uint32","internalType":"uint32"}],"outputs":[],"stateMutability":"nonpayable"},{"type":"function","name":"releasePayment","inputs":[{"name":"_jobId","type":"string","internalType":"string"}],"outputs":[],"stateMutability":"nonpayable"},{"type":"function","name":"releasePaymentAndLockNext","inputs":[{"name":"_jobGiver","type":"address","internalType":"address"},{"name":"_jobId","type":"string","internalType":"string"},{"name":"_releasedAmount","type":"uint256","internalType":"uint256"},{"name":"_lockedAmount","type":"uint256","internalType":"uint256"}],"outputs":[],"stateMutability":"nonpayable"},{"type":"function","name":"releasePaymentCrossChain","inputs":[{"name":"_jobGiver","type":"address","internalType":"address"},{"name":"_jobId","type":"string","internalType":"string"},{"name":"_amount","type":"uint256","internalType":"uint256"},{"name":"_targetChainDomain","type":"uint32","internalType":"uint32"},{"name":"_targetRecipient","type":"address","internalType":"address"}],"outputs":[],"stateMutability":"nonpayable"},{"type":"function","name":"removeAuthorizedContract","inputs":[{"name":"contractAddress","type":"address","internalType":"address"}],"outputs":[],"stateMutability":"nonpayable"},{"type":"function","name":"renounceOwnership","inputs":[],"outputs":[],"stateMutability":"nonpayable"},{"type":"function","name":"rewardsContract","inputs":[],"outputs":[{"name":"","type":"address","internalType":"contract IOpenWorkRewards"}],"stateMutability":"view"},{"type":"function","name":"setApplicantChainDomain","inputs":[{"name":"_jobId","type":"string","internalType":"string"},{"name":"_applicant","type":"address","internalType":"address"},{"name":"_chainDomain","type":"uint32","internalType":"uint32"}],"outputs":[],"stateMutability":"nonpayable"},{"type":"function","name":"setBridge","inputs":[{"name":"_bridge","type":"address","internalType":"address"}],"outputs":[],"stateMutability":"nonpayable"},{"type":"function","name":"setCCTPReceiver","inputs":[{"name":"_cctpReceiver","type":"address","internalType":"address"}],"outputs":[],"stateMutability":"nonpayable"},{"type":"function","name":"setCCTPTransceiver","inputs":[{"name":"_cctpTransceiver","type":"address","internalType":"address"}],"outputs":[],"stateMutability":"nonpayable"},{"type":"function","name":"setCommissionPercentage","inputs":[{"name":"_percentage","type":"uint256","internalType":"uint256"}],"outputs":[],"stateMutability":"nonpayable"},{"type":"function","name":"setGenesis","inputs":[{"name":"_genesis","type":"address","internalType":"address"}],"outputs":[],"stateMutability":"nonpayable"},{"type":"function","name":"setMinCommission","inputs":[{"name":"_minCommission","type":"uint256","internalType":"uint256"}],"outputs":[],"stateMutability":"nonpayable"},{"type":"function","name":"setNativeAthena","inputs":[{"name":"_nativeAthena","type":"address","internalType":"address"}],"outputs":[],"stateMutability":"nonpayable"},{"type":"function","name":"setRewardsContract","inputs":[{"name":"_rewardsContract","type":"address","internalType":"address"}],"outputs":[],"stateMutability":"nonpayable"},{"type":"function","name":"setTreasury","inputs":[{"name":"_treasury","type":"address","internalType":"address"}],"outputs":[],"stateMutability":"nonpayable"},{"type":"function","name":"setUSDTToken","inputs":[{"name":"_newToken","type":"address","internalType":"address"}],"outputs":[],"stateMutability":"nonpayable"},{"type":"function","name":"startJob","inputs":[{"name":"","type":"address","internalType":"address"},{"name":"_jobId","type":"string","internalType":"string"},{"name":"_applicationId","type":"uint256","internalType":"uint256"},{"name":"_useApplicantMilestones","type":"bool","internalType":"bool"}],"outputs":[],"stateMutability":"nonpayable"},{"type":"function","name":"submitWork","inputs":[{"name":"_applicant","type":"address","internalType":"address"},{"name":"_jobId","type":"string","internalType":"string"},{"name":"_submissionHash","type":"string","internalType":"string"}],"outputs":[],"stateMutability":"nonpayable"},{"type":"function","name":"syncRewardsData","inputs":[{"name":"_options","type":"bytes","internalType":"bytes"}],"outputs":[],"stateMutability":"payable"},{"type":"function","name":"syncVotingPower","inputs":[{"name":"_options","type":"bytes","internalType":"bytes"}],"outputs":[],"stateMutability":"payable"},{"type":"function","name":"transferOwnership","inputs":[{"name":"newOwner","type":"address","internalType":"address"}],"outputs":[],"stateMutability":"nonpayable"},{"type":"function","name":"treasury","inputs":[],"outputs":[{"name":"","type":"address","internalType":"address"}],"stateMutability":"view"},{"type":"function","name":"upgradeFromDAO","inputs":[{"name":"newImplementation","type":"address","internalType":"address"}],"outputs":[],"stateMutability":"nonpayable"},{"type":"function","name":"upgradeToAndCall","inputs":[{"name":"newImplementation","type":"address","internalType":"address"},{"name":"data","type":"bytes","internalType":"bytes"}],"outputs":[],"stateMutability":"payable"},{"type":"function","name":"usdtToken","inputs":[],"outputs":[{"name":"","type":"address","internalType":"contract IERC20"}],"stateMutability":"view"},{"type":"function","name":"withdrawAllCommission","inputs":[],"outputs":[],"stateMutability":"nonpayable"},{"type":"function","name":"withdrawCommission","inputs":[{"name":"amount","type":"uint256","internalType":"uint256"}],"outputs":[],"stateMutability":"nonpayable"},{"type":"event","name":"AuthorizedContractAdded","inputs":[{"name":"contractAddress","type":"address","indexed":true,"internalType":"address"}],"anonymous":false},{"type":"event","name":"AuthorizedContractRemoved","inputs":[{"name":"contractAddress","type":"address","indexed":true,"internalType":"address"}],"anonymous":false},{"type":"event","name":"BridgeUpdated","inputs":[{"name":"oldBridge","type":"address","indexed":true,"internalType":"address"},{"name":"newBridge","type":"address","indexed":true,"internalType":"address"}],"anonymous":false},{"type":"event","name":"ClaimDataUpdated","inputs":[{"name":"user","type":"address","indexed":true,"internalType":"address"},{"name":"claimedJobTokens","type":"uint256","indexed":false,"internalType":"uint256"},{"name":"claimedGovernanceTokens","type":"uint256","indexed":false,"internalType":"uint256"}],"anonymous":false},{"type":"event","name":"CommissionDeducted","inputs":[{"name":"jobId","type":"string","indexed":true,"internalType":"string"},{"name":"grossAmount","type":"uint256","indexed":false,"internalType":"uint256"},{"name":"commission","type":"uint256","indexed":false,"internalType":"uint256"},{"name":"netAmount","type":"uint256","indexed":false,"internalType":"uint256"}],"anonymous":false},{"type":"event","name":"CommissionPercentageUpdated","inputs":[{"name":"oldPercentage","type":"uint256","indexed":false,"internalType":"uint256"},{"name":"newPercentage","type":"uint256","indexed":false,"internalType":"uint256"}],"anonymous":false},{"type":"event","name":"CommissionWithdrawn","inputs":[{"name":"treasury","type":"address","indexed":true,"internalType":"address"},{"name":"amount","type":"uint256","indexed":false,"internalType":"uint256"}],"anonymous":false},{"type":"event","name":"DisputedFundsReleased","inputs":[{"name":"jobId","type":"string","indexed":true,"internalType":"string"},{"name":"winner","type":"address","indexed":true,"internalType":"address"},{"name":"winnerChainDomain","type":"uint32","indexed":false,"internalType":"uint32"},{"name":"amount","type":"uint256","indexed":false,"internalType":"uint256"}],"anonymous":false},{"type":"event","name":"GenesisUpdated","inputs":[{"name":"oldGenesis","type":"address","indexed":true,"internalType":"address"},{"name":"newGenesis","type":"address","indexed":true,"internalType":"address"}],"anonymous":false},{"type":"event","name":"GovernanceActionIncremented","inputs":[{"name":"user","type":"address","indexed":true,"internalType":"address"},{"name":"newGovernanceActionCount","type":"uint256","indexed":false,"internalType":"uint256"},{"name":"band","type":"uint256","indexed":true,"internalType":"uint256"}],"anonymous":false},{"type":"event","name":"Initialized","inputs":[{"name":"version","type":"uint64","indexed":false,"internalType":"uint64"}],"anonymous":false},{"type":"event","name":"JobApplication","inputs":[{"name":"jobId","type":"string","indexed":true,"internalType":"string"},{"name":"applicationId","type":"uint256","indexed":true,"internalType":"uint256"},{"name":"applicant","type":"address","indexed":true,"internalType":"address"},{"name":"applicationHash","type":"string","indexed":false,"internalType":"string"}],"anonymous":false},{"type":"event","name":"JobPosted","inputs":[{"name":"jobId","type":"string","indexed":true,"internalType":"string"},{"name":"jobGiver","type":"address","indexed":true,"internalType":"address"},{"name":"jobDetailHash","type":"string","indexed":false,"internalType":"string"}],"anonymous":false},{"type":"event","name":"JobStarted","inputs":[{"name":"jobId","type":"string","indexed":true,"internalType":"string"},{"name":"applicationId","type":"uint256","indexed":true,"internalType":"uint256"},{"name":"selectedApplicant","type":"address","indexed":true,"internalType":"address"},{"name":"useApplicantMilestones","type":"bool","indexed":false,"internalType":"bool"}],"anonymous":false},{"type":"event","name":"JobStatusChanged","inputs":[{"name":"jobId","type":"string","indexed":true,"internalType":"string"},{"name":"newStatus","type":"uint8","indexed":false,"internalType":"enum NativeOpenWorkJobContract.JobStatus"}],"anonymous":false},{"type":"event","name":"MilestoneLocked","inputs":[{"name":"jobId","type":"string","indexed":true,"internalType":"string"},{"name":"newMilestone","type":"uint256","indexed":false,"internalType":"uint256"},{"name":"lockedAmount","type":"uint256","indexed":false,"internalType":"uint256"}],"anonymous":false},{"type":"event","name":"MinCommissionUpdated","inputs":[{"name":"oldMin","type":"uint256","indexed":false,"internalType":"uint256"},{"name":"newMin","type":"uint256","indexed":false,"internalType":"uint256"}],"anonymous":false},{"type":"event","name":"NativeAthenaUpdated","inputs":[{"name":"oldNativeAthena","type":"address","indexed":true,"internalType":"address"},{"name":"newNativeAthena","type":"address","indexed":true,"internalType":"address"}],"anonymous":false},{"type":"event","name":"OwnershipTransferred","inputs":[{"name":"previousOwner","type":"address","indexed":true,"internalType":"address"},{"name":"newOwner","type":"address","indexed":true,"internalType":"address"}],"anonymous":false},{"type":"event","name":"PaymentReleased","inputs":[{"name":"jobId","type":"string","indexed":true,"internalType":"string"},{"name":"jobGiver","type":"address","indexed":true,"internalType":"address"},{"name":"applicant","type":"address","indexed":true,"internalType":"address"},{"name":"amount","type":"uint256","indexed":false,"internalType":"uint256"},{"name":"milestone","type":"uint256","indexed":false,"internalType":"uint256"}],"anonymous":false},{"type":"event","name":"PaymentReleasedAndNextMilestoneLocked","inputs":[{"name":"jobId","type":"string","indexed":true,"internalType":"string"},{"name":"releasedAmount","type":"uint256","indexed":false,"internalType":"uint256"},{"name":"lockedAmount","type":"uint256","indexed":false,"internalType":"uint256"},{"name":"milestone","type":"uint256","indexed":false,"internalType":"uint256"}],"anonymous":false},{"type":"event","name":"RewardsContractUpdated","inputs":[{"name":"oldRewards","type":"address","indexed":true,"internalType":"address"},{"name":"newRewards","type":"address","indexed":true,"internalType":"address"}],"anonymous":false},{"type":"event","name":"RewardsDataSynced","inputs":[{"name":"user","type":"address","indexed":true,"internalType":"address"},{"name":"syncType","type":"uint256","indexed":false,"internalType":"uint256"},{"name":"claimableAmount","type":"uint256","indexed":false,"internalType":"uint256"},{"name":"reserved","type":"uint256","indexed":false,"internalType":"uint256"}],"anonymous":false},{"type":"event","name":"TokensEarned","inputs":[{"name":"user","type":"address","indexed":true,"internalType":"address"},{"name":"tokensEarned","type":"uint256","indexed":false,"internalType":"uint256"},{"name":"newPlatformTotal","type":"uint256","indexed":false,"internalType":"uint256"},{"name":"newUserTotalTokens","type":"uint256","indexed":false,"internalType":"uint256"}],"anonymous":false},{"type":"event","name":"TreasuryUpdated","inputs":[{"name":"oldTreasury","type":"address","indexed":true,"internalType":"address"},{"name":"newTreasury","type":"address","indexed":true,"internalType":"address"}],"anonymous":false},{"type":"event","name":"Upgraded","inputs":[{"name":"implementation","type":"address","indexed":true,"internalType":"address"}],"anonymous":false},{"type":"event","name":"UserRated","inputs":[{"name":"jobId","type":"string","indexed":true,"internalType":"string"},{"name":"rater","type":"address","indexed":true,"internalType":"address"},{"name":"rated","type":"address","indexed":true,"internalType":"address"},{"name":"rating","type":"uint256","indexed":false,"internalType":"uint256"}],"anonymous":false},{"type":"event","name":"WorkSubmitted","inputs":[{"name":"jobId","type":"string","indexed":true,"internalType":"string"},{"name":"applicant","type":"address","indexed":true,"internalType":"address"},{"name":"submissionHash","type":"string","indexed":false,"internalType":"string"},{"name":"milestone","type":"uint256","indexed":false,"internalType":"uint256"}],"anonymous":false},{"type":"error","name":"AddressEmptyCode","inputs":[{"name":"target","type":"address","internalType":"address"}]},{"type":"error","name":"AddressInsufficientBalance","inputs":[{"name":"account","type":"address","internalType":"address"}]},{"type":"error","name":"ERC1967InvalidImplementation","inputs":[{"name":"implementation","type":"address","internalType":"address"}]},{"type":"error","name":"ERC1967NonPayable","inputs":[]},{"type":"error","name":"FailedInnerCall","inputs":[]},{"type":"error","name":"InvalidInitialization","inputs":[]},{"type":"error","name":"NotInitializing","inputs":[]},{"type":"error","name":"OwnableInvalidOwner","inputs":[{"name":"owner","type":"address","internalType":"address"}]},{"type":"error","name":"OwnableUnauthorizedAccount","inputs":[{"name":"account","type":"address","internalType":"address"}]},{"type":"error","name":"SafeERC20FailedOperation","inputs":[{"name":"token","type":"address","internalType":"address"}]},{"type":"error","name":"UUPSUnauthorizedCallContext","inputs":[]},{"type":"error","name":"UUPSUnsupportedProxiableUUID","inputs":[{"name":"slot","type":"bytes32","internalType":"bytes32"}]}],"bytecode":{"object":"0x60a080604052346100d557306080526064600d55620f4240600e555f516020615eac5f395f51905f525460ff8160401c166100c6576002600160401b03196001600160401b03821601610073575b604051615dd290816100da8239608051818181612d7601528181612e1a01526132af0152f35b6001600160401b0319166001600160401b039081175f516020615eac5f395f51905f525581527fc7f505b2f371ae2175ee4913f4499e1f2633a7b5936321eed1cdaeb6115181d290602090a15f8061004d565b63f92ee8a960e01b5f5260045ffd5b5f80fdfe60806040526004361015610011575f80fd5b5f5f3560e01c806309d6667e14613d565780631277bbf81461386e57806317face84146137ca578063220cce97146137a157806323dc878c1461377857806329f8d96d14613700578063301f82571461350057806339b87c8f1461347157806340634e3b1461325f57806342b0f652146130825780634efac43f146130175780634f1ef28614612dca57806352d1902d14612d635780635843905f14612d3f5780636009b51f1461270e57806361d027b3146126e557806366d0ead314610d9b57806366e226bd1461269857806369517310146126685780636a23a98a1461242d5780636c2db78f14612404578063715018a6146123ae57806377e324071461207c578063859705a814611f5257806387e821d614611e285780638da5cb5b14611df35780638dd1480214611d8857806394928b8414611d6057806398eaa4a714611cff57806399f426be14611b185780639abcbbe814611a2e578063a6b1609614611435578063a7f0b3de1461140e578063a98ad46c146113e5578063ad3cb1cc14611398578063ae6936731461137a578063b9acee1d14611234578063ba245963146110a7578063c088797b1461100b578063cc2a9a5b14610e17578063ce9b432114610df8578063d575fe6414610dda578063d5b9221b14610d9b578063d6e3c76a14610d4e578063d819aea414610d33578063d888cc2714610cd7578063dc209f1314610cae578063de8fd3af14610c58578063dfa0dfa514610bed578063e4a9d8ee14610ba0578063e4e2a85614610b70578063e6b165ed14610b0a578063e78cea9214610ae1578063e848635514610ab9578063eb14b35314610a52578063eca688ea14610a34578063f0f4426014610987578063f14db7831461095b578063f27bf0bf1461089c578063f2fde38b1461086f578063f4f5d3c7146106aa5763fc5dee81146102c4575f80fd5b346106a75760c03660031901126106a7576102dd6141f0565b906024356001600160401b0381116106a5576102fd9036906004016142dd565b6044356001600160401b0381116106725761031c9036906004016142dd565b916064356001600160401b0381116106a55761033c903690600401614325565b6084356001600160401b0381116106725761035b9036906004016143a3565b9360a43563ffffffff81168091036105fe5761037a8351875114614b90565b83546040516377e3240760e01b815260206004820152966001600160a01b0390911695908588806103ae6024820186614400565b03818a5afa97881561069a578698610676575b5096976001600160a01b0381169790865b60408b0151805182101561043c578a906001600160a01b03906103f69084906148ef565b511614610405576001016103d2565b60405162461bcd60e51b815260206004820152600f60248201526e105b1c9958591e48185c1c1b1a5959608a1b6044820152606490fd5b50509588968198803b15610672576040516206d86360e41b8152918391839182908490829061046f908b60048401614d6b565b03925af180156105f357610659575b505060018060a01b03875416906040519563eb7d901b60e01b875260206004880152602087806104b16024820188614400565b0381865afa96871561064e578997610616575b50600187018097116106025790829189933b156105fe578692610518858761055882966105468f978f610534906040519c8d9b8c9a8b9963bd015d7960e01b8b5261010060048c01526101048b0190614400565b9260248a01526044890152600319888303016064890152614400565b85810360031901608487015290614bce565b8381036003190160a485015290614c26565b8a60c48301528d60e483015203925af180156105f3576105da575b50506105bf6105d4915f516020615c3d5f395f51905f5293604051602081845180838701835e8101600a815203019020885f5260205260405f209063ffffffff19825416179055614940565b92604051918291602083526020830190614400565b0390a480f35b816105e491614269565b6105ef578587610573565b8580fd5b6040513d84823e3d90fd5b8380fd5b634e487b7160e01b89526011600452602489fd5b9096506020813d602011610646575b8161063260209383614269565b81010312610642575195896104c4565b5f80fd5b3d9150610625565b6040513d8b823e3d90fd5b8161066391614269565b61066e57868861047e565b8680fd5b8280fd5b6106939198503d8088833e61068b8183614269565b810190614697565b965f6103c1565b6040513d88823e3d90fd5b505b80fd5b50346106a75760603660031901126106a7576106c46141f0565b506024356001600160401b0381116106a5576106e49036906004016142dd565b81546040516377e3240760e01b815260206004820152906001600160a01b03168382806107146024820187614400565b0381845afa918215610864578492610848575b5061012082019160e0835191015151111561081357815190600182018092116107ff57908185923b1561067257604051635839ccbd60e11b8152918391839182908490829061077a908b6004840161467b565b03925af180156105f3576107ea575b50505190600182018092116107d65760406107c47fb9422fa51238140c2297fbab91a9525e85400eea5c9666d16562298ea0e0981c92614940565b9281519081526044356020820152a280f35b634e487b7160e01b83526011600452602483fd5b816107f491614269565b61067257825f610789565b634e487b7160e01b85526011600452602485fd5b60405162461bcd60e51b815260206004820152600d60248201526c105b1b0818dbdb5c1b195d1959609a1b6044820152606490fd5b61085d9192503d8086833e61068b8183614269565b905f610727565b6040513d86823e3d90fd5b50346106a75760203660031901126106a75761089961088c6141f0565b6108946159da565b61571e565b80f35b50346106a757806003193601126106a757600b546001600160a01b03166108c4338214614a9d565b600c5490811561092657600c8390556006546108ea9183916001600160a01b031661577c565b600b546040519182526001600160a01b0316907fd244b5a3b2e3977ecffe1a5e5ab7661aadfecbae24be711b7a72bb42bd1b2db090602090a280f35b60405162461bcd60e51b815260206004820152600d60248201526c27379031b7b6b6b4b9b9b4b7b760991b6044820152606490fd5b50346106a75760203660031901126106a757602061097f61097a6141f0565b615694565b604051908152f35b50346106a75760203660031901126106a7576109a16141f0565b6109a96159da565b6001600160a01b031680156109fc57600b80546001600160a01b0319811683179091556001600160a01b03167f4ab5be82436d353e61ca18726e984e561f5c1cc7c6d38b29d2553c790434705a8380a380f35b60405162461bcd60e51b815260206004820152601060248201526f496e76616c696420747265617375727960801b6044820152606490fd5b50346106a757806003193601126106a7576020600e54604051908152f35b50346106a75760203660031901126106a757610a6c6141f0565b610a746159da565b81546001600160a01b039182166001600160a01b031982168117845591167f5f1d51aab4bd6e41be6c7feda322db860d93d0058238bf871dfafd43ecc951f98380a380f35b50346106a75760403660031901126106a757602061097f610ad86141f0565b60243590615618565b50346106a757806003193601126106a7576002546040516001600160a01b039091168152602090f35b50346106a75760203660031901126106a757610b246141f0565b610b2c6159da565b6001600160a01b0316808252600560205260408220805460ff191690557f98a35376356c1565159c1b44676fcfa951a2287e2a816e208cf92e7aeb585a4f8280a280f35b50346106a757610899610b82366144fd565b93610b9b60018060a09694961b03600254163314614b56565b615138565b50346106a75760203660031901126106a757610bba6141f0565b610bc26159da565b6001600160a01b0316610bd6811515614d93565b600880546001600160a01b03191691909117905580f35b50346106a75760203660031901126106a757610c076141f0565b610c0f6159da565b600180546001600160a01b039283166001600160a01b0319821681179092559091167f1411e470e89195b3fc751143c6dfe8c8cb1207e319c33747a017fb39e13ef92c8380a380f35b50346106a75760203660031901126106a7577f42ddeacb574f2550f7e8d8e42de1ed9b952f6b6f5c3616afeaa9922896ea5ec46040600435610c986159da565b600e549080600e5582519182526020820152a180f35b50346106a757806003193601126106a7576009546040516001600160a01b039091168152602090f35b50346106a75760603660031901126106a757610cf16141f0565b506024356001600160401b0381116106a557610d119036906004016142dd565b50610d1a61421c565b50338152600560205261089960ff604083205416614ef7565b50346106a757610899610d45366144fd565b93929092615138565b50346106a75760203660031901126106a757610d686141f0565b610d706159da565b6001600160a01b0316610d84811515614d93565b600780546001600160a01b03191691909117905580f35b50346106a75760203660031901126106a75760209060ff906040906001600160a01b03610dc66141f0565b168152600584522054166040519015158152f35b50346106a757806003193601126106a7576020600d54604051908152f35b50346106a75760203660031901126106a757602061097f60043561510a565b50346106a75760c03660031901126106a757610e316141f0565b610e39614206565b610e4161421c565b6064356001600160a01b03811690819003611007576084356001600160a01b03811692908390036105ef5760a4356001600160a01b038116949085900361066e575f516020615d3d5f395f51905f5254604081901c60ff161596906001600160401b03811680159081610fff575b6001149081610ff5575b159081610fec575b50610fdd576001600160401b031981166001175f516020615d3d5f395f51905f5255610eff919088610fb5575b50610ef7615ac4565b610894615ac4565b610f07615ac4565b600280546001600160a01b03199081166001600160a01b03938416179091558754811692909116919091178655600180548216929092179091556006805482169290921790915560078054909116919091179055610f625780f35b60ff60401b195f516020615d3d5f395f51905f5254165f516020615d3d5f395f51905f52557fc7f505b2f371ae2175ee4913f4499e1f2633a7b5936321eed1cdaeb6115181d2602060405160018152a180f35b6001600160481b0319166001600160401b01175f516020615d3d5f395f51905f52555f610eee565b63f92ee8a960e01b8952600489fd5b9050155f610ec1565b303b159150610eb9565b899150610eaf565b8480fd5b50346106a75760603660031901126106a7576004356001600160401b0381116106a55761103c9036906004016142dd565b611044614206565b60208061104f6142fb565b933386526005825261106760ff604088205416614ef7565b604051928184925191829101835e8101600a8152030190209060018060a01b03165f5260205263ffffffff60405f20911663ffffffff1982541617905580f35b50346106a75760603660031901126106a7576110c16141f0565b6024356001600160401b038111610672576110e09036906004016142dd565b906044356001600160401b0381116105fe576111009036906004016142dd565b835490929084906001600160a01b0316803b156106a557816040518092632c47fa9760e01b825260406004830152818381611153611141604483018b614400565b8281036003190160248401528c614400565b03925af180156105f35761121f575b505083546040516377e3240760e01b8152602060048201529190859083906001600160a01b031681806111986024820187614400565b03915afa8015611214576101206111db917f2de280d2b7315f889cbea3ddc5c9ebfb1773caba023a73cc8fa272e9b28585c29488916111fa575b50015191614940565b926111f460405192839260018060a01b0316968361467b565b0390a380f35b61120e91503d808a833e61068b8183614269565b5f6111d2565b6040513d87823e3d90fd5b8161122991614269565b6105fe57835f611162565b50346106a75760403660031901126106a75761124e6141f0565b6024359061126760018060a01b03600254163314614b56565b825483906001600160a01b0316803b156106a55781604051809263286fd04f60e01b825281838161129c8a8a60048401614a6c565b03925af180156105f357611365575b50506001546001600160a01b0316806112e9575b5060405f516020615bdd5f395f51905f5291815193845284602085015260018060a01b031692a280f35b9060206040518093635b92f3d960e01b825281878161130c898860048401614a6c565b03925af1908115610864575f516020615bdd5f395f51905f5292604092611336575b5091506112bf565b6113579060203d60201161135e575b61134f8183614269565b810190614a54565b505f61132e565b503d611345565b8161136f91614269565b61067257825f6112ab565b50346106a757806003193601126106a7576020600c54604051908152f35b50346106a757806003193601126106a757506113e16040516113bb604082614269565b60058152640352e302e360dc1b6020820152604051918291602083526020830190614400565b0390f35b50346106a757806003193601126106a7576006546040516001600160a01b039091168152602090f35b50346106a757806003193601126106a757546040516001600160a01b039091168152602090f35b50346106a75760203660031901126106a7576004356001600160401b0381116106a5576114669036906004016142dd565b338252600560205260ff6040832054168015611a1a575b61148690614ef7565b81546040516377e3240760e01b8152602060048201529190839083906001600160a01b031681806114ba6024820187614400565b03915afa91821561190b5783926119fe575b50610140820180519091906001600160a01b0316156119c157611507600160808501516114f881614424565b61150181614424565b146150c8565b610120830192835180151590816119b1575b50156119725783515f1981019190821161195e57602061153e60e083019384516148ef565b51015161154a8161510a565b61155481836149df565b9261156182600c54614a00565b600c55604051602081885180838b01835e600a9082019081520301902087516001600160a01b03165f908152602091909152604090205463ffffffff16600381148015611956575b1561182557506006548751602092916115d09187916001600160a01b03918216911661577c565b01936115e6848760018060a01b03885116615817565b885489906001600160a01b0316803b156106a557604051636167f40760e11b8152908290829081838161161d8c8f6004840161467b565b03925af180156105f357611810575b50508854885160018101916001600160a01b03169082106117fc5790818b923b15610672576116759183918a83604051809681958294635839ccbd60e11b84526004840161467b565b03925af180156105f3576117e3575b5050875190600182018092116117cf57515110611707575b5f516020615d1d5f395f51905f5293604093925f516020615d5d5f395f51905f526116f8936116ca89614940565b926116da87895193849384614a87565b0390a251955196516001600160a01b03978816979096169594614940565b9382519182526020820152a480f35b875488906001600160a01b0316803b156106a557816040518092632d6f93f960e21b8252604060048301528183816117438d6044830190614400565b6002602483015203925af180156105f3576117b0575b5093604093925f516020615d5d5f395f51905f526116f8935f516020615d1d5f395f51905f52975f516020615bbd5f395f51905f5260206117998c614940565b928a51905060028152a2935050929350935061169c565b816117bd91959495614269565b6117cb57875f939293611759565b8780fd5b634e487b7160e01b8a52601160045260248afd5b816117ed91614269565b6117f857885f611684565b8880fd5b634e487b7160e01b8b52601160045260248bfd5b8161181a91614269565b6117f857885f61162c565b6008546001600160a01b0316908115611916576118696020878d9460018060a01b0360065416908660405180968195829463095ea7b360e01b845260048401614a6c565b03925af1801561190b576118ee575b5060085489516001600160a01b03918216929116823b156105fe576084849283604051958694859363269258dd60e01b85528d6004860152602485015260448401526103e860648401525af180156105f3576118d9575b50506020906115d0565b816118e391614269565b6117f857885f6118cf565b6119069060203d60201161135e5761134f8183614269565b611878565b6040513d85823e3d90fd5b60405162461bcd60e51b815260206004820152601860248201527710d0d514081d1c985b9cd8d95a5d995c881b9bdd081cd95d60421b6044820152606490fd5b5080156115a9565b634e487b7160e01b86526011600452602486fd5b60405162461bcd60e51b8152602060048201526017602482015276496e76616c6964206d696c6573746f6e6520737461746560481b6044820152606490fd5b905060e08201515110155f611519565b60405162461bcd60e51b8152602060048201526015602482015274139bc8185c1c1b1a58d85b9d081cd95b1958dd1959605a1b6044820152606490fd5b611a139192503d8085833e61068b8183614269565b905f6114cc565b506002546001600160a01b0316331461147d565b50346106a75760203660031901126106a7576004356001600160401b0381116106a557366023820112156106a5576004810135906001600160401b038211610672576024810190602436918460051b01011161067257611a8c6159da565b825b828110611a99578380f35b600190611ac26001600160a01b03611aba611ab58488886150a4565b6150b4565b161515614d93565b818060a01b03611ad6611ab58387876150a4565b1685526005602052604085208260ff19825416179055818060a01b03611b00611ab58387876150a4565b165f516020615c1d5f395f51905f528680a201611a8e565b50346106a75760203660031901126106a757611b326141f0565b81546001600160a01b0316908290823b156106a55760405163033ba21d60e31b81526001600160a01b03909116600482018190529282908290602490829084905af180156105f357611cea575b506001546001600160a01b031680611ca5575b50506001546001600160a01b03168015611c9d57602060049160405192838092636bb9f8df60e11b82525afa90811561190b578391611c6b575b50905b825460405163f14db78360e01b81526004810183905290602090829060249082906001600160a01b03165afa908115610864578491611c38575b5060207fea1851b2332e25f0d6427525a451a05fcf1b65ca9a4b096a85a2e4e40e6ac69991604051908152a380f35b90506020813d602011611c63575b81611c5360209383614269565b8101031261064257516020611c09565b3d9150611c46565b90506020813d602011611c95575b81611c8660209383614269565b8101031261064257515f611bcc565b3d9150611c79565b508190611bcf565b803b156106a55781809160246040518094819363369eca8f60e21b83528860048401525af180156105f35715611b925781611cdf91614269565b6106a557815f611b92565b81611cf491614269565b6106a557815f611b7f565b50346106a75760203660031901126106a757611d196141f0565b611d216159da565b6001600160a01b0316611d35811515614d93565b808252600560205260408220805460ff191660011790555f516020615c1d5f395f51905f528280a280f35b50346106a75760403660031901126106a757611d7a6141f0565b50602061097f602435614fe3565b50346106a75760203660031901126106a757611da26141f0565b611daa6159da565b600280546001600160a01b039283166001600160a01b0319821681179092559091167faae9beddccf584528e87b66c6ff2563825c8a1433305b8a656e9b5f9bf3904998380a380f35b50346106a757806003193601126106a7575f516020615b9d5f395f51905f52546040516001600160a01b039091168152602090f35b5080611e33366144ae565b919060018060a01b036002541690611e4c821515614f34565b6001546001600160a01b03168015611f4a5760206024916040519283809263e0eead9d60e01b82523360048301525afa908115610864578491611f15575b50935b611e98851515614f71565b823b156105fe57604051633f8190a360e21b8152928492849283918291611ec4918a3360048601614fa9565b039134905af180156105f357611f00575b5050604051906001825260208201528160408201525f516020615d7d5f395f51905f5260603392a280f35b81611f0a91614269565b6106a557815f611ed5565b9350506020833d602011611f42575b81611f3160209383614269565b81010312610642578492515f611e8a565b3d9150611f24565b508293611e8d565b5080611f5d366144ae565b919060018060a01b036002541690611f76821515614f34565b6001546001600160a01b03168015612074576020602491604051928380926378359b2960e01b82523360048301525afa90811561086457849161203f575b50935b611fc2851515614f71565b823b156105fe5760405163708166e160e01b8152928492849283918291611fee918a3360048601614fa9565b039134905af180156105f35761202a575b5050604051906002825260208201528160408201525f516020615d7d5f395f51905f5260603392a280f35b8161203491614269565b6106a557815f611fff565b9350506020833d60201161206c575b8161205b60209383614269565b81010312610642578492515f611fb4565b3d915061204e565b508293611fb7565b50346106a75760203660031901126106a757600435816001600160401b0382116106a7576120b16121379236906004016142dd565b816101606040516120c181614232565b6060815282602082015260606040820152606080820152826080820152606060a0820152606060c0820152606060e0820152826101008201528261012082015282610140820152015260018060a01b0382541660405180809581946377e3240760e01b8352602060048401526024830190614400565b03915afa80156105f3576101a0918391612394575b50805160208201516040830151606084015160808501519094926001600160a01b03169060ff9061217c81614424565b61218581614424565b1661218f81614424565b60a0840151976121a260c0860151615a0d565b986121b060e0870151615a0d565b93610100870151986101208801519661225b61016060018060a01b036101408c0151169a01519a604051906121e482614232565b8152602081019485526040810192835260608101938452608081019761220981614424565b885260a0810195865260c081019e8f5260e0810198895261010081019c8d526101208101998a5261014081019a8b5261016081019b8c526040519d8e9160208352519161018060208201520190614400565b92516001600160a01b031660408d0152518b8303601f190160608d01528051808452602091820193919091019190855b818110612375575050518b8203601f190160808d01526122ab9250614400565b92516122b681614424565b60a08a01525191601f198982030160c08a0152825190818152602081016020808460051b840101950193915b8383106123485750505050509061230a61231e92889951601f198a83030160e08b0152614442565b9051878203601f1901610100890152614442565b935161012086015251610140850152516001600160a01b0316610160840152516101808301520390f35b9091929394602080612366600193601f198682030187528951614400565b970193019301919392906122e2565b84516001600160a01b031684526020948501949093019260010161228b565b6123a891503d8085833e61068b8183614269565b5f61214c565b50346106a757806003193601126106a7576123c76159da565b5f516020615b9d5f395f51905f5280546001600160a01b0319811690915581906001600160a01b03165f516020615c9d5f395f51905f528280a380f35b50346106a757806003193601126106a7576007546040516001600160a01b039091168152602090f35b50346106a75760803660031901126106a7576124476141f0565b6024356001600160401b038111610672576124669036906004016142dd565b9061246f61421c565b60643592338552600560205260ff6040862054168015612654575b61249390614ef7565b84546040516377e3240760e01b815260206004820152936001600160a01b03909116908685806124c66024820187614400565b0381855afa94851561264957879561262d575b5060208501516001600160a01b039182169588929091169081871480612613575b156125db5750505060015b1561259d578086913b156106a55781604051809263037da98d60e11b82528183816125358c8b8b600485016148c3565b03925af180156105f357612588575b505060206125727f210dac24c32efa80ef08f803d73e7033bee07555af4a95a00e79a488121b0bd692614940565b6040519586526001600160a01b0390931694a480f35b8161259291614269565b61100757845f612544565b60405162461bcd60e51b81526020600482015260166024820152754e6f7420617574686f72697a656420746f207261746560501b6044820152606490fd5b61014001516001600160a01b031686149081612600575b501561250557506001612505565b6001600160a01b0386161490505f6125f2565b506101408101516001600160a01b038781169116146124fa565b6126429195503d8089833e61068b8183614269565b935f6124d9565b6040513d89823e3d90fd5b506002546001600160a01b0316331461248a565b50346106a75760203660031901126106a757604061268c6126876141f0565b614dd1565b82519182526020820152f35b50346106a75760203660031901126106a7576126b26141f0565b6126ba6159da565b6001600160a01b03166126ce811515614d93565b600680546001600160a01b03191691909117905580f35b50346106a757806003193601126106a757600b546040516001600160a01b039091168152602090f35b50346106a75760e03660031901126106a7576127286141f0565b612730614206565b6044356001600160401b0381116105fe5761274f9036906004016142dd565b906064356001600160401b0381116110075761276f9036906004016142dd565b906084356001600160401b0381116105ef5761278f903690600401614325565b60a4356001600160401b03811161066e576127ae9036906004016143a3565b9160c4359363ffffffff85168095036117cb576002546001600160a01b031633148015612d29575b6127df9061495c565b87546040516259565560e61b81526020600482018190526001600160a01b0390921696918180612812602482018c614400565b03818a5afa908115612d1e578a91612cff575b50612cc5576128378451865114614b90565b835115612c89578589963b1561066e57868386928b838c61286f8c604051988997889687956324f808a560e01b875260048701614c59565b03925af1908115612649578791612c74575b505085546001600160a01b0316803b1561066e576040516206d86360e41b815290879082908183816128b78a8f60048401614d6b565b03925af1908115612649578791612c5f575b505085546001600160a01b0316803b1561066e5786604061295c92612912838c61296e85519788968795869463bd015d7960e01b86526101006004870152610104860190614400565b9c6001602486015260018060a01b03169c8d6044860152603c85820360031981016064880152602083525f516020615cdd5f395f51905f526020840152016084860152018d614bce565b8281036003190160a48401528d614c26565b8860c48301528a60e483015203925af1908115612649578791612c4a575b5050604051602081895180838c01835e8101600a815203019020835f5260205260405f209063ffffffff1982541617905560018060a01b03855416803b156105ef5760405163177e220b60e11b81526060600482015290869082908183816129f7606482018e614400565b8960248301526001604483015203925af190811561069a578691612c35575b505084546001600160a01b0316803b156105ef57856040518092632d6f93f960e21b825260406004830152818381612a528d6044830190614400565b6001602483015203925af190811561069a578691612c20575b505084546001600160a01b0316803b156105ef57856040518092635839ccbd60e11b825260406004830152818381612aa78d6044830190614400565b6001602483015203925af190811561069a578691612c0b575b505b8351811015612b495785546001600160a01b0316612ae082866148ef565b51612aeb83886148ef565b51823b156117f857612b18928992838c604051968795869485936346cae72f60e11b855260048501614917565b03925af1908115612649578791612b34575b5050600101612ac2565b81612b3e91614269565b6105ef57855f612b2a565b85612bf08885858c5f516020615c7d5f395f51905f52612b89612b6b86614940565b926040519182916020835260018060a01b0316956020830190614400565b0390a3806001612b9884614940565b5f516020615c3d5f395f51905f526060604051602081526020808201525f516020615cdd5f395f51905f526040820152a46001612bd483614940565b5f516020615bfd5f395f51905f526020604051888152a4614940565b5f516020615bbd5f395f51905f52602060405160018152a280f35b81612c1591614269565b61100757845f612ac0565b81612c2a91614269565b61100757845f612a6b565b81612c3f91614269565b61100757845f612a16565b81612c5491614269565b6105ef57855f61298c565b81612c6991614269565b6105ef57855f6128c9565b81612c7e91614269565b6105ef57855f612881565b60405162461bcd60e51b81526020600482015260146024820152734d7573742068617665206d696c6573746f6e657360601b6044820152606490fd5b60405162461bcd60e51b81526020600482015260126024820152714a6f6220616c72656164792065786973747360701b6044820152606490fd5b612d18915060203d60201161135e5761134f8183614269565b5f612825565b6040513d8c823e3d90fd5b503388526005602052604088205460ff166127d6565b50346106a75760203660031901126106a757602061097f612d5e6141f0565b614cb2565b50346106a757806003193601126106a7577f00000000000000000000000000000000000000000000000000000000000000006001600160a01b03163003612dbb5760206040515f516020615c5d5f395f51905f528152f35b63703e46dd60e11b8152600490fd5b5060403660031901126106a757612ddf6141f0565b906024356001600160401b0381116106a557366023820112156106a557612e109036906024816004013591016142a7565b6001600160a01b037f000000000000000000000000000000000000000000000000000000000000000016308114908115612ff5575b50612fe6575f516020615b9d5f395f51905f52546001600160a01b031633148015612fd2575b15612f9e576040516352d1902d60e01b8152926001600160a01b0381169190602085600481865afa80958596612f6a575b50612eb557634c9c8ce360e01b84526004839052602484fd5b9091845f516020615c5d5f395f51905f528103612f585750813b15612f46575f516020615c5d5f395f51905f5280546001600160a01b031916821790555f516020615cbd5f395f51905f528480a28151839015612f2c5780836020612f2895519101845af4612f22615aef565b91615b1e565b5080f35b50505034612f375780f35b63b398979f60e01b8152600490fd5b634c9c8ce360e01b8452600452602483fd5b632a87526960e21b8552600452602484fd5b9095506020813d602011612f96575b81612f8660209383614269565b810103126110075751945f612e9c565b3d9150612f79565b60405162461bcd60e51b815260206004820152600c60248201526b155b985d5d1a1bdc9a5e995960a21b6044820152606490fd5b506002546001600160a01b03163314612e6b565b63703e46dd60e11b8252600482fd5b5f516020615c5d5f395f51905f52546001600160a01b0316141590505f612e45565b50346106a75760203660031901126106a7576130316141f0565b6130396159da565b600980546001600160a01b039283166001600160a01b0319821681179092559091167f07d9e59518f3d6cbceb6404066ae85fc348e3793c127eb912fb9d55f384233d98380a380f35b50346106a75760a03660031901126106a7576004356001600160401b0381116106a5576130b39036906004016142dd565b6130bb614206565b906044356001600160401b0381116105fe576130db9036906004016142dd565b6064356001600160401b038111611007576130fa903690600401614325565b6084356001600160401b0381116105ef576131199036906004016143a3565b9060018060a01b038654166040516259565560e61b81526020600482015260208180613148602482018a614400565b0381855afa908115613254578891613235575b5061320357869261316f8351825114614b90565b813b156105fe57839187838861319d8995604051988997889687956324f808a560e01b875260048701614c59565b03925af180156105f3576131ee575b50506131d4925f516020615c7d5f395f51905f526131cc612b6b85614940565b0390a3614940565b5f516020615bbd5f395f51905f526020604051848152a280f35b816131f891614269565b6105fe57835f6131ac565b60405162461bcd60e51b815260206004820152600a6024820152694a6f622065786973747360b01b6044820152606490fd5b61324e915060203d60201161135e5761134f8183614269565b5f61315b565b6040513d8a823e3d90fd5b50346106a75760203660031901126106a7576132796141f0565b6002546001600160a01b03169190613292338414614b56565b6040516020936132a28583614269565b8382526001600160a01b037f00000000000000000000000000000000000000000000000000000000000000001630811490811561344f575b50613440575f516020615b9d5f395f51905f52546001600160a01b03163314908115613436575b5015613402576040516352d1902d60e01b81526001600160a01b03831694908181600481895afa8591816133d3575b5061334957634c9c8ce360e01b85526004869052602485fd5b5f516020615c5d5f395f51905f528103612f585750823b156133bf575f516020615c5d5f395f51905f5280546001600160a01b0319168617905592938493905f516020615cbd5f395f51905f528580a28151156133b5578151612f289492839201845af4612f22615aef565b505050612f375780f35b634c9c8ce360e01b84526004859052602484fd5b9091508281813d83116133fb575b6133eb8183614269565b810103126105ef5751905f613330565b503d6133e1565b60405162461bcd60e51b815260048101859052600c60248201526b155b985d5d1a1bdc9a5e995960a21b6044820152606490fd5b905033145f613301565b63703e46dd60e11b8452600484fd5b5f516020615c5d5f395f51905f52546001600160a01b0316141590505f6132da565b50346106a75760203660031901126106a75760043561348e6159da565b6103e881116134d15760407fdd875544ddd76d96f6d22d7b445e849b486258026a9fb9bd1f3434766b1e920191600d549080600d5582519182526020820152a180f35b60405162461bcd60e51b81526020600482015260076024820152664d61782031302560c81b6044820152606490fd5b50346106a75760603660031901126106a75761351a6141f0565b63ffffffff60243561352a6142fb565b6001600160a01b0384169390613541851515614b16565b61354c831515614ad9565b6135558361510a565b9061356082856149df565b94859161356f84600c54614a00565b600c551692600384036135f857604093926135b25f516020615cfd5f395f51905f5296935f516020615d5d5f395f51905f529360018060a01b036006541661577c565b60078551666469737075746560c81b815220926135d488875193849384614a87565b0390a260078251666469737075746560c81b8152209382519182526020820152a380f35b50600854613640916020916001600160a01b0316613617811515614a0d565b60018060a01b0360065416908a60405180968195829463095ea7b360e01b845260048401614a6c565b03925af18015612649576136e3575b5060085486906001600160a01b0316803b156106a55781809160846040518094819363269258dd60e01b83528b60048401528960248401528c60448401526103e860648401525af180156105f3576136ca575b5050905f516020615cfd5f395f51905f52925f516020615d5d5f395f51905f526040936135b2565b816136d791949394614269565b6105ef5790855f6136a2565b6136fb9060203d60201161135e5761134f8183614269565b61364f565b50346106a75760403660031901126106a7576004356001600160401b0381116106a5576137319036906004016142dd565b60208061373c614206565b92604051928184925191829101835e8101600a8152030190209060018060a01b03165f52602052602063ffffffff60405f205416604051908152f35b50346106a757806003193601126106a7576008546040516001600160a01b039091168152602090f35b50346106a757806003193601126106a7576001546040516001600160a01b039091168152602090f35b50346106a75760203660031901126106a757600b54600435906001600160a01b03166137f7338214614a9d565b600c5480831161382f576108ea9161381b848093613816821515614ad9565b6149df565b600c556006546001600160a01b031661577c565b60405162461bcd60e51b815260206004820152601760248201527624b739bab33334b1b4b2b73a1031b7b6b6b4b9b9b4b7b760491b6044820152606490fd5b50346106a75760803660031901126106a7576138886141f0565b6024356001600160401b038111610672576138a79036906004016142dd565b6044359060018060a01b036002541633148015613d40575b6138c89061495c565b83546040516377e3240760e01b8152602060048201529390859085906001600160a01b031681806138fc6024820188614400565b03915afa938415611214578594613d24575b506101408401805190949061392d906001600160a01b031615156149a4565b6139368461510a565b918661394284876149df565b809761395086600c54614a00565b600c55604051602081895180838c01835e600a9082019081520301902081516001600160a01b03165f908152602091909152604090205463ffffffff1660038103613c3a575060065490516139b293506001600160a01b03908116911661577c565b86546001600160a01b0316803b156117cb57876040518092636167f40760e11b82528183816139e58d8c6004840161467b565b03925af1888115613c2e5788928792613c14575b5050613a0492615817565b8554610120919091015160018101916001600160a01b0316908210613c0057908187923b1561067257604051635839ccbd60e11b81529183918391829084908290613a53908b6004840161467b565b03925af180156105f357613beb575b505084546040516377e3240760e01b815260206004820152919086906001600160a01b0316818480613a976024820189614400565b0381845afa9384156105f3578294613bcf575b5061012084019360e085519101515110613b21575b5050905f516020615b7d5f395f51905f52935f516020615d5d5f395f51905f52613b0793613aec86614940565b92613afd8960405193849384614a87565b0390a25191614940565b92613b1b6040519283926064359084614a87565b0390a280f35b803b156106a557816040518092632d6f93f960e21b825260406004830152818381613b4f604482018c614400565b6002602483015203925af180156105f357613bb6575b5050905f516020615b7d5f395f51905f52935f516020615d5d5f395f51905f52613b0793613b9286614940565b5f516020615bbd5f395f51905f52602060405160028152a292935087919550613abf565b81613bc391949394614269565b6105ef5790855f613b65565b613be49194503d8084833e61068b8183614269565b925f613aaa565b81613bf591614269565b61100757845f613a62565b634e487b7160e01b87526011600452602487fd5b819350613c219250614269565b61066e578584885f6139f9565b604051903d90823e3d90fd5b6008549092613c8491602091906001600160a01b0316613c5b811515614a0d565b60018060a01b0360065416908760405180968195829463095ea7b360e01b845260048401614a6c565b03925af1801561086457613d07575b5060085490516001600160a01b0390811692911690813b156105fe5760848a858094604051968795869463269258dd60e01b86526004860152602485015260448401526103e860648401525af180156105f357613cf2575b50506139b2565b81613cfc91614269565b61066e57865f613ceb565b613d1f9060203d60201161135e5761134f8183614269565b613c93565b613d399194503d8087833e61068b8183614269565b925f61390e565b503384526005602052604084205460ff166138bf565b503461064257608036600319011261064257613d706141f0565b506024356001600160401b03811161064257613d909036906004016142dd565b9060443560643592831515918285036106425760018060a01b035f54169460405193632e68140160e11b85525f8580613dcd86886004840161467b565b03818a5afa9485156140d9575f956140fe575b506040516377e3240760e01b8152602060048201525f8180613e056024820189614400565b03818b5afa9081156140d9575f916140e4575b506040860180516001600160a01b031698909390803b1561064257855f91613e599b838a6040519e8f958694859363177e220b60e11b8552600485016148c3565b03925af180156140d9576140bf575b87549798509596949588956001600160a01b0316803b1561066e5760408051632d6f93f960e21b815260048101919091529087908290818381613eae604482018f614400565b6001602483015203925af19081156126495787916140aa575b505085546001600160a01b0316803b1561066e5760408051635839ccbd60e11b815260048101919091529087908290818381613f06604482018f614400565b6001602483015203925af1908115612649578791614095575b505015613ff85750835b608087018051908151831015613fbc576020613f5c84613f538160018060a01b038c5416966148ef565b515193516148ef565b510151823b156117cb57613f8b928892838b604051968795869485936346cae72f60e11b855260048501614917565b03925af190811561069a578691613fa7575b5050600101613f29565b81613fb191614269565b61100757845f613f9d565b5050509250612bf094505b516001600160a01b0316915f516020615bfd5f395f51905f526020613feb86614940565b92604051908152a4614940565b9550835b60c08701805190815183101561408657602061402684613f538160018060a01b038c5416966148ef565b510151823b156117cb57614055928892838b604051968795869485936346cae72f60e11b855260048501614917565b03925af190811561069a578691614071575b5050600101613ffc565b8161407b91614269565b61100757845f614067565b5050509250612bf09450613fc7565b8161409f91614269565b6105ef57855f613f1f565b816140b491614269565b6105ef57855f613ec7565b94959650965f6140ce91614269565b5f9594938790613e68565b6040513d5f823e3d90fd5b6140f891503d805f833e61068b8183614269565b5f613e18565b9094503d805f833e6141108183614269565b810190602081830312610642578051906001600160401b038211610642570160a081830312610642576040519160a083016001600160401b038111848210176141dc576040528151835260208201516001600160401b0381116106425781614179918401614568565b602084015261418a604083016145ae565b604084015260608201516001600160401b03811161064257816141ae918401614568565b606084015260808201516001600160401b038111610642576141d092016145c2565b6080820152935f613de0565b634e487b7160e01b5f52604160045260245ffd5b600435906001600160a01b038216820361064257565b602435906001600160a01b038216820361064257565b604435906001600160a01b038216820361064257565b61018081019081106001600160401b038211176141dc57604052565b604081019081106001600160401b038211176141dc57604052565b601f909101601f19168101906001600160401b038211908210176141dc57604052565b6001600160401b0381116141dc57601f01601f191660200190565b9291926142b38261428c565b916142c16040519384614269565b829481845281830111610642578281602093845f960137010152565b9080601f83011215610642578160206142f8933591016142a7565b90565b6044359063ffffffff8216820361064257565b6001600160401b0381116141dc5760051b60200190565b9080601f8301121561064257813561433c8161430e565b9261434a6040519485614269565b81845260208085019260051b820101918383116106425760208201905b83821061437657505050505090565b81356001600160401b03811161064257602091614398878480948801016142dd565b815201910190614367565b9080601f830112156106425781356143ba8161430e565b926143c86040519485614269565b81845260208085019260051b82010192831161064257602001905b8282106143f05750505090565b81358152602091820191016143e3565b805180835260209291819084018484015e5f828201840152601f01601f1916010190565b6004111561442e57565b634e487b7160e01b5f52602160045260245ffd5b9080602083519182815201916020808360051b8301019401925f915b83831061446d57505050505090565b9091929394602080600192601f1985820301865288519082806144998451604085526040850190614400565b9301519101529701930193019193929061445e565b906020600319830112610642576004356001600160401b0381116106425782602382011215610642576004810135926001600160401b0384116106425760248483010111610642576024019190565b9060a0600319830112610642576004356001600160a01b03811681036106425791602435906001600160401b0382116106425761453c916004016142dd565b906044359060643563ffffffff8116810361064257906084356001600160a01b03811681036106425790565b81601f820112156106425780519061457f8261428c565b9261458d6040519485614269565b8284526020838301011161064257815f9260208093018386015e8301015290565b51906001600160a01b038216820361064257565b81601f82011215610642578051906145d98261430e565b926145e76040519485614269565b82845260208085019360051b830101918183116106425760208101935b83851061461357505050505090565b84516001600160401b0381116106425782016040818503601f19011261064257604051916146408361424e565b6020820151926001600160401b03841161064257604083614668886020809881980101614568565b8352015183820152815201940193614604565b929190614692602091604086526040860190614400565b930152565b602081830312610642578051906001600160401b0382116106425701906101808282031261064257604051916146cc83614232565b80516001600160401b03811161064257826146e8918301614568565b83526146f6602082016145ae565b602084015260408101516001600160401b03811161064257810182601f82011215610642578051906147278261430e565b916147356040519384614269565b80835260208084019160051b8301019185831161064257602001905b8282106148ab57505050604084015260608101516001600160401b038111610642578261477f918301614568565b60608401526080810151600481101561064257608084015260a08101516001600160401b03811161064257810182601f820112156106425780516147c28161430e565b916147d06040519384614269565b81835260208084019260051b820101918583116106425760208201905b83821061487e575050505060a084015260c08101516001600160401b038111610642578261481c9183016145c2565b60c084015260e08101516001600160401b03811161064257610160926148439183016145c2565b60e084015261010081015161010084015261012081015161012084015261486d61014082016145ae565b610140840152015161016082015290565b81516001600160401b038111610642576020916148a089848094880101614568565b8152019101906147ed565b602080916148b8846145ae565b815201910190614751565b6148db60409295949395606083526060830190614400565b6001600160a01b0390951660208201520152565b80518210156149035760209160051b010190565b634e487b7160e01b5f52603260045260245ffd5b93929161469290614932604093606088526060880190614400565b908682036020880152614400565b602090604051918183925191829101835e81015f815203902090565b1561496357565b60405162461bcd60e51b815260206004820152601960248201527813db9b1e48189c9a5919d9481bdc88185d5d1a1bdc9a5e9959603a1b6044820152606490fd5b156149ab57565b60405162461bcd60e51b815260206004820152600c60248201526b139bc8185c1c1b1a58d85b9d60a21b6044820152606490fd5b919082039182116149ec57565b634e487b7160e01b5f52601160045260245ffd5b919082018092116149ec57565b15614a1457565b60405162461bcd60e51b815260206004820152601860248201527710d0d51408151c985b9cd8d95a5d995c881b9bdd081cd95d60421b6044820152606490fd5b90816020910312610642575180151581036106425790565b6001600160a01b039091168152602081019190915260400190565b6040919493926060820195825260208201520152565b15614aa457565b60405162461bcd60e51b815260206004820152600d60248201526c4f6e6c7920747265617375727960981b6044820152606490fd5b15614ae057565b60405162461bcd60e51b815260206004820152600e60248201526d125b9d985b1a5908185b5bdd5b9d60921b6044820152606490fd5b15614b1d57565b60405162461bcd60e51b8152602060048201526011602482015270125b9d985b1a59081c9958da5c1a595b9d607a1b6044820152606490fd5b15614b5d57565b60405162461bcd60e51b815260206004820152600b60248201526a4f6e6c792062726964676560a81b6044820152606490fd5b15614b9757565b60405162461bcd60e51b815260206004820152600f60248201526e098cadccee8d040dad2e6dac2e8c6d608b1b6044820152606490fd5b9080602083519182815201916020808360051b8301019401925f915b838310614bf957505050505090565b9091929394602080614c17600193601f198682030187528951614400565b97019301930191939290614bea565b90602080835192838152019201905f5b818110614c435750505090565b8251845260209384019390920191600101614c36565b9390614ca4926142f89694614c79614c969360a0895260a0890190614400565b6001600160a01b0390921660208801528682036040880152614400565b908482036060860152614bce565b916080818403910152614c26565b6001546001600160a01b031680614d3157505f54604051635843905f60e01b81526001600160a01b0392831660048201529160209183916024918391165afa9081156140d9575f91614d02575090565b90506020813d602011614d29575b81614d1d60209383614269565b81010312610642575190565b3d9150614d10565b6040516378359b2960e01b81526001600160a01b039092166004830152602090829060249082905afa9081156140d9575f91614d02575090565b90614d83602091949394604084526040840190614400565b6001600160a01b03909416910152565b15614d9a57565b60405162461bcd60e51b815260206004820152600f60248201526e496e76616c6964206164647265737360881b6044820152606490fd5b6001549091906001600160a01b03168015614e7f576040516378359b2960e01b81526001600160a01b039093166004840181905292602081602481855afa80156140d9575f90614e4c575b60209150936024604051809481936323312a8360e01b835260048301525afa9081156140d9575f91614d02575090565b506020813d602011614e77575b81614e6660209383614269565b810103126106425760209051614e1c565b3d9150614e59565b505f5460408051630695173160e41b81526001600160a01b03948516600482015293909184916024918391165afa9182156140d9575f905f93614ec157509190565b9250506040823d604011614eef575b81614edd60409383614269565b81010312610642576020825192015190565b3d9150614ed0565b15614efe57565b60405162461bcd60e51b815260206004820152600e60248201526d139bdd08185d5d1a1bdc9a5e995960921b6044820152606490fd5b15614f3b57565b60405162461bcd60e51b815260206004820152600e60248201526d109c9a5919d9481b9bdd081cd95d60921b6044820152606490fd5b15614f7857565b60405162461bcd60e51b81526020600482015260096024820152684e6f20746f6b656e7360b81b6044820152606490fd5b9284926080959260018060a01b03168552602085015260606040850152816060850152848401375f828201840152601f01601f1916010190565b6001546001600160a01b03169081614ffb5750505f90565b5f546040516306d1ab4b60e01b81529190602090839060049082906001600160a01b03165afa9182156140d9575f9261506f575b5090604461503f60209383614a00565b916040519485938492630ba69e4160e41b8452600484015260248301525afa9081156140d9575f91614d02575090565b91506020823d60201161509c575b8161508a60209383614269565b8101031261064257905190604461502f565b3d915061507d565b91908110156149035760051b0190565b356001600160a01b03811681036106425790565b156150cf57565b60405162461bcd60e51b81526020600482015260136024820152724a6f62206e6f7420696e2070726f677265737360681b6044820152606490fd5b600d54908181029181830414901517156149ec576127109004600e548082115f14615133575090565b905090565b60085493946001600160a01b0390941693919290915f919085156155dd576001600160a01b03169561516b871515614b16565b615176821515614ad9565b5f80546040516377e3240760e01b81526020600482015294919085906001600160a01b031681806151aa602482018c614400565b03915afa9384156140d9575f946155c1575b506101408401516151d7906001600160a01b031615156149a4565b6151ea600160808601516114f881614424565b610120840193845180151590816155b1575b50156155785784515f198101919082116149ec5761522160e0602092019283516148ef565b5101518403615535576152338461510a565b9261527d602061524386886149df565b809b61525188600c54614a00565b600c5560018060a01b0360065416905f60405180968195829463095ea7b360e01b845260048401614a6c565b03925af180156140d957615518575b506008546001600160a01b0316803b156106425763ffffffff9160848b5f80948f604051978896879563269258dd60e01b8752600487015216602485015260448401526103e860648401525af180156140d957615503575b506152f0888888615817565b81546001600160a01b0316803b1561067257604051636167f40760e11b815290839082908183816153258f8f6004840161467b565b03925af1801561190b579083916154ee575b50508154855160018101916001600160a01b03169082106154da57803b156105fe5761537d9184918a83604051809681958294635839ccbd60e11b84526004840161467b565b03925af1801561190b579083916154c5575b5050845190600182018092116107d65751511061540a575b506040925f516020615d1d5f395f51905f5294925f516020615d5d5f395f51905f526153f0936153d689614940565b926153e68b895193849384614a87565b0390a25194614940565b825195865260208601949094526001600160a01b031693a4565b80546001600160a01b0316803b156106a557816040518092632d6f93f960e21b8252604060048301528183816154448d6044830190614400565b6002602483015203925af180156105f3576154b0575b50925f516020615d1d5f395f51905f5294925f516020615d5d5f395f51905f526153f0936040965f516020615bbd5f395f51905f52602061549a8c614940565b928a51905060028152a2935050929450926153a7565b6154bb828092614269565b6106a7575f61545a565b816154cf91614269565b6106a557815f61538f565b634e487b7160e01b84526011600452602484fd5b816154f891614269565b6106a557815f615337565b6155109192505f90614269565b5f905f6152e4565b6155309060203d60201161135e5761134f8183614269565b61528c565b60405162461bcd60e51b815260206004820152601b60248201527a416d6f756e74206d757374206d61746368206d696c6573746f6e6560281b6044820152606490fd5b60405162461bcd60e51b8152602060048201526011602482015270496e76616c6964206d696c6573746f6e6560781b6044820152606490fd5b905060e08201515110155f6151fc565b6155d69194503d805f833e61068b8183614269565b925f6151bc565b60405162461bcd60e51b8152602060048201526013602482015272151c985b9cd8d95a5d995c881b9bdd081cd95d606a1b6044820152606490fd5b6001546001600160a01b03168061566f57505f5460405163e848635560e01b81529260209284926001600160a01b0316918391829161565a9160048401614a6c565b03915afa9081156140d9575f91614d02575090565b60405163e848635560e01b8152926020928492918391829161565a9160048401614a6c565b6001546001600160a01b0316806156e457505f5460405163f14db78360e01b81526001600160a01b0392831660048201529160209183916024918391165afa9081156140d9575f91614d02575090565b6040516323312a8360e01b81526001600160a01b039092166004830152602090829060249082905afa9081156140d9575f91614d02575090565b6001600160a01b03168015615769575f516020615b9d5f395f51905f5280546001600160a01b0319811683179091556001600160a01b03165f516020615c9d5f395f51905f525f80a3565b631e4fbdf760e01b5f525f60045260245ffd5b5f6157d49281926157b66157a896604051978891602083019563a9059cbb60e01b875260248401614a6c565b03601f198101885287614269565b60018060a01b031694519082865af16157cd615aef565b9083615b1e565b80519081151591826157fc575b50506157ea5750565b635274afe760e01b5f5260045260245ffd5b61580f9250602080918301019101614a54565b155f806157e1565b6001549091906001600160a01b031680156159d45761585d5f60018060a01b0381541693604051809381926377e3240760e01b8352602060048401526024830190614400565b0381865afa9081156140d9576004916020915f916159ba575b5061014001516040516306d1ab4b60e01b81526001600160a01b03909116949092839182905afa80156140d95785915f91615982575b506084926158bd5f96938793614a00565b604051978896879563ba293e0760e01b875260018060a01b031660048701526024860152604485015260648401525af180156140d9576158fa5750565b3d805f833e6159098183614269565b810190602081830312610642578051906001600160401b038211610642570181601f82011215610642578051906020806159428461430e565b61594f6040519182614269565b848152019260051b82010192831161064257602001905b82821061597257505050565b8151815260209182019101615966565b949150506020843d6020116159b2575b8161599f60209383614269565b81010312610642579251849060846158ac565b3d9150615992565b6159ce91503d805f833e61068b8183614269565b5f615876565b50505050565b5f516020615b9d5f395f51905f52546001600160a01b031633036159fa57565b63118cdaa760e01b5f523360045260245ffd5b805190615a198261430e565b91615a276040519384614269565b808352615a36601f199161430e565b015f5b818110615aa05750505f5b8151811015615a9b5780615a5a600192846148ef565b51516020615a6883866148ef565b51015160405191615a788361424e565b82526020820152615a8982866148ef565b52615a9481856148ef565b5001615a44565b505090565b602090604051615aaf8161424e565b606081525f8382015282828701015201615a39565b60ff5f516020615d3d5f395f51905f525460401c1615615ae057565b631afcd79f60e31b5f5260045ffd5b3d15615b19573d90615b008261428c565b91615b0e6040519384614269565b82523d5f602084013e565b606090565b90615b425750805115615b3357805190602001fd5b630a12f52160e11b5f5260045ffd5b81511580615b73575b615b53575090565b639996b31560e01b5f9081526001600160a01b0391909116600452602490fd5b50803b15615b4b56fe881f9575e6bc96f2ebd076de5584e663c5e7489d82f21f00777994a223cfb0619016d09d72d40fdae2fd8ceac6b6234c7706214fd39c1cd1e609a0528c19930090048e2f7021decb3bccdc9c96fb747f7c82ca94b921ff7c7cc130daa897a6dda939d97e93c6e94641c360ee489fc68625303001132de2255a364b26627e1590beb163b9824b55e200a056e0082832866e8d8f931ba431b29b8919466a05faa5351e40fe333cede9dd79a1ef4d16228b1702f272eb2c2166ec3c7ee6a9d4ce2c264fe7e90ee05d618ec81396b56ead08e622a37d2696239d6029610e48c3a86e360894a13ba1a3210667c828492db98dca3e2076cc3735a920a3ca505d382bbcc7649f14606d56993fd676bf6b21baf658647cc2921deec0cde7a0f2f8031c8d8be0079c531659141344cd1fd0a4f28419497f9722a3daafe3b4186f6b6457e0bc7cd75a20ee27fd9adebab32041f755214dbc6bffa90cc0225b39da2e5c2d3b6469726563742d636f6e74726163742d6175746f2d6170706c69636174696f6e68f68b90ee152498d69c44929da4e330c22f2a9cce2356deb44d690362f3d0b9a71f1661a883ae6cc97d4b6c49515c53bc3ad70681a1cdf669785aca9356ee27f0c57e16840df040f15088dc2f81fe391c3923bec73e23a9662efc9c229c6a00799bd8ebd9dd237a3fdfa8abd96d3f80ad584603a8e4a943e7cfc01dbd7fead9377a25b6705fa575725f64a9e9cee303a5037feaf4bc831a8595345c24ae0769a26469706673582212200dd856a5c5a591f41ba76dd03082b7fba36f02c463b5da78b2e29cb85889450364736f6c63430008210033f0c57e16840df040f15088dc2f81fe391c3923bec73e23a9662efc9c229c6a00","linkReferences":{}},"methodIdentifiers":{"UPGRADE_INTERFACE_VERSION()":"ad3cb1cc","accumulatedCommission()":"ae693673","addAuthorizedContract(address)":"98eaa4a7","applyToJob(address,string,string,string[],uint256[],uint32)":"fc5dee81","authorizedContracts(address)":"d5b9221b","batchAddAuthorizedContracts(address[])":"9abcbbe8","bridge()":"e78cea92","calculateCommission(uint256)":"ce9b4321","calculateTokensForAmount(address,uint256)":"94928b84","cctpReceiver()":"6c2db78f","cctpTransceiver()":"23dc878c","commissionPercentage()":"d575fe64","createProfile(address,string,address)":"d888cc27","genesis()":"a7f0b3de","getJob(string)":"77e32407","getUserEarnedTokens(address)":"5843905f","getUserGovernanceActions(address)":"f14db783","getUserGovernanceActionsInBand(address,uint256)":"e8486355","getUserRewardInfo(address)":"69517310","handleReleasePaymentCrossChain(address,string,uint256,uint32,address)":"e4e2a856","handleStartDirectContract(address,address,string,string,string[],uint256[],uint32)":"6009b51f","handleUpdateUserClaimData(address,uint256)":"b9acee1d","incrementGovernanceAction(address)":"99f426be","initialize(address,address,address,address,address,address)":"cc2a9a5b","isAuthorizedContract(address)":"66d0ead3","jobApplicantChainDomain(string,address)":"29f8d96d","lockNextMilestone(address,string,uint256)":"f4f5d3c7","minCommission()":"eca688ea","nativeAthena()":"dc209f13","owner()":"8da5cb5b","postJob(string,address,string,string[],uint256[])":"42b0f652","proxiableUUID()":"52d1902d","rate(address,string,address,uint256)":"6a23a98a","releaseDisputedFunds(address,uint256,uint32)":"301f8257","releasePayment(string)":"a6b16096","releasePaymentAndLockNext(address,string,uint256,uint256)":"1277bbf8","releasePaymentCrossChain(address,string,uint256,uint32,address)":"d819aea4","removeAuthorizedContract(address)":"e6b165ed","renounceOwnership()":"715018a6","rewardsContract()":"220cce97","setApplicantChainDomain(string,address,uint32)":"c088797b","setBridge(address)":"8dd14802","setCCTPReceiver(address)":"d6e3c76a","setCCTPTransceiver(address)":"e4a9d8ee","setCommissionPercentage(uint256)":"39b87c8f","setGenesis(address)":"eb14b353","setMinCommission(uint256)":"de8fd3af","setNativeAthena(address)":"4efac43f","setRewardsContract(address)":"dfa0dfa5","setTreasury(address)":"f0f44260","setUSDTToken(address)":"66e226bd","startJob(address,string,uint256,bool)":"09d6667e","submitWork(address,string,string)":"ba245963","syncRewardsData(bytes)":"87e821d6","syncVotingPower(bytes)":"859705a8","transferOwnership(address)":"f2fde38b","treasury()":"61d027b3","upgradeFromDAO(address)":"40634e3b","upgradeToAndCall(address,bytes)":"4f1ef286","usdtToken()":"a98ad46c","withdrawAllCommission()":"f27bf0bf","withdrawCommission(uint256)":"17face84"},"id":19}