{"abi":[{"type":"constructor","inputs":[],"stateMutability":"nonpayable"},{"type":"function","name":"UPGRADE_INTERFACE_VERSION","inputs":[],"outputs":[{"name":"","type":"string","internalType":"string"}],"stateMutability":"view"},{"type":"function","name":"addRewardBand","inputs":[{"name":"minAmount","type":"uint256","internalType":"uint256"},{"name":"maxAmount","type":"uint256","internalType":"uint256"},{"name":"owPerDollar","type":"uint256","internalType":"uint256"}],"outputs":[],"stateMutability":"nonpayable"},{"type":"function","name":"calculateTokensForRange","inputs":[{"name":"fromAmount","type":"uint256","internalType":"uint256"},{"name":"toAmount","type":"uint256","internalType":"uint256"}],"outputs":[{"name":"","type":"uint256","internalType":"uint256"}],"stateMutability":"view"},{"type":"function","name":"clearAllRewardBands","inputs":[],"outputs":[],"stateMutability":"nonpayable"},{"type":"function","name":"currentPlatformBand","inputs":[],"outputs":[{"name":"","type":"uint256","internalType":"uint256"}],"stateMutability":"view"},{"type":"function","name":"genesis","inputs":[],"outputs":[{"name":"","type":"address","internalType":"contract IOpenworkGenesis"}],"stateMutability":"view"},{"type":"function","name":"getCurrentBand","inputs":[],"outputs":[{"name":"","type":"uint256","internalType":"uint256"}],"stateMutability":"view"},{"type":"function","name":"getPlatformBandInfo","inputs":[],"outputs":[{"name":"currentBand","type":"uint256","internalType":"uint256"},{"name":"currentTotal","type":"uint256","internalType":"uint256"},{"name":"bandMinAmount","type":"uint256","internalType":"uint256"},{"name":"bandMaxAmount","type":"uint256","internalType":"uint256"},{"name":"governanceRewardRate","type":"uint256","internalType":"uint256"}],"stateMutability":"view"},{"type":"function","name":"getRewardBand","inputs":[{"name":"index","type":"uint256","internalType":"uint256"}],"outputs":[{"name":"minAmount","type":"uint256","internalType":"uint256"},{"name":"maxAmount","type":"uint256","internalType":"uint256"},{"name":"owPerDollar","type":"uint256","internalType":"uint256"}],"stateMutability":"view"},{"type":"function","name":"getRewardBandsCount","inputs":[],"outputs":[{"name":"","type":"uint256","internalType":"uint256"}],"stateMutability":"view"},{"type":"function","name":"getUserBandRewards","inputs":[{"name":"user","type":"address","internalType":"address"}],"outputs":[{"name":"","type":"tuple[]","internalType":"struct OpenWorkRewardsContract.UserBandRewards[]","components":[{"name":"band","type":"uint256","internalType":"uint256"},{"name":"tokensEarned","type":"uint256","internalType":"uint256"},{"name":"tokensClaimable","type":"uint256","internalType":"uint256"},{"name":"tokensClaimed","type":"uint256","internalType":"uint256"}]}],"stateMutability":"view"},{"type":"function","name":"getUserGovernanceActionsInBand","inputs":[{"name":"user","type":"address","internalType":"address"},{"name":"band","type":"uint256","internalType":"uint256"}],"outputs":[{"name":"","type":"uint256","internalType":"uint256"}],"stateMutability":"view"},{"type":"function","name":"getUserRewardsInBand","inputs":[{"name":"user","type":"address","internalType":"address"},{"name":"band","type":"uint256","internalType":"uint256"}],"outputs":[{"name":"","type":"tuple","internalType":"struct OpenWorkRewardsContract.UserBandRewards","components":[{"name":"band","type":"uint256","internalType":"uint256"},{"name":"tokensEarned","type":"uint256","internalType":"uint256"},{"name":"tokensClaimable","type":"uint256","internalType":"uint256"},{"name":"tokensClaimed","type":"uint256","internalType":"uint256"}]}],"stateMutability":"view"},{"type":"function","name":"getUserTotalClaimableTokens","inputs":[{"name":"user","type":"address","internalType":"address"}],"outputs":[{"name":"","type":"uint256","internalType":"uint256"}],"stateMutability":"view"},{"type":"function","name":"getUserTotalGovernanceActions","inputs":[{"name":"user","type":"address","internalType":"address"}],"outputs":[{"name":"","type":"uint256","internalType":"uint256"}],"stateMutability":"view"},{"type":"function","name":"getUserTotalTokensClaimed","inputs":[{"name":"user","type":"address","internalType":"address"}],"outputs":[{"name":"","type":"uint256","internalType":"uint256"}],"stateMutability":"view"},{"type":"function","name":"getUserTotalTokensEarned","inputs":[{"name":"user","type":"address","internalType":"address"}],"outputs":[{"name":"","type":"uint256","internalType":"uint256"}],"stateMutability":"view"},{"type":"function","name":"initialize","inputs":[{"name":"_owner","type":"address","internalType":"address"},{"name":"_jobContract","type":"address","internalType":"address"},{"name":"_genesis","type":"address","internalType":"address"}],"outputs":[],"stateMutability":"nonpayable"},{"type":"function","name":"jobContract","inputs":[],"outputs":[{"name":"","type":"address","internalType":"address"}],"stateMutability":"view"},{"type":"function","name":"markTokensClaimed","inputs":[{"name":"user","type":"address","internalType":"address"},{"name":"amountClaimed","type":"uint256","internalType":"uint256"}],"outputs":[{"name":"","type":"bool","internalType":"bool"}],"stateMutability":"nonpayable"},{"type":"function","name":"owner","inputs":[],"outputs":[{"name":"","type":"address","internalType":"address"}],"stateMutability":"view"},{"type":"function","name":"processJobPayment","inputs":[{"name":"jobGiver","type":"address","internalType":"address"},{"name":"jobTaker","type":"address","internalType":"address"},{"name":"amount","type":"uint256","internalType":"uint256"},{"name":"newPlatformTotal","type":"uint256","internalType":"uint256"}],"outputs":[{"name":"tokensAwarded","type":"uint256[]","internalType":"uint256[]"}],"stateMutability":"nonpayable"},{"type":"function","name":"profileGenesis","inputs":[],"outputs":[{"name":"","type":"address","internalType":"contract IProfileGenesis"}],"stateMutability":"view"},{"type":"function","name":"proxiableUUID","inputs":[],"outputs":[{"name":"","type":"bytes32","internalType":"bytes32"}],"stateMutability":"view"},{"type":"function","name":"recordGovernanceAction","inputs":[{"name":"user","type":"address","internalType":"address"}],"outputs":[],"stateMutability":"nonpayable"},{"type":"function","name":"removeLastRewardBand","inputs":[],"outputs":[],"stateMutability":"nonpayable"},{"type":"function","name":"renounceOwnership","inputs":[],"outputs":[],"stateMutability":"nonpayable"},{"type":"function","name":"resetRewardBands","inputs":[],"outputs":[],"stateMutability":"nonpayable"},{"type":"function","name":"rewardBands","inputs":[{"name":"","type":"uint256","internalType":"uint256"}],"outputs":[{"name":"minAmount","type":"uint256","internalType":"uint256"},{"name":"maxAmount","type":"uint256","internalType":"uint256"},{"name":"owPerDollar","type":"uint256","internalType":"uint256"}],"stateMutability":"view"},{"type":"function","name":"setGenesis","inputs":[{"name":"_genesis","type":"address","internalType":"address"}],"outputs":[],"stateMutability":"nonpayable"},{"type":"function","name":"setJobContract","inputs":[{"name":"_jobContract","type":"address","internalType":"address"}],"outputs":[],"stateMutability":"nonpayable"},{"type":"function","name":"setProfileGenesis","inputs":[{"name":"_profileGenesis","type":"address","internalType":"address"}],"outputs":[],"stateMutability":"nonpayable"},{"type":"function","name":"totalPlatformPayments","inputs":[],"outputs":[{"name":"","type":"uint256","internalType":"uint256"}],"stateMutability":"view"},{"type":"function","name":"transferOwnership","inputs":[{"name":"newOwner","type":"address","internalType":"address"}],"outputs":[],"stateMutability":"nonpayable"},{"type":"function","name":"updateRewardBand","inputs":[{"name":"index","type":"uint256","internalType":"uint256"},{"name":"minAmount","type":"uint256","internalType":"uint256"},{"name":"maxAmount","type":"uint256","internalType":"uint256"},{"name":"owPerDollar","type":"uint256","internalType":"uint256"}],"outputs":[],"stateMutability":"nonpayable"},{"type":"function","name":"upgradeToAndCall","inputs":[{"name":"newImplementation","type":"address","internalType":"address"},{"name":"data","type":"bytes","internalType":"bytes"}],"outputs":[],"stateMutability":"payable"},{"type":"function","name":"userBandIndex","inputs":[{"name":"","type":"address","internalType":"address"},{"name":"","type":"uint256","internalType":"uint256"}],"outputs":[{"name":"","type":"uint256","internalType":"uint256"}],"stateMutability":"view"},{"type":"function","name":"userBandRewards","inputs":[{"name":"","type":"address","internalType":"address"},{"name":"","type":"uint256","internalType":"uint256"}],"outputs":[{"name":"band","type":"uint256","internalType":"uint256"},{"name":"tokensEarned","type":"uint256","internalType":"uint256"},{"name":"tokensClaimable","type":"uint256","internalType":"uint256"},{"name":"tokensClaimed","type":"uint256","internalType":"uint256"}],"stateMutability":"view"},{"type":"function","name":"userGovernanceActionsByBand","inputs":[{"name":"","type":"address","internalType":"address"},{"name":"","type":"uint256","internalType":"uint256"}],"outputs":[{"name":"","type":"uint256","internalType":"uint256"}],"stateMutability":"view"},{"type":"function","name":"userHasBandRewards","inputs":[{"name":"","type":"address","internalType":"address"},{"name":"","type":"uint256","internalType":"uint256"}],"outputs":[{"name":"","type":"bool","internalType":"bool"}],"stateMutability":"view"},{"type":"function","name":"userTotalGovernanceActions","inputs":[{"name":"","type":"address","internalType":"address"}],"outputs":[{"name":"","type":"uint256","internalType":"uint256"}],"stateMutability":"view"},{"type":"function","name":"userTotalTokensClaimed","inputs":[{"name":"","type":"address","internalType":"address"}],"outputs":[{"name":"","type":"uint256","internalType":"uint256"}],"stateMutability":"view"},{"type":"function","name":"userTotalTokensEarned","inputs":[{"name":"","type":"address","internalType":"address"}],"outputs":[{"name":"","type":"uint256","internalType":"uint256"}],"stateMutability":"view"},{"type":"event","name":"AllRewardBandsCleared","inputs":[],"anonymous":false},{"type":"event","name":"GovernanceActionRecorded","inputs":[{"name":"user","type":"address","indexed":true,"internalType":"address"},{"name":"band","type":"uint256","indexed":true,"internalType":"uint256"},{"name":"newBandActions","type":"uint256","indexed":false,"internalType":"uint256"},{"name":"newTotalActions","type":"uint256","indexed":false,"internalType":"uint256"}],"anonymous":false},{"type":"event","name":"Initialized","inputs":[{"name":"version","type":"uint64","indexed":false,"internalType":"uint64"}],"anonymous":false},{"type":"event","name":"JobContractUpdated","inputs":[{"name":"oldContract","type":"address","indexed":true,"internalType":"address"},{"name":"newContract","type":"address","indexed":true,"internalType":"address"}],"anonymous":false},{"type":"event","name":"OwnershipTransferred","inputs":[{"name":"previousOwner","type":"address","indexed":true,"internalType":"address"},{"name":"newOwner","type":"address","indexed":true,"internalType":"address"}],"anonymous":false},{"type":"event","name":"RewardBandAdded","inputs":[{"name":"bandIndex","type":"uint256","indexed":true,"internalType":"uint256"},{"name":"minAmount","type":"uint256","indexed":false,"internalType":"uint256"},{"name":"maxAmount","type":"uint256","indexed":false,"internalType":"uint256"},{"name":"owPerDollar","type":"uint256","indexed":false,"internalType":"uint256"}],"anonymous":false},{"type":"event","name":"RewardBandRemoved","inputs":[{"name":"bandIndex","type":"uint256","indexed":true,"internalType":"uint256"}],"anonymous":false},{"type":"event","name":"RewardBandUpdated","inputs":[{"name":"bandIndex","type":"uint256","indexed":true,"internalType":"uint256"},{"name":"minAmount","type":"uint256","indexed":false,"internalType":"uint256"},{"name":"maxAmount","type":"uint256","indexed":false,"internalType":"uint256"},{"name":"owPerDollar","type":"uint256","indexed":false,"internalType":"uint256"}],"anonymous":false},{"type":"event","name":"TokensEarnedInBand","inputs":[{"name":"user","type":"address","indexed":true,"internalType":"address"},{"name":"tokensEarned","type":"uint256","indexed":false,"internalType":"uint256"},{"name":"band","type":"uint256","indexed":true,"internalType":"uint256"},{"name":"newBandTotal","type":"uint256","indexed":false,"internalType":"uint256"},{"name":"newUserTotal","type":"uint256","indexed":false,"internalType":"uint256"}],"anonymous":false},{"type":"event","name":"Upgraded","inputs":[{"name":"implementation","type":"address","indexed":true,"internalType":"address"}],"anonymous":false},{"type":"error","name":"AddressEmptyCode","inputs":[{"name":"target","type":"address","internalType":"address"}]},{"type":"error","name":"ERC1967InvalidImplementation","inputs":[{"name":"implementation","type":"address","internalType":"address"}]},{"type":"error","name":"ERC1967NonPayable","inputs":[]},{"type":"error","name":"FailedInnerCall","inputs":[]},{"type":"error","name":"InvalidInitialization","inputs":[]},{"type":"error","name":"NotInitializing","inputs":[]},{"type":"error","name":"OwnableInvalidOwner","inputs":[{"name":"owner","type":"address","internalType":"address"}]},{"type":"error","name":"OwnableUnauthorizedAccount","inputs":[{"name":"account","type":"address","internalType":"address"}]},{"type":"error","name":"UUPSUnauthorizedCallContext","inputs":[]},{"type":"error","name":"UUPSUnsupportedProxiableUUID","inputs":[{"name":"slot","type":"bytes32","internalType":"bytes32"}]}],"bytecode":{"object":"0x60a080604052346100c257306080525f5160206126135f395f51905f525460ff8160401c166100b3576002600160401b03196001600160401b03821601610060575b60405161254c90816100c782396080518181816111f901526112c80152f35b6001600160401b0319166001600160401b039081175f5160206126135f395f51905f525581527fc7f505b2f371ae2175ee4913f4499e1f2633a7b5936321eed1cdaeb6115181d290602090a15f80610041565b63f92ee8a960e01b5f5260045ffd5b5f80fdfe60806040526004361015610011575f80fd5b5f3560e01c806305aa02861461173757806306a72757146116ce57806306d1ab4b146116b1578063085660fd1461166d5780630a05b812146115ae57806322834ddb1461159157806323312a831461025d5780632557d6b9146114ec57806338654b6e14610d7357806341a8b263146114cf5780634f1ef2861461124d57806352d1902d146111e757806352f16b6714610dab57806353f0da701461110357806356476ddd14610fcf5780635b92f3d914610ea25780635d08d34e14610e7a5780636a55b7ca14610e37578063715018a614610de357806373517d4914610dab57806378359b2914610d7357806381d920ec14610d225780638b5ff8e214610c555780638da5cb5b14610c215780639de3d63614610bd8578063a2a67a9f14610b95578063a7f0b3de14610b6d578063ad3cb1cc14610b0f578063afd86a7614610ae8578063b17442e214610378578063b84968e114610ac0578063ba293e0714610744578063ba69e41014610723578063c0c53b8b14610589578063d773f1be14610567578063da7b2a3c1461049d578063e0eead9d146103bc578063e848635514610378578063e8c5cecc14610303578063eb14b353146102c0578063f2fde38b14610295578063f5700ee91461025d5763fad58b21146101f2575f80fd5b346102595760203660031901126102595761020b61177d565b610213611cc4565b5f80546001600160a01b039283166001600160a01b03198216811783559216907f437b6df9f652fc50590976e60d013461e282b738cea255f83d9b5de52466b7479080a3005b5f80fd5b34610259576020366003190112610259576001600160a01b0361027e61177d565b165f52600c602052602060405f2054604051908152f35b34610259576020366003190112610259576102be6102b161177d565b6102b9611cc4565b611c66565b005b34610259576020366003190112610259576102d961177d565b6102e1611cc4565b600180546001600160a01b0319166001600160a01b0392909216919091179055005b346102595760403660031901126102595761031c61177d565b6001600160a01b03165f908152600660205260409020805460243591908210156102595760809161034c9161188e565b508054906001810154906003600282015491015491604051938452602084015260408301526060820152f35b34610259576040366003190112610259576001600160a01b0361039961177d565b165f52600b60205260405f206024355f52602052602060405f2054604051908152f35b34610259576020366003190112610259576103d561177d565b6001600160a01b0381165f90815260066020526040812080549092906103fa81611af7565b9361040860405195866117f3565b81855260208501905f5260205f205f915b83831061047f57505050505f915b83518310156104745783518310156104605761045860019161045260208660051b8801015185611cf7565b90611aea565b920191610427565b634e487b7160e01b5f52603260045260245ffd5b602090604051908152f35b6004602060019261048f85611a1d565b815201920192019190610419565b34610259576020366003190112610259576104b661177d565b6104ca60018060a01b035f54163314611a93565b6104d2611bff565b9060018060a01b0316805f52600b60205260405f20825f5260205260405f206104fb8154611adc565b9055805f52600c60205260405f206105138154611adc565b9055805f52600b60205260405f20825f526020527fc4b4025c1ef837385a050aa8e351279d2da00e0f458bb3d1f05cdf096f0d5b226040805f2054835f52600c602052815f205482519182526020820152a3005b34610259575f366003190112610259576020610581611bff565b604051908152f35b34610259576060366003190112610259576105a261177d565b6105aa611793565b6044356001600160a01b0381169190829003610259575f5160206124f75f395f51905f5254604081901c60ff1615936001600160401b0382168015908161071b575b6001149081610711575b159081610708575b506106f9576001600160401b031982166001175f5160206124f75f395f51905f525561063b91856106d1575b506106336123cd565b6102b96123cd565b6106436123cd565b60018060a01b031660018060a01b03195f5416175f5560018060a01b031960015416176001555f6004555f600555610679611d64565b61067f57005b60ff60401b195f5160206124f75f395f51905f5254165f5160206124f75f395f51905f52557fc7f505b2f371ae2175ee4913f4499e1f2633a7b5936321eed1cdaeb6115181d2602060405160018152a1005b6001600160481b0319166001600160401b01175f5160206124f75f395f51905f52558561062a565b63f92ee8a960e01b5f5260045ffd5b905015866105fe565b303b1591506105f6565b8691506105ec565b34610259576040366003190112610259576020610581602435600435611b2d565b346102595760803660031901126102595761075d61177d565b610765611793565b9060443560643561078060018060a01b035f54163314611a93565b60048190556002546001600160a01b0316935f8086156109eb575050604051631b0a264d60e11b81526001600160a01b0385166004820152602081602481895afa9081156109c3576024916020915f916109ce575b50604051631b0a264d60e11b81526001600160a01b038516600482015290979092839182905afa9081156109c3575f91610994575b50915b83955f905f9360018060a01b03821680151580610981575b610969575b6001600160a01b0387168015159283610955575b508261094a575b5050610933575b6040519761085b60808a6117f3565b6003895260208901976060368a3781610915575b5050816108f1575b5050816108c6575b5050505090604051918291602083019060208452518091526040830191905f5b8181106108ad575050500390f35b825184528594506020938401939092019160010161089f565b6108d9936108d39161192f565b916121b1565b8251600210156104605760608301528280808061087f565b6108ff916108d3878561192f565b8651600110156104605760408701528680610877565b610923916108d3898761192f565b885115610460578752888061086f565b969250610944600a8604809461192f565b9661084c565b141590508980610845565b6001600160a01b031681141592508b61083e565b9850600a8704925061097b838861192f565b9861082a565b506001600160a01b038916811415610825565b6109b6915060203d6020116109bc575b6109ae81836117f3565b810190611b0e565b8661080a565b503d6109a4565b6040513d5f823e3d90fd5b6109e59150823d84116109bc576109ae81836117f3565b886107d5565b60015491965092906001600160a01b031680610a08575b5061080d565b604051631b0a264d60e11b81526001600160a01b0387166004820152909650909250602081602481895afa9081156109c3576024916020915f91610aa3575b50604051631b0a264d60e11b81526001600160a01b038516600482015290979092839182905afa9081156109c3575f91610a84575b509186610a02565b610a9d915060203d6020116109bc576109ae81836117f3565b86610a7c565b610aba9150823d84116109bc576109ae81836117f3565b88610a47565b34610259575f36600319011261025957610ad8611cc4565b610ae06118ba565b6102be611d64565b34610259575f366003190112610259575f546040516001600160a01b039091168152602090f35b34610259575f366003190112610259576040805190610b2e81836117f3565b600582526020820191640352e302e360dc1b83528151928391602083525180918160208501528484015e5f828201840152601f01601f19168101030190f35b34610259575f366003190112610259576001546040516001600160a01b039091168152602090f35b3461025957602036600319011261025957610bae61177d565b610bb6611cc4565b600280546001600160a01b0319166001600160a01b0392909216919091179055005b34610259576040366003190112610259576001600160a01b03610bf961177d565b165f52600860205260405f206024355f52602052602060ff60405f2054166040519015158152f35b34610259575f366003190112610259575f5160206124775f395f51905f52546040516001600160a01b039091168152602090f35b34610259576020366003190112610259576001600160a01b03610c7661177d565b165f52600660205260405f20805490610c8e82611af7565b91610c9c60405193846117f3565b8083526020830180925f5260205f205f915b838310610d04578486604051918291602083019060208452518091526040830191905f5b818110610ce0575050500390f35b919350916020608082610cf66001948851611831565b019401910191849392610cd2565b60046020600192610d1485611a1d565b815201920192019190610cae565b3461025957602036600319011261025957610d54610d4e600435610d49600354821061193c565b611854565b50611907565b8051610d6f6040602084015193015160405193849384611878565b0390f35b34610259576020366003190112610259576001600160a01b03610d9461177d565b165f526009602052602060405f2054604051908152f35b34610259576020366003190112610259576001600160a01b03610dcc61177d565b165f52600a602052602060405f2054604051908152f35b34610259575f36600319011261025957610dfb611cc4565b5f5160206124775f395f51905f5280546001600160a01b031981169091555f906001600160a01b03165f5160206124d75f395f51905f528280a3005b346102595760203660031901126102595760043560035481101561025957610e5e90611854565b508054610d6f6002600184015493015460405193849384611878565b34610259575f366003190112610259576002546040516001600160a01b039091168152602090f35b3461025957604036600319011261025957610ebb61177d565b60243590610ed360018060a01b035f54163314611a93565b81906001600160a01b038116905f5b825f52600660205260405f2054811080610fc6575b15610fa157825f526006602052610f1a610f148260405f2061188e565b50611a1d565b610f248184611cf7565b80610f3a575b5050610f3590611adc565b610ee2565b90610f359295610f91928082115f14610f9957915b865f52600760205260405f2090515f526020526003610f7d60405f2054885f52600660205260405f2061188e565b5001610f8a838254611aea565b905561192f565b939086610f2a565b508091610f4f565b84835f52600a602052610fb960405f20918254611aea565b9055602060405160018152f35b50831515610ef7565b3461025957606036600319011261025957600435604435602435610ff1611cc4565b610ffc83821161197d565b6110078215156119b9565b6003548061108d575b50611034604051611020816117a9565b848152826020820152836040820152611a4f565b6003545f19810193908411611079576110747f0451af7c88bbd27171f7dde7ce7bd2ebf3aeaecc7025c38a89c95bfed56511e09360405193849384611878565b0390a2005b634e487b7160e01b5f52601160045260245ffd5b5f198101908111611079576110a6610d4e602092611854565b015183106110b45783611010565b60405162461bcd60e51b815260206004820152602160248201527f476170206f72206f7665726c617020776974682070726576696f75732062616e6044820152601960fa1b6064820152608490fd5b346102595760403660031901126102595761111c61177d565b602435905f606060405161112f816117d8565b828152826020820152826040820152015260018060a01b0316805f52600860205260405f20825f5260205260ff60405f205416156111a857610f1481608093611199935f52600760205260405f20905f5260205260405f2054905f52600660205260405f2061188e565b6111a66040518092611831565bf35b60405162461bcd60e51b8152602060048201526017602482015276139bc81c995dd85c991cc81a5b881d1a1a5cc818985b99604a1b6044820152606490fd5b34610259575f366003190112610259577f00000000000000000000000000000000000000000000000000000000000000006001600160a01b0316300361123e5760206040515f5160206124b75f395f51905f528152f35b63703e46dd60e11b5f5260045ffd5b60403660031901126102595761126161177d565b602435906001600160401b03821161025957366023830112156102595781600401359061128d82611816565b9161129b60405193846117f3565b8083526020830193366024838301011161025957815f926024602093018737840101526001600160a01b037f0000000000000000000000000000000000000000000000000000000000000000163081149081156114ad575b5061123e575f5160206124775f395f51905f52546001600160a01b03163303611471576040516352d1902d60e01b81526001600160a01b0382169390602081600481885afa5f918161143d575b506113585784634c9c8ce360e01b5f5260045260245ffd5b805f5160206124b75f395f51905f5286920361142b5750823b15611419575f5160206124b75f395f51905f5280546001600160a01b031916821790557fbc7cd75a20ee27fd9adebab32041f755214dbc6bffa90cc0225b39da2e5c2d3b5f80a2825115611400575f80916102be945190845af43d156113f8573d916113dc83611816565b926113ea60405194856117f3565b83523d5f602085013e6123f8565b6060916123f8565b5050503461140a57005b63b398979f60e01b5f5260045ffd5b634c9c8ce360e01b5f5260045260245ffd5b632a87526960e21b5f5260045260245ffd5b9091506020813d602011611469575b81611459602093836117f3565b8101031261025957519086611340565b3d915061144c565b60405162461bcd60e51b8152602060048201526014602482015273556e617574686f72697a6564207570677261646560601b6044820152606490fd5b5f5160206124b75f395f51905f52546001600160a01b031614159050846112f3565b34610259575f366003190112610259576020600554604051908152f35b34610259576080366003190112610259576004357fc547d7ae63ddeea44404e9f9364683f1a73142f1baa7786874a0fb641cdc2593604435602435611074606435611535611cc4565b611542600354871061193c565b61154d83851161197d565b6115588115156119b9565b611585604051611567816117a9565b84815285602082015282604082015261157f88611854565b906119fd565b60405193849384611878565b34610259575f366003190112610259576020600354604051908152f35b34610259575f366003190112610259576115c6611cc4565b6003548015611633575f198101908111611079576115e381611854565b611620576002815f8093558260018201550155806003557f48707e0a963e0f927d27114c8b982d38626b0355f21cf5cf4763d1c1bbd116db5f80a2005b634e487b7160e01b5f525f60045260245ffd5b60405162461bcd60e51b81526020600482015260126024820152714e6f2062616e647320746f2072656d6f766560701b6044820152606490fd5b34610259576040366003190112610259576001600160a01b0361168e61177d565b165f52600760205260405f206024355f52602052602060405f2054604051908152f35b34610259575f366003190112610259576020600454604051908152f35b34610259575f3660031901126102595760a05f80806116eb611bff565b926004546003548510611715575b6040519485526020850152604084015260608301526080820152f35b92505050611725610d4e83611854565b805160406020830151920151926116f9565b34610259575f3660031901126102595761174f611cc4565b6117576118ba565b7fa5753a22218502f8646982172b351b2199a6aa2ae47e8408f53cab13028c3a045f80a1005b600435906001600160a01b038216820361025957565b602435906001600160a01b038216820361025957565b606081019081106001600160401b038211176117c457604052565b634e487b7160e01b5f52604160045260245ffd5b608081019081106001600160401b038211176117c457604052565b601f909101601f19168101906001600160401b038211908210176117c457604052565b6001600160401b0381116117c457601f01601f191660200190565b606080918051845260208101516020850152604081015160408501520151910152565b6003548110156104605760035f81815291025f5160206124575f395f51905f520191565b6040919493926060820195825260208201520152565b8054821015610460575f5260205f209060021b01905f90565b8181029291811591840414171561107957565b6003545f600355806118c95750565b806003029060038204036110795760035f5260205f205f5b8281106118ed57505050565b805f600260039385018281558260018201550155016118e1565b90604051611914816117a9565b60406002829480548452600181015460208501520154910152565b9190820391821161107957565b1561194357565b60405162461bcd60e51b8152602060048201526012602482015271092dcecc2d8d2c840c4c2dcc840d2dcc8caf60731b6044820152606490fd5b1561198457565b60405162461bcd60e51b815260206004820152600d60248201526c496e76616c69642072616e676560981b6044820152606490fd5b156119c057565b60405162461bcd60e51b815260206004820152601560248201527452617465206d75737420626520706f73697469766560581b6044820152606490fd5b919061162057604081600292518455602081015160018501550151910155565b90604051611a2a816117d8565b6060600382948054845260018101546020850152600281015460408501520154910152565b60035490600160401b8210156117c457600182016003556003548210156104605760035f818152611a91939091025f5160206124575f395f51905f52016119fd565b565b15611a9a57565b60405162461bcd60e51b815260206004820152601a60248201527913db9b1e481a9bd88818dbdb9d1c9858dd0818d85b8818d85b1b60321b6044820152606490fd5b5f1981146110795760010190565b9190820180921161107957565b6001600160401b0381116117c45760051b60200190565b9081602091031261025957516001600160a01b03811681036102595790565b9080821015611bf957600354915f805b84811080611bf0575b15611be857611b57610d4e82611854565b60208101519084821115611bdd57805180861115611bd7575084915b80871015611bd1575085915b828110611b98575b505050611b9390611adc565b611b3d565b611b93939550611bc08395926040611bb7620f424094611bc79761192f565b910151906118a7565b0490611aea565b9192905f80611b87565b91611b7f565b91611b73565b5050611b9390611adc565b509250505090565b50838310611b46565b50505f90565b6003546004545f5b828110611c295750508015611c24575f1981019081116110795790565b505f90565b611c3281611854565b505482101580611c4f575b611c4957600101611c07565b91505090565b506001611c5b82611854565b500154821115611c3d565b6001600160a01b03168015611cb1575f5160206124775f395f51905f5280546001600160a01b0319811683179091556001600160a01b03165f5160206124d75f395f51905f525f80a3565b631e4fbdf760e01b5f525f60045260245ffd5b5f5160206124775f395f51905f52546001600160a01b03163303611ce457565b63118cdaa760e01b5f523360045260245ffd5b60018060a01b03165f52600b60205260405f2081515f52602052611d2e60405f20546002611d258451611854565b500154906118a7565b90606060208201519101518082115f14611d5c57611d4b9161192f565b81811115611d57575090565b905090565b50505f611d4b565b611d95604051611d73816117a9565b5f815264174876e8006020820152681043561a88293000006040820152611a4f565b611dcb604051611da4816117a9565b64174876e8008152642e90edd0006020820152681043561a88293000006040820152611a4f565b611e01604051611dda816117a9565b642e90edd0008152645d21dba0006020820152680821ab0d44149800006040820152611a4f565b611e37604051611e10816117a9565b645d21dba000815264ba43b740006020820152680410d586a20a4c00006040820152611a4f565b611e6e604051611e46816117a9565b64ba43b740008152650174876e800060208201526802086ac351052600006040820152611a4f565b611ea6604051611e7d816117a9565b650174876e800081526502e90edd000060208201526801043561a8829300006040820152611a4f565b611edd604051611eb5816117a9565b6502e90edd000081526505d21dba0000602082015267821ab0d4414980006040820152611a4f565b611f14604051611eec816117a9565b6505d21dba00008152650ba43b740000602082015267410d586a20a4c0006040820152611a4f565b611f4b604051611f23816117a9565b650ba43b740000815265174876e800006020820152672086ac35105260006040820152611a4f565b611f82604051611f5a816117a9565b65174876e800008152652e90edd000006020820152671043561a882930006040820152611a4f565b611fb9604051611f91816117a9565b652e90edd000008152655d21dba000006020820152670821ab0d441498006040820152611a4f565b611ff0604051611fc8816117a9565b655d21dba00000815265ba43b74000006020820152670410d586a20a4c006040820152611a4f565b612028604051611fff816117a9565b65ba43b74000008152660174876e80000060208201526702086ac3510526006040820152611a4f565b612061604051612037816117a9565b660174876e80000081526602e90edd00000060208201526701043561a88293006040820152611a4f565b612099604051612070816117a9565b6602e90edd00000081526605d21dba000000602082015266821ab0d44149806040820152611a4f565b6120d16040516120a8816117a9565b6605d21dba0000008152660ba43b74000000602082015266410d586a20a4c06040820152611a4f565b6121096040516120e0816117a9565b660ba43b74000000815266174876e80000006020820152662086ac351052606040820152611a4f565b612141604051612118816117a9565b66174876e80000008152662e90edd00000006020820152661043561a8829306040820152611a4f565b612179604051612150816117a9565b662e90edd00000008152665d21dba00000006020820152660821ab0d4414986040820152611a4f565b611a91604051612188816117a9565b665d21dba0000000815266ba43b7400000006020820152660410d586a20a4c6040820152611a4f565b916121ce906121c86121c1611bff565b9382611aea565b90611b2d565b9182156123695760018060a01b03811690815f52600860205260405f20835f526020528260ff60405f2054165f146122925761226e905f5160206124975f395f51905f5292845f52600760205260405f20825f52602052600161224060405f2054875f52600660205260405f2061188e565b500161224d888254611aea565b90555b845f52600960205260405f20612267888254611aea565b9055612370565b825f52600960205260405f20549061228c6040519283928884611878565b0390a390565b5060405161229f816117d8565b8381526020810190858252604081015f815260608201905f8252855f52600660205260405f208054600160401b8110156117c4576122e29160018201815561188e565b9490946116205760039351855551600185015551600284015551910155815f52600660205260405f2054905f198201918211611079578361226e915f5160206124975f395f51905f5293855f52600760205260405f20835f5260205260405f2055845f52600860205260405f20825f5260205260405f20600160ff19825416179055612250565b5050505f90565b60018060a01b031690815f52600860205260405f20815f5260205260ff60405f20541615611bf957816123c7916001935f52600760205260405f20905f5260205260405f2054905f52600660205260405f2061188e565b50015490565b60ff5f5160206124f75f395f51905f525460401c16156123e957565b631afcd79f60e31b5f5260045ffd5b9061241c575080511561240d57805190602001fd5b630a12f52160e11b5f5260045ffd5b8151158061244d575b61242d575090565b639996b31560e01b5f9081526001600160a01b0391909116600452602490fd5b50803b1561242556fec2575a0e9e593c00f959f8c92f12db2869c3395a3b0502d05e2516446f71f85b9016d09d72d40fdae2fd8ceac6b6234c7706214fd39c1cd1e609a0528c19930032e3dd3d4c946ae63ad267ef6aeaba90f817657e0b84ea133611910121f779b3360894a13ba1a3210667c828492db98dca3e2076cc3735a920a3ca505d382bbc8be0079c531659141344cd1fd0a4f28419497f9722a3daafe3b4186f6b6457e0f0c57e16840df040f15088dc2f81fe391c3923bec73e23a9662efc9c229c6a00a2646970667358221220fcdd7203eed0badaf37cf20ce1f166df7eb1e2f59387a2d125be06fcceb8fb5964736f6c63430008210033f0c57e16840df040f15088dc2f81fe391c3923bec73e23a9662efc9c229c6a00","linkReferences":{}},"methodIdentifiers":{"UPGRADE_INTERFACE_VERSION()":"ad3cb1cc","addRewardBand(uint256,uint256,uint256)":"56476ddd","calculateTokensForRange(uint256,uint256)":"ba69e410","clearAllRewardBands()":"05aa0286","currentPlatformBand()":"41a8b263","genesis()":"a7f0b3de","getCurrentBand()":"d773f1be","getPlatformBandInfo()":"06a72757","getRewardBand(uint256)":"81d920ec","getRewardBandsCount()":"22834ddb","getUserBandRewards(address)":"8b5ff8e2","getUserGovernanceActionsInBand(address,uint256)":"e8486355","getUserRewardsInBand(address,uint256)":"53f0da70","getUserTotalClaimableTokens(address)":"e0eead9d","getUserTotalGovernanceActions(address)":"23312a83","getUserTotalTokensClaimed(address)":"73517d49","getUserTotalTokensEarned(address)":"78359b29","initialize(address,address,address)":"c0c53b8b","jobContract()":"afd86a76","markTokensClaimed(address,uint256)":"5b92f3d9","owner()":"8da5cb5b","processJobPayment(address,address,uint256,uint256)":"ba293e07","profileGenesis()":"5d08d34e","proxiableUUID()":"52d1902d","recordGovernanceAction(address)":"da7b2a3c","removeLastRewardBand()":"0a05b812","renounceOwnership()":"715018a6","resetRewardBands()":"b84968e1","rewardBands(uint256)":"6a55b7ca","setGenesis(address)":"eb14b353","setJobContract(address)":"fad58b21","setProfileGenesis(address)":"a2a67a9f","totalPlatformPayments()":"06d1ab4b","transferOwnership(address)":"f2fde38b","updateRewardBand(uint256,uint256,uint256,uint256)":"2557d6b9","upgradeToAndCall(address,bytes)":"4f1ef286","userBandIndex(address,uint256)":"085660fd","userBandRewards(address,uint256)":"e8c5cecc","userGovernanceActionsByBand(address,uint256)":"b17442e2","userHasBandRewards(address,uint256)":"9de3d636","userTotalGovernanceActions(address)":"f5700ee9","userTotalTokensClaimed(address)":"52f16b67","userTotalTokensEarned(address)":"38654b6e"},"id":86}