{"abi":[{"type":"constructor","inputs":[],"stateMutability":"nonpayable"},{"type":"function","name":"UPGRADE_INTERFACE_VERSION","inputs":[],"outputs":[{"name":"","type":"string","internalType":"string"}],"stateMutability":"view"},{"type":"function","name":"accumulatedCommission","inputs":[],"outputs":[{"name":"","type":"uint256","internalType":"uint256"}],"stateMutability":"view"},{"type":"function","name":"addAuthorizedContract","inputs":[{"name":"contractAddress","type":"address","internalType":"address"}],"outputs":[],"stateMutability":"nonpayable"},{"type":"function","name":"applyToJob","inputs":[{"name":"_applicant","type":"address","internalType":"address"},{"name":"_jobId","type":"string","internalType":"string"},{"name":"_applicationHash","type":"string","internalType":"string"},{"name":"_descriptions","type":"string[]","internalType":"string[]"},{"name":"_amounts","type":"uint256[]","internalType":"uint256[]"},{"name":"_preferredChainDomain","type":"uint32","internalType":"uint32"}],"outputs":[],"stateMutability":"nonpayable"},{"type":"function","name":"authorizedContracts","inputs":[{"name":"","type":"address","internalType":"address"}],"outputs":[{"name":"","type":"bool","internalType":"bool"}],"stateMutability":"view"},{"type":"function","name":"bridge","inputs":[],"outputs":[{"name":"","type":"address","internalType":"address"}],"stateMutability":"view"},{"type":"function","name":"calculateCommission","inputs":[{"name":"amount","type":"uint256","internalType":"uint256"}],"outputs":[{"name":"","type":"uint256","internalType":"uint256"}],"stateMutability":"view"},{"type":"function","name":"calculateTokensForAmount","inputs":[{"name":"","type":"address","internalType":"address"},{"name":"additionalAmount","type":"uint256","internalType":"uint256"}],"outputs":[{"name":"","type":"uint256","internalType":"uint256"}],"stateMutability":"view"},{"type":"function","name":"cctpReceiver","inputs":[],"outputs":[{"name":"","type":"address","internalType":"address"}],"stateMutability":"view"},{"type":"function","name":"cctpTransceiver","inputs":[],"outputs":[{"name":"","type":"address","internalType":"address"}],"stateMutability":"view"},{"type":"function","name":"commissionPercentage","inputs":[],"outputs":[{"name":"","type":"uint256","internalType":"uint256"}],"stateMutability":"view"},{"type":"function","name":"genesis","inputs":[],"outputs":[{"name":"","type":"address","internalType":"contract IOpenworkGenesis"}],"stateMutability":"view"},{"type":"function","name":"getJob","inputs":[{"name":"_jobId","type":"string","internalType":"string"}],"outputs":[{"name":"","type":"tuple","internalType":"struct NativeOpenWorkJobContract.Job","components":[{"name":"id","type":"string","internalType":"string"},{"name":"jobGiver","type":"address","internalType":"address"},{"name":"applicants","type":"address[]","internalType":"address[]"},{"name":"jobDetailHash","type":"string","internalType":"string"},{"name":"status","type":"uint8","internalType":"enum NativeOpenWorkJobContract.JobStatus"},{"name":"workSubmissions","type":"string[]","internalType":"string[]"},{"name":"milestonePayments","type":"tuple[]","internalType":"struct NativeOpenWorkJobContract.MilestonePayment[]","components":[{"name":"descriptionHash","type":"string","internalType":"string"},{"name":"amount","type":"uint256","internalType":"uint256"}]},{"name":"finalMilestones","type":"tuple[]","internalType":"struct NativeOpenWorkJobContract.MilestonePayment[]","components":[{"name":"descriptionHash","type":"string","internalType":"string"},{"name":"amount","type":"uint256","internalType":"uint256"}]},{"name":"totalPaid","type":"uint256","internalType":"uint256"},{"name":"currentMilestone","type":"uint256","internalType":"uint256"},{"name":"selectedApplicant","type":"address","internalType":"address"},{"name":"selectedApplicationId","type":"uint256","internalType":"uint256"}]}],"stateMutability":"view"},{"type":"function","name":"getUserEarnedTokens","inputs":[{"name":"user","type":"address","internalType":"address"}],"outputs":[{"name":"","type":"uint256","internalType":"uint256"}],"stateMutability":"view"},{"type":"function","name":"getUserGovernanceActions","inputs":[{"name":"user","type":"address","internalType":"address"}],"outputs":[{"name":"","type":"uint256","internalType":"uint256"}],"stateMutability":"view"},{"type":"function","name":"getUserGovernanceActionsInBand","inputs":[{"name":"user","type":"address","internalType":"address"},{"name":"band","type":"uint256","internalType":"uint256"}],"outputs":[{"name":"","type":"uint256","internalType":"uint256"}],"stateMutability":"view"},{"type":"function","name":"getUserRewardInfo","inputs":[{"name":"user","type":"address","internalType":"address"}],"outputs":[{"name":"totalTokens","type":"uint256","internalType":"uint256"},{"name":"governanceActions","type":"uint256","internalType":"uint256"}],"stateMutability":"view"},{"type":"function","name":"handleReleasePaymentCrossChain","inputs":[{"name":"_jobGiver","type":"address","internalType":"address"},{"name":"_jobId","type":"string","internalType":"string"},{"name":"_amount","type":"uint256","internalType":"uint256"},{"name":"_targetChainDomain","type":"uint32","internalType":"uint32"},{"name":"_targetRecipient","type":"address","internalType":"address"}],"outputs":[],"stateMutability":"nonpayable"},{"type":"function","name":"handleStartDirectContract","inputs":[{"name":"_jobGiver","type":"address","internalType":"address"},{"name":"_jobTaker","type":"address","internalType":"address"},{"name":"_jobId","type":"string","internalType":"string"},{"name":"_jobDetailHash","type":"string","internalType":"string"},{"name":"_descriptions","type":"string[]","internalType":"string[]"},{"name":"_amounts","type":"uint256[]","internalType":"uint256[]"},{"name":"_jobTakerChainDomain","type":"uint32","internalType":"uint32"}],"outputs":[],"stateMutability":"nonpayable"},{"type":"function","name":"handleUpdateUserClaimData","inputs":[{"name":"user","type":"address","internalType":"address"},{"name":"claimedTokens","type":"uint256","internalType":"uint256"}],"outputs":[],"stateMutability":"nonpayable"},{"type":"function","name":"incrementGovernanceAction","inputs":[{"name":"user","type":"address","internalType":"address"}],"outputs":[],"stateMutability":"nonpayable"},{"type":"function","name":"initialize","inputs":[{"name":"_owner","type":"address","internalType":"address"},{"name":"_bridge","type":"address","internalType":"address"},{"name":"_genesis","type":"address","internalType":"address"},{"name":"_rewardsContract","type":"address","internalType":"address"},{"name":"_usdtToken","type":"address","internalType":"address"},{"name":"_cctpReceiver","type":"address","internalType":"address"}],"outputs":[],"stateMutability":"nonpayable"},{"type":"function","name":"isAuthorizedContract","inputs":[{"name":"contractAddress","type":"address","internalType":"address"}],"outputs":[{"name":"","type":"bool","internalType":"bool"}],"stateMutability":"view"},{"type":"function","name":"jobApplicantChainDomain","inputs":[{"name":"","type":"string","internalType":"string"},{"name":"","type":"address","internalType":"address"}],"outputs":[{"name":"","type":"uint32","internalType":"uint32"}],"stateMutability":"view"},{"type":"function","name":"lockNextMilestone","inputs":[{"name":"","type":"address","internalType":"address"},{"name":"_jobId","type":"string","internalType":"string"},{"name":"_lockedAmount","type":"uint256","internalType":"uint256"}],"outputs":[],"stateMutability":"nonpayable"},{"type":"function","name":"minCommission","inputs":[],"outputs":[{"name":"","type":"uint256","internalType":"uint256"}],"stateMutability":"view"},{"type":"function","name":"nativeAthena","inputs":[],"outputs":[{"name":"","type":"address","internalType":"address"}],"stateMutability":"view"},{"type":"function","name":"owner","inputs":[],"outputs":[{"name":"","type":"address","internalType":"address"}],"stateMutability":"view"},{"type":"function","name":"postJob","inputs":[{"name":"_jobId","type":"string","internalType":"string"},{"name":"_jobGiver","type":"address","internalType":"address"},{"name":"_jobDetailHash","type":"string","internalType":"string"},{"name":"_descriptions","type":"string[]","internalType":"string[]"},{"name":"_amounts","type":"uint256[]","internalType":"uint256[]"}],"outputs":[],"stateMutability":"nonpayable"},{"type":"function","name":"proxiableUUID","inputs":[],"outputs":[{"name":"","type":"bytes32","internalType":"bytes32"}],"stateMutability":"view"},{"type":"function","name":"releaseDisputedFunds","inputs":[{"name":"_recipient","type":"address","internalType":"address"},{"name":"_amount","type":"uint256","internalType":"uint256"},{"name":"_targetChainDomain","type":"uint32","internalType":"uint32"}],"outputs":[],"stateMutability":"nonpayable"},{"type":"function","name":"releasePaymentAndLockNext","inputs":[{"name":"_jobGiver","type":"address","internalType":"address"},{"name":"_jobId","type":"string","internalType":"string"},{"name":"_releasedAmount","type":"uint256","internalType":"uint256"},{"name":"_lockedAmount","type":"uint256","internalType":"uint256"}],"outputs":[],"stateMutability":"nonpayable"},{"type":"function","name":"releasePaymentCrossChain","inputs":[{"name":"_jobGiver","type":"address","internalType":"address"},{"name":"_jobId","type":"string","internalType":"string"},{"name":"_amount","type":"uint256","internalType":"uint256"},{"name":"_targetChainDomain","type":"uint32","internalType":"uint32"},{"name":"_targetRecipient","type":"address","internalType":"address"}],"outputs":[],"stateMutability":"nonpayable"},{"type":"function","name":"removeAuthorizedContract","inputs":[{"name":"contractAddress","type":"address","internalType":"address"}],"outputs":[],"stateMutability":"nonpayable"},{"type":"function","name":"renounceOwnership","inputs":[],"outputs":[],"stateMutability":"nonpayable"},{"type":"function","name":"rewardsContract","inputs":[],"outputs":[{"name":"","type":"address","internalType":"contract IOpenWorkRewards"}],"stateMutability":"view"},{"type":"function","name":"setApplicantChainDomain","inputs":[{"name":"_jobId","type":"string","internalType":"string"},{"name":"_applicant","type":"address","internalType":"address"},{"name":"_chainDomain","type":"uint32","internalType":"uint32"}],"outputs":[],"stateMutability":"nonpayable"},{"type":"function","name":"setBridge","inputs":[{"name":"_bridge","type":"address","internalType":"address"}],"outputs":[],"stateMutability":"nonpayable"},{"type":"function","name":"setCCTPReceiver","inputs":[{"name":"_cctpReceiver","type":"address","internalType":"address"}],"outputs":[],"stateMutability":"nonpayable"},{"type":"function","name":"setCCTPTransceiver","inputs":[{"name":"_cctpTransceiver","type":"address","internalType":"address"}],"outputs":[],"stateMutability":"nonpayable"},{"type":"function","name":"setCommissionPercentage","inputs":[{"name":"_percentage","type":"uint256","internalType":"uint256"}],"outputs":[],"stateMutability":"nonpayable"},{"type":"function","name":"setGenesis","inputs":[{"name":"_genesis","type":"address","internalType":"address"}],"outputs":[],"stateMutability":"nonpayable"},{"type":"function","name":"setMinCommission","inputs":[{"name":"_minCommission","type":"uint256","internalType":"uint256"}],"outputs":[],"stateMutability":"nonpayable"},{"type":"function","name":"setNativeAthena","inputs":[{"name":"_nativeAthena","type":"address","internalType":"address"}],"outputs":[],"stateMutability":"nonpayable"},{"type":"function","name":"setRewardsContract","inputs":[{"name":"_rewardsContract","type":"address","internalType":"address"}],"outputs":[],"stateMutability":"nonpayable"},{"type":"function","name":"setTreasury","inputs":[{"name":"_treasury","type":"address","internalType":"address"}],"outputs":[],"stateMutability":"nonpayable"},{"type":"function","name":"setUSDTToken","inputs":[{"name":"_newToken","type":"address","internalType":"address"}],"outputs":[],"stateMutability":"nonpayable"},{"type":"function","name":"startJob","inputs":[{"name":"","type":"address","internalType":"address"},{"name":"_jobId","type":"string","internalType":"string"},{"name":"_applicationId","type":"uint256","internalType":"uint256"},{"name":"_useApplicantMilestones","type":"bool","internalType":"bool"}],"outputs":[],"stateMutability":"nonpayable"},{"type":"function","name":"submitWork","inputs":[{"name":"_applicant","type":"address","internalType":"address"},{"name":"_jobId","type":"string","internalType":"string"},{"name":"_submissionHash","type":"string","internalType":"string"}],"outputs":[],"stateMutability":"nonpayable"},{"type":"function","name":"syncRewardsData","inputs":[{"name":"_options","type":"bytes","internalType":"bytes"}],"outputs":[],"stateMutability":"payable"},{"type":"function","name":"syncVotingPower","inputs":[{"name":"_options","type":"bytes","internalType":"bytes"}],"outputs":[],"stateMutability":"payable"},{"type":"function","name":"transferOwnership","inputs":[{"name":"newOwner","type":"address","internalType":"address"}],"outputs":[],"stateMutability":"nonpayable"},{"type":"function","name":"treasury","inputs":[],"outputs":[{"name":"","type":"address","internalType":"address"}],"stateMutability":"view"},{"type":"function","name":"upgradeFromDAO","inputs":[{"name":"newImplementation","type":"address","internalType":"address"}],"outputs":[],"stateMutability":"nonpayable"},{"type":"function","name":"upgradeToAndCall","inputs":[{"name":"newImplementation","type":"address","internalType":"address"},{"name":"data","type":"bytes","internalType":"bytes"}],"outputs":[],"stateMutability":"payable"},{"type":"function","name":"usdtToken","inputs":[],"outputs":[{"name":"","type":"address","internalType":"contract IERC20"}],"stateMutability":"view"},{"type":"function","name":"withdrawAllCommission","inputs":[],"outputs":[],"stateMutability":"nonpayable"},{"type":"function","name":"withdrawCommission","inputs":[{"name":"amount","type":"uint256","internalType":"uint256"}],"outputs":[],"stateMutability":"nonpayable"},{"type":"event","name":"AuthorizedContractAdded","inputs":[{"name":"contractAddress","type":"address","indexed":true,"internalType":"address"}],"anonymous":false},{"type":"event","name":"AuthorizedContractRemoved","inputs":[{"name":"contractAddress","type":"address","indexed":true,"internalType":"address"}],"anonymous":false},{"type":"event","name":"BridgeUpdated","inputs":[{"name":"oldBridge","type":"address","indexed":true,"internalType":"address"},{"name":"newBridge","type":"address","indexed":true,"internalType":"address"}],"anonymous":false},{"type":"event","name":"ClaimDataUpdated","inputs":[{"name":"user","type":"address","indexed":true,"internalType":"address"},{"name":"claimedJobTokens","type":"uint256","indexed":false,"internalType":"uint256"},{"name":"claimedGovernanceTokens","type":"uint256","indexed":false,"internalType":"uint256"}],"anonymous":false},{"type":"event","name":"CommissionDeducted","inputs":[{"name":"jobId","type":"string","indexed":true,"internalType":"string"},{"name":"grossAmount","type":"uint256","indexed":false,"internalType":"uint256"},{"name":"commission","type":"uint256","indexed":false,"internalType":"uint256"},{"name":"netAmount","type":"uint256","indexed":false,"internalType":"uint256"}],"anonymous":false},{"type":"event","name":"CommissionPercentageUpdated","inputs":[{"name":"oldPercentage","type":"uint256","indexed":false,"internalType":"uint256"},{"name":"newPercentage","type":"uint256","indexed":false,"internalType":"uint256"}],"anonymous":false},{"type":"event","name":"CommissionWithdrawn","inputs":[{"name":"treasury","type":"address","indexed":true,"internalType":"address"},{"name":"amount","type":"uint256","indexed":false,"internalType":"uint256"}],"anonymous":false},{"type":"event","name":"DisputedFundsReleased","inputs":[{"name":"jobId","type":"string","indexed":true,"internalType":"string"},{"name":"winner","type":"address","indexed":true,"internalType":"address"},{"name":"winnerChainDomain","type":"uint32","indexed":false,"internalType":"uint32"},{"name":"amount","type":"uint256","indexed":false,"internalType":"uint256"}],"anonymous":false},{"type":"event","name":"GenesisUpdated","inputs":[{"name":"oldGenesis","type":"address","indexed":true,"internalType":"address"},{"name":"newGenesis","type":"address","indexed":true,"internalType":"address"}],"anonymous":false},{"type":"event","name":"GovernanceActionIncremented","inputs":[{"name":"user","type":"address","indexed":true,"internalType":"address"},{"name":"newGovernanceActionCount","type":"uint256","indexed":false,"internalType":"uint256"},{"name":"band","type":"uint256","indexed":true,"internalType":"uint256"}],"anonymous":false},{"type":"event","name":"Initialized","inputs":[{"name":"version","type":"uint64","indexed":false,"internalType":"uint64"}],"anonymous":false},{"type":"event","name":"JobApplication","inputs":[{"name":"jobId","type":"string","indexed":true,"internalType":"string"},{"name":"applicationId","type":"uint256","indexed":true,"internalType":"uint256"},{"name":"applicant","type":"address","indexed":true,"internalType":"address"},{"name":"applicationHash","type":"string","indexed":false,"internalType":"string"}],"anonymous":false},{"type":"event","name":"JobPosted","inputs":[{"name":"jobId","type":"string","indexed":true,"internalType":"string"},{"name":"jobGiver","type":"address","indexed":true,"internalType":"address"},{"name":"jobDetailHash","type":"string","indexed":false,"internalType":"string"}],"anonymous":false},{"type":"event","name":"JobStarted","inputs":[{"name":"jobId","type":"string","indexed":true,"internalType":"string"},{"name":"applicationId","type":"uint256","indexed":true,"internalType":"uint256"},{"name":"selectedApplicant","type":"address","indexed":true,"internalType":"address"},{"name":"useApplicantMilestones","type":"bool","indexed":false,"internalType":"bool"}],"anonymous":false},{"type":"event","name":"JobStatusChanged","inputs":[{"name":"jobId","type":"string","indexed":true,"internalType":"string"},{"name":"newStatus","type":"uint8","indexed":false,"internalType":"enum NativeOpenWorkJobContract.JobStatus"}],"anonymous":false},{"type":"event","name":"MilestoneLocked","inputs":[{"name":"jobId","type":"string","indexed":true,"internalType":"string"},{"name":"newMilestone","type":"uint256","indexed":false,"internalType":"uint256"},{"name":"lockedAmount","type":"uint256","indexed":false,"internalType":"uint256"}],"anonymous":false},{"type":"event","name":"MinCommissionUpdated","inputs":[{"name":"oldMin","type":"uint256","indexed":false,"internalType":"uint256"},{"name":"newMin","type":"uint256","indexed":false,"internalType":"uint256"}],"anonymous":false},{"type":"event","name":"NativeAthenaUpdated","inputs":[{"name":"oldNativeAthena","type":"address","indexed":true,"internalType":"address"},{"name":"newNativeAthena","type":"address","indexed":true,"internalType":"address"}],"anonymous":false},{"type":"event","name":"OwnershipTransferred","inputs":[{"name":"previousOwner","type":"address","indexed":true,"internalType":"address"},{"name":"newOwner","type":"address","indexed":true,"internalType":"address"}],"anonymous":false},{"type":"event","name":"PaymentReleased","inputs":[{"name":"jobId","type":"string","indexed":true,"internalType":"string"},{"name":"jobGiver","type":"address","indexed":true,"internalType":"address"},{"name":"applicant","type":"address","indexed":true,"internalType":"address"},{"name":"amount","type":"uint256","indexed":false,"internalType":"uint256"},{"name":"milestone","type":"uint256","indexed":false,"internalType":"uint256"}],"anonymous":false},{"type":"event","name":"PaymentReleasedAndNextMilestoneLocked","inputs":[{"name":"jobId","type":"string","indexed":true,"internalType":"string"},{"name":"releasedAmount","type":"uint256","indexed":false,"internalType":"uint256"},{"name":"lockedAmount","type":"uint256","indexed":false,"internalType":"uint256"},{"name":"milestone","type":"uint256","indexed":false,"internalType":"uint256"}],"anonymous":false},{"type":"event","name":"PortfolioAdded","inputs":[{"name":"user","type":"address","indexed":true,"internalType":"address"},{"name":"portfolioHash","type":"string","indexed":false,"internalType":"string"}],"anonymous":false},{"type":"event","name":"ProfileCreated","inputs":[{"name":"user","type":"address","indexed":true,"internalType":"address"},{"name":"ipfsHash","type":"string","indexed":false,"internalType":"string"},{"name":"referrer","type":"address","indexed":false,"internalType":"address"}],"anonymous":false},{"type":"event","name":"RewardsContractUpdated","inputs":[{"name":"oldRewards","type":"address","indexed":true,"internalType":"address"},{"name":"newRewards","type":"address","indexed":true,"internalType":"address"}],"anonymous":false},{"type":"event","name":"RewardsDataSynced","inputs":[{"name":"user","type":"address","indexed":true,"internalType":"address"},{"name":"syncType","type":"uint256","indexed":false,"internalType":"uint256"},{"name":"claimableAmount","type":"uint256","indexed":false,"internalType":"uint256"},{"name":"reserved","type":"uint256","indexed":false,"internalType":"uint256"}],"anonymous":false},{"type":"event","name":"TokensEarned","inputs":[{"name":"user","type":"address","indexed":true,"internalType":"address"},{"name":"tokensEarned","type":"uint256","indexed":false,"internalType":"uint256"},{"name":"newPlatformTotal","type":"uint256","indexed":false,"internalType":"uint256"},{"name":"newUserTotalTokens","type":"uint256","indexed":false,"internalType":"uint256"}],"anonymous":false},{"type":"event","name":"TreasuryUpdated","inputs":[{"name":"oldTreasury","type":"address","indexed":true,"internalType":"address"},{"name":"newTreasury","type":"address","indexed":true,"internalType":"address"}],"anonymous":false},{"type":"event","name":"Upgraded","inputs":[{"name":"implementation","type":"address","indexed":true,"internalType":"address"}],"anonymous":false},{"type":"event","name":"UserRated","inputs":[{"name":"jobId","type":"string","indexed":true,"internalType":"string"},{"name":"rater","type":"address","indexed":true,"internalType":"address"},{"name":"rated","type":"address","indexed":true,"internalType":"address"},{"name":"rating","type":"uint256","indexed":false,"internalType":"uint256"}],"anonymous":false},{"type":"event","name":"WorkSubmitted","inputs":[{"name":"jobId","type":"string","indexed":true,"internalType":"string"},{"name":"applicant","type":"address","indexed":true,"internalType":"address"},{"name":"submissionHash","type":"string","indexed":false,"internalType":"string"},{"name":"milestone","type":"uint256","indexed":false,"internalType":"uint256"}],"anonymous":false},{"type":"error","name":"AddressEmptyCode","inputs":[{"name":"target","type":"address","internalType":"address"}]},{"type":"error","name":"AddressInsufficientBalance","inputs":[{"name":"account","type":"address","internalType":"address"}]},{"type":"error","name":"ERC1967InvalidImplementation","inputs":[{"name":"implementation","type":"address","internalType":"address"}]},{"type":"error","name":"ERC1967NonPayable","inputs":[]},{"type":"error","name":"FailedInnerCall","inputs":[]},{"type":"error","name":"InvalidInitialization","inputs":[]},{"type":"error","name":"NotInitializing","inputs":[]},{"type":"error","name":"OwnableInvalidOwner","inputs":[{"name":"owner","type":"address","internalType":"address"}]},{"type":"error","name":"OwnableUnauthorizedAccount","inputs":[{"name":"account","type":"address","internalType":"address"}]},{"type":"error","name":"SafeERC20FailedOperation","inputs":[{"name":"token","type":"address","internalType":"address"}]},{"type":"error","name":"UUPSUnauthorizedCallContext","inputs":[]},{"type":"error","name":"UUPSUnsupportedProxiableUUID","inputs":[{"name":"slot","type":"bytes32","internalType":"bytes32"}]}],"bytecode":{"object":"0x60a080604052346100d557306080526064600d55620f4240600e555f51602061547c5f395f51905f525460ff8160401c166100c6576002600160401b03196001600160401b03821601610073575b6040516153a290816100da8239608051818181612459015281816124fd01526129920152f35b6001600160401b0319166001600160401b039081175f51602061547c5f395f51905f525581527fc7f505b2f371ae2175ee4913f4499e1f2633a7b5936321eed1cdaeb6115181d290602090a15f8061004d565b63f92ee8a960e01b5f5260045ffd5b5f80fdfe60806040526004361015610011575f80fd5b5f5f3560e01c806309d6667e1461341b5780631277bbf814612f5157806317face8414612ead578063220cce9714612e8457806323dc878c14612e5b57806329f8d96d14612de3578063301f825714612be357806339b87c8f14612b5457806340634e3b1461294257806342b0f652146127655780634efac43f146126fa5780634f1ef286146124ad57806352d1902d146124465780635843905f146124225780636009b51f14611dc457806361d027b314611d9b57806366d0ead314610d1357806366e226bd14611d4e5780636951731014611d1e5780636c2db78f14611cf5578063715018a614611c9f57806377e324071461196d578063859705a81461184357806387e821d6146117195780638da5cb5b146116e45780638dd148021461167957806394928b841461165157806398eaa4a7146115dd57806399f426be146113eb578063a7f0b3de146113c4578063a98ad46c1461139b578063ad3cb1cc1461134e578063ae69367314611330578063b9acee1d146111ea578063ba2459631461105d578063c088797b14610f8c578063cc2a9a5b14610d8f578063ce9b432114610d70578063d575fe6414610d52578063d5b9221b14610d13578063d6e3c76a14610cc6578063d819aea414610cab578063dc209f1314610c82578063de8fd3af14610c2c578063dfa0dfa514610bc1578063e4a9d8ee14610b74578063e4e2a85614610b44578063e6b165ed14610ade578063e78cea9214610ab5578063e848635514610a8d578063eb14b35314610a26578063eca688ea14610a08578063f0f442601461095b578063f14db7831461092f578063f27bf0bf14610870578063f2fde38b14610843578063f4f5d3c71461067e5763fc5dee8114610298575f80fd5b3461067b5760c036600319011261067b576102b16138c7565b906024356001600160401b038111610679576102d190369060040161399e565b6044356001600160401b038111610646576102f090369060040161399e565b916064356001600160401b038111610679576103109036906004016139e6565b6084356001600160401b0381116106465761032f903690600401613a64565b9360a43563ffffffff81168091036105d25761034e83518751146141dd565b83546040516377e3240760e01b815260206004820152966001600160a01b0390911695908588806103826024820186613ac1565b03818a5afa97881561066e57869861064a575b5096976001600160a01b0381169790865b60408b01518051821015610410578a906001600160a01b03906103ca908490613f84565b5116146103d9576001016103a6565b60405162461bcd60e51b815260206004820152600f60248201526e105b1c9958591e48185c1c1b1a5959608a1b6044820152606490fd5b50509588968198803b15610646576040516206d86360e41b81529183918391829084908290610443908b600484016143b8565b03925af180156105c75761062d575b505060018060a01b03875416906040519563eb7d901b60e01b875260206004880152602087806104856024820188613ac1565b0381865afa9687156106225789976105ea575b50600187018097116105d65790829189933b156105d25786926104ec858761052c829661051a8f978f610508906040519c8d9b8c9a8b9963bd015d7960e01b8b5261010060048c01526101048b0190613ac1565b9260248a01526044890152600319888303016064890152613ac1565b8581036003190160848701529061421b565b8381036003190160a485015290614273565b8a60c48301528d60e483015203925af180156105c7576105ae575b50506105936105a8915f51602061520d5f395f51905f5293604051602081845180838701835e8101600a815203019020885f5260205260405f209063ffffffff19825416179055613fd5565b92604051918291602083526020830190613ac1565b0390a480f35b816105b89161392a565b6105c3578587610547565b8580fd5b6040513d84823e3d90fd5b8380fd5b634e487b7160e01b89526011600452602489fd5b9096506020813d60201161061a575b816106066020938361392a565b8101031261061657519589610498565b5f80fd5b3d91506105f9565b6040513d8b823e3d90fd5b816106379161392a565b610642578688610452565b8680fd5b8280fd5b6106679198503d8088833e61065f818361392a565b810190613d58565b965f610395565b6040513d88823e3d90fd5b505b80fd5b503461067b57606036600319011261067b576106986138c7565b506024356001600160401b038111610679576106b890369060040161399e565b81546040516377e3240760e01b815260206004820152906001600160a01b03168382806106e86024820187613ac1565b0381845afa91821561083857849261081c575b5061012082019160e083519101515111156107e757815190600182018092116107d357908185923b1561064657604051635839ccbd60e11b8152918391839182908490829061074e908b60048401613d3c565b03925af180156105c7576107be575b50505190600182018092116107aa5760406107987fb9422fa51238140c2297fbab91a9525e85400eea5c9666d16562298ea0e0981c92613fd5565b9281519081526044356020820152a280f35b634e487b7160e01b83526011600452602483fd5b816107c89161392a565b61064657825f61075d565b634e487b7160e01b85526011600452602485fd5b60405162461bcd60e51b815260206004820152600d60248201526c105b1b0818dbdb5c1b195d1959609a1b6044820152606490fd5b6108319192503d8086833e61065f818361392a565b905f6106fb565b6040513d86823e3d90fd5b503461067b57602036600319011261067b5761086d6108606138c7565b610868614fca565b614d0e565b80f35b503461067b578060031936011261067b57600b546001600160a01b0316610898338214614124565b600c549081156108fa57600c8390556006546108be9183916001600160a01b0316614d6c565b600b546040519182526001600160a01b0316907fd244b5a3b2e3977ecffe1a5e5ab7661aadfecbae24be711b7a72bb42bd1b2db090602090a280f35b60405162461bcd60e51b815260206004820152600d60248201526c27379031b7b6b6b4b9b9b4b7b760991b6044820152606490fd5b503461067b57602036600319011261067b57602061095361094e6138c7565b614c84565b604051908152f35b503461067b57602036600319011261067b576109756138c7565b61097d614fca565b6001600160a01b031680156109d057600b80546001600160a01b0319811683179091556001600160a01b03167f4ab5be82436d353e61ca18726e984e561f5c1cc7c6d38b29d2553c790434705a8380a380f35b60405162461bcd60e51b815260206004820152601060248201526f496e76616c696420747265617375727960801b6044820152606490fd5b503461067b578060031936011261067b576020600e54604051908152f35b503461067b57602036600319011261067b57610a406138c7565b610a48614fca565b81546001600160a01b039182166001600160a01b031982168117845591167f5f1d51aab4bd6e41be6c7feda322db860d93d0058238bf871dfafd43ecc951f98380a380f35b503461067b57604036600319011261067b576020610953610aac6138c7565b60243590614c08565b503461067b578060031936011261067b576002546040516001600160a01b039091168152602090f35b503461067b57602036600319011261067b57610af86138c7565b610b00614fca565b6001600160a01b0316808252600560205260408220805460ff191690557f98a35376356c1565159c1b44676fcfa951a2287e2a816e208cf92e7aeb585a4f8280a280f35b503461067b5761086d610b5636613bbe565b93610b6f60018060a09694961b03600254163314613ff1565b6146e2565b503461067b57602036600319011261067b57610b8e6138c7565b610b96614fca565b6001600160a01b0316610baa8115156143e0565b600880546001600160a01b03191691909117905580f35b503461067b57602036600319011261067b57610bdb6138c7565b610be3614fca565b600180546001600160a01b039283166001600160a01b0319821681179092559091167f1411e470e89195b3fc751143c6dfe8c8cb1207e319c33747a017fb39e13ef92c8380a380f35b503461067b57602036600319011261067b577f42ddeacb574f2550f7e8d8e42de1ed9b952f6b6f5c3616afeaa9922896ea5ec46040600435610c6c614fca565b600e549080600e5582519182526020820152a180f35b503461067b578060031936011261067b576009546040516001600160a01b039091168152602090f35b503461067b5761086d610cbd36613bbe565b939290926146e2565b503461067b57602036600319011261067b57610ce06138c7565b610ce8614fca565b6001600160a01b0316610cfc8115156143e0565b600780546001600160a01b03191691909117905580f35b503461067b57602036600319011261067b5760209060ff906040906001600160a01b03610d3e6138c7565b168152600584522054166040519015158152f35b503461067b578060031936011261067b576020600d54604051908152f35b503461067b57602036600319011261067b5760206109536004356146b4565b503461067b5760c036600319011261067b57610da96138c7565b610db16138dd565b6044356001600160a01b038116908190036105d2576064356001600160a01b03811690819003610f88576084356001600160a01b03811692908390036105c35760a4356001600160a01b0381169490859003610642575f51602061530d5f395f51905f5254604081901c60ff161596906001600160401b03811680159081610f80575b6001149081610f76575b159081610f6d575b50610f5e576001600160401b031981166001175f51602061530d5f395f51905f5255610e84919088610f36575b50610e7c6150b4565b6108686150b4565b610e8c6150b4565b600280546001600160a01b03929092166001600160a01b031992831617905586548116919091178655600180548216929092179091556006805482169290921790915560078054909116919091179055610ee35780f35b60ff60401b195f51602061530d5f395f51905f5254165f51602061530d5f395f51905f52557fc7f505b2f371ae2175ee4913f4499e1f2633a7b5936321eed1cdaeb6115181d2602060405160018152a180f35b6001600160481b0319166001600160401b01175f51602061530d5f395f51905f52555f610e73565b63f92ee8a960e01b8952600489fd5b9050155f610e46565b303b159150610e3e565b899150610e34565b8480fd5b503461067b57606036600319011261067b576004356001600160401b03811161067957610fbd90369060040161399e565b610fc56138dd565b610fcd6139bc565b91338452600560205260ff604085205416156110275760208091604051928184925191829101835e8101600a8152030190209060018060a01b03165f5260205263ffffffff60405f20911663ffffffff1982541617905580f35b60405162461bcd60e51b815260206004820152600e60248201526d139bdd08185d5d1a1bdc9a5e995960921b6044820152606490fd5b503461067b57606036600319011261067b576110776138c7565b6024356001600160401b0381116106465761109690369060040161399e565b906044356001600160401b0381116105d2576110b690369060040161399e565b835490929084906001600160a01b0316803b1561067957816040518092632c47fa9760e01b8252604060048301528183816111096110f7604483018b613ac1565b8281036003190160248401528c613ac1565b03925af180156105c7576111d5575b505083546040516377e3240760e01b8152602060048201529190859083906001600160a01b0316818061114e6024820187613ac1565b03915afa80156111ca57610120611191917f2de280d2b7315f889cbea3ddc5c9ebfb1773caba023a73cc8fa272e9b28585c29488916111b0575b50015191613fd5565b926111aa60405192839260018060a01b03169683613d3c565b0390a380f35b6111c491503d808a833e61065f818361392a565b5f611188565b6040513d87823e3d90fd5b816111df9161392a565b6105d257835f611118565b503461067b57604036600319011261067b576112046138c7565b6024359061121d60018060a01b03600254163314613ff1565b825483906001600160a01b0316803b156106795781604051809263286fd04f60e01b82528183816112528a8a600484016140f3565b03925af180156105c75761131b575b50506001546001600160a01b03168061129f575b5060405f5160206151cd5f395f51905f5291815193845284602085015260018060a01b031692a280f35b9060206040518093635b92f3d960e01b82528187816112c28988600484016140f3565b03925af1908115610838575f5160206151cd5f395f51905f52926040926112ec575b509150611275565b61130d9060203d602011611314575b611305818361392a565b8101906140db565b505f6112e4565b503d6112fb565b816113259161392a565b61064657825f611261565b503461067b578060031936011261067b576020600c54604051908152f35b503461067b578060031936011261067b575061139760405161137160408261392a565b60058152640352e302e360dc1b6020820152604051918291602083526020830190613ac1565b0390f35b503461067b578060031936011261067b576006546040516001600160a01b039091168152602090f35b503461067b578060031936011261067b57546040516001600160a01b039091168152602090f35b503461067b57602036600319011261067b576114056138c7565b81546001600160a01b0316908290823b156106795760405163033ba21d60e31b81526001600160a01b03909116600482018190529282908290602490829084905af180156105c7576115c8575b506001546001600160a01b031680611583575b50506001546001600160a01b0316801561157b57602060049160405192838092636bb9f8df60e11b82525afa90811561157057839161153e575b50905b825460405163f14db78360e01b81526004810183905290602090829060249082906001600160a01b03165afa90811561083857849161150b575b5060207fea1851b2332e25f0d6427525a451a05fcf1b65ca9a4b096a85a2e4e40e6ac69991604051908152a380f35b90506020813d602011611536575b816115266020938361392a565b81010312610616575160206114dc565b3d9150611519565b90506020813d602011611568575b816115596020938361392a565b8101031261061657515f61149f565b3d915061154c565b6040513d85823e3d90fd5b5081906114a2565b803b156106795781809160246040518094819363369eca8f60e21b83528860048401525af180156105c7571561146557816115bd9161392a565b61067957815f611465565b816115d29161392a565b61067957815f611452565b503461067b57602036600319011261067b576115f76138c7565b6115ff614fca565b6001600160a01b03166116138115156143e0565b808252600560205260408220805460ff191660011790557f351e40fe333cede9dd79a1ef4d16228b1702f272eb2c2166ec3c7ee6a9d4ce2c8280a280f35b503461067b57604036600319011261067b5761166b6138c7565b5060206109536024356145f3565b503461067b57602036600319011261067b576116936138c7565b61169b614fca565b600280546001600160a01b039283166001600160a01b0319821681179092559091167faae9beddccf584528e87b66c6ff2563825c8a1433305b8a656e9b5f9bf3904998380a380f35b503461067b578060031936011261067b575f51602061518d5f395f51905f52546040516001600160a01b039091168152602090f35b508061172436613b6f565b919060018060a01b03600254169061173d821515614544565b6001546001600160a01b0316801561183b5760206024916040519283809263e0eead9d60e01b82523360048301525afa908115610838578491611806575b50935b611789851515614581565b823b156105d257604051633f8190a360e21b81529284928492839182916117b5918a33600486016145b9565b039134905af180156105c7576117f1575b5050604051906001825260208201528160408201525f51602061534d5f395f51905f5260603392a280f35b816117fb9161392a565b61067957815f6117c6565b9350506020833d602011611833575b816118226020938361392a565b81010312610616578492515f61177b565b3d9150611815565b50829361177e565b508061184e36613b6f565b919060018060a01b036002541690611867821515614544565b6001546001600160a01b03168015611965576020602491604051928380926378359b2960e01b82523360048301525afa908115610838578491611930575b50935b6118b3851515614581565b823b156105d25760405163708166e160e01b81529284928492839182916118df918a33600486016145b9565b039134905af180156105c75761191b575b5050604051906002825260208201528160408201525f51602061534d5f395f51905f5260603392a280f35b816119259161392a565b61067957815f6118f0565b9350506020833d60201161195d575b8161194c6020938361392a565b81010312610616578492515f6118a5565b3d915061193f565b5082936118a8565b503461067b57602036600319011261067b57600435816001600160401b03821161067b576119a2611a2892369060040161399e565b816101606040516119b2816138f3565b6060815282602082015260606040820152606080820152826080820152606060a0820152606060c0820152606060e0820152826101008201528261012082015282610140820152015260018060a01b0382541660405180809581946377e3240760e01b8352602060048401526024830190613ac1565b03915afa80156105c7576101a0918391611c85575b50805160208201516040830151606084015160808501519094926001600160a01b03169060ff90611a6d81613ae5565b611a7681613ae5565b16611a8081613ae5565b60a084015197611a9360c0860151614ffd565b98611aa160e0870151614ffd565b936101008701519861012088015196611b4c61016060018060a01b036101408c0151169a01519a60405190611ad5826138f3565b81526020810194855260408101928352606081019384526080810197611afa81613ae5565b885260a0810195865260c081019e8f5260e0810198895261010081019c8d526101208101998a5261014081019a8b5261016081019b8c526040519d8e9160208352519161018060208201520190613ac1565b92516001600160a01b031660408d0152518b8303601f190160608d01528051808452602091820193919091019190855b818110611c66575050518b8203601f190160808d0152611b9c9250613ac1565b9251611ba781613ae5565b60a08a01525191601f198982030160c08a0152825190818152602081016020808460051b840101950193915b838310611c3957505050505090611bfb611c0f92889951601f198a83030160e08b0152613b03565b9051878203601f1901610100890152613b03565b935161012086015251610140850152516001600160a01b0316610160840152516101808301520390f35b9091929394602080611c57600193601f198682030187528951613ac1565b97019301930191939290611bd3565b84516001600160a01b0316845260209485019490930192600101611b7c565b611c9991503d8085833e61065f818361392a565b5f611a3d565b503461067b578060031936011261067b57611cb8614fca565b5f51602061518d5f395f51905f5280546001600160a01b0319811690915581906001600160a01b03165f51602061526d5f395f51905f528280a380f35b503461067b578060031936011261067b576007546040516001600160a01b039091168152602090f35b503461067b57602036600319011261067b576040611d42611d3d6138c7565b61441e565b82519182526020820152f35b503461067b57602036600319011261067b57611d686138c7565b611d70614fca565b6001600160a01b0316611d848115156143e0565b600680546001600160a01b03191691909117905580f35b503461067b578060031936011261067b57600b546040516001600160a01b039091168152602090f35b503461067b5760e036600319011261067b57611dde6138c7565b611de66138dd565b6044356001600160401b0381116105d257611e0590369060040161399e565b906064356001600160401b038111610f8857611e2590369060040161399e565b906084356001600160401b0381116105c357611e459036906004016139e6565b60a4356001600160401b03811161064257611e64903690600401613a64565b9160c4359363ffffffff851680950361241e576002546001600160a01b031633036123e25787546040516259565560e61b81526020600482018190526001600160a01b0390921696918180611ebc602482018c613ac1565b03818a5afa9081156123d7578a916123b8575b5061237e57611ee184518651146141dd565b835115612342578589963b1561064257868386928b838c611f198c604051988997889687956324f808a560e01b8752600487016142a6565b03925af19081156121f357879161232d575b505085546001600160a01b0316803b15610642576040516206d86360e41b81529087908290818381611f618a8f600484016143b8565b03925af19081156121f3578791612318575b505085546001600160a01b0316803b156106425786604061200692611fbc838c61201885519788968795869463bd015d7960e01b86526101006004870152610104860190613ac1565b9c6001602486015260018060a01b03169c8d6044860152603c85820360031981016064880152602083525f5160206152ad5f395f51905f526020840152016084860152018d61421b565b8281036003190160a48401528d614273565b8860c48301528a60e483015203925af19081156121f3578791612303575b5050604051602081895180838c01835e8101600a815203019020835f5260205260405f209063ffffffff1982541617905560018060a01b03855416803b156105c35760405163177e220b60e11b81526060600482015290869082908183816120a1606482018e613ac1565b8960248301526001604483015203925af190811561066e5786916122ee575b505084546001600160a01b0316803b156105c357856040518092632d6f93f960e21b8252604060048301528183816120fc8d6044830190613ac1565b6001602483015203925af190811561066e5786916122d9575b505084546001600160a01b0316803b156105c357856040518092635839ccbd60e11b8252604060048301528183816121518d6044830190613ac1565b6001602483015203925af190811561066e5786916122c4575b505b83518110156122025785546001600160a01b031661218a8286613f84565b516121958388613f84565b51823b156121fe576121c2928992838c604051968795869485936346cae72f60e11b855260048501613fac565b03925af19081156121f35787916121de575b505060010161216c565b816121e89161392a565b6105c357855f6121d4565b6040513d89823e3d90fd5b8880fd5b856122a98885858c5f51602061524d5f395f51905f5261224261222486613fd5565b926040519182916020835260018060a01b0316956020830190613ac1565b0390a380600161225184613fd5565b5f51602061520d5f395f51905f526060604051602081526020808201525f5160206152ad5f395f51905f526040820152a4600161228d83613fd5565b5f5160206151ed5f395f51905f526020604051888152a4613fd5565b5f5160206151ad5f395f51905f52602060405160018152a280f35b816122ce9161392a565b610f8857845f61216a565b816122e39161392a565b610f8857845f612115565b816122f89161392a565b610f8857845f6120c0565b8161230d9161392a565b6105c357855f612036565b816123229161392a565b6105c357855f611f73565b816123379161392a565b6105c357855f611f2b565b60405162461bcd60e51b81526020600482015260146024820152734d7573742068617665206d696c6573746f6e657360601b6044820152606490fd5b60405162461bcd60e51b81526020600482015260126024820152714a6f6220616c72656164792065786973747360701b6044820152606490fd5b6123d1915060203d60201161131457611305818361392a565b5f611ecf565b6040513d8c823e3d90fd5b60405162461bcd60e51b815260206004820152601460248201527313db9b1e48189c9a5919d94818d85b8818d85b1b60621b6044820152606490fd5b8780fd5b503461067b57602036600319011261067b5760206109536124416138c7565b6142ff565b503461067b578060031936011261067b577f00000000000000000000000000000000000000000000000000000000000000006001600160a01b0316300361249e5760206040515f51602061522d5f395f51905f528152f35b63703e46dd60e11b8152600490fd5b50604036600319011261067b576124c26138c7565b906024356001600160401b0381116106795736602382011215610679576124f3903690602481600401359101613968565b6001600160a01b037f0000000000000000000000000000000000000000000000000000000000000000163081149081156126d8575b506126c9575f51602061518d5f395f51905f52546001600160a01b0316331480156126b5575b15612681576040516352d1902d60e01b8152926001600160a01b0381169190602085600481865afa8095859661264d575b5061259857634c9c8ce360e01b84526004839052602484fd5b9091845f51602061522d5f395f51905f52810361263b5750813b15612629575f51602061522d5f395f51905f5280546001600160a01b031916821790555f51602061528d5f395f51905f528480a2815183901561260f578083602061260b95519101845af46126056150df565b9161510e565b5080f35b5050503461261a5780f35b63b398979f60e01b8152600490fd5b634c9c8ce360e01b8452600452602483fd5b632a87526960e21b8552600452602484fd5b9095506020813d602011612679575b816126696020938361392a565b81010312610f885751945f61257f565b3d915061265c565b60405162461bcd60e51b815260206004820152600c60248201526b155b985d5d1a1bdc9a5e995960a21b6044820152606490fd5b506002546001600160a01b0316331461254e565b63703e46dd60e11b8252600482fd5b5f51602061522d5f395f51905f52546001600160a01b0316141590505f612528565b503461067b57602036600319011261067b576127146138c7565b61271c614fca565b600980546001600160a01b039283166001600160a01b0319821681179092559091167f07d9e59518f3d6cbceb6404066ae85fc348e3793c127eb912fb9d55f384233d98380a380f35b503461067b5760a036600319011261067b576004356001600160401b0381116106795761279690369060040161399e565b61279e6138dd565b906044356001600160401b0381116105d2576127be90369060040161399e565b6064356001600160401b038111610f88576127dd9036906004016139e6565b6084356001600160401b0381116105c3576127fc903690600401613a64565b9060018060a01b038654166040516259565560e61b8152602060048201526020818061282b602482018a613ac1565b0381855afa908115612937578891612918575b506128e657869261285283518251146141dd565b813b156105d25783918783886128808995604051988997889687956324f808a560e01b8752600487016142a6565b03925af180156105c7576128d1575b50506128b7925f51602061524d5f395f51905f526128af61222485613fd5565b0390a3613fd5565b5f5160206151ad5f395f51905f526020604051848152a280f35b816128db9161392a565b6105d257835f61288f565b60405162461bcd60e51b815260206004820152600a6024820152694a6f622065786973747360b01b6044820152606490fd5b612931915060203d60201161131457611305818361392a565b5f61283e565b6040513d8a823e3d90fd5b503461067b57602036600319011261067b5761295c6138c7565b6002546001600160a01b03169190612975338414613ff1565b604051602093612985858361392a565b8382526001600160a01b037f000000000000000000000000000000000000000000000000000000000000000016308114908115612b32575b50612b23575f51602061518d5f395f51905f52546001600160a01b03163314908115612b19575b5015612ae5576040516352d1902d60e01b81526001600160a01b03831694908181600481895afa859181612ab6575b50612a2c57634c9c8ce360e01b85526004869052602485fd5b5f51602061522d5f395f51905f52810361263b5750823b15612aa2575f51602061522d5f395f51905f5280546001600160a01b0319168617905592938493905f51602061528d5f395f51905f528580a2815115612a9857815161260b9492839201845af46126056150df565b50505061261a5780f35b634c9c8ce360e01b84526004859052602484fd5b9091508281813d8311612ade575b612ace818361392a565b810103126105c35751905f612a13565b503d612ac4565b60405162461bcd60e51b815260048101859052600c60248201526b155b985d5d1a1bdc9a5e995960a21b6044820152606490fd5b905033145f6129e4565b63703e46dd60e11b8452600484fd5b5f51602061522d5f395f51905f52546001600160a01b0316141590505f6129bd565b503461067b57602036600319011261067b57600435612b71614fca565b6103e88111612bb45760407fdd875544ddd76d96f6d22d7b445e849b486258026a9fb9bd1f3434766b1e920191600d549080600d5582519182526020820152a180f35b60405162461bcd60e51b81526020600482015260076024820152664d61782031302560c81b6044820152606490fd5b503461067b57606036600319011261067b57612bfd6138c7565b63ffffffff602435612c0d6139bc565b6001600160a01b0384169390612c2485151561419d565b612c2f831515614160565b612c38836146b4565b90612c438285614066565b948591612c5284600c54614087565b600c55169260038403612cdb5760409392612c955f5160206152cd5f395f51905f5296935f51602061532d5f395f51905f529360018060a01b0360065416614d6c565b60078551666469737075746560c81b81522092612cb78887519384938461410e565b0390a260078251666469737075746560c81b8152209382519182526020820152a380f35b50600854612d23916020916001600160a01b0316612cfa811515614094565b60018060a01b0360065416908a60405180968195829463095ea7b360e01b8452600484016140f3565b03925af180156121f357612dc6575b5060085486906001600160a01b0316803b156106795781809160846040518094819363269258dd60e01b83528b60048401528960248401528c60448401526103e860648401525af180156105c757612dad575b5050905f5160206152cd5f395f51905f52925f51602061532d5f395f51905f52604093612c95565b81612dba9194939461392a565b6105c35790855f612d85565b612dde9060203d60201161131457611305818361392a565b612d32565b503461067b57604036600319011261067b576004356001600160401b03811161067957612e1490369060040161399e565b602080612e1f6138dd565b92604051928184925191829101835e8101600a8152030190209060018060a01b03165f52602052602063ffffffff60405f205416604051908152f35b503461067b578060031936011261067b576008546040516001600160a01b039091168152602090f35b503461067b578060031936011261067b576001546040516001600160a01b039091168152602090f35b503461067b57602036600319011261067b57600b54600435906001600160a01b0316612eda338214614124565b600c54808311612f12576108be91612efe848093612ef9821515614160565b614066565b600c556006546001600160a01b0316614d6c565b60405162461bcd60e51b815260206004820152601760248201527624b739bab33334b1b4b2b73a1031b7b6b6b4b9b9b4b7b760491b6044820152606490fd5b503461067b57608036600319011261067b57612f6b6138c7565b6024356001600160401b03811161064657612f8a90369060040161399e565b60443590612fa360018060a01b03600254163314613ff1565b83546040516377e3240760e01b8152602060048201529390859085906001600160a01b03168180612fd76024820188613ac1565b03915afa9384156111ca5785946133ff575b5061014084018051909490613008906001600160a01b0316151561402b565b613011846146b4565b918661301d8487614066565b809761302b86600c54614087565b600c55604051602081895180838c01835e600a9082019081520301902081516001600160a01b03165f908152602091909152604090205463ffffffff16600381036133155750600654905161308d93506001600160a01b039081169116614d6c565b86546001600160a01b0316803b1561241e57876040518092636167f40760e11b82528183816130c08d8c60048401613d3c565b03925af188811561330957889287926132ef575b50506130df92614e07565b8554610120919091015160018101916001600160a01b03169082106132db57908187923b1561064657604051635839ccbd60e11b8152918391839182908490829061312e908b60048401613d3c565b03925af180156105c7576132c6575b505084546040516377e3240760e01b815260206004820152919086906001600160a01b03168184806131726024820189613ac1565b0381845afa9384156105c75782946132aa575b5061012084019360e0855191015151106131fc575b5050905f51602061516d5f395f51905f52935f51602061532d5f395f51905f526131e2936131c786613fd5565b926131d8896040519384938461410e565b0390a25191613fd5565b926131f6604051928392606435908461410e565b0390a280f35b803b1561067957816040518092632d6f93f960e21b82526040600483015281838161322a604482018c613ac1565b6002602483015203925af180156105c757613291575b5050905f51602061516d5f395f51905f52935f51602061532d5f395f51905f526131e29361326d86613fd5565b5f5160206151ad5f395f51905f52602060405160028152a29293508791955061319a565b8161329e9194939461392a565b6105c35790855f613240565b6132bf9194503d8084833e61065f818361392a565b925f613185565b816132d09161392a565b610f8857845f61313d565b634e487b7160e01b87526011600452602487fd5b8193506132fc925061392a565b610642578584885f6130d4565b604051903d90823e3d90fd5b600854909261335f91602091906001600160a01b0316613336811515614094565b60018060a01b0360065416908760405180968195829463095ea7b360e01b8452600484016140f3565b03925af18015610838576133e2575b5060085490516001600160a01b0390811692911690813b156105d25760848a858094604051968795869463269258dd60e01b86526004860152602485015260448401526103e860648401525af180156105c7576133cd575b505061308d565b816133d79161392a565b61064257865f6133c6565b6133fa9060203d60201161131457611305818361392a565b61336e565b6134149194503d8087833e61065f818361392a565b925f612fe9565b5034610616576080366003190112610616576134356138c7565b506024356001600160401b0381116106165761345590369060040161399e565b9060443560643592831515918285036106165760018060a01b035f54169460405193632e68140160e11b85525f8580613492868860048401613d3c565b03818a5afa9485156137b0575f956137d5575b506040516377e3240760e01b8152602060048201525f81806134ca6024820189613ac1565b03818b5afa9081156137b0575f916137bb575b506040860180516001600160a01b031698909390803b156106165760405163177e220b60e11b815260606004820152995f918b91829084908290613524606483018e613ac1565b9060248301528b604483015203925af180156137b057613796575b87549798509596949588956001600160a01b0316803b156106425760408051632d6f93f960e21b815260048101919091529087908290818381613585604482018f613ac1565b6001602483015203925af19081156121f3578791613781575b505085546001600160a01b0316803b156106425760408051635839ccbd60e11b8152600481019190915290879082908183816135dd604482018f613ac1565b6001602483015203925af19081156121f357879161376c575b5050156136cf5750835b6080870180519081518310156136935760206136338461362a8160018060a01b038c541696613f84565b51519351613f84565b510151823b1561241e57613662928892838b604051968795869485936346cae72f60e11b855260048501613fac565b03925af190811561066e57869161367e575b5050600101613600565b816136889161392a565b610f8857845f613674565b50505092506122a994505b516001600160a01b0316915f5160206151ed5f395f51905f5260206136c286613fd5565b92604051908152a4613fd5565b9550835b60c08701805190815183101561375d5760206136fd8461362a8160018060a01b038c541696613f84565b510151823b1561241e5761372c928892838b604051968795869485936346cae72f60e11b855260048501613fac565b03925af190811561066e578691613748575b50506001016136d3565b816137529161392a565b610f8857845f61373e565b50505092506122a9945061369e565b816137769161392a565b6105c357855f6135f6565b8161378b9161392a565b6105c357855f61359e565b94959650965f6137a59161392a565b5f959493879061353f565b6040513d5f823e3d90fd5b6137cf91503d805f833e61065f818361392a565b5f6134dd565b9094503d805f833e6137e7818361392a565b810190602081830312610616578051906001600160401b038211610616570160a081830312610616576040519160a083016001600160401b038111848210176138b3576040528151835260208201516001600160401b0381116106165781613850918401613c29565b602084015261386160408301613c6f565b604084015260608201516001600160401b0381116106165781613885918401613c29565b606084015260808201516001600160401b038111610616576138a79201613c83565b6080820152935f6134a5565b634e487b7160e01b5f52604160045260245ffd5b600435906001600160a01b038216820361061657565b602435906001600160a01b038216820361061657565b61018081019081106001600160401b038211176138b357604052565b604081019081106001600160401b038211176138b357604052565b601f909101601f19168101906001600160401b038211908210176138b357604052565b6001600160401b0381116138b357601f01601f191660200190565b9291926139748261394d565b91613982604051938461392a565b829481845281830111610616578281602093845f960137010152565b9080601f83011215610616578160206139b993359101613968565b90565b6044359063ffffffff8216820361061657565b6001600160401b0381116138b35760051b60200190565b9080601f830112156106165781356139fd816139cf565b92613a0b604051948561392a565b81845260208085019260051b820101918383116106165760208201905b838210613a3757505050505090565b81356001600160401b03811161061657602091613a598784809488010161399e565b815201910190613a28565b9080601f83011215610616578135613a7b816139cf565b92613a89604051948561392a565b81845260208085019260051b82010192831161061657602001905b828210613ab15750505090565b8135815260209182019101613aa4565b805180835260209291819084018484015e5f828201840152601f01601f1916010190565b60041115613aef57565b634e487b7160e01b5f52602160045260245ffd5b9080602083519182815201916020808360051b8301019401925f915b838310613b2e57505050505090565b9091929394602080600192601f198582030186528851908280613b5a8451604085526040850190613ac1565b93015191015297019301930191939290613b1f565b906020600319830112610616576004356001600160401b0381116106165782602382011215610616576004810135926001600160401b0384116106165760248483010111610616576024019190565b9060a0600319830112610616576004356001600160a01b03811681036106165791602435906001600160401b03821161061657613bfd9160040161399e565b906044359060643563ffffffff8116810361061657906084356001600160a01b03811681036106165790565b81601f8201121561061657805190613c408261394d565b92613c4e604051948561392a565b8284526020838301011161061657815f9260208093018386015e8301015290565b51906001600160a01b038216820361061657565b81601f8201121561061657805190613c9a826139cf565b92613ca8604051948561392a565b82845260208085019360051b830101918183116106165760208101935b838510613cd457505050505090565b84516001600160401b0381116106165782016040818503601f1901126106165760405191613d018361390f565b6020820151926001600160401b03841161061657604083613d29886020809881980101613c29565b8352015183820152815201940193613cc5565b929190613d53602091604086526040860190613ac1565b930152565b602081830312610616578051906001600160401b038211610616570190610180828203126106165760405191613d8d836138f3565b80516001600160401b0381116106165782613da9918301613c29565b8352613db760208201613c6f565b602084015260408101516001600160401b03811161061657810182601f8201121561061657805190613de8826139cf565b91613df6604051938461392a565b80835260208084019160051b8301019185831161061657602001905b828210613f6c57505050604084015260608101516001600160401b0381116106165782613e40918301613c29565b60608401526080810151600481101561061657608084015260a08101516001600160401b03811161061657810182601f82011215610616578051613e83816139cf565b91613e91604051938461392a565b81835260208084019260051b820101918583116106165760208201905b838210613f3f575050505060a084015260c08101516001600160401b0381116106165782613edd918301613c83565b60c084015260e08101516001600160401b0381116106165761016092613f04918301613c83565b60e0840152610100810151610100840152610120810151610120840152613f2e6101408201613c6f565b610140840152015161016082015290565b81516001600160401b03811161061657602091613f6189848094880101613c29565b815201910190613eae565b60208091613f7984613c6f565b815201910190613e12565b8051821015613f985760209160051b010190565b634e487b7160e01b5f52603260045260245ffd5b939291613d5390613fc7604093606088526060880190613ac1565b908682036020880152613ac1565b602090604051918183925191829101835e81015f815203902090565b15613ff857565b60405162461bcd60e51b815260206004820152600b60248201526a4f6e6c792062726964676560a81b6044820152606490fd5b1561403257565b60405162461bcd60e51b815260206004820152600c60248201526b139bc8185c1c1b1a58d85b9d60a21b6044820152606490fd5b9190820391821161407357565b634e487b7160e01b5f52601160045260245ffd5b9190820180921161407357565b1561409b57565b60405162461bcd60e51b815260206004820152601860248201527710d0d51408151c985b9cd8d95a5d995c881b9bdd081cd95d60421b6044820152606490fd5b90816020910312610616575180151581036106165790565b6001600160a01b039091168152602081019190915260400190565b6040919493926060820195825260208201520152565b1561412b57565b60405162461bcd60e51b815260206004820152600d60248201526c4f6e6c7920747265617375727960981b6044820152606490fd5b1561416757565b60405162461bcd60e51b815260206004820152600e60248201526d125b9d985b1a5908185b5bdd5b9d60921b6044820152606490fd5b156141a457565b60405162461bcd60e51b8152602060048201526011602482015270125b9d985b1a59081c9958da5c1a595b9d607a1b6044820152606490fd5b156141e457565b60405162461bcd60e51b815260206004820152600f60248201526e098cadccee8d040dad2e6dac2e8c6d608b1b6044820152606490fd5b9080602083519182815201916020808360051b8301019401925f915b83831061424657505050505090565b9091929394602080614264600193601f198682030187528951613ac1565b97019301930191939290614237565b90602080835192838152019201905f5b8181106142905750505090565b8251845260209384019390920191600101614283565b93906142f1926139b996946142c66142e39360a0895260a0890190613ac1565b6001600160a01b0390921660208801528682036040880152613ac1565b90848203606086015261421b565b916080818403910152614273565b6001546001600160a01b03168061437e57505f54604051635843905f60e01b81526001600160a01b0392831660048201529160209183916024918391165afa9081156137b0575f9161434f575090565b90506020813d602011614376575b8161436a6020938361392a565b81010312610616575190565b3d915061435d565b6040516378359b2960e01b81526001600160a01b039092166004830152602090829060249082905afa9081156137b0575f9161434f575090565b906143d0602091949394604084526040840190613ac1565b6001600160a01b03909416910152565b156143e757565b60405162461bcd60e51b815260206004820152600f60248201526e496e76616c6964206164647265737360881b6044820152606490fd5b6001549091906001600160a01b031680156144cc576040516378359b2960e01b81526001600160a01b039093166004840181905292602081602481855afa80156137b0575f90614499575b60209150936024604051809481936323312a8360e01b835260048301525afa9081156137b0575f9161434f575090565b506020813d6020116144c4575b816144b36020938361392a565b810103126106165760209051614469565b3d91506144a6565b505f5460408051630695173160e41b81526001600160a01b03948516600482015293909184916024918391165afa9182156137b0575f905f9361450e57509190565b9250506040823d60401161453c575b8161452a6040938361392a565b81010312610616576020825192015190565b3d915061451d565b1561454b57565b60405162461bcd60e51b815260206004820152600e60248201526d109c9a5919d9481b9bdd081cd95d60921b6044820152606490fd5b1561458857565b60405162461bcd60e51b81526020600482015260096024820152684e6f20746f6b656e7360b81b6044820152606490fd5b9284926080959260018060a01b03168552602085015260606040850152816060850152848401375f828201840152601f01601f1916010190565b6001546001600160a01b0316908161460b5750505f90565b5f546040516306d1ab4b60e01b81529190602090839060049082906001600160a01b03165afa9182156137b0575f9261467f575b5090604461464f60209383614087565b916040519485938492630ba69e4160e41b8452600484015260248301525afa9081156137b0575f9161434f575090565b91506020823d6020116146ac575b8161469a6020938361392a565b8101031261061657905190604461463f565b3d915061468d565b600d5490818102918183041490151715614073576127109004600e548082115f146146dd575090565b905090565b60085493946001600160a01b0390941693919290915f91908515614bcd576001600160a01b03169561471587151561419d565b614720821515614160565b5f80546040516377e3240760e01b81526020600482015294919085906001600160a01b03168180614754602482018c613ac1565b03915afa9384156137b0575f94614bb1575b50610140840151614781906001600160a01b0316151561402b565b6001608085015161479181613ae5565b61479a81613ae5565b03614b765761012084019384518015159081614b66575b5015614b2d5784515f19810191908211614073576147d660e060209201928351613f84565b5101518403614aea576147e8846146b4565b9261483260206147f88688614066565b809b61480688600c54614087565b600c5560018060a01b0360065416905f60405180968195829463095ea7b360e01b8452600484016140f3565b03925af180156137b057614acd575b506008546001600160a01b0316803b156106165763ffffffff9160848b5f80948f604051978896879563269258dd60e01b8752600487015216602485015260448401526103e860648401525af180156137b057614ab8575b506148a5888888614e07565b81546001600160a01b0316803b1561064657604051636167f40760e11b815290839082908183816148da8f8f60048401613d3c565b03925af1801561157057908391614aa3575b50508154855160018101916001600160a01b0316908210614a8f57803b156105d2576149329184918a83604051809681958294635839ccbd60e11b845260048401613d3c565b03925af1801561157057908391614a7a575b5050845190600182018092116107aa575151106149bf575b506040925f5160206152ed5f395f51905f5294925f51602061532d5f395f51905f526149a59361498b89613fd5565b9261499b8b89519384938461410e565b0390a25194613fd5565b825195865260208601949094526001600160a01b031693a4565b80546001600160a01b0316803b1561067957816040518092632d6f93f960e21b8252604060048301528183816149f98d6044830190613ac1565b6002602483015203925af180156105c757614a65575b50925f5160206152ed5f395f51905f5294925f51602061532d5f395f51905f526149a5936040965f5160206151ad5f395f51905f526020614a4f8c613fd5565b928a51905060028152a29350509294509261495c565b614a7082809261392a565b61067b575f614a0f565b81614a849161392a565b61067957815f614944565b634e487b7160e01b84526011600452602484fd5b81614aad9161392a565b61067957815f6148ec565b614ac59192505f9061392a565b5f905f614899565b614ae59060203d60201161131457611305818361392a565b614841565b60405162461bcd60e51b815260206004820152601b60248201527a416d6f756e74206d757374206d61746368206d696c6573746f6e6560281b6044820152606490fd5b60405162461bcd60e51b8152602060048201526011602482015270496e76616c6964206d696c6573746f6e6560781b6044820152606490fd5b905060e08201515110155f6147b1565b60405162461bcd60e51b81526020600482015260136024820152724a6f62206e6f7420696e2070726f677265737360681b6044820152606490fd5b614bc69194503d805f833e61065f818361392a565b925f614766565b60405162461bcd60e51b8152602060048201526013602482015272151c985b9cd8d95a5d995c881b9bdd081cd95d606a1b6044820152606490fd5b6001546001600160a01b031680614c5f57505f5460405163e848635560e01b81529260209284926001600160a01b03169183918291614c4a91600484016140f3565b03915afa9081156137b0575f9161434f575090565b60405163e848635560e01b81529260209284929183918291614c4a91600484016140f3565b6001546001600160a01b031680614cd457505f5460405163f14db78360e01b81526001600160a01b0392831660048201529160209183916024918391165afa9081156137b0575f9161434f575090565b6040516323312a8360e01b81526001600160a01b039092166004830152602090829060249082905afa9081156137b0575f9161434f575090565b6001600160a01b03168015614d59575f51602061518d5f395f51905f5280546001600160a01b0319811683179091556001600160a01b03165f51602061526d5f395f51905f525f80a3565b631e4fbdf760e01b5f525f60045260245ffd5b5f614dc4928192614da6614d9896604051978891602083019563a9059cbb60e01b8752602484016140f3565b03601f19810188528761392a565b60018060a01b031694519082865af1614dbd6150df565b908361510e565b8051908115159182614dec575b5050614dda5750565b635274afe760e01b5f5260045260245ffd5b614dff92506020809183010191016140db565b155f80614dd1565b6001549091906001600160a01b03168015614fc457614e4d5f60018060a01b0381541693604051809381926377e3240760e01b8352602060048401526024830190613ac1565b0381865afa9081156137b0576004916020915f91614faa575b5061014001516040516306d1ab4b60e01b81526001600160a01b03909116949092839182905afa80156137b05785915f91614f72575b50608492614ead5f96938793614087565b604051978896879563ba293e0760e01b875260018060a01b031660048701526024860152604485015260648401525af180156137b057614eea5750565b3d805f833e614ef9818361392a565b810190602081830312610616578051906001600160401b038211610616570181601f8201121561061657805190602080614f32846139cf565b614f3f604051918261392a565b848152019260051b82010192831161061657602001905b828210614f6257505050565b8151815260209182019101614f56565b949150506020843d602011614fa2575b81614f8f6020938361392a565b8101031261061657925184906084614e9c565b3d9150614f82565b614fbe91503d805f833e61065f818361392a565b5f614e66565b50505050565b5f51602061518d5f395f51905f52546001600160a01b03163303614fea57565b63118cdaa760e01b5f523360045260245ffd5b805190615009826139cf565b91615017604051938461392a565b808352615026601f19916139cf565b015f5b8181106150905750505f5b815181101561508b578061504a60019284613f84565b515160206150588386613f84565b510151604051916150688361390f565b825260208201526150798286613f84565b526150848185613f84565b5001615034565b505090565b60209060405161509f8161390f565b606081525f8382015282828701015201615029565b60ff5f51602061530d5f395f51905f525460401c16156150d057565b631afcd79f60e31b5f5260045ffd5b3d15615109573d906150f08261394d565b916150fe604051938461392a565b82523d5f602084013e565b606090565b90615132575080511561512357805190602001fd5b630a12f52160e11b5f5260045ffd5b81511580615163575b615143575090565b639996b31560e01b5f9081526001600160a01b0391909116600452602490fd5b50803b1561513b56fe881f9575e6bc96f2ebd076de5584e663c5e7489d82f21f00777994a223cfb0619016d09d72d40fdae2fd8ceac6b6234c7706214fd39c1cd1e609a0528c19930090048e2f7021decb3bccdc9c96fb747f7c82ca94b921ff7c7cc130daa897a6dda939d97e93c6e94641c360ee489fc68625303001132de2255a364b26627e1590beb163b9824b55e200a056e0082832866e8d8f931ba431b29b8919466a05faa5264fe7e90ee05d618ec81396b56ead08e622a37d2696239d6029610e48c3a86e360894a13ba1a3210667c828492db98dca3e2076cc3735a920a3ca505d382bbcc7649f14606d56993fd676bf6b21baf658647cc2921deec0cde7a0f2f8031c8d8be0079c531659141344cd1fd0a4f28419497f9722a3daafe3b4186f6b6457e0bc7cd75a20ee27fd9adebab32041f755214dbc6bffa90cc0225b39da2e5c2d3b6469726563742d636f6e74726163742d6175746f2d6170706c69636174696f6e68f68b90ee152498d69c44929da4e330c22f2a9cce2356deb44d690362f3d0b9a71f1661a883ae6cc97d4b6c49515c53bc3ad70681a1cdf669785aca9356ee27f0c57e16840df040f15088dc2f81fe391c3923bec73e23a9662efc9c229c6a00799bd8ebd9dd237a3fdfa8abd96d3f80ad584603a8e4a943e7cfc01dbd7fead9377a25b6705fa575725f64a9e9cee303a5037feaf4bc831a8595345c24ae0769a2646970667358221220b5e8822c9c11bc0c6334bb8cb1e87aef9b1f2b47a7994260d66c94c13c1d4fc764736f6c63430008210033f0c57e16840df040f15088dc2f81fe391c3923bec73e23a9662efc9c229c6a00","linkReferences":{}},"methodIdentifiers":{"UPGRADE_INTERFACE_VERSION()":"ad3cb1cc","accumulatedCommission()":"ae693673","addAuthorizedContract(address)":"98eaa4a7","applyToJob(address,string,string,string[],uint256[],uint32)":"fc5dee81","authorizedContracts(address)":"d5b9221b","bridge()":"e78cea92","calculateCommission(uint256)":"ce9b4321","calculateTokensForAmount(address,uint256)":"94928b84","cctpReceiver()":"6c2db78f","cctpTransceiver()":"23dc878c","commissionPercentage()":"d575fe64","genesis()":"a7f0b3de","getJob(string)":"77e32407","getUserEarnedTokens(address)":"5843905f","getUserGovernanceActions(address)":"f14db783","getUserGovernanceActionsInBand(address,uint256)":"e8486355","getUserRewardInfo(address)":"69517310","handleReleasePaymentCrossChain(address,string,uint256,uint32,address)":"e4e2a856","handleStartDirectContract(address,address,string,string,string[],uint256[],uint32)":"6009b51f","handleUpdateUserClaimData(address,uint256)":"b9acee1d","incrementGovernanceAction(address)":"99f426be","initialize(address,address,address,address,address,address)":"cc2a9a5b","isAuthorizedContract(address)":"66d0ead3","jobApplicantChainDomain(string,address)":"29f8d96d","lockNextMilestone(address,string,uint256)":"f4f5d3c7","minCommission()":"eca688ea","nativeAthena()":"dc209f13","owner()":"8da5cb5b","postJob(string,address,string,string[],uint256[])":"42b0f652","proxiableUUID()":"52d1902d","releaseDisputedFunds(address,uint256,uint32)":"301f8257","releasePaymentAndLockNext(address,string,uint256,uint256)":"1277bbf8","releasePaymentCrossChain(address,string,uint256,uint32,address)":"d819aea4","removeAuthorizedContract(address)":"e6b165ed","renounceOwnership()":"715018a6","rewardsContract()":"220cce97","setApplicantChainDomain(string,address,uint32)":"c088797b","setBridge(address)":"8dd14802","setCCTPReceiver(address)":"d6e3c76a","setCCTPTransceiver(address)":"e4a9d8ee","setCommissionPercentage(uint256)":"39b87c8f","setGenesis(address)":"eb14b353","setMinCommission(uint256)":"de8fd3af","setNativeAthena(address)":"4efac43f","setRewardsContract(address)":"dfa0dfa5","setTreasury(address)":"f0f44260","setUSDTToken(address)":"66e226bd","startJob(address,string,uint256,bool)":"09d6667e","submitWork(address,string,string)":"ba245963","syncRewardsData(bytes)":"87e821d6","syncVotingPower(bytes)":"859705a8","transferOwnership(address)":"f2fde38b","treasury()":"61d027b3","upgradeFromDAO(address)":"40634e3b","upgradeToAndCall(address,bytes)":"4f1ef286","usdtToken()":"a98ad46c","withdrawAllCommission()":"f27bf0bf","withdrawCommission(uint256)":"17face84"},"id":82}