{"abi":[{"type":"constructor","inputs":[],"stateMutability":"nonpayable"},{"type":"function","name":"UPGRADE_INTERFACE_VERSION","inputs":[],"outputs":[{"name":"","type":"string","internalType":"string"}],"stateMutability":"view"},{"type":"function","name":"addPortfolio","inputs":[{"name":"user","type":"address","internalType":"address"},{"name":"portfolioHash","type":"string","internalType":"string"}],"outputs":[],"stateMutability":"nonpayable"},{"type":"function","name":"admins","inputs":[{"name":"","type":"address","internalType":"address"}],"outputs":[{"name":"","type":"bool","internalType":"bool"}],"stateMutability":"view"},{"type":"function","name":"authorizeContract","inputs":[{"name":"_contract","type":"address","internalType":"address"},{"name":"_authorized","type":"bool","internalType":"bool"}],"outputs":[],"stateMutability":"nonpayable"},{"type":"function","name":"authorizedContracts","inputs":[{"name":"","type":"address","internalType":"address"}],"outputs":[{"name":"","type":"bool","internalType":"bool"}],"stateMutability":"view"},{"type":"function","name":"getAllProfileAddresses","inputs":[],"outputs":[{"name":"","type":"address[]","internalType":"address[]"}],"stateMutability":"view"},{"type":"function","name":"getJobRating","inputs":[{"name":"jobId","type":"string","internalType":"string"},{"name":"user","type":"address","internalType":"address"}],"outputs":[{"name":"","type":"uint256","internalType":"uint256"}],"stateMutability":"view"},{"type":"function","name":"getProfile","inputs":[{"name":"user","type":"address","internalType":"address"}],"outputs":[{"name":"","type":"tuple","internalType":"struct NativeProfileGenesis.Profile","components":[{"name":"userAddress","type":"address","internalType":"address"},{"name":"ipfsHash","type":"string","internalType":"string"},{"name":"referrerAddress","type":"address","internalType":"address"},{"name":"portfolioHashes","type":"string[]","internalType":"string[]"}]}],"stateMutability":"view"},{"type":"function","name":"getProfileAddressesBatch","inputs":[{"name":"startIndex","type":"uint256","internalType":"uint256"},{"name":"count","type":"uint256","internalType":"uint256"}],"outputs":[{"name":"addresses","type":"address[]","internalType":"address[]"}],"stateMutability":"view"},{"type":"function","name":"getProfileCount","inputs":[],"outputs":[{"name":"","type":"uint256","internalType":"uint256"}],"stateMutability":"view"},{"type":"function","name":"getUserRatings","inputs":[{"name":"user","type":"address","internalType":"address"}],"outputs":[{"name":"","type":"uint256[]","internalType":"uint256[]"}],"stateMutability":"view"},{"type":"function","name":"getUserReferrer","inputs":[{"name":"user","type":"address","internalType":"address"}],"outputs":[{"name":"","type":"address","internalType":"address"}],"stateMutability":"view"},{"type":"function","name":"hasProfile","inputs":[{"name":"","type":"address","internalType":"address"}],"outputs":[{"name":"","type":"bool","internalType":"bool"}],"stateMutability":"view"},{"type":"function","name":"initialize","inputs":[{"name":"_owner","type":"address","internalType":"address"}],"outputs":[],"stateMutability":"nonpayable"},{"type":"function","name":"jobRatings","inputs":[{"name":"","type":"string","internalType":"string"},{"name":"","type":"address","internalType":"address"}],"outputs":[{"name":"","type":"uint256","internalType":"uint256"}],"stateMutability":"view"},{"type":"function","name":"nativeDAO","inputs":[],"outputs":[{"name":"","type":"address","internalType":"address"}],"stateMutability":"view"},{"type":"function","name":"owner","inputs":[],"outputs":[{"name":"","type":"address","internalType":"address"}],"stateMutability":"view"},{"type":"function","name":"profiles","inputs":[{"name":"","type":"address","internalType":"address"}],"outputs":[{"name":"userAddress","type":"address","internalType":"address"},{"name":"ipfsHash","type":"string","internalType":"string"},{"name":"referrerAddress","type":"address","internalType":"address"}],"stateMutability":"view"},{"type":"function","name":"proxiableUUID","inputs":[],"outputs":[{"name":"","type":"bytes32","internalType":"bytes32"}],"stateMutability":"view"},{"type":"function","name":"removePortfolioItem","inputs":[{"name":"user","type":"address","internalType":"address"},{"name":"index","type":"uint256","internalType":"uint256"}],"outputs":[],"stateMutability":"nonpayable"},{"type":"function","name":"setAdmin","inputs":[{"name":"_admin","type":"address","internalType":"address"},{"name":"_status","type":"bool","internalType":"bool"}],"outputs":[],"stateMutability":"nonpayable"},{"type":"function","name":"setJobRating","inputs":[{"name":"jobId","type":"string","internalType":"string"},{"name":"user","type":"address","internalType":"address"},{"name":"rating","type":"uint256","internalType":"uint256"}],"outputs":[],"stateMutability":"nonpayable"},{"type":"function","name":"setNativeDAO","inputs":[{"name":"_nativeDAO","type":"address","internalType":"address"}],"outputs":[],"stateMutability":"nonpayable"},{"type":"function","name":"setProfile","inputs":[{"name":"user","type":"address","internalType":"address"},{"name":"ipfsHash","type":"string","internalType":"string"},{"name":"referrer","type":"address","internalType":"address"}],"outputs":[],"stateMutability":"nonpayable"},{"type":"function","name":"transferOwnership","inputs":[{"name":"newOwner","type":"address","internalType":"address"}],"outputs":[],"stateMutability":"nonpayable"},{"type":"function","name":"updatePortfolioItem","inputs":[{"name":"user","type":"address","internalType":"address"},{"name":"index","type":"uint256","internalType":"uint256"},{"name":"newPortfolioHash","type":"string","internalType":"string"}],"outputs":[],"stateMutability":"nonpayable"},{"type":"function","name":"updateProfileIpfsHash","inputs":[{"name":"user","type":"address","internalType":"address"},{"name":"newIpfsHash","type":"string","internalType":"string"}],"outputs":[],"stateMutability":"nonpayable"},{"type":"function","name":"upgradeToAndCall","inputs":[{"name":"newImplementation","type":"address","internalType":"address"},{"name":"data","type":"bytes","internalType":"bytes"}],"outputs":[],"stateMutability":"payable"},{"type":"function","name":"userRatings","inputs":[{"name":"","type":"address","internalType":"address"},{"name":"","type":"uint256","internalType":"uint256"}],"outputs":[{"name":"","type":"uint256","internalType":"uint256"}],"stateMutability":"view"},{"type":"function","name":"userReferrers","inputs":[{"name":"","type":"address","internalType":"address"}],"outputs":[{"name":"","type":"address","internalType":"address"}],"stateMutability":"view"},{"type":"event","name":"AdminUpdated","inputs":[{"name":"admin","type":"address","indexed":true,"internalType":"address"},{"name":"status","type":"bool","indexed":false,"internalType":"bool"}],"anonymous":false},{"type":"event","name":"ContractAuthorized","inputs":[{"name":"contractAddress","type":"address","indexed":true,"internalType":"address"},{"name":"authorized","type":"bool","indexed":false,"internalType":"bool"}],"anonymous":false},{"type":"event","name":"Initialized","inputs":[{"name":"version","type":"uint64","indexed":false,"internalType":"uint64"}],"anonymous":false},{"type":"event","name":"NativeDAOUpdated","inputs":[{"name":"oldDAO","type":"address","indexed":true,"internalType":"address"},{"name":"newDAO","type":"address","indexed":true,"internalType":"address"}],"anonymous":false},{"type":"event","name":"OwnershipTransferred","inputs":[{"name":"previousOwner","type":"address","indexed":true,"internalType":"address"},{"name":"newOwner","type":"address","indexed":true,"internalType":"address"}],"anonymous":false},{"type":"event","name":"PortfolioItemRemoved","inputs":[{"name":"user","type":"address","indexed":true,"internalType":"address"},{"name":"index","type":"uint256","indexed":false,"internalType":"uint256"}],"anonymous":false},{"type":"event","name":"PortfolioItemUpdated","inputs":[{"name":"user","type":"address","indexed":true,"internalType":"address"},{"name":"index","type":"uint256","indexed":false,"internalType":"uint256"},{"name":"newPortfolioHash","type":"string","indexed":false,"internalType":"string"}],"anonymous":false},{"type":"event","name":"ProfileUpdated","inputs":[{"name":"user","type":"address","indexed":true,"internalType":"address"},{"name":"newIpfsHash","type":"string","indexed":false,"internalType":"string"}],"anonymous":false},{"type":"event","name":"Upgraded","inputs":[{"name":"implementation","type":"address","indexed":true,"internalType":"address"}],"anonymous":false},{"type":"error","name":"AddressEmptyCode","inputs":[{"name":"target","type":"address","internalType":"address"}]},{"type":"error","name":"ERC1967InvalidImplementation","inputs":[{"name":"implementation","type":"address","internalType":"address"}]},{"type":"error","name":"ERC1967NonPayable","inputs":[]},{"type":"error","name":"FailedInnerCall","inputs":[]},{"type":"error","name":"InvalidInitialization","inputs":[]},{"type":"error","name":"NotInitializing","inputs":[]},{"type":"error","name":"UUPSUnauthorizedCallContext","inputs":[]},{"type":"error","name":"UUPSUnsupportedProxiableUUID","inputs":[{"name":"slot","type":"bytes32","internalType":"bytes32"}]}],"bytecode":{"object":"0x60a080604052346100c257306080525f516020611e005f395f51905f525460ff8160401c166100b3576002600160401b03196001600160401b03821601610060575b604051611d3990816100c78239608051818181610fd101526110730152f35b6001600160401b0319166001600160401b039081175f516020611e005f395f51905f525581527fc7f505b2f371ae2175ee4913f4499e1f2633a7b5936321eed1cdaeb6115181d290602090a15f80610041565b63f92ee8a960e01b5f5260045ffd5b5f80fdfe60806040526004361015610011575f80fd5b5f3560e01c806306fb531a146115795780630f53a470146113dd5780632c317eb21461134757806336144c9a146109425780633697611a1461132a578063429b62e5146112ed5780634b0bddd2146112395780634f1ef2861461102557806352d1902d14610fbf57806358596a0814610ea55780635cbeb13f14610e2d5780636402191814610b6657806366822da914610add578063687694ae14610ab55780637c83b0aa146109aa5780638da5cb5b146109825780638f63489d14610942578063951d7f9a14610847578063a2f7cb26146108cc578063a787c80b1461088f578063a8efdfe814610847578063ad3cb1cc146107fc578063bbe1562714610782578063be001f6f1461072a578063c4d66de81461059e578063ce409985146104e5578063d5b9221b146104a9578063efe24b8d146102c7578063f2fde38b1461021b5763f50336f914610163575f80fd5b34610217576020366003190112610217576001600160a01b03610184611709565b165f52600860205260405f20604051806020835491828152019081935f5260205f20905f5b81811061020157505050816101bf910382611677565b604051918291602083019060208452518091526040830191905f5b8181106101e8575050500390f35b82518452859450602093840193909201916001016101da565b82548452602090930192600192830192016101a9565b5f80fd5b3461021757602036600319011261021757610234611709565b600154906001600160a01b0382169061024e338314611b0d565b6001600160a01b0316918215610293576001600160a01b03191682176001557f8be0079c531659141344cd1fd0a4f28419497f9722a3daafe3b4186f6b6457e05f80a3005b60405162461bcd60e51b815260206004820152600c60248201526b5a65726f206164647265737360a01b6044820152606490fd5b34610217576040366003190112610217576102e0611709565b60243590335f525f60205260ff60405f2054168015610495575b61030390611939565b60018060a01b031690815f52600560205261032460ff60405f20541661198d565b815f52600460205261033e600360405f2001548210611b45565b815f526004602052600360405f2001545f1981019081116104815780820361043a575b50815f526004602052600360405f20019081548015610426575f1901906103888284611924565b929092610413577f71896b71d4d23246e9605b719083d8266614b1316d706a9fff17e4d4e9857c7a93836103be60209554611834565b90816103d1575b505055604051908152a2005b81601f5f93116001146103e85750555b86806103c5565b81835286832061040491601f0160051c841901906001016119d2565b808252818681209155556103e1565b634e487b7160e01b5f525f60045260245ffd5b634e487b7160e01b5f52603160045260245ffd5b61045290835f526004602052600360405f2001611924565b50825f52600460205261046b82600360405f2001611924565b9190916104135761047b91611b91565b82610361565b634e487b7160e01b5f52601160045260245ffd5b506001546001600160a01b031633146102fa565b34610217576020366003190112610217576001600160a01b036104ca611709565b165f525f602052602060ff60405f2054166040519015158152f35b34610217576105857fdd635a4cd84864e37e4479dbfc2ec667acfa473c83c8422a8ac9d9d07599b01c61051736611743565b9290335f525f60205260ff60405f205416801561058a575b61053890611939565b60018060a01b031692835f52600560205261055960ff60405f20541661198d565b835f52600460205261057181600160405f2001611a3a565b60405191829160208352602083019061171f565b0390a2005b506001546001600160a01b0316331461052f565b34610217576020366003190112610217576105b7611709565b5f516020611ce45f395f51905f5254604081901c60ff161591906001600160401b03811680159081610722575b6001149081610718575b15908161070f575b50610700576001600160401b031981166001175f516020611ce45f395f51905f5255826106d8575b5060ff5f516020611ce45f395f51905f525460401c16156106c957600180546001600160a01b0319166001600160a01b039290921691821781555f91825260026020526040909120805460ff1916909117905561067757005b60ff60401b195f516020611ce45f395f51905f5254165f516020611ce45f395f51905f52557fc7f505b2f371ae2175ee4913f4499e1f2633a7b5936321eed1cdaeb6115181d2602060405160018152a1005b631afcd79f60e31b5f5260045ffd5b6001600160481b0319166001600160401b01175f516020611ce45f395f51905f52558261061e565b63f92ee8a960e01b5f5260045ffd5b905015846105f6565b303b1591506105ee565b8491506105e4565b3461021757604036600319011261021757610743611709565b6001600160a01b03165f908152600860205260409020805460243591908210156102175760209161077391611924565b90549060031b1c604051908152f35b34610217576020366003190112610217576001600160a01b036107a3611709565b165f90815260046020526040902080546001600160a01b03166107c86001830161186c565b91600260018060a01b03910154166107f2604051938493845260606020850152606084019061171f565b9060408301520390f35b34610217575f3660031901126102175761084360405161081d604082611677565b60058152640352e302e360dc1b602082015260405191829160208352602083019061171f565b0390f35b3461021757602080610858366117f3565b9290604051928184925191829101835e810160078152030190209060018060a01b03165f52602052602060405f2054604051908152f35b34610217576020366003190112610217576001600160a01b036108b0611709565b165f526005602052602060ff60405f2054166040519015158152f35b34610217576020366003190112610217576108e5611709565b6108fa60018060a01b03600154163314611b0d565b600380546001600160a01b039283166001600160a01b0319821681179092559091167febf0307548e44546701f6014620caeea64df200e2b3925bfd3c75d354fd7410d5f80a3005b34610217576020366003190112610217576001600160a01b03610963611709565b165f526006602052602060018060a01b0360405f205416604051908152f35b34610217575f366003190112610217576001546040516001600160a01b039091168152602090f35b34610217576060366003190112610217576109c3611709565b60243590604435906001600160401b03821161021757610a087fc39f56c165e6e8a9ac36c2adf54383775830c65cc8239fb382b4baf459233ab79236906004016116eb565b90335f525f60205260ff60405f2054168015610aa1575b610a2890611939565b60018060a01b031692835f526005602052610a4960ff60405f20541661198d565b835f526004602052610a63600360405f2001548210611b45565b835f526004602052610a8582610a7f83600360405f2001611924565b90611afe565b610585604051928392835260406020840152604083019061171f565b506001546001600160a01b03163314610a1f565b34610217575f366003190112610217576003546040516001600160a01b039091168152602090f35b34610217575f36600319011261021757604051600980548083525f91825260208301917f6e1540171b6c0c960b71a7020d9f60077f6af931a8bbf590da0223dacf75c7af91905b818110610b475761084385610b3b81870382611677565b604051918291826117b1565b82546001600160a01b0316845260209093019260019283019201610b24565b3461021757606036600319011261021757610b7f611709565b6024356001600160401b03811161021757610b9e9036906004016116eb565b6044356001600160a01b038116929083900361021757335f525f60205260ff60405f2054168015610e19575b610bd390611939565b6001600160a01b03165f8181526005602052604090205490919060ff1615610db8575b602090600360405191610c098484611677565b5f835260405190610c198261165c565b8582528482019081526040808301888152606084019586525f8881526004885291909120925183546001600160a01b0319166001600160a01b03919091161783559051610c699060018401611a3a565b516002820180546001600160a01b0319166001600160a01b039290921691909117905591518051929190910190600160401b8311610da45783908254848455808510610d20575b5001905f52825f20835f925b848410610d0257878783815f526005815260405f20600160ff1982541617905582610ce357005b5f918252600690526040902080546001600160a01b0319169091179055005b60019181610d1284935186611a3a565b019201920191908490610cbc565b835f528480845f20019103905f5b828110610d3c575050610cb0565b81929394508060019201610d508154611834565b9081610d64575b5050019086939291610d2e565b81601f5f93118514610d7a5750555b8a80610d57565b8183528a8320610d9591601f0160051c8419019086016119d2565b808252818a8120915555610d73565b634e487b7160e01b5f52604160045260245ffd5b600954600160401b811015610da457806001610dd7920160095561190c565b81546001600160a01b0360039290921b91821b19169084901b179055600b545f838152600a602052604090208190555f19811461048157600101600b55610bf6565b506001546001600160a01b03163314610bca565b346102175760207f3213ab8ec2ed122402f038736b41878b69ae9f61f49a7edd0666bce891d29fc9610e5e36611782565b9290610e7560018060a01b03600154163314611b0d565b6001600160a01b03165f81815280835260409020805460ff191660ff86151516179055925b6040519015158152a2005b3461021757604036600319011261021757600435602435600b549081831015610f7e578282039182116104815781811115610f7757505b610ee581611976565b91610ef36040519384611677565b818352601f19610f0283611976565b013660208501375f5b828110610f20576040518061084386826117b1565b80820180831161048157610f339061190c565b9054855160039290921b1c6001600160a01b03169190811015610f635760019160208260051b8701015201610f0b565b634e487b7160e01b5f52603260045260245ffd5b9050610edc565b60405162461bcd60e51b8152602060048201526019602482015278537461727420696e646578206f7574206f6620626f756e647360381b6044820152606490fd5b34610217575f366003190112610217577f00000000000000000000000000000000000000000000000000000000000000006001600160a01b031630036110165760206040515f516020611cc45f395f51905f528152f35b63703e46dd60e11b5f5260045ffd5b604036600319011261021757611039611709565b6024356001600160401b0381116102175736602382011215610217576110699036906024816004013591016116b5565b6001600160a01b037f000000000000000000000000000000000000000000000000000000000000000016308114908115611217575b50611016576110b860018060a01b03600154163314611b0d565b6040516352d1902d60e01b81526001600160a01b0383169290602081600481875afa5f91816111e3575b506110fa5783634c9c8ce360e01b5f5260045260245ffd5b805f516020611cc45f395f51905f528592036111d15750813b156111bf575f516020611cc45f395f51905f5280546001600160a01b031916821790557fbc7cd75a20ee27fd9adebab32041f755214dbc6bffa90cc0225b39da2e5c2d3b5f80a28151156111a7575f8083602061119d95519101845af43d1561119f573d916111818361169a565b9261118f6040519485611677565b83523d5f602085013e611c65565b005b606091611c65565b5050346111b057005b63b398979f60e01b5f5260045ffd5b634c9c8ce360e01b5f5260045260245ffd5b632a87526960e21b5f5260045260245ffd5b9091506020813d60201161120f575b816111ff60209383611677565b81010312610217575190856110e2565b3d91506111f2565b5f516020611cc45f395f51905f52546001600160a01b0316141590508361109e565b346102175761124736611782565b9060018060a01b0360015416331480156112d9575b156112ae5760207f235bc17e7930760029e9f4d860a2a8089976de5b381cf8380fc11c1d88a111339160018060a01b031692835f5260028252610e9a8160405f209060ff801983541691151516179055565b606460405162461bcd60e51b8152602060048201526004602482015263082eae8d60e31b6044820152fd5b506003546001600160a01b0316331461125c565b34610217576020366003190112610217576001600160a01b0361130e611709565b165f526002602052602060ff60405f2054166040519015158152f35b34610217575f366003190112610217576020600b54604051908152f35b346102175761135536611743565b90335f525f60205260ff60405f20541680156113c9575b61137590611939565b6001600160a01b03165f818152600560205260409020546113989060ff1661198d565b5f526004602052600360405f200190815491600160401b831015610da45782610a7f91600161119d95018155611924565b506001546001600160a01b0316331461136c565b34610217576020366003190112610217576113f6611709565b6060806040516114058161165c565b5f81528160208201525f6040820152015260018060a01b03165f52600460205260405f206040516114358161165c565b81546001600160a01b0316815261144e6001830161186c565b6020820190815260028301546001600160a01b0316604083019081526003909301805491939161147d81611976565b9161148b6040519384611677565b81835260208301905f5260205f205f915b8383106115525750505050606083019081526114dc6040519485946020865260018060a01b039051166020860152516080604086015260a085019061171f565b91516001600160a01b0316606084015251601f1983830301608084015280518083526020600582901b8401810193928101925f918101905b8383106115215786860387f35b919395509193602080611540600193601f19868203018752895161171f565b97019301930190928695949293611514565b600160208192611566859b98999a9b61186c565b815201920192019190969594939661149c565b34610217576060366003190112610217576004356001600160401b038111610217576115a99036906004016116eb565b6024356001600160a01b038116908190036102175760208060443593335f525f825260ff60405f2054168015611648575b6115e390611939565b604051928184925191829101835e81016007815203019020815f526020528160405f20555f52600860205260405f208054600160401b811015610da45761162f91600182018155611924565b819291549060031b91821b915f19901b19161790555f80f35b506001546001600160a01b031633146115da565b608081019081106001600160401b03821117610da457604052565b601f909101601f19168101906001600160401b03821190821017610da457604052565b6001600160401b038111610da457601f01601f191660200190565b9291926116c18261169a565b916116cf6040519384611677565b829481845281830111610217578281602093845f960137010152565b9080601f8301121561021757816020611706933591016116b5565b90565b600435906001600160a01b038216820361021757565b805180835260209291819084018484015e5f828201840152601f01601f1916010190565b906040600319830112610217576004356001600160a01b03811681036102175791602435906001600160401b03821161021757611706916004016116eb565b6040906003190112610217576004356001600160a01b0381168103610217579060243580151581036102175790565b60206040818301928281528451809452019201905f5b8181106117d45750505090565b82516001600160a01b03168452602093840193909201916001016117c7565b604060031982011261021757600435906001600160401b0382116102175761181d916004016116eb565b906024356001600160a01b03811681036102175790565b90600182811c92168015611862575b602083101461184e57565b634e487b7160e01b5f52602260045260245ffd5b91607f1691611843565b9060405191825f82549261187f84611834565b80845293600181169081156118ea57506001146118a6575b506118a492500383611677565b565b90505f9291925260205f20905f915b8183106118ce5750509060206118a4928201015f611897565b60209193508060019154838589010152019101909184926118b5565b9050602092506118a494915060ff191682840152151560051b8201015f611897565b600954811015610f635760095f5260205f2001905f90565b8054821015610f63575f5260205f2001905f90565b1561194057565b60405162461bcd60e51b815260206004820152600e60248201526d139bdd08185d5d1a1bdc9a5e995960921b6044820152606490fd5b6001600160401b038111610da45760051b60200190565b1561199457565b60405162461bcd60e51b8152602060048201526016602482015275141c9bd99a5b1948191bd95cc81b9bdd08195e1a5cdd60521b6044820152606490fd5b5f5b8281106119e057505050565b5f828201556001016119d4565b91601f82116119fb57505050565b808211611a0757505050565b6118a4925f5260205f20916020601f830160051c9210611a32575b601f82910160051c0391016119d2565b5f9150611a22565b81519192916001600160401b038111610da457611a6181611a5b8454611834565b846119ed565b6020601f8211600114611aa0578190611a919394955f92611a95575b50508160011b915f199060031b1c19161790565b9055565b015190505f80611a7d565b601f19821690835f52805f20915f5b818110611ae657509583600195969710611ace575b505050811b019055565b01515f1960f88460031b161c191690555f8080611ac4565b9192602060018192868b015181550194019201611aaf565b9190610413576118a491611a3a565b15611b1457565b60405162461bcd60e51b81526020600482015260096024820152682737ba1037bbb732b960b91b6044820152606490fd5b15611b4c57565b60405162461bcd60e51b815260206004820152601d60248201527f506f7274666f6c696f20696e646578206f7574206f6620626f756e64730000006044820152606490fd5b919091828114611c6057611ba58354611834565b6001600160401b038111610da457611bc181611a5b8454611834565b5f93601f8211600114611bfb57611a9192939482915f92611bf05750508160011b915f199060031b1c19161790565b015490505f80611a7d565b601f198216905f5260205f2094835f5260205f20915f5b818110611c4857509583600195969710611c3057505050811b019055565b01545f1960f88460031b161c191690555f8080611ac4565b9192600180602092868b015481550194019201611c12565b509050565b90611c895750805115611c7a57805190602001fd5b630a12f52160e11b5f5260045ffd5b81511580611cba575b611c9a575090565b639996b31560e01b5f9081526001600160a01b0391909116600452602490fd5b50803b15611c9256fe360894a13ba1a3210667c828492db98dca3e2076cc3735a920a3ca505d382bbcf0c57e16840df040f15088dc2f81fe391c3923bec73e23a9662efc9c229c6a00a2646970667358221220e732a46850630b48dba215262978a8c35ef57d23d4ba44a28ee0f105fb386f5e64736f6c63430008210033f0c57e16840df040f15088dc2f81fe391c3923bec73e23a9662efc9c229c6a00","linkReferences":{}},"methodIdentifiers":{"UPGRADE_INTERFACE_VERSION()":"ad3cb1cc","addPortfolio(address,string)":"2c317eb2","admins(address)":"429b62e5","authorizeContract(address,bool)":"5cbeb13f","authorizedContracts(address)":"d5b9221b","getAllProfileAddresses()":"66822da9","getJobRating(string,address)":"951d7f9a","getProfile(address)":"0f53a470","getProfileAddressesBatch(uint256,uint256)":"58596a08","getProfileCount()":"3697611a","getUserRatings(address)":"f50336f9","getUserReferrer(address)":"36144c9a","hasProfile(address)":"a787c80b","initialize(address)":"c4d66de8","jobRatings(string,address)":"a8efdfe8","nativeDAO()":"687694ae","owner()":"8da5cb5b","profiles(address)":"bbe15627","proxiableUUID()":"52d1902d","removePortfolioItem(address,uint256)":"efe24b8d","setAdmin(address,bool)":"4b0bddd2","setJobRating(string,address,uint256)":"06fb531a","setNativeDAO(address)":"a2f7cb26","setProfile(address,string,address)":"64021918","transferOwnership(address)":"f2fde38b","updatePortfolioItem(address,uint256,string)":"7c83b0aa","updateProfileIpfsHash(address,string)":"ce409985","upgradeToAndCall(address,bytes)":"4f1ef286","userRatings(address,uint256)":"be001f6f","userReferrers(address)":"8f63489d"},"id":14}