{"abi":[{"type":"constructor","inputs":[],"stateMutability":"nonpayable"},{"type":"function","name":"UPGRADE_INTERFACE_VERSION","inputs":[],"outputs":[{"name":"","type":"string","internalType":"string"}],"stateMutability":"view"},{"type":"function","name":"admins","inputs":[{"name":"","type":"address","internalType":"address"}],"outputs":[{"name":"","type":"bool","internalType":"bool"}],"stateMutability":"view"},{"type":"function","name":"authorizedCallers","inputs":[{"name":"","type":"address","internalType":"address"}],"outputs":[{"name":"","type":"bool","internalType":"bool"}],"stateMutability":"view"},{"type":"function","name":"getMemberActivities","inputs":[{"name":"members","type":"address[]","internalType":"address[]"}],"outputs":[{"name":"timestamps","type":"uint256[]","internalType":"uint256[]"}],"stateMutability":"view"},{"type":"function","name":"initialize","inputs":[{"name":"_owner","type":"address","internalType":"address"}],"outputs":[],"stateMutability":"nonpayable"},{"type":"function","name":"initializeMemberActivities","inputs":[{"name":"members","type":"address[]","internalType":"address[]"}],"outputs":[],"stateMutability":"nonpayable"},{"type":"function","name":"initializeMemberActivity","inputs":[{"name":"member","type":"address","internalType":"address"}],"outputs":[],"stateMutability":"nonpayable"},{"type":"function","name":"isAdmin","inputs":[{"name":"admin","type":"address","internalType":"address"}],"outputs":[{"name":"","type":"bool","internalType":"bool"}],"stateMutability":"view"},{"type":"function","name":"isAuthorized","inputs":[{"name":"caller","type":"address","internalType":"address"}],"outputs":[{"name":"","type":"bool","internalType":"bool"}],"stateMutability":"view"},{"type":"function","name":"memberLastActivity","inputs":[{"name":"","type":"address","internalType":"address"}],"outputs":[{"name":"","type":"uint256","internalType":"uint256"}],"stateMutability":"view"},{"type":"function","name":"nativeDAO","inputs":[],"outputs":[{"name":"","type":"address","internalType":"address"}],"stateMutability":"view"},{"type":"function","name":"oracleActiveStatus","inputs":[{"name":"","type":"string","internalType":"string"}],"outputs":[{"name":"","type":"bool","internalType":"bool"}],"stateMutability":"view"},{"type":"function","name":"owner","inputs":[],"outputs":[{"name":"","type":"address","internalType":"address"}],"stateMutability":"view"},{"type":"function","name":"proxiableUUID","inputs":[],"outputs":[{"name":"","type":"bytes32","internalType":"bytes32"}],"stateMutability":"view"},{"type":"function","name":"renounceOwnership","inputs":[],"outputs":[],"stateMutability":"nonpayable"},{"type":"function","name":"setAdmin","inputs":[{"name":"admin","type":"address","internalType":"address"},{"name":"status","type":"bool","internalType":"bool"}],"outputs":[],"stateMutability":"nonpayable"},{"type":"function","name":"setAuthorizedCaller","inputs":[{"name":"caller","type":"address","internalType":"address"},{"name":"authorized","type":"bool","internalType":"bool"}],"outputs":[],"stateMutability":"nonpayable"},{"type":"function","name":"setMemberActivitiesOverride","inputs":[{"name":"members","type":"address[]","internalType":"address[]"},{"name":"timestamp","type":"uint256","internalType":"uint256"}],"outputs":[],"stateMutability":"nonpayable"},{"type":"function","name":"setMemberActivityOverride","inputs":[{"name":"member","type":"address","internalType":"address"},{"name":"timestamp","type":"uint256","internalType":"uint256"}],"outputs":[],"stateMutability":"nonpayable"},{"type":"function","name":"setNativeDAO","inputs":[{"name":"_nativeDAO","type":"address","internalType":"address"}],"outputs":[],"stateMutability":"nonpayable"},{"type":"function","name":"setOracleActiveStatus","inputs":[{"name":"oracleName","type":"string","internalType":"string"},{"name":"isActive","type":"bool","internalType":"bool"}],"outputs":[],"stateMutability":"nonpayable"},{"type":"function","name":"setOracleActiveStatusOverride","inputs":[{"name":"oracleName","type":"string","internalType":"string"},{"name":"isActive","type":"bool","internalType":"bool"}],"outputs":[],"stateMutability":"nonpayable"},{"type":"function","name":"transferOwnership","inputs":[{"name":"newOwner","type":"address","internalType":"address"}],"outputs":[],"stateMutability":"nonpayable"},{"type":"function","name":"updateMemberActivities","inputs":[{"name":"members","type":"address[]","internalType":"address[]"}],"outputs":[],"stateMutability":"nonpayable"},{"type":"function","name":"updateMemberActivity","inputs":[{"name":"member","type":"address","internalType":"address"}],"outputs":[],"stateMutability":"nonpayable"},{"type":"function","name":"upgradeToAndCall","inputs":[{"name":"newImplementation","type":"address","internalType":"address"},{"name":"data","type":"bytes","internalType":"bytes"}],"outputs":[],"stateMutability":"payable"},{"type":"event","name":"ActivityTrackerConfigured","inputs":[{"name":"targetContract","type":"address","indexed":true,"internalType":"address"}],"anonymous":false},{"type":"event","name":"AdminUpdated","inputs":[{"name":"admin","type":"address","indexed":true,"internalType":"address"},{"name":"status","type":"bool","indexed":false,"internalType":"bool"}],"anonymous":false},{"type":"event","name":"AuthorizedCallerUpdated","inputs":[{"name":"caller","type":"address","indexed":true,"internalType":"address"},{"name":"authorized","type":"bool","indexed":false,"internalType":"bool"}],"anonymous":false},{"type":"event","name":"Initialized","inputs":[{"name":"version","type":"uint64","indexed":false,"internalType":"uint64"}],"anonymous":false},{"type":"event","name":"MemberActivityInitialized","inputs":[{"name":"member","type":"address","indexed":true,"internalType":"address"},{"name":"timestamp","type":"uint256","indexed":false,"internalType":"uint256"}],"anonymous":false},{"type":"event","name":"MemberActivityUpdated","inputs":[{"name":"member","type":"address","indexed":true,"internalType":"address"},{"name":"timestamp","type":"uint256","indexed":false,"internalType":"uint256"}],"anonymous":false},{"type":"event","name":"NativeDAOUpdated","inputs":[{"name":"oldDAO","type":"address","indexed":true,"internalType":"address"},{"name":"newDAO","type":"address","indexed":true,"internalType":"address"}],"anonymous":false},{"type":"event","name":"OracleActiveStatusUpdated","inputs":[{"name":"oracleName","type":"string","indexed":true,"internalType":"string"},{"name":"isActive","type":"bool","indexed":false,"internalType":"bool"}],"anonymous":false},{"type":"event","name":"OwnershipTransferred","inputs":[{"name":"previousOwner","type":"address","indexed":true,"internalType":"address"},{"name":"newOwner","type":"address","indexed":true,"internalType":"address"}],"anonymous":false},{"type":"event","name":"Upgraded","inputs":[{"name":"implementation","type":"address","indexed":true,"internalType":"address"}],"anonymous":false},{"type":"error","name":"AddressEmptyCode","inputs":[{"name":"target","type":"address","internalType":"address"}]},{"type":"error","name":"ERC1967InvalidImplementation","inputs":[{"name":"implementation","type":"address","internalType":"address"}]},{"type":"error","name":"ERC1967NonPayable","inputs":[]},{"type":"error","name":"FailedInnerCall","inputs":[]},{"type":"error","name":"InvalidInitialization","inputs":[]},{"type":"error","name":"NotInitializing","inputs":[]},{"type":"error","name":"OwnableInvalidOwner","inputs":[{"name":"owner","type":"address","internalType":"address"}]},{"type":"error","name":"OwnableUnauthorizedAccount","inputs":[{"name":"account","type":"address","internalType":"address"}]},{"type":"error","name":"UUPSUnauthorizedCallContext","inputs":[]},{"type":"error","name":"UUPSUnsupportedProxiableUUID","inputs":[{"name":"slot","type":"bytes32","internalType":"bytes32"}]}],"bytecode":{"object":"0x60a080604052346100c257306080525f5160206114455f395f51905f525460ff8160401c166100b3576002600160401b03196001600160401b03821601610060575b60405161137e90816100c78239608051818181610a530152610af50152f35b6001600160401b0319166001600160401b039081175f5160206114455f395f51905f525581527fc7f505b2f371ae2175ee4913f4499e1f2633a7b5936321eed1cdaeb6115181d290602090a15f80610041565b63f92ee8a960e01b5f5260045ffd5b5f80fdfe60806040526004361015610011575f80fd5b5f3560e01c806317e9ebcf14610f2f57806324d7806c14610eea57806341b3d2a114610e63578063429b62e514610e26578063454bbd2914610dbc5780634b0bddd214610cea5780634f1ef28614610aa757806352d1902d14610a41578063536fff6c14610a04578063687694ae146109dc578063715018a614610988578063759a15a0146109515780637a98bec81461087d5780637c38b9751461082357806384452969146107845780638da5cb5b1461075057806393e90752146106fa5780639e578411146106a3578063a2f7cb261461063a578063ad3cb1cc146105dc578063bf0410101461053f578063c4d66de8146103d2578063f2fde38b146103a7578063fe9545e4146102a8578063fe9fbb80146102415763ff492b3014610137575f80fd5b3461023d57602036600319011261023d576004356001600160401b03811161023d5761016790369060040161104e565b90610171826111b5565b9161017f6040519384610f49565b80835261018b816111b5565b602084019290601f19013684375f5b8281106101e5578385604051918291602083019060208452518091526040830191905f5b8181106101cc575050500390f35b82518452859450602093840193909201916001016101be565b6001600160a01b036102006101fb838686611133565b611143565b165f525f60205260405f20549085518110156102295760019160208260051b880101520161019a565b634e487b7160e01b5f52603260045260245ffd5b5f80fd5b3461023d57602036600319011261023d5760206001600160a01b03610264611038565b16805f526002825260ff60405f205416908115610287575b506040519015158152f35b5f5160206112895f395f51905f52546001600160a01b03161490508261027c565b3461023d57602036600319011261023d576004356001600160401b03811161023d576102d890369060040161104e565b90335f52600260205260ff60405f2054168015610387575b6102f9906110f6565b5f5b82811061030457005b6001906001600160a01b0361031d6101fb838787611133565b165f525f60205260405f205415610335575b016102fb565b818060a01b036103496101fb838787611133565b165f525f6020524260405f2055818060a01b0361036a6101fb838787611133565b165f5160206113095f395f51905f526020604051428152a261032f565b505f5160206112895f395f51905f52546001600160a01b031633146102f0565b3461023d57602036600319011261023d576103d06103c3611038565b6103cb6111cc565b611157565b005b3461023d57602036600319011261023d576103eb611038565b5f5160206113295f395f51905f5254604081901c60ff161591906001600160401b03811680159081610537575b600114908161052d575b159081610524575b50610515576001600160401b031981166001175f5160206113295f395f51905f5255826104ed575b5061045b6111ff565b6104636111ff565b61046c81611157565b6104746111ff565b6001600160a01b03165f908152600360205260409020805460ff1916600117905561049b57005b60ff60401b195f5160206113295f395f51905f5254165f5160206113295f395f51905f52557fc7f505b2f371ae2175ee4913f4499e1f2633a7b5936321eed1cdaeb6115181d2602060405160018152a1005b6001600160481b0319166001600160401b01175f5160206113295f395f51905f525582610452565b63f92ee8a960e01b5f5260045ffd5b9050158461042a565b303b159150610422565b849150610418565b3461023d57602036600319011261023d57610558611038565b335f52600260205260ff60405f20541680156105bc575b610578906110f6565b6001600160a01b03165f818152602081905260409020541561059657005b805f525f6020524260405f20555f5160206113095f395f51905f526020604051428152a2005b505f5160206112895f395f51905f52546001600160a01b0316331461056f565b3461023d575f36600319011261023d5760408051906105fb8183610f49565b600582526020820191640352e302e360dc1b83528151928391602083525180918160208501528484015e5f828201840152601f01601f19168101030190f35b3461023d57602036600319011261023d57610653611038565b61065b6111cc565b600480546001600160a01b039283166001600160a01b0319821681179092559091167febf0307548e44546701f6014620caeea64df200e2b3925bfd3c75d354fd7410d5f80a3005b3461023d576103d06106b436610ffe565b90335f52600260205260ff60405f20541680156106da575b6106d5906110f6565b61108f565b505f5160206112895f395f51905f52546001600160a01b031633146106cc565b3461023d57604036600319011261023d57610713611038565b5f5160206112e95f395f51905f5260206024359261072f6111cc565b6001600160a01b03165f8181528083526040908190208590555193845292a2005b3461023d575f36600319011261023d575f5160206112895f395f51905f52546040516001600160a01b039091168152602090f35b3461023d57604036600319011261023d576004356001600160401b03811161023d576107b490369060040161104e565b906024356107c06111cc565b5f5b8381106107cb57005b6001906001600160a01b036107e46101fb838888611133565b165f525f6020528260405f2055818060a01b036108056101fb838888611133565b165f5160206112e95f395f51905f526020604051868152a2016107c2565b3461023d57602036600319011261023d576004356001600160401b03811161023d5760ff60208061085981943690600401610fd1565b604051928184925191829101835e8101600181520301902054166040519015158152f35b3461023d57602036600319011261023d576004356001600160401b03811161023d576108ad90369060040161104e565b90335f52600260205260ff60405f2054168015610931575b6108ce906110f6565b5f5b8281106108d957005b6001906001600160a01b036108f26101fb838787611133565b165f525f6020524260405f2055818060a01b036109136101fb838787611133565b165f5160206112e95f395f51905f526020604051428152a2016108d0565b505f5160206112895f395f51905f52546001600160a01b031633146108c5565b3461023d57602036600319011261023d576001600160a01b03610972611038565b165f525f602052602060405f2054604051908152f35b3461023d575f36600319011261023d576109a06111cc565b5f5160206112895f395f51905f5280546001600160a01b031981169091555f906001600160a01b03165f5160206112c95f395f51905f528280a3005b3461023d575f36600319011261023d576004546040516001600160a01b039091168152602090f35b3461023d57602036600319011261023d576001600160a01b03610a25611038565b165f526002602052602060ff60405f2054166040519015158152f35b3461023d575f36600319011261023d577f00000000000000000000000000000000000000000000000000000000000000006001600160a01b03163003610a985760206040515f5160206112a95f395f51905f528152f35b63703e46dd60e11b5f5260045ffd5b604036600319011261023d57610abb611038565b6024356001600160401b03811161023d573660238201121561023d57610aeb903690602481600401359101610f9b565b6001600160a01b037f000000000000000000000000000000000000000000000000000000000000000016308114908115610cc8575b50610a9857335f52600360205260ff60405f20541615610c97576040516352d1902d60e01b81526001600160a01b0383169290602081600481875afa5f9181610c63575b50610b7c5783634c9c8ce360e01b5f5260045260245ffd5b805f5160206112a95f395f51905f52859203610c515750813b15610c3f575f5160206112a95f395f51905f5280546001600160a01b031916821790557fbc7cd75a20ee27fd9adebab32041f755214dbc6bffa90cc0225b39da2e5c2d3b5f80a2815115610c27575f808360206103d095519101845af43d15610c1f573d91610c0383610f80565b92610c116040519485610f49565b83523d5f602085013e61122a565b60609161122a565b505034610c3057005b63b398979f60e01b5f5260045ffd5b634c9c8ce360e01b5f5260045260245ffd5b632a87526960e21b5f5260045260245ffd5b9091506020813d602011610c8f575b81610c7f60209383610f49565b8101031261023d57519085610b64565b3d9150610c72565b60405162461bcd60e51b81526020600482015260096024820152682737ba1030b236b4b760b91b6044820152606490fd5b5f5160206112a95f395f51905f52546001600160a01b03161415905083610b20565b3461023d57604036600319011261023d57610d03611038565b610d0b610fef565b9060018060a01b035f5160206112895f395f51905f52541633148015610da8575b15610d7d5760207f235bc17e7930760029e9f4d860a2a8089976de5b381cf8380fc11c1d88a111339160018060a01b031692835f5260038252610d728160405f2061107e565b6040519015158152a2005b606460405162461bcd60e51b8152602060048201526004602482015263082eae8d60e31b6044820152fd5b506004546001600160a01b03163314610d2c565b3461023d57604036600319011261023d57610dd5611038565b7fad857fa38c9319cb80848f1ef2f924383b90297eb5d71755738ff037d100faa16020610e00610fef565b92610e096111cc565b60018060a01b031692835f5260028252610d728160405f2061107e565b3461023d57602036600319011261023d576001600160a01b03610e47611038565b165f526003602052602060ff60405f2054166040519015158152f35b3461023d57602036600319011261023d57610e7c611038565b335f52600260205260ff60405f2054168015610eca575b610e9c906110f6565b60018060a01b0316805f525f6020524260405f20555f5160206112e95f395f51905f526020604051428152a2005b505f5160206112895f395f51905f52546001600160a01b03163314610e93565b3461023d57602036600319011261023d5760206001600160a01b03610f0d611038565b16805f526003825260ff60405f20541690811561028757506040519015158152f35b3461023d576103d0610f4036610ffe565b906106d56111cc565b601f909101601f19168101906001600160401b03821190821017610f6c57604052565b634e487b7160e01b5f52604160045260245ffd5b6001600160401b038111610f6c57601f01601f191660200190565b929192610fa782610f80565b91610fb56040519384610f49565b82948184528183011161023d578281602093845f960137010152565b9080601f8301121561023d57816020610fec93359101610f9b565b90565b60243590811515820361023d57565b604060031982011261023d57600435906001600160401b03821161023d5761102891600401610fd1565b90602435801515810361023d5790565b600435906001600160a01b038216820361023d57565b9181601f8401121561023d578235916001600160401b03831161023d576020808501948460051b01011161023d57565b9060ff801983541691151516179055565b60207fb064b587a6b79be6207ecbb2ca90cff4daed0f4ae0f853667ed7c7727d956b2691604051906110d7858251938581818601968088835e8101600181520301902061107e565b604051918291518091835e81015f8152039020926040519015158152a2565b156110fd57565b60405162461bcd60e51b815260206004820152600e60248201526d139bdd08185d5d1a1bdc9a5e995960921b6044820152606490fd5b91908110156102295760051b0190565b356001600160a01b038116810361023d5790565b6001600160a01b031680156111a2575f5160206112895f395f51905f5280546001600160a01b0319811683179091556001600160a01b03165f5160206112c95f395f51905f525f80a3565b631e4fbdf760e01b5f525f60045260245ffd5b6001600160401b038111610f6c5760051b60200190565b5f5160206112895f395f51905f52546001600160a01b031633036111ec57565b63118cdaa760e01b5f523360045260245ffd5b60ff5f5160206113295f395f51905f525460401c161561121b57565b631afcd79f60e31b5f5260045ffd5b9061124e575080511561123f57805190602001fd5b630a12f52160e11b5f5260045ffd5b8151158061127f575b61125f575090565b639996b31560e01b5f9081526001600160a01b0391909116600452602490fd5b50803b1561125756fe9016d09d72d40fdae2fd8ceac6b6234c7706214fd39c1cd1e609a0528c199300360894a13ba1a3210667c828492db98dca3e2076cc3735a920a3ca505d382bbc8be0079c531659141344cd1fd0a4f28419497f9722a3daafe3b4186f6b6457e0661c7dc5a65c026e5375fda9a674f43bd5c00f70aa5027a75765747727bafc357d09c107b777a4e5732cf0d62adfc33313c73e495c2c73f0618efe64928d18a5f0c57e16840df040f15088dc2f81fe391c3923bec73e23a9662efc9c229c6a00a2646970667358221220485f47ec9ff9ac04f7fc34dd4fe43147255f0093c6d32fd5fc2dd4399a79304464736f6c63430008210033f0c57e16840df040f15088dc2f81fe391c3923bec73e23a9662efc9c229c6a00","linkReferences":{}},"methodIdentifiers":{"UPGRADE_INTERFACE_VERSION()":"ad3cb1cc","admins(address)":"429b62e5","authorizedCallers(address)":"536fff6c","getMemberActivities(address[])":"ff492b30","initialize(address)":"c4d66de8","initializeMemberActivities(address[])":"fe9545e4","initializeMemberActivity(address)":"bf041010","isAdmin(address)":"24d7806c","isAuthorized(address)":"fe9fbb80","memberLastActivity(address)":"759a15a0","nativeDAO()":"687694ae","oracleActiveStatus(string)":"7c38b975","owner()":"8da5cb5b","proxiableUUID()":"52d1902d","renounceOwnership()":"715018a6","setAdmin(address,bool)":"4b0bddd2","setAuthorizedCaller(address,bool)":"454bbd29","setMemberActivitiesOverride(address[],uint256)":"84452969","setMemberActivityOverride(address,uint256)":"93e90752","setNativeDAO(address)":"a2f7cb26","setOracleActiveStatus(string,bool)":"9e578411","setOracleActiveStatusOverride(string,bool)":"17e9ebcf","transferOwnership(address)":"f2fde38b","updateMemberActivities(address[])":"7a98bec8","updateMemberActivity(address)":"41b3d2a1","upgradeToAndCall(address,bytes)":"4f1ef286"},"id":9}