{"abi":[{"type":"constructor","inputs":[],"stateMutability":"nonpayable"},{"type":"function","name":"UPGRADE_INTERFACE_VERSION","inputs":[],"outputs":[{"name":"","type":"string","internalType":"string"}],"stateMutability":"view"},{"type":"function","name":"addAskAthenaVoter","inputs":[{"name":"athenaId","type":"uint256","internalType":"uint256"},{"name":"voter","type":"address","internalType":"address"},{"name":"claimAddress","type":"address","internalType":"address"},{"name":"votingPower","type":"uint256","internalType":"uint256"},{"name":"voteFor","type":"bool","internalType":"bool"}],"outputs":[],"stateMutability":"nonpayable"},{"type":"function","name":"addDisputeVoter","inputs":[{"name":"disputeId","type":"string","internalType":"string"},{"name":"voter","type":"address","internalType":"address"},{"name":"claimAddress","type":"address","internalType":"address"},{"name":"votingPower","type":"uint256","internalType":"uint256"},{"name":"voteFor","type":"bool","internalType":"bool"}],"outputs":[],"stateMutability":"nonpayable"},{"type":"function","name":"addJobApplicant","inputs":[{"name":"jobId","type":"string","internalType":"string"},{"name":"applicant","type":"address","internalType":"address"}],"outputs":[],"stateMutability":"nonpayable"},{"type":"function","name":"addJobFinalMilestone","inputs":[{"name":"jobId","type":"string","internalType":"string"},{"name":"description","type":"string","internalType":"string"},{"name":"amount","type":"uint256","internalType":"uint256"}],"outputs":[],"stateMutability":"nonpayable"},{"type":"function","name":"addOracleMember","inputs":[{"name":"oracleName","type":"string","internalType":"string"},{"name":"member","type":"address","internalType":"address"}],"outputs":[],"stateMutability":"nonpayable"},{"type":"function","name":"addProposalId","inputs":[{"name":"proposalId","type":"uint256","internalType":"uint256"}],"outputs":[],"stateMutability":"nonpayable"},{"type":"function","name":"addSkillVerificationVoter","inputs":[{"name":"applicationId","type":"uint256","internalType":"uint256"},{"name":"voter","type":"address","internalType":"address"},{"name":"claimAddress","type":"address","internalType":"address"},{"name":"votingPower","type":"uint256","internalType":"uint256"},{"name":"voteFor","type":"bool","internalType":"bool"}],"outputs":[],"stateMutability":"nonpayable"},{"type":"function","name":"addSkillVerifiedAddress","inputs":[{"name":"oracleName","type":"string","internalType":"string"},{"name":"user","type":"address","internalType":"address"}],"outputs":[],"stateMutability":"nonpayable"},{"type":"function","name":"addWorkSubmission","inputs":[{"name":"jobId","type":"string","internalType":"string"},{"name":"submissionHash","type":"string","internalType":"string"}],"outputs":[],"stateMutability":"nonpayable"},{"type":"function","name":"allJobIds","inputs":[{"name":"","type":"uint256","internalType":"uint256"}],"outputs":[{"name":"","type":"string","internalType":"string"}],"stateMutability":"view"},{"type":"function","name":"allStakers","inputs":[{"name":"","type":"uint256","internalType":"uint256"}],"outputs":[{"name":"","type":"address","internalType":"address"}],"stateMutability":"view"},{"type":"function","name":"applicationCounter","inputs":[],"outputs":[{"name":"","type":"uint256","internalType":"uint256"}],"stateMutability":"view"},{"type":"function","name":"askAthenaApplications","inputs":[{"name":"","type":"uint256","internalType":"uint256"}],"outputs":[{"name":"id","type":"uint256","internalType":"uint256"},{"name":"applicant","type":"address","internalType":"address"},{"name":"description","type":"string","internalType":"string"},{"name":"hash","type":"string","internalType":"string"},{"name":"targetOracle","type":"string","internalType":"string"},{"name":"fees","type":"string","internalType":"string"},{"name":"votesFor","type":"uint256","internalType":"uint256"},{"name":"votesAgainst","type":"uint256","internalType":"uint256"},{"name":"isVotingActive","type":"bool","internalType":"bool"},{"name":"timeStamp","type":"uint256","internalType":"uint256"},{"name":"result","type":"bool","internalType":"bool"},{"name":"isFinalized","type":"bool","internalType":"bool"}],"stateMutability":"view"},{"type":"function","name":"askAthenaCounter","inputs":[],"outputs":[{"name":"","type":"uint256","internalType":"uint256"}],"stateMutability":"view"},{"type":"function","name":"askAthenaVoters","inputs":[{"name":"","type":"uint256","internalType":"uint256"},{"name":"","type":"uint256","internalType":"uint256"}],"outputs":[{"name":"voter","type":"address","internalType":"address"},{"name":"claimAddress","type":"address","internalType":"address"},{"name":"votingPower","type":"uint256","internalType":"uint256"},{"name":"voteFor","type":"bool","internalType":"bool"}],"stateMutability":"view"},{"type":"function","name":"authorizeContract","inputs":[{"name":"_contract","type":"address","internalType":"address"},{"name":"_authorized","type":"bool","internalType":"bool"}],"outputs":[],"stateMutability":"nonpayable"},{"type":"function","name":"authorizedContracts","inputs":[{"name":"","type":"address","internalType":"address"}],"outputs":[{"name":"","type":"bool","internalType":"bool"}],"stateMutability":"view"},{"type":"function","name":"delegatedVotingPower","inputs":[{"name":"","type":"address","internalType":"address"}],"outputs":[{"name":"","type":"uint256","internalType":"uint256"}],"stateMutability":"view"},{"type":"function","name":"delegates","inputs":[{"name":"","type":"address","internalType":"address"}],"outputs":[{"name":"","type":"address","internalType":"address"}],"stateMutability":"view"},{"type":"function","name":"disputeVoterClaimAddresses","inputs":[{"name":"","type":"string","internalType":"string"},{"name":"","type":"address","internalType":"address"}],"outputs":[{"name":"","type":"address","internalType":"address"}],"stateMutability":"view"},{"type":"function","name":"disputeVoters","inputs":[{"name":"","type":"string","internalType":"string"},{"name":"","type":"uint256","internalType":"uint256"}],"outputs":[{"name":"voter","type":"address","internalType":"address"},{"name":"claimAddress","type":"address","internalType":"address"},{"name":"votingPower","type":"uint256","internalType":"uint256"},{"name":"voteFor","type":"bool","internalType":"bool"}],"stateMutability":"view"},{"type":"function","name":"disputes","inputs":[{"name":"","type":"string","internalType":"string"}],"outputs":[{"name":"jobId","type":"string","internalType":"string"},{"name":"disputedAmount","type":"uint256","internalType":"uint256"},{"name":"hash","type":"string","internalType":"string"},{"name":"disputeRaiserAddress","type":"address","internalType":"address"},{"name":"votesFor","type":"uint256","internalType":"uint256"},{"name":"votesAgainst","type":"uint256","internalType":"uint256"},{"name":"result","type":"bool","internalType":"bool"},{"name":"isVotingActive","type":"bool","internalType":"bool"},{"name":"isFinalized","type":"bool","internalType":"bool"},{"name":"timeStamp","type":"uint256","internalType":"uint256"},{"name":"fees","type":"uint256","internalType":"uint256"}],"stateMutability":"view"},{"type":"function","name":"earners","inputs":[{"name":"","type":"address","internalType":"address"}],"outputs":[{"name":"earnerAddress","type":"address","internalType":"address"},{"name":"balance","type":"uint256","internalType":"uint256"},{"name":"total_governance_actions","type":"uint256","internalType":"uint256"}],"stateMutability":"view"},{"type":"function","name":"finalizeAskAthena","inputs":[{"name":"athenaId","type":"uint256","internalType":"uint256"},{"name":"result","type":"bool","internalType":"bool"}],"outputs":[],"stateMutability":"nonpayable"},{"type":"function","name":"finalizeDispute","inputs":[{"name":"disputeId","type":"string","internalType":"string"},{"name":"result","type":"bool","internalType":"bool"}],"outputs":[],"stateMutability":"nonpayable"},{"type":"function","name":"finalizeSkillVerification","inputs":[{"name":"applicationId","type":"uint256","internalType":"uint256"},{"name":"result","type":"bool","internalType":"bool"}],"outputs":[],"stateMutability":"nonpayable"},{"type":"function","name":"getActiveAskAthenaApplications","inputs":[],"outputs":[{"name":"","type":"tuple[]","internalType":"struct OpenworkGenesis.AskAthenaApplication[]","components":[{"name":"id","type":"uint256","internalType":"uint256"},{"name":"applicant","type":"address","internalType":"address"},{"name":"description","type":"string","internalType":"string"},{"name":"hash","type":"string","internalType":"string"},{"name":"targetOracle","type":"string","internalType":"string"},{"name":"fees","type":"string","internalType":"string"},{"name":"votesFor","type":"uint256","internalType":"uint256"},{"name":"votesAgainst","type":"uint256","internalType":"uint256"},{"name":"isVotingActive","type":"bool","internalType":"bool"},{"name":"timeStamp","type":"uint256","internalType":"uint256"},{"name":"result","type":"bool","internalType":"bool"},{"name":"isFinalized","type":"bool","internalType":"bool"}]}],"stateMutability":"view"},{"type":"function","name":"getActiveSkillApplications","inputs":[],"outputs":[{"name":"","type":"tuple[]","internalType":"struct OpenworkGenesis.SkillVerificationApplication[]","components":[{"name":"id","type":"uint256","internalType":"uint256"},{"name":"applicant","type":"address","internalType":"address"},{"name":"applicationHash","type":"string","internalType":"string"},{"name":"feeAmount","type":"uint256","internalType":"uint256"},{"name":"targetOracleName","type":"string","internalType":"string"},{"name":"votesFor","type":"uint256","internalType":"uint256"},{"name":"votesAgainst","type":"uint256","internalType":"uint256"},{"name":"isVotingActive","type":"bool","internalType":"bool"},{"name":"timeStamp","type":"uint256","internalType":"uint256"},{"name":"result","type":"bool","internalType":"bool"},{"name":"isFinalized","type":"bool","internalType":"bool"}]}],"stateMutability":"view"},{"type":"function","name":"getActiveStakersCount","inputs":[],"outputs":[{"name":"","type":"uint256","internalType":"uint256"}],"stateMutability":"view"},{"type":"function","name":"getAllAskAthenaIds","inputs":[],"outputs":[{"name":"","type":"uint256[]","internalType":"uint256[]"}],"stateMutability":"view"},{"type":"function","name":"getAllDisputeIds","inputs":[],"outputs":[{"name":"","type":"string[]","internalType":"string[]"}],"stateMutability":"view"},{"type":"function","name":"getAllJobIds","inputs":[],"outputs":[{"name":"","type":"string[]","internalType":"string[]"}],"stateMutability":"view"},{"type":"function","name":"getAllOracleNames","inputs":[],"outputs":[{"name":"","type":"string[]","internalType":"string[]"}],"stateMutability":"view"},{"type":"function","name":"getAllProposalIds","inputs":[],"outputs":[{"name":"","type":"uint256[]","internalType":"uint256[]"}],"stateMutability":"view"},{"type":"function","name":"getAllSkillApplicationIds","inputs":[],"outputs":[{"name":"","type":"uint256[]","internalType":"uint256[]"}],"stateMutability":"view"},{"type":"function","name":"getAllStakers","inputs":[],"outputs":[{"name":"","type":"address[]","internalType":"address[]"}],"stateMutability":"view"},{"type":"function","name":"getAskAthenaApplication","inputs":[{"name":"athenaId","type":"uint256","internalType":"uint256"}],"outputs":[{"name":"","type":"tuple","internalType":"struct OpenworkGenesis.AskAthenaApplication","components":[{"name":"id","type":"uint256","internalType":"uint256"},{"name":"applicant","type":"address","internalType":"address"},{"name":"description","type":"string","internalType":"string"},{"name":"hash","type":"string","internalType":"string"},{"name":"targetOracle","type":"string","internalType":"string"},{"name":"fees","type":"string","internalType":"string"},{"name":"votesFor","type":"uint256","internalType":"uint256"},{"name":"votesAgainst","type":"uint256","internalType":"uint256"},{"name":"isVotingActive","type":"bool","internalType":"bool"},{"name":"timeStamp","type":"uint256","internalType":"uint256"},{"name":"result","type":"bool","internalType":"bool"},{"name":"isFinalized","type":"bool","internalType":"bool"}]}],"stateMutability":"view"},{"type":"function","name":"getAskAthenaApplicationsBatch","inputs":[{"name":"startIndex","type":"uint256","internalType":"uint256"},{"name":"count","type":"uint256","internalType":"uint256"}],"outputs":[{"name":"applicationIds","type":"uint256[]","internalType":"uint256[]"}],"stateMutability":"view"},{"type":"function","name":"getAskAthenaCount","inputs":[],"outputs":[{"name":"","type":"uint256","internalType":"uint256"}],"stateMutability":"view"},{"type":"function","name":"getAskAthenaVoterCount","inputs":[{"name":"athenaId","type":"uint256","internalType":"uint256"}],"outputs":[{"name":"","type":"uint256","internalType":"uint256"}],"stateMutability":"view"},{"type":"function","name":"getAskAthenaVoters","inputs":[{"name":"athenaId","type":"uint256","internalType":"uint256"}],"outputs":[{"name":"","type":"tuple[]","internalType":"struct OpenworkGenesis.VoterData[]","components":[{"name":"voter","type":"address","internalType":"address"},{"name":"claimAddress","type":"address","internalType":"address"},{"name":"votingPower","type":"uint256","internalType":"uint256"},{"name":"voteFor","type":"bool","internalType":"bool"}]}],"stateMutability":"view"},{"type":"function","name":"getDelegate","inputs":[{"name":"delegator","type":"address","internalType":"address"}],"outputs":[{"name":"","type":"address","internalType":"address"}],"stateMutability":"view"},{"type":"function","name":"getDelegatedVotingPower","inputs":[{"name":"delegatee","type":"address","internalType":"address"}],"outputs":[{"name":"","type":"uint256","internalType":"uint256"}],"stateMutability":"view"},{"type":"function","name":"getDispute","inputs":[{"name":"disputeId","type":"string","internalType":"string"}],"outputs":[{"name":"","type":"tuple","internalType":"struct OpenworkGenesis.Dispute","components":[{"name":"jobId","type":"string","internalType":"string"},{"name":"disputedAmount","type":"uint256","internalType":"uint256"},{"name":"hash","type":"string","internalType":"string"},{"name":"disputeRaiserAddress","type":"address","internalType":"address"},{"name":"votesFor","type":"uint256","internalType":"uint256"},{"name":"votesAgainst","type":"uint256","internalType":"uint256"},{"name":"result","type":"bool","internalType":"bool"},{"name":"isVotingActive","type":"bool","internalType":"bool"},{"name":"isFinalized","type":"bool","internalType":"bool"},{"name":"timeStamp","type":"uint256","internalType":"uint256"},{"name":"fees","type":"uint256","internalType":"uint256"}]}],"stateMutability":"view"},{"type":"function","name":"getDisputeCount","inputs":[],"outputs":[{"name":"","type":"uint256","internalType":"uint256"}],"stateMutability":"view"},{"type":"function","name":"getDisputeVoterClaimAddress","inputs":[{"name":"disputeId","type":"string","internalType":"string"},{"name":"voter","type":"address","internalType":"address"}],"outputs":[{"name":"","type":"address","internalType":"address"}],"stateMutability":"view"},{"type":"function","name":"getDisputeVoterCount","inputs":[{"name":"disputeId","type":"string","internalType":"string"}],"outputs":[{"name":"","type":"uint256","internalType":"uint256"}],"stateMutability":"view"},{"type":"function","name":"getDisputeVoters","inputs":[{"name":"disputeId","type":"string","internalType":"string"}],"outputs":[{"name":"","type":"tuple[]","internalType":"struct OpenworkGenesis.VoterData[]","components":[{"name":"voter","type":"address","internalType":"address"},{"name":"claimAddress","type":"address","internalType":"address"},{"name":"votingPower","type":"uint256","internalType":"uint256"},{"name":"voteFor","type":"bool","internalType":"bool"}]}],"stateMutability":"view"},{"type":"function","name":"getDisputesBatch","inputs":[{"name":"startIndex","type":"uint256","internalType":"uint256"},{"name":"count","type":"uint256","internalType":"uint256"}],"outputs":[{"name":"disputeIds","type":"string[]","internalType":"string[]"}],"stateMutability":"view"},{"type":"function","name":"getEarner","inputs":[{"name":"earnerAddress","type":"address","internalType":"address"}],"outputs":[{"name":"","type":"tuple","internalType":"struct OpenworkGenesis.Earner","components":[{"name":"earnerAddress","type":"address","internalType":"address"},{"name":"balance","type":"uint256","internalType":"uint256"},{"name":"total_governance_actions","type":"uint256","internalType":"uint256"}]}],"stateMutability":"view"},{"type":"function","name":"getEarnerInfo","inputs":[{"name":"earnerAddress","type":"address","internalType":"address"}],"outputs":[{"name":"earner","type":"address","internalType":"address"},{"name":"balance","type":"uint256","internalType":"uint256"},{"name":"governanceActions","type":"uint256","internalType":"uint256"}],"stateMutability":"view"},{"type":"function","name":"getIsStaker","inputs":[{"name":"staker","type":"address","internalType":"address"}],"outputs":[{"name":"","type":"bool","internalType":"bool"}],"stateMutability":"view"},{"type":"function","name":"getJob","inputs":[{"name":"jobId","type":"string","internalType":"string"}],"outputs":[{"name":"","type":"tuple","internalType":"struct OpenworkGenesis.Job","components":[{"name":"id","type":"string","internalType":"string"},{"name":"jobGiver","type":"address","internalType":"address"},{"name":"applicants","type":"address[]","internalType":"address[]"},{"name":"jobDetailHash","type":"string","internalType":"string"},{"name":"status","type":"uint8","internalType":"enum OpenworkGenesis.JobStatus"},{"name":"workSubmissions","type":"string[]","internalType":"string[]"},{"name":"milestonePayments","type":"tuple[]","internalType":"struct OpenworkGenesis.MilestonePayment[]","components":[{"name":"descriptionHash","type":"string","internalType":"string"},{"name":"amount","type":"uint256","internalType":"uint256"}]},{"name":"finalMilestones","type":"tuple[]","internalType":"struct OpenworkGenesis.MilestonePayment[]","components":[{"name":"descriptionHash","type":"string","internalType":"string"},{"name":"amount","type":"uint256","internalType":"uint256"}]},{"name":"totalPaid","type":"uint256","internalType":"uint256"},{"name":"currentMilestone","type":"uint256","internalType":"uint256"},{"name":"selectedApplicant","type":"address","internalType":"address"},{"name":"selectedApplicationId","type":"uint256","internalType":"uint256"},{"name":"paymentTargetChainDomain","type":"uint32","internalType":"uint32"},{"name":"paymentTargetAddress","type":"address","internalType":"address"},{"name":"applierOriginChainDomain","type":"uint32","internalType":"uint32"}]}],"stateMutability":"view"},{"type":"function","name":"getJobApplication","inputs":[{"name":"jobId","type":"string","internalType":"string"},{"name":"applicationId","type":"uint256","internalType":"uint256"}],"outputs":[{"name":"","type":"tuple","internalType":"struct OpenworkGenesis.Application","components":[{"name":"id","type":"uint256","internalType":"uint256"},{"name":"jobId","type":"string","internalType":"string"},{"name":"applicant","type":"address","internalType":"address"},{"name":"applicationHash","type":"string","internalType":"string"},{"name":"proposedMilestones","type":"tuple[]","internalType":"struct OpenworkGenesis.MilestonePayment[]","components":[{"name":"descriptionHash","type":"string","internalType":"string"},{"name":"amount","type":"uint256","internalType":"uint256"}]},{"name":"preferredPaymentChainDomain","type":"uint32","internalType":"uint32"},{"name":"preferredPaymentAddress","type":"address","internalType":"address"}]}],"stateMutability":"view"},{"type":"function","name":"getJobApplicationCount","inputs":[{"name":"jobId","type":"string","internalType":"string"}],"outputs":[{"name":"","type":"uint256","internalType":"uint256"}],"stateMutability":"view"},{"type":"function","name":"getJobCount","inputs":[],"outputs":[{"name":"","type":"uint256","internalType":"uint256"}],"stateMutability":"view"},{"type":"function","name":"getJobsByPoster","inputs":[{"name":"poster","type":"address","internalType":"address"}],"outputs":[{"name":"","type":"string[]","internalType":"string[]"}],"stateMutability":"view"},{"type":"function","name":"getOracle","inputs":[{"name":"oracleName","type":"string","internalType":"string"}],"outputs":[{"name":"","type":"tuple","internalType":"struct OpenworkGenesis.Oracle","components":[{"name":"name","type":"string","internalType":"string"},{"name":"members","type":"address[]","internalType":"address[]"},{"name":"shortDescription","type":"string","internalType":"string"},{"name":"hashOfDetails","type":"string","internalType":"string"},{"name":"skillVerifiedAddresses","type":"address[]","internalType":"address[]"}]}],"stateMutability":"view"},{"type":"function","name":"getOracleCount","inputs":[],"outputs":[{"name":"","type":"uint256","internalType":"uint256"}],"stateMutability":"view"},{"type":"function","name":"getOracleMembers","inputs":[{"name":"oracleName","type":"string","internalType":"string"}],"outputs":[{"name":"","type":"address[]","internalType":"address[]"}],"stateMutability":"view"},{"type":"function","name":"getOracleNamesBatch","inputs":[{"name":"startIndex","type":"uint256","internalType":"uint256"},{"name":"count","type":"uint256","internalType":"uint256"}],"outputs":[{"name":"names","type":"string[]","internalType":"string[]"}],"stateMutability":"view"},{"type":"function","name":"getProposalCount","inputs":[],"outputs":[{"name":"","type":"uint256","internalType":"uint256"}],"stateMutability":"view"},{"type":"function","name":"getSkillApplication","inputs":[{"name":"applicationId","type":"uint256","internalType":"uint256"}],"outputs":[{"name":"","type":"tuple","internalType":"struct OpenworkGenesis.SkillVerificationApplication","components":[{"name":"id","type":"uint256","internalType":"uint256"},{"name":"applicant","type":"address","internalType":"address"},{"name":"applicationHash","type":"string","internalType":"string"},{"name":"feeAmount","type":"uint256","internalType":"uint256"},{"name":"targetOracleName","type":"string","internalType":"string"},{"name":"votesFor","type":"uint256","internalType":"uint256"},{"name":"votesAgainst","type":"uint256","internalType":"uint256"},{"name":"isVotingActive","type":"bool","internalType":"bool"},{"name":"timeStamp","type":"uint256","internalType":"uint256"},{"name":"result","type":"bool","internalType":"bool"},{"name":"isFinalized","type":"bool","internalType":"bool"}]}],"stateMutability":"view"},{"type":"function","name":"getSkillApplicationCount","inputs":[],"outputs":[{"name":"","type":"uint256","internalType":"uint256"}],"stateMutability":"view"},{"type":"function","name":"getSkillApplicationsBatch","inputs":[{"name":"startIndex","type":"uint256","internalType":"uint256"},{"name":"count","type":"uint256","internalType":"uint256"}],"outputs":[{"name":"applicationIds","type":"uint256[]","internalType":"uint256[]"}],"stateMutability":"view"},{"type":"function","name":"getSkillVerificationDate","inputs":[{"name":"oracleName","type":"string","internalType":"string"},{"name":"user","type":"address","internalType":"address"}],"outputs":[{"name":"","type":"uint256","internalType":"uint256"}],"stateMutability":"view"},{"type":"function","name":"getSkillVerificationVoterCount","inputs":[{"name":"applicationId","type":"uint256","internalType":"uint256"}],"outputs":[{"name":"","type":"uint256","internalType":"uint256"}],"stateMutability":"view"},{"type":"function","name":"getSkillVerificationVoters","inputs":[{"name":"applicationId","type":"uint256","internalType":"uint256"}],"outputs":[{"name":"","type":"tuple[]","internalType":"struct OpenworkGenesis.VoterData[]","components":[{"name":"voter","type":"address","internalType":"address"},{"name":"claimAddress","type":"address","internalType":"address"},{"name":"votingPower","type":"uint256","internalType":"uint256"},{"name":"voteFor","type":"bool","internalType":"bool"}]}],"stateMutability":"view"},{"type":"function","name":"getStake","inputs":[{"name":"staker","type":"address","internalType":"address"}],"outputs":[{"name":"","type":"tuple","internalType":"struct OpenworkGenesis.Stake","components":[{"name":"amount","type":"uint256","internalType":"uint256"},{"name":"unlockTime","type":"uint256","internalType":"uint256"},{"name":"durationMinutes","type":"uint256","internalType":"uint256"},{"name":"isActive","type":"bool","internalType":"bool"}]}],"stateMutability":"view"},{"type":"function","name":"getStakerInfo","inputs":[{"name":"staker","type":"address","internalType":"address"}],"outputs":[{"name":"amount","type":"uint256","internalType":"uint256"},{"name":"unlockTime","type":"uint256","internalType":"uint256"},{"name":"durationMinutes","type":"uint256","internalType":"uint256"},{"name":"isActive","type":"bool","internalType":"bool"}],"stateMutability":"view"},{"type":"function","name":"getUserEarnedTokens","inputs":[{"name":"user","type":"address","internalType":"address"}],"outputs":[{"name":"","type":"uint256","internalType":"uint256"}],"stateMutability":"view"},{"type":"function","name":"getUserGovernanceActions","inputs":[{"name":"user","type":"address","internalType":"address"}],"outputs":[{"name":"","type":"uint256","internalType":"uint256"}],"stateMutability":"view"},{"type":"function","name":"getUserRewardInfo","inputs":[{"name":"user","type":"address","internalType":"address"}],"outputs":[{"name":"totalTokens","type":"uint256","internalType":"uint256"},{"name":"governanceActions","type":"uint256","internalType":"uint256"}],"stateMutability":"view"},{"type":"function","name":"getUserTotalClaimedTokens","inputs":[{"name":"user","type":"address","internalType":"address"}],"outputs":[{"name":"","type":"uint256","internalType":"uint256"}],"stateMutability":"view"},{"type":"function","name":"hasUserVotedOnAskAthena","inputs":[{"name":"athenaId","type":"uint256","internalType":"uint256"},{"name":"user","type":"address","internalType":"address"}],"outputs":[{"name":"","type":"bool","internalType":"bool"}],"stateMutability":"view"},{"type":"function","name":"hasUserVotedOnDispute","inputs":[{"name":"disputeId","type":"string","internalType":"string"},{"name":"user","type":"address","internalType":"address"}],"outputs":[{"name":"","type":"bool","internalType":"bool"}],"stateMutability":"view"},{"type":"function","name":"hasUserVotedOnSkillApplication","inputs":[{"name":"applicationId","type":"uint256","internalType":"uint256"},{"name":"user","type":"address","internalType":"address"}],"outputs":[{"name":"","type":"bool","internalType":"bool"}],"stateMutability":"view"},{"type":"function","name":"hasVotedOnAskAthena","inputs":[{"name":"","type":"uint256","internalType":"uint256"},{"name":"","type":"address","internalType":"address"}],"outputs":[{"name":"","type":"bool","internalType":"bool"}],"stateMutability":"view"},{"type":"function","name":"hasVotedOnDispute","inputs":[{"name":"","type":"string","internalType":"string"},{"name":"","type":"address","internalType":"address"}],"outputs":[{"name":"","type":"bool","internalType":"bool"}],"stateMutability":"view"},{"type":"function","name":"hasVotedOnSkillApplication","inputs":[{"name":"","type":"uint256","internalType":"uint256"},{"name":"","type":"address","internalType":"address"}],"outputs":[{"name":"","type":"bool","internalType":"bool"}],"stateMutability":"view"},{"type":"function","name":"incrementUserGovernanceActions","inputs":[{"name":"user","type":"address","internalType":"address"}],"outputs":[],"stateMutability":"nonpayable"},{"type":"function","name":"initialize","inputs":[{"name":"_owner","type":"address","internalType":"address"}],"outputs":[],"stateMutability":"nonpayable"},{"type":"function","name":"isStaker","inputs":[{"name":"","type":"address","internalType":"address"}],"outputs":[{"name":"","type":"bool","internalType":"bool"}],"stateMutability":"view"},{"type":"function","name":"jobApplicationCounter","inputs":[{"name":"","type":"string","internalType":"string"}],"outputs":[{"name":"","type":"uint256","internalType":"uint256"}],"stateMutability":"view"},{"type":"function","name":"jobApplications","inputs":[{"name":"","type":"string","internalType":"string"},{"name":"","type":"uint256","internalType":"uint256"}],"outputs":[{"name":"id","type":"uint256","internalType":"uint256"},{"name":"jobId","type":"string","internalType":"string"},{"name":"applicant","type":"address","internalType":"address"},{"name":"applicationHash","type":"string","internalType":"string"},{"name":"preferredPaymentChainDomain","type":"uint32","internalType":"uint32"},{"name":"preferredPaymentAddress","type":"address","internalType":"address"}],"stateMutability":"view"},{"type":"function","name":"jobCounter","inputs":[],"outputs":[{"name":"","type":"uint256","internalType":"uint256"}],"stateMutability":"view"},{"type":"function","name":"jobExists","inputs":[{"name":"jobId","type":"string","internalType":"string"}],"outputs":[{"name":"","type":"bool","internalType":"bool"}],"stateMutability":"view"},{"type":"function","name":"jobs","inputs":[{"name":"","type":"string","internalType":"string"}],"outputs":[{"name":"id","type":"string","internalType":"string"},{"name":"jobGiver","type":"address","internalType":"address"},{"name":"jobDetailHash","type":"string","internalType":"string"},{"name":"status","type":"uint8","internalType":"enum OpenworkGenesis.JobStatus"},{"name":"totalPaid","type":"uint256","internalType":"uint256"},{"name":"currentMilestone","type":"uint256","internalType":"uint256"},{"name":"selectedApplicant","type":"address","internalType":"address"},{"name":"selectedApplicationId","type":"uint256","internalType":"uint256"},{"name":"paymentTargetChainDomain","type":"uint32","internalType":"uint32"},{"name":"paymentTargetAddress","type":"address","internalType":"address"},{"name":"applierOriginChainDomain","type":"uint32","internalType":"uint32"}],"stateMutability":"view"},{"type":"function","name":"jobsByPoster","inputs":[{"name":"","type":"address","internalType":"address"},{"name":"","type":"uint256","internalType":"uint256"}],"outputs":[{"name":"","type":"string","internalType":"string"}],"stateMutability":"view"},{"type":"function","name":"memberLastActivity","inputs":[{"name":"","type":"address","internalType":"address"}],"outputs":[{"name":"","type":"uint256","internalType":"uint256"}],"stateMutability":"view"},{"type":"function","name":"memberStakeAmount","inputs":[{"name":"","type":"string","internalType":"string"},{"name":"","type":"address","internalType":"address"}],"outputs":[{"name":"","type":"uint256","internalType":"uint256"}],"stateMutability":"view"},{"type":"function","name":"oracleActiveStatus","inputs":[{"name":"","type":"string","internalType":"string"}],"outputs":[{"name":"","type":"bool","internalType":"bool"}],"stateMutability":"view"},{"type":"function","name":"oracles","inputs":[{"name":"","type":"string","internalType":"string"}],"outputs":[{"name":"name","type":"string","internalType":"string"},{"name":"shortDescription","type":"string","internalType":"string"},{"name":"hashOfDetails","type":"string","internalType":"string"}],"stateMutability":"view"},{"type":"function","name":"owner","inputs":[],"outputs":[{"name":"","type":"address","internalType":"address"}],"stateMutability":"view"},{"type":"function","name":"proposalIds","inputs":[{"name":"","type":"uint256","internalType":"uint256"}],"outputs":[{"name":"","type":"uint256","internalType":"uint256"}],"stateMutability":"view"},{"type":"function","name":"proxiableUUID","inputs":[],"outputs":[{"name":"","type":"bytes32","internalType":"bytes32"}],"stateMutability":"view"},{"type":"function","name":"removeOracleMember","inputs":[{"name":"oracleName","type":"string","internalType":"string"},{"name":"memberToRemove","type":"address","internalType":"address"}],"outputs":[],"stateMutability":"nonpayable"},{"type":"function","name":"removeStaker","inputs":[{"name":"staker","type":"address","internalType":"address"}],"outputs":[],"stateMutability":"nonpayable"},{"type":"function","name":"setApplicationPaymentPreference","inputs":[{"name":"jobId","type":"string","internalType":"string"},{"name":"applicationId","type":"uint256","internalType":"uint256"},{"name":"preferredChainDomain","type":"uint32","internalType":"uint32"},{"name":"preferredAddress","type":"address","internalType":"address"}],"outputs":[],"stateMutability":"nonpayable"},{"type":"function","name":"setAskAthenaApplication","inputs":[{"name":"athenaId","type":"uint256","internalType":"uint256"},{"name":"applicant","type":"address","internalType":"address"},{"name":"description","type":"string","internalType":"string"},{"name":"hash","type":"string","internalType":"string"},{"name":"targetOracle","type":"string","internalType":"string"},{"name":"fees","type":"string","internalType":"string"}],"outputs":[],"stateMutability":"nonpayable"},{"type":"function","name":"setAskAthenaVote","inputs":[{"name":"athenaId","type":"uint256","internalType":"uint256"},{"name":"voter","type":"address","internalType":"address"}],"outputs":[],"stateMutability":"nonpayable"},{"type":"function","name":"setDelegate","inputs":[{"name":"delegator","type":"address","internalType":"address"},{"name":"delegatee","type":"address","internalType":"address"}],"outputs":[],"stateMutability":"nonpayable"},{"type":"function","name":"setDelegatedVotingPower","inputs":[{"name":"delegatee","type":"address","internalType":"address"},{"name":"power","type":"uint256","internalType":"uint256"}],"outputs":[],"stateMutability":"nonpayable"},{"type":"function","name":"setDispute","inputs":[{"name":"jobId","type":"string","internalType":"string"},{"name":"disputedAmount","type":"uint256","internalType":"uint256"},{"name":"hash","type":"string","internalType":"string"},{"name":"disputeRaiser","type":"address","internalType":"address"},{"name":"fees","type":"uint256","internalType":"uint256"}],"outputs":[],"stateMutability":"nonpayable"},{"type":"function","name":"setDisputeVote","inputs":[{"name":"disputeId","type":"string","internalType":"string"},{"name":"voter","type":"address","internalType":"address"}],"outputs":[],"stateMutability":"nonpayable"},{"type":"function","name":"setEarner","inputs":[{"name":"earnerAddress","type":"address","internalType":"address"},{"name":"balance","type":"uint256","internalType":"uint256"},{"name":"governanceActions","type":"uint256","internalType":"uint256"}],"outputs":[],"stateMutability":"nonpayable"},{"type":"function","name":"setJob","inputs":[{"name":"jobId","type":"string","internalType":"string"},{"name":"jobGiver","type":"address","internalType":"address"},{"name":"jobDetailHash","type":"string","internalType":"string"},{"name":"descriptions","type":"string[]","internalType":"string[]"},{"name":"amounts","type":"uint256[]","internalType":"uint256[]"}],"outputs":[],"stateMutability":"nonpayable"},{"type":"function","name":"setJobApplication","inputs":[{"name":"jobId","type":"string","internalType":"string"},{"name":"applicationId","type":"uint256","internalType":"uint256"},{"name":"applicant","type":"address","internalType":"address"},{"name":"applicationHash","type":"string","internalType":"string"},{"name":"descriptions","type":"string[]","internalType":"string[]"},{"name":"amounts","type":"uint256[]","internalType":"uint256[]"},{"name":"preferredPaymentChainDomain","type":"uint32","internalType":"uint32"},{"name":"preferredPaymentAddress","type":"address","internalType":"address"}],"outputs":[],"stateMutability":"nonpayable"},{"type":"function","name":"setJobCurrentMilestone","inputs":[{"name":"jobId","type":"string","internalType":"string"},{"name":"milestone","type":"uint256","internalType":"uint256"}],"outputs":[],"stateMutability":"nonpayable"},{"type":"function","name":"setJobPaymentTarget","inputs":[{"name":"jobId","type":"string","internalType":"string"},{"name":"targetChainDomain","type":"uint32","internalType":"uint32"},{"name":"targetAddress","type":"address","internalType":"address"},{"name":"applierOriginChainDomain","type":"uint32","internalType":"uint32"}],"outputs":[],"stateMutability":"nonpayable"},{"type":"function","name":"setJobSelectedApplicant","inputs":[{"name":"jobId","type":"string","internalType":"string"},{"name":"applicant","type":"address","internalType":"address"},{"name":"applicationId","type":"uint256","internalType":"uint256"}],"outputs":[],"stateMutability":"nonpayable"},{"type":"function","name":"setMemberStakeAmount","inputs":[{"name":"oracleName","type":"string","internalType":"string"},{"name":"member","type":"address","internalType":"address"},{"name":"amount","type":"uint256","internalType":"uint256"}],"outputs":[],"stateMutability":"nonpayable"},{"type":"function","name":"setOracle","inputs":[{"name":"name","type":"string","internalType":"string"},{"name":"members","type":"address[]","internalType":"address[]"},{"name":"shortDescription","type":"string","internalType":"string"},{"name":"hashOfDetails","type":"string","internalType":"string"},{"name":"skillVerifiedAddresses","type":"address[]","internalType":"address[]"}],"outputs":[],"stateMutability":"nonpayable"},{"type":"function","name":"setOracleActiveStatus","inputs":[{"name":"oracleName","type":"string","internalType":"string"},{"name":"isActive","type":"bool","internalType":"bool"}],"outputs":[],"stateMutability":"nonpayable"},{"type":"function","name":"setSkillApplication","inputs":[{"name":"applicationId","type":"uint256","internalType":"uint256"},{"name":"applicant","type":"address","internalType":"address"},{"name":"applicationHash","type":"string","internalType":"string"},{"name":"feeAmount","type":"uint256","internalType":"uint256"},{"name":"targetOracleName","type":"string","internalType":"string"}],"outputs":[],"stateMutability":"nonpayable"},{"type":"function","name":"setSkillApplicationVote","inputs":[{"name":"applicationId","type":"uint256","internalType":"uint256"},{"name":"voter","type":"address","internalType":"address"}],"outputs":[],"stateMutability":"nonpayable"},{"type":"function","name":"setStake","inputs":[{"name":"staker","type":"address","internalType":"address"},{"name":"amount","type":"uint256","internalType":"uint256"},{"name":"unlockTime","type":"uint256","internalType":"uint256"},{"name":"durationMinutes","type":"uint256","internalType":"uint256"},{"name":"isActive","type":"bool","internalType":"bool"}],"outputs":[],"stateMutability":"nonpayable"},{"type":"function","name":"setUserGovernanceActions","inputs":[{"name":"user","type":"address","internalType":"address"},{"name":"actions","type":"uint256","internalType":"uint256"}],"outputs":[],"stateMutability":"nonpayable"},{"type":"function","name":"setUserTotalOWTokens","inputs":[{"name":"user","type":"address","internalType":"address"},{"name":"tokens","type":"uint256","internalType":"uint256"}],"outputs":[],"stateMutability":"nonpayable"},{"type":"function","name":"skillApplications","inputs":[{"name":"","type":"uint256","internalType":"uint256"}],"outputs":[{"name":"id","type":"uint256","internalType":"uint256"},{"name":"applicant","type":"address","internalType":"address"},{"name":"applicationHash","type":"string","internalType":"string"},{"name":"feeAmount","type":"uint256","internalType":"uint256"},{"name":"targetOracleName","type":"string","internalType":"string"},{"name":"votesFor","type":"uint256","internalType":"uint256"},{"name":"votesAgainst","type":"uint256","internalType":"uint256"},{"name":"isVotingActive","type":"bool","internalType":"bool"},{"name":"timeStamp","type":"uint256","internalType":"uint256"},{"name":"result","type":"bool","internalType":"bool"},{"name":"isFinalized","type":"bool","internalType":"bool"}],"stateMutability":"view"},{"type":"function","name":"skillVerificationDates","inputs":[{"name":"","type":"string","internalType":"string"},{"name":"","type":"address","internalType":"address"}],"outputs":[{"name":"","type":"uint256","internalType":"uint256"}],"stateMutability":"view"},{"type":"function","name":"skillVerificationVoters","inputs":[{"name":"","type":"uint256","internalType":"uint256"},{"name":"","type":"uint256","internalType":"uint256"}],"outputs":[{"name":"voter","type":"address","internalType":"address"},{"name":"claimAddress","type":"address","internalType":"address"},{"name":"votingPower","type":"uint256","internalType":"uint256"},{"name":"voteFor","type":"bool","internalType":"bool"}],"stateMutability":"view"},{"type":"function","name":"stakes","inputs":[{"name":"","type":"address","internalType":"address"}],"outputs":[{"name":"amount","type":"uint256","internalType":"uint256"},{"name":"unlockTime","type":"uint256","internalType":"uint256"},{"name":"durationMinutes","type":"uint256","internalType":"uint256"},{"name":"isActive","type":"bool","internalType":"bool"}],"stateMutability":"view"},{"type":"function","name":"totalPlatformPayments","inputs":[],"outputs":[{"name":"","type":"uint256","internalType":"uint256"}],"stateMutability":"view"},{"type":"function","name":"transferOwnership","inputs":[{"name":"newOwner","type":"address","internalType":"address"}],"outputs":[],"stateMutability":"nonpayable"},{"type":"function","name":"updateAskAthenaVotes","inputs":[{"name":"athenaId","type":"uint256","internalType":"uint256"},{"name":"votesFor","type":"uint256","internalType":"uint256"},{"name":"votesAgainst","type":"uint256","internalType":"uint256"}],"outputs":[],"stateMutability":"nonpayable"},{"type":"function","name":"updateDelegatedVotingPower","inputs":[{"name":"delegatee","type":"address","internalType":"address"},{"name":"powerChange","type":"uint256","internalType":"uint256"},{"name":"increase","type":"bool","internalType":"bool"}],"outputs":[],"stateMutability":"nonpayable"},{"type":"function","name":"updateDisputeVotes","inputs":[{"name":"disputeId","type":"string","internalType":"string"},{"name":"votesFor","type":"uint256","internalType":"uint256"},{"name":"votesAgainst","type":"uint256","internalType":"uint256"}],"outputs":[],"stateMutability":"nonpayable"},{"type":"function","name":"updateJobStatus","inputs":[{"name":"jobId","type":"string","internalType":"string"},{"name":"status","type":"uint8","internalType":"enum OpenworkGenesis.JobStatus"}],"outputs":[],"stateMutability":"nonpayable"},{"type":"function","name":"updateJobTotalPaid","inputs":[{"name":"jobId","type":"string","internalType":"string"},{"name":"amount","type":"uint256","internalType":"uint256"}],"outputs":[],"stateMutability":"nonpayable"},{"type":"function","name":"updateMemberActivity","inputs":[{"name":"member","type":"address","internalType":"address"}],"outputs":[],"stateMutability":"nonpayable"},{"type":"function","name":"updateSkillApplicationVotes","inputs":[{"name":"applicationId","type":"uint256","internalType":"uint256"},{"name":"votesFor","type":"uint256","internalType":"uint256"},{"name":"votesAgainst","type":"uint256","internalType":"uint256"}],"outputs":[],"stateMutability":"nonpayable"},{"type":"function","name":"updateUserClaimData","inputs":[{"name":"user","type":"address","internalType":"address"},{"name":"claimedAmount","type":"uint256","internalType":"uint256"}],"outputs":[],"stateMutability":"nonpayable"},{"type":"function","name":"upgradeToAndCall","inputs":[{"name":"newImplementation","type":"address","internalType":"address"},{"name":"data","type":"bytes","internalType":"bytes"}],"outputs":[],"stateMutability":"payable"},{"type":"function","name":"userGovernanceActions","inputs":[{"name":"","type":"address","internalType":"address"}],"outputs":[{"name":"","type":"uint256","internalType":"uint256"}],"stateMutability":"view"},{"type":"function","name":"userTotalClaimedTokens","inputs":[{"name":"","type":"address","internalType":"address"}],"outputs":[{"name":"","type":"uint256","internalType":"uint256"}],"stateMutability":"view"},{"type":"function","name":"userTotalOWTokens","inputs":[{"name":"","type":"address","internalType":"address"}],"outputs":[{"name":"","type":"uint256","internalType":"uint256"}],"stateMutability":"view"},{"type":"event","name":"ContractAuthorized","inputs":[{"name":"contractAddress","type":"address","indexed":true,"internalType":"address"},{"name":"authorized","type":"bool","indexed":false,"internalType":"bool"}],"anonymous":false},{"type":"event","name":"Initialized","inputs":[{"name":"version","type":"uint64","indexed":false,"internalType":"uint64"}],"anonymous":false},{"type":"event","name":"OwnershipTransferred","inputs":[{"name":"previousOwner","type":"address","indexed":true,"internalType":"address"},{"name":"newOwner","type":"address","indexed":true,"internalType":"address"}],"anonymous":false},{"type":"event","name":"Upgraded","inputs":[{"name":"implementation","type":"address","indexed":true,"internalType":"address"}],"anonymous":false},{"type":"error","name":"AddressEmptyCode","inputs":[{"name":"target","type":"address","internalType":"address"}]},{"type":"error","name":"ERC1967InvalidImplementation","inputs":[{"name":"implementation","type":"address","internalType":"address"}]},{"type":"error","name":"ERC1967NonPayable","inputs":[]},{"type":"error","name":"FailedInnerCall","inputs":[]},{"type":"error","name":"InvalidInitialization","inputs":[]},{"type":"error","name":"NotInitializing","inputs":[]},{"type":"error","name":"UUPSUnauthorizedCallContext","inputs":[]},{"type":"error","name":"UUPSUnsupportedProxiableUUID","inputs":[{"name":"slot","type":"bytes32","internalType":"bytes32"}]}],"bytecode":{"object":"0x60a080604052346100c257306080525f51602061693a5f395f51905f525460ff8160401c166100b3576002600160401b03196001600160401b03821601610060575b60405161687390816100c782396080518181816141b901526143020152f35b6001600160401b0319166001600160401b039081175f51602061693a5f395f51905f525581527fc7f505b2f371ae2175ee4913f4499e1f2633a7b5936321eed1cdaeb6115181d290602090a15f80610041565b63f92ee8a960e01b5f5260045ffd5b5f80fdfe60806040526004361015610011575f80fd5b5f3560e01c80626d863014615781578062e09ee414613ac857806306d1ab4b146157645780630857d05f146156fd5780630af401dc1461568c5780630cb4196d1461563c57806310987b771461561f578063111006db146155455780631325f6541461260d57806316559540146154e657806316934fc41461549457806319dd10e8146154275780631b25de7f1461521f57806324f808a51461504a57806328393d7914614f2d578063286fd04f14614ec15780632bfe51f014614e835780632c47fa9714614dda5780632efc441614614d435780632f52aff614614c2b578063367d965514614b8557806338719e7414614b305780633b7d2dd6146148575780633f4e42511461483a57806341b3d2a1146147d3578063466a9289146146b45780634681594614610a6657806349868b41146145d65780634d14a239146144f05780634d16b840146144c65780634f1ef286146142b45780634ffc65f81461423757806350355d7614611d705780635296f5c11461420d57806352d1902d146141a7578063544d856414613ec857806355e90ada14613f7557806357ac257414613f085780635843905f14610a9e578063587cde1e14613ec85780635b3a8e1c14613deb5780635c6ad34014613d745780635c87384914613cef5780635cbeb13f14613c6e5780635cd0280214613b005780636134147314613ac857806367c2f3e114613a21578063693975b0146139c2578063695173101461397a578063697289231461394d5780636a699b6c14610d9f5780636cb0124114610f0b5780636d0faa95146138ed5780636da25a54146108e45780636e4f88c81461388e5780636f1e853314612e2d578063733bdef014613817578063755f176e14613637578063759a15a0146135ff57806377e32407146132b457806378d4be1b1461324b5780637a627fd8146131385780637a766460146130935780637c38b975146130395780637ec25c3c14612f93578063841374821461271c57806388c8837f14612f1b57806388fc75f514612e695780638ab3bd9014612e2d5780638b39905b14612de55780638cac641514612d385780638d95ce5e14612c785780638da5cb5b14612c505780639000a87f14612b9357806390c7417d14612ae857806391c6bfae14612a6b5780639661725c146129ba57806396a9fdc01461292257806396cd9764146128a2578063998f128e146127b05780639b644a23146127695780639c87c9281461271c5780639e2cc7e8146126555780639e4ffd541461260d5780639e578411146125a8578063a063380714610de8578063a2425f0614612536578063a53328dc14612430578063a542599c146122bb578063a54294af146120e6578063a57607c214612072578063a616132814611f99578063a9daf6ad14611e4c578063aba01d8d14611dd4578063ad3cb1cc14611d8d578063aff4d4161461091c578063b02b4a2f14611d70578063b05e6f5a14611c55578063b073997a14611bf0578063b5be4fe414611b51578063ba207995146118ff578063bb4c86741461187a578063bd015d79146115cc578063beeb4ada146108c7578063c08cc02d146115af578063c213aca314611537578063c2cfe80e146114ba578063c3214d6c14611478578063c4d66de814611310578063c81418e8146112be578063c9d2829314611254578063c9fe8bf4146111f5578063cae3831c14611188578063cb29c12814611119578063cb8bde2e14611067578063cd5b752f14610fe9578063cdbdb29314610f5c578063ceff5c5d14610f0b578063d22e505314610e85578063d3e8a57e14610e41578063d5b9221b14610e05578063db144d0114610de8578063dcde048514610d9f578063e525510714610d06578063e980bd3014610c92578063e9b8be9014610c1c578063eb7d901b14610965578063ecd233cc14610b47578063efa90d3614610ad6578063f10f9a6914610a9e578063f14db78314610a66578063f2fde38b146109ba578063f4653c0b14610965578063f7edb8801461091c578063f9a5c639146108e4578063fe0d3ce8146108c7578063fec17fe9146106725763ffeea55314610605575f80fd5b3461066e57604036600319011261066e5761061e615956565b335f525f60205260ff60405f205416801561065a575b61063d90616165565b6001600160a01b03165f9081526023602052604090206024359055005b506001546001600160a01b03163314610634565b5f80fd5b3461066e5760a036600319011261066e576004356001600160401b03811161066e576106a2903690600401615938565b6044356001600160401b03811161066e576106c1903690600401615938565b906106ca615998565b335f525f60205260ff60405f20541680156108b3575b6106e990616165565b6040519061070e835192602081818701958087835e8101601281520301902054615e95565b15610832575b60405193610721856157e9565b83855260208501906024358252604086019081526060860192600160a01b60019003168352608086015f815260a08701905f825260c08801945f865260e0890193600185526101008a01955f87526101208b0198428a526101408c019a6084358c52604051918291518091835e8101601281520360200190209a516107a6908c616295565b5160018b0155516107ba9060028b01616295565b516003890180546001600160a01b0319166001600160a01b039290921691909117905551600488015551600587015591516006860192906107fd901515846161dc565b51151561080a90836161ed565b51151581549060101b62ff0000169062ff000019161790555160078301555190600801555f80f35b602754600160401b81101561089f5780600161085392016027556027616142565b61088c578361086191616295565b6108846029548060405160208188518089835e8101602881520301902055616205565b602955610714565b634e487b7160e01b5f525f60045260245ffd5b634e487b7160e01b5f52604160045260245ffd5b506001546001600160a01b031633146106e0565b3461066e575f36600319011261066e576020601754604051908152f35b3461066e57602036600319011261066e576001600160a01b03610905615956565b165f52601f602052602060405f2054604051908152f35b3461066e57604036600319011261066e5761093561596c565b6004355f52601460205260405f209060018060a01b03165f52602052602060ff60405f2054166040519015158152f35b3461066e57602036600319011261066e576004356001600160401b03811161066e5760208061099981933690600401615938565b604051928184925191829101835e8101600581520301902054604051908152f35b3461066e57602036600319011261066e576109d3615956565b600154906001600160a01b038216906109ed3383146165a3565b6001600160a01b0316918215610a32576001600160a01b03191682176001557f8be0079c531659141344cd1fd0a4f28419497f9722a3daafe3b4186f6b6457e05f80a3005b60405162461bcd60e51b815260206004820152600c60248201526b5a65726f206164647265737360a01b6044820152606490fd5b3461066e57602036600319011261066e576001600160a01b03610a87615956565b165f526024602052602060405f2054604051908152f35b3461066e57602036600319011261066e576001600160a01b03610abf615956565b165f526023602052602060405f2054604051908152f35b3461066e575f36600319011261066e57604051602280548083525f91825260208301915f51602061679e5f395f51905f5291905b818110610b3157610b2d85610b21818703826158c4565b604051918291826160c1565b0390f35b8254845260209093019260019283019201610b0a565b3461066e57604036600319011261066e57600435610b63615a0d565b335f525f60205260ff60405f2054168015610c08575b610b8290616165565b601754821015610bcf57610ba490825f526011602052600a60405f20016161dc565b5f908152601160205260409020600a8101805461ff001916610100179055600801805460ff19169055005b60405162461bcd60e51b8152602060048201526011602482015270125b9d985b1a5908185d1a195b98481251607a1b6044820152606490fd5b506001546001600160a01b03163314610b79565b3461066e575f36600319011261066e575f5f602154905b818110610c4557602083604051908152f35b610c4e8161612a565b9054600391821b1c6001600160a01b03165f908152601c60205260409020015460ff16610c7e575b600101610c33565b91610c8a600191616205565b929050610c76565b3461066e575f36600319011261066e57604051602a80548083525f91825260208301917fbeced09521047d05b8960b7e7bcc1d1292cf3e4b2a6b63f48335cbde5f7545d291905b818110610cf057610b2d85610b21818703826158c4565b8254845260209093019260019283019201610cd9565b3461066e57610d14366159ae565b90335f525f60205260ff60405f2054168015610d8b575b610d3490616165565b602060405191610d5d846004835195858181870198808a835e8101600a815203019020016161a2565b604051928391518091835e8101600c8152030190209060018060a01b03165f5260205260405f204290555f80f35b506001546001600160a01b03163314610d2b565b3461066e57604036600319011261066e57610db861596c565b6004355f52601560205260405f209060018060a01b03165f52602052602060ff60405f2054166040519015158152f35b3461066e575f36600319011261066e576020601654604051908152f35b3461066e57602036600319011261066e576001600160a01b03610e26615956565b165f525f602052602060ff60405f2054166040519015158152f35b3461066e57602036600319011261066e576001600160a01b03610e62615956565b165f526009602052610b2d610e7960405f20616698565b60405191829182615ca0565b3461066e57610ef5610e9636615ff3565b919293335f525f60205260ff60405f2054168015610ef7575b610eb890616165565b5f52601a60205260405f209260405194610ed186615820565b6001600160a01b039081168652166020850152604084015215156060830152616437565b005b506001546001600160a01b03163314610eaf565b3461066e57602080610f1c366159ae565b9290604051928184925191829101835e601b908201908152030190206001600160a01b039182165f90815260209182526040908190205490519216825290f35b3461066e57602036600319011261066e57610f75615956565b5f60408051610f8381615872565b828152826020820152015260018060a01b03165f52601d602052606060405f20604051610faf81615872565b60018060a01b0382541691828252604060026001830154926020850193845201549201918252604051928352516020830152516040820152f35b3461066e57602080610ffa366159ae565b9290335f525f825260ff60405f2054168015611053575b61101a90616165565b604051928184925191829101835e810160138152030190209060018060a01b03165f5260205260405f20600160ff198254161790555f80f35b506001546001600160a01b03163314611011565b3461066e57602036600319011261066e576004355f52601a60205260405f20805461109181615b09565b9161109f60405193846158c4565b81835260208301905f5260205f205f915b8383106110c55760405180610b2d8782615d6d565b600460206001926040516110d881615820565b848060a01b038654168152848060a01b038587015416838201526002860154604082015260ff600387015416151560608201528152019201920191906110b0565b3461066e57602036600319011261066e5760043560085481101561066e576008548110156111745760085f525f5160206167fe5f395f51905f5201611160610b2d91615ecd565b604051918291602083526020830190615a4b565b634e487b7160e01b5f52603260045260245ffd5b3461066e57602036600319011261066e576004356001600160401b03811161066e576111e160016020806111c3610b2d953690600401615938565b604051928184925191829101835e8101600a81520301902001616647565b60405191829160208352602083019061603e565b3461066e5761120336615fd9565b9190335f525f60205260ff60405f2054168015611240575b61122490616165565b5f91825260106020526040909120600581019190915560060155005b506001546001600160a01b0316331461121b565b3461066e57610ef5602060018161126a366159ae565b9390335f525f825260ff60405f20541680156112a8575b61128a90616165565b604051928184925191829101835e8101600a815203019020016161a2565b5061128a848060a01b0385541633149050611281565b3461066e57604036600319011261066e576112d7615956565b6001600160a01b03165f90815260096020526040902080546024359081101561066e5761130a61116091610b2d93616142565b90616157565b3461066e57602036600319011261066e57611329615956565b5f51602061681e5f395f51905f5254604081901c60ff1615906001600160401b03811680159081611470575b6001149081611466575b15908161145d575b5061144e576001600160401b031981166001175f51602061681e5f395f51905f525581611426575b505f51602061681e5f395f51905f52549160ff8360401c161561141757600180546001600160a01b0319166001600160a01b03929092169190911790556113d257005b60ff60401b19165f51602061681e5f395f51905f5255604051600181527fc7f505b2f371ae2175ee4913f4499e1f2633a7b5936321eed1cdaeb6115181d290602090a1005b631afcd79f60e31b5f5260045ffd5b6001600160481b0319166001600160401b01175f51602061681e5f395f51905f52558261138f565b63f92ee8a960e01b5f5260045ffd5b90501584611367565b303b15915061135f565b839150611355565b3461066e57602036600319011261066e5760043560215481101561066e576114a160209161612a565b905460405160039290921b1c6001600160a01b03168152f35b3461066e5761151e60206008816114d036615bfb565b9390335f525f825260ff60405f2054168015611523575b6114f090616165565b604051928184925191829101835e810160038152030190200161151482825461642a565b905560065461642a565b600655005b506001546001600160a01b031633146114e7565b3461066e575f36600319011261066e5760275461155381615b09565b9061156160405192836158c4565b80825260275f9081525f51602061677e5f395f51905f52602084015b8383106115925760405180610b2d8782615ca0565b6001602081926115a185615ecd565b81520192019201919061157d565b3461066e575f36600319011261066e576020602254604051908152f35b3461066e5761010036600319011261066e576004356001600160401b03811161066e576115fd903690600401615938565b60243590611609615982565b916064356001600160401b03811161066e57611629903690600401615938565b906084356001600160401b03811161066e57611649903690600401615b20565b9360a4356001600160401b03811161066e57611669903690600401615b9e565b9360c43563ffffffff8116810361066e5760e435916001600160a01b038316830361066e576004956117509461170a61173493335f525f60205260ff60405f2054168015611866575b6116bb90616165565b604051815190602081818501938085835e81016005815203019020548a11611849575b6020604051809284518091835e81018d815203019020895f5260205260405f2098895560018901616295565b6002870180546001600160a01b0319166001600160a01b0390921691909117905560038601616295565b63ffffffff60058501911663ffffffff19825416178155616401565b019182545f8455806117a5575b505f5b8151811015610ef5578061179f61177960019385616266565b516117848387616266565b516040519161179283615805565b82526020820152866163c2565b01611760565b600181901b906001600160ff1b0381160361183557835f5260205f205f5b8281106117d157505061175d565b805f600160029385016117e48154615e95565b806117f3575b500155016117c3565b601f8111831461180857508281555b8a6117ea565b8184526020842061182491601f0160051c85190190840161627a565b808352826020812081835555611802565b634e487b7160e01b5f52601160045260245ffd5b8960405160208185518086835e81016005815203019020556116de565b506001546001600160a01b031633146116b2565b3461066e5761188836615c8a565b61189f82602b5461189a8183106164aa565b6164f2565b90818111156118f857505b6118b3816166ed565b915f5b8281106118cb5760405180610b2d86826160c1565b806118e06118db6001938561642a565b616112565b90549060031b1c6118f18287616266565b52016118b6565b90506118aa565b3461066e5760c036600319011261066e5760043561191b61596c565b906044356001600160401b03811161066e5761193b903690600401615938565b6064356001600160401b03811161066e5761195a903690600401615938565b906084356001600160401b03811161066e5761197a903690600401615938565b9160a4356001600160401b03811161066e5761199a903690600401615938565b92335f525f60205260ff60405f2054168015611b3d575b6119ba90616165565b601754851015611b2a575b845f52601160205260405f205415611afa575b604051936119e585615856565b8585526001600160a01b0396871660208087019182526040808801968752606088019586526080880194855260a088019384525f60c0890181815260e08a0182815260016101008c01818152426101208e019081526101408e018681526101608f018781529f87526011909852959094209b518c559551958b0180546001600160a01b03191696909d1695909517909b559651919990969592949093929091611a919060028a01616295565b51611a9f9060038901616295565b51611aad9060048801616295565b51611abb9060058701616295565b51600685015551600784015551611ad7901515600884016161dc565b516009820155600a0191511515611aee90836161dc565b511515610ef5916161ed565b602b54600160401b81101561089f5785611b1f826001611b259401602b55602b616142565b906161c5565b6119d8565b60018501808611611835576017556119c5565b506001546001600160a01b031633146119b1565b3461066e57604036600319011261066e576004356001600160401b03811161066e57611b81903690600401615938565b60243590600482101561066e57602080600492335f525f825260ff60405f2054168015611bdc575b611bb290616165565b604051928184925191829101835e81016003815203019020019060ff801983541691161790555f80f35b506001546001600160a01b03163314611ba9565b3461066e576020600981611c0336615bfb565b9390335f525f825260ff60405f2054168015611c41575b611c2390616165565b604051928184925191829101835e8101600381520301902001555f80f35b506001546001600160a01b03163314611c1a565b3461066e57602036600319011261066e576004356001600160401b03811161066e576020611c8881923690600401615938565b604051928184925191829101835e81016003815203019020610160611cac82615ecd565b9163ffffffff60018060a01b0360018301541691611ccc60038201615ecd565b9060ff600482015416936008820154600983015490611d33611d2860018060a01b03600a8701541694600c600b88015497015497611d156040519d8d8f9e8f9081520190615a4b565b9160208d01528b820360408d0152615a4b565b9760608a019061607a565b608088015260a087015260c086015260e085015281811661010085015260018060a01b038160201c1661012085015260c01c166101408301520390f35b3461066e575f36600319011261066e576020600754604051908152f35b3461066e575f36600319011261066e57610b2d604051611dae6040826158c4565b60058152640352e302e360dc1b6020820152604051918291602083526020830190615a4b565b3461066e575f36600319011261066e57600d54611df081615b09565b90611dfe60405192836158c4565b808252600d5f9081525f5160206167be5f395f51905f52602084015b838310611e2f5760405180610b2d8782615ca0565b600160208192611e3e85615ecd565b815201920192019190611e1a565b3461066e57602036600319011261066e576004356001600160401b03811161066e57602080611e82611f4d933690600401615938565b60606080604051611e928161583b565b828152828582015282604082015282808201520152604051928184925191829101835e8101600a815203019020610b2d60405191611ecf8361583b565b611ed881615ecd565b8352611f86611ee960018301616647565b9160208501928352611f73611f0060028301615ecd565b60408701908152611f60611f296004611f1b60038701615ecd565b9560608b0196875201616647565b9560808901968752604051998a9960208b525160a060208c015260c08b0190615a4b565b9051898203601f190160408b015261603e565b9051878203601f19016060890152615a4b565b9051858203601f19016080870152615a4b565b9051838203601f190160a085015261603e565b3461066e57602036600319011261066e57611fb2616213565b506004355f526010602052610b2d60405f2060ff600960405192611fd5846157e9565b8054845260018101546001600160a01b03166020850152611ff860028201615ecd565b60408501526003810154606085015261201360048201615ecd565b6080850152600581015460a0850152600681015460c085015282600782015416151560e085015260088101546101008501520154818116151561012084015260081c161515610140820152604051918291602083526020830190615a6f565b3461066e575f36600319011261066e57604051602b80548083525f91825260208301917f11c44e4875b74d31ff9fd779bf2566af7bd15b87fc985d01f5094b89e3669e4f91905b8181106120d057610b2d85610b21818703826158c4565b82548452602090930192600192830192016120b9565b3461066e57602036600319011261066e576004356001600160401b03811161066e5760208061211c610180933690600401615938565b5f61014060405161212c816157e9565b606081528285820152606060408201528260608201528260808201528260a08201528260c08201528260e082015282610100820152826101208201520152604051928184925191829101835e810160128152030190206040519061218f826157e9565b61219881615ecd565b8252600181015490602083019182526121b360028201615ecd565b906040840191825260018060a01b0360038201541692606085019384526004820154906080860191825260058301549160a0870192835260068401549260c088019160ff85161515835261227360e08a019460ff8760081c161515865260ff6101008c019760101c161515875260086007890154986101208d01998a520154986101408c01998a5261225a604051809e819e60208352519161016060208201520190615a4b565b915160408d0152518b8203601f190160608d0152615a4b565b97516001600160a01b031660808a01525160a08901525160c088015251151560e087015251151561010086015251151561012085015251610140840152516101608301520390f35b3461066e5760a036600319011261066e576122d4615956565b6122dc615a1c565b90335f525f60205260ff60405f205416801561241c575b6122fc90616165565b60405161230881615820565b602435815260208101926044358452612361604083019260643584526003606082018415958615825260018060a01b03881698895f52601c60205260405f209451855551600185015551600284015551151591016161dc565b80612406575b156123cf575060215490600160401b82101561089f576123928260016123b694016021556021616142565b9080546001600160a01b0360039390931b83811b199091169290931690921b179055565b5f9081526020805260409020805460ff19166001179055005b9050806123f1575b6123dd57005b5f526020805260405f2060ff198154169055005b50805f526020805260ff60405f2054166123d7565b50825f526020805260ff60405f20541615612367565b506001546001600160a01b031633146122f3565b3461066e57602036600319011261066e576004356001600160401b03811161066e576020806124666124e0933690600401615938565b604051928184925191829101835e8101601281520301902061248781615ecd565b9060018101549061249a60028201615ecd565b9060ff60018060a01b036003830154169360048301546005840154906124f360068601549360086007880154970154976040519b8c9b6101608d526101608d0190615a4b565b9160208c01528a820360408c0152615a4b565b966060890152608088015260a0870152818116151560c0870152818160081c16151560e087015260101c1615156101008501526101208401526101408301520390f35b3461066e5761254436615c8a565b905f52601a60205260405f2090815481101561066e5761256391615c2c565b50805460018201546002830154600390930154604080516001600160a01b0394851681529390921660208401529082019290925260ff90911615156060820152608090f35b3461066e57610ef56020806125bc36616087565b9290335f525f825260ff60405f20541680156125f9575b6125dc90616165565b604051928184925191829101835e810160268152030190206161dc565b506001546001600160a01b031633146125d3565b3461066e5760208061261e366159ae565b9290604051928184925191829101835e8101600c8152030190209060018060a01b03165f52602052602060405f2054604051908152f35b3461066e57606036600319011261066e5761266e615956565b60243590604435801515810361066e57335f525f60205260ff60405f2054168015612708575b61269d90616165565b156126c45760018060a01b03165f52601f6020526126c060405f2091825461642a565b9055005b6001600160a01b03165f818152601f602052604090205482116126f7575f52601f6020526126c060405f209182546164f2565b90505f52601f6020525f6040812055005b506001546001600160a01b03163314612694565b3461066e5760208061272d366159ae565b9290604051928184925191829101835e810160138152030190209060018060a01b03165f52602052602060ff60405f2054166040519015158152f35b3461066e57602036600319011261066e5760043560225481101561066e576022548110156111745760225f525f51602061679e5f395f51905f520154604051908152602090f35b3461066e57602036600319011261066e576127c9616548565b506004355f526011602052610b2d60405f2060ff600a604051926127ec84615856565b8054845260018101546001600160a01b0316602085015261280f60028201615ecd565b604085015261282060038201615ecd565b606085015261283160048201615ecd565b608085015261284260058201615ecd565b60a0850152600681015460c0850152600781015460e085015282600882015416151561010085015260098101546101208501520154818116151561014084015260081c161515610160820152604051918291602083526020830190615dd9565b3461066e576128b036615c8a565b6128c282602a5461189a8183106164aa565b908181111561291b57505b6128d6816166ed565b915f5b8281106128ee5760405180610b2d86826160c1565b806129036128fe6001938561642a565b6160fa565b90549060031b1c6129148287616266565b52016128d9565b90506128cd565b3461066e57602036600319011261066e5761293b615956565b335f525f60205260ff60405f20541680156129a6575b61295a90616165565b6001600160a01b03165f81815260208052604090205460ff1661297957005b805f526020805260405f2060ff1981541690555f52601c602052600360405f200160ff1981541690555f80f35b506001546001600160a01b03163314612951565b3461066e57610ef560066129cd36616087565b9190335f525f60205260ff60405f2054168015612a57575b6129ee90616165565b602060405191838151938381818501968088835e810160128152030190200161ff0019815416905583604051838184518088835e81016012815203019020016201000062ff000019825416179055604051928391518091835e81016012815203019020016161dc565b506001546001600160a01b031633146129e5565b3461066e57604036600319011261066e57612a8461596c565b335f525f60205260ff60405f2054168015612ad4575b612aa390616165565b6004355f9081526015602090815260408083206001600160a01b03909416835292905220805460ff19166001179055005b506001546001600160a01b03163314612a9a565b3461066e57606036600319011261066e576004356001600160401b03811161066e57612b18903690600401615938565b335f525f60205260ff60405f2054168015612b7f575b612b3790616165565b6005604051825190600460208501928084845e820191601283526020816024359403019020015560405192518091845e82019160128352602081604435940301902001555f80f35b506001546001600160a01b03163314612b2e565b3461066e57602080612ba436615bfb565b9290604051928184925191829101835e81016004815203019020905f5260205260405f208054612bd660018301615ecd565b6002830154909290612c2c906001600160a01b03166005612bf960038501615ecd565b93015492612c19604051968796875260c0602088015260c0870190615a4b565b9160408601528482036060860152615a4b565b63ffffffff8216608084015260209190911c6001600160a01b031660a08301520390f35b3461066e575f36600319011261066e576001546040516001600160a01b039091168152602090f35b3461066e57606036600319011261066e576004356001600160401b03811161066e57612ca8903690600401615938565b602435906001600160401b03821161066e576007602080612cd0610ef5953690600401615938565b93335f525f825260ff60405f2054168015612d24575b612cef90616165565b604051928184925191829101835e810160038152030190200160405191612d1583615805565b825260443560208301526163c2565b506001546001600160a01b03163314612ce6565b3461066e57606036600319011261066e57612d51615956565b335f525f60205260ff60405f2054168015612dd1575b612d7090616165565b600260405191612d7f83615872565b6001600160a01b03908116808452602435602080860191825260443560408088019182525f948552601d9092529220945185546001600160a01b03191693169290921784559051600184015551910155005b506001546001600160a01b03163314612d67565b3461066e57602080612df6366159ae565b9290604051928184925191829101835e8101600b8152030190209060018060a01b03165f52602052602060405f2054604051908152f35b3461066e57602036600319011261066e576001600160a01b03612e4e615956565b165f5260208052602060ff60405f2054166040519015158152f35b3461066e57602036600319011261066e576004355f52601960205260405f208054612e9381615b09565b91612ea160405193846158c4565b81835260208301905f5260205f205f915b838310612ec75760405180610b2d8782615d6d565b60046020600192604051612eda81615820565b848060a01b038654168152848060a01b038587015416838201526002860154604082015260ff60038701541615156060820152815201920192019190612eb2565b3461066e575f36600319011261066e57600854612f3781615b09565b90612f4560405192836158c4565b80825260085f9081525f5160206167fe5f395f51905f52602084015b838310612f765760405180610b2d8782615ca0565b600160208192612f8585615ecd565b815201920192019190612f61565b3461066e57612fa136615c8a565b612fb382600f5461189a8183106164aa565b908181111561303257505b612fc7816164ff565b905f92600d54935b828110612fe45760405180610b2d8682615ca0565b612fee818361642a565b908582101561117457600d5f52600191613016905f5160206167be5f395f51905f5201615ecd565b6130208287616266565b5261302b8186616266565b5001612fcf565b9050612fbe565b3461066e57602036600319011261066e576004356001600160401b03811161066e5760ff60208061306f81943690600401615938565b604051928184925191829101835e8101602681520301902054166040519015158152f35b3461066e57602036600319011261066e576130ac615956565b5f60606040516130bb81615820565b828152826020820152826040820152015260018060a01b03165f52601c602052608060405f206040516130ed81615820565b815491828252600181015460208301908152606060ff600360028501549460408701958652015416930192151583526040519384525160208401525160408301525115156060820152f35b3461066e57602036600319011261066e576004355f908152601160205260409020805460018201546001600160a01b03169161317660028201615ecd565b61318260038301615ecd565b9161318f60048201615ecd565b9261319c60058301615ecd565b93600683015494600784015491600885015460ff1693600986015495600a0154966040519a8b9a8b5260208b015260408a0161018090526101808a016131e191615a4b565b89810360608b01526131f291615a4b565b88810360808a015261320391615a4b565b87810360a089015261321491615a4b565b9460c087015260e0860152151561010085015261012084015260ff8116151561014084015260081c60ff1615156101608301520390f35b3461066e57604036600319011261066e57613264615956565b335f525f60205260ff60405f20541680156132a0575b61328390616165565b6001600160a01b03165f908152601f602052604090206024359055005b506001546001600160a01b0316331461327a565b3461066e57602036600319011261066e576004356001600160401b03811161066e5760206132e781923690600401615938565b5f6101c06040516132f7816158a8565b60608152828582015260606040820152606080820152826080820152606060a0820152606060c0820152606060e08201528261010082015282610120820152826101408201528261016082015282610180820152826101a08201520152604051928184925191829101835e81016003815203019020604051613378816158a8565b61338182615ecd565b815260018201546001600160a01b0316602082019081526133a460028401616647565b604083019081526133b760038501615ecd565b906060840191825260ff60048601541692608085019360048110156135eb5784526133e460058701616698565b60a08601908152956133f8600682016165db565b60c087019081529661340c600783016165db565b9760e0880198895260088301549661010089019788526009840154916101208a01928352600160a01b60019003600a86015416936101408b01948552600b860154956101608c01968752600c0154986101808c019763ffffffff8b1689526101a08d01998d600160a01b600190038d60201c168c526101c0019b60c01c63ffffffff168c52604051809e6020825251602082016101e0905261020082016134b291615a4b565b92516001600160a01b0316604090910152518d8203601f190160608f01526134da919061603e565b90518c8203601f190160808e01526134f29190615a4b565b925160a08c016135019161607a565b5191601f198b82030160c08c0152825180825260208201918160051b810160200194602001925f915b8383106135be575050505050916135748a9b61356063ffffffff9a999896948d8c9997519060e0601f1982850301910152615f6d565b90518c8203601f19016101008e0152615f6d565b98516101208b0152516101408a0152516001600160a01b039081166101608a015290516101808901529051919091166101a08701529051166101c085015251166101e08301520390f35b90919293956020806135dc600193601f198682030187528a51615a4b565b9801930193019193929061352a565b634e487b7160e01b5f52602160045260245ffd5b3461066e57602036600319011261066e576001600160a01b03613620615956565b165f526025602052602060405f2054604051908152f35b3461066e5760a036600319011261066e5760043561365361596c565b906044356001600160401b03811161066e57613673903690600401615938565b6084356001600160401b03811161066e57613692903690600401615938565b90335f525f60205260ff60405f2054168015613803575b6136b290616165565b6016548310156137f0575b825f52601060205260405f2054156137c6575b604051916136dd836157e9565b8383526001600160a01b039485166020808501918252604080860194855260643560608701908152608087019485525f60a0880181815260c08901828152600160e08b01818152426101008d019081526101208d018681526101408e018781529e87526010909952969094209a518b559651968a0180546001600160a01b03191697909c1696909617909a5595519298919594919261377f9060028901616295565b516003870155516137939060048701616295565b516005850155516006840155516137af901515600784016161dc565b51600882015560090191511515611aee90836161dc565b602a54600160401b81101561089f5783611b1f8260016137eb9401602a55602a616142565b6136d0565b60018301808411611835576016556136bd565b506001546001600160a01b031633146136a9565b3461066e57602036600319011261066e576001600160a01b03613838615956565b165f52601c60205260405f206040519061385182615820565b610b2d606082549283855260018101549485602082015260ff60036002840154938460408501520154161515928391015260405194859485615a2b565b3461066e575f36600319011261066e57604051602154808252602082019060215f5260205f20905f5b8181106138ce57610b2d856111e1818703826158c4565b82546001600160a01b03168452602090930192600192830192016138b7565b3461066e57610ef56138fe36615ff3565b919293335f525f60205260ff60405f2054168015613939575b61392090616165565b5f52601960205260405f209260405194610ed186615820565b506001546001600160a01b03163314613917565b3461066e5761395b36615c8a565b905f52601960205260405f2090815481101561066e5761256391615c2c565b3461066e57602036600319011261066e5760406001600160a01b0361399d615956565b16805f526023602052815f2054905f526024602052815f205482519182526020820152f35b3461066e576139d036615fd9565b9190335f525f60205260ff60405f2054168015613a0d575b6139f190616165565b5f91825260116020526040909120600681019190915560070155005b506001546001600160a01b031633146139e8565b3461066e57602036600319011261066e576004356001600160401b03811161066e57602080613a57613aac933690600401615938565b604051928184925191829101835e8101600a815203019020610b2d613a7b82615ecd565b91613aba613a976003613a9060028501615ecd565b9301615ecd565b91604051958695606087526060870190615a4b565b908582036020870152615a4b565b908382036040850152615a4b565b3461066e57602036600319011261066e576001600160a01b03613ae9615956565b165f526002602052602060405f2054604051908152f35b3461066e57602080613b1136615bfb565b92905f60c0604051613b228161588d565b828152606085820152826040820152606080820152606060808201528260a08201520152604051928184925191829101835e81016004815203019020905f5260205260405f20604051613b748161588d565b81548152613b8460018301615ecd565b6020820190815260028301546001600160a01b03166040830190815290929063ffffffff613c53613bb760038501615ecd565b9360608601948552613c406005613bd0600484016165db565b926080890193845201549460a0880196858716885260c089019660018060a01b039060201c168752613c1e6040519a8b9a60208c525160208c01525160e060408c01526101008b0190615a4b565b91516001600160a01b031660608a015251888203601f190160808a0152615a4b565b9051868203601f190160a0880152615f6d565b92511660c0840152516001600160a01b031660e08301520390f35b3461066e57604036600319011261066e57613c87615956565b7f3213ab8ec2ed122402f038736b41878b69ae9f61f49a7edd0666bce891d29fc96020613cb2615a0d565b92613cc860018060a01b036001541633146165a3565b60018060a01b031692835f525f8252613ce48160405f206161dc565b6040519015158152a2005b3461066e57604036600319011261066e57613d08615956565b613d1061596c565b90335f525f60205260ff60405f2054168015613d60575b613d3090616165565b6001600160a01b039081165f908152601e6020526040902080546001600160a01b03191692909116919091179055005b506001546001600160a01b03163314613d27565b3461066e57602080613d8536615c45565b9391929092335f525f825260ff60405f2054168015613dd7575b613da890616165565b604051928184925191829101835e8101600b8152030190209060018060a01b03165f5260205260405f20555f80f35b506001546001600160a01b03163314613d9f565b3461066e57602036600319011261066e576004355f908152601060205260409020805460018201546001600160a01b03169160ff613e2b60028301615ecd565b600383015492613e3d60048201615ecd565b600582015494613e956006840154918660078601541693613e8260096008880154970154976040519c8d9c8d5260208d015261016060408d01526101608c0190615a4b565b9160608b015289820360808b0152615a4b565b9560a088015260c0870152151560e0860152610100850152818116151561012085015260081c1615156101408301520390f35b3461066e57602036600319011261066e576001600160a01b03613ee9615956565b165f52601e602052602060018060a01b0360405f205416604051908152f35b3461066e57602036600319011261066e576001600160a01b03613f29615956565b165f52601d60205260405f20604051613f4181615872565b610b2d604060018060a01b0384541692838152600260018601549586602084015201549182910152604051938493846159ef565b3461066e575f36600319011261066e575f5f602b54905b8181106141645750613f9d82615b09565b91613fab60405193846158c4565b808352613fba601f1991615b09565b015f5b81811061414d5750505f5f5b82811061403757836040518091602082016020835281518091526040830190602060408260051b8601019301915f905b82821061400857505050500390f35b919360019193955060206140278192603f198a82030186528851615dd9565b9601920192018594939192613ff9565b61404081616112565b90549060031b1c805f52601160205260ff600860405f20015416614068575b50600101613fc9565b60019192614146915f52601160205260405f2060ff600a6040519261408c84615856565b80548452868060a01b03878201541660208501526140ac60028201615ecd565b60408501526140bd60038201615ecd565b60608501526140ce60048201615ecd565b60808501526140df60058201615ecd565b60a0850152600681015460c0850152600781015460e085015282600882015416151561010085015260098101546101208501520154818116151561014084015260081c1615156101608201526141358288616266565b526141408187616266565b50616205565b919061405f565b602090614158616548565b82828701015201613fbd565b61416d81616112565b90549060031b1c5f52601160205260ff600860405f20015416614193575b600101613f8c565b9161419f600191616205565b92905061418b565b3461066e575f36600319011261066e577f00000000000000000000000000000000000000000000000000000000000000006001600160a01b031630036141fe5760206040515f5160206167de5f395f51905f528152f35b63703e46dd60e11b5f5260045ffd5b3461066e57602036600319011261066e576004355f526019602052602060405f2054604051908152f35b3461066e57604036600319011261066e5761425061596c565b335f525f60205260ff60405f20541680156142a0575b61426f90616165565b6004355f9081526014602090815260408083206001600160a01b03909416835292905220805460ff19166001179055005b506001546001600160a01b03163314614266565b604036600319011261066e576142c8615956565b6024356001600160401b03811161066e573660238201121561066e576142f8903690602481600401359101615902565b6001600160a01b037f0000000000000000000000000000000000000000000000000000000000000000163081149081156144a4575b506141fe5761434760018060a01b036001541633146165a3565b6040516352d1902d60e01b81526001600160a01b0383169290602081600481875afa5f9181614470575b506143895783634c9c8ce360e01b5f5260045260245ffd5b805f5160206167de5f395f51905f5285920361445e5750813b1561444c575f5160206167de5f395f51905f5280546001600160a01b031916821790557fbc7cd75a20ee27fd9adebab32041f755214dbc6bffa90cc0225b39da2e5c2d3b5f80a2815115614434575f80836020610ef595519101845af43d1561442c573d91614410836158e7565b9261441e60405194856158c4565b83523d5f602085013e61671f565b60609161671f565b50503461443d57005b63b398979f60e01b5f5260045ffd5b634c9c8ce360e01b5f5260045260245ffd5b632a87526960e21b5f5260045260245ffd5b9091506020813d60201161449c575b8161448c602093836158c4565b8101031261066e57519085614371565b3d915061447f565b5f5160206167de5f395f51905f52546001600160a01b0316141590508361432d565b3461066e57602036600319011261066e576004355f52601a602052602060405f2054604051908152f35b3461066e57608036600319011261066e576004356001600160401b03811161066e57614520903690600401615938565b6044359060243563ffffffff8316830361066e57610ef5926020614542615998565b93335f525f825260ff60405f20541680156145c2575b61456190616165565b604051928151938381818501968088835e81016004815203019020855f52835263ffffffff600560405f2001911663ffffffff19825416179055604051928391518091835e81016004815203019020905f52602052600560405f2001616401565b506001546001600160a01b03163314614558565b3461066e57602036600319011261066e576004356001600160401b03811161066e57602061460981923690600401615938565b604051928184925191829101835e81016018815203019020805461462c81615b09565b9161463a60405193846158c4565b81835260208301905f5260205f205f915b8383106146605760405180610b2d8782615d6d565b6004602060019260405161467381615820565b848060a01b038654168152848060a01b038587015416838201526002860154604082015260ff6003870154161515606082015281520192019201919061464b565b3461066e5760206001816146c7366159ae565b9390335f525f825260ff60405f20541680156147bd575b6146e790616165565b604051928184925191829101835e600a9082019081520301902001906001600160a01b03165f5b825480821015610ef557826147238386616142565b905460039190911b1c6001600160a01b031614614743575060010161470e565b5f198101925082116118355761239261475f6147789385616142565b905460039190911b1c6001600160a01b03169184616142565b805480156147a9575f19019061478e8282616142565b81546001600160a01b0360039290921b9190911b1916905555005b634e487b7160e01b5f52603160045260245ffd5b506146e7848060a01b03855416331490506146de565b3461066e57602036600319011261066e576147ec615956565b335f525f60205260ff60405f2054168015614826575b61480b90616165565b6001600160a01b03165f908152602560205260409020429055005b506001546001600160a01b03163314614802565b3461066e575f36600319011261066e576020600f54604051908152f35b3461066e5760a036600319011261066e576004356001600160401b03811161066e57614887903690600401615938565b6024356001600160401b03811161066e576148a6903690600401615cff565b906044356001600160401b03811161066e576148c6903690600401615938565b906064356001600160401b03811161066e576148e6903690600401615938565b6084356001600160401b03811161066e57614905903690600401615cff565b92335f525f60205260ff60405f2054168015614b1c575b61492590616165565b604051614949845191602081818801948086835e8101600a81520301902054615e95565b15614aba575b61499d906020604051956149628761583b565b808752818701988952604087019485526060870195865260808701978852604051928391518091835e8101600a815203019020935184616295565b935180516001840195916001600160401b03821161089f57600160401b821161089f576020908754838955808410614a9f575b5001955f5260205f20955f5b828110614a825786600487614a03886149f9895160028501616295565b5160038301616295565b9151805191909201916001600160401b03821161089f57600160401b821161089f576020908354838555808410614a67575b5001915f5260205f20915f5b828110614a4a57005b81516001600160a01b031681850155602090910190600101614a41565b614a7c90855f528480855f200191039061627a565b84614a35565b81516001600160a01b0316818901556020909101906001016149dc565b614ab490895f528480855f200191039061627a565b886149d0565b600d54600160401b81101561089f57806001614adb9201600d55600d616142565b91909161088c57614aef8561499d93616295565b614b12600f54806040516020818a518088835e8101600e81520301902055616205565b600f55905061494f565b506001546001600160a01b0316331461491c565b3461066e57602036600319011261066e576004356001600160401b03811161066e57602080614b6481933690600401615938565b604051928184925191829101835e8101601881520301902054604051908152f35b3461066e57614b9336615c8a565b614ba58260295461189a8183106164aa565b9081811115614c2457505b614bb9816164ff565b905f92602754935b828110614bd65760405180610b2d8682615ca0565b614be0818361642a565b90858210156111745760275f52600191614c08905f51602061677e5f395f51905f5201615ecd565b614c128287616266565b52614c1d8186616266565b5001614bc1565b9050614bb0565b3461066e5760a036600319011261066e576004356001600160401b03811161066e57614c5b903690600401615938565b614c6361596c565b614c6b615982565b916020614c76615a1c565b91335f525f825260ff60405f2054168015614d2f575b614c9590616165565b614ce7604051938251948481818601978089835e8101601881520301902060405191614cc083615820565b6001600160a01b038881168452891686840152606435604084015215156060830152616437565b604051928391518091835e601b908201908152030190206001600160a01b039182165f9081526020919091526040902080546001600160a01b03191692909116919091179055005b506001546001600160a01b03163314614c8c565b3461066e576020600b614d5536615c45565b939091335f525f825260ff60405f2054168015614dc6575b614d7690616165565b60405192600a8251948481818601978089835e81016003815203019020019060018060a01b031660018060a01b0319825416179055604051928391518091835e8101600381520301902001555f80f35b506001546001600160a01b03163314614d6d565b3461066e57604036600319011261066e576004356001600160401b03811161066e57614e0a903690600401615938565b602435906001600160401b03821161066e576005602080614e32610ef5953690600401615938565b93335f525f825260ff60405f2054168015614e6f575b614e5190616165565b604051928184925191829101835e8101600381520301902001616395565b506001546001600160a01b03163314614e48565b3461066e57602080614e9436615bfb565b9290604051928184925191829101835e8101601881520301902090815481101561066e5761256391615c2c565b3461066e57604036600319011261066e57614eda615956565b335f525f60205260ff60405f2054168015614f19575b614ef990616165565b60018060a01b03165f52600260205260405f206126c0602435825461642a565b506001546001600160a01b03163314614ef0565b3461066e57608036600319011261066e576004356001600160401b03811161066e57614f5d903690600401615938565b6024359063ffffffff8216820361066e57614f76615982565b916064359263ffffffff8416840361066e57600c92614ffb602092335f525f845260ff60405f2054168015615036575b614faf90616165565b6040519463ffffffff8785519787818189019a808c835e8101600381520301902001911663ffffffff198254161790558560405185818651808a835e8101600381520301902001616401565b604051928391518091835e60039082019081520301902001805463ffffffff60c01b191660c09290921b63ffffffff60c01b16919091179055005b506001546001600160a01b03163314614fa6565b3461066e5760a036600319011261066e576004356001600160401b03811161066e5761507a903690600401615938565b61508261596c565b906044356001600160401b03811161066e576150a2903690600401615938565b916064356001600160401b03811161066e576150c2903690600401615b20565b906084356001600160401b03811161066e576150e2903690600401615b9e565b93335f525f60205260ff60405f205416801561520b575b61510290616165565b61510d600754616205565b600755600854600160401b81101561089f5780600161513192016008556008616142565b92909261088c57615148856151b194979697616295565b60018060a01b0381165f5260096020526151658660405f20616395565b615187604051602081895180838c01835e810160038152030190209687616295565b6001860180546001600160a01b0319166001600160a01b0390921691909117905560038501616295565b60048301805460ff191690555f6008840181905560098401819055600a840180546001600160a01b0319169055600b84018190556006909301925b8151811015610ef5578061520561177960019385616266565b016151ec565b506001546001600160a01b031633146150f9565b3461066e575f36600319011261066e575f5f602a54905b8181106153e4575061524782615b09565b9161525560405193846158c4565b808352615264601f1991615b09565b015f5b8181106153cd5750505f5f5b8281106152e157836040518091602082016020835281518091526040830190602060408260051b8601019301915f905b8282106152b257505050500390f35b919360019193955060206152d18192603f198a82030186528851615a6f565b96019201920185949391926152a3565b6152ea816160fa565b90549060031b1c805f52601060205260ff600760405f20015416615312575b50600101615273565b600191926153c6915f52601060205260405f2060ff600960405192615336846157e9565b80548452868060a01b038782015416602085015261535660028201615ecd565b60408501526003810154606085015261537160048201615ecd565b6080850152600581015460a0850152600681015460c085015282600782015416151560e085015260088101546101008501520154818116151561012084015260081c1615156101408201526141358288616266565b9190615309565b6020906153d8616213565b82828701015201615267565b6153ed816160fa565b90549060031b1c5f52601060205260ff600760405f20015416615413575b600101615236565b9161541f600191616205565b92905061540b565b3461066e57602036600319011261066e57615440615956565b335f525f60205260ff60405f2054168015615480575b61545f90616165565b6001600160a01b03165f90815260246020526040902080546126c090616205565b506001546001600160a01b03163314615456565b3461066e57602036600319011261066e576001600160a01b036154b5615956565b165f52601c60205260405f208054610b2d60018301549260ff60036002830154920154169060405194859485615a2b565b3461066e57602036600319011261066e576004356001600160401b03811161066e5761553b60208061551d81943690600401615938565b604051928184925191829101835e8101600381520301902054615e95565b1515604051908152f35b3461066e57604036600319011261066e57600435615561615a0d565b335f525f60205260ff60405f205416801561560b575b61558090616165565b6016548210156155cd576155a290825f526010602052600960405f20016161dc565b5f90815260106020526040902060098101805461ff001916610100179055600701805460ff19169055005b60405162461bcd60e51b8152602060048201526016602482015275125b9d985b1a5908185c1c1b1a58d85d1a5bdb88125160521b6044820152606490fd5b506001546001600160a01b03163314615577565b3461066e575f36600319011261066e576020602954604051908152f35b3461066e57602036600319011261066e576001600160a01b0361565d615956565b165f52601d60205260405f2060018060a01b03815416610b2d60026001840154930154604051938493846159ef565b3461066e57602036600319011261066e57335f525f60205260ff60405f20541680156156e9575b6156bc90616165565b602254600160401b81101561089f576156e0816001610ef593016022556022616142565b600435916161c5565b506001546001600160a01b031633146156b3565b3461066e57604036600319011261066e57615716615956565b335f525f60205260ff60405f2054168015615750575b61573590616165565b60018060a01b03165f52602460205260243560405f20555f80f35b506001546001600160a01b0316331461572c565b3461066e575f36600319011261066e576020600654604051908152f35b3461066e57610ef56020600281615797366159ae565b9390335f525f825260ff60405f20541680156157d5575b6157b790616165565b604051928184925191829101835e81016003815203019020016161a2565b506001546001600160a01b031633146157ae565b61016081019081106001600160401b0382111761089f57604052565b604081019081106001600160401b0382111761089f57604052565b608081019081106001600160401b0382111761089f57604052565b60a081019081106001600160401b0382111761089f57604052565b61018081019081106001600160401b0382111761089f57604052565b606081019081106001600160401b0382111761089f57604052565b60e081019081106001600160401b0382111761089f57604052565b6101e081019081106001600160401b0382111761089f57604052565b601f909101601f19168101906001600160401b0382119082101761089f57604052565b6001600160401b03811161089f57601f01601f191660200190565b92919261590e826158e7565b9161591c60405193846158c4565b82948184528183011161066e578281602093845f960137010152565b9080601f8301121561066e5781602061595393359101615902565b90565b600435906001600160a01b038216820361066e57565b602435906001600160a01b038216820361066e57565b604435906001600160a01b038216820361066e57565b606435906001600160a01b038216820361066e57565b604060031982011261066e57600435906001600160401b03821161066e576159d891600401615938565b906024356001600160a01b038116810361066e5790565b604091949392606082019560018060a01b0316825260208201520152565b60243590811515820361066e57565b60843590811515820361066e57565b926060929594919560808501968552602085015260408401521515910152565b805180835260209291819084018484015e5f828201840152601f01601f1916010190565b908151815260018060a01b03602083015116602082015261014080615ac4615aa860408601516101606040870152610160860190615a4b565b6060860151606086015260808601518582036080870152615a4b565b9360a081015160a085015260c081015160c085015260e0810151151560e085015261010081015161010085015261012081015115156101208501520151151591015290565b6001600160401b03811161089f5760051b60200190565b9080601f8301121561066e578135615b3781615b09565b92615b4560405194856158c4565b81845260208085019260051b8201019183831161066e5760208201905b838210615b7157505050505090565b81356001600160401b03811161066e57602091615b9387848094880101615938565b815201910190615b62565b9080601f8301121561066e578135615bb581615b09565b92615bc360405194856158c4565b81845260208085019260051b82010192831161066e57602001905b828210615beb5750505090565b8135815260209182019101615bde565b604060031982011261066e57600435906001600160401b03821161066e57615c2591600401615938565b9060243590565b8054821015611174575f5260205f209060021b01905f90565b606060031982011261066e57600435906001600160401b03821161066e57615c6f91600401615938565b906024356001600160a01b038116810361066e579060443590565b604090600319011261066e576004359060243590565b602081016020825282518091526040820191602060408360051b8301019401925f915b838310615cd257505050505090565b9091929394602080615cf0600193603f198682030187528951615a4b565b97019301930191939290615cc3565b9080601f8301121561066e57813590615d1782615b09565b92615d2560405194856158c4565b82845260208085019360051b82010191821161066e57602001915b818310615d4d5750505090565b82356001600160a01b038116810361066e57815260209283019201615d40565b60206040818301928281528451809452019201905f5b818110615d905750505090565b825180516001600160a01b039081168652602082810151909116818701526040808301519087015260609182015115159186019190915260809094019390920191600101615d83565b908151815260018060a01b03602083015116602082015261016080615e4e615e3c615e2a615e1860408801516101806040890152610180880190615a4b565b60608801518782036060890152615a4b565b60808701518682036080880152615a4b565b60a086015185820360a0870152615a4b565b9360c081015160c085015260e081015160e0850152610100810151151561010085015261012081015161012085015261014081015115156101408501520151151591015290565b90600182811c92168015615ec3575b6020831014615eaf57565b634e487b7160e01b5f52602260045260245ffd5b91607f1691615ea4565b9060405191825f825492615ee084615e95565b8084529360018116908115615f4b5750600114615f07575b50615f05925003836158c4565b565b90505f9291925260205f20905f915b818310615f2f575050906020615f05928201015f615ef8565b6020919350806001915483858901015201910190918492615f16565b905060209250615f0594915060ff191682840152151560051b8201015f615ef8565b9080602083519182815201916020808360051b8301019401925f915b838310615f9857505050505090565b9091929394602080600192601f198582030186528851908280615fc48451604085526040850190615a4b565b93015191015297019301930191939290615f89565b606090600319011261066e57600435906024359060443590565b60a090600319011261066e57600435906024356001600160a01b038116810361066e57906044356001600160a01b038116810361066e579060643590608435801515810361066e5790565b90602080835192838152019201905f5b81811061605b5750505090565b82516001600160a01b031684526020938401939092019160010161604e565b9060048210156135eb5752565b604060031982011261066e57600435906001600160401b03821161066e576160b191600401615938565b90602435801515810361066e5790565b60206040818301928281528451809452019201905f5b8181106160e45750505090565b82518452602093840193909201916001016160d7565b602a5481101561117457602a5f5260205f2001905f90565b602b5481101561117457602b5f5260205f2001905f90565b6021548110156111745760215f5260205f2001905f90565b8054821015611174575f5260205f2001905f90565b9061088c5761595390615ecd565b1561616c57565b60405162461bcd60e51b815260206004820152600e60248201526d139bdd08185d5d1a1bdc9a5e995960921b6044820152606490fd5b80549190600160401b83101561089f5782612392916001615f0595018155616142565b919082549060031b91821b915f19901b1916179055565b9060ff801983541691151516179055565b9061ff00825491151560081b169061ff001916179055565b5f1981146118355760010190565b60405190616220826157e9565b5f6101408382815282602082015260606040820152826060820152606060808201528260a08201528260c08201528260e082015282610100820152826101208201520152565b80518210156111745760209160051b010190565b5f5b82811061628857505050565b5f8282015560010161627c565b81519192916001600160401b03811161089f576162b28254615e95565b601f8111616352575b506020601f82116001146162f457819293945f926162e9575b50508160011b915f199060031b1c1916179055565b015190505f806162d4565b601f19821690835f52805f20915f5b81811061633a57509583600195969710616322575b505050811b019055565b01515f1960f88460031b161c191690555f8080616318565b9192602060018192868b015181550194019201616303565b818111156162bb5761638790835f5260205f2090601f840160051c906020851061638d575b601f82910160051c03910161627a565b5f6162bb565b5f9150616377565b8054600160401b81101561089f576163b291600182018155616142565b91909161088c57615f0591616295565b805490600160401b82101561089f5760018201808255821015611174576001916020915f52815f2090831b01926163fa815185616295565b0151910155565b8054600160201b600160c01b03191660209290921b600160201b600160c01b0316919091179055565b9190820180921161183557565b8054600160401b81101561089f5761645491600182018155615c2c565b61088c57815181546001600160a01b039182166001600160a01b0319918216178355602084015160018401805491909316911617905560408201516002820155606090910151615f0591901515906003016161dc565b156164b157565b60405162461bcd60e51b8152602060048201526019602482015278537461727420696e646578206f7574206f6620626f756e647360381b6044820152606490fd5b9190820391821161183557565b9061650982615b09565b61651660405191826158c4565b8281528092616527601f1991615b09565b01905f5b82811061653757505050565b80606060208093850101520161652b565b6040519061655582615856565b5f610160838281528260208201526060604082015260608082015260606080820152606060a08201528260c08201528260e08201528261010082015282610120820152826101408201520152565b156165aa57565b60405162461bcd60e51b81526020600482015260096024820152682737ba1037bbb732b960b91b6044820152606490fd5b9081546165e781615b09565b926165f560405194856158c4565b81845260208401905f5260205f205f915b8383106166135750505050565b6002602060019260405161662681615805565b61662f86615ecd565b81528486015483820152815201920192019190616606565b90604051918281549182825260208201905f5260205f20925f5b818110616676575050615f05925003836158c4565b84546001600160a01b0316835260019485019487945060209093019201616661565b9081546166a481615b09565b926166b260405194856158c4565b81845260208401905f5260205f205f915b8383106166d05750505050565b6001602081926166df85615ecd565b8152019201920191906166c3565b906166f782615b09565b61670460405191826158c4565b8281528092616715601f1991615b09565b0190602036910137565b90616743575080511561673457805190602001fd5b630a12f52160e11b5f5260045ffd5b81511580616774575b616754575090565b639996b31560e01b5f9081526001600160a01b0391909116600452602490fd5b50803b1561674c56fe98a476f1687bc3d60a2da2adbcba2c46958e61fa2fb4042cd7bc5816a710195b61035b26e3e9eee00e0d72fd1ee8ddca6894550dca6916ea2ac6baa90d11e510d7b6990105719101dabeb77144f2a3385c8033acd3af97e9423a695e81ad1eb5360894a13ba1a3210667c828492db98dca3e2076cc3735a920a3ca505d382bbcf3f7a9fe364faab93b216da50a3214154f22a0a2b415b23a84c8169e8b636ee3f0c57e16840df040f15088dc2f81fe391c3923bec73e23a9662efc9c229c6a00a264697066735822122016780641092433466f656ab7ebd4872f76f4a2b44a3bebeb141a0abf77ba214064736f6c63430008210033f0c57e16840df040f15088dc2f81fe391c3923bec73e23a9662efc9c229c6a00","linkReferences":{}},"methodIdentifiers":{"UPGRADE_INTERFACE_VERSION()":"ad3cb1cc","addAskAthenaVoter(uint256,address,address,uint256,bool)":"d22e5053","addDisputeVoter(string,address,address,uint256,bool)":"2f52aff6","addJobApplicant(string,address)":"006d8630","addJobFinalMilestone(string,string,uint256)":"8d95ce5e","addOracleMember(string,address)":"c9d28293","addProposalId(uint256)":"0af401dc","addSkillVerificationVoter(uint256,address,address,uint256,bool)":"6d0faa95","addSkillVerifiedAddress(string,address)":"e5255107","addWorkSubmission(string,string)":"2c47fa97","allJobIds(uint256)":"cb29c128","allStakers(uint256)":"c3214d6c","applicationCounter()":"db144d01","askAthenaApplications(uint256)":"7a627fd8","askAthenaCounter()":"beeb4ada","askAthenaVoters(uint256,uint256)":"a2425f06","authorizeContract(address,bool)":"5cbeb13f","authorizedContracts(address)":"d5b9221b","delegatedVotingPower(address)":"f9a5c639","delegates(address)":"587cde1e","disputeVoterClaimAddresses(string,address)":"6cb01241","disputeVoters(string,uint256)":"2bfe51f0","disputes(string)":"a53328dc","earners(address)":"0cb4196d","finalizeAskAthena(uint256,bool)":"ecd233cc","finalizeDispute(string,bool)":"9661725c","finalizeSkillVerification(uint256,bool)":"111006db","getActiveAskAthenaApplications()":"55e90ada","getActiveSkillApplications()":"1b25de7f","getActiveStakersCount()":"e9b8be90","getAllAskAthenaIds()":"a57607c2","getAllDisputeIds()":"c213aca3","getAllJobIds()":"88c8837f","getAllOracleNames()":"aba01d8d","getAllProposalIds()":"efa90d36","getAllSkillApplicationIds()":"e980bd30","getAllStakers()":"6e4f88c8","getAskAthenaApplication(uint256)":"998f128e","getAskAthenaApplicationsBatch(uint256,uint256)":"bb4c8674","getAskAthenaCount()":"fe0d3ce8","getAskAthenaVoterCount(uint256)":"4d16b840","getAskAthenaVoters(uint256)":"cb8bde2e","getDelegate(address)":"544d8564","getDelegatedVotingPower(address)":"6da25a54","getDispute(string)":"a54294af","getDisputeCount()":"10987b77","getDisputeVoterClaimAddress(string,address)":"ceff5c5d","getDisputeVoterCount(string)":"38719e74","getDisputeVoters(string)":"49868b41","getDisputesBatch(uint256,uint256)":"367d9655","getEarner(address)":"cdbdb293","getEarnerInfo(address)":"57ac2574","getIsStaker(address)":"8ab3bd90","getJob(string)":"77e32407","getJobApplication(string,uint256)":"5cd02802","getJobApplicationCount(string)":"eb7d901b","getJobCount()":"b02b4a2f","getJobsByPoster(address)":"d3e8a57e","getOracle(string)":"a9daf6ad","getOracleCount()":"3f4e4251","getOracleMembers(string)":"cae3831c","getOracleNamesBatch(uint256,uint256)":"7ec25c3c","getProposalCount()":"c08cc02d","getSkillApplication(uint256)":"a6161328","getSkillApplicationCount()":"a0633807","getSkillApplicationsBatch(uint256,uint256)":"96cd9764","getSkillVerificationDate(string,address)":"1325f654","getSkillVerificationVoterCount(uint256)":"5296f5c1","getSkillVerificationVoters(uint256)":"88fc75f5","getStake(address)":"7a766460","getStakerInfo(address)":"733bdef0","getUserEarnedTokens(address)":"5843905f","getUserGovernanceActions(address)":"f14db783","getUserRewardInfo(address)":"69517310","getUserTotalClaimedTokens(address)":"00e09ee4","hasUserVotedOnAskAthena(uint256,address)":"6a699b6c","hasUserVotedOnDispute(string,address)":"9c87c928","hasUserVotedOnSkillApplication(uint256,address)":"f7edb880","hasVotedOnAskAthena(uint256,address)":"dcde0485","hasVotedOnDispute(string,address)":"84137482","hasVotedOnSkillApplication(uint256,address)":"aff4d416","incrementUserGovernanceActions(address)":"19dd10e8","initialize(address)":"c4d66de8","isStaker(address)":"6f1e8533","jobApplicationCounter(string)":"f4653c0b","jobApplications(string,uint256)":"9000a87f","jobCounter()":"50355d76","jobExists(string)":"16559540","jobs(string)":"b05e6f5a","jobsByPoster(address,uint256)":"c81418e8","memberLastActivity(address)":"759a15a0","memberStakeAmount(string,address)":"8b39905b","oracleActiveStatus(string)":"7c38b975","oracles(string)":"67c2f3e1","owner()":"8da5cb5b","proposalIds(uint256)":"9b644a23","proxiableUUID()":"52d1902d","removeOracleMember(string,address)":"466a9289","removeStaker(address)":"96a9fdc0","setApplicationPaymentPreference(string,uint256,uint32,address)":"4d14a239","setAskAthenaApplication(uint256,address,string,string,string,string)":"ba207995","setAskAthenaVote(uint256,address)":"91c6bfae","setDelegate(address,address)":"5c873849","setDelegatedVotingPower(address,uint256)":"78d4be1b","setDispute(string,uint256,string,address,uint256)":"fec17fe9","setDisputeVote(string,address)":"cd5b752f","setEarner(address,uint256,uint256)":"8cac6415","setJob(string,address,string,string[],uint256[])":"24f808a5","setJobApplication(string,uint256,address,string,string[],uint256[],uint32,address)":"bd015d79","setJobCurrentMilestone(string,uint256)":"b073997a","setJobPaymentTarget(string,uint32,address,uint32)":"28393d79","setJobSelectedApplicant(string,address,uint256)":"2efc4416","setMemberStakeAmount(string,address,uint256)":"5c6ad340","setOracle(string,address[],string,string,address[])":"3b7d2dd6","setOracleActiveStatus(string,bool)":"9e578411","setSkillApplication(uint256,address,string,uint256,string)":"755f176e","setSkillApplicationVote(uint256,address)":"4ffc65f8","setStake(address,uint256,uint256,uint256,bool)":"a542599c","setUserGovernanceActions(address,uint256)":"0857d05f","setUserTotalOWTokens(address,uint256)":"ffeea553","skillApplications(uint256)":"5b3a8e1c","skillVerificationDates(string,address)":"9e4ffd54","skillVerificationVoters(uint256,uint256)":"69728923","stakes(address)":"16934fc4","totalPlatformPayments()":"06d1ab4b","transferOwnership(address)":"f2fde38b","updateAskAthenaVotes(uint256,uint256,uint256)":"693975b0","updateDelegatedVotingPower(address,uint256,bool)":"9e2cc7e8","updateDisputeVotes(string,uint256,uint256)":"90c7417d","updateJobStatus(string,uint8)":"b5be4fe4","updateJobTotalPaid(string,uint256)":"c2cfe80e","updateMemberActivity(address)":"41b3d2a1","updateSkillApplicationVotes(uint256,uint256,uint256)":"c9fe8bf4","updateUserClaimData(address,uint256)":"286fd04f","upgradeToAndCall(address,bytes)":"4f1ef286","userGovernanceActions(address)":"46815946","userTotalClaimedTokens(address)":"61341473","userTotalOWTokens(address)":"f10f9a69"},"id":87}