{"abi":[{"type":"constructor","inputs":[],"stateMutability":"nonpayable"},{"type":"receive","stateMutability":"payable"},{"type":"function","name":"UPGRADE_INTERFACE_VERSION","inputs":[],"outputs":[{"name":"","type":"string","internalType":"string"}],"stateMutability":"view"},{"type":"function","name":"accumulatedFees","inputs":[],"outputs":[{"name":"","type":"uint256","internalType":"uint256"}],"stateMutability":"view"},{"type":"function","name":"addMembers","inputs":[{"name":"_members","type":"address[]","internalType":"address[]"},{"name":"_oracleName","type":"string","internalType":"string"}],"outputs":[],"stateMutability":"nonpayable"},{"type":"function","name":"addOrUpdateOracle","inputs":[{"name":"_names","type":"string[]","internalType":"string[]"},{"name":"_members","type":"address[][]","internalType":"address[][]"},{"name":"_shortDescriptions","type":"string[]","internalType":"string[]"},{"name":"_hashOfDetails","type":"string[]","internalType":"string[]"},{"name":"_skillVerifiedAddresses","type":"address[][]","internalType":"address[][]"}],"outputs":[],"stateMutability":"nonpayable"},{"type":"function","name":"addSingleOracle","inputs":[{"name":"_name","type":"string","internalType":"string"},{"name":"_members","type":"address[]","internalType":"address[]"},{"name":"_shortDescription","type":"string","internalType":"string"},{"name":"_hashOfDetails","type":"string","internalType":"string"},{"name":"_skillVerifiedAddresses","type":"address[]","internalType":"address[]"}],"outputs":[],"stateMutability":"nonpayable"},{"type":"function","name":"athenaClient","inputs":[],"outputs":[{"name":"","type":"address","internalType":"address"}],"stateMutability":"view"},{"type":"function","name":"bridge","inputs":[],"outputs":[{"name":"","type":"address","internalType":"address"}],"stateMutability":"view"},{"type":"function","name":"canVote","inputs":[{"name":"account","type":"address","internalType":"address"}],"outputs":[{"name":"","type":"bool","internalType":"bool"}],"stateMutability":"view"},{"type":"function","name":"daoContract","inputs":[],"outputs":[{"name":"","type":"address","internalType":"address"}],"stateMutability":"view"},{"type":"function","name":"disputeStartTimes","inputs":[{"name":"","type":"string","internalType":"string"}],"outputs":[{"name":"","type":"uint256","internalType":"uint256"}],"stateMutability":"view"},{"type":"function","name":"finalizeSkillVerification","inputs":[{"name":"_applicationId","type":"uint256","internalType":"uint256"}],"outputs":[],"stateMutability":"nonpayable"},{"type":"function","name":"genesis","inputs":[],"outputs":[{"name":"","type":"address","internalType":"contract IOpenworkGenesis"}],"stateMutability":"view"},{"type":"function","name":"getOracleActiveMemberCount","inputs":[{"name":"_oracleName","type":"string","internalType":"string"}],"outputs":[{"name":"","type":"uint256","internalType":"uint256"}],"stateMutability":"view"},{"type":"function","name":"getOracleMembers","inputs":[{"name":"_oracleName","type":"string","internalType":"string"}],"outputs":[{"name":"","type":"address[]","internalType":"address[]"}],"stateMutability":"view"},{"type":"function","name":"getUserVotingPower","inputs":[{"name":"account","type":"address","internalType":"address"}],"outputs":[{"name":"","type":"uint256","internalType":"uint256"}],"stateMutability":"view"},{"type":"function","name":"handleAskAthena","inputs":[{"name":"applicant","type":"address","internalType":"address"},{"name":"description","type":"string","internalType":"string"},{"name":"hash","type":"string","internalType":"string"},{"name":"targetOracle","type":"string","internalType":"string"},{"name":"fees","type":"string","internalType":"string"}],"outputs":[],"stateMutability":"nonpayable"},{"type":"function","name":"handleRaiseDispute","inputs":[{"name":"jobId","type":"string","internalType":"string"},{"name":"disputeHash","type":"string","internalType":"string"},{"name":"oracleName","type":"string","internalType":"string"},{"name":"fee","type":"uint256","internalType":"uint256"},{"name":"disputedAmount","type":"uint256","internalType":"uint256"},{"name":"disputeRaiser","type":"address","internalType":"address"}],"outputs":[],"stateMutability":"nonpayable"},{"type":"function","name":"handleSubmitSkillVerification","inputs":[{"name":"applicant","type":"address","internalType":"address"},{"name":"applicationHash","type":"string","internalType":"string"},{"name":"feeAmount","type":"uint256","internalType":"uint256"},{"name":"targetOracleName","type":"string","internalType":"string"}],"outputs":[],"stateMutability":"nonpayable"},{"type":"function","name":"initialize","inputs":[{"name":"_owner","type":"address","internalType":"address"},{"name":"_daoContract","type":"address","internalType":"address"},{"name":"_genesis","type":"address","internalType":"address"},{"name":"_nowjContract","type":"address","internalType":"address"},{"name":"_usdcToken","type":"address","internalType":"address"}],"outputs":[],"stateMutability":"nonpayable"},{"type":"function","name":"isOracleActive","inputs":[{"name":"_oracleName","type":"string","internalType":"string"}],"outputs":[{"name":"","type":"bool","internalType":"bool"}],"stateMutability":"view"},{"type":"function","name":"isOracleMember","inputs":[{"name":"_account","type":"address","internalType":"address"},{"name":"_oracleName","type":"string","internalType":"string"}],"outputs":[{"name":"","type":"bool","internalType":"bool"}],"stateMutability":"view"},{"type":"function","name":"jobDisputeCounters","inputs":[{"name":"","type":"string","internalType":"string"}],"outputs":[{"name":"","type":"uint256","internalType":"uint256"}],"stateMutability":"view"},{"type":"function","name":"memberActivityThresholdDays","inputs":[],"outputs":[{"name":"","type":"uint256","internalType":"uint256"}],"stateMutability":"view"},{"type":"function","name":"minOracleMembers","inputs":[],"outputs":[{"name":"","type":"uint256","internalType":"uint256"}],"stateMutability":"view"},{"type":"function","name":"minStakeRequired","inputs":[],"outputs":[{"name":"","type":"uint256","internalType":"uint256"}],"stateMutability":"view"},{"type":"function","name":"nowjContract","inputs":[],"outputs":[{"name":"","type":"address","internalType":"contract INativeOpenWorkJobContract"}],"stateMutability":"view"},{"type":"function","name":"oracleManager","inputs":[],"outputs":[{"name":"","type":"address","internalType":"contract IOracleManager"}],"stateMutability":"view"},{"type":"function","name":"owner","inputs":[],"outputs":[{"name":"","type":"address","internalType":"address"}],"stateMutability":"view"},{"type":"function","name":"proxiableUUID","inputs":[],"outputs":[{"name":"","type":"bytes32","internalType":"bytes32"}],"stateMutability":"view"},{"type":"function","name":"removeMemberFromOracle","inputs":[{"name":"_oracleName","type":"string","internalType":"string"},{"name":"_memberToRemove","type":"address","internalType":"address"}],"outputs":[],"stateMutability":"nonpayable"},{"type":"function","name":"removeOracle","inputs":[{"name":"_oracleNames","type":"string[]","internalType":"string[]"}],"outputs":[],"stateMutability":"nonpayable"},{"type":"function","name":"renounceOwnership","inputs":[],"outputs":[],"stateMutability":"nonpayable"},{"type":"function","name":"setAthenaClient","inputs":[{"name":"_athenaClient","type":"address","internalType":"address"}],"outputs":[],"stateMutability":"nonpayable"},{"type":"function","name":"setBridge","inputs":[{"name":"_bridge","type":"address","internalType":"address"}],"outputs":[],"stateMutability":"nonpayable"},{"type":"function","name":"setDAOContract","inputs":[{"name":"_daoContract","type":"address","internalType":"address"}],"outputs":[],"stateMutability":"nonpayable"},{"type":"function","name":"setGenesis","inputs":[{"name":"_genesis","type":"address","internalType":"address"}],"outputs":[],"stateMutability":"nonpayable"},{"type":"function","name":"setNOWJContract","inputs":[{"name":"_nowjContract","type":"address","internalType":"address"}],"outputs":[],"stateMutability":"nonpayable"},{"type":"function","name":"setOracleManager","inputs":[{"name":"_oracleManager","type":"address","internalType":"address"}],"outputs":[],"stateMutability":"nonpayable"},{"type":"function","name":"setUSDCToken","inputs":[{"name":"_usdcToken","type":"address","internalType":"address"}],"outputs":[],"stateMutability":"nonpayable"},{"type":"function","name":"settleAskAthena","inputs":[{"name":"_athenaId","type":"uint256","internalType":"uint256"}],"outputs":[],"stateMutability":"nonpayable"},{"type":"function","name":"settleDispute","inputs":[{"name":"_disputeId","type":"string","internalType":"string"}],"outputs":[],"stateMutability":"nonpayable"},{"type":"function","name":"transferOwnership","inputs":[{"name":"newOwner","type":"address","internalType":"address"}],"outputs":[],"stateMutability":"nonpayable"},{"type":"function","name":"updateMemberActivityThreshold","inputs":[{"name":"_newThresholdDays","type":"uint256","internalType":"uint256"}],"outputs":[],"stateMutability":"nonpayable"},{"type":"function","name":"updateMinOracleMembers","inputs":[{"name":"_newMinMembers","type":"uint256","internalType":"uint256"}],"outputs":[],"stateMutability":"nonpayable"},{"type":"function","name":"updateMinStakeRequired","inputs":[{"name":"_newMinStake","type":"uint256","internalType":"uint256"}],"outputs":[],"stateMutability":"nonpayable"},{"type":"function","name":"updateOracleActiveStatus","inputs":[{"name":"_oracleName","type":"string","internalType":"string"}],"outputs":[],"stateMutability":"nonpayable"},{"type":"function","name":"updateVotingPeriod","inputs":[{"name":"_newPeriodMinutes","type":"uint256","internalType":"uint256"}],"outputs":[],"stateMutability":"nonpayable"},{"type":"function","name":"upgradeFromDAO","inputs":[{"name":"newImplementation","type":"address","internalType":"address"}],"outputs":[],"stateMutability":"nonpayable"},{"type":"function","name":"upgradeToAndCall","inputs":[{"name":"newImplementation","type":"address","internalType":"address"},{"name":"data","type":"bytes","internalType":"bytes"}],"outputs":[],"stateMutability":"payable"},{"type":"function","name":"usdcToken","inputs":[],"outputs":[{"name":"","type":"address","internalType":"contract IERC20"}],"stateMutability":"view"},{"type":"function","name":"vote","inputs":[{"name":"_votingType","type":"uint8","internalType":"enum NativeAthena.VotingType"},{"name":"_disputeId","type":"string","internalType":"string"},{"name":"_voteFor","type":"bool","internalType":"bool"},{"name":"_claimAddress","type":"address","internalType":"address"}],"outputs":[],"stateMutability":"nonpayable"},{"type":"function","name":"votingPeriodMinutes","inputs":[],"outputs":[{"name":"","type":"uint256","internalType":"uint256"}],"stateMutability":"view"},{"type":"function","name":"withdraw","inputs":[],"outputs":[],"stateMutability":"nonpayable"},{"type":"event","name":"AskAthenaSettled","inputs":[{"name":"athenaId","type":"uint256","indexed":true,"internalType":"uint256"},{"name":"result","type":"bool","indexed":false,"internalType":"bool"},{"name":"totalVotesFor","type":"uint256","indexed":false,"internalType":"uint256"},{"name":"totalVotesAgainst","type":"uint256","indexed":false,"internalType":"uint256"}],"anonymous":false},{"type":"event","name":"AskAthenaSubmitted","inputs":[{"name":"applicant","type":"address","indexed":true,"internalType":"address"},{"name":"targetOracle","type":"string","indexed":false,"internalType":"string"},{"name":"fees","type":"string","indexed":false,"internalType":"string"}],"anonymous":false},{"type":"event","name":"BridgeUpdated","inputs":[{"name":"oldBridge","type":"address","indexed":true,"internalType":"address"},{"name":"newBridge","type":"address","indexed":true,"internalType":"address"}],"anonymous":false},{"type":"event","name":"CrossContractCallFailed","inputs":[{"name":"account","type":"address","indexed":true,"internalType":"address"},{"name":"reason","type":"string","indexed":false,"internalType":"string"}],"anonymous":false},{"type":"event","name":"DAOContractUpdated","inputs":[{"name":"oldDAO","type":"address","indexed":true,"internalType":"address"},{"name":"newDAO","type":"address","indexed":true,"internalType":"address"}],"anonymous":false},{"type":"event","name":"DisputeFeeRefunded","inputs":[{"name":"disputeId","type":"string","indexed":true,"internalType":"string"},{"name":"disputeRaiser","type":"address","indexed":true,"internalType":"address"},{"name":"amount","type":"uint256","indexed":false,"internalType":"uint256"},{"name":"targetChain","type":"uint32","indexed":false,"internalType":"uint32"}],"anonymous":false},{"type":"event","name":"DisputeFinalized","inputs":[{"name":"disputeId","type":"string","indexed":true,"internalType":"string"},{"name":"winningSide","type":"bool","indexed":false,"internalType":"bool"},{"name":"totalVotesFor","type":"uint256","indexed":false,"internalType":"uint256"},{"name":"totalVotesAgainst","type":"uint256","indexed":false,"internalType":"uint256"}],"anonymous":false},{"type":"event","name":"DisputeRaised","inputs":[{"name":"jobId","type":"string","indexed":true,"internalType":"string"},{"name":"disputeRaiser","type":"address","indexed":true,"internalType":"address"},{"name":"fees","type":"uint256","indexed":false,"internalType":"uint256"}],"anonymous":false},{"type":"event","name":"EarnedTokensUsedForVoting","inputs":[{"name":"user","type":"address","indexed":true,"internalType":"address"},{"name":"earnedTokens","type":"uint256","indexed":false,"internalType":"uint256"},{"name":"votingType","type":"string","indexed":false,"internalType":"string"}],"anonymous":false},{"type":"event","name":"FeeDistributed","inputs":[{"name":"disputeId","type":"string","indexed":true,"internalType":"string"},{"name":"recipient","type":"address","indexed":true,"internalType":"address"},{"name":"amount","type":"uint256","indexed":false,"internalType":"uint256"}],"anonymous":false},{"type":"event","name":"FeesWithdrawn","inputs":[{"name":"owner","type":"address","indexed":true,"internalType":"address"},{"name":"amount","type":"uint256","indexed":false,"internalType":"uint256"}],"anonymous":false},{"type":"event","name":"GenesisUpdated","inputs":[{"name":"oldGenesis","type":"address","indexed":true,"internalType":"address"},{"name":"newGenesis","type":"address","indexed":true,"internalType":"address"}],"anonymous":false},{"type":"event","name":"Initialized","inputs":[{"name":"version","type":"uint64","indexed":false,"internalType":"uint64"}],"anonymous":false},{"type":"event","name":"MemberActivityThresholdUpdated","inputs":[{"name":"newThresholdDays","type":"uint256","indexed":false,"internalType":"uint256"}],"anonymous":false},{"type":"event","name":"NOWJContractUpdated","inputs":[{"name":"oldContract","type":"address","indexed":true,"internalType":"address"},{"name":"newContract","type":"address","indexed":true,"internalType":"address"}],"anonymous":false},{"type":"event","name":"OracleStatusUpdated","inputs":[{"name":"oracleName","type":"string","indexed":true,"internalType":"string"},{"name":"isActive","type":"bool","indexed":false,"internalType":"bool"},{"name":"activeMemberCount","type":"uint256","indexed":false,"internalType":"uint256"}],"anonymous":false},{"type":"event","name":"OwnershipTransferred","inputs":[{"name":"previousOwner","type":"address","indexed":true,"internalType":"address"},{"name":"newOwner","type":"address","indexed":true,"internalType":"address"}],"anonymous":false},{"type":"event","name":"SkillVerificationSettled","inputs":[{"name":"applicationId","type":"uint256","indexed":true,"internalType":"uint256"},{"name":"result","type":"bool","indexed":false,"internalType":"bool"},{"name":"totalVotesFor","type":"uint256","indexed":false,"internalType":"uint256"},{"name":"totalVotesAgainst","type":"uint256","indexed":false,"internalType":"uint256"}],"anonymous":false},{"type":"event","name":"SkillVerificationSubmitted","inputs":[{"name":"applicant","type":"address","indexed":true,"internalType":"address"},{"name":"targetOracleName","type":"string","indexed":false,"internalType":"string"},{"name":"feeAmount","type":"uint256","indexed":false,"internalType":"uint256"},{"name":"applicationId","type":"uint256","indexed":true,"internalType":"uint256"}],"anonymous":false},{"type":"event","name":"USDCTokenUpdated","inputs":[{"name":"oldToken","type":"address","indexed":true,"internalType":"address"},{"name":"newToken","type":"address","indexed":true,"internalType":"address"}],"anonymous":false},{"type":"event","name":"Upgraded","inputs":[{"name":"implementation","type":"address","indexed":true,"internalType":"address"}],"anonymous":false},{"type":"error","name":"AddressEmptyCode","inputs":[{"name":"target","type":"address","internalType":"address"}]},{"type":"error","name":"AddressInsufficientBalance","inputs":[{"name":"account","type":"address","internalType":"address"}]},{"type":"error","name":"ERC1967InvalidImplementation","inputs":[{"name":"implementation","type":"address","internalType":"address"}]},{"type":"error","name":"ERC1967NonPayable","inputs":[]},{"type":"error","name":"FailedInnerCall","inputs":[]},{"type":"error","name":"InvalidInitialization","inputs":[]},{"type":"error","name":"NotInitializing","inputs":[]},{"type":"error","name":"OwnableInvalidOwner","inputs":[{"name":"owner","type":"address","internalType":"address"}]},{"type":"error","name":"OwnableUnauthorizedAccount","inputs":[{"name":"account","type":"address","internalType":"address"}]},{"type":"error","name":"SafeERC20FailedOperation","inputs":[{"name":"token","type":"address","internalType":"address"}]},{"type":"error","name":"UUPSUnauthorizedCallContext","inputs":[]},{"type":"error","name":"UUPSUnsupportedProxiableUUID","inputs":[{"name":"slot","type":"bytes32","internalType":"bytes32"}]}],"bytecode":{"object":"0x60a080604052346100ce5730608052605a600b555f516020615bce5f395f51905f525460ff8160401c166100bf576002600160401b03196001600160401b0382160161006c575b604051615afb90816100d38239608051818181611dd001528181611e92015261238b0152f35b6001600160401b0319166001600160401b039081175f516020615bce5f395f51905f525581527fc7f505b2f371ae2175ee4913f4499e1f2633a7b5936321eed1cdaeb6115181d290602090a15f80610046565b63f92ee8a960e01b5f5260045ffd5b5f80fdfe6080604052600436101561001a575b3615610018575f80fd5b005b5f5f3560e01c806302a63e841461384c5780630308b41414613812578063059c2080146137a95780630a8eef761461315b5780630b9abbfa1461313d5780630baca2e5146131115780630f5a9d01146130a657806311eac8551461307d578063144e49b214612d775780631459457a14612b8a57806323165bb214612a315780632af7a0b31461280f5780633948e446146127c95780633c9ce7941461262c5780633ccfd60b1461259457806340634e3b1461233e57806340db1a79146122ad578063425d512a146122465780634a7ffcbc1461221f5780634a9fe8f9146120ba5780634dea6307146120975780634f1ef28614611e42578063502f682614611e2457806352d1902d14611dbd578063565d878c14611d94578063587f5ed714611d765780636601d96214611d205780637086f54814611aab578063715018a614611a55578063787bb31014611a2c57806386b6147f14611a03578063887e15dc14610d0c5780638da5cb5b14610cd75780638dd1480214610c6c578063929e2e0814610c27578063a7f0b3de14610bfe578063ad3cb1cc14610bb5578063ad8d343514610b67578063add6beaf14610ad6578063adfaa72e14610aa8578063b90efe2e14610870578063ba56261e1461081a578063cae3831c146106c2578063d3075f2a146105d3578063d93e1184146105b0578063dc2969eb146104c9578063e78cea92146104a0578063eb14b35314610435578063ee0a5858146102fa578063ef00ef43146102d7578063f24b6b37146102b9578063f2fde38b1461028c5763f67321c61461026c575061000e565b346102895780600319360112610289576020600954604051908152f35b80fd5b5034610289576020366003190112610289576102b66102a96138c6565b6102b1614d34565b614cd6565b80f35b50346102895780600319360112610289576020600b54604051908152f35b5034610289576020366003190112610289576102f1614d34565b60043560095580f35b5034610289576020366003190112610289576004356001600160401b0381116104315761032b9036906004016139ac565b6003546040516332b8e0c760e21b8152602060048201529290819084906001600160a01b031681806103606024820188613b4b565b03915afa928315610424578193610400575b5080805b84518110156103bc5761039b6001600160a01b036103948388613d5c565b5116614bb6565b6103a8575b600101610376565b916103b4600191613d84565b9290506103a0565b509160407f4268575b6cf68e1c6d8da3e874758c378dc46ef7a69108c0bc680a806b818c63916103f160085485101591614420565b9382519182526020820152a280f35b61041d9193503d8085833e6104158183613938565b8101906148d0565b915f610372565b50604051903d90823e3d90fd5b5080fd5b50346102895760203660031901126102895761044f6138c6565b610457614d34565b600380546001600160a01b039283166001600160a01b0319821681179092559091167f5f1d51aab4bd6e41be6c7feda322db860d93d0058238bf871dfafd43ecc951f98380a380f35b50346102895780600319360112610289576006546040516001600160a01b039091168152602090f35b503461028957602036600319011261028957600435816001600160401b038211610289576104fe61052c9236906004016139ac565b60018060a01b036003541660405180809581946332b8e0c760e21b8352602060048401526024830190613b4b565b03915afa9081156105a557829161058b575b50815b81518110156105805761055f6001600160a01b036103948385613d5c565b61056c575b600101610541565b91610578600191613d84565b929050610564565b602083604051908152f35b61059f91503d8084833e6104158183613938565b5f61053e565b6040513d84823e3d90fd5b5034610289576020366003190112610289576105ca614d34565b600435600a5580f35b503461028957604036600319011261028957806004356001600160401b0381116106bf57610605903690600401613a5f565b6024356001600160401b0381116106bd576106249036906004016139ac565b9061063960018060a01b038454163314614b3a565b6004546001600160a01b0316916106518315156145c1565b823b156106bb576106999261068785809460405196879586948593636983af9560e11b8552604060048601526044850190613b6f565b83810360031901602485015290613b4b565b03925af180156105a5576106aa5750f35b816106b491613938565b6102895780f35b505b505b50fd5b5034610289576020366003190112610289576004356001600160401b038111610431576106f39036906004016139ac565b60035460405163a9daf6ad60e01b8152602060048201526001600160a01b03909116908381806107266024820187613b4b565b0381855afa90811561080f5784916107ed575b505151156107b55761076a91839160405180809581946332b8e0c760e21b8352602060048401526024830190613b4b565b03915afa9081156105a55782610796939261079a575b5050604051918291602083526020830190613b6f565b0390f35b6107ae92503d8091833e6104158183613938565b5f80610780565b60405162461bcd60e51b815260206004820152601060248201526f13dc9858db19481b9bdd08199bdd5b9960821b6044820152606490fd5b61080991503d8086833e6108018183613938565b810190613c6a565b5f610739565b6040513d86823e3d90fd5b503461028957602036600319011261028957600435906001600160401b038211610289576020808061084f36600487016139ac565b604051928184925191829101835e8101600c81520301902054604051908152f35b50346102895760803660031901126102895761088a6138c6565b6024356001600160401b0381116109d8576108a99036906004016139ac565b6044356064356001600160401b0381116109d4576108cb9036906004016139ac565b906108d582613d92565b15610a225760035460405163db144d0160e01b81529486916001600160a01b0316602087600481845afa968715610a175783976109dc575b50803b156109d857604051633aaf8bb760e11b8152600481018890526001600160a01b039092166024830181905260a0604484015295839183918290849082906109779061095f9060a4840190613b4b565b8a60648401526003198382030160848401528b613b4b565b03925af180156105a5576109bf575b50507f15b66c0cbfc87dbf2cd5b52d76249c81b1ca02430f5136fb55f6c77f304ace62916109b960405192839283614303565b0390a380f35b816109c991613938565b6109d457845f610986565b8480fd5b8280fd5b925095506020823d602011610a0f575b816109f960209383613938565b81010312610a0b57869151955f61090d565b5f80fd5b3d91506109ec565b6040513d85823e3d90fd5b60405162461bcd60e51b815260206004820152605260248201527f536b696c6c20766572696669636174696f6e206e6f7420617661696c61626c6560448201527f202d206f7261636c65206973206e6f742061637469766520286e656564732032606482015271302b20616374697665206d656d626572732960701b608482015260a490fd5b5034610289576020366003190112610289576020610acc610ac76138c6565b614bb6565b6040519015158152f35b503461028957604036600319011261028957806004356001600160401b0381116106bf57610b089036906004016139ac565b610b106138dc565b90610b2560018060a01b038454163314614b3a565b6004546001600160a01b031691610b3d8315156145c1565b823b156106bb576106999284928360405180968195829463add6beaf60e01b8452600484016148a8565b5034610289576020366003190112610289577f1cbba4e19e2b731f9b754e78a5e9412c411a9c6c7c2eb99d2ede4acfcc92b6726020600435610ba7614d34565b80600b55604051908152a180f35b503461028957806003193601126102895750610796604051610bd8604082613938565b60058152640352e302e360dc1b6020820152604051918291602083526020830190613b4b565b50346102895780600319360112610289576003546040516001600160a01b039091168152602090f35b503461028957602036600319011261028957610c416138c6565b610c49614d34565b600480546001600160a01b0319166001600160a01b039290921691909117905580f35b503461028957602036600319011261028957610c866138c6565b610c8e614d34565b600680546001600160a01b039283166001600160a01b0319821681179092559091167faae9beddccf584528e87b66c6ff2563825c8a1433305b8a656e9b5f9bf3904998380a380f35b50346102895780600319360112610289575f5160206159c65f395f51905f52546040516001600160a01b039091168152602090f35b503461028957608036600319011261028957600435906003821015610289576024356001600160401b03811161043157610d4a9036906004016139ac565b60443590811515938483036119ff57610d616138f2565b610d6a33614bb6565b156119a6576001600160a01b038116801561196257610d883361447a565b968715611959575b8691841593845f1461185057506003546001600160a01b031690813b1561184c578891610ddf83898d94604051978896879586946317a957fb60e11b865260a0600487015260a4860190613b4b565b9233602486015260448501526064840152608483015203925af180156111bb57908791611837575b50505b61182357156111f5575060035460405163a54294af60e01b8152602060048201526001600160a01b03909116949092848480610e496024820187613b4b565b0381895afa9384156111ea5785946111c6575b506101208401610e6e81511515613e55565b604051631390f92560e31b815260208180610e8d3389600484016148a8565b03818b5afa9081156111bb57879161117d575b506111385760e0850151156110e557519560095496603c880297808904603c14901517156110d157610ed68798610ede92613ead565b42111561588d565b803b156110b85785604051809263cd5b752f60e01b8252818381610f06338b600484016148a8565b03925af19081156110ad5786916110bc575b50506003546001600160a01b0316803b156110b8578580916024604051809481936341b3d2a160e01b83523360048401525af19081156110ad578691611098575b5050156110235760a0610f7a600180831b0360035416926080860151613ead565b93015190803b156109d457610fa993858094604051968795869485936390c7417d60e01b8552600485016158eb565b03925af180156105a55761100e575b50505b60055481906001600160a01b031680610fd4575b505080f35b803b156106bf57818091602460405180948193634cfa135f60e11b83523360048401525af180156105a55715610fcf57816106b491613938565b8161101891613938565b61028957805f610fb8565b61104160018060a01b03600354169160a06080860151950151613ead565b90803b156109d45761106d93858094604051968795869485936390c7417d60e01b8552600485016158eb565b03925af180156105a557611083575b5050610fbb565b8161108d91613938565b61028957805f61107c565b816110a291613938565b6109d457845f610f59565b6040513d88823e3d90fd5b8580fd5b816110c691613938565b6109d457845f610f18565b634e487b7160e01b87526011600452602487fd5b60405162461bcd60e51b815260206004820152602560248201527f566f74696e67206973206e6f742061637469766520666f722074686973206469604482015264737075746560d81b6064820152608490fd5b60405162461bcd60e51b815260206004820152601d60248201527f416c726561647920766f746564206f6e207468697320646973707574650000006044820152606490fd5b90506020813d6020116111b3575b8161119860209383613938565b810103126111af576111a990613eba565b5f610ea0565b8680fd5b3d915061118b565b6040513d89823e3d90fd5b6111e39194503d8087833e6111db8183613938565b810190613ec7565b925f610e5c565b6040513d87823e3d90fd5b6001810361143f57509261120983946157ce565b6003546040516314c2c26560e31b81526004810183905293919291906001600160a01b03168585602481845afa9485156110ad57869561141b575b50608085016112538151613d92565b611399575b50803b156110b8578560405180926309ff8cbf60e31b8252818381611281338b60048401615874565b03925af19081156110ad578691611384575b50506003546001600160a01b0316803b156110b8578580916024604051809481936341b3d2a160e01b83523360048401525af19081156110ad57869161136f575b5050156113255760c06112f660018060a01b03600354169260a0860151613ead565b93015190803b156109d457610fa9938580946040519687958694859363327fa2fd60e21b8552600485016158d5565b61134360018060a01b03600354169160c060a0860151950151613ead565b90803b156109d45761106d938580946040519687958694859363327fa2fd60e21b8552600485016158d5565b8161137991613938565b6109d457845f6112d4565b8161138e91613938565b6109d457845f611293565b6113a691965051336148f5565b156113b35785945f611258565b60405162461bcd60e51b815260206004820152603a60248201527f4f6e6c79206f7261636c65206d656d626572732063616e20766f7465206f6e20604482015279616374697665206f7261636c65206170706c69636174696f6e7360301b6064820152608490fd5b6114389195503d8088833e6114308183613938565b8101906146eb565b935f611244565b60021461144e575b5050905080f35b611457906157ce565b600354604051634cc7894760e11b8152600481018390526001600160a01b039091169490928484602481895afa9384156111ea5785946117ff575b5060208401516114ac906001600160a01b03161515614ae2565b604051631a9a66db60e21b8152602081806114cb338860048401615874565b03818a5afa9081156110ad5786916117c5575b5061176c576101008401511561170b576101208401519560095496603c880297808904603c14901517156110d157610ed6879861151a92613ead565b803b156110b8578560405180926348e35fd760e11b8252818381611542338b60048401615874565b03925af19081156110ad5786916116f6575b50506003546001600160a01b0316803b156110b8578580916024604051809481936341b3d2a160e01b83523360048401525af19081156110ad5786916116e1575b50501561166c5760e06115b760018060a01b03600354169260c0860151613ead565b93015190803b156109d4576115e69385809460405196879586948593630693975b60e41b8552600485016158d5565b03925af180156105a557611657575b50505b60055481906001600160a01b031680611612575b80611447565b803b156106bf57818091602460405180948193634cfa135f60e11b83523360048401525af180156105a5571561160c578161164c91613938565b61028957805f61160c565b8161166191613938565b61028957805f6115f5565b61168a60018060a01b03600354169160e060c0860151950151613ead565b90803b156109d4576116b69385809460405196879586948593630693975b60e41b8552600485016158d5565b03925af180156105a5576116cc575b50506115f8565b816116d691613938565b61028957805f6116c5565b816116eb91613938565b6109d457845f611595565b8161170091613938565b6109d457845f611554565b60405162461bcd60e51b815260206004820152603360248201527f566f74696e67206973206e6f742061637469766520666f72207468697320417360448201527235a0ba3432b7309030b8383634b1b0ba34b7b760691b6064820152608490fd5b60405162461bcd60e51b815260206004820152602b60248201527f416c726561647920766f746564206f6e20746869732041736b417468656e612060448201526a30b8383634b1b0ba34b7b760a91b6064820152608490fd5b90506020813d6020116117f7575b816117e060209383613938565b810103126110b8576117f190613eba565b5f6114de565b3d91506117d3565b61181c9194503d8087833e6118148183613938565b81019061499c565b925f611492565b634e487b7160e01b85526021600452602485fd5b8161184191613938565b6110b857855f610e07565b8880fd5b889350915050600184036118d357611867856157ce565b6003546001600160a01b03169190823b1561184c5787928992838c936118a560405197889687958694636d0faa9560e01b8652339060048701614b86565b03925af180156111bb579087916118be575b5050610e0a565b816118c891613938565b6110b857855f6118b7565b869150600284146118e5575b50610e0a565b6118ee856157ce565b6003546001600160a01b03169190823b1561184c5787928992838c9361192c6040519788968795869463d22e505360e01b8652339060048701614b86565b03925af180156111bb57908791611944575b506118df565b8161194e91613938565b6110b857855f61193e565b60019750610d90565b60405162461bcd60e51b815260206004820152601c60248201527b436c61696d20616464726573732063616e6e6f74206265207a65726f60201b6044820152606490fd5b60405162461bcd60e51b815260206004820152602b60248201527f496e73756666696369656e74207374616b65206f72206561726e656420746f6b60448201526a656e7320746f20766f746560a81b6064820152608490fd5b8380fd5b50346102895780600319360112610289576007546040516001600160a01b039091168152602090f35b50346102895780600319360112610289576005546040516001600160a01b039091168152602090f35b5034610289578060031936011261028957611a6e614d34565b5f5160206159c65f395f51905f5280546001600160a01b0319811690915581906001600160a01b03165f516020615a465f395f51905f528280a380f35b50346102895760a036600319011261028957611ac56138c6565b6024356001600160401b0381116109d857611ae49036906004016139ac565b906044356001600160401b0381116119ff57611b049036906004016139ac565b6064356001600160401b0381116109d457611b239036906004016139ac565b916084356001600160401b0381116110b857611b439036906004016139ac565b9160018060a01b036006541633148015611d0c575b15611cc957600354604051635f75a56d60e11b8152879390916001600160a01b0316602083600481845afa9283156111ea578593611c92575b50803b156109d45784928360405180968195829463ba20799560e01b84526004840152600160a01b60019003169b8c60248401526044830160c0905260c48301611bda91613b4b565b828103600319016064840152611bef91613b4b565b818103600319016084830152611c05908b613b4b565b8181036003190160a4830152611c1b908a613b4b565b03925af180156105a557611c7d575b50507f673e8492a8c891881088721a3a1bb84615b4e118117a35fb5cdf8be91dc07f4691611c77611c6992604051938493604085526040850190613b4b565b908382036020850152613b4b565b0390a280f35b81611c8791613938565b6119ff57835f611c2a565b945091506020843d602011611cc1575b81611caf60209383613938565b81010312610a0b57879351915f611b91565b3d9150611ca2565b60405162461bcd60e51b815260206004820152601b60248201527a13db9b1e48189c9a5919d9481bdc88185d1a195b9850db1a595b9d602a1b6044820152606490fd5b506007546001600160a01b03163314611b58565b503461028957602036600319011261028957600435906001600160401b0382116102895760208080611d5536600487016139ac565b604051928184925191829101835e8101600d81520301902054604051908152f35b50346102895780600319360112610289576020600254604051908152f35b50346102895780600319360112610289576004546040516001600160a01b039091168152602090f35b50346102895780600319360112610289577f00000000000000000000000000000000000000000000000000000000000000006001600160a01b03163003611e155760206040515f516020615a265f395f51905f528152f35b63703e46dd60e11b8152600490fd5b50346102895780600319360112610289576020600a54604051908152f35b50604036600319011261028957611e576138c6565b906024356001600160401b038111610431573660238201121561043157611e88903690602481600401359101613976565b6001600160a01b037f000000000000000000000000000000000000000000000000000000000000000016308114908115612075575b50612066575f5160206159c65f395f51905f52546001600160a01b031633148015612052575b15612016576040516352d1902d60e01b8152926001600160a01b0381169190602085600481865afa80958596611fe2575b50611f2d57634c9c8ce360e01b84526004839052602484fd5b9091845f516020615a265f395f51905f528103611fd05750813b15611fbe575f516020615a265f395f51905f5280546001600160a01b031916821790555f516020615a665f395f51905f528480a28151839015611fa45780836020611fa095519101845af4611f9a615938565b91615967565b5080f35b50505034611faf5780f35b63b398979f60e01b8152600490fd5b634c9c8ce360e01b8452600452602483fd5b632a87526960e21b8552600452602484fd5b9095506020813d60201161200e575b81611ffe60209383613938565b810103126109d45751945f611f14565b3d9150611ff1565b60405162461bcd60e51b8152602060048201526014602482015273556e617574686f72697a6564207570677261646560601b6044820152606490fd5b506006546001600160a01b03163314611ee3565b63703e46dd60e11b8252600482fd5b5f516020615a265f395f51905f52546001600160a01b0316141590505f611ebd565b5034610289576020366003190112610289576120b1614d34565b60043560085580f35b50346102895760a036600319011261028957806004356001600160401b0381116106bf576120ec9036906004016139ac565b6024356001600160401b0381116106bd5761210b903690600401613a5f565b6044356001600160401b0381116106bb5761212a9036906004016139ac565b906064356001600160401b0381116109d45761214a9036906004016139ac565b916084356001600160401b0381116110b85761216a903690600401613a5f565b61217e60018060a01b038754163314614b3a565b6004546001600160a01b0316916121968315156145c1565b823b156111af576121e9956106996121d79361220d8a986121fb8a966040519c8d9b8c9a8b99634a9fe8f960e01b8b5260a060048c015260a48b0190613b4b565b8981036003190160248b015290613b6f565b87810360031901604489015290613b4b565b85810360031901606487015290613b4b565b83810360031901608485015290613b6f565b5034610289578060031936011261028957546040516001600160a01b039091168152602090f35b5034610289576020366003190112610289576122606138c6565b612268614d34565b81546001600160a01b039182166001600160a01b031982168117845591167fe2d8d090ec8181d6498d84a6f75ec89c7d13cdcc4309c46ae725b27f7d0923068380a380f35b503461028957602036600319011261028957806004356001600160401b0381116106bf576122df9036906004016139e1565b6122f360018060a01b038354163314614b3a565b6004546001600160a01b031661230a8115156145c1565b803b156106bd576040516340db1a7960e01b8152602060048201529183918391829084908290610699906024830190614606565b5034610289576020366003190112610289576123586138c6565b6006546001600160a01b03169190338390036125555760405160209361237e8583613938565b8382526001600160a01b037f000000000000000000000000000000000000000000000000000000000000000016308114908115612533575b50612524575f5160206159c65f395f51905f52546001600160a01b0316331490811561251a575b50156124de576040516352d1902d60e01b81526001600160a01b03831694908181600481895afa8591816124af575b5061242557634c9c8ce360e01b85526004869052602485fd5b5f516020615a265f395f51905f528103611fd05750823b1561249b575f516020615a265f395f51905f5280546001600160a01b0319168617905592938493905f516020615a665f395f51905f528580a2815115612491578151611fa09492839201845af4611f9a615938565b505050611faf5780f35b634c9c8ce360e01b84526004859052602484fd5b9091508281813d83116124d7575b6124c78183613938565b810103126110b85751905f61240c565b503d6124bd565b60405162461bcd60e51b8152600481018590526014602482015273556e617574686f72697a6564207570677261646560601b6044820152606490fd5b905033145f6123dd565b63703e46dd60e11b8452600484fd5b5f516020615a265f395f51905f52546001600160a01b0316141590505f6123b6565b60405162461bcd60e51b81526020600482015260176024820152764f6e6c79206272696467652063616e207570677261646560481b6044820152606490fd5b50346102895780600319360112610289576125ad614d34565b4780156125ea575f5160206159c65f395f51905f525482918291829182916001600160a01b031682f1156125de5780f35b604051903d90823e3d90fd5b60405162461bcd60e51b815260206004820152601a6024820152794e6f204554482062616c616e636520746f20776974686472617760301b6044820152606490fd5b503461028957602036600319011261028957600354604051634cc7894760e11b815260048035908201819052916001600160a01b0316908381602481855afa90811561080f5784916127af575b506020810151612693906001600160a01b03161515614ae2565b6126a2610160820151156147e0565b6126b26101008201511515614820565b61012081015160095490603c820291808304603c149015171561279b576126e3916126dc91613ead565b4211614860565b60c08101918251918560e082019384511092803b1561043157604051633b348cf360e21b81526004810188905284151560248201529082908290604490829084905af180156105a557612786575b50507fe331e58a7c97022b307f5200c195237bd12cf1329130392b7d98d2f5b397015b9361277761276860a0611c779401516157ce565b8461277289615719565b6153bf565b5192516040519384938461443c565b8161279091613938565b6110b857855f612731565b634e487b7160e01b86526011600452602486fd5b6127c391503d8086833e6118148183613938565b5f612679565b5034610289576040366003190112610289576127e36138c6565b90602435906001600160401b038211610289576020610acc8461280936600487016139ac565b906148f5565b5034610289576020366003190112610289576003546040516314c2c26560e31b815260048035908201819052916001600160a01b03168382602481845afa91821561080f578492612a15575b506020820180519091906001600160a01b0316156129d357612882610140840151156147e0565b61289160e08401511515614820565b61010083015160095490603c820291808304603c14901517156110d1576128bb916126dc91613ead565b60a08301928584519360c083019485511093803b156109d85760405163111006db60e01b81526004810189905285151560248201529083908290604490829084905af18015610a1757859184916129ba575b5050612954575b50507f42ae7075f0e049265d5e31f7a5ba9ba5e0fb666e0ae8ecd6bb4dfa15b357567593612777611c779284606061294b8a615719565b92015191615214565b600354608084015191516001600160a01b03918216929116823b156119ff576129969284928360405180968195829463e525510760e01b8452600484016148a8565b03925af180156105a5571561291457816129af91613938565b6110b857855f612914565b819250906129c791613938565b6104315783825f61290d565b60405162461bcd60e51b815260206004820152601a602482015279105c1c1b1a58d85d1a5bdb88191bd95cc81b9bdd08195e1a5cdd60321b6044820152606490fd5b612a2a9192503d8086833e6114308183613938565b905f61285b565b50346102895760a036600319011261028957806004356001600160401b0381116106bf57612a639036906004016139e1565b6024356001600160401b0381116106bd57612a82903690600401613acd565b6044356001600160401b0381116106bb57612aa19036906004016139e1565b906064356001600160401b0381116109d457612ac19036906004016139e1565b916084356001600160401b0381116110b857612ae1903690600401613acd565b612ae9614d34565b6004546001600160a01b031691612b018315156145c1565b823b156111af57612b5495610699612b4293612b788a98612b668a966040519c8d9b8c9a8b9963118b2dd960e11b8b5260a060048c015260a48b0190614606565b8981036003190160248b01529061465e565b87810360031901604489015290614606565b85810360031901606487015290614606565b8381036003190160848501529061465e565b50346102895760a036600319011261028957612ba46138c6565b612bac6138dc565b6044356001600160a01b038116908190036119ff57612bc96138f2565b906084359260018060a01b0384168094036110b8575f516020615aa65f395f51905f5254604081901c60ff161595906001600160401b03811680159081612d6f575b6001149081612d65575b159081612d5c575b50612d4d576001600160401b031981166001175f516020615aa65f395f51905f5255612c5b919087612d25575b50612c5361590d565b6102b161590d565b612c6361590d565b85546001600160a01b03199081166001600160a01b039283161787556003805482169390931790925560058054909216921691909117905580612d0b575b506003600855603c6009556064600a55612cb85780f35b60ff60401b195f516020615aa65f395f51905f5254165f516020615aa65f395f51905f52557fc7f505b2f371ae2175ee4913f4499e1f2633a7b5936321eed1cdaeb6115181d2602060405160018152a180f35b600180546001600160a01b0319169190911790555f612ca1565b6001600160481b0319166001600160401b01175f516020615aa65f395f51905f52555f612c4a565b63f92ee8a960e01b8852600488fd5b9050155f612c1d565b303b159150612c15565b889150612c0b565b50346102895760c0366003190112610289576004356001600160401b03811161043157612da89036906004016139ac565b6024356001600160401b0381116109d857612dc79036906004016139ac565b6044356001600160401b0381116119ff57612de69036906004016139ac565b916064359160a4359360018060a01b0385168095036110b857612e0881613d92565b156130245785612e409160018060a01b0360035416604051808095819463a9daf6ad60e01b8352602060048401526024830190613b4b565b03915afa80156110ad57602091879161300a575b5001515160085411612fd157849060405192805193602081818401968088835e8101600c815203019020612e888154613d84565b9055612eee6001612eae6040516020818651808b835e8101600c81520301902054615719565b9560208060405198899382850197518091895e840190602d60f81b83830152805192839101602183015e010186838201520301601f198101865285613938565b6040519084518091835e600d90820190815281900360200190204290556003546001600160a01b0316803b156109d85760405163fec17fe960e01b815260a060048201529183918391829084908290612f6890612f4e60a484018c613b4b565b608435602485015283810360031901604485015290613b4b565b8b60648301528a608483015203925af180156105a557612fbc575b50506020612fb17f27fa90971b66777e07575f648a5fa9d7b1b4b0a755ec7646f0307165edd5f53f92614420565b92604051908152a380f35b81612fc691613938565b6119ff57835f612f83565b60405162461bcd60e51b81526020600482015260116024820152704f7261636c65206e6f742061637469766560781b6044820152606490fd5b61301e91503d8089833e6108018183613938565b5f612e54565b60405162461bcd60e51b815260206004820152602b60248201527f4f7261636c65206e6f7420616374697665202d2063616e6e6f7420726567697360448201526a746572206469737075746560a81b6064820152608490fd5b50346102895780600319360112610289576001546040516001600160a01b039091168152602090f35b5034610289576020366003190112610289576130c06138c6565b6130c8614d34565b600180546001600160a01b039283166001600160a01b0319821681179092559091167f9c4a3fabb33cb3d3fe4fde0ee645166e23d7fe00c47fa67cda8b698a68af3ccc8380a380f35b50346102895760203660031901126102895760206131356131306138c6565b61447a565b604051908152f35b50346102895780600319360112610289576020600854604051908152f35b5034610a0b576020366003190112610a0b576004356001600160401b038111610a0b5761318c9036906004016139ac565b6040516131b2825191602081818601948086835e8101600d815203019020541515613e55565b6020604051809284518091835e8101600d81520301902054600954603c810290808204603c1490151715613795576131e991613ead565b42106137565760035460405163a54294af60e01b815260206004820152906001600160a01b03165f82806132206024820187613b4b565b0381845afa9182156136ee575f9261373a575b506132446101208301511515613e55565b6101008201516136f957608082019081519160a084019283511091803b15610a0b575f60405180926325985c9760e21b82526040600483015281838161328d604482018d613b4b565b89602483015203925af180156136ee576136d9575b5060055486906001600160a01b0316806134f8575b50506003546040516349868b4160e01b81526020600482015290879082906001600160a01b031681806132ed602482018c613b4b565b03915afa9081156111bb5787916134d6575b505115806134c8575b806134b4575b1561348a5760608401805161332c906001600160a01b03168761556a565b908763ffffffff831692600384148015613477575b156133d1575050915f516020615a065f395f51905f52956133c4925f516020615a865f395f51905f526040610140611c779761339560018060a01b036001541660018060a01b038351168489015191615675565b519401516001600160a01b03909416936133ae8c614420565b9382519182526020820152a35b51935195614420565b946040519384938461443c565b60055483516101408a0151926001600160a01b0391821692909116803b156109d457613417938580946040519687958694859363301f825760e01b85526004850161431f565b03925af180156105a557613458575b5050915f516020615a065f395f51905f52956133c4925f516020615a865f395f51905f526040610140611c7797613395565b816134669195939495613938565b613473579190875f613426565b8780fd5b506005546001600160a01b031615613341565b6133c4611c77916134af6101405f516020615a065f395f51905f529701518589615024565b6133bb565b506001546001600160a01b0316151561330e565b506101408401511515613308565b6134f291503d8089833e6134ea8183613938565b810190614347565b5f6132ff565b61350187614daa565b6003546040516377e3240760e01b8152602060048201526001600160a01b03909116918482806135346024820185613b4b565b0381865afa9182156111ea5785926136b5575b506060890151602083018051879586958695948c9391926001600160a01b0391821692889216830361362157505050506135ff575b50505b806135ed575b613591575b50506132b7565b602088015192803b156109d4576135c2938580946040519687958694859363301f825760e01b85526004850161431f565b03925af180156105a5576135d8575b808061358a565b816135e291613938565b6110b857855f6135d1565b506001600160a01b0382161515613585565b516001600160a01b03169350600192506136199150614ec4565b905f8061357c565b91945092949194613637575b505050505061357f565b91939650919450613669935061012060019596015191604051809581948293632e68140160e11b845260048401614303565b03915afa9081156111ea5763ffffffff9160a0918791613693575b50015116905f8086818061362d565b6136af91503d8089833e6136a78183613938565b810190614158565b5f613684565b6136d29192503d8087833e6136ca8183613938565b810190613fbc565b905f613547565b6136e69196505f90613938565b5f945f6132a2565b6040513d5f823e3d90fd5b60405162461bcd60e51b8152602060048201526019602482015278111a5cdc1d5d1948185b1c9958591e48199a5b985b1a5e9959603a1b6044820152606490fd5b61374f9192503d805f833e6111db8183613938565b905f613233565b60405162461bcd60e51b8152602060048201526017602482015276159bdd1a5b99c81c195c9a5bd9081b9bdd08195b991959604a1b6044820152606490fd5b634e487b7160e01b5f52601160045260245ffd5b34610a0b576020366003190112610a0b576137c26138c6565b6137ca614d34565b600580546001600160a01b039283166001600160a01b0319821681179092559091167f9d4deb5ab4de88a4c0510604f0d3eb81d3d71a07a7f84ef56bad08c07083ca955f80a3005b34610a0b576020366003190112610a0b576004356001600160401b038111610a0b57610acc61384760209236906004016139ac565b613d92565b34610a0b576020366003190112610a0b576138656138c6565b61386d614d34565b6001600160a01b0316801561389257600780546001600160a01b031916919091179055005b60405162461bcd60e51b815260206004820152600c60248201526b5a65726f206164647265737360a01b6044820152606490fd5b600435906001600160a01b0382168203610a0b57565b602435906001600160a01b0382168203610a0b57565b606435906001600160a01b0382168203610a0b57565b61016081019081106001600160401b0382111761392457604052565b634e487b7160e01b5f52604160045260245ffd5b601f909101601f19168101906001600160401b0382119082101761392457604052565b6001600160401b03811161392457601f01601f191660200190565b9291926139828261395b565b916139906040519384613938565b829481845281830111610a0b578281602093845f960137010152565b9080601f83011215610a0b578160206139c793359101613976565b90565b6001600160401b0381116139245760051b60200190565b9080601f83011215610a0b5781356139f8816139ca565b92613a066040519485613938565b81845260208085019260051b82010191838311610a0b5760208201905b838210613a3257505050505090565b81356001600160401b038111610a0b57602091613a54878480948801016139ac565b815201910190613a23565b9080601f83011215610a0b57813590613a77826139ca565b92613a856040519485613938565b82845260208085019360051b820101918211610a0b57602001915b818310613aad5750505090565b82356001600160a01b0381168103610a0b57815260209283019201613aa0565b9080601f83011215610a0b578135613ae4816139ca565b92613af26040519485613938565b81845260208085019260051b82010191838311610a0b5760208201905b838210613b1e57505050505090565b81356001600160401b038111610a0b57602091613b4087848094880101613a5f565b815201910190613b0f565b805180835260209291819084018484015e5f828201840152601f01601f1916010190565b90602080835192838152019201905f5b818110613b8c5750505090565b82516001600160a01b0316845260209384019390920191600101613b7f565b81601f82011215610a0b57805190613bc28261395b565b92613bd06040519485613938565b82845260208383010111610a0b57815f9260208093018386015e8301015290565b51906001600160a01b0382168203610a0b57565b9080601f83011215610a0b578151613c1c816139ca565b92613c2a6040519485613938565b81845260208085019260051b820101928311610a0b57602001905b828210613c525750505090565b60208091613c5f84613bf1565b815201910190613c45565b602081830312610a0b578051906001600160401b038211610a0b570160a081830312610a0b576040519160a083016001600160401b038111848210176139245760405281516001600160401b038111610a0b5781613cc9918401613bab565b835260208201516001600160401b038111610a0b5781613cea918401613c05565b602084015260408201516001600160401b038111610a0b5781613d0e918401613bab565b604084015260608201516001600160401b038111610a0b5781613d32918401613bab565b606084015260808201516001600160401b038111610a0b57613d549201613c05565b608082015290565b8051821015613d705760209160051b010190565b634e487b7160e01b5f52603260045260245ffd5b5f1981146137955760010190565b5f613dc59160018060a01b0360035416604051808095819463a9daf6ad60e01b8352602060048401526024830190613b4b565b03915afa80156136ee576020915f91613e3b575b500180515115613e36575f5f5b82518051821015613e2a57613e09906001600160a01b0390610394908490613d5c565b613e16575b600101613de6565b90613e22600191613d84565b919050613e0e565b50509050600854111590565b505f90565b613e4f91503d805f833e6108018183613938565b5f613dd9565b15613e5c57565b60405162461bcd60e51b8152602060048201526016602482015275111a5cdc1d5d1948191bd95cc81b9bdd08195e1a5cdd60521b6044820152606490fd5b8181029291811591840414171561379557565b9190820180921161379557565b51908115158203610a0b57565b602081830312610a0b578051906001600160401b038211610a0b57019061016082820312610a0b5760405191613efc83613908565b80516001600160401b038111610a0b5782613f18918301613bab565b83526020818101519084015260408101516001600160401b038111610a0b5761014092613f46918301613bab565b6040840152613f5760608201613bf1565b60608401526080810151608084015260a081015160a0840152613f7c60c08201613eba565b60c0840152613f8d60e08201613eba565b60e0840152613f9f6101008201613eba565b610100840152610120810151610120840152015161014082015290565b602081830312610a0b578051906001600160401b038211610a0b570161014081830312610a0b576040519161014083016001600160401b038111848210176139245760405281516001600160401b038111610a0b578161401d918401613bab565b835261402b60208301613bf1565b602084015260408201516001600160401b038111610a0b578161404f918401613c05565b604084015260608201516001600160401b038111610a0b5781614073918401613bab565b6060840152608082015160ff81168103610a0b57608084015260a08201516001600160401b038111610a0b5782019080601f83011215610a0b5781516140b8816139ca565b926140c66040519485613938565b81845260208085019260051b82010191838311610a0b5760208201905b83821061412b575050505050906101209160a084015260c081015160c084015260e081015160e084015261411a6101008201613bf1565b610100840152015161012082015290565b81516001600160401b038111610a0b5760209161414d87848094880101613bab565b8152019101906140e3565b602081830312610a0b578051906001600160401b038211610a0b570160e081830312610a0b576040519160e083016001600160401b03811184821017613924576040528151835260208201516001600160401b038111610a0b57816141be918401613bab565b60208401526141cf60408301613bf1565b604084015260608201516001600160401b038111610a0b57816141f3918401613bab565b606084015260808201516001600160401b038111610a0b57820181601f82011215610a0b57805190614224826139ca565b926142326040519485613938565b82845260208085019360051b83010191818311610a0b5760208101935b83851061428b575050505050608083015260a081015163ffffffff81168103610a0b5760a08301526142839060c001613bf1565b60c082015290565b84516001600160401b038111610a0b5782016040818503601f190112610a0b5760408051929083016001600160401b03811184821017613924576040526020820151926001600160401b038411610a0b576040836142f0886020809881980101613bab565b835201518382015281520194019361424f565b92919061431a602091604086526040860190613b4b565b930152565b6001600160a01b039091168152602081019190915263ffffffff909116604082015260600190565b602081830312610a0b578051906001600160401b038211610a0b570181601f82011215610a0b5780519061437a826139ca565b926143886040519485613938565b82845260208085019360071b83010191818311610a0b57602001925b8284106143b2575050505090565b608084830312610a0b576040519060808201906001600160401b03821183831017613924576080926020926040526143e987613bf1565b81526143f6838801613bf1565b838201526040870151604082015261441060608801613eba565b60608201528152019301926143a4565b602090604051918183925191829101835e81015f815203902090565b60409194939260608201951515825260208201520152565b9190826080910312610a0b578151916020810151916139c7606060408401519301613eba565b5f80546001600160a01b031680614525575b506005546001600160a01b031691826144a6575b50905090565b604051635843905f60e01b81526001600160a01b03909116600482015291602090839060249082905afa9081156136ee575f916144ef575b6144e89250613ead565b805f6144a0565b90506020823d60201161451d575b8161450a60209383613938565b81010312610a0b576144e89151906144de565b3d91506144fd565b604051630733bdef60e41b81526001600160a01b038416600482015290608090829060249082905afa80156136ee575f905f925f9161458b575b5080614582575b614571575b5061448c565b61457b9250613e9a565b5f8061456b565b50801515614566565b9150506145b0915060803d6080116145ba575b6145a88183613938565b810190614454565b909291505f61455f565b503d61459e565b156145c857565b60405162461bcd60e51b815260206004820152601660248201527513dc9858db19481b585b9859d95c881b9bdd081cd95d60521b6044820152606490fd5b9080602083519182815201916020808360051b8301019401925f915b83831061463157505050505090565b909192939460208061464f600193601f198682030187528951613b4b565b97019301930191939290614622565b9080602083519182815201916020808360051b8301019401925f915b83831061468957505050505090565b9091929394601f19828203018352855190602080835192838152019201905f905b8082106146c9575050506020806001929701930193019193929061467a565b82516001600160a01b03168452602093840193909201916001909101906146aa565b602081830312610a0b578051906001600160401b038211610a0b570161016081830312610a0b576040519161471f83613908565b8151835261472f60208301613bf1565b602084015260408201516001600160401b038111610a0b5781614753918401613bab565b6040840152606082810151908401526080820151916001600160401b038311610a0b57614788610140926147d7948301613bab565b608085015260a081015160a085015260c081015160c08501526147ad60e08201613eba565b60e08501526101008101516101008501526147cb6101208201613eba565b61012085015201613eba565b61014082015290565b156147e757565b60405162461bcd60e51b8152602060048201526011602482015270105b1c9958591e48199a5b985b1a5e9959607a1b6044820152606490fd5b1561482757565b60405162461bcd60e51b8152602060048201526011602482015270566f74696e67206e6f742061637469766560781b6044820152606490fd5b1561486757565b60405162461bcd60e51b8152602060048201526019602482015278159bdd1a5b99c81c195c9a5bd9081b9bdd08195e1c1a5c9959603a1b6044820152606490fd5b906148c0602091949394604084526040840190613b4b565b6001600160a01b03909416910152565b90602082820312610a0b5781516001600160401b038111610a0b576139c79201613c05565b5f6149289260018060a01b036003541660405180809681946332b8e0c760e21b8352602060048401526024830190613b4b565b03915afa9182156136ee575f92614980575b505f5b8251811015614979576001600160a01b036149588285613d5c565b51166001600160a01b038316146149715760010161493d565b505050600190565b5050505f90565b6149959192503d805f833e6104158183613938565b905f61493a565b602081830312610a0b578051906001600160401b038211610a0b570161018081830312610a0b576040519161018083016001600160401b0381118482101761392457604052815183526149f160208301613bf1565b602084015260408201516001600160401b038111610a0b5781614a15918401613bab565b604084015260608201516001600160401b038111610a0b5781614a39918401613bab565b606084015260808201516001600160401b038111610a0b5781614a5d918401613bab565b608084015260a0820151916001600160401b038311610a0b57614a8861016092614ad9948301613bab565b60a085015260c081015160c085015260e081015160e0850152614aae6101008201613eba565b610100850152610120810151610120850152614acd6101408201613eba565b61014085015201613eba565b61016082015290565b15614ae957565b60405162461bcd60e51b8152602060048201526024808201527f41736b417468656e61206170706c69636174696f6e20646f6573206e6f7420656044820152631e1a5cdd60e21b6064820152608490fd5b15614b4157565b60405162461bcd60e51b815260206004820152601f60248201527f4f6e6c792044414f2063616e2063616c6c20746869732066756e6374696f6e006044820152606490fd5b9081526001600160a01b039182166020820152911660408201526060810191909152901515608082015260a00190565b5f546001600160a01b031680614c53575b506005546001600160a01b03169081614be05750505f90565b604051635843905f60e01b81526001600160a01b03909116600482015290602090829060249082905afa9081156136ee575f91614c21575b50600a54111590565b90506020813d602011614c4b575b81614c3c60209383613938565b81010312610a0b57515f614c18565b3d9150614c2f565b604051630733bdef60e41b81526001600160a01b038316600482015290608090829060249082905afa9081156136ee575f905f92614cb1575b5081614ca4575b50614c9e575f614bc7565b50600190565b9050600a5411155f614c93565b9050614ccc915060803d6080116145ba576145a88183613938565b929150505f614c8c565b6001600160a01b03168015614d21575f5160206159c65f395f51905f5280546001600160a01b0319811683179091556001600160a01b03165f516020615a465f395f51905f525f80a3565b631e4fbdf760e01b5f525f60045260245ffd5b5f5160206159c65f395f51905f52546001600160a01b03163303614d5457565b63118cdaa760e01b5f523360045260245ffd5b908151811015613d70570160200190565b90614d828261395b565b614d8f6040519182613938565b8281528092614da0601f199161395b565b0190602036910137565b905f198251805b614e07575b505f198114614e0457614dc881614d78565b905f5b818110614dd9575090925050565b6001906001600160f81b0319614def8288614d67565b51165f1a614dfd8286614d67565b5301614dcb565b50565b5f19810181811161379557602d60f81b6001600160f81b0319614e2a8388614d67565b511614614e42575b508015613795575f190180614db1565b6001949293919493855b8451811015614eba57600360fc1b6001600160f81b0319614e6d8388614d67565b5116108015614e99575b614e8357600101614e4c565b5092949193505f5b15614e32579150505f614db6565b50603960f81b6001600160f81b0319614eb28388614d67565b511611614e77565b5092949193614e8b565b905f905f5b8351811015614fff57602d60f81b6001600160f81b0319614eea8387614d67565b511614614ef957600101614ec9565b9091505b8015614ff957614f0c81614d78565b905f5b818110614fce575050614f239192506157ce565b619ce181148015614fc2575b15614f3957505f90565b60018103614f4657505f90565b619d2881148015614fb6575b15614f5d5750600290565b600a8103614f6b5750600290565b619d2781148015614faa575b15614f825750600390565b61759e8114908115614f9e575b5015614f9a57600390565b5f90565b61a4b19150145f614f8f565b5062066eee8114614f77565b5062aa37dc8114614f52565b5062aa36a78114614f2f565b6001906001600160f81b0319614fe48288614d67565b51165f1a614ff28286614d67565b5301614f0f565b505f9150565b5090614efd565b8115615010570490565b634e487b7160e01b5f52601260045260245ffd5b92909282158015615201575b6151fb576003546040516349868b4160e01b81526020600482015292905f9084906001600160a01b031681806150696024820188613b4b565b03915afa9283156136ee575f936151df575b508251156151d8575f915f5b84518110156150d657606061509c8287613d5c565b5101511515871515146150b2575b600101615087565b926150ce60019160406150c58789613d5c565b51015190613ead565b9390506150aa565b5092919493909480156151d1575f5b83518110156151c9578060606150fd60019387613d5c565b510151151587151514806151ab575b615117575b016150e5565b61513883615133604061512a858a613d5c565b51015187613e9a565b615006565b80615144575b50615111565b61516d81848060a01b03855416858060a01b036020615163878c613d5c565b5101511690615675565b828060a01b03602061517f8489613d5c565b51015116905f5160206159e65f395f51905f52602061519d8a614420565b92604051908152a35f61513e565b50818060a01b0360206151be8388613d5c565b51015116151561510c565b505050505050565b5050505050565b9350505050565b6151f49193503d805f833e6134ea8183613938565b915f61507b565b50915050565b506001546001600160a01b031615615030565b929092821580156153ac575b6151fb576003546001600160a01b0316915f61523b836157ce565b6024604051809681936388fc75f560e01b835260048301525afa9283156136ee575f93615390575b508251156151d8575f915f5b84518110156152b55760606152848287613d5c565b51015115158715151461529a575b60010161526f565b926152ad60019160406150c58789613d5c565b939050615292565b5092919493909480156151d1575f5b83518110156151c9578060606152dc60019387613d5c565b51015115158715151480615372575b6152f6575b016152c4565b61530983615133604061512a858a613d5c565b80615315575b506152f0565b61533481848060a01b03855416858060a01b036020615163878c613d5c565b828060a01b0360206153468489613d5c565b51015116905f5160206159e65f395f51905f5260206153648a614420565b92604051908152a35f61530f565b50818060a01b0360206153858388613d5c565b5101511615156152eb565b6153a59193503d805f833e6134ea8183613938565b915f615263565b506001546001600160a01b031615615220565b92909282158015615557575b6151fb576003546001600160a01b0316915f6153e6836157ce565b6024604051809681936365c5ef1760e11b835260048301525afa9283156136ee575f9361553b575b508251156151d8575f915f5b845181101561546057606061542f8287613d5c565b510151151587151514615445575b60010161541a565b9261545860019160406150c58789613d5c565b93905061543d565b5092919493909480156151d1575f5b83518110156151c95780606061548760019387613d5c565b5101511515871515148061551d575b6154a1575b0161546f565b6154b483615133604061512a858a613d5c565b806154c0575b5061549b565b6154df81848060a01b03855416858060a01b036020615163878c613d5c565b828060a01b0360206154f18489613d5c565b51015116905f5160206159e65f395f51905f52602061550f8a614420565b92604051908152a35f6154ba565b50818060a01b0360206155308388613d5c565b510151161515615496565b6155509193503d805f833e6134ea8183613938565b915f61540e565b506001546001600160a01b0316156153cb565b61557390614daa565b6003546040516377e3240760e01b81526020600482015291926001600160a01b0390911691905f82806155a96024820188613b4b565b0381865afa9182156136ee575f92615659575b506101008201516001600160a01b039182169116148061564b575b6155e65750506139c790614ec4565b915f9161012061560f94015191604051809581948293632e68140160e11b845260048401614303565b03915afa9081156136ee5763ffffffff9160a0915f91615631575b5001511690565b61564591503d805f833e6136a78183613938565b5f61562a565b5061012081015115156155d7565b61566e9192503d805f833e6136ca8183613938565b905f6155bc565b5f6156ce92819260405195602087019263a9059cbb60e01b845260018060a01b031660248801526044870152604486526156b0606487613938565b60018060a01b031694519082865af16156c7615938565b9083615967565b80519081151591826156f6575b50506156e45750565b635274afe760e01b5f5260045260245ffd5b8192509060209181010312610a0b5760206157119101613eba565b155f806156db565b80156157ae5780815f925b61579a57508061573383614d78565b92915b61573f57505090565b5f1982019182116137955781600a820491600a8302838104600a14841517156137955781039081116137955760ff1660300160ff81116137955760f81b6001600160f81b0319165f1a906157939085614d67565b5380615736565b916157a6600a91613d84565b920480615724565b506040516157bd604082613938565b60018152600360fc1b602082015290565b905f915f5b815181101561587057600360fc1b6001600160f81b03196157f48385614d67565b511610158061584e575b61580b575b6001016157d3565b92600a810290808204600a1490151715613795576158298483614d67565b5160f81c90602f1982019182116137955760019161584691613ead565b939050615803565b50603960f81b6001600160f81b03196158678385614d67565b511611156157fe565b5050565b9081526001600160a01b03909116602082015260400190565b1561589457565b60405162461bcd60e51b8152602060048201526019602482015278159bdd1a5b99c81c195c9a5bd9081a185cc8195e1c1a5c9959603a1b6044820152606490fd5b6040919493926060820195825260208201520152565b61590360409295949395606083526060830190613b4b565b9460208201520152565b60ff5f516020615aa65f395f51905f525460401c161561592957565b631afcd79f60e31b5f5260045ffd5b3d15615962573d906159498261395b565b916159576040519384613938565b82523d5f602084013e565b606090565b9061598b575080511561597c57805190602001fd5b630a12f52160e11b5f5260045ffd5b815115806159bc575b61599c575090565b639996b31560e01b5f9081526001600160a01b0391909116600452602490fd5b50803b1561599456fe9016d09d72d40fdae2fd8ceac6b6234c7706214fd39c1cd1e609a0528c199300d938ce505b0ec3972a4e38680375ecf020ac1ef1b034b8949bb085d64612affeed25bcfa568ce67a8d1dcba7cd4bbb9e104cf89b13efe702b2a371df5d590559360894a13ba1a3210667c828492db98dca3e2076cc3735a920a3ca505d382bbc8be0079c531659141344cd1fd0a4f28419497f9722a3daafe3b4186f6b6457e0bc7cd75a20ee27fd9adebab32041f755214dbc6bffa90cc0225b39da2e5c2d3bb96a6d6fc4275c8ca21896599a9a4c764dd0ba8ea02b114a300018499eb7fa88f0c57e16840df040f15088dc2f81fe391c3923bec73e23a9662efc9c229c6a00a26469706673582212206583afb91f36c67e181c764367264f2fe105c704dabfe57cfe181d5c2d8d09d064736f6c63430008210033f0c57e16840df040f15088dc2f81fe391c3923bec73e23a9662efc9c229c6a00","linkReferences":{}},"methodIdentifiers":{"UPGRADE_INTERFACE_VERSION()":"ad3cb1cc","accumulatedFees()":"587f5ed7","addMembers(address[],string)":"d3075f2a","addOrUpdateOracle(string[],address[][],string[],string[],address[][])":"23165bb2","addSingleOracle(string,address[],string,string,address[])":"4a9fe8f9","athenaClient()":"86b6147f","bridge()":"e78cea92","canVote(address)":"adfaa72e","daoContract()":"4a7ffcbc","disputeStartTimes(string)":"6601d962","finalizeSkillVerification(uint256)":"2af7a0b3","genesis()":"a7f0b3de","getOracleActiveMemberCount(string)":"dc2969eb","getOracleMembers(string)":"cae3831c","getUserVotingPower(address)":"0baca2e5","handleAskAthena(address,string,string,string,string)":"7086f548","handleRaiseDispute(string,string,string,uint256,uint256,address)":"144e49b2","handleSubmitSkillVerification(address,string,uint256,string)":"b90efe2e","initialize(address,address,address,address,address)":"1459457a","isOracleActive(string)":"0308b414","isOracleMember(address,string)":"3948e446","jobDisputeCounters(string)":"ba56261e","memberActivityThresholdDays()":"f24b6b37","minOracleMembers()":"0b9abbfa","minStakeRequired()":"502f6826","nowjContract()":"787bb310","oracleManager()":"565d878c","owner()":"8da5cb5b","proxiableUUID()":"52d1902d","removeMemberFromOracle(string,address)":"add6beaf","removeOracle(string[])":"40db1a79","renounceOwnership()":"715018a6","setAthenaClient(address)":"02a63e84","setBridge(address)":"8dd14802","setDAOContract(address)":"425d512a","setGenesis(address)":"eb14b353","setNOWJContract(address)":"059c2080","setOracleManager(address)":"929e2e08","setUSDCToken(address)":"0f5a9d01","settleAskAthena(uint256)":"3c9ce794","settleDispute(string)":"0a8eef76","transferOwnership(address)":"f2fde38b","updateMemberActivityThreshold(uint256)":"ad8d3435","updateMinOracleMembers(uint256)":"4dea6307","updateMinStakeRequired(uint256)":"d93e1184","updateOracleActiveStatus(string)":"ee0a5858","updateVotingPeriod(uint256)":"ef00ef43","upgradeFromDAO(address)":"40634e3b","upgradeToAndCall(address,bytes)":"4f1ef286","usdcToken()":"11eac855","vote(uint8,string,bool,address)":"887e15dc","votingPeriodMinutes()":"f67321c6","withdraw()":"3ccfd60b"},"id":20}