{"abi":[{"type":"constructor","inputs":[],"stateMutability":"nonpayable"},{"type":"function","name":"UPGRADE_INTERFACE_VERSION","inputs":[],"outputs":[{"name":"","type":"string","internalType":"string"}],"stateMutability":"view"},{"type":"function","name":"accumulatedCommission","inputs":[],"outputs":[{"name":"","type":"uint256","internalType":"uint256"}],"stateMutability":"view"},{"type":"function","name":"addAuthorizedContract","inputs":[{"name":"contractAddress","type":"address","internalType":"address"}],"outputs":[],"stateMutability":"nonpayable"},{"type":"function","name":"admins","inputs":[{"name":"","type":"address","internalType":"address"}],"outputs":[{"name":"","type":"bool","internalType":"bool"}],"stateMutability":"view"},{"type":"function","name":"applyToJob","inputs":[{"name":"_applicant","type":"address","internalType":"address"},{"name":"_jobId","type":"string","internalType":"string"},{"name":"_applicationHash","type":"string","internalType":"string"},{"name":"_descriptions","type":"string[]","internalType":"string[]"},{"name":"_amounts","type":"uint256[]","internalType":"uint256[]"},{"name":"_preferredChainDomain","type":"uint32","internalType":"uint32"}],"outputs":[],"stateMutability":"nonpayable"},{"type":"function","name":"authorizedContracts","inputs":[{"name":"","type":"address","internalType":"address"}],"outputs":[{"name":"","type":"bool","internalType":"bool"}],"stateMutability":"view"},{"type":"function","name":"bridge","inputs":[],"outputs":[{"name":"","type":"address","internalType":"address"}],"stateMutability":"view"},{"type":"function","name":"calculateCommission","inputs":[{"name":"amount","type":"uint256","internalType":"uint256"}],"outputs":[{"name":"","type":"uint256","internalType":"uint256"}],"stateMutability":"view"},{"type":"function","name":"calculateTokensForAmount","inputs":[{"name":"","type":"address","internalType":"address"},{"name":"additionalAmount","type":"uint256","internalType":"uint256"}],"outputs":[{"name":"","type":"uint256","internalType":"uint256"}],"stateMutability":"view"},{"type":"function","name":"cctpReceiver","inputs":[],"outputs":[{"name":"","type":"address","internalType":"address"}],"stateMutability":"view"},{"type":"function","name":"cctpTransceiver","inputs":[],"outputs":[{"name":"","type":"address","internalType":"address"}],"stateMutability":"view"},{"type":"function","name":"commissionPercentage","inputs":[],"outputs":[{"name":"","type":"uint256","internalType":"uint256"}],"stateMutability":"view"},{"type":"function","name":"genesis","inputs":[],"outputs":[{"name":"","type":"address","internalType":"contract IOpenworkGenesis"}],"stateMutability":"view"},{"type":"function","name":"getJob","inputs":[{"name":"_jobId","type":"string","internalType":"string"}],"outputs":[{"name":"","type":"tuple","internalType":"struct IOpenworkGenesis.Job","components":[{"name":"id","type":"string","internalType":"string"},{"name":"jobGiver","type":"address","internalType":"address"},{"name":"applicants","type":"address[]","internalType":"address[]"},{"name":"jobDetailHash","type":"string","internalType":"string"},{"name":"status","type":"uint8","internalType":"enum IOpenworkGenesis.JobStatus"},{"name":"workSubmissions","type":"string[]","internalType":"string[]"},{"name":"milestonePayments","type":"tuple[]","internalType":"struct IOpenworkGenesis.MilestonePayment[]","components":[{"name":"descriptionHash","type":"string","internalType":"string"},{"name":"amount","type":"uint256","internalType":"uint256"}]},{"name":"finalMilestones","type":"tuple[]","internalType":"struct IOpenworkGenesis.MilestonePayment[]","components":[{"name":"descriptionHash","type":"string","internalType":"string"},{"name":"amount","type":"uint256","internalType":"uint256"}]},{"name":"totalPaid","type":"uint256","internalType":"uint256"},{"name":"currentMilestone","type":"uint256","internalType":"uint256"},{"name":"selectedApplicant","type":"address","internalType":"address"},{"name":"selectedApplicationId","type":"uint256","internalType":"uint256"}]}],"stateMutability":"view"},{"type":"function","name":"getUserEarnedTokens","inputs":[{"name":"user","type":"address","internalType":"address"}],"outputs":[{"name":"","type":"uint256","internalType":"uint256"}],"stateMutability":"view"},{"type":"function","name":"getUserGovernanceActions","inputs":[{"name":"user","type":"address","internalType":"address"}],"outputs":[{"name":"","type":"uint256","internalType":"uint256"}],"stateMutability":"view"},{"type":"function","name":"getUserGovernanceActionsInBand","inputs":[{"name":"user","type":"address","internalType":"address"},{"name":"band","type":"uint256","internalType":"uint256"}],"outputs":[{"name":"","type":"uint256","internalType":"uint256"}],"stateMutability":"view"},{"type":"function","name":"getUserRewardInfo","inputs":[{"name":"user","type":"address","internalType":"address"}],"outputs":[{"name":"totalTokens","type":"uint256","internalType":"uint256"},{"name":"governanceActions","type":"uint256","internalType":"uint256"}],"stateMutability":"view"},{"type":"function","name":"handleReleasePaymentCrossChain","inputs":[{"name":"_jobGiver","type":"address","internalType":"address"},{"name":"_jobId","type":"string","internalType":"string"},{"name":"_amount","type":"uint256","internalType":"uint256"},{"name":"_targetChainDomain","type":"uint32","internalType":"uint32"},{"name":"_targetRecipient","type":"address","internalType":"address"}],"outputs":[],"stateMutability":"nonpayable"},{"type":"function","name":"handleStartDirectContract","inputs":[{"name":"_jobGiver","type":"address","internalType":"address"},{"name":"_jobTaker","type":"address","internalType":"address"},{"name":"_jobId","type":"string","internalType":"string"},{"name":"_jobDetailHash","type":"string","internalType":"string"},{"name":"_descriptions","type":"string[]","internalType":"string[]"},{"name":"_amounts","type":"uint256[]","internalType":"uint256[]"},{"name":"_jobTakerChainDomain","type":"uint32","internalType":"uint32"}],"outputs":[],"stateMutability":"nonpayable"},{"type":"function","name":"handleUpdateUserClaimData","inputs":[{"name":"user","type":"address","internalType":"address"},{"name":"claimedTokens","type":"uint256","internalType":"uint256"}],"outputs":[],"stateMutability":"nonpayable"},{"type":"function","name":"incrementGovernanceAction","inputs":[{"name":"user","type":"address","internalType":"address"}],"outputs":[],"stateMutability":"nonpayable"},{"type":"function","name":"initialize","inputs":[{"name":"_owner","type":"address","internalType":"address"},{"name":"_bridge","type":"address","internalType":"address"},{"name":"_genesis","type":"address","internalType":"address"},{"name":"_rewardsContract","type":"address","internalType":"address"},{"name":"_usdcToken","type":"address","internalType":"address"},{"name":"_cctpReceiver","type":"address","internalType":"address"}],"outputs":[],"stateMutability":"nonpayable"},{"type":"function","name":"isAuthorizedContract","inputs":[{"name":"contractAddress","type":"address","internalType":"address"}],"outputs":[{"name":"","type":"bool","internalType":"bool"}],"stateMutability":"view"},{"type":"function","name":"jobApplicantChainDomain","inputs":[{"name":"","type":"string","internalType":"string"},{"name":"","type":"address","internalType":"address"}],"outputs":[{"name":"","type":"uint32","internalType":"uint32"}],"stateMutability":"view"},{"type":"function","name":"lockNextMilestone","inputs":[{"name":"","type":"address","internalType":"address"},{"name":"_jobId","type":"string","internalType":"string"},{"name":"_lockedAmount","type":"uint256","internalType":"uint256"}],"outputs":[],"stateMutability":"nonpayable"},{"type":"function","name":"minCommission","inputs":[],"outputs":[{"name":"","type":"uint256","internalType":"uint256"}],"stateMutability":"view"},{"type":"function","name":"nativeAthena","inputs":[],"outputs":[{"name":"","type":"address","internalType":"address"}],"stateMutability":"view"},{"type":"function","name":"nativeDAO","inputs":[],"outputs":[{"name":"","type":"address","internalType":"address"}],"stateMutability":"view"},{"type":"function","name":"owner","inputs":[],"outputs":[{"name":"","type":"address","internalType":"address"}],"stateMutability":"view"},{"type":"function","name":"postJob","inputs":[{"name":"_jobId","type":"string","internalType":"string"},{"name":"_jobGiver","type":"address","internalType":"address"},{"name":"_jobDetailHash","type":"string","internalType":"string"},{"name":"_descriptions","type":"string[]","internalType":"string[]"},{"name":"_amounts","type":"uint256[]","internalType":"uint256[]"}],"outputs":[],"stateMutability":"nonpayable"},{"type":"function","name":"proxiableUUID","inputs":[],"outputs":[{"name":"","type":"bytes32","internalType":"bytes32"}],"stateMutability":"view"},{"type":"function","name":"releaseDisputedFunds","inputs":[{"name":"_recipient","type":"address","internalType":"address"},{"name":"_amount","type":"uint256","internalType":"uint256"},{"name":"_targetChainDomain","type":"uint32","internalType":"uint32"}],"outputs":[],"stateMutability":"nonpayable"},{"type":"function","name":"releasePaymentAndLockNext","inputs":[{"name":"_jobGiver","type":"address","internalType":"address"},{"name":"_jobId","type":"string","internalType":"string"},{"name":"_releasedAmount","type":"uint256","internalType":"uint256"},{"name":"_lockedAmount","type":"uint256","internalType":"uint256"}],"outputs":[],"stateMutability":"nonpayable"},{"type":"function","name":"removeAuthorizedContract","inputs":[{"name":"contractAddress","type":"address","internalType":"address"}],"outputs":[],"stateMutability":"nonpayable"},{"type":"function","name":"renounceOwnership","inputs":[],"outputs":[],"stateMutability":"nonpayable"},{"type":"function","name":"rewardsContract","inputs":[],"outputs":[{"name":"","type":"address","internalType":"contract IOpenWorkRewards"}],"stateMutability":"view"},{"type":"function","name":"setAdmin","inputs":[{"name":"_admin","type":"address","internalType":"address"},{"name":"_status","type":"bool","internalType":"bool"}],"outputs":[],"stateMutability":"nonpayable"},{"type":"function","name":"setApplicantChainDomain","inputs":[{"name":"_jobId","type":"string","internalType":"string"},{"name":"_applicant","type":"address","internalType":"address"},{"name":"_chainDomain","type":"uint32","internalType":"uint32"}],"outputs":[],"stateMutability":"nonpayable"},{"type":"function","name":"setBridge","inputs":[{"name":"_bridge","type":"address","internalType":"address"}],"outputs":[],"stateMutability":"nonpayable"},{"type":"function","name":"setCCTPReceiver","inputs":[{"name":"_cctpReceiver","type":"address","internalType":"address"}],"outputs":[],"stateMutability":"nonpayable"},{"type":"function","name":"setCCTPTransceiver","inputs":[{"name":"_cctpTransceiver","type":"address","internalType":"address"}],"outputs":[],"stateMutability":"nonpayable"},{"type":"function","name":"setCommissionPercentage","inputs":[{"name":"_percentage","type":"uint256","internalType":"uint256"}],"outputs":[],"stateMutability":"nonpayable"},{"type":"function","name":"setGenesis","inputs":[{"name":"_genesis","type":"address","internalType":"address"}],"outputs":[],"stateMutability":"nonpayable"},{"type":"function","name":"setMinCommission","inputs":[{"name":"_minCommission","type":"uint256","internalType":"uint256"}],"outputs":[],"stateMutability":"nonpayable"},{"type":"function","name":"setNativeAthena","inputs":[{"name":"_nativeAthena","type":"address","internalType":"address"}],"outputs":[],"stateMutability":"nonpayable"},{"type":"function","name":"setNativeDAO","inputs":[{"name":"_nativeDAO","type":"address","internalType":"address"}],"outputs":[],"stateMutability":"nonpayable"},{"type":"function","name":"setRewardsContract","inputs":[{"name":"_rewardsContract","type":"address","internalType":"address"}],"outputs":[],"stateMutability":"nonpayable"},{"type":"function","name":"setTreasury","inputs":[{"name":"_treasury","type":"address","internalType":"address"}],"outputs":[],"stateMutability":"nonpayable"},{"type":"function","name":"setUsdcToken","inputs":[{"name":"_newToken","type":"address","internalType":"address"}],"outputs":[],"stateMutability":"nonpayable"},{"type":"function","name":"startJob","inputs":[{"name":"","type":"address","internalType":"address"},{"name":"_jobId","type":"string","internalType":"string"},{"name":"_applicationId","type":"uint256","internalType":"uint256"},{"name":"_useApplicantMilestones","type":"bool","internalType":"bool"}],"outputs":[],"stateMutability":"nonpayable"},{"type":"function","name":"submitWork","inputs":[{"name":"_applicant","type":"address","internalType":"address"},{"name":"_jobId","type":"string","internalType":"string"},{"name":"_submissionHash","type":"string","internalType":"string"}],"outputs":[],"stateMutability":"nonpayable"},{"type":"function","name":"syncRewardsData","inputs":[{"name":"_options","type":"bytes","internalType":"bytes"}],"outputs":[],"stateMutability":"payable"},{"type":"function","name":"teamTokensAllocated","inputs":[{"name":"user","type":"address","internalType":"address"}],"outputs":[{"name":"","type":"uint256","internalType":"uint256"}],"stateMutability":"view"},{"type":"function","name":"transferOwnership","inputs":[{"name":"newOwner","type":"address","internalType":"address"}],"outputs":[],"stateMutability":"nonpayable"},{"type":"function","name":"treasury","inputs":[],"outputs":[{"name":"","type":"address","internalType":"address"}],"stateMutability":"view"},{"type":"function","name":"upgradeFromDAO","inputs":[{"name":"newImplementation","type":"address","internalType":"address"}],"outputs":[],"stateMutability":"nonpayable"},{"type":"function","name":"upgradeToAndCall","inputs":[{"name":"newImplementation","type":"address","internalType":"address"},{"name":"data","type":"bytes","internalType":"bytes"}],"outputs":[],"stateMutability":"payable"},{"type":"function","name":"usdcToken","inputs":[],"outputs":[{"name":"","type":"address","internalType":"contract IERC20"}],"stateMutability":"view"},{"type":"function","name":"withdrawAllCommission","inputs":[],"outputs":[],"stateMutability":"nonpayable"},{"type":"function","name":"withdrawCommission","inputs":[{"name":"amount","type":"uint256","internalType":"uint256"}],"outputs":[],"stateMutability":"nonpayable"},{"type":"event","name":"AdminUpdated","inputs":[{"name":"admin","type":"address","indexed":true,"internalType":"address"},{"name":"status","type":"bool","indexed":false,"internalType":"bool"}],"anonymous":false},{"type":"event","name":"AuthorizedContractAdded","inputs":[{"name":"contractAddress","type":"address","indexed":true,"internalType":"address"}],"anonymous":false},{"type":"event","name":"AuthorizedContractRemoved","inputs":[{"name":"contractAddress","type":"address","indexed":true,"internalType":"address"}],"anonymous":false},{"type":"event","name":"BridgeUpdated","inputs":[{"name":"oldBridge","type":"address","indexed":true,"internalType":"address"},{"name":"newBridge","type":"address","indexed":true,"internalType":"address"}],"anonymous":false},{"type":"event","name":"ClaimDataUpdated","inputs":[{"name":"user","type":"address","indexed":true,"internalType":"address"},{"name":"claimedJobTokens","type":"uint256","indexed":false,"internalType":"uint256"},{"name":"claimedGovernanceTokens","type":"uint256","indexed":false,"internalType":"uint256"}],"anonymous":false},{"type":"event","name":"CommissionDeducted","inputs":[{"name":"jobId","type":"string","indexed":true,"internalType":"string"},{"name":"grossAmount","type":"uint256","indexed":false,"internalType":"uint256"},{"name":"commission","type":"uint256","indexed":false,"internalType":"uint256"},{"name":"netAmount","type":"uint256","indexed":false,"internalType":"uint256"}],"anonymous":false},{"type":"event","name":"CommissionPercentageUpdated","inputs":[{"name":"oldPercentage","type":"uint256","indexed":false,"internalType":"uint256"},{"name":"newPercentage","type":"uint256","indexed":false,"internalType":"uint256"}],"anonymous":false},{"type":"event","name":"CommissionWithdrawn","inputs":[{"name":"treasury","type":"address","indexed":true,"internalType":"address"},{"name":"amount","type":"uint256","indexed":false,"internalType":"uint256"}],"anonymous":false},{"type":"event","name":"DisputedFundsReleased","inputs":[{"name":"jobId","type":"string","indexed":true,"internalType":"string"},{"name":"winner","type":"address","indexed":true,"internalType":"address"},{"name":"winnerChainDomain","type":"uint32","indexed":false,"internalType":"uint32"},{"name":"amount","type":"uint256","indexed":false,"internalType":"uint256"}],"anonymous":false},{"type":"event","name":"GenesisUpdated","inputs":[{"name":"oldGenesis","type":"address","indexed":true,"internalType":"address"},{"name":"newGenesis","type":"address","indexed":true,"internalType":"address"}],"anonymous":false},{"type":"event","name":"GovernanceActionIncremented","inputs":[{"name":"user","type":"address","indexed":true,"internalType":"address"},{"name":"newGovernanceActionCount","type":"uint256","indexed":false,"internalType":"uint256"},{"name":"band","type":"uint256","indexed":true,"internalType":"uint256"}],"anonymous":false},{"type":"event","name":"Initialized","inputs":[{"name":"version","type":"uint64","indexed":false,"internalType":"uint64"}],"anonymous":false},{"type":"event","name":"JobApplication","inputs":[{"name":"jobId","type":"string","indexed":true,"internalType":"string"},{"name":"applicationId","type":"uint256","indexed":true,"internalType":"uint256"},{"name":"applicant","type":"address","indexed":true,"internalType":"address"},{"name":"applicationHash","type":"string","indexed":false,"internalType":"string"}],"anonymous":false},{"type":"event","name":"JobPosted","inputs":[{"name":"jobId","type":"string","indexed":true,"internalType":"string"},{"name":"jobGiver","type":"address","indexed":true,"internalType":"address"},{"name":"jobDetailHash","type":"string","indexed":false,"internalType":"string"}],"anonymous":false},{"type":"event","name":"JobStarted","inputs":[{"name":"jobId","type":"string","indexed":true,"internalType":"string"},{"name":"applicationId","type":"uint256","indexed":true,"internalType":"uint256"},{"name":"selectedApplicant","type":"address","indexed":true,"internalType":"address"},{"name":"useApplicantMilestones","type":"bool","indexed":false,"internalType":"bool"}],"anonymous":false},{"type":"event","name":"JobStatusChanged","inputs":[{"name":"jobId","type":"string","indexed":true,"internalType":"string"},{"name":"newStatus","type":"uint8","indexed":false,"internalType":"enum IOpenworkGenesis.JobStatus"}],"anonymous":false},{"type":"event","name":"MilestoneLocked","inputs":[{"name":"jobId","type":"string","indexed":true,"internalType":"string"},{"name":"newMilestone","type":"uint256","indexed":false,"internalType":"uint256"},{"name":"lockedAmount","type":"uint256","indexed":false,"internalType":"uint256"}],"anonymous":false},{"type":"event","name":"MinCommissionUpdated","inputs":[{"name":"oldMin","type":"uint256","indexed":false,"internalType":"uint256"},{"name":"newMin","type":"uint256","indexed":false,"internalType":"uint256"}],"anonymous":false},{"type":"event","name":"NativeAthenaUpdated","inputs":[{"name":"oldNativeAthena","type":"address","indexed":true,"internalType":"address"},{"name":"newNativeAthena","type":"address","indexed":true,"internalType":"address"}],"anonymous":false},{"type":"event","name":"NativeDAOUpdated","inputs":[{"name":"oldNativeDAO","type":"address","indexed":true,"internalType":"address"},{"name":"newNativeDAO","type":"address","indexed":true,"internalType":"address"}],"anonymous":false},{"type":"event","name":"OwnershipTransferred","inputs":[{"name":"previousOwner","type":"address","indexed":true,"internalType":"address"},{"name":"newOwner","type":"address","indexed":true,"internalType":"address"}],"anonymous":false},{"type":"event","name":"PaymentReleased","inputs":[{"name":"jobId","type":"string","indexed":true,"internalType":"string"},{"name":"jobGiver","type":"address","indexed":true,"internalType":"address"},{"name":"applicant","type":"address","indexed":true,"internalType":"address"},{"name":"amount","type":"uint256","indexed":false,"internalType":"uint256"},{"name":"milestone","type":"uint256","indexed":false,"internalType":"uint256"}],"anonymous":false},{"type":"event","name":"PaymentReleasedAndNextMilestoneLocked","inputs":[{"name":"jobId","type":"string","indexed":true,"internalType":"string"},{"name":"releasedAmount","type":"uint256","indexed":false,"internalType":"uint256"},{"name":"lockedAmount","type":"uint256","indexed":false,"internalType":"uint256"},{"name":"milestone","type":"uint256","indexed":false,"internalType":"uint256"}],"anonymous":false},{"type":"event","name":"PortfolioAdded","inputs":[{"name":"user","type":"address","indexed":true,"internalType":"address"},{"name":"portfolioHash","type":"string","indexed":false,"internalType":"string"}],"anonymous":false},{"type":"event","name":"ProfileCreated","inputs":[{"name":"user","type":"address","indexed":true,"internalType":"address"},{"name":"ipfsHash","type":"string","indexed":false,"internalType":"string"},{"name":"referrer","type":"address","indexed":false,"internalType":"address"}],"anonymous":false},{"type":"event","name":"RewardsContractUpdated","inputs":[{"name":"oldRewards","type":"address","indexed":true,"internalType":"address"},{"name":"newRewards","type":"address","indexed":true,"internalType":"address"}],"anonymous":false},{"type":"event","name":"RewardsDataSynced","inputs":[{"name":"user","type":"address","indexed":true,"internalType":"address"},{"name":"syncType","type":"uint256","indexed":false,"internalType":"uint256"},{"name":"claimableAmount","type":"uint256","indexed":false,"internalType":"uint256"},{"name":"reserved","type":"uint256","indexed":false,"internalType":"uint256"}],"anonymous":false},{"type":"event","name":"TokensEarned","inputs":[{"name":"user","type":"address","indexed":true,"internalType":"address"},{"name":"tokensEarned","type":"uint256","indexed":false,"internalType":"uint256"},{"name":"newPlatformTotal","type":"uint256","indexed":false,"internalType":"uint256"},{"name":"newUserTotalTokens","type":"uint256","indexed":false,"internalType":"uint256"}],"anonymous":false},{"type":"event","name":"TreasuryUpdated","inputs":[{"name":"oldTreasury","type":"address","indexed":true,"internalType":"address"},{"name":"newTreasury","type":"address","indexed":true,"internalType":"address"}],"anonymous":false},{"type":"event","name":"Upgraded","inputs":[{"name":"implementation","type":"address","indexed":true,"internalType":"address"}],"anonymous":false},{"type":"event","name":"UserRated","inputs":[{"name":"jobId","type":"string","indexed":true,"internalType":"string"},{"name":"rater","type":"address","indexed":true,"internalType":"address"},{"name":"rated","type":"address","indexed":true,"internalType":"address"},{"name":"rating","type":"uint256","indexed":false,"internalType":"uint256"}],"anonymous":false},{"type":"event","name":"WorkSubmitted","inputs":[{"name":"jobId","type":"string","indexed":true,"internalType":"string"},{"name":"applicant","type":"address","indexed":true,"internalType":"address"},{"name":"submissionHash","type":"string","indexed":false,"internalType":"string"},{"name":"milestone","type":"uint256","indexed":false,"internalType":"uint256"}],"anonymous":false},{"type":"error","name":"AddressEmptyCode","inputs":[{"name":"target","type":"address","internalType":"address"}]},{"type":"error","name":"AddressInsufficientBalance","inputs":[{"name":"account","type":"address","internalType":"address"}]},{"type":"error","name":"ERC1967InvalidImplementation","inputs":[{"name":"implementation","type":"address","internalType":"address"}]},{"type":"error","name":"ERC1967NonPayable","inputs":[]},{"type":"error","name":"FailedInnerCall","inputs":[]},{"type":"error","name":"InvalidInitialization","inputs":[]},{"type":"error","name":"NotInitializing","inputs":[]},{"type":"error","name":"OwnableInvalidOwner","inputs":[{"name":"owner","type":"address","internalType":"address"}]},{"type":"error","name":"OwnableUnauthorizedAccount","inputs":[{"name":"account","type":"address","internalType":"address"}]},{"type":"error","name":"SafeERC20FailedOperation","inputs":[{"name":"token","type":"address","internalType":"address"}]},{"type":"error","name":"UUPSUnauthorizedCallContext","inputs":[]},{"type":"error","name":"UUPSUnsupportedProxiableUUID","inputs":[{"name":"slot","type":"bytes32","internalType":"bytes32"}]}],"bytecode":{"object":"0x60a080604052346100d557306080526064600f55620f42406010555f5160206156955f395f51905f525460ff8160401c166100c6576002600160401b03196001600160401b03821601610073575b6040516155bb90816100da8239608051818181612b0101528181612ba501526131690152f35b6001600160401b0319166001600160401b039081175f5160206156955f395f51905f525581527fc7f505b2f371ae2175ee4913f4499e1f2633a7b5936321eed1cdaeb6115181d290602090a15f8061004d565b63f92ee8a960e01b5f5260045ffd5b5f80fdfe60806040526004361015610011575f80fd5b5f5f3560e01c806309d6667e14613cf75780630f0166e114613cd357806311eac85514613caa5780631277bbf8146137dd57806317face8414613731578063220cce971461370857806323dc878c146136df57806329f8d96d14613667578063301f8257146133fd57806339b87c8f1461335e57806340634e3b1461311c578063429b62e5146130dd57806342b0f65214612ed15780634b0bddd214612e1d5780634efac43f14612da25780634f1ef28614612b5557806352d1902d14612aee5780635843905f14612aca5780635d886f2214612a6d5780636009b51f1461245957806361d027b31461243057806366d0ead314611481578063687694ae1461240757806369517310146123d75780636c2db78f146123ae578063715018a61461235857806377e324071461213357806387e821d614611f375780638da5cb5b14611f025780638dd1480214611e8757806394928b8414611e5f57806398eaa4a714611ddb57806399f426be14611ba8578063a2f7cb2614611b2d578063a7f0b3de14611b06578063ad3cb1cc14611ab9578063ae69367314611a9b578063b9acee1d14611962578063ba245963146117bf578063c088797b146116ee578063cc2a9a5b146114fd578063ce9b4321146114de578063d575fe64146114c0578063d5b9221b14611481578063d6e3c76a14611424578063dc209f13146113fb578063de8fd3af14611396578063dfa0dfa51461131b578063e4a9d8ee146112be578063e4e2a85614610bdc578063e6b165ed14610b66578063e78cea9214610b3d578063e848635514610b15578063eb14b35314610a9e578063eca688ea14610a80578063f0f44260146109c3578063f14db78314610997578063f27bf0bf146108d1578063f2fde38b146108a4578063f4f5d3c7146106c75763fc5dee81146102b9575f80fd5b346106c45760c03660031901126106c4576102d26141bb565b6024356001600160401b03811161068f576102f190369060040161428d565b6044356001600160401b03811161061b5761031090369060040161428d565b926064356001600160401b0381116106c2576103309036906004016142d5565b6084356001600160401b03811161068f5761034f903690600401614353565b9460a43563ffffffff811680910361061b57338452600560205261037960ff604086205416614440565b6103868351885114614a42565b83546040516377e3240760e01b815260206004820152976001600160a01b0390911695908589806103ba60248201866143b0565b03818a5afa9889156106b7578699610693575b5060208901516001600160a01b0389811699916103ed91168a1415614c2c565b865b60408b01518051821015610459578a906001600160a01b03906104139084906147dd565b511614610422576001016103ef565b60405162461bcd60e51b815260206004820152600f60248201526e105b1c9958591e48185c1c1b1a5959608a1b6044820152606490fd5b50509588968198803b1561068f576040516206d86360e41b8152918391839182908490829061048c908b60048401614c5e565b03925af1801561061057610676575b505060018060a01b03875416906040519563eb7d901b60e01b875260206004880152602087806104ce60248201886143b0565b0381865afa96871561066b578997610633575b506001870180971161061f5790829189933b1561061b578692610535858761057582966105638f978f610551906040519c8d9b8c9a8b9963bd015d7960e01b8b5261010060048c01526101048b01906143b0565b9260248a015260448901526003198883030160648901526143b0565b85810360031901608487015290614a80565b8381036003190160a485015290614ad8565b8a60c48301528d60e483015203925af18015610610576105f7575b50506105dc6105f1915f5160206154465f395f51905f5293604051602081845180838701835e8101600c815203019020885f5260205260405f209063ffffffff1982541617905561482e565b926040519182916020835260208301906143b0565b0390a480f35b8161060191614219565b61060c578587610590565b8580fd5b6040513d84823e3d90fd5b8380fd5b634e487b7160e01b89526011600452602489fd5b9096506020813d602011610663575b8161064f60209383614219565b8101031261065f575195896104e1565b5f80fd5b3d9150610642565b6040513d8b823e3d90fd5b8161068091614219565b61068b57868861049b565b8680fd5b8280fd5b6106b09199503d8088833e6106a88183614219565b8101906145b1565b975f6103cd565b6040513d88823e3d90fd5b505b80fd5b50346106c45760603660031901126106c4576106e16141bb565b506024356001600160401b0381116106c25761070190369060040161428d565b338252600560205261071960ff604084205416614440565b81546040516377e3240760e01b815260206004820152906001600160a01b031683828061074960248201876143b0565b0381845afa91821561089957849261087d575b5061012082019160e08351910151511115610848578151906001820180921161083457908185923b1561068f57604051635839ccbd60e11b815291839183918290849082906107af908b60048401614595565b03925af180156106105761081f575b505051906001820180921161080b5760406107f97fb9422fa51238140c2297fbab91a9525e85400eea5c9666d16562298ea0e0981c9261482e565b9281519081526044356020820152a280f35b634e487b7160e01b83526011600452602483fd5b8161082991614219565b61068f57825f6107be565b634e487b7160e01b85526011600452602485fd5b60405162461bcd60e51b815260206004820152600d60248201526c105b1b0818dbdb5c1b195d1959609a1b6044820152606490fd5b6108929192503d8086833e6106a88183614219565b905f61075c565b6040513d86823e3d90fd5b50346106c45760203660031901126106c4576108ce6108c16141bb565b6108c96152ba565b614ffe565b80f35b50346106c457806003193601126106c457338152600b6020526108fa60ff604083205416614440565b600e54801561096257600e829055600654600d546109269183916001600160a01b03908116911661505c565b600d546040519182526001600160a01b0316907fd244b5a3b2e3977ecffe1a5e5ab7661aadfecbae24be711b7a72bb42bd1b2db090602090a280f35b60405162461bcd60e51b815260206004820152600d60248201526c27379031b7b6b6b4b9b9b4b7b760991b6044820152606490fd5b50346106c45760203660031901126106c45760206109bb6109b66141bb565b614f74565b604051908152f35b50346106c45760203660031901126106c4576109dd6141bb565b338252600b6020526109f560ff604084205416614440565b6001600160a01b03168015610a4857600d80546001600160a01b0319811683179091556001600160a01b03167f4ab5be82436d353e61ca18726e984e561f5c1cc7c6d38b29d2553c790434705a8380a380f35b60405162461bcd60e51b815260206004820152601060248201526f496e76616c696420747265617375727960801b6044820152606490fd5b50346106c457806003193601126106c4576020601054604051908152f35b50346106c45760203660031901126106c457610ab86141bb565b338252600b602052610ad060ff604084205416614440565b81546001600160a01b039182166001600160a01b031982168117845591167f5f1d51aab4bd6e41be6c7feda322db860d93d0058238bf871dfafd43ecc951f98380a380f35b50346106c45760403660031901126106c45760206109bb610b346141bb565b60243590614ef8565b50346106c457806003193601126106c4576002546040516001600160a01b039091168152602090f35b50346106c45760203660031901126106c457610b806141bb565b338252600b602052610b9860ff604084205416614440565b6001600160a01b0316808252600560205260408220805460ff191690557f98a35376356c1565159c1b44676fcfa951a2287e2a816e208cf92e7aeb585a4f8280a280f35b50346106c45760a03660031901126106c457610bf66141bb565b6024356001600160401b03811161068f57610c1590369060040161428d565b60643563ffffffff811680910361061b57610c2e6141e7565b913385526005602052610c4760ff604087205416614440565b6008546001600160a01b0316928315611283576001600160a01b031693610c6f851515614a02565b610c7c60443515156149c5565b610c84614dac565b5085546040516377e3240760e01b81526020600482015290879082906001600160a01b03168180610cb860248201896143b0565b03915afa90811561127857879161125e575b50610140810151610ce5906001600160a01b031615156148cc565b6080810151600481101561124a575f190161120f5761012081019384519485151580611200575b156111c7576006546040516370a0823160e01b81523060048201526001600160a01b039091169790936020856024818c5afa9485156111bc578b95611187575b5060e0019687515f19820191821161117357602091610d6a916147dd565b51015161270f810281159082810461270f1482171561115f576127109004861061110e578160011b91820460021417156110fa57841161109757610dad84614eca565b928385111561104657610de760208c93610dc78789614907565b9b8c918660405180968195829463095ea7b360e01b845260048401614994565b03925af1801561103b5761100e575b506008546001600160a01b0316803b1561068f578a9160848b858094604051968795869463269258dd60e01b86526004860152602485015260448401526103e860648401525af1801561061057610ff9575b5050610e5682600e54614928565b600e55610e648786866150f7565b885489906001600160a01b0316803b156106c257604051636167f40760e11b81529082908290818381610e9b8f8e60048401614595565b03925af1801561061057610fe0575b505051945151851015610f19575b83604093925f5160206155665f395f51905f52610efe93610ee65f5160206155265f395f51905f529861482e565b92610ef68b8951938493846149af565b0390a261482e565b825195865260208601949094526001600160a01b031693a480f35b875488906001600160a01b0316803b156106c257816040518092632d6f93f960e21b825260406004830152818381610f54604482018d6143b0565b6002602483015203925af1801561061057610fc1575b5093604093925f5160206155665f395f51905f52610efe935f5160206155265f395f51905f52975f5160206153e65f395f51905f526020610faa8761482e565b928a51905060028152a29350509293509350610eb8565b81610fce91959495614219565b610fdc57875f939293610f6a565b8780fd5b81610fea91614219565b610ff557885f610eaa565b8880fd5b8161100391614219565b610ff557885f610e48565b61102f9060203d602011611034575b6110278183614219565b81019061497c565b610df6565b503d61101d565b6040513d85823e3d90fd5b60405162461bcd60e51b815260206004820152602360248201527f42616c616e636520696e73756666696369656e7420666f7220636f6d6d69737360448201526234b7b760e91b6064820152608490fd5b60405162461bcd60e51b815260206004820152603560248201527f556e65787065637465642062616c616e6365202d20706f737369626c6520636f6044820152741b98dd5c9c995b9d081a9bd88818dbdb999b1a58dd605a1b6064820152608490fd5b634e487b7160e01b8b52601160045260248bfd5b60405162461bcd60e51b8152602060048201526024808201527f496e73756666696369656e742062616c616e63652061667465722043435450206044820152636665657360e01b6064820152608490fd5b634e487b7160e01b8d52601160045260248dfd5b634e487b7160e01b8c52601160045260248cfd5b9094506020813d6020116111b4575b816111a360209383614219565b8101031261065f57519360e0610d4c565b3d9150611196565b6040513d8d823e3d90fd5b60405162461bcd60e51b8152602060048201526011602482015270496e76616c6964206d696c6573746f6e6560781b6044820152606490fd5b5060e083015151861115610d0c565b60405162461bcd60e51b81526020600482015260136024820152724a6f62206e6f7420696e2070726f677265737360681b6044820152606490fd5b634e487b7160e01b88526021600452602488fd5b61127291503d8089833e6106a88183614219565b5f610cca565b6040513d89823e3d90fd5b60405162461bcd60e51b8152602060048201526013602482015272151c985b9cd8d95a5d995c881b9bdd081cd95d606a1b6044820152606490fd5b50346106c45760203660031901126106c4576112d86141bb565b338252600b6020526112f060ff604084205416614440565b6001600160a01b0316611304811515614bee565b600880546001600160a01b03191691909117905580f35b50346106c45760203660031901126106c4576113356141bb565b338252600b60205261134d60ff604084205416614440565b600180546001600160a01b039283166001600160a01b0319821681179092559091167f1411e470e89195b3fc751143c6dfe8c8cb1207e319c33747a017fb39e13ef92c8380a380f35b50346106c45760203660031901126106c4577f42ddeacb574f2550f7e8d8e42de1ed9b952f6b6f5c3616afeaa9922896ea5ec46040600435338452600b6020526113e560ff8386205416614440565b601054908060105582519182526020820152a180f35b50346106c457806003193601126106c4576009546040516001600160a01b039091168152602090f35b50346106c45760203660031901126106c45761143e6141bb565b338252600b60205261145660ff604084205416614440565b6001600160a01b031661146a811515614bee565b600780546001600160a01b03191691909117905580f35b50346106c45760203660031901126106c45760209060ff906040906001600160a01b036114ac6141bb565b168152600584522054166040519015158152f35b50346106c457806003193601126106c4576020600f54604051908152f35b50346106c45760203660031901126106c45760206109bb600435614eca565b50346106c45760c03660031901126106c4576115176141bb565b61151f6141d1565b6044356001600160a01b0381169081900361061b576064356001600160a01b038116908190036116ea576115516141e7565b9160a4359360018060a01b03851680950361068b575f5160206155465f395f51905f5254604081901c60ff161596906001600160401b038116801590816116e2575b60011490816116d8575b1590816116cf575b506116c0576001600160401b031981166001175f5160206155465f395f51905f52556115e3919088611698575b506115db6152ed565b6108c96152ed565b6115eb6152ed565b600280546001600160a01b03199081166001600160a01b0393841617909155875481169290921787556001805483169390931790925560068054821693909216929092179055600780549091169190911790556116455780f35b60ff60401b195f5160206155465f395f51905f5254165f5160206155465f395f51905f52557fc7f505b2f371ae2175ee4913f4499e1f2633a7b5936321eed1cdaeb6115181d2602060405160018152a180f35b6001600160481b0319166001600160401b01175f5160206155465f395f51905f52555f6115d2565b63f92ee8a960e01b8952600489fd5b9050155f6115a5565b303b15915061159d565b899150611593565b8480fd5b50346106c45760603660031901126106c4576004356001600160401b0381116106c25761171f90369060040161428d565b6117276141d1565b61172f6142ab565b91338452600560205260ff604085205416156117895760208091604051928184925191829101835e8101600c8152030190209060018060a01b03165f5260205263ffffffff60405f20911663ffffffff1982541617905580f35b60405162461bcd60e51b815260206004820152600e60248201526d139bdd08185d5d1a1bdc9a5e995960921b6044820152606490fd5b50346106c45760603660031901126106c4576117d96141bb565b6024356001600160401b03811161068f576117f890369060040161428d565b906044356001600160401b03811161061b5761181890369060040161428d565b91338452600560205261183160ff604086205416614440565b835484906001600160a01b0316803b156106c257816040518092632c47fa9760e01b82526040600483015281838161188161186f604483018b6143b0565b8281036003190160248401528c6143b0565b03925af180156106105761194d575b505083546040516377e3240760e01b8152602060048201529190859083906001600160a01b031681806118c660248201876143b0565b03915afa801561194257610120611909917f2de280d2b7315f889cbea3ddc5c9ebfb1773caba023a73cc8fa272e9b28585c2948891611928575b5001519161482e565b9261192260405192839260018060a01b03169683614595565b0390a380f35b61193c91503d808a833e6106a88183614219565b5f611900565b6040513d87823e3d90fd5b8161195791614219565b61061b57835f611890565b50346106c45760403660031901126106c45761197c6141bb565b60243590338352600560205261199860ff604085205416614440565b825483906001600160a01b0316803b156106c25781604051809263286fd04f60e01b82528183816119cd8a8a60048401614994565b03925af1801561061057611a86575b50506001546001600160a01b031680611a1a575b5060405f5160206154065f395f51905f5291815193845284602085015260018060a01b031692a280f35b9060206040518093635b92f3d960e01b8252818781611a3d898860048401614994565b03925af1908115610899575f5160206154065f395f51905f5292604092611a67575b5091506119f0565b611a7f9060203d602011611034576110278183614219565b505f611a5f565b81611a9091614219565b61068f57825f6119dc565b50346106c457806003193601126106c4576020600e54604051908152f35b50346106c457806003193601126106c45750611b02604051611adc604082614219565b60058152640352e302e360dc1b60208201526040519182916020835260208301906143b0565b0390f35b50346106c457806003193601126106c457546040516001600160a01b039091168152602090f35b50346106c45760203660031901126106c457611b476141bb565b338252600b602052611b5f60ff604084205416614440565b600a80546001600160a01b039283166001600160a01b0319821681179092559091167febf0307548e44546701f6014620caeea64df200e2b3925bfd3c75d354fd7410d8380a380f35b50346106c45760203660031901126106c457611bc26141bb565b338252600560205260ff60408320541615611da45781546001600160a01b0316908290823b156106c25760405163033ba21d60e31b81526001600160a01b03909116600482018190529282908290602490829084905af1801561061057611d8f575b506001546001600160a01b031680611d4a575b50506001546001600160a01b03168015611d4257602060049160405192838092636bb9f8df60e11b82525afa90811561103b578391611d10575b50905b825460405163f14db78360e01b81526004810183905290602090829060249082906001600160a01b03165afa908115610899578491611cdd575b5060207fea1851b2332e25f0d6427525a451a05fcf1b65ca9a4b096a85a2e4e40e6ac69991604051908152a380f35b90506020813d602011611d08575b81611cf860209383614219565b8101031261065f57516020611cae565b3d9150611ceb565b90506020813d602011611d3a575b81611d2b60209383614219565b8101031261065f57515f611c71565b3d9150611d1e565b508190611c74565b803b156106c25781809160246040518094819363369eca8f60e21b83528860048401525af180156106105715611c375781611d8491614219565b6106c257815f611c37565b81611d9991614219565b6106c257815f611c24565b60405162461bcd60e51b815260206004820152600f60248201526e13db9b1e48185d5d1a1bdc9a5e9959608a1b6044820152606490fd5b50346106c45760203660031901126106c457611df56141bb565b338252600b602052611e0d60ff604084205416614440565b6001600160a01b0316611e21811515614bee565b808252600560205260408220805460ff191660011790557f351e40fe333cede9dd79a1ef4d16228b1702f272eb2c2166ec3c7ee6a9d4ce2c8280a280f35b50346106c45760403660031901126106c457611e796141bb565b5060206109bb602435614e09565b50346106c45760203660031901126106c457611ea16141bb565b338252600b602052611eb960ff604084205416614440565b600280546001600160a01b039283166001600160a01b0319821681179092559091167faae9beddccf584528e87b66c6ff2563825c8a1433305b8a656e9b5f9bf3904998380a380f35b50346106c457806003193601126106c4575f5160206153c65f395f51905f52546040516001600160a01b039091168152602090f35b5060203660031901126106c4576004356001600160401b0381116106c257366023820112156106c2576004810135906001600160401b03821161068f57366024838301011161068f576002546001600160a01b03169182156120fd576001546001600160a01b031680156120f55760206024916040519283809263057bd6b560e51b82523360048301525afa9081156119425785916120c3575b50925b8315612092578492813b1561061b57839160246084859360405196879586948593633f8190a360e21b85523360048601528c828601526060604486015282606486015201848401378181018301879052601f01601f1916810103019134905af180156106105761207d575b5050604051906001825260208201528160408201527f377a25b6705fa575725f64a9e9cee303a5037feaf4bc831a8595345c24ae076960603392a280f35b8161208791614219565b6106c257815f61203f565b60405162461bcd60e51b81526020600482015260096024820152684e6f20746f6b656e7360b81b6044820152606490fd5b90506020813d6020116120ed575b816120de60209383614219565b8101031261065f57515f611fd1565b3d91506120d1565b508392611fd4565b60405162461bcd60e51b815260206004820152600e60248201526d109c9a5919d9481b9bdd081cd95d60921b6044820152606490fd5b50346106c45760203660031901126106c457600435816001600160401b0382116106c45761216861219e92369060040161428d565b612170614dac565b5060018060a01b0382541660405180809581946377e3240760e01b83526020600484015260248301906143b0565b03915afa90811561061057829161233e575b5060405190602082526121d1815161018060208501526101a08401906143b0565b60018060a01b0360208301511660408401526040820151601f1984830301606085015260208082519384815201910191855b81811061231f5750506060830151848203601f1901608086015261222792506143b0565b926080820151600481101561230b5760a084015260a082015193601f198482030160c0850152845190818152602081016020808460051b840101970193915b8383106122de578680876101606122a76122908d60c0850151601f198783030160e08801526143d4565b60e0840151858203601f19016101008701526143d4565b9161010081015161012085015261012081015161014085015260018060a01b03610140820151168285015201516101808301520390f35b90919293966020806122fc600193601f198682030187528b516143b0565b99019301930191939290612266565b634e487b7160e01b82526021600452602482fd5b83516001600160a01b0316835260209384019390920191600101612203565b61235291503d8084833e6106a88183614219565b5f6121b0565b50346106c457806003193601126106c4576123716152ba565b5f5160206153c65f395f51905f5280546001600160a01b0319811690915581906001600160a01b03165f5160206154a65f395f51905f528280a380f35b50346106c457806003193601126106c4576007546040516001600160a01b039091168152602090f35b50346106c45760203660031901126106c45760406123fb6123f66141bb565b614c86565b82519182526020820152f35b50346106c457806003193601126106c457600a546040516001600160a01b039091168152602090f35b50346106c457806003193601126106c457600d546040516001600160a01b039091168152602090f35b50346106c45760e03660031901126106c4576124736141bb565b61247b6141d1565b6044356001600160401b03811161061b5761249a90369060040161428d565b906064356001600160401b0381116116ea576124ba90369060040161428d565b926084356001600160401b03811161060c576124da9036906004016142d5565b60a4356001600160401b03811161068b576124f9903690600401614353565b9160c43563ffffffff8116809103610fdc57338852600560205261252360ff60408a205416614440565b87546040516259565560e61b81526020600482018190526001600160a01b0390921692918180612556602482018c6143b0565b0381865afa908115612a62578a91612a43575b50612a095761257b8451865114614a42565b8351156129cd5788956001600160a01b0380821694908116936125a085871415614c2c565b803b15610ff5578a89918893838d6125cf8d604051988997889687956324f808a560e01b875260048701614b0b565b03925af19081156129c25788916129ad575b505086546001600160a01b0316803b15610fdc576126189188918a836040518096819582946206d86360e41b845260048401614c5e565b03925af1908115611278578791612998575b505085546001600160a01b0316803b1561068b578660406126b392612673838c6126c585519788968795869463bd015d7960e01b865261010060048701526101048601906143b0565b600160248601528d6044860152603c85820360031981016064880152602083525f5160206154e65f395f51905f526020840152016084860152018d614a80565b8281036003190160a48401528d614ad8565b8860c48301528a60e483015203925af1908115611278578791612983575b5050604051602081895180838c01835e8101600c815203019020835f5260205260405f209063ffffffff1982541617905560018060a01b03855416803b1561060c5760405163177e220b60e11b815260606004820152908690829081838161274e606482018e6143b0565b8960248301526001604483015203925af19081156106b757869161296e575b505084546001600160a01b0316803b1561060c57856040518092632d6f93f960e21b8252604060048301528183816127a98d60448301906143b0565b6001602483015203925af19081156106b7578691612959575b505084546001600160a01b0316803b1561060c57856040518092635839ccbd60e11b8252604060048301528183816127fe8d60448301906143b0565b6001602483015203925af19081156106b7578691612944575b505b83518110156128a05785546001600160a01b031661283782866147dd565b5161284283886147dd565b51823b15610ff55761286f928992838c604051968795869485936346cae72f60e11b855260048501614805565b03925af190811561127857879161288b575b5050600101612819565b8161289591614219565b61060c57855f612881565b856129298885858c5f5160206154865f395f51905f526128c26105dc8661482e565b0390a38060016128d18461482e565b5f5160206154465f395f51905f526060604051602081526020808201525f5160206154e65f395f51905f526040820152a4600161290d8361482e565b5f5160206154265f395f51905f526020604051888152a461482e565b5f5160206153e65f395f51905f52602060405160018152a280f35b8161294e91614219565b6116ea57845f612817565b8161296391614219565b6116ea57845f6127c2565b8161297891614219565b6116ea57845f61276d565b8161298d91614219565b61060c57855f6126e3565b816129a291614219565b61060c57855f61262a565b816129b791614219565b61068b57865f6125e1565b6040513d8a823e3d90fd5b60405162461bcd60e51b81526020600482015260146024820152734d7573742068617665206d696c6573746f6e657360601b6044820152606490fd5b60405162461bcd60e51b81526020600482015260126024820152714a6f6220616c72656164792065786973747360701b6044820152606490fd5b612a5c915060203d602011611034576110278183614219565b5f612569565b6040513d8c823e3d90fd5b50346106c45760203660031901126106c457612a876141bb565b338252600b602052612a9f60ff604084205416614440565b6001600160a01b0316612ab3811515614bee565b600680546001600160a01b03191691909117905580f35b50346106c45760203660031901126106c45760206109bb612ae96141bb565b614b64565b50346106c457806003193601126106c4577f00000000000000000000000000000000000000000000000000000000000000006001600160a01b03163003612b465760206040515f5160206154665f395f51905f528152f35b63703e46dd60e11b8152600490fd5b5060403660031901126106c457612b6a6141bb565b906024356001600160401b0381116106c257366023820112156106c257612b9b903690602481600401359101614257565b6001600160a01b037f000000000000000000000000000000000000000000000000000000000000000016308114908115612d80575b50612d71575f5160206153c65f395f51905f52546001600160a01b031633148015612d5d575b15612d29576040516352d1902d60e01b8152926001600160a01b0381169190602085600481865afa80958596612cf5575b50612c4057634c9c8ce360e01b84526004839052602484fd5b9091845f5160206154665f395f51905f528103612ce35750813b15612cd1575f5160206154665f395f51905f5280546001600160a01b031916821790555f5160206154c65f395f51905f528480a28151839015612cb75780836020612cb395519101845af4612cad615318565b91615347565b5080f35b50505034612cc25780f35b63b398979f60e01b8152600490fd5b634c9c8ce360e01b8452600452602483fd5b632a87526960e21b8552600452602484fd5b9095506020813d602011612d21575b81612d1160209383614219565b810103126116ea5751945f612c27565b3d9150612d04565b60405162461bcd60e51b815260206004820152600c60248201526b155b985d5d1a1bdc9a5e995960a21b6044820152606490fd5b506002546001600160a01b03163314612bf6565b63703e46dd60e11b8252600482fd5b5f5160206154665f395f51905f52546001600160a01b0316141590505f612bd0565b50346106c45760203660031901126106c457612dbc6141bb565b338252600b602052612dd460ff604084205416614440565b600980546001600160a01b039283166001600160a01b0319821681179092559091167f07d9e59518f3d6cbceb6404066ae85fc348e3793c127eb912fb9d55f384233d98380a380f35b50346106c45760403660031901126106c457612e376141bb565b6024359081151580920361068f5760207f235bc17e7930760029e9f4d860a2a8089976de5b381cf8380fc11c1d88a111339160018060a01b035f5160206153c65f395f51905f52541633148015612ebd575b612e9290614440565b6001600160a01b0316808552600b82526040808620805460ff191660ff87161790555193845292a280f35b50600a546001600160a01b03163314612e89565b50346106c45760a03660031901126106c4576004356001600160401b0381116106c257612f0290369060040161428d565b612f0a6141d1565b906044356001600160401b03811161061b57612f2a90369060040161428d565b6064356001600160401b0381116116ea57612f499036906004016142d5565b6084356001600160401b03811161060c57612f68903690600401614353565b903386526005602052612f8160ff604088205416614440565b85546040516259565560e61b81526020600482018190526001600160a01b03909216918180612fb3602482018a6143b0565b0381855afa9081156129c25788916130be575b5061308c578692612fda8351825114614a42565b813b1561061b5783918783886130088995604051988997889687956324f808a560e01b875260048701614b0b565b03925af1801561061057613077575b505061305d925f5160206154865f395f51905f526130556130378561482e565b926040519182916020835260018060a01b03169560208301906143b0565b0390a361482e565b5f5160206153e65f395f51905f526020604051848152a280f35b8161308191614219565b61061b57835f613017565b60405162461bcd60e51b815260206004820152600a6024820152694a6f622065786973747360b01b6044820152606490fd5b6130d7915060203d602011611034576110278183614219565b5f612fc6565b50346106c45760203660031901126106c45760209060ff906040906001600160a01b036131086141bb565b168152600b84522054166040519015158152f35b50346106c45760203660031901126106c4576131366141bb565b6002546001600160a01b031691903383900361332b5760405160209361315c8583614219565b8382526001600160a01b037f000000000000000000000000000000000000000000000000000000000000000016308114908115613309575b506132fa575f5160206153c65f395f51905f52546001600160a01b031633149081156132f0575b50156132bc576040516352d1902d60e01b81526001600160a01b03831694908181600481895afa85918161328d575b5061320357634c9c8ce360e01b85526004869052602485fd5b5f5160206154665f395f51905f528103612ce35750823b15613279575f5160206154665f395f51905f5280546001600160a01b0319168617905592938493905f5160206154c65f395f51905f528580a281511561326f578151612cb39492839201845af4612cad615318565b505050612cc25780f35b634c9c8ce360e01b84526004859052602484fd5b9091508281813d83116132b5575b6132a58183614219565b8101031261060c5751905f6131ea565b503d61329b565b60405162461bcd60e51b815260048101859052600c60248201526b155b985d5d1a1bdc9a5e995960a21b6044820152606490fd5b905033145f6131bb565b63703e46dd60e11b8452600484fd5b5f5160206154665f395f51905f52546001600160a01b0316141590505f613194565b60405162461bcd60e51b815260206004820152600b60248201526a4f6e6c792062726964676560a81b6044820152606490fd5b50346106c45760203660031901126106c457600435338252600b60205261338b60ff604084205416614440565b6103e881116133ce5760407fdd875544ddd76d96f6d22d7b445e849b486258026a9fb9bd1f3434766b1e920191600f549080600f5582519182526020820152a180f35b60405162461bcd60e51b81526020600482015260076024820152664d61782031302560c81b6044820152606490fd5b50346106c45760603660031901126106c4576134176141bb565b602435906134236142ab565b9160018060a01b036009541633148015613653575b15613619576001600160a01b0382169263ffffffff929061345a851515614a02565b6134658315156149c5565b61346e83614eca565b906134798285614907565b94859161348884600e54614928565b600e5516926003840361351157604093926134cb5f5160206155065f395f51905f5296935f5160206155665f395f51905f529360018060a01b036006541661505c565b60078551666469737075746560c81b815220926134ed888751938493846149af565b0390a260078251666469737075746560c81b8152209382519182526020820152a380f35b50600854613559916020916001600160a01b0316613530811515614935565b60018060a01b0360065416908a60405180968195829463095ea7b360e01b845260048401614994565b03925af18015611278576135fc575b5060085486906001600160a01b0316803b156106c25781809160846040518094819363269258dd60e01b83528b60048401528960248401528c60448401526103e860648401525af18015610610576135e3575b5050905f5160206155065f395f51905f52925f5160206155665f395f51905f526040936134cb565b816135f091949394614219565b61060c5790855f6135bb565b6136149060203d602011611034576110278183614219565b613568565b60405162461bcd60e51b81526020600482015260126024820152714f6e6c7920417468656e61206f722044414f60701b6044820152606490fd5b50600a546001600160a01b03163314613438565b50346106c45760403660031901126106c4576004356001600160401b0381116106c25761369890369060040161428d565b6020806136a36141d1565b92604051928184925191829101835e8101600c8152030190209060018060a01b03165f52602052602063ffffffff60405f205416604051908152f35b50346106c457806003193601126106c4576008546040516001600160a01b039091168152602090f35b50346106c457806003193601126106c4576001546040516001600160a01b039091168152602090f35b50346106c45760203660031901126106c457600435338252600b60205261375e60ff604084205416614440565b600e5480821161379e578161377d916137788215156149c5565b614907565b600e55600654600d546109269183916001600160a01b03908116911661505c565b60405162461bcd60e51b815260206004820152601760248201527624b739bab33334b1b4b2b73a1031b7b6b6b4b9b9b4b7b760491b6044820152606490fd5b50346106c45760803660031901126106c4576137f76141bb565b6024356001600160401b03811161068f5761381690369060040161428d565b60443590338452600560205261383260ff604086205416614440565b83546040516377e3240760e01b8152602060048201529390859085906001600160a01b0316818061386660248201886143b0565b03915afa938415611942578594613c8e575b5061014084018051909490613897906001600160a01b031615156148cc565b6138a084614eca565b91866138ac8487614907565b80976138ba86600e54614928565b600e55604051602081895180838c01835e600c9082019081520301902081516001600160a01b03165f908152602091909152604090205463ffffffff1660038103613ba45750600654905161391c93506001600160a01b03908116911661505c565b86546001600160a01b0316803b15610fdc57876040518092636167f40760e11b825281838161394f8d8c60048401614595565b03925af1888115613b985788928792613b7e575b505061396e926150f7565b8554610120919091015160018101916001600160a01b0316908210613b6a57908187923b1561068f57604051635839ccbd60e11b815291839183918290849082906139bd908b60048401614595565b03925af1801561061057613b55575b505084546040516377e3240760e01b815260206004820152919086906001600160a01b0316818480613a0160248201896143b0565b0381845afa938415610610578294613b39575b5061012084019360e085519101515110613a8b575b5050905f5160206153a65f395f51905f52935f5160206155665f395f51905f52613a7193613a568661482e565b92613a6789604051938493846149af565b0390a2519161482e565b92613a8560405192839260643590846149af565b0390a280f35b803b156106c257816040518092632d6f93f960e21b825260406004830152818381613ab9604482018c6143b0565b6002602483015203925af1801561061057613b20575b5050905f5160206153a65f395f51905f52935f5160206155665f395f51905f52613a7193613afc8661482e565b5f5160206153e65f395f51905f52602060405160028152a292935087919550613a29565b81613b2d91949394614219565b61060c5790855f613acf565b613b4e9194503d8084833e6106a88183614219565b925f613a14565b81613b5f91614219565b6116ea57845f6139cc565b634e487b7160e01b87526011600452602487fd5b819350613b8b9250614219565b61068b578584885f613963565b604051903d90823e3d90fd5b6008549092613bee91602091906001600160a01b0316613bc5811515614935565b60018060a01b0360065416908760405180968195829463095ea7b360e01b845260048401614994565b03925af1801561089957613c71575b5060085490516001600160a01b0390811692911690813b1561061b5760848a858094604051968795869463269258dd60e01b86526004860152602485015260448401526103e860648401525af1801561061057613c5c575b505061391c565b81613c6691614219565b61068b57865f613c55565b613c899060203d602011611034576110278183614219565b613bfd565b613ca39194503d8087833e6106a88183614219565b925f613878565b50346106c457806003193601126106c4576006546040516001600160a01b039091168152602090f35b50346106c45760203660031901126106c45760206109bb613cf26141bb565b61484a565b503461065f57608036600319011261065f57613d116141bb565b506024356001600160401b03811161065f57613d3190369060040161428d565b90604435606435928315159182850361065f57335f526005602052613d5c60ff60405f205416614440565b60018060a01b035f54169460405193632e68140160e11b85525f8580613d86868860048401614595565b03818a5afa9485156140a4575f956140c9575b506040516377e3240760e01b8152602060048201525f8180613dbe60248201896143b0565b03818b5afa9081156140a4575f916140af575b506040860180516001600160a01b031698909390803b1561065f5760405163177e220b60e11b815260606004820152995f918b91829084908290613e18606483018e6143b0565b9060248301528b604483015203925af180156140a45761408a575b87549798509596949588956001600160a01b0316803b1561068b5760408051632d6f93f960e21b815260048101919091529087908290818381613e79604482018f6143b0565b6001602483015203925af1908115611278578791614075575b505085546001600160a01b0316803b1561068b5760408051635839ccbd60e11b815260048101919091529087908290818381613ed1604482018f6143b0565b6001602483015203925af1908115611278578791614060575b505015613fc35750835b608087018051908151831015613f87576020613f2784613f1e8160018060a01b038c5416966147dd565b515193516147dd565b510151823b15610fdc57613f56928892838b604051968795869485936346cae72f60e11b855260048501614805565b03925af19081156106b7578691613f72575b5050600101613ef4565b81613f7c91614219565b6116ea57845f613f68565b505050925061292994505b516001600160a01b0316915f5160206154265f395f51905f526020613fb68661482e565b92604051908152a461482e565b9550835b60c087018051908151831015614051576020613ff184613f1e8160018060a01b038c5416966147dd565b510151823b15610fdc57614020928892838b604051968795869485936346cae72f60e11b855260048501614805565b03925af19081156106b757869161403c575b5050600101613fc7565b8161404691614219565b6116ea57845f614032565b50505092506129299450613f92565b8161406a91614219565b61060c57855f613eea565b8161407f91614219565b61060c57855f613e92565b94959650965f61409991614219565b5f9594938790613e33565b6040513d5f823e3d90fd5b6140c391503d805f833e6106a88183614219565b5f613dd1565b9094503d805f833e6140db8183614219565b81019060208183031261065f578051906001600160401b03821161065f570160a08183031261065f576040519160a083016001600160401b038111848210176141a7576040528151835260208201516001600160401b03811161065f5781614144918401614472565b6020840152614155604083016144b8565b604084015260608201516001600160401b03811161065f5781614179918401614472565b606084015260808201516001600160401b03811161065f5761419b92016144cc565b6080820152935f613d99565b634e487b7160e01b5f52604160045260245ffd5b600435906001600160a01b038216820361065f57565b602435906001600160a01b038216820361065f57565b608435906001600160a01b038216820361065f57565b61018081019081106001600160401b038211176141a757604052565b601f909101601f19168101906001600160401b038211908210176141a757604052565b6001600160401b0381116141a757601f01601f191660200190565b9291926142638261423c565b916142716040519384614219565b82948184528183011161065f578281602093845f960137010152565b9080601f8301121561065f578160206142a893359101614257565b90565b6044359063ffffffff8216820361065f57565b6001600160401b0381116141a75760051b60200190565b9080601f8301121561065f5781356142ec816142be565b926142fa6040519485614219565b81845260208085019260051b8201019183831161065f5760208201905b83821061432657505050505090565b81356001600160401b03811161065f576020916143488784809488010161428d565b815201910190614317565b9080601f8301121561065f57813561436a816142be565b926143786040519485614219565b81845260208085019260051b82010192831161065f57602001905b8282106143a05750505090565b8135815260209182019101614393565b805180835260209291819084018484015e5f828201840152601f01601f1916010190565b9080602083519182815201916020808360051b8301019401925f915b8383106143ff57505050505090565b9091929394602080600192601f19858203018652885190828061442b84516040855260408501906143b0565b930151910152970193019301919392906143f0565b1561444757565b606460405162461bcd60e51b8152602060048201526004602482015263082eae8d60e31b6044820152fd5b81601f8201121561065f578051906144898261423c565b926144976040519485614219565b8284526020838301011161065f57815f9260208093018386015e8301015290565b51906001600160a01b038216820361065f57565b81601f8201121561065f578051906144e3826142be565b926144f16040519485614219565b82845260208085019360051b8301019181831161065f5760208101935b83851061451d57505050505090565b84516001600160401b03811161065f5782016040818503601f19011261065f5760408051929083016001600160401b038111848210176141a7576040526020820151926001600160401b03841161065f57604083614582886020809881980101614472565b835201518382015281520194019361450e565b9291906145ac6020916040865260408601906143b0565b930152565b60208183031261065f578051906001600160401b03821161065f5701906101808282031261065f57604051916145e6836141fd565b80516001600160401b03811161065f5782614602918301614472565b8352614610602082016144b8565b602084015260408101516001600160401b03811161065f57810182601f8201121561065f57805190614641826142be565b9161464f6040519384614219565b80835260208084019160051b8301019185831161065f57602001905b8282106147c557505050604084015260608101516001600160401b03811161065f5782614699918301614472565b60608401526080810151600481101561065f57608084015260a08101516001600160401b03811161065f57810182601f8201121561065f5780516146dc816142be565b916146ea6040519384614219565b81835260208084019260051b8201019185831161065f5760208201905b838210614798575050505060a084015260c08101516001600160401b03811161065f57826147369183016144cc565b60c084015260e08101516001600160401b03811161065f576101609261475d9183016144cc565b60e084015261010081015161010084015261012081015161012084015261478761014082016144b8565b610140840152015161016082015290565b81516001600160401b03811161065f576020916147ba89848094880101614472565b815201910190614707565b602080916147d2846144b8565b81520191019061466b565b80518210156147f15760209160051b010190565b634e487b7160e01b5f52603260045260245ffd5b9392916145ac906148206040936060885260608801906143b0565b9086820360208801526143b0565b602090604051918183925191829101835e81015f815203902090565b6001546001600160a01b031690816148625750505f90565b604051630f0166e160e01b81526001600160a01b03909116600482015290602090829060249082905afa9081156140a4575f9161489d575090565b90506020813d6020116148c4575b816148b860209383614219565b8101031261065f575190565b3d91506148ab565b156148d357565b60405162461bcd60e51b815260206004820152600c60248201526b139bc8185c1c1b1a58d85b9d60a21b6044820152606490fd5b9190820391821161491457565b634e487b7160e01b5f52601160045260245ffd5b9190820180921161491457565b1561493c57565b60405162461bcd60e51b815260206004820152601860248201527710d0d51408151c985b9cd8d95a5d995c881b9bdd081cd95d60421b6044820152606490fd5b9081602091031261065f5751801515810361065f5790565b6001600160a01b039091168152602081019190915260400190565b6040919493926060820195825260208201520152565b156149cc57565b60405162461bcd60e51b815260206004820152600e60248201526d125b9d985b1a5908185b5bdd5b9d60921b6044820152606490fd5b15614a0957565b60405162461bcd60e51b8152602060048201526011602482015270125b9d985b1a59081c9958da5c1a595b9d607a1b6044820152606490fd5b15614a4957565b60405162461bcd60e51b815260206004820152600f60248201526e098cadccee8d040dad2e6dac2e8c6d608b1b6044820152606490fd5b9080602083519182815201916020808360051b8301019401925f915b838310614aab57505050505090565b9091929394602080614ac9600193601f1986820301875289516143b0565b97019301930191939290614a9c565b90602080835192838152019201905f5b818110614af55750505090565b8251845260209384019390920191600101614ae8565b9390614b56926142a89694614b2b614b489360a0895260a08901906143b0565b6001600160a01b03909216602088015286820360408801526143b0565b908482036060860152614a80565b916080818403910152614ad8565b6001546001600160a01b031680614bb457505f54604051635843905f60e01b81526001600160a01b0392831660048201529160209183916024918391165afa9081156140a4575f9161489d575090565b6040516378359b2960e01b81526001600160a01b039092166004830152602090829060249082905afa9081156140a4575f9161489d575090565b15614bf557565b60405162461bcd60e51b815260206004820152600f60248201526e496e76616c6964206164647265737360881b6044820152606490fd5b15614c3357565b606460405162461bcd60e51b815260206004820152600460248201526329b2b63360e11b6044820152fd5b90614c766020919493946040845260408401906143b0565b6001600160a01b03909416910152565b6001549091906001600160a01b03168015614d34576040516378359b2960e01b81526001600160a01b039093166004840181905292602081602481855afa80156140a4575f90614d01575b60209150936024604051809481936323312a8360e01b835260048301525afa9081156140a4575f9161489d575090565b506020813d602011614d2c575b81614d1b60209383614219565b8101031261065f5760209051614cd1565b3d9150614d0e565b505f5460408051630695173160e41b81526001600160a01b03948516600482015293909184916024918391165afa9182156140a4575f905f93614d7657509190565b9250506040823d604011614da4575b81614d9260409383614219565b8101031261065f576020825192015190565b3d9150614d85565b60405190614db9826141fd565b5f610160836060815282602082015260606040820152606080820152826080820152606060a0820152606060c0820152606060e08201528261010082015282610120820152826101408201520152565b6001546001600160a01b03169081614e215750505f90565b5f546040516306d1ab4b60e01b81529190602090839060049082906001600160a01b03165afa9182156140a4575f92614e95575b50906044614e6560209383614928565b916040519485938492630ba69e4160e41b8452600484015260248301525afa9081156140a4575f9161489d575090565b91506020823d602011614ec2575b81614eb060209383614219565b8101031261065f579051906044614e55565b3d9150614ea3565b600f54908181029181830414901517156149145761271090046010548082115f14614ef3575090565b905090565b6001546001600160a01b031680614f4f57505f5460405163e848635560e01b81529260209284926001600160a01b03169183918291614f3a9160048401614994565b03915afa9081156140a4575f9161489d575090565b60405163e848635560e01b81529260209284929183918291614f3a9160048401614994565b6001546001600160a01b031680614fc457505f5460405163f14db78360e01b81526001600160a01b0392831660048201529160209183916024918391165afa9081156140a4575f9161489d575090565b6040516323312a8360e01b81526001600160a01b039092166004830152602090829060249082905afa9081156140a4575f9161489d575090565b6001600160a01b03168015615049575f5160206153c65f395f51905f5280546001600160a01b0319811683179091556001600160a01b03165f5160206154a65f395f51905f525f80a3565b631e4fbdf760e01b5f525f60045260245ffd5b5f6150b492819261509661508896604051978891602083019563a9059cbb60e01b875260248401614994565b03601f198101885287614219565b60018060a01b031694519082865af16150ad615318565b9083615347565b80519081151591826150dc575b50506150ca5750565b635274afe760e01b5f5260045260245ffd5b6150ef925060208091830101910161497c565b155f806150c1565b6001549091906001600160a01b031680156152b45761513d5f60018060a01b0381541693604051809381926377e3240760e01b83526020600484015260248301906143b0565b0381865afa9081156140a4576004916020915f9161529a575b5061014001516040516306d1ab4b60e01b81526001600160a01b03909116949092839182905afa80156140a45785915f91615262575b5060849261519d5f96938793614928565b604051978896879563ba293e0760e01b875260018060a01b031660048701526024860152604485015260648401525af180156140a4576151da5750565b3d805f833e6151e98183614219565b81019060208183031261065f578051906001600160401b03821161065f570181601f8201121561065f57805190602080615222846142be565b61522f6040519182614219565b848152019260051b82010192831161065f57602001905b82821061525257505050565b8151815260209182019101615246565b949150506020843d602011615292575b8161527f60209383614219565b8101031261065f5792518490608461518c565b3d9150615272565b6152ae91503d805f833e6106a88183614219565b5f615156565b50505050565b5f5160206153c65f395f51905f52546001600160a01b031633036152da57565b63118cdaa760e01b5f523360045260245ffd5b60ff5f5160206155465f395f51905f525460401c161561530957565b631afcd79f60e31b5f5260045ffd5b3d15615342573d906153298261423c565b916153376040519384614219565b82523d5f602084013e565b606090565b9061536b575080511561535c57805190602001fd5b630a12f52160e11b5f5260045ffd5b8151158061539c575b61537c575090565b639996b31560e01b5f9081526001600160a01b0391909116600452602490fd5b50803b1561537456fe881f9575e6bc96f2ebd076de5584e663c5e7489d82f21f00777994a223cfb0619016d09d72d40fdae2fd8ceac6b6234c7706214fd39c1cd1e609a0528c19930090048e2f7021decb3bccdc9c96fb747f7c82ca94b921ff7c7cc130daa897a6dda939d97e93c6e94641c360ee489fc68625303001132de2255a364b26627e1590beb163b9824b55e200a056e0082832866e8d8f931ba431b29b8919466a05faa5264fe7e90ee05d618ec81396b56ead08e622a37d2696239d6029610e48c3a86e360894a13ba1a3210667c828492db98dca3e2076cc3735a920a3ca505d382bbcc7649f14606d56993fd676bf6b21baf658647cc2921deec0cde7a0f2f8031c8d8be0079c531659141344cd1fd0a4f28419497f9722a3daafe3b4186f6b6457e0bc7cd75a20ee27fd9adebab32041f755214dbc6bffa90cc0225b39da2e5c2d3b6469726563742d636f6e74726163742d6175746f2d6170706c69636174696f6e68f68b90ee152498d69c44929da4e330c22f2a9cce2356deb44d690362f3d0b9a71f1661a883ae6cc97d4b6c49515c53bc3ad70681a1cdf669785aca9356ee27f0c57e16840df040f15088dc2f81fe391c3923bec73e23a9662efc9c229c6a00799bd8ebd9dd237a3fdfa8abd96d3f80ad584603a8e4a943e7cfc01dbd7fead9a26469706673582212203fb388f2c61b0d7946cb3b0390fa067dfc7e36c95b276ff14ba38bdc1c536a4864736f6c63430008210033f0c57e16840df040f15088dc2f81fe391c3923bec73e23a9662efc9c229c6a00","linkReferences":{}},"methodIdentifiers":{"UPGRADE_INTERFACE_VERSION()":"ad3cb1cc","accumulatedCommission()":"ae693673","addAuthorizedContract(address)":"98eaa4a7","admins(address)":"429b62e5","applyToJob(address,string,string,string[],uint256[],uint32)":"fc5dee81","authorizedContracts(address)":"d5b9221b","bridge()":"e78cea92","calculateCommission(uint256)":"ce9b4321","calculateTokensForAmount(address,uint256)":"94928b84","cctpReceiver()":"6c2db78f","cctpTransceiver()":"23dc878c","commissionPercentage()":"d575fe64","genesis()":"a7f0b3de","getJob(string)":"77e32407","getUserEarnedTokens(address)":"5843905f","getUserGovernanceActions(address)":"f14db783","getUserGovernanceActionsInBand(address,uint256)":"e8486355","getUserRewardInfo(address)":"69517310","handleReleasePaymentCrossChain(address,string,uint256,uint32,address)":"e4e2a856","handleStartDirectContract(address,address,string,string,string[],uint256[],uint32)":"6009b51f","handleUpdateUserClaimData(address,uint256)":"b9acee1d","incrementGovernanceAction(address)":"99f426be","initialize(address,address,address,address,address,address)":"cc2a9a5b","isAuthorizedContract(address)":"66d0ead3","jobApplicantChainDomain(string,address)":"29f8d96d","lockNextMilestone(address,string,uint256)":"f4f5d3c7","minCommission()":"eca688ea","nativeAthena()":"dc209f13","nativeDAO()":"687694ae","owner()":"8da5cb5b","postJob(string,address,string,string[],uint256[])":"42b0f652","proxiableUUID()":"52d1902d","releaseDisputedFunds(address,uint256,uint32)":"301f8257","releasePaymentAndLockNext(address,string,uint256,uint256)":"1277bbf8","removeAuthorizedContract(address)":"e6b165ed","renounceOwnership()":"715018a6","rewardsContract()":"220cce97","setAdmin(address,bool)":"4b0bddd2","setApplicantChainDomain(string,address,uint32)":"c088797b","setBridge(address)":"8dd14802","setCCTPReceiver(address)":"d6e3c76a","setCCTPTransceiver(address)":"e4a9d8ee","setCommissionPercentage(uint256)":"39b87c8f","setGenesis(address)":"eb14b353","setMinCommission(uint256)":"de8fd3af","setNativeAthena(address)":"4efac43f","setNativeDAO(address)":"a2f7cb26","setRewardsContract(address)":"dfa0dfa5","setTreasury(address)":"f0f44260","setUsdcToken(address)":"5d886f22","startJob(address,string,uint256,bool)":"09d6667e","submitWork(address,string,string)":"ba245963","syncRewardsData(bytes)":"87e821d6","teamTokensAllocated(address)":"0f0166e1","transferOwnership(address)":"f2fde38b","treasury()":"61d027b3","upgradeFromDAO(address)":"40634e3b","upgradeToAndCall(address,bytes)":"4f1ef286","usdcToken()":"11eac855","withdrawAllCommission()":"f27bf0bf","withdrawCommission(uint256)":"17face84"},"id":13}