{"abi":[{"type":"constructor","inputs":[],"stateMutability":"nonpayable"},{"type":"receive","stateMutability":"payable"},{"type":"function","name":"UPGRADE_INTERFACE_VERSION","inputs":[],"outputs":[{"name":"","type":"string","internalType":"string"}],"stateMutability":"view"},{"type":"function","name":"accumulatedFees","inputs":[],"outputs":[{"name":"","type":"uint256","internalType":"uint256"}],"stateMutability":"view"},{"type":"function","name":"activityTracker","inputs":[],"outputs":[{"name":"","type":"address","internalType":"contract IActivityTracker"}],"stateMutability":"view"},{"type":"function","name":"addMembers","inputs":[{"name":"_members","type":"address[]","internalType":"address[]"},{"name":"_oracleName","type":"string","internalType":"string"}],"outputs":[],"stateMutability":"nonpayable"},{"type":"function","name":"addOrUpdateOracle","inputs":[{"name":"_names","type":"string[]","internalType":"string[]"},{"name":"_members","type":"address[][]","internalType":"address[][]"},{"name":"_shortDescriptions","type":"string[]","internalType":"string[]"},{"name":"_hashOfDetails","type":"string[]","internalType":"string[]"},{"name":"_skillVerifiedAddresses","type":"address[][]","internalType":"address[][]"}],"outputs":[],"stateMutability":"nonpayable"},{"type":"function","name":"addSingleOracle","inputs":[{"name":"_name","type":"string","internalType":"string"},{"name":"_members","type":"address[]","internalType":"address[]"},{"name":"_shortDescription","type":"string","internalType":"string"},{"name":"_hashOfDetails","type":"string","internalType":"string"},{"name":"_skillVerifiedAddresses","type":"address[]","internalType":"address[]"}],"outputs":[],"stateMutability":"nonpayable"},{"type":"function","name":"admins","inputs":[{"name":"","type":"address","internalType":"address"}],"outputs":[{"name":"","type":"bool","internalType":"bool"}],"stateMutability":"view"},{"type":"function","name":"athenaClient","inputs":[],"outputs":[{"name":"","type":"address","internalType":"address"}],"stateMutability":"view"},{"type":"function","name":"bridge","inputs":[],"outputs":[{"name":"","type":"address","internalType":"address"}],"stateMutability":"view"},{"type":"function","name":"canVote","inputs":[{"name":"account","type":"address","internalType":"address"}],"outputs":[{"name":"","type":"bool","internalType":"bool"}],"stateMutability":"view"},{"type":"function","name":"daoContract","inputs":[],"outputs":[{"name":"","type":"address","internalType":"address"}],"stateMutability":"view"},{"type":"function","name":"disputeStartTimes","inputs":[{"name":"","type":"string","internalType":"string"}],"outputs":[{"name":"","type":"uint256","internalType":"uint256"}],"stateMutability":"view"},{"type":"function","name":"finalizeSkillVerification","inputs":[{"name":"_applicationId","type":"uint256","internalType":"uint256"}],"outputs":[],"stateMutability":"nonpayable"},{"type":"function","name":"genesis","inputs":[],"outputs":[{"name":"","type":"address","internalType":"contract IOpenworkGenesis"}],"stateMutability":"view"},{"type":"function","name":"getOracleActiveMemberCount","inputs":[{"name":"_oracleName","type":"string","internalType":"string"}],"outputs":[{"name":"","type":"uint256","internalType":"uint256"}],"stateMutability":"view"},{"type":"function","name":"getOracleMembers","inputs":[{"name":"_oracleName","type":"string","internalType":"string"}],"outputs":[{"name":"","type":"address[]","internalType":"address[]"}],"stateMutability":"view"},{"type":"function","name":"getUserVotingPower","inputs":[{"name":"account","type":"address","internalType":"address"}],"outputs":[{"name":"","type":"uint256","internalType":"uint256"}],"stateMutability":"view"},{"type":"function","name":"handleAskAthena","inputs":[{"name":"applicant","type":"address","internalType":"address"},{"name":"description","type":"string","internalType":"string"},{"name":"hash","type":"string","internalType":"string"},{"name":"targetOracle","type":"string","internalType":"string"},{"name":"fees","type":"string","internalType":"string"}],"outputs":[],"stateMutability":"nonpayable"},{"type":"function","name":"handleRaiseDispute","inputs":[{"name":"jobId","type":"string","internalType":"string"},{"name":"disputeHash","type":"string","internalType":"string"},{"name":"oracleName","type":"string","internalType":"string"},{"name":"fee","type":"uint256","internalType":"uint256"},{"name":"disputedAmount","type":"uint256","internalType":"uint256"},{"name":"disputeRaiser","type":"address","internalType":"address"}],"outputs":[],"stateMutability":"nonpayable"},{"type":"function","name":"handleSubmitSkillVerification","inputs":[{"name":"applicant","type":"address","internalType":"address"},{"name":"applicationHash","type":"string","internalType":"string"},{"name":"feeAmount","type":"uint256","internalType":"uint256"},{"name":"targetOracleName","type":"string","internalType":"string"}],"outputs":[],"stateMutability":"nonpayable"},{"type":"function","name":"initialize","inputs":[{"name":"_owner","type":"address","internalType":"address"},{"name":"_daoContract","type":"address","internalType":"address"},{"name":"_genesis","type":"address","internalType":"address"},{"name":"_nowjContract","type":"address","internalType":"address"},{"name":"_usdcToken","type":"address","internalType":"address"}],"outputs":[],"stateMutability":"nonpayable"},{"type":"function","name":"isOracleActive","inputs":[{"name":"_oracleName","type":"string","internalType":"string"}],"outputs":[{"name":"","type":"bool","internalType":"bool"}],"stateMutability":"view"},{"type":"function","name":"isOracleMember","inputs":[{"name":"_account","type":"address","internalType":"address"},{"name":"_oracleName","type":"string","internalType":"string"}],"outputs":[{"name":"","type":"bool","internalType":"bool"}],"stateMutability":"view"},{"type":"function","name":"jobDisputeCounters","inputs":[{"name":"","type":"string","internalType":"string"}],"outputs":[{"name":"","type":"uint256","internalType":"uint256"}],"stateMutability":"view"},{"type":"function","name":"memberActivityThresholdDays","inputs":[],"outputs":[{"name":"","type":"uint256","internalType":"uint256"}],"stateMutability":"view"},{"type":"function","name":"minOracleMembers","inputs":[],"outputs":[{"name":"","type":"uint256","internalType":"uint256"}],"stateMutability":"view"},{"type":"function","name":"minStakeRequired","inputs":[],"outputs":[{"name":"","type":"uint256","internalType":"uint256"}],"stateMutability":"view"},{"type":"function","name":"nativeDAO","inputs":[],"outputs":[{"name":"","type":"address","internalType":"address"}],"stateMutability":"view"},{"type":"function","name":"nowjContract","inputs":[],"outputs":[{"name":"","type":"address","internalType":"contract INativeOpenWorkJobContract"}],"stateMutability":"view"},{"type":"function","name":"oracleManager","inputs":[],"outputs":[{"name":"","type":"address","internalType":"contract IOracleManager"}],"stateMutability":"view"},{"type":"function","name":"owner","inputs":[],"outputs":[{"name":"","type":"address","internalType":"address"}],"stateMutability":"view"},{"type":"function","name":"proxiableUUID","inputs":[],"outputs":[{"name":"","type":"bytes32","internalType":"bytes32"}],"stateMutability":"view"},{"type":"function","name":"removeMemberFromOracle","inputs":[{"name":"_oracleName","type":"string","internalType":"string"},{"name":"_memberToRemove","type":"address","internalType":"address"}],"outputs":[],"stateMutability":"nonpayable"},{"type":"function","name":"removeOracle","inputs":[{"name":"_oracleNames","type":"string[]","internalType":"string[]"}],"outputs":[],"stateMutability":"nonpayable"},{"type":"function","name":"renounceOwnership","inputs":[],"outputs":[],"stateMutability":"nonpayable"},{"type":"function","name":"rewardsContract","inputs":[],"outputs":[{"name":"","type":"address","internalType":"contract IOpenWorkRewards"}],"stateMutability":"view"},{"type":"function","name":"setActivityTracker","inputs":[{"name":"_activityTracker","type":"address","internalType":"address"}],"outputs":[],"stateMutability":"nonpayable"},{"type":"function","name":"setAdmin","inputs":[{"name":"_admin","type":"address","internalType":"address"},{"name":"_status","type":"bool","internalType":"bool"}],"outputs":[],"stateMutability":"nonpayable"},{"type":"function","name":"setAthenaClient","inputs":[{"name":"_athenaClient","type":"address","internalType":"address"}],"outputs":[],"stateMutability":"nonpayable"},{"type":"function","name":"setBridge","inputs":[{"name":"_bridge","type":"address","internalType":"address"}],"outputs":[],"stateMutability":"nonpayable"},{"type":"function","name":"setDAOContract","inputs":[{"name":"_daoContract","type":"address","internalType":"address"}],"outputs":[],"stateMutability":"nonpayable"},{"type":"function","name":"setGenesis","inputs":[{"name":"_genesis","type":"address","internalType":"address"}],"outputs":[],"stateMutability":"nonpayable"},{"type":"function","name":"setNOWJContract","inputs":[{"name":"_nowjContract","type":"address","internalType":"address"}],"outputs":[],"stateMutability":"nonpayable"},{"type":"function","name":"setNativeDAO","inputs":[{"name":"_nativeDAO","type":"address","internalType":"address"}],"outputs":[],"stateMutability":"nonpayable"},{"type":"function","name":"setOracleManager","inputs":[{"name":"_oracleManager","type":"address","internalType":"address"}],"outputs":[],"stateMutability":"nonpayable"},{"type":"function","name":"setRewardsContract","inputs":[{"name":"_rewardsContract","type":"address","internalType":"address"}],"outputs":[],"stateMutability":"nonpayable"},{"type":"function","name":"setUSDCToken","inputs":[{"name":"_usdcToken","type":"address","internalType":"address"}],"outputs":[],"stateMutability":"nonpayable"},{"type":"function","name":"settleAskAthena","inputs":[{"name":"_athenaId","type":"uint256","internalType":"uint256"}],"outputs":[],"stateMutability":"nonpayable"},{"type":"function","name":"settleDispute","inputs":[{"name":"_disputeId","type":"string","internalType":"string"}],"outputs":[],"stateMutability":"nonpayable"},{"type":"function","name":"transferOwnership","inputs":[{"name":"newOwner","type":"address","internalType":"address"}],"outputs":[],"stateMutability":"nonpayable"},{"type":"function","name":"updateMemberActivityThreshold","inputs":[{"name":"_newThresholdDays","type":"uint256","internalType":"uint256"}],"outputs":[],"stateMutability":"nonpayable"},{"type":"function","name":"updateMinOracleMembers","inputs":[{"name":"_newMinMembers","type":"uint256","internalType":"uint256"}],"outputs":[],"stateMutability":"nonpayable"},{"type":"function","name":"updateMinStakeRequired","inputs":[{"name":"_newMinStake","type":"uint256","internalType":"uint256"}],"outputs":[],"stateMutability":"nonpayable"},{"type":"function","name":"updateOracleActiveStatus","inputs":[{"name":"_oracleName","type":"string","internalType":"string"}],"outputs":[],"stateMutability":"nonpayable"},{"type":"function","name":"updateVotingPeriod","inputs":[{"name":"_newPeriodMinutes","type":"uint256","internalType":"uint256"}],"outputs":[],"stateMutability":"nonpayable"},{"type":"function","name":"upgradeFromDAO","inputs":[{"name":"newImplementation","type":"address","internalType":"address"}],"outputs":[],"stateMutability":"nonpayable"},{"type":"function","name":"upgradeToAndCall","inputs":[{"name":"newImplementation","type":"address","internalType":"address"},{"name":"data","type":"bytes","internalType":"bytes"}],"outputs":[],"stateMutability":"payable"},{"type":"function","name":"usdcToken","inputs":[],"outputs":[{"name":"","type":"address","internalType":"contract IERC20"}],"stateMutability":"view"},{"type":"function","name":"vote","inputs":[{"name":"_votingType","type":"uint8","internalType":"enum NativeAthena.VotingType"},{"name":"_disputeId","type":"string","internalType":"string"},{"name":"_voteFor","type":"bool","internalType":"bool"},{"name":"_claimAddress","type":"address","internalType":"address"}],"outputs":[],"stateMutability":"nonpayable"},{"type":"function","name":"votingPeriodMinutes","inputs":[],"outputs":[{"name":"","type":"uint256","internalType":"uint256"}],"stateMutability":"view"},{"type":"function","name":"withdraw","inputs":[],"outputs":[],"stateMutability":"nonpayable"},{"type":"event","name":"AdminUpdated","inputs":[{"name":"admin","type":"address","indexed":true,"internalType":"address"},{"name":"status","type":"bool","indexed":false,"internalType":"bool"}],"anonymous":false},{"type":"event","name":"AskAthenaSettled","inputs":[{"name":"athenaId","type":"uint256","indexed":true,"internalType":"uint256"},{"name":"result","type":"bool","indexed":false,"internalType":"bool"},{"name":"totalVotesFor","type":"uint256","indexed":false,"internalType":"uint256"},{"name":"totalVotesAgainst","type":"uint256","indexed":false,"internalType":"uint256"}],"anonymous":false},{"type":"event","name":"AskAthenaSubmitted","inputs":[{"name":"applicant","type":"address","indexed":true,"internalType":"address"},{"name":"targetOracle","type":"string","indexed":false,"internalType":"string"},{"name":"fees","type":"string","indexed":false,"internalType":"string"}],"anonymous":false},{"type":"event","name":"BridgeUpdated","inputs":[{"name":"oldBridge","type":"address","indexed":true,"internalType":"address"},{"name":"newBridge","type":"address","indexed":true,"internalType":"address"}],"anonymous":false},{"type":"event","name":"CrossContractCallFailed","inputs":[{"name":"account","type":"address","indexed":true,"internalType":"address"},{"name":"reason","type":"string","indexed":false,"internalType":"string"}],"anonymous":false},{"type":"event","name":"DAOContractUpdated","inputs":[{"name":"oldDAO","type":"address","indexed":true,"internalType":"address"},{"name":"newDAO","type":"address","indexed":true,"internalType":"address"}],"anonymous":false},{"type":"event","name":"DisputeFeeRefunded","inputs":[{"name":"disputeId","type":"string","indexed":true,"internalType":"string"},{"name":"disputeRaiser","type":"address","indexed":true,"internalType":"address"},{"name":"amount","type":"uint256","indexed":false,"internalType":"uint256"},{"name":"targetChain","type":"uint32","indexed":false,"internalType":"uint32"}],"anonymous":false},{"type":"event","name":"DisputeFinalized","inputs":[{"name":"disputeId","type":"string","indexed":true,"internalType":"string"},{"name":"winningSide","type":"bool","indexed":false,"internalType":"bool"},{"name":"totalVotesFor","type":"uint256","indexed":false,"internalType":"uint256"},{"name":"totalVotesAgainst","type":"uint256","indexed":false,"internalType":"uint256"}],"anonymous":false},{"type":"event","name":"DisputeRaised","inputs":[{"name":"jobId","type":"string","indexed":true,"internalType":"string"},{"name":"disputeRaiser","type":"address","indexed":true,"internalType":"address"},{"name":"fees","type":"uint256","indexed":false,"internalType":"uint256"}],"anonymous":false},{"type":"event","name":"EarnedTokensUsedForVoting","inputs":[{"name":"user","type":"address","indexed":true,"internalType":"address"},{"name":"earnedTokens","type":"uint256","indexed":false,"internalType":"uint256"},{"name":"votingType","type":"string","indexed":false,"internalType":"string"}],"anonymous":false},{"type":"event","name":"FeeDistributed","inputs":[{"name":"disputeId","type":"string","indexed":true,"internalType":"string"},{"name":"recipient","type":"address","indexed":true,"internalType":"address"},{"name":"amount","type":"uint256","indexed":false,"internalType":"uint256"}],"anonymous":false},{"type":"event","name":"FeesWithdrawn","inputs":[{"name":"owner","type":"address","indexed":true,"internalType":"address"},{"name":"amount","type":"uint256","indexed":false,"internalType":"uint256"}],"anonymous":false},{"type":"event","name":"GenesisUpdated","inputs":[{"name":"oldGenesis","type":"address","indexed":true,"internalType":"address"},{"name":"newGenesis","type":"address","indexed":true,"internalType":"address"}],"anonymous":false},{"type":"event","name":"Initialized","inputs":[{"name":"version","type":"uint64","indexed":false,"internalType":"uint64"}],"anonymous":false},{"type":"event","name":"MemberActivityThresholdUpdated","inputs":[{"name":"newThresholdDays","type":"uint256","indexed":false,"internalType":"uint256"}],"anonymous":false},{"type":"event","name":"NOWJContractUpdated","inputs":[{"name":"oldContract","type":"address","indexed":true,"internalType":"address"},{"name":"newContract","type":"address","indexed":true,"internalType":"address"}],"anonymous":false},{"type":"event","name":"OracleStatusUpdated","inputs":[{"name":"oracleName","type":"string","indexed":true,"internalType":"string"},{"name":"isActive","type":"bool","indexed":false,"internalType":"bool"},{"name":"activeMemberCount","type":"uint256","indexed":false,"internalType":"uint256"}],"anonymous":false},{"type":"event","name":"OwnershipTransferred","inputs":[{"name":"previousOwner","type":"address","indexed":true,"internalType":"address"},{"name":"newOwner","type":"address","indexed":true,"internalType":"address"}],"anonymous":false},{"type":"event","name":"RewardsContractUpdated","inputs":[{"name":"oldRewards","type":"address","indexed":true,"internalType":"address"},{"name":"newRewards","type":"address","indexed":true,"internalType":"address"}],"anonymous":false},{"type":"event","name":"SkillVerificationSettled","inputs":[{"name":"applicationId","type":"uint256","indexed":true,"internalType":"uint256"},{"name":"result","type":"bool","indexed":false,"internalType":"bool"},{"name":"totalVotesFor","type":"uint256","indexed":false,"internalType":"uint256"},{"name":"totalVotesAgainst","type":"uint256","indexed":false,"internalType":"uint256"}],"anonymous":false},{"type":"event","name":"SkillVerificationSubmitted","inputs":[{"name":"applicant","type":"address","indexed":true,"internalType":"address"},{"name":"targetOracleName","type":"string","indexed":false,"internalType":"string"},{"name":"feeAmount","type":"uint256","indexed":false,"internalType":"uint256"},{"name":"applicationId","type":"uint256","indexed":true,"internalType":"uint256"}],"anonymous":false},{"type":"event","name":"USDCTokenUpdated","inputs":[{"name":"oldToken","type":"address","indexed":true,"internalType":"address"},{"name":"newToken","type":"address","indexed":true,"internalType":"address"}],"anonymous":false},{"type":"event","name":"Upgraded","inputs":[{"name":"implementation","type":"address","indexed":true,"internalType":"address"}],"anonymous":false},{"type":"error","name":"AddressEmptyCode","inputs":[{"name":"target","type":"address","internalType":"address"}]},{"type":"error","name":"AddressInsufficientBalance","inputs":[{"name":"account","type":"address","internalType":"address"}]},{"type":"error","name":"ERC1967InvalidImplementation","inputs":[{"name":"implementation","type":"address","internalType":"address"}]},{"type":"error","name":"ERC1967NonPayable","inputs":[]},{"type":"error","name":"FailedInnerCall","inputs":[]},{"type":"error","name":"InvalidInitialization","inputs":[]},{"type":"error","name":"NotInitializing","inputs":[]},{"type":"error","name":"OwnableInvalidOwner","inputs":[{"name":"owner","type":"address","internalType":"address"}]},{"type":"error","name":"OwnableUnauthorizedAccount","inputs":[{"name":"account","type":"address","internalType":"address"}]},{"type":"error","name":"SafeERC20FailedOperation","inputs":[{"name":"token","type":"address","internalType":"address"}]},{"type":"error","name":"UUPSUnauthorizedCallContext","inputs":[]},{"type":"error","name":"UUPSUnsupportedProxiableUUID","inputs":[{"name":"slot","type":"bytes32","internalType":"bytes32"}]}],"bytecode":{"object":"0x60a080604052346100ce5730608052605a600f555f516020615f285f395f51905f525460ff8160401c166100bf576002600160401b03196001600160401b0382160161006c575b604051615e5590816100d382396080518181816120b40152818161217601526127950152f35b6001600160401b0319166001600160401b039081175f516020615f285f395f51905f525581527fc7f505b2f371ae2175ee4913f4499e1f2633a7b5936321eed1cdaeb6115181d290602090a15f80610046565b63f92ee8a960e01b5f5260045ffd5b5f80fdfe6080604052600436101561001a575b3615610018575f80fd5b005b5f5f3560e01c806302a63e841461381f5780630308b414146137e5578063059c20801461376c5780630a8eef761461354d5780630b9abbfa1461352f5780630baca2e5146135035780630f5a9d011461348857806311eac8551461345f578063144e49b2146131895780631459457a14612f77578063220cce9714612f4e57806323165bb214612de55780632af7a0b314612bff5780633948e44614612bb95780633c9ce79414612a1c5780633ccfd60b146129735780633e71a2121461294a57806340634e3b1461274857806340db1a79146126b7578063425d512a14612640578063429b62e5146126015780634a7ffcbc146125da5780634a9e7934146125855780634a9fe8f9146124205780634b0bddd21461236c5780634dea6307146123395780634f1ef28614612126578063502f68261461210857806352d1902d146120a1578063565d878c14612078578063587f5ed71461205a5780636601d96214612004578063687694ae14611fdb5780637086f54814611da5578063715018a614611d4f578063787bb31014611d2657806386b6147f14611cfd578063887e15dc146110505780638da5cb5b1461101b5780638dd1480214610fa0578063929e2e0814610f4b578063a2f7cb2614610eed578063a7f0b3de14610ec4578063ad3cb1cc14610e7b578063ad8d343514610e1e578063add6beaf14610d8d578063adfaa72e14610d5f578063b90efe2e14610b7d578063ba56261e14610b27578063cae3831c146109da578063d3075f2a146108eb578063d93e1184146108b8578063dc2969eb14610713578063dfa0dfa514610698578063e78cea921461066f578063eb14b353146105f4578063ee0a585814610362578063ef00ef431461032f578063f24b6b3714610311578063f2fde38b146102e45763f67321c6146102c4575061000e565b346102e157806003193601126102e1576020600d54604051908152f35b80fd5b50346102e15760203660031901126102e15761030e61030161389c565b610309614913565b6148b5565b80f35b50346102e157806003193601126102e1576020600f54604051908152f35b50346102e15760203660031901126102e157338152600960205261035960ff604083205416613c0a565b600435600d5580f35b50346102e15760203660031901126102e1576004356001600160401b03811161059757610393903690600401613982565b90338152600960205260ff60408220541680156105e0575b6103b490613c0a565b6003546040516332b8e0c760e21b8152602060048201529190819083906001600160a01b031681806103e96024820189613b21565b03915afa9182156105d35781926105af575b5080600f546201518081029080820462015180149015171561059b576008546001600160a01b03169493825b81518110156104f2576001600160a01b0361044282846144c6565b516040516303acd0ad60e51b8152911660048201526020816024818b5afa9081156104e75785916104b2575b5083811515918261049d575b5050610489575b600101610427565b936104956001916141af565b949050610481565b6104a9919250426148a8565b1115835f61047a565b90506020813d82116104df575b816104cc6020938361390e565b810103126104db57515f61046e565b5f80fd5b3d91506104bf565b6040513d87823e3d90fd5b8385888883600c5484101592803b1561059757816040518092639e57841160e01b82528183816105268a8a60048401613e1c565b03925af1801561058c57610573575b50507f4268575b6cf68e1c6d8da3e874758c378dc46ef7a69108c0bc680a806b818c6391610564604092613e3c565b9382519182526020820152a280f35b8161057d9161390e565b610588578385610535565b8380fd5b6040513d84823e3d90fd5b5080fd5b634e487b7160e01b82526011600452602482fd5b6105cc9192503d8084833e6105c4818361390e565b8101906144a1565b905f6103fb565b50604051903d90823e3d90fd5b506004546001600160a01b031633146103ab565b50346102e15760203660031901126102e15761060e61389c565b338252600960205261062660ff604084205416613c0a565b600380546001600160a01b039283166001600160a01b0319821681179092559091167f5f1d51aab4bd6e41be6c7feda322db860d93d0058238bf871dfafd43ecc951f98380a380f35b50346102e157806003193601126102e1576006546040516001600160a01b039091168152602090f35b50346102e15760203660031901126102e1576106b261389c565b33825260096020526106ca60ff604084205416613c0a565b600b80546001600160a01b039283166001600160a01b0319821681179092559091167f1411e470e89195b3fc751143c6dfe8c8cb1207e319c33747a017fb39e13ef92c8380a380f35b50346102e15760203660031901126102e1576004356001600160401b038111610597579080610749610777933690600401613982565b60018060a01b036003541660405180809681946332b8e0c760e21b8352602060048401526024830190613b21565b03915afa9182156105d357819261089c575b5080600f549162015180830292808404620151801490151715610888576008546001600160a01b03169392815b845181101561087d576001600160a01b036107d182876144c6565b516040516303acd0ad60e51b8152911660048201526020816024818a5afa908115610872578491610841575b5082811515918261082c575b5050610818575b6001016107b6565b926108246001916141af565b939050610810565b610838919250426148a8565b1115825f610809565b90506020813d821161086a575b8161085b6020938361390e565b810103126104db57515f6107fd565b3d915061084e565b6040513d86823e3d90fd5b602084604051908152f35b634e487b7160e01b81526011600452602490fd5b6108b19192503d8084833e6105c4818361390e565b905f610789565b50346102e15760203660031901126102e15733815260096020526108e260ff604083205416613c0a565b600435600e5580f35b50346102e15760403660031901126102e157806004356001600160401b0381116109d75761091d903690600401613a35565b6024356001600160401b0381116109d55761093c903690600401613982565b9061095160018060a01b03845416331461470a565b6004546001600160a01b0316916109698315156141bd565b823b156109d3576109b19261099f85809460405196879586948593636983af9560e11b8552604060048601526044850190613b45565b83810360031901602485015290613b21565b03925af1801561058c576109c25750f35b816109cc9161390e565b6102e15780f35b505b505b50fd5b50346102e15760203660031901126102e1576004356001600160401b03811161059757610a0b903690600401613982565b60035460405163a9daf6ad60e01b8152602060048201526001600160a01b0390911690838180610a3e6024820187613b21565b0381855afa908115610872578491610b05575b50515115610acd57610a8291839160405180809581946332b8e0c760e21b8352602060048401526024830190613b21565b03915afa90811561058c5782610aae9392610ab2575b5050604051918291602083526020830190613b45565b0390f35b610ac692503d8091833e6105c4818361390e565b5f80610a98565b60405162461bcd60e51b815260206004820152601060248201526f13dc9858db19481b9bdd08199bdd5b9960821b6044820152606490fd5b610b2191503d8086833e610b19818361390e565b8101906140bd565b5f610a51565b50346102e15760203660031901126102e157600435906001600160401b0382116102e15760208080610b5c3660048701613982565b604051928184925191829101835e8101601081520301902054604051908152f35b50346102e15760803660031901126102e157610b9761389c565b6024356001600160401b038111610d0557610bb6903690600401613982565b6044356064356001600160401b038111610d0157610bd8903690600401613982565b9060018060a01b036006541633148015610d4b575b610bf690613fdd565b610c07610c0283613b8e565b61401a565b60035460405163db144d0160e01b81529486916001600160a01b0316602087600481845afa968715610d40578397610d09575b50803b15610d0557604051633aaf8bb760e11b8152600481018890526001600160a01b039092166024830181905260a060448401529583918391829084908290610ca490610c8c9060a4840190613b21565b8a60648401526003198382030160848401528b613b21565b03925af1801561058c57610cec575b50507f15b66c0cbfc87dbf2cd5b52d76249c81b1ca02430f5136fb55f6c77f304ace6291610ce66040519283928361488c565b0390a380f35b81610cf69161390e565b610d0157845f610cb3565b8480fd5b8280fd5b925095506020823d602011610d38575b81610d266020938361390e565b810103126104db57869151955f610c3a565b3d9150610d19565b6040513d85823e3d90fd5b506007546001600160a01b03163314610bed565b50346102e15760203660031901126102e1576020610d83610d7e61389c565b61476c565b6040519015158152f35b50346102e15760403660031901126102e157806004356001600160401b0381116109d757610dbf903690600401613982565b610dc76138b2565b90610ddc60018060a01b03845416331461470a565b6004546001600160a01b031691610df48315156141bd565b823b156109d3576109b19284928360405180968195829463add6beaf60e01b845260048401614479565b50346102e15760203660031901126102e1577f1cbba4e19e2b731f9b754e78a5e9412c411a9c6c7c2eb99d2ede4acfcc92b672602060043533845260098252610e6d60ff604086205416613c0a565b80600f55604051908152a180f35b50346102e157806003193601126102e15750610aae604051610e9e60408261390e565b60058152640352e302e360dc1b6020820152604051918291602083526020830190613b21565b50346102e157806003193601126102e1576003546040516001600160a01b039091168152602090f35b50346102e15760203660031901126102e157610f0761389c565b610f2860018060a01b035f516020615d205f395f51905f5254163314613c0a565b600a80546001600160a01b0319166001600160a01b039290921691909117905580f35b50346102e15760203660031901126102e157610f6561389c565b3382526009602052610f7d60ff604084205416613c0a565b600480546001600160a01b0319166001600160a01b039290921691909117905580f35b50346102e15760203660031901126102e157610fba61389c565b3382526009602052610fd260ff604084205416613c0a565b600680546001600160a01b039283166001600160a01b0319821681179092559091167faae9beddccf584528e87b66c6ff2563825c8a1433305b8a656e9b5f9bf3904998380a380f35b50346102e157806003193601126102e1575f516020615d205f395f51905f52546040516001600160a01b039091168152602090f35b50346102e15760803660031901126102e1576004359060038210156102e1576024356001600160401b0381116105975761108e903690600401613982565b6044359081151593848303610588576110a56138c8565b6110ae3361476c565b15611ccd576001600160a01b0381168015611c9d576110cc33613e96565b968715611c6d578691841593845f14611b6457506003546001600160a01b031690813b15611b6057889161112283898d94604051978896879586946317a957fb60e11b865260a0600487015260a4860190613b21565b9233602486015260448501526064840152608483015203925af1801561147157908791611b4b575b50505b611b3757156114a0575060035460405163a54294af60e01b8152602060048201526001600160a01b0390911694909284848061118c6024820187613b21565b0381895afa9384156104e757859461147c575b5061012084016111b181511515613c3c565b604051631390f92560e31b8152602081806111d0338960048401614479565b03818b5afa8015611471578790611432575b6111ed91501561582e565b6111fc60e08601511515615862565b5195600d5496603c880297808904603c149015171561141e57611223879861122b92613c88565b42111561589a565b803b156114055785604051809263cd5b752f60e01b8252818381611253338b60048401614479565b03925af19081156113fa578691611409575b50506008546001600160a01b0316803b15611405578580916024604051809481936341b3d2a160e01b83523360048401525af19081156113fa5786916113e5575b5050156113705760a06112c7600180831b0360035416926080860151613c88565b93015190803b15610d01576112f693858094604051968795869485936390c7417d60e01b8552600485016158e6565b03925af1801561058c5761135b575b50505b60055481906001600160a01b031680611321575b505080f35b803b156109d757818091602460405180948193634cfa135f60e11b83523360048401525af1801561058c571561131c57816109cc9161390e565b816113659161390e565b6102e157805f611305565b61138e60018060a01b03600354169160a06080860151950151613c88565b90803b15610d01576113ba93858094604051968795869485936390c7417d60e01b8552600485016158e6565b03925af1801561058c576113d0575b5050611308565b816113da9161390e565b6102e157805f6113c9565b816113ef9161390e565b610d0157845f6112a6565b6040513d88823e3d90fd5b8580fd5b816114139161390e565b610d0157845f611265565b634e487b7160e01b87526011600452602487fd5b506020813d602011611469575b8161144c6020938361390e565b81010312611465576114606111ed91613b81565b6111e2565b8680fd5b3d915061143f565b6040513d89823e3d90fd5b6114999194503d8087833e611491818361390e565b810190613cef565b925f61119f565b929392600181036117ff57506114b59061576f565b6003546040516314c2c26560e31b8152600481018390526001600160a01b039091169390928584602481885afa9384156113fa5786946117db575b50602084015161150a906001600160a01b031615156143d2565b6040516301efdb7160e71b815260208180611529338860048401615815565b0381895afa9081156114715787916117a1575b5061176c5761155060e08501511515614407565b610100840151600d5490603c820291808304603c1490151715611758579061157791613c88565b42116117225785946080850161158d8151613b8e565b6116d3575b50803b15611405578560405180926309ff8cbf60e31b82528183816115bb338b60048401615815565b03925af19081156113fa5786916116be575b50506008546001600160a01b0316803b15611405578580916024604051809481936341b3d2a160e01b83523360048401525af19081156113fa5786916116a9575b50501561165f5760c061163060018060a01b03600354169260a0860151613c88565b93015190803b15610d01576112f6938580946040519687958694859363327fa2fd60e21b8552600485016158d0565b61167d60018060a01b03600354169160c060a0860151950151613c88565b90803b15610d01576113ba938580946040519687958694859363327fa2fd60e21b8552600485016158d0565b816116b39161390e565b610d0157845f61160e565b816116c89161390e565b610d0157845f6115cd565b6116e091965051336144ee565b156116ed5785945f611592565b60405162461bcd60e51b815260206004820152600d60248201526c27b930b1b6329036b2b6b132b960991b6044820152606490fd5b60405162461bcd60e51b815260206004820152600e60248201526d159bdd1a5b99c8195e1c1a5c995960921b6044820152606490fd5b634e487b7160e01b88526011600452602488fd5b60405162461bcd60e51b815260206004820152600d60248201526c105b1c9958591e481d9bdd1959609a1b6044820152606490fd5b90506020813d6020116117d3575b816117bc6020938361390e565b81010312611465576117cd90613b81565b5f61153c565b3d91506117af565b6117f89194503d8088833e6117f0818361390e565b8101906142dd565b925f6114f0565b929392600214611811575b5050905080f35b61181a9061576f565b600354604051634cc7894760e11b8152600481018390526001600160a01b039091169490928484602481895afa9384156104e7578594611b13575b50602084015161186f906001600160a01b031615156143d2565b604051631a9a66db60e21b81526020818061188e338860048401615815565b03818a5afa80156113fa578690611ad8575b6118ab91501561582e565b6118bb6101008501511515615862565b61012084015195600d5496603c880297808904603c149015171561141e5761122387986118e792613c88565b803b15611405578560405180926348e35fd760e11b825281838161190f338b60048401615815565b03925af19081156113fa578691611ac3575b50506008546001600160a01b0316803b15611405578580916024604051809481936341b3d2a160e01b83523360048401525af19081156113fa578691611aae575b505015611a395760e061198460018060a01b03600354169260c0860151613c88565b93015190803b15610d01576119b39385809460405196879586948593630693975b60e41b8552600485016158d0565b03925af1801561058c57611a24575b50505b60055481906001600160a01b0316806119df575b8061180a565b803b156109d757818091602460405180948193634cfa135f60e11b83523360048401525af1801561058c57156119d95781611a199161390e565b6102e157805f6119d9565b81611a2e9161390e565b6102e157805f6119c2565b611a5760018060a01b03600354169160e060c0860151950151613c88565b90803b15610d0157611a839385809460405196879586948593630693975b60e41b8552600485016158d0565b03925af1801561058c57611a99575b50506119c5565b81611aa39161390e565b6102e157805f611a92565b81611ab89161390e565b610d0157845f611962565b81611acd9161390e565b610d0157845f611921565b506020813d602011611b0b575b81611af26020938361390e565b8101031261140557611b066118ab91613b81565b6118a0565b3d9150611ae5565b611b309194503d8087833e611b28818361390e565b810190614595565b925f611855565b634e487b7160e01b85526021600452602485fd5b81611b559161390e565b61140557855f61114a565b8880fd5b88935091505060018403611be757611b7b8561576f565b6003546001600160a01b03169190823b15611b605787928992838c93611bb960405197889687958694636d0faa9560e01b865233906004870161473c565b03925af1801561147157908791611bd2575b505061114d565b81611bdc9161390e565b61140557855f611bcb565b86915060028414611bf9575b5061114d565b611c028561576f565b6003546001600160a01b03169190823b15611b605787928992838c93611c406040519788968795869463d22e505360e01b865233906004870161473c565b03925af1801561147157908791611c58575b50611bf3565b81611c629161390e565b61140557855f611c52565b60405162461bcd60e51b81526020600482015260086024820152672737903837bbb2b960c11b6044820152606490fd5b60405162461bcd60e51b81526020600482015260086024820152674e6f20636c61696d60c01b6044820152606490fd5b60405162461bcd60e51b81526020600482015260086024820152674e6f207374616b6560c01b6044820152606490fd5b50346102e157806003193601126102e1576007546040516001600160a01b039091168152602090f35b50346102e157806003193601126102e1576005546040516001600160a01b039091168152602090f35b50346102e157806003193601126102e157611d68614913565b5f516020615d205f395f51905f5280546001600160a01b0319811690915581906001600160a01b03165f516020615da05f395f51905f528280a380f35b50346102e15760a03660031901126102e157611dbf61389c565b6024356001600160401b038111610d0557611dde903690600401613982565b906044356001600160401b03811161058857611dfe903690600401613982565b90836064356001600160401b03811161059757611e1f903690600401613982565b926084356001600160401b038111610d0557611e3f903690600401613982565b9260018060a01b036006541633148015611fc7575b611e5d90613fdd565b600354604051635f75a56d60e11b815291906001600160a01b0316602083600481845afa9283156104e7578593611f90575b50803b15610d015784928360405180968195829463ba20799560e01b84526004840152600160a01b60019003169b8c60248401526044830160c0905260c48301611ed891613b21565b828103600319016064840152611eed91613b21565b818103600319016084830152611f03908b613b21565b8181036003190160a4830152611f19908a613b21565b03925af1801561058c57611f7b575b50507f673e8492a8c891881088721a3a1bb84615b4e118117a35fb5cdf8be91dc07f4691611f75611f6792604051938493604085526040850190613b21565b908382036020850152613b21565b0390a280f35b81611f859161390e565b61058857835f611f28565b945091506020843d602011611fbf575b81611fad6020938361390e565b810103126104db57879351915f611e8f565b3d9150611fa0565b506007546001600160a01b03163314611e54565b50346102e157806003193601126102e157600a546040516001600160a01b039091168152602090f35b50346102e15760203660031901126102e157600435906001600160401b0382116102e157602080806120393660048701613982565b604051928184925191829101835e8101601181520301902054604051908152f35b50346102e157806003193601126102e1576020600254604051908152f35b50346102e157806003193601126102e1576004546040516001600160a01b039091168152602090f35b50346102e157806003193601126102e1577f00000000000000000000000000000000000000000000000000000000000000006001600160a01b031630036120f95760206040515f516020615d805f395f51905f528152f35b63703e46dd60e11b8152600490fd5b50346102e157806003193601126102e1576020600e54604051908152f35b5060403660031901126102e15761213b61389c565b906024356001600160401b03811161059757366023820112156105975761216c90369060248160040135910161394c565b6001600160a01b037f000000000000000000000000000000000000000000000000000000000000000016308114908115612317575b5061230857338252600960205260ff60408320541680156122f4575b6121c690613c0a565b6040516352d1902d60e01b8152926001600160a01b0381169190602085600481865afa809585966122c0575b5061220b57634c9c8ce360e01b84526004839052602484fd5b9091845f516020615d805f395f51905f5281036122ae5750813b1561229c575f516020615d805f395f51905f5280546001600160a01b031916821790555f516020615dc05f395f51905f528480a28151839015612282578083602061227e95519101845af46122786146db565b91615cc1565b5080f35b5050503461228d5780f35b63b398979f60e01b8152600490fd5b634c9c8ce360e01b8452600452602483fd5b632a87526960e21b8552600452602484fd5b9095506020813d6020116122ec575b816122dc6020938361390e565b81010312610d015751945f6121f2565b3d91506122cf565b506006546001600160a01b031633146121bd565b63703e46dd60e11b8252600482fd5b5f516020615d805f395f51905f52546001600160a01b0316141590505f6121a1565b50346102e15760203660031901126102e157338152600960205261236360ff604083205416613c0a565b600435600c5580f35b50346102e15760403660031901126102e15761238661389c565b60243590811515809203610d055760207f235bc17e7930760029e9f4d860a2a8089976de5b381cf8380fc11c1d88a111339160018060a01b035f516020615d205f395f51905f5254163314801561240c575b6123e190613c0a565b6001600160a01b0316808552600982526040808620805460ff191660ff87161790555193845292a280f35b50600a546001600160a01b031633146123d8565b50346102e15760a03660031901126102e157806004356001600160401b0381116109d757612452903690600401613982565b6024356001600160401b0381116109d557612471903690600401613a35565b6044356001600160401b0381116109d357612490903690600401613982565b906064356001600160401b038111610d01576124b0903690600401613982565b916084356001600160401b038111611405576124d0903690600401613a35565b6124e460018060a01b03875416331461470a565b6004546001600160a01b0316916124fc8315156141bd565b823b156114655761254f956109b161253d936125738a986125618a966040519c8d9b8c9a8b99634a9fe8f960e01b8b5260a060048c015260a48b0190613b21565b8981036003190160248b015290613b45565b87810360031901604489015290613b21565b85810360031901606487015290613b21565b83810360031901608485015290613b45565b50346102e15760203660031901126102e15761259f61389c565b33825260096020526125b760ff604084205416613c0a565b600880546001600160a01b0319166001600160a01b039290921691909117905580f35b50346102e157806003193601126102e157546040516001600160a01b039091168152602090f35b50346102e15760203660031901126102e15760209060ff906040906001600160a01b0361262c61389c565b168152600984522054166040519015158152f35b50346102e15760203660031901126102e15761265a61389c565b338252600960205261267260ff604084205416613c0a565b81546001600160a01b039182166001600160a01b031982168117845591167fe2d8d090ec8181d6498d84a6f75ec89c7d13cdcc4309c46ae725b27f7d0923068380a380f35b50346102e15760203660031901126102e157806004356001600160401b0381116109d7576126e99036906004016139b7565b6126fd60018060a01b03835416331461470a565b6004546001600160a01b03166127148115156141bd565b803b156109d5576040516340db1a7960e01b81526020600482015291839183918290849082906109b19060248301906141f8565b50346102e15760203660031901126102e15761276261389c565b6006546001600160a01b031691903383900361291c57604051602093612788858361390e565b8382526001600160a01b037f0000000000000000000000000000000000000000000000000000000000000000163081149081156128fa575b506128eb576127e6903385526009865260ff6040862054169081156128e1575b50613c0a565b6040516352d1902d60e01b81526001600160a01b03831694908181600481895afa8591816128b2575b5061282857634c9c8ce360e01b85526004869052602485fd5b5f516020615d805f395f51905f5281036122ae5750823b1561289e575f516020615d805f395f51905f5280546001600160a01b0319168617905592938493905f516020615dc05f395f51905f528580a281511561289457815161227e9492839201845af46122786146db565b50505061228d5780f35b634c9c8ce360e01b84526004859052602484fd5b9091508281813d83116128da575b6128ca818361390e565b810103126114055751905f61280f565b503d6128c0565b905033145f6127e0565b63703e46dd60e11b8452600484fd5b5f516020615d805f395f51905f52546001600160a01b0316141590505f6127c0565b60405162461bcd60e51b815260206004820152600660248201526542726964676560d01b6044820152606490fd5b50346102e157806003193601126102e1576008546040516001600160a01b039091168152602090f35b50346102e157806003193601126102e157338152600960205261299c60ff604083205416613c0a565b4780156129ea578180808093335af16129b36146db565b50156129bc5780f35b60405162461bcd60e51b815260206004820152600660248201526511985a5b195960d21b6044820152606490fd5b60405162461bcd60e51b815260206004820152600a6024820152694e6f2062616c616e636560b01b6044820152606490fd5b50346102e15760203660031901126102e157600354604051634cc7894760e11b815260048035908201819052916001600160a01b0316908381602481855afa908115610872578491612b9f575b506020810151612a83906001600160a01b031615156143d2565b612a9261016082015115613de4565b612aa26101008201511515614407565b610120810151600d5490603c820291808304603c1490151715612b8b57612ad391612acc91613c88565b4211614447565b60c08101918251918560e082019384511092803b1561059757604051633b348cf360e21b81526004810188905284151560248201529082908290604490829084905af1801561058c57612b76575b50507fe331e58a7c97022b307f5200c195237bd12cf1329130392b7d98d2f5b397015b93612b67612b5860a0611f7594015161576f565b84612b6289615172565b615411565b51925160405193849384613e58565b81612b809161390e565b61140557855f612b21565b634e487b7160e01b86526011600452602486fd5b612bb391503d8086833e611b28818361390e565b5f612a69565b50346102e15760403660031901126102e157612bd361389c565b90602435906001600160401b0382116102e1576020610d8384612bf93660048701613982565b906144ee565b50346102e15760203660031901126102e1576003546040516314c2c26560e31b815260048035908201819052916001600160a01b03168382602481845afa918215610872578492612dc9575b50602082018051909190612c69906001600160a01b031615156143d2565b612c7861014084015115613de4565b612c8760e08401511515614407565b610100830151600d5490603c820291808304603c149015171561141e57612cb191612acc91613c88565b60a08301928584519360c083019485511093803b15610d055760405163111006db60e01b81526004810189905285151560248201529083908290604490829084905af18015610d405785918491612db0575b5050612d4a575b50507f42ae7075f0e049265d5e31f7a5ba9ba5e0fb666e0ae8ecd6bb4dfa15b357567593612b67611f7592846060612d418a615172565b92015191615229565b600354608084015191516001600160a01b03918216929116823b1561058857612d8c9284928360405180968195829463e525510760e01b845260048401614479565b03925af1801561058c5715612d0a5781612da59161390e565b61140557855f612d0a565b81925090612dbd9161390e565b6105975783825f612d03565b612dde9192503d8086833e6117f0818361390e565b905f612c4b565b50346102e15760a03660031901126102e157806004356001600160401b0381116109d757612e179036906004016139b7565b6024356001600160401b0381116109d557612e36903690600401613aa3565b6044356001600160401b0381116109d357612e559036906004016139b7565b906064356001600160401b038111610d0157612e759036906004016139b7565b916084356001600160401b03811161140557612e95903690600401613aa3565b3386526009602052612ead60ff604088205416613c0a565b6004546001600160a01b031691612ec58315156141bd565b823b1561146557612f18956109b1612f0693612f3c8a98612f2a8a966040519c8d9b8c9a8b9963118b2dd960e11b8b5260a060048c015260a48b01906141f8565b8981036003190160248b015290614250565b878103600319016044890152906141f8565b858103600319016064870152906141f8565b83810360031901608485015290614250565b50346102e157806003193601126102e157600b546040516001600160a01b039091168152602090f35b50346102e15760a03660031901126102e157612f9161389c565b612f996138b2565b906044356001600160a01b0381169081900361058857612fb76138c8565b6084356001600160a01b0381169290839003611405575f516020615e005f395f51905f5254604081901c60ff161595906001600160401b03811680159081613181575b6001149081613177575b15908161316e575b5061315f576001600160401b031981166001175f516020615e005f395f51905f525586613137575b5061303d615ae7565b613045615ae7565b61304e856148b5565b613056615ae7565b86546001600160a01b03199081166001600160a01b03928316178855600380548216939093179092556005805490921692169190911790558061311d575b506003600c55603c600d556064600e556001600160a01b03168252600960205260408220805460ff191660011790556130ca5780f35b60ff60401b195f516020615e005f395f51905f5254165f516020615e005f395f51905f52557fc7f505b2f371ae2175ee4913f4499e1f2633a7b5936321eed1cdaeb6115181d2602060405160018152a180f35b600180546001600160a01b0319169190911790555f613094565b6001600160481b0319166001600160401b01175f516020615e005f395f51905f52555f613034565b63f92ee8a960e01b8852600488fd5b9050155f61300c565b303b159150613004565b889150612ffa565b50346102e15760c03660031901126102e1576004356001600160401b038111610597576131ba903690600401613982565b6024356001600160401b038111610d05576131d9903690600401613982565b6044356001600160401b038111610588576131f8903690600401613982565b916064359160a435938560018060a01b0386168096036102e15761326d9160018060a01b03600654163314801561344b575b61323390613fdd565b61323f610c0282613b8e565b60018060a01b0360035416604051808095819463a9daf6ad60e01b8352602060048401526024830190613b21565b03915afa80156113fa576020918791613431575b50015151600c54116133fe57849060405192805193602081818401968088835e810160108152030190206132b581546141af565b905561331b60016132db6040516020818651808b835e8101601081520301902054615172565b9560208060405198899382850197518091895e840190602d60f81b83830152805192839101602183015e010186838201520301601f19810186528561390e565b6040519084518091835e601190820190815281900360200190204290556003546001600160a01b0316803b15610d055760405163fec17fe960e01b815260a0600482015291839183918290849082906133959061337b60a484018c613b21565b608435602485015283810360031901604485015290613b21565b8b60648301528a608483015203925af1801561058c576133e9575b505060206133de7f27fa90971b66777e07575f648a5fa9d7b1b4b0a755ec7646f0307165edd5f53f92613e3c565b92604051908152a380f35b816133f39161390e565b61058857835f6133b0565b60405162461bcd60e51b815260206004820152600b60248201526a4d696e206d656d6265727360a81b6044820152606490fd5b61344591503d8089833e610b19818361390e565b5f613281565b506007546001600160a01b0316331461322a565b50346102e157806003193601126102e1576001546040516001600160a01b039091168152602090f35b50346102e15760203660031901126102e1576134a261389c565b33825260096020526134ba60ff604084205416613c0a565b600180546001600160a01b039283166001600160a01b0319821681179092559091167f9c4a3fabb33cb3d3fe4fde0ee645166e23d7fe00c47fa67cda8b698a68af3ccc8380a380f35b50346102e15760203660031901126102e157602061352761352261389c565b613e96565b604051908152f35b50346102e157806003193601126102e1576020600c54604051908152f35b50346104db5760203660031901126104db576004356001600160401b0381116104db5761357e903690600401613982565b906040516135a5835191602081818701948086835e81016011815203019020541515613c3c565b6020604051809285518091835e8101601181520301902054600d54603c810290808204603c1490151715613758576135dc91613c88565b42106137275760035460405163a54294af60e01b81526020600482015292906001600160a01b03165f84806136146024820186613b21565b0381845afa938415613700575f9461370b575b506136386101208501511515613c3c565b61364761010085015115613de4565b608084019081519160a086019283511091803b156104db575f60405180926325985c9760e21b8252818381613680898c60048401613e1c565b03925af18015613700576136d3575b506136c6611f75916136bd84896136b7828a9b9c5f516020615d605f395f51905f529b614cb5565b89614f35565b51935195613e3c565b9460405193849384613e58565b5f516020615d605f395f51905f52949550611f75916136f55f6136c69361390e565b5f969550915061368f565b6040513d5f823e3d90fd5b6137209194503d805f833e611491818361390e565b925f613627565b60405162461bcd60e51b8152602060048201526009602482015268139bdd08195b99195960ba1b6044820152606490fd5b634e487b7160e01b5f52601160045260245ffd5b346104db5760203660031901126104db5761378561389c565b335f52600960205261379d60ff60405f205416613c0a565b600580546001600160a01b039283166001600160a01b0319821681179092559091167f9d4deb5ab4de88a4c0510604f0d3eb81d3d71a07a7f84ef56bad08c07083ca955f80a3005b346104db5760203660031901126104db576004356001600160401b0381116104db57610d8361381a6020923690600401613982565b613b8e565b346104db5760203660031901126104db5761383861389c565b613840614913565b6001600160a01b0316801561386557600780546001600160a01b031916919091179055005b60405162461bcd60e51b815260206004820152600f60248201526e496e76616c6964206164647265737360881b6044820152606490fd5b600435906001600160a01b03821682036104db57565b602435906001600160a01b03821682036104db57565b606435906001600160a01b03821682036104db57565b61016081019081106001600160401b038211176138fa57604052565b634e487b7160e01b5f52604160045260245ffd5b601f909101601f19168101906001600160401b038211908210176138fa57604052565b6001600160401b0381116138fa57601f01601f191660200190565b92919261395882613931565b91613966604051938461390e565b8294818452818301116104db578281602093845f960137010152565b9080601f830112156104db5781602061399d9335910161394c565b90565b6001600160401b0381116138fa5760051b60200190565b9080601f830112156104db5781356139ce816139a0565b926139dc604051948561390e565b81845260208085019260051b820101918383116104db5760208201905b838210613a0857505050505090565b81356001600160401b0381116104db57602091613a2a87848094880101613982565b8152019101906139f9565b9080601f830112156104db57813590613a4d826139a0565b92613a5b604051948561390e565b82845260208085019360051b8201019182116104db57602001915b818310613a835750505090565b82356001600160a01b03811681036104db57815260209283019201613a76565b9080601f830112156104db578135613aba816139a0565b92613ac8604051948561390e565b81845260208085019260051b820101918383116104db5760208201905b838210613af457505050505090565b81356001600160401b0381116104db57602091613b1687848094880101613a35565b815201910190613ae5565b805180835260209291819084018484015e5f828201840152601f01601f1916010190565b90602080835192838152019201905f5b818110613b625750505090565b82516001600160a01b0316845260209384019390920191600101613b55565b519081151582036104db57565b6020613bc19160018060a01b03600854166040518080958194637c38b97560e01b83528660048401526024830190613b21565b03915afa908115613700575f91613bd6575090565b90506020813d602011613c02575b81613bf16020938361390e565b810103126104db5761399d90613b81565b3d9150613be4565b15613c1157565b606460405162461bcd60e51b8152602060048201526004602482015263082eae8d60e31b6044820152fd5b15613c4357565b60405162461bcd60e51b815260206004820152600a6024820152694e6f206469737075746560b01b6044820152606490fd5b8181029291811591840414171561375857565b9190820180921161375857565b81601f820112156104db57805190613cac82613931565b92613cba604051948561390e565b828452602083830101116104db57815f9260208093018386015e8301015290565b51906001600160a01b03821682036104db57565b6020818303126104db578051906001600160401b0382116104db570190610160828203126104db5760405191613d24836138de565b80516001600160401b0381116104db5782613d40918301613c95565b83526020818101519084015260408101516001600160401b0381116104db5761014092613d6e918301613c95565b6040840152613d7f60608201613cdb565b60608401526080810151608084015260a081015160a0840152613da460c08201613b81565b60c0840152613db560e08201613b81565b60e0840152613dc76101008201613b81565b610100840152610120810151610120840152015161014082015290565b15613deb57565b60405162461bcd60e51b8152602060048201526009602482015268119a5b985b1a5e995960ba1b6044820152606490fd5b90613e34602091949394604084526040840190613b21565b931515910152565b602090604051918183925191829101835e81015f815203902090565b60409194939260608201951515825260208201520152565b91908260809103126104db5781519160208101519161399d606060408401519301613b81565b5f80546001600160a01b031680613f41575b50600b546001600160a01b03169182613ec2575b50905090565b60405163d6e49b2560e01b81526001600160a01b03909116600482015291602090839060249082905afa908115613700575f91613f0b575b613f049250613c88565b805f613ebc565b90506020823d602011613f39575b81613f266020938361390e565b810103126104db57613f04915190613efa565b3d9150613f19565b604051630733bdef60e41b81526001600160a01b038416600482015290608090829060249082905afa8015613700575f905f925f91613fa7575b5080613f9e575b613f8d575b50613ea8565b613f979250613c75565b5f80613f87565b50801515613f82565b915050613fcc915060803d608011613fd6575b613fc4818361390e565b810190613e70565b909291505f613f7b565b503d613fba565b15613fe457565b60405162461bcd60e51b815260206004820152600e60248201526d139bdd08185d5d1a1bdc9a5e995960921b6044820152606490fd5b1561402157565b60405162461bcd60e51b815260206004820152600f60248201526e4f7261636c6520696e61637469766560881b6044820152606490fd5b9080601f830112156104db57815161406f816139a0565b9261407d604051948561390e565b81845260208085019260051b8201019283116104db57602001905b8282106140a55750505090565b602080916140b284613cdb565b815201910190614098565b6020818303126104db578051906001600160401b0382116104db570160a0818303126104db576040519160a083016001600160401b038111848210176138fa5760405281516001600160401b0381116104db578161411c918401613c95565b835260208201516001600160401b0381116104db578161413d918401614058565b602084015260408201516001600160401b0381116104db5781614161918401613c95565b604084015260608201516001600160401b0381116104db5781614185918401613c95565b606084015260808201516001600160401b0381116104db576141a79201614058565b608082015290565b5f1981146137585760010190565b156141c457565b60405162461bcd60e51b815260206004820152600c60248201526b27379027b930b1b632a6b3b960a11b6044820152606490fd5b9080602083519182815201916020808360051b8301019401925f915b83831061422357505050505090565b9091929394602080614241600193601f198682030187528951613b21565b97019301930191939290614214565b9080602083519182815201916020808360051b8301019401925f915b83831061427b57505050505090565b9091929394601f19828203018352855190602080835192838152019201905f905b8082106142bb575050506020806001929701930193019193929061426c565b82516001600160a01b031684526020938401939092019160019091019061429c565b6020818303126104db578051906001600160401b0382116104db5701610160818303126104db5760405191614311836138de565b8151835261432160208301613cdb565b602084015260408201516001600160401b0381116104db5781614345918401613c95565b6040840152606082810151908401526080820151916001600160401b0383116104db5761437a610140926143c9948301613c95565b608085015260a081015160a085015260c081015160c085015261439f60e08201613b81565b60e08501526101008101516101008501526143bd6101208201613b81565b61012085015201613b81565b61014082015290565b156143d957565b60405162461bcd60e51b815260206004820152600660248201526504e6f206170760d41b6044820152606490fd5b1561440e57565b60405162461bcd60e51b8152602060048201526011602482015270566f74696e67206e6f742061637469766560781b6044820152606490fd5b1561444e57565b606460405162461bcd60e51b815260206004820152600460248201526315d85a5d60e21b6044820152fd5b90614491602091949394604084526040840190613b21565b6001600160a01b03909416910152565b906020828203126104db5781516001600160401b0381116104db5761399d9201614058565b80518210156144da5760209160051b010190565b634e487b7160e01b5f52603260045260245ffd5b5f6145219260018060a01b036003541660405180809681946332b8e0c760e21b8352602060048401526024830190613b21565b03915afa918215613700575f92614579575b505f5b8251811015614572576001600160a01b0361455182856144c6565b51166001600160a01b0383161461456a57600101614536565b505050600190565b5050505f90565b61458e9192503d805f833e6105c4818361390e565b905f614533565b6020818303126104db578051906001600160401b0382116104db5701610180818303126104db576040519161018083016001600160401b038111848210176138fa57604052815183526145ea60208301613cdb565b602084015260408201516001600160401b0381116104db578161460e918401613c95565b604084015260608201516001600160401b0381116104db5781614632918401613c95565b606084015260808201516001600160401b0381116104db5781614656918401613c95565b608084015260a0820151916001600160401b0383116104db57614681610160926146d2948301613c95565b60a085015260c081015160c085015260e081015160e08501526146a76101008201613b81565b6101008501526101208101516101208501526146c66101408201613b81565b61014085015201613b81565b61016082015290565b3d15614705573d906146ec82613931565b916146fa604051938461390e565b82523d5f602084013e565b606090565b1561471157565b60405162461bcd60e51b815260206004820152600360248201526244414f60e81b6044820152606490fd5b9081526001600160a01b039182166020820152911660408201526060810191909152901515608082015260a00190565b5f546001600160a01b031680614809575b50600b546001600160a01b031690816147965750505f90565b60405163d6e49b2560e01b81526001600160a01b03909116600482015290602090829060249082905afa908115613700575f916147d7575b50600e54111590565b90506020813d602011614801575b816147f26020938361390e565b810103126104db57515f6147ce565b3d91506147e5565b604051630733bdef60e41b81526001600160a01b038316600482015290608090829060249082905afa908115613700575f905f92614867575b508161485a575b50614854575f61477d565b50600190565b9050600e5411155f614849565b9050614882915060803d608011613fd657613fc4818361390e565b929150505f614842565b9291906148a3602091604086526040860190613b21565b930152565b9190820391821161375857565b6001600160a01b03168015614900575f516020615d205f395f51905f5280546001600160a01b0319811683179091556001600160a01b03165f516020615da05f395f51905f525f80a3565b631e4fbdf760e01b5f525f60045260245ffd5b5f516020615d205f395f51905f52546001600160a01b0316330361493357565b63118cdaa760e01b5f523360045260245ffd5b6020818303126104db578051906001600160401b0382116104db5701610140818303126104db576040519161014083016001600160401b038111848210176138fa5760405281516001600160401b0381116104db57816149a7918401613c95565b83526149b560208301613cdb565b602084015260408201516001600160401b0381116104db57816149d9918401614058565b604084015260608201516001600160401b0381116104db57816149fd918401613c95565b6060840152608082015160ff811681036104db57608084015260a08201516001600160401b0381116104db5782019080601f830112156104db578151614a42816139a0565b92614a50604051948561390e565b81845260208085019260051b820101918383116104db5760208201905b838210614ab5575050505050906101209160a084015260c081015160c084015260e081015160e0840152614aa46101008201613cdb565b610100840152015161012082015290565b81516001600160401b0381116104db57602091614ad787848094880101613c95565b815201910190614a6d565b6020818303126104db578051906001600160401b0382116104db570160e0818303126104db576040519160e083016001600160401b038111848210176138fa576040528151835260208201516001600160401b0381116104db5781614b48918401613c95565b6020840152614b5960408301613cdb565b604084015260608201516001600160401b0381116104db5781614b7d918401613c95565b606084015260808201516001600160401b0381116104db57820181601f820112156104db57805190614bae826139a0565b92614bbc604051948561390e565b82845260208085019360051b830101918183116104db5760208101935b838510614c15575050505050608083015260a081015163ffffffff811681036104db5760a0830152614c0d9060c001613cdb565b60c082015290565b84516001600160401b0381116104db5782016040818503601f1901126104db5760408051929083016001600160401b038111848210176138fa576040526020820151926001600160401b0384116104db57604083614c7a886020809881980101613c95565b8352015183820152815201940193614bd9565b6001600160a01b039091168152602081019190915263ffffffff909116604082015260600190565b6005546001600160a01b0316928315614d645715614e5757614cd690615908565b9060018060a01b03600354166040516377e3240760e01b8152602060048201525f8180614d066024820188613b21565b0381855afa908115613700575f91614e35575b5060608301516020820180519093916001600160a01b0390811691168103614dc157505090516001600160a01b031692614d539150615a22565b905b6001600160a01b038316614d6a575b50505050565b6020015192803b156104db57614d9a935f80946040519687958694859363301f825760e01b855260048501614c8d565b03925af1801561370057614db1575b808080614d64565b5f614dbb9161390e565b5f614da9565b614dee9350906101205f93969296015191604051809581948293632e68140160e11b84526004840161488c565b03915afa9081156137005763ffffffff9160a0915f91614e13575b5001511690614d55565b614e2f91503d805f833e614e27818361390e565b810190614ae2565b5f614e09565b614e5191503d805f833e614e49818361390e565b810190614946565b5f614d19565b505050565b6020818303126104db578051906001600160401b0382116104db570181601f820112156104db57805190614e8f826139a0565b92614e9d604051948561390e565b82845260208085019360071b830101918183116104db57602001925b828410614ec7575050505090565b6080848303126104db576040519060808201906001600160401b038211838310176138fa57608092602092604052614efe87613cdb565b8152614f0b838801613cdb565b8382015260408701516040820152614f2560608801613b81565b6060820152815201930192614eb9565b90916003545f60405180926349868b4160e01b8252602060048301528180614f606024820189613b21565b03916001600160a01b03165afa908115613700575f916150ef575b505115806150e1575b806150cd575b614f9f57610140614f9d930151916155bc565b565b50606082018051909190614fbc906001600160a01b031682615bb6565b9163ffffffff8316926003841480156150ba575b1561503457505f516020615de05f395f51905f529161502661014060409361501060018060a01b036001541660018060a01b03835116848b015191615b12565b519601516001600160a01b039096169591613e3c565b9382519182526020820152a3565b600554825161014087015194926001600160a01b0391821692909116803b156104db5761507b955f80946040519889958694859363301f825760e01b855260048501614c8d565b03925af192831561370057610140604093615026925f516020615de05f395f51905f52966150aa575b50615010565b5f6150b49161390e565b5f6150a4565b506005546001600160a01b031615614fd0565b506001546001600160a01b03161515614f8a565b506101408301511515614f84565b61510b91503d805f833e615103818361390e565b810190614e5c565b5f614f7b565b811561511b570490565b634e487b7160e01b5f52601260045260245ffd5b9061513982613931565b615146604051918261390e565b8281528092615157601f1991613931565b0190602036910137565b9081518110156144da570160200190565b80156152095780815f925b6151f557508061518c8361512f565b92915b61519857505090565b5f1982019182116137585781600a820491600a830290838204600a14841517156137585760ff916151c8916148a8565b1660300160ff81116137585760f81b6001600160f81b0319165f1a906151ee9085615161565b538061518f565b91615201600a916141af565b92048061517d565b5060405161521860408261390e565b60018152600360fc1b602082015290565b929092821580156153fe575b6153f8576003546001600160a01b0316915f6152508361576f565b6024604051809681936388fc75f560e01b835260048301525afa928315613700575f936153dc575b508251156153d5575f915f5b84518110156152d357606061529982876144c6565b5101511515871515146152af575b600101615284565b926152cb60019160406152c287896144c6565b51015190613c88565b9390506152a7565b5092919493909480156153ce575f5b83518110156153c6578060606152fa600193876144c6565b510151151587151514806153a8575b615314575b016152e2565b615335836153306040615327858a6144c6565b51015187613c75565b615111565b80615341575b5061530e565b61536a81848060a01b03855416858060a01b036020615360878c6144c6565b5101511690615b12565b828060a01b03602061537c84896144c6565b51015116905f516020615d405f395f51905f52602061539a8a613e3c565b92604051908152a35f61533b565b50818060a01b0360206153bb83886144c6565b510151161515615309565b505050505050565b5050505050565b9350505050565b6153f19193503d805f833e615103818361390e565b915f615278565b50915050565b506001546001600160a01b031615615235565b929092821580156155a9575b6153f8576003546001600160a01b0316915f6154388361576f565b6024604051809681936365c5ef1760e11b835260048301525afa928315613700575f9361558d575b508251156153d5575f915f5b84518110156154b257606061548182876144c6565b510151151587151514615497575b60010161546c565b926154aa60019160406152c287896144c6565b93905061548f565b5092919493909480156153ce575f5b83518110156153c6578060606154d9600193876144c6565b5101511515871515148061556f575b6154f3575b016154c1565b615506836153306040615327858a6144c6565b80615512575b506154ed565b61553181848060a01b03855416858060a01b036020615360878c6144c6565b828060a01b03602061554384896144c6565b51015116905f516020615d405f395f51905f5260206155618a613e3c565b92604051908152a35f61550c565b50818060a01b03602061558283886144c6565b5101511615156154e8565b6155a29193503d805f833e615103818361390e565b915f615460565b506001546001600160a01b03161561541d565b9290928215801561575c575b6153f8576003546040516349868b4160e01b81526020600482015292905f9084906001600160a01b031681806156016024820188613b21565b03915afa928315613700575f93615740575b508251156153d5575f915f5b845181101561566557606061563482876144c6565b51015115158715151461564a575b60010161561f565b9261565d60019160406152c287896144c6565b939050615642565b5092919493909480156153ce575f5b83518110156153c65780606061568c600193876144c6565b51015115158715151480615722575b6156a6575b01615674565b6156b9836153306040615327858a6144c6565b806156c5575b506156a0565b6156e481848060a01b03855416858060a01b036020615360878c6144c6565b828060a01b0360206156f684896144c6565b51015116905f516020615d405f395f51905f5260206157148a613e3c565b92604051908152a35f6156bf565b50818060a01b03602061573583886144c6565b51015116151561569b565b6157559193503d805f833e615103818361390e565b915f615613565b506001546001600160a01b0316156155c8565b905f915f5b815181101561581157600360fc1b6001600160f81b03196157958385615161565b51161015806157ef575b6157ac575b600101615774565b92600a810290808204600a1490151715613758576157ca8483615161565b5160f81c90602f198201918211613758576001916157e791613c88565b9390506157a4565b50603960f81b6001600160f81b03196158088385615161565b5116111561579f565b5050565b9081526001600160a01b03909116602082015260400190565b1561583557565b60405162461bcd60e51b8152602060048201526005602482015264159bdd195960da1b6044820152606490fd5b1561586957565b60405162461bcd60e51b81526020600482015260096024820152684e6f20766f74696e6760b81b6044820152606490fd5b156158a157565b60405162461bcd60e51b8152602060048201526007602482015266115e1c1a5c995960ca1b6044820152606490fd5b6040919493926060820195825260208201520152565b6158fe60409295949395606083526060830190613b21565b9460208201520152565b905f198251805b615965575b505f198114615962576159268161512f565b905f5b818110615937575090925050565b6001906001600160f81b031961594d8288615161565b51165f1a61595b8286615161565b5301615929565b50565b5f19810181811161375857602d60f81b6001600160f81b03196159888388615161565b5116146159a0575b508015613758575f19018061590f565b6001949293919493855b8451811015615a1857600360fc1b6001600160f81b03196159cb8388615161565b51161080156159f7575b6159e1576001016159aa565b5092949193505f5b15615990579150505f615914565b50603960f81b6001600160f81b0319615a108388615161565b5116116159d5565b50929491936159e9565b905f905f5b8351811015615ae057602d60f81b6001600160f81b0319615a488387615161565b511614615a5757600101615a27565b9091505b8015615ada57615a6a8161512f565b905f5b818110615aaf575050615a8191925061576f565b619ce18103615a8f57505f90565b619d288103615a9e5750600290565b619d2703615aab57600390565b5f90565b6001906001600160f81b0319615ac58288615161565b51165f1a615ad38286615161565b5301615a6d565b505f9150565b5090615a5b565b60ff5f516020615e005f395f51905f525460401c1615615b0357565b631afcd79f60e31b5f5260045ffd5b5f615b6b92819260405195602087019263a9059cbb60e01b845260018060a01b03166024880152604487015260448652615b4d60648761390e565b60018060a01b031694519082865af1615b646146db565b9083615cc1565b8051908115159182615b93575b5050615b815750565b635274afe760e01b5f5260045260245ffd5b81925090602091810103126104db576020615bae9101613b81565b155f80615b78565b615bbf90615908565b6003546040516377e3240760e01b81526020600482015291926001600160a01b0390911691905f8280615bf56024820188613b21565b0381865afa918215613700575f92615ca5575b506101008201516001600160a01b0391821691161480615c97575b615c3257505061399d90615a22565b915f91610120615c5b94015191604051809581948293632e68140160e11b84526004840161488c565b03915afa9081156137005763ffffffff9160a0915f91615c7d575b5001511690565b615c9191503d805f833e614e27818361390e565b5f615c76565b506101208101511515615c23565b615cba9192503d805f833e614e49818361390e565b905f615c08565b90615ce55750805115615cd657805190602001fd5b630a12f52160e11b5f5260045ffd5b81511580615d16575b615cf6575090565b639996b31560e01b5f9081526001600160a01b0391909116600452602490fd5b50803b15615cee56fe9016d09d72d40fdae2fd8ceac6b6234c7706214fd39c1cd1e609a0528c199300d938ce505b0ec3972a4e38680375ecf020ac1ef1b034b8949bb085d64612affeed25bcfa568ce67a8d1dcba7cd4bbb9e104cf89b13efe702b2a371df5d590559360894a13ba1a3210667c828492db98dca3e2076cc3735a920a3ca505d382bbc8be0079c531659141344cd1fd0a4f28419497f9722a3daafe3b4186f6b6457e0bc7cd75a20ee27fd9adebab32041f755214dbc6bffa90cc0225b39da2e5c2d3bb96a6d6fc4275c8ca21896599a9a4c764dd0ba8ea02b114a300018499eb7fa88f0c57e16840df040f15088dc2f81fe391c3923bec73e23a9662efc9c229c6a00a26469706673582212208999409560ceaa7bc17653c06cc5a008b584add2270ddbd5a8d0e0ec09ddc72064736f6c63430008210033f0c57e16840df040f15088dc2f81fe391c3923bec73e23a9662efc9c229c6a00","linkReferences":{}},"methodIdentifiers":{"UPGRADE_INTERFACE_VERSION()":"ad3cb1cc","accumulatedFees()":"587f5ed7","activityTracker()":"3e71a212","addMembers(address[],string)":"d3075f2a","addOrUpdateOracle(string[],address[][],string[],string[],address[][])":"23165bb2","addSingleOracle(string,address[],string,string,address[])":"4a9fe8f9","admins(address)":"429b62e5","athenaClient()":"86b6147f","bridge()":"e78cea92","canVote(address)":"adfaa72e","daoContract()":"4a7ffcbc","disputeStartTimes(string)":"6601d962","finalizeSkillVerification(uint256)":"2af7a0b3","genesis()":"a7f0b3de","getOracleActiveMemberCount(string)":"dc2969eb","getOracleMembers(string)":"cae3831c","getUserVotingPower(address)":"0baca2e5","handleAskAthena(address,string,string,string,string)":"7086f548","handleRaiseDispute(string,string,string,uint256,uint256,address)":"144e49b2","handleSubmitSkillVerification(address,string,uint256,string)":"b90efe2e","initialize(address,address,address,address,address)":"1459457a","isOracleActive(string)":"0308b414","isOracleMember(address,string)":"3948e446","jobDisputeCounters(string)":"ba56261e","memberActivityThresholdDays()":"f24b6b37","minOracleMembers()":"0b9abbfa","minStakeRequired()":"502f6826","nativeDAO()":"687694ae","nowjContract()":"787bb310","oracleManager()":"565d878c","owner()":"8da5cb5b","proxiableUUID()":"52d1902d","removeMemberFromOracle(string,address)":"add6beaf","removeOracle(string[])":"40db1a79","renounceOwnership()":"715018a6","rewardsContract()":"220cce97","setActivityTracker(address)":"4a9e7934","setAdmin(address,bool)":"4b0bddd2","setAthenaClient(address)":"02a63e84","setBridge(address)":"8dd14802","setDAOContract(address)":"425d512a","setGenesis(address)":"eb14b353","setNOWJContract(address)":"059c2080","setNativeDAO(address)":"a2f7cb26","setOracleManager(address)":"929e2e08","setRewardsContract(address)":"dfa0dfa5","setUSDCToken(address)":"0f5a9d01","settleAskAthena(uint256)":"3c9ce794","settleDispute(string)":"0a8eef76","transferOwnership(address)":"f2fde38b","updateMemberActivityThreshold(uint256)":"ad8d3435","updateMinOracleMembers(uint256)":"4dea6307","updateMinStakeRequired(uint256)":"d93e1184","updateOracleActiveStatus(string)":"ee0a5858","updateVotingPeriod(uint256)":"ef00ef43","upgradeFromDAO(address)":"40634e3b","upgradeToAndCall(address,bytes)":"4f1ef286","usdcToken()":"11eac855","vote(uint8,string,bool,address)":"887e15dc","votingPeriodMinutes()":"f67321c6","withdraw()":"3ccfd60b"},"id":17}