{"abi":[{"type":"constructor","inputs":[],"stateMutability":"nonpayable"},{"type":"receive","stateMutability":"payable"},{"type":"function","name":"UPGRADE_INTERFACE_VERSION","inputs":[],"outputs":[{"name":"","type":"string","internalType":"string"}],"stateMutability":"view"},{"type":"function","name":"accumulatedFees","inputs":[],"outputs":[{"name":"","type":"uint256","internalType":"uint256"}],"stateMutability":"view"},{"type":"function","name":"activityTracker","inputs":[],"outputs":[{"name":"","type":"address","internalType":"contract IActivityTracker"}],"stateMutability":"view"},{"type":"function","name":"addAuthorizedContract","inputs":[{"name":"_contract","type":"address","internalType":"address"},{"name":"_status","type":"bool","internalType":"bool"}],"outputs":[],"stateMutability":"nonpayable"},{"type":"function","name":"addMembers","inputs":[{"name":"_members","type":"address[]","internalType":"address[]"},{"name":"_oracleName","type":"string","internalType":"string"}],"outputs":[],"stateMutability":"nonpayable"},{"type":"function","name":"addOrUpdateOracle","inputs":[{"name":"_names","type":"string[]","internalType":"string[]"},{"name":"_members","type":"address[][]","internalType":"address[][]"},{"name":"_shortDescriptions","type":"string[]","internalType":"string[]"},{"name":"_hashOfDetails","type":"string[]","internalType":"string[]"},{"name":"_skillVerifiedAddresses","type":"address[][]","internalType":"address[][]"}],"outputs":[],"stateMutability":"nonpayable"},{"type":"function","name":"addSingleOracle","inputs":[{"name":"_name","type":"string","internalType":"string"},{"name":"_members","type":"address[]","internalType":"address[]"},{"name":"_shortDescription","type":"string","internalType":"string"},{"name":"_hashOfDetails","type":"string","internalType":"string"},{"name":"_skillVerifiedAddresses","type":"address[]","internalType":"address[]"}],"outputs":[],"stateMutability":"nonpayable"},{"type":"function","name":"admins","inputs":[{"name":"","type":"address","internalType":"address"}],"outputs":[{"name":"","type":"bool","internalType":"bool"}],"stateMutability":"view"},{"type":"function","name":"authorizedContracts","inputs":[{"name":"","type":"address","internalType":"address"}],"outputs":[{"name":"","type":"bool","internalType":"bool"}],"stateMutability":"view"},{"type":"function","name":"bridge","inputs":[],"outputs":[{"name":"","type":"address","internalType":"address"}],"stateMutability":"view"},{"type":"function","name":"canVote","inputs":[{"name":"account","type":"address","internalType":"address"}],"outputs":[{"name":"","type":"bool","internalType":"bool"}],"stateMutability":"view"},{"type":"function","name":"daoContract","inputs":[],"outputs":[{"name":"","type":"address","internalType":"address"}],"stateMutability":"view"},{"type":"function","name":"disputeStartTimes","inputs":[{"name":"","type":"string","internalType":"string"}],"outputs":[{"name":"","type":"uint256","internalType":"uint256"}],"stateMutability":"view"},{"type":"function","name":"finalizeSkillVerification","inputs":[{"name":"_applicationId","type":"uint256","internalType":"uint256"}],"outputs":[],"stateMutability":"nonpayable"},{"type":"function","name":"genesis","inputs":[],"outputs":[{"name":"","type":"address","internalType":"contract IOpenworkGenesis"}],"stateMutability":"view"},{"type":"function","name":"getOracleActiveMemberCount","inputs":[{"name":"_oracleName","type":"string","internalType":"string"}],"outputs":[{"name":"","type":"uint256","internalType":"uint256"}],"stateMutability":"view"},{"type":"function","name":"getOracleMembers","inputs":[{"name":"_oracleName","type":"string","internalType":"string"}],"outputs":[{"name":"","type":"address[]","internalType":"address[]"}],"stateMutability":"view"},{"type":"function","name":"getUserVotingPower","inputs":[{"name":"account","type":"address","internalType":"address"}],"outputs":[{"name":"","type":"uint256","internalType":"uint256"}],"stateMutability":"view"},{"type":"function","name":"handleAskAthena","inputs":[{"name":"applicant","type":"address","internalType":"address"},{"name":"description","type":"string","internalType":"string"},{"name":"hash","type":"string","internalType":"string"},{"name":"targetOracle","type":"string","internalType":"string"},{"name":"fees","type":"string","internalType":"string"}],"outputs":[],"stateMutability":"nonpayable"},{"type":"function","name":"handleRaiseDispute","inputs":[{"name":"jobId","type":"string","internalType":"string"},{"name":"disputeHash","type":"string","internalType":"string"},{"name":"oracleName","type":"string","internalType":"string"},{"name":"fee","type":"uint256","internalType":"uint256"},{"name":"disputedAmount","type":"uint256","internalType":"uint256"},{"name":"disputeRaiser","type":"address","internalType":"address"}],"outputs":[],"stateMutability":"nonpayable"},{"type":"function","name":"handleSubmitSkillVerification","inputs":[{"name":"applicant","type":"address","internalType":"address"},{"name":"applicationHash","type":"string","internalType":"string"},{"name":"feeAmount","type":"uint256","internalType":"uint256"},{"name":"targetOracleName","type":"string","internalType":"string"}],"outputs":[],"stateMutability":"nonpayable"},{"type":"function","name":"initialize","inputs":[{"name":"_owner","type":"address","internalType":"address"},{"name":"_daoContract","type":"address","internalType":"address"},{"name":"_genesis","type":"address","internalType":"address"},{"name":"_nowjContract","type":"address","internalType":"address"},{"name":"_usdcToken","type":"address","internalType":"address"}],"outputs":[],"stateMutability":"nonpayable"},{"type":"function","name":"isOracleActive","inputs":[{"name":"_oracleName","type":"string","internalType":"string"}],"outputs":[{"name":"","type":"bool","internalType":"bool"}],"stateMutability":"view"},{"type":"function","name":"isOracleMember","inputs":[{"name":"_account","type":"address","internalType":"address"},{"name":"_oracleName","type":"string","internalType":"string"}],"outputs":[{"name":"","type":"bool","internalType":"bool"}],"stateMutability":"view"},{"type":"function","name":"jobDisputeCounters","inputs":[{"name":"","type":"string","internalType":"string"}],"outputs":[{"name":"","type":"uint256","internalType":"uint256"}],"stateMutability":"view"},{"type":"function","name":"memberActivityThresholdDays","inputs":[],"outputs":[{"name":"","type":"uint256","internalType":"uint256"}],"stateMutability":"view"},{"type":"function","name":"minOracleMembers","inputs":[],"outputs":[{"name":"","type":"uint256","internalType":"uint256"}],"stateMutability":"view"},{"type":"function","name":"minStakeRequired","inputs":[],"outputs":[{"name":"","type":"uint256","internalType":"uint256"}],"stateMutability":"view"},{"type":"function","name":"nativeDAO","inputs":[],"outputs":[{"name":"","type":"address","internalType":"address"}],"stateMutability":"view"},{"type":"function","name":"nowjContract","inputs":[],"outputs":[{"name":"","type":"address","internalType":"contract INativeOpenWorkJobContract"}],"stateMutability":"view"},{"type":"function","name":"oracleManager","inputs":[],"outputs":[{"name":"","type":"address","internalType":"contract IOracleManager"}],"stateMutability":"view"},{"type":"function","name":"owner","inputs":[],"outputs":[{"name":"","type":"address","internalType":"address"}],"stateMutability":"view"},{"type":"function","name":"proxiableUUID","inputs":[],"outputs":[{"name":"","type":"bytes32","internalType":"bytes32"}],"stateMutability":"view"},{"type":"function","name":"removeMemberFromOracle","inputs":[{"name":"_oracleName","type":"string","internalType":"string"},{"name":"_memberToRemove","type":"address","internalType":"address"}],"outputs":[],"stateMutability":"nonpayable"},{"type":"function","name":"removeOracle","inputs":[{"name":"_oracleNames","type":"string[]","internalType":"string[]"}],"outputs":[],"stateMutability":"nonpayable"},{"type":"function","name":"renounceOwnership","inputs":[],"outputs":[],"stateMutability":"nonpayable"},{"type":"function","name":"rewardsContract","inputs":[],"outputs":[{"name":"","type":"address","internalType":"contract IOpenWorkRewards"}],"stateMutability":"view"},{"type":"function","name":"setActivityTracker","inputs":[{"name":"_activityTracker","type":"address","internalType":"address"}],"outputs":[],"stateMutability":"nonpayable"},{"type":"function","name":"setAdmin","inputs":[{"name":"_admin","type":"address","internalType":"address"},{"name":"_status","type":"bool","internalType":"bool"}],"outputs":[],"stateMutability":"nonpayable"},{"type":"function","name":"setBridge","inputs":[{"name":"_bridge","type":"address","internalType":"address"}],"outputs":[],"stateMutability":"nonpayable"},{"type":"function","name":"setDAOContract","inputs":[{"name":"_daoContract","type":"address","internalType":"address"}],"outputs":[],"stateMutability":"nonpayable"},{"type":"function","name":"setGenesis","inputs":[{"name":"_genesis","type":"address","internalType":"address"}],"outputs":[],"stateMutability":"nonpayable"},{"type":"function","name":"setNOWJContract","inputs":[{"name":"_nowjContract","type":"address","internalType":"address"}],"outputs":[],"stateMutability":"nonpayable"},{"type":"function","name":"setNativeDAO","inputs":[{"name":"_nativeDAO","type":"address","internalType":"address"}],"outputs":[],"stateMutability":"nonpayable"},{"type":"function","name":"setOracleManager","inputs":[{"name":"_oracleManager","type":"address","internalType":"address"}],"outputs":[],"stateMutability":"nonpayable"},{"type":"function","name":"setRewardsContract","inputs":[{"name":"_rewardsContract","type":"address","internalType":"address"}],"outputs":[],"stateMutability":"nonpayable"},{"type":"function","name":"setUSDCToken","inputs":[{"name":"_usdcToken","type":"address","internalType":"address"}],"outputs":[],"stateMutability":"nonpayable"},{"type":"function","name":"settleAskAthena","inputs":[{"name":"_athenaId","type":"uint256","internalType":"uint256"}],"outputs":[],"stateMutability":"nonpayable"},{"type":"function","name":"settleDispute","inputs":[{"name":"_disputeId","type":"string","internalType":"string"}],"outputs":[],"stateMutability":"nonpayable"},{"type":"function","name":"transferOwnership","inputs":[{"name":"newOwner","type":"address","internalType":"address"}],"outputs":[],"stateMutability":"nonpayable"},{"type":"function","name":"updateMemberActivityThreshold","inputs":[{"name":"_newThresholdDays","type":"uint256","internalType":"uint256"}],"outputs":[],"stateMutability":"nonpayable"},{"type":"function","name":"updateMinOracleMembers","inputs":[{"name":"_newMinMembers","type":"uint256","internalType":"uint256"}],"outputs":[],"stateMutability":"nonpayable"},{"type":"function","name":"updateMinStakeRequired","inputs":[{"name":"_newMinStake","type":"uint256","internalType":"uint256"}],"outputs":[],"stateMutability":"nonpayable"},{"type":"function","name":"updateOracleActiveStatus","inputs":[{"name":"_oracleName","type":"string","internalType":"string"}],"outputs":[],"stateMutability":"nonpayable"},{"type":"function","name":"updateVotingPeriod","inputs":[{"name":"_newPeriodMinutes","type":"uint256","internalType":"uint256"}],"outputs":[],"stateMutability":"nonpayable"},{"type":"function","name":"upgradeFromDAO","inputs":[{"name":"newImplementation","type":"address","internalType":"address"}],"outputs":[],"stateMutability":"nonpayable"},{"type":"function","name":"upgradeToAndCall","inputs":[{"name":"newImplementation","type":"address","internalType":"address"},{"name":"data","type":"bytes","internalType":"bytes"}],"outputs":[],"stateMutability":"payable"},{"type":"function","name":"usdcToken","inputs":[],"outputs":[{"name":"","type":"address","internalType":"contract IERC20"}],"stateMutability":"view"},{"type":"function","name":"vote","inputs":[{"name":"_votingType","type":"uint8","internalType":"enum NativeAthena.VotingType"},{"name":"_disputeId","type":"string","internalType":"string"},{"name":"_voteFor","type":"bool","internalType":"bool"},{"name":"_claimAddress","type":"address","internalType":"address"}],"outputs":[],"stateMutability":"nonpayable"},{"type":"function","name":"votingPeriodMinutes","inputs":[],"outputs":[{"name":"","type":"uint256","internalType":"uint256"}],"stateMutability":"view"},{"type":"function","name":"withdraw","inputs":[],"outputs":[],"stateMutability":"nonpayable"},{"type":"event","name":"AdminUpdated","inputs":[{"name":"admin","type":"address","indexed":true,"internalType":"address"},{"name":"status","type":"bool","indexed":false,"internalType":"bool"}],"anonymous":false},{"type":"event","name":"AskAthenaSettled","inputs":[{"name":"athenaId","type":"uint256","indexed":true,"internalType":"uint256"},{"name":"result","type":"bool","indexed":false,"internalType":"bool"},{"name":"totalVotesFor","type":"uint256","indexed":false,"internalType":"uint256"},{"name":"totalVotesAgainst","type":"uint256","indexed":false,"internalType":"uint256"}],"anonymous":false},{"type":"event","name":"AskAthenaSubmitted","inputs":[{"name":"applicant","type":"address","indexed":true,"internalType":"address"},{"name":"targetOracle","type":"string","indexed":false,"internalType":"string"},{"name":"fees","type":"string","indexed":false,"internalType":"string"}],"anonymous":false},{"type":"event","name":"AuthorizedContractUpdated","inputs":[{"name":"contractAddress","type":"address","indexed":true,"internalType":"address"},{"name":"status","type":"bool","indexed":false,"internalType":"bool"}],"anonymous":false},{"type":"event","name":"BridgeUpdated","inputs":[{"name":"oldBridge","type":"address","indexed":true,"internalType":"address"},{"name":"newBridge","type":"address","indexed":true,"internalType":"address"}],"anonymous":false},{"type":"event","name":"CrossContractCallFailed","inputs":[{"name":"account","type":"address","indexed":true,"internalType":"address"},{"name":"reason","type":"string","indexed":false,"internalType":"string"}],"anonymous":false},{"type":"event","name":"DAOContractUpdated","inputs":[{"name":"oldDAO","type":"address","indexed":true,"internalType":"address"},{"name":"newDAO","type":"address","indexed":true,"internalType":"address"}],"anonymous":false},{"type":"event","name":"DisputeFeeRefunded","inputs":[{"name":"disputeId","type":"string","indexed":true,"internalType":"string"},{"name":"disputeRaiser","type":"address","indexed":true,"internalType":"address"},{"name":"amount","type":"uint256","indexed":false,"internalType":"uint256"},{"name":"targetChain","type":"uint32","indexed":false,"internalType":"uint32"}],"anonymous":false},{"type":"event","name":"DisputeFinalized","inputs":[{"name":"disputeId","type":"string","indexed":true,"internalType":"string"},{"name":"winningSide","type":"bool","indexed":false,"internalType":"bool"},{"name":"totalVotesFor","type":"uint256","indexed":false,"internalType":"uint256"},{"name":"totalVotesAgainst","type":"uint256","indexed":false,"internalType":"uint256"}],"anonymous":false},{"type":"event","name":"DisputeRaised","inputs":[{"name":"jobId","type":"string","indexed":true,"internalType":"string"},{"name":"disputeRaiser","type":"address","indexed":true,"internalType":"address"},{"name":"fees","type":"uint256","indexed":false,"internalType":"uint256"}],"anonymous":false},{"type":"event","name":"EarnedTokensUsedForVoting","inputs":[{"name":"user","type":"address","indexed":true,"internalType":"address"},{"name":"earnedTokens","type":"uint256","indexed":false,"internalType":"uint256"},{"name":"votingType","type":"string","indexed":false,"internalType":"string"}],"anonymous":false},{"type":"event","name":"FeeDistributed","inputs":[{"name":"disputeId","type":"string","indexed":true,"internalType":"string"},{"name":"recipient","type":"address","indexed":true,"internalType":"address"},{"name":"amount","type":"uint256","indexed":false,"internalType":"uint256"}],"anonymous":false},{"type":"event","name":"FeesWithdrawn","inputs":[{"name":"owner","type":"address","indexed":true,"internalType":"address"},{"name":"amount","type":"uint256","indexed":false,"internalType":"uint256"}],"anonymous":false},{"type":"event","name":"GenesisUpdated","inputs":[{"name":"oldGenesis","type":"address","indexed":true,"internalType":"address"},{"name":"newGenesis","type":"address","indexed":true,"internalType":"address"}],"anonymous":false},{"type":"event","name":"Initialized","inputs":[{"name":"version","type":"uint64","indexed":false,"internalType":"uint64"}],"anonymous":false},{"type":"event","name":"MemberActivityThresholdUpdated","inputs":[{"name":"newThresholdDays","type":"uint256","indexed":false,"internalType":"uint256"}],"anonymous":false},{"type":"event","name":"NOWJContractUpdated","inputs":[{"name":"oldContract","type":"address","indexed":true,"internalType":"address"},{"name":"newContract","type":"address","indexed":true,"internalType":"address"}],"anonymous":false},{"type":"event","name":"OracleStatusUpdated","inputs":[{"name":"oracleName","type":"string","indexed":true,"internalType":"string"},{"name":"isActive","type":"bool","indexed":false,"internalType":"bool"},{"name":"activeMemberCount","type":"uint256","indexed":false,"internalType":"uint256"}],"anonymous":false},{"type":"event","name":"OwnershipTransferred","inputs":[{"name":"previousOwner","type":"address","indexed":true,"internalType":"address"},{"name":"newOwner","type":"address","indexed":true,"internalType":"address"}],"anonymous":false},{"type":"event","name":"RewardsContractUpdated","inputs":[{"name":"oldRewards","type":"address","indexed":true,"internalType":"address"},{"name":"newRewards","type":"address","indexed":true,"internalType":"address"}],"anonymous":false},{"type":"event","name":"SkillVerificationSettled","inputs":[{"name":"applicationId","type":"uint256","indexed":true,"internalType":"uint256"},{"name":"result","type":"bool","indexed":false,"internalType":"bool"},{"name":"totalVotesFor","type":"uint256","indexed":false,"internalType":"uint256"},{"name":"totalVotesAgainst","type":"uint256","indexed":false,"internalType":"uint256"}],"anonymous":false},{"type":"event","name":"SkillVerificationSubmitted","inputs":[{"name":"applicant","type":"address","indexed":true,"internalType":"address"},{"name":"targetOracleName","type":"string","indexed":false,"internalType":"string"},{"name":"feeAmount","type":"uint256","indexed":false,"internalType":"uint256"},{"name":"applicationId","type":"uint256","indexed":true,"internalType":"uint256"}],"anonymous":false},{"type":"event","name":"USDCTokenUpdated","inputs":[{"name":"oldToken","type":"address","indexed":true,"internalType":"address"},{"name":"newToken","type":"address","indexed":true,"internalType":"address"}],"anonymous":false},{"type":"event","name":"Upgraded","inputs":[{"name":"implementation","type":"address","indexed":true,"internalType":"address"}],"anonymous":false},{"type":"error","name":"AddressEmptyCode","inputs":[{"name":"target","type":"address","internalType":"address"}]},{"type":"error","name":"AddressInsufficientBalance","inputs":[{"name":"account","type":"address","internalType":"address"}]},{"type":"error","name":"ERC1967InvalidImplementation","inputs":[{"name":"implementation","type":"address","internalType":"address"}]},{"type":"error","name":"ERC1967NonPayable","inputs":[]},{"type":"error","name":"FailedInnerCall","inputs":[]},{"type":"error","name":"InvalidInitialization","inputs":[]},{"type":"error","name":"NotInitializing","inputs":[]},{"type":"error","name":"OwnableInvalidOwner","inputs":[{"name":"owner","type":"address","internalType":"address"}]},{"type":"error","name":"OwnableUnauthorizedAccount","inputs":[{"name":"account","type":"address","internalType":"address"}]},{"type":"error","name":"SafeERC20FailedOperation","inputs":[{"name":"token","type":"address","internalType":"address"}]},{"type":"error","name":"UUPSUnauthorizedCallContext","inputs":[]},{"type":"error","name":"UUPSUnsupportedProxiableUUID","inputs":[{"name":"slot","type":"bytes32","internalType":"bytes32"}]}],"bytecode":{"object":"0x60a080604052346100ce5730608052605a600f555f516020615f905f395f51905f525460ff8160401c166100bf576002600160401b03196001600160401b0382160161006c575b604051615ebd90816100d382396080518181816121900152818161225201526128690152f35b6001600160401b0319166001600160401b039081175f516020615f905f395f51905f525581527fc7f505b2f371ae2175ee4913f4499e1f2633a7b5936321eed1cdaeb6115181d290602090a15f80610046565b63f92ee8a960e01b5f5260045ffd5b5f80fdfe6080604052600436101561001a575b3615610018575f80fd5b005b5f5f3560e01c80630308b414146138bb578063059c2080146138425780630a8eef76146136235780630b9abbfa146136055780630baca2e5146135d95780630f5a9d011461355e57806311eac85514613535578063144e49b21461325d5780631459457a1461304b578063220cce971461302257806323165bb214612eb95780632af7a0b314612cd35780633948e44614612c8d5780633c9ce79414612af05780633ccfd60b14612a475780633e71a21214612a1e57806340634e3b1461281c57806340db1a791461278b578063425d512a14612714578063429b62e5146126d55780634a7ffcbc146126ae5780634a9e7934146126595780634a9fe8f9146124f45780634b0bddd2146124485780634dea6307146124155780634f1ef28614612202578063502f6826146121e457806352d1902d1461217d578063565d878c14612154578063587f5ed7146121365780636601d962146120e0578063680e482e1461201e578063687694ae14611ff55780637086f54814611dbd578063715018a614611d67578063787bb31014611d3e578063887e15dc146110915780638da5cb5b1461105c5780638dd1480214610fe1578063929e2e0814610f8c578063a2f7cb2614610f2e578063a7f0b3de14610f05578063ad3cb1cc14610ebc578063ad8d343514610e5f578063add6beaf14610dce578063adfaa72e14610da0578063b90efe2e14610bbc578063ba56261e14610b66578063cae3831c14610a19578063d3075f2a1461092a578063d5b9221b146108eb578063d93e1184146108b8578063dc2969eb14610713578063dfa0dfa514610698578063e78cea921461066f578063eb14b353146105f4578063ee0a585814610362578063ef00ef431461032f578063f24b6b3714610311578063f2fde38b146102e45763f67321c6146102c4575061000e565b346102e157806003193601126102e1576020600d54604051908152f35b80fd5b50346102e15760203660031901126102e15761030e6103016139b7565b61030961584a565b61491d565b80f35b50346102e157806003193601126102e1576020600f54604051908152f35b50346102e15760203660031901126102e157338152600960205261035960ff604083205416613c72565b600435600d5580f35b50346102e15760203660031901126102e1576004356001600160401b03811161059757610393903690600401613999565b90338152600960205260ff60408220541680156105e0575b6103b490613c72565b6003546040516332b8e0c760e21b8152602060048201529190819083906001600160a01b031681806103e96024820189613b89565b03915afa9182156105d35781926105af575b5080600f546201518081029080820462015180149015171561059b576008546001600160a01b03169493825b81518110156104f2576001600160a01b03610442828461452e565b516040516303acd0ad60e51b8152911660048201526020816024818b5afa9081156104e75785916104b2575b5083811515918261049d575b5050610489575b600101610427565b93610495600191614217565b949050610481565b6104a991925042614910565b1115835f61047a565b90506020813d82116104df575b816104cc60209383613925565b810103126104db57515f61046e565b5f80fd5b3d91506104bf565b6040513d87823e3d90fd5b8385888883600c5484101592803b1561059757816040518092639e57841160e01b82528183816105268a8a60048401613e84565b03925af1801561058c57610573575b50507f4268575b6cf68e1c6d8da3e874758c378dc46ef7a69108c0bc680a806b818c6391610564604092613ea4565b9382519182526020820152a280f35b8161057d91613925565b610588578385610535565b8380fd5b6040513d84823e3d90fd5b5080fd5b634e487b7160e01b82526011600452602482fd5b6105cc9192503d8084833e6105c48183613925565b810190614509565b905f6103fb565b50604051903d90823e3d90fd5b506004546001600160a01b031633146103ab565b50346102e15760203660031901126102e15761060e6139b7565b338252600960205261062660ff604084205416613c72565b600380546001600160a01b039283166001600160a01b0319821681179092559091167f5f1d51aab4bd6e41be6c7feda322db860d93d0058238bf871dfafd43ecc951f98380a380f35b50346102e157806003193601126102e1576006546040516001600160a01b039091168152602090f35b50346102e15760203660031901126102e1576106b26139b7565b33825260096020526106ca60ff604084205416613c72565b600b80546001600160a01b039283166001600160a01b0319821681179092559091167f1411e470e89195b3fc751143c6dfe8c8cb1207e319c33747a017fb39e13ef92c8380a380f35b50346102e15760203660031901126102e1576004356001600160401b038111610597579080610749610777933690600401613999565b60018060a01b036003541660405180809681946332b8e0c760e21b8352602060048401526024830190613b89565b03915afa9182156105d357819261089c575b5080600f549162015180830292808404620151801490151715610888576008546001600160a01b03169392815b845181101561087d576001600160a01b036107d1828761452e565b516040516303acd0ad60e51b8152911660048201526020816024818a5afa908115610872578491610841575b5082811515918261082c575b5050610818575b6001016107b6565b92610824600191614217565b939050610810565b61083891925042614910565b1115825f610809565b90506020813d821161086a575b8161085b60209383613925565b810103126104db57515f6107fd565b3d915061084e565b6040513d86823e3d90fd5b602084604051908152f35b634e487b7160e01b81526011600452602490fd5b6108b19192503d8084833e6105c48183613925565b905f610789565b50346102e15760203660031901126102e15733815260096020526108e260ff604083205416613c72565b600435600e5580f35b50346102e15760203660031901126102e15760209060ff906040906001600160a01b036109166139b7565b168152600784522054166040519015158152f35b50346102e15760403660031901126102e157806004356001600160401b038111610a165761095c903690600401613a8e565b6024356001600160401b038111610a145761097b903690600401613999565b9061099060018060a01b038454163314614772565b6004546001600160a01b0316916109a8831515614225565b823b15610a12576109f0926109de85809460405196879586948593636983af9560e11b8552604060048601526044850190613bad565b83810360031901602485015290613b89565b03925af1801561058c57610a015750f35b81610a0b91613925565b6102e15780f35b505b505b50fd5b50346102e15760203660031901126102e1576004356001600160401b03811161059757610a4a903690600401613999565b60035460405163a9daf6ad60e01b8152602060048201526001600160a01b0390911690838180610a7d6024820187613b89565b0381855afa908115610872578491610b44575b50515115610b0c57610ac191839160405180809581946332b8e0c760e21b8352602060048401526024830190613b89565b03915afa90811561058c5782610aed9392610af1575b5050604051918291602083526020830190613bad565b0390f35b610b0592503d8091833e6105c48183613925565b5f80610ad7565b60405162461bcd60e51b815260206004820152601060248201526f13dc9858db19481b9bdd08199bdd5b9960821b6044820152606490fd5b610b6091503d8086833e610b588183613925565b810190614125565b5f610a90565b50346102e15760203660031901126102e157600435906001600160401b0382116102e15760208080610b9b3660048701613999565b604051928184925191829101835e8101601081520301902054604051908152f35b50346102e15760803660031901126102e157610bd66139b7565b6024356001600160401b038111610d4457610bf5903690600401613999565b6044356064356001600160401b038111610d4057610c17903690600401613999565b9060018060a01b036006541633148015610d8a575b610c3590614045565b610c46610c4183613bf6565b614082565b60035460405163db144d0160e01b81529486916001600160a01b0316602087600481845afa968715610d7f578397610d48575b50803b15610d4457604051633aaf8bb760e11b8152600481018890526001600160a01b039092166024830181905260a060448401529583918391829084908290610ce390610ccb9060a4840190613b89565b8a60648401526003198382030160848401528b613b89565b03925af1801561058c57610d2b575b50507f15b66c0cbfc87dbf2cd5b52d76249c81b1ca02430f5136fb55f6c77f304ace6291610d25604051928392836148f4565b0390a380f35b81610d3591613925565b610d4057845f610cf2565b8480fd5b8280fd5b925095506020823d602011610d77575b81610d6560209383613925565b810103126104db57869151955f610c79565b3d9150610d58565b6040513d85823e3d90fd5b503385526007602052604085205460ff16610c2c565b50346102e15760203660031901126102e1576020610dc4610dbf6139b7565b6147d4565b6040519015158152f35b50346102e15760403660031901126102e157806004356001600160401b038111610a1657610e00903690600401613999565b610e086139cd565b90610e1d60018060a01b038454163314614772565b6004546001600160a01b031691610e35831515614225565b823b15610a12576109f09284928360405180968195829463add6beaf60e01b8452600484016144e1565b50346102e15760203660031901126102e1577f1cbba4e19e2b731f9b754e78a5e9412c411a9c6c7c2eb99d2ede4acfcc92b672602060043533845260098252610eae60ff604086205416613c72565b80600f55604051908152a180f35b50346102e157806003193601126102e15750610aed604051610edf604082613925565b60058152640352e302e360dc1b6020820152604051918291602083526020830190613b89565b50346102e157806003193601126102e1576003546040516001600160a01b039091168152602090f35b50346102e15760203660031901126102e157610f486139b7565b610f6960018060a01b035f516020615d885f395f51905f5254163314613c72565b600a80546001600160a01b0319166001600160a01b039290921691909117905580f35b50346102e15760203660031901126102e157610fa66139b7565b3382526009602052610fbe60ff604084205416613c72565b600480546001600160a01b0319166001600160a01b039290921691909117905580f35b50346102e15760203660031901126102e157610ffb6139b7565b338252600960205261101360ff604084205416613c72565b600680546001600160a01b039283166001600160a01b0319821681179092559091167faae9beddccf584528e87b66c6ff2563825c8a1433305b8a656e9b5f9bf3904998380a380f35b50346102e157806003193601126102e1575f516020615d885f395f51905f52546040516001600160a01b039091168152602090f35b50346102e15760803660031901126102e1576004359060038210156102e1576024356001600160401b038111610597576110cf903690600401613999565b6044359081151593848303610588576110e66139e3565b6110ef336147d4565b15611d0e576001600160a01b0381168015611cde5761110d33613efe565b968715611cae578691841593845f14611ba557506003546001600160a01b031690813b15611ba157889161116383898d94604051978896879586946317a957fb60e11b865260a0600487015260a4860190613b89565b9233602486015260448501526064840152608483015203925af180156114b257908791611b8c575b50505b611b7857156114e1575060035460405163a54294af60e01b8152602060048201526001600160a01b039091169490928484806111cd6024820187613b89565b0381895afa9384156104e75785946114bd575b5061012084016111f281511515613ca4565b604051631390f92560e31b8152602081806112113389600484016144e1565b03818b5afa80156114b2578790611473575b61122e915015615896565b61123d60e086015115156158ca565b5195600d5496603c880297808904603c149015171561145f57611264879861126c92613cf0565b421115615902565b803b156114465785604051809263cd5b752f60e01b8252818381611294338b600484016144e1565b03925af190811561143b57869161144a575b50506008546001600160a01b0316803b15611446578580916024604051809481936341b3d2a160e01b83523360048401525af190811561143b578691611426575b5050156113b15760a0611308600180831b0360035416926080860151613cf0565b93015190803b15610d405761133793858094604051968795869485936390c7417d60e01b85526004850161594e565b03925af1801561058c5761139c575b50505b60055481906001600160a01b031680611362575b505080f35b803b15610a1657818091602460405180948193634cfa135f60e11b83523360048401525af1801561058c571561135d5781610a0b91613925565b816113a691613925565b6102e157805f611346565b6113cf60018060a01b03600354169160a06080860151950151613cf0565b90803b15610d40576113fb93858094604051968795869485936390c7417d60e01b85526004850161594e565b03925af1801561058c57611411575b5050611349565b8161141b91613925565b6102e157805f61140a565b8161143091613925565b610d4057845f6112e7565b6040513d88823e3d90fd5b8580fd5b8161145491613925565b610d4057845f6112a6565b634e487b7160e01b87526011600452602487fd5b506020813d6020116114aa575b8161148d60209383613925565b810103126114a6576114a161122e91613be9565b611223565b8680fd5b3d9150611480565b6040513d89823e3d90fd5b6114da9194503d8087833e6114d28183613925565b810190613d57565b925f6111e0565b9293926001810361184057506114f6906157a4565b6003546040516314c2c26560e31b8152600481018390526001600160a01b039091169390928584602481885afa93841561143b57869461181c575b50602084015161154b906001600160a01b0316151561443a565b6040516301efdb7160e71b81526020818061156a33886004840161587d565b0381895afa9081156114b25787916117e2575b506117ad5761159160e0850151151561446f565b610100840151600d5490603c820291808304603c149015171561179957906115b891613cf0565b4211611763578594608085016115ce8151613bf6565b611714575b50803b15611446578560405180926309ff8cbf60e31b82528183816115fc338b6004840161587d565b03925af190811561143b5786916116ff575b50506008546001600160a01b0316803b15611446578580916024604051809481936341b3d2a160e01b83523360048401525af190811561143b5786916116ea575b5050156116a05760c061167160018060a01b03600354169260a0860151613cf0565b93015190803b15610d4057611337938580946040519687958694859363327fa2fd60e21b855260048501615938565b6116be60018060a01b03600354169160c060a0860151950151613cf0565b90803b15610d40576113fb938580946040519687958694859363327fa2fd60e21b855260048501615938565b816116f491613925565b610d4057845f61164f565b8161170991613925565b610d4057845f61160e565b6117219196505133614556565b1561172e5785945f6115d3565b60405162461bcd60e51b815260206004820152600d60248201526c27b930b1b6329036b2b6b132b960991b6044820152606490fd5b60405162461bcd60e51b815260206004820152600e60248201526d159bdd1a5b99c8195e1c1a5c995960921b6044820152606490fd5b634e487b7160e01b88526011600452602488fd5b60405162461bcd60e51b815260206004820152600d60248201526c105b1c9958591e481d9bdd1959609a1b6044820152606490fd5b90506020813d602011611814575b816117fd60209383613925565b810103126114a65761180e90613be9565b5f61157d565b3d91506117f0565b6118399194503d8088833e6118318183613925565b810190614345565b925f611531565b929392600214611852575b5050905080f35b61185b906157a4565b600354604051634cc7894760e11b8152600481018390526001600160a01b039091169490928484602481895afa9384156104e7578594611b54575b5060208401516118b0906001600160a01b0316151561443a565b604051631a9a66db60e21b8152602081806118cf33886004840161587d565b03818a5afa801561143b578690611b19575b6118ec915015615896565b6118fc61010085015115156158ca565b61012084015195600d5496603c880297808904603c149015171561145f57611264879861192892613cf0565b803b15611446578560405180926348e35fd760e11b8252818381611950338b6004840161587d565b03925af190811561143b578691611b04575b50506008546001600160a01b0316803b15611446578580916024604051809481936341b3d2a160e01b83523360048401525af190811561143b578691611aef575b505015611a7a5760e06119c560018060a01b03600354169260c0860151613cf0565b93015190803b15610d40576119f49385809460405196879586948593630693975b60e41b855260048501615938565b03925af1801561058c57611a65575b50505b60055481906001600160a01b031680611a20575b8061184b565b803b15610a1657818091602460405180948193634cfa135f60e11b83523360048401525af1801561058c5715611a1a5781611a5a91613925565b6102e157805f611a1a565b81611a6f91613925565b6102e157805f611a03565b611a9860018060a01b03600354169160e060c0860151950151613cf0565b90803b15610d4057611ac49385809460405196879586948593630693975b60e41b855260048501615938565b03925af1801561058c57611ada575b5050611a06565b81611ae491613925565b6102e157805f611ad3565b81611af991613925565b610d4057845f6119a3565b81611b0e91613925565b610d4057845f611962565b506020813d602011611b4c575b81611b3360209383613925565b8101031261144657611b476118ec91613be9565b6118e1565b3d9150611b26565b611b719194503d8087833e611b698183613925565b8101906145fd565b925f611896565b634e487b7160e01b85526021600452602485fd5b81611b9691613925565b61144657855f61118b565b8880fd5b88935091505060018403611c2857611bbc856157a4565b6003546001600160a01b03169190823b15611ba15787928992838c93611bfa60405197889687958694636d0faa9560e01b86523390600487016147a4565b03925af180156114b257908791611c13575b505061118e565b81611c1d91613925565b61144657855f611c0c565b86915060028414611c3a575b5061118e565b611c43856157a4565b6003546001600160a01b03169190823b15611ba15787928992838c93611c816040519788968795869463d22e505360e01b86523390600487016147a4565b03925af180156114b257908791611c99575b50611c34565b81611ca391613925565b61144657855f611c93565b60405162461bcd60e51b81526020600482015260086024820152672737903837bbb2b960c11b6044820152606490fd5b60405162461bcd60e51b81526020600482015260086024820152674e6f20636c61696d60c01b6044820152606490fd5b60405162461bcd60e51b81526020600482015260086024820152674e6f207374616b6560c01b6044820152606490fd5b50346102e157806003193601126102e1576005546040516001600160a01b039091168152602090f35b50346102e157806003193601126102e157611d8061584a565b5f516020615d885f395f51905f5280546001600160a01b0319811690915581906001600160a01b03165f516020615e085f395f51905f528280a380f35b50346102e15760a03660031901126102e157611dd76139b7565b6024356001600160401b038111610d4457611df6903690600401613999565b906044356001600160401b03811161058857611e16903690600401613999565b90836064356001600160401b03811161059757611e37903690600401613999565b926084356001600160401b038111610d4457611e57903690600401613999565b9260018060a01b036006541633148015611fdf575b611e7590614045565b600354604051635f75a56d60e11b815291906001600160a01b0316602083600481845afa9283156104e7578593611fa8575b50803b15610d405784928360405180968195829463ba20799560e01b84526004840152600160a01b60019003169b8c60248401526044830160c0905260c48301611ef091613b89565b828103600319016064840152611f0591613b89565b818103600319016084830152611f1b908b613b89565b8181036003190160a4830152611f31908a613b89565b03925af1801561058c57611f93575b50507f673e8492a8c891881088721a3a1bb84615b4e118117a35fb5cdf8be91dc07f4691611f8d611f7f92604051938493604085526040850190613b89565b908382036020850152613b89565b0390a280f35b81611f9d91613925565b61058857835f611f40565b945091506020843d602011611fd7575b81611fc560209383613925565b810103126104db57879351915f611ea7565b3d9150611fb8565b503383526007602052604083205460ff16611e6c565b50346102e157806003193601126102e157600a546040516001600160a01b039091168152602090f35b50346102e15760403660031901126102e1576120386139b7565b612040613b7a565b9061204961584a565b6001600160a01b03169081156120a95760207f8f689f580b739f90591fbd591709dd98941c0afe7a47c812b93e978c4702bceb918385526007825261209d81604087209060ff801983541691151516179055565b6040519015158152a280f35b60405162461bcd60e51b815260206004820152600f60248201526e496e76616c6964206164647265737360881b6044820152606490fd5b50346102e15760203660031901126102e157600435906001600160401b0382116102e157602080806121153660048701613999565b604051928184925191829101835e8101601181520301902054604051908152f35b50346102e157806003193601126102e1576020600254604051908152f35b50346102e157806003193601126102e1576004546040516001600160a01b039091168152602090f35b50346102e157806003193601126102e1577f00000000000000000000000000000000000000000000000000000000000000006001600160a01b031630036121d55760206040515f516020615de85f395f51905f528152f35b63703e46dd60e11b8152600490fd5b50346102e157806003193601126102e1576020600e54604051908152f35b5060403660031901126102e1576122176139b7565b906024356001600160401b038111610597573660238201121561059757612248903690602481600401359101613963565b6001600160a01b037f0000000000000000000000000000000000000000000000000000000000000000163081149081156123f3575b506123e457338252600960205260ff60408320541680156123d0575b6122a290613c72565b6040516352d1902d60e01b8152926001600160a01b0381169190602085600481865afa8095859661239c575b506122e757634c9c8ce360e01b84526004839052602484fd5b9091845f516020615de85f395f51905f52810361238a5750813b15612378575f516020615de85f395f51905f5280546001600160a01b031916821790555f516020615e285f395f51905f528480a2815183901561235e578083602061235a95519101845af4612354614743565b91615d29565b5080f35b505050346123695780f35b63b398979f60e01b8152600490fd5b634c9c8ce360e01b8452600452602483fd5b632a87526960e21b8552600452602484fd5b9095506020813d6020116123c8575b816123b860209383613925565b81010312610d405751945f6122ce565b3d91506123ab565b506006546001600160a01b03163314612299565b63703e46dd60e11b8252600482fd5b5f516020615de85f395f51905f52546001600160a01b0316141590505f61227d565b50346102e15760203660031901126102e157338152600960205261243f60ff604083205416613c72565b600435600c5580f35b50346102e15760403660031901126102e1576124626139b7565b7f235bc17e7930760029e9f4d860a2a8089976de5b381cf8380fc11c1d88a11133602061248d613b7a565b9260018060a01b035f516020615d885f395f51905f525416331480156124e0575b6124b790613c72565b6001600160a01b03168085526009825260408520805460ff191660ff861515161790559261209d565b50600a546001600160a01b031633146124ae565b50346102e15760a03660031901126102e157806004356001600160401b038111610a1657612526903690600401613999565b6024356001600160401b038111610a1457612545903690600401613a8e565b6044356001600160401b038111610a1257612564903690600401613999565b906064356001600160401b038111610d4057612584903690600401613999565b916084356001600160401b038111611446576125a4903690600401613a8e565b6125b860018060a01b038754163314614772565b6004546001600160a01b0316916125d0831515614225565b823b156114a657612623956109f0612611936126478a986126358a966040519c8d9b8c9a8b99634a9fe8f960e01b8b5260a060048c015260a48b0190613b89565b8981036003190160248b015290613bad565b87810360031901604489015290613b89565b85810360031901606487015290613b89565b83810360031901608485015290613bad565b50346102e15760203660031901126102e1576126736139b7565b338252600960205261268b60ff604084205416613c72565b600880546001600160a01b0319166001600160a01b039290921691909117905580f35b50346102e157806003193601126102e157546040516001600160a01b039091168152602090f35b50346102e15760203660031901126102e15760209060ff906040906001600160a01b036127006139b7565b168152600984522054166040519015158152f35b50346102e15760203660031901126102e15761272e6139b7565b338252600960205261274660ff604084205416613c72565b81546001600160a01b039182166001600160a01b031982168117845591167fe2d8d090ec8181d6498d84a6f75ec89c7d13cdcc4309c46ae725b27f7d0923068380a380f35b50346102e15760203660031901126102e157806004356001600160401b038111610a16576127bd903690600401613a10565b6127d160018060a01b038354163314614772565b6004546001600160a01b03166127e8811515614225565b803b15610a14576040516340db1a7960e01b81526020600482015291839183918290849082906109f0906024830190614260565b50346102e15760203660031901126102e1576128366139b7565b6006546001600160a01b03169190338390036129f05760405160209361285c8583613925565b8382526001600160a01b037f0000000000000000000000000000000000000000000000000000000000000000163081149081156129ce575b506129bf576128ba903385526009865260ff6040862054169081156129b5575b50613c72565b6040516352d1902d60e01b81526001600160a01b03831694908181600481895afa859181612986575b506128fc57634c9c8ce360e01b85526004869052602485fd5b5f516020615de85f395f51905f52810361238a5750823b15612972575f516020615de85f395f51905f5280546001600160a01b0319168617905592938493905f516020615e285f395f51905f528580a281511561296857815161235a9492839201845af4612354614743565b5050506123695780f35b634c9c8ce360e01b84526004859052602484fd5b9091508281813d83116129ae575b61299e8183613925565b810103126114465751905f6128e3565b503d612994565b905033145f6128b4565b63703e46dd60e11b8452600484fd5b5f516020615de85f395f51905f52546001600160a01b0316141590505f612894565b60405162461bcd60e51b815260206004820152600660248201526542726964676560d01b6044820152606490fd5b50346102e157806003193601126102e1576008546040516001600160a01b039091168152602090f35b50346102e157806003193601126102e1573381526009602052612a7060ff604083205416613c72565b478015612abe578180808093335af1612a87614743565b5015612a905780f35b60405162461bcd60e51b815260206004820152600660248201526511985a5b195960d21b6044820152606490fd5b60405162461bcd60e51b815260206004820152600a6024820152694e6f2062616c616e636560b01b6044820152606490fd5b50346102e15760203660031901126102e157600354604051634cc7894760e11b815260048035908201819052916001600160a01b0316908381602481855afa908115610872578491612c73575b506020810151612b57906001600160a01b0316151561443a565b612b6661016082015115613e4c565b612b76610100820151151561446f565b610120810151600d5490603c820291808304603c1490151715612c5f57612ba791612ba091613cf0565b42116144af565b60c08101918251918560e082019384511092803b1561059757604051633b348cf360e21b81526004810188905284151560248201529082908290604490829084905af1801561058c57612c4a575b50507fe331e58a7c97022b307f5200c195237bd12cf1329130392b7d98d2f5b397015b93612c3b612c2c60a0611f8d9401516157a4565b84612c36896151a7565b615446565b51925160405193849384613ec0565b81612c5491613925565b61144657855f612bf5565b634e487b7160e01b86526011600452602486fd5b612c8791503d8086833e611b698183613925565b5f612b3d565b50346102e15760403660031901126102e157612ca76139b7565b90602435906001600160401b0382116102e1576020610dc484612ccd3660048701613999565b90614556565b50346102e15760203660031901126102e1576003546040516314c2c26560e31b815260048035908201819052916001600160a01b03168382602481845afa918215610872578492612e9d575b50602082018051909190612d3d906001600160a01b0316151561443a565b612d4c61014084015115613e4c565b612d5b60e0840151151561446f565b610100830151600d5490603c820291808304603c149015171561145f57612d8591612ba091613cf0565b60a08301928584519360c083019485511093803b15610d445760405163111006db60e01b81526004810189905285151560248201529083908290604490829084905af18015610d7f5785918491612e84575b5050612e1e575b50507f42ae7075f0e049265d5e31f7a5ba9ba5e0fb666e0ae8ecd6bb4dfa15b357567593612c3b611f8d92846060612e158a6151a7565b9201519161525e565b600354608084015191516001600160a01b03918216929116823b1561058857612e609284928360405180968195829463e525510760e01b8452600484016144e1565b03925af1801561058c5715612dde5781612e7991613925565b61144657855f612dde565b81925090612e9191613925565b6105975783825f612dd7565b612eb29192503d8086833e6118318183613925565b905f612d1f565b50346102e15760a03660031901126102e157806004356001600160401b038111610a1657612eeb903690600401613a10565b6024356001600160401b038111610a1457612f0a903690600401613afc565b6044356001600160401b038111610a1257612f29903690600401613a10565b906064356001600160401b038111610d4057612f49903690600401613a10565b916084356001600160401b03811161144657612f69903690600401613afc565b3386526009602052612f8160ff604088205416613c72565b6004546001600160a01b031691612f99831515614225565b823b156114a657612fec956109f0612fda936130108a98612ffe8a966040519c8d9b8c9a8b9963118b2dd960e11b8b5260a060048c015260a48b0190614260565b8981036003190160248b0152906142b8565b87810360031901604489015290614260565b85810360031901606487015290614260565b838103600319016084850152906142b8565b50346102e157806003193601126102e157600b546040516001600160a01b039091168152602090f35b50346102e15760a03660031901126102e1576130656139b7565b61306d6139cd565b906044356001600160a01b038116908190036105885761308b6139e3565b6084356001600160a01b0381169290839003611446575f516020615e685f395f51905f5254604081901c60ff161595906001600160401b03811680159081613255575b600114908161324b575b159081613242575b50613233576001600160401b031981166001175f516020615e685f395f51905f52558661320b575b50613111615b4f565b613119615b4f565b6131228561491d565b61312a615b4f565b86546001600160a01b03199081166001600160a01b0392831617885560038054821693909317909255600580549092169216919091179055806131f1575b506003600c55603c600d556064600e556001600160a01b03168252600960205260408220805460ff1916600117905561319e5780f35b60ff60401b195f516020615e685f395f51905f5254165f516020615e685f395f51905f52557fc7f505b2f371ae2175ee4913f4499e1f2633a7b5936321eed1cdaeb6115181d2602060405160018152a180f35b600180546001600160a01b0319169190911790555f613168565b6001600160481b0319166001600160401b01175f516020615e685f395f51905f52555f613108565b63f92ee8a960e01b8852600488fd5b9050155f6130e0565b303b1591506130d8565b8891506130ce565b50346102e15760c03660031901126102e1576004356001600160401b0381116105975761328e903690600401613999565b6024356001600160401b038111610d44576132ad903690600401613999565b6044356001600160401b038111610588576132cc903690600401613999565b916064359160a435938560018060a01b0386168096036102e1576133419160018060a01b03600654163314801561351f575b61330790614045565b613313610c4182613bf6565b60018060a01b0360035416604051808095819463a9daf6ad60e01b8352602060048401526024830190613b89565b03915afa801561143b576020918791613505575b50015151600c54116134d257849060405192805193602081818401968088835e810160108152030190206133898154614217565b90556133ef60016133af6040516020818651808b835e81016010815203019020546151a7565b9560208060405198899382850197518091895e840190602d60f81b83830152805192839101602183015e010186838201520301601f198101865285613925565b6040519084518091835e601190820190815281900360200190204290556003546001600160a01b0316803b15610d445760405163fec17fe960e01b815260a0600482015291839183918290849082906134699061344f60a484018c613b89565b608435602485015283810360031901604485015290613b89565b8b60648301528a608483015203925af1801561058c576134bd575b505060206134b27f27fa90971b66777e07575f648a5fa9d7b1b4b0a755ec7646f0307165edd5f53f92613ea4565b92604051908152a380f35b816134c791613925565b61058857835f613484565b60405162461bcd60e51b815260206004820152600b60248201526a4d696e206d656d6265727360a81b6044820152606490fd5b61351991503d8089833e610b588183613925565b5f613355565b503382526007602052604082205460ff166132fe565b50346102e157806003193601126102e1576001546040516001600160a01b039091168152602090f35b50346102e15760203660031901126102e1576135786139b7565b338252600960205261359060ff604084205416613c72565b600180546001600160a01b039283166001600160a01b0319821681179092559091167f9c4a3fabb33cb3d3fe4fde0ee645166e23d7fe00c47fa67cda8b698a68af3ccc8380a380f35b50346102e15760203660031901126102e15760206135fd6135f86139b7565b613efe565b604051908152f35b50346102e157806003193601126102e1576020600c54604051908152f35b50346104db5760203660031901126104db576004356001600160401b0381116104db57613654903690600401613999565b9060405161367b835191602081818701948086835e81016011815203019020541515613ca4565b6020604051809285518091835e8101601181520301902054600d54603c810290808204603c149015171561382e576136b291613cf0565b42106137fd5760035460405163a54294af60e01b81526020600482015292906001600160a01b03165f84806136ea6024820186613b89565b0381845afa9384156137d6575f946137e1575b5061370e6101208501511515613ca4565b61371d61010085015115613e4c565b608084019081519160a086019283511091803b156104db575f60405180926325985c9760e21b8252818381613756898c60048401613e84565b03925af180156137d6576137a9575b5061379c611f8d91613793848961378d828a9b9c5f516020615dc85f395f51905f529b614cea565b89614f6a565b51935195613ea4565b9460405193849384613ec0565b5f516020615dc85f395f51905f52949550611f8d916137cb5f61379c93613925565b5f9695509150613765565b6040513d5f823e3d90fd5b6137f69194503d805f833e6114d28183613925565b925f6136fd565b60405162461bcd60e51b8152602060048201526009602482015268139bdd08195b99195960ba1b6044820152606490fd5b634e487b7160e01b5f52601160045260245ffd5b346104db5760203660031901126104db5761385b6139b7565b335f52600960205261387360ff60405f205416613c72565b600580546001600160a01b039283166001600160a01b0319821681179092559091167f9d4deb5ab4de88a4c0510604f0d3eb81d3d71a07a7f84ef56bad08c07083ca955f80a3005b346104db5760203660031901126104db576004356001600160401b0381116104db57610dc46138f06020923690600401613999565b613bf6565b61016081019081106001600160401b0382111761391157604052565b634e487b7160e01b5f52604160045260245ffd5b601f909101601f19168101906001600160401b0382119082101761391157604052565b6001600160401b03811161391157601f01601f191660200190565b92919261396f82613948565b9161397d6040519384613925565b8294818452818301116104db578281602093845f960137010152565b9080601f830112156104db578160206139b493359101613963565b90565b600435906001600160a01b03821682036104db57565b602435906001600160a01b03821682036104db57565b606435906001600160a01b03821682036104db57565b6001600160401b0381116139115760051b60200190565b9080601f830112156104db578135613a27816139f9565b92613a356040519485613925565b81845260208085019260051b820101918383116104db5760208201905b838210613a6157505050505090565b81356001600160401b0381116104db57602091613a8387848094880101613999565b815201910190613a52565b9080601f830112156104db57813590613aa6826139f9565b92613ab46040519485613925565b82845260208085019360051b8201019182116104db57602001915b818310613adc5750505090565b82356001600160a01b03811681036104db57815260209283019201613acf565b9080601f830112156104db578135613b13816139f9565b92613b216040519485613925565b81845260208085019260051b820101918383116104db5760208201905b838210613b4d57505050505090565b81356001600160401b0381116104db57602091613b6f87848094880101613a8e565b815201910190613b3e565b6024359081151582036104db57565b805180835260209291819084018484015e5f828201840152601f01601f1916010190565b90602080835192838152019201905f5b818110613bca5750505090565b82516001600160a01b0316845260209384019390920191600101613bbd565b519081151582036104db57565b6020613c299160018060a01b03600854166040518080958194637c38b97560e01b83528660048401526024830190613b89565b03915afa9081156137d6575f91613c3e575090565b90506020813d602011613c6a575b81613c5960209383613925565b810103126104db576139b490613be9565b3d9150613c4c565b15613c7957565b606460405162461bcd60e51b8152602060048201526004602482015263082eae8d60e31b6044820152fd5b15613cab57565b60405162461bcd60e51b815260206004820152600a6024820152694e6f206469737075746560b01b6044820152606490fd5b8181029291811591840414171561382e57565b9190820180921161382e57565b81601f820112156104db57805190613d1482613948565b92613d226040519485613925565b828452602083830101116104db57815f9260208093018386015e8301015290565b51906001600160a01b03821682036104db57565b6020818303126104db578051906001600160401b0382116104db570190610160828203126104db5760405191613d8c836138f5565b80516001600160401b0381116104db5782613da8918301613cfd565b83526020818101519084015260408101516001600160401b0381116104db5761014092613dd6918301613cfd565b6040840152613de760608201613d43565b60608401526080810151608084015260a081015160a0840152613e0c60c08201613be9565b60c0840152613e1d60e08201613be9565b60e0840152613e2f6101008201613be9565b610100840152610120810151610120840152015161014082015290565b15613e5357565b60405162461bcd60e51b8152602060048201526009602482015268119a5b985b1a5e995960ba1b6044820152606490fd5b90613e9c602091949394604084526040840190613b89565b931515910152565b602090604051918183925191829101835e81015f815203902090565b60409194939260608201951515825260208201520152565b91908260809103126104db578151916020810151916139b4606060408401519301613be9565b5f80546001600160a01b031680613fa9575b50600b546001600160a01b03169182613f2a575b50905090565b60405163d6e49b2560e01b81526001600160a01b03909116600482015291602090839060249082905afa9081156137d6575f91613f73575b613f6c9250613cf0565b805f613f24565b90506020823d602011613fa1575b81613f8e60209383613925565b810103126104db57613f6c915190613f62565b3d9150613f81565b604051630733bdef60e41b81526001600160a01b038416600482015290608090829060249082905afa80156137d6575f905f925f9161400f575b5080614006575b613ff5575b50613f10565b613fff9250613cdd565b5f80613fef565b50801515613fea565b915050614034915060803d60801161403e575b61402c8183613925565b810190613ed8565b909291505f613fe3565b503d614022565b1561404c57565b60405162461bcd60e51b815260206004820152600e60248201526d139bdd08185d5d1a1bdc9a5e995960921b6044820152606490fd5b1561408957565b60405162461bcd60e51b815260206004820152600f60248201526e4f7261636c6520696e61637469766560881b6044820152606490fd5b9080601f830112156104db5781516140d7816139f9565b926140e56040519485613925565b81845260208085019260051b8201019283116104db57602001905b82821061410d5750505090565b6020809161411a84613d43565b815201910190614100565b6020818303126104db578051906001600160401b0382116104db570160a0818303126104db576040519160a083016001600160401b038111848210176139115760405281516001600160401b0381116104db5781614184918401613cfd565b835260208201516001600160401b0381116104db57816141a59184016140c0565b602084015260408201516001600160401b0381116104db57816141c9918401613cfd565b604084015260608201516001600160401b0381116104db57816141ed918401613cfd565b606084015260808201516001600160401b0381116104db5761420f92016140c0565b608082015290565b5f19811461382e5760010190565b1561422c57565b60405162461bcd60e51b815260206004820152600c60248201526b27379027b930b1b632a6b3b960a11b6044820152606490fd5b9080602083519182815201916020808360051b8301019401925f915b83831061428b57505050505090565b90919293946020806142a9600193601f198682030187528951613b89565b9701930193019193929061427c565b9080602083519182815201916020808360051b8301019401925f915b8383106142e357505050505090565b9091929394601f19828203018352855190602080835192838152019201905f905b80821061432357505050602080600192970193019301919392906142d4565b82516001600160a01b0316845260209384019390920191600190910190614304565b6020818303126104db578051906001600160401b0382116104db5701610160818303126104db5760405191614379836138f5565b8151835261438960208301613d43565b602084015260408201516001600160401b0381116104db57816143ad918401613cfd565b6040840152606082810151908401526080820151916001600160401b0383116104db576143e261014092614431948301613cfd565b608085015260a081015160a085015260c081015160c085015261440760e08201613be9565b60e08501526101008101516101008501526144256101208201613be9565b61012085015201613be9565b61014082015290565b1561444157565b60405162461bcd60e51b815260206004820152600660248201526504e6f206170760d41b6044820152606490fd5b1561447657565b60405162461bcd60e51b8152602060048201526011602482015270566f74696e67206e6f742061637469766560781b6044820152606490fd5b156144b657565b606460405162461bcd60e51b815260206004820152600460248201526315d85a5d60e21b6044820152fd5b906144f9602091949394604084526040840190613b89565b6001600160a01b03909416910152565b906020828203126104db5781516001600160401b0381116104db576139b492016140c0565b80518210156145425760209160051b010190565b634e487b7160e01b5f52603260045260245ffd5b5f6145899260018060a01b036003541660405180809681946332b8e0c760e21b8352602060048401526024830190613b89565b03915afa9182156137d6575f926145e1575b505f5b82518110156145da576001600160a01b036145b9828561452e565b51166001600160a01b038316146145d25760010161459e565b505050600190565b5050505f90565b6145f69192503d805f833e6105c48183613925565b905f61459b565b6020818303126104db578051906001600160401b0382116104db5701610180818303126104db576040519161018083016001600160401b03811184821017613911576040528151835261465260208301613d43565b602084015260408201516001600160401b0381116104db5781614676918401613cfd565b604084015260608201516001600160401b0381116104db578161469a918401613cfd565b606084015260808201516001600160401b0381116104db57816146be918401613cfd565b608084015260a0820151916001600160401b0383116104db576146e96101609261473a948301613cfd565b60a085015260c081015160c085015260e081015160e085015261470f6101008201613be9565b61010085015261012081015161012085015261472e6101408201613be9565b61014085015201613be9565b61016082015290565b3d1561476d573d9061475482613948565b916147626040519384613925565b82523d5f602084013e565b606090565b1561477957565b60405162461bcd60e51b815260206004820152600360248201526244414f60e81b6044820152606490fd5b9081526001600160a01b039182166020820152911660408201526060810191909152901515608082015260a00190565b5f546001600160a01b031680614871575b50600b546001600160a01b031690816147fe5750505f90565b60405163d6e49b2560e01b81526001600160a01b03909116600482015290602090829060249082905afa9081156137d6575f9161483f575b50600e54111590565b90506020813d602011614869575b8161485a60209383613925565b810103126104db57515f614836565b3d915061484d565b604051630733bdef60e41b81526001600160a01b038316600482015290608090829060249082905afa9081156137d6575f905f926148cf575b50816148c2575b506148bc575f6147e5565b50600190565b9050600e5411155f6148b1565b90506148ea915060803d60801161403e5761402c8183613925565b929150505f6148aa565b92919061490b602091604086526040860190613b89565b930152565b9190820391821161382e57565b6001600160a01b03168015614968575f516020615d885f395f51905f5280546001600160a01b0319811683179091556001600160a01b03165f516020615e085f395f51905f525f80a3565b631e4fbdf760e01b5f525f60045260245ffd5b6020818303126104db578051906001600160401b0382116104db5701610140818303126104db576040519161014083016001600160401b038111848210176139115760405281516001600160401b0381116104db57816149dc918401613cfd565b83526149ea60208301613d43565b602084015260408201516001600160401b0381116104db5781614a0e9184016140c0565b604084015260608201516001600160401b0381116104db5781614a32918401613cfd565b6060840152608082015160ff811681036104db57608084015260a08201516001600160401b0381116104db5782019080601f830112156104db578151614a77816139f9565b92614a856040519485613925565b81845260208085019260051b820101918383116104db5760208201905b838210614aea575050505050906101209160a084015260c081015160c084015260e081015160e0840152614ad96101008201613d43565b610100840152015161012082015290565b81516001600160401b0381116104db57602091614b0c87848094880101613cfd565b815201910190614aa2565b6020818303126104db578051906001600160401b0382116104db570160e0818303126104db576040519160e083016001600160401b03811184821017613911576040528151835260208201516001600160401b0381116104db5781614b7d918401613cfd565b6020840152614b8e60408301613d43565b604084015260608201516001600160401b0381116104db5781614bb2918401613cfd565b606084015260808201516001600160401b0381116104db57820181601f820112156104db57805190614be3826139f9565b92614bf16040519485613925565b82845260208085019360051b830101918183116104db5760208101935b838510614c4a575050505050608083015260a081015163ffffffff811681036104db5760a0830152614c429060c001613d43565b60c082015290565b84516001600160401b0381116104db5782016040818503601f1901126104db5760408051929083016001600160401b03811184821017613911576040526020820151926001600160401b0384116104db57604083614caf886020809881980101613cfd565b8352015183820152815201940193614c0e565b6001600160a01b039091168152602081019190915263ffffffff909116604082015260600190565b6005546001600160a01b0316928315614d995715614e8c57614d0b90615970565b9060018060a01b03600354166040516377e3240760e01b8152602060048201525f8180614d3b6024820188613b89565b0381855afa9081156137d6575f91614e6a575b5060608301516020820180519093916001600160a01b0390811691168103614df657505090516001600160a01b031692614d889150615a8a565b905b6001600160a01b038316614d9f575b50505050565b6020015192803b156104db57614dcf935f80946040519687958694859363301f825760e01b855260048501614cc2565b03925af180156137d657614de6575b808080614d99565b5f614df091613925565b5f614dde565b614e239350906101205f93969296015191604051809581948293632e68140160e11b8452600484016148f4565b03915afa9081156137d65763ffffffff9160a0915f91614e48575b5001511690614d8a565b614e6491503d805f833e614e5c8183613925565b810190614b17565b5f614e3e565b614e8691503d805f833e614e7e8183613925565b81019061497b565b5f614d4e565b505050565b6020818303126104db578051906001600160401b0382116104db570181601f820112156104db57805190614ec4826139f9565b92614ed26040519485613925565b82845260208085019360071b830101918183116104db57602001925b828410614efc575050505090565b6080848303126104db576040519060808201906001600160401b0382118383101761391157608092602092604052614f3387613d43565b8152614f40838801613d43565b8382015260408701516040820152614f5a60608801613be9565b6060820152815201930192614eee565b90916003545f60405180926349868b4160e01b8252602060048301528180614f956024820189613b89565b03916001600160a01b03165afa9081156137d6575f91615124575b50511580615116575b80615102575b614fd457610140614fd2930151916155f1565b565b50606082018051909190614ff1906001600160a01b031682615c1e565b9163ffffffff8316926003841480156150ef575b1561506957505f516020615e485f395f51905f529161505b61014060409361504560018060a01b036001541660018060a01b03835116848b015191615b7a565b519601516001600160a01b039096169591613ea4565b9382519182526020820152a3565b600554825161014087015194926001600160a01b0391821692909116803b156104db576150b0955f80946040519889958694859363301f825760e01b855260048501614cc2565b03925af19283156137d65761014060409361505b925f516020615e485f395f51905f52966150df575b50615045565b5f6150e991613925565b5f6150d9565b506005546001600160a01b031615615005565b506001546001600160a01b03161515614fbf565b506101408301511515614fb9565b61514091503d805f833e6151388183613925565b810190614e91565b5f614fb0565b8115615150570490565b634e487b7160e01b5f52601260045260245ffd5b9061516e82613948565b61517b6040519182613925565b828152809261518c601f1991613948565b0190602036910137565b908151811015614542570160200190565b801561523e5780815f925b61522a5750806151c183615164565b92915b6151cd57505090565b5f19820191821161382e5781600a820491600a830290838204600a148415171561382e5760ff916151fd91614910565b1660300160ff811161382e5760f81b6001600160f81b0319165f1a906152239085615196565b53806151c4565b91615236600a91614217565b9204806151b2565b5060405161524d604082613925565b60018152600360fc1b602082015290565b92909282158015615433575b61542d576003546001600160a01b0316915f615285836157a4565b6024604051809681936388fc75f560e01b835260048301525afa9283156137d6575f93615411575b5082511561540a575f915f5b84518110156153085760606152ce828761452e565b5101511515871515146152e4575b6001016152b9565b9261530060019160406152f7878961452e565b51015190613cf0565b9390506152dc565b509291949390948015615403575f5b83518110156153fb5780606061532f6001938761452e565b510151151587151514806153dd575b615349575b01615317565b61536a83615365604061535c858a61452e565b51015187613cdd565b615146565b80615376575b50615343565b61539f81848060a01b03855416858060a01b036020615395878c61452e565b5101511690615b7a565b828060a01b0360206153b1848961452e565b51015116905f516020615da85f395f51905f5260206153cf8a613ea4565b92604051908152a35f615370565b50818060a01b0360206153f0838861452e565b51015116151561533e565b505050505050565b5050505050565b9350505050565b6154269193503d805f833e6151388183613925565b915f6152ad565b50915050565b506001546001600160a01b03161561526a565b929092821580156155de575b61542d576003546001600160a01b0316915f61546d836157a4565b6024604051809681936365c5ef1760e11b835260048301525afa9283156137d6575f936155c2575b5082511561540a575f915f5b84518110156154e75760606154b6828761452e565b5101511515871515146154cc575b6001016154a1565b926154df60019160406152f7878961452e565b9390506154c4565b509291949390948015615403575f5b83518110156153fb5780606061550e6001938761452e565b510151151587151514806155a4575b615528575b016154f6565b61553b83615365604061535c858a61452e565b80615547575b50615522565b61556681848060a01b03855416858060a01b036020615395878c61452e565b828060a01b036020615578848961452e565b51015116905f516020615da85f395f51905f5260206155968a613ea4565b92604051908152a35f615541565b50818060a01b0360206155b7838861452e565b51015116151561551d565b6155d79193503d805f833e6151388183613925565b915f615495565b506001546001600160a01b031615615452565b92909282158015615791575b61542d576003546040516349868b4160e01b81526020600482015292905f9084906001600160a01b031681806156366024820188613b89565b03915afa9283156137d6575f93615775575b5082511561540a575f915f5b845181101561569a576060615669828761452e565b51015115158715151461567f575b600101615654565b9261569260019160406152f7878961452e565b939050615677565b509291949390948015615403575f5b83518110156153fb578060606156c16001938761452e565b51015115158715151480615757575b6156db575b016156a9565b6156ee83615365604061535c858a61452e565b806156fa575b506156d5565b61571981848060a01b03855416858060a01b036020615395878c61452e565b828060a01b03602061572b848961452e565b51015116905f516020615da85f395f51905f5260206157498a613ea4565b92604051908152a35f6156f4565b50818060a01b03602061576a838861452e565b5101511615156156d0565b61578a9193503d805f833e6151388183613925565b915f615648565b506001546001600160a01b0316156155fd565b905f915f5b815181101561584657600360fc1b6001600160f81b03196157ca8385615196565b5116101580615824575b6157e1575b6001016157a9565b92600a810290808204600a149015171561382e576157ff8483615196565b5160f81c90602f19820191821161382e5760019161581c91613cf0565b9390506157d9565b50603960f81b6001600160f81b031961583d8385615196565b511611156157d4565b5050565b5f516020615d885f395f51905f52546001600160a01b0316330361586a57565b63118cdaa760e01b5f523360045260245ffd5b9081526001600160a01b03909116602082015260400190565b1561589d57565b60405162461bcd60e51b8152602060048201526005602482015264159bdd195960da1b6044820152606490fd5b156158d157565b60405162461bcd60e51b81526020600482015260096024820152684e6f20766f74696e6760b81b6044820152606490fd5b1561590957565b60405162461bcd60e51b8152602060048201526007602482015266115e1c1a5c995960ca1b6044820152606490fd5b6040919493926060820195825260208201520152565b61596660409295949395606083526060830190613b89565b9460208201520152565b905f198251805b6159cd575b505f1981146159ca5761598e81615164565b905f5b81811061599f575090925050565b6001906001600160f81b03196159b58288615196565b51165f1a6159c38286615196565b5301615991565b50565b5f19810181811161382e57602d60f81b6001600160f81b03196159f08388615196565b511614615a08575b50801561382e575f190180615977565b6001949293919493855b8451811015615a8057600360fc1b6001600160f81b0319615a338388615196565b5116108015615a5f575b615a4957600101615a12565b5092949193505f5b156159f8579150505f61597c565b50603960f81b6001600160f81b0319615a788388615196565b511611615a3d565b5092949193615a51565b905f905f5b8351811015615b4857602d60f81b6001600160f81b0319615ab08387615196565b511614615abf57600101615a8f565b9091505b8015615b4257615ad281615164565b905f5b818110615b17575050615ae99192506157a4565b619ce18103615af757505f90565b619d288103615b065750600290565b619d2703615b1357600390565b5f90565b6001906001600160f81b0319615b2d8288615196565b51165f1a615b3b8286615196565b5301615ad5565b505f9150565b5090615ac3565b60ff5f516020615e685f395f51905f525460401c1615615b6b57565b631afcd79f60e31b5f5260045ffd5b5f615bd392819260405195602087019263a9059cbb60e01b845260018060a01b03166024880152604487015260448652615bb5606487613925565b60018060a01b031694519082865af1615bcc614743565b9083615d29565b8051908115159182615bfb575b5050615be95750565b635274afe760e01b5f5260045260245ffd5b81925090602091810103126104db576020615c169101613be9565b155f80615be0565b615c2790615970565b6003546040516377e3240760e01b81526020600482015291926001600160a01b0390911691905f8280615c5d6024820188613b89565b0381865afa9182156137d6575f92615d0d575b506101008201516001600160a01b0391821691161480615cff575b615c9a5750506139b490615a8a565b915f91610120615cc394015191604051809581948293632e68140160e11b8452600484016148f4565b03915afa9081156137d65763ffffffff9160a0915f91615ce5575b5001511690565b615cf991503d805f833e614e5c8183613925565b5f615cde565b506101208101511515615c8b565b615d229192503d805f833e614e7e8183613925565b905f615c70565b90615d4d5750805115615d3e57805190602001fd5b630a12f52160e11b5f5260045ffd5b81511580615d7e575b615d5e575090565b639996b31560e01b5f9081526001600160a01b0391909116600452602490fd5b50803b15615d5656fe9016d09d72d40fdae2fd8ceac6b6234c7706214fd39c1cd1e609a0528c199300d938ce505b0ec3972a4e38680375ecf020ac1ef1b034b8949bb085d64612affeed25bcfa568ce67a8d1dcba7cd4bbb9e104cf89b13efe702b2a371df5d590559360894a13ba1a3210667c828492db98dca3e2076cc3735a920a3ca505d382bbc8be0079c531659141344cd1fd0a4f28419497f9722a3daafe3b4186f6b6457e0bc7cd75a20ee27fd9adebab32041f755214dbc6bffa90cc0225b39da2e5c2d3bb96a6d6fc4275c8ca21896599a9a4c764dd0ba8ea02b114a300018499eb7fa88f0c57e16840df040f15088dc2f81fe391c3923bec73e23a9662efc9c229c6a00a264697066735822122085a3514584403faf0f14c64de3ff0a039db0dc03da76d6e4671263b60c080f5c64736f6c63430008210033f0c57e16840df040f15088dc2f81fe391c3923bec73e23a9662efc9c229c6a00","linkReferences":{}},"methodIdentifiers":{"UPGRADE_INTERFACE_VERSION()":"ad3cb1cc","accumulatedFees()":"587f5ed7","activityTracker()":"3e71a212","addAuthorizedContract(address,bool)":"680e482e","addMembers(address[],string)":"d3075f2a","addOrUpdateOracle(string[],address[][],string[],string[],address[][])":"23165bb2","addSingleOracle(string,address[],string,string,address[])":"4a9fe8f9","admins(address)":"429b62e5","authorizedContracts(address)":"d5b9221b","bridge()":"e78cea92","canVote(address)":"adfaa72e","daoContract()":"4a7ffcbc","disputeStartTimes(string)":"6601d962","finalizeSkillVerification(uint256)":"2af7a0b3","genesis()":"a7f0b3de","getOracleActiveMemberCount(string)":"dc2969eb","getOracleMembers(string)":"cae3831c","getUserVotingPower(address)":"0baca2e5","handleAskAthena(address,string,string,string,string)":"7086f548","handleRaiseDispute(string,string,string,uint256,uint256,address)":"144e49b2","handleSubmitSkillVerification(address,string,uint256,string)":"b90efe2e","initialize(address,address,address,address,address)":"1459457a","isOracleActive(string)":"0308b414","isOracleMember(address,string)":"3948e446","jobDisputeCounters(string)":"ba56261e","memberActivityThresholdDays()":"f24b6b37","minOracleMembers()":"0b9abbfa","minStakeRequired()":"502f6826","nativeDAO()":"687694ae","nowjContract()":"787bb310","oracleManager()":"565d878c","owner()":"8da5cb5b","proxiableUUID()":"52d1902d","removeMemberFromOracle(string,address)":"add6beaf","removeOracle(string[])":"40db1a79","renounceOwnership()":"715018a6","rewardsContract()":"220cce97","setActivityTracker(address)":"4a9e7934","setAdmin(address,bool)":"4b0bddd2","setBridge(address)":"8dd14802","setDAOContract(address)":"425d512a","setGenesis(address)":"eb14b353","setNOWJContract(address)":"059c2080","setNativeDAO(address)":"a2f7cb26","setOracleManager(address)":"929e2e08","setRewardsContract(address)":"dfa0dfa5","setUSDCToken(address)":"0f5a9d01","settleAskAthena(uint256)":"3c9ce794","settleDispute(string)":"0a8eef76","transferOwnership(address)":"f2fde38b","updateMemberActivityThreshold(uint256)":"ad8d3435","updateMinOracleMembers(uint256)":"4dea6307","updateMinStakeRequired(uint256)":"d93e1184","updateOracleActiveStatus(string)":"ee0a5858","updateVotingPeriod(uint256)":"ef00ef43","upgradeFromDAO(address)":"40634e3b","upgradeToAndCall(address,bytes)":"4f1ef286","usdcToken()":"11eac855","vote(uint8,string,bool,address)":"887e15dc","votingPeriodMinutes()":"f67321c6","withdraw()":"3ccfd60b"},"id":29}