{"abi":[{"type":"constructor","inputs":[{"name":"initialOwner","type":"address","internalType":"address"}],"stateMutability":"nonpayable"},{"type":"function","name":"CLOCK_MODE","inputs":[],"outputs":[{"name":"","type":"string","internalType":"string"}],"stateMutability":"view"},{"type":"function","name":"DOMAIN_SEPARATOR","inputs":[],"outputs":[{"name":"","type":"bytes32","internalType":"bytes32"}],"stateMutability":"view"},{"type":"function","name":"INITIAL_SUPPLY","inputs":[],"outputs":[{"name":"","type":"uint256","internalType":"uint256"}],"stateMutability":"view"},{"type":"function","name":"allowance","inputs":[{"name":"owner","type":"address","internalType":"address"},{"name":"spender","type":"address","internalType":"address"}],"outputs":[{"name":"","type":"uint256","internalType":"uint256"}],"stateMutability":"view"},{"type":"function","name":"approve","inputs":[{"name":"spender","type":"address","internalType":"address"},{"name":"value","type":"uint256","internalType":"uint256"}],"outputs":[{"name":"","type":"bool","internalType":"bool"}],"stateMutability":"nonpayable"},{"type":"function","name":"balanceOf","inputs":[{"name":"account","type":"address","internalType":"address"}],"outputs":[{"name":"","type":"uint256","internalType":"uint256"}],"stateMutability":"view"},{"type":"function","name":"burn","inputs":[{"name":"amount","type":"uint256","internalType":"uint256"}],"outputs":[],"stateMutability":"nonpayable"},{"type":"function","name":"burnFrom","inputs":[{"name":"from","type":"address","internalType":"address"},{"name":"amount","type":"uint256","internalType":"uint256"}],"outputs":[],"stateMutability":"nonpayable"},{"type":"function","name":"checkpoints","inputs":[{"name":"account","type":"address","internalType":"address"},{"name":"pos","type":"uint32","internalType":"uint32"}],"outputs":[{"name":"","type":"tuple","internalType":"struct Checkpoints.Checkpoint208","components":[{"name":"_key","type":"uint48","internalType":"uint48"},{"name":"_value","type":"uint208","internalType":"uint208"}]}],"stateMutability":"view"},{"type":"function","name":"clock","inputs":[],"outputs":[{"name":"","type":"uint48","internalType":"uint48"}],"stateMutability":"view"},{"type":"function","name":"decimals","inputs":[],"outputs":[{"name":"","type":"uint8","internalType":"uint8"}],"stateMutability":"view"},{"type":"function","name":"delegate","inputs":[{"name":"delegatee","type":"address","internalType":"address"}],"outputs":[],"stateMutability":"nonpayable"},{"type":"function","name":"delegateBySig","inputs":[{"name":"delegatee","type":"address","internalType":"address"},{"name":"nonce","type":"uint256","internalType":"uint256"},{"name":"expiry","type":"uint256","internalType":"uint256"},{"name":"v","type":"uint8","internalType":"uint8"},{"name":"r","type":"bytes32","internalType":"bytes32"},{"name":"s","type":"bytes32","internalType":"bytes32"}],"outputs":[],"stateMutability":"nonpayable"},{"type":"function","name":"delegates","inputs":[{"name":"account","type":"address","internalType":"address"}],"outputs":[{"name":"","type":"address","internalType":"address"}],"stateMutability":"view"},{"type":"function","name":"eip712Domain","inputs":[],"outputs":[{"name":"fields","type":"bytes1","internalType":"bytes1"},{"name":"name","type":"string","internalType":"string"},{"name":"version","type":"string","internalType":"string"},{"name":"chainId","type":"uint256","internalType":"uint256"},{"name":"verifyingContract","type":"address","internalType":"address"},{"name":"salt","type":"bytes32","internalType":"bytes32"},{"name":"extensions","type":"uint256[]","internalType":"uint256[]"}],"stateMutability":"view"},{"type":"function","name":"getPastTotalSupply","inputs":[{"name":"timepoint","type":"uint256","internalType":"uint256"}],"outputs":[{"name":"","type":"uint256","internalType":"uint256"}],"stateMutability":"view"},{"type":"function","name":"getPastVotes","inputs":[{"name":"account","type":"address","internalType":"address"},{"name":"timepoint","type":"uint256","internalType":"uint256"}],"outputs":[{"name":"","type":"uint256","internalType":"uint256"}],"stateMutability":"view"},{"type":"function","name":"getVotes","inputs":[{"name":"account","type":"address","internalType":"address"}],"outputs":[{"name":"","type":"uint256","internalType":"uint256"}],"stateMutability":"view"},{"type":"function","name":"mint","inputs":[{"name":"to","type":"address","internalType":"address"},{"name":"amount","type":"uint256","internalType":"uint256"}],"outputs":[],"stateMutability":"nonpayable"},{"type":"function","name":"name","inputs":[],"outputs":[{"name":"","type":"string","internalType":"string"}],"stateMutability":"view"},{"type":"function","name":"nonces","inputs":[{"name":"owner","type":"address","internalType":"address"}],"outputs":[{"name":"","type":"uint256","internalType":"uint256"}],"stateMutability":"view"},{"type":"function","name":"numCheckpoints","inputs":[{"name":"account","type":"address","internalType":"address"}],"outputs":[{"name":"","type":"uint32","internalType":"uint32"}],"stateMutability":"view"},{"type":"function","name":"owner","inputs":[],"outputs":[{"name":"","type":"address","internalType":"address"}],"stateMutability":"view"},{"type":"function","name":"permit","inputs":[{"name":"owner","type":"address","internalType":"address"},{"name":"spender","type":"address","internalType":"address"},{"name":"value","type":"uint256","internalType":"uint256"},{"name":"deadline","type":"uint256","internalType":"uint256"},{"name":"v","type":"uint8","internalType":"uint8"},{"name":"r","type":"bytes32","internalType":"bytes32"},{"name":"s","type":"bytes32","internalType":"bytes32"}],"outputs":[],"stateMutability":"nonpayable"},{"type":"function","name":"renounceOwnership","inputs":[],"outputs":[],"stateMutability":"nonpayable"},{"type":"function","name":"symbol","inputs":[],"outputs":[{"name":"","type":"string","internalType":"string"}],"stateMutability":"view"},{"type":"function","name":"totalSupply","inputs":[],"outputs":[{"name":"","type":"uint256","internalType":"uint256"}],"stateMutability":"view"},{"type":"function","name":"transfer","inputs":[{"name":"to","type":"address","internalType":"address"},{"name":"value","type":"uint256","internalType":"uint256"}],"outputs":[{"name":"","type":"bool","internalType":"bool"}],"stateMutability":"nonpayable"},{"type":"function","name":"transferFrom","inputs":[{"name":"from","type":"address","internalType":"address"},{"name":"to","type":"address","internalType":"address"},{"name":"value","type":"uint256","internalType":"uint256"}],"outputs":[{"name":"","type":"bool","internalType":"bool"}],"stateMutability":"nonpayable"},{"type":"function","name":"transferOwnership","inputs":[{"name":"newOwner","type":"address","internalType":"address"}],"outputs":[],"stateMutability":"nonpayable"},{"type":"event","name":"Approval","inputs":[{"name":"owner","type":"address","indexed":true,"internalType":"address"},{"name":"spender","type":"address","indexed":true,"internalType":"address"},{"name":"value","type":"uint256","indexed":false,"internalType":"uint256"}],"anonymous":false},{"type":"event","name":"DelegateChanged","inputs":[{"name":"delegator","type":"address","indexed":true,"internalType":"address"},{"name":"fromDelegate","type":"address","indexed":true,"internalType":"address"},{"name":"toDelegate","type":"address","indexed":true,"internalType":"address"}],"anonymous":false},{"type":"event","name":"DelegateVotesChanged","inputs":[{"name":"delegate","type":"address","indexed":true,"internalType":"address"},{"name":"previousVotes","type":"uint256","indexed":false,"internalType":"uint256"},{"name":"newVotes","type":"uint256","indexed":false,"internalType":"uint256"}],"anonymous":false},{"type":"event","name":"EIP712DomainChanged","inputs":[],"anonymous":false},{"type":"event","name":"OwnershipTransferred","inputs":[{"name":"previousOwner","type":"address","indexed":true,"internalType":"address"},{"name":"newOwner","type":"address","indexed":true,"internalType":"address"}],"anonymous":false},{"type":"event","name":"Transfer","inputs":[{"name":"from","type":"address","indexed":true,"internalType":"address"},{"name":"to","type":"address","indexed":true,"internalType":"address"},{"name":"value","type":"uint256","indexed":false,"internalType":"uint256"}],"anonymous":false},{"type":"error","name":"CheckpointUnorderedInsertion","inputs":[]},{"type":"error","name":"ECDSAInvalidSignature","inputs":[]},{"type":"error","name":"ECDSAInvalidSignatureLength","inputs":[{"name":"length","type":"uint256","internalType":"uint256"}]},{"type":"error","name":"ECDSAInvalidSignatureS","inputs":[{"name":"s","type":"bytes32","internalType":"bytes32"}]},{"type":"error","name":"ERC20ExceededSafeSupply","inputs":[{"name":"increasedSupply","type":"uint256","internalType":"uint256"},{"name":"cap","type":"uint256","internalType":"uint256"}]},{"type":"error","name":"ERC20InsufficientAllowance","inputs":[{"name":"spender","type":"address","internalType":"address"},{"name":"allowance","type":"uint256","internalType":"uint256"},{"name":"needed","type":"uint256","internalType":"uint256"}]},{"type":"error","name":"ERC20InsufficientBalance","inputs":[{"name":"sender","type":"address","internalType":"address"},{"name":"balance","type":"uint256","internalType":"uint256"},{"name":"needed","type":"uint256","internalType":"uint256"}]},{"type":"error","name":"ERC20InvalidApprover","inputs":[{"name":"approver","type":"address","internalType":"address"}]},{"type":"error","name":"ERC20InvalidReceiver","inputs":[{"name":"receiver","type":"address","internalType":"address"}]},{"type":"error","name":"ERC20InvalidSender","inputs":[{"name":"sender","type":"address","internalType":"address"}]},{"type":"error","name":"ERC20InvalidSpender","inputs":[{"name":"spender","type":"address","internalType":"address"}]},{"type":"error","name":"ERC2612ExpiredSignature","inputs":[{"name":"deadline","type":"uint256","internalType":"uint256"}]},{"type":"error","name":"ERC2612InvalidSigner","inputs":[{"name":"signer","type":"address","internalType":"address"},{"name":"owner","type":"address","internalType":"address"}]},{"type":"error","name":"ERC5805FutureLookup","inputs":[{"name":"timepoint","type":"uint256","internalType":"uint256"},{"name":"clock","type":"uint48","internalType":"uint48"}]},{"type":"error","name":"ERC6372InconsistentClock","inputs":[]},{"type":"error","name":"InvalidAccountNonce","inputs":[{"name":"account","type":"address","internalType":"address"},{"name":"currentNonce","type":"uint256","internalType":"uint256"}]},{"type":"error","name":"InvalidShortString","inputs":[]},{"type":"error","name":"OwnableInvalidOwner","inputs":[{"name":"owner","type":"address","internalType":"address"}]},{"type":"error","name":"OwnableUnauthorizedAccount","inputs":[{"name":"account","type":"address","internalType":"address"}]},{"type":"error","name":"SafeCastOverflowedUintDowncast","inputs":[{"name":"bits","type":"uint8","internalType":"uint8"},{"name":"value","type":"uint256","internalType":"uint256"}]},{"type":"error","name":"StringTooLong","inputs":[{"name":"str","type":"string","internalType":"string"}]},{"type":"error","name":"VotesExpiredSignature","inputs":[{"name":"expiry","type":"uint256","internalType":"uint256"}]}],"bytecode":{"object":"0x61016060405234610094576020612d91803803809161001d826100ac565b610160391261009457610160516001600160a01b03811681036100945761004390610160565b604051611f129081610e3f8239608051816111de015260a0518161129b015260c051816111a8015260e0518161122d01526101005181611253015261012051816107d1015261014051816107fa0152f35b5f80fd5b634e487b7160e01b5f52604160045260245ffd5b610160601f91909101601f19168101906001600160401b038211908210176100d357604052565b610098565b601f909101601f19168101906001600160401b038211908210176100d357604052565b6040519061010a6040836100d8565b565b6040519061011b6040836100d8565b60088252565b604051906101306040836100d8565b600d8252565b604051906101456040836100d8565b60058252565b6040519061015a6040836100d8565b60018252565b61016861010c565b6020810190672220a7aa37b5b2b760c11b8252610183610121565b916c27b832b72bb7b935aa37b5b2b760991b60208401526101a2610136565b91644f574f524b60d81b60208401526101b961014b565b603160f81b60208201908152855190959194916001600160401b0382116100d3576101ee826101e960035461031e565b610356565b602090601f83116001146102975791806102159261021d95945f9261028c575b5050610413565b600355610425565b6102268161062a565b6101205261023383610712565b6101405251902060e052519020610100524660a0526102506107f7565b6080523060c0526001600160a01b03811615610278578061027361010a926105e2565b6104f1565b631e4fbdf760e01b5f90815260045260245ffd5b015190505f8061020e565b60035f52601f19831691907fc2575a0e9e593c00f959f8c92f12db2869c3395a3b0502d05e2516446f71f85b925f5b818110610306575091600193918561021d979694106102ee575b505050811b01600355610425565b01515f1960f88460031b161c191690555f80806102e0565b929360206001819287860151815501950193016102c6565b90600182811c9216801561034c575b602083101461033857565b634e487b7160e01b5f52602260045260245ffd5b91607f169161032d565b90601f8211610363575050565b80821161036e575050565b60035f5260205f206020601f830160051c92106103ad575b81601f9101920160051c03905f5b8281106103a057505050565b5f82820155600101610394565b5f9150610386565b919091601f83116103c6575b505050565b8183116103d257505050565b5f5260205f206020601f830160051c921061040b575b81601f9101920160051c03905f5b828110156103c1575f828201556001016103f6565b5f91506103e8565b8160011b915f199060031b1c19161790565b80519091906001600160401b0381116100d35761044e8161044760045461031e565b60046103b5565b602092601f821160011461047557610470929382915f9261028c575050610413565b600455565b60045f52601f198216937f8a35acfbc15ff81a39ae7d344fd709f28e8600b4aa8c65c6b64bfe7fe36bd19b915f5b8681106104d957508360019596106104c1575b505050811b01600455565b01515f1960f88460031b161c191690555f80806104b6565b919260206001819286850151815501940192016104a3565b6001600160a01b03811680156105cf576002546b033b2e3c9fd0803ce800000081018091116105ca576002556001600160a01b0382165f9081526020819052604090206b033b2e3c9fd0803ce800000081540190555f7fddf252ad1be2c89b69c2b068fc378daa952ba7f163c4a11628f55a4df523b3ef604051806105876b033b2e3c9fd0803ce8000000829190602083019252565b0390a36002546001600160d01b03908181116105b55750506b033b2e3c9fd0803ce800000061010a916108ed565b630e58ae9360e11b5f5260045260245260445ffd5b6108d9565b63ec442f0560e01b5f525f60045260245ffd5b600b80546001600160a01b039283166001600160a01b0319821681179092559091167f8be0079c531659141344cd1fd0a4f28419497f9722a3daafe3b4186f6b6457e05f80a3565b908151602081105f1461064557509061064290610855565b90565b6001600160401b0381116100d3576106698161066260055461031e565b60056103b5565b602092601f82116001146106935761068b929382915f9261028c575050610413565b60055560ff90565b60055f52601f198216937f036b6384b5eca791c62761152d0c79bb0604c104a5fb6f4eb0703f3154bb3db0915f5b8681106106fa57508360019596106106e2575b505050811b0160055560ff90565b01515f1960f88460031b161c191690555f80806106d4565b919260206001819286850151815501940192016106c1565b908151602081105f1461072a57509061064290610855565b6001600160401b0381116100d35761074e8161074760065461031e565b60066103b5565b602092601f821160011461077857610770929382915f9261028c575050610413565b60065560ff90565b60065f52601f198216937ff652222313e28459528d920b65115c16c04f3efc82aaedc97be59f3f377c0d3f915f5b8681106107df57508360019596106107c7575b505050811b0160065560ff90565b01515f1960f88460031b161c191690555f80806107b9565b919260206001819286850151815501940192016107a6565b60e051610100516040519060208201927f8b73c3c69bb8fe3d512ecc4cf759cc79239f7b179b0ffacaa9a75d522b39400f8452604083015260608201524660808201523060a082015260a0815261084f60c0826100d8565b51902090565b601f815111610880576020815191015160208210610871571790565b5f198260200360031b1b161790565b604460209160405192839163305a27a960e01b83528160048401528051918291826024860152018484015e5f828201840152601f01601f19168101030190fd5b6001600160a01b03165f90815260096020526040902090565b634e487b7160e01b5f52601160045260245ffd5b906108f7816109ec565b9165ffffffffffff43116109d457600a548061099e575061093161092161010a945f5b6001610de2565b65ffffffffffff4316600a610cc3565b50506001600160a01b03168015610986575b60086020527f5eff886ea0ce6ca488a3d6e336d6c0f75f46d19b42c06ce5ee98e42c96d256c7545f9182526040909120546001600160a01b039081169116610b1b565b610997610992836109ec565b610a1d565b5050610943565b92835f198101116105ca57600a5f525f516020612d515f395f51905f529093015461010a9361093191610921919060301c61091a565b6306dfcc6560e41b5f5260306004524360245260445ffd5b6001600160d01b038111610a06576001600160d01b031690565b6306dfcc6560e41b5f5260d060045260245260445ffd5b65ffffffffffff43116109d457600a5480610a475750610921610a43915f5b6002610de2565b9091565b805f198101116105ca57600a5f525f516020612d515f395f51905f520154610a43916109219160301c610a3c565b65ffffffffffff43116109d457805480610aa95750610a99610a43925f6002610de2565b9065ffffffffffff431690610cc3565b805f198101116105ca575f82815260209020015f190154610a4392610a999160301c610a3c565b65ffffffffffff43116109d457805480610af45750610a99610a43925f6001610de2565b805f198101116105ca575f82815260209020015f190154610a4392610a999160301c61091a565b6001600160a01b03808316939291908116908185141580610bf0575b610b43575b5050505050565b81610ba5575b505082610b58575b8080610b3c565b5f516020612d715f395f51905f5291610b7c610b76610b82936108c0565b916109ec565b90610ad0565b604080516001600160d01b039384168152919092166020820152a25f8080610b51565b610bce610bbf5f516020612d715f395f51905f52926108c0565b610bc8866109ec565b90610a75565b604080516001600160d01b039384168152919092166020820152a25f80610b49565b50831515610b37565b5f198101919082116105ca57565b9065ffffffffffff82549181199060301b169116179055565b908154680100000000000000008110156100d35760018101808455811015610c795761010a925f5260205f20019065ffffffffffff81511665ffffffffffff19835416178255602060018060d01b039101511690610c07565b634e487b7160e01b5f52603260045260245ffd5b604080519192919081016001600160401b038111828210176100d357604052915465ffffffffffff8116835260301c6020830152565b805492939291908215610db957610cef610cea610cdf85610bf9565b835f5260205f200190565b610c8d565b9065ffffffffffff610d07835165ffffffffffff1690565b8185169182911611610daa57610d6e946020948892610d3a610d2f875165ffffffffffff1690565b65ffffffffffff1690565b03610d725750610d6092610d50610d5b92610bf9565b905f5260205f200190565b610c07565b01516001600160d01b031690565b9190565b915050610da591610d92610d846100fb565b65ffffffffffff9093168352565b6001600160d01b03881682860152610c20565b610d60565b632520601d60e01b5f5260045ffd5b610ddd9250610dc9610d846100fb565b6001600160d01b0385166020830152610c20565b5f9190565b91909180600114610e2457600214610e0857634e487b7160e01b5f52605160045260245ffd5b6001600160d01b03908116918116919091039081116105ca5790565b506001600160d01b03918216908216019081116105ca579056fe60806040526004361015610011575f80fd5b5f3560e01c806306fdde03146101f4578063095ea7b3146101ef57806318160ddd146101ea57806323b872dd146101e55780632ff2e9dc146101e0578063313ce567146101db5780633644e515146101d65780633a46b1a8146101d157806340c10f19146101cc57806342966c68146101c75780634bf5d7e9146101c2578063587cde1e146101bd5780635c19a95c146101b85780636fcfff45146101b357806370a08231146101ae578063715018a6146101a957806379cc6790146101a45780637ecebe001461019f57806384b0196e1461019a5780638da5cb5b146101955780638e539e8c1461019057806391ddadf41461018b57806395d89b41146101865780639ab24eb014610181578063a9059cbb1461017c578063c3cda52014610177578063d505accf14610172578063dd62ed3e1461016d578063f1127ed8146101685763f2fde38b14610163575f80fd5b610e19565b610d82565b610d37565b610c2c565b610b34565b610aee565b610aa7565b610a02565b6109d7565b6108de565b6108b6565b6107b9565b610781565b610751565b610709565b6106e6565b610684565b610662565b610622565b610592565b610575565b6104b9565b610424565b610402565b6103e7565b6103c1565b610389565b61036c565b61033b565b610231565b805180835260209291819084018484015e5f828201840152601f01601f1916010190565b90602061022e9281815201906101f9565b90565b3461030b575f36600319011261030b576040515f60035461025181610ea0565b80845290600181169081156102e75750600114610289575b6102858361027981850382610f8d565b6040519182918261021d565b0390f35b60035f9081527fc2575a0e9e593c00f959f8c92f12db2869c3395a3b0502d05e2516446f71f85b939250905b8082106102cd57509091508101602001610279610269565b9192600181602092548385880101520191019092916102b5565b60ff191660208086019190915291151560051b840190910191506102799050610269565b5f80fd5b600435906001600160a01b038216820361030b57565b602435906001600160a01b038216820361030b57565b3461030b57604036600319011261030b5761036161035761030f565b6024359033611593565b602060405160018152f35b3461030b575f36600319011261030b576020600254604051908152f35b3461030b57606036600319011261030b576103616103a561030f565b6103ad610325565b604435916103bc833383611051565b611109565b3461030b575f36600319011261030b57604051676765c793fa10079d601b1b8152602090f35b3461030b575f36600319011261030b57602060405160128152f35b3461030b575f36600319011261030b57602061041c6111a5565b604051908152f35b3461030b57604036600319011261030b5761043d61030f565b60243565ffffffffffff610450436112c1565b1691828210156104a3576001600160a01b03165f90815260096020526040902061028592506001600160d01b0391610492919061048c906112c1565b90611319565b604051911681529081906020820190565b50637669fc0f60e11b5f5260045260245260445ffd5b3461030b57604036600319011261030b576104d261030f565b6024356104dd6113aa565b6001600160a01b0382168015610562576105016104fc8360025461130c565b600255565b61050a83610fb0565b8054830190556040518281525f905f516020611e9d5f395f51905f5290602090a3600254916001600160d01b0380841161054a576105488383611be5565b005b630e58ae9360e11b5f52600484905260245260445b5ffd5b63ec442f0560e01b5f525f60045260245ffd5b3461030b57602036600319011261030b57610548600435336113d1565b3461030b575f36600319011261030b576105ab436112c1565b65ffffffffffff806105bc436112c1565b16911603610613576102856040516105d5604082610f8d565b601d81527f6d6f64653d626c6f636b6e756d6265722666726f6d3d64656661756c7400000060208201526040519182916020835260208301906101f9565b6301bfc1c560e61b5f5260045ffd5b3461030b57602036600319011261030b576001600160a01b0361064361030f565b165f526008602052602060018060a01b0360405f205416604051908152f35b3461030b57602036600319011261030b5761054861067e61030f565b336114a6565b3461030b57602036600319011261030b576001600160a01b036106a561030f565b165f52600960205260405f205463ffffffff81116106cf5760405163ffffffff9091168152602090f35b6306dfcc6560e41b5f52602060045260245260445ffd5b3461030b57602036600319011261030b57602061041c61070461030f565b611008565b3461030b575f36600319011261030b576107216113aa565b600b80546001600160a01b031981169091555f906001600160a01b03165f516020611e7d5f395f51905f528280a3005b3461030b57604036600319011261030b5761054861076d61030f565b6024359061077c823383611051565b6113d1565b3461030b57602036600319011261030b576001600160a01b036107a261030f565b165f526007602052602060405f2054604051908152f35b3461030b575f36600319011261030b5761085d6107f57f00000000000000000000000000000000000000000000000000000000000000006118cb565b61081e7f000000000000000000000000000000000000000000000000000000000000000061192b565b602060405161082d8282610f8d565b5f81528161086b81830194601f198301368737604051978897600f60f81b895260e0858a015260e08901906101f9565b9087820360408901526101f9565b914660608701523060808701525f60a087015285830360c087015251918281520192915f5b82811061089f57505050500390f35b835185528695509381019392810192600101610890565b3461030b575f36600319011261030b57600b546040516001600160a01b039091168152602090f35b3461030b57602036600319011261030b5760043565ffffffffffff610902436112c1565b1690818110156109c257610915906112c1565b600a54905f829160058411610969575b6109319350600a611789565b8061094d575060205f5b6040516001600160d01b039091168152f35b6109586020916112f0565b600a5f52815f20015460301c61093b565b919261097481611616565b81039081116109bd5761093193600a5f5265ffffffffffff8260205f2001541665ffffffffffff8516105f146109ab575091610925565b9291506109b7906112fe565b90610925565b610e8c565b637669fc0f60e11b5f5260045260245260445ffd5b3461030b575f36600319011261030b5760206109f2436112c1565b65ffffffffffff60405191168152f35b3461030b575f36600319011261030b576040515f600454610a2281610ea0565b80845290600181169081156102e75750600114610a49576102858361027981850382610f8d565b60045f9081527f8a35acfbc15ff81a39ae7d344fd709f28e8600b4aa8c65c6b64bfe7fe36bd19b939250905b808210610a8d57509091508101602001610279610269565b919260018160209254838588010152019101909291610a75565b3461030b57602036600319011261030b576001600160a01b03610ac861030f565b165f526009602052602060018060d01b03610ae560405f20611512565b16604051908152f35b3461030b57604036600319011261030b57610361610b0a61030f565b6024359033611109565b6064359060ff8216820361030b57565b6084359060ff8216820361030b57565b3461030b5760c036600319011261030b57610b4d61030f565b60243590604435610b5c610b14565b6084359060a43592804211610c1a5791610be19391610bd3610bd89460405160208101917fe48329057bfd03d55e49b547132e39cffd9c1820ad7b9d4c5307691425d15adf835260018060a01b038a1660408301528a6060830152608082015260808152610bcb60a082610f8d565b51902061153c565b611962565b90929192611a03565b610bea81611571565b809303610bfb5761054892506114a6565b90506301d4b62360e61b5f5260018060a01b031660045260245260445ffd5b632341d78760e11b5f5260045260245ffd5b3461030b5760e036600319011261030b57610c4561030f565b610c4d610325565b6044359060643592610c5d610b24565b60a43560c43590864211610d2457610ce992610ce4610c7b86611571565b9860405160208101917f6e71edae12b1b97f4d1f60370fef10105fa2faae0126114a169c64845d6126c9835260018060a01b0389169b8c604084015260018060a01b038b1660608401528b608084015260a083015260c082015260c08152610bcb60e082610f8d565b611562565b936001600160a01b03851603610d03576105489350611593565b6325c0072360e11b5f526001600160a01b038085166004521660245260445ffd5b8663313c898160e11b5f5260045260245ffd5b3461030b57604036600319011261030b576020610d79610d5561030f565b610d5d610325565b6001600160a01b039091165f9081526001845260409020610fe2565b54604051908152f35b3461030b57604036600319011261030b57610d9b61030f565b6024359063ffffffff8216820361030b57610df091610dea91610dbc611022565b50610dc5611022565b506001600160a01b03165f908152600960205260409020610de4611022565b50611a7f565b50611aa8565b60408051825165ffffffffffff1681526020928301516001600160d01b03169281019290925290f35b3461030b57602036600319011261030b57610e3261030f565b610e3a6113aa565b6001600160a01b03168015610e7957600b80546001600160a01b0319811683179091556001600160a01b03165f516020611e7d5f395f51905f525f80a3005b631e4fbdf760e01b5f525f60045260245ffd5b634e487b7160e01b5f52601160045260245ffd5b90600182811c92168015610ece575b6020831014610eba57565b634e487b7160e01b5f52602260045260245ffd5b91607f1691610eaf565b5f9291815491610ee783610ea0565b8083529260018116908115610f3c5750600114610f0357505050565b5f9081526020812093945091925b838310610f22575060209250010190565b600181602092949394548385870101520191019190610f11565b915050602093945060ff929192191683830152151560051b010190565b634e487b7160e01b5f52604160045260245ffd5b604081019081106001600160401b03821117610f8857604052565b610f59565b601f909101601f19168101906001600160401b03821190821017610f8857604052565b6001600160a01b03165f90815260208190526040902090565b6001600160a01b03165f90815260096020526040902090565b9060018060a01b03165f5260205260405f2090565b60405190611006604083610f8d565b565b6001600160a01b03165f9081526020819052604090205490565b6040519061102f82610f6d565b5f6020838281520152565b6001600160a01b0316600452602452604452606490565b6001600160a01b03165f81815260016020526040902091929091611076908490610fe2565b5460018101611086575b50505050565b8181106110e85782156110d5576001600160a01b038416156110c2576110b8925f526001602052039160405f20610fe2565b555f808080611080565b634a1406b160e11b5f525f60045260245ffd5b63e602df0560e01b5f525f60045260245ffd5b83637dc7a0d960e11b5f5260018060a01b031660045260245260445260645ffd5b6001600160a01b038116939291908415611192576001600160a01b03821680156105625761113682610fb0565b549584871061117d578461100696970361114f84610fb0565b5561115984610fb0565b8054860190556040518581525f516020611e9d5f395f51905f5290602090a3611c4b565b63391434e360e21b5f5261055f85888561103a565b634b637e8f60e11b5f525f60045260245ffd5b307f00000000000000000000000000000000000000000000000000000000000000006001600160a01b03161480611298575b15611200577f000000000000000000000000000000000000000000000000000000000000000090565b60405160208101907f8b73c3c69bb8fe3d512ecc4cf759cc79239f7b179b0ffacaa9a75d522b39400f82527f000000000000000000000000000000000000000000000000000000000000000060408201527f000000000000000000000000000000000000000000000000000000000000000060608201524660808201523060a082015260a0815261129260c082610f8d565b51902090565b507f000000000000000000000000000000000000000000000000000000000000000046146111d7565b65ffffffffffff81116112d95765ffffffffffff1690565b6306dfcc6560e41b5f52603060045260245260445ffd5b5f198101919082116109bd57565b90600182018092116109bd57565b919082018092116109bd57565b908154905f829160058411611357575b611334935084611789565b8061133f5750505f90565b611348906112f0565b905f5260205f20015460301c90565b919261136281611616565b81039081116109bd5761133493855f5265ffffffffffff8260205f2001541665ffffffffffff8516105f14611398575091611329565b9291506113a4906112fe565b90611329565b600b546001600160a01b031633036113be57565b63118cdaa760e01b5f523360045260245ffd5b6001600160a01b038116908115611192576113eb81610fb0565b548381106114905790611405846110069594930391610fb0565b5581600254036002555f815f516020611e9d5f395f51905f5260405180602081018782520390a38015611478575b61144461143f83611ade565b611bb0565b50505f908152600860205260408120549080525f516020611e5d5f395f51905f52546001600160a01b0390811691166117ed565b61148961148483611ade565b611b7b565b5050611433565b63391434e360e21b5f5261055f9184919061103a565b6001600160a01b038181165f81815260086020526040812080548685166001600160a01b0319821681179092556110069694169461150c9390928691907f3134e8a2e6d97e929a7e54011ea5485d7d196dd5f0ba4d4ef95803e8e3fc257f9080a4611008565b916117ed565b805490816115205750505f90565b815f198101116109bd575f525f199060205f2001015460301c90565b6042906115476111a5565b906040519161190160f01b8352600283015260228201522090565b9161022e9391610bd893611962565b6001600160a01b03165f90815260076020526040902080546001810190915590565b6001600160a01b03169081156110d5576001600160a01b0381169283156110c257806115eb7f8c5be1e5ebec7d5bd14f71427d1e84f3dd0314c0f7b2291e5b200ac8c7c3b92593855f52600160205260405f20610fe2565b55604051908152602090a3565b8115611602570490565b634e487b7160e01b5f52601260045260245ffd5b80156117845761022e9061171a6117136117096116ff6116f56116eb6116e16116d760016116c55f8b608081901c80611776575b50806116596116bb9260401c90565b80611769575b5061166a8160201c90565b8061175c575b5061167b8160101c90565b8061174f575b5061168c8160081c90565b80611742575b5061169d8160041c90565b80611735575b506116ae8160021c90565b80611728575b5060011c90565b6117205760011c90565b1b6116d0818b6115f8565b0160011c90565b6116d0818a6115f8565b6116d081896115f8565b6116d081886115f8565b6116d081876115f8565b6116d081866115f8565b6116d081856115f8565b80926115f8565b90611acc565b820160011c90565b600291509201915f6116b4565b600491509201915f6116a3565b600891509201915f611692565b601091509201915f611681565b602091509201915f611670565b604091509201915f61165f565b6080925090506116bb61164a565b505f90565b91905b8382106117995750505090565b9091928083169080841860011c82018092116109bd57845f5265ffffffffffff8260205f2001541665ffffffffffff8416105f146117db5750925b919061178c565b9392506117e7906112fe565b916117d4565b6001600160a01b038083169392919081169081851415806118c2575b611815575b5050505050565b81611877575b50508261182a575b808061180e565b5f516020611ebd5f395f51905f529161184e61184861185493610fc9565b91611ade565b90611b47565b604080516001600160d01b039384168152919092166020820152a25f8080611823565b6118a06118915f516020611ebd5f395f51905f5292610fc9565b61189a86611ade565b90611b0f565b604080516001600160d01b039384168152919092166020820152a25f8061181b565b50831515611809565b60ff81146119115760ff811690601f821161190257604051916118ef604084610f8d565b6020808452838101919036833783525290565b632cd44ac360e21b5f5260045ffd5b5060405161022e81611924816005610ed8565b0382610f8d565b60ff811461194f5760ff811690601f821161190257604051916118ef604084610f8d565b5060405161022e81611924816006610ed8565b91906fa2a8918ca85bafe22016d0b997e4df60600160ff1b0384116119da579160209360809260ff5f9560405194855216868401526040830152606082015282805260015afa156119cf575f516001600160a01b038116156119c557905f905f90565b505f906001905f90565b6040513d5f823e3d90fd5b5050505f9160039190565b600411156119ef57565b634e487b7160e01b5f52602160045260245ffd5b611a0c816119e5565b80611a15575050565b611a1e816119e5565b60018103611a355763f645eedf60e01b5f5260045ffd5b611a3e816119e5565b60028103611a59575063fce698f760e01b5f5260045260245ffd5b80611a656003926119e5565b14611a6d5750565b6335e2f38360e21b5f5260045260245ffd5b8054821015611a94575f5260205f2001905f90565b634e487b7160e01b5f52603260045260245ffd5b90604051611ab581610f6d565b915465ffffffffffff8116835260301c6020830152565b9080821015611ad9575090565b905090565b6001600160d01b038111611af8576001600160d01b031690565b6306dfcc6560e41b5f5260d060045260245260445ffd5b90611b19436112c1565b90611b2383611512565b6001600160d01b0391821690821603919082116109bd57611b4392611d3d565b9091565b90611b51436112c1565b90611b5b83611512565b6001600160d01b0391821690821601919082116109bd57611b4392611d3d565b611b84436112c1565b90611b8f600a611512565b6001600160d01b03918216908216019081116109bd57611b4391600a611d3d565b611bb9436112c1565b90611bc4600a611512565b6001600160d01b03918216908216039081116109bd57611b4391600a611d3d565b9061100691611bf661148483611ade565b50506001600160a01b03168015611c38575b60086020525f516020611e5d5f395f51905f52545f9182526040909120546001600160a01b0390811691166117ed565b611c4461143f83611ade565b5050611c08565b61100692916001600160a01b03909116908115611cae575b6001600160a01b0316908115611c9b575b5f90815260086020526040808220549282529020546001600160a01b0390811691166117ed565b611ca761143f84611ade565b5050611c74565b611cba61148484611ade565b5050611c63565b9065ffffffffffff82549181199060301b169116179055565b8054600160401b811015610f8857611cf791600182018155611a7f565b611d2a578165ffffffffffff61100693511665ffffffffffff19835416178255602060018060d01b039101511690611cc1565b634e487b7160e01b5f525f60045260245ffd5b805492939291908215611e3357611d69611d64611d59856112f0565b835f5260205f200190565b611aa8565b9065ffffffffffff611d81835165ffffffffffff1690565b8185169182911611611e2457611de8946020948892611db4611da9875165ffffffffffff1690565b65ffffffffffff1690565b03611dec5750611dda92611dca611dd5926112f0565b905f5260205f200190565b611cc1565b01516001600160d01b031690565b9190565b915050611e1f91611e0c611dfe610ff7565b65ffffffffffff9093168352565b6001600160d01b03881682860152611cda565b611dda565b632520601d60e01b5f5260045ffd5b611e579250611e43611dfe610ff7565b6001600160d01b0385166020830152611cda565b5f919056fe5eff886ea0ce6ca488a3d6e336d6c0f75f46d19b42c06ce5ee98e42c96d256c78be0079c531659141344cd1fd0a4f28419497f9722a3daafe3b4186f6b6457e0ddf252ad1be2c89b69c2b068fc378daa952ba7f163c4a11628f55a4df523b3efdec2bacdd2f05b59de34da9b523dff8be42e5e38e818c82fdb0bae774387a724a26469706673582212206d338c17f8dbf0689cf5fd83a1ad031ceeb6d0ac543f5c1dd1ed9605add3d31964736f6c63430008210033c65a7bb8d6351c1cf70c95a316cc6a92839c986682d98bc35f958f4883f9d2a7dec2bacdd2f05b59de34da9b523dff8be42e5e38e818c82fdb0bae774387a724","linkReferences":{}},"methodIdentifiers":{"CLOCK_MODE()":"4bf5d7e9","DOMAIN_SEPARATOR()":"3644e515","INITIAL_SUPPLY()":"2ff2e9dc","allowance(address,address)":"dd62ed3e","approve(address,uint256)":"095ea7b3","balanceOf(address)":"70a08231","burn(uint256)":"42966c68","burnFrom(address,uint256)":"79cc6790","checkpoints(address,uint32)":"f1127ed8","clock()":"91ddadf4","decimals()":"313ce567","delegate(address)":"5c19a95c","delegateBySig(address,uint256,uint256,uint8,bytes32,bytes32)":"c3cda520","delegates(address)":"587cde1e","eip712Domain()":"84b0196e","getPastTotalSupply(uint256)":"8e539e8c","getPastVotes(address,uint256)":"3a46b1a8","getVotes(address)":"9ab24eb0","mint(address,uint256)":"40c10f19","name()":"06fdde03","nonces(address)":"7ecebe00","numCheckpoints(address)":"6fcfff45","owner()":"8da5cb5b","permit(address,address,uint256,uint256,uint8,bytes32,bytes32)":"d505accf","renounceOwnership()":"715018a6","symbol()":"95d89b41","totalSupply()":"18160ddd","transfer(address,uint256)":"a9059cbb","transferFrom(address,address,uint256)":"23b872dd","transferOwnership(address)":"f2fde38b"},"id":88}