{"abi":[{"type":"constructor","inputs":[],"stateMutability":"nonpayable"},{"type":"function","name":"UPGRADE_INTERFACE_VERSION","inputs":[],"outputs":[{"name":"","type":"string","internalType":"string"}],"stateMutability":"view"},{"type":"function","name":"accumulatedCommission","inputs":[],"outputs":[{"name":"","type":"uint256","internalType":"uint256"}],"stateMutability":"view"},{"type":"function","name":"addAuthorizedContract","inputs":[{"name":"contractAddress","type":"address","internalType":"address"}],"outputs":[],"stateMutability":"nonpayable"},{"type":"function","name":"applyToJob","inputs":[{"name":"_applicant","type":"address","internalType":"address"},{"name":"_jobId","type":"string","internalType":"string"},{"name":"_applicationHash","type":"string","internalType":"string"},{"name":"_descriptions","type":"string[]","internalType":"string[]"},{"name":"_amounts","type":"uint256[]","internalType":"uint256[]"},{"name":"_preferredChainDomain","type":"uint32","internalType":"uint32"}],"outputs":[],"stateMutability":"nonpayable"},{"type":"function","name":"authorizedContracts","inputs":[{"name":"","type":"address","internalType":"address"}],"outputs":[{"name":"","type":"bool","internalType":"bool"}],"stateMutability":"view"},{"type":"function","name":"batchAddAuthorizedContracts","inputs":[{"name":"contracts","type":"address[]","internalType":"address[]"}],"outputs":[],"stateMutability":"nonpayable"},{"type":"function","name":"bridge","inputs":[],"outputs":[{"name":"","type":"address","internalType":"address"}],"stateMutability":"view"},{"type":"function","name":"calculateCommission","inputs":[{"name":"amount","type":"uint256","internalType":"uint256"}],"outputs":[{"name":"","type":"uint256","internalType":"uint256"}],"stateMutability":"view"},{"type":"function","name":"calculateTokensForAmount","inputs":[{"name":"","type":"address","internalType":"address"},{"name":"additionalAmount","type":"uint256","internalType":"uint256"}],"outputs":[{"name":"","type":"uint256","internalType":"uint256"}],"stateMutability":"view"},{"type":"function","name":"cctpReceiver","inputs":[],"outputs":[{"name":"","type":"address","internalType":"address"}],"stateMutability":"view"},{"type":"function","name":"cctpTransceiver","inputs":[],"outputs":[{"name":"","type":"address","internalType":"address"}],"stateMutability":"view"},{"type":"function","name":"commissionPercentage","inputs":[],"outputs":[{"name":"","type":"uint256","internalType":"uint256"}],"stateMutability":"view"},{"type":"function","name":"createProfile","inputs":[{"name":"_user","type":"address","internalType":"address"},{"name":"_ipfsHash","type":"string","internalType":"string"},{"name":"_referrerAddress","type":"address","internalType":"address"}],"outputs":[],"stateMutability":"nonpayable"},{"type":"function","name":"genesis","inputs":[],"outputs":[{"name":"","type":"address","internalType":"contract IOpenworkGenesis"}],"stateMutability":"view"},{"type":"function","name":"getJob","inputs":[{"name":"_jobId","type":"string","internalType":"string"}],"outputs":[{"name":"","type":"tuple","internalType":"struct NativeOpenWorkJobContract.Job","components":[{"name":"id","type":"string","internalType":"string"},{"name":"jobGiver","type":"address","internalType":"address"},{"name":"applicants","type":"address[]","internalType":"address[]"},{"name":"jobDetailHash","type":"string","internalType":"string"},{"name":"status","type":"uint8","internalType":"enum NativeOpenWorkJobContract.JobStatus"},{"name":"workSubmissions","type":"string[]","internalType":"string[]"},{"name":"milestonePayments","type":"tuple[]","internalType":"struct NativeOpenWorkJobContract.MilestonePayment[]","components":[{"name":"descriptionHash","type":"string","internalType":"string"},{"name":"amount","type":"uint256","internalType":"uint256"}]},{"name":"finalMilestones","type":"tuple[]","internalType":"struct NativeOpenWorkJobContract.MilestonePayment[]","components":[{"name":"descriptionHash","type":"string","internalType":"string"},{"name":"amount","type":"uint256","internalType":"uint256"}]},{"name":"totalPaid","type":"uint256","internalType":"uint256"},{"name":"currentMilestone","type":"uint256","internalType":"uint256"},{"name":"selectedApplicant","type":"address","internalType":"address"},{"name":"selectedApplicationId","type":"uint256","internalType":"uint256"}]}],"stateMutability":"view"},{"type":"function","name":"getUserEarnedTokens","inputs":[{"name":"user","type":"address","internalType":"address"}],"outputs":[{"name":"","type":"uint256","internalType":"uint256"}],"stateMutability":"view"},{"type":"function","name":"getUserGovernanceActions","inputs":[{"name":"user","type":"address","internalType":"address"}],"outputs":[{"name":"","type":"uint256","internalType":"uint256"}],"stateMutability":"view"},{"type":"function","name":"getUserGovernanceActionsInBand","inputs":[{"name":"user","type":"address","internalType":"address"},{"name":"band","type":"uint256","internalType":"uint256"}],"outputs":[{"name":"","type":"uint256","internalType":"uint256"}],"stateMutability":"view"},{"type":"function","name":"getUserRewardInfo","inputs":[{"name":"user","type":"address","internalType":"address"}],"outputs":[{"name":"totalTokens","type":"uint256","internalType":"uint256"},{"name":"governanceActions","type":"uint256","internalType":"uint256"}],"stateMutability":"view"},{"type":"function","name":"handleReleasePaymentCrossChain","inputs":[{"name":"_jobGiver","type":"address","internalType":"address"},{"name":"_jobId","type":"string","internalType":"string"},{"name":"_amount","type":"uint256","internalType":"uint256"},{"name":"_targetChainDomain","type":"uint32","internalType":"uint32"},{"name":"_targetRecipient","type":"address","internalType":"address"}],"outputs":[],"stateMutability":"nonpayable"},{"type":"function","name":"handleStartDirectContract","inputs":[{"name":"_jobGiver","type":"address","internalType":"address"},{"name":"_jobTaker","type":"address","internalType":"address"},{"name":"_jobId","type":"string","internalType":"string"},{"name":"_jobDetailHash","type":"string","internalType":"string"},{"name":"_descriptions","type":"string[]","internalType":"string[]"},{"name":"_amounts","type":"uint256[]","internalType":"uint256[]"},{"name":"_jobTakerChainDomain","type":"uint32","internalType":"uint32"}],"outputs":[],"stateMutability":"nonpayable"},{"type":"function","name":"handleUpdateUserClaimData","inputs":[{"name":"user","type":"address","internalType":"address"},{"name":"claimedTokens","type":"uint256","internalType":"uint256"}],"outputs":[],"stateMutability":"nonpayable"},{"type":"function","name":"hasNowjcProfile","inputs":[{"name":"","type":"address","internalType":"address"}],"outputs":[{"name":"","type":"bool","internalType":"bool"}],"stateMutability":"view"},{"type":"function","name":"incrementGovernanceAction","inputs":[{"name":"user","type":"address","internalType":"address"}],"outputs":[],"stateMutability":"nonpayable"},{"type":"function","name":"initialize","inputs":[{"name":"_owner","type":"address","internalType":"address"},{"name":"_bridge","type":"address","internalType":"address"},{"name":"_genesis","type":"address","internalType":"address"},{"name":"_rewardsContract","type":"address","internalType":"address"},{"name":"_usdcToken","type":"address","internalType":"address"},{"name":"_cctpReceiver","type":"address","internalType":"address"}],"outputs":[],"stateMutability":"nonpayable"},{"type":"function","name":"isAuthorizedContract","inputs":[{"name":"contractAddress","type":"address","internalType":"address"}],"outputs":[{"name":"","type":"bool","internalType":"bool"}],"stateMutability":"view"},{"type":"function","name":"jobApplicantChainDomain","inputs":[{"name":"","type":"string","internalType":"string"},{"name":"","type":"address","internalType":"address"}],"outputs":[{"name":"","type":"uint32","internalType":"uint32"}],"stateMutability":"view"},{"type":"function","name":"lockNextMilestone","inputs":[{"name":"","type":"address","internalType":"address"},{"name":"_jobId","type":"string","internalType":"string"},{"name":"_lockedAmount","type":"uint256","internalType":"uint256"}],"outputs":[],"stateMutability":"nonpayable"},{"type":"function","name":"minCommission","inputs":[],"outputs":[{"name":"","type":"uint256","internalType":"uint256"}],"stateMutability":"view"},{"type":"function","name":"nativeAthena","inputs":[],"outputs":[{"name":"","type":"address","internalType":"address"}],"stateMutability":"view"},{"type":"function","name":"owner","inputs":[],"outputs":[{"name":"","type":"address","internalType":"address"}],"stateMutability":"view"},{"type":"function","name":"postJob","inputs":[{"name":"_jobId","type":"string","internalType":"string"},{"name":"_jobGiver","type":"address","internalType":"address"},{"name":"_jobDetailHash","type":"string","internalType":"string"},{"name":"_descriptions","type":"string[]","internalType":"string[]"},{"name":"_amounts","type":"uint256[]","internalType":"uint256[]"}],"outputs":[],"stateMutability":"nonpayable"},{"type":"function","name":"proxiableUUID","inputs":[],"outputs":[{"name":"","type":"bytes32","internalType":"bytes32"}],"stateMutability":"view"},{"type":"function","name":"rate","inputs":[{"name":"_rater","type":"address","internalType":"address"},{"name":"_jobId","type":"string","internalType":"string"},{"name":"_userToRate","type":"address","internalType":"address"},{"name":"_rating","type":"uint256","internalType":"uint256"}],"outputs":[],"stateMutability":"nonpayable"},{"type":"function","name":"releaseDisputedFunds","inputs":[{"name":"_recipient","type":"address","internalType":"address"},{"name":"_amount","type":"uint256","internalType":"uint256"},{"name":"_targetChainDomain","type":"uint32","internalType":"uint32"}],"outputs":[],"stateMutability":"nonpayable"},{"type":"function","name":"releasePayment","inputs":[{"name":"_jobId","type":"string","internalType":"string"}],"outputs":[],"stateMutability":"nonpayable"},{"type":"function","name":"releasePaymentAndLockNext","inputs":[{"name":"_jobGiver","type":"address","internalType":"address"},{"name":"_jobId","type":"string","internalType":"string"},{"name":"_releasedAmount","type":"uint256","internalType":"uint256"},{"name":"_lockedAmount","type":"uint256","internalType":"uint256"}],"outputs":[],"stateMutability":"nonpayable"},{"type":"function","name":"releasePaymentCrossChain","inputs":[{"name":"_jobGiver","type":"address","internalType":"address"},{"name":"_jobId","type":"string","internalType":"string"},{"name":"_amount","type":"uint256","internalType":"uint256"},{"name":"_targetChainDomain","type":"uint32","internalType":"uint32"},{"name":"_targetRecipient","type":"address","internalType":"address"}],"outputs":[],"stateMutability":"nonpayable"},{"type":"function","name":"removeAuthorizedContract","inputs":[{"name":"contractAddress","type":"address","internalType":"address"}],"outputs":[],"stateMutability":"nonpayable"},{"type":"function","name":"renounceOwnership","inputs":[],"outputs":[],"stateMutability":"nonpayable"},{"type":"function","name":"rewardsContract","inputs":[],"outputs":[{"name":"","type":"address","internalType":"contract IOpenWorkRewards"}],"stateMutability":"view"},{"type":"function","name":"setApplicantChainDomain","inputs":[{"name":"_jobId","type":"string","internalType":"string"},{"name":"_applicant","type":"address","internalType":"address"},{"name":"_chainDomain","type":"uint32","internalType":"uint32"}],"outputs":[],"stateMutability":"nonpayable"},{"type":"function","name":"setBridge","inputs":[{"name":"_bridge","type":"address","internalType":"address"}],"outputs":[],"stateMutability":"nonpayable"},{"type":"function","name":"setCCTPReceiver","inputs":[{"name":"_cctpReceiver","type":"address","internalType":"address"}],"outputs":[],"stateMutability":"nonpayable"},{"type":"function","name":"setCCTPTransceiver","inputs":[{"name":"_cctpTransceiver","type":"address","internalType":"address"}],"outputs":[],"stateMutability":"nonpayable"},{"type":"function","name":"setCommissionPercentage","inputs":[{"name":"_percentage","type":"uint256","internalType":"uint256"}],"outputs":[],"stateMutability":"nonpayable"},{"type":"function","name":"setGenesis","inputs":[{"name":"_genesis","type":"address","internalType":"address"}],"outputs":[],"stateMutability":"nonpayable"},{"type":"function","name":"setMinCommission","inputs":[{"name":"_minCommission","type":"uint256","internalType":"uint256"}],"outputs":[],"stateMutability":"nonpayable"},{"type":"function","name":"setNativeAthena","inputs":[{"name":"_nativeAthena","type":"address","internalType":"address"}],"outputs":[],"stateMutability":"nonpayable"},{"type":"function","name":"setRewardsContract","inputs":[{"name":"_rewardsContract","type":"address","internalType":"address"}],"outputs":[],"stateMutability":"nonpayable"},{"type":"function","name":"setTreasury","inputs":[{"name":"_treasury","type":"address","internalType":"address"}],"outputs":[],"stateMutability":"nonpayable"},{"type":"function","name":"setUSDTToken","inputs":[{"name":"_newToken","type":"address","internalType":"address"}],"outputs":[],"stateMutability":"nonpayable"},{"type":"function","name":"startJob","inputs":[{"name":"","type":"address","internalType":"address"},{"name":"_jobId","type":"string","internalType":"string"},{"name":"_applicationId","type":"uint256","internalType":"uint256"},{"name":"_useApplicantMilestones","type":"bool","internalType":"bool"}],"outputs":[],"stateMutability":"nonpayable"},{"type":"function","name":"submitWork","inputs":[{"name":"_applicant","type":"address","internalType":"address"},{"name":"_jobId","type":"string","internalType":"string"},{"name":"_submissionHash","type":"string","internalType":"string"}],"outputs":[],"stateMutability":"nonpayable"},{"type":"function","name":"syncRewardsData","inputs":[{"name":"_options","type":"bytes","internalType":"bytes"}],"outputs":[],"stateMutability":"payable"},{"type":"function","name":"syncVotingPower","inputs":[{"name":"_options","type":"bytes","internalType":"bytes"}],"outputs":[],"stateMutability":"payable"},{"type":"function","name":"transferOwnership","inputs":[{"name":"newOwner","type":"address","internalType":"address"}],"outputs":[],"stateMutability":"nonpayable"},{"type":"function","name":"treasury","inputs":[],"outputs":[{"name":"","type":"address","internalType":"address"}],"stateMutability":"view"},{"type":"function","name":"upgradeFromDAO","inputs":[{"name":"newImplementation","type":"address","internalType":"address"}],"outputs":[],"stateMutability":"nonpayable"},{"type":"function","name":"upgradeToAndCall","inputs":[{"name":"newImplementation","type":"address","internalType":"address"},{"name":"data","type":"bytes","internalType":"bytes"}],"outputs":[],"stateMutability":"payable"},{"type":"function","name":"usdcToken","inputs":[],"outputs":[{"name":"","type":"address","internalType":"contract IERC20"}],"stateMutability":"view"},{"type":"function","name":"withdrawAllCommission","inputs":[],"outputs":[],"stateMutability":"nonpayable"},{"type":"function","name":"withdrawCommission","inputs":[{"name":"amount","type":"uint256","internalType":"uint256"}],"outputs":[],"stateMutability":"nonpayable"},{"type":"event","name":"AuthorizedContractAdded","inputs":[{"name":"contractAddress","type":"address","indexed":true,"internalType":"address"}],"anonymous":false},{"type":"event","name":"AuthorizedContractRemoved","inputs":[{"name":"contractAddress","type":"address","indexed":true,"internalType":"address"}],"anonymous":false},{"type":"event","name":"BridgeUpdated","inputs":[{"name":"oldBridge","type":"address","indexed":true,"internalType":"address"},{"name":"newBridge","type":"address","indexed":true,"internalType":"address"}],"anonymous":false},{"type":"event","name":"ClaimDataUpdated","inputs":[{"name":"user","type":"address","indexed":true,"internalType":"address"},{"name":"claimedJobTokens","type":"uint256","indexed":false,"internalType":"uint256"},{"name":"claimedGovernanceTokens","type":"uint256","indexed":false,"internalType":"uint256"}],"anonymous":false},{"type":"event","name":"CommissionDeducted","inputs":[{"name":"jobId","type":"string","indexed":true,"internalType":"string"},{"name":"grossAmount","type":"uint256","indexed":false,"internalType":"uint256"},{"name":"commission","type":"uint256","indexed":false,"internalType":"uint256"},{"name":"netAmount","type":"uint256","indexed":false,"internalType":"uint256"}],"anonymous":false},{"type":"event","name":"CommissionPercentageUpdated","inputs":[{"name":"oldPercentage","type":"uint256","indexed":false,"internalType":"uint256"},{"name":"newPercentage","type":"uint256","indexed":false,"internalType":"uint256"}],"anonymous":false},{"type":"event","name":"CommissionWithdrawn","inputs":[{"name":"treasury","type":"address","indexed":true,"internalType":"address"},{"name":"amount","type":"uint256","indexed":false,"internalType":"uint256"}],"anonymous":false},{"type":"event","name":"DisputedFundsReleased","inputs":[{"name":"jobId","type":"string","indexed":true,"internalType":"string"},{"name":"winner","type":"address","indexed":true,"internalType":"address"},{"name":"winnerChainDomain","type":"uint32","indexed":false,"internalType":"uint32"},{"name":"amount","type":"uint256","indexed":false,"internalType":"uint256"}],"anonymous":false},{"type":"event","name":"GenesisUpdated","inputs":[{"name":"oldGenesis","type":"address","indexed":true,"internalType":"address"},{"name":"newGenesis","type":"address","indexed":true,"internalType":"address"}],"anonymous":false},{"type":"event","name":"GovernanceActionIncremented","inputs":[{"name":"user","type":"address","indexed":true,"internalType":"address"},{"name":"newGovernanceActionCount","type":"uint256","indexed":false,"internalType":"uint256"},{"name":"band","type":"uint256","indexed":true,"internalType":"uint256"}],"anonymous":false},{"type":"event","name":"Initialized","inputs":[{"name":"version","type":"uint64","indexed":false,"internalType":"uint64"}],"anonymous":false},{"type":"event","name":"JobApplication","inputs":[{"name":"jobId","type":"string","indexed":true,"internalType":"string"},{"name":"applicationId","type":"uint256","indexed":true,"internalType":"uint256"},{"name":"applicant","type":"address","indexed":true,"internalType":"address"},{"name":"applicationHash","type":"string","indexed":false,"internalType":"string"}],"anonymous":false},{"type":"event","name":"JobPosted","inputs":[{"name":"jobId","type":"string","indexed":true,"internalType":"string"},{"name":"jobGiver","type":"address","indexed":true,"internalType":"address"},{"name":"jobDetailHash","type":"string","indexed":false,"internalType":"string"}],"anonymous":false},{"type":"event","name":"JobStarted","inputs":[{"name":"jobId","type":"string","indexed":true,"internalType":"string"},{"name":"applicationId","type":"uint256","indexed":true,"internalType":"uint256"},{"name":"selectedApplicant","type":"address","indexed":true,"internalType":"address"},{"name":"useApplicantMilestones","type":"bool","indexed":false,"internalType":"bool"}],"anonymous":false},{"type":"event","name":"JobStatusChanged","inputs":[{"name":"jobId","type":"string","indexed":true,"internalType":"string"},{"name":"newStatus","type":"uint8","indexed":false,"internalType":"enum NativeOpenWorkJobContract.JobStatus"}],"anonymous":false},{"type":"event","name":"MilestoneLocked","inputs":[{"name":"jobId","type":"string","indexed":true,"internalType":"string"},{"name":"newMilestone","type":"uint256","indexed":false,"internalType":"uint256"},{"name":"lockedAmount","type":"uint256","indexed":false,"internalType":"uint256"}],"anonymous":false},{"type":"event","name":"MinCommissionUpdated","inputs":[{"name":"oldMin","type":"uint256","indexed":false,"internalType":"uint256"},{"name":"newMin","type":"uint256","indexed":false,"internalType":"uint256"}],"anonymous":false},{"type":"event","name":"NativeAthenaUpdated","inputs":[{"name":"oldNativeAthena","type":"address","indexed":true,"internalType":"address"},{"name":"newNativeAthena","type":"address","indexed":true,"internalType":"address"}],"anonymous":false},{"type":"event","name":"OwnershipTransferred","inputs":[{"name":"previousOwner","type":"address","indexed":true,"internalType":"address"},{"name":"newOwner","type":"address","indexed":true,"internalType":"address"}],"anonymous":false},{"type":"event","name":"PaymentReleased","inputs":[{"name":"jobId","type":"string","indexed":true,"internalType":"string"},{"name":"jobGiver","type":"address","indexed":true,"internalType":"address"},{"name":"applicant","type":"address","indexed":true,"internalType":"address"},{"name":"amount","type":"uint256","indexed":false,"internalType":"uint256"},{"name":"milestone","type":"uint256","indexed":false,"internalType":"uint256"}],"anonymous":false},{"type":"event","name":"PaymentReleasedAndNextMilestoneLocked","inputs":[{"name":"jobId","type":"string","indexed":true,"internalType":"string"},{"name":"releasedAmount","type":"uint256","indexed":false,"internalType":"uint256"},{"name":"lockedAmount","type":"uint256","indexed":false,"internalType":"uint256"},{"name":"milestone","type":"uint256","indexed":false,"internalType":"uint256"}],"anonymous":false},{"type":"event","name":"RewardsContractUpdated","inputs":[{"name":"oldRewards","type":"address","indexed":true,"internalType":"address"},{"name":"newRewards","type":"address","indexed":true,"internalType":"address"}],"anonymous":false},{"type":"event","name":"RewardsDataSynced","inputs":[{"name":"user","type":"address","indexed":true,"internalType":"address"},{"name":"syncType","type":"uint256","indexed":false,"internalType":"uint256"},{"name":"claimableAmount","type":"uint256","indexed":false,"internalType":"uint256"},{"name":"reserved","type":"uint256","indexed":false,"internalType":"uint256"}],"anonymous":false},{"type":"event","name":"TokensEarned","inputs":[{"name":"user","type":"address","indexed":true,"internalType":"address"},{"name":"tokensEarned","type":"uint256","indexed":false,"internalType":"uint256"},{"name":"newPlatformTotal","type":"uint256","indexed":false,"internalType":"uint256"},{"name":"newUserTotalTokens","type":"uint256","indexed":false,"internalType":"uint256"}],"anonymous":false},{"type":"event","name":"TreasuryUpdated","inputs":[{"name":"oldTreasury","type":"address","indexed":true,"internalType":"address"},{"name":"newTreasury","type":"address","indexed":true,"internalType":"address"}],"anonymous":false},{"type":"event","name":"Upgraded","inputs":[{"name":"implementation","type":"address","indexed":true,"internalType":"address"}],"anonymous":false},{"type":"event","name":"UserRated","inputs":[{"name":"jobId","type":"string","indexed":true,"internalType":"string"},{"name":"rater","type":"address","indexed":true,"internalType":"address"},{"name":"rated","type":"address","indexed":true,"internalType":"address"},{"name":"rating","type":"uint256","indexed":false,"internalType":"uint256"}],"anonymous":false},{"type":"event","name":"WorkSubmitted","inputs":[{"name":"jobId","type":"string","indexed":true,"internalType":"string"},{"name":"applicant","type":"address","indexed":true,"internalType":"address"},{"name":"submissionHash","type":"string","indexed":false,"internalType":"string"},{"name":"milestone","type":"uint256","indexed":false,"internalType":"uint256"}],"anonymous":false},{"type":"error","name":"AddressEmptyCode","inputs":[{"name":"target","type":"address","internalType":"address"}]},{"type":"error","name":"AddressInsufficientBalance","inputs":[{"name":"account","type":"address","internalType":"address"}]},{"type":"error","name":"ERC1967InvalidImplementation","inputs":[{"name":"implementation","type":"address","internalType":"address"}]},{"type":"error","name":"ERC1967NonPayable","inputs":[]},{"type":"error","name":"FailedInnerCall","inputs":[]},{"type":"error","name":"InvalidInitialization","inputs":[]},{"type":"error","name":"NotInitializing","inputs":[]},{"type":"error","name":"OwnableInvalidOwner","inputs":[{"name":"owner","type":"address","internalType":"address"}]},{"type":"error","name":"OwnableUnauthorizedAccount","inputs":[{"name":"account","type":"address","internalType":"address"}]},{"type":"error","name":"SafeERC20FailedOperation","inputs":[{"name":"token","type":"address","internalType":"address"}]},{"type":"error","name":"UUPSUnauthorizedCallContext","inputs":[]},{"type":"error","name":"UUPSUnsupportedProxiableUUID","inputs":[{"name":"slot","type":"bytes32","internalType":"bytes32"}]}],"bytecode":{"object":"0x60a080604052346100d557306080526064600e55620f4240600f555f516020615fd85f395f51905f525460ff8160401c166100c6576002600160401b03196001600160401b03821601610073575b604051615efe90816100da8239608051818181612d8701528181612e2b01526132c00152f35b6001600160401b0319166001600160401b039081175f516020615fd85f395f51905f525581527fc7f505b2f371ae2175ee4913f4499e1f2633a7b5936321eed1cdaeb6115181d290602090a15f8061004d565b63f92ee8a960e01b5f5260045ffd5b5f80fdfe60806040526004361015610011575f80fd5b5f5f3560e01c806309d6667e14613dd657806311eac85514613dad5780631277bbf8146138c557806317face8414613821578063220cce97146137f857806323dc878c146137cf57806329f8d96d14613757578063301f82571461351157806339b87c8f1461348257806340634e3b1461327057806342b0f652146130935780634efac43f146130285780634f1ef28614612ddb57806352d1902d14612d745780635843905f14612d505780636009b51f1461271f57806361d027b3146126f657806366d0ead314610d9657806366e226bd146126a957806369517310146126795780636a23a98a1461243e5780636c2db78f14612415578063715018a6146123bf57806377e324071461208d578063859705a814611f6357806387e821d614611e395780638da5cb5b14611e045780638dd1480214611d9957806394928b8414611d7157806398eaa4a714611d1057806399f426be14611b295780639abcbbe814611a3f578063a6b1609614611446578063a7f0b3de1461141f578063ad3cb1cc146113d2578063ae693673146113b4578063b9acee1d1461126e578063ba245963146110e1578063c088797b14611045578063c1c3cf2c14611006578063cc2a9a5b14610e12578063ce9b432114610df3578063d575fe6414610dd5578063d5b9221b14610d96578063d6e3c76a14610d49578063d819aea414610d2e578063d888cc2714610ce2578063dc209f1314610cb9578063de8fd3af14610c63578063dfa0dfa514610bf8578063e4a9d8ee14610bab578063e4e2a85614610b7b578063e6b165ed14610b15578063e78cea9214610aec578063e848635514610ac4578063eb14b35314610a5d578063eca688ea14610a3f578063f0f4426014610992578063f14db78314610966578063f27bf0bf146108a7578063f2fde38b1461087a578063f4f5d3c7146106b55763fc5dee81146102cf575f80fd5b346106b25760c03660031901126106b2576102e8614270565b906024356001600160401b0381116106b05761030890369060040161435d565b6044356001600160401b03811161067d5761032790369060040161435d565b916064356001600160401b0381116106b0576103479036906004016143a5565b6084356001600160401b03811161067d57610366903690600401614423565b9360a43563ffffffff8116809103610609576103858351875114614c10565b83546040516377e3240760e01b815260206004820152966001600160a01b0390911695908588806103b96024820186614480565b03818a5afa9788156106a5578698610681575b5096976001600160a01b0381169790865b60408b01518051821015610447578a906001600160a01b039061040190849061496f565b511614610410576001016103dd565b60405162461bcd60e51b815260206004820152600f60248201526e105b1c9958591e48185c1c1b1a5959608a1b6044820152606490fd5b50509588968198803b1561067d576040516206d86360e41b8152918391839182908490829061047a908b60048401614deb565b03925af180156105fe57610664575b505060018060a01b03875416906040519563eb7d901b60e01b875260206004880152602087806104bc6024820188614480565b0381865afa968715610659578997610621575b506001870180971161060d5790829189933b15610609578692610523858761056382966105518f978f61053f906040519c8d9b8c9a8b9963bd015d7960e01b8b5261010060048c01526101048b0190614480565b9260248a01526044890152600319888303016064890152614480565b85810360031901608487015290614c4e565b8381036003190160a485015290614ca6565b8a60c48301528d60e483015203925af180156105fe576105e5575b50506105ca6105df915f516020615d695f395f51905f5293604051602081845180838701835e8101600b815203019020885f5260205260405f209063ffffffff198254161790556149c0565b92604051918291602083526020830190614480565b0390a480f35b816105ef916142e9565b6105fa57858761057e565b8580fd5b6040513d84823e3d90fd5b8380fd5b634e487b7160e01b89526011600452602489fd5b9096506020813d602011610651575b8161063d602093836142e9565b8101031261064d575195896104cf565b5f80fd5b3d9150610630565b6040513d8b823e3d90fd5b8161066e916142e9565b610679578688610489565b8680fd5b8280fd5b61069e9198503d8088833e61069681836142e9565b810190614717565b965f6103cc565b6040513d88823e3d90fd5b505b80fd5b50346106b25760603660031901126106b2576106cf614270565b506024356001600160401b0381116106b0576106ef90369060040161435d565b81546040516377e3240760e01b815260206004820152906001600160a01b031683828061071f6024820187614480565b0381845afa91821561086f578492610853575b5061012082019160e0835191015151111561081e578151906001820180921161080a57908185923b1561067d57604051635839ccbd60e11b81529183918391829084908290610785908b600484016146fb565b03925af180156105fe576107f5575b50505190600182018092116107e15760406107cf7fb9422fa51238140c2297fbab91a9525e85400eea5c9666d16562298ea0e0981c926149c0565b9281519081526044356020820152a280f35b634e487b7160e01b83526011600452602483fd5b816107ff916142e9565b61067d57825f610794565b634e487b7160e01b85526011600452602485fd5b60405162461bcd60e51b815260206004820152600d60248201526c105b1b0818dbdb5c1b195d1959609a1b6044820152606490fd5b6108689192503d8086833e61069681836142e9565b905f610732565b6040513d86823e3d90fd5b50346106b25760203660031901126106b2576108a4610897614270565b61089f615b06565b61584a565b80f35b50346106b257806003193601126106b257600c546001600160a01b03166108cf338214614b1d565b600d5490811561093157600d8390556007546108f59183916001600160a01b03166158a8565b600c546040519182526001600160a01b0316907fd244b5a3b2e3977ecffe1a5e5ab7661aadfecbae24be711b7a72bb42bd1b2db090602090a280f35b60405162461bcd60e51b815260206004820152600d60248201526c27379031b7b6b6b4b9b9b4b7b760991b6044820152606490fd5b50346106b25760203660031901126106b257602061098a610985614270565b6157c0565b604051908152f35b50346106b25760203660031901126106b2576109ac614270565b6109b4615b06565b6001600160a01b03168015610a0757600c80546001600160a01b0319811683179091556001600160a01b03167f4ab5be82436d353e61ca18726e984e561f5c1cc7c6d38b29d2553c790434705a8380a380f35b60405162461bcd60e51b815260206004820152601060248201526f496e76616c696420747265617375727960801b6044820152606490fd5b50346106b257806003193601126106b2576020600f54604051908152f35b50346106b25760203660031901126106b257610a77614270565b610a7f615b06565b81546001600160a01b039182166001600160a01b031982168117845591167f5f1d51aab4bd6e41be6c7feda322db860d93d0058238bf871dfafd43ecc951f98380a380f35b50346106b25760403660031901126106b257602061098a610ae3614270565b60243590615744565b50346106b257806003193601126106b2576002546040516001600160a01b039091168152602090f35b50346106b25760203660031901126106b257610b2f614270565b610b37615b06565b6001600160a01b0316808252600660205260408220805460ff191690557f98a35376356c1565159c1b44676fcfa951a2287e2a816e208cf92e7aeb585a4f8280a280f35b50346106b2576108a4610b8d3661457d565b93610ba660018060a09694961b03600254163314614bd6565b6151ab565b50346106b25760203660031901126106b257610bc5614270565b610bcd615b06565b6001600160a01b0316610be1811515614e13565b600980546001600160a01b03191691909117905580f35b50346106b25760203660031901126106b257610c12614270565b610c1a615b06565b600180546001600160a01b039283166001600160a01b0319821681179092559091167f1411e470e89195b3fc751143c6dfe8c8cb1207e319c33747a017fb39e13ef92c8380a380f35b50346106b25760203660031901126106b2577f42ddeacb574f2550f7e8d8e42de1ed9b952f6b6f5c3616afeaa9922896ea5ec46040600435610ca3615b06565b600f549080600f5582519182526020820152a180f35b50346106b257806003193601126106b257600a546040516001600160a01b039091168152602090f35b50346106b25760603660031901126106b257610cfc614270565b602435906001600160401b03821161067d57610d1f6108a492369060040161435d565b50610d2861429c565b5061568b565b50346106b2576108a4610d403661457d565b939290926151ab565b50346106b25760203660031901126106b257610d63614270565b610d6b615b06565b6001600160a01b0316610d7f811515614e13565b600880546001600160a01b03191691909117905580f35b50346106b25760203660031901126106b25760209060ff906040906001600160a01b03610dc1614270565b168152600684522054166040519015158152f35b50346106b257806003193601126106b2576020600e54604051908152f35b50346106b25760203660031901126106b257602061098a60043561517d565b50346106b25760c03660031901126106b257610e2c614270565b610e34614286565b610e3c61429c565b6064356001600160a01b03811690819003611002576084356001600160a01b03811692908390036105fa5760a4356001600160a01b0381169490859003610679575f516020615e695f395f51905f5254604081901c60ff161596906001600160401b03811680159081610ffa575b6001149081610ff0575b159081610fe7575b50610fd8576001600160401b031981166001175f516020615e695f395f51905f5255610efa919088610fb0575b50610ef2615bf0565b61089f615bf0565b610f02615bf0565b600280546001600160a01b03199081166001600160a01b03938416179091558754811692909116919091178655600180548216929092179091556007805482169290921790915560088054909116919091179055610f5d5780f35b60ff60401b195f516020615e695f395f51905f5254165f516020615e695f395f51905f52557fc7f505b2f371ae2175ee4913f4499e1f2633a7b5936321eed1cdaeb6115181d2602060405160018152a180f35b6001600160481b0319166001600160401b01175f516020615e695f395f51905f52555f610ee9565b63f92ee8a960e01b8952600489fd5b9050155f610ebc565b303b159150610eb4565b899150610eaa565b8480fd5b50346106b25760203660031901126106b25760209060ff906040906001600160a01b03611031614270565b168152600584522054166040519015158152f35b50346106b25760603660031901126106b2576004356001600160401b0381116106b05761107690369060040161435d565b61107e614286565b60208061108961437b565b93338652600682526110a160ff604088205416614f77565b604051928184925191829101835e8101600b8152030190209060018060a01b03165f5260205263ffffffff60405f20911663ffffffff1982541617905580f35b50346106b25760603660031901126106b2576110fb614270565b6024356001600160401b03811161067d5761111a90369060040161435d565b906044356001600160401b0381116106095761113a90369060040161435d565b835490929084906001600160a01b0316803b156106b057816040518092632c47fa9760e01b82526040600483015281838161118d61117b604483018b614480565b8281036003190160248401528c614480565b03925af180156105fe57611259575b505083546040516377e3240760e01b8152602060048201529190859083906001600160a01b031681806111d26024820187614480565b03915afa801561124e57610120611215917f2de280d2b7315f889cbea3ddc5c9ebfb1773caba023a73cc8fa272e9b28585c2948891611234575b500151916149c0565b9261122e60405192839260018060a01b031696836146fb565b0390a380f35b61124891503d808a833e61069681836142e9565b5f61120c565b6040513d87823e3d90fd5b81611263916142e9565b61060957835f61119c565b50346106b25760403660031901126106b257611288614270565b602435906112a160018060a01b03600254163314614bd6565b825483906001600160a01b0316803b156106b05781604051809263286fd04f60e01b82528183816112d68a8a60048401614aec565b03925af180156105fe5761139f575b50506001546001600160a01b031680611323575b5060405f516020615d095f395f51905f5291815193845284602085015260018060a01b031692a280f35b9060206040518093635b92f3d960e01b8252818781611346898860048401614aec565b03925af190811561086f575f516020615d095f395f51905f5292604092611370575b5091506112f9565b6113919060203d602011611398575b61138981836142e9565b810190614ad4565b505f611368565b503d61137f565b816113a9916142e9565b61067d57825f6112e5565b50346106b257806003193601126106b2576020600d54604051908152f35b50346106b257806003193601126106b2575061141b6040516113f56040826142e9565b60058152640352e302e360dc1b6020820152604051918291602083526020830190614480565b0390f35b50346106b257806003193601126106b257546040516001600160a01b039091168152602090f35b50346106b25760203660031901126106b2576004356001600160401b0381116106b05761147790369060040161435d565b338252600660205260ff6040832054168015611a2b575b61149790614f77565b81546040516377e3240760e01b8152602060048201529190839083906001600160a01b031681806114cb6024820187614480565b03915afa91821561191c578392611a0f575b50610140820180519091906001600160a01b0316156119d25761151860016080850151611509816144a4565b611512816144a4565b1461513b565b610120830192835180151590816119c2575b50156119835783515f1981019190821161196f57602061154f60e0830193845161496f565b51015161155b8161517d565b6115658183614a5f565b9261157282600d54614a80565b600d55604051602081885180838b01835e600b9082019081520301902087516001600160a01b03165f908152602091909152604090205463ffffffff16600381148015611967575b1561183657506007548751602092916115e19187916001600160a01b0391821691166158a8565b01936115f7848760018060a01b03885116615943565b885489906001600160a01b0316803b156106b057604051636167f40760e11b8152908290829081838161162e8c8f600484016146fb565b03925af180156105fe57611821575b50508854885160018101916001600160a01b031690821061180d5790818b923b1561067d576116869183918a83604051809681958294635839ccbd60e11b8452600484016146fb565b03925af180156105fe576117f4575b5050875190600182018092116117e057515110611718575b5f516020615e495f395f51905f5293604093925f516020615e895f395f51905f52611709936116db896149c0565b926116eb87895193849384614b07565b0390a251955196516001600160a01b039788169790961695946149c0565b9382519182526020820152a480f35b875488906001600160a01b0316803b156106b057816040518092632d6f93f960e21b8252604060048301528183816117548d6044830190614480565b6002602483015203925af180156105fe576117c1575b5093604093925f516020615e895f395f51905f52611709935f516020615e495f395f51905f52975f516020615ce95f395f51905f5260206117aa8c6149c0565b928a51905060028152a293505092935093506116ad565b816117ce919594956142e9565b6117dc57875f93929361176a565b8780fd5b634e487b7160e01b8a52601160045260248afd5b816117fe916142e9565b61180957885f611695565b8880fd5b634e487b7160e01b8b52601160045260248bfd5b8161182b916142e9565b61180957885f61163d565b6009546001600160a01b03169081156119275761187a6020878d9460018060a01b0360075416908660405180968195829463095ea7b360e01b845260048401614aec565b03925af1801561191c576118ff575b5060095489516001600160a01b03918216929116823b15610609576084849283604051958694859363269258dd60e01b85528d6004860152602485015260448401526103e860648401525af180156105fe576118ea575b50506020906115e1565b816118f4916142e9565b61180957885f6118e0565b6119179060203d6020116113985761138981836142e9565b611889565b6040513d85823e3d90fd5b60405162461bcd60e51b815260206004820152601860248201527710d0d514081d1c985b9cd8d95a5d995c881b9bdd081cd95d60421b6044820152606490fd5b5080156115ba565b634e487b7160e01b86526011600452602486fd5b60405162461bcd60e51b8152602060048201526017602482015276496e76616c6964206d696c6573746f6e6520737461746560481b6044820152606490fd5b905060e08201515110155f61152a565b60405162461bcd60e51b8152602060048201526015602482015274139bc8185c1c1b1a58d85b9d081cd95b1958dd1959605a1b6044820152606490fd5b611a249192503d8085833e61069681836142e9565b905f6114dd565b506002546001600160a01b0316331461148e565b50346106b25760203660031901126106b2576004356001600160401b0381116106b057366023820112156106b0576004810135906001600160401b03821161067d576024810190602436918460051b01011161067d57611a9d615b06565b825b828110611aaa578380f35b600190611ad36001600160a01b03611acb611ac6848888615117565b615127565b161515614e13565b818060a01b03611ae7611ac6838787615117565b1685526006602052604085208260ff19825416179055818060a01b03611b11611ac6838787615117565b165f516020615d495f395f51905f528680a201611a9f565b50346106b25760203660031901126106b257611b43614270565b81546001600160a01b0316908290823b156106b05760405163033ba21d60e31b81526001600160a01b03909116600482018190529282908290602490829084905af180156105fe57611cfb575b506001546001600160a01b031680611cb6575b50506001546001600160a01b03168015611cae57602060049160405192838092636bb9f8df60e11b82525afa90811561191c578391611c7c575b50905b825460405163f14db78360e01b81526004810183905290602090829060249082906001600160a01b03165afa90811561086f578491611c49575b5060207fea1851b2332e25f0d6427525a451a05fcf1b65ca9a4b096a85a2e4e40e6ac69991604051908152a380f35b90506020813d602011611c74575b81611c64602093836142e9565b8101031261064d57516020611c1a565b3d9150611c57565b90506020813d602011611ca6575b81611c97602093836142e9565b8101031261064d57515f611bdd565b3d9150611c8a565b508190611be0565b803b156106b05781809160246040518094819363369eca8f60e21b83528860048401525af180156105fe5715611ba35781611cf0916142e9565b6106b057815f611ba3565b81611d05916142e9565b6106b057815f611b90565b50346106b25760203660031901126106b257611d2a614270565b611d32615b06565b6001600160a01b0316611d46811515614e13565b808252600660205260408220805460ff191660011790555f516020615d495f395f51905f528280a280f35b50346106b25760403660031901126106b257611d8b614270565b50602061098a602435615056565b50346106b25760203660031901126106b257611db3614270565b611dbb615b06565b600280546001600160a01b039283166001600160a01b0319821681179092559091167faae9beddccf584528e87b66c6ff2563825c8a1433305b8a656e9b5f9bf3904998380a380f35b50346106b257806003193601126106b2575f516020615cc95f395f51905f52546040516001600160a01b039091168152602090f35b5080611e443661452e565b919060018060a01b036002541690611e5d821515614fa7565b6001546001600160a01b03168015611f5b5760206024916040519283809263e0eead9d60e01b82523360048301525afa90811561086f578491611f26575b50935b611ea9851515614fe4565b823b1561060957604051633f8190a360e21b8152928492849283918291611ed5918a336004860161501c565b039134905af180156105fe57611f11575b5050604051906001825260208201528160408201525f516020615ea95f395f51905f5260603392a280f35b81611f1b916142e9565b6106b057815f611ee6565b9350506020833d602011611f53575b81611f42602093836142e9565b8101031261064d578492515f611e9b565b3d9150611f35565b508293611e9e565b5080611f6e3661452e565b919060018060a01b036002541690611f87821515614fa7565b6001546001600160a01b03168015612085576020602491604051928380926378359b2960e01b82523360048301525afa90811561086f578491612050575b50935b611fd3851515614fe4565b823b156106095760405163708166e160e01b8152928492849283918291611fff918a336004860161501c565b039134905af180156105fe5761203b575b5050604051906002825260208201528160408201525f516020615ea95f395f51905f5260603392a280f35b81612045916142e9565b6106b057815f612010565b9350506020833d60201161207d575b8161206c602093836142e9565b8101031261064d578492515f611fc5565b3d915061205f565b508293611fc8565b50346106b25760203660031901126106b257600435816001600160401b0382116106b2576120c261214892369060040161435d565b816101606040516120d2816142b2565b6060815282602082015260606040820152606080820152826080820152606060a0820152606060c0820152606060e0820152826101008201528261012082015282610140820152015260018060a01b0382541660405180809581946377e3240760e01b8352602060048401526024830190614480565b03915afa80156105fe576101a09183916123a5575b50805160208201516040830151606084015160808501519094926001600160a01b03169060ff9061218d816144a4565b612196816144a4565b166121a0816144a4565b60a0840151976121b360c0860151615b39565b986121c160e0870151615b39565b93610100870151986101208801519661226c61016060018060a01b036101408c0151169a01519a604051906121f5826142b2565b8152602081019485526040810192835260608101938452608081019761221a816144a4565b885260a0810195865260c081019e8f5260e0810198895261010081019c8d526101208101998a5261014081019a8b5261016081019b8c526040519d8e9160208352519161018060208201520190614480565b92516001600160a01b031660408d0152518b8303601f190160608d01528051808452602091820193919091019190855b818110612386575050518b8203601f190160808d01526122bc9250614480565b92516122c7816144a4565b60a08a01525191601f198982030160c08a0152825190818152602081016020808460051b840101950193915b8383106123595750505050509061231b61232f92889951601f198a83030160e08b01526144c2565b9051878203601f19016101008901526144c2565b935161012086015251610140850152516001600160a01b0316610160840152516101808301520390f35b9091929394602080612377600193601f198682030187528951614480565b970193019301919392906122f3565b84516001600160a01b031684526020948501949093019260010161229c565b6123b991503d8085833e61069681836142e9565b5f61215d565b50346106b257806003193601126106b2576123d8615b06565b5f516020615cc95f395f51905f5280546001600160a01b0319811690915581906001600160a01b03165f516020615dc95f395f51905f528280a380f35b50346106b257806003193601126106b2576008546040516001600160a01b039091168152602090f35b50346106b25760803660031901126106b257612458614270565b6024356001600160401b03811161067d5761247790369060040161435d565b9061248061429c565b60643592338552600660205260ff6040862054168015612665575b6124a490614f77565b84546040516377e3240760e01b815260206004820152936001600160a01b03909116908685806124d76024820187614480565b0381855afa94851561265a57879561263e575b5060208501516001600160a01b039182169588929091169081871480612624575b156125ec5750505060015b156125ae578086913b156106b05781604051809263037da98d60e11b82528183816125468c8b8b60048501614943565b03925af180156105fe57612599575b505060206125837f210dac24c32efa80ef08f803d73e7033bee07555af4a95a00e79a488121b0bd6926149c0565b6040519586526001600160a01b0390931694a480f35b816125a3916142e9565b61100257845f612555565b60405162461bcd60e51b81526020600482015260166024820152754e6f7420617574686f72697a656420746f207261746560501b6044820152606490fd5b61014001516001600160a01b031686149081612611575b501561251657506001612516565b6001600160a01b0386161490505f612603565b506101408101516001600160a01b0387811691161461250b565b6126539195503d8089833e61069681836142e9565b935f6124ea565b6040513d89823e3d90fd5b506002546001600160a01b0316331461249b565b50346106b25760203660031901126106b257604061269d612698614270565b614e51565b82519182526020820152f35b50346106b25760203660031901126106b2576126c3614270565b6126cb615b06565b6001600160a01b03166126df811515614e13565b600780546001600160a01b03191691909117905580f35b50346106b257806003193601126106b257600c546040516001600160a01b039091168152602090f35b50346106b25760e03660031901126106b257612739614270565b612741614286565b6044356001600160401b0381116106095761276090369060040161435d565b906064356001600160401b0381116110025761278090369060040161435d565b906084356001600160401b0381116105fa576127a09036906004016143a5565b60a4356001600160401b038111610679576127bf903690600401614423565b9160c4359363ffffffff85168095036117dc576002546001600160a01b031633148015612d3a575b6127f0906149dc565b87546040516259565560e61b81526020600482018190526001600160a01b0390921696918180612823602482018c614480565b03818a5afa908115612d2f578a91612d10575b50612cd6576128488451865114614c10565b835115612c9a578589963b1561067957868386928b838c6128808c604051988997889687956324f808a560e01b875260048701614cd9565b03925af190811561265a578791612c85575b505085546001600160a01b0316803b15610679576040516206d86360e41b815290879082908183816128c88a8f60048401614deb565b03925af190811561265a578791612c70575b505085546001600160a01b0316803b156106795786604061296d92612923838c61297f85519788968795869463bd015d7960e01b86526101006004870152610104860190614480565b9c6001602486015260018060a01b03169c8d6044860152603c85820360031981016064880152602083525f516020615e095f395f51905f526020840152016084860152018d614c4e565b8281036003190160a48401528d614ca6565b8860c48301528a60e483015203925af190811561265a578791612c5b575b5050604051602081895180838c01835e8101600b815203019020835f5260205260405f209063ffffffff1982541617905560018060a01b03855416803b156105fa5760405163177e220b60e11b8152606060048201529086908290818381612a08606482018e614480565b8960248301526001604483015203925af19081156106a5578691612c46575b505084546001600160a01b0316803b156105fa57856040518092632d6f93f960e21b825260406004830152818381612a638d6044830190614480565b6001602483015203925af19081156106a5578691612c31575b505084546001600160a01b0316803b156105fa57856040518092635839ccbd60e11b825260406004830152818381612ab88d6044830190614480565b6001602483015203925af19081156106a5578691612c1c575b505b8351811015612b5a5785546001600160a01b0316612af1828661496f565b51612afc838861496f565b51823b1561180957612b29928992838c604051968795869485936346cae72f60e11b855260048501614997565b03925af190811561265a578791612b45575b5050600101612ad3565b81612b4f916142e9565b6105fa57855f612b3b565b85612c018885858c5f516020615da95f395f51905f52612b9a612b7c866149c0565b926040519182916020835260018060a01b0316956020830190614480565b0390a3806001612ba9846149c0565b5f516020615d695f395f51905f526060604051602081526020808201525f516020615e095f395f51905f526040820152a46001612be5836149c0565b5f516020615d295f395f51905f526020604051888152a46149c0565b5f516020615ce95f395f51905f52602060405160018152a280f35b81612c26916142e9565b61100257845f612ad1565b81612c3b916142e9565b61100257845f612a7c565b81612c50916142e9565b61100257845f612a27565b81612c65916142e9565b6105fa57855f61299d565b81612c7a916142e9565b6105fa57855f6128da565b81612c8f916142e9565b6105fa57855f612892565b60405162461bcd60e51b81526020600482015260146024820152734d7573742068617665206d696c6573746f6e657360601b6044820152606490fd5b60405162461bcd60e51b81526020600482015260126024820152714a6f6220616c72656164792065786973747360701b6044820152606490fd5b612d29915060203d6020116113985761138981836142e9565b5f612836565b6040513d8c823e3d90fd5b503388526006602052604088205460ff166127e7565b50346106b25760203660031901126106b257602061098a612d6f614270565b614d32565b50346106b257806003193601126106b2577f00000000000000000000000000000000000000000000000000000000000000006001600160a01b03163003612dcc5760206040515f516020615d895f395f51905f528152f35b63703e46dd60e11b8152600490fd5b5060403660031901126106b257612df0614270565b906024356001600160401b0381116106b057366023820112156106b057612e21903690602481600401359101614327565b6001600160a01b037f000000000000000000000000000000000000000000000000000000000000000016308114908115613006575b50612ff7575f516020615cc95f395f51905f52546001600160a01b031633148015612fe3575b15612faf576040516352d1902d60e01b8152926001600160a01b0381169190602085600481865afa80958596612f7b575b50612ec657634c9c8ce360e01b84526004839052602484fd5b9091845f516020615d895f395f51905f528103612f695750813b15612f57575f516020615d895f395f51905f5280546001600160a01b031916821790555f516020615de95f395f51905f528480a28151839015612f3d5780836020612f3995519101845af4612f33615c1b565b91615c4a565b5080f35b50505034612f485780f35b63b398979f60e01b8152600490fd5b634c9c8ce360e01b8452600452602483fd5b632a87526960e21b8552600452602484fd5b9095506020813d602011612fa7575b81612f97602093836142e9565b810103126110025751945f612ead565b3d9150612f8a565b60405162461bcd60e51b815260206004820152600c60248201526b155b985d5d1a1bdc9a5e995960a21b6044820152606490fd5b506002546001600160a01b03163314612e7c565b63703e46dd60e11b8252600482fd5b5f516020615d895f395f51905f52546001600160a01b0316141590505f612e56565b50346106b25760203660031901126106b257613042614270565b61304a615b06565b600a80546001600160a01b039283166001600160a01b0319821681179092559091167f07d9e59518f3d6cbceb6404066ae85fc348e3793c127eb912fb9d55f384233d98380a380f35b50346106b25760a03660031901126106b2576004356001600160401b0381116106b0576130c490369060040161435d565b6130cc614286565b906044356001600160401b038111610609576130ec90369060040161435d565b6064356001600160401b0381116110025761310b9036906004016143a5565b6084356001600160401b0381116105fa5761312a903690600401614423565b9060018060a01b038654166040516259565560e61b81526020600482015260208180613159602482018a614480565b0381855afa908115613265578891613246575b506132145786926131808351825114614c10565b813b156106095783918783886131ae8995604051988997889687956324f808a560e01b875260048701614cd9565b03925af180156105fe576131ff575b50506131e5925f516020615da95f395f51905f526131dd612b7c856149c0565b0390a36149c0565b5f516020615ce95f395f51905f526020604051848152a280f35b81613209916142e9565b61060957835f6131bd565b60405162461bcd60e51b815260206004820152600a6024820152694a6f622065786973747360b01b6044820152606490fd5b61325f915060203d6020116113985761138981836142e9565b5f61316c565b6040513d8a823e3d90fd5b50346106b25760203660031901126106b25761328a614270565b6002546001600160a01b031691906132a3338414614bd6565b6040516020936132b385836142e9565b8382526001600160a01b037f000000000000000000000000000000000000000000000000000000000000000016308114908115613460575b50613451575f516020615cc95f395f51905f52546001600160a01b03163314908115613447575b5015613413576040516352d1902d60e01b81526001600160a01b03831694908181600481895afa8591816133e4575b5061335a57634c9c8ce360e01b85526004869052602485fd5b5f516020615d895f395f51905f528103612f695750823b156133d0575f516020615d895f395f51905f5280546001600160a01b0319168617905592938493905f516020615de95f395f51905f528580a28151156133c6578151612f399492839201845af4612f33615c1b565b505050612f485780f35b634c9c8ce360e01b84526004859052602484fd5b9091508281813d831161340c575b6133fc81836142e9565b810103126105fa5751905f613341565b503d6133f2565b60405162461bcd60e51b815260048101859052600c60248201526b155b985d5d1a1bdc9a5e995960a21b6044820152606490fd5b905033145f613312565b63703e46dd60e11b8452600484fd5b5f516020615d895f395f51905f52546001600160a01b0316141590505f6132eb565b50346106b25760203660031901126106b25760043561349f615b06565b6103e881116134e25760407fdd875544ddd76d96f6d22d7b445e849b486258026a9fb9bd1f3434766b1e920191600e549080600e5582519182526020820152a180f35b60405162461bcd60e51b81526020600482015260076024820152664d61782031302560c81b6044820152606490fd5b50346106b25760603660031901126106b25761352b614270565b6024359061353761437b565b600a549092906001600160a01b03163303613728576001600160a01b0382169263ffffffff9290613569851515614b96565b613574831515614b59565b61357d8361517d565b906135888285614a5f565b94859161359784600d54614a80565b600d5516926003840361362057604093926135da5f516020615e295f395f51905f5296935f516020615e895f395f51905f529360018060a01b03600754166158a8565b60078551666469737075746560c81b815220926135fc88875193849384614b07565b0390a260078251666469737075746560c81b8152209382519182526020820152a380f35b50600954613668916020916001600160a01b031661363f811515614a8d565b60018060a01b0360075416908a60405180968195829463095ea7b360e01b845260048401614aec565b03925af1801561265a5761370b575b5060095486906001600160a01b0316803b156106b05781809160846040518094819363269258dd60e01b83528b60048401528960248401528c60448401526103e860648401525af180156105fe576136f2575b5050905f516020615e295f395f51905f52925f516020615e895f395f51905f526040936135da565b816136ff919493946142e9565b6105fa5790855f6136ca565b6137239060203d6020116113985761138981836142e9565b613677565b60405162461bcd60e51b815260206004820152600760248201526621417468656e6160c81b6044820152606490fd5b50346106b25760403660031901126106b2576004356001600160401b0381116106b05761378890369060040161435d565b602080613793614286565b92604051928184925191829101835e8101600b8152030190209060018060a01b03165f52602052602063ffffffff60405f205416604051908152f35b50346106b257806003193601126106b2576009546040516001600160a01b039091168152602090f35b50346106b257806003193601126106b2576001546040516001600160a01b039091168152602090f35b50346106b25760203660031901126106b257600c54600435906001600160a01b031661384e338214614b1d565b600d54808311613886576108f59161387284809361386d821515614b59565b614a5f565b600d556007546001600160a01b03166158a8565b60405162461bcd60e51b815260206004820152601760248201527624b739bab33334b1b4b2b73a1031b7b6b6b4b9b9b4b7b760491b6044820152606490fd5b50346106b25760803660031901126106b2576138df614270565b6024356001600160401b03811161067d576138fe90369060040161435d565b6044359060018060a01b036002541633148015613d97575b61391f906149dc565b83546040516377e3240760e01b8152602060048201529390859085906001600160a01b031681806139536024820188614480565b03915afa93841561124e578594613d7b575b5061014084018051909490613984906001600160a01b03161515614a24565b61398d8461517d565b91866139998487614a5f565b80976139a786600d54614a80565b600d55604051602081895180838c01835e600b9082019081520301902081516001600160a01b03165f908152602091909152604090205463ffffffff1660038103613c9157506007549051613a0993506001600160a01b0390811691166158a8565b86546001600160a01b0316803b156117dc57876040518092636167f40760e11b8252818381613a3c8d8c600484016146fb565b03925af1888115613c855788928792613c6b575b5050613a5b92615943565b8554610120919091015160018101916001600160a01b0316908210613c5757908187923b1561067d57604051635839ccbd60e11b81529183918391829084908290613aaa908b600484016146fb565b03925af180156105fe57613c42575b505084546040516377e3240760e01b815260206004820152919086906001600160a01b0316818480613aee6024820189614480565b0381845afa9384156105fe578294613c26575b5061012084019360e085519101515110613b78575b5050905f516020615ca95f395f51905f52935f516020615e895f395f51905f52613b5e93613b43866149c0565b92613b548960405193849384614b07565b0390a251916149c0565b92613b726040519283926064359084614b07565b0390a280f35b803b156106b057816040518092632d6f93f960e21b825260406004830152818381613ba6604482018c614480565b6002602483015203925af180156105fe57613c0d575b5050905f516020615ca95f395f51905f52935f516020615e895f395f51905f52613b5e93613be9866149c0565b5f516020615ce95f395f51905f52602060405160028152a292935087919550613b16565b81613c1a919493946142e9565b6105fa5790855f613bbc565b613c3b9194503d8084833e61069681836142e9565b925f613b01565b81613c4c916142e9565b61100257845f613ab9565b634e487b7160e01b87526011600452602487fd5b819350613c7892506142e9565b610679578584885f613a50565b604051903d90823e3d90fd5b6009549092613cdb91602091906001600160a01b0316613cb2811515614a8d565b60018060a01b0360075416908760405180968195829463095ea7b360e01b845260048401614aec565b03925af1801561086f57613d5e575b5060095490516001600160a01b0390811692911690813b156106095760848a858094604051968795869463269258dd60e01b86526004860152602485015260448401526103e860648401525af180156105fe57613d49575b5050613a09565b81613d53916142e9565b61067957865f613d42565b613d769060203d6020116113985761138981836142e9565b613cea565b613d909194503d8087833e61069681836142e9565b925f613965565b503384526006602052604084205460ff16613916565b50346106b257806003193601126106b2576007546040516001600160a01b039091168152602090f35b503461064d57608036600319011261064d57613df0614270565b506024356001600160401b03811161064d57613e1090369060040161435d565b90604435606435928315159182850361064d5760018060a01b035f54169460405193632e68140160e11b85525f8580613e4d8688600484016146fb565b03818a5afa948515614159575f9561417e575b506040516377e3240760e01b8152602060048201525f8180613e856024820189614480565b03818b5afa908115614159575f91614164575b506040860180516001600160a01b031698909390803b1561064d57855f91613ed99b838a6040519e8f958694859363177e220b60e11b855260048501614943565b03925af180156141595761413f575b87549798509596949588956001600160a01b0316803b156106795760408051632d6f93f960e21b815260048101919091529087908290818381613f2e604482018f614480565b6001602483015203925af190811561265a57879161412a575b505085546001600160a01b0316803b156106795760408051635839ccbd60e11b815260048101919091529087908290818381613f86604482018f614480565b6001602483015203925af190811561265a578791614115575b5050156140785750835b60808701805190815183101561403c576020613fdc84613fd38160018060a01b038c54169661496f565b5151935161496f565b510151823b156117dc5761400b928892838b604051968795869485936346cae72f60e11b855260048501614997565b03925af19081156106a5578691614027575b5050600101613fa9565b81614031916142e9565b61100257845f61401d565b5050509250612c0194505b516001600160a01b0316915f516020615d295f395f51905f52602061406b866149c0565b92604051908152a46149c0565b9550835b60c0870180519081518310156141065760206140a684613fd38160018060a01b038c54169661496f565b510151823b156117dc576140d5928892838b604051968795869485936346cae72f60e11b855260048501614997565b03925af19081156106a55786916140f1575b505060010161407c565b816140fb916142e9565b61100257845f6140e7565b5050509250612c019450614047565b8161411f916142e9565b6105fa57855f613f9f565b81614134916142e9565b6105fa57855f613f47565b94959650965f61414e916142e9565b5f9594938790613ee8565b6040513d5f823e3d90fd5b61417891503d805f833e61069681836142e9565b5f613e98565b9094503d805f833e61419081836142e9565b81019060208183031261064d578051906001600160401b03821161064d570160a08183031261064d576040519160a083016001600160401b0381118482101761425c576040528151835260208201516001600160401b03811161064d57816141f99184016145e8565b602084015261420a6040830161462e565b604084015260608201516001600160401b03811161064d578161422e9184016145e8565b606084015260808201516001600160401b03811161064d576142509201614642565b6080820152935f613e60565b634e487b7160e01b5f52604160045260245ffd5b600435906001600160a01b038216820361064d57565b602435906001600160a01b038216820361064d57565b604435906001600160a01b038216820361064d57565b61018081019081106001600160401b0382111761425c57604052565b604081019081106001600160401b0382111761425c57604052565b601f909101601f19168101906001600160401b0382119082101761425c57604052565b6001600160401b03811161425c57601f01601f191660200190565b9291926143338261430c565b9161434160405193846142e9565b82948184528183011161064d578281602093845f960137010152565b9080601f8301121561064d5781602061437893359101614327565b90565b6044359063ffffffff8216820361064d57565b6001600160401b03811161425c5760051b60200190565b9080601f8301121561064d5781356143bc8161438e565b926143ca60405194856142e9565b81845260208085019260051b8201019183831161064d5760208201905b8382106143f657505050505090565b81356001600160401b03811161064d576020916144188784809488010161435d565b8152019101906143e7565b9080601f8301121561064d57813561443a8161438e565b9261444860405194856142e9565b81845260208085019260051b82010192831161064d57602001905b8282106144705750505090565b8135815260209182019101614463565b805180835260209291819084018484015e5f828201840152601f01601f1916010190565b600411156144ae57565b634e487b7160e01b5f52602160045260245ffd5b9080602083519182815201916020808360051b8301019401925f915b8383106144ed57505050505090565b9091929394602080600192601f1985820301865288519082806145198451604085526040850190614480565b930151910152970193019301919392906144de565b90602060031983011261064d576004356001600160401b03811161064d578260238201121561064d576004810135926001600160401b03841161064d576024848301011161064d576024019190565b9060a060031983011261064d576004356001600160a01b038116810361064d5791602435906001600160401b03821161064d576145bc9160040161435d565b906044359060643563ffffffff8116810361064d57906084356001600160a01b038116810361064d5790565b81601f8201121561064d578051906145ff8261430c565b9261460d60405194856142e9565b8284526020838301011161064d57815f9260208093018386015e8301015290565b51906001600160a01b038216820361064d57565b81601f8201121561064d578051906146598261438e565b9261466760405194856142e9565b82845260208085019360051b8301019181831161064d5760208101935b83851061469357505050505090565b84516001600160401b03811161064d5782016040818503601f19011261064d57604051916146c0836142ce565b6020820151926001600160401b03841161064d576040836146e88860208098819801016145e8565b8352015183820152815201940193614684565b929190614712602091604086526040860190614480565b930152565b60208183031261064d578051906001600160401b03821161064d5701906101808282031261064d576040519161474c836142b2565b80516001600160401b03811161064d57826147689183016145e8565b83526147766020820161462e565b602084015260408101516001600160401b03811161064d57810182601f8201121561064d578051906147a78261438e565b916147b560405193846142e9565b80835260208084019160051b8301019185831161064d57602001905b82821061492b57505050604084015260608101516001600160401b03811161064d57826147ff9183016145e8565b60608401526080810151600481101561064d57608084015260a08101516001600160401b03811161064d57810182601f8201121561064d5780516148428161438e565b9161485060405193846142e9565b81835260208084019260051b8201019185831161064d5760208201905b8382106148fe575050505060a084015260c08101516001600160401b03811161064d578261489c918301614642565b60c084015260e08101516001600160401b03811161064d57610160926148c3918301614642565b60e08401526101008101516101008401526101208101516101208401526148ed610140820161462e565b610140840152015161016082015290565b81516001600160401b03811161064d57602091614920898480948801016145e8565b81520191019061486d565b602080916149388461462e565b8152019101906147d1565b61495b60409295949395606083526060830190614480565b6001600160a01b0390951660208201520152565b80518210156149835760209160051b010190565b634e487b7160e01b5f52603260045260245ffd5b939291614712906149b2604093606088526060880190614480565b908682036020880152614480565b602090604051918183925191829101835e81015f815203902090565b156149e357565b60405162461bcd60e51b815260206004820152601960248201527813db9b1e48189c9a5919d9481bdc88185d5d1a1bdc9a5e9959603a1b6044820152606490fd5b15614a2b57565b60405162461bcd60e51b815260206004820152600c60248201526b139bc8185c1c1b1a58d85b9d60a21b6044820152606490fd5b91908203918211614a6c57565b634e487b7160e01b5f52601160045260245ffd5b91908201809211614a6c57565b15614a9457565b60405162461bcd60e51b815260206004820152601860248201527710d0d51408151c985b9cd8d95a5d995c881b9bdd081cd95d60421b6044820152606490fd5b9081602091031261064d5751801515810361064d5790565b6001600160a01b039091168152602081019190915260400190565b6040919493926060820195825260208201520152565b15614b2457565b60405162461bcd60e51b815260206004820152600d60248201526c4f6e6c7920747265617375727960981b6044820152606490fd5b15614b6057565b60405162461bcd60e51b815260206004820152600e60248201526d125b9d985b1a5908185b5bdd5b9d60921b6044820152606490fd5b15614b9d57565b60405162461bcd60e51b8152602060048201526011602482015270125b9d985b1a59081c9958da5c1a595b9d607a1b6044820152606490fd5b15614bdd57565b60405162461bcd60e51b815260206004820152600b60248201526a4f6e6c792062726964676560a81b6044820152606490fd5b15614c1757565b60405162461bcd60e51b815260206004820152600f60248201526e098cadccee8d040dad2e6dac2e8c6d608b1b6044820152606490fd5b9080602083519182815201916020808360051b8301019401925f915b838310614c7957505050505090565b9091929394602080614c97600193601f198682030187528951614480565b97019301930191939290614c6a565b90602080835192838152019201905f5b818110614cc35750505090565b8251845260209384019390920191600101614cb6565b9390614d24926143789694614cf9614d169360a0895260a0890190614480565b6001600160a01b0390921660208801528682036040880152614480565b908482036060860152614c4e565b916080818403910152614ca6565b6001546001600160a01b031680614db157505f54604051635843905f60e01b81526001600160a01b0392831660048201529160209183916024918391165afa908115614159575f91614d82575090565b90506020813d602011614da9575b81614d9d602093836142e9565b8101031261064d575190565b3d9150614d90565b6040516378359b2960e01b81526001600160a01b039092166004830152602090829060249082905afa908115614159575f91614d82575090565b90614e03602091949394604084526040840190614480565b6001600160a01b03909416910152565b15614e1a57565b60405162461bcd60e51b815260206004820152600f60248201526e496e76616c6964206164647265737360881b6044820152606490fd5b6001549091906001600160a01b03168015614eff576040516378359b2960e01b81526001600160a01b039093166004840181905292602081602481855afa8015614159575f90614ecc575b60209150936024604051809481936323312a8360e01b835260048301525afa908115614159575f91614d82575090565b506020813d602011614ef7575b81614ee6602093836142e9565b8101031261064d5760209051614e9c565b3d9150614ed9565b505f5460408051630695173160e41b81526001600160a01b03948516600482015293909184916024918391165afa918215614159575f905f93614f4157509190565b9250506040823d604011614f6f575b81614f5d604093836142e9565b8101031261064d576020825192015190565b3d9150614f50565b15614f7e57565b60405162461bcd60e51b81526020600482015260016024820152602160f81b6044820152606490fd5b15614fae57565b60405162461bcd60e51b815260206004820152600e60248201526d109c9a5919d9481b9bdd081cd95d60921b6044820152606490fd5b15614feb57565b60405162461bcd60e51b81526020600482015260096024820152684e6f20746f6b656e7360b81b6044820152606490fd5b9284926080959260018060a01b03168552602085015260606040850152816060850152848401375f828201840152601f01601f1916010190565b6001546001600160a01b0316908161506e5750505f90565b5f546040516306d1ab4b60e01b81529190602090839060049082906001600160a01b03165afa918215614159575f926150e2575b509060446150b260209383614a80565b916040519485938492630ba69e4160e41b8452600484015260248301525afa908115614159575f91614d82575090565b91506020823d60201161510f575b816150fd602093836142e9565b8101031261064d5790519060446150a2565b3d91506150f0565b91908110156149835760051b0190565b356001600160a01b038116810361064d5790565b1561514257565b60405162461bcd60e51b81526020600482015260136024820152724a6f62206e6f7420696e2070726f677265737360681b6044820152606490fd5b600e5490818102918183041490151715614a6c576127109004600f548082115f146151a6575090565b905090565b60095493946001600160a01b0390941693919290915f91908515615650576001600160a01b0316956151de871515614b96565b6151e9821515614b59565b5f80546040516377e3240760e01b81526020600482015294919085906001600160a01b0316818061521d602482018c614480565b03915afa938415614159575f94615634575b5061014084015161524a906001600160a01b03161515614a24565b61525d60016080860151611509816144a4565b61012084019384518015159081615624575b50156155eb5784515f19810191908211614a6c5761529460e06020920192835161496f565b51015184036155a8576152a68461517d565b926152f060206152b68688614a5f565b809b6152c488600d54614a80565b600d5560018060a01b0360075416905f60405180968195829463095ea7b360e01b845260048401614aec565b03925af180156141595761558b575b506009546001600160a01b0316803b1561064d5763ffffffff9160848b5f80948f604051978896879563269258dd60e01b8752600487015216602485015260448401526103e860648401525af1801561415957615576575b50615363888888615943565b81546001600160a01b0316803b1561067d57604051636167f40760e11b815290839082908183816153988f8f600484016146fb565b03925af1801561191c57908391615561575b50508154855160018101916001600160a01b031690821061554d57803b15610609576153f09184918a83604051809681958294635839ccbd60e11b8452600484016146fb565b03925af1801561191c57908391615538575b5050845190600182018092116107e15751511061547d575b506040925f516020615e495f395f51905f5294925f516020615e895f395f51905f5261546393615449896149c0565b926154598b895193849384614b07565b0390a251946149c0565b825195865260208601949094526001600160a01b031693a4565b80546001600160a01b0316803b156106b057816040518092632d6f93f960e21b8252604060048301528183816154b78d6044830190614480565b6002602483015203925af180156105fe57615523575b50925f516020615e495f395f51905f5294925f516020615e895f395f51905f52615463936040965f516020615ce95f395f51905f52602061550d8c6149c0565b928a51905060028152a29350509294509261541a565b61552e8280926142e9565b6106b2575f6154cd565b81615542916142e9565b6106b057815f615402565b634e487b7160e01b84526011600452602484fd5b8161556b916142e9565b6106b057815f6153aa565b6155839192505f906142e9565b5f905f615357565b6155a39060203d6020116113985761138981836142e9565b6152ff565b60405162461bcd60e51b815260206004820152601b60248201527a416d6f756e74206d757374206d61746368206d696c6573746f6e6560281b6044820152606490fd5b60405162461bcd60e51b8152602060048201526011602482015270496e76616c6964206d696c6573746f6e6560781b6044820152606490fd5b905060e08201515110155f61526f565b6156499194503d805f833e61069681836142e9565b925f61522f565b60405162461bcd60e51b8152602060048201526013602482015272151c985b9cd8d95a5d995c881b9bdd081cd95d606a1b6044820152606490fd5b335f5260066020526156a360ff60405f205416614f77565b6001600160a01b03165f8181526005602052604090205460ff16615741575f818152600560205260409020805460ff19166001179055600354600160401b81101561425c5760018101806003558110156149835760035f527fc2575a0e9e593c00f959f8c92f12db2869c3395a3b0502d05e2516446f71f85b0180546001600160a01b03191690911790556004545f198114614a6c57600101600455565b50565b6001546001600160a01b03168061579b57505f5460405163e848635560e01b81529260209284926001600160a01b031691839182916157869160048401614aec565b03915afa908115614159575f91614d82575090565b60405163e848635560e01b815292602092849291839182916157869160048401614aec565b6001546001600160a01b03168061581057505f5460405163f14db78360e01b81526001600160a01b0392831660048201529160209183916024918391165afa908115614159575f91614d82575090565b6040516323312a8360e01b81526001600160a01b039092166004830152602090829060249082905afa908115614159575f91614d82575090565b6001600160a01b03168015615895575f516020615cc95f395f51905f5280546001600160a01b0319811683179091556001600160a01b03165f516020615dc95f395f51905f525f80a3565b631e4fbdf760e01b5f525f60045260245ffd5b5f6159009281926158e26158d496604051978891602083019563a9059cbb60e01b875260248401614aec565b03601f1981018852876142e9565b60018060a01b031694519082865af16158f9615c1b565b9083615c4a565b8051908115159182615928575b50506159165750565b635274afe760e01b5f5260045260245ffd5b61593b9250602080918301019101614ad4565b155f8061590d565b6001549091906001600160a01b03168015615b00576159895f60018060a01b0381541693604051809381926377e3240760e01b8352602060048401526024830190614480565b0381865afa908115614159576004916020915f91615ae6575b5061014001516040516306d1ab4b60e01b81526001600160a01b03909116949092839182905afa80156141595785915f91615aae575b506084926159e95f96938793614a80565b604051978896879563ba293e0760e01b875260018060a01b031660048701526024860152604485015260648401525af1801561415957615a265750565b3d805f833e615a3581836142e9565b81019060208183031261064d578051906001600160401b03821161064d570181601f8201121561064d57805190602080615a6e8461438e565b615a7b60405191826142e9565b848152019260051b82010192831161064d57602001905b828210615a9e57505050565b8151815260209182019101615a92565b949150506020843d602011615ade575b81615acb602093836142e9565b8101031261064d579251849060846159d8565b3d9150615abe565b615afa91503d805f833e61069681836142e9565b5f6159a2565b50505050565b5f516020615cc95f395f51905f52546001600160a01b03163303615b2657565b63118cdaa760e01b5f523360045260245ffd5b805190615b458261438e565b91615b5360405193846142e9565b808352615b62601f199161438e565b015f5b818110615bcc5750505f5b8151811015615bc75780615b866001928461496f565b51516020615b94838661496f565b51015160405191615ba4836142ce565b82526020820152615bb5828661496f565b52615bc0818561496f565b5001615b70565b505090565b602090604051615bdb816142ce565b606081525f8382015282828701015201615b65565b60ff5f516020615e695f395f51905f525460401c1615615c0c57565b631afcd79f60e31b5f5260045ffd5b3d15615c45573d90615c2c8261430c565b91615c3a60405193846142e9565b82523d5f602084013e565b606090565b90615c6e5750805115615c5f57805190602001fd5b630a12f52160e11b5f5260045ffd5b81511580615c9f575b615c7f575090565b639996b31560e01b5f9081526001600160a01b0391909116600452602490fd5b50803b15615c7756fe881f9575e6bc96f2ebd076de5584e663c5e7489d82f21f00777994a223cfb0619016d09d72d40fdae2fd8ceac6b6234c7706214fd39c1cd1e609a0528c19930090048e2f7021decb3bccdc9c96fb747f7c82ca94b921ff7c7cc130daa897a6dda939d97e93c6e94641c360ee489fc68625303001132de2255a364b26627e1590beb163b9824b55e200a056e0082832866e8d8f931ba431b29b8919466a05faa5351e40fe333cede9dd79a1ef4d16228b1702f272eb2c2166ec3c7ee6a9d4ce2c264fe7e90ee05d618ec81396b56ead08e622a37d2696239d6029610e48c3a86e360894a13ba1a3210667c828492db98dca3e2076cc3735a920a3ca505d382bbcc7649f14606d56993fd676bf6b21baf658647cc2921deec0cde7a0f2f8031c8d8be0079c531659141344cd1fd0a4f28419497f9722a3daafe3b4186f6b6457e0bc7cd75a20ee27fd9adebab32041f755214dbc6bffa90cc0225b39da2e5c2d3b6469726563742d636f6e74726163742d6175746f2d6170706c69636174696f6e68f68b90ee152498d69c44929da4e330c22f2a9cce2356deb44d690362f3d0b9a71f1661a883ae6cc97d4b6c49515c53bc3ad70681a1cdf669785aca9356ee27f0c57e16840df040f15088dc2f81fe391c3923bec73e23a9662efc9c229c6a00799bd8ebd9dd237a3fdfa8abd96d3f80ad584603a8e4a943e7cfc01dbd7fead9377a25b6705fa575725f64a9e9cee303a5037feaf4bc831a8595345c24ae0769a26469706673582212201d9fa404ecffaece1d43c7af28dccbf2e75f23f9295a4554440b622bfd4b847864736f6c63430008210033f0c57e16840df040f15088dc2f81fe391c3923bec73e23a9662efc9c229c6a00","linkReferences":{}},"methodIdentifiers":{"UPGRADE_INTERFACE_VERSION()":"ad3cb1cc","accumulatedCommission()":"ae693673","addAuthorizedContract(address)":"98eaa4a7","applyToJob(address,string,string,string[],uint256[],uint32)":"fc5dee81","authorizedContracts(address)":"d5b9221b","batchAddAuthorizedContracts(address[])":"9abcbbe8","bridge()":"e78cea92","calculateCommission(uint256)":"ce9b4321","calculateTokensForAmount(address,uint256)":"94928b84","cctpReceiver()":"6c2db78f","cctpTransceiver()":"23dc878c","commissionPercentage()":"d575fe64","createProfile(address,string,address)":"d888cc27","genesis()":"a7f0b3de","getJob(string)":"77e32407","getUserEarnedTokens(address)":"5843905f","getUserGovernanceActions(address)":"f14db783","getUserGovernanceActionsInBand(address,uint256)":"e8486355","getUserRewardInfo(address)":"69517310","handleReleasePaymentCrossChain(address,string,uint256,uint32,address)":"e4e2a856","handleStartDirectContract(address,address,string,string,string[],uint256[],uint32)":"6009b51f","handleUpdateUserClaimData(address,uint256)":"b9acee1d","hasNowjcProfile(address)":"c1c3cf2c","incrementGovernanceAction(address)":"99f426be","initialize(address,address,address,address,address,address)":"cc2a9a5b","isAuthorizedContract(address)":"66d0ead3","jobApplicantChainDomain(string,address)":"29f8d96d","lockNextMilestone(address,string,uint256)":"f4f5d3c7","minCommission()":"eca688ea","nativeAthena()":"dc209f13","owner()":"8da5cb5b","postJob(string,address,string,string[],uint256[])":"42b0f652","proxiableUUID()":"52d1902d","rate(address,string,address,uint256)":"6a23a98a","releaseDisputedFunds(address,uint256,uint32)":"301f8257","releasePayment(string)":"a6b16096","releasePaymentAndLockNext(address,string,uint256,uint256)":"1277bbf8","releasePaymentCrossChain(address,string,uint256,uint32,address)":"d819aea4","removeAuthorizedContract(address)":"e6b165ed","renounceOwnership()":"715018a6","rewardsContract()":"220cce97","setApplicantChainDomain(string,address,uint32)":"c088797b","setBridge(address)":"8dd14802","setCCTPReceiver(address)":"d6e3c76a","setCCTPTransceiver(address)":"e4a9d8ee","setCommissionPercentage(uint256)":"39b87c8f","setGenesis(address)":"eb14b353","setMinCommission(uint256)":"de8fd3af","setNativeAthena(address)":"4efac43f","setRewardsContract(address)":"dfa0dfa5","setTreasury(address)":"f0f44260","setUSDTToken(address)":"66e226bd","startJob(address,string,uint256,bool)":"09d6667e","submitWork(address,string,string)":"ba245963","syncRewardsData(bytes)":"87e821d6","syncVotingPower(bytes)":"859705a8","transferOwnership(address)":"f2fde38b","treasury()":"61d027b3","upgradeFromDAO(address)":"40634e3b","upgradeToAndCall(address,bytes)":"4f1ef286","usdcToken()":"11eac855","withdrawAllCommission()":"f27bf0bf","withdrawCommission(uint256)":"17face84"},"id":12}