{"abi":[{"type":"constructor","inputs":[],"stateMutability":"nonpayable"},{"type":"function","name":"UPGRADE_INTERFACE_VERSION","inputs":[],"outputs":[{"name":"","type":"string","internalType":"string"}],"stateMutability":"view"},{"type":"function","name":"addPortfolio","inputs":[{"name":"_user","type":"address","internalType":"address"},{"name":"_portfolioHash","type":"string","internalType":"string"}],"outputs":[],"stateMutability":"nonpayable"},{"type":"function","name":"bridge","inputs":[],"outputs":[{"name":"","type":"address","internalType":"address"}],"stateMutability":"view"},{"type":"function","name":"createProfile","inputs":[{"name":"_user","type":"address","internalType":"address"},{"name":"_ipfsHash","type":"string","internalType":"string"},{"name":"_referrerAddress","type":"address","internalType":"address"}],"outputs":[],"stateMutability":"nonpayable"},{"type":"function","name":"genesis","inputs":[],"outputs":[{"name":"","type":"address","internalType":"contract IOpenworkGenesis"}],"stateMutability":"view"},{"type":"function","name":"getAllProfileUsers","inputs":[],"outputs":[{"name":"","type":"address[]","internalType":"address[]"}],"stateMutability":"view"},{"type":"function","name":"getProfile","inputs":[{"name":"_user","type":"address","internalType":"address"}],"outputs":[{"name":"userAddress","type":"address","internalType":"address"},{"name":"ipfsHash","type":"string","internalType":"string"},{"name":"referrerAddress","type":"address","internalType":"address"},{"name":"portfolioHashes","type":"string[]","internalType":"string[]"}],"stateMutability":"view"},{"type":"function","name":"getProfileByIndex","inputs":[{"name":"_index","type":"uint256","internalType":"uint256"}],"outputs":[{"name":"userAddress","type":"address","internalType":"address"},{"name":"ipfsHash","type":"string","internalType":"string"},{"name":"referrerAddress","type":"address","internalType":"address"},{"name":"portfolioHashes","type":"string[]","internalType":"string[]"}],"stateMutability":"view"},{"type":"function","name":"getProfileCount","inputs":[],"outputs":[{"name":"","type":"uint256","internalType":"uint256"}],"stateMutability":"view"},{"type":"function","name":"getUserRating","inputs":[{"name":"_user","type":"address","internalType":"address"}],"outputs":[{"name":"","type":"uint256","internalType":"uint256"}],"stateMutability":"view"},{"type":"function","name":"getUserRatings","inputs":[{"name":"_user","type":"address","internalType":"address"}],"outputs":[{"name":"","type":"uint256[]","internalType":"uint256[]"}],"stateMutability":"view"},{"type":"function","name":"hasProfile","inputs":[{"name":"_user","type":"address","internalType":"address"}],"outputs":[{"name":"","type":"bool","internalType":"bool"}],"stateMutability":"view"},{"type":"function","name":"initialize","inputs":[{"name":"_owner","type":"address","internalType":"address"},{"name":"_bridge","type":"address","internalType":"address"},{"name":"_genesis","type":"address","internalType":"address"}],"outputs":[],"stateMutability":"nonpayable"},{"type":"function","name":"owner","inputs":[],"outputs":[{"name":"","type":"address","internalType":"address"}],"stateMutability":"view"},{"type":"function","name":"proxiableUUID","inputs":[],"outputs":[{"name":"","type":"bytes32","internalType":"bytes32"}],"stateMutability":"view"},{"type":"function","name":"rate","inputs":[{"name":"_rater","type":"address","internalType":"address"},{"name":"_jobId","type":"string","internalType":"string"},{"name":"_userToRate","type":"address","internalType":"address"},{"name":"_rating","type":"uint256","internalType":"uint256"}],"outputs":[],"stateMutability":"nonpayable"},{"type":"function","name":"removePortfolioItem","inputs":[{"name":"_user","type":"address","internalType":"address"},{"name":"_index","type":"uint256","internalType":"uint256"}],"outputs":[],"stateMutability":"nonpayable"},{"type":"function","name":"renounceOwnership","inputs":[],"outputs":[],"stateMutability":"nonpayable"},{"type":"function","name":"setBridge","inputs":[{"name":"_bridge","type":"address","internalType":"address"}],"outputs":[],"stateMutability":"nonpayable"},{"type":"function","name":"setGenesis","inputs":[{"name":"_genesis","type":"address","internalType":"address"}],"outputs":[],"stateMutability":"nonpayable"},{"type":"function","name":"transferOwnership","inputs":[{"name":"newOwner","type":"address","internalType":"address"}],"outputs":[],"stateMutability":"nonpayable"},{"type":"function","name":"updatePortfolioItem","inputs":[{"name":"_user","type":"address","internalType":"address"},{"name":"_index","type":"uint256","internalType":"uint256"},{"name":"_newPortfolioHash","type":"string","internalType":"string"}],"outputs":[],"stateMutability":"nonpayable"},{"type":"function","name":"updateProfile","inputs":[{"name":"_user","type":"address","internalType":"address"},{"name":"_newIpfsHash","type":"string","internalType":"string"}],"outputs":[],"stateMutability":"nonpayable"},{"type":"function","name":"upgradeFromDAO","inputs":[{"name":"newImplementation","type":"address","internalType":"address"}],"outputs":[],"stateMutability":"nonpayable"},{"type":"function","name":"upgradeToAndCall","inputs":[{"name":"newImplementation","type":"address","internalType":"address"},{"name":"data","type":"bytes","internalType":"bytes"}],"outputs":[],"stateMutability":"payable"},{"type":"event","name":"BridgeUpdated","inputs":[{"name":"oldBridge","type":"address","indexed":true,"internalType":"address"},{"name":"newBridge","type":"address","indexed":true,"internalType":"address"}],"anonymous":false},{"type":"event","name":"GenesisUpdated","inputs":[{"name":"oldGenesis","type":"address","indexed":true,"internalType":"address"},{"name":"newGenesis","type":"address","indexed":true,"internalType":"address"}],"anonymous":false},{"type":"event","name":"Initialized","inputs":[{"name":"version","type":"uint64","indexed":false,"internalType":"uint64"}],"anonymous":false},{"type":"event","name":"OwnershipTransferred","inputs":[{"name":"previousOwner","type":"address","indexed":true,"internalType":"address"},{"name":"newOwner","type":"address","indexed":true,"internalType":"address"}],"anonymous":false},{"type":"event","name":"PortfolioAdded","inputs":[{"name":"user","type":"address","indexed":true,"internalType":"address"},{"name":"portfolioHash","type":"string","indexed":false,"internalType":"string"}],"anonymous":false},{"type":"event","name":"PortfolioItemRemoved","inputs":[{"name":"user","type":"address","indexed":true,"internalType":"address"},{"name":"index","type":"uint256","indexed":false,"internalType":"uint256"}],"anonymous":false},{"type":"event","name":"PortfolioItemUpdated","inputs":[{"name":"user","type":"address","indexed":true,"internalType":"address"},{"name":"index","type":"uint256","indexed":false,"internalType":"uint256"},{"name":"newPortfolioHash","type":"string","indexed":false,"internalType":"string"}],"anonymous":false},{"type":"event","name":"ProfileCreated","inputs":[{"name":"user","type":"address","indexed":true,"internalType":"address"},{"name":"ipfsHash","type":"string","indexed":false,"internalType":"string"},{"name":"referrer","type":"address","indexed":true,"internalType":"address"}],"anonymous":false},{"type":"event","name":"ProfileUpdated","inputs":[{"name":"user","type":"address","indexed":true,"internalType":"address"},{"name":"newIpfsHash","type":"string","indexed":false,"internalType":"string"}],"anonymous":false},{"type":"event","name":"Upgraded","inputs":[{"name":"implementation","type":"address","indexed":true,"internalType":"address"}],"anonymous":false},{"type":"event","name":"UserRated","inputs":[{"name":"jobId","type":"string","indexed":true,"internalType":"string"},{"name":"rater","type":"address","indexed":true,"internalType":"address"},{"name":"rated","type":"address","indexed":true,"internalType":"address"},{"name":"rating","type":"uint256","indexed":false,"internalType":"uint256"}],"anonymous":false},{"type":"error","name":"AddressEmptyCode","inputs":[{"name":"target","type":"address","internalType":"address"}]},{"type":"error","name":"ERC1967InvalidImplementation","inputs":[{"name":"implementation","type":"address","internalType":"address"}]},{"type":"error","name":"ERC1967NonPayable","inputs":[]},{"type":"error","name":"FailedInnerCall","inputs":[]},{"type":"error","name":"InvalidInitialization","inputs":[]},{"type":"error","name":"NotInitializing","inputs":[]},{"type":"error","name":"OwnableInvalidOwner","inputs":[{"name":"owner","type":"address","internalType":"address"}]},{"type":"error","name":"OwnableUnauthorizedAccount","inputs":[{"name":"account","type":"address","internalType":"address"}]},{"type":"error","name":"UUPSUnauthorizedCallContext","inputs":[]},{"type":"error","name":"UUPSUnsupportedProxiableUUID","inputs":[{"name":"slot","type":"bytes32","internalType":"bytes32"}]}],"bytecode":{"object":"0x60a080604052346100c957306080525f5160206122685f395f51905f525460ff8160401c166100ba576002600160401b03196001600160401b03821601610067575b60405161219a90816100ce82396080518181816110b90152818161115d01526113fe0152f35b6001600160401b0319166001600160401b039081175f5160206122685f395f51905f525581527fc7f505b2f371ae2175ee4913f4499e1f2633a7b5936321eed1cdaeb6115181d290602090a15f80610041565b63f92ee8a960e01b5f5260045ffd5b5f80fdfe6080806040526004361015610012575f80fd5b5f905f3560e01c9081630f53a470146119715750806326d74479146118765780632c317eb2146117615780633199ac02146116115780633697611a146115f357806340634e3b146113ad578063460168c3146113815780634f1ef2861461110d57806352d1902d146110a65780636a23a98a14610c2a578063715018a614610bd45780637c83b0aa14610a2f5780638da5cb5b146109fa5780638dd148021461098f578063a787c80b14610910578063a7f0b3de146108e9578063ad3cb1cc1461089c578063b0cc4060146107d4578063c0c53b8b14610641578063d888cc27146103fe578063e78cea92146103d5578063eb14b3531461036e578063efe24b8d14610227578063f2fde38b146101fa5763f50336f914610131575f80fd5b346101f75760203660031901126101f75761014a6119ec565b815460405163f50336f960e01b81526001600160a01b03928316600482015291839183916024918391165afa9081156101ec5782916101ca575b5090604051918291602083016020845282518091526020604085019301915b8181106101b1575050500390f35b82518452859450602093840193909201916001016101a3565b6101e691503d8084833e6101de8183611ac8565b810190611e6c565b5f610184565b6040513d84823e3d90fd5b80fd5b50346101f75760203660031901126101f7576102246102176119ec565b61021f612008565b611faa565b80f35b50346101f75760403660031901126101f7576102416119ec565b6024359061025a60018060a01b03600154163314611d70565b6001600160a01b03169061026f821515611daa565b825460405163a787c80b60e01b81526004810184905284916001600160a01b031690602081602481855afa8015610363576102b1918491610334575b50611e05565b803b156103305781809160446040518094819363efe24b8d60e01b83528960048401528860248401525af180156101ec57610317575b505060207f71896b71d4d23246e9605b719083d8266614b1316d706a9fff17e4d4e9857c7a91604051908152a280f35b8161032191611ac8565b61032c57825f6102e7565b8280fd5b5080fd5b610356915060203d60201161035c575b61034e8183611ac8565b810190611ded565b5f6102ab565b503d610344565b6040513d85823e3d90fd5b50346101f75760203660031901126101f7576103886119ec565b610390612008565b81546001600160a01b039182166001600160a01b031982168117845591167f5f1d51aab4bd6e41be6c7feda322db860d93d0058238bf871dfafd43ecc951f98380a380f35b50346101f757806003193601126101f7576001546040516001600160a01b039091168152602090f35b50346101f75760603660031901126101f7576104186119ec565b6024356001600160401b03811161032c57610437903690600401611b50565b61043f611a02565b9161045560018060a01b03600154163314611d70565b6001600160a01b03169061046a821515611daa565b835460405163a787c80b60e01b81526004810184905290602090829060249082906001600160a01b03165afa908115610636578591610617575b506105d957600254600160401b8110156105c5578060016104c89201600255611d44565b8154600391821b85811b6001600160a01b0390911b1990911617909155545f1981146105b157600101600355835484906001600160a01b0316803b1561033057816040518092630c80432360e31b825286600483015260606024830152818381610535606482018a611a18565b6001600160a01b03909b16604482018190529a03925af180156101ec57610598575b50506105927f5874afb0d71e1f97e546fc6b15493e51e5ccbefa591556f8c6a80c8c5151a84f91604051918291602083526020830190611a18565b0390a380f35b816105a291611ac8565b6105ad57835f610557565b8380fd5b634e487b7160e01b85526011600452602485fd5b634e487b7160e01b85526041600452602485fd5b60405162461bcd60e51b815260206004820152601660248201527550726f66696c6520616c72656164792065786973747360501b6044820152606490fd5b610630915060203d60201161035c5761034e8183611ac8565b5f6104a4565b6040513d87823e3d90fd5b50346101f75760603660031901126101f75761065b6119ec565b6024356001600160a01b0381169081900361032c57610678611a02565b5f5160206121455f395f51905f5254604081901c60ff161593919291906001600160401b038116801590816107cc575b60011490816107c2575b1590816107b9575b506107aa576001600160401b031981166001175f5160206121455f395f51905f52556106f8919085610782575b506106f061203b565b61021f61203b565b61070061203b565b600180546001600160a01b03199081169290921790558354166001600160a01b039190911617825561072f5780f35b60ff60401b195f5160206121455f395f51905f5254165f5160206121455f395f51905f52557fc7f505b2f371ae2175ee4913f4499e1f2633a7b5936321eed1cdaeb6115181d2602060405160018152a180f35b6001600160481b0319166001600160401b01175f5160206121455f395f51905f52555f6106e7565b63f92ee8a960e01b8652600486fd5b9050155f6106ba565b303b1591506106b2565b8691506106a8565b50346101f757806003193601126101f75760405160028054808352908352602082019081907f405787fa12a823e0f2b7631cc41b3ba8828b3321ca811111fa75cd3aa3bb5ace90855b81811061087d5750505082610833910383611ac8565b604051928392602084019060208552518091526040840192915b81811061085b575050500390f35b82516001600160a01b031684528594506020938401939092019160010161084d565b82546001600160a01b031684526020909301926001928301920161081d565b50346101f757806003193601126101f757506108e56040516108bf604082611ac8565b60058152640352e302e360dc1b6020820152604051918291602083526020830190611a18565b0390f35b50346101f757806003193601126101f757546040516001600160a01b039091168152602090f35b50346101f75760203660031901126101f75761092a6119ec565b815460405163a787c80b60e01b81526001600160a01b0392831660048201529160209183916024918391165afa9081156101ec5760209291610972575b506040519015158152f35b6109899150823d841161035c5761034e8183611ac8565b5f610967565b50346101f75760203660031901126101f7576109a96119ec565b6109b1612008565b600180546001600160a01b039283166001600160a01b0319821681179092559091167faae9beddccf584528e87b66c6ff2563825c8a1433305b8a656e9b5f9bf3904998380a380f35b50346101f757806003193601126101f7575f5160206120c55f395f51905f52546040516001600160a01b039091168152602090f35b50346101f75760603660031901126101f757610a496119ec565b6024356044356001600160401b0381116105ad57610a6b903690600401611b50565b91610a8160018060a01b03600154163314611d70565b6001600160a01b031691610a96831515611daa565b835460405163a787c80b60e01b8152600481018590526001600160a01b0390911690602081602481855afa8015610bc957610ad79187916103345750611e05565b815115610b84578085913b1561033057816040518092633e41d85560e11b825287600483015286602483015260606044830152818381610b1a606482018a611a18565b03925af180156101ec57610b6f575b50507fc39f56c165e6e8a9ac36c2adf54383775830c65cc8239fb382b4baf459233ab791610b696040519283928352604060208401526040830190611a18565b0390a280f35b81610b7991611ac8565b6105ad57835f610b29565b60405162461bcd60e51b815260206004820152601e60248201527f506f7274666f6c696f20686173682063616e6e6f7420626520656d70747900006044820152606490fd5b6040513d88823e3d90fd5b50346101f757806003193601126101f757610bed612008565b5f5160206120c55f395f51905f5280546001600160a01b0319811690915581906001600160a01b03165f5160206121055f395f51905f528280a380f35b50346101f75760803660031901126101f757610c446119ec565b6024356001600160401b03811161032c57610c63903690600401611b50565b90610c6c611a02565b9160643590610c8660018060a01b03600154163314611d70565b8115158061109b575b156110615784546040516377e3240760e01b815260206004820152936001600160a01b0390911690868580610cc76024820187611a18565b0381855afa948515611056578795610e97575b5084515115610e5d5760208501516001600160a01b039182169588929091169081871480610e43575b15610e0b5750505060015b15610dcd578086913b156103305781604051809263037da98d60e11b825260606004830152818381610d43606482018a611a18565b6001600160a01b03909c1660248201819052604482018b90529b03925af180156101ec57610db4575b50506020807f210dac24c32efa80ef08f803d73e7033bee07555af4a95a00e79a488121b0bd692604051918183925191829101835e810188815203902092604051908152a480f35b81610dbe91611ac8565b610dc957845f610d6c565b8480fd5b60405162461bcd60e51b81526020600482015260166024820152754e6f7420617574686f72697a656420746f207261746560501b6044820152606490fd5b61010001516001600160a01b031686149081610e30575b5015610d0e57506001610d0e565b6001600160a01b0388161490505f610e22565b506101008101516001600160a01b03898116911614610d03565b60405162461bcd60e51b8152602060048201526012602482015271129bd888191bd95cc81b9bdd08195e1a5cdd60721b6044820152606490fd5b9094503d8088833e610ea98183611ac8565b81019060208183031261104e578051906001600160401b0382116110525701906101408282031261104e576040519161014083016001600160401b0381118482101761103a5760405280516001600160401b03811161101a5782610f0e918301611bc1565b8352610f1c60208201611bad565b602084015260408101516001600160401b03811161101a57810182601f8201121561101a57805190610f4d82611c07565b91610f5b6040519384611ac8565b80835260208084019160051b8301019185831161103657602001905b82821061101e57505050604084015260608101516001600160401b03811161101a5782610fa5918301611bc1565b60608401526080810151600481101561101a57608084015260a08101516001600160401b03811161101a5761012092610fdf918301611c1e565b60a084015260c081015160c084015260e081015160e08401526110056101008201611bad565b6101008401520151610120820152935f610cda565b8980fd5b6020809161102b84611bad565b815201910190610f77565b8c80fd5b634e487b7160e01b8a52604160045260248afd5b8780fd5b8880fd5b6040513d89823e3d90fd5b60405162461bcd60e51b8152602060048201526012602482015271526174696e67206d75737420626520312d3560701b6044820152606490fd5b506005821115610c8f565b50346101f757806003193601126101f7577f00000000000000000000000000000000000000000000000000000000000000006001600160a01b031630036110fe5760206040515f5160206120e55f395f51905f528152f35b63703e46dd60e11b8152600490fd5b5060403660031901126101f7576111226119ec565b906024356001600160401b038111610330573660238201121561033057611153903690602481600401359101611b1a565b6001600160a01b037f00000000000000000000000000000000000000000000000000000000000000001630811490811561135f575b50611350575f5160206120c55f395f51905f52546001600160a01b03163314801561133c575b15611308576040516352d1902d60e01b8152926001600160a01b0381169190602085600481865afa809585966112d4575b506111f857634c9c8ce360e01b84526004839052602484fd5b9091845f5160206120e55f395f51905f5281036112c25750813b156112b0575f5160206120e55f395f51905f5280546001600160a01b031916821790555f5160206121255f395f51905f528480a28151839015611296578083602061128a95519101845af43d1561128e573d9161126e83611aff565b9261127c6040519485611ac8565b83523d85602085013e612066565b5080f35b606091612066565b505050346112a15780f35b63b398979f60e01b8152600490fd5b634c9c8ce360e01b8452600452602483fd5b632a87526960e21b8552600452602484fd5b9095506020813d602011611300575b816112f060209383611ac8565b81010312610dc95751945f6111df565b3d91506112e3565b60405162461bcd60e51b815260206004820152600c60248201526b155b985d5d1a1bdc9a5e995960a21b6044820152606490fd5b506001546001600160a01b031633146111ae565b63703e46dd60e11b8252600482fd5b5f5160206120e55f395f51905f52546001600160a01b0316141590505f611188565b50346101f75760203660031901126101f75760206113a56113a06119ec565b611ee5565b604051908152f35b50346101f75760203660031901126101f7576113c76119ec565b6001546001600160a01b031691906113e0338414611d70565b602090604051936113f18386611ac8565b8385526001600160a01b037f0000000000000000000000000000000000000000000000000000000000000000163081149081156115d1575b506115c2575f5160206120c55f395f51905f52546001600160a01b031633149081156115b8575b5015611584576040516352d1902d60e01b81526001600160a01b03821694908381600481895afa859181611551575b5061149857634c9c8ce360e01b85526004869052602485fd5b5f5160206120e55f395f51905f5281036112c25750813b1561153d575f5160206120e55f395f51905f5280546001600160a01b0319168617905592938493905f5160206121255f395f51905f528580a2805115611533579280848461128a96519101845af4903d1561152a573d61150e81611aff565b9061151c6040519283611ac8565b81528581943d92013e612066565b60609250612066565b5050506112a15780f35b634c9c8ce360e01b84526004859052602484fd5b9091508481813d831161157d575b6115698183611ac8565b810103126115795751905f61147f565b8580fd5b503d61155f565b60405162461bcd60e51b815260048101839052600c60248201526b155b985d5d1a1bdc9a5e995960a21b6044820152606490fd5b905033145f611450565b63703e46dd60e11b8452600484fd5b5f5160206120e55f395f51905f52546001600160a01b0316141590505f611429565b50346101f757806003193601126101f7576020600354604051908152f35b50346101f75761162036611b6e565b61163560018060a01b03600154163314611d70565b6001600160a01b0382169161164b831515611daa565b835460405163a787c80b60e01b8152600481018590526001600160a01b039091169190602081602481865afa8015610bc95761168d9187916103345750611e05565b825115611720578185923b1561032c578383916116c1938360405180968195829463ce40998560e01b845260048401611e4a565b03925af180156101ec5761170b575b5050610b697fdd635a4cd84864e37e4479dbfc2ec667acfa473c83c8422a8ac9d9d07599b01c91604051918291602083526020830190611a18565b8161171591611ac8565b61032c57825f6116d0565b60405162461bcd60e51b81526020600482015260196024820152784950465320686173682063616e6e6f7420626520656d70747960381b6044820152606490fd5b50346118725761177036611b6e565b61178560018060a01b03600154163314611d70565b6001600160a01b0382169161179b831515611daa565b5f5460405163a787c80b60e01b8152600481018590526001600160a01b0390911690602081602481855afa8015611867576117dc915f916103345750611e05565b803b1561187257825f916118079383604051809681958294631618bf5960e11b845260048401611e4a565b03925af1801561186757611850575b50610b697fcc18228e480194b6eb176cebd651be35a4eb3236a2461b112a3e89ea1b1c40dd91604051918291602083526020830190611a18565b61185d9193505f90611ac8565b5f91610b69611816565b6040513d5f823e3d90fd5b5f80fd5b34611872576020366003190112611872576004356003548110156119365761189d90611d44565b90545f805460405162f53a4760e41b815260039490941b9290921c6001600160a01b039081166004850152909183916024918391165afa908115611867575f91611914575b508051602082015160408084015160609094015190519384936108e5936001600160a01b039283169290911685611a3c565b61193091503d805f833e6119288183611ac8565b810190611c9c565b816118e2565b60405162461bcd60e51b8152602060048201526013602482015272496e646578206f7574206f6620626f756e647360681b6044820152606490fd5b34611872576020366003190112611872575f8160248161198f6119ec565b845462f53a4760e41b83526001600160a01b039182166004840152165afa908115611867575f9161191457508051602082015160408084015160609094015190519384936108e5936001600160a01b039283169290911685611a3c565b600435906001600160a01b038216820361187257565b604435906001600160a01b038216820361187257565b805180835260209291819084018484015e5f828201840152601f01601f1916010190565b91611a5c9160018060a01b03168352608060208401526080830190611a18565b9160018060a01b031660408201526060818303910152815180825260208201916020808360051b8301019401925f915b838310611a9b57505050505090565b9091929394602080611ab9600193601f198682030187528951611a18565b97019301930191939290611a8c565b601f909101601f19168101906001600160401b03821190821017611aeb57604052565b634e487b7160e01b5f52604160045260245ffd5b6001600160401b038111611aeb57601f01601f191660200190565b929192611b2682611aff565b91611b346040519384611ac8565b829481845281830111611872578281602093845f960137010152565b9080601f8301121561187257816020611b6b93359101611b1a565b90565b906040600319830112611872576004356001600160a01b03811681036118725791602435906001600160401b03821161187257611b6b91600401611b50565b51906001600160a01b038216820361187257565b81601f8201121561187257805190611bd882611aff565b92611be66040519485611ac8565b8284526020838301011161187257815f9260208093018386015e8301015290565b6001600160401b038111611aeb5760051b60200190565b9080601f83011215611872578151611c3581611c07565b92611c436040519485611ac8565b81845260208085019260051b820101918383116118725760208201905b838210611c6f57505050505090565b81516001600160401b03811161187257602091611c9187848094880101611bc1565b815201910190611c60565b602081830312611872578051906001600160401b03821161187257016080818303126118725760405191608083016001600160401b03811184821017611aeb57604052611ce882611bad565b835260208201516001600160401b0381116118725781611d09918401611bc1565b6020840152611d1a60408301611bad565b604084015260608201516001600160401b03811161187257611d3c9201611c1e565b606082015290565b600254811015611d5c5760025f5260205f2001905f90565b634e487b7160e01b5f52603260045260245ffd5b15611d7757565b60405162461bcd60e51b815260206004820152600b60248201526a4f6e6c792062726964676560a81b6044820152606490fd5b15611db157565b60405162461bcd60e51b8152602060048201526014602482015273496e76616c69642075736572206164647265737360601b6044820152606490fd5b90816020910312611872575180151581036118725790565b15611e0c57565b60405162461bcd60e51b8152602060048201526016602482015275141c9bd99a5b1948191bd95cc81b9bdd08195e1a5cdd60521b6044820152606490fd5b6001600160a01b039091168152604060208201819052611b6b92910190611a18565b602081830312611872578051906001600160401b03821161187257019080601f83011215611872578151611e9f81611c07565b92611ead6040519485611ac8565b81845260208085019260051b82010192831161187257602001905b828210611ed55750505090565b8151815260209182019101611ec8565b5f805460405163f50336f960e01b81526001600160a01b039384166004820152939284916024918391165afa918215611867575f92611f8e575b50815115611f89575f91825b8151841015611f665760208460051b830101518101809111611f5257600190930192611f2b565b634e487b7160e01b5f52601160045260245ffd5b91925051908115611f75570490565b634e487b7160e01b5f52601260045260245ffd5b5f9150565b611fa39192503d805f833e6101de8183611ac8565b905f611f1f565b6001600160a01b03168015611ff5575f5160206120c55f395f51905f5280546001600160a01b0319811683179091556001600160a01b03165f5160206121055f395f51905f525f80a3565b631e4fbdf760e01b5f525f60045260245ffd5b5f5160206120c55f395f51905f52546001600160a01b0316330361202857565b63118cdaa760e01b5f523360045260245ffd5b60ff5f5160206121455f395f51905f525460401c161561205757565b631afcd79f60e31b5f5260045ffd5b9061208a575080511561207b57805190602001fd5b630a12f52160e11b5f5260045ffd5b815115806120bb575b61209b575090565b639996b31560e01b5f9081526001600160a01b0391909116600452602490fd5b50803b1561209356fe9016d09d72d40fdae2fd8ceac6b6234c7706214fd39c1cd1e609a0528c199300360894a13ba1a3210667c828492db98dca3e2076cc3735a920a3ca505d382bbc8be0079c531659141344cd1fd0a4f28419497f9722a3daafe3b4186f6b6457e0bc7cd75a20ee27fd9adebab32041f755214dbc6bffa90cc0225b39da2e5c2d3bf0c57e16840df040f15088dc2f81fe391c3923bec73e23a9662efc9c229c6a00a26469706673582212208cb73a5e5ea4bd803be95ab77772742edb58a6c2114e903122d3017205f55a0864736f6c63430008210033f0c57e16840df040f15088dc2f81fe391c3923bec73e23a9662efc9c229c6a00","linkReferences":{}},"methodIdentifiers":{"UPGRADE_INTERFACE_VERSION()":"ad3cb1cc","addPortfolio(address,string)":"2c317eb2","bridge()":"e78cea92","createProfile(address,string,address)":"d888cc27","genesis()":"a7f0b3de","getAllProfileUsers()":"b0cc4060","getProfile(address)":"0f53a470","getProfileByIndex(uint256)":"26d74479","getProfileCount()":"3697611a","getUserRating(address)":"460168c3","getUserRatings(address)":"f50336f9","hasProfile(address)":"a787c80b","initialize(address,address,address)":"c0c53b8b","owner()":"8da5cb5b","proxiableUUID()":"52d1902d","rate(address,string,address,uint256)":"6a23a98a","removePortfolioItem(address,uint256)":"efe24b8d","renounceOwnership()":"715018a6","setBridge(address)":"8dd14802","setGenesis(address)":"eb14b353","transferOwnership(address)":"f2fde38b","updatePortfolioItem(address,uint256,string)":"7c83b0aa","updateProfile(address,string)":"3199ac02","upgradeFromDAO(address)":"40634e3b","upgradeToAndCall(address,bytes)":"4f1ef286"},"id":91}