{"abi":[{"type":"constructor","inputs":[],"stateMutability":"nonpayable"},{"type":"receive","stateMutability":"payable"},{"type":"function","name":"UPGRADE_INTERFACE_VERSION","inputs":[],"outputs":[{"name":"","type":"string","internalType":"string"}],"stateMutability":"view"},{"type":"function","name":"accumulatedFees","inputs":[],"outputs":[{"name":"","type":"uint256","internalType":"uint256"}],"stateMutability":"view"},{"type":"function","name":"addMembers","inputs":[{"name":"_members","type":"address[]","internalType":"address[]"},{"name":"_oracleName","type":"string","internalType":"string"}],"outputs":[],"stateMutability":"nonpayable"},{"type":"function","name":"addOrUpdateOracle","inputs":[{"name":"_names","type":"string[]","internalType":"string[]"},{"name":"_members","type":"address[][]","internalType":"address[][]"},{"name":"_shortDescriptions","type":"string[]","internalType":"string[]"},{"name":"_hashOfDetails","type":"string[]","internalType":"string[]"},{"name":"_skillVerifiedAddresses","type":"address[][]","internalType":"address[][]"}],"outputs":[],"stateMutability":"nonpayable"},{"type":"function","name":"addSingleOracle","inputs":[{"name":"_name","type":"string","internalType":"string"},{"name":"_members","type":"address[]","internalType":"address[]"},{"name":"_shortDescription","type":"string","internalType":"string"},{"name":"_hashOfDetails","type":"string","internalType":"string"},{"name":"_skillVerifiedAddresses","type":"address[]","internalType":"address[]"}],"outputs":[],"stateMutability":"nonpayable"},{"type":"function","name":"bridge","inputs":[],"outputs":[{"name":"","type":"address","internalType":"address"}],"stateMutability":"view"},{"type":"function","name":"canVote","inputs":[{"name":"account","type":"address","internalType":"address"}],"outputs":[{"name":"","type":"bool","internalType":"bool"}],"stateMutability":"view"},{"type":"function","name":"daoContract","inputs":[],"outputs":[{"name":"","type":"address","internalType":"address"}],"stateMutability":"view"},{"type":"function","name":"disputeStartTimes","inputs":[{"name":"","type":"string","internalType":"string"}],"outputs":[{"name":"","type":"uint256","internalType":"uint256"}],"stateMutability":"view"},{"type":"function","name":"finalizeSkillVerification","inputs":[{"name":"_applicationId","type":"uint256","internalType":"uint256"}],"outputs":[],"stateMutability":"nonpayable"},{"type":"function","name":"genesis","inputs":[],"outputs":[{"name":"","type":"address","internalType":"contract IOpenworkGenesis"}],"stateMutability":"view"},{"type":"function","name":"getOracleActiveMemberCount","inputs":[{"name":"_oracleName","type":"string","internalType":"string"}],"outputs":[{"name":"","type":"uint256","internalType":"uint256"}],"stateMutability":"view"},{"type":"function","name":"getOracleMembers","inputs":[{"name":"_oracleName","type":"string","internalType":"string"}],"outputs":[{"name":"","type":"address[]","internalType":"address[]"}],"stateMutability":"view"},{"type":"function","name":"getUserVotingPower","inputs":[{"name":"account","type":"address","internalType":"address"}],"outputs":[{"name":"","type":"uint256","internalType":"uint256"}],"stateMutability":"view"},{"type":"function","name":"handleAskAthena","inputs":[{"name":"applicant","type":"address","internalType":"address"},{"name":"description","type":"string","internalType":"string"},{"name":"hash","type":"string","internalType":"string"},{"name":"targetOracle","type":"string","internalType":"string"},{"name":"fees","type":"string","internalType":"string"}],"outputs":[],"stateMutability":"nonpayable"},{"type":"function","name":"handleRaiseDispute","inputs":[{"name":"jobId","type":"string","internalType":"string"},{"name":"disputeHash","type":"string","internalType":"string"},{"name":"oracleName","type":"string","internalType":"string"},{"name":"fee","type":"uint256","internalType":"uint256"},{"name":"disputedAmount","type":"uint256","internalType":"uint256"},{"name":"disputeRaiser","type":"address","internalType":"address"}],"outputs":[],"stateMutability":"nonpayable"},{"type":"function","name":"handleSubmitSkillVerification","inputs":[{"name":"applicant","type":"address","internalType":"address"},{"name":"applicationHash","type":"string","internalType":"string"},{"name":"feeAmount","type":"uint256","internalType":"uint256"},{"name":"targetOracleName","type":"string","internalType":"string"}],"outputs":[],"stateMutability":"nonpayable"},{"type":"function","name":"initialize","inputs":[{"name":"_owner","type":"address","internalType":"address"},{"name":"_daoContract","type":"address","internalType":"address"},{"name":"_genesis","type":"address","internalType":"address"},{"name":"_nowjContract","type":"address","internalType":"address"},{"name":"_usdcToken","type":"address","internalType":"address"}],"outputs":[],"stateMutability":"nonpayable"},{"type":"function","name":"isOracleActive","inputs":[{"name":"_oracleName","type":"string","internalType":"string"}],"outputs":[{"name":"","type":"bool","internalType":"bool"}],"stateMutability":"view"},{"type":"function","name":"isOracleMember","inputs":[{"name":"_account","type":"address","internalType":"address"},{"name":"_oracleName","type":"string","internalType":"string"}],"outputs":[{"name":"","type":"bool","internalType":"bool"}],"stateMutability":"view"},{"type":"function","name":"jobDisputeCounters","inputs":[{"name":"","type":"string","internalType":"string"}],"outputs":[{"name":"","type":"uint256","internalType":"uint256"}],"stateMutability":"view"},{"type":"function","name":"memberActivityThresholdDays","inputs":[],"outputs":[{"name":"","type":"uint256","internalType":"uint256"}],"stateMutability":"view"},{"type":"function","name":"minOracleMembers","inputs":[],"outputs":[{"name":"","type":"uint256","internalType":"uint256"}],"stateMutability":"view"},{"type":"function","name":"minStakeRequired","inputs":[],"outputs":[{"name":"","type":"uint256","internalType":"uint256"}],"stateMutability":"view"},{"type":"function","name":"nowjContract","inputs":[],"outputs":[{"name":"","type":"address","internalType":"contract INativeOpenWorkJobContract"}],"stateMutability":"view"},{"type":"function","name":"oracleManager","inputs":[],"outputs":[{"name":"","type":"address","internalType":"contract IOracleManager"}],"stateMutability":"view"},{"type":"function","name":"owner","inputs":[],"outputs":[{"name":"","type":"address","internalType":"address"}],"stateMutability":"view"},{"type":"function","name":"proxiableUUID","inputs":[],"outputs":[{"name":"","type":"bytes32","internalType":"bytes32"}],"stateMutability":"view"},{"type":"function","name":"removeMemberFromOracle","inputs":[{"name":"_oracleName","type":"string","internalType":"string"},{"name":"_memberToRemove","type":"address","internalType":"address"}],"outputs":[],"stateMutability":"nonpayable"},{"type":"function","name":"removeOracle","inputs":[{"name":"_oracleNames","type":"string[]","internalType":"string[]"}],"outputs":[],"stateMutability":"nonpayable"},{"type":"function","name":"renounceOwnership","inputs":[],"outputs":[],"stateMutability":"nonpayable"},{"type":"function","name":"setBridge","inputs":[{"name":"_bridge","type":"address","internalType":"address"}],"outputs":[],"stateMutability":"nonpayable"},{"type":"function","name":"setDAOContract","inputs":[{"name":"_daoContract","type":"address","internalType":"address"}],"outputs":[],"stateMutability":"nonpayable"},{"type":"function","name":"setGenesis","inputs":[{"name":"_genesis","type":"address","internalType":"address"}],"outputs":[],"stateMutability":"nonpayable"},{"type":"function","name":"setNOWJContract","inputs":[{"name":"_nowjContract","type":"address","internalType":"address"}],"outputs":[],"stateMutability":"nonpayable"},{"type":"function","name":"setOracleManager","inputs":[{"name":"_oracleManager","type":"address","internalType":"address"}],"outputs":[],"stateMutability":"nonpayable"},{"type":"function","name":"setUSDCToken","inputs":[{"name":"_usdcToken","type":"address","internalType":"address"}],"outputs":[],"stateMutability":"nonpayable"},{"type":"function","name":"settleAskAthena","inputs":[{"name":"_athenaId","type":"uint256","internalType":"uint256"}],"outputs":[],"stateMutability":"nonpayable"},{"type":"function","name":"settleDispute","inputs":[{"name":"_disputeId","type":"string","internalType":"string"}],"outputs":[],"stateMutability":"nonpayable"},{"type":"function","name":"transferOwnership","inputs":[{"name":"newOwner","type":"address","internalType":"address"}],"outputs":[],"stateMutability":"nonpayable"},{"type":"function","name":"updateMemberActivityThreshold","inputs":[{"name":"_newThresholdDays","type":"uint256","internalType":"uint256"}],"outputs":[],"stateMutability":"nonpayable"},{"type":"function","name":"updateMinOracleMembers","inputs":[{"name":"_newMinMembers","type":"uint256","internalType":"uint256"}],"outputs":[],"stateMutability":"nonpayable"},{"type":"function","name":"updateMinStakeRequired","inputs":[{"name":"_newMinStake","type":"uint256","internalType":"uint256"}],"outputs":[],"stateMutability":"nonpayable"},{"type":"function","name":"updateOracleActiveStatus","inputs":[{"name":"_oracleName","type":"string","internalType":"string"}],"outputs":[],"stateMutability":"nonpayable"},{"type":"function","name":"updateVotingPeriod","inputs":[{"name":"_newPeriodMinutes","type":"uint256","internalType":"uint256"}],"outputs":[],"stateMutability":"nonpayable"},{"type":"function","name":"upgradeFromDAO","inputs":[{"name":"newImplementation","type":"address","internalType":"address"}],"outputs":[],"stateMutability":"nonpayable"},{"type":"function","name":"upgradeToAndCall","inputs":[{"name":"newImplementation","type":"address","internalType":"address"},{"name":"data","type":"bytes","internalType":"bytes"}],"outputs":[],"stateMutability":"payable"},{"type":"function","name":"usdcToken","inputs":[],"outputs":[{"name":"","type":"address","internalType":"contract IERC20"}],"stateMutability":"view"},{"type":"function","name":"vote","inputs":[{"name":"_votingType","type":"uint8","internalType":"enum NativeAthena.VotingType"},{"name":"_disputeId","type":"string","internalType":"string"},{"name":"_voteFor","type":"bool","internalType":"bool"},{"name":"_claimAddress","type":"address","internalType":"address"}],"outputs":[],"stateMutability":"nonpayable"},{"type":"function","name":"votingPeriodMinutes","inputs":[],"outputs":[{"name":"","type":"uint256","internalType":"uint256"}],"stateMutability":"view"},{"type":"function","name":"withdraw","inputs":[],"outputs":[],"stateMutability":"nonpayable"},{"type":"event","name":"AskAthenaSettled","inputs":[{"name":"athenaId","type":"uint256","indexed":true,"internalType":"uint256"},{"name":"result","type":"bool","indexed":false,"internalType":"bool"},{"name":"totalVotesFor","type":"uint256","indexed":false,"internalType":"uint256"},{"name":"totalVotesAgainst","type":"uint256","indexed":false,"internalType":"uint256"}],"anonymous":false},{"type":"event","name":"AskAthenaSubmitted","inputs":[{"name":"applicant","type":"address","indexed":true,"internalType":"address"},{"name":"targetOracle","type":"string","indexed":false,"internalType":"string"},{"name":"fees","type":"string","indexed":false,"internalType":"string"}],"anonymous":false},{"type":"event","name":"BridgeUpdated","inputs":[{"name":"oldBridge","type":"address","indexed":true,"internalType":"address"},{"name":"newBridge","type":"address","indexed":true,"internalType":"address"}],"anonymous":false},{"type":"event","name":"CrossContractCallFailed","inputs":[{"name":"account","type":"address","indexed":true,"internalType":"address"},{"name":"reason","type":"string","indexed":false,"internalType":"string"}],"anonymous":false},{"type":"event","name":"DAOContractUpdated","inputs":[{"name":"oldDAO","type":"address","indexed":true,"internalType":"address"},{"name":"newDAO","type":"address","indexed":true,"internalType":"address"}],"anonymous":false},{"type":"event","name":"DisputeFeeRefunded","inputs":[{"name":"disputeId","type":"string","indexed":true,"internalType":"string"},{"name":"disputeRaiser","type":"address","indexed":true,"internalType":"address"},{"name":"amount","type":"uint256","indexed":false,"internalType":"uint256"},{"name":"targetChain","type":"uint32","indexed":false,"internalType":"uint32"}],"anonymous":false},{"type":"event","name":"DisputeFinalized","inputs":[{"name":"disputeId","type":"string","indexed":true,"internalType":"string"},{"name":"winningSide","type":"bool","indexed":false,"internalType":"bool"},{"name":"totalVotesFor","type":"uint256","indexed":false,"internalType":"uint256"},{"name":"totalVotesAgainst","type":"uint256","indexed":false,"internalType":"uint256"}],"anonymous":false},{"type":"event","name":"DisputeRaised","inputs":[{"name":"jobId","type":"string","indexed":true,"internalType":"string"},{"name":"disputeRaiser","type":"address","indexed":true,"internalType":"address"},{"name":"fees","type":"uint256","indexed":false,"internalType":"uint256"}],"anonymous":false},{"type":"event","name":"EarnedTokensUsedForVoting","inputs":[{"name":"user","type":"address","indexed":true,"internalType":"address"},{"name":"earnedTokens","type":"uint256","indexed":false,"internalType":"uint256"},{"name":"votingType","type":"string","indexed":false,"internalType":"string"}],"anonymous":false},{"type":"event","name":"FeeDistributed","inputs":[{"name":"disputeId","type":"string","indexed":true,"internalType":"string"},{"name":"recipient","type":"address","indexed":true,"internalType":"address"},{"name":"amount","type":"uint256","indexed":false,"internalType":"uint256"}],"anonymous":false},{"type":"event","name":"FeesWithdrawn","inputs":[{"name":"owner","type":"address","indexed":true,"internalType":"address"},{"name":"amount","type":"uint256","indexed":false,"internalType":"uint256"}],"anonymous":false},{"type":"event","name":"GenesisUpdated","inputs":[{"name":"oldGenesis","type":"address","indexed":true,"internalType":"address"},{"name":"newGenesis","type":"address","indexed":true,"internalType":"address"}],"anonymous":false},{"type":"event","name":"Initialized","inputs":[{"name":"version","type":"uint64","indexed":false,"internalType":"uint64"}],"anonymous":false},{"type":"event","name":"MemberActivityThresholdUpdated","inputs":[{"name":"newThresholdDays","type":"uint256","indexed":false,"internalType":"uint256"}],"anonymous":false},{"type":"event","name":"NOWJContractUpdated","inputs":[{"name":"oldContract","type":"address","indexed":true,"internalType":"address"},{"name":"newContract","type":"address","indexed":true,"internalType":"address"}],"anonymous":false},{"type":"event","name":"OracleStatusUpdated","inputs":[{"name":"oracleName","type":"string","indexed":true,"internalType":"string"},{"name":"isActive","type":"bool","indexed":false,"internalType":"bool"},{"name":"activeMemberCount","type":"uint256","indexed":false,"internalType":"uint256"}],"anonymous":false},{"type":"event","name":"OwnershipTransferred","inputs":[{"name":"previousOwner","type":"address","indexed":true,"internalType":"address"},{"name":"newOwner","type":"address","indexed":true,"internalType":"address"}],"anonymous":false},{"type":"event","name":"SkillVerificationSettled","inputs":[{"name":"applicationId","type":"uint256","indexed":true,"internalType":"uint256"},{"name":"result","type":"bool","indexed":false,"internalType":"bool"},{"name":"totalVotesFor","type":"uint256","indexed":false,"internalType":"uint256"},{"name":"totalVotesAgainst","type":"uint256","indexed":false,"internalType":"uint256"}],"anonymous":false},{"type":"event","name":"SkillVerificationSubmitted","inputs":[{"name":"applicant","type":"address","indexed":true,"internalType":"address"},{"name":"targetOracleName","type":"string","indexed":false,"internalType":"string"},{"name":"feeAmount","type":"uint256","indexed":false,"internalType":"uint256"},{"name":"applicationId","type":"uint256","indexed":true,"internalType":"uint256"}],"anonymous":false},{"type":"event","name":"USDCTokenUpdated","inputs":[{"name":"oldToken","type":"address","indexed":true,"internalType":"address"},{"name":"newToken","type":"address","indexed":true,"internalType":"address"}],"anonymous":false},{"type":"event","name":"Upgraded","inputs":[{"name":"implementation","type":"address","indexed":true,"internalType":"address"}],"anonymous":false},{"type":"error","name":"AddressEmptyCode","inputs":[{"name":"target","type":"address","internalType":"address"}]},{"type":"error","name":"AddressInsufficientBalance","inputs":[{"name":"account","type":"address","internalType":"address"}]},{"type":"error","name":"ERC1967InvalidImplementation","inputs":[{"name":"implementation","type":"address","internalType":"address"}]},{"type":"error","name":"ERC1967NonPayable","inputs":[]},{"type":"error","name":"FailedInnerCall","inputs":[]},{"type":"error","name":"InvalidInitialization","inputs":[]},{"type":"error","name":"NotInitializing","inputs":[]},{"type":"error","name":"OwnableInvalidOwner","inputs":[{"name":"owner","type":"address","internalType":"address"}]},{"type":"error","name":"OwnableUnauthorizedAccount","inputs":[{"name":"account","type":"address","internalType":"address"}]},{"type":"error","name":"SafeERC20FailedOperation","inputs":[{"name":"token","type":"address","internalType":"address"}]},{"type":"error","name":"UUPSUnauthorizedCallContext","inputs":[]},{"type":"error","name":"UUPSUnsupportedProxiableUUID","inputs":[{"name":"slot","type":"bytes32","internalType":"bytes32"}]}],"bytecode":{"object":"0x60a080604052346100ce5730608052605a600a555f516020615b095f395f51905f525460ff8160401c166100bf576002600160401b03196001600160401b0382160161006c575b604051615a3690816100d38239608051818181611d8501528181611e4701526123400152f35b6001600160401b0319166001600160401b039081175f516020615b095f395f51905f525581527fc7f505b2f371ae2175ee4913f4499e1f2633a7b5936321eed1cdaeb6115181d290602090a15f80610046565b63f92ee8a960e01b5f5260045ffd5b5f80fdfe6080604052600436101561001a575b3615610018575f80fd5b005b5f5f3560e01c80630308b414146137c7578063059c20801461375e5780630a8eef76146131105780630b9abbfa146130f25780630baca2e5146130c65780630f5a9d011461305b57806311eac85514613032578063144e49b214612d2c5780631459457a14612b3f57806323165bb2146129e65780632af7a0b3146127c45780633948e4461461277e5780633c9ce794146125e15780633ccfd60b1461254957806340634e3b146122f357806340db1a7914612262578063425d512a146121fb5780634a7ffcbc146121d45780634a9fe8f91461206f5780634dea63071461204c5780634f1ef28614611df7578063502f682614611dd957806352d1902d14611d72578063565d878c14611d49578063587f5ed714611d2b5780636601d96214611cd55780637086f54814611a6c578063715018a614611a16578063787bb310146119ed578063887e15dc14610cf65780638da5cb5b14610cc15780638dd1480214610c56578063929e2e0814610c11578063a7f0b3de14610be8578063ad3cb1cc14610b9f578063ad8d343514610b51578063add6beaf14610ac0578063adfaa72e14610a92578063b90efe2e1461085a578063ba56261e14610804578063cae3831c146106ac578063d3075f2a146105bd578063d93e11841461059a578063dc2969eb146104b3578063e78cea921461048a578063eb14b3531461041f578063ee0a5858146102e4578063ef00ef43146102c1578063f24b6b37146102a3578063f2fde38b146102765763f67321c614610256575061000e565b346102735780600319360112610273576020600854604051908152f35b80fd5b5034610273576020366003190112610273576102a06102936138c3565b61029b614c6f565b614c11565b80f35b50346102735780600319360112610273576020600a54604051908152f35b5034610273576020366003190112610273576102db614c6f565b60043560085580f35b5034610273576020366003190112610273576004356001600160401b03811161041b576103159036906004016138a5565b6003546040516332b8e0c760e21b8152602060048201529290819084906001600160a01b0316818061034a6024820188613a86565b03915afa92831561040e5781936103ea575b5080805b84518110156103a6576103856001600160a01b0361037e8388613c97565b5116614af1565b610392575b600101610360565b9161039e600191613cbf565b92905061038a565b509160407f4268575b6cf68e1c6d8da3e874758c378dc46ef7a69108c0bc680a806b818c63916103db6007548510159161435b565b9382519182526020820152a280f35b6104079193503d8085833e6103ff8183613831565b81019061480b565b915f61035c565b50604051903d90823e3d90fd5b5080fd5b5034610273576020366003190112610273576104396138c3565b610441614c6f565b600380546001600160a01b039283166001600160a01b0319821681179092559091167f5f1d51aab4bd6e41be6c7feda322db860d93d0058238bf871dfafd43ecc951f98380a380f35b50346102735780600319360112610273576006546040516001600160a01b039091168152602090f35b503461027357602036600319011261027357600435816001600160401b038211610273576104e86105169236906004016138a5565b60018060a01b036003541660405180809581946332b8e0c760e21b8352602060048401526024830190613a86565b03915afa90811561058f578291610575575b50815b815181101561056a576105496001600160a01b0361037e8385613c97565b610556575b60010161052b565b91610562600191613cbf565b92905061054e565b602083604051908152f35b61058991503d8084833e6103ff8183613831565b5f610528565b6040513d84823e3d90fd5b5034610273576020366003190112610273576105b4614c6f565b60043560095580f35b503461027357604036600319011261027357806004356001600160401b0381116106a9576105ef90369060040161399a565b6024356001600160401b0381116106a75761060e9036906004016138a5565b9061062360018060a01b038454163314614a75565b6004546001600160a01b03169161063b8315156144fc565b823b156106a5576106839261067185809460405196879586948593636983af9560e11b8552604060048601526044850190613aaa565b83810360031901602485015290613a86565b03925af1801561058f576106945750f35b8161069e91613831565b6102735780f35b505b505b50fd5b5034610273576020366003190112610273576004356001600160401b03811161041b576106dd9036906004016138a5565b60035460405163a9daf6ad60e01b8152602060048201526001600160a01b03909116908381806107106024820187613a86565b0381855afa9081156107f95784916107d7575b5051511561079f5761075491839160405180809581946332b8e0c760e21b8352602060048401526024830190613a86565b03915afa90811561058f57826107809392610784575b5050604051918291602083526020830190613aaa565b0390f35b61079892503d8091833e6103ff8183613831565b5f8061076a565b60405162461bcd60e51b815260206004820152601060248201526f13dc9858db19481b9bdd08199bdd5b9960821b6044820152606490fd5b6107f391503d8086833e6107eb8183613831565b810190613ba5565b5f610723565b6040513d86823e3d90fd5b503461027357602036600319011261027357600435906001600160401b038211610273576020808061083936600487016138a5565b604051928184925191829101835e8101600b81520301902054604051908152f35b5034610273576080366003190112610273576108746138c3565b6024356001600160401b0381116109c2576108939036906004016138a5565b6044356064356001600160401b0381116109be576108b59036906004016138a5565b906108bf82613ccd565b15610a0c5760035460405163db144d0160e01b81529486916001600160a01b0316602087600481845afa968715610a015783976109c6575b50803b156109c257604051633aaf8bb760e11b8152600481018890526001600160a01b039092166024830181905260a060448401529583918391829084908290610961906109499060a4840190613a86565b8a60648401526003198382030160848401528b613a86565b03925af1801561058f576109a9575b50507f15b66c0cbfc87dbf2cd5b52d76249c81b1ca02430f5136fb55f6c77f304ace62916109a36040519283928361423e565b0390a380f35b816109b391613831565b6109be57845f610970565b8480fd5b8280fd5b925095506020823d6020116109f9575b816109e360209383613831565b810103126109f557869151955f6108f7565b5f80fd5b3d91506109d6565b6040513d85823e3d90fd5b60405162461bcd60e51b815260206004820152605260248201527f536b696c6c20766572696669636174696f6e206e6f7420617661696c61626c6560448201527f202d206f7261636c65206973206e6f742061637469766520286e656564732032606482015271302b20616374697665206d656d626572732960701b608482015260a490fd5b5034610273576020366003190112610273576020610ab6610ab16138c3565b614af1565b6040519015158152f35b503461027357604036600319011261027357806004356001600160401b0381116106a957610af29036906004016138a5565b610afa6138d9565b90610b0f60018060a01b038454163314614a75565b6004546001600160a01b031691610b278315156144fc565b823b156106a5576106839284928360405180968195829463add6beaf60e01b8452600484016147e3565b5034610273576020366003190112610273577f1cbba4e19e2b731f9b754e78a5e9412c411a9c6c7c2eb99d2ede4acfcc92b6726020600435610b91614c6f565b80600a55604051908152a180f35b503461027357806003193601126102735750610780604051610bc2604082613831565b60058152640352e302e360dc1b6020820152604051918291602083526020830190613a86565b50346102735780600319360112610273576003546040516001600160a01b039091168152602090f35b503461027357602036600319011261027357610c2b6138c3565b610c33614c6f565b600480546001600160a01b0319166001600160a01b039290921691909117905580f35b503461027357602036600319011261027357610c706138c3565b610c78614c6f565b600680546001600160a01b039283166001600160a01b0319821681179092559091167faae9beddccf584528e87b66c6ff2563825c8a1433305b8a656e9b5f9bf3904998380a380f35b50346102735780600319360112610273575f5160206159015f395f51905f52546040516001600160a01b039091168152602090f35b503461027357608036600319011261027357600435906003821015610273576024356001600160401b03811161041b57610d349036906004016138a5565b60443590811515938483036119e957610d4b6138ef565b610d5433614af1565b15611990576001600160a01b038116801561194c57610d72336143b5565b968715611943575b8691841593845f1461183a57506003546001600160a01b031690813b15611836578891610dc983898d94604051978896879586946317a957fb60e11b865260a0600487015260a4860190613a86565b9233602486015260448501526064840152608483015203925af180156111a557908791611821575b50505b61180d57156111df575060035460405163a54294af60e01b8152602060048201526001600160a01b03909116949092848480610e336024820187613a86565b0381895afa9384156111d45785946111b0575b506101208401610e5881511515613d90565b604051631390f92560e31b815260208180610e773389600484016147e3565b03818b5afa9081156111a5578791611167575b506111225760e0850151156110cf57519560085496603c880297808904603c14901517156110bb57610ec08798610ec892613de8565b4211156157c8565b803b156110a25785604051809263cd5b752f60e01b8252818381610ef0338b600484016147e3565b03925af19081156110975786916110a6575b50506003546001600160a01b0316803b156110a2578580916024604051809481936341b3d2a160e01b83523360048401525af1908115611097578691611082575b50501561100d5760a0610f64600180831b0360035416926080860151613de8565b93015190803b156109be57610f9393858094604051968795869485936390c7417d60e01b855260048501615826565b03925af1801561058f57610ff8575b50505b60055481906001600160a01b031680610fbe575b505080f35b803b156106a957818091602460405180948193634cfa135f60e11b83523360048401525af1801561058f5715610fb9578161069e91613831565b8161100291613831565b61027357805f610fa2565b61102b60018060a01b03600354169160a06080860151950151613de8565b90803b156109be5761105793858094604051968795869485936390c7417d60e01b855260048501615826565b03925af1801561058f5761106d575b5050610fa5565b8161107791613831565b61027357805f611066565b8161108c91613831565b6109be57845f610f43565b6040513d88823e3d90fd5b8580fd5b816110b091613831565b6109be57845f610f02565b634e487b7160e01b87526011600452602487fd5b60405162461bcd60e51b815260206004820152602560248201527f566f74696e67206973206e6f742061637469766520666f722074686973206469604482015264737075746560d81b6064820152608490fd5b60405162461bcd60e51b815260206004820152601d60248201527f416c726561647920766f746564206f6e207468697320646973707574650000006044820152606490fd5b90506020813d60201161119d575b8161118260209383613831565b810103126111995761119390613df5565b5f610e8a565b8680fd5b3d9150611175565b6040513d89823e3d90fd5b6111cd9194503d8087833e6111c58183613831565b810190613e02565b925f610e46565b6040513d87823e3d90fd5b600181036114295750926111f38394615709565b6003546040516314c2c26560e31b81526004810183905293919291906001600160a01b03168585602481845afa948515611097578695611405575b506080850161123d8151613ccd565b611383575b50803b156110a2578560405180926309ff8cbf60e31b825281838161126b338b600484016157af565b03925af190811561109757869161136e575b50506003546001600160a01b0316803b156110a2578580916024604051809481936341b3d2a160e01b83523360048401525af1908115611097578691611359575b50501561130f5760c06112e060018060a01b03600354169260a0860151613de8565b93015190803b156109be57610f93938580946040519687958694859363327fa2fd60e21b855260048501615810565b61132d60018060a01b03600354169160c060a0860151950151613de8565b90803b156109be57611057938580946040519687958694859363327fa2fd60e21b855260048501615810565b8161136391613831565b6109be57845f6112be565b8161137891613831565b6109be57845f61127d565b6113909196505133614830565b1561139d5785945f611242565b60405162461bcd60e51b815260206004820152603a60248201527f4f6e6c79206f7261636c65206d656d626572732063616e20766f7465206f6e20604482015279616374697665206f7261636c65206170706c69636174696f6e7360301b6064820152608490fd5b6114229195503d8088833e61141a8183613831565b810190614626565b935f61122e565b600214611438575b5050905080f35b61144190615709565b600354604051634cc7894760e11b8152600481018390526001600160a01b039091169490928484602481895afa9384156111d45785946117e9575b506020840151611496906001600160a01b03161515614a1d565b604051631a9a66db60e21b8152602081806114b53388600484016157af565b03818a5afa9081156110975786916117af575b5061175657610100840151156116f5576101208401519560085496603c880297808904603c14901517156110bb57610ec0879861150492613de8565b803b156110a2578560405180926348e35fd760e11b825281838161152c338b600484016157af565b03925af19081156110975786916116e0575b50506003546001600160a01b0316803b156110a2578580916024604051809481936341b3d2a160e01b83523360048401525af19081156110975786916116cb575b5050156116565760e06115a160018060a01b03600354169260c0860151613de8565b93015190803b156109be576115d09385809460405196879586948593630693975b60e41b855260048501615810565b03925af1801561058f57611641575b50505b60055481906001600160a01b0316806115fc575b80611431565b803b156106a957818091602460405180948193634cfa135f60e11b83523360048401525af1801561058f57156115f6578161163691613831565b61027357805f6115f6565b8161164b91613831565b61027357805f6115df565b61167460018060a01b03600354169160e060c0860151950151613de8565b90803b156109be576116a09385809460405196879586948593630693975b60e41b855260048501615810565b03925af1801561058f576116b6575b50506115e2565b816116c091613831565b61027357805f6116af565b816116d591613831565b6109be57845f61157f565b816116ea91613831565b6109be57845f61153e565b60405162461bcd60e51b815260206004820152603360248201527f566f74696e67206973206e6f742061637469766520666f72207468697320417360448201527235a0ba3432b7309030b8383634b1b0ba34b7b760691b6064820152608490fd5b60405162461bcd60e51b815260206004820152602b60248201527f416c726561647920766f746564206f6e20746869732041736b417468656e612060448201526a30b8383634b1b0ba34b7b760a91b6064820152608490fd5b90506020813d6020116117e1575b816117ca60209383613831565b810103126110a2576117db90613df5565b5f6114c8565b3d91506117bd565b6118069194503d8087833e6117fe8183613831565b8101906148d7565b925f61147c565b634e487b7160e01b85526021600452602485fd5b8161182b91613831565b6110a257855f610df1565b8880fd5b889350915050600184036118bd5761185185615709565b6003546001600160a01b03169190823b156118365787928992838c9361188f60405197889687958694636d0faa9560e01b8652339060048701614ac1565b03925af180156111a5579087916118a8575b5050610df4565b816118b291613831565b6110a257855f6118a1565b869150600284146118cf575b50610df4565b6118d885615709565b6003546001600160a01b03169190823b156118365787928992838c936119166040519788968795869463d22e505360e01b8652339060048701614ac1565b03925af180156111a55790879161192e575b506118c9565b8161193891613831565b6110a257855f611928565b60019750610d7a565b60405162461bcd60e51b815260206004820152601c60248201527b436c61696d20616464726573732063616e6e6f74206265207a65726f60201b6044820152606490fd5b60405162461bcd60e51b815260206004820152602b60248201527f496e73756666696369656e74207374616b65206f72206561726e656420746f6b60448201526a656e7320746f20766f746560a81b6064820152608490fd5b8380fd5b50346102735780600319360112610273576005546040516001600160a01b039091168152602090f35b5034610273578060031936011261027357611a2f614c6f565b5f5160206159015f395f51905f5280546001600160a01b0319811690915581906001600160a01b03165f5160206159815f395f51905f528280a380f35b50346102735760a036600319011261027357611a866138c3565b6024356001600160401b0381116109c257611aa59036906004016138a5565b906044356001600160401b0381116119e957611ac59036906004016138a5565b6064356001600160401b0381116109be57611ae49036906004016138a5565b916084356001600160401b0381116110a257611b049036906004016138a5565b6006549092906001600160a01b03163303611c8557600354604051635f75a56d60e11b8152879390916001600160a01b0316602083600481845afa9283156111d4578593611c4e575b50803b156109be5784928360405180968195829463ba20799560e01b84526004840152600160a01b60019003169b8c60248401526044830160c0905260c48301611b9691613a86565b828103600319016064840152611bab91613a86565b818103600319016084830152611bc1908b613a86565b8181036003190160a4830152611bd7908a613a86565b03925af1801561058f57611c39575b50507f673e8492a8c891881088721a3a1bb84615b4e118117a35fb5cdf8be91dc07f4691611c33611c2592604051938493604085526040850190613a86565b908382036020850152613a86565b0390a280f35b81611c4391613831565b6119e957835f611be6565b945091506020843d602011611c7d575b81611c6b60209383613831565b810103126109f557879351915f611b4d565b3d9150611c5e565b60405162461bcd60e51b815260206004820152602260248201527f4f6e6c79206272696467652063616e2063616c6c20746869732066756e63746960448201526137b760f11b6064820152608490fd5b503461027357602036600319011261027357600435906001600160401b0382116102735760208080611d0a36600487016138a5565b604051928184925191829101835e8101600c81520301902054604051908152f35b50346102735780600319360112610273576020600254604051908152f35b50346102735780600319360112610273576004546040516001600160a01b039091168152602090f35b50346102735780600319360112610273577f00000000000000000000000000000000000000000000000000000000000000006001600160a01b03163003611dca5760206040515f5160206159615f395f51905f528152f35b63703e46dd60e11b8152600490fd5b50346102735780600319360112610273576020600954604051908152f35b50604036600319011261027357611e0c6138c3565b906024356001600160401b03811161041b573660238201121561041b57611e3d90369060248160040135910161386f565b6001600160a01b037f00000000000000000000000000000000000000000000000000000000000000001630811490811561202a575b5061201b575f5160206159015f395f51905f52546001600160a01b031633148015612007575b15611fcb576040516352d1902d60e01b8152926001600160a01b0381169190602085600481865afa80958596611f97575b50611ee257634c9c8ce360e01b84526004839052602484fd5b9091845f5160206159615f395f51905f528103611f855750813b15611f73575f5160206159615f395f51905f5280546001600160a01b031916821790555f5160206159a15f395f51905f528480a28151839015611f595780836020611f5595519101845af4611f4f615873565b916158a2565b5080f35b50505034611f645780f35b63b398979f60e01b8152600490fd5b634c9c8ce360e01b8452600452602483fd5b632a87526960e21b8552600452602484fd5b9095506020813d602011611fc3575b81611fb360209383613831565b810103126109be5751945f611ec9565b3d9150611fa6565b60405162461bcd60e51b8152602060048201526014602482015273556e617574686f72697a6564207570677261646560601b6044820152606490fd5b506006546001600160a01b03163314611e98565b63703e46dd60e11b8252600482fd5b5f5160206159615f395f51905f52546001600160a01b0316141590505f611e72565b503461027357602036600319011261027357612066614c6f565b60043560075580f35b50346102735760a036600319011261027357806004356001600160401b0381116106a9576120a19036906004016138a5565b6024356001600160401b0381116106a7576120c090369060040161399a565b6044356001600160401b0381116106a5576120df9036906004016138a5565b906064356001600160401b0381116109be576120ff9036906004016138a5565b916084356001600160401b0381116110a25761211f90369060040161399a565b61213360018060a01b038754163314614a75565b6004546001600160a01b03169161214b8315156144fc565b823b156111995761219e9561068361218c936121c28a986121b08a966040519c8d9b8c9a8b99634a9fe8f960e01b8b5260a060048c015260a48b0190613a86565b8981036003190160248b015290613aaa565b87810360031901604489015290613a86565b85810360031901606487015290613a86565b83810360031901608485015290613aaa565b5034610273578060031936011261027357546040516001600160a01b039091168152602090f35b5034610273576020366003190112610273576122156138c3565b61221d614c6f565b81546001600160a01b039182166001600160a01b031982168117845591167fe2d8d090ec8181d6498d84a6f75ec89c7d13cdcc4309c46ae725b27f7d0923068380a380f35b503461027357602036600319011261027357806004356001600160401b0381116106a95761229490369060040161391c565b6122a860018060a01b038354163314614a75565b6004546001600160a01b03166122bf8115156144fc565b803b156106a7576040516340db1a7960e01b8152602060048201529183918391829084908290610683906024830190614541565b50346102735760203660031901126102735761230d6138c3565b6006546001600160a01b031691903383900361250a576040516020936123338583613831565b8382526001600160a01b037f0000000000000000000000000000000000000000000000000000000000000000163081149081156124e8575b506124d9575f5160206159015f395f51905f52546001600160a01b031633149081156124cf575b5015612493576040516352d1902d60e01b81526001600160a01b03831694908181600481895afa859181612464575b506123da57634c9c8ce360e01b85526004869052602485fd5b5f5160206159615f395f51905f528103611f855750823b15612450575f5160206159615f395f51905f5280546001600160a01b0319168617905592938493905f5160206159a15f395f51905f528580a2815115612446578151611f559492839201845af4611f4f615873565b505050611f645780f35b634c9c8ce360e01b84526004859052602484fd5b9091508281813d831161248c575b61247c8183613831565b810103126110a25751905f6123c1565b503d612472565b60405162461bcd60e51b8152600481018590526014602482015273556e617574686f72697a6564207570677261646560601b6044820152606490fd5b905033145f612392565b63703e46dd60e11b8452600484fd5b5f5160206159615f395f51905f52546001600160a01b0316141590505f61236b565b60405162461bcd60e51b81526020600482015260176024820152764f6e6c79206272696467652063616e207570677261646560481b6044820152606490fd5b5034610273578060031936011261027357612562614c6f565b47801561259f575f5160206159015f395f51905f525482918291829182916001600160a01b031682f1156125935780f35b604051903d90823e3d90fd5b60405162461bcd60e51b815260206004820152601a6024820152794e6f204554482062616c616e636520746f20776974686472617760301b6044820152606490fd5b503461027357602036600319011261027357600354604051634cc7894760e11b815260048035908201819052916001600160a01b0316908381602481855afa9081156107f9578491612764575b506020810151612648906001600160a01b03161515614a1d565b6126576101608201511561471b565b612667610100820151151561475b565b61012081015160085490603c820291808304603c1490151715612750576126989161269191613de8565b421161479b565b60c08101918251918560e082019384511092803b1561041b57604051633b348cf360e21b81526004810188905284151560248201529082908290604490829084905af1801561058f5761273b575b50507fe331e58a7c97022b307f5200c195237bd12cf1329130392b7d98d2f5b397015b9361272c61271d60a0611c33940151615709565b8461272789615654565b6152fa565b51925160405193849384614377565b8161274591613831565b6110a257855f6126e6565b634e487b7160e01b86526011600452602486fd5b61277891503d8086833e6117fe8183613831565b5f61262e565b5034610273576040366003190112610273576127986138c3565b90602435906001600160401b038211610273576020610ab6846127be36600487016138a5565b90614830565b5034610273576020366003190112610273576003546040516314c2c26560e31b815260048035908201819052916001600160a01b03168382602481845afa9182156107f95784926129ca575b506020820180519091906001600160a01b031615612988576128376101408401511561471b565b61284660e0840151151561475b565b61010083015160085490603c820291808304603c14901517156110bb576128709161269191613de8565b60a08301928584519360c083019485511093803b156109c25760405163111006db60e01b81526004810189905285151560248201529083908290604490829084905af18015610a01578591849161296f575b5050612909575b50507f42ae7075f0e049265d5e31f7a5ba9ba5e0fb666e0ae8ecd6bb4dfa15b35756759361272c611c33928460606129008a615654565b9201519161514f565b600354608084015191516001600160a01b03918216929116823b156119e95761294b9284928360405180968195829463e525510760e01b8452600484016147e3565b03925af1801561058f57156128c9578161296491613831565b6110a257855f6128c9565b8192509061297c91613831565b61041b5783825f6128c2565b60405162461bcd60e51b815260206004820152601a602482015279105c1c1b1a58d85d1a5bdb88191bd95cc81b9bdd08195e1a5cdd60321b6044820152606490fd5b6129df9192503d8086833e61141a8183613831565b905f612810565b50346102735760a036600319011261027357806004356001600160401b0381116106a957612a1890369060040161391c565b6024356001600160401b0381116106a757612a37903690600401613a08565b6044356001600160401b0381116106a557612a5690369060040161391c565b906064356001600160401b0381116109be57612a7690369060040161391c565b916084356001600160401b0381116110a257612a96903690600401613a08565b612a9e614c6f565b6004546001600160a01b031691612ab68315156144fc565b823b1561119957612b0995610683612af793612b2d8a98612b1b8a966040519c8d9b8c9a8b9963118b2dd960e11b8b5260a060048c015260a48b0190614541565b8981036003190160248b015290614599565b87810360031901604489015290614541565b85810360031901606487015290614541565b83810360031901608485015290614599565b50346102735760a036600319011261027357612b596138c3565b612b616138d9565b6044356001600160a01b038116908190036119e957612b7e6138ef565b906084359260018060a01b0384168094036110a2575f5160206159e15f395f51905f5254604081901c60ff161595906001600160401b03811680159081612d24575b6001149081612d1a575b159081612d11575b50612d02576001600160401b031981166001175f5160206159e15f395f51905f5255612c10919087612cda575b50612c08615848565b61029b615848565b612c18615848565b85546001600160a01b03199081166001600160a01b039283161787556003805482169390931790925560058054909216921691909117905580612cc0575b506003600755603c6008556064600955612c6d5780f35b60ff60401b195f5160206159e15f395f51905f5254165f5160206159e15f395f51905f52557fc7f505b2f371ae2175ee4913f4499e1f2633a7b5936321eed1cdaeb6115181d2602060405160018152a180f35b600180546001600160a01b0319169190911790555f612c56565b6001600160481b0319166001600160401b01175f5160206159e15f395f51905f52555f612bff565b63f92ee8a960e01b8852600488fd5b9050155f612bd2565b303b159150612bca565b889150612bc0565b50346102735760c0366003190112610273576004356001600160401b03811161041b57612d5d9036906004016138a5565b6024356001600160401b0381116109c257612d7c9036906004016138a5565b6044356001600160401b0381116119e957612d9b9036906004016138a5565b916064359160a4359360018060a01b0385168095036110a257612dbd81613ccd565b15612fd95785612df59160018060a01b0360035416604051808095819463a9daf6ad60e01b8352602060048401526024830190613a86565b03915afa8015611097576020918791612fbf575b5001515160075411612f8657849060405192805193602081818401968088835e8101600b815203019020612e3d8154613cbf565b9055612ea36001612e636040516020818651808b835e8101600b81520301902054615654565b9560208060405198899382850197518091895e840190602d60f81b83830152805192839101602183015e010186838201520301601f198101865285613831565b6040519084518091835e600c90820190815281900360200190204290556003546001600160a01b0316803b156109c25760405163fec17fe960e01b815260a060048201529183918391829084908290612f1d90612f0360a484018c613a86565b608435602485015283810360031901604485015290613a86565b8b60648301528a608483015203925af1801561058f57612f71575b50506020612f667f27fa90971b66777e07575f648a5fa9d7b1b4b0a755ec7646f0307165edd5f53f9261435b565b92604051908152a380f35b81612f7b91613831565b6119e957835f612f38565b60405162461bcd60e51b81526020600482015260116024820152704f7261636c65206e6f742061637469766560781b6044820152606490fd5b612fd391503d8089833e6107eb8183613831565b5f612e09565b60405162461bcd60e51b815260206004820152602b60248201527f4f7261636c65206e6f7420616374697665202d2063616e6e6f7420726567697360448201526a746572206469737075746560a81b6064820152608490fd5b50346102735780600319360112610273576001546040516001600160a01b039091168152602090f35b5034610273576020366003190112610273576130756138c3565b61307d614c6f565b600180546001600160a01b039283166001600160a01b0319821681179092559091167f9c4a3fabb33cb3d3fe4fde0ee645166e23d7fe00c47fa67cda8b698a68af3ccc8380a380f35b50346102735760203660031901126102735760206130ea6130e56138c3565b6143b5565b604051908152f35b50346102735780600319360112610273576020600754604051908152f35b50346109f55760203660031901126109f5576004356001600160401b0381116109f5576131419036906004016138a5565b604051613167825191602081818601948086835e8101600c815203019020541515613d90565b6020604051809284518091835e8101600c81520301902054600854603c810290808204603c149015171561374a5761319e91613de8565b421061370b5760035460405163a54294af60e01b815260206004820152906001600160a01b03165f82806131d56024820187613a86565b0381845afa9182156136a3575f926136ef575b506131f96101208301511515613d90565b6101008201516136ae57608082019081519160a084019283511091803b156109f5575f60405180926325985c9760e21b825260406004830152818381613242604482018d613a86565b89602483015203925af180156136a35761368e575b5060055486906001600160a01b0316806134ad575b50506003546040516349868b4160e01b81526020600482015290879082906001600160a01b031681806132a2602482018c613a86565b03915afa9081156111a557879161348b575b5051158061347d575b80613469575b1561343f576060840180516132e1906001600160a01b0316876154a5565b908763ffffffff83169260038414801561342c575b15613386575050915f5160206159415f395f51905f5295613379925f5160206159c15f395f51905f526040610140611c339761334a60018060a01b036001541660018060a01b0383511684890151916155b0565b519401516001600160a01b03909416936133638c61435b565b9382519182526020820152a35b5193519561435b565b9460405193849384614377565b60055483516101408a0151926001600160a01b0391821692909116803b156109be576133cc938580946040519687958694859363301f825760e01b85526004850161425a565b03925af1801561058f5761340d575b5050915f5160206159415f395f51905f5295613379925f5160206159c15f395f51905f526040610140611c339761334a565b8161341b9195939495613831565b613428579190875f6133db565b8780fd5b506005546001600160a01b0316156132f6565b613379611c33916134646101405f5160206159415f395f51905f529701518589614f5f565b613370565b506001546001600160a01b031615156132c3565b5061014084015115156132bd565b6134a791503d8089833e61349f8183613831565b810190614282565b5f6132b4565b6134b687614ce5565b6003546040516377e3240760e01b8152602060048201526001600160a01b03909116918482806134e96024820185613a86565b0381865afa9182156111d457859261366a575b506060890151602083018051879586958695948c9391926001600160a01b039182169288921683036135d657505050506135b4575b50505b806135a2575b613546575b505061326c565b602088015192803b156109be57613577938580946040519687958694859363301f825760e01b85526004850161425a565b03925af1801561058f5761358d575b808061353f565b8161359791613831565b6110a257855f613586565b506001600160a01b038216151561353a565b516001600160a01b03169350600192506135ce9150614dff565b905f80613531565b919450929491946135ec575b5050505050613534565b9193965091945061361e935061012060019596015191604051809581948293632e68140160e11b84526004840161423e565b03915afa9081156111d45763ffffffff9160a0918791613648575b50015116905f808681806135e2565b61366491503d8089833e61365c8183613831565b810190614093565b5f613639565b6136879192503d8087833e61367f8183613831565b810190613ef7565b905f6134fc565b61369b9196505f90613831565b5f945f613257565b6040513d5f823e3d90fd5b60405162461bcd60e51b8152602060048201526019602482015278111a5cdc1d5d1948185b1c9958591e48199a5b985b1a5e9959603a1b6044820152606490fd5b6137049192503d805f833e6111c58183613831565b905f6131e8565b60405162461bcd60e51b8152602060048201526017602482015276159bdd1a5b99c81c195c9a5bd9081b9bdd08195b991959604a1b6044820152606490fd5b634e487b7160e01b5f52601160045260245ffd5b346109f55760203660031901126109f5576137776138c3565b61377f614c6f565b600580546001600160a01b039283166001600160a01b0319821681179092559091167f9d4deb5ab4de88a4c0510604f0d3eb81d3d71a07a7f84ef56bad08c07083ca955f80a3005b346109f55760203660031901126109f5576004356001600160401b0381116109f557610ab66137fc60209236906004016138a5565b613ccd565b61016081019081106001600160401b0382111761381d57604052565b634e487b7160e01b5f52604160045260245ffd5b601f909101601f19168101906001600160401b0382119082101761381d57604052565b6001600160401b03811161381d57601f01601f191660200190565b92919261387b82613854565b916138896040519384613831565b8294818452818301116109f5578281602093845f960137010152565b9080601f830112156109f5578160206138c09335910161386f565b90565b600435906001600160a01b03821682036109f557565b602435906001600160a01b03821682036109f557565b606435906001600160a01b03821682036109f557565b6001600160401b03811161381d5760051b60200190565b9080601f830112156109f557813561393381613905565b926139416040519485613831565b81845260208085019260051b820101918383116109f55760208201905b83821061396d57505050505090565b81356001600160401b0381116109f55760209161398f878480948801016138a5565b81520191019061395e565b9080601f830112156109f5578135906139b282613905565b926139c06040519485613831565b82845260208085019360051b8201019182116109f557602001915b8183106139e85750505090565b82356001600160a01b03811681036109f5578152602092830192016139db565b9080601f830112156109f5578135613a1f81613905565b92613a2d6040519485613831565b81845260208085019260051b820101918383116109f55760208201905b838210613a5957505050505090565b81356001600160401b0381116109f557602091613a7b8784809488010161399a565b815201910190613a4a565b805180835260209291819084018484015e5f828201840152601f01601f1916010190565b90602080835192838152019201905f5b818110613ac75750505090565b82516001600160a01b0316845260209384019390920191600101613aba565b81601f820112156109f557805190613afd82613854565b92613b0b6040519485613831565b828452602083830101116109f557815f9260208093018386015e8301015290565b51906001600160a01b03821682036109f557565b9080601f830112156109f5578151613b5781613905565b92613b656040519485613831565b81845260208085019260051b8201019283116109f557602001905b828210613b8d5750505090565b60208091613b9a84613b2c565b815201910190613b80565b6020818303126109f5578051906001600160401b0382116109f5570160a0818303126109f5576040519160a083016001600160401b0381118482101761381d5760405281516001600160401b0381116109f55781613c04918401613ae6565b835260208201516001600160401b0381116109f55781613c25918401613b40565b602084015260408201516001600160401b0381116109f55781613c49918401613ae6565b604084015260608201516001600160401b0381116109f55781613c6d918401613ae6565b606084015260808201516001600160401b0381116109f557613c8f9201613b40565b608082015290565b8051821015613cab5760209160051b010190565b634e487b7160e01b5f52603260045260245ffd5b5f19811461374a5760010190565b5f613d009160018060a01b0360035416604051808095819463a9daf6ad60e01b8352602060048401526024830190613a86565b03915afa80156136a3576020915f91613d76575b500180515115613d71575f5f5b82518051821015613d6557613d44906001600160a01b039061037e908490613c97565b613d51575b600101613d21565b90613d5d600191613cbf565b919050613d49565b50509050600754111590565b505f90565b613d8a91503d805f833e6107eb8183613831565b5f613d14565b15613d9757565b60405162461bcd60e51b8152602060048201526016602482015275111a5cdc1d5d1948191bd95cc81b9bdd08195e1a5cdd60521b6044820152606490fd5b8181029291811591840414171561374a57565b9190820180921161374a57565b519081151582036109f557565b6020818303126109f5578051906001600160401b0382116109f5570190610160828203126109f55760405191613e3783613801565b80516001600160401b0381116109f55782613e53918301613ae6565b83526020818101519084015260408101516001600160401b0381116109f55761014092613e81918301613ae6565b6040840152613e9260608201613b2c565b60608401526080810151608084015260a081015160a0840152613eb760c08201613df5565b60c0840152613ec860e08201613df5565b60e0840152613eda6101008201613df5565b610100840152610120810151610120840152015161014082015290565b6020818303126109f5578051906001600160401b0382116109f55701610140818303126109f5576040519161014083016001600160401b0381118482101761381d5760405281516001600160401b0381116109f55781613f58918401613ae6565b8352613f6660208301613b2c565b602084015260408201516001600160401b0381116109f55781613f8a918401613b40565b604084015260608201516001600160401b0381116109f55781613fae918401613ae6565b6060840152608082015160ff811681036109f557608084015260a08201516001600160401b0381116109f55782019080601f830112156109f5578151613ff381613905565b926140016040519485613831565b81845260208085019260051b820101918383116109f55760208201905b838210614066575050505050906101209160a084015260c081015160c084015260e081015160e08401526140556101008201613b2c565b610100840152015161012082015290565b81516001600160401b0381116109f55760209161408887848094880101613ae6565b81520191019061401e565b6020818303126109f5578051906001600160401b0382116109f5570160e0818303126109f5576040519160e083016001600160401b0381118482101761381d576040528151835260208201516001600160401b0381116109f557816140f9918401613ae6565b602084015261410a60408301613b2c565b604084015260608201516001600160401b0381116109f5578161412e918401613ae6565b606084015260808201516001600160401b0381116109f557820181601f820112156109f55780519061415f82613905565b9261416d6040519485613831565b82845260208085019360051b830101918183116109f55760208101935b8385106141c6575050505050608083015260a081015163ffffffff811681036109f55760a08301526141be9060c001613b2c565b60c082015290565b84516001600160401b0381116109f55782016040818503601f1901126109f55760408051929083016001600160401b0381118482101761381d576040526020820151926001600160401b0384116109f55760408361422b886020809881980101613ae6565b835201518382015281520194019361418a565b929190614255602091604086526040860190613a86565b930152565b6001600160a01b039091168152602081019190915263ffffffff909116604082015260600190565b6020818303126109f5578051906001600160401b0382116109f5570181601f820112156109f5578051906142b582613905565b926142c36040519485613831565b82845260208085019360071b830101918183116109f557602001925b8284106142ed575050505090565b6080848303126109f5576040519060808201906001600160401b0382118383101761381d5760809260209260405261432487613b2c565b8152614331838801613b2c565b838201526040870151604082015261434b60608801613df5565b60608201528152019301926142df565b602090604051918183925191829101835e81015f815203902090565b60409194939260608201951515825260208201520152565b91908260809103126109f5578151916020810151916138c0606060408401519301613df5565b5f80546001600160a01b031680614460575b506005546001600160a01b031691826143e1575b50905090565b604051635843905f60e01b81526001600160a01b03909116600482015291602090839060249082905afa9081156136a3575f9161442a575b6144239250613de8565b805f6143db565b90506020823d602011614458575b8161444560209383613831565b810103126109f557614423915190614419565b3d9150614438565b604051630733bdef60e41b81526001600160a01b038416600482015290608090829060249082905afa80156136a3575f905f925f916144c6575b50806144bd575b6144ac575b506143c7565b6144b69250613dd5565b5f806144a6565b508015156144a1565b9150506144eb915060803d6080116144f5575b6144e38183613831565b81019061438f565b909291505f61449a565b503d6144d9565b1561450357565b60405162461bcd60e51b815260206004820152601660248201527513dc9858db19481b585b9859d95c881b9bdd081cd95d60521b6044820152606490fd5b9080602083519182815201916020808360051b8301019401925f915b83831061456c57505050505090565b909192939460208061458a600193601f198682030187528951613a86565b9701930193019193929061455d565b9080602083519182815201916020808360051b8301019401925f915b8383106145c457505050505090565b9091929394601f19828203018352855190602080835192838152019201905f905b80821061460457505050602080600192970193019301919392906145b5565b82516001600160a01b03168452602093840193909201916001909101906145e5565b6020818303126109f5578051906001600160401b0382116109f55701610160818303126109f5576040519161465a83613801565b8151835261466a60208301613b2c565b602084015260408201516001600160401b0381116109f5578161468e918401613ae6565b6040840152606082810151908401526080820151916001600160401b0383116109f5576146c361014092614712948301613ae6565b608085015260a081015160a085015260c081015160c08501526146e860e08201613df5565b60e08501526101008101516101008501526147066101208201613df5565b61012085015201613df5565b61014082015290565b1561472257565b60405162461bcd60e51b8152602060048201526011602482015270105b1c9958591e48199a5b985b1a5e9959607a1b6044820152606490fd5b1561476257565b60405162461bcd60e51b8152602060048201526011602482015270566f74696e67206e6f742061637469766560781b6044820152606490fd5b156147a257565b60405162461bcd60e51b8152602060048201526019602482015278159bdd1a5b99c81c195c9a5bd9081b9bdd08195e1c1a5c9959603a1b6044820152606490fd5b906147fb602091949394604084526040840190613a86565b6001600160a01b03909416910152565b906020828203126109f55781516001600160401b0381116109f5576138c09201613b40565b5f6148639260018060a01b036003541660405180809681946332b8e0c760e21b8352602060048401526024830190613a86565b03915afa9182156136a3575f926148bb575b505f5b82518110156148b4576001600160a01b036148938285613c97565b51166001600160a01b038316146148ac57600101614878565b505050600190565b5050505f90565b6148d09192503d805f833e6103ff8183613831565b905f614875565b6020818303126109f5578051906001600160401b0382116109f55701610180818303126109f5576040519161018083016001600160401b0381118482101761381d576040528151835261492c60208301613b2c565b602084015260408201516001600160401b0381116109f55781614950918401613ae6565b604084015260608201516001600160401b0381116109f55781614974918401613ae6565b606084015260808201516001600160401b0381116109f55781614998918401613ae6565b608084015260a0820151916001600160401b0383116109f5576149c361016092614a14948301613ae6565b60a085015260c081015160c085015260e081015160e08501526149e96101008201613df5565b610100850152610120810151610120850152614a086101408201613df5565b61014085015201613df5565b61016082015290565b15614a2457565b60405162461bcd60e51b8152602060048201526024808201527f41736b417468656e61206170706c69636174696f6e20646f6573206e6f7420656044820152631e1a5cdd60e21b6064820152608490fd5b15614a7c57565b60405162461bcd60e51b815260206004820152601f60248201527f4f6e6c792044414f2063616e2063616c6c20746869732066756e6374696f6e006044820152606490fd5b9081526001600160a01b039182166020820152911660408201526060810191909152901515608082015260a00190565b5f546001600160a01b031680614b8e575b506005546001600160a01b03169081614b1b5750505f90565b604051635843905f60e01b81526001600160a01b03909116600482015290602090829060249082905afa9081156136a3575f91614b5c575b50600954111590565b90506020813d602011614b86575b81614b7760209383613831565b810103126109f557515f614b53565b3d9150614b6a565b604051630733bdef60e41b81526001600160a01b038316600482015290608090829060249082905afa9081156136a3575f905f92614bec575b5081614bdf575b50614bd9575f614b02565b50600190565b905060095411155f614bce565b9050614c07915060803d6080116144f5576144e38183613831565b929150505f614bc7565b6001600160a01b03168015614c5c575f5160206159015f395f51905f5280546001600160a01b0319811683179091556001600160a01b03165f5160206159815f395f51905f525f80a3565b631e4fbdf760e01b5f525f60045260245ffd5b5f5160206159015f395f51905f52546001600160a01b03163303614c8f57565b63118cdaa760e01b5f523360045260245ffd5b908151811015613cab570160200190565b90614cbd82613854565b614cca6040519182613831565b8281528092614cdb601f1991613854565b0190602036910137565b905f198251805b614d42575b505f198114614d3f57614d0381614cb3565b905f5b818110614d14575090925050565b6001906001600160f81b0319614d2a8288614ca2565b51165f1a614d388286614ca2565b5301614d06565b50565b5f19810181811161374a57602d60f81b6001600160f81b0319614d658388614ca2565b511614614d7d575b50801561374a575f190180614cec565b6001949293919493855b8451811015614df557600360fc1b6001600160f81b0319614da88388614ca2565b5116108015614dd4575b614dbe57600101614d87565b5092949193505f5b15614d6d579150505f614cf1565b50603960f81b6001600160f81b0319614ded8388614ca2565b511611614db2565b5092949193614dc6565b905f905f5b8351811015614f3a57602d60f81b6001600160f81b0319614e258387614ca2565b511614614e3457600101614e04565b9091505b8015614f3457614e4781614cb3565b905f5b818110614f09575050614e5e919250615709565b619ce181148015614efd575b15614e7457505f90565b60018103614e8157505f90565b619d2881148015614ef1575b15614e985750600290565b600a8103614ea65750600290565b619d2781148015614ee5575b15614ebd5750600390565b61759e8114908115614ed9575b5015614ed557600390565b5f90565b61a4b19150145f614eca565b5062066eee8114614eb2565b5062aa37dc8114614e8d565b5062aa36a78114614e6a565b6001906001600160f81b0319614f1f8288614ca2565b51165f1a614f2d8286614ca2565b5301614e4a565b505f9150565b5090614e38565b8115614f4b570490565b634e487b7160e01b5f52601260045260245ffd5b9290928215801561513c575b615136576003546040516349868b4160e01b81526020600482015292905f9084906001600160a01b03168180614fa46024820188613a86565b03915afa9283156136a3575f9361511a575b50825115615113575f915f5b8451811015615011576060614fd78287613c97565b510151151587151514614fed575b600101614fc2565b9261500960019160406150008789613c97565b51015190613de8565b939050614fe5565b50929194939094801561510c575f5b83518110156151045780606061503860019387613c97565b510151151587151514806150e6575b615052575b01615020565b6150738361506e6040615065858a613c97565b51015187613dd5565b614f41565b8061507f575b5061504c565b6150a881848060a01b03855416858060a01b03602061509e878c613c97565b51015116906155b0565b828060a01b0360206150ba8489613c97565b51015116905f5160206159215f395f51905f5260206150d88a61435b565b92604051908152a35f615079565b50818060a01b0360206150f98388613c97565b510151161515615047565b505050505050565b5050505050565b9350505050565b61512f9193503d805f833e61349f8183613831565b915f614fb6565b50915050565b506001546001600160a01b031615614f6b565b929092821580156152e7575b615136576003546001600160a01b0316915f61517683615709565b6024604051809681936388fc75f560e01b835260048301525afa9283156136a3575f936152cb575b50825115615113575f915f5b84518110156151f05760606151bf8287613c97565b5101511515871515146151d5575b6001016151aa565b926151e860019160406150008789613c97565b9390506151cd565b50929194939094801561510c575f5b83518110156151045780606061521760019387613c97565b510151151587151514806152ad575b615231575b016151ff565b6152448361506e6040615065858a613c97565b80615250575b5061522b565b61526f81848060a01b03855416858060a01b03602061509e878c613c97565b828060a01b0360206152818489613c97565b51015116905f5160206159215f395f51905f52602061529f8a61435b565b92604051908152a35f61524a565b50818060a01b0360206152c08388613c97565b510151161515615226565b6152e09193503d805f833e61349f8183613831565b915f61519e565b506001546001600160a01b03161561515b565b92909282158015615492575b615136576003546001600160a01b0316915f61532183615709565b6024604051809681936365c5ef1760e11b835260048301525afa9283156136a3575f93615476575b50825115615113575f915f5b845181101561539b57606061536a8287613c97565b510151151587151514615380575b600101615355565b9261539360019160406150008789613c97565b939050615378565b50929194939094801561510c575f5b8351811015615104578060606153c260019387613c97565b51015115158715151480615458575b6153dc575b016153aa565b6153ef8361506e6040615065858a613c97565b806153fb575b506153d6565b61541a81848060a01b03855416858060a01b03602061509e878c613c97565b828060a01b03602061542c8489613c97565b51015116905f5160206159215f395f51905f52602061544a8a61435b565b92604051908152a35f6153f5565b50818060a01b03602061546b8388613c97565b5101511615156153d1565b61548b9193503d805f833e61349f8183613831565b915f615349565b506001546001600160a01b031615615306565b6154ae90614ce5565b6003546040516377e3240760e01b81526020600482015291926001600160a01b0390911691905f82806154e46024820188613a86565b0381865afa9182156136a3575f92615594575b506101008201516001600160a01b0391821691161480615586575b6155215750506138c090614dff565b915f9161012061554a94015191604051809581948293632e68140160e11b84526004840161423e565b03915afa9081156136a35763ffffffff9160a0915f9161556c575b5001511690565b61558091503d805f833e61365c8183613831565b5f615565565b506101208101511515615512565b6155a99192503d805f833e61367f8183613831565b905f6154f7565b5f61560992819260405195602087019263a9059cbb60e01b845260018060a01b031660248801526044870152604486526155eb606487613831565b60018060a01b031694519082865af1615602615873565b90836158a2565b8051908115159182615631575b505061561f5750565b635274afe760e01b5f5260045260245ffd5b81925090602091810103126109f557602061564c9101613df5565b155f80615616565b80156156e95780815f925b6156d557508061566e83614cb3565b92915b61567a57505090565b5f19820191821161374a5781600a820491600a8302838104600a148415171561374a57810390811161374a5760ff1660300160ff811161374a5760f81b6001600160f81b0319165f1a906156ce9085614ca2565b5380615671565b916156e1600a91613cbf565b92048061565f565b506040516156f8604082613831565b60018152600360fc1b602082015290565b905f915f5b81518110156157ab57600360fc1b6001600160f81b031961572f8385614ca2565b5116101580615789575b615746575b60010161570e565b92600a810290808204600a149015171561374a576157648483614ca2565b5160f81c90602f19820191821161374a5760019161578191613de8565b93905061573e565b50603960f81b6001600160f81b03196157a28385614ca2565b51161115615739565b5050565b9081526001600160a01b03909116602082015260400190565b156157cf57565b60405162461bcd60e51b8152602060048201526019602482015278159bdd1a5b99c81c195c9a5bd9081a185cc8195e1c1a5c9959603a1b6044820152606490fd5b6040919493926060820195825260208201520152565b61583e60409295949395606083526060830190613a86565b9460208201520152565b60ff5f5160206159e15f395f51905f525460401c161561586457565b631afcd79f60e31b5f5260045ffd5b3d1561589d573d9061588482613854565b916158926040519384613831565b82523d5f602084013e565b606090565b906158c657508051156158b757805190602001fd5b630a12f52160e11b5f5260045ffd5b815115806158f7575b6158d7575090565b639996b31560e01b5f9081526001600160a01b0391909116600452602490fd5b50803b156158cf56fe9016d09d72d40fdae2fd8ceac6b6234c7706214fd39c1cd1e609a0528c199300d938ce505b0ec3972a4e38680375ecf020ac1ef1b034b8949bb085d64612affeed25bcfa568ce67a8d1dcba7cd4bbb9e104cf89b13efe702b2a371df5d590559360894a13ba1a3210667c828492db98dca3e2076cc3735a920a3ca505d382bbc8be0079c531659141344cd1fd0a4f28419497f9722a3daafe3b4186f6b6457e0bc7cd75a20ee27fd9adebab32041f755214dbc6bffa90cc0225b39da2e5c2d3bb96a6d6fc4275c8ca21896599a9a4c764dd0ba8ea02b114a300018499eb7fa88f0c57e16840df040f15088dc2f81fe391c3923bec73e23a9662efc9c229c6a00a2646970667358221220c2456ea674161e9c3ac9a2c3eec58722c827402809dd2f31072152521b75697264736f6c63430008210033f0c57e16840df040f15088dc2f81fe391c3923bec73e23a9662efc9c229c6a00","linkReferences":{}},"methodIdentifiers":{"UPGRADE_INTERFACE_VERSION()":"ad3cb1cc","accumulatedFees()":"587f5ed7","addMembers(address[],string)":"d3075f2a","addOrUpdateOracle(string[],address[][],string[],string[],address[][])":"23165bb2","addSingleOracle(string,address[],string,string,address[])":"4a9fe8f9","bridge()":"e78cea92","canVote(address)":"adfaa72e","daoContract()":"4a7ffcbc","disputeStartTimes(string)":"6601d962","finalizeSkillVerification(uint256)":"2af7a0b3","genesis()":"a7f0b3de","getOracleActiveMemberCount(string)":"dc2969eb","getOracleMembers(string)":"cae3831c","getUserVotingPower(address)":"0baca2e5","handleAskAthena(address,string,string,string,string)":"7086f548","handleRaiseDispute(string,string,string,uint256,uint256,address)":"144e49b2","handleSubmitSkillVerification(address,string,uint256,string)":"b90efe2e","initialize(address,address,address,address,address)":"1459457a","isOracleActive(string)":"0308b414","isOracleMember(address,string)":"3948e446","jobDisputeCounters(string)":"ba56261e","memberActivityThresholdDays()":"f24b6b37","minOracleMembers()":"0b9abbfa","minStakeRequired()":"502f6826","nowjContract()":"787bb310","oracleManager()":"565d878c","owner()":"8da5cb5b","proxiableUUID()":"52d1902d","removeMemberFromOracle(string,address)":"add6beaf","removeOracle(string[])":"40db1a79","renounceOwnership()":"715018a6","setBridge(address)":"8dd14802","setDAOContract(address)":"425d512a","setGenesis(address)":"eb14b353","setNOWJContract(address)":"059c2080","setOracleManager(address)":"929e2e08","setUSDCToken(address)":"0f5a9d01","settleAskAthena(uint256)":"3c9ce794","settleDispute(string)":"0a8eef76","transferOwnership(address)":"f2fde38b","updateMemberActivityThreshold(uint256)":"ad8d3435","updateMinOracleMembers(uint256)":"4dea6307","updateMinStakeRequired(uint256)":"d93e1184","updateOracleActiveStatus(string)":"ee0a5858","updateVotingPeriod(uint256)":"ef00ef43","upgradeFromDAO(address)":"40634e3b","upgradeToAndCall(address,bytes)":"4f1ef286","usdcToken()":"11eac855","vote(uint8,string,bool,address)":"887e15dc","votingPeriodMinutes()":"f67321c6","withdraw()":"3ccfd60b"},"id":12}