{"abi":[{"type":"constructor","inputs":[],"stateMutability":"nonpayable"},{"type":"function","name":"UPGRADE_INTERFACE_VERSION","inputs":[],"outputs":[{"name":"","type":"string","internalType":"string"}],"stateMutability":"view"},{"type":"function","name":"askAthena","inputs":[{"name":"_description","type":"string","internalType":"string"},{"name":"_hash","type":"string","internalType":"string"},{"name":"_targetOracle","type":"string","internalType":"string"},{"name":"_feeAmount","type":"uint256","internalType":"uint256"},{"name":"_nativeOptions","type":"bytes","internalType":"bytes"}],"outputs":[],"stateMutability":"payable"},{"type":"function","name":"bridge","inputs":[],"outputs":[{"name":"","type":"address","internalType":"contract ILayerZeroBridge"}],"stateMutability":"view"},{"type":"function","name":"cctpSender","inputs":[],"outputs":[{"name":"","type":"address","internalType":"address"}],"stateMutability":"view"},{"type":"function","name":"chainId","inputs":[],"outputs":[{"name":"","type":"uint32","internalType":"uint32"}],"stateMutability":"view"},{"type":"function","name":"claimableAmount","inputs":[{"name":"","type":"string","internalType":"string"},{"name":"","type":"address","internalType":"address"}],"outputs":[{"name":"","type":"uint256","internalType":"uint256"}],"stateMutability":"view"},{"type":"function","name":"disputeFees","inputs":[{"name":"","type":"string","internalType":"string"}],"outputs":[{"name":"totalFees","type":"uint256","internalType":"uint256"},{"name":"totalVotingPowerFor","type":"uint256","internalType":"uint256"},{"name":"totalVotingPowerAgainst","type":"uint256","internalType":"uint256"},{"name":"winningSide","type":"bool","internalType":"bool"},{"name":"isFinalized","type":"bool","internalType":"bool"},{"name":"disputeRaiser","type":"address","internalType":"address"}],"stateMutability":"view"},{"type":"function","name":"emergencyWithdrawUSDT","inputs":[],"outputs":[],"stateMutability":"nonpayable"},{"type":"function","name":"getClaimableAmount","inputs":[{"name":"disputeId","type":"string","internalType":"string"},{"name":"claimAddress","type":"address","internalType":"address"}],"outputs":[{"name":"","type":"uint256","internalType":"uint256"}],"stateMutability":"view"},{"type":"function","name":"getContractBalance","inputs":[],"outputs":[{"name":"","type":"uint256","internalType":"uint256"}],"stateMutability":"view"},{"type":"function","name":"getDisputeInfo","inputs":[{"name":"disputeId","type":"string","internalType":"string"}],"outputs":[{"name":"totalFees","type":"uint256","internalType":"uint256"},{"name":"totalVotingPowerFor","type":"uint256","internalType":"uint256"},{"name":"totalVotingPowerAgainst","type":"uint256","internalType":"uint256"},{"name":"winningSide","type":"bool","internalType":"bool"},{"name":"isFinalized","type":"bool","internalType":"bool"},{"name":"voteCount","type":"uint256","internalType":"uint256"}],"stateMutability":"view"},{"type":"function","name":"handleFinalizeDisputeWithVotes","inputs":[{"name":"disputeId","type":"string","internalType":"string"},{"name":"winningSide","type":"bool","internalType":"bool"},{"name":"votesFor","type":"uint256","internalType":"uint256"},{"name":"votesAgainst","type":"uint256","internalType":"uint256"},{"name":"voters","type":"address[]","internalType":"address[]"},{"name":"claimAddresses","type":"address[]","internalType":"address[]"},{"name":"votingPowers","type":"uint256[]","internalType":"uint256[]"},{"name":"voteDirections","type":"bool[]","internalType":"bool[]"}],"outputs":[],"stateMutability":"nonpayable"},{"type":"function","name":"hasClaimed","inputs":[{"name":"","type":"string","internalType":"string"},{"name":"","type":"address","internalType":"address"}],"outputs":[{"name":"","type":"bool","internalType":"bool"}],"stateMutability":"view"},{"type":"function","name":"initialize","inputs":[{"name":"_owner","type":"address","internalType":"address"},{"name":"_usdtToken","type":"address","internalType":"address"},{"name":"_chainId","type":"uint32","internalType":"uint32"},{"name":"_bridge","type":"address","internalType":"address"},{"name":"_cctpSender","type":"address","internalType":"address"},{"name":"_nativeAthenaRecipient","type":"address","internalType":"address"}],"outputs":[],"stateMutability":"nonpayable"},{"type":"function","name":"isCallerInvolvedInJob","inputs":[{"name":"_jobId","type":"string","internalType":"string"},{"name":"_caller","type":"address","internalType":"address"}],"outputs":[{"name":"","type":"bool","internalType":"bool"}],"stateMutability":"view"},{"type":"function","name":"jobContract","inputs":[],"outputs":[{"name":"","type":"address","internalType":"contract ILocalOpenWorkJobContract"}],"stateMutability":"view"},{"type":"function","name":"jobDisputeExists","inputs":[{"name":"","type":"string","internalType":"string"}],"outputs":[{"name":"","type":"bool","internalType":"bool"}],"stateMutability":"view"},{"type":"function","name":"minDisputeFee","inputs":[],"outputs":[{"name":"","type":"uint256","internalType":"uint256"}],"stateMutability":"view"},{"type":"function","name":"nativeAthenaRecipient","inputs":[],"outputs":[{"name":"","type":"address","internalType":"address"}],"stateMutability":"view"},{"type":"function","name":"nativeChainDomain","inputs":[],"outputs":[{"name":"","type":"uint32","internalType":"uint32"}],"stateMutability":"view"},{"type":"function","name":"owner","inputs":[],"outputs":[{"name":"","type":"address","internalType":"address"}],"stateMutability":"view"},{"type":"function","name":"proxiableUUID","inputs":[],"outputs":[{"name":"","type":"bytes32","internalType":"bytes32"}],"stateMutability":"view"},{"type":"function","name":"quoteSingleChain","inputs":[{"name":"","type":"string","internalType":"string"},{"name":"_payload","type":"bytes","internalType":"bytes"},{"name":"_options","type":"bytes","internalType":"bytes"}],"outputs":[{"name":"fee","type":"uint256","internalType":"uint256"}],"stateMutability":"view"},{"type":"function","name":"raiseDispute","inputs":[{"name":"_jobId","type":"string","internalType":"string"},{"name":"_disputeHash","type":"string","internalType":"string"},{"name":"_oracleName","type":"string","internalType":"string"},{"name":"_feeAmount","type":"uint256","internalType":"uint256"},{"name":"_disputedAmount","type":"uint256","internalType":"uint256"},{"name":"_nativeOptions","type":"bytes","internalType":"bytes"}],"outputs":[],"stateMutability":"payable"},{"type":"function","name":"renounceOwnership","inputs":[],"outputs":[],"stateMutability":"nonpayable"},{"type":"function","name":"setBridge","inputs":[{"name":"_bridge","type":"address","internalType":"address"}],"outputs":[],"stateMutability":"nonpayable"},{"type":"function","name":"setCCTPSender","inputs":[{"name":"_cctpSender","type":"address","internalType":"address"}],"outputs":[],"stateMutability":"nonpayable"},{"type":"function","name":"setJobContract","inputs":[{"name":"_jobContract","type":"address","internalType":"address"}],"outputs":[],"stateMutability":"nonpayable"},{"type":"function","name":"setMinDisputeFee","inputs":[{"name":"_minFee","type":"uint256","internalType":"uint256"}],"outputs":[],"stateMutability":"nonpayable"},{"type":"function","name":"setNativeAthenaRecipient","inputs":[{"name":"_recipient","type":"address","internalType":"address"}],"outputs":[],"stateMutability":"nonpayable"},{"type":"function","name":"setNativeChainDomain","inputs":[{"name":"_domain","type":"uint32","internalType":"uint32"}],"outputs":[],"stateMutability":"nonpayable"},{"type":"function","name":"submitSkillVerification","inputs":[{"name":"_applicationHash","type":"string","internalType":"string"},{"name":"_feeAmount","type":"uint256","internalType":"uint256"},{"name":"_targetOracleName","type":"string","internalType":"string"},{"name":"_nativeOptions","type":"bytes","internalType":"bytes"}],"outputs":[],"stateMutability":"payable"},{"type":"function","name":"transferOwnership","inputs":[{"name":"newOwner","type":"address","internalType":"address"}],"outputs":[],"stateMutability":"nonpayable"},{"type":"function","name":"upgradeFromDAO","inputs":[{"name":"newImplementation","type":"address","internalType":"address"}],"outputs":[],"stateMutability":"nonpayable"},{"type":"function","name":"upgradeToAndCall","inputs":[{"name":"newImplementation","type":"address","internalType":"address"},{"name":"data","type":"bytes","internalType":"bytes"}],"outputs":[],"stateMutability":"payable"},{"type":"function","name":"usdtToken","inputs":[],"outputs":[{"name":"","type":"address","internalType":"contract IERC20"}],"stateMutability":"view"},{"type":"function","name":"withdraw","inputs":[],"outputs":[],"stateMutability":"nonpayable"},{"type":"event","name":"AthenaAsked","inputs":[{"name":"caller","type":"address","indexed":true,"internalType":"address"},{"name":"targetOracle","type":"string","indexed":false,"internalType":"string"},{"name":"feeAmount","type":"uint256","indexed":false,"internalType":"uint256"}],"anonymous":false},{"type":"event","name":"BridgeSet","inputs":[{"name":"bridge","type":"address","indexed":true,"internalType":"address"}],"anonymous":false},{"type":"event","name":"CCTPSenderSet","inputs":[{"name":"cctpSender","type":"address","indexed":true,"internalType":"address"}],"anonymous":false},{"type":"event","name":"DisputeFeesFinalized","inputs":[{"name":"disputeId","type":"string","indexed":true,"internalType":"string"},{"name":"winningSide","type":"bool","indexed":false,"internalType":"bool"},{"name":"totalFees","type":"uint256","indexed":false,"internalType":"uint256"}],"anonymous":false},{"type":"event","name":"DisputeRaised","inputs":[{"name":"caller","type":"address","indexed":true,"internalType":"address"},{"name":"jobId","type":"string","indexed":false,"internalType":"string"},{"name":"feeAmount","type":"uint256","indexed":false,"internalType":"uint256"}],"anonymous":false},{"type":"event","name":"FeeRoutedToNative","inputs":[{"name":"feeAmount","type":"uint256","indexed":false,"internalType":"uint256"},{"name":"nativeRecipient","type":"address","indexed":true,"internalType":"address"}],"anonymous":false},{"type":"event","name":"FeesClaimed","inputs":[{"name":"disputeId","type":"string","indexed":true,"internalType":"string"},{"name":"claimAddress","type":"address","indexed":true,"internalType":"address"},{"name":"amount","type":"uint256","indexed":false,"internalType":"uint256"}],"anonymous":false},{"type":"event","name":"FeesWithdrawn","inputs":[{"name":"owner","type":"address","indexed":true,"internalType":"address"},{"name":"amount","type":"uint256","indexed":false,"internalType":"uint256"}],"anonymous":false},{"type":"event","name":"Initialized","inputs":[{"name":"version","type":"uint64","indexed":false,"internalType":"uint64"}],"anonymous":false},{"type":"event","name":"JobContractSet","inputs":[{"name":"jobContract","type":"address","indexed":true,"internalType":"address"}],"anonymous":false},{"type":"event","name":"MinDisputeFeeSet","inputs":[{"name":"newMinFee","type":"uint256","indexed":false,"internalType":"uint256"}],"anonymous":false},{"type":"event","name":"NativeAthenaRecipientSet","inputs":[{"name":"recipient","type":"address","indexed":true,"internalType":"address"}],"anonymous":false},{"type":"event","name":"NativeChainDomainSet","inputs":[{"name":"domain","type":"uint32","indexed":false,"internalType":"uint32"}],"anonymous":false},{"type":"event","name":"OwnershipTransferred","inputs":[{"name":"previousOwner","type":"address","indexed":true,"internalType":"address"},{"name":"newOwner","type":"address","indexed":true,"internalType":"address"}],"anonymous":false},{"type":"event","name":"SkillVerificationSubmitted","inputs":[{"name":"caller","type":"address","indexed":true,"internalType":"address"},{"name":"targetOracleName","type":"string","indexed":false,"internalType":"string"},{"name":"feeAmount","type":"uint256","indexed":false,"internalType":"uint256"}],"anonymous":false},{"type":"event","name":"Upgraded","inputs":[{"name":"implementation","type":"address","indexed":true,"internalType":"address"}],"anonymous":false},{"type":"event","name":"VoteRecorded","inputs":[{"name":"disputeId","type":"string","indexed":true,"internalType":"string"},{"name":"voter","type":"address","indexed":true,"internalType":"address"},{"name":"claimAddress","type":"address","indexed":true,"internalType":"address"},{"name":"votingPower","type":"uint256","indexed":false,"internalType":"uint256"},{"name":"voteFor","type":"bool","indexed":false,"internalType":"bool"}],"anonymous":false},{"type":"error","name":"AddressEmptyCode","inputs":[{"name":"target","type":"address","internalType":"address"}]},{"type":"error","name":"AddressInsufficientBalance","inputs":[{"name":"account","type":"address","internalType":"address"}]},{"type":"error","name":"ERC1967InvalidImplementation","inputs":[{"name":"implementation","type":"address","internalType":"address"}]},{"type":"error","name":"ERC1967NonPayable","inputs":[]},{"type":"error","name":"FailedInnerCall","inputs":[]},{"type":"error","name":"InvalidInitialization","inputs":[]},{"type":"error","name":"NotInitializing","inputs":[]},{"type":"error","name":"OwnableInvalidOwner","inputs":[{"name":"owner","type":"address","internalType":"address"}]},{"type":"error","name":"OwnableUnauthorizedAccount","inputs":[{"name":"account","type":"address","internalType":"address"}]},{"type":"error","name":"ReentrancyGuardReentrantCall","inputs":[]},{"type":"error","name":"SafeERC20FailedOperation","inputs":[{"name":"token","type":"address","internalType":"address"}]},{"type":"error","name":"UUPSUnauthorizedCallContext","inputs":[]},{"type":"error","name":"UUPSUnsupportedProxiableUUID","inputs":[{"name":"slot","type":"bytes32","internalType":"bytes32"}]}],"bytecode":{"object":"0x60a080604052346100c957306080525f5160206133305f395f51905f525460ff8160401c166100ba576002600160401b03196001600160401b03821601610067575b60405161326290816100ce8239608051818181611c6801528181611d0c015261209c0152f35b6001600160401b0319166001600160401b039081175f5160206133305f395f51905f525581527fc7f505b2f371ae2175ee4913f4499e1f2633a7b5936321eed1cdaeb6115181d290602090a15f80610041565b63f92ee8a960e01b5f5260045ffd5b5f80fdfe60806040526004361015610011575f80fd5b5f5f3560e01c80632dcd8c5e1461238a5780633ccfd60b146122f95780633cff3549146122ac57806340634e3b1461204f57806340fa717d14611f955780634157fdbf14611f6c5780634e80f72014611f115780634f1ef28614611cbc57806352d1902d14611c555780635bb11f1614611c375780636f9fb98a14611be3578063715018a614611b8d578063739f834d14611b645780638b46e627146119415780638da5cb5b1461190c5780638dd148021461185d5780638e2102c61461183b57806391f6afbe146116005780639a8a0592146115d95780639f24fda014611590578063a98ad46c14611569578063abccebf914611386578063ad3cb1cc14611339578063af076fed14611315578063afd86a76146112ec578063b3f4b3eb146112c5578063b5b0c44b14611227578063ba63e90314610a5d578063ca4256591461093f578063d100572314610891578063d4daf73614610708578063e78cea92146106df578063ec884a161461064a578063f25089ae146105cc578063f2fde38b1461059f578063f93f1da71461026e5763fad58b21146101b1575f80fd5b3461026b57602036600319011261026b576101ca61247c565b6101d2612d79565b6001600160a01b0316801561021a57600180546001600160a01b031916821790557f304494bf425d372cd4944eb07ea90d9dc4c10a7b83cf5963382ef35e5220974f8280a280f35b60405162461bcd60e51b815260206004820152602360248201527f4a6f6220636f6e747261637420616464726573732063616e6e6f74206265207a60448201526265726f60e81b6064820152608490fd5b80fd5b5060c036600319011261026b576004356001600160401b03811161059b5761029a90369060040161245e565b6024356001600160401b03811161054a576102b990369060040161245e565b826044356001600160401b03811161059b576102d990369060040161245e565b606435929060a4356001600160401b038111610597576102fd9036906004016124d3565b9092610307612dac565b6103128615156125a9565b600154610329906001600160a01b03161515612769565b84546040516323b872dd60e01b8152919060209083906001600160a01b031681898161035a8d303360048501612617565b03925af1801561058c5761043e9461038061045092610472958a9161055d575b50612639565b8960036040516020818185519501948086835e6006908201908152030190208b8155600181018b9055600281018b90550180546001600160b01b0319163360101b62010000600160b01b03161790556040518b51909160209183918190835e81016005815203019020600160ff198254161790556103fd89612efd565b60405195869360e0602086015261042c61041a6101008701612d5a565b868103601f190160408801528d612500565b858103601f1901606087015290612500565b838103601f1901608085015290612500565b8760a083015260843560c08301523360e083015203601f1981018452836123d6565b6002546001600160a01b0316803b15610559576104c685936104d860405196879586948594636d42e1e360e01b8652606060048701526104b460648701612d5a565b86810360031901602488015290612500565b84810360031901604486015291612698565b039134905af1801561054e57610535575b505061051e7fd4882c6b71dfbb8df0a01fa4cd97676f243a56dd525df6b891b2e1700e514e89916040519182913395836126b8565b0390a260015f5160206131ed5f395f51905f525580f35b8161053f916123d6565b61054a57825f6104e9565b8280fd5b6040513d84823e3d90fd5b8480fd5b61057f915060203d602011610585575b61057781836123d6565b8101906125ff565b5f61037a565b503d61056d565b6040513d88823e3d90fd5b8380fd5b5080fd5b503461026b57602036600319011261026b576105c96105bc61247c565b6105c4612d79565b612cfc565b80f35b503461026b57602036600319011261026b5760043563ffffffff81169081810361054a577fb73aa8e8870de23aa75f8a355dcc534d3491b98c4c9f4e83e26114ffffd943df9160209161061d612d79565b6004805463ffffffff60a01b191660a09290921b63ffffffff60a01b16919091179055604051908152a180f35b503461026b57602036600319011261026b57600435906001600160401b03821161026b5760c0602080610680366004870161245e565b604051928184925191829101835e8101600681520301902080549060ff60018201549160028101546004600383015492015493604051958652602086015260408501528181161515606085015260081c161515608083015260a0820152f35b503461026b578060031936011261026b576002546040516001600160a01b039091168152602090f35b503461026b578060031936011261026b57610721612d79565b80546040516370a0823160e01b81523060048201526001600160a01b0390911690602081602481855afa908115610886578391610850575b50801561080d575f51602061316d5f395f51905f525460405163a9059cbb60e01b602082019081526107c99386938493916107b49183916107a6916001600160a01b031660248401612ee2565b03601f1981018352826123d6565b519082865af16107c26130df565b908361310e565b80519081151591826107f2575b50506107e0575080f35b635274afe760e01b8252600452602490fd5b61080592506020809183010191016125ff565b155f806107d6565b60405162461bcd60e51b815260206004820152601b60248201527a4e6f20555344542062616c616e636520746f20776974686472617760281b6044820152606490fd5b90506020813d60201161087e575b8161086b602093836123d6565b8101031261087a57515f610759565b5f80fd5b3d915061085e565b6040513d85823e3d90fd5b503461026b57602036600319011261026b576108ab61247c565b6108b3612d79565b6001600160a01b031680156108fb57600480546001600160a01b031916821790557f6961ee6ae730ac42dcb94b3070d1a514eaca696d1f90e5ff78345e8a81101d698280a280f35b606460405162461bcd60e51b815260206004820152602060248201527f526563697069656e742063616e6e6f74206265207a65726f20616464726573736044820152fd5b503461026b57606036600319011261026b576004356001600160401b03811161059b576109709036906004016124d3565b50506024356001600160401b03811161059b576109919036906004016124d3565b9091906044356001600160401b03811161054a576020916109b96109f09236906004016124d3565b959091610a0260018060a01b036002541693604051988996879586956376fc7a2d60e11b8752604060048801526044870191612698565b84810360031901602486015291612698565b03915afa908115610a515790610a1e575b602090604051908152f35b506020813d602011610a49575b81610a38602093836123d6565b8101031261087a5760209051610a13565b3d9150610a2b565b604051903d90823e3d90fd5b503461026b5761010036600319011261026b576004356001600160401b03811161059b57610a8f90369060040161245e565b9060243590811515820361026b576084356001600160401b03811161059b57610abc90369060040161253b565b9260a4356001600160401b03811161054a57610adc90369060040161253b565b60c435929091906001600160401b03841161026b573660238501121561026b57836004013594610b0b86612524565b94610b1960405196876123d6565b868652602086016024819860051b8301019136831161055957602401905b82821061121757505060e4359290506001600160401b03831161026b573660238401121561026b57826004013591610b6e83612524565b93610b7c60405195866123d6565b83855260208501906024829560051b8201019036821161055957602401915b8183106111fa5750506002546001600160a01b0316330390506111aa57604051855190602081818901938085835e81016006815203019020541561116c5760ff60036040516020818a518087835e81016006815203019020015460081c1661112b578951875181149081611120575b81611115575b50156110d8576020604051809288518091835e810160068152030190209260038401610c4883829060ff801983541691151516179055565b805461ff00191661010017905560443560018501556064356002850155825b8a51811015610e4a576001600160a01b03610c82828d6128cf565b51166001600160a01b03610c96838b6128cf565b511690610ca3838c6128cf565b51610cae848a6128cf565b516040519290151590608084016001600160401b03811185821017610e36576040528352602083019384526040830191825260608301526004880154600160401b811015610e2257600181018060048b0155811015610e0e577f55232af5024f9a9ce9739cb45d591dc30a5b1e7692674071eba360a437f674d58f8b8f958f958f9599610dec8f8f96610dc1849d60019f6060610dfc99610df399600393602060409f60048d9b018152209060021b019460018060a01b0360018060a01b038451161660018060a01b031987541617865560018060a01b03905116600186019060018060a01b031660018060a01b03198254161790555160028501550151151591019060ff801983541691151516179055565b610dd1828f8060a01b03926128cf565b511699610de4828f8060a01b03926128cf565b51169a6128cf565b51936128cf565b51151594612c80565b9382519182526020820152a401610c67565b634e487b7160e01b88526032600452602488fd5b634e487b7160e01b88526041600452602488fd5b634e487b7160e01b8a52604160045260248afd5b509093888691898c95996004880154610f13575b505050505050508360018060a01b036001541680610eb9575b50507ff199604b88d81518438acbbc2f5612d9a758d3882aa74a50bffb25934aafa77a91610ea86040925494612c80565b93825191151582526020820152a280f35b803b1561059b57816040518092636721131360e11b825260406004830152818381610ee7604482018c612500565b8a1515602483015203925af1801561054e5715610e775781610f08916123d6565b610597578385610e77565b906020610f816101209796959493610f6f8e9a610f308d54612efd565b610f5d8d5499610f4b6040519d8e6101008a82015201612c9c565b8d8103601f190160408f015290612500565b8b8103601f190160608d015290612cc0565b898103601f190160808b015290612cc0565b878103601f190160a0890152915180835291019290875b8181106110bf57505050602090601f198684030160c08701525191828152019290855b8181106110a45750505085151560e0840152610100830152819003601f1981018252610fe790826123d6565b60405190600160f01b602083015262030d4060228301526022825261100d6042836123d6565b6002546001600160a01b031691823b15610597576110769261106485809460405196879586948593636d42e1e360e01b85526060600486015261105260648601612c9c565b85810360031901602487015290612500565b83810360031901604485015290612500565b03925af1801561054e5761108f575b8481808080610e5e565b81611099916123d6565b610597578385611085565b8251151585528a965060209485019490920191600101610fbb565b825185528c985060209485019490920191600101610f98565b60405162461bcd60e51b8152602060048201526015602482015274082e4e4c2f240d8cadccee8d040dad2e6dac2e8c6d605b1b6044820152606490fd5b90508551145f610c10565b895181149150610c0a565b60405162461bcd60e51b8152602060048201526019602482015278111a5cdc1d5d1948185b1c9958591e48199a5b985b1a5e9959603a1b6044820152606490fd5b60405162461bcd60e51b8152602060048201526016602482015275111a5cdc1d5d1948191bd95cc81b9bdd08195e1a5cdd60521b6044820152606490fd5b60405162461bcd60e51b815260206004820152602260248201527f4f6e6c79206272696467652063616e2063616c6c20746869732066756e63746960448201526137b760f11b6064820152608490fd5b8235801515810361121357815260209283019201610b9b565b8580fd5b8135815260209182019101610b37565b503461026b57602036600319011261026b57600435906001600160401b03821161026b5760c060208061125d366004870161245e565b604051928184925191829101835e8101600681520301902080549060018101549060036002820154910154916040519384526020840152604083015260ff81161515606083015260ff8160081c161515608083015260018060a01b039060101c1660a0820152f35b503461026b578060031936011261026b57602063ffffffff60045460a01c16604051908152f35b503461026b578060031936011261026b576001546040516001600160a01b039091168152602090f35b503461026b57602061132f61132936612492565b906128f7565b6040519015158152f35b503461026b578060031936011261026b575061138260405161135c6040826123d6565b60058152640352e302e360dc1b6020820152604051918291602083526020830190612500565b0390f35b50608036600319011261026b576004356001600160401b03811161059b576113b290369060040161245e565b602435826044356001600160401b03811161059b576113d590369060040161245e565b926064356001600160401b03811161054a576113f59036906004016124d3565b611400929192612dac565b61140b8515156125a9565b83546040516323b872dd60e01b8152929060209084906001600160a01b031681888161143c8c303360048501612617565b03925af190811561155e5761145e6114c19261149b95889161055d5750612639565b61146787612efd565b6114b360405194859260a0602085015261148360c0850161273f565b336040860152848103601f1901606086015290612500565b886080840152601f198382030160a084015289612500565b03601f1981018452836123d6565b6002546001600160a01b0316803b15610559576104c6859361150360405196879586948594636d42e1e360e01b8652606060048701526104b46064870161273f565b039134905af1801561054e57611549575b505061051e7f57a19a14e05f795127118ced839213d8dc4e0ba006d3f26bdaa6326ece9780c1916040519182913395836126b8565b81611553916123d6565b61054a57825f611514565b6040513d87823e3d90fd5b503461026b578060031936011261026b57546040516001600160a01b039091168152602090f35b503461026b576020806115a236612492565b9290604051928184925191829101835e810160078152030190209060018060a01b03165f52602052602060405f2054604051908152f35b503461026b578060031936011261026b57602063ffffffff60025460a01c16604051908152f35b503461026b5760c036600319011261026b5761161a61247c565b6024356001600160a01b0381169081900361054a5760443563ffffffff81168103610597576064356001600160a01b03811690819003610559576084356001600160a01b03811692908390036112135760a4356001600160a01b0381169490859003611837575f51602061320d5f395f51905f5254604081901c60ff161596906001600160401b0381168015908161182f575b6001149081611825575b15908161181c575b5061180d576001600160401b031981166001175f51602061320d5f395f51905f525561171e9190886117e5575b506116f56130b4565b6116fd6130b4565b60015f5160206131ed5f395f51905f52556117166130b4565b6105c46130b4565b6117266130b4565b86546001600160a01b0319908116919091178755600280546001600160c01b031990811660a09490941b63ffffffff60a01b1693909317939093179092556003805490921692909217905560048054909116909117600360a01b1790556302faf0806009556117925780f35b60ff60401b195f51602061320d5f395f51905f5254165f51602061320d5f395f51905f52557fc7f505b2f371ae2175ee4913f4499e1f2633a7b5936321eed1cdaeb6115181d2602060405160018152a180f35b6001600160481b0319166001600160401b01175f51602061320d5f395f51905f52555f6116ec565b63f92ee8a960e01b8952600489fd5b9050155f6116bf565b303b1591506116b7565b8991506116ad565b8680fd5b503461026b57602061185561184f36612492565b906126d4565b604051908152f35b503461026b57602036600319011261026b5761187761247c565b61187f612d79565b6001600160a01b031680156118c757600280546001600160a01b031916821790557fa49730bff544fd0b716395c592e39c6fd2d2481a19b9229b5b240483db95a4958280a280f35b60405162461bcd60e51b815260206004820152601d60248201527f42726964676520616464726573732063616e6e6f74206265207a65726f0000006044820152606490fd5b503461026b578060031936011261026b575f51602061316d5f395f51905f52546040516001600160a01b039091168152602090f35b5060a036600319011261026b576004356001600160401b03811161059b5761196d90369060040161245e565b6024356001600160401b03811161054a5761198c90369060040161245e565b826044356001600160401b03811161059b576119ac90369060040161245e565b9260643592608435906001600160401b038211610597576119d2849236906004016124d3565b9190936119dd612dac565b6119e88715156125a9565b6119f187612de4565b916020611a2060018060a01b038754168a6040519889809481936323b872dd60e01b8352303360048501612617565b03925af1928315611b5957611aaa611a986114b393611a4c611abc97611a869a8d9161055d5750612639565b611a558c612efd565b60405198899660c06020890152611a6e60e0890161267c565b3360408a0152888103601f190160608a015290612500565b868103601f1901608088015290612500565b848103601f190160a08601528b612500565b838103601f190160c085015290612500565b6002546001600160a01b0316803b15610559576104c68593611afe60405196879586948594636d42e1e360e01b8652606060048701526104b46064870161267c565b039134905af1801561054e57611b44575b505061051e7f197d18d93525bf8291b812976e0bee94d5ac86a17b09253f33d1d5a4cd5fa630916040519182913395836126b8565b81611b4e916123d6565b61054a57825f611b0f565b6040513d89823e3d90fd5b503461026b578060031936011261026b576003546040516001600160a01b039091168152602090f35b503461026b578060031936011261026b57611ba6612d79565b5f51602061316d5f395f51905f5280546001600160a01b0319811690915581906001600160a01b03165f5160206131ad5f395f51905f528280a380f35b503461026b578060031936011261026b5780546040516370a0823160e01b81523060048201529190602090839060249082906001600160a01b03165afa908115610a515790610a1e57602090604051908152f35b503461026b578060031936011261026b576020600954604051908152f35b503461026b578060031936011261026b577f00000000000000000000000000000000000000000000000000000000000000006001600160a01b03163003611cad5760206040515f51602061318d5f395f51905f528152f35b63703e46dd60e11b8152600490fd5b50604036600319011261026b57611cd161247c565b906024356001600160401b03811161059b573660238201121561059b57611d02903690602481600401359101612428565b6001600160a01b037f000000000000000000000000000000000000000000000000000000000000000016308114908115611eef575b50611ee0575f51602061316d5f395f51905f52546001600160a01b031633148015611ecc575b15611e90576040516352d1902d60e01b8152926001600160a01b0381169190602085600481865afa80958596611e5c575b50611da757634c9c8ce360e01b84526004839052602484fd5b9091845f51602061318d5f395f51905f528103611e4a5750813b15611e38575f51602061318d5f395f51905f5280546001600160a01b031916821790555f5160206131cd5f395f51905f528480a28151839015611e1e5780836020611e1a95519101845af4611e146130df565b9161310e565b5080f35b50505034611e295780f35b63b398979f60e01b8152600490fd5b634c9c8ce360e01b8452600452602483fd5b632a87526960e21b8552600452602484fd5b9095506020813d602011611e88575b81611e78602093836123d6565b810103126105595751945f611d8e565b3d9150611e6b565b60405162461bcd60e51b8152602060048201526014602482015273556e617574686f72697a6564207570677261646560601b6044820152606490fd5b506002546001600160a01b03163314611d5d565b63703e46dd60e11b8252600482fd5b5f51602061318d5f395f51905f52546001600160a01b0316141590505f611d37565b503461026b57602036600319011261026b57600435906001600160401b03821161026b57602060ff8180611f48366004880161245e565b604051928184925191829101835e8101600581520301902054166040519015158152f35b503461026b578060031936011261026b576004546040516001600160a01b039091168152602090f35b503461026b57602036600319011261026b57611faf61247c565b611fb7612d79565b6001600160a01b03168015611fff57600380546001600160a01b031916821790557f9169e8097bc3750f65521efae5a15c05421056ac5925f9aee23921dc92fd19f28280a280f35b60405162461bcd60e51b815260206004820152602260248201527f434354502073656e6465722063616e6e6f74206265207a65726f206164647265604482015261737360f01b6064820152608490fd5b503461087a57602036600319011261087a5761206961247c565b6002546001600160a01b0316903382900361226d576020906040519261208f83856123d6565b5f84526001600160a01b037f00000000000000000000000000000000000000000000000000000000000000001630811490811561224b575b5061223c575f51602061316d5f395f51905f52546001600160a01b03163314908115612232575b50156121f6576040516352d1902d60e01b81526001600160a01b03821693908381600481885afa5f91816121c7575b5061213657634c9c8ce360e01b86526004859052602486fd5b93845f51602061318d5f395f51905f528796036121b55750823b156121a3575f51602061318d5f395f51905f5280546001600160a01b031916821790555f5160206131cd5f395f51905f525f80a28051156121a1578381611e1a948293519101845af4611e146130df565b005b634c9c8ce360e01b5f5260045260245ffd5b632a87526960e21b5f5260045260245ffd5b9091508481813d83116121ef575b6121df81836123d6565b8101031261087a5751905f61211d565b503d6121d5565b60405162461bcd60e51b8152600481018390526014602482015273556e617574686f72697a6564207570677261646560601b6044820152606490fd5b905033145f6120ee565b63703e46dd60e11b5f5260045ffd5b5f51602061318d5f395f51905f52546001600160a01b0316141590505f6120c7565b60405162461bcd60e51b81526020600482015260176024820152764f6e6c79206272696467652063616e207570677261646560481b6044820152606490fd5b3461087a576020806122bd36612492565b9290604051928184925191829101835e810160088152030190209060018060a01b03165f52602052602060ff60405f2054166040519015158152f35b3461087a575f36600319011261087a57612311612d79565b47801561234c575f51602061316d5f395f51905f52545f918291829182916001600160a01b031682f11561234157005b6040513d5f823e3d90fd5b60405162461bcd60e51b81526020600482015260166024820152754e6f2062616c616e636520746f20776974686472617760501b6044820152606490fd5b3461087a57602036600319011261087a577f17ae1dabd8883d761135b7f80925a40a4ea0f01e7cd58ecfcb80cc2eac048c7c60206004356123c9612d79565b80600955604051908152a1005b601f909101601f19168101906001600160401b038211908210176123f957604052565b634e487b7160e01b5f52604160045260245ffd5b6001600160401b0381116123f957601f01601f191660200190565b9291926124348261240d565b9161244260405193846123d6565b82948184528183011161087a578281602093845f960137010152565b9080601f8301121561087a5781602061247993359101612428565b90565b600435906001600160a01b038216820361087a57565b604060031982011261087a57600435906001600160401b03821161087a576124bc9160040161245e565b906024356001600160a01b038116810361087a5790565b9181601f8401121561087a578235916001600160401b03831161087a576020838186019501011161087a57565b805180835260209291819084018484015e5f828201840152601f01601f1916010190565b6001600160401b0381116123f95760051b60200190565b9080601f8301121561087a5781359061255382612524565b9261256160405194856123d6565b82845260208085019360051b82010191821161087a57602001915b8183106125895750505090565b82356001600160a01b038116810361087a5781526020928301920161257c565b156125b057565b60405162461bcd60e51b815260206004820152602160248201527f46656520616d6f756e74206d7573742062652067726561746572207468616e206044820152600360fc1b6064820152608490fd5b9081602091031261087a5751801515810361087a5790565b6001600160a01b03918216815291166020820152604081019190915260600190565b1561264057565b60405162461bcd60e51b81526020600482015260146024820152731554d115081d1c985b9cd9995c8819985a5b195960621b6044820152606490fd5b600981526861736b417468656e6160b81b602082015260400190565b908060209392818452848401375f828201840152601f01601f1916010190565b9291906126cf602091604086526040860190612500565b930152565b60405190805191602081818401948086835e8101600881520301902060018060a01b0384165f5260205260ff60405f20541661273857602090604051928391518091835e810160078152030190209060018060a01b03165f5260205260405f205490565b5050505f90565b601781527639bab136b4ba29b5b4b6362b32b934b334b1b0ba34b7b760491b602082015260400190565b1561277057565b60405162461bcd60e51b8152602060048201526014602482015273129bd88818dbdb9d1c9858dd081b9bdd081cd95d60621b6044820152606490fd5b81601f8201121561087a578051906127c38261240d565b926127d160405194856123d6565b8284526020838301011161087a57815f9260208093018386015e8301015290565b51906001600160a01b038216820361087a57565b81601f8201121561087a5780519061281d82612524565b9261282b60405194856123d6565b82845260208085019360051b8301019181831161087a5760208101935b83851061285757505050505090565b84516001600160401b03811161087a5782016040818503601f19011261087a5760408051929083016001600160401b038111848210176123f9576040526020820151926001600160401b03841161087a576040836128bc8860208098819801016127ac565b8352015183820152815201940193612848565b80518210156128e35760209160051b010190565b634e487b7160e01b5f52603260045260245ffd5b60015461293892915f916001600160a01b0316612915811515612769565b60405180809681946377e3240760e01b8352602060048401526024830190612500565b03915afa918215612341575f92612a06575b50815151156129865760208201516001600160a01b039182169116811480156129ef575b6129e857608082015160048110156129d4571561298c575b50505f90565b5f5b604083015180518210156129c95782906001600160a01b03906129b29084906128cf565b5116146129c15760010161298e565b505050600190565b505050505f80612986565b634e487b7160e01b5f52602160045260245ffd5b5050600190565b506101608201516001600160a01b0316811461296e565b9091503d805f833e612a1881836123d6565b81019060208183031261087a578051906001600160401b03821161087a5701906101e08282031261087a57604051916101e083016001600160401b038111848210176123f95760405280516001600160401b03811161087a5782612a7d9183016127ac565b8352612a8b602082016127f2565b602084015260408101516001600160401b03811161087a57810182601f8201121561087a57805190612abc82612524565b91612aca60405193846123d6565b80835260208084019160051b8301019185831161087a57602001905b828210612c6857505050604084015260608101516001600160401b03811161087a5782612b149183016127ac565b60608401526080810151600481101561087a57608084015260a08101516001600160401b03811161087a57810182601f8201121561087a578051612b5781612524565b91612b6560405193846123d6565b81835260208084019260051b8201019185831161087a5760208201905b838210612c3b575050505060a084015260c08101516001600160401b03811161087a5782612bb1918301612806565b60c084015260e08101516001600160401b03811161087a576101c092612bd8918301612806565b60e0840152610100810151610100840152610120810151610120840152610140810151610140840152612c0e61016082016127f2565b6101608401526101808101516101808401526101a08101516101a084015201516101c0820152905f61294a565b81516001600160401b03811161087a57602091612c5d898480948801016127ac565b815201910190612b82565b60208091612c75846127f2565b815201910190612ae6565b602090604051918183925191829101835e81015f815203902090565b60118152701c1c9bd8d95cdcd1995954185e5b595b9d607a1b602082015260400190565b90602080835192838152019201905f5b818110612cdd5750505090565b82516001600160a01b0316845260209384019390920191600101612cd0565b6001600160a01b03168015612d47575f51602061316d5f395f51905f5280546001600160a01b0319811683179091556001600160a01b03165f5160206131ad5f395f51905f525f80a3565b631e4fbdf760e01b5f525f60045260245ffd5b600c81526b72616973654469737075746560a01b602082015260400190565b5f51602061316d5f395f51905f52546001600160a01b03163303612d9957565b63118cdaa760e01b5f523360045260245ffd5b60025f5160206131ed5f395f51905f525414612dd55760025f5160206131ed5f395f51905f5255565b633ee5aeb560e01b5f5260045ffd5b908115612ec1579080815f925b612ea45750612dff8261240d565b91612e0d60405193846123d6565b808352601f19612e1c8261240d565b01366020850137905b818115612e9e575f198301928311612e8a5782600a830492600a8402848104600a1485151715612e8a578103908111612e8a5760ff166030019060ff8211612e8a57855111156128e35760f81b6001600160f81b0319165f1a908401601f0153612e25565b634e487b7160e01b5f52601160045260245ffd5b50505090565b909290915f198114612e8a576001600a9101920480939193612df1565b9050604051612ed16040826123d6565b60018152600360fc1b602082015290565b6001600160a01b039091168152602081019190915260400190565b6003546001600160a01b03168015613079576004546001600160a01b031615613039575f805460405163095ea7b360e01b81529260209284926001600160a01b0316918391908290612f5490899060048401612ee2565b03925af180156123415761301c575b506004546003546001600160a01b031690813b1561087a5760405163269258dd60e01b81526004810184905260a082901c63ffffffff1660248201526001600160a01b0390911660448201526103e86064820152905f908290608490829084905af180156123415761300c575b506004546040519182526001600160a01b0316907f7ccf32f9603595c313e00fc98b6acd70860d4e73573ee086122abc847cf090c190602090a2565b5f613016916123d6565b5f612fd0565b6130349060203d6020116105855761057781836123d6565b612f63565b60405162461bcd60e51b815260206004820152601860248201527713985d1a5d99481c9958da5c1a595b9d081b9bdd081cd95d60421b6044820152606490fd5b60405162461bcd60e51b815260206004820152601360248201527210d0d514081cd95b99195c881b9bdd081cd95d606a1b6044820152606490fd5b60ff5f51602061320d5f395f51905f525460401c16156130d057565b631afcd79f60e31b5f5260045ffd5b3d15613109573d906130f08261240d565b916130fe60405193846123d6565b82523d5f602084013e565b606090565b90613132575080511561312357805190602001fd5b630a12f52160e11b5f5260045ffd5b81511580613163575b613143575090565b639996b31560e01b5f9081526001600160a01b0391909116600452602490fd5b50803b1561313b56fe9016d09d72d40fdae2fd8ceac6b6234c7706214fd39c1cd1e609a0528c199300360894a13ba1a3210667c828492db98dca3e2076cc3735a920a3ca505d382bbc8be0079c531659141344cd1fd0a4f28419497f9722a3daafe3b4186f6b6457e0bc7cd75a20ee27fd9adebab32041f755214dbc6bffa90cc0225b39da2e5c2d3b9b779b17422d0df92223018b32b4d1fa46e071723d6817e2486d003becc55f00f0c57e16840df040f15088dc2f81fe391c3923bec73e23a9662efc9c229c6a00a2646970667358221220dfcd7327d04bb53ee8277d4169e3070faed7367b1971c628bd74f84cfd0e94fb64736f6c63430008210033f0c57e16840df040f15088dc2f81fe391c3923bec73e23a9662efc9c229c6a00","linkReferences":{}},"methodIdentifiers":{"UPGRADE_INTERFACE_VERSION()":"ad3cb1cc","askAthena(string,string,string,uint256,bytes)":"8b46e627","bridge()":"e78cea92","cctpSender()":"739f834d","chainId()":"9a8a0592","claimableAmount(string,address)":"9f24fda0","disputeFees(string)":"b5b0c44b","emergencyWithdrawUSDT()":"d4daf736","getClaimableAmount(string,address)":"8e2102c6","getContractBalance()":"6f9fb98a","getDisputeInfo(string)":"ec884a16","handleFinalizeDisputeWithVotes(string,bool,uint256,uint256,address[],address[],uint256[],bool[])":"ba63e903","hasClaimed(string,address)":"3cff3549","initialize(address,address,uint32,address,address,address)":"91f6afbe","isCallerInvolvedInJob(string,address)":"af076fed","jobContract()":"afd86a76","jobDisputeExists(string)":"4e80f720","minDisputeFee()":"5bb11f16","nativeAthenaRecipient()":"4157fdbf","nativeChainDomain()":"b3f4b3eb","owner()":"8da5cb5b","proxiableUUID()":"52d1902d","quoteSingleChain(string,bytes,bytes)":"ca425659","raiseDispute(string,string,string,uint256,uint256,bytes)":"f93f1da7","renounceOwnership()":"715018a6","setBridge(address)":"8dd14802","setCCTPSender(address)":"40fa717d","setJobContract(address)":"fad58b21","setMinDisputeFee(uint256)":"2dcd8c5e","setNativeAthenaRecipient(address)":"d1005723","setNativeChainDomain(uint32)":"f25089ae","submitSkillVerification(string,uint256,string,bytes)":"abccebf9","transferOwnership(address)":"f2fde38b","upgradeFromDAO(address)":"40634e3b","upgradeToAndCall(address,bytes)":"4f1ef286","usdtToken()":"a98ad46c","withdraw()":"3ccfd60b"},"id":75}