{"abi":[{"type":"constructor","inputs":[],"stateMutability":"nonpayable"},{"type":"function","name":"UPGRADE_INTERFACE_VERSION","inputs":[],"outputs":[{"name":"","type":"string","internalType":"string"}],"stateMutability":"view"},{"type":"function","name":"accumulatedCommission","inputs":[],"outputs":[{"name":"","type":"uint256","internalType":"uint256"}],"stateMutability":"view"},{"type":"function","name":"addAuthorizedContract","inputs":[{"name":"contractAddress","type":"address","internalType":"address"}],"outputs":[],"stateMutability":"nonpayable"},{"type":"function","name":"admins","inputs":[{"name":"","type":"address","internalType":"address"}],"outputs":[{"name":"","type":"bool","internalType":"bool"}],"stateMutability":"view"},{"type":"function","name":"applyToJob","inputs":[{"name":"_applicant","type":"address","internalType":"address"},{"name":"_jobId","type":"string","internalType":"string"},{"name":"_applicationHash","type":"string","internalType":"string"},{"name":"_descriptions","type":"string[]","internalType":"string[]"},{"name":"_amounts","type":"uint256[]","internalType":"uint256[]"},{"name":"_preferredChainDomain","type":"uint32","internalType":"uint32"}],"outputs":[],"stateMutability":"nonpayable"},{"type":"function","name":"authorizedContracts","inputs":[{"name":"","type":"address","internalType":"address"}],"outputs":[{"name":"","type":"bool","internalType":"bool"}],"stateMutability":"view"},{"type":"function","name":"bridge","inputs":[],"outputs":[{"name":"","type":"address","internalType":"address"}],"stateMutability":"view"},{"type":"function","name":"calculateCommission","inputs":[{"name":"amount","type":"uint256","internalType":"uint256"}],"outputs":[{"name":"","type":"uint256","internalType":"uint256"}],"stateMutability":"view"},{"type":"function","name":"calculateTokensForAmount","inputs":[{"name":"","type":"address","internalType":"address"},{"name":"additionalAmount","type":"uint256","internalType":"uint256"}],"outputs":[{"name":"","type":"uint256","internalType":"uint256"}],"stateMutability":"view"},{"type":"function","name":"cctpReceiver","inputs":[],"outputs":[{"name":"","type":"address","internalType":"address"}],"stateMutability":"view"},{"type":"function","name":"cctpTransceiver","inputs":[],"outputs":[{"name":"","type":"address","internalType":"address"}],"stateMutability":"view"},{"type":"function","name":"commissionPercentage","inputs":[],"outputs":[{"name":"","type":"uint256","internalType":"uint256"}],"stateMutability":"view"},{"type":"function","name":"emergencyWithdrawUSDC","inputs":[{"name":"_to","type":"address","internalType":"address"},{"name":"_amount","type":"uint256","internalType":"uint256"}],"outputs":[],"stateMutability":"nonpayable"},{"type":"function","name":"genesis","inputs":[],"outputs":[{"name":"","type":"address","internalType":"contract IOpenworkGenesis"}],"stateMutability":"view"},{"type":"function","name":"getJob","inputs":[{"name":"_jobId","type":"string","internalType":"string"}],"outputs":[{"name":"","type":"tuple","internalType":"struct IOpenworkGenesis.Job","components":[{"name":"id","type":"string","internalType":"string"},{"name":"jobGiver","type":"address","internalType":"address"},{"name":"applicants","type":"address[]","internalType":"address[]"},{"name":"jobDetailHash","type":"string","internalType":"string"},{"name":"status","type":"uint8","internalType":"enum IOpenworkGenesis.JobStatus"},{"name":"workSubmissions","type":"string[]","internalType":"string[]"},{"name":"milestonePayments","type":"tuple[]","internalType":"struct IOpenworkGenesis.MilestonePayment[]","components":[{"name":"descriptionHash","type":"string","internalType":"string"},{"name":"amount","type":"uint256","internalType":"uint256"}]},{"name":"finalMilestones","type":"tuple[]","internalType":"struct IOpenworkGenesis.MilestonePayment[]","components":[{"name":"descriptionHash","type":"string","internalType":"string"},{"name":"amount","type":"uint256","internalType":"uint256"}]},{"name":"totalPaid","type":"uint256","internalType":"uint256"},{"name":"currentMilestone","type":"uint256","internalType":"uint256"},{"name":"selectedApplicant","type":"address","internalType":"address"},{"name":"selectedApplicationId","type":"uint256","internalType":"uint256"}]}],"stateMutability":"view"},{"type":"function","name":"getUserEarnedTokens","inputs":[{"name":"user","type":"address","internalType":"address"}],"outputs":[{"name":"","type":"uint256","internalType":"uint256"}],"stateMutability":"view"},{"type":"function","name":"getUserGovernanceActions","inputs":[{"name":"user","type":"address","internalType":"address"}],"outputs":[{"name":"","type":"uint256","internalType":"uint256"}],"stateMutability":"view"},{"type":"function","name":"getUserGovernanceActionsInBand","inputs":[{"name":"user","type":"address","internalType":"address"},{"name":"band","type":"uint256","internalType":"uint256"}],"outputs":[{"name":"","type":"uint256","internalType":"uint256"}],"stateMutability":"view"},{"type":"function","name":"getUserRewardInfo","inputs":[{"name":"user","type":"address","internalType":"address"}],"outputs":[{"name":"totalTokens","type":"uint256","internalType":"uint256"},{"name":"governanceActions","type":"uint256","internalType":"uint256"}],"stateMutability":"view"},{"type":"function","name":"handleReleasePaymentCrossChain","inputs":[{"name":"_jobGiver","type":"address","internalType":"address"},{"name":"_jobId","type":"string","internalType":"string"},{"name":"_amount","type":"uint256","internalType":"uint256"},{"name":"_targetChainDomain","type":"uint32","internalType":"uint32"},{"name":"_targetRecipient","type":"address","internalType":"address"}],"outputs":[],"stateMutability":"nonpayable"},{"type":"function","name":"handleStartDirectContract","inputs":[{"name":"_jobGiver","type":"address","internalType":"address"},{"name":"_jobTaker","type":"address","internalType":"address"},{"name":"_jobId","type":"string","internalType":"string"},{"name":"_jobDetailHash","type":"string","internalType":"string"},{"name":"_descriptions","type":"string[]","internalType":"string[]"},{"name":"_amounts","type":"uint256[]","internalType":"uint256[]"},{"name":"_jobTakerChainDomain","type":"uint32","internalType":"uint32"}],"outputs":[],"stateMutability":"nonpayable"},{"type":"function","name":"handleUpdateUserClaimData","inputs":[{"name":"user","type":"address","internalType":"address"},{"name":"claimedTokens","type":"uint256","internalType":"uint256"}],"outputs":[],"stateMutability":"nonpayable"},{"type":"function","name":"incrementGovernanceAction","inputs":[{"name":"user","type":"address","internalType":"address"}],"outputs":[],"stateMutability":"nonpayable"},{"type":"function","name":"initialize","inputs":[{"name":"_owner","type":"address","internalType":"address"},{"name":"_bridge","type":"address","internalType":"address"},{"name":"_genesis","type":"address","internalType":"address"},{"name":"_rewardsContract","type":"address","internalType":"address"},{"name":"_usdcToken","type":"address","internalType":"address"},{"name":"_cctpReceiver","type":"address","internalType":"address"}],"outputs":[],"stateMutability":"nonpayable"},{"type":"function","name":"isAuthorizedContract","inputs":[{"name":"contractAddress","type":"address","internalType":"address"}],"outputs":[{"name":"","type":"bool","internalType":"bool"}],"stateMutability":"view"},{"type":"function","name":"jobApplicantChainDomain","inputs":[{"name":"","type":"string","internalType":"string"},{"name":"","type":"address","internalType":"address"}],"outputs":[{"name":"","type":"uint32","internalType":"uint32"}],"stateMutability":"view"},{"type":"function","name":"lockNextMilestone","inputs":[{"name":"","type":"address","internalType":"address"},{"name":"_jobId","type":"string","internalType":"string"},{"name":"_lockedAmount","type":"uint256","internalType":"uint256"}],"outputs":[],"stateMutability":"nonpayable"},{"type":"function","name":"minCommission","inputs":[],"outputs":[{"name":"","type":"uint256","internalType":"uint256"}],"stateMutability":"view"},{"type":"function","name":"nativeAthena","inputs":[],"outputs":[{"name":"","type":"address","internalType":"address"}],"stateMutability":"view"},{"type":"function","name":"nativeDAO","inputs":[],"outputs":[{"name":"","type":"address","internalType":"address"}],"stateMutability":"view"},{"type":"function","name":"owner","inputs":[],"outputs":[{"name":"","type":"address","internalType":"address"}],"stateMutability":"view"},{"type":"function","name":"postJob","inputs":[{"name":"_jobId","type":"string","internalType":"string"},{"name":"_jobGiver","type":"address","internalType":"address"},{"name":"_jobDetailHash","type":"string","internalType":"string"},{"name":"_descriptions","type":"string[]","internalType":"string[]"},{"name":"_amounts","type":"uint256[]","internalType":"uint256[]"}],"outputs":[],"stateMutability":"nonpayable"},{"type":"function","name":"proxiableUUID","inputs":[],"outputs":[{"name":"","type":"bytes32","internalType":"bytes32"}],"stateMutability":"view"},{"type":"function","name":"releaseDisputedFunds","inputs":[{"name":"_recipient","type":"address","internalType":"address"},{"name":"_amount","type":"uint256","internalType":"uint256"},{"name":"_targetChainDomain","type":"uint32","internalType":"uint32"}],"outputs":[],"stateMutability":"nonpayable"},{"type":"function","name":"releasePayment","inputs":[{"name":"_jobGiver","type":"address","internalType":"address"},{"name":"_jobId","type":"string","internalType":"string"},{"name":"_amount","type":"uint256","internalType":"uint256"}],"outputs":[],"stateMutability":"nonpayable"},{"type":"function","name":"releasePaymentAndLockNext","inputs":[{"name":"_jobGiver","type":"address","internalType":"address"},{"name":"_jobId","type":"string","internalType":"string"},{"name":"_releasedAmount","type":"uint256","internalType":"uint256"},{"name":"_lockedAmount","type":"uint256","internalType":"uint256"}],"outputs":[],"stateMutability":"nonpayable"},{"type":"function","name":"removeAuthorizedContract","inputs":[{"name":"contractAddress","type":"address","internalType":"address"}],"outputs":[],"stateMutability":"nonpayable"},{"type":"function","name":"renounceOwnership","inputs":[],"outputs":[],"stateMutability":"nonpayable"},{"type":"function","name":"rewardsContract","inputs":[],"outputs":[{"name":"","type":"address","internalType":"contract IOpenWorkRewards"}],"stateMutability":"view"},{"type":"function","name":"setAdmin","inputs":[{"name":"_admin","type":"address","internalType":"address"},{"name":"_status","type":"bool","internalType":"bool"}],"outputs":[],"stateMutability":"nonpayable"},{"type":"function","name":"setApplicantChainDomain","inputs":[{"name":"_jobId","type":"string","internalType":"string"},{"name":"_applicant","type":"address","internalType":"address"},{"name":"_chainDomain","type":"uint32","internalType":"uint32"}],"outputs":[],"stateMutability":"nonpayable"},{"type":"function","name":"setBridge","inputs":[{"name":"_bridge","type":"address","internalType":"address"}],"outputs":[],"stateMutability":"nonpayable"},{"type":"function","name":"setCCTPReceiver","inputs":[{"name":"_cctpReceiver","type":"address","internalType":"address"}],"outputs":[],"stateMutability":"nonpayable"},{"type":"function","name":"setCCTPTransceiver","inputs":[{"name":"_cctpTransceiver","type":"address","internalType":"address"}],"outputs":[],"stateMutability":"nonpayable"},{"type":"function","name":"setCommissionPercentage","inputs":[{"name":"_percentage","type":"uint256","internalType":"uint256"}],"outputs":[],"stateMutability":"nonpayable"},{"type":"function","name":"setGenesis","inputs":[{"name":"_genesis","type":"address","internalType":"address"}],"outputs":[],"stateMutability":"nonpayable"},{"type":"function","name":"setMinCommission","inputs":[{"name":"_minCommission","type":"uint256","internalType":"uint256"}],"outputs":[],"stateMutability":"nonpayable"},{"type":"function","name":"setNativeAthena","inputs":[{"name":"_nativeAthena","type":"address","internalType":"address"}],"outputs":[],"stateMutability":"nonpayable"},{"type":"function","name":"setNativeDAO","inputs":[{"name":"_nativeDAO","type":"address","internalType":"address"}],"outputs":[],"stateMutability":"nonpayable"},{"type":"function","name":"setRewardsContract","inputs":[{"name":"_rewardsContract","type":"address","internalType":"address"}],"outputs":[],"stateMutability":"nonpayable"},{"type":"function","name":"setTreasury","inputs":[{"name":"_treasury","type":"address","internalType":"address"}],"outputs":[],"stateMutability":"nonpayable"},{"type":"function","name":"setUsdcToken","inputs":[{"name":"_newToken","type":"address","internalType":"address"}],"outputs":[],"stateMutability":"nonpayable"},{"type":"function","name":"startJob","inputs":[{"name":"","type":"address","internalType":"address"},{"name":"_jobId","type":"string","internalType":"string"},{"name":"_applicationId","type":"uint256","internalType":"uint256"},{"name":"_useApplicantMilestones","type":"bool","internalType":"bool"}],"outputs":[],"stateMutability":"nonpayable"},{"type":"function","name":"submitWork","inputs":[{"name":"_applicant","type":"address","internalType":"address"},{"name":"_jobId","type":"string","internalType":"string"},{"name":"_submissionHash","type":"string","internalType":"string"}],"outputs":[],"stateMutability":"nonpayable"},{"type":"function","name":"syncRewardsData","inputs":[{"name":"_options","type":"bytes","internalType":"bytes"}],"outputs":[],"stateMutability":"payable"},{"type":"function","name":"teamTokensAllocated","inputs":[{"name":"user","type":"address","internalType":"address"}],"outputs":[{"name":"","type":"uint256","internalType":"uint256"}],"stateMutability":"view"},{"type":"function","name":"transferOwnership","inputs":[{"name":"newOwner","type":"address","internalType":"address"}],"outputs":[],"stateMutability":"nonpayable"},{"type":"function","name":"treasury","inputs":[],"outputs":[{"name":"","type":"address","internalType":"address"}],"stateMutability":"view"},{"type":"function","name":"upgradeFromDAO","inputs":[{"name":"newImplementation","type":"address","internalType":"address"}],"outputs":[],"stateMutability":"nonpayable"},{"type":"function","name":"upgradeToAndCall","inputs":[{"name":"newImplementation","type":"address","internalType":"address"},{"name":"data","type":"bytes","internalType":"bytes"}],"outputs":[],"stateMutability":"payable"},{"type":"function","name":"usdcToken","inputs":[],"outputs":[{"name":"","type":"address","internalType":"contract IERC20"}],"stateMutability":"view"},{"type":"function","name":"withdrawAllCommission","inputs":[],"outputs":[],"stateMutability":"nonpayable"},{"type":"function","name":"withdrawCommission","inputs":[{"name":"amount","type":"uint256","internalType":"uint256"}],"outputs":[],"stateMutability":"nonpayable"},{"type":"event","name":"AdminUpdated","inputs":[{"name":"admin","type":"address","indexed":true,"internalType":"address"},{"name":"status","type":"bool","indexed":false,"internalType":"bool"}],"anonymous":false},{"type":"event","name":"AuthorizedContractAdded","inputs":[{"name":"contractAddress","type":"address","indexed":true,"internalType":"address"}],"anonymous":false},{"type":"event","name":"AuthorizedContractRemoved","inputs":[{"name":"contractAddress","type":"address","indexed":true,"internalType":"address"}],"anonymous":false},{"type":"event","name":"BridgeUpdated","inputs":[{"name":"oldBridge","type":"address","indexed":true,"internalType":"address"},{"name":"newBridge","type":"address","indexed":true,"internalType":"address"}],"anonymous":false},{"type":"event","name":"ClaimDataUpdated","inputs":[{"name":"user","type":"address","indexed":true,"internalType":"address"},{"name":"claimedJobTokens","type":"uint256","indexed":false,"internalType":"uint256"},{"name":"claimedGovernanceTokens","type":"uint256","indexed":false,"internalType":"uint256"}],"anonymous":false},{"type":"event","name":"CommissionDeducted","inputs":[{"name":"jobId","type":"string","indexed":true,"internalType":"string"},{"name":"grossAmount","type":"uint256","indexed":false,"internalType":"uint256"},{"name":"commission","type":"uint256","indexed":false,"internalType":"uint256"},{"name":"netAmount","type":"uint256","indexed":false,"internalType":"uint256"}],"anonymous":false},{"type":"event","name":"CommissionPercentageUpdated","inputs":[{"name":"oldPercentage","type":"uint256","indexed":false,"internalType":"uint256"},{"name":"newPercentage","type":"uint256","indexed":false,"internalType":"uint256"}],"anonymous":false},{"type":"event","name":"CommissionWithdrawn","inputs":[{"name":"treasury","type":"address","indexed":true,"internalType":"address"},{"name":"amount","type":"uint256","indexed":false,"internalType":"uint256"}],"anonymous":false},{"type":"event","name":"DisputedFundsReleased","inputs":[{"name":"jobId","type":"string","indexed":true,"internalType":"string"},{"name":"winner","type":"address","indexed":true,"internalType":"address"},{"name":"winnerChainDomain","type":"uint32","indexed":false,"internalType":"uint32"},{"name":"amount","type":"uint256","indexed":false,"internalType":"uint256"}],"anonymous":false},{"type":"event","name":"GenesisUpdated","inputs":[{"name":"oldGenesis","type":"address","indexed":true,"internalType":"address"},{"name":"newGenesis","type":"address","indexed":true,"internalType":"address"}],"anonymous":false},{"type":"event","name":"GovernanceActionIncremented","inputs":[{"name":"user","type":"address","indexed":true,"internalType":"address"},{"name":"newGovernanceActionCount","type":"uint256","indexed":false,"internalType":"uint256"},{"name":"band","type":"uint256","indexed":true,"internalType":"uint256"}],"anonymous":false},{"type":"event","name":"Initialized","inputs":[{"name":"version","type":"uint64","indexed":false,"internalType":"uint64"}],"anonymous":false},{"type":"event","name":"JobApplication","inputs":[{"name":"jobId","type":"string","indexed":true,"internalType":"string"},{"name":"applicationId","type":"uint256","indexed":true,"internalType":"uint256"},{"name":"applicant","type":"address","indexed":true,"internalType":"address"},{"name":"applicationHash","type":"string","indexed":false,"internalType":"string"}],"anonymous":false},{"type":"event","name":"JobPosted","inputs":[{"name":"jobId","type":"string","indexed":true,"internalType":"string"},{"name":"jobGiver","type":"address","indexed":true,"internalType":"address"},{"name":"jobDetailHash","type":"string","indexed":false,"internalType":"string"}],"anonymous":false},{"type":"event","name":"JobStarted","inputs":[{"name":"jobId","type":"string","indexed":true,"internalType":"string"},{"name":"applicationId","type":"uint256","indexed":true,"internalType":"uint256"},{"name":"selectedApplicant","type":"address","indexed":true,"internalType":"address"},{"name":"useApplicantMilestones","type":"bool","indexed":false,"internalType":"bool"}],"anonymous":false},{"type":"event","name":"JobStatusChanged","inputs":[{"name":"jobId","type":"string","indexed":true,"internalType":"string"},{"name":"newStatus","type":"uint8","indexed":false,"internalType":"enum IOpenworkGenesis.JobStatus"}],"anonymous":false},{"type":"event","name":"MilestoneLocked","inputs":[{"name":"jobId","type":"string","indexed":true,"internalType":"string"},{"name":"newMilestone","type":"uint256","indexed":false,"internalType":"uint256"},{"name":"lockedAmount","type":"uint256","indexed":false,"internalType":"uint256"}],"anonymous":false},{"type":"event","name":"MinCommissionUpdated","inputs":[{"name":"oldMin","type":"uint256","indexed":false,"internalType":"uint256"},{"name":"newMin","type":"uint256","indexed":false,"internalType":"uint256"}],"anonymous":false},{"type":"event","name":"NativeAthenaUpdated","inputs":[{"name":"oldNativeAthena","type":"address","indexed":true,"internalType":"address"},{"name":"newNativeAthena","type":"address","indexed":true,"internalType":"address"}],"anonymous":false},{"type":"event","name":"NativeDAOUpdated","inputs":[{"name":"oldNativeDAO","type":"address","indexed":true,"internalType":"address"},{"name":"newNativeDAO","type":"address","indexed":true,"internalType":"address"}],"anonymous":false},{"type":"event","name":"OwnershipTransferred","inputs":[{"name":"previousOwner","type":"address","indexed":true,"internalType":"address"},{"name":"newOwner","type":"address","indexed":true,"internalType":"address"}],"anonymous":false},{"type":"event","name":"PaymentReleased","inputs":[{"name":"jobId","type":"string","indexed":true,"internalType":"string"},{"name":"jobGiver","type":"address","indexed":true,"internalType":"address"},{"name":"applicant","type":"address","indexed":true,"internalType":"address"},{"name":"amount","type":"uint256","indexed":false,"internalType":"uint256"},{"name":"milestone","type":"uint256","indexed":false,"internalType":"uint256"}],"anonymous":false},{"type":"event","name":"PaymentReleasedAndNextMilestoneLocked","inputs":[{"name":"jobId","type":"string","indexed":true,"internalType":"string"},{"name":"releasedAmount","type":"uint256","indexed":false,"internalType":"uint256"},{"name":"lockedAmount","type":"uint256","indexed":false,"internalType":"uint256"},{"name":"milestone","type":"uint256","indexed":false,"internalType":"uint256"}],"anonymous":false},{"type":"event","name":"PortfolioAdded","inputs":[{"name":"user","type":"address","indexed":true,"internalType":"address"},{"name":"portfolioHash","type":"string","indexed":false,"internalType":"string"}],"anonymous":false},{"type":"event","name":"ProfileCreated","inputs":[{"name":"user","type":"address","indexed":true,"internalType":"address"},{"name":"ipfsHash","type":"string","indexed":false,"internalType":"string"},{"name":"referrer","type":"address","indexed":false,"internalType":"address"}],"anonymous":false},{"type":"event","name":"RewardsContractUpdated","inputs":[{"name":"oldRewards","type":"address","indexed":true,"internalType":"address"},{"name":"newRewards","type":"address","indexed":true,"internalType":"address"}],"anonymous":false},{"type":"event","name":"RewardsDataSynced","inputs":[{"name":"user","type":"address","indexed":true,"internalType":"address"},{"name":"syncType","type":"uint256","indexed":false,"internalType":"uint256"},{"name":"claimableAmount","type":"uint256","indexed":false,"internalType":"uint256"},{"name":"reserved","type":"uint256","indexed":false,"internalType":"uint256"}],"anonymous":false},{"type":"event","name":"TokensEarned","inputs":[{"name":"user","type":"address","indexed":true,"internalType":"address"},{"name":"tokensEarned","type":"uint256","indexed":false,"internalType":"uint256"},{"name":"newPlatformTotal","type":"uint256","indexed":false,"internalType":"uint256"},{"name":"newUserTotalTokens","type":"uint256","indexed":false,"internalType":"uint256"}],"anonymous":false},{"type":"event","name":"TreasuryUpdated","inputs":[{"name":"oldTreasury","type":"address","indexed":true,"internalType":"address"},{"name":"newTreasury","type":"address","indexed":true,"internalType":"address"}],"anonymous":false},{"type":"event","name":"Upgraded","inputs":[{"name":"implementation","type":"address","indexed":true,"internalType":"address"}],"anonymous":false},{"type":"event","name":"UserRated","inputs":[{"name":"jobId","type":"string","indexed":true,"internalType":"string"},{"name":"rater","type":"address","indexed":true,"internalType":"address"},{"name":"rated","type":"address","indexed":true,"internalType":"address"},{"name":"rating","type":"uint256","indexed":false,"internalType":"uint256"}],"anonymous":false},{"type":"event","name":"WorkSubmitted","inputs":[{"name":"jobId","type":"string","indexed":true,"internalType":"string"},{"name":"applicant","type":"address","indexed":true,"internalType":"address"},{"name":"submissionHash","type":"string","indexed":false,"internalType":"string"},{"name":"milestone","type":"uint256","indexed":false,"internalType":"uint256"}],"anonymous":false},{"type":"error","name":"AddressEmptyCode","inputs":[{"name":"target","type":"address","internalType":"address"}]},{"type":"error","name":"AddressInsufficientBalance","inputs":[{"name":"account","type":"address","internalType":"address"}]},{"type":"error","name":"ERC1967InvalidImplementation","inputs":[{"name":"implementation","type":"address","internalType":"address"}]},{"type":"error","name":"ERC1967NonPayable","inputs":[]},{"type":"error","name":"FailedInnerCall","inputs":[]},{"type":"error","name":"InvalidInitialization","inputs":[]},{"type":"error","name":"NotInitializing","inputs":[]},{"type":"error","name":"OwnableInvalidOwner","inputs":[{"name":"owner","type":"address","internalType":"address"}]},{"type":"error","name":"OwnableUnauthorizedAccount","inputs":[{"name":"account","type":"address","internalType":"address"}]},{"type":"error","name":"SafeERC20FailedOperation","inputs":[{"name":"token","type":"address","internalType":"address"}]},{"type":"error","name":"UUPSUnauthorizedCallContext","inputs":[]},{"type":"error","name":"UUPSUnsupportedProxiableUUID","inputs":[{"name":"slot","type":"bytes32","internalType":"bytes32"}]}],"bytecode":{"object":"0x60a080604052346100d557306080526064600f55620f42406010555f5160206159735f395f51905f525460ff8160401c166100c6576002600160401b03196001600160401b03821601610073575b60405161589990816100da8239608051818181612d0301528181612da7015261336b0152f35b6001600160401b0319166001600160401b039081175f5160206159735f395f51905f525581527fc7f505b2f371ae2175ee4913f4499e1f2633a7b5936321eed1cdaeb6115181d290602090a15f8061004d565b63f92ee8a960e01b5f5260045ffd5b5f80fdfe60806040526004361015610011575f80fd5b5f5f3560e01c806309d6667e14613f525780630f0166e114613f2e57806311eac85514613f055780631277bbf814613a3857806317face841461398c578063220cce971461396357806323dc878c1461393a57806329f8d96d146138c2578063301f82571461365857806339b87c8f146135b95780633fac81051461356057806340634e3b1461331e578063429b62e5146132df57806342b0f652146130d35780634b0bddd21461301f5780634efac43f14612fa45780634f1ef28614612d5757806352d1902d14612cf05780635843905f14612ccc5780635d886f2214612c6f5780636009b51f1461265b57806361d027b31461263257806366d0ead314611490578063687694ae1461260957806369517310146125d95780636c2db78f146125b0578063715018a61461255a57806377e324071461233557806387e821d6146121395780638da5cb5b146121045780638dd14802146120895780639110e03114611e5d57806394928b8414611e3557806398eaa4a714611db157806399f426be14611b7e578063a2f7cb2614611b03578063a7f0b3de14611adc578063ad3cb1cc14611a8f578063ae69367314611a71578063b9acee1d1461192d578063ba24596314611795578063c088797b146116f9578063cc2a9a5b1461150c578063ce9b4321146114ed578063d575fe64146114cf578063d5b9221b14611490578063d6e3c76a14611433578063dc209f131461140a578063de8fd3af146113a5578063dfa0dfa51461132a578063e4a9d8ee146112cd578063e4e2a85614610bc7578063e6b165ed14610b51578063e78cea9214610b28578063e848635514610b00578063eb14b35314610a89578063eca688ea14610a6b578063f0f44260146109ae578063f14db78314610982578063f27bf0bf146108bc578063f2fde38b1461088f578063f4f5d3c7146106dd5763fc5dee81146102cf575f80fd5b346106da5760c03660031901126106da576102e8614416565b6024356001600160401b0381116106a5576103079036906004016144e8565b6044356001600160401b038111610631576103269036906004016144e8565b926064356001600160401b0381116106d857610346903690600401614530565b6084356001600160401b0381116106a5576103659036906004016145ae565b9460a43563ffffffff811680910361063157338452600560205261038f60ff6040862054166146e1565b61039c8351885114614d21565b83546040516377e3240760e01b815260206004820152976001600160a01b0390911695908589806103d0602482018661460b565b03818a5afa9889156106cd5786996106a9575b5060208901516001600160a01b03898116999161040391168a1415614ecd565b865b60408b0151805182101561046f578a906001600160a01b0390610429908490614a7e565b51161461043857600101610405565b60405162461bcd60e51b815260206004820152600f60248201526e105b1c9958591e48185c1c1b1a5959608a1b6044820152606490fd5b50509588968198803b156106a5576040516206d86360e41b815291839183918290849082906104a2908b60048401614eff565b03925af180156106265761068c575b505060018060a01b03875416906040519563eb7d901b60e01b875260206004880152602087806104e4602482018861460b565b0381865afa968715610681578997610649575b50600187018097116106355790829189933b1561063157869261054b858761058b82966105798f978f610567906040519c8d9b8c9a8b9963bd015d7960e01b8b5261010060048c01526101048b019061460b565b9260248a0152604489015260031988830301606489015261460b565b85810360031901608487015290614d5f565b8381036003190160a485015290614db7565b8a60c48301528d60e483015203925af180156106265761060d575b50506105f2610607915f5160206157245f395f51905f5293604051602081845180838701835e8101600c815203019020885f5260205260405f209063ffffffff19825416179055614acf565b9260405191829160208352602083019061460b565b0390a480f35b8161061791614474565b6106225785876105a6565b8580fd5b6040513d84823e3d90fd5b8380fd5b634e487b7160e01b89526011600452602489fd5b9096506020813d602011610679575b8161066560209383614474565b81010312610675575195896104f7565b5f80fd5b3d9150610658565b6040513d8b823e3d90fd5b8161069691614474565b6106a15786886104b1565b8680fd5b8280fd5b6106c69199503d8088833e6106be8183614474565b810190614852565b975f6103e3565b6040513d88823e3d90fd5b505b80fd5b50346106da576106ec3661469b565b9150338352600560205261070660ff6040852054166146e1565b82546040516377e3240760e01b815260206004820152906001600160a01b0316848280610736602482018761460b565b0381845afa918215610884578592610868575b5061012082019160e08351910151511115610833578151906001820180921161081f57908186923b156106a557604051635839ccbd60e11b8152918391839182908490829061079c908b60048401614836565b03925af180156106265761080a575b50505190600182018092116107f6577fb9422fa51238140c2297fbab91a9525e85400eea5c9666d16562298ea0e0981c916107e7604092614acf565b9382519182526020820152a280f35b634e487b7160e01b84526011600452602484fd5b8161081491614474565b61063157835f6107ab565b634e487b7160e01b86526011600452602486fd5b60405162461bcd60e51b815260206004820152600d60248201526c105b1b0818dbdb5c1b195d1959609a1b6044820152606490fd5b61087d9192503d8087833e6106be8183614474565b905f610749565b6040513d87823e3d90fd5b50346106da5760203660031901126106da576108b96108ac614416565b6108b4615598565b6152dc565b80f35b50346106da57806003193601126106da57338152600b6020526108e560ff6040832054166146e1565b600e54801561094d57600e829055600654600d546109119183916001600160a01b03908116911661533a565b600d546040519182526001600160a01b0316907fd244b5a3b2e3977ecffe1a5e5ab7661aadfecbae24be711b7a72bb42bd1b2db090602090a280f35b60405162461bcd60e51b815260206004820152600d60248201526c27379031b7b6b6b4b9b9b4b7b760991b6044820152606490fd5b50346106da5760203660031901126106da5760206109a66109a1614416565b615252565b604051908152f35b50346106da5760203660031901126106da576109c8614416565b338252600b6020526109e060ff6040842054166146e1565b6001600160a01b03168015610a3357600d80546001600160a01b0319811683179091556001600160a01b03167f4ab5be82436d353e61ca18726e984e561f5c1cc7c6d38b29d2553c790434705a8380a380f35b60405162461bcd60e51b815260206004820152601060248201526f496e76616c696420747265617375727960801b6044820152606490fd5b50346106da57806003193601126106da576020601054604051908152f35b50346106da5760203660031901126106da57610aa3614416565b338252600b602052610abb60ff6040842054166146e1565b81546001600160a01b039182166001600160a01b031982168117845591167f5f1d51aab4bd6e41be6c7feda322db860d93d0058238bf871dfafd43ecc951f98380a380f35b50346106da5760403660031901126106da5760206109a6610b1f614416565b602435906151d6565b50346106da57806003193601126106da576002546040516001600160a01b039091168152602090f35b50346106da5760203660031901126106da57610b6b614416565b338252600b602052610b8360ff6040842054166146e1565b6001600160a01b0316808252600560205260408220805460ff191690557f98a35376356c1565159c1b44676fcfa951a2287e2a816e208cf92e7aeb585a4f8280a280f35b50346106da5760a03660031901126106da57610be1614416565b6024356001600160401b0381116106a557610c009036906004016144e8565b90604435916064359063ffffffff82168092036112c957610c1f614442565b923386526005602052610c3860ff6040882054166146e1565b6008546001600160a01b031693841561128e576001600160a01b031694610c60861515614ca3565b610c6b811515614c66565b610c7361504d565b5086546040516377e3240760e01b8152602060048201529490889086906001600160a01b03168180610ca8602482018a61460b565b03915afa948515611283578895611267575b50610140850151610cd5906001600160a01b03161515614b6d565b60808501516004811015611253575f190161121857610120850180519586151580611209575b156111d05760e0019586515f1982019182116111bc57602091610d1d91614a7e565b51015161270f810281159082810461270f148217156111a85761271090048510611163578160011b918204600214171561114f57831161110b576006546040516370a0823160e01b81523060048201526001600160a01b0390911697906020816024818c5afa80156111005785918c916110cb575b501061108a57610da1846151a8565b928385111561103a57610ddb60208c93610dbb8789614ba8565b9b8c918660405180968195829463095ea7b360e01b845260048401614c35565b03925af1801561102f57611002575b506008546001600160a01b0316803b156106a5578a9160848b858094604051968795869463269258dd60e01b86526004860152602485015260448401526103e860648401525af1801561062657610fed575b5050610e4a82600e54614bc9565b600e55610e588786866153d5565b885489906001600160a01b0316803b156106d857604051636167f40760e11b81529082908290818381610e8f8f8e60048401614836565b03925af1801561062657610fd4575b505051945151851015610f0d575b83604093925f5160206158445f395f51905f52610ef293610eda5f5160206158045f395f51905f5298614acf565b92610eea8b895193849384614c50565b0390a2614acf565b825195865260208601949094526001600160a01b031693a480f35b875488906001600160a01b0316803b156106d857816040518092632d6f93f960e21b825260406004830152818381610f48604482018d61460b565b6002602483015203925af1801561062657610fb5575b5093604093925f5160206158445f395f51905f52610ef2935f5160206158045f395f51905f52975f5160206156c45f395f51905f526020610f9e87614acf565b928a51905060028152a29350509293509350610eac565b81610fc291959495614474565b610fd057875f939293610f5e565b8780fd5b81610fde91614474565b610fe957885f610e9e565b8880fd5b81610ff791614474565b610fe957885f610e3c565b6110239060203d602011611028575b61101b8183614474565b810190614c1d565b610dea565b503d611011565b6040513d85823e3d90fd5b60405162461bcd60e51b815260206004820152602260248201527f416d6f756e7420696e73756666696369656e7420666f7220636f6d6d6973736960448201526137b760f11b6064820152608490fd5b60405162461bcd60e51b8152602060048201526019602482015278496e73756666696369656e7420555344432062616c616e636560381b6044820152606490fd5b9150506020813d6020116110f8575b816110e760209383614474565b81010312610675578490515f610d92565b3d91506110da565b6040513d8d823e3d90fd5b606460405162461bcd60e51b815260206004820152602060248201527f416d6f756e742065786365656473206d696c6573746f6e65206d6178696d756d6044820152fd5b634e487b7160e01b8a52601160045260248afd5b60405162461bcd60e51b815260206004820152601e60248201527f416d6f756e742062656c6f77206d696c6573746f6e65206d696e696d756d00006044820152606490fd5b634e487b7160e01b8c52601160045260248cfd5b634e487b7160e01b8b52601160045260248bfd5b60405162461bcd60e51b8152602060048201526011602482015270496e76616c6964206d696c6573746f6e6560781b6044820152606490fd5b5060e081015151871115610cfb565b60405162461bcd60e51b81526020600482015260136024820152724a6f62206e6f7420696e2070726f677265737360681b6044820152606490fd5b634e487b7160e01b89526021600452602489fd5b61127c9195503d808a833e6106be8183614474565b935f610cba565b6040513d8a823e3d90fd5b60405162461bcd60e51b8152602060048201526013602482015272151c985b9cd8d95a5d995c881b9bdd081cd95d606a1b6044820152606490fd5b8480fd5b50346106da5760203660031901126106da576112e7614416565b338252600b6020526112ff60ff6040842054166146e1565b6001600160a01b0316611313811515614ce3565b600880546001600160a01b03191691909117905580f35b50346106da5760203660031901126106da57611344614416565b338252600b60205261135c60ff6040842054166146e1565b600180546001600160a01b039283166001600160a01b0319821681179092559091167f1411e470e89195b3fc751143c6dfe8c8cb1207e319c33747a017fb39e13ef92c8380a380f35b50346106da5760203660031901126106da577f42ddeacb574f2550f7e8d8e42de1ed9b952f6b6f5c3616afeaa9922896ea5ec46040600435338452600b6020526113f460ff83862054166146e1565b601054908060105582519182526020820152a180f35b50346106da57806003193601126106da576009546040516001600160a01b039091168152602090f35b50346106da5760203660031901126106da5761144d614416565b338252600b60205261146560ff6040842054166146e1565b6001600160a01b0316611479811515614ce3565b600780546001600160a01b03191691909117905580f35b50346106da5760203660031901126106da5760209060ff906040906001600160a01b036114bb614416565b168152600584522054166040519015158152f35b50346106da57806003193601126106da576020600f54604051908152f35b50346106da5760203660031901126106da5760206109a66004356151a8565b50346106da5760c03660031901126106da57611526614416565b61152e61442c565b6044356001600160a01b03811690819003610631576064356001600160a01b038116908190036112c957611560614442565b9160a4359360018060a01b0385168095036106a1575f5160206158245f395f51905f5254604081901c60ff161596906001600160401b038116801590816116f1575b60011490816116e7575b1590816116de575b506116cf576001600160401b031981166001175f5160206158245f395f51905f52556115f29190886116a7575b506115ea6155cb565b6108b46155cb565b6115fa6155cb565b600280546001600160a01b03199081166001600160a01b0393841617909155875481169290921787556001805483169390931790925560068054821693909216929092179055600780549091169190911790556116545780f35b60ff60401b195f5160206158245f395f51905f5254165f5160206158245f395f51905f52557fc7f505b2f371ae2175ee4913f4499e1f2633a7b5936321eed1cdaeb6115181d2602060405160018152a180f35b6001600160481b0319166001600160401b01175f5160206158245f395f51905f52555f6115e1565b63f92ee8a960e01b8952600489fd5b9050155f6115b4565b303b1591506115ac565b8991506115a2565b50346106da5760603660031901126106da576004356001600160401b0381116106d85761172a9036906004016144e8565b61173261442c565b60208061173d614506565b933386526005825261175560ff6040882054166150aa565b604051928184925191829101835e8101600c8152030190209060018060a01b03165f5260205263ffffffff60405f20911663ffffffff1982541617905580f35b50346106da5760603660031901126106da576117af614416565b6024356001600160401b0381116106a5576117ce9036906004016144e8565b906044356001600160401b038111610631576117ee9036906004016144e8565b91338452600560205261180760ff6040862054166146e1565b835484906001600160a01b0316803b156106d857816040518092632c47fa9760e01b825260406004830152818381611857611845604483018b61460b565b8281036003190160248401528c61460b565b03925af1801561062657611918575b505083546040516377e3240760e01b8152602060048201529190859083906001600160a01b0316818061189c602482018761460b565b03915afa8015610884576101206118df917f2de280d2b7315f889cbea3ddc5c9ebfb1773caba023a73cc8fa272e9b28585c29488916118fe575b50015191614acf565b926118f860405192839260018060a01b03169683614836565b0390a380f35b61191291503d808a833e6106be8183614474565b5f6118d6565b8161192291614474565b61063157835f611866565b50346106da5760403660031901126106da57611947614416565b60243590338352600560205261196360ff6040852054166146e1565b825483906001600160a01b0316803b156106d85781604051809263286fd04f60e01b82528183816119988a8a60048401614c35565b03925af1801561062657611a5c575b50506001546001600160a01b0316806119e5575b5060405f5160206156e45f395f51905f5291815193845284602085015260018060a01b031692a280f35b9060206040518093635b92f3d960e01b8252818781611a08898860048401614c35565b03925af1908115611a51575f5160206156e45f395f51905f5292604092611a32575b5091506119bb565b611a4a9060203d6020116110285761101b8183614474565b505f611a2a565b6040513d86823e3d90fd5b81611a6691614474565b6106a557825f6119a7565b50346106da57806003193601126106da576020600e54604051908152f35b50346106da57806003193601126106da5750611ad8604051611ab2604082614474565b60058152640352e302e360dc1b602082015260405191829160208352602083019061460b565b0390f35b50346106da57806003193601126106da57546040516001600160a01b039091168152602090f35b50346106da5760203660031901126106da57611b1d614416565b338252600b602052611b3560ff6040842054166146e1565b600a80546001600160a01b039283166001600160a01b0319821681179092559091167febf0307548e44546701f6014620caeea64df200e2b3925bfd3c75d354fd7410d8380a380f35b50346106da5760203660031901126106da57611b98614416565b338252600560205260ff60408320541615611d7a5781546001600160a01b0316908290823b156106d85760405163033ba21d60e31b81526001600160a01b03909116600482018190529282908290602490829084905af1801561062657611d65575b506001546001600160a01b031680611d20575b50506001546001600160a01b03168015611d1857602060049160405192838092636bb9f8df60e11b82525afa90811561102f578391611ce6575b50905b825460405163f14db78360e01b81526004810183905290602090829060249082906001600160a01b03165afa908115611a51578491611cb3575b5060207fea1851b2332e25f0d6427525a451a05fcf1b65ca9a4b096a85a2e4e40e6ac69991604051908152a380f35b90506020813d602011611cde575b81611cce60209383614474565b8101031261067557516020611c84565b3d9150611cc1565b90506020813d602011611d10575b81611d0160209383614474565b8101031261067557515f611c47565b3d9150611cf4565b508190611c4a565b803b156106d85781809160246040518094819363369eca8f60e21b83528860048401525af180156106265715611c0d5781611d5a91614474565b6106d857815f611c0d565b81611d6f91614474565b6106d857815f611bfa565b60405162461bcd60e51b815260206004820152600f60248201526e13db9b1e48185d5d1a1bdc9a5e9959608a1b6044820152606490fd5b50346106da5760203660031901126106da57611dcb614416565b338252600b602052611de360ff6040842054166146e1565b6001600160a01b0316611df7811515614ce3565b808252600560205260408220805460ff191660011790557f351e40fe333cede9dd79a1ef4d16228b1702f272eb2c2166ec3c7ee6a9d4ce2c8280a280f35b50346106da5760403660031901126106da57611e4f614416565b5060206109a66024356150e7565b50346106da57611e6c3661469b565b90913384526005602052611e8660ff6040862054166150aa565b83546040516377e3240760e01b81526020600482015290859082906001600160a01b03168180611eb9602482018a61460b565b03915afa80156108845761014091869161206f575b50018051611ee6906001600160a01b03161515614b6d565b611ef1831515614c66565b611efa836151a8565b92611f058482614ba8565b93611f1281600e54614bc9565b600e556006548351611f329187916001600160a01b03908116911661533a565b865487906001600160a01b0316803b156106d857604051636167f40760e11b81529082908290818381611f698d8f60048401614836565b03925af180156106265761205a575b5080546001600160a01b0316803b156106d85760408051632d6f93f960e21b815260048101919091529082908290818381611fb6604482018f61460b565b6002602483015203925af1801561062657612045575b50505f5160206158045f395f51905f52926040925f5160206158445f395f51905f5261202993611ffd898b8a6153d5565b6120068a614acf565b926120168a885193849384614c50565b0390a2516001600160a01b031695614acf565b8151948552602085018790526001600160a01b0390931693a480f35b8161204f91614474565b6106a157865f611fcc565b8161206491614474565b6106a157865f611f78565b61208391503d8088833e6106be8183614474565b5f611ece565b50346106da5760203660031901126106da576120a3614416565b338252600b6020526120bb60ff6040842054166146e1565b600280546001600160a01b039283166001600160a01b0319821681179092559091167faae9beddccf584528e87b66c6ff2563825c8a1433305b8a656e9b5f9bf3904998380a380f35b50346106da57806003193601126106da575f5160206156a45f395f51905f52546040516001600160a01b039091168152602090f35b5060203660031901126106da576004356001600160401b0381116106d857366023820112156106d8576004810135906001600160401b0382116106a55736602483830101116106a5576002546001600160a01b03169182156122ff576001546001600160a01b031680156122f75760206024916040519283809263057bd6b560e51b82523360048301525afa9081156108845785916122c5575b50925b8315612294578492813b1561063157839160246084859360405196879586948593633f8190a360e21b85523360048601528c828601526060604486015282606486015201848401378181018301879052601f01601f1916810103019134905af180156106265761227f575b5050604051906001825260208201528160408201527f377a25b6705fa575725f64a9e9cee303a5037feaf4bc831a8595345c24ae076960603392a280f35b8161228991614474565b6106d857815f612241565b60405162461bcd60e51b81526020600482015260096024820152684e6f20746f6b656e7360b81b6044820152606490fd5b90506020813d6020116122ef575b816122e060209383614474565b8101031261067557515f6121d3565b3d91506122d3565b5083926121d6565b60405162461bcd60e51b815260206004820152600e60248201526d109c9a5919d9481b9bdd081cd95d60921b6044820152606490fd5b50346106da5760203660031901126106da57600435816001600160401b0382116106da5761236a6123a09236906004016144e8565b61237261504d565b5060018060a01b0382541660405180809581946377e3240760e01b835260206004840152602483019061460b565b03915afa908115610626578291612540575b5060405190602082526123d3815161018060208501526101a084019061460b565b60018060a01b0360208301511660408401526040820151601f1984830301606085015260208082519384815201910191855b8181106125215750506060830151848203601f19016080860152612429925061460b565b926080820151600481101561250d5760a084015260a082015193601f198482030160c0850152845190818152602081016020808460051b840101970193915b8383106124e0578680876101606124a96124928d60c0850151601f198783030160e088015261462f565b60e0840151858203601f190161010087015261462f565b9161010081015161012085015261012081015161014085015260018060a01b03610140820151168285015201516101808301520390f35b90919293966020806124fe600193601f198682030187528b5161460b565b99019301930191939290612468565b634e487b7160e01b82526021600452602482fd5b83516001600160a01b0316835260209384019390920191600101612405565b61255491503d8084833e6106be8183614474565b5f6123b2565b50346106da57806003193601126106da57612573615598565b5f5160206156a45f395f51905f5280546001600160a01b0319811690915581906001600160a01b03165f5160206157845f395f51905f528280a380f35b50346106da57806003193601126106da576007546040516001600160a01b039091168152602090f35b50346106da5760203660031901126106da5760406125fd6125f8614416565b614f27565b82519182526020820152f35b50346106da57806003193601126106da57600a546040516001600160a01b039091168152602090f35b50346106da57806003193601126106da57600d546040516001600160a01b039091168152602090f35b50346106da5760e03660031901126106da57612675614416565b61267d61442c565b6044356001600160401b0381116106315761269c9036906004016144e8565b906064356001600160401b0381116112c9576126bc9036906004016144e8565b926084356001600160401b038111610622576126dc903690600401614530565b60a4356001600160401b0381116106a1576126fb9036906004016145ae565b9160c43563ffffffff8116809103610fd057338852600560205261272560ff60408a2054166146e1565b87546040516259565560e61b81526020600482018190526001600160a01b0390921692918180612758602482018c61460b565b0381865afa908115612c64578a91612c45575b50612c0b5761277d8451865114614d21565b835115612bcf5788956001600160a01b0380821694908116936127a285871415614ecd565b803b15610fe9578a89918893838d6127d18d604051988997889687956324f808a560e01b875260048701614dea565b03925af1908115611283578891612bba575b505086546001600160a01b0316803b15610fd05761281a9188918a836040518096819582946206d86360e41b845260048401614eff565b03925af1908115612aa2578791612ba5575b505085546001600160a01b0316803b156106a1578660406128b592612875838c6128c785519788968795869463bd015d7960e01b8652610100600487015261010486019061460b565b600160248601528d6044860152603c85820360031981016064880152602083525f5160206157c45f395f51905f526020840152016084860152018d614d5f565b8281036003190160a48401528d614db7565b8860c48301528a60e483015203925af1908115612aa2578791612b90575b5050604051602081895180838c01835e8101600c815203019020835f5260205260405f209063ffffffff1982541617905560018060a01b03855416803b156106225760405163177e220b60e11b8152606060048201529086908290818381612950606482018e61460b565b8960248301526001604483015203925af19081156106cd578691612b7b575b505084546001600160a01b0316803b1561062257856040518092632d6f93f960e21b8252604060048301528183816129ab8d604483019061460b565b6001602483015203925af19081156106cd578691612b66575b505084546001600160a01b0316803b1561062257856040518092635839ccbd60e11b825260406004830152818381612a008d604483019061460b565b6001602483015203925af19081156106cd578691612b51575b505b8351811015612aad5785546001600160a01b0316612a398286614a7e565b51612a448388614a7e565b51823b15610fe957612a71928992838c604051968795869485936346cae72f60e11b855260048501614aa6565b03925af1908115612aa2578791612a8d575b5050600101612a1b565b81612a9791614474565b61062257855f612a83565b6040513d89823e3d90fd5b85612b368885858c5f5160206157645f395f51905f52612acf6105f286614acf565b0390a3806001612ade84614acf565b5f5160206157245f395f51905f526060604051602081526020808201525f5160206157c45f395f51905f526040820152a46001612b1a83614acf565b5f5160206157045f395f51905f526020604051888152a4614acf565b5f5160206156c45f395f51905f52602060405160018152a280f35b81612b5b91614474565b6112c957845f612a19565b81612b7091614474565b6112c957845f6129c4565b81612b8591614474565b6112c957845f61296f565b81612b9a91614474565b61062257855f6128e5565b81612baf91614474565b61062257855f61282c565b81612bc491614474565b6106a157865f6127e3565b60405162461bcd60e51b81526020600482015260146024820152734d7573742068617665206d696c6573746f6e657360601b6044820152606490fd5b60405162461bcd60e51b81526020600482015260126024820152714a6f6220616c72656164792065786973747360701b6044820152606490fd5b612c5e915060203d6020116110285761101b8183614474565b5f61276b565b6040513d8c823e3d90fd5b50346106da5760203660031901126106da57612c89614416565b338252600b602052612ca160ff6040842054166146e1565b6001600160a01b0316612cb5811515614ce3565b600680546001600160a01b03191691909117905580f35b50346106da5760203660031901126106da5760206109a6612ceb614416565b614e43565b50346106da57806003193601126106da577f00000000000000000000000000000000000000000000000000000000000000006001600160a01b03163003612d485760206040515f5160206157445f395f51905f528152f35b63703e46dd60e11b8152600490fd5b5060403660031901126106da57612d6c614416565b906024356001600160401b0381116106d857366023820112156106d857612d9d9036906024816004013591016144b2565b6001600160a01b037f000000000000000000000000000000000000000000000000000000000000000016308114908115612f82575b50612f73575f5160206156a45f395f51905f52546001600160a01b031633148015612f5f575b15612f2b576040516352d1902d60e01b8152926001600160a01b0381169190602085600481865afa80958596612ef7575b50612e4257634c9c8ce360e01b84526004839052602484fd5b9091845f5160206157445f395f51905f528103612ee55750813b15612ed3575f5160206157445f395f51905f5280546001600160a01b031916821790555f5160206157a45f395f51905f528480a28151839015612eb95780836020612eb595519101845af4612eaf6155f6565b91615625565b5080f35b50505034612ec45780f35b63b398979f60e01b8152600490fd5b634c9c8ce360e01b8452600452602483fd5b632a87526960e21b8552600452602484fd5b9095506020813d602011612f23575b81612f1360209383614474565b810103126112c95751945f612e29565b3d9150612f06565b60405162461bcd60e51b815260206004820152600c60248201526b155b985d5d1a1bdc9a5e995960a21b6044820152606490fd5b506002546001600160a01b03163314612df8565b63703e46dd60e11b8252600482fd5b5f5160206157445f395f51905f52546001600160a01b0316141590505f612dd2565b50346106da5760203660031901126106da57612fbe614416565b338252600b602052612fd660ff6040842054166146e1565b600980546001600160a01b039283166001600160a01b0319821681179092559091167f07d9e59518f3d6cbceb6404066ae85fc348e3793c127eb912fb9d55f384233d98380a380f35b50346106da5760403660031901126106da57613039614416565b602435908115158092036106a55760207f235bc17e7930760029e9f4d860a2a8089976de5b381cf8380fc11c1d88a111339160018060a01b035f5160206156a45f395f51905f525416331480156130bf575b613094906146e1565b6001600160a01b0316808552600b82526040808620805460ff191660ff87161790555193845292a280f35b50600a546001600160a01b0316331461308b565b50346106da5760a03660031901126106da576004356001600160401b0381116106d8576131049036906004016144e8565b61310c61442c565b906044356001600160401b0381116106315761312c9036906004016144e8565b6064356001600160401b0381116112c95761314b903690600401614530565b6084356001600160401b0381116106225761316a9036906004016145ae565b90338652600560205261318360ff6040882054166146e1565b85546040516259565560e61b81526020600482018190526001600160a01b039092169181806131b5602482018a61460b565b0381855afa9081156112835788916132c0575b5061328e5786926131dc8351825114614d21565b813b1561063157839187838861320a8995604051988997889687956324f808a560e01b875260048701614dea565b03925af1801561062657613279575b505061325f925f5160206157645f395f51905f5261325761323985614acf565b926040519182916020835260018060a01b031695602083019061460b565b0390a3614acf565b5f5160206156c45f395f51905f526020604051848152a280f35b8161328391614474565b61063157835f613219565b60405162461bcd60e51b815260206004820152600a6024820152694a6f622065786973747360b01b6044820152606490fd5b6132d9915060203d6020116110285761101b8183614474565b5f6131c8565b50346106da5760203660031901126106da5760209060ff906040906001600160a01b0361330a614416565b168152600b84522054166040519015158152f35b50346106da5760203660031901126106da57613338614416565b6002546001600160a01b031691903383900361352d5760405160209361335e8583614474565b8382526001600160a01b037f00000000000000000000000000000000000000000000000000000000000000001630811490811561350b575b506134fc575f5160206156a45f395f51905f52546001600160a01b031633149081156134f2575b50156134be576040516352d1902d60e01b81526001600160a01b03831694908181600481895afa85918161348f575b5061340557634c9c8ce360e01b85526004869052602485fd5b5f5160206157445f395f51905f528103612ee55750823b1561347b575f5160206157445f395f51905f5280546001600160a01b0319168617905592938493905f5160206157a45f395f51905f528580a2815115613471578151612eb59492839201845af4612eaf6155f6565b505050612ec45780f35b634c9c8ce360e01b84526004859052602484fd5b9091508281813d83116134b7575b6134a78183614474565b810103126106225751905f6133ec565b503d61349d565b60405162461bcd60e51b815260048101859052600c60248201526b155b985d5d1a1bdc9a5e995960a21b6044820152606490fd5b905033145f6133bd565b63703e46dd60e11b8452600484fd5b5f5160206157445f395f51905f52546001600160a01b0316141590505f613396565b60405162461bcd60e51b815260206004820152600b60248201526a4f6e6c792062726964676560a81b6044820152606490fd5b50346106da5760403660031901126106da576108b961357d614416565b60243590613589615598565b61359d6001600160a01b0382161515614ce3565b6135a8821515614c66565b6006546001600160a01b031661533a565b50346106da5760203660031901126106da57600435338252600b6020526135e660ff6040842054166146e1565b6103e881116136295760407fdd875544ddd76d96f6d22d7b445e849b486258026a9fb9bd1f3434766b1e920191600f549080600f5582519182526020820152a180f35b60405162461bcd60e51b81526020600482015260076024820152664d61782031302560c81b6044820152606490fd5b50346106da5760603660031901126106da57613672614416565b6024359061367e614506565b9160018060a01b0360095416331480156138ae575b15613874576001600160a01b0382169263ffffffff92906136b5851515614ca3565b6136c0831515614c66565b6136c9836151a8565b906136d48285614ba8565b9485916136e384600e54614bc9565b600e5516926003840361376c57604093926137265f5160206157e45f395f51905f5296935f5160206158445f395f51905f529360018060a01b036006541661533a565b60078551666469737075746560c81b8152209261374888875193849384614c50565b0390a260078251666469737075746560c81b8152209382519182526020820152a380f35b506008546137b4916020916001600160a01b031661378b811515614bd6565b60018060a01b0360065416908a60405180968195829463095ea7b360e01b845260048401614c35565b03925af18015612aa257613857575b5060085486906001600160a01b0316803b156106d85781809160846040518094819363269258dd60e01b83528b60048401528960248401528c60448401526103e860648401525af180156106265761383e575b5050905f5160206157e45f395f51905f52925f5160206158445f395f51905f52604093613726565b8161384b91949394614474565b6106225790855f613816565b61386f9060203d6020116110285761101b8183614474565b6137c3565b60405162461bcd60e51b81526020600482015260126024820152714f6e6c7920417468656e61206f722044414f60701b6044820152606490fd5b50600a546001600160a01b03163314613693565b50346106da5760403660031901126106da576004356001600160401b0381116106d8576138f39036906004016144e8565b6020806138fe61442c565b92604051928184925191829101835e8101600c8152030190209060018060a01b03165f52602052602063ffffffff60405f205416604051908152f35b50346106da57806003193601126106da576008546040516001600160a01b039091168152602090f35b50346106da57806003193601126106da576001546040516001600160a01b039091168152602090f35b50346106da5760203660031901126106da57600435338252600b6020526139b960ff6040842054166146e1565b600e548082116139f957816139d8916139d3821515614c66565b614ba8565b600e55600654600d546109119183916001600160a01b03908116911661533a565b60405162461bcd60e51b815260206004820152601760248201527624b739bab33334b1b4b2b73a1031b7b6b6b4b9b9b4b7b760491b6044820152606490fd5b50346106da5760803660031901126106da57613a52614416565b6024356001600160401b0381116106a557613a719036906004016144e8565b604435903384526005602052613a8d60ff6040862054166146e1565b83546040516377e3240760e01b8152602060048201529390859085906001600160a01b03168180613ac1602482018861460b565b03915afa938415610884578594613ee9575b5061014084018051909490613af2906001600160a01b03161515614b6d565b613afb846151a8565b9186613b078487614ba8565b8097613b1586600e54614bc9565b600e55604051602081895180838c01835e600c9082019081520301902081516001600160a01b03165f908152602091909152604090205463ffffffff1660038103613dff57506006549051613b7793506001600160a01b03908116911661533a565b86546001600160a01b0316803b15610fd057876040518092636167f40760e11b8252818381613baa8d8c60048401614836565b03925af1888115613df35788928792613dd9575b5050613bc9926153d5565b8554610120919091015160018101916001600160a01b0316908210613dc557908187923b156106a557604051635839ccbd60e11b81529183918391829084908290613c18908b60048401614836565b03925af1801561062657613db0575b505084546040516377e3240760e01b815260206004820152919086906001600160a01b0316818480613c5c602482018961460b565b0381845afa938415610626578294613d94575b5061012084019360e085519101515110613ce6575b5050905f5160206156845f395f51905f52935f5160206158445f395f51905f52613ccc93613cb186614acf565b92613cc28960405193849384614c50565b0390a25191614acf565b92613ce06040519283926064359084614c50565b0390a280f35b803b156106d857816040518092632d6f93f960e21b825260406004830152818381613d14604482018c61460b565b6002602483015203925af1801561062657613d7b575b5050905f5160206156845f395f51905f52935f5160206158445f395f51905f52613ccc93613d5786614acf565b5f5160206156c45f395f51905f52602060405160028152a292935087919550613c84565b81613d8891949394614474565b6106225790855f613d2a565b613da99194503d8084833e6106be8183614474565b925f613c6f565b81613dba91614474565b6112c957845f613c27565b634e487b7160e01b87526011600452602487fd5b819350613de69250614474565b6106a1578584885f613bbe565b604051903d90823e3d90fd5b6008549092613e4991602091906001600160a01b0316613e20811515614bd6565b60018060a01b0360065416908760405180968195829463095ea7b360e01b845260048401614c35565b03925af18015611a5157613ecc575b5060085490516001600160a01b0390811692911690813b156106315760848a858094604051968795869463269258dd60e01b86526004860152602485015260448401526103e860648401525af1801561062657613eb7575b5050613b77565b81613ec191614474565b6106a157865f613eb0565b613ee49060203d6020116110285761101b8183614474565b613e58565b613efe9194503d8087833e6106be8183614474565b925f613ad3565b50346106da57806003193601126106da576006546040516001600160a01b039091168152602090f35b50346106da5760203660031901126106da5760206109a6613f4d614416565b614aeb565b503461067557608036600319011261067557613f6c614416565b506024356001600160401b03811161067557613f8c9036906004016144e8565b90604435606435928315159182850361067557335f526005602052613fb760ff60405f2054166146e1565b60018060a01b035f54169460405193632e68140160e11b85525f8580613fe1868860048401614836565b03818a5afa9485156142ff575f95614324575b506040516377e3240760e01b8152602060048201525f8180614019602482018961460b565b03818b5afa9081156142ff575f9161430a575b506040860180516001600160a01b031698909390803b156106755760405163177e220b60e11b815260606004820152995f918b91829084908290614073606483018e61460b565b9060248301528b604483015203925af180156142ff576142e5575b87549798509596949588956001600160a01b0316803b156106a15760408051632d6f93f960e21b8152600481019190915290879082908183816140d4604482018f61460b565b6001602483015203925af1908115612aa25787916142d0575b505085546001600160a01b0316803b156106a15760408051635839ccbd60e11b81526004810191909152908790829081838161412c604482018f61460b565b6001602483015203925af1908115612aa25787916142bb575b50501561421e5750835b6080870180519081518310156141e2576020614182846141798160018060a01b038c541696614a7e565b51519351614a7e565b510151823b15610fd0576141b1928892838b604051968795869485936346cae72f60e11b855260048501614aa6565b03925af19081156106cd5786916141cd575b505060010161414f565b816141d791614474565b6112c957845f6141c3565b5050509250612b3694505b516001600160a01b0316915f5160206157045f395f51905f52602061421186614acf565b92604051908152a4614acf565b9550835b60c0870180519081518310156142ac57602061424c846141798160018060a01b038c541696614a7e565b510151823b15610fd05761427b928892838b604051968795869485936346cae72f60e11b855260048501614aa6565b03925af19081156106cd578691614297575b5050600101614222565b816142a191614474565b6112c957845f61428d565b5050509250612b3694506141ed565b816142c591614474565b61062257855f614145565b816142da91614474565b61062257855f6140ed565b94959650965f6142f491614474565b5f959493879061408e565b6040513d5f823e3d90fd5b61431e91503d805f833e6106be8183614474565b5f61402c565b9094503d805f833e6143368183614474565b810190602081830312610675578051906001600160401b038211610675570160a081830312610675576040519160a083016001600160401b03811184821017614402576040528151835260208201516001600160401b038111610675578161439f918401614713565b60208401526143b060408301614759565b604084015260608201516001600160401b03811161067557816143d4918401614713565b606084015260808201516001600160401b038111610675576143f6920161476d565b6080820152935f613ff4565b634e487b7160e01b5f52604160045260245ffd5b600435906001600160a01b038216820361067557565b602435906001600160a01b038216820361067557565b608435906001600160a01b038216820361067557565b61018081019081106001600160401b0382111761440257604052565b601f909101601f19168101906001600160401b0382119082101761440257604052565b6001600160401b03811161440257601f01601f191660200190565b9291926144be82614497565b916144cc6040519384614474565b829481845281830111610675578281602093845f960137010152565b9080601f8301121561067557816020614503933591016144b2565b90565b6044359063ffffffff8216820361067557565b6001600160401b0381116144025760051b60200190565b9080601f8301121561067557813561454781614519565b926145556040519485614474565b81845260208085019260051b820101918383116106755760208201905b83821061458157505050505090565b81356001600160401b038111610675576020916145a3878480948801016144e8565b815201910190614572565b9080601f830112156106755781356145c581614519565b926145d36040519485614474565b81845260208085019260051b82010192831161067557602001905b8282106145fb5750505090565b81358152602091820191016145ee565b805180835260209291819084018484015e5f828201840152601f01601f1916010190565b9080602083519182815201916020808360051b8301019401925f915b83831061465a57505050505090565b9091929394602080600192601f198582030186528851908280614686845160408552604085019061460b565b9301519101529701930193019193929061464b565b906060600319830112610675576004356001600160a01b03811681036106755791602435906001600160401b038211610675576146da916004016144e8565b9060443590565b156146e857565b606460405162461bcd60e51b8152602060048201526004602482015263082eae8d60e31b6044820152fd5b81601f820112156106755780519061472a82614497565b926147386040519485614474565b8284526020838301011161067557815f9260208093018386015e8301015290565b51906001600160a01b038216820361067557565b81601f820112156106755780519061478482614519565b926147926040519485614474565b82845260208085019360051b830101918183116106755760208101935b8385106147be57505050505090565b84516001600160401b0381116106755782016040818503601f1901126106755760408051929083016001600160401b03811184821017614402576040526020820151926001600160401b03841161067557604083614823886020809881980101614713565b83520151838201528152019401936147af565b92919061484d60209160408652604086019061460b565b930152565b602081830312610675578051906001600160401b03821161067557019061018082820312610675576040519161488783614458565b80516001600160401b03811161067557826148a3918301614713565b83526148b160208201614759565b602084015260408101516001600160401b03811161067557810182601f82011215610675578051906148e282614519565b916148f06040519384614474565b80835260208084019160051b8301019185831161067557602001905b828210614a6657505050604084015260608101516001600160401b038111610675578261493a918301614713565b60608401526080810151600481101561067557608084015260a08101516001600160401b03811161067557810182601f8201121561067557805161497d81614519565b9161498b6040519384614474565b81835260208084019260051b820101918583116106755760208201905b838210614a39575050505060a084015260c08101516001600160401b03811161067557826149d791830161476d565b60c084015260e08101516001600160401b03811161067557610160926149fe91830161476d565b60e0840152610100810151610100840152610120810151610120840152614a286101408201614759565b610140840152015161016082015290565b81516001600160401b03811161067557602091614a5b89848094880101614713565b8152019101906149a8565b60208091614a7384614759565b81520191019061490c565b8051821015614a925760209160051b010190565b634e487b7160e01b5f52603260045260245ffd5b93929161484d90614ac160409360608852606088019061460b565b90868203602088015261460b565b602090604051918183925191829101835e81015f815203902090565b6001546001600160a01b03169081614b035750505f90565b604051630f0166e160e01b81526001600160a01b03909116600482015290602090829060249082905afa9081156142ff575f91614b3e575090565b90506020813d602011614b65575b81614b5960209383614474565b81010312610675575190565b3d9150614b4c565b15614b7457565b60405162461bcd60e51b815260206004820152600c60248201526b139bc8185c1c1b1a58d85b9d60a21b6044820152606490fd5b91908203918211614bb557565b634e487b7160e01b5f52601160045260245ffd5b91908201809211614bb557565b15614bdd57565b60405162461bcd60e51b815260206004820152601860248201527710d0d51408151c985b9cd8d95a5d995c881b9bdd081cd95d60421b6044820152606490fd5b90816020910312610675575180151581036106755790565b6001600160a01b039091168152602081019190915260400190565b6040919493926060820195825260208201520152565b15614c6d57565b60405162461bcd60e51b815260206004820152600e60248201526d125b9d985b1a5908185b5bdd5b9d60921b6044820152606490fd5b15614caa57565b60405162461bcd60e51b8152602060048201526011602482015270125b9d985b1a59081c9958da5c1a595b9d607a1b6044820152606490fd5b15614cea57565b60405162461bcd60e51b815260206004820152600f60248201526e496e76616c6964206164647265737360881b6044820152606490fd5b15614d2857565b60405162461bcd60e51b815260206004820152600f60248201526e098cadccee8d040dad2e6dac2e8c6d608b1b6044820152606490fd5b9080602083519182815201916020808360051b8301019401925f915b838310614d8a57505050505090565b9091929394602080614da8600193601f19868203018752895161460b565b97019301930191939290614d7b565b90602080835192838152019201905f5b818110614dd45750505090565b8251845260209384019390920191600101614dc7565b9390614e35926145039694614e0a614e279360a0895260a089019061460b565b6001600160a01b039092166020880152868203604088015261460b565b908482036060860152614d5f565b916080818403910152614db7565b6001546001600160a01b031680614e9357505f54604051635843905f60e01b81526001600160a01b0392831660048201529160209183916024918391165afa9081156142ff575f91614b3e575090565b6040516378359b2960e01b81526001600160a01b039092166004830152602090829060249082905afa9081156142ff575f91614b3e575090565b15614ed457565b606460405162461bcd60e51b815260206004820152600460248201526329b2b63360e11b6044820152fd5b90614f1760209194939460408452604084019061460b565b6001600160a01b03909416910152565b6001549091906001600160a01b03168015614fd5576040516378359b2960e01b81526001600160a01b039093166004840181905292602081602481855afa80156142ff575f90614fa2575b60209150936024604051809481936323312a8360e01b835260048301525afa9081156142ff575f91614b3e575090565b506020813d602011614fcd575b81614fbc60209383614474565b810103126106755760209051614f72565b3d9150614faf565b505f5460408051630695173160e41b81526001600160a01b03948516600482015293909184916024918391165afa9182156142ff575f905f9361501757509190565b9250506040823d604011615045575b8161503360409383614474565b81010312610675576020825192015190565b3d9150615026565b6040519061505a82614458565b5f610160836060815282602082015260606040820152606080820152826080820152606060a0820152606060c0820152606060e08201528261010082015282610120820152826101408201520152565b156150b157565b60405162461bcd60e51b815260206004820152600e60248201526d139bdd08185d5d1a1bdc9a5e995960921b6044820152606490fd5b6001546001600160a01b031690816150ff5750505f90565b5f546040516306d1ab4b60e01b81529190602090839060049082906001600160a01b03165afa9182156142ff575f92615173575b5090604461514360209383614bc9565b916040519485938492630ba69e4160e41b8452600484015260248301525afa9081156142ff575f91614b3e575090565b91506020823d6020116151a0575b8161518e60209383614474565b81010312610675579051906044615133565b3d9150615181565b600f5490818102918183041490151715614bb55761271090046010548082115f146151d1575090565b905090565b6001546001600160a01b03168061522d57505f5460405163e848635560e01b81529260209284926001600160a01b031691839182916152189160048401614c35565b03915afa9081156142ff575f91614b3e575090565b60405163e848635560e01b815292602092849291839182916152189160048401614c35565b6001546001600160a01b0316806152a257505f5460405163f14db78360e01b81526001600160a01b0392831660048201529160209183916024918391165afa9081156142ff575f91614b3e575090565b6040516323312a8360e01b81526001600160a01b039092166004830152602090829060249082905afa9081156142ff575f91614b3e575090565b6001600160a01b03168015615327575f5160206156a45f395f51905f5280546001600160a01b0319811683179091556001600160a01b03165f5160206157845f395f51905f525f80a3565b631e4fbdf760e01b5f525f60045260245ffd5b5f61539292819261537461536696604051978891602083019563a9059cbb60e01b875260248401614c35565b03601f198101885287614474565b60018060a01b031694519082865af161538b6155f6565b9083615625565b80519081151591826153ba575b50506153a85750565b635274afe760e01b5f5260045260245ffd5b6153cd9250602080918301019101614c1d565b155f8061539f565b6001549091906001600160a01b031680156155925761541b5f60018060a01b0381541693604051809381926377e3240760e01b835260206004840152602483019061460b565b0381865afa9081156142ff576004916020915f91615578575b5061014001516040516306d1ab4b60e01b81526001600160a01b03909116949092839182905afa80156142ff5785915f91615540575b5060849261547b5f96938793614bc9565b604051978896879563ba293e0760e01b875260018060a01b031660048701526024860152604485015260648401525af180156142ff576154b85750565b3d805f833e6154c78183614474565b810190602081830312610675578051906001600160401b038211610675570181601f820112156106755780519060208061550084614519565b61550d6040519182614474565b848152019260051b82010192831161067557602001905b82821061553057505050565b8151815260209182019101615524565b949150506020843d602011615570575b8161555d60209383614474565b810103126106755792518490608461546a565b3d9150615550565b61558c91503d805f833e6106be8183614474565b5f615434565b50505050565b5f5160206156a45f395f51905f52546001600160a01b031633036155b857565b63118cdaa760e01b5f523360045260245ffd5b60ff5f5160206158245f395f51905f525460401c16156155e757565b631afcd79f60e31b5f5260045ffd5b3d15615620573d9061560782614497565b916156156040519384614474565b82523d5f602084013e565b606090565b90615649575080511561563a57805190602001fd5b630a12f52160e11b5f5260045ffd5b8151158061567a575b61565a575090565b639996b31560e01b5f9081526001600160a01b0391909116600452602490fd5b50803b1561565256fe881f9575e6bc96f2ebd076de5584e663c5e7489d82f21f00777994a223cfb0619016d09d72d40fdae2fd8ceac6b6234c7706214fd39c1cd1e609a0528c19930090048e2f7021decb3bccdc9c96fb747f7c82ca94b921ff7c7cc130daa897a6dda939d97e93c6e94641c360ee489fc68625303001132de2255a364b26627e1590beb163b9824b55e200a056e0082832866e8d8f931ba431b29b8919466a05faa5264fe7e90ee05d618ec81396b56ead08e622a37d2696239d6029610e48c3a86e360894a13ba1a3210667c828492db98dca3e2076cc3735a920a3ca505d382bbcc7649f14606d56993fd676bf6b21baf658647cc2921deec0cde7a0f2f8031c8d8be0079c531659141344cd1fd0a4f28419497f9722a3daafe3b4186f6b6457e0bc7cd75a20ee27fd9adebab32041f755214dbc6bffa90cc0225b39da2e5c2d3b6469726563742d636f6e74726163742d6175746f2d6170706c69636174696f6e68f68b90ee152498d69c44929da4e330c22f2a9cce2356deb44d690362f3d0b9a71f1661a883ae6cc97d4b6c49515c53bc3ad70681a1cdf669785aca9356ee27f0c57e16840df040f15088dc2f81fe391c3923bec73e23a9662efc9c229c6a00799bd8ebd9dd237a3fdfa8abd96d3f80ad584603a8e4a943e7cfc01dbd7fead9a2646970667358221220b39273f69d68a7e3781adffe06f41197b99b394fc6cdcdd4119c65485b13bd9964736f6c63430008210033f0c57e16840df040f15088dc2f81fe391c3923bec73e23a9662efc9c229c6a00","linkReferences":{}},"methodIdentifiers":{"UPGRADE_INTERFACE_VERSION()":"ad3cb1cc","accumulatedCommission()":"ae693673","addAuthorizedContract(address)":"98eaa4a7","admins(address)":"429b62e5","applyToJob(address,string,string,string[],uint256[],uint32)":"fc5dee81","authorizedContracts(address)":"d5b9221b","bridge()":"e78cea92","calculateCommission(uint256)":"ce9b4321","calculateTokensForAmount(address,uint256)":"94928b84","cctpReceiver()":"6c2db78f","cctpTransceiver()":"23dc878c","commissionPercentage()":"d575fe64","emergencyWithdrawUSDC(address,uint256)":"3fac8105","genesis()":"a7f0b3de","getJob(string)":"77e32407","getUserEarnedTokens(address)":"5843905f","getUserGovernanceActions(address)":"f14db783","getUserGovernanceActionsInBand(address,uint256)":"e8486355","getUserRewardInfo(address)":"69517310","handleReleasePaymentCrossChain(address,string,uint256,uint32,address)":"e4e2a856","handleStartDirectContract(address,address,string,string,string[],uint256[],uint32)":"6009b51f","handleUpdateUserClaimData(address,uint256)":"b9acee1d","incrementGovernanceAction(address)":"99f426be","initialize(address,address,address,address,address,address)":"cc2a9a5b","isAuthorizedContract(address)":"66d0ead3","jobApplicantChainDomain(string,address)":"29f8d96d","lockNextMilestone(address,string,uint256)":"f4f5d3c7","minCommission()":"eca688ea","nativeAthena()":"dc209f13","nativeDAO()":"687694ae","owner()":"8da5cb5b","postJob(string,address,string,string[],uint256[])":"42b0f652","proxiableUUID()":"52d1902d","releaseDisputedFunds(address,uint256,uint32)":"301f8257","releasePayment(address,string,uint256)":"9110e031","releasePaymentAndLockNext(address,string,uint256,uint256)":"1277bbf8","removeAuthorizedContract(address)":"e6b165ed","renounceOwnership()":"715018a6","rewardsContract()":"220cce97","setAdmin(address,bool)":"4b0bddd2","setApplicantChainDomain(string,address,uint32)":"c088797b","setBridge(address)":"8dd14802","setCCTPReceiver(address)":"d6e3c76a","setCCTPTransceiver(address)":"e4a9d8ee","setCommissionPercentage(uint256)":"39b87c8f","setGenesis(address)":"eb14b353","setMinCommission(uint256)":"de8fd3af","setNativeAthena(address)":"4efac43f","setNativeDAO(address)":"a2f7cb26","setRewardsContract(address)":"dfa0dfa5","setTreasury(address)":"f0f44260","setUsdcToken(address)":"5d886f22","startJob(address,string,uint256,bool)":"09d6667e","submitWork(address,string,string)":"ba245963","syncRewardsData(bytes)":"87e821d6","teamTokensAllocated(address)":"0f0166e1","transferOwnership(address)":"f2fde38b","treasury()":"61d027b3","upgradeFromDAO(address)":"40634e3b","upgradeToAndCall(address,bytes)":"4f1ef286","usdcToken()":"11eac855","withdrawAllCommission()":"f27bf0bf","withdrawCommission(uint256)":"17face84"},"id":12}