{"abi":[{"type":"constructor","inputs":[],"stateMutability":"nonpayable"},{"type":"function","name":"addContract","inputs":[{"name":"name","type":"string","internalType":"string"},{"name":"contractAddress","type":"address","internalType":"address"},{"name":"chain","type":"string","internalType":"string"},{"name":"deployer","type":"address","internalType":"address"}],"outputs":[],"stateMutability":"nonpayable"},{"type":"function","name":"getAllContracts","inputs":[],"outputs":[{"name":"","type":"tuple[]","internalType":"struct OpenworkContractRegistry.ContractInfo[]","components":[{"name":"name","type":"string","internalType":"string"},{"name":"contractAddress","type":"address","internalType":"address"},{"name":"chain","type":"string","internalType":"string"},{"name":"deployer","type":"address","internalType":"address"}]}],"stateMutability":"view"},{"type":"function","name":"getContract","inputs":[{"name":"name","type":"string","internalType":"string"}],"outputs":[{"name":"","type":"tuple","internalType":"struct OpenworkContractRegistry.ContractInfo","components":[{"name":"name","type":"string","internalType":"string"},{"name":"contractAddress","type":"address","internalType":"address"},{"name":"chain","type":"string","internalType":"string"},{"name":"deployer","type":"address","internalType":"address"}]}],"stateMutability":"view"},{"type":"function","name":"getContractCount","inputs":[],"outputs":[{"name":"","type":"uint256","internalType":"uint256"}],"stateMutability":"view"},{"type":"function","name":"owner","inputs":[],"outputs":[{"name":"","type":"address","internalType":"address"}],"stateMutability":"view"},{"type":"function","name":"removeContract","inputs":[{"name":"name","type":"string","internalType":"string"}],"outputs":[],"stateMutability":"nonpayable"},{"type":"function","name":"transferOwnership","inputs":[{"name":"newOwner","type":"address","internalType":"address"}],"outputs":[],"stateMutability":"nonpayable"},{"type":"function","name":"updateContract","inputs":[{"name":"name","type":"string","internalType":"string"},{"name":"newContractAddress","type":"address","internalType":"address"},{"name":"newChain","type":"string","internalType":"string"},{"name":"newDeployer","type":"address","internalType":"address"}],"outputs":[],"stateMutability":"nonpayable"},{"type":"event","name":"ContractAdded","inputs":[{"name":"name","type":"string","indexed":true,"internalType":"string"},{"name":"contractAddress","type":"address","indexed":true,"internalType":"address"},{"name":"chain","type":"string","indexed":false,"internalType":"string"},{"name":"deployer","type":"address","indexed":true,"internalType":"address"}],"anonymous":false},{"type":"event","name":"ContractRemoved","inputs":[{"name":"name","type":"string","indexed":true,"internalType":"string"}],"anonymous":false},{"type":"event","name":"ContractUpdated","inputs":[{"name":"name","type":"string","indexed":true,"internalType":"string"},{"name":"contractAddress","type":"address","indexed":true,"internalType":"address"},{"name":"chain","type":"string","indexed":false,"internalType":"string"},{"name":"deployer","type":"address","indexed":true,"internalType":"address"}],"anonymous":false},{"type":"event","name":"OwnershipTransferred","inputs":[{"name":"previousOwner","type":"address","indexed":true,"internalType":"address"},{"name":"newOwner","type":"address","indexed":true,"internalType":"address"}],"anonymous":false}],"bytecode":{"object":"0x608080604052346026575f80546001600160a01b031916331790556110a3908161002b8239f35b5f80fdfe60806040526004361015610011575f80fd5b5f3560e01c8063019e7ad0146108d457806318d3ce961461070457806335817773146106145780638da5cb5b146105ed5780639399869d146105d057806397623b58146103d4578063bfc169bd146101955763f2fde38b14610071575f80fd5b34610191576020366003190112610191576004356001600160a01b03811690819003610191575f546001600160a01b038116906100af338314610b78565b821561014d578183146100f2576001600160a01b03191682175f9081557f8be0079c531659141344cd1fd0a4f28419497f9722a3daafe3b4186f6b6457e09080a3005b60405162461bcd60e51b815260206004820152602d60248201527f4e6577206f776e65722063616e6e6f74206265207468652073616d652061732060448201526c31bab93932b73a1037bbb732b960991b6064820152608490fd5b606460405162461bcd60e51b815260206004820152602060248201527f4e6577206f776e65722063616e6e6f74206265207a65726f20616464726573736044820152fd5b5f80fd5b34610191576101a336610a90565b91926101b960018060a01b035f54163314610b78565b604051936101de82519560208181860198808a835e8101600181520301902054610bb4565b61039557815115610359576001600160a01b0316926101fe841515610c32565b61020a83511515610c79565b6001600160a01b03169361021f851515610cbd565b60036040519161022e836109fd565b83835261029a60208401878152604085019087825261026d60608701948b8652602060405180928b518091835e81016001815203019020965187610d6e565b516001860180546001600160a01b0319166001600160a01b03929092169190911790555160028501610d6e565b51910180546001600160a01b0319166001600160a01b0392909216919091179055600254600160401b811015610345578060016102da9201600255610e89565b919091610332576103188161031361032d937f676bd935581e9710ac1f4a7a8d60b0cb610881d5225dea73d53790e5779803cd95610d6e565b610e32565b92604051918291602083526020830190610b04565b0390a4005b634e487b7160e01b5f525f60045260245ffd5b634e487b7160e01b5f52604160045260245ffd5b60405162461bcd60e51b81526020600482015260146024820152734e616d652063616e6e6f7420626520656d70747960601b6044820152606490fd5b60405162461bcd60e51b8152602060048201526017602482015276436f6e747261637420616c72656164792065786973747360481b6044820152606490fd5b34610191576020366003190112610191576004356001600160401b03811161019157610404903690600401610a3b565b61041860018060a01b035f54163314610b78565b60405161044661043f835192602081818701958087835e8101600181520301902054610bb4565b1515610bec565b5f600360405160208186518087835e8101600181520301902061046881610f4a565b82600182015561047a60028201610f4a565b01555f5b600254808210156105c4576104a56104ac61049884610e89565b5060405192838092610ec9565b0382610a18565b6020815191012084518420146104c5575060010161047e565b9091505f1981019081116105b0576104df6104e691610e89565b5091610e89565b919091610332576104f691610f99565b600254801561059c575f19019061050c82610e89565b92909261033257826105216105329454610bb4565b9081610558575b5050600255610e32565b7f0c4eafbc12ea2584eb34031bf52952af5909a5880ef4058cb05c627ae39ffda05f80a2005b81601f5f931160011461056f5750555b8380610528565b8183526020832061058c91601f0160051c84190190600101610d04565b8082528160208120915555610568565b634e487b7160e01b5f52603160045260245ffd5b634e487b7160e01b5f52601160045260245ffd5b50505061053290610e32565b34610191575f366003190112610191576020600254604051908152f35b34610191575f366003190112610191575f546040516001600160a01b039091168152602090f35b34610191576020366003190112610191576004356001600160401b03811161019157610647610700913690600401610a3b565b61064f610e65565b5060206040519161067961043f8251948481818601978089835e8101600181520301902054610bb4565b604051928391518091835e810160018152030190206040519061069b826109fd565b6040516106ac816104a58185610ec9565b825260018101546001600160a01b031660208301526040516106d5816104a58160028601610ec9565b6040830152600360018060a01b03910154166060820152604051918291602083526020830190610b28565b0390f35b34610191575f3660031901126101915760025461072081610e4e565b9061072e6040519283610a18565b808252601f1961073d82610e4e565b015f5b8181106108bd5750505f905b8082106107ba57826040518091602082016020835281518091526040830190602060408260051b8601019301915f905b82821061078b57505050500390f35b919360019193955060206107aa8192603f198a82030186528851610b28565b960192019201859493919261077c565b6107c382610e89565b5060405181545f94926107d582610bb4565b91600181169081156108a55750600114610871575b5050602081856001809697520301902060405190610807826109fd565b604051610818816104a58185610ec9565b8252838060a01b038482015416602083015260405161083e816104a58160028601610ec9565b60408301526003848060a01b0391015416606082015261085e8286610eb5565b526108698185610eb5565b50019061074c565b5f908152602081209095505b8186106108915750810193506020816107ea565b60018160209254888601520195019461087d565b60ff19168452505080151502810193506020816107ea565b6020906108c8610e65565b82828701015201610740565b346101915761032d7f0b931f1a681b3996742c8941304ef3339b477ea90dcf68af8727c5f494efb14361031861090936610a90565b949261092560018060a09995999794971b035f54163314610b78565b60036040519761094f61043f84519a6020818d8289019e8f835e8101600181520301902054610bb4565b6001600160a01b031696610964881515610c32565b61097087511515610c79565b6001600160a01b031697610985891515610cbd565b600160405160208186518086835e810184815203019020018860018060a01b03198254161790556109ce87600260405160208188518088835e8101600181520301902001610d6e565b6020604051809285518091835e6001908201908152030190200180546001600160a01b03191688179055610e32565b608081019081106001600160401b0382111761034557604052565b601f909101601f19168101906001600160401b0382119082101761034557604052565b81601f82011215610191578035906001600160401b0382116103455760405192610a6f601f8401601f191660200185610a18565b8284526020838301011161019157815f926020809301838601378301015290565b6080600319820112610191576004356001600160401b0381116101915781610aba91600401610a3b565b916024356001600160a01b03811681036101915791604435906001600160401b03821161019157610aed91600401610a3b565b906064356001600160a01b03811681036101915790565b805180835260209291819084018484015e5f828201840152601f01601f1916010190565b906060610b65610b418451608085526080850190610b04565b60018060a01b03602086015116602085015260408501518482036040860152610b04565b928101516001600160a01b031691015290565b15610b7f57565b60405162461bcd60e51b815260206004820152600d60248201526c2737ba103a34329037bbb732b960991b6044820152606490fd5b90600182811c92168015610be2575b6020831014610bce57565b634e487b7160e01b5f52602260045260245ffd5b91607f1691610bc3565b15610bf357565b60405162461bcd60e51b815260206004820152601760248201527610dbdb9d1c9858dd08191bd95cc81b9bdd08195e1a5cdd604a1b6044820152606490fd5b15610c3957565b60405162461bcd60e51b8152602060048201526018602482015277496e76616c696420636f6e7472616374206164647265737360401b6044820152606490fd5b15610c8057565b60405162461bcd60e51b8152602060048201526015602482015274436861696e2063616e6e6f7420626520656d70747960581b6044820152606490fd5b15610cc457565b60405162461bcd60e51b8152602060048201526018602482015277496e76616c6964206465706c6f796572206164647265737360401b6044820152606490fd5b5f5b828110610d1257505050565b5f82820155600101610d06565b91601f8211610d2d57505050565b808211610d3957505050565b610d64925f5260205f20916020601f830160051c9210610d66575b601f82910160051c039101610d04565b565b5f9150610d54565b81519192916001600160401b03811161034557610d9581610d8f8454610bb4565b84610d1f565b6020601f8211600114610dd4578190610dc59394955f92610dc9575b50508160011b915f199060031b1c19161790565b9055565b015190505f80610db1565b601f19821690835f52805f20915f5b818110610e1a57509583600195969710610e02575b505050811b019055565b01515f1960f88460031b161c191690555f8080610df8565b9192602060018192868b015181550194019201610de3565b602090604051918183925191829101835e81015f815203902090565b6001600160401b0381116103455760051b60200190565b60405190610e72826109fd565b5f6060838181528260208201528160408201520152565b600254811015610ea15760025f5260205f2001905f90565b634e487b7160e01b5f52603260045260245ffd5b8051821015610ea15760209160051b010190565b5f9291815491610ed883610bb4565b8083529260018116908115610f2d5750600114610ef457505050565b5f9081526020812093945091925b838310610f13575060209250010190565b600181602092949394548385870101520191019190610f02565b915050602093945060ff929192191683830152151560051b010190565b610f548154610bb4565b9081610f5e575050565b81601f5f9311600114610f6f575055565b81835260208320610f8c91601f0160051c84190190600101610d04565b8082528160208120915555565b91909182811461106857610fad8354610bb4565b6001600160401b03811161034557610fc981610d8f8454610bb4565b5f93601f821160011461100357610dc592939482915f92610ff85750508160011b915f199060031b1c19161790565b015490505f80610db1565b601f198216905f5260205f2094835f5260205f20915f5b8181106110505750958360019596971061103857505050811b019055565b01545f1960f88460031b161c191690555f8080610df8565b9192600180602092868b01548155019401920161101a565b50905056fea2646970667358221220d5ac91b3f5ff6da8d50fbc1eb40a8ed88e4f30512fc1a66336492ff91511b86c64736f6c63430008210033","linkReferences":{}},"methodIdentifiers":{"addContract(string,address,string,address)":"bfc169bd","getAllContracts()":"18d3ce96","getContract(string)":"35817773","getContractCount()":"9399869d","owner()":"8da5cb5b","removeContract(string)":"97623b58","transferOwnership(address)":"f2fde38b","updateContract(string,address,string,address)":"019e7ad0"},"id":76}