{"abi":[{"type":"constructor","inputs":[],"stateMutability":"nonpayable"},{"type":"function","name":"UPGRADE_INTERFACE_VERSION","inputs":[],"outputs":[{"name":"","type":"string","internalType":"string"}],"stateMutability":"view"},{"type":"function","name":"addAskAthenaVoter","inputs":[{"name":"athenaId","type":"uint256","internalType":"uint256"},{"name":"voter","type":"address","internalType":"address"},{"name":"claimAddress","type":"address","internalType":"address"},{"name":"votingPower","type":"uint256","internalType":"uint256"},{"name":"voteFor","type":"bool","internalType":"bool"}],"outputs":[],"stateMutability":"nonpayable"},{"type":"function","name":"addDisputeVoter","inputs":[{"name":"disputeId","type":"string","internalType":"string"},{"name":"voter","type":"address","internalType":"address"},{"name":"claimAddress","type":"address","internalType":"address"},{"name":"votingPower","type":"uint256","internalType":"uint256"},{"name":"voteFor","type":"bool","internalType":"bool"}],"outputs":[],"stateMutability":"nonpayable"},{"type":"function","name":"addJobApplicant","inputs":[{"name":"jobId","type":"string","internalType":"string"},{"name":"applicant","type":"address","internalType":"address"}],"outputs":[],"stateMutability":"nonpayable"},{"type":"function","name":"addJobFinalMilestone","inputs":[{"name":"jobId","type":"string","internalType":"string"},{"name":"description","type":"string","internalType":"string"},{"name":"amount","type":"uint256","internalType":"uint256"}],"outputs":[],"stateMutability":"nonpayable"},{"type":"function","name":"addOracleMember","inputs":[{"name":"oracleName","type":"string","internalType":"string"},{"name":"member","type":"address","internalType":"address"}],"outputs":[],"stateMutability":"nonpayable"},{"type":"function","name":"addPortfolio","inputs":[{"name":"user","type":"address","internalType":"address"},{"name":"portfolioHash","type":"string","internalType":"string"}],"outputs":[],"stateMutability":"nonpayable"},{"type":"function","name":"addProposalId","inputs":[{"name":"proposalId","type":"uint256","internalType":"uint256"}],"outputs":[],"stateMutability":"nonpayable"},{"type":"function","name":"addSkillVerificationVoter","inputs":[{"name":"applicationId","type":"uint256","internalType":"uint256"},{"name":"voter","type":"address","internalType":"address"},{"name":"claimAddress","type":"address","internalType":"address"},{"name":"votingPower","type":"uint256","internalType":"uint256"},{"name":"voteFor","type":"bool","internalType":"bool"}],"outputs":[],"stateMutability":"nonpayable"},{"type":"function","name":"addSkillVerifiedAddress","inputs":[{"name":"oracleName","type":"string","internalType":"string"},{"name":"user","type":"address","internalType":"address"}],"outputs":[],"stateMutability":"nonpayable"},{"type":"function","name":"addWorkSubmission","inputs":[{"name":"jobId","type":"string","internalType":"string"},{"name":"submissionHash","type":"string","internalType":"string"}],"outputs":[],"stateMutability":"nonpayable"},{"type":"function","name":"admins","inputs":[{"name":"","type":"address","internalType":"address"}],"outputs":[{"name":"","type":"bool","internalType":"bool"}],"stateMutability":"view"},{"type":"function","name":"allJobIds","inputs":[{"name":"","type":"uint256","internalType":"uint256"}],"outputs":[{"name":"","type":"string","internalType":"string"}],"stateMutability":"view"},{"type":"function","name":"allStakers","inputs":[{"name":"","type":"uint256","internalType":"uint256"}],"outputs":[{"name":"","type":"address","internalType":"address"}],"stateMutability":"view"},{"type":"function","name":"applicationCounter","inputs":[],"outputs":[{"name":"","type":"uint256","internalType":"uint256"}],"stateMutability":"view"},{"type":"function","name":"askAthenaApplications","inputs":[{"name":"","type":"uint256","internalType":"uint256"}],"outputs":[{"name":"id","type":"uint256","internalType":"uint256"},{"name":"applicant","type":"address","internalType":"address"},{"name":"description","type":"string","internalType":"string"},{"name":"hash","type":"string","internalType":"string"},{"name":"targetOracle","type":"string","internalType":"string"},{"name":"fees","type":"string","internalType":"string"},{"name":"votesFor","type":"uint256","internalType":"uint256"},{"name":"votesAgainst","type":"uint256","internalType":"uint256"},{"name":"isVotingActive","type":"bool","internalType":"bool"},{"name":"timeStamp","type":"uint256","internalType":"uint256"},{"name":"result","type":"bool","internalType":"bool"},{"name":"isFinalized","type":"bool","internalType":"bool"}],"stateMutability":"view"},{"type":"function","name":"askAthenaCounter","inputs":[],"outputs":[{"name":"","type":"uint256","internalType":"uint256"}],"stateMutability":"view"},{"type":"function","name":"askAthenaVoters","inputs":[{"name":"","type":"uint256","internalType":"uint256"},{"name":"","type":"uint256","internalType":"uint256"}],"outputs":[{"name":"voter","type":"address","internalType":"address"},{"name":"claimAddress","type":"address","internalType":"address"},{"name":"votingPower","type":"uint256","internalType":"uint256"},{"name":"voteFor","type":"bool","internalType":"bool"}],"stateMutability":"view"},{"type":"function","name":"authorizeContract","inputs":[{"name":"_contract","type":"address","internalType":"address"},{"name":"_authorized","type":"bool","internalType":"bool"}],"outputs":[],"stateMutability":"nonpayable"},{"type":"function","name":"authorizedContracts","inputs":[{"name":"","type":"address","internalType":"address"}],"outputs":[{"name":"","type":"bool","internalType":"bool"}],"stateMutability":"view"},{"type":"function","name":"delegatedVotingPower","inputs":[{"name":"","type":"address","internalType":"address"}],"outputs":[{"name":"","type":"uint256","internalType":"uint256"}],"stateMutability":"view"},{"type":"function","name":"delegates","inputs":[{"name":"","type":"address","internalType":"address"}],"outputs":[{"name":"","type":"address","internalType":"address"}],"stateMutability":"view"},{"type":"function","name":"disputeVoterClaimAddresses","inputs":[{"name":"","type":"string","internalType":"string"},{"name":"","type":"address","internalType":"address"}],"outputs":[{"name":"","type":"address","internalType":"address"}],"stateMutability":"view"},{"type":"function","name":"disputeVoters","inputs":[{"name":"","type":"string","internalType":"string"},{"name":"","type":"uint256","internalType":"uint256"}],"outputs":[{"name":"voter","type":"address","internalType":"address"},{"name":"claimAddress","type":"address","internalType":"address"},{"name":"votingPower","type":"uint256","internalType":"uint256"},{"name":"voteFor","type":"bool","internalType":"bool"}],"stateMutability":"view"},{"type":"function","name":"disputes","inputs":[{"name":"","type":"string","internalType":"string"}],"outputs":[{"name":"jobId","type":"string","internalType":"string"},{"name":"disputedAmount","type":"uint256","internalType":"uint256"},{"name":"hash","type":"string","internalType":"string"},{"name":"disputeRaiserAddress","type":"address","internalType":"address"},{"name":"votesFor","type":"uint256","internalType":"uint256"},{"name":"votesAgainst","type":"uint256","internalType":"uint256"},{"name":"result","type":"bool","internalType":"bool"},{"name":"isVotingActive","type":"bool","internalType":"bool"},{"name":"isFinalized","type":"bool","internalType":"bool"},{"name":"timeStamp","type":"uint256","internalType":"uint256"},{"name":"fees","type":"uint256","internalType":"uint256"}],"stateMutability":"view"},{"type":"function","name":"earners","inputs":[{"name":"","type":"address","internalType":"address"}],"outputs":[{"name":"earnerAddress","type":"address","internalType":"address"},{"name":"balance","type":"uint256","internalType":"uint256"},{"name":"total_governance_actions","type":"uint256","internalType":"uint256"}],"stateMutability":"view"},{"type":"function","name":"finalizeAskAthena","inputs":[{"name":"athenaId","type":"uint256","internalType":"uint256"},{"name":"result","type":"bool","internalType":"bool"}],"outputs":[],"stateMutability":"nonpayable"},{"type":"function","name":"finalizeDispute","inputs":[{"name":"disputeId","type":"string","internalType":"string"},{"name":"result","type":"bool","internalType":"bool"}],"outputs":[],"stateMutability":"nonpayable"},{"type":"function","name":"finalizeSkillVerification","inputs":[{"name":"applicationId","type":"uint256","internalType":"uint256"},{"name":"result","type":"bool","internalType":"bool"}],"outputs":[],"stateMutability":"nonpayable"},{"type":"function","name":"getActiveStakersCount","inputs":[],"outputs":[{"name":"","type":"uint256","internalType":"uint256"}],"stateMutability":"view"},{"type":"function","name":"getAllJobIds","inputs":[],"outputs":[{"name":"","type":"string[]","internalType":"string[]"}],"stateMutability":"view"},{"type":"function","name":"getAllOracleNames","inputs":[],"outputs":[{"name":"","type":"string[]","internalType":"string[]"}],"stateMutability":"view"},{"type":"function","name":"getAllProposalIds","inputs":[],"outputs":[{"name":"","type":"uint256[]","internalType":"uint256[]"}],"stateMutability":"view"},{"type":"function","name":"getAllStakers","inputs":[],"outputs":[{"name":"","type":"address[]","internalType":"address[]"}],"stateMutability":"view"},{"type":"function","name":"getAskAthenaApplication","inputs":[{"name":"athenaId","type":"uint256","internalType":"uint256"}],"outputs":[{"name":"","type":"tuple","internalType":"struct NativeOpenworkGenesis.AskAthenaApplication","components":[{"name":"id","type":"uint256","internalType":"uint256"},{"name":"applicant","type":"address","internalType":"address"},{"name":"description","type":"string","internalType":"string"},{"name":"hash","type":"string","internalType":"string"},{"name":"targetOracle","type":"string","internalType":"string"},{"name":"fees","type":"string","internalType":"string"},{"name":"votesFor","type":"uint256","internalType":"uint256"},{"name":"votesAgainst","type":"uint256","internalType":"uint256"},{"name":"isVotingActive","type":"bool","internalType":"bool"},{"name":"timeStamp","type":"uint256","internalType":"uint256"},{"name":"result","type":"bool","internalType":"bool"},{"name":"isFinalized","type":"bool","internalType":"bool"}]}],"stateMutability":"view"},{"type":"function","name":"getAskAthenaVoterCount","inputs":[{"name":"athenaId","type":"uint256","internalType":"uint256"}],"outputs":[{"name":"","type":"uint256","internalType":"uint256"}],"stateMutability":"view"},{"type":"function","name":"getAskAthenaVoters","inputs":[{"name":"athenaId","type":"uint256","internalType":"uint256"}],"outputs":[{"name":"","type":"tuple[]","internalType":"struct NativeOpenworkGenesis.VoterData[]","components":[{"name":"voter","type":"address","internalType":"address"},{"name":"claimAddress","type":"address","internalType":"address"},{"name":"votingPower","type":"uint256","internalType":"uint256"},{"name":"voteFor","type":"bool","internalType":"bool"}]}],"stateMutability":"view"},{"type":"function","name":"getDelegate","inputs":[{"name":"delegator","type":"address","internalType":"address"}],"outputs":[{"name":"","type":"address","internalType":"address"}],"stateMutability":"view"},{"type":"function","name":"getDelegatedVotingPower","inputs":[{"name":"delegatee","type":"address","internalType":"address"}],"outputs":[{"name":"","type":"uint256","internalType":"uint256"}],"stateMutability":"view"},{"type":"function","name":"getDispute","inputs":[{"name":"disputeId","type":"string","internalType":"string"}],"outputs":[{"name":"","type":"tuple","internalType":"struct NativeOpenworkGenesis.Dispute","components":[{"name":"jobId","type":"string","internalType":"string"},{"name":"disputedAmount","type":"uint256","internalType":"uint256"},{"name":"hash","type":"string","internalType":"string"},{"name":"disputeRaiserAddress","type":"address","internalType":"address"},{"name":"votesFor","type":"uint256","internalType":"uint256"},{"name":"votesAgainst","type":"uint256","internalType":"uint256"},{"name":"result","type":"bool","internalType":"bool"},{"name":"isVotingActive","type":"bool","internalType":"bool"},{"name":"isFinalized","type":"bool","internalType":"bool"},{"name":"timeStamp","type":"uint256","internalType":"uint256"},{"name":"fees","type":"uint256","internalType":"uint256"}]}],"stateMutability":"view"},{"type":"function","name":"getDisputeVoterClaimAddress","inputs":[{"name":"disputeId","type":"string","internalType":"string"},{"name":"voter","type":"address","internalType":"address"}],"outputs":[{"name":"","type":"address","internalType":"address"}],"stateMutability":"view"},{"type":"function","name":"getDisputeVoterCount","inputs":[{"name":"disputeId","type":"string","internalType":"string"}],"outputs":[{"name":"","type":"uint256","internalType":"uint256"}],"stateMutability":"view"},{"type":"function","name":"getDisputeVoters","inputs":[{"name":"disputeId","type":"string","internalType":"string"}],"outputs":[{"name":"","type":"tuple[]","internalType":"struct NativeOpenworkGenesis.VoterData[]","components":[{"name":"voter","type":"address","internalType":"address"},{"name":"claimAddress","type":"address","internalType":"address"},{"name":"votingPower","type":"uint256","internalType":"uint256"},{"name":"voteFor","type":"bool","internalType":"bool"}]}],"stateMutability":"view"},{"type":"function","name":"getEarner","inputs":[{"name":"earnerAddress","type":"address","internalType":"address"}],"outputs":[{"name":"","type":"tuple","internalType":"struct NativeOpenworkGenesis.Earner","components":[{"name":"earnerAddress","type":"address","internalType":"address"},{"name":"balance","type":"uint256","internalType":"uint256"},{"name":"total_governance_actions","type":"uint256","internalType":"uint256"}]}],"stateMutability":"view"},{"type":"function","name":"getEarnerInfo","inputs":[{"name":"earnerAddress","type":"address","internalType":"address"}],"outputs":[{"name":"earner","type":"address","internalType":"address"},{"name":"balance","type":"uint256","internalType":"uint256"},{"name":"governanceActions","type":"uint256","internalType":"uint256"}],"stateMutability":"view"},{"type":"function","name":"getIsStaker","inputs":[{"name":"staker","type":"address","internalType":"address"}],"outputs":[{"name":"","type":"bool","internalType":"bool"}],"stateMutability":"view"},{"type":"function","name":"getJob","inputs":[{"name":"jobId","type":"string","internalType":"string"}],"outputs":[{"name":"","type":"tuple","internalType":"struct NativeOpenworkGenesis.Job","components":[{"name":"id","type":"string","internalType":"string"},{"name":"jobGiver","type":"address","internalType":"address"},{"name":"applicants","type":"address[]","internalType":"address[]"},{"name":"jobDetailHash","type":"string","internalType":"string"},{"name":"status","type":"uint8","internalType":"enum NativeOpenworkGenesis.JobStatus"},{"name":"workSubmissions","type":"string[]","internalType":"string[]"},{"name":"milestonePayments","type":"tuple[]","internalType":"struct NativeOpenworkGenesis.MilestonePayment[]","components":[{"name":"descriptionHash","type":"string","internalType":"string"},{"name":"amount","type":"uint256","internalType":"uint256"}]},{"name":"finalMilestones","type":"tuple[]","internalType":"struct NativeOpenworkGenesis.MilestonePayment[]","components":[{"name":"descriptionHash","type":"string","internalType":"string"},{"name":"amount","type":"uint256","internalType":"uint256"}]},{"name":"totalPaid","type":"uint256","internalType":"uint256"},{"name":"currentMilestone","type":"uint256","internalType":"uint256"},{"name":"selectedApplicant","type":"address","internalType":"address"},{"name":"selectedApplicationId","type":"uint256","internalType":"uint256"},{"name":"paymentTargetChainDomain","type":"uint32","internalType":"uint32"},{"name":"paymentTargetAddress","type":"address","internalType":"address"},{"name":"applierOriginChainDomain","type":"uint32","internalType":"uint32"}]}],"stateMutability":"view"},{"type":"function","name":"getJobApplication","inputs":[{"name":"jobId","type":"string","internalType":"string"},{"name":"applicationId","type":"uint256","internalType":"uint256"}],"outputs":[{"name":"","type":"tuple","internalType":"struct NativeOpenworkGenesis.Application","components":[{"name":"id","type":"uint256","internalType":"uint256"},{"name":"jobId","type":"string","internalType":"string"},{"name":"applicant","type":"address","internalType":"address"},{"name":"applicationHash","type":"string","internalType":"string"},{"name":"proposedMilestones","type":"tuple[]","internalType":"struct NativeOpenworkGenesis.MilestonePayment[]","components":[{"name":"descriptionHash","type":"string","internalType":"string"},{"name":"amount","type":"uint256","internalType":"uint256"}]},{"name":"preferredPaymentChainDomain","type":"uint32","internalType":"uint32"},{"name":"preferredPaymentAddress","type":"address","internalType":"address"}]}],"stateMutability":"view"},{"type":"function","name":"getJobApplicationCount","inputs":[{"name":"jobId","type":"string","internalType":"string"}],"outputs":[{"name":"","type":"uint256","internalType":"uint256"}],"stateMutability":"view"},{"type":"function","name":"getJobCount","inputs":[],"outputs":[{"name":"","type":"uint256","internalType":"uint256"}],"stateMutability":"view"},{"type":"function","name":"getJobsByPoster","inputs":[{"name":"poster","type":"address","internalType":"address"}],"outputs":[{"name":"","type":"string[]","internalType":"string[]"}],"stateMutability":"view"},{"type":"function","name":"getOracle","inputs":[{"name":"oracleName","type":"string","internalType":"string"}],"outputs":[{"name":"","type":"tuple","internalType":"struct NativeOpenworkGenesis.Oracle","components":[{"name":"name","type":"string","internalType":"string"},{"name":"members","type":"address[]","internalType":"address[]"},{"name":"shortDescription","type":"string","internalType":"string"},{"name":"hashOfDetails","type":"string","internalType":"string"},{"name":"skillVerifiedAddresses","type":"address[]","internalType":"address[]"}]}],"stateMutability":"view"},{"type":"function","name":"getOracleCount","inputs":[],"outputs":[{"name":"","type":"uint256","internalType":"uint256"}],"stateMutability":"view"},{"type":"function","name":"getOracleMembers","inputs":[{"name":"oracleName","type":"string","internalType":"string"}],"outputs":[{"name":"","type":"address[]","internalType":"address[]"}],"stateMutability":"view"},{"type":"function","name":"getOracleNamesBatch","inputs":[{"name":"startIndex","type":"uint256","internalType":"uint256"},{"name":"count","type":"uint256","internalType":"uint256"}],"outputs":[{"name":"names","type":"string[]","internalType":"string[]"}],"stateMutability":"view"},{"type":"function","name":"getProfile","inputs":[{"name":"user","type":"address","internalType":"address"}],"outputs":[{"name":"","type":"tuple","internalType":"struct NativeOpenworkGenesis.Profile","components":[{"name":"userAddress","type":"address","internalType":"address"},{"name":"ipfsHash","type":"string","internalType":"string"},{"name":"referrerAddress","type":"address","internalType":"address"},{"name":"portfolioHashes","type":"string[]","internalType":"string[]"}]}],"stateMutability":"view"},{"type":"function","name":"getProposalCount","inputs":[],"outputs":[{"name":"","type":"uint256","internalType":"uint256"}],"stateMutability":"view"},{"type":"function","name":"getSkillApplication","inputs":[{"name":"applicationId","type":"uint256","internalType":"uint256"}],"outputs":[{"name":"","type":"tuple","internalType":"struct NativeOpenworkGenesis.SkillVerificationApplication","components":[{"name":"id","type":"uint256","internalType":"uint256"},{"name":"applicant","type":"address","internalType":"address"},{"name":"applicationHash","type":"string","internalType":"string"},{"name":"feeAmount","type":"uint256","internalType":"uint256"},{"name":"targetOracleName","type":"string","internalType":"string"},{"name":"votesFor","type":"uint256","internalType":"uint256"},{"name":"votesAgainst","type":"uint256","internalType":"uint256"},{"name":"isVotingActive","type":"bool","internalType":"bool"},{"name":"timeStamp","type":"uint256","internalType":"uint256"},{"name":"result","type":"bool","internalType":"bool"},{"name":"isFinalized","type":"bool","internalType":"bool"}]}],"stateMutability":"view"},{"type":"function","name":"getSkillVerificationDate","inputs":[{"name":"oracleName","type":"string","internalType":"string"},{"name":"user","type":"address","internalType":"address"}],"outputs":[{"name":"","type":"uint256","internalType":"uint256"}],"stateMutability":"view"},{"type":"function","name":"getSkillVerificationVoterCount","inputs":[{"name":"applicationId","type":"uint256","internalType":"uint256"}],"outputs":[{"name":"","type":"uint256","internalType":"uint256"}],"stateMutability":"view"},{"type":"function","name":"getSkillVerificationVoters","inputs":[{"name":"applicationId","type":"uint256","internalType":"uint256"}],"outputs":[{"name":"","type":"tuple[]","internalType":"struct NativeOpenworkGenesis.VoterData[]","components":[{"name":"voter","type":"address","internalType":"address"},{"name":"claimAddress","type":"address","internalType":"address"},{"name":"votingPower","type":"uint256","internalType":"uint256"},{"name":"voteFor","type":"bool","internalType":"bool"}]}],"stateMutability":"view"},{"type":"function","name":"getStake","inputs":[{"name":"staker","type":"address","internalType":"address"}],"outputs":[{"name":"","type":"tuple","internalType":"struct NativeOpenworkGenesis.Stake","components":[{"name":"amount","type":"uint256","internalType":"uint256"},{"name":"unlockTime","type":"uint256","internalType":"uint256"},{"name":"durationMinutes","type":"uint256","internalType":"uint256"},{"name":"isActive","type":"bool","internalType":"bool"}]}],"stateMutability":"view"},{"type":"function","name":"getStakerInfo","inputs":[{"name":"staker","type":"address","internalType":"address"}],"outputs":[{"name":"amount","type":"uint256","internalType":"uint256"},{"name":"unlockTime","type":"uint256","internalType":"uint256"},{"name":"durationMinutes","type":"uint256","internalType":"uint256"},{"name":"isActive","type":"bool","internalType":"bool"}],"stateMutability":"view"},{"type":"function","name":"getUserEarnedTokens","inputs":[{"name":"user","type":"address","internalType":"address"}],"outputs":[{"name":"","type":"uint256","internalType":"uint256"}],"stateMutability":"view"},{"type":"function","name":"getUserGovernanceActions","inputs":[{"name":"user","type":"address","internalType":"address"}],"outputs":[{"name":"","type":"uint256","internalType":"uint256"}],"stateMutability":"view"},{"type":"function","name":"getUserGovernanceActionsInBand","inputs":[{"name":"","type":"address","internalType":"address"},{"name":"","type":"uint256","internalType":"uint256"}],"outputs":[{"name":"","type":"uint256","internalType":"uint256"}],"stateMutability":"pure"},{"type":"function","name":"getUserRatings","inputs":[{"name":"user","type":"address","internalType":"address"}],"outputs":[{"name":"","type":"uint256[]","internalType":"uint256[]"}],"stateMutability":"view"},{"type":"function","name":"getUserRewardInfo","inputs":[{"name":"user","type":"address","internalType":"address"}],"outputs":[{"name":"totalTokens","type":"uint256","internalType":"uint256"},{"name":"governanceActions","type":"uint256","internalType":"uint256"}],"stateMutability":"view"},{"type":"function","name":"getUserTotalClaimedTokens","inputs":[{"name":"user","type":"address","internalType":"address"}],"outputs":[{"name":"","type":"uint256","internalType":"uint256"}],"stateMutability":"view"},{"type":"function","name":"hasProfile","inputs":[{"name":"user","type":"address","internalType":"address"}],"outputs":[{"name":"","type":"bool","internalType":"bool"}],"stateMutability":"view"},{"type":"function","name":"hasUserVotedOnAskAthena","inputs":[{"name":"athenaId","type":"uint256","internalType":"uint256"},{"name":"user","type":"address","internalType":"address"}],"outputs":[{"name":"","type":"bool","internalType":"bool"}],"stateMutability":"view"},{"type":"function","name":"hasUserVotedOnDispute","inputs":[{"name":"disputeId","type":"string","internalType":"string"},{"name":"user","type":"address","internalType":"address"}],"outputs":[{"name":"","type":"bool","internalType":"bool"}],"stateMutability":"view"},{"type":"function","name":"hasUserVotedOnSkillApplication","inputs":[{"name":"applicationId","type":"uint256","internalType":"uint256"},{"name":"user","type":"address","internalType":"address"}],"outputs":[{"name":"","type":"bool","internalType":"bool"}],"stateMutability":"view"},{"type":"function","name":"hasVotedOnAskAthena","inputs":[{"name":"","type":"uint256","internalType":"uint256"},{"name":"","type":"address","internalType":"address"}],"outputs":[{"name":"","type":"bool","internalType":"bool"}],"stateMutability":"view"},{"type":"function","name":"hasVotedOnDispute","inputs":[{"name":"","type":"string","internalType":"string"},{"name":"","type":"address","internalType":"address"}],"outputs":[{"name":"","type":"bool","internalType":"bool"}],"stateMutability":"view"},{"type":"function","name":"hasVotedOnSkillApplication","inputs":[{"name":"","type":"uint256","internalType":"uint256"},{"name":"","type":"address","internalType":"address"}],"outputs":[{"name":"","type":"bool","internalType":"bool"}],"stateMutability":"view"},{"type":"function","name":"incrementUserGovernanceActions","inputs":[{"name":"user","type":"address","internalType":"address"}],"outputs":[],"stateMutability":"nonpayable"},{"type":"function","name":"initialize","inputs":[{"name":"_owner","type":"address","internalType":"address"}],"outputs":[],"stateMutability":"nonpayable"},{"type":"function","name":"isStaker","inputs":[{"name":"","type":"address","internalType":"address"}],"outputs":[{"name":"","type":"bool","internalType":"bool"}],"stateMutability":"view"},{"type":"function","name":"jobApplicationCounter","inputs":[{"name":"","type":"string","internalType":"string"}],"outputs":[{"name":"","type":"uint256","internalType":"uint256"}],"stateMutability":"view"},{"type":"function","name":"jobApplications","inputs":[{"name":"","type":"string","internalType":"string"},{"name":"","type":"uint256","internalType":"uint256"}],"outputs":[{"name":"id","type":"uint256","internalType":"uint256"},{"name":"jobId","type":"string","internalType":"string"},{"name":"applicant","type":"address","internalType":"address"},{"name":"applicationHash","type":"string","internalType":"string"},{"name":"preferredPaymentChainDomain","type":"uint32","internalType":"uint32"},{"name":"preferredPaymentAddress","type":"address","internalType":"address"}],"stateMutability":"view"},{"type":"function","name":"jobCounter","inputs":[],"outputs":[{"name":"","type":"uint256","internalType":"uint256"}],"stateMutability":"view"},{"type":"function","name":"jobExists","inputs":[{"name":"jobId","type":"string","internalType":"string"}],"outputs":[{"name":"","type":"bool","internalType":"bool"}],"stateMutability":"view"},{"type":"function","name":"jobs","inputs":[{"name":"","type":"string","internalType":"string"}],"outputs":[{"name":"id","type":"string","internalType":"string"},{"name":"jobGiver","type":"address","internalType":"address"},{"name":"jobDetailHash","type":"string","internalType":"string"},{"name":"status","type":"uint8","internalType":"enum NativeOpenworkGenesis.JobStatus"},{"name":"totalPaid","type":"uint256","internalType":"uint256"},{"name":"currentMilestone","type":"uint256","internalType":"uint256"},{"name":"selectedApplicant","type":"address","internalType":"address"},{"name":"selectedApplicationId","type":"uint256","internalType":"uint256"},{"name":"paymentTargetChainDomain","type":"uint32","internalType":"uint32"},{"name":"paymentTargetAddress","type":"address","internalType":"address"},{"name":"applierOriginChainDomain","type":"uint32","internalType":"uint32"}],"stateMutability":"view"},{"type":"function","name":"jobsByPoster","inputs":[{"name":"","type":"address","internalType":"address"},{"name":"","type":"uint256","internalType":"uint256"}],"outputs":[{"name":"","type":"string","internalType":"string"}],"stateMutability":"view"},{"type":"function","name":"memberLastActivity","inputs":[{"name":"","type":"address","internalType":"address"}],"outputs":[{"name":"","type":"uint256","internalType":"uint256"}],"stateMutability":"pure"},{"type":"function","name":"memberStakeAmount","inputs":[{"name":"","type":"string","internalType":"string"},{"name":"","type":"address","internalType":"address"}],"outputs":[{"name":"","type":"uint256","internalType":"uint256"}],"stateMutability":"view"},{"type":"function","name":"nativeDAO","inputs":[],"outputs":[{"name":"","type":"address","internalType":"address"}],"stateMutability":"view"},{"type":"function","name":"oracleActiveStatus","inputs":[{"name":"","type":"string","internalType":"string"}],"outputs":[{"name":"","type":"bool","internalType":"bool"}],"stateMutability":"pure"},{"type":"function","name":"oracles","inputs":[{"name":"","type":"string","internalType":"string"}],"outputs":[{"name":"name","type":"string","internalType":"string"},{"name":"shortDescription","type":"string","internalType":"string"},{"name":"hashOfDetails","type":"string","internalType":"string"}],"stateMutability":"view"},{"type":"function","name":"owner","inputs":[],"outputs":[{"name":"","type":"address","internalType":"address"}],"stateMutability":"view"},{"type":"function","name":"proposalIds","inputs":[{"name":"","type":"uint256","internalType":"uint256"}],"outputs":[{"name":"","type":"uint256","internalType":"uint256"}],"stateMutability":"view"},{"type":"function","name":"proxiableUUID","inputs":[],"outputs":[{"name":"","type":"bytes32","internalType":"bytes32"}],"stateMutability":"view"},{"type":"function","name":"removeOracleMember","inputs":[{"name":"oracleName","type":"string","internalType":"string"},{"name":"memberToRemove","type":"address","internalType":"address"}],"outputs":[],"stateMutability":"nonpayable"},{"type":"function","name":"removePortfolioItem","inputs":[{"name":"user","type":"address","internalType":"address"},{"name":"index","type":"uint256","internalType":"uint256"}],"outputs":[],"stateMutability":"nonpayable"},{"type":"function","name":"removeStaker","inputs":[{"name":"staker","type":"address","internalType":"address"}],"outputs":[],"stateMutability":"nonpayable"},{"type":"function","name":"setAdmin","inputs":[{"name":"_admin","type":"address","internalType":"address"},{"name":"_status","type":"bool","internalType":"bool"}],"outputs":[],"stateMutability":"nonpayable"},{"type":"function","name":"setApplicationPaymentPreference","inputs":[{"name":"jobId","type":"string","internalType":"string"},{"name":"applicationId","type":"uint256","internalType":"uint256"},{"name":"preferredChainDomain","type":"uint32","internalType":"uint32"},{"name":"preferredAddress","type":"address","internalType":"address"}],"outputs":[],"stateMutability":"nonpayable"},{"type":"function","name":"setAskAthenaApplication","inputs":[{"name":"athenaId","type":"uint256","internalType":"uint256"},{"name":"applicant","type":"address","internalType":"address"},{"name":"description","type":"string","internalType":"string"},{"name":"hash","type":"string","internalType":"string"},{"name":"targetOracle","type":"string","internalType":"string"},{"name":"fees","type":"string","internalType":"string"}],"outputs":[],"stateMutability":"nonpayable"},{"type":"function","name":"setAskAthenaVote","inputs":[{"name":"athenaId","type":"uint256","internalType":"uint256"},{"name":"voter","type":"address","internalType":"address"}],"outputs":[],"stateMutability":"nonpayable"},{"type":"function","name":"setDelegate","inputs":[{"name":"delegator","type":"address","internalType":"address"},{"name":"delegatee","type":"address","internalType":"address"}],"outputs":[],"stateMutability":"nonpayable"},{"type":"function","name":"setDelegatedVotingPower","inputs":[{"name":"delegatee","type":"address","internalType":"address"},{"name":"power","type":"uint256","internalType":"uint256"}],"outputs":[],"stateMutability":"nonpayable"},{"type":"function","name":"setDispute","inputs":[{"name":"jobId","type":"string","internalType":"string"},{"name":"disputedAmount","type":"uint256","internalType":"uint256"},{"name":"hash","type":"string","internalType":"string"},{"name":"disputeRaiser","type":"address","internalType":"address"},{"name":"fees","type":"uint256","internalType":"uint256"}],"outputs":[],"stateMutability":"nonpayable"},{"type":"function","name":"setDisputeVote","inputs":[{"name":"disputeId","type":"string","internalType":"string"},{"name":"voter","type":"address","internalType":"address"}],"outputs":[],"stateMutability":"nonpayable"},{"type":"function","name":"setEarner","inputs":[{"name":"earnerAddress","type":"address","internalType":"address"},{"name":"balance","type":"uint256","internalType":"uint256"},{"name":"governanceActions","type":"uint256","internalType":"uint256"}],"outputs":[],"stateMutability":"nonpayable"},{"type":"function","name":"setJob","inputs":[{"name":"jobId","type":"string","internalType":"string"},{"name":"jobGiver","type":"address","internalType":"address"},{"name":"jobDetailHash","type":"string","internalType":"string"},{"name":"descriptions","type":"string[]","internalType":"string[]"},{"name":"amounts","type":"uint256[]","internalType":"uint256[]"}],"outputs":[],"stateMutability":"nonpayable"},{"type":"function","name":"setJobApplication","inputs":[{"name":"jobId","type":"string","internalType":"string"},{"name":"applicationId","type":"uint256","internalType":"uint256"},{"name":"applicant","type":"address","internalType":"address"},{"name":"applicationHash","type":"string","internalType":"string"},{"name":"descriptions","type":"string[]","internalType":"string[]"},{"name":"amounts","type":"uint256[]","internalType":"uint256[]"},{"name":"preferredPaymentChainDomain","type":"uint32","internalType":"uint32"},{"name":"preferredPaymentAddress","type":"address","internalType":"address"}],"outputs":[],"stateMutability":"nonpayable"},{"type":"function","name":"setJobCurrentMilestone","inputs":[{"name":"jobId","type":"string","internalType":"string"},{"name":"milestone","type":"uint256","internalType":"uint256"}],"outputs":[],"stateMutability":"nonpayable"},{"type":"function","name":"setJobPaymentTarget","inputs":[{"name":"jobId","type":"string","internalType":"string"},{"name":"targetChainDomain","type":"uint32","internalType":"uint32"},{"name":"targetAddress","type":"address","internalType":"address"},{"name":"applierOriginChainDomain","type":"uint32","internalType":"uint32"}],"outputs":[],"stateMutability":"nonpayable"},{"type":"function","name":"setJobRating","inputs":[{"name":"jobId","type":"string","internalType":"string"},{"name":"user","type":"address","internalType":"address"},{"name":"rating","type":"uint256","internalType":"uint256"}],"outputs":[],"stateMutability":"nonpayable"},{"type":"function","name":"setJobSelectedApplicant","inputs":[{"name":"jobId","type":"string","internalType":"string"},{"name":"applicant","type":"address","internalType":"address"},{"name":"applicationId","type":"uint256","internalType":"uint256"}],"outputs":[],"stateMutability":"nonpayable"},{"type":"function","name":"setMemberStakeAmount","inputs":[{"name":"oracleName","type":"string","internalType":"string"},{"name":"member","type":"address","internalType":"address"},{"name":"amount","type":"uint256","internalType":"uint256"}],"outputs":[],"stateMutability":"nonpayable"},{"type":"function","name":"setNativeDAO","inputs":[{"name":"_nativeDAO","type":"address","internalType":"address"}],"outputs":[],"stateMutability":"nonpayable"},{"type":"function","name":"setOracle","inputs":[{"name":"name","type":"string","internalType":"string"},{"name":"members","type":"address[]","internalType":"address[]"},{"name":"shortDescription","type":"string","internalType":"string"},{"name":"hashOfDetails","type":"string","internalType":"string"},{"name":"skillVerifiedAddresses","type":"address[]","internalType":"address[]"}],"outputs":[],"stateMutability":"nonpayable"},{"type":"function","name":"setOracleActiveStatus","inputs":[{"name":"","type":"string","internalType":"string"},{"name":"","type":"bool","internalType":"bool"}],"outputs":[],"stateMutability":"nonpayable"},{"type":"function","name":"setProfile","inputs":[{"name":"user","type":"address","internalType":"address"},{"name":"ipfsHash","type":"string","internalType":"string"},{"name":"referrer","type":"address","internalType":"address"}],"outputs":[],"stateMutability":"nonpayable"},{"type":"function","name":"setSkillApplication","inputs":[{"name":"applicationId","type":"uint256","internalType":"uint256"},{"name":"applicant","type":"address","internalType":"address"},{"name":"applicationHash","type":"string","internalType":"string"},{"name":"feeAmount","type":"uint256","internalType":"uint256"},{"name":"targetOracleName","type":"string","internalType":"string"}],"outputs":[],"stateMutability":"nonpayable"},{"type":"function","name":"setSkillApplicationVote","inputs":[{"name":"applicationId","type":"uint256","internalType":"uint256"},{"name":"voter","type":"address","internalType":"address"}],"outputs":[],"stateMutability":"nonpayable"},{"type":"function","name":"setStake","inputs":[{"name":"staker","type":"address","internalType":"address"},{"name":"amount","type":"uint256","internalType":"uint256"},{"name":"unlockTime","type":"uint256","internalType":"uint256"},{"name":"durationMinutes","type":"uint256","internalType":"uint256"},{"name":"isActive","type":"bool","internalType":"bool"}],"outputs":[],"stateMutability":"nonpayable"},{"type":"function","name":"setUserGovernanceActions","inputs":[{"name":"user","type":"address","internalType":"address"},{"name":"actions","type":"uint256","internalType":"uint256"}],"outputs":[],"stateMutability":"nonpayable"},{"type":"function","name":"setUserTotalOWTokens","inputs":[{"name":"user","type":"address","internalType":"address"},{"name":"tokens","type":"uint256","internalType":"uint256"}],"outputs":[],"stateMutability":"nonpayable"},{"type":"function","name":"skillApplications","inputs":[{"name":"","type":"uint256","internalType":"uint256"}],"outputs":[{"name":"id","type":"uint256","internalType":"uint256"},{"name":"applicant","type":"address","internalType":"address"},{"name":"applicationHash","type":"string","internalType":"string"},{"name":"feeAmount","type":"uint256","internalType":"uint256"},{"name":"targetOracleName","type":"string","internalType":"string"},{"name":"votesFor","type":"uint256","internalType":"uint256"},{"name":"votesAgainst","type":"uint256","internalType":"uint256"},{"name":"isVotingActive","type":"bool","internalType":"bool"},{"name":"timeStamp","type":"uint256","internalType":"uint256"},{"name":"result","type":"bool","internalType":"bool"},{"name":"isFinalized","type":"bool","internalType":"bool"}],"stateMutability":"view"},{"type":"function","name":"skillVerificationDates","inputs":[{"name":"","type":"string","internalType":"string"},{"name":"","type":"address","internalType":"address"}],"outputs":[{"name":"","type":"uint256","internalType":"uint256"}],"stateMutability":"view"},{"type":"function","name":"skillVerificationVoters","inputs":[{"name":"","type":"uint256","internalType":"uint256"},{"name":"","type":"uint256","internalType":"uint256"}],"outputs":[{"name":"voter","type":"address","internalType":"address"},{"name":"claimAddress","type":"address","internalType":"address"},{"name":"votingPower","type":"uint256","internalType":"uint256"},{"name":"voteFor","type":"bool","internalType":"bool"}],"stateMutability":"view"},{"type":"function","name":"stakes","inputs":[{"name":"","type":"address","internalType":"address"}],"outputs":[{"name":"amount","type":"uint256","internalType":"uint256"},{"name":"unlockTime","type":"uint256","internalType":"uint256"},{"name":"durationMinutes","type":"uint256","internalType":"uint256"},{"name":"isActive","type":"bool","internalType":"bool"}],"stateMutability":"view"},{"type":"function","name":"totalPlatformPayments","inputs":[],"outputs":[{"name":"","type":"uint256","internalType":"uint256"}],"stateMutability":"view"},{"type":"function","name":"transferOwnership","inputs":[{"name":"newOwner","type":"address","internalType":"address"}],"outputs":[],"stateMutability":"nonpayable"},{"type":"function","name":"updateAskAthenaVotes","inputs":[{"name":"athenaId","type":"uint256","internalType":"uint256"},{"name":"votesFor","type":"uint256","internalType":"uint256"},{"name":"votesAgainst","type":"uint256","internalType":"uint256"}],"outputs":[],"stateMutability":"nonpayable"},{"type":"function","name":"updateDelegatedVotingPower","inputs":[{"name":"delegatee","type":"address","internalType":"address"},{"name":"powerChange","type":"uint256","internalType":"uint256"},{"name":"increase","type":"bool","internalType":"bool"}],"outputs":[],"stateMutability":"nonpayable"},{"type":"function","name":"updateDisputeVotes","inputs":[{"name":"disputeId","type":"string","internalType":"string"},{"name":"votesFor","type":"uint256","internalType":"uint256"},{"name":"votesAgainst","type":"uint256","internalType":"uint256"}],"outputs":[],"stateMutability":"nonpayable"},{"type":"function","name":"updateJobStatus","inputs":[{"name":"jobId","type":"string","internalType":"string"},{"name":"status","type":"uint8","internalType":"enum NativeOpenworkGenesis.JobStatus"}],"outputs":[],"stateMutability":"nonpayable"},{"type":"function","name":"updateJobTotalPaid","inputs":[{"name":"jobId","type":"string","internalType":"string"},{"name":"amount","type":"uint256","internalType":"uint256"}],"outputs":[],"stateMutability":"nonpayable"},{"type":"function","name":"updateMemberActivity","inputs":[{"name":"","type":"address","internalType":"address"}],"outputs":[],"stateMutability":"nonpayable"},{"type":"function","name":"updatePortfolioItem","inputs":[{"name":"user","type":"address","internalType":"address"},{"name":"index","type":"uint256","internalType":"uint256"},{"name":"newPortfolioHash","type":"string","internalType":"string"}],"outputs":[],"stateMutability":"nonpayable"},{"type":"function","name":"updateProfileIpfsHash","inputs":[{"name":"user","type":"address","internalType":"address"},{"name":"newIpfsHash","type":"string","internalType":"string"}],"outputs":[],"stateMutability":"nonpayable"},{"type":"function","name":"updateSkillApplicationVotes","inputs":[{"name":"applicationId","type":"uint256","internalType":"uint256"},{"name":"votesFor","type":"uint256","internalType":"uint256"},{"name":"votesAgainst","type":"uint256","internalType":"uint256"}],"outputs":[],"stateMutability":"nonpayable"},{"type":"function","name":"updateUserClaimData","inputs":[{"name":"user","type":"address","internalType":"address"},{"name":"claimedAmount","type":"uint256","internalType":"uint256"}],"outputs":[],"stateMutability":"nonpayable"},{"type":"function","name":"upgradeToAndCall","inputs":[{"name":"newImplementation","type":"address","internalType":"address"},{"name":"data","type":"bytes","internalType":"bytes"}],"outputs":[],"stateMutability":"payable"},{"type":"function","name":"userGovernanceActions","inputs":[{"name":"","type":"address","internalType":"address"}],"outputs":[{"name":"","type":"uint256","internalType":"uint256"}],"stateMutability":"view"},{"type":"function","name":"userTotalClaimedTokens","inputs":[{"name":"","type":"address","internalType":"address"}],"outputs":[{"name":"","type":"uint256","internalType":"uint256"}],"stateMutability":"view"},{"type":"function","name":"userTotalOWTokens","inputs":[{"name":"","type":"address","internalType":"address"}],"outputs":[{"name":"","type":"uint256","internalType":"uint256"}],"stateMutability":"view"},{"type":"event","name":"AdminUpdated","inputs":[{"name":"admin","type":"address","indexed":true,"internalType":"address"},{"name":"status","type":"bool","indexed":false,"internalType":"bool"}],"anonymous":false},{"type":"event","name":"ContractAuthorized","inputs":[{"name":"contractAddress","type":"address","indexed":true,"internalType":"address"},{"name":"authorized","type":"bool","indexed":false,"internalType":"bool"}],"anonymous":false},{"type":"event","name":"Initialized","inputs":[{"name":"version","type":"uint64","indexed":false,"internalType":"uint64"}],"anonymous":false},{"type":"event","name":"NativeDAOUpdated","inputs":[{"name":"oldDAO","type":"address","indexed":true,"internalType":"address"},{"name":"newDAO","type":"address","indexed":true,"internalType":"address"}],"anonymous":false},{"type":"event","name":"OwnershipTransferred","inputs":[{"name":"previousOwner","type":"address","indexed":true,"internalType":"address"},{"name":"newOwner","type":"address","indexed":true,"internalType":"address"}],"anonymous":false},{"type":"event","name":"Upgraded","inputs":[{"name":"implementation","type":"address","indexed":true,"internalType":"address"}],"anonymous":false},{"type":"error","name":"AddressEmptyCode","inputs":[{"name":"target","type":"address","internalType":"address"}]},{"type":"error","name":"ERC1967InvalidImplementation","inputs":[{"name":"implementation","type":"address","internalType":"address"}]},{"type":"error","name":"ERC1967NonPayable","inputs":[]},{"type":"error","name":"FailedInnerCall","inputs":[]},{"type":"error","name":"InvalidInitialization","inputs":[]},{"type":"error","name":"NotInitializing","inputs":[]},{"type":"error","name":"UUPSUnauthorizedCallContext","inputs":[]},{"type":"error","name":"UUPSUnsupportedProxiableUUID","inputs":[{"name":"slot","type":"bytes32","internalType":"bytes32"}]}],"bytecode":{"object":"0x60a080604052346100c257306080525f5160206168235f395f51905f525460ff8160401c166100b3576002600160401b03196001600160401b03821601610060575b60405161675c90816100c78239608051818181614255015261439e0152f35b6001600160401b0319166001600160401b039081175f5160206168235f395f51905f525581527fc7f505b2f371ae2175ee4913f4499e1f2633a7b5936321eed1cdaeb6115181d290602090a15f80610041565b63f92ee8a960e01b5f5260045ffd5b5f80fdfe60806040526004361015610011575f80fd5b5f3560e01c80626d8630146157d0578062e09ee414613d9657806306d1ab4b146157b357806306fb531a146157055780630857d05f1461569e5780630af401dc1461562d5780630cb4196d146155dd5780630f53a470146154e8578063111006db1461544a5780631325f654146126ee57806316559540146153eb57806316934fc41461539957806319dd10e81461532c57806324f808a51461516357806328393d7914615046578063286fd04f14614fda5780632bfe51f014614f9c5780632c317eb214614f395780632c47fa9714614e905780632efc441614614df95780632f52aff614614ce157806338719e7414614c8c5780633b7d2dd6146149bf5780633f4e4251146149a257806341b3d2a114614980578063429b62e514614943578063466a9289146148385780634681594614610a3957806349868b411461475a5780634b0bddd21461469f5780634d14a239146145b95780634d16b8401461458f5780634f1ef286146143505780634ffc65f8146142d357806350355d7614611d765780635296f5c1146142a957806352d1902d14614243578063544d85641461419657806357ac2574146141d65780635843905f14610a71578063587cde1e146141965780635b3a8e1c146140b95780635c6ad340146140425780635c87384914613fbd5780635cbeb13f14613f3c5780635cd0280214613dce5780636134147314613d965780636402191814613c8c57806367c2f3e114613be5578063687694ae14613bbd578063693975b014613b5e5780636951731014613b165780636972892314613ae95780636a699b6c14610e555780636cb0124114610fc15780636d0faa9514613a895780636da25a54146108405780636e4f88c814613a2a5780636f1e853314612fa6578063733bdef0146139b3578063755f176e14613810578063759a15a0146137f757806377e32407146134f757806378d4be1b1461348e5780637a627fd81461337b5780637a766460146132d65780637c38b975146132a65780637c83b0aa146131f15780637ec25c3c1461310c57806384137482146127fd57806388c8837f1461309457806388fc75f514612fe25780638ab3bd9014612fa65780638b39905b14612f5e5780638cac641514612eb15780638d95ce5e14612df15780638da5cb5b14612dc95780639000a87f14612d0c57806390c7417d14612c6157806391c6bfae14612be45780639661725c14612b3357806396a9fdc014612a9b578063998f128e146128915780639b644a231461284a5780639c87c928146127fd5780639e2cc7e8146127365780639e4ffd54146126ee5780639e578411146126d6578063a2425f0614612664578063a2f7cb26146125ee578063a53328dc146124e8578063a542599c1461235f578063a54294af1461218a578063a616132814611fdc578063a787c80b14611f9f578063a9daf6ad14611e52578063aba01d8d14611dda578063ad3cb1cc14611d93578063aff4d41614610878578063b02b4a2f14611d76578063b05e6f5a14611c5b578063b073997a14611bf6578063b5be4fe414611b57578063ba20799514611948578063bd015d79146116ae578063beeb4ada14611691578063c08cc02d14611674578063c2cfe80e146115f7578063c3214d6c146115b5578063c4d66de814611429578063c81418e8146113d7578063c9d282931461136d578063c9fe8bf41461130e578063cae3831c146112a1578063cb29c12814611232578063cb8bde2e14611180578063cd5b752f14611102578063cdbdb29314611075578063ce40998514611012578063ceff5c5d14610fc1578063d22e505314610f3b578063d3e8a57e14610ef7578063d5b9221b14610ebb578063db144d0114610e9e578063dcde048514610e55578063e525510714610dbc578063e848635514610d98578063e9b8be9014610d22578063eb7d901b14610943578063ecd233cc14610c84578063efa90d3614610c23578063efe24b8d14610aa9578063f10f9a6914610a71578063f14db78314610a39578063f2fde38b14610998578063f4653c0b14610943578063f50336f9146108c1578063f7edb88014610878578063f9a5c63914610840578063fec17fe9146106935763ffeea55314610626575f80fd5b3461068f57604036600319011261068f5761063f6159a5565b335f525f60205260ff60405f205416801561067b575b61065e906160c5565b6001600160a01b03165f9081526023602052604090206024359055005b506001546001600160a01b03163314610655565b5f80fd5b3461068f5760a036600319011261068f576004356001600160401b03811161068f576106c3903690600401615987565b6044356001600160401b03811161068f576106e2903690600401615987565b906106eb6159e7565b91335f525f60205260ff60405f205416801561082c575b61070b906160c5565b60405192610718846158bf565b82845260208401916024358352604085019081526060850191600160a01b6001900316825260808501915f835260a086015f815260c08701935f855260e0880192600184526101008901945f86526101208a01974289526101408b01996084358b52604051818192516020819201835e8101601281520360200190209a516107a0908c616223565b5160018b0155516107b49060028b01616223565b516003890180546001600160a01b0319166001600160a01b039290921691909117905551600488015551600587015591516006860192906107f790151584616184565b5115156108049083616195565b51151581549060101b62ff0000169062ff000019161790555160078301555190600801555f80f35b506001546001600160a01b03163314610702565b3461068f57602036600319011261068f576001600160a01b036108616159a5565b165f52601f602052602060405f2054604051908152f35b3461068f57604036600319011261068f576108916159bb565b6004355f52601460205260405f209060018060a01b03165f52602052602060ff60405f2054166040519015158152f35b3461068f57602036600319011261068f576001600160a01b036108e26159a5565b165f52605c60205260405f206040519081602082549182815201915f5260205f20905f5b81811061092d576109298561091d81870382615913565b6040519182918261608c565b0390f35b8254845260209093019260019283019201610906565b3461068f57602036600319011261068f576004356001600160401b03811161068f5760208061097781933690600401615987565b604051928184925191829101835e8101600581520301902054604051908152f35b3461068f57602036600319011261068f576109b16159a5565b600154906001600160a01b038216906109cb3383146160c5565b6001600160a01b0316918215610a10576001600160a01b03191682176001557f8be0079c531659141344cd1fd0a4f28419497f9722a3daafe3b4186f6b6457e05f80a3005b60405162461bcd60e51b81526020600482015260016024820152600360fc1b6044820152606490fd5b3461068f57602036600319011261068f576001600160a01b03610a5a6159a5565b165f526024602052602060405f2054604051908152f35b3461068f57602036600319011261068f576001600160a01b03610a926159a5565b165f526023602052602060405f2054604051908152f35b3461068f57604036600319011261068f57610ac26159a5565b60243590335f525f60205260ff60405f2054168015610c0f575b610ae5906160c5565b6001600160a01b03165f818152605a6020526040902060030154909190610b0d818310616512565b825f52605a602052600360405f20015f198201918211610bfb57610b4a91610b3491616069565b5091835f52605a602052600360405f2001616069565b919091610bd457610b5a91616554565b5f52605a602052600360405f200180548015610be7575f190190610b7e8282616069565b610bd457610b8c8154615db0565b9081610b9757505055005b81601f5f9311600114610ba957505555005b81835260208320610bc691601f0160051c841901906001016161bb565b808252816020812091555555005b634e487b7160e01b5f525f60045260245ffd5b634e487b7160e01b5f52603160045260245ffd5b634e487b7160e01b5f52601160045260245ffd5b506001546001600160a01b03163314610adc565b3461068f575f36600319011261068f57604051602280548083525f91825260208301915f5160206166875f395f51905f5291905b818110610c6e576109298561091d81870382615913565b8254845260209093019260019283019201610c57565b3461068f57604036600319011261068f57600435610ce3610ca3615b1d565b335f525f60205260ff60405f2054168015610d0e575b610cc2906160c5565b610ccf60175484106160c5565b825f526011602052600a60405f2001616184565b5f908152601160205260409020600a8101805461ff001916610100179055600801805460ff19169055005b506001546001600160a01b03163314610cb9565b3461068f575f36600319011261068f575f5f602154905b818110610d4b57602083604051908152f35b610d5481616051565b9054600391821b1c6001600160a01b03165f908152601c60205260409020015460ff16610d84575b600101610d39565b91610d906001916161ad565b929050610d7c565b3461068f57604036600319011261068f57610db16159a5565b5060206040515f8152f35b3461068f57610dca366159fd565b90335f525f60205260ff60405f2054168015610e41575b610dea906160c5565b602060405191610e13846004835195858181870198808a835e8101600a815203019020016160f5565b604051928391518091835e8101600c8152030190209060018060a01b03165f5260205260405f204290555f80f35b506001546001600160a01b03163314610de1565b3461068f57604036600319011261068f57610e6e6159bb565b6004355f52601560205260405f209060018060a01b03165f52602052602060ff60405f2054166040519015158152f35b3461068f575f36600319011261068f576020601654604051908152f35b3461068f57602036600319011261068f576001600160a01b03610edc6159a5565b165f525f602052602060ff60405f2054166040519015158152f35b3461068f57602036600319011261068f576001600160a01b03610f186159a5565b165f526009602052610929610f2f60405f2061612f565b60405191829182615fb8565b3461068f57610fab610f4c36615f24565b919293335f525f60205260ff60405f2054168015610fad575b610f6e906160c5565b5f52601a60205260405f209260405194610f8786615838565b6001600160a01b0390811686521660208501526040840152151560608301526163a2565b005b506001546001600160a01b03163314610f65565b3461068f57602080610fd2366159fd565b9290604051928184925191829101835e601b908201908152030190206001600160a01b039182165f90815260209182526040908190205490519216825290f35b3461068f57610fab61102336615c97565b90335f525f60205260ff60405f2054168015611061575b611043906160c5565b6001600160a01b03165f908152605a60205260409020600101616223565b506001546001600160a01b0316331461103a565b3461068f57602036600319011261068f5761108e6159a5565b5f6040805161109c81615889565b828152826020820152015260018060a01b03165f52601d602052606060405f206040516110c881615889565b60018060a01b0382541691828252604060026001830154926020850193845201549201918252604051928352516020830152516040820152f35b3461068f57602080611113366159fd565b9290335f525f825260ff60405f205416801561116c575b611133906160c5565b604051928184925191829101835e810160138152030190209060018060a01b03165f5260205260405f20600160ff198254161790555f80f35b506001546001600160a01b0316331461112a565b3461068f57602036600319011261068f576004355f52601a60205260405f2080546111aa81615b5b565b916111b86040519384615913565b81835260208301905f5260205f205f915b8383106111de57604051806109298782615d44565b600460206001926040516111f181615838565b848060a01b038654168152848060a01b038587015416838201526002860154604082015260ff600387015416151560608201528152019201920191906111c9565b3461068f57602036600319011261068f5760043560085481101561068f5760085481101561128d5760085f525f5160206166e75f395f51905f520161127961092991615de8565b604051918291602083526020830190615aa1565b634e487b7160e01b5f52603260045260245ffd5b3461068f57602036600319011261068f576004356001600160401b03811161068f576112fa60016020806112dc610929953690600401615987565b604051928184925191829101835e8101600a815203019020016164c1565b604051918291602083526020830190615f6f565b3461068f5761131c36615ef4565b9190335f525f60205260ff60405f2054168015611359575b61133d906160c5565b5f91825260106020526040909120600581019190915560060155005b506001546001600160a01b03163314611334565b3461068f57610fab6020600181611383366159fd565b9390335f525f825260ff60405f20541680156113c1575b6113a3906160c5565b604051928184925191829101835e8101600a815203019020016160f5565b506113a3848060a01b038554163314905061139a565b3461068f57604036600319011261068f576113f06159a5565b6001600160a01b03165f90815260096020526040902080546024359081101561068f576114236112799161092993616069565b9061607e565b3461068f57602036600319011261068f576114426159a5565b5f5160206167075f395f51905f5254604081901c60ff161591906001600160401b038116801590816115ad575b60011490816115a3575b15908161159a575b5061158b576001600160401b031981166001175f5160206167075f395f51905f525582611563575b5060ff5f5160206167075f395f51905f525460401c161561155457600180546001600160a01b0319166001600160a01b039290921691821781555f91825260256020526040909120805460ff1916909117905561150257005b60ff60401b195f5160206167075f395f51905f5254165f5160206167075f395f51905f52557fc7f505b2f371ae2175ee4913f4499e1f2633a7b5936321eed1cdaeb6115181d2602060405160018152a1005b631afcd79f60e31b5f5260045ffd5b6001600160481b0319166001600160401b01175f5160206167075f395f51905f5255826114a9565b63f92ee8a960e01b5f5260045ffd5b90501584611481565b303b159150611479565b84915061146f565b3461068f57602036600319011261068f5760043560215481101561068f576115de602091616051565b905460405160039290921b1c6001600160a01b03168152f35b3461068f5761165b602060088161160d36615c4d565b9390335f525f825260ff60405f2054168015611660575b61162d906160c5565b604051928184925191829101835e8101600381520301902001611651828254616395565b9055600654616395565b600655005b506001546001600160a01b03163314611624565b3461068f575f36600319011261068f576020602254604051908152f35b3461068f575f36600319011261068f576020601754604051908152f35b3461068f5761010036600319011261068f576004356001600160401b03811161068f576116df903690600401615987565b602435906116eb6159d1565b916064356001600160401b03811161068f5761170b903690600401615987565b906084356001600160401b03811161068f5761172b903690600401615b72565b9360a4356001600160401b03811161068f5761174b903690600401615bf0565b9360c43563ffffffff8116810361068f5760e435916001600160a01b038316830361068f57600495611832946117ec61181693335f525f60205260ff60405f2054168015611934575b61179d906160c5565b604051815190602081818501938085835e81016005815203019020548a11611917575b6020604051809284518091835e81018d815203019020895f5260205260405f2098895560018901616223565b6002870180546001600160a01b0319166001600160a01b0390921691909117905560038601616223565b63ffffffff60058501911663ffffffff1982541617815561636c565b019182545f845580611887575b505f5b8151811015610fab578061188161185b60019385616319565b516118668387616319565b516040519161187483615853565b825260208201528661632d565b01611842565b600181901b906001600160ff1b03811603610bfb57835f5260205f205f5b8281106118b357505061183f565b805f600160029385016118c68154615db0565b806118d5575b500155016118a5565b601f811183146118ea57508281555b8a6118cc565b8184526020842061190691601f0160051c8519019084016161bb565b8083528260208120818355556118e4565b8960405160208185518086835e81016005815203019020556117c0565b506001546001600160a01b03163314611794565b3461068f5760c036600319011261068f576004356119646159bb565b906044356001600160401b03811161068f57611984903690600401615987565b6064356001600160401b03811161068f576119a3903690600401615987565b906084356001600160401b03811161068f576119c3903690600401615987565b9160a4356001600160401b03811161068f576119e3903690600401615987565b92335f525f60205260ff60405f2054168015611b43575b611a03906160c5565b601754851015611b30575b60405193611a1b856158f7565b8585526001600160a01b0396871660208087019182526040808801968752606088019586526080880194855260a088019384525f60c0890181815260e08a0182815260016101008c01818152426101208e019081526101408e018681526101608f018781529f87526011909852959094209b518c559551958b0180546001600160a01b03191696909d1695909517909b559651919990969592949093929091611ac79060028a01616223565b51611ad59060038901616223565b51611ae39060048801616223565b51611af19060058701616223565b51600685015551600784015551611b0d90151560088401616184565b516009820155600a0191511515611b249083616184565b511515610fab91616195565b60018501808611610bfb57601755611a0e565b506001546001600160a01b031633146119fa565b3461068f57604036600319011261068f576004356001600160401b03811161068f57611b87903690600401615987565b60243590600482101561068f57602080600492335f525f825260ff60405f2054168015611be2575b611bb8906160c5565b604051928184925191829101835e81016003815203019020019060ff801983541691161790555f80f35b506001546001600160a01b03163314611baf565b3461068f576020600981611c0936615c4d565b9390335f525f825260ff60405f2054168015611c47575b611c29906160c5565b604051928184925191829101835e8101600381520301902001555f80f35b506001546001600160a01b03163314611c20565b3461068f57602036600319011261068f576004356001600160401b03811161068f576020611c8e81923690600401615987565b604051928184925191829101835e81016003815203019020610160611cb282615de8565b9163ffffffff60018060a01b0360018301541691611cd260038201615de8565b9060ff600482015416936008820154600983015490611d39611d2e60018060a01b03600a8701541694600c600b88015497015497611d1b6040519d8d8f9e8f9081520190615aa1565b9160208d01528b820360408d0152615aa1565b9760608a0190615fab565b608088015260a087015260c086015260e085015281811661010085015260018060a01b038160201c1661012085015260c01c166101408301520390f35b3461068f575f36600319011261068f576020600754604051908152f35b3461068f575f36600319011261068f57610929604051611db4604082615913565b60058152640352e302e360dc1b6020820152604051918291602083526020830190615aa1565b3461068f575f36600319011261068f57600d54611df681615b5b565b90611e046040519283615913565b808252600d5f9081525f5160206166a75f395f51905f52602084015b838310611e3557604051806109298782615fb8565b600160208192611e4485615de8565b815201920192019190611e20565b3461068f57602036600319011261068f576004356001600160401b03811161068f57602080611e88611f53933690600401615987565b60606080604051611e988161586e565b828152828582015282604082015282808201520152604051928184925191829101835e8101600a81520301902061092960405191611ed58361586e565b611ede81615de8565b8352611f8c611eef600183016164c1565b9160208501928352611f79611f0660028301615de8565b60408701908152611f66611f2f6004611f2160038701615de8565b9560608b01968752016164c1565b9560808901968752604051998a9960208b525160a060208c015260c08b0190615aa1565b9051898203601f190160408b0152615f6f565b9051878203601f19016060890152615aa1565b9051858203601f19016080870152615aa1565b9051838203601f190160a0850152615f6f565b3461068f57602036600319011261068f576001600160a01b03611fc06159a5565b165f526059602052602060ff60405f2054166040519015158152f35b3461068f57602036600319011261068f575f610140604051611ffd816158bf565b82815282602082015260606040820152826060820152606060808201528260a08201528260c08201528260e0820152826101008201528261012082015201526004355f526010602052602060405f2060405190612059826158bf565b8054825260018101546001600160a01b03168383019081529061014090839061208460028201615de8565b9360408301948552600382015494606084019586526121576120a860048501615de8565b966080860197885260058501549760a0870198895261213e60068701549460c0890195865260ff6007890154169660e08a01971515885260ff600960088b01549a6101008d019b8c5201549b8b826101208f9e019d1615158d52019b60081c1615158b526040518e819f9e829f83525191015260018060a01b0390511660408d01525161016060608d01526101808c0190615aa1565b915160808b015251898203601f190160a08b0152615aa1565b955160c08801525160e0870152511515610100860152516101208501525115156101408401525115156101608301520390f35b3461068f57602036600319011261068f576004356001600160401b03811161068f576020806121c0610180933690600401615987565b5f6101406040516121d0816158bf565b606081528285820152606060408201528260608201528260808201528260a08201528260c08201528260e082015282610100820152826101208201520152604051928184925191829101835e8101601281520301902060405190612233826158bf565b61223c81615de8565b82526001810154906020830191825261225760028201615de8565b906040840191825260018060a01b0360038201541692606085019384526004820154906080860191825260058301549160a0870192835260068401549260c088019160ff85161515835261231760e08a019460ff8760081c161515865260ff6101008c019760101c161515875260086007890154986101208d01998a520154986101408c01998a526122fe604051809e819e60208352519161016060208201520190615aa1565b915160408d0152518b8203601f190160608d0152615aa1565b97516001600160a01b031660808a01525160a08901525160c088015251151560e087015251151561010086015251151561012085015251610140840152516101608301520390f35b3461068f5760a036600319011261068f576123786159a5565b612380615b2c565b90335f525f60205260ff60405f20541680156124d4575b6123a0906160c5565b6040516123ac81615838565b602435815260208101926044358452612405604083019260643584526003606082018415958615825260018060a01b03881698895f52601c60205260405f20945185555160018501555160028401555115159101616184565b806124be575b15612487575060215490600160401b8210156124735761243682600161245a94016021556021616069565b9080546001600160a01b0360039390931b83811b199091169290931690921b179055565b5f9081526020805260409020805460ff19166001179055005b634e487b7160e01b5f52604160045260245ffd5b9050806124a9575b61249557005b5f526020805260405f2060ff198154169055005b50805f526020805260ff60405f20541661248f565b50825f526020805260ff60405f2054161561240b565b506001546001600160a01b03163314612397565b3461068f57602036600319011261068f576004356001600160401b03811161068f5760208061251e612598933690600401615987565b604051928184925191829101835e8101601281520301902061253f81615de8565b9060018101549061255260028201615de8565b9060ff60018060a01b036003830154169360048301546005840154906125ab60068601549360086007880154970154976040519b8c9b6101608d526101608d0190615aa1565b9160208c01528a820360408c0152615aa1565b966060890152608088015260a0870152818116151560c0870152818160081c16151560e087015260101c1615156101008501526101208401526101408301520390f35b3461068f57602036600319011261068f576126076159a5565b61261c60018060a01b036001541633146160c5565b602680546001600160a01b039283166001600160a01b0319821681179092559091167febf0307548e44546701f6014620caeea64df200e2b3925bfd3c75d354fd7410d5f80a3005b3461068f5761267236615f0e565b905f52601a60205260405f2090815481101561068f5761269191615c7e565b50805460018201546002830154600390930154604080516001600160a01b0394851681529390921660208401529082019290925260ff90911615156060820152608090f35b3461068f576126e436616017565b5050610fab616415565b3461068f576020806126ff366159fd565b9290604051928184925191829101835e8101600c8152030190209060018060a01b03165f52602052602060405f2054604051908152f35b3461068f57606036600319011261068f5761274f6159a5565b60243590604435801515810361068f57335f525f60205260ff60405f20541680156127e9575b61277e906160c5565b156127a55760018060a01b03165f52601f6020526127a160405f20918254616395565b9055005b6001600160a01b03165f818152601f602052604090205482116127d8575f52601f6020526127a160405f20918254616448565b90505f52601f6020525f6040812055005b506001546001600160a01b03163314612775565b3461068f5760208061280e366159fd565b9290604051928184925191829101835e810160138152030190209060018060a01b03165f52602052602060ff60405f2054166040519015158152f35b3461068f57602036600319011261068f5760043560225481101561068f5760225481101561128d5760225f525f5160206166875f395f51905f520154604051908152602090f35b3461068f57602036600319011261068f576040516128ae816158f7565b5f8152602081015f905260408101606090526060810160609052608081016060905260a081016060905260c081015f905260e081015f905261010081015f905261012081015f905261014081015f9052610160015f90526004355f52601160205260405f2060405161291f816158f7565b8154815260018201546001600160a01b0316602082019081529161294560028201615de8565b6040830190815261295860038301615de8565b606084019081529061296c60048401615de8565b608085019081529261298060058201615de8565b9360a0860194855260068201549460c0870195865260078301549060e08801918252600884015460ff1692610100890193151584526009850154946101208a01958652600a0154966101408a019660ff8916151588526101608b019860081c60ff16151589526040519b8c9b60208d525160208d0152600160a01b6001900390511660408c01525160608b0161018090526101a08b01612a1f91615aa1565b90518a8203601f190160808c0152612a379190615aa1565b9051898203601f190160a08b0152612a4f9190615aa1565b9051888203601f190160c08a0152612a679190615aa1565b955160e088015251610100870152511515610120860152516101408501525115156101608401525115156101808301520390f35b3461068f57602036600319011261068f57612ab46159a5565b335f525f60205260ff60405f2054168015612b1f575b612ad3906160c5565b6001600160a01b03165f81815260208052604090205460ff16612af257005b805f526020805260405f2060ff1981541690555f52601c602052600360405f200160ff1981541690555f80f35b506001546001600160a01b03163314612aca565b3461068f57610fab6006612b4636616017565b9190335f525f60205260ff60405f2054168015612bd0575b612b67906160c5565b602060405191838151938381818501968088835e810160128152030190200161ff0019815416905583604051838184518088835e81016012815203019020016201000062ff000019825416179055604051928391518091835e8101601281520301902001616184565b506001546001600160a01b03163314612b5e565b3461068f57604036600319011261068f57612bfd6159bb565b335f525f60205260ff60405f2054168015612c4d575b612c1c906160c5565b6004355f9081526015602090815260408083206001600160a01b03909416835292905220805460ff19166001179055005b506001546001600160a01b03163314612c13565b3461068f57606036600319011261068f576004356001600160401b03811161068f57612c91903690600401615987565b335f525f60205260ff60405f2054168015612cf8575b612cb0906160c5565b6005604051825190600460208501928084845e820191601283526020816024359403019020015560405192518091845e82019160128352602081604435940301902001555f80f35b506001546001600160a01b03163314612ca7565b3461068f57602080612d1d36615c4d565b9290604051928184925191829101835e81016004815203019020905f5260205260405f208054612d4f60018301615de8565b6002830154909290612da5906001600160a01b03166005612d7260038501615de8565b93015492612d92604051968796875260c0602088015260c0870190615aa1565b9160408601528482036060860152615aa1565b63ffffffff8216608084015260209190911c6001600160a01b031660a08301520390f35b3461068f575f36600319011261068f576001546040516001600160a01b039091168152602090f35b3461068f57606036600319011261068f576004356001600160401b03811161068f57612e21903690600401615987565b602435906001600160401b03821161068f576007602080612e49610fab953690600401615987565b93335f525f825260ff60405f2054168015612e9d575b612e68906160c5565b604051928184925191829101835e810160038152030190200160405191612e8e83615853565b8252604435602083015261632d565b506001546001600160a01b03163314612e5f565b3461068f57606036600319011261068f57612eca6159a5565b335f525f60205260ff60405f2054168015612f4a575b612ee9906160c5565b600260405191612ef883615889565b6001600160a01b03908116808452602435602080860191825260443560408088019182525f948552601d9092529220945185546001600160a01b03191693169290921784559051600184015551910155005b506001546001600160a01b03163314612ee0565b3461068f57602080612f6f366159fd565b9290604051928184925191829101835e8101600b8152030190209060018060a01b03165f52602052602060405f2054604051908152f35b3461068f57602036600319011261068f576001600160a01b03612fc76159a5565b165f5260208052602060ff60405f2054166040519015158152f35b3461068f57602036600319011261068f576004355f52601960205260405f20805461300c81615b5b565b9161301a6040519384615913565b81835260208301905f5260205f205f915b83831061304057604051806109298782615d44565b6004602060019260405161305381615838565b848060a01b038654168152848060a01b038587015416838201526002860154604082015260ff6003870154161515606082015281520192019201919061302b565b3461068f575f36600319011261068f576008546130b081615b5b565b906130be6040519283615913565b80825260085f9081525f5160206166e75f395f51905f52602084015b8383106130ef57604051806109298782615fb8565b6001602081926130fe85615de8565b8152019201920191906130da565b3461068f5761311a36615f0e565b61313182600f5461312c8183106160c5565b616448565b90818111156131ea57505b61314581615b5b565b906131536040519283615913565b808252601f1961316282615b5b565b015f5b8181106131d7575050600d54925f5b82811061318957604051806109298682615fb8565b6131938183616395565b908582101561128d57600d5f526001916131bb905f5160206166a75f395f51905f5201615de8565b6131c58287616319565b526131d08186616319565b5001613174565b6060602082860181019190915201613165565b905061313c565b3461068f57606036600319011261068f5761320a6159a5565b602435906044356001600160401b03811161068f57610fab9261323461328c923690600401615987565b92335f525f60205260ff60405f2054168015613292575b613254906160c5565b6001600160a01b03165f818152605a6020526040902060030154613279908310616512565b5f52605a602052600360405f2001616069565b906162e7565b506001546001600160a01b0316331461324b565b3461068f57602036600319011261068f576004356001600160401b03811161068f57610db1903690600401615987565b3461068f57602036600319011261068f576132ef6159a5565b5f60606040516132fe81615838565b828152826020820152826040820152015260018060a01b03165f52601c602052608060405f2060405161333081615838565b815491828252600181015460208301908152606060ff600360028501549460408701958652015416930192151583526040519384525160208401525160408301525115156060820152f35b3461068f57602036600319011261068f576004355f908152601160205260409020805460018201546001600160a01b0316916133b960028201615de8565b6133c560038301615de8565b916133d260048201615de8565b926133df60058301615de8565b93600683015494600784015491600885015460ff1693600986015495600a0154966040519a8b9a8b5260208b015260408a0161018090526101808a0161342491615aa1565b89810360608b015261343591615aa1565b88810360808a015261344691615aa1565b87810360a089015261345791615aa1565b9460c087015260e0860152151561010085015261012084015260ff8116151561014084015260081c60ff1615156101608301520390f35b3461068f57604036600319011261068f576134a76159a5565b335f525f60205260ff60405f20541680156134e3575b6134c6906160c5565b6001600160a01b03165f908152601f602052604090206024359055005b506001546001600160a01b031633146134bd565b3461068f57602036600319011261068f576004356001600160401b03811161068f57602061352a81923690600401615987565b5f6101c060405161353a816158db565b60608152828582015260606040820152606080820152826080820152606060a0820152606060c0820152606060e08201528261010082015282610120820152826101408201528261016082015282610180820152826101a08201520152604051928184925191829101835e81016003815203019020604051906135bc826158db565b6135c581615de8565b825260018101546001600160a01b031660208301908152916135e9600283016164c1565b91604082019283526135fd60038201615de8565b916060810192835260ff60048301541692608082019360048110156137e357845261362a6005840161612f565b60a083019081529261363e60068201616455565b60c084019081529461365260078301616455565b9560e0850196875260088301549661010086019788526009840154916101208701928352600160a01b60019003600a86015416936101408801948552600b860154956101608901968752600c01549861018089019763ffffffff8b1689526101a08a0199600160a01b600190038c60201c168b526101c081019b60c01c63ffffffff168c526040519e8f9e8f926020845251602084016101e0905261020084016136fb91615aa1565b91516001600160a01b0316604084015251828203601f190160609093019290925261372591615f6f565b90518d8203601f190160808f015261373d9190615aa1565b915160a08d0161374c91615fab565b518b8203601f190160c08d01526137639190615ac5565b90518a8203601f190160e08c015261377b9190615e88565b9051898203601f19016101008b01526137949190615e88565b965161012089015251610140880152516001600160a01b039081166101608801529051610180870152905163ffffffff9081166101a08701529151166101c08501529051166101e08301520390f35b634e487b7160e01b5f52602160045260245ffd5b3461068f57602036600319011261068f57610db16159a5565b3461068f5760a036600319011261068f5760043561382c6159bb565b906044356001600160401b03811161068f5761384c903690600401615987565b6084356001600160401b03811161068f5761386b903690600401615987565b90335f525f60205260ff60405f205416801561399f575b61388b906160c5565b60165483101561398c575b604051916138a3836158bf565b8383526001600160a01b039485166020808501918252604080860194855260643560608701908152608087019485525f60a0880181815260c08901828152600160e08b01818152426101008d019081526101208d018681526101408e018781529e87526010909952969094209a518b559651968a0180546001600160a01b03191697909c1696909617909a559551929891959491926139459060028901616223565b516003870155516139599060048701616223565b5160058501555160068401555161397590151560078401616184565b51600882015560090191511515611b249083616184565b60018301808411610bfb57601655613896565b506001546001600160a01b03163314613882565b3461068f57602036600319011261068f576001600160a01b036139d46159a5565b165f52601c60205260405f20604051906139ed82615838565b610929606082549283855260018101549485602082015260ff60036002840154938460408501520154161515928391015260405194859485615b3b565b3461068f575f36600319011261068f57604051602154808252602082019060215f5260205f20905f5b818110613a6a57610929856112fa81870382615913565b82546001600160a01b0316845260209093019260019283019201613a53565b3461068f57610fab613a9a36615f24565b919293335f525f60205260ff60405f2054168015613ad5575b613abc906160c5565b5f52601960205260405f209260405194610f8786615838565b506001546001600160a01b03163314613ab3565b3461068f57613af736615f0e565b905f52601960205260405f2090815481101561068f5761269191615c7e565b3461068f57602036600319011261068f5760406001600160a01b03613b396159a5565b16805f526023602052815f2054905f526024602052815f205482519182526020820152f35b3461068f57613b6c36615ef4565b9190335f525f60205260ff60405f2054168015613ba9575b613b8d906160c5565b5f91825260116020526040909120600681019190915560070155005b506001546001600160a01b03163314613b84565b3461068f575f36600319011261068f576026546040516001600160a01b039091168152602090f35b3461068f57602036600319011261068f576004356001600160401b03811161068f57602080613c1b613c70933690600401615987565b604051928184925191829101835e8101600a815203019020610929613c3f82615de8565b91613c7e613c5b6003613c5460028501615de8565b9301615de8565b91604051958695606087526060870190615aa1565b908582036020870152615aa1565b908382036040850152615aa1565b3461068f57606036600319011261068f57613ca56159a5565b6024356001600160401b03811161068f57613cc4903690600401615987565b613d37613ccf6159d1565b92335f525f60205260ff60405f2054168015613d82575b613cef906160c5565b6001600160a01b03165f8181526059602052604090205490929060ff1615613d66575b5f838152605a6020526040902080546001600160a01b03191684178155600101616223565b5f908152605a6020526040902060020180546001600160a01b0319166001600160a01b03909216919091179055005b825f52605960205260405f20600160ff19825416179055613d12565b506001546001600160a01b03163314613ce6565b3461068f57602036600319011261068f576001600160a01b03613db76159a5565b165f526002602052602060405f2054604051908152f35b3461068f57602080613ddf36615c4d565b92905f60c0604051613df0816158a4565b828152606085820152826040820152606080820152606060808201528260a08201520152604051928184925191829101835e81016004815203019020905f5260205260405f20604051613e42816158a4565b81548152613e5260018301615de8565b6020820190815260028301546001600160a01b03166040830190815290929063ffffffff613f21613e8560038501615de8565b9360608601948552613f0e6005613e9e60048401616455565b926080890193845201549460a0880196858716885260c089019660018060a01b039060201c168752613eec6040519a8b9a60208c525160208c01525160e060408c01526101008b0190615aa1565b91516001600160a01b031660608a015251888203601f190160808a0152615aa1565b9051868203601f190160a0880152615e88565b92511660c0840152516001600160a01b031660e08301520390f35b3461068f57604036600319011261068f57613f556159a5565b7f3213ab8ec2ed122402f038736b41878b69ae9f61f49a7edd0666bce891d29fc96020613f80615b1d565b92613f9660018060a01b036001541633146160c5565b60018060a01b031692835f525f8252613fb28160405f20616184565b6040519015158152a2005b3461068f57604036600319011261068f57613fd66159a5565b613fde6159bb565b90335f525f60205260ff60405f205416801561402e575b613ffe906160c5565b6001600160a01b039081165f908152601e6020526040902080546001600160a01b03191692909116919091179055005b506001546001600160a01b03163314613ff5565b3461068f5760208061405336615a3e565b9391929092335f525f825260ff60405f20541680156140a5575b614076906160c5565b604051928184925191829101835e8101600b8152030190209060018060a01b03165f5260205260405f20555f80f35b506001546001600160a01b0316331461406d565b3461068f57602036600319011261068f576004355f908152601060205260409020805460018201546001600160a01b03169160ff6140f960028301615de8565b60038301549261410b60048201615de8565b600582015494614163600684015491866007860154169361415060096008880154970154976040519c8d9c8d5260208d015261016060408d01526101608c0190615aa1565b9160608b015289820360808b0152615aa1565b9560a088015260c0870152151560e0860152610100850152818116151561012085015260081c1615156101408301520390f35b3461068f57602036600319011261068f576001600160a01b036141b76159a5565b165f52601e602052602060018060a01b0360405f205416604051908152f35b3461068f57602036600319011261068f576001600160a01b036141f76159a5565b165f52601d60205260405f2060405161420f81615889565b610929604060018060a01b038454169283815260026001860154958660208401520154918291015260405193849384615a83565b3461068f575f36600319011261068f577f00000000000000000000000000000000000000000000000000000000000000006001600160a01b0316300361429a5760206040515f5160206166c75f395f51905f528152f35b63703e46dd60e11b5f5260045ffd5b3461068f57602036600319011261068f576004355f526019602052602060405f2054604051908152f35b3461068f57604036600319011261068f576142ec6159bb565b335f525f60205260ff60405f205416801561433c575b61430b906160c5565b6004355f9081526014602090815260408083206001600160a01b03909416835292905220805460ff19166001179055005b506001546001600160a01b03163314614302565b604036600319011261068f576143646159a5565b6024356001600160401b03811161068f573660238201121561068f57614394903690602481600401359101615951565b6001600160a01b037f00000000000000000000000000000000000000000000000000000000000000001630811490811561456d575b5061429a57335f52602560205260ff60405f20541615614540576040516352d1902d60e01b81526001600160a01b0383169290602081600481875afa5f918161450c575b506144255783634c9c8ce360e01b5f5260045260245ffd5b805f5160206166c75f395f51905f528592036144fa5750813b156144e8575f5160206166c75f395f51905f5280546001600160a01b031916821790557fbc7cd75a20ee27fd9adebab32041f755214dbc6bffa90cc0225b39da2e5c2d3b5f80a28151156144d0575f80836020610fab95519101845af43d156144c8573d916144ac83615936565b926144ba6040519485615913565b83523d5f602085013e616628565b606091616628565b5050346144d957005b63b398979f60e01b5f5260045ffd5b634c9c8ce360e01b5f5260045260245ffd5b632a87526960e21b5f5260045260245ffd5b9091506020813d602011614538575b8161452860209383615913565b8101031261068f5751908561440d565b3d915061451b565b60405162461bcd60e51b815260206004820152600560248201526420b236b4b760d91b6044820152606490fd5b5f5160206166c75f395f51905f52546001600160a01b031614159050836143c9565b3461068f57602036600319011261068f576004355f52601a602052602060405f2054604051908152f35b3461068f57608036600319011261068f576004356001600160401b03811161068f576145e9903690600401615987565b6044359060243563ffffffff8316830361068f57610fab92602061460b6159e7565b93335f525f825260ff60405f205416801561468b575b61462a906160c5565b604051928151938381818501968088835e81016004815203019020855f52835263ffffffff600560405f2001911663ffffffff19825416179055604051928391518091835e81016004815203019020905f52602052600560405f200161636c565b506001546001600160a01b03163314614621565b3461068f57604036600319011261068f576146b86159a5565b6146c0615b1d565b9060018060a01b036001541633148015614746575b1561471b5760207f235bc17e7930760029e9f4d860a2a8089976de5b381cf8380fc11c1d88a111339160018060a01b031692835f5260258252613fb28160405f20616184565b606460405162461bcd60e51b8152602060048201526004602482015263082eae8d60e31b6044820152fd5b506026546001600160a01b031633146146d5565b3461068f57602036600319011261068f576004356001600160401b03811161068f57602061478d81923690600401615987565b604051928184925191829101835e8101601881520301902080546147b081615b5b565b916147be6040519384615913565b81835260208301905f5260205f205f915b8383106147e457604051806109298782615d44565b600460206001926040516147f781615838565b848060a01b038654168152848060a01b038587015416838201526002860154604082015260ff600387015416151560608201528152019201920191906147cf565b3461068f57602060018161484b366159fd565b9390335f525f825260ff60405f205416801561492d575b61486b906160c5565b604051928184925191829101835e600a9082019081520301902001906001600160a01b03165f5b825480821015610fab57826148a78386616069565b905460039190911b1c6001600160a01b0316146148c75750600101614892565b5f19810192508211610bfb576124366148e36148fc9385616069565b905460039190911b1c6001600160a01b03169184616069565b80548015610be7575f1901906149128282616069565b81546001600160a01b0360039290921b9190911b1916905555005b5061486b848060a01b0385541633149050614862565b3461068f57602036600319011261068f576001600160a01b036149646159a5565b165f526025602052602060ff60405f2054166040519015158152f35b3461068f57602036600319011261068f576149996159a5565b50610fab616415565b3461068f575f36600319011261068f576020600f54604051908152f35b3461068f5760a036600319011261068f576004356001600160401b03811161068f576149ef903690600401615987565b6024356001600160401b03811161068f57614a0e903690600401615cd6565b906044356001600160401b03811161068f57614a2e903690600401615987565b906064356001600160401b03811161068f57614a4e903690600401615987565b6084356001600160401b03811161068f57614a6d903690600401615cd6565b92335f525f60205260ff60405f2054168015614c78575b614a8d906160c5565b604051614ab1845191602081818801948086835e8101600a81520301902054615db0565b15614c22575b614b0590602060405195614aca8761586e565b808752818701988952604087019485526060870195865260808701978852604051928391518091835e8101600a815203019020935184616223565b935180516001840195916001600160401b03821161247357600160401b8211612473576020908754838955808410614c07575b5001955f5260205f20955f5b828110614bea5786600487614b6b88614b61895160028501616223565b5160038301616223565b9151805191909201916001600160401b03821161247357600160401b8211612473576020908354838555808410614bcf575b5001915f5260205f20915f5b828110614bb257005b81516001600160a01b031681850155602090910190600101614ba9565b614be490855f528480855f20019103906161bb565b84614b9d565b81516001600160a01b031681890155602090910190600101614b44565b614c1c90895f528480855f20019103906161bb565b88614b38565b600d5490600160401b82101561247357614c4b8561328c846001614b059601600d55600d616069565b614c6e600f54806040516020818a518088835e8101600e815203019020556161ad565b600f559050614ab7565b506001546001600160a01b03163314614a84565b3461068f57602036600319011261068f576004356001600160401b03811161068f57602080614cc081933690600401615987565b604051928184925191829101835e8101601881520301902054604051908152f35b3461068f5760a036600319011261068f576004356001600160401b03811161068f57614d11903690600401615987565b614d196159bb565b614d216159d1565b916020614d2c615b2c565b91335f525f825260ff60405f2054168015614de5575b614d4b906160c5565b614d9d604051938251948481818601978089835e8101601881520301902060405191614d7683615838565b6001600160a01b0388811684528916868401526064356040840152151560608301526163a2565b604051928391518091835e601b908201908152030190206001600160a01b039182165f9081526020919091526040902080546001600160a01b03191692909116919091179055005b506001546001600160a01b03163314614d42565b3461068f576020600b614e0b36615a3e565b939091335f525f825260ff60405f2054168015614e7c575b614e2c906160c5565b60405192600a8251948481818601978089835e81016003815203019020019060018060a01b031660018060a01b0319825416179055604051928391518091835e8101600381520301902001555f80f35b506001546001600160a01b03163314614e23565b3461068f57604036600319011261068f576004356001600160401b03811161068f57614ec0903690600401615987565b602435906001600160401b03821161068f576005602080614ee8610fab953690600401615987565b93335f525f825260ff60405f2054168015614f25575b614f07906160c5565b604051928184925191829101835e81016003815203019020016162f6565b506001546001600160a01b03163314614efe565b3461068f57610fab614f4a36615c97565b90335f525f60205260ff60405f2054168015614f88575b614f6a906160c5565b6001600160a01b03165f908152605a602052604090206003016162f6565b506001546001600160a01b03163314614f61565b3461068f57602080614fad36615c4d565b9290604051928184925191829101835e8101601881520301902090815481101561068f5761269191615c7e565b3461068f57604036600319011261068f57614ff36159a5565b335f525f60205260ff60405f2054168015615032575b615012906160c5565b60018060a01b03165f52600260205260405f206127a16024358254616395565b506001546001600160a01b03163314615009565b3461068f57608036600319011261068f576004356001600160401b03811161068f57615076903690600401615987565b6024359063ffffffff8216820361068f5761508f6159d1565b916064359263ffffffff8416840361068f57600c92615114602092335f525f845260ff60405f205416801561514f575b6150c8906160c5565b6040519463ffffffff8785519787818189019a808c835e8101600381520301902001911663ffffffff198254161790558560405185818651808a835e810160038152030190200161636c565b604051928391518091835e60039082019081520301902001805463ffffffff60c01b191660c09290921b63ffffffff60c01b16919091179055005b506001546001600160a01b031633146150bf565b3461068f5760a036600319011261068f576004356001600160401b03811161068f57615193903690600401615987565b61519b6159bb565b906044356001600160401b03811161068f576151bb903690600401615987565b916064356001600160401b03811161068f576151db903690600401615b72565b906084356001600160401b03811161068f576151fb903690600401615bf0565b93335f525f60205260ff60405f2054168015615318575b61521b906160c5565b6152266007546161ad565b60075560085491600160401b831015612473576152558561328c8560016152be979a999a016008556008616069565b60018060a01b0381165f5260096020526152728660405f206162f6565b615294604051602081895180838c01835e810160038152030190209687616223565b6001860180546001600160a01b0319166001600160a01b0390921691909117905560038501616223565b60048301805460ff191690555f6008840181905560098401819055600a840180546001600160a01b0319169055600b84018190556006909301925b8151811015610fab578061531261185b60019385616319565b016152f9565b506001546001600160a01b03163314615212565b3461068f57602036600319011261068f576153456159a5565b335f525f60205260ff60405f2054168015615385575b615364906160c5565b6001600160a01b03165f90815260246020526040902080546127a1906161ad565b506001546001600160a01b0316331461535b565b3461068f57602036600319011261068f576001600160a01b036153ba6159a5565b165f52601c60205260405f20805461092960018301549260ff60036002830154920154169060405194859485615b3b565b3461068f57602036600319011261068f576004356001600160401b03811161068f5761544060208061542281943690600401615987565b604051928184925191829101835e8101600381520301902054615db0565b1515604051908152f35b3461068f57604036600319011261068f576004356154a9615469615b1d565b335f525f60205260ff60405f20541680156154d4575b615488906160c5565b61549560165484106160c5565b825f526010602052600960405f2001616184565b5f90815260106020526040902060098101805461ff001916610100179055600701805460ff19169055005b506001546001600160a01b0316331461547f565b3461068f57602036600319011261068f576155016159a5565b60608060405161551081615838565b5f81528160208201525f6040820152015260018060a01b03165f52605a60205260405f2060405161554081615838565b81546001600160a01b0316815261092961555c60018401615de8565b6020830190815260028401546001600160a01b03166040840190815290936155869060030161612f565b606084019081526155bb6040519586956020875260018060a01b039051166020870152516080604087015260a0860190615aa1565b91516001600160a01b0316606085015251838203601f19016080850152615ac5565b3461068f57602036600319011261068f576001600160a01b036155fe6159a5565b165f52601d60205260405f2060018060a01b038154166109296002600184015493015460405193849384615a83565b3461068f57602036600319011261068f57335f525f60205260ff60405f205416801561568a575b61565d906160c5565b602254600160401b81101561247357615681816001610fab93016022556022616069565b60043591616118565b506001546001600160a01b03163314615654565b3461068f57604036600319011261068f576156b76159a5565b335f525f60205260ff60405f20541680156156f1575b6156d6906160c5565b60018060a01b03165f52602460205260243560405f20555f80f35b506001546001600160a01b031633146156cd565b3461068f5760208061571636615a3e565b9391929092335f525f825260ff60405f205416801561579f575b615739906160c5565b604051928184925191829101835e605b908201908152030190206001600160a01b03919091165f90815260209182526040808220849055605c9092522080549190600160401b8310156124735782615799916001610fab95018155616069565b90616118565b506001546001600160a01b03163314615730565b3461068f575f36600319011261068f576020600654604051908152f35b3461068f57610fab60206002816157e6366159fd565b9390335f525f825260ff60405f2054168015615824575b615806906160c5565b604051928184925191829101835e81016003815203019020016160f5565b506001546001600160a01b031633146157fd565b608081019081106001600160401b0382111761247357604052565b604081019081106001600160401b0382111761247357604052565b60a081019081106001600160401b0382111761247357604052565b606081019081106001600160401b0382111761247357604052565b60e081019081106001600160401b0382111761247357604052565b61016081019081106001600160401b0382111761247357604052565b6101e081019081106001600160401b0382111761247357604052565b61018081019081106001600160401b0382111761247357604052565b601f909101601f19168101906001600160401b0382119082101761247357604052565b6001600160401b03811161247357601f01601f191660200190565b92919261595d82615936565b9161596b6040519384615913565b82948184528183011161068f578281602093845f960137010152565b9080601f8301121561068f578160206159a293359101615951565b90565b600435906001600160a01b038216820361068f57565b602435906001600160a01b038216820361068f57565b604435906001600160a01b038216820361068f57565b606435906001600160a01b038216820361068f57565b604060031982011261068f57600435906001600160401b03821161068f57615a2791600401615987565b906024356001600160a01b038116810361068f5790565b606060031982011261068f57600435906001600160401b03821161068f57615a6891600401615987565b906024356001600160a01b038116810361068f579060443590565b604091949392606082019560018060a01b0316825260208201520152565b805180835260209291819084018484015e5f828201840152601f01601f1916010190565b9080602083519182815201916020808360051b8301019401925f915b838310615af057505050505090565b9091929394602080615b0e600193601f198682030187528951615aa1565b97019301930191939290615ae1565b60243590811515820361068f57565b60843590811515820361068f57565b926060929594919560808501968552602085015260408401521515910152565b6001600160401b0381116124735760051b60200190565b9080601f8301121561068f578135615b8981615b5b565b92615b976040519485615913565b81845260208085019260051b8201019183831161068f5760208201905b838210615bc357505050505090565b81356001600160401b03811161068f57602091615be587848094880101615987565b815201910190615bb4565b9080601f8301121561068f578135615c0781615b5b565b92615c156040519485615913565b81845260208085019260051b82010192831161068f57602001905b828210615c3d5750505090565b8135815260209182019101615c30565b604060031982011261068f57600435906001600160401b03821161068f57615c7791600401615987565b9060243590565b805482101561128d575f5260205f209060021b01905f90565b90604060031983011261068f576004356001600160a01b038116810361068f5791602435906001600160401b03821161068f576159a291600401615987565b9080601f8301121561068f57813590615cee82615b5b565b92615cfc6040519485615913565b82845260208085019360051b82010191821161068f57602001915b818310615d245750505090565b82356001600160a01b038116810361068f57815260209283019201615d17565b60206040818301928281528451809452019201905f5b818110615d675750505090565b825180516001600160a01b039081168652602082810151909116818701526040808301519087015260609182015115159186019190915260809094019390920191600101615d5a565b90600182811c92168015615dde575b6020831014615dca57565b634e487b7160e01b5f52602260045260245ffd5b91607f1691615dbf565b9060405191825f825492615dfb84615db0565b8084529360018116908115615e665750600114615e22575b50615e2092500383615913565b565b90505f9291925260205f20905f915b818310615e4a575050906020615e20928201015f615e13565b6020919350806001915483858901015201910190918492615e31565b905060209250615e2094915060ff191682840152151560051b8201015f615e13565b9080602083519182815201916020808360051b8301019401925f915b838310615eb357505050505090565b9091929394602080600192601f198582030186528851908280615edf8451604085526040850190615aa1565b93015191015297019301930191939290615ea4565b606090600319011261068f57600435906024359060443590565b604090600319011261068f576004359060243590565b60a090600319011261068f57600435906024356001600160a01b038116810361068f57906044356001600160a01b038116810361068f579060643590608435801515810361068f5790565b90602080835192838152019201905f5b818110615f8c5750505090565b82516001600160a01b0316845260209384019390920191600101615f7f565b9060048210156137e35752565b602081016020825282518091526040820191602060408360051b8301019401925f915b838310615fea57505050505090565b9091929394602080616008600193603f198682030187528951615aa1565b97019301930191939290615fdb565b604060031982011261068f57600435906001600160401b03821161068f5761604191600401615987565b90602435801515810361068f5790565b60215481101561128d5760215f5260205f2001905f90565b805482101561128d575f5260205f2001905f90565b90610bd4576159a290615de8565b60206040818301928281528451809452019201905f5b8181106160af5750505090565b82518452602093840193909201916001016160a2565b156160cc57565b60405162461bcd60e51b81526020600482015260016024820152602160f81b6044820152606490fd5b80549190600160401b8310156124735782612436916001615e2095018155616069565b919082549060031b91821b915f19901b1916179055565b90815461613b81615b5b565b926161496040519485615913565b81845260208401905f5260205f205f915b8383106161675750505050565b60016020819261617685615de8565b81520192019201919061615a565b9060ff801983541691151516179055565b9061ff00825491151560081b169061ff001916179055565b5f198114610bfb5760010190565b5f5b8281106161c957505050565b5f828201556001016161bd565b91601f82116161e457505050565b8082116161f057505050565b615e20925f5260205f20916020601f830160051c921061621b575b601f82910160051c0391016161bb565b5f915061620b565b81519192916001600160401b0381116124735761624a816162448454615db0565b846161d6565b6020601f821160011461628957819061627a9394955f9261627e575b50508160011b915f199060031b1c19161790565b9055565b015190505f80616266565b601f19821690835f52805f20915f5b8181106162cf575095836001959697106162b7575b505050811b019055565b01515f1960f88460031b161c191690555f80806162ad565b9192602060018192868b015181550194019201616298565b9190610bd457615e2091616223565b80549190600160401b831015612473578261328c916001615e2095018155616069565b805182101561128d5760209160051b010190565b805490600160401b821015612473576001820180825582101561128d576001916020915f52815f2090831b0192616365815185616223565b0151910155565b8054600160201b600160c01b03191660209290921b600160201b600160c01b0316919091179055565b91908201809211610bfb57565b8054600160401b811015612473576163bf91600182018155615c7e565b610bd457815181546001600160a01b039182166001600160a01b0319918216178355602084015160018401805491909316911617905560408201516002820155606090910151615e209190151590600301616184565b335f525f60205260ff60405f2054168015616434575b615e20906160c5565b506001546001600160a01b0316331461642b565b91908203918211610bfb57565b90815461646181615b5b565b9261646f6040519485615913565b81845260208401905f5260205f205f915b83831061648d5750505050565b600260206001926040516164a081615853565b6164a986615de8565b81528486015483820152815201920192019190616480565b90604051918281549182825260208201905f5260205f20925f5b8181106164f0575050615e2092500383615913565b84546001600160a01b03168352600194850194879450602090930192016164db565b1561651957565b60405162461bcd60e51b8152602060048201526013602482015272496e646578206f7574206f6620626f756e647360681b6044820152606490fd5b919091828114616623576165688354615db0565b6001600160401b03811161247357616584816162448454615db0565b5f93601f82116001146165be5761627a92939482915f926165b35750508160011b915f199060031b1c19161790565b015490505f80616266565b601f198216905f5260205f2094835f5260205f20915f5b81811061660b575095836001959697106165f357505050811b019055565b01545f1960f88460031b161c191690555f80806162ad565b9192600180602092868b0154815501940192016165d5565b509050565b9061664c575080511561663d57805190602001fd5b630a12f52160e11b5f5260045ffd5b8151158061667d575b61665d575090565b639996b31560e01b5f9081526001600160a01b0391909116600452602490fd5b50803b1561665556fe61035b26e3e9eee00e0d72fd1ee8ddca6894550dca6916ea2ac6baa90d11e510d7b6990105719101dabeb77144f2a3385c8033acd3af97e9423a695e81ad1eb5360894a13ba1a3210667c828492db98dca3e2076cc3735a920a3ca505d382bbcf3f7a9fe364faab93b216da50a3214154f22a0a2b415b23a84c8169e8b636ee3f0c57e16840df040f15088dc2f81fe391c3923bec73e23a9662efc9c229c6a00a264697066735822122017324ad51f7c4dfc73bd13a7b8ca3397eded79d104e51ea3c9ff02f9749d823064736f6c63430008210033f0c57e16840df040f15088dc2f81fe391c3923bec73e23a9662efc9c229c6a00","linkReferences":{}},"methodIdentifiers":{"UPGRADE_INTERFACE_VERSION()":"ad3cb1cc","addAskAthenaVoter(uint256,address,address,uint256,bool)":"d22e5053","addDisputeVoter(string,address,address,uint256,bool)":"2f52aff6","addJobApplicant(string,address)":"006d8630","addJobFinalMilestone(string,string,uint256)":"8d95ce5e","addOracleMember(string,address)":"c9d28293","addPortfolio(address,string)":"2c317eb2","addProposalId(uint256)":"0af401dc","addSkillVerificationVoter(uint256,address,address,uint256,bool)":"6d0faa95","addSkillVerifiedAddress(string,address)":"e5255107","addWorkSubmission(string,string)":"2c47fa97","admins(address)":"429b62e5","allJobIds(uint256)":"cb29c128","allStakers(uint256)":"c3214d6c","applicationCounter()":"db144d01","askAthenaApplications(uint256)":"7a627fd8","askAthenaCounter()":"beeb4ada","askAthenaVoters(uint256,uint256)":"a2425f06","authorizeContract(address,bool)":"5cbeb13f","authorizedContracts(address)":"d5b9221b","delegatedVotingPower(address)":"f9a5c639","delegates(address)":"587cde1e","disputeVoterClaimAddresses(string,address)":"6cb01241","disputeVoters(string,uint256)":"2bfe51f0","disputes(string)":"a53328dc","earners(address)":"0cb4196d","finalizeAskAthena(uint256,bool)":"ecd233cc","finalizeDispute(string,bool)":"9661725c","finalizeSkillVerification(uint256,bool)":"111006db","getActiveStakersCount()":"e9b8be90","getAllJobIds()":"88c8837f","getAllOracleNames()":"aba01d8d","getAllProposalIds()":"efa90d36","getAllStakers()":"6e4f88c8","getAskAthenaApplication(uint256)":"998f128e","getAskAthenaVoterCount(uint256)":"4d16b840","getAskAthenaVoters(uint256)":"cb8bde2e","getDelegate(address)":"544d8564","getDelegatedVotingPower(address)":"6da25a54","getDispute(string)":"a54294af","getDisputeVoterClaimAddress(string,address)":"ceff5c5d","getDisputeVoterCount(string)":"38719e74","getDisputeVoters(string)":"49868b41","getEarner(address)":"cdbdb293","getEarnerInfo(address)":"57ac2574","getIsStaker(address)":"8ab3bd90","getJob(string)":"77e32407","getJobApplication(string,uint256)":"5cd02802","getJobApplicationCount(string)":"eb7d901b","getJobCount()":"b02b4a2f","getJobsByPoster(address)":"d3e8a57e","getOracle(string)":"a9daf6ad","getOracleCount()":"3f4e4251","getOracleMembers(string)":"cae3831c","getOracleNamesBatch(uint256,uint256)":"7ec25c3c","getProfile(address)":"0f53a470","getProposalCount()":"c08cc02d","getSkillApplication(uint256)":"a6161328","getSkillVerificationDate(string,address)":"1325f654","getSkillVerificationVoterCount(uint256)":"5296f5c1","getSkillVerificationVoters(uint256)":"88fc75f5","getStake(address)":"7a766460","getStakerInfo(address)":"733bdef0","getUserEarnedTokens(address)":"5843905f","getUserGovernanceActions(address)":"f14db783","getUserGovernanceActionsInBand(address,uint256)":"e8486355","getUserRatings(address)":"f50336f9","getUserRewardInfo(address)":"69517310","getUserTotalClaimedTokens(address)":"00e09ee4","hasProfile(address)":"a787c80b","hasUserVotedOnAskAthena(uint256,address)":"6a699b6c","hasUserVotedOnDispute(string,address)":"9c87c928","hasUserVotedOnSkillApplication(uint256,address)":"f7edb880","hasVotedOnAskAthena(uint256,address)":"dcde0485","hasVotedOnDispute(string,address)":"84137482","hasVotedOnSkillApplication(uint256,address)":"aff4d416","incrementUserGovernanceActions(address)":"19dd10e8","initialize(address)":"c4d66de8","isStaker(address)":"6f1e8533","jobApplicationCounter(string)":"f4653c0b","jobApplications(string,uint256)":"9000a87f","jobCounter()":"50355d76","jobExists(string)":"16559540","jobs(string)":"b05e6f5a","jobsByPoster(address,uint256)":"c81418e8","memberLastActivity(address)":"759a15a0","memberStakeAmount(string,address)":"8b39905b","nativeDAO()":"687694ae","oracleActiveStatus(string)":"7c38b975","oracles(string)":"67c2f3e1","owner()":"8da5cb5b","proposalIds(uint256)":"9b644a23","proxiableUUID()":"52d1902d","removeOracleMember(string,address)":"466a9289","removePortfolioItem(address,uint256)":"efe24b8d","removeStaker(address)":"96a9fdc0","setAdmin(address,bool)":"4b0bddd2","setApplicationPaymentPreference(string,uint256,uint32,address)":"4d14a239","setAskAthenaApplication(uint256,address,string,string,string,string)":"ba207995","setAskAthenaVote(uint256,address)":"91c6bfae","setDelegate(address,address)":"5c873849","setDelegatedVotingPower(address,uint256)":"78d4be1b","setDispute(string,uint256,string,address,uint256)":"fec17fe9","setDisputeVote(string,address)":"cd5b752f","setEarner(address,uint256,uint256)":"8cac6415","setJob(string,address,string,string[],uint256[])":"24f808a5","setJobApplication(string,uint256,address,string,string[],uint256[],uint32,address)":"bd015d79","setJobCurrentMilestone(string,uint256)":"b073997a","setJobPaymentTarget(string,uint32,address,uint32)":"28393d79","setJobRating(string,address,uint256)":"06fb531a","setJobSelectedApplicant(string,address,uint256)":"2efc4416","setMemberStakeAmount(string,address,uint256)":"5c6ad340","setNativeDAO(address)":"a2f7cb26","setOracle(string,address[],string,string,address[])":"3b7d2dd6","setOracleActiveStatus(string,bool)":"9e578411","setProfile(address,string,address)":"64021918","setSkillApplication(uint256,address,string,uint256,string)":"755f176e","setSkillApplicationVote(uint256,address)":"4ffc65f8","setStake(address,uint256,uint256,uint256,bool)":"a542599c","setUserGovernanceActions(address,uint256)":"0857d05f","setUserTotalOWTokens(address,uint256)":"ffeea553","skillApplications(uint256)":"5b3a8e1c","skillVerificationDates(string,address)":"9e4ffd54","skillVerificationVoters(uint256,uint256)":"69728923","stakes(address)":"16934fc4","totalPlatformPayments()":"06d1ab4b","transferOwnership(address)":"f2fde38b","updateAskAthenaVotes(uint256,uint256,uint256)":"693975b0","updateDelegatedVotingPower(address,uint256,bool)":"9e2cc7e8","updateDisputeVotes(string,uint256,uint256)":"90c7417d","updateJobStatus(string,uint8)":"b5be4fe4","updateJobTotalPaid(string,uint256)":"c2cfe80e","updateMemberActivity(address)":"41b3d2a1","updatePortfolioItem(address,uint256,string)":"7c83b0aa","updateProfileIpfsHash(address,string)":"ce409985","updateSkillApplicationVotes(uint256,uint256,uint256)":"c9fe8bf4","updateUserClaimData(address,uint256)":"286fd04f","upgradeToAndCall(address,bytes)":"4f1ef286","userGovernanceActions(address)":"46815946","userTotalClaimedTokens(address)":"61341473","userTotalOWTokens(address)":"f10f9a69"},"id":7}