{"abi":[{"type":"constructor","inputs":[],"stateMutability":"nonpayable"},{"type":"receive","stateMutability":"payable"},{"type":"function","name":"UPGRADE_INTERFACE_VERSION","inputs":[],"outputs":[{"name":"","type":"string","internalType":"string"}],"stateMutability":"view"},{"type":"function","name":"accumulatedFees","inputs":[],"outputs":[{"name":"","type":"uint256","internalType":"uint256"}],"stateMutability":"view"},{"type":"function","name":"addMembers","inputs":[{"name":"_members","type":"address[]","internalType":"address[]"},{"name":"_oracleName","type":"string","internalType":"string"}],"outputs":[],"stateMutability":"nonpayable"},{"type":"function","name":"addOrUpdateOracle","inputs":[{"name":"_names","type":"string[]","internalType":"string[]"},{"name":"_members","type":"address[][]","internalType":"address[][]"},{"name":"_shortDescriptions","type":"string[]","internalType":"string[]"},{"name":"_hashOfDetails","type":"string[]","internalType":"string[]"},{"name":"_skillVerifiedAddresses","type":"address[][]","internalType":"address[][]"}],"outputs":[],"stateMutability":"nonpayable"},{"type":"function","name":"addSingleOracle","inputs":[{"name":"_name","type":"string","internalType":"string"},{"name":"_members","type":"address[]","internalType":"address[]"},{"name":"_shortDescription","type":"string","internalType":"string"},{"name":"_hashOfDetails","type":"string","internalType":"string"},{"name":"_skillVerifiedAddresses","type":"address[]","internalType":"address[]"}],"outputs":[],"stateMutability":"nonpayable"},{"type":"function","name":"bridge","inputs":[],"outputs":[{"name":"","type":"address","internalType":"address"}],"stateMutability":"view"},{"type":"function","name":"canVote","inputs":[{"name":"account","type":"address","internalType":"address"}],"outputs":[{"name":"","type":"bool","internalType":"bool"}],"stateMutability":"view"},{"type":"function","name":"daoContract","inputs":[],"outputs":[{"name":"","type":"address","internalType":"address"}],"stateMutability":"view"},{"type":"function","name":"disputeStartTimes","inputs":[{"name":"","type":"string","internalType":"string"}],"outputs":[{"name":"","type":"uint256","internalType":"uint256"}],"stateMutability":"view"},{"type":"function","name":"finalizeSkillVerification","inputs":[{"name":"_applicationId","type":"uint256","internalType":"uint256"}],"outputs":[],"stateMutability":"nonpayable"},{"type":"function","name":"genesis","inputs":[],"outputs":[{"name":"","type":"address","internalType":"contract IOpenworkGenesis"}],"stateMutability":"view"},{"type":"function","name":"getOracleActiveMemberCount","inputs":[{"name":"_oracleName","type":"string","internalType":"string"}],"outputs":[{"name":"","type":"uint256","internalType":"uint256"}],"stateMutability":"view"},{"type":"function","name":"getOracleMembers","inputs":[{"name":"_oracleName","type":"string","internalType":"string"}],"outputs":[{"name":"","type":"address[]","internalType":"address[]"}],"stateMutability":"view"},{"type":"function","name":"getUserVotingPower","inputs":[{"name":"account","type":"address","internalType":"address"}],"outputs":[{"name":"","type":"uint256","internalType":"uint256"}],"stateMutability":"view"},{"type":"function","name":"handleAskAthena","inputs":[{"name":"applicant","type":"address","internalType":"address"},{"name":"description","type":"string","internalType":"string"},{"name":"hash","type":"string","internalType":"string"},{"name":"targetOracle","type":"string","internalType":"string"},{"name":"fees","type":"string","internalType":"string"}],"outputs":[],"stateMutability":"nonpayable"},{"type":"function","name":"handleRaiseDispute","inputs":[{"name":"jobId","type":"string","internalType":"string"},{"name":"disputeHash","type":"string","internalType":"string"},{"name":"oracleName","type":"string","internalType":"string"},{"name":"fee","type":"uint256","internalType":"uint256"},{"name":"disputedAmount","type":"uint256","internalType":"uint256"},{"name":"disputeRaiser","type":"address","internalType":"address"}],"outputs":[],"stateMutability":"nonpayable"},{"type":"function","name":"handleSubmitSkillVerification","inputs":[{"name":"applicant","type":"address","internalType":"address"},{"name":"applicationHash","type":"string","internalType":"string"},{"name":"feeAmount","type":"uint256","internalType":"uint256"},{"name":"targetOracleName","type":"string","internalType":"string"}],"outputs":[],"stateMutability":"nonpayable"},{"type":"function","name":"initialize","inputs":[{"name":"_owner","type":"address","internalType":"address"},{"name":"_daoContract","type":"address","internalType":"address"},{"name":"_genesis","type":"address","internalType":"address"},{"name":"_nowjContract","type":"address","internalType":"address"},{"name":"_usdcToken","type":"address","internalType":"address"}],"outputs":[],"stateMutability":"nonpayable"},{"type":"function","name":"isOracleActive","inputs":[{"name":"_oracleName","type":"string","internalType":"string"}],"outputs":[{"name":"","type":"bool","internalType":"bool"}],"stateMutability":"view"},{"type":"function","name":"isOracleMember","inputs":[{"name":"_account","type":"address","internalType":"address"},{"name":"_oracleName","type":"string","internalType":"string"}],"outputs":[{"name":"","type":"bool","internalType":"bool"}],"stateMutability":"view"},{"type":"function","name":"jobDisputeCounters","inputs":[{"name":"","type":"string","internalType":"string"}],"outputs":[{"name":"","type":"uint256","internalType":"uint256"}],"stateMutability":"view"},{"type":"function","name":"memberActivityThresholdDays","inputs":[],"outputs":[{"name":"","type":"uint256","internalType":"uint256"}],"stateMutability":"view"},{"type":"function","name":"minOracleMembers","inputs":[],"outputs":[{"name":"","type":"uint256","internalType":"uint256"}],"stateMutability":"view"},{"type":"function","name":"minStakeRequired","inputs":[],"outputs":[{"name":"","type":"uint256","internalType":"uint256"}],"stateMutability":"view"},{"type":"function","name":"nowjContract","inputs":[],"outputs":[{"name":"","type":"address","internalType":"contract INativeOpenWorkJobContract"}],"stateMutability":"view"},{"type":"function","name":"oracleManager","inputs":[],"outputs":[{"name":"","type":"address","internalType":"contract IOracleManager"}],"stateMutability":"view"},{"type":"function","name":"owner","inputs":[],"outputs":[{"name":"","type":"address","internalType":"address"}],"stateMutability":"view"},{"type":"function","name":"proxiableUUID","inputs":[],"outputs":[{"name":"","type":"bytes32","internalType":"bytes32"}],"stateMutability":"view"},{"type":"function","name":"removeMemberFromOracle","inputs":[{"name":"_oracleName","type":"string","internalType":"string"},{"name":"_memberToRemove","type":"address","internalType":"address"}],"outputs":[],"stateMutability":"nonpayable"},{"type":"function","name":"removeOracle","inputs":[{"name":"_oracleNames","type":"string[]","internalType":"string[]"}],"outputs":[],"stateMutability":"nonpayable"},{"type":"function","name":"renounceOwnership","inputs":[],"outputs":[],"stateMutability":"nonpayable"},{"type":"function","name":"setBridge","inputs":[{"name":"_bridge","type":"address","internalType":"address"}],"outputs":[],"stateMutability":"nonpayable"},{"type":"function","name":"setDAOContract","inputs":[{"name":"_daoContract","type":"address","internalType":"address"}],"outputs":[],"stateMutability":"nonpayable"},{"type":"function","name":"setGenesis","inputs":[{"name":"_genesis","type":"address","internalType":"address"}],"outputs":[],"stateMutability":"nonpayable"},{"type":"function","name":"setNOWJContract","inputs":[{"name":"_nowjContract","type":"address","internalType":"address"}],"outputs":[],"stateMutability":"nonpayable"},{"type":"function","name":"setOracleManager","inputs":[{"name":"_oracleManager","type":"address","internalType":"address"}],"outputs":[],"stateMutability":"nonpayable"},{"type":"function","name":"setUSDCToken","inputs":[{"name":"_usdcToken","type":"address","internalType":"address"}],"outputs":[],"stateMutability":"nonpayable"},{"type":"function","name":"settleAskAthena","inputs":[{"name":"_athenaId","type":"uint256","internalType":"uint256"}],"outputs":[],"stateMutability":"nonpayable"},{"type":"function","name":"settleDispute","inputs":[{"name":"_disputeId","type":"string","internalType":"string"}],"outputs":[],"stateMutability":"nonpayable"},{"type":"function","name":"transferOwnership","inputs":[{"name":"newOwner","type":"address","internalType":"address"}],"outputs":[],"stateMutability":"nonpayable"},{"type":"function","name":"updateMemberActivityThreshold","inputs":[{"name":"_newThresholdDays","type":"uint256","internalType":"uint256"}],"outputs":[],"stateMutability":"nonpayable"},{"type":"function","name":"updateMinOracleMembers","inputs":[{"name":"_newMinMembers","type":"uint256","internalType":"uint256"}],"outputs":[],"stateMutability":"nonpayable"},{"type":"function","name":"updateMinStakeRequired","inputs":[{"name":"_newMinStake","type":"uint256","internalType":"uint256"}],"outputs":[],"stateMutability":"nonpayable"},{"type":"function","name":"updateOracleActiveStatus","inputs":[{"name":"_oracleName","type":"string","internalType":"string"}],"outputs":[],"stateMutability":"nonpayable"},{"type":"function","name":"updateVotingPeriod","inputs":[{"name":"_newPeriodMinutes","type":"uint256","internalType":"uint256"}],"outputs":[],"stateMutability":"nonpayable"},{"type":"function","name":"upgradeFromDAO","inputs":[{"name":"newImplementation","type":"address","internalType":"address"}],"outputs":[],"stateMutability":"nonpayable"},{"type":"function","name":"upgradeToAndCall","inputs":[{"name":"newImplementation","type":"address","internalType":"address"},{"name":"data","type":"bytes","internalType":"bytes"}],"outputs":[],"stateMutability":"payable"},{"type":"function","name":"usdcToken","inputs":[],"outputs":[{"name":"","type":"address","internalType":"contract IERC20"}],"stateMutability":"view"},{"type":"function","name":"vote","inputs":[{"name":"_votingType","type":"uint8","internalType":"enum NativeAthena.VotingType"},{"name":"_disputeId","type":"string","internalType":"string"},{"name":"_voteFor","type":"bool","internalType":"bool"},{"name":"_claimAddress","type":"address","internalType":"address"}],"outputs":[],"stateMutability":"nonpayable"},{"type":"function","name":"votingPeriodMinutes","inputs":[],"outputs":[{"name":"","type":"uint256","internalType":"uint256"}],"stateMutability":"view"},{"type":"function","name":"withdraw","inputs":[],"outputs":[],"stateMutability":"nonpayable"},{"type":"event","name":"AskAthenaSettled","inputs":[{"name":"athenaId","type":"uint256","indexed":true,"internalType":"uint256"},{"name":"result","type":"bool","indexed":false,"internalType":"bool"},{"name":"totalVotesFor","type":"uint256","indexed":false,"internalType":"uint256"},{"name":"totalVotesAgainst","type":"uint256","indexed":false,"internalType":"uint256"}],"anonymous":false},{"type":"event","name":"AskAthenaSubmitted","inputs":[{"name":"applicant","type":"address","indexed":true,"internalType":"address"},{"name":"targetOracle","type":"string","indexed":false,"internalType":"string"},{"name":"fees","type":"string","indexed":false,"internalType":"string"}],"anonymous":false},{"type":"event","name":"BridgeUpdated","inputs":[{"name":"oldBridge","type":"address","indexed":true,"internalType":"address"},{"name":"newBridge","type":"address","indexed":true,"internalType":"address"}],"anonymous":false},{"type":"event","name":"CrossContractCallFailed","inputs":[{"name":"account","type":"address","indexed":true,"internalType":"address"},{"name":"reason","type":"string","indexed":false,"internalType":"string"}],"anonymous":false},{"type":"event","name":"DAOContractUpdated","inputs":[{"name":"oldDAO","type":"address","indexed":true,"internalType":"address"},{"name":"newDAO","type":"address","indexed":true,"internalType":"address"}],"anonymous":false},{"type":"event","name":"DisputeFeeRefunded","inputs":[{"name":"disputeId","type":"string","indexed":true,"internalType":"string"},{"name":"disputeRaiser","type":"address","indexed":true,"internalType":"address"},{"name":"amount","type":"uint256","indexed":false,"internalType":"uint256"},{"name":"targetChain","type":"uint32","indexed":false,"internalType":"uint32"}],"anonymous":false},{"type":"event","name":"DisputeFinalized","inputs":[{"name":"disputeId","type":"string","indexed":true,"internalType":"string"},{"name":"winningSide","type":"bool","indexed":false,"internalType":"bool"},{"name":"totalVotesFor","type":"uint256","indexed":false,"internalType":"uint256"},{"name":"totalVotesAgainst","type":"uint256","indexed":false,"internalType":"uint256"}],"anonymous":false},{"type":"event","name":"DisputeRaised","inputs":[{"name":"jobId","type":"string","indexed":true,"internalType":"string"},{"name":"disputeRaiser","type":"address","indexed":true,"internalType":"address"},{"name":"fees","type":"uint256","indexed":false,"internalType":"uint256"}],"anonymous":false},{"type":"event","name":"EarnedTokensUsedForVoting","inputs":[{"name":"user","type":"address","indexed":true,"internalType":"address"},{"name":"earnedTokens","type":"uint256","indexed":false,"internalType":"uint256"},{"name":"votingType","type":"string","indexed":false,"internalType":"string"}],"anonymous":false},{"type":"event","name":"FeeDistributed","inputs":[{"name":"disputeId","type":"string","indexed":true,"internalType":"string"},{"name":"recipient","type":"address","indexed":true,"internalType":"address"},{"name":"amount","type":"uint256","indexed":false,"internalType":"uint256"}],"anonymous":false},{"type":"event","name":"FeesWithdrawn","inputs":[{"name":"owner","type":"address","indexed":true,"internalType":"address"},{"name":"amount","type":"uint256","indexed":false,"internalType":"uint256"}],"anonymous":false},{"type":"event","name":"GenesisUpdated","inputs":[{"name":"oldGenesis","type":"address","indexed":true,"internalType":"address"},{"name":"newGenesis","type":"address","indexed":true,"internalType":"address"}],"anonymous":false},{"type":"event","name":"Initialized","inputs":[{"name":"version","type":"uint64","indexed":false,"internalType":"uint64"}],"anonymous":false},{"type":"event","name":"MemberActivityThresholdUpdated","inputs":[{"name":"newThresholdDays","type":"uint256","indexed":false,"internalType":"uint256"}],"anonymous":false},{"type":"event","name":"NOWJContractUpdated","inputs":[{"name":"oldContract","type":"address","indexed":true,"internalType":"address"},{"name":"newContract","type":"address","indexed":true,"internalType":"address"}],"anonymous":false},{"type":"event","name":"OracleStatusUpdated","inputs":[{"name":"oracleName","type":"string","indexed":true,"internalType":"string"},{"name":"isActive","type":"bool","indexed":false,"internalType":"bool"},{"name":"activeMemberCount","type":"uint256","indexed":false,"internalType":"uint256"}],"anonymous":false},{"type":"event","name":"OwnershipTransferred","inputs":[{"name":"previousOwner","type":"address","indexed":true,"internalType":"address"},{"name":"newOwner","type":"address","indexed":true,"internalType":"address"}],"anonymous":false},{"type":"event","name":"SkillVerificationSettled","inputs":[{"name":"applicationId","type":"uint256","indexed":true,"internalType":"uint256"},{"name":"result","type":"bool","indexed":false,"internalType":"bool"},{"name":"totalVotesFor","type":"uint256","indexed":false,"internalType":"uint256"},{"name":"totalVotesAgainst","type":"uint256","indexed":false,"internalType":"uint256"}],"anonymous":false},{"type":"event","name":"SkillVerificationSubmitted","inputs":[{"name":"applicant","type":"address","indexed":true,"internalType":"address"},{"name":"targetOracleName","type":"string","indexed":false,"internalType":"string"},{"name":"feeAmount","type":"uint256","indexed":false,"internalType":"uint256"},{"name":"applicationId","type":"uint256","indexed":true,"internalType":"uint256"}],"anonymous":false},{"type":"event","name":"USDCTokenUpdated","inputs":[{"name":"oldToken","type":"address","indexed":true,"internalType":"address"},{"name":"newToken","type":"address","indexed":true,"internalType":"address"}],"anonymous":false},{"type":"event","name":"Upgraded","inputs":[{"name":"implementation","type":"address","indexed":true,"internalType":"address"}],"anonymous":false},{"type":"error","name":"AddressEmptyCode","inputs":[{"name":"target","type":"address","internalType":"address"}]},{"type":"error","name":"AddressInsufficientBalance","inputs":[{"name":"account","type":"address","internalType":"address"}]},{"type":"error","name":"ERC1967InvalidImplementation","inputs":[{"name":"implementation","type":"address","internalType":"address"}]},{"type":"error","name":"ERC1967NonPayable","inputs":[]},{"type":"error","name":"FailedInnerCall","inputs":[]},{"type":"error","name":"InvalidInitialization","inputs":[]},{"type":"error","name":"NotInitializing","inputs":[]},{"type":"error","name":"OwnableInvalidOwner","inputs":[{"name":"owner","type":"address","internalType":"address"}]},{"type":"error","name":"OwnableUnauthorizedAccount","inputs":[{"name":"account","type":"address","internalType":"address"}]},{"type":"error","name":"SafeERC20FailedOperation","inputs":[{"name":"token","type":"address","internalType":"address"}]},{"type":"error","name":"UUPSUnauthorizedCallContext","inputs":[]},{"type":"error","name":"UUPSUnsupportedProxiableUUID","inputs":[{"name":"slot","type":"bytes32","internalType":"bytes32"}]}],"bytecode":{"object":"0x60a080604052346100ce5730608052605a600a555f516020615c3c5f395f51905f525460ff8160401c166100bf576002600160401b03196001600160401b0382160161006c575b604051615b6990816100d38239608051818181611f590152818161201b01526125140152f35b6001600160401b0319166001600160401b039081175f516020615c3c5f395f51905f525581527fc7f505b2f371ae2175ee4913f4499e1f2633a7b5936321eed1cdaeb6115181d290602090a15f80610046565b63f92ee8a960e01b5f5260045ffd5b5f80fdfe6080604052600436101561001a575b3615610018575f80fd5b005b5f5f3560e01c80630308b4141461398f578063059c2080146139265780630a8eef76146132e45780630b9abbfa146132c65780630baca2e51461329a5780630f5a9d011461322f57806311eac85514613206578063144e49b214612f005780631459457a14612d1357806323165bb214612bba5780632af7a0b3146129985780633948e446146129525780633c9ce794146127b55780633ccfd60b1461271d57806340634e3b146124c757806340db1a7914612436578063425d512a146123cf5780634a7ffcbc146123a85780634a9fe8f9146122435780634dea6307146122205780634f1ef28614611fcb578063502f682614611fad57806352d1902d14611f46578063565d878c14611f1d578063587f5ed714611eff5780636601d96214611ea95780637086f54814611c40578063715018a614611bea578063787bb31014611bc1578063887e15dc14610eac5780638da5cb5b14610e775780638dd1480214610e0c578063929e2e0814610dc7578063a7f0b3de14610d9e578063ad3cb1cc14610d55578063ad8d343514610d07578063add6beaf14610c76578063adfaa72e14610c48578063b90efe2e14610a14578063ba56261e146109be578063cae3831c14610871578063d3075f2a14610782578063d93e11841461075f578063dc2969eb146105c8578063e78cea921461059f578063eb14b35314610534578063ee0a5858146102e4578063ef00ef43146102c1578063f24b6b37146102a3578063f2fde38b146102765763f67321c614610256575061000e565b346102735780600319360112610273576020600854604051908152f35b80fd5b5034610273576020366003190112610273576102a0610293613a8b565b61029b614e1d565b614dbf565b80f35b50346102735780600319360112610273576020600a54604051908152f35b5034610273576020366003190112610273576102db614e1d565b60043560085580f35b5034610273576020366003190112610273576004356001600160401b0381116104eb57610315903690600401613a6d565b6003546040516332b8e0c760e21b8152602060048201526001600160a01b03909116928082806103486024820187613c4e565b0381875afa918215610527578192610503575b508091600a5490620151808202918083046201518014901517156104ef57825b8151811015610446576001600160a01b0361039682846149a9565b516040516303acd0ad60e51b8152911660048201526020816024818b5afa90811561043b578591610406575b508381151591826103f1575b50506103dd575b60010161037b565b936103e9600191614667565b9490506103d5565b6103fd91925042614db2565b1115835f6103ce565b90506020813d8211610433575b81610420602093836139f9565b8101031261042f57515f6103c2565b5f80fd5b3d9150610413565b6040513d87823e3d90fd5b838588888360075484101592803b156104eb57816040518092639e57841160e01b825281838161047a8a8a60048401613eeb565b03925af180156104e0576104c7575b50507f4268575b6cf68e1c6d8da3e874758c378dc46ef7a69108c0bc680a806b818c63916104b86040926143d4565b9382519182526020820152a280f35b816104d1916139f9565b6104dc578385610489565b8380fd5b6040513d84823e3d90fd5b5080fd5b634e487b7160e01b83526011600452602483fd5b6105209192503d8084833e61051881836139f9565b810190614984565b905f61035b565b50604051903d90823e3d90fd5b50346102735760203660031901126102735761054e613a8b565b610556614e1d565b600380546001600160a01b039283166001600160a01b0319821681179092559091167f5f1d51aab4bd6e41be6c7feda322db860d93d0058238bf871dfafd43ecc951f98380a380f35b50346102735780600319360112610273576006546040516001600160a01b039091168152602090f35b5034610273576020366003190112610273576004356001600160401b0381116104eb576105fc61062c913690600401613a6d565b918060018060a01b036003541693604051809481926332b8e0c760e21b8352602060048401526024830190613c4e565b0381865afa918215610527578192610743575b5080600a546201518081029080820462015180149015171561072f57815b8451811015610724576001600160a01b0361067882876149a9565b516040516303acd0ad60e51b8152911660048201526020816024818a5afa9081156107195784916106e8575b508281151591826106d3575b50506106bf575b60010161065d565b926106cb600191614667565b9390506106b7565b6106df91925042614db2565b1115825f6106b0565b90506020813d8211610711575b81610702602093836139f9565b8101031261042f57515f6106a4565b3d91506106f5565b6040513d86823e3d90fd5b602084604051908152f35b634e487b7160e01b82526011600452602482fd5b6107589192503d8084833e61051881836139f9565b905f61063f565b503461027357602036600319011261027357610779614e1d565b60043560095580f35b503461027357604036600319011261027357806004356001600160401b03811161086e576107b4903690600401613b62565b6024356001600160401b03811161086c576107d3903690600401613a6d565b906107e860018060a01b038454163314614c16565b6004546001600160a01b031691610800831515614675565b823b1561086a576108489261083685809460405196879586948593636983af9560e11b8552604060048601526044850190613c72565b83810360031901602485015290613c4e565b03925af180156104e0576108595750f35b81610863916139f9565b6102735780f35b505b505b50fd5b5034610273576020366003190112610273576004356001600160401b0381116104eb576108a2903690600401613a6d565b60035460405163a9daf6ad60e01b8152602060048201526001600160a01b03909116908381806108d56024820187613c4e565b0381855afa90811561071957849161099c575b505151156109645761091991839160405180809581946332b8e0c760e21b8352602060048401526024830190613c4e565b03915afa9081156104e057826109459392610949575b5050604051918291602083526020830190613c72565b0390f35b61095d92503d8091833e61051881836139f9565b5f8061092f565b60405162461bcd60e51b815260206004820152601060248201526f13dc9858db19481b9bdd08199bdd5b9960821b6044820152606490fd5b6109b891503d8086833e6109b081836139f9565b810190614575565b5f6108e8565b503461027357602036600319011261027357600435906001600160401b03821161027357602080806109f33660048701613a6d565b604051928184925191829101835e8101600b81520301902054604051908152f35b503461027357608036600319011261027357610a2e613a8b565b6024356001600160401b038111610b7c57610a4d903690600401613a6d565b6044356064356001600160401b038111610b7857610a6f903690600401613a6d565b90610a7982613cbb565b15610bc25760035460405163db144d0160e01b81529486916001600160a01b0316602087600481845afa968715610bb7578397610b80575b50803b15610b7c57604051633aaf8bb760e11b8152600481018890526001600160a01b039092166024830181905260a060448401529583918391829084908290610b1b90610b039060a4840190613c4e565b8a60648401526003198382030160848401528b613c4e565b03925af180156104e057610b63575b50507f15b66c0cbfc87dbf2cd5b52d76249c81b1ca02430f5136fb55f6c77f304ace6291610b5d604051928392836142b7565b0390a380f35b81610b6d916139f9565b610b7857845f610b2a565b8480fd5b8280fd5b925095506020823d602011610baf575b81610b9d602093836139f9565b8101031261042f57869151955f610ab1565b3d9150610b90565b6040513d85823e3d90fd5b60405162461bcd60e51b815260206004820152605260248201527f536b696c6c20766572696669636174696f6e206e6f7420617661696c61626c6560448201527f202d206f7261636c65206973206e6f742061637469766520286e656564732032606482015271302b20616374697665206d656d626572732960701b608482015260a490fd5b5034610273576020366003190112610273576020610c6c610c67613a8b565b614c92565b6040519015158152f35b503461027357604036600319011261027357806004356001600160401b03811161086e57610ca8903690600401613a6d565b610cb0613aa1565b90610cc560018060a01b038454163314614c16565b6004546001600160a01b031691610cdd831515614675565b823b1561086a576108489284928360405180968195829463add6beaf60e01b84526004840161495c565b5034610273576020366003190112610273577f1cbba4e19e2b731f9b754e78a5e9412c411a9c6c7c2eb99d2ede4acfcc92b6726020600435610d47614e1d565b80600a55604051908152a180f35b503461027357806003193601126102735750610945604051610d786040826139f9565b60058152640352e302e360dc1b6020820152604051918291602083526020830190613c4e565b50346102735780600319360112610273576003546040516001600160a01b039091168152602090f35b503461027357602036600319011261027357610de1613a8b565b610de9614e1d565b600480546001600160a01b0319166001600160a01b039290921691909117905580f35b503461027357602036600319011261027357610e26613a8b565b610e2e614e1d565b600680546001600160a01b039283166001600160a01b0319821681179092559091167faae9beddccf584528e87b66c6ff2563825c8a1433305b8a656e9b5f9bf3904998380a380f35b50346102735780600319360112610273575f516020615a345f395f51905f52546040516001600160a01b039091168152602090f35b503461027357608036600319011261027357600435906003821015610273576024356001600160401b0381116104eb57610eea903690600401613a6d565b60443590811515938483036104dc57610f01613ab7565b610f0a33614c92565b15611b68576001600160a01b0381168015611b2457610f283361442e565b968715611aed578691841593845f146119e457506003546001600160a01b031690813b156119e0578891610f7e83898d94604051978896879586946317a957fb60e11b865260a0600487015260a4860190613c4e565b9233602486015260448501526064840152608483015203925af1801561135a579087916119cb575b50505b6119b75715611389575060035460405163a54294af60e01b8152602060048201526001600160a01b03909116949092848480610fe86024820187613c4e565b0381895afa93841561043b578594611365575b50610120840161100d81511515613d37565b604051631390f92560e31b81526020818061102c33896004840161495c565b03818b5afa90811561135a57879161131c575b506112d75760e08501511561128457519560085496603c880297808904603c149015171561127057611075879861107d92613d8f565b4211156158fb565b803b156112575785604051809263cd5b752f60e01b82528183816110a5338b6004840161495c565b03925af190811561124c57869161125b575b50506003546001600160a01b0316803b15611257578580916024604051809481936341b3d2a160e01b83523360048401525af190811561124c578691611237575b5050156111c25760a0611119600180831b0360035416926080860151613d8f565b93015190803b15610b785761114893858094604051968795869485936390c7417d60e01b855260048501615959565b03925af180156104e0576111ad575b50505b60055481906001600160a01b031680611173575b505080f35b803b1561086e57818091602460405180948193634cfa135f60e11b83523360048401525af180156104e0571561116e5781610863916139f9565b816111b7916139f9565b61027357805f611157565b6111e060018060a01b03600354169160a06080860151950151613d8f565b90803b15610b785761120c93858094604051968795869485936390c7417d60e01b855260048501615959565b03925af180156104e057611222575b505061115a565b8161122c916139f9565b61027357805f61121b565b81611241916139f9565b610b7857845f6110f8565b6040513d88823e3d90fd5b8580fd5b81611265916139f9565b610b7857845f6110b7565b634e487b7160e01b87526011600452602487fd5b60405162461bcd60e51b815260206004820152602560248201527f566f74696e67206973206e6f742061637469766520666f722074686973206469604482015264737075746560d81b6064820152608490fd5b60405162461bcd60e51b815260206004820152601d60248201527f416c726561647920766f746564206f6e207468697320646973707574650000006044820152606490fd5b90506020813d602011611352575b81611337602093836139f9565b8101031261134e5761134890613cae565b5f61103f565b8680fd5b3d915061132a565b6040513d89823e3d90fd5b6113829194503d8087833e61137a81836139f9565b810190613df6565b925f610ffb565b600181036115d357509261139d839461583c565b6003546040516314c2c26560e31b81526004810183905293919291906001600160a01b03168585602481845afa94851561124c5786956115af575b50608085016113e78151613cbb565b61152d575b50803b15611257578560405180926309ff8cbf60e31b8252818381611415338b600484016158e2565b03925af190811561124c578691611518575b50506003546001600160a01b0316803b15611257578580916024604051809481936341b3d2a160e01b83523360048401525af190811561124c578691611503575b5050156114b95760c061148a60018060a01b03600354169260a0860151613d8f565b93015190803b15610b7857611148938580946040519687958694859363327fa2fd60e21b855260048501615943565b6114d760018060a01b03600354169160c060a0860151950151613d8f565b90803b15610b785761120c938580946040519687958694859363327fa2fd60e21b855260048501615943565b8161150d916139f9565b610b7857845f611468565b81611522916139f9565b610b7857845f611427565b61153a91965051336149d1565b156115475785945f6113ec565b60405162461bcd60e51b815260206004820152603a60248201527f4f6e6c79206f7261636c65206d656d626572732063616e20766f7465206f6e20604482015279616374697665206f7261636c65206170706c69636174696f6e7360301b6064820152608490fd5b6115cc9195503d8088833e6115c481836139f9565b81019061479f565b935f6113d8565b6002146115e2575b5050905080f35b6115eb9061583c565b600354604051634cc7894760e11b8152600481018390526001600160a01b039091169490928484602481895afa93841561043b578594611993575b506020840151611640906001600160a01b03161515614bbe565b604051631a9a66db60e21b81526020818061165f3388600484016158e2565b03818a5afa90811561124c578691611959575b50611900576101008401511561189f576101208401519560085496603c880297808904603c14901517156112705761107587986116ae92613d8f565b803b15611257578560405180926348e35fd760e11b82528183816116d6338b600484016158e2565b03925af190811561124c57869161188a575b50506003546001600160a01b0316803b15611257578580916024604051809481936341b3d2a160e01b83523360048401525af190811561124c578691611875575b5050156118005760e061174b60018060a01b03600354169260c0860151613d8f565b93015190803b15610b785761177a9385809460405196879586948593630693975b60e41b855260048501615943565b03925af180156104e0576117eb575b50505b60055481906001600160a01b0316806117a6575b806115db565b803b1561086e57818091602460405180948193634cfa135f60e11b83523360048401525af180156104e057156117a057816117e0916139f9565b61027357805f6117a0565b816117f5916139f9565b61027357805f611789565b61181e60018060a01b03600354169160e060c0860151950151613d8f565b90803b15610b785761184a9385809460405196879586948593630693975b60e41b855260048501615943565b03925af180156104e057611860575b505061178c565b8161186a916139f9565b61027357805f611859565b8161187f916139f9565b610b7857845f611729565b81611894916139f9565b610b7857845f6116e8565b60405162461bcd60e51b815260206004820152603360248201527f566f74696e67206973206e6f742061637469766520666f72207468697320417360448201527235a0ba3432b7309030b8383634b1b0ba34b7b760691b6064820152608490fd5b60405162461bcd60e51b815260206004820152602b60248201527f416c726561647920766f746564206f6e20746869732041736b417468656e612060448201526a30b8383634b1b0ba34b7b760a91b6064820152608490fd5b90506020813d60201161198b575b81611974602093836139f9565b810103126112575761198590613cae565b5f611672565b3d9150611967565b6119b09194503d8087833e6119a881836139f9565b810190614a78565b925f611626565b634e487b7160e01b85526021600452602485fd5b816119d5916139f9565b61125757855f610fa6565b8880fd5b88935091505060018403611a67576119fb8561583c565b6003546001600160a01b03169190823b156119e05787928992838c93611a3960405197889687958694636d0faa9560e01b8652339060048701614c62565b03925af1801561135a57908791611a52575b5050610fa9565b81611a5c916139f9565b61125757855f611a4b565b86915060028414611a79575b50610fa9565b611a828561583c565b6003546001600160a01b03169190823b156119e05787928992838c93611ac06040519788968795869463d22e505360e01b8652339060048701614c62565b03925af1801561135a57908791611ad8575b50611a73565b81611ae2916139f9565b61125757855f611ad2565b60405162461bcd60e51b815260206004820152600f60248201526e2737903b37ba34b733903837bbb2b960891b6044820152606490fd5b60405162461bcd60e51b815260206004820152601c60248201527b436c61696d20616464726573732063616e6e6f74206265207a65726f60201b6044820152606490fd5b60405162461bcd60e51b815260206004820152602b60248201527f496e73756666696369656e74207374616b65206f72206561726e656420746f6b60448201526a656e7320746f20766f746560a81b6064820152608490fd5b50346102735780600319360112610273576005546040516001600160a01b039091168152602090f35b5034610273578060031936011261027357611c03614e1d565b5f516020615a345f395f51905f5280546001600160a01b0319811690915581906001600160a01b03165f516020615ab45f395f51905f528280a380f35b50346102735760a036600319011261027357611c5a613a8b565b6024356001600160401b038111610b7c57611c79903690600401613a6d565b906044356001600160401b0381116104dc57611c99903690600401613a6d565b6064356001600160401b038111610b7857611cb8903690600401613a6d565b916084356001600160401b03811161125757611cd8903690600401613a6d565b6006549092906001600160a01b03163303611e5957600354604051635f75a56d60e11b8152879390916001600160a01b0316602083600481845afa92831561043b578593611e22575b50803b15610b785784928360405180968195829463ba20799560e01b84526004840152600160a01b60019003169b8c60248401526044830160c0905260c48301611d6a91613c4e565b828103600319016064840152611d7f91613c4e565b818103600319016084830152611d95908b613c4e565b8181036003190160a4830152611dab908a613c4e565b03925af180156104e057611e0d575b50507f673e8492a8c891881088721a3a1bb84615b4e118117a35fb5cdf8be91dc07f4691611e07611df992604051938493604085526040850190613c4e565b908382036020850152613c4e565b0390a280f35b81611e17916139f9565b6104dc57835f611dba565b945091506020843d602011611e51575b81611e3f602093836139f9565b8101031261042f57879351915f611d21565b3d9150611e32565b60405162461bcd60e51b815260206004820152602260248201527f4f6e6c79206272696467652063616e2063616c6c20746869732066756e63746960448201526137b760f11b6064820152608490fd5b503461027357602036600319011261027357600435906001600160401b0382116102735760208080611ede3660048701613a6d565b604051928184925191829101835e8101600c81520301902054604051908152f35b50346102735780600319360112610273576020600254604051908152f35b50346102735780600319360112610273576004546040516001600160a01b039091168152602090f35b50346102735780600319360112610273577f00000000000000000000000000000000000000000000000000000000000000006001600160a01b03163003611f9e5760206040515f516020615a945f395f51905f528152f35b63703e46dd60e11b8152600490fd5b50346102735780600319360112610273576020600954604051908152f35b50604036600319011261027357611fe0613a8b565b906024356001600160401b0381116104eb57366023820112156104eb57612011903690602481600401359101613a37565b6001600160a01b037f0000000000000000000000000000000000000000000000000000000000000000163081149081156121fe575b506121ef575f516020615a345f395f51905f52546001600160a01b0316331480156121db575b1561219f576040516352d1902d60e01b8152926001600160a01b0381169190602085600481865afa8095859661216b575b506120b657634c9c8ce360e01b84526004839052602484fd5b9091845f516020615a945f395f51905f5281036121595750813b15612147575f516020615a945f395f51905f5280546001600160a01b031916821790555f516020615ad45f395f51905f528480a2815183901561212d578083602061212995519101845af46121236159a6565b916159d5565b5080f35b505050346121385780f35b63b398979f60e01b8152600490fd5b634c9c8ce360e01b8452600452602483fd5b632a87526960e21b8552600452602484fd5b9095506020813d602011612197575b81612187602093836139f9565b81010312610b785751945f61209d565b3d915061217a565b60405162461bcd60e51b8152602060048201526014602482015273556e617574686f72697a6564207570677261646560601b6044820152606490fd5b506006546001600160a01b0316331461206c565b63703e46dd60e11b8252600482fd5b5f516020615a945f395f51905f52546001600160a01b0316141590505f612046565b50346102735760203660031901126102735761223a614e1d565b60043560075580f35b50346102735760a036600319011261027357806004356001600160401b03811161086e57612275903690600401613a6d565b6024356001600160401b03811161086c57612294903690600401613b62565b6044356001600160401b03811161086a576122b3903690600401613a6d565b906064356001600160401b038111610b78576122d3903690600401613a6d565b916084356001600160401b038111611257576122f3903690600401613b62565b61230760018060a01b038754163314614c16565b6004546001600160a01b03169161231f831515614675565b823b1561134e5761237295610848612360936123968a986123848a966040519c8d9b8c9a8b99634a9fe8f960e01b8b5260a060048c015260a48b0190613c4e565b8981036003190160248b015290613c72565b87810360031901604489015290613c4e565b85810360031901606487015290613c4e565b83810360031901608485015290613c72565b5034610273578060031936011261027357546040516001600160a01b039091168152602090f35b5034610273576020366003190112610273576123e9613a8b565b6123f1614e1d565b81546001600160a01b039182166001600160a01b031982168117845591167fe2d8d090ec8181d6498d84a6f75ec89c7d13cdcc4309c46ae725b27f7d0923068380a380f35b503461027357602036600319011261027357806004356001600160401b03811161086e57612468903690600401613ae4565b61247c60018060a01b038354163314614c16565b6004546001600160a01b0316612493811515614675565b803b1561086c576040516340db1a7960e01b81526020600482015291839183918290849082906108489060248301906146ba565b5034610273576020366003190112610273576124e1613a8b565b6006546001600160a01b03169190338390036126de5760405160209361250785836139f9565b8382526001600160a01b037f0000000000000000000000000000000000000000000000000000000000000000163081149081156126bc575b506126ad575f516020615a345f395f51905f52546001600160a01b031633149081156126a3575b5015612667576040516352d1902d60e01b81526001600160a01b03831694908181600481895afa859181612638575b506125ae57634c9c8ce360e01b85526004869052602485fd5b5f516020615a945f395f51905f5281036121595750823b15612624575f516020615a945f395f51905f5280546001600160a01b0319168617905592938493905f516020615ad45f395f51905f528580a281511561261a5781516121299492839201845af46121236159a6565b5050506121385780f35b634c9c8ce360e01b84526004859052602484fd5b9091508281813d8311612660575b61265081836139f9565b810103126112575751905f612595565b503d612646565b60405162461bcd60e51b8152600481018590526014602482015273556e617574686f72697a6564207570677261646560601b6044820152606490fd5b905033145f612566565b63703e46dd60e11b8452600484fd5b5f516020615a945f395f51905f52546001600160a01b0316141590505f61253f565b60405162461bcd60e51b81526020600482015260176024820152764f6e6c79206272696467652063616e207570677261646560481b6044820152606490fd5b5034610273578060031936011261027357612736614e1d565b478015612773575f516020615a345f395f51905f525482918291829182916001600160a01b031682f1156127675780f35b604051903d90823e3d90fd5b60405162461bcd60e51b815260206004820152601a6024820152794e6f204554482062616c616e636520746f20776974686472617760301b6044820152606490fd5b503461027357602036600319011261027357600354604051634cc7894760e11b815260048035908201819052916001600160a01b0316908381602481855afa908115610719578491612938575b50602081015161281c906001600160a01b03161515614bbe565b61282b61016082015115614894565b61283b61010082015115156148d4565b61012081015160085490603c820291808304603c14901517156129245761286c9161286591613d8f565b4211614914565b60c08101918251918560e082019384511092803b156104eb57604051633b348cf360e21b81526004810188905284151560248201529082908290604490829084905af180156104e05761290f575b50507fe331e58a7c97022b307f5200c195237bd12cf1329130392b7d98d2f5b397015b936129006128f160a0611e0794015161583c565b846128fb89615785565b61542b565b519251604051938493846143f0565b81612919916139f9565b61125757855f6128ba565b634e487b7160e01b86526011600452602486fd5b61294c91503d8086833e6119a881836139f9565b5f612802565b50346102735760403660031901126102735761296c613a8b565b90602435906001600160401b038211610273576020610c6c846129923660048701613a6d565b906149d1565b5034610273576020366003190112610273576003546040516314c2c26560e31b815260048035908201819052916001600160a01b03168382602481845afa918215610719578492612b9e575b506020820180519091906001600160a01b031615612b5c57612a0b61014084015115614894565b612a1a60e084015115156148d4565b61010083015160085490603c820291808304603c149015171561127057612a449161286591613d8f565b60a08301928584519360c083019485511093803b15610b7c5760405163111006db60e01b81526004810189905285151560248201529083908290604490829084905af18015610bb75785918491612b43575b5050612add575b50507f42ae7075f0e049265d5e31f7a5ba9ba5e0fb666e0ae8ecd6bb4dfa15b357567593612900611e0792846060612ad48a615785565b92015191615280565b600354608084015191516001600160a01b03918216929116823b156104dc57612b1f9284928360405180968195829463e525510760e01b84526004840161495c565b03925af180156104e05715612a9d5781612b38916139f9565b61125757855f612a9d565b81925090612b50916139f9565b6104eb5783825f612a96565b60405162461bcd60e51b815260206004820152601a602482015279105c1c1b1a58d85d1a5bdb88191bd95cc81b9bdd08195e1a5cdd60321b6044820152606490fd5b612bb39192503d8086833e6115c481836139f9565b905f6129e4565b50346102735760a036600319011261027357806004356001600160401b03811161086e57612bec903690600401613ae4565b6024356001600160401b03811161086c57612c0b903690600401613bd0565b6044356001600160401b03811161086a57612c2a903690600401613ae4565b906064356001600160401b038111610b7857612c4a903690600401613ae4565b916084356001600160401b03811161125757612c6a903690600401613bd0565b612c72614e1d565b6004546001600160a01b031691612c8a831515614675565b823b1561134e57612cdd95610848612ccb93612d018a98612cef8a966040519c8d9b8c9a8b9963118b2dd960e11b8b5260a060048c015260a48b01906146ba565b8981036003190160248b015290614712565b878103600319016044890152906146ba565b858103600319016064870152906146ba565b83810360031901608485015290614712565b50346102735760a036600319011261027357612d2d613a8b565b612d35613aa1565b6044356001600160a01b038116908190036104dc57612d52613ab7565b906084359260018060a01b038416809403611257575f516020615b145f395f51905f5254604081901c60ff161595906001600160401b03811680159081612ef8575b6001149081612eee575b159081612ee5575b50612ed6576001600160401b031981166001175f516020615b145f395f51905f5255612de4919087612eae575b50612ddc61597b565b61029b61597b565b612dec61597b565b85546001600160a01b03199081166001600160a01b039283161787556003805482169390931790925560058054909216921691909117905580612e94575b506003600755603c6008556064600955612e415780f35b60ff60401b195f516020615b145f395f51905f5254165f516020615b145f395f51905f52557fc7f505b2f371ae2175ee4913f4499e1f2633a7b5936321eed1cdaeb6115181d2602060405160018152a180f35b600180546001600160a01b0319169190911790555f612e2a565b6001600160481b0319166001600160401b01175f516020615b145f395f51905f52555f612dd3565b63f92ee8a960e01b8852600488fd5b9050155f612da6565b303b159150612d9e565b889150612d94565b50346102735760c0366003190112610273576004356001600160401b0381116104eb57612f31903690600401613a6d565b6024356001600160401b038111610b7c57612f50903690600401613a6d565b6044356001600160401b0381116104dc57612f6f903690600401613a6d565b916064359160a4359360018060a01b03851680950361125757612f9181613cbb565b156131ad5785612fc99160018060a01b0360035416604051808095819463a9daf6ad60e01b8352602060048401526024830190613c4e565b03915afa801561124c576020918791613193575b500151516007541161315a57849060405192805193602081818401968088835e8101600b8152030190206130118154614667565b905561307760016130376040516020818651808b835e8101600b81520301902054615785565b9560208060405198899382850197518091895e840190602d60f81b83830152805192839101602183015e010186838201520301601f1981018652856139f9565b6040519084518091835e600c90820190815281900360200190204290556003546001600160a01b0316803b15610b7c5760405163fec17fe960e01b815260a0600482015291839183918290849082906130f1906130d760a484018c613c4e565b608435602485015283810360031901604485015290613c4e565b8b60648301528a608483015203925af180156104e057613145575b5050602061313a7f27fa90971b66777e07575f648a5fa9d7b1b4b0a755ec7646f0307165edd5f53f926143d4565b92604051908152a380f35b8161314f916139f9565b6104dc57835f61310c565b60405162461bcd60e51b81526020600482015260116024820152704f7261636c65206e6f742061637469766560781b6044820152606490fd5b6131a791503d8089833e6109b081836139f9565b5f612fdd565b60405162461bcd60e51b815260206004820152602b60248201527f4f7261636c65206e6f7420616374697665202d2063616e6e6f7420726567697360448201526a746572206469737075746560a81b6064820152608490fd5b50346102735780600319360112610273576001546040516001600160a01b039091168152602090f35b503461027357602036600319011261027357613249613a8b565b613251614e1d565b600180546001600160a01b039283166001600160a01b0319821681179092559091167f9c4a3fabb33cb3d3fe4fde0ee645166e23d7fe00c47fa67cda8b698a68af3ccc8380a380f35b50346102735760203660031901126102735760206132be6132b9613a8b565b61442e565b604051908152f35b50346102735780600319360112610273576020600754604051908152f35b503461042f57602036600319011261042f576004356001600160401b03811161042f57613315903690600401613a6d565b60405161333b825191602081818601948086835e8101600c815203019020541515613d37565b6020604051809284518091835e8101600c81520301902054600854603c810290808204603c14901517156139125761337291613d8f565b42106138d35760035460405163a54294af60e01b815260206004820152906001600160a01b03165f82806133a96024820187613c4e565b0381845afa91821561386b575f926138b7575b506133cd6101208301511515613d37565b61010082015161387657608082019081519160a084019283511091803b1561042f575f60405180926325985c9760e21b8252818381613410898d60048401613eeb565b03925af1801561386b57613856575b5060055486906001600160a01b031680613675575b50506003546040516349868b4160e01b81526020600482015290879082906001600160a01b0316818061346a602482018c613c4e565b03915afa90811561135a578791613653575b50511580613645575b80613631575b15613607576060840180516134a9906001600160a01b0316876155d6565b908763ffffffff8316926003841480156135f4575b1561354e575050915f516020615a745f395f51905f5295613541925f516020615af45f395f51905f526040610140611e079761351260018060a01b036001541660018060a01b0383511684890151916156e1565b519401516001600160a01b039094169361352b8c6143d4565b9382519182526020820152a35b519351956143d4565b94604051938493846143f0565b60055483516101408a0151926001600160a01b0391821692909116803b15610b7857613594938580946040519687958694859363301f825760e01b8552600485016142d3565b03925af180156104e0576135d5575b5050915f516020615a745f395f51905f5295613541925f516020615af45f395f51905f526040610140611e0797613512565b816135e391959394956139f9565b6135f0579190875f6135a3565b8780fd5b506005546001600160a01b0316156134be565b613541611e079161362c6101405f516020615a745f395f51905f529701518589615090565b613538565b506001546001600160a01b0316151561348b565b506101408401511515613485565b61366f91503d8089833e61366781836139f9565b8101906142fb565b5f61347c565b61367e87614e93565b6003546040516377e3240760e01b8152602060048201526001600160a01b03909116918482806136b16024820185613c4e565b0381865afa91821561043b578592613832575b506060890151602083018051879586958695948c9391926001600160a01b0391821692889216830361379e575050505061377c575b50505b8061376a575b61370e575b5050613434565b602088015192803b15610b785761373f938580946040519687958694859363301f825760e01b8552600485016142d3565b03925af180156104e057613755575b8080613707565b8161375f916139f9565b61125757855f61374e565b506001600160a01b0382161515613702565b516001600160a01b03169350600192506137969150614fad565b905f806136f9565b919450929491946137b4575b50505050506136fc565b919396509194506137e6935061012060019596015191604051809581948293632e68140160e11b8452600484016142b7565b03915afa90811561043b5763ffffffff9160a0918791613810575b50015116905f808681806137aa565b61382c91503d8089833e61382481836139f9565b81019061410c565b5f613801565b61384f9192503d8087833e61384781836139f9565b810190613f70565b905f6136c4565b6138639196505f906139f9565b5f945f61341f565b6040513d5f823e3d90fd5b60405162461bcd60e51b8152602060048201526019602482015278111a5cdc1d5d1948185b1c9958591e48199a5b985b1a5e9959603a1b6044820152606490fd5b6138cc9192503d805f833e61137a81836139f9565b905f6133bc565b60405162461bcd60e51b8152602060048201526017602482015276159bdd1a5b99c81c195c9a5bd9081b9bdd08195b991959604a1b6044820152606490fd5b634e487b7160e01b5f52601160045260245ffd5b3461042f57602036600319011261042f5761393f613a8b565b613947614e1d565b600580546001600160a01b039283166001600160a01b0319821681179092559091167f9d4deb5ab4de88a4c0510604f0d3eb81d3d71a07a7f84ef56bad08c07083ca955f80a3005b3461042f57602036600319011261042f576004356001600160401b03811161042f57610c6c6139c46020923690600401613a6d565b613cbb565b61016081019081106001600160401b038211176139e557604052565b634e487b7160e01b5f52604160045260245ffd5b601f909101601f19168101906001600160401b038211908210176139e557604052565b6001600160401b0381116139e557601f01601f191660200190565b929192613a4382613a1c565b91613a5160405193846139f9565b82948184528183011161042f578281602093845f960137010152565b9080601f8301121561042f57816020613a8893359101613a37565b90565b600435906001600160a01b038216820361042f57565b602435906001600160a01b038216820361042f57565b606435906001600160a01b038216820361042f57565b6001600160401b0381116139e55760051b60200190565b9080601f8301121561042f578135613afb81613acd565b92613b0960405194856139f9565b81845260208085019260051b8201019183831161042f5760208201905b838210613b3557505050505090565b81356001600160401b03811161042f57602091613b5787848094880101613a6d565b815201910190613b26565b9080601f8301121561042f57813590613b7a82613acd565b92613b8860405194856139f9565b82845260208085019360051b82010191821161042f57602001915b818310613bb05750505090565b82356001600160a01b038116810361042f57815260209283019201613ba3565b9080601f8301121561042f578135613be781613acd565b92613bf560405194856139f9565b81845260208085019260051b8201019183831161042f5760208201905b838210613c2157505050505090565b81356001600160401b03811161042f57602091613c4387848094880101613b62565b815201910190613c12565b805180835260209291819084018484015e5f828201840152601f01601f1916010190565b90602080835192838152019201905f5b818110613c8f5750505090565b82516001600160a01b0316845260209384019390920191600101613c82565b5190811515820361042f57565b6020613cee9160018060a01b03600354166040518080958194637c38b97560e01b83528660048401526024830190613c4e565b03915afa90811561386b575f91613d03575090565b90506020813d602011613d2f575b81613d1e602093836139f9565b8101031261042f57613a8890613cae565b3d9150613d11565b15613d3e57565b60405162461bcd60e51b8152602060048201526016602482015275111a5cdc1d5d1948191bd95cc81b9bdd08195e1a5cdd60521b6044820152606490fd5b8181029291811591840414171561391257565b9190820180921161391257565b81601f8201121561042f57805190613db382613a1c565b92613dc160405194856139f9565b8284526020838301011161042f57815f9260208093018386015e8301015290565b51906001600160a01b038216820361042f57565b60208183031261042f578051906001600160401b03821161042f5701906101608282031261042f5760405191613e2b836139c9565b80516001600160401b03811161042f5782613e47918301613d9c565b83526020818101519084015260408101516001600160401b03811161042f5761014092613e75918301613d9c565b6040840152613e8660608201613de2565b60608401526080810151608084015260a081015160a0840152613eab60c08201613cae565b60c0840152613ebc60e08201613cae565b60e0840152613ece6101008201613cae565b610100840152610120810151610120840152015161014082015290565b90613f03602091949394604084526040840190613c4e565b931515910152565b9080601f8301121561042f578151613f2281613acd565b92613f3060405194856139f9565b81845260208085019260051b82010192831161042f57602001905b828210613f585750505090565b60208091613f6584613de2565b815201910190613f4b565b60208183031261042f578051906001600160401b03821161042f57016101408183031261042f576040519161014083016001600160401b038111848210176139e55760405281516001600160401b03811161042f5781613fd1918401613d9c565b8352613fdf60208301613de2565b602084015260408201516001600160401b03811161042f5781614003918401613f0b565b604084015260608201516001600160401b03811161042f5781614027918401613d9c565b6060840152608082015160ff8116810361042f57608084015260a08201516001600160401b03811161042f5782019080601f8301121561042f57815161406c81613acd565b9261407a60405194856139f9565b81845260208085019260051b8201019183831161042f5760208201905b8382106140df575050505050906101209160a084015260c081015160c084015260e081015160e08401526140ce6101008201613de2565b610100840152015161012082015290565b81516001600160401b03811161042f5760209161410187848094880101613d9c565b815201910190614097565b60208183031261042f578051906001600160401b03821161042f570160e08183031261042f576040519160e083016001600160401b038111848210176139e5576040528151835260208201516001600160401b03811161042f5781614172918401613d9c565b602084015261418360408301613de2565b604084015260608201516001600160401b03811161042f57816141a7918401613d9c565b606084015260808201516001600160401b03811161042f57820181601f8201121561042f578051906141d882613acd565b926141e660405194856139f9565b82845260208085019360051b8301019181831161042f5760208101935b83851061423f575050505050608083015260a081015163ffffffff8116810361042f5760a08301526142379060c001613de2565b60c082015290565b84516001600160401b03811161042f5782016040818503601f19011261042f5760408051929083016001600160401b038111848210176139e5576040526020820151926001600160401b03841161042f576040836142a4886020809881980101613d9c565b8352015183820152815201940193614203565b9291906142ce602091604086526040860190613c4e565b930152565b6001600160a01b039091168152602081019190915263ffffffff909116604082015260600190565b60208183031261042f578051906001600160401b03821161042f570181601f8201121561042f5780519061432e82613acd565b9261433c60405194856139f9565b82845260208085019360071b8301019181831161042f57602001925b828410614366575050505090565b60808483031261042f576040519060808201906001600160401b038211838310176139e55760809260209260405261439d87613de2565b81526143aa838801613de2565b83820152604087015160408201526143c460608801613cae565b6060820152815201930192614358565b602090604051918183925191829101835e81015f815203902090565b60409194939260608201951515825260208201520152565b919082608091031261042f57815191602081015191613a88606060408401519301613cae565b5f80546001600160a01b0316806144d9575b506005546001600160a01b0316918261445a575b50905090565b604051635843905f60e01b81526001600160a01b03909116600482015291602090839060249082905afa90811561386b575f916144a3575b61449c9250613d8f565b805f614454565b90506020823d6020116144d1575b816144be602093836139f9565b8101031261042f5761449c915190614492565b3d91506144b1565b604051630733bdef60e41b81526001600160a01b038416600482015290608090829060249082905afa801561386b575f905f925f9161453f575b5080614536575b614525575b50614440565b61452f9250613d7c565b5f8061451f565b5080151561451a565b915050614564915060803d60801161456e575b61455c81836139f9565b810190614408565b909291505f614513565b503d614552565b60208183031261042f578051906001600160401b03821161042f570160a08183031261042f576040519160a083016001600160401b038111848210176139e55760405281516001600160401b03811161042f57816145d4918401613d9c565b835260208201516001600160401b03811161042f57816145f5918401613f0b565b602084015260408201516001600160401b03811161042f5781614619918401613d9c565b604084015260608201516001600160401b03811161042f578161463d918401613d9c565b606084015260808201516001600160401b03811161042f5761465f9201613f0b565b608082015290565b5f1981146139125760010190565b1561467c57565b60405162461bcd60e51b815260206004820152601660248201527513dc9858db19481b585b9859d95c881b9bdd081cd95d60521b6044820152606490fd5b9080602083519182815201916020808360051b8301019401925f915b8383106146e557505050505090565b9091929394602080614703600193601f198682030187528951613c4e565b970193019301919392906146d6565b9080602083519182815201916020808360051b8301019401925f915b83831061473d57505050505090565b9091929394601f19828203018352855190602080835192838152019201905f905b80821061477d575050506020806001929701930193019193929061472e565b82516001600160a01b031684526020938401939092019160019091019061475e565b60208183031261042f578051906001600160401b03821161042f57016101608183031261042f57604051916147d3836139c9565b815183526147e360208301613de2565b602084015260408201516001600160401b03811161042f5781614807918401613d9c565b6040840152606082810151908401526080820151916001600160401b03831161042f5761483c6101409261488b948301613d9c565b608085015260a081015160a085015260c081015160c085015261486160e08201613cae565b60e085015261010081015161010085015261487f6101208201613cae565b61012085015201613cae565b61014082015290565b1561489b57565b60405162461bcd60e51b8152602060048201526011602482015270105b1c9958591e48199a5b985b1a5e9959607a1b6044820152606490fd5b156148db57565b60405162461bcd60e51b8152602060048201526011602482015270566f74696e67206e6f742061637469766560781b6044820152606490fd5b1561491b57565b60405162461bcd60e51b8152602060048201526019602482015278159bdd1a5b99c81c195c9a5bd9081b9bdd08195e1c1a5c9959603a1b6044820152606490fd5b90614974602091949394604084526040840190613c4e565b6001600160a01b03909416910152565b9060208282031261042f5781516001600160401b03811161042f57613a889201613f0b565b80518210156149bd5760209160051b010190565b634e487b7160e01b5f52603260045260245ffd5b5f614a049260018060a01b036003541660405180809681946332b8e0c760e21b8352602060048401526024830190613c4e565b03915afa91821561386b575f92614a5c575b505f5b8251811015614a55576001600160a01b03614a3482856149a9565b51166001600160a01b03831614614a4d57600101614a19565b505050600190565b5050505f90565b614a719192503d805f833e61051881836139f9565b905f614a16565b60208183031261042f578051906001600160401b03821161042f57016101808183031261042f576040519161018083016001600160401b038111848210176139e55760405281518352614acd60208301613de2565b602084015260408201516001600160401b03811161042f5781614af1918401613d9c565b604084015260608201516001600160401b03811161042f5781614b15918401613d9c565b606084015260808201516001600160401b03811161042f5781614b39918401613d9c565b608084015260a0820151916001600160401b03831161042f57614b6461016092614bb5948301613d9c565b60a085015260c081015160c085015260e081015160e0850152614b8a6101008201613cae565b610100850152610120810151610120850152614ba96101408201613cae565b61014085015201613cae565b61016082015290565b15614bc557565b60405162461bcd60e51b8152602060048201526024808201527f41736b417468656e61206170706c69636174696f6e20646f6573206e6f7420656044820152631e1a5cdd60e21b6064820152608490fd5b15614c1d57565b60405162461bcd60e51b815260206004820152601f60248201527f4f6e6c792044414f2063616e2063616c6c20746869732066756e6374696f6e006044820152606490fd5b9081526001600160a01b039182166020820152911660408201526060810191909152901515608082015260a00190565b5f546001600160a01b031680614d2f575b506005546001600160a01b03169081614cbc5750505f90565b604051635843905f60e01b81526001600160a01b03909116600482015290602090829060249082905afa90811561386b575f91614cfd575b50600954111590565b90506020813d602011614d27575b81614d18602093836139f9565b8101031261042f57515f614cf4565b3d9150614d0b565b604051630733bdef60e41b81526001600160a01b038316600482015290608090829060249082905afa90811561386b575f905f92614d8d575b5081614d80575b50614d7a575f614ca3565b50600190565b905060095411155f614d6f565b9050614da8915060803d60801161456e5761455c81836139f9565b929150505f614d68565b9190820391821161391257565b6001600160a01b03168015614e0a575f516020615a345f395f51905f5280546001600160a01b0319811683179091556001600160a01b03165f516020615ab45f395f51905f525f80a3565b631e4fbdf760e01b5f525f60045260245ffd5b5f516020615a345f395f51905f52546001600160a01b03163303614e3d57565b63118cdaa760e01b5f523360045260245ffd5b9081518110156149bd570160200190565b90614e6b82613a1c565b614e7860405191826139f9565b8281528092614e89601f1991613a1c565b0190602036910137565b905f198251805b614ef0575b505f198114614eed57614eb181614e61565b905f5b818110614ec2575090925050565b6001906001600160f81b0319614ed88288614e50565b51165f1a614ee68286614e50565b5301614eb4565b50565b5f19810181811161391257602d60f81b6001600160f81b0319614f138388614e50565b511614614f2b575b508015613912575f190180614e9a565b6001949293919493855b8451811015614fa357600360fc1b6001600160f81b0319614f568388614e50565b5116108015614f82575b614f6c57600101614f35565b5092949193505f5b15614f1b579150505f614e9f565b50603960f81b6001600160f81b0319614f9b8388614e50565b511611614f60565b5092949193614f74565b905f905f5b835181101561506b57602d60f81b6001600160f81b0319614fd38387614e50565b511614614fe257600101614fb2565b9091505b801561506557614ff581614e61565b905f5b81811061503a57505061500c91925061583c565b619ce1810361501a57505f90565b619d2881036150295750600290565b619d270361503657600390565b5f90565b6001906001600160f81b03196150508288614e50565b51165f1a61505e8286614e50565b5301614ff8565b505f9150565b5090614fe6565b811561507c570490565b634e487b7160e01b5f52601260045260245ffd5b9290928215801561526d575b615267576003546040516349868b4160e01b81526020600482015292905f9084906001600160a01b031681806150d56024820188613c4e565b03915afa92831561386b575f9361524b575b50825115615244575f915f5b845181101561514257606061510882876149a9565b51015115158715151461511e575b6001016150f3565b9261513a600191604061513187896149a9565b51015190613d8f565b939050615116565b50929194939094801561523d575f5b835181101561523557806060615169600193876149a9565b51015115158715151480615217575b615183575b01615151565b6151a48361519f6040615196858a6149a9565b51015187613d7c565b615072565b806151b0575b5061517d565b6151d981848060a01b03855416858060a01b0360206151cf878c6149a9565b51015116906156e1565b828060a01b0360206151eb84896149a9565b51015116905f516020615a545f395f51905f5260206152098a6143d4565b92604051908152a35f6151aa565b50818060a01b03602061522a83886149a9565b510151161515615178565b505050505050565b5050505050565b9350505050565b6152609193503d805f833e61366781836139f9565b915f6150e7565b50915050565b506001546001600160a01b03161561509c565b92909282158015615418575b615267576003546001600160a01b0316915f6152a78361583c565b6024604051809681936388fc75f560e01b835260048301525afa92831561386b575f936153fc575b50825115615244575f915f5b84518110156153215760606152f082876149a9565b510151151587151514615306575b6001016152db565b92615319600191604061513187896149a9565b9390506152fe565b50929194939094801561523d575f5b835181101561523557806060615348600193876149a9565b510151151587151514806153de575b615362575b01615330565b6153758361519f6040615196858a6149a9565b80615381575b5061535c565b6153a081848060a01b03855416858060a01b0360206151cf878c6149a9565b828060a01b0360206153b284896149a9565b51015116905f516020615a545f395f51905f5260206153d08a6143d4565b92604051908152a35f61537b565b50818060a01b0360206153f183886149a9565b510151161515615357565b6154119193503d805f833e61366781836139f9565b915f6152cf565b506001546001600160a01b03161561528c565b929092821580156155c3575b615267576003546001600160a01b0316915f6154528361583c565b6024604051809681936365c5ef1760e11b835260048301525afa92831561386b575f936155a7575b50825115615244575f915f5b84518110156154cc57606061549b82876149a9565b5101511515871515146154b1575b600101615486565b926154c4600191604061513187896149a9565b9390506154a9565b50929194939094801561523d575f5b8351811015615235578060606154f3600193876149a9565b51015115158715151480615589575b61550d575b016154db565b6155208361519f6040615196858a6149a9565b8061552c575b50615507565b61554b81848060a01b03855416858060a01b0360206151cf878c6149a9565b828060a01b03602061555d84896149a9565b51015116905f516020615a545f395f51905f52602061557b8a6143d4565b92604051908152a35f615526565b50818060a01b03602061559c83886149a9565b510151161515615502565b6155bc9193503d805f833e61366781836139f9565b915f61547a565b506001546001600160a01b031615615437565b6155df90614e93565b6003546040516377e3240760e01b81526020600482015291926001600160a01b0390911691905f82806156156024820188613c4e565b0381865afa91821561386b575f926156c5575b506101008201516001600160a01b03918216911614806156b7575b615652575050613a8890614fad565b915f9161012061567b94015191604051809581948293632e68140160e11b8452600484016142b7565b03915afa90811561386b5763ffffffff9160a0915f9161569d575b5001511690565b6156b191503d805f833e61382481836139f9565b5f615696565b506101208101511515615643565b6156da9192503d805f833e61384781836139f9565b905f615628565b5f61573a92819260405195602087019263a9059cbb60e01b845260018060a01b0316602488015260448701526044865261571c6064876139f9565b60018060a01b031694519082865af16157336159a6565b90836159d5565b8051908115159182615762575b50506157505750565b635274afe760e01b5f5260045260245ffd5b819250906020918101031261042f57602061577d9101613cae565b155f80615747565b801561581c5780815f925b61580857508061579f83614e61565b92915b6157ab57505090565b5f1982019182116139125781600a820491600a830290838204600a14841517156139125760ff916157db91614db2565b1660300160ff81116139125760f81b6001600160f81b0319165f1a906158019085614e50565b53806157a2565b91615814600a91614667565b920480615790565b5060405161582b6040826139f9565b60018152600360fc1b602082015290565b905f915f5b81518110156158de57600360fc1b6001600160f81b03196158628385614e50565b51161015806158bc575b615879575b600101615841565b92600a810290808204600a1490151715613912576158978483614e50565b5160f81c90602f198201918211613912576001916158b491613d8f565b939050615871565b50603960f81b6001600160f81b03196158d58385614e50565b5116111561586c565b5050565b9081526001600160a01b03909116602082015260400190565b1561590257565b60405162461bcd60e51b8152602060048201526019602482015278159bdd1a5b99c81c195c9a5bd9081a185cc8195e1c1a5c9959603a1b6044820152606490fd5b6040919493926060820195825260208201520152565b61597160409295949395606083526060830190613c4e565b9460208201520152565b60ff5f516020615b145f395f51905f525460401c161561599757565b631afcd79f60e31b5f5260045ffd5b3d156159d0573d906159b782613a1c565b916159c560405193846139f9565b82523d5f602084013e565b606090565b906159f957508051156159ea57805190602001fd5b630a12f52160e11b5f5260045ffd5b81511580615a2a575b615a0a575090565b639996b31560e01b5f9081526001600160a01b0391909116600452602490fd5b50803b15615a0256fe9016d09d72d40fdae2fd8ceac6b6234c7706214fd39c1cd1e609a0528c199300d938ce505b0ec3972a4e38680375ecf020ac1ef1b034b8949bb085d64612affeed25bcfa568ce67a8d1dcba7cd4bbb9e104cf89b13efe702b2a371df5d590559360894a13ba1a3210667c828492db98dca3e2076cc3735a920a3ca505d382bbc8be0079c531659141344cd1fd0a4f28419497f9722a3daafe3b4186f6b6457e0bc7cd75a20ee27fd9adebab32041f755214dbc6bffa90cc0225b39da2e5c2d3bb96a6d6fc4275c8ca21896599a9a4c764dd0ba8ea02b114a300018499eb7fa88f0c57e16840df040f15088dc2f81fe391c3923bec73e23a9662efc9c229c6a00a2646970667358221220d8f37a55e4a166910f1fd9636b9ce702e0466c9e5f27c6c7e7cbf677df6c174264736f6c63430008210033f0c57e16840df040f15088dc2f81fe391c3923bec73e23a9662efc9c229c6a00","linkReferences":{}},"methodIdentifiers":{"UPGRADE_INTERFACE_VERSION()":"ad3cb1cc","accumulatedFees()":"587f5ed7","addMembers(address[],string)":"d3075f2a","addOrUpdateOracle(string[],address[][],string[],string[],address[][])":"23165bb2","addSingleOracle(string,address[],string,string,address[])":"4a9fe8f9","bridge()":"e78cea92","canVote(address)":"adfaa72e","daoContract()":"4a7ffcbc","disputeStartTimes(string)":"6601d962","finalizeSkillVerification(uint256)":"2af7a0b3","genesis()":"a7f0b3de","getOracleActiveMemberCount(string)":"dc2969eb","getOracleMembers(string)":"cae3831c","getUserVotingPower(address)":"0baca2e5","handleAskAthena(address,string,string,string,string)":"7086f548","handleRaiseDispute(string,string,string,uint256,uint256,address)":"144e49b2","handleSubmitSkillVerification(address,string,uint256,string)":"b90efe2e","initialize(address,address,address,address,address)":"1459457a","isOracleActive(string)":"0308b414","isOracleMember(address,string)":"3948e446","jobDisputeCounters(string)":"ba56261e","memberActivityThresholdDays()":"f24b6b37","minOracleMembers()":"0b9abbfa","minStakeRequired()":"502f6826","nowjContract()":"787bb310","oracleManager()":"565d878c","owner()":"8da5cb5b","proxiableUUID()":"52d1902d","removeMemberFromOracle(string,address)":"add6beaf","removeOracle(string[])":"40db1a79","renounceOwnership()":"715018a6","setBridge(address)":"8dd14802","setDAOContract(address)":"425d512a","setGenesis(address)":"eb14b353","setNOWJContract(address)":"059c2080","setOracleManager(address)":"929e2e08","setUSDCToken(address)":"0f5a9d01","settleAskAthena(uint256)":"3c9ce794","settleDispute(string)":"0a8eef76","transferOwnership(address)":"f2fde38b","updateMemberActivityThreshold(uint256)":"ad8d3435","updateMinOracleMembers(uint256)":"4dea6307","updateMinStakeRequired(uint256)":"d93e1184","updateOracleActiveStatus(string)":"ee0a5858","updateVotingPeriod(uint256)":"ef00ef43","upgradeFromDAO(address)":"40634e3b","upgradeToAndCall(address,bytes)":"4f1ef286","usdcToken()":"11eac855","vote(uint8,string,bool,address)":"887e15dc","votingPeriodMinutes()":"f67321c6","withdraw()":"3ccfd60b"},"id":12}