{"abi":[{"type":"constructor","inputs":[],"stateMutability":"nonpayable"},{"type":"receive","stateMutability":"payable"},{"type":"function","name":"BALLOT_TYPEHASH","inputs":[],"outputs":[{"name":"","type":"bytes32","internalType":"bytes32"}],"stateMutability":"view"},{"type":"function","name":"CLOCK_MODE","inputs":[],"outputs":[{"name":"","type":"string","internalType":"string"}],"stateMutability":"pure"},{"type":"function","name":"COUNTING_MODE","inputs":[],"outputs":[{"name":"","type":"string","internalType":"string"}],"stateMutability":"pure"},{"type":"function","name":"EXTENDED_BALLOT_TYPEHASH","inputs":[],"outputs":[{"name":"","type":"bytes32","internalType":"bytes32"}],"stateMutability":"view"},{"type":"function","name":"UPGRADE_INTERFACE_VERSION","inputs":[],"outputs":[{"name":"","type":"string","internalType":"string"}],"stateMutability":"view"},{"type":"function","name":"addOrUpdateEarner","inputs":[{"name":"earnerAddress","type":"address","internalType":"address"},{"name":"balance","type":"uint256","internalType":"uint256"},{"name":"governanceActions","type":"uint256","internalType":"uint256"}],"outputs":[],"stateMutability":"nonpayable"},{"type":"function","name":"bridge","inputs":[],"outputs":[{"name":"","type":"address","internalType":"contract INativeChainBridge"}],"stateMutability":"view"},{"type":"function","name":"canPropose","inputs":[{"name":"account","type":"address","internalType":"address"}],"outputs":[{"name":"","type":"bool","internalType":"bool"}],"stateMutability":"view"},{"type":"function","name":"canVote","inputs":[{"name":"account","type":"address","internalType":"address"}],"outputs":[{"name":"","type":"bool","internalType":"bool"}],"stateMutability":"view"},{"type":"function","name":"cancel","inputs":[{"name":"targets","type":"address[]","internalType":"address[]"},{"name":"values","type":"uint256[]","internalType":"uint256[]"},{"name":"calldatas","type":"bytes[]","internalType":"bytes[]"},{"name":"descriptionHash","type":"bytes32","internalType":"bytes32"}],"outputs":[{"name":"","type":"uint256","internalType":"uint256"}],"stateMutability":"nonpayable"},{"type":"function","name":"castVote","inputs":[{"name":"proposalId","type":"uint256","internalType":"uint256"},{"name":"support","type":"uint8","internalType":"uint8"}],"outputs":[{"name":"","type":"uint256","internalType":"uint256"}],"stateMutability":"nonpayable"},{"type":"function","name":"castVoteBySig","inputs":[{"name":"proposalId","type":"uint256","internalType":"uint256"},{"name":"support","type":"uint8","internalType":"uint8"},{"name":"voter","type":"address","internalType":"address"},{"name":"signature","type":"bytes","internalType":"bytes"}],"outputs":[{"name":"","type":"uint256","internalType":"uint256"}],"stateMutability":"nonpayable"},{"type":"function","name":"castVoteWithReason","inputs":[{"name":"proposalId","type":"uint256","internalType":"uint256"},{"name":"support","type":"uint8","internalType":"uint8"},{"name":"reason","type":"string","internalType":"string"}],"outputs":[{"name":"","type":"uint256","internalType":"uint256"}],"stateMutability":"nonpayable"},{"type":"function","name":"castVoteWithReasonAndParams","inputs":[{"name":"proposalId","type":"uint256","internalType":"uint256"},{"name":"support","type":"uint8","internalType":"uint8"},{"name":"reason","type":"string","internalType":"string"},{"name":"params","type":"bytes","internalType":"bytes"}],"outputs":[{"name":"","type":"uint256","internalType":"uint256"}],"stateMutability":"nonpayable"},{"type":"function","name":"castVoteWithReasonAndParamsBySig","inputs":[{"name":"proposalId","type":"uint256","internalType":"uint256"},{"name":"support","type":"uint8","internalType":"uint8"},{"name":"voter","type":"address","internalType":"address"},{"name":"reason","type":"string","internalType":"string"},{"name":"params","type":"bytes","internalType":"bytes"},{"name":"signature","type":"bytes","internalType":"bytes"}],"outputs":[{"name":"","type":"uint256","internalType":"uint256"}],"stateMutability":"nonpayable"},{"type":"function","name":"clock","inputs":[],"outputs":[{"name":"","type":"uint48","internalType":"uint48"}],"stateMutability":"view"},{"type":"function","name":"delegate","inputs":[{"name":"delegatee","type":"address","internalType":"address"}],"outputs":[],"stateMutability":"nonpayable"},{"type":"function","name":"eip712Domain","inputs":[],"outputs":[{"name":"fields","type":"bytes1","internalType":"bytes1"},{"name":"name","type":"string","internalType":"string"},{"name":"version","type":"string","internalType":"string"},{"name":"chainId","type":"uint256","internalType":"uint256"},{"name":"verifyingContract","type":"address","internalType":"address"},{"name":"salt","type":"bytes32","internalType":"bytes32"},{"name":"extensions","type":"uint256[]","internalType":"uint256[]"}],"stateMutability":"view"},{"type":"function","name":"execute","inputs":[{"name":"targets","type":"address[]","internalType":"address[]"},{"name":"values","type":"uint256[]","internalType":"uint256[]"},{"name":"calldatas","type":"bytes[]","internalType":"bytes[]"},{"name":"descriptionHash","type":"bytes32","internalType":"bytes32"}],"outputs":[{"name":"","type":"uint256","internalType":"uint256"}],"stateMutability":"payable"},{"type":"function","name":"genesis","inputs":[],"outputs":[{"name":"","type":"address","internalType":"contract IOpenworkGenesis"}],"stateMutability":"view"},{"type":"function","name":"getActiveProposalIds","inputs":[],"outputs":[{"name":"activeIds","type":"uint256[]","internalType":"uint256[]"},{"name":"states","type":"uint8[]","internalType":"enum IGovernor.ProposalState[]"}],"stateMutability":"view"},{"type":"function","name":"getAllProposalIds","inputs":[],"outputs":[{"name":"ids","type":"uint256[]","internalType":"uint256[]"},{"name":"states","type":"uint8[]","internalType":"enum IGovernor.ProposalState[]"}],"stateMutability":"view"},{"type":"function","name":"getAllStakers","inputs":[],"outputs":[{"name":"","type":"address[]","internalType":"address[]"}],"stateMutability":"view"},{"type":"function","name":"getComprehensiveGovernanceInfo","inputs":[{"name":"account","type":"address","internalType":"address"}],"outputs":[{"name":"hasActiveStake","type":"bool","internalType":"bool"},{"name":"stakeAmount","type":"uint256","internalType":"uint256"},{"name":"earnedTokens","type":"uint256","internalType":"uint256"},{"name":"meetsProposalThreshold","type":"bool","internalType":"bool"},{"name":"meetsVotingThreshold","type":"bool","internalType":"bool"},{"name":"votingPower","type":"uint256","internalType":"uint256"}],"stateMutability":"view"},{"type":"function","name":"getEarner","inputs":[{"name":"earnerAddress","type":"address","internalType":"address"}],"outputs":[{"name":"","type":"address","internalType":"address"},{"name":"","type":"uint256","internalType":"uint256"},{"name":"","type":"uint256","internalType":"uint256"}],"stateMutability":"view"},{"type":"function","name":"getGovernanceEligibility","inputs":[{"name":"account","type":"address","internalType":"address"}],"outputs":[{"name":"canProposeFlag","type":"bool","internalType":"bool"},{"name":"canVoteFlag","type":"bool","internalType":"bool"},{"name":"stakeAmount","type":"uint256","internalType":"uint256"},{"name":"rewardTokens","type":"uint256","internalType":"uint256"}],"stateMutability":"view"},{"type":"function","name":"getGovernanceThresholds","inputs":[],"outputs":[{"name":"proposalStakeThreshold_","type":"uint256","internalType":"uint256"},{"name":"votingStakeThreshold_","type":"uint256","internalType":"uint256"},{"name":"proposalRewardThreshold_","type":"uint256","internalType":"uint256"},{"name":"votingRewardThreshold_","type":"uint256","internalType":"uint256"}],"stateMutability":"view"},{"type":"function","name":"getProposalCount","inputs":[],"outputs":[{"name":"","type":"uint256","internalType":"uint256"}],"stateMutability":"view"},{"type":"function","name":"getStakerInfo","inputs":[{"name":"staker","type":"address","internalType":"address"}],"outputs":[{"name":"amount","type":"uint256","internalType":"uint256"},{"name":"unlockTime","type":"uint256","internalType":"uint256"},{"name":"durationMinutes","type":"uint256","internalType":"uint256"},{"name":"isActive","type":"bool","internalType":"bool"}],"stateMutability":"view"},{"type":"function","name":"getUserGovernancePower","inputs":[{"name":"account","type":"address","internalType":"address"}],"outputs":[{"name":"stakeAmount","type":"uint256","internalType":"uint256"},{"name":"earnedTokens","type":"uint256","internalType":"uint256"},{"name":"canProposeFlag","type":"bool","internalType":"bool"},{"name":"canVoteFlag","type":"bool","internalType":"bool"}],"stateMutability":"view"},{"type":"function","name":"getVotes","inputs":[{"name":"account","type":"address","internalType":"address"},{"name":"timepoint","type":"uint256","internalType":"uint256"}],"outputs":[{"name":"","type":"uint256","internalType":"uint256"}],"stateMutability":"view"},{"type":"function","name":"getVotesWithParams","inputs":[{"name":"account","type":"address","internalType":"address"},{"name":"timepoint","type":"uint256","internalType":"uint256"},{"name":"params","type":"bytes","internalType":"bytes"}],"outputs":[{"name":"","type":"uint256","internalType":"uint256"}],"stateMutability":"view"},{"type":"function","name":"getVotingPower","inputs":[{"name":"account","type":"address","internalType":"address"}],"outputs":[{"name":"own","type":"uint256","internalType":"uint256"},{"name":"delegated","type":"uint256","internalType":"uint256"},{"name":"reward","type":"uint256","internalType":"uint256"},{"name":"total","type":"uint256","internalType":"uint256"}],"stateMutability":"view"},{"type":"function","name":"hasVoted","inputs":[{"name":"proposalId","type":"uint256","internalType":"uint256"},{"name":"account","type":"address","internalType":"address"}],"outputs":[{"name":"","type":"bool","internalType":"bool"}],"stateMutability":"view"},{"type":"function","name":"hashProposal","inputs":[{"name":"targets","type":"address[]","internalType":"address[]"},{"name":"values","type":"uint256[]","internalType":"uint256[]"},{"name":"calldatas","type":"bytes[]","internalType":"bytes[]"},{"name":"descriptionHash","type":"bytes32","internalType":"bytes32"}],"outputs":[{"name":"","type":"uint256","internalType":"uint256"}],"stateMutability":"pure"},{"type":"function","name":"initialize","inputs":[{"name":"_owner","type":"address","internalType":"address"},{"name":"_bridge","type":"address","internalType":"address"},{"name":"_genesis","type":"address","internalType":"address"}],"outputs":[],"stateMutability":"nonpayable"},{"type":"function","name":"name","inputs":[],"outputs":[{"name":"","type":"string","internalType":"string"}],"stateMutability":"view"},{"type":"function","name":"nonces","inputs":[{"name":"owner","type":"address","internalType":"address"}],"outputs":[{"name":"","type":"uint256","internalType":"uint256"}],"stateMutability":"view"},{"type":"function","name":"nowjContract","inputs":[],"outputs":[{"name":"","type":"address","internalType":"contract INativeOpenWorkJobContract"}],"stateMutability":"view"},{"type":"function","name":"onERC1155BatchReceived","inputs":[{"name":"","type":"address","internalType":"address"},{"name":"","type":"address","internalType":"address"},{"name":"","type":"uint256[]","internalType":"uint256[]"},{"name":"","type":"uint256[]","internalType":"uint256[]"},{"name":"","type":"bytes","internalType":"bytes"}],"outputs":[{"name":"","type":"bytes4","internalType":"bytes4"}],"stateMutability":"nonpayable"},{"type":"function","name":"onERC1155Received","inputs":[{"name":"","type":"address","internalType":"address"},{"name":"","type":"address","internalType":"address"},{"name":"","type":"uint256","internalType":"uint256"},{"name":"","type":"uint256","internalType":"uint256"},{"name":"","type":"bytes","internalType":"bytes"}],"outputs":[{"name":"","type":"bytes4","internalType":"bytes4"}],"stateMutability":"nonpayable"},{"type":"function","name":"onERC721Received","inputs":[{"name":"","type":"address","internalType":"address"},{"name":"","type":"address","internalType":"address"},{"name":"","type":"uint256","internalType":"uint256"},{"name":"","type":"bytes","internalType":"bytes"}],"outputs":[{"name":"","type":"bytes4","internalType":"bytes4"}],"stateMutability":"nonpayable"},{"type":"function","name":"owner","inputs":[],"outputs":[{"name":"","type":"address","internalType":"address"}],"stateMutability":"view"},{"type":"function","name":"proposalDeadline","inputs":[{"name":"proposalId","type":"uint256","internalType":"uint256"}],"outputs":[{"name":"","type":"uint256","internalType":"uint256"}],"stateMutability":"view"},{"type":"function","name":"proposalEta","inputs":[{"name":"proposalId","type":"uint256","internalType":"uint256"}],"outputs":[{"name":"","type":"uint256","internalType":"uint256"}],"stateMutability":"view"},{"type":"function","name":"proposalNeedsQueuing","inputs":[{"name":"","type":"uint256","internalType":"uint256"}],"outputs":[{"name":"","type":"bool","internalType":"bool"}],"stateMutability":"view"},{"type":"function","name":"proposalProposer","inputs":[{"name":"proposalId","type":"uint256","internalType":"uint256"}],"outputs":[{"name":"","type":"address","internalType":"address"}],"stateMutability":"view"},{"type":"function","name":"proposalRewardThreshold","inputs":[],"outputs":[{"name":"","type":"uint256","internalType":"uint256"}],"stateMutability":"view"},{"type":"function","name":"proposalSnapshot","inputs":[{"name":"proposalId","type":"uint256","internalType":"uint256"}],"outputs":[{"name":"","type":"uint256","internalType":"uint256"}],"stateMutability":"view"},{"type":"function","name":"proposalStakeThreshold","inputs":[],"outputs":[{"name":"","type":"uint256","internalType":"uint256"}],"stateMutability":"view"},{"type":"function","name":"proposalThreshold","inputs":[],"outputs":[{"name":"","type":"uint256","internalType":"uint256"}],"stateMutability":"view"},{"type":"function","name":"proposalVotes","inputs":[{"name":"proposalId","type":"uint256","internalType":"uint256"}],"outputs":[{"name":"againstVotes","type":"uint256","internalType":"uint256"},{"name":"forVotes","type":"uint256","internalType":"uint256"},{"name":"abstainVotes","type":"uint256","internalType":"uint256"}],"stateMutability":"view"},{"type":"function","name":"propose","inputs":[{"name":"targets","type":"address[]","internalType":"address[]"},{"name":"values","type":"uint256[]","internalType":"uint256[]"},{"name":"calldatas","type":"bytes[]","internalType":"bytes[]"},{"name":"description","type":"string","internalType":"string"}],"outputs":[{"name":"","type":"uint256","internalType":"uint256"}],"stateMutability":"nonpayable"},{"type":"function","name":"proxiableUUID","inputs":[],"outputs":[{"name":"","type":"bytes32","internalType":"bytes32"}],"stateMutability":"view"},{"type":"function","name":"queue","inputs":[{"name":"targets","type":"address[]","internalType":"address[]"},{"name":"values","type":"uint256[]","internalType":"uint256[]"},{"name":"calldatas","type":"bytes[]","internalType":"bytes[]"},{"name":"descriptionHash","type":"bytes32","internalType":"bytes32"}],"outputs":[{"name":"","type":"uint256","internalType":"uint256"}],"stateMutability":"nonpayable"},{"type":"function","name":"quorum","inputs":[{"name":"","type":"uint256","internalType":"uint256"}],"outputs":[{"name":"","type":"uint256","internalType":"uint256"}],"stateMutability":"pure"},{"type":"function","name":"relay","inputs":[{"name":"target","type":"address","internalType":"address"},{"name":"value","type":"uint256","internalType":"uint256"},{"name":"data","type":"bytes","internalType":"bytes"}],"outputs":[],"stateMutability":"payable"},{"type":"function","name":"renounceOwnership","inputs":[],"outputs":[],"stateMutability":"nonpayable"},{"type":"function","name":"setBridge","inputs":[{"name":"_bridge","type":"address","internalType":"address"}],"outputs":[],"stateMutability":"nonpayable"},{"type":"function","name":"setGenesis","inputs":[{"name":"_genesis","type":"address","internalType":"address"}],"outputs":[],"stateMutability":"nonpayable"},{"type":"function","name":"setNOWJContract","inputs":[{"name":"_nowjContract","type":"address","internalType":"address"}],"outputs":[],"stateMutability":"nonpayable"},{"type":"function","name":"setProposalThreshold","inputs":[{"name":"newProposalThreshold","type":"uint256","internalType":"uint256"}],"outputs":[],"stateMutability":"nonpayable"},{"type":"function","name":"setVotingDelay","inputs":[{"name":"newVotingDelay","type":"uint48","internalType":"uint48"}],"outputs":[],"stateMutability":"nonpayable"},{"type":"function","name":"setVotingPeriod","inputs":[{"name":"newVotingPeriod","type":"uint32","internalType":"uint32"}],"outputs":[],"stateMutability":"nonpayable"},{"type":"function","name":"state","inputs":[{"name":"proposalId","type":"uint256","internalType":"uint256"}],"outputs":[{"name":"","type":"uint8","internalType":"enum IGovernor.ProposalState"}],"stateMutability":"view"},{"type":"function","name":"supportsInterface","inputs":[{"name":"interfaceId","type":"bytes4","internalType":"bytes4"}],"outputs":[{"name":"","type":"bool","internalType":"bool"}],"stateMutability":"view"},{"type":"function","name":"transferOwnership","inputs":[{"name":"newOwner","type":"address","internalType":"address"}],"outputs":[],"stateMutability":"nonpayable"},{"type":"function","name":"updateProposalRewardThreshold","inputs":[{"name":"newThreshold","type":"uint256","internalType":"uint256"}],"outputs":[],"stateMutability":"nonpayable"},{"type":"function","name":"updateProposalStakeThreshold","inputs":[{"name":"newThreshold","type":"uint256","internalType":"uint256"}],"outputs":[],"stateMutability":"nonpayable"},{"type":"function","name":"updateStakeData","inputs":[{"name":"staker","type":"address","internalType":"address"},{"name":"amount","type":"uint256","internalType":"uint256"},{"name":"unlockTime","type":"uint256","internalType":"uint256"},{"name":"durationMinutes","type":"uint256","internalType":"uint256"},{"name":"isActive","type":"bool","internalType":"bool"}],"outputs":[],"stateMutability":"nonpayable"},{"type":"function","name":"updateVotingRewardThreshold","inputs":[{"name":"newThreshold","type":"uint256","internalType":"uint256"}],"outputs":[],"stateMutability":"nonpayable"},{"type":"function","name":"updateVotingStakeThreshold","inputs":[{"name":"newThreshold","type":"uint256","internalType":"uint256"}],"outputs":[],"stateMutability":"nonpayable"},{"type":"function","name":"upgradeFromDAO","inputs":[{"name":"newImplementation","type":"address","internalType":"address"}],"outputs":[],"stateMutability":"nonpayable"},{"type":"function","name":"upgradeToAndCall","inputs":[{"name":"newImplementation","type":"address","internalType":"address"},{"name":"data","type":"bytes","internalType":"bytes"}],"outputs":[],"stateMutability":"payable"},{"type":"function","name":"version","inputs":[],"outputs":[{"name":"","type":"string","internalType":"string"}],"stateMutability":"view"},{"type":"function","name":"votingDelay","inputs":[],"outputs":[{"name":"","type":"uint256","internalType":"uint256"}],"stateMutability":"view"},{"type":"function","name":"votingPeriod","inputs":[],"outputs":[{"name":"","type":"uint256","internalType":"uint256"}],"stateMutability":"view"},{"type":"function","name":"votingRewardThreshold","inputs":[],"outputs":[{"name":"","type":"uint256","internalType":"uint256"}],"stateMutability":"view"},{"type":"function","name":"votingStakeThreshold","inputs":[],"outputs":[{"name":"","type":"uint256","internalType":"uint256"}],"stateMutability":"view"},{"type":"function","name":"withdraw","inputs":[],"outputs":[],"stateMutability":"nonpayable"},{"type":"event","name":"BridgeUpdated","inputs":[{"name":"oldBridge","type":"address","indexed":true,"internalType":"address"},{"name":"newBridge","type":"address","indexed":true,"internalType":"address"}],"anonymous":false},{"type":"event","name":"CrossContractCallFailed","inputs":[{"name":"account","type":"address","indexed":true,"internalType":"address"},{"name":"reason","type":"string","indexed":false,"internalType":"string"}],"anonymous":false},{"type":"event","name":"CrossContractCallSuccess","inputs":[{"name":"account","type":"address","indexed":true,"internalType":"address"}],"anonymous":false},{"type":"event","name":"DelegateChanged","inputs":[{"name":"delegator","type":"address","indexed":true,"internalType":"address"},{"name":"fromDelegate","type":"address","indexed":true,"internalType":"address"},{"name":"toDelegate","type":"address","indexed":true,"internalType":"address"}],"anonymous":false},{"type":"event","name":"EIP712DomainChanged","inputs":[],"anonymous":false},{"type":"event","name":"EarnedTokensUsedForGovernance","inputs":[{"name":"user","type":"address","indexed":true,"internalType":"address"},{"name":"earnedTokens","type":"uint256","indexed":false,"internalType":"uint256"},{"name":"action","type":"string","indexed":false,"internalType":"string"}],"anonymous":false},{"type":"event","name":"EarnerUpdated","inputs":[{"name":"earner","type":"address","indexed":true,"internalType":"address"},{"name":"newBalance","type":"uint256","indexed":false,"internalType":"uint256"},{"name":"totalGovernanceActions","type":"uint256","indexed":false,"internalType":"uint256"}],"anonymous":false},{"type":"event","name":"GenesisUpdated","inputs":[{"name":"oldGenesis","type":"address","indexed":true,"internalType":"address"},{"name":"newGenesis","type":"address","indexed":true,"internalType":"address"}],"anonymous":false},{"type":"event","name":"GovernanceActionNotified","inputs":[{"name":"user","type":"address","indexed":true,"internalType":"address"},{"name":"action","type":"string","indexed":false,"internalType":"string"}],"anonymous":false},{"type":"event","name":"Initialized","inputs":[{"name":"version","type":"uint64","indexed":false,"internalType":"uint64"}],"anonymous":false},{"type":"event","name":"NOWJContractUpdated","inputs":[{"name":"oldContract","type":"address","indexed":true,"internalType":"address"},{"name":"newContract","type":"address","indexed":true,"internalType":"address"}],"anonymous":false},{"type":"event","name":"OwnershipTransferred","inputs":[{"name":"previousOwner","type":"address","indexed":true,"internalType":"address"},{"name":"newOwner","type":"address","indexed":true,"internalType":"address"}],"anonymous":false},{"type":"event","name":"ProposalCanceled","inputs":[{"name":"proposalId","type":"uint256","indexed":false,"internalType":"uint256"}],"anonymous":false},{"type":"event","name":"ProposalCreated","inputs":[{"name":"proposalId","type":"uint256","indexed":false,"internalType":"uint256"},{"name":"proposer","type":"address","indexed":false,"internalType":"address"},{"name":"targets","type":"address[]","indexed":false,"internalType":"address[]"},{"name":"values","type":"uint256[]","indexed":false,"internalType":"uint256[]"},{"name":"signatures","type":"string[]","indexed":false,"internalType":"string[]"},{"name":"calldatas","type":"bytes[]","indexed":false,"internalType":"bytes[]"},{"name":"voteStart","type":"uint256","indexed":false,"internalType":"uint256"},{"name":"voteEnd","type":"uint256","indexed":false,"internalType":"uint256"},{"name":"description","type":"string","indexed":false,"internalType":"string"}],"anonymous":false},{"type":"event","name":"ProposalExecuted","inputs":[{"name":"proposalId","type":"uint256","indexed":false,"internalType":"uint256"}],"anonymous":false},{"type":"event","name":"ProposalQueued","inputs":[{"name":"proposalId","type":"uint256","indexed":false,"internalType":"uint256"},{"name":"etaSeconds","type":"uint256","indexed":false,"internalType":"uint256"}],"anonymous":false},{"type":"event","name":"ProposalThresholdSet","inputs":[{"name":"oldProposalThreshold","type":"uint256","indexed":false,"internalType":"uint256"},{"name":"newProposalThreshold","type":"uint256","indexed":false,"internalType":"uint256"}],"anonymous":false},{"type":"event","name":"RewardThresholdUpdated","inputs":[{"name":"thresholdType","type":"string","indexed":false,"internalType":"string"},{"name":"newThreshold","type":"uint256","indexed":false,"internalType":"uint256"}],"anonymous":false},{"type":"event","name":"StakeDataReceived","inputs":[{"name":"staker","type":"address","indexed":true,"internalType":"address"},{"name":"amount","type":"uint256","indexed":false,"internalType":"uint256"},{"name":"isActive","type":"bool","indexed":false,"internalType":"bool"}],"anonymous":false},{"type":"event","name":"Upgraded","inputs":[{"name":"implementation","type":"address","indexed":true,"internalType":"address"}],"anonymous":false},{"type":"event","name":"VoteCast","inputs":[{"name":"voter","type":"address","indexed":true,"internalType":"address"},{"name":"proposalId","type":"uint256","indexed":false,"internalType":"uint256"},{"name":"support","type":"uint8","indexed":false,"internalType":"uint8"},{"name":"weight","type":"uint256","indexed":false,"internalType":"uint256"},{"name":"reason","type":"string","indexed":false,"internalType":"string"}],"anonymous":false},{"type":"event","name":"VoteCastWithParams","inputs":[{"name":"voter","type":"address","indexed":true,"internalType":"address"},{"name":"proposalId","type":"uint256","indexed":false,"internalType":"uint256"},{"name":"support","type":"uint8","indexed":false,"internalType":"uint8"},{"name":"weight","type":"uint256","indexed":false,"internalType":"uint256"},{"name":"reason","type":"string","indexed":false,"internalType":"string"},{"name":"params","type":"bytes","indexed":false,"internalType":"bytes"}],"anonymous":false},{"type":"event","name":"VotingDelaySet","inputs":[{"name":"oldVotingDelay","type":"uint256","indexed":false,"internalType":"uint256"},{"name":"newVotingDelay","type":"uint256","indexed":false,"internalType":"uint256"}],"anonymous":false},{"type":"event","name":"VotingPeriodSet","inputs":[{"name":"oldVotingPeriod","type":"uint256","indexed":false,"internalType":"uint256"},{"name":"newVotingPeriod","type":"uint256","indexed":false,"internalType":"uint256"}],"anonymous":false},{"type":"error","name":"AddressEmptyCode","inputs":[{"name":"target","type":"address","internalType":"address"}]},{"type":"error","name":"ERC1967InvalidImplementation","inputs":[{"name":"implementation","type":"address","internalType":"address"}]},{"type":"error","name":"ERC1967NonPayable","inputs":[]},{"type":"error","name":"FailedInnerCall","inputs":[]},{"type":"error","name":"GovernorAlreadyCastVote","inputs":[{"name":"voter","type":"address","internalType":"address"}]},{"type":"error","name":"GovernorAlreadyQueuedProposal","inputs":[{"name":"proposalId","type":"uint256","internalType":"uint256"}]},{"type":"error","name":"GovernorDisabledDeposit","inputs":[]},{"type":"error","name":"GovernorInsufficientProposerVotes","inputs":[{"name":"proposer","type":"address","internalType":"address"},{"name":"votes","type":"uint256","internalType":"uint256"},{"name":"threshold","type":"uint256","internalType":"uint256"}]},{"type":"error","name":"GovernorInvalidProposalLength","inputs":[{"name":"targets","type":"uint256","internalType":"uint256"},{"name":"calldatas","type":"uint256","internalType":"uint256"},{"name":"values","type":"uint256","internalType":"uint256"}]},{"type":"error","name":"GovernorInvalidSignature","inputs":[{"name":"voter","type":"address","internalType":"address"}]},{"type":"error","name":"GovernorInvalidVoteType","inputs":[]},{"type":"error","name":"GovernorInvalidVotingPeriod","inputs":[{"name":"votingPeriod","type":"uint256","internalType":"uint256"}]},{"type":"error","name":"GovernorNonexistentProposal","inputs":[{"name":"proposalId","type":"uint256","internalType":"uint256"}]},{"type":"error","name":"GovernorNotQueuedProposal","inputs":[{"name":"proposalId","type":"uint256","internalType":"uint256"}]},{"type":"error","name":"GovernorOnlyExecutor","inputs":[{"name":"account","type":"address","internalType":"address"}]},{"type":"error","name":"GovernorOnlyProposer","inputs":[{"name":"account","type":"address","internalType":"address"}]},{"type":"error","name":"GovernorQueueNotImplemented","inputs":[]},{"type":"error","name":"GovernorRestrictedProposer","inputs":[{"name":"proposer","type":"address","internalType":"address"}]},{"type":"error","name":"GovernorUnexpectedProposalState","inputs":[{"name":"proposalId","type":"uint256","internalType":"uint256"},{"name":"current","type":"uint8","internalType":"enum IGovernor.ProposalState"},{"name":"expectedStates","type":"bytes32","internalType":"bytes32"}]},{"type":"error","name":"InvalidAccountNonce","inputs":[{"name":"account","type":"address","internalType":"address"},{"name":"currentNonce","type":"uint256","internalType":"uint256"}]},{"type":"error","name":"InvalidInitialization","inputs":[]},{"type":"error","name":"NotInitializing","inputs":[]},{"type":"error","name":"OwnableInvalidOwner","inputs":[{"name":"owner","type":"address","internalType":"address"}]},{"type":"error","name":"OwnableUnauthorizedAccount","inputs":[{"name":"account","type":"address","internalType":"address"}]},{"type":"error","name":"QueueEmpty","inputs":[]},{"type":"error","name":"QueueFull","inputs":[]},{"type":"error","name":"SafeCastOverflowedUintDowncast","inputs":[{"name":"bits","type":"uint8","internalType":"uint8"},{"name":"value","type":"uint256","internalType":"uint256"}]},{"type":"error","name":"UUPSUnauthorizedCallContext","inputs":[]},{"type":"error","name":"UUPSUnsupportedProxiableUUID","inputs":[{"name":"slot","type":"bytes32","internalType":"bytes32"}]}],"bytecode":{"object":"0x60a080604052346100c957306080525f516020615ce05f395f51905f525460ff8160401c166100ba576002600160401b03196001600160401b03821601610067575b604051615c1290816100ce82396080518181816136bc0152818161374f0152613b600152f35b6001600160401b0319166001600160401b039081175f516020615ce05f395f51905f525581527fc7f505b2f371ae2175ee4913f4499e1f2633a7b5936321eed1cdaeb6115181d290602090a15f80610041565b63f92ee8a960e01b5f5260045ffd5b5f80fdfe608080604052600436101561001c575b50361561001a575f80fd5b005b5f905f3560e01c90816301ffc9a7146141945750806302a251a314614162578063059c2080146140fb57806306fdde031461402c578063143489d014613ffc578063150b7a0214613fa7578063160cbed714613f7c5780632656227d14613ea25780632d63f69314613e845780632fe3e26114613e5d5780633932abb114613e2c5780633ccfd60b14613d9b5780633e4f49e614613d6e57806340634e3b14613b1357806342b4632e14613ae85780634385963214613a8f578063452115d6146139c05780634804874c146139a25780634bf5d7e9146139505780634f1ef2861461371057806352d1902d146136a9578063544ffc9c1461365957806354fd4d5014613629578063554232cb146135cb578063567813881461358c5780635b8d0e0d1461344d5780635c19a95c146131515780635f398a14146130db5780636e4f88c814612fe4578063715018a614612f8e57806371a1aea714612e32578063733bdef014612d63578063787bb31014612d3c5780637905188714612cb15780637b3c71d314612c4d5780637d5e81e21461241b5780637ecebe00146123d657806384b0196e146122db5780638da5cb5b146122a65780638dd148021461223b5780638f1bbf6e14611f535780638ff262e314611e5f57806391ddadf414611e3c578063922d01e914611ddf57806399cd210714611c8f5780639a802a6d14611ab55780639b6797fd14611a975780639fb2f64714611a69578063a7f0b3de14611a40578063a9a9529414611a23578063ab58fb8e14611a04578063ab65037d146118f8578063ad3cb1cc146118af578063adfaa72e1461187a578063b44d3d4a1461173c578063b58131b014611712578063bb4d443614611550578063bc197c81146114ba578063c01f9e371461149b578063c08cc02d14611418578063c0c53b8b14610cb6578063c0e393c414610c57578063c28bc2fa14610bec578063c333d05f14610b8c578063c59057e414610b6f578063cdbdb29314610ab9578063d052ca851461096a578063dbe69e511461094c578063dd4e2ba5146108eb578063deaaa7cc146108c3578063e540d01d14610816578063e78cea92146107ed578063eb14b35314610782578063eb9019d4146105a5578063ece40cc11461054b578063efa90d3614610460578063f1de9a7714610442578063f23a6e61146103e8578063f2fde38b146103bb5763f8ce560a0361000f57346103b85760203660031901126103b85760206040516802b5e3af16b18800008152f35b80fd5b50346103b85760203660031901126103b8576103e56103d86141ff565b6103e0614d00565b614ca2565b80f35b50346103b85760a03660031901126103b8576104026141ff565b5061040b614215565b506084356001600160401b03811161043e5761042b9036906004016142ed565b5060405163f23a6e6160e01b8152602090f35b5080fd5b50346103b857806003193601126103b8576020600454604051908152f35b50346103b857806003193601126103b8576002546040516377d4869b60e11b8152908290829060049082906001600160a01b03165afa90811561054057829161051e575b506104af8151614aa0565b906104ba8151614aa0565b925b815181101561050957806104d2600192846147fa565b516104dd82866147fa565b526105036104f46104ee83866147fa565b51614848565b6104fe83886147fa565b614ad2565b016104bc565b505061051a604051928392836145b5565b0390f35b61053a91503d8084833e6105328183614265565b810190614a19565b5f6104a4565b6040513d84823e3d90fd5b50346103b85760203660031901126103b857600435610568614e8d565b5f5160206158dd5f395f51905f5260405f5160206159fd5f395f51905f52548151908152836020820152a15f5160206159fd5f395f51905f525580f35b50346103b85760403660031901126103b8576105bf6141ff565b602091806040516105d08582614265565b526002546040516303d3b32360e51b81526001600160a01b0393841660048201819052909390929116608084602481845afa938415610540578294610751575b5081936060810151151580610747575b61072d575b5084829360018060a01b03845416806106bb575b50602460405180948193631b68969560e21b835260048301525afa9182156106af579161067c575b5061066f9061067493614b48565b614b48565b604051908152f35b90508381813d83116106a8575b6106938183614265565b810103126106a45751610674610661565b5f80fd5b503d610689565b604051903d90823e3d90fd5b60249291955060405192838092635843905f60e01b82528860048301525afa9081156107225790869184916106f3575b50935f610639565b82819392503d831161071b575b61070a8183614265565b810103126106a4578590515f6106eb565b503d610700565b6040513d85823e3d90fd5b61074091945060408151910151906149f2565b925f610625565b5080511515610620565b61077491945060803d60801161077b575b61076c8183614265565b81019061499d565b925f610610565b503d610762565b50346103b85760203660031901126103b85761079c6141ff565b6107a4614d00565b600280546001600160a01b039283166001600160a01b0319821681179092559091167f5f1d51aab4bd6e41be6c7feda322db860d93d0058238bf871dfafd43ecc951f98380a380f35b50346103b857806003193601126103b8576001546040516001600160a01b039091168152602090f35b50346103b85760203660031901126103b85760043563ffffffff8116908181036108bf57610842614e8d565b81156108ab575f516020615add5f395f51905f5260405f5160206158fd5f395f51905f52549381519063ffffffff8660301c1682526020820152a163ffffffff60301b1990911660309190911b63ffffffff60301b16175f5160206158fd5f395f51905f525580f35b63f1cfbf0560e01b83526004839052602483fd5b8280fd5b50346103b857806003193601126103b85760206040515f51602061597d5f395f51905f528152f35b50346103b857806003193601126103b8575061051a60405161090e604082614265565b602081527f737570706f72743d627261766f2671756f72756d3d666f722c6162737461696e6020820152604051918291602083526020830190614241565b50346103b857806003193601126103b8576020600554604051908152f35b50346103b85760203660031901126103b8576109846141ff565b6002546040516303d3b32360e51b81526001600160a01b0383811660048301819052949283929160809183916024918391165afa908115610540578291610a9a575b50606081015115610a935751905b80546001600160a01b03169485610a27575b505060809350610a0c6109ff6003546005549086614d78565b9360045460065491614d78565b60405193151584521515602084015260408301526060820152f35b602091929350602460405180978193635843905f60e01b835260048301525afa9081156106af5790610a60575b60809350905f806109e6565b506020833d602011610a8b575b81610a7a60209383614265565b810103126106a45760809251610a54565b3d9150610a6d565b50806109d4565b610ab3915060803d60801161077b5761076c8183614265565b5f6109c6565b50346103b85760203660031901126103b857610ad36141ff565b6002546040516315eb095d60e21b81526001600160a01b0392831660048201529160609183916024918391165afa8015610540578291838092610b23575b505061051a9060405193849384614628565b92509250506060823d606011610b67575b81610b4160609383614265565b810103126103b85750610b538161497c565b602082015160409092015161051a5f610b11565b3d9150610b34565b50346103b8576020610674610b833661446b565b92919091614c3b565b50346103b85760203660031901126103b8575f516020615b3d5f395f51905f526080600435610bb9614e8d565b806005556040519060408252600e60408301526d1c1c9bdc1bdcd85b14995dd85c9960921b60608301526020820152a180f35b5060603660031901126103b857610c016141ff565b816044356001600160401b03811161043e57610c5392610c2683923690600401614519565b90610c2f614e8d565b81604051928392833781018481520391602435905af1610c4d614bb4565b9061558e565b5080f35b50346103b85760203660031901126103b8575f516020615b3d5f395f51905f526080600435610c84614e8d565b806003556040519060408252600d60408301526c70726f706f73616c5374616b6560981b60608301526020820152a180f35b50346103b85760603660031901126103b857610cd06141ff565b610cd8614215565b610ce061422b565b5f516020615b7d5f395f51905f5254604081901c60ff161592906001600160401b03811680159081611410575b6001149081611406575b1590816113fd575b506113ee576001600160401b031981166001175f516020615b7d5f395f51905f5255836113c6575b506040938451610d578682614265565b601381527243726f7373436861696e4e617469766544414f60681b6020820152610d7f615690565b610d8761495d565b610d8f615690565b81516001600160401b0381116112c557610db65f51602061593d5f395f51905f5254614646565b601f811161135e575b50806020601f82116001146112e4578a916112d9575b508160011b915f199060031b1c1916175f51602061593d5f395f51905f52555b8051906001600160401b0382116112c5578190610e1f5f5160206159bd5f395f51905f5254614646565b601f8111611255575b50602090601f83116001146111d9578a926111ce575b50508160011b915f199060031b1c1916175f5160206159bd5f395f51905f52555b865f5160206159dd5f395f51905f5255865f516020615b9d5f395f51905f5255610e87615690565b8051906001600160401b0382116111ba57610eaf5f516020615b5d5f395f51905f5254614646565b601f8111611152575b50602090601f83116001146110d25761101d9392918991836110c7575b50508160011b915f199060031b1c1916175f516020615b5d5f395f51905f52555b610efe615690565b610f06615690565b5f51602061599d5f395f51905f528665ffffffffffff5f5160206158fd5f395f51905f5254168151908152603c6020820152a1603c65ffffffffffff195f5160206158fd5f395f51905f525416175f5160206158fd5f395f51905f52555f5160206158fd5f395f51905f52545f516020615add5f395f51905f5287805163ffffffff8460301c16815261012c6020820152a163ffffffff60301b1916604b60321b175f5160206158fd5f395f51905f52555f5160206159fd5f395f51905f5254865190815268056bc75e2d6310000060208201525f5160206158dd5f395f51905f52908790a168056bc75e2d631000005f5160206159fd5f395f51905f525561100d615690565b611015615690565b6103e0615690565b611025615690565b600180546001600160a01b039283166001600160a01b0319918216179091556002805493909216921691909117905568056bc75e2d6310000060038190556802b5e3af16b18800006004556005819055600655611080575080f35b5f516020615b7d5f395f51905f52805460ff60401b1916905551600181527fc7f505b2f371ae2175ee4913f4499e1f2633a7b5936321eed1cdaeb6115181d290602090a180f35b015190505f80610ed5565b5f516020615b5d5f395f51905f5289528189209190601f1984168a5b81811061113a575091600193918561101d97969410611122575b505050811b015f516020615b5d5f395f51905f5255610ef6565b01515f1960f88460031b161c191690555f8080611108565b929360206001819287860151815501950193016110ee565b82811115610eb8575f516020615b5d5f395f51905f528952601f830160051c5f5160206158bd5f395f51905f52602085106111b2575b81601f9101920160051c0390895b8281106111a4575050610eb8565b6001908b8184015501611196565b8a9150611188565b634e487b7160e01b88526041600452602488fd5b015190505f80610e3e565b5f5160206159bd5f395f51905f528b52818b209250601f1984168b5b81811061123d5750908460019594939210611225575b505050811b015f5160206159bd5f395f51905f5255610e5f565b01515f1960f88460031b161c191690555f808061120b565b929360206001819287860151815501950193016111f5565b82811115610e28575f5160206159bd5f395f51905f528b52909150601f830160051c5f516020615bbd5f395f51905f52602085106112bd575b849392601f0160051c82900391018b5b8281106112ac575050610e28565b8082018d905585945060010161129e565b8b915061128e565b634e487b7160e01b89526041600452602489fd5b90508301515f610dd5565b5f51602061593d5f395f51905f528b52808b209150601f1983168b5b8181106113465750908360019493921061132e575b5050811b015f51602061593d5f395f51905f5255610df5565b8501515f1960f88460031b161c191690555f80611315565b9192602060018192868a015181550194019201611300565b81811115610dbf575f51602061593d5f395f51905f528a52601f820160051c5f516020615a1d5f395f51905f52602084106113be575b81601f9101920160051c03908a5b8281106113b0575050610dbf565b6001908c81840155016113a2565b8b9150611394565b6001600160481b0319166001600160401b01175f516020615b7d5f395f51905f52555f610d47565b63f92ee8a960e01b8652600486fd5b9050155f610d1f565b303b159150610d17565b859150610d0d565b50346103b857806003193601126103b85760025460405163c08cc02d60e01b81529190602090839060049082906001600160a01b03165afa9081156106af5790611468575b602090604051908152f35b506020813d602011611493575b8161148260209383614265565b810103126106a4576020905161145d565b3d9150611475565b50346103b85760203660031901126103b8576020610674600435614b55565b50346103b85760a03660031901126103b8576114d46141ff565b506114dd614215565b506044356001600160401b03811161043e576114fd903690600401614390565b506064356001600160401b03811161043e5761151d903690600401614390565b506084356001600160401b03811161043e5761153d9036906004016142ed565b5060405163bc197c8160e01b8152602090f35b50346103b85760203660031901126103b85761156a6141ff565b6002546040516303d3b32360e51b81526001600160a01b039283166004820181905290939290911691608084602481865afa80156116d25760249482916116f3575b5060608101511515806116e9575b156116df576115d281604060209351910151906149f2565b935b60405195868092631b68969560e21b82528660048301525afa9384156116d257819461169e575b5080546001600160a01b031691819083611632575b505061051a91506116258161066f8686614b48565b906040519485948561460c565b6020919250602460405180958193635843905f60e01b835260048301525afa9081156106af579061166a575b61051a91505f80611610565b506020813d602011611696575b8161168460209383614265565b810103126106a45761051a905161165e565b3d9150611677565b9093506020813d6020116116ca575b816116ba60209383614265565b810103126106a45751925f6115fb565b3d91506116ad565b50604051903d90823e3d90fd5b50602081936115d4565b50805115156115ba565b61170c915060803d60801161077b5761076c8183614265565b5f6115ac565b50346103b857806003193601126103b85760205f5160206159fd5f395f51905f5254604051908152f35b50346103b85760a03660031901126103b8576117566141ff565b602435608435801515809103611826576001546001600160a01b0316330361182a576002546001600160a01b0316928490843b1561043e5781809160a460405180948193632950966760e21b835260018060a01b0316998a6004840152896024840152604435604484015260643560648401528860848401525af1801561054057611811575b50507fb90a9d41eedadff399faa3abc28841713740c4928be2fe616399bef9c722bb659160409182519182526020820152a280f35b8161181b91614265565b61182657835f6117dc565b8380fd5b60405162461bcd60e51b815260206004820152602260248201527f4f6e6c79206272696467652063616e2063616c6c20746869732066756e63746960448201526137b760f11b6064820152608490fd5b50346103b85760203660031901126103b85760206118a56118996141ff565b60045460065491614d78565b6040519015158152f35b50346103b857806003193601126103b8575061051a6040516118d2604082614265565b60058152640352e302e360dc1b6020820152604051918291602083526020830190614241565b50346103b85760603660031901126103b8576119126141ff565b602435604435611920614e8d565b6001600160a01b0383169283156119c6576002548591906001600160a01b0316803b156108bf57838391868361196d9560405196879586948593638cac641560e01b855260048501614628565b03925af18015610540576119b1575b50507fff1b7739ef48ea8e5cac55fcf2e131f33e741fda310ae7b33b5b510f57c10e329160409182519182526020820152a280f35b816119bb91614265565b61182657835f61197c565b60405162461bcd60e51b8152602060048201526016602482015275496e76616c6964206561726e6572206164647265737360501b6044820152606490fd5b50346103b85760203660031901126103b8576020610674600435614b22565b50346103b85760203660031901126103b857602090604051908152f35b50346103b857806003193601126103b8576002546040516001600160a01b039091168152602090f35b50346103b857806003193601126103b8576003546004549061051a600554600654906040519485948561460c565b50346103b857806003193601126103b8576020600654604051908152f35b50346103b85760603660031901126103b857611acf6141ff565b6044356001600160401b0381116108bf57611aee9036906004016142ed565b506002546040516303d3b32360e51b81526001600160a01b039283166004820181905292909116608082602481845afa918215611c84578492611c63575b5083916060810151151580611c59575b611c3f575b5083548493906001600160a01b031680611bc9575b50602090602460405180948193631b68969560e21b835260048301525afa9384156106af5793611b91575b60206106748461066f8786614b48565b9250906020833d602011611bc1575b81611bad60209383614265565b810103126106a4579151919061066f611b81565b3d9150611ba0565b602491945060209060405192838092635843905f60e01b82528860048301525afa8015611c34578590611c01575b9390506020611b56565b506020813d602011611c2c575b81611c1b60209383614265565b810103126106a45760209051611bf7565b3d9150611c0e565b6040513d87823e3d90fd5b611c5291925060408151910151906149f2565b905f611b41565b5080511515611b3c565b611c7d91925060803d60801161077b5761076c8183614265565b905f611b2c565b6040513d86823e3d90fd5b50346103b85760203660031901126103b857611ca96141ff565b6002546040516303d3b32360e51b81526001600160a01b0383811660048301819052949260809183916024918391165afa908115610540578291611dc0575b50606081015115611db85751915b81546001600160a01b031693829085611d4c575b505060809350611d30611d236003546005549084614d78565b9160045460065491614d78565b9160405193845260208401521515604083015215156060820152f35b602091929350602460405180978193635843905f60e01b835260048301525afa9081156106af5790611d85575b60809350905f80611d0a565b506020833d602011611db0575b81611d9f60209383614265565b810103126106a45760809251611d79565b3d9150611d92565b508091611cf6565b611dd9915060803d60801161077b5761076c8183614265565b5f611ce8565b50346103b85760203660031901126103b8575f516020615b3d5f395f51905f526080600435611e0c614e8d565b806004556040519060408252600b60408301526a766f74696e675374616b6560a81b60608301526020820152a180f35b50346103b857806003193601126103b857602060405165ffffffffffff42168152f35b50346103b85760803660031901126103b85760043590611e7d614509565b611e8561422b565b6064356001600160401b03811161182657611ea49036906004016142ed565b611f0d611eb083614ea9565b91611f0760405160208101905f51602061597d5f395f51905f52825289604082015260ff8816606082015260018060a01b0387169586608083015260a082015260a08152611eff60c082614265565b519020614ed7565b84614f59565b15611f415760206106748587868660405192611f298785614265565b84845260405194611f3a8887614265565b8552615037565b6394ab6c0760e01b8452600452602483fd5b50346103b85760203660031901126103b857611f6d6141ff565b6002546040516303d3b32360e51b81526001600160a01b0383811660048301819052919391921690608084602481855afa938415611c3457859461221a575b506060840151158015949061221357515b85548691906001600160a01b031680151590816121a3575b611ff5611fe86003546005549088614d78565b9560045460065491614d78565b956020978a6040516120078b82614265565b526040516303d3b32360e51b81526004810182905290608082602481865afa938415612198578a928d95612177575b508c94606081015115158061216d575b612153575b508c956120e3575b50602460405180948193631b68969560e21b835260048301525afa998a156106af57996120b0575b509061066f60c09961208c93614b48565b946040519687528601526040850152151560608401521515608083015260a0820152f35b9850908689813d83116120dc575b6120c88183614265565b810103126106a4579751979061066f61207b565b503d6120be565b60249291955060405192838092635843905f60e01b82528860048301525afa80156121485789918c91612119575b50935f612053565b82819392503d8311612141575b6121308183614265565b810103126106a4578890515f612111565b503d612126565b6040513d8d823e3d90fd5b61216691955060408151910151906149f2565b935f61204b565b5080511515612046565b61219191955060803d60801161077b5761076c8183614265565b935f612036565b6040513d8e823e3d90fd5b9250604051635843905f60e01b8152866004820152602081602481875afa9081156122085789916121d6575b5092611fd5565b90506020813d602011612200575b816121f160209383614265565b810103126106a457515f6121cf565b3d91506121e4565b6040513d8b823e3d90fd5b5084611fbd565b61223491945060803d60801161077b5761076c8183614265565b925f611fac565b50346103b85760203660031901126103b8576122556141ff565b61225d614d00565b600180546001600160a01b039283166001600160a01b0319821681179092559091167faae9beddccf584528e87b66c6ff2563825c8a1433305b8a656e9b5f9bf3904998380a380f35b50346103b857806003193601126103b8575f51602061595d5f395f51905f52546040516001600160a01b039091168152602090f35b50346103b857806003193601126103b8575f5160206159dd5f395f51905f525415806123c0575b15612383576123569061051a61231661467e565b9161231f61473a565b61236460405191612331602084614265565b8383525f368137604051968796600f60f81b885260e0602089015260e0880190614241565b908682036040880152614241565b9146606086015230608086015260a085015283820360c0850152614582565b60405162461bcd60e51b81526020600482015260156024820152741152540dcc4c8e88155b9a5b9a5d1a585b1a5e9959605a1b6044820152606490fd5b505f516020615b9d5f395f51905f525415612302565b50346103b85760203660031901126103b8576020906040906001600160a01b036123fe6141ff565b1681525f516020615a5d5f395f51905f5283522054604051908152f35b50346103b85760803660031901126103b8576004356001600160401b03811161043e5761244c903690600401614322565b6024356001600160401b0381116108bf5761246b903690600401614390565b906044356001600160401b0381116118265761248b9036906004016143ed565b6064356001600160401b038111612af85736602382011215612af8576124bb9036906024816004013591016142b7565b600354600554906124cd828233614d78565b15612c04576002546040516303d3b32360e51b815233600482015288936001600160a01b0390921692608082602481875afa918215611c34578592612be3575b50606082015115918215612bd8575b5050612b11575b50803b1561043e578180916024604051809481936341b3d2a160e01b83523360048401525af1801561054057612afc575b5080546001600160a01b031661256b811515614ade565b803b1561043e57818091602460405180948193634cfa135f60e11b83523360048401525af1801561054057612ae3575b50506125a781336155d5565b15612ad0575f5160206159fd5f395f51905f5254806128ee575b506125d481516020830120838686614c3b565b9383518151908181148015906128e3575b80156128db575b6128be5750508486525f51602061589d5f395f51905f5260205265ffffffffffff604087205460a01c166128955761264265ffffffffffff5f5160206158fd5f395f51905f52541665ffffffffffff4216614b48565b5f5160206158fd5f395f51905f52548688525f51602061589d5f395f51905f526020526040882080546001600160a01b03191633178155919460309190911c63ffffffff169165ffffffffffff861161287c57805463ffffffff841161286357600160a01b600160f01b03191660a087901b65ffffffffffff60a01b161760d084901b63ffffffff60d01b161790558551916126dd8361430b565b926126eb6040519485614265565b8084526126fa601f199161430b565b01895b8181106128525750506127136127459187614b48565b93612737604051988a8a523360208b015261012060408b01526101208a0190614546565b9088820360608a0152614582565b8681036080880152825180825260208201916020808360051b8301019501928b915b83831061282557508b8b7f7d84a6263ae0d98d3329bd7b46bb4e8d6f98cd35a7adb45c274c8b7fd5ebd5e08c806127c58e8e8e6127ac8f8f87820360a0890152614be3565b9260c086015260e0850152838203610100850152614241565b0390a160025482906001600160a01b0316803b1561043e5781906024604051809481936302bd007760e21b83528760048401525af1801561072257612810575b602082604051908152f35b61281b838092614265565b61043e5781612805565b9091929395602080612843600193601f198682030187528a51614241565b98019301930191939290612767565b8060606020809388010152016126fd565b6306dfcc6560e41b8a526020600452602484905260448afd5b6306dfcc6560e41b895260306004526024869052604489fd5b6064866128b8876128a581614848565b906331b75e4d60e01b84526004526144da565b80604452fd5b8451630447b05d60e41b8952600491909152602452604452606486fd5b5080156125ec565b5084518114156125e5565b65ffffffffffff4281165f190111612abc576020866040516129108382614265565b526002546040516303d3b32360e51b8152336004820152916001600160a01b0390911690608083602481855afa928315612208578993612a9b575b5088926060810151151580612a91575b612a77575b5088548992906001600160a01b031680612a11575b508160249160405192838092631b68969560e21b82523360048301525afa918215612a06578a926129d6575b505061066f906129b093614b48565b8181106129bd57506125c1565b636121770b60e11b875233600452602452604452606485fd5b90809250813d83116129ff575b6129ed8183614265565b810103126106a457518261066f6129a1565b503d6129e3565b6040513d8c823e3d90fd5b604051635843905f60e01b81523360048201529193508290829060249082905afa8015612a065782908b90612a49575b939150612975565b5081813d8311612a70575b612a5e8183614265565b810103126106a4578160249151612a41565b503d612a54565b612a8a91935060408151910151906149f2565b915f612960565b508051151561295b565b612ab591935060803d60801161077b5761076c8183614265565b915f61294b565b634e487b7160e01b86526011600452602486fd5b63d9b3955760e01b855233600452602485fd5b81612aed91614265565b612af857845f61259b565b8480fd5b81612b0691614265565b612af857845f612554565b82546001600160a01b03169081612b29575b50612523565b602060249260405193848092635843905f60e01b82523360048301525afa918215611c84578492612ba1575b50811015612b64575b80612b23565b60405190815260406020820152600760408201526670726f706f736560c81b60608201525f516020615afd5f395f51905f5260803392a25f612b5e565b935090506020833d602011612bd0575b81612bbe60209383614265565b810103126106a457879251905f612b55565b3d9150612bb1565b511090505f8061251c565b612bfd91925060803d60801161077b5761076c8183614265565b905f61250d565b60405162461bcd60e51b815260206004820152602e60248201525f51602061591d5f395f51905f5260448201526d656e7320746f2070726f706f736560901b6064820152608490fd5b50346103b85760603660031901126103b857612c67614509565b6044356001600160401b0381116108bf579161067491612c97612c906020953690600401614519565b36916142b7565b9060405192612ca68685614265565b835233600435615037565b50346103b85760203660031901126103b85760043565ffffffffffff811680910361043e57612cde614e8d565b5f51602061599d5f395f51905f52604065ffffffffffff5f5160206158fd5f395f51905f5254168151908152836020820152a165ffffffffffff195f5160206158fd5f395f51905f525416175f5160206158fd5f395f51905f525580f35b50346103b857806003193601126103b857546040516001600160a01b039091168152602090f35b50346103b85760203660031901126103b857612d7d6141ff565b600254604051630733bdef60e41b81526001600160a01b0392831660048201529160809183916024918391165afa80156105405782918384918593612ddb575b50608094506040519384526020840152604083015215156060820152f35b93505050506080813d608011612e2a575b81612df960809383614265565b8101031261043e5760809150805190602081015191612e1f606060408401519301614990565b90929190915f612dbd565b3d9150612dec565b50346103b857806003193601126103b8576002546040516377d4869b60e11b8152908290829060049082906001600160a01b03165afa908115610540578291612f74575b5081825b8251811015612ed157612e906104ee82856147fa565b6008811015612ebd57600114612ea9575b600101612e7a565b90612eb5600191614a92565b919050612ea1565b634e487b7160e01b85526021600452602485fd5b50612ee4612ede82614aa0565b91614aa0565b908390845b8451811015612f6557612eff6104ee82876147fa565b6008811015612f515760018114612f1a575b50600101612ee9565b8193612f45612f4a92612f2f6001958a6147fa565b51612f3a84886147fa565b526104fe83896147fa565b614a92565b9290612f11565b634e487b7160e01b87526021600452602487fd5b6040518061051a8685836145b5565b612f8891503d8084833e6105328183614265565b5f612e76565b50346103b857806003193601126103b857612fa7614d00565b5f51602061595d5f395f51905f5280546001600160a01b0319811690915581906001600160a01b03165f516020615a9d5f395f51905f528280a380f35b50346103b857806003193601126103b857600254604051630dc9f11960e31b8152908290829060049082906001600160a01b03165afa90811561054057829161303e575b6040516020808252819061051a90820185614546565b90503d8083833e61304f8183614265565b8101906020818303126108bf578051906001600160401b038211611826570181601f820112156108bf578051906130858261430b565b936130936040519586614265565b82855260208086019360051b8301019384116103b85750602001905b8282106130c35750505061051a905f613028565b602080916130d08461497c565b8152019101906130af565b50346103b85760803660031901126103b8576130f5614509565b6044356001600160401b0381116108bf57613114903690600401614519565b92606435906001600160401b0382116103b857602061067486866131478761313f3660048a016142ed565b9336916142b7565b9033600435615037565b50346103b85760203660031901126103b85761316b6141ff565b600254604051631513615960e21b81523360048201526001600160a01b039091169190602081602481865afa908115611c84578491613413575b506001600160a01b03918216929116908282146133c4576040516303d3b32360e51b815233600482015290608082602481845afa918215611c345785926133a3575b506060820151151580613399575b156133565761320c826040879451910151906149f2565b90836132fc575b508361329c575b506002546001600160a01b0316803b1561043e57818091604460405180948193635c87384960e01b83523360048401528960248401525af1801561054057613287575b5050337f3134e8a2e6d97e929a7e54011ea5485d7d196dd5f0ba4d4ef95803e8e3fc257f8480a480f35b8161329191614265565b6108bf57825f61325d565b6002546001600160a01b031690813b156108bf5782916064839260405194859384926313c598fd60e31b84528a60048501526024840152600160448401525af18015610540571561321a57816132f191614265565b6108bf57825f61321a565b803b156108bf578280916064604051809481936313c598fd60e31b83528960048401528760248401528160448401525af1908115610722578391613341575b50613213565b8161334b91614265565b61043e57815f61333b565b60405162461bcd60e51b815260206004820152601b60248201527a4e6f20616374697665207374616b6520746f2064656c656761746560281b6044820152606490fd5b50815115156131f5565b6133bd91925060803d60801161077b5761076c8183614265565b905f6131e7565b60405162461bcd60e51b815260206004820152602160248201527f416c72656164792064656c65676174656420746f2074686973206164647265736044820152607360f81b6064820152608490fd5b90506020813d602011613445575b8161342e60209383614265565b810103126118265761343f9061497c565b5f6131a5565b3d9150613421565b50346103b85760c03660031901126103b85760043561346a614509565b61347261422b565b6064356001600160401b038111612af857613491903690600401614519565b6084356001600160401b038111613588576134b09036906004016142ed565b9560a4356001600160401b03811161043e576134d09036906004016142ed565b6135566134dc86614ea9565b916135506134eb3687896142b7565b602081519101208b5160208d01206040519060208201925f516020615b1d5f395f51905f5284528d604084015260ff8d16606084015260018060a01b038c169788608085015260a084015260c083015260e082015260e08152611eff61010082614265565b87614f59565b156135755760206106748989898961356f368a8c6142b7565b92615037565b6394ab6c0760e01b825260045260249150fd5b8680fd5b50346103b85760403660031901126103b8576106746020916135ac614509565b604051906135ba8583614265565b82825260405192612ca68685614265565b50346103b85760203660031901126103b8575f516020615b3d5f395f51905f5260806004356135f8614e8d565b806006556040519060408252600c60408301526b1d9bdd1a5b99d4995dd85c9960a21b60608301526020820152a180f35b50346103b857806003193601126103b85761051a61364561495d565b604051918291602083526020830190614241565b50346103b85760203660031901126103b85760609060043581525f516020615a7d5f395f51905f526020526040812080549060026001820154910154916040519350835260208301526040820152f35b50346103b857806003193601126103b8577f00000000000000000000000000000000000000000000000000000000000000006001600160a01b031630036137015760206040515f516020615a3d5f395f51905f528152f35b63703e46dd60e11b8152600490fd5b5060403660031901126103b8576137256141ff565b906024356001600160401b03811161043e576137459036906004016142ed565b6001600160a01b037f00000000000000000000000000000000000000000000000000000000000000001630811490811561392e575b5061391f575f51602061595d5f395f51905f52546001600160a01b03163314801561390b575b156138cf576040516352d1902d60e01b8152926001600160a01b0381169190602085600481865afa8095859661389b575b506137ea57634c9c8ce360e01b84526004839052602484fd5b9091845f516020615a3d5f395f51905f5281036138895750813b15613877575f516020615a3d5f395f51905f5280546001600160a01b031916821790555f516020615abd5f395f51905f528480a2815183901561385d5780836020610c5395519101845af4613857614bb4565b916157ce565b505050346138685780f35b63b398979f60e01b8152600490fd5b634c9c8ce360e01b8452600452602483fd5b632a87526960e21b8552600452602484fd5b9095506020813d6020116138c7575b816138b760209383614265565b810103126106a45751945f6137d1565b3d91506138aa565b60405162461bcd60e51b8152602060048201526014602482015273556e617574686f72697a6564207570677261646560601b6044820152606490fd5b506001546001600160a01b031633146137a0565b63703e46dd60e11b8252600482fd5b5f516020615a3d5f395f51905f52546001600160a01b0316141590505f61377a565b50346103b857806003193601126103b8575061051a604051613973604082614265565b600e81526d06d6f64653d74696d657374616d760941b6020820152604051918291602083526020830190614241565b50346103b857806003193601126103b8576020600354604051908152f35b50346103b8576139cf3661446b565b93926139e085838584969596614c3b565b6139eb600182614d33565b506001600160a01b03906139fe906147d4565b163303613a7c5793604092613a1592602096614c3b565b91613a21603b84614d33565b508281525f51602061589d5f395f51905f5284522080546001600160f81b0316600160f81b1790556040518181527f789cf55be980739dad1d0699b93b58e806b51c9d96619bfa8fe0a28abaa7b30c908390a1604051908152f35b63233d98e360e01b845233600452602484fd5b50346103b85760403660031901126103b85760036040613aad614215565b9260043581525f516020615a7d5f395f51905f5260205220019060018060a01b03165f52602052602060ff60405f2054166040519015158152f35b50346103b85760203660031901126103b85760206118a5613b076141ff565b60035460055491614d78565b50346106a45760203660031901126106a457613b2d6141ff565b6001546001600160a01b03169033829003613d2f5760209060405192613b538385614265565b5f84526001600160a01b037f000000000000000000000000000000000000000000000000000000000000000016308114908115613d0d575b50613cfe575f51602061595d5f395f51905f52546001600160a01b03163314908115613cf4575b5015613cb8576040516352d1902d60e01b81526001600160a01b03821693908381600481885afa5f9181613c89575b50613bfa57634c9c8ce360e01b86526004859052602486fd5b93845f516020615a3d5f395f51905f52879603613c775750823b15613c65575f516020615a3d5f395f51905f5280546001600160a01b031916821790555f516020615abd5f395f51905f525f80a280511561001a578381610c53948293519101845af4613857614bb4565b634c9c8ce360e01b5f5260045260245ffd5b632a87526960e21b5f5260045260245ffd5b9091508481813d8311613cb1575b613ca18183614265565b810103126106a45751905f613be1565b503d613c97565b60405162461bcd60e51b8152600481018390526014602482015273556e617574686f72697a6564207570677261646560601b6044820152606490fd5b905033145f613bb2565b63703e46dd60e11b5f5260045ffd5b5f516020615a3d5f395f51905f52546001600160a01b0316141590505f613b8b565b60405162461bcd60e51b81526020600482015260176024820152764f6e6c79206272696467652063616e207570677261646560481b6044820152606490fd5b346106a45760203660031901126106a4576020613d8c600435614848565b613d9960405180926144fc565bf35b346106a4575f3660031901126106a457613db3614d00565b478015613dee575f51602061595d5f395f51905f52545f918291829182916001600160a01b031682f115613de357005b6040513d5f823e3d90fd5b60405162461bcd60e51b81526020600482015260166024820152754e6f2062616c616e636520746f20776974686472617760501b6044820152606490fd5b346106a4575f3660031901126106a457602065ffffffffffff5f5160206158fd5f395f51905f525416604051908152f35b346106a4575f3660031901126106a45760206040515f516020615b1d5f395f51905f528152f35b346106a45760203660031901126106a4576020610674600435614822565b613eb9613eae3661446b565b818385969395614c3b565b91602093613eca8560101785614d33565b505f8481525f51602061589d5f395f51905f52865260408120805460ff60f01b1916600160f01b1790555b8151811015613f4957600190613f425f806001600160a01b03613f1885886147fa565b5116613f24858a6147fa565b5190613f30868a6147fa565b51918c83519301915af1610c4d614bb4565b5001613ef5565b85857f712ae1383f79ac853f8d882153778e0260ef8f03b504e2866e0593e04d2b291f82604051838152a1604051908152f35b346106a457613f976010613f92610b833661446b565b614d33565b50634844252360e11b5f5260045ffd5b346106a45760803660031901126106a457613fc06141ff565b50613fc9614215565b506064356001600160401b0381116106a457613fe99036906004016142ed565b50604051630a85bd0160e11b8152602090f35b346106a45760203660031901126106a457602061401a6004356147d4565b6040516001600160a01b039091168152f35b346106a4575f3660031901126106a4576040515f5f516020615b5d5f395f51905f525461405881614646565b80845290600181169081156140d75750600114614080575b61051a8361364581850382614265565b5f516020615b5d5f395f51905f525f9081525f5160206158bd5f395f51905f52939250905b8082106140bd57509091508101602001613645614070565b9192600181602092548385880101520191019092916140a5565b60ff191660208086019190915291151560051b840190910191506136459050614070565b346106a45760203660031901126106a4576141146141ff565b61411c614d00565b5f80546001600160a01b039283166001600160a01b03198216811783559216907f9d4deb5ab4de88a4c0510604f0d3eb81d3d71a07a7f84ef56bad08c07083ca959080a3005b346106a4575f3660031901126106a457602063ffffffff5f5160206158fd5f395f51905f525460301c16604051908152f35b346106a45760203660031901126106a4576004359063ffffffff60e01b82168092036106a4576020916332a2ad4360e11b81149081156141ee575b81156141dd575b5015158152f35b6301ffc9a760e01b149050836141d6565b630271189760e51b811491506141cf565b600435906001600160a01b03821682036106a457565b602435906001600160a01b03821682036106a457565b604435906001600160a01b03821682036106a457565b805180835260209291819084018484015e5f828201840152601f01601f1916010190565b601f909101601f19168101906001600160401b0382119082101761428857604052565b634e487b7160e01b5f52604160045260245ffd5b6001600160401b03811161428857601f01601f191660200190565b9291926142c38261429c565b916142d16040519384614265565b8294818452818301116106a4578281602093845f960137010152565b9080601f830112156106a457816020614308933591016142b7565b90565b6001600160401b0381116142885760051b60200190565b9080601f830112156106a45781359061433a8261430b565b926143486040519485614265565b82845260208085019360051b8201019182116106a457602001915b8183106143705750505090565b82356001600160a01b03811681036106a457815260209283019201614363565b9080601f830112156106a45781356143a78161430b565b926143b56040519485614265565b81845260208085019260051b8201019283116106a457602001905b8282106143dd5750505090565b81358152602091820191016143d0565b9080601f830112156106a45781356144048161430b565b926144126040519485614265565b81845260208085019260051b820101918383116106a45760208201905b83821061443e57505050505090565b81356001600160401b0381116106a457602091614460878480948801016142ed565b81520191019061442f565b60806003198201126106a4576004356001600160401b0381116106a4578161449591600401614322565b916024356001600160401b0381116106a457826144b491600401614390565b91604435906001600160401b0382116106a4576144d3916004016143ed565b9060643590565b60088110156144e857602452565b634e487b7160e01b5f52602160045260245ffd5b9060088210156144e85752565b6024359060ff821682036106a457565b9181601f840112156106a4578235916001600160401b0383116106a457602083818601950101116106a457565b90602080835192838152019201905f5b8181106145635750505090565b82516001600160a01b0316845260209384019390920191600101614556565b90602080835192838152019201905f5b81811061459f5750505090565b8251845260209384019390920191600101614592565b906145c890604083526040830190614582565b906020818303910152602080835192838152019201905f5b8181106145ed5750505090565b9091926020808261460160019488516144fc565b0194019291016145e0565b9094939260609260808301968352602083015260408201520152565b604091949392606082019560018060a01b0316825260208201520152565b90600182811c92168015614674575b602083101461466057565b634e487b7160e01b5f52602260045260245ffd5b91607f1691614655565b604051905f825f51602061593d5f395f51905f52549161469d83614646565b808352926001811690811561471b57506001146146c3575b6146c192500383614265565b565b505f51602061593d5f395f51905f525f90815290915f516020615a1d5f395f51905f525b8183106146ff5750509060206146c1928201016146b5565b60209193508060019154838589010152019101909184926146e7565b602092506146c194915060ff191682840152151560051b8201016146b5565b604051905f825f5160206159bd5f395f51905f52549161475983614646565b808352926001811690811561471b575060011461477c576146c192500383614265565b505f5160206159bd5f395f51905f525f90815290915f516020615bbd5f395f51905f525b8183106147b85750509060206146c1928201016146b5565b60209193508060019154838589010152019101909184926147a0565b5f9081525f51602061589d5f395f51905f5260205260409020546001600160a01b031690565b805182101561480e5760209160051b010190565b634e487b7160e01b5f52603260045260245ffd5b5f525f51602061589d5f395f51905f5260205265ffffffffffff60405f205460a01c1690565b805f525f51602061589d5f395f51905f5260205260405f205460ff8160f01c166149565760f81c6149505761487c81614822565b801561493d5765ffffffffffff4216809110156149375761489c82614b55565b106148a75750600190565b805f525f516020615a7d5f395f51905f526020526148dc60405f206148cb83614822565b506002600182015491015490614b48565b6802b5e3af16b1880000118015614910575b156148f95750600390565b61490290614b22565b61490b57600490565b600590565b50805f525f516020615a7d5f395f51905f5260205260405f206001810154905410156148ee565b50505f90565b50636ad0607560e01b5f5260045260245ffd5b50600290565b5050600790565b6040519061496c604083614265565b60018252603160f81b6020830152565b51906001600160a01b03821682036106a457565b519081151582036106a457565b908160809103126106a45760405190608082016001600160401b03811183821017614288576149ea9160609160405280518452602081015160208501526040810151604085015201614990565b606082015290565b81810292918115918404141715614a0557565b634e487b7160e01b5f52601160045260245ffd5b6020818303126106a4578051906001600160401b0382116106a457019080601f830112156106a4578151614a4c8161430b565b92614a5a6040519485614265565b81845260208085019260051b8201019283116106a457602001905b828210614a825750505090565b8151815260209182019101614a75565b5f198114614a055760010190565b90614aaa8261430b565b614ab76040519182614265565b8281528092614ac8601f199161430b565b0190602036910137565b60088210156144e85752565b15614ae557565b60405162461bcd60e51b81526020600482015260156024820152741393d5d28818dbdb9d1c9858dd081b9bdd081cd95d605a1b6044820152606490fd5b5f525f51602061589d5f395f51905f5260205265ffffffffffff600160405f2001541690565b91908201809211614a0557565b805f525f51602061589d5f395f51905f5260205265ffffffffffff60405f205460a01c16905f525f51602061589d5f395f51905f5260205263ffffffff60405f205460d01c160165ffffffffffff8111614a055765ffffffffffff1690565b3d15614bde573d90614bc58261429c565b91614bd36040519384614265565b82523d5f602084013e565b606090565b9080602083519182815201916020808360051b8301019401925f915b838310614c0e57505050505090565b9091929394602080614c2c600193601f198682030187528951614241565b97019301930191939290614bff565b9290614c9c91614c88614c7694604051958694614c64602087019960808b5260a0880190614546565b868103601f1901604088015290614582565b848103601f1901606086015290614be3565b90608083015203601f198101835282614265565b51902090565b6001600160a01b03168015614ced575f51602061595d5f395f51905f5280546001600160a01b0319811683179091556001600160a01b03165f516020615a9d5f395f51905f525f80a3565b631e4fbdf760e01b5f525f60045260245ffd5b5f51602061595d5f395f51905f52546001600160a01b03163303614d2057565b63118cdaa760e01b5f523360045260245ffd5b90614d3d82614848565b9160088310156144e85781600160ff85161b1615614d5a57505090565b6331b75e4d60e01b5f52600452614d70826144da565b60445260645ffd5b6002546040516303d3b32360e51b81526001600160a01b0392831660048201819052939092909160809184916024918391165afa918215613de3575f92614e6c575b50606082015115159182614e60575b5050614e59575f546001600160a01b03169081614de8575b5050505f90565b602090602460405180948193635843905f60e01b835260048301525afa908115613de3575f91614e27575b501015614e22575f8080614de1565b600190565b90506020813d602011614e51575b81614e4260209383614265565b810103126106a457515f614e13565b3d9150614e35565b5050600190565b51101590505f80614dc9565b614e8691925060803d60801161077b5761076c8183614265565b905f614dba565b333003614e9657565b6347096e4760e01b5f523360045260245ffd5b6001600160a01b03165f9081525f516020615a5d5f395f51905f526020526040902080546001810190915590565b604290614ee2615813565b614eea61586a565b6040519060208201927f8b73c3c69bb8fe3d512ecc4cf759cc79239f7b179b0ffacaa9a75d522b39400f8452604083015260608201524660808201523060a082015260a08152614f3b60c082614265565b519020906040519161190160f01b8352600283015260228201522090565b90614f64838261559b565b5060048195929510156144e857159384615021575b508315614f87575b50505090565b5f935090614fbf614fcd8594936040519283916020830195630b135d3f60e11b87526024840152604060448401526064830190614241565b03601f198101835282614265565b51915afa614fd9614bb4565b81615013575b81614fee575b505f8080614f81565b80516020808301935090820191909103126106a45751630b135d3f60e11b145f614fe5565b905060208151101590614fdf565b6001600160a01b0384811691161493505f614f79565b93909291935f9160045494600654615050818884614d78565b15615548576002546040516303d3b32360e51b81526001600160a01b0393841660048201819052989390911692608082602481875afa918215613de3575f92615527575b5060608201511591821561551c575b505061545e575b50803b156106a4575f80916024604051809481936341b3d2a160e01b83528b60048401525af18015613de357615449575b5082546001600160a01b03166150f2811515614ade565b803b1561182657838091602460405180948193634cfa135f60e11b83528b60048401525af18015611c8457908491615434575b5050615132600283614d33565b5061513c82614822565b506002546040516303d3b32360e51b815260048101879052906001600160a01b0316608082602481845afa918215611c34578592615413575b5084916060810151151580615409575b6153ef575b5084548591906001600160a01b031680615384575b50602060249160405192838092631b68969560e21b82528c60048301525afa908115615379578691615345575b5061066f906151da93614b48565b958284525f516020615a7d5f395f51905f52602052604084209060038201875f528060205260ff60405f205416615331579060ff91885f5260205260405f2060018319825416179055169384155f146152ed5750615239878254614b48565b90555b8051615292575061528c7fb8e138887d0aa13bab447e82de9d5c1777041ecd21ca36ba824ff1e6c07ddda49360405193849384526020840152866040840152608060608401526080830190614241565b0390a290565b61528c906152df7fe2babfbac5889a709b63bb7f598b324e08bc5a4fb9ec647fb3cbc9ec07eb8712956040519586958652602086015288604086015260a0606086015260a0850190614241565b908382036080850152614241565b6001850361530b5750600101615304878254614b48565b905561523c565b600285036153225750600201615304878254614b48565b6303599be160e11b8152600490fd5b6371c6af4960e01b86526004889052602486fd5b90506020813d602011615371575b8161536060209383614265565b810103126106a457516151da6151cc565b3d9150615353565b6040513d88823e3d90fd5b602491925060209060405192838092635843905f60e01b82528c60048301525afa9081156153795786916153bc575b5090602061519f565b90506020813d6020116153e7575b816153d760209383614265565b810103126106a4575160206153b3565b3d91506153ca565b61540291925060408151910151906149f2565b905f61518a565b5080511515615185565b61542d91925060803d60801161077b5761076c8183614265565b905f615175565b8161543e91614265565b6108bf57825f615125565b6154569193505f90614265565b5f915f6150db565b5f546001600160a01b03169081615476575b506150aa565b602060249260405193848092635843905f60e01b82528c60048301525afa908115613de35788925f926154e5575b5081106154705760805f516020615afd5f395f51905f5291604051908152604060208201526004604082015263766f746560e01b6060820152a2855f615470565b925090506020823d602011615514575b8161550260209383614265565b810103126106a457879151905f6154a4565b3d91506154f5565b511090505f806150a3565b61554191925060803d60801161077b5761076c8183614265565b905f615094565b60405162461bcd60e51b815260206004820152602b60248201525f51602061591d5f395f51905f5260448201526a656e7320746f20766f746560a81b6064820152608490fd5b9091906146c157506156bb565b81519190604183036155cb576155c49250602082015190606060408401519301515f1a906156d9565b9192909190565b50505f9160029190565b8151603481106156885760131981840101516001600160a01b0319166b1b91f1b211f2119351b859f160a31b01615688575f926027198201828111614a055791905b818310615632575050506001600160a01b0391821691161490565b909193815185101561480e5781850160200151615658906001600160f81b031916615751565b91901561567d5760041b6010600160a01b031660ff9190911617936001019190615617565b505050505050600190565b505050600190565b60ff5f516020615b7d5f395f51905f525460401c16156156ac57565b631afcd79f60e31b5f5260045ffd5b8051156156ca57805190602001fd5b630a12f52160e11b5f5260045ffd5b91906fa2a8918ca85bafe22016d0b997e4df60600160ff1b038411615746579160209360809260ff5f9560405194855216868401526040830152606082015282805260015afa15613de3575f516001600160a01b0381161561573c57905f905f90565b505f906001905f90565b5050505f9160039190565b60f81c9081602f10806157c4575b1561577157600191602f190160ff1690565b81604010806157ba575b1561578d576001916036190160ff1690565b81606010806157b0575b156157a9576001916056190160ff1690565b5f91508190565b5060678210615797565b506047821061577b565b50603a821061575f565b906157d957506156bb565b8151158061580a575b6157ea575090565b639996b31560e01b5f9081526001600160a01b0391909116600452602490fd5b50803b156157e2565b61581b61467e565b805190811561582b576020012090565b50505f5160206159dd5f395f51905f525480156158455790565b507fc5d2460186f7233c927e7db2dcc703c0e500b653ca82273b7bfad8045d85a47090565b61587261473a565b8051908115615882576020012090565b50505f516020615b9d5f395f51905f52548015615845579056fe7c712897014dbe49c045ef1299aa2d5f9e67e48eea4403efa21f1e0f3ac0cb01da13dda7583a39a3cd73e8830529c760837228fa4683752c823b17e10548aad5ccb45da8d5717e6c4544694297c4ba5cf151d455c9bb0ed4fc7a38411bc0546100d7616c8fe29c6c2fbe1d0c5bc8f2faa4c35b43746e70b24b4d532752affd01496e73756666696369656e74207374616b65206f72206561726e656420746f6ba16a46d94261c7517cc8ff89f61c0ce93598e3c849801011dee649a6a557d1029016d09d72d40fdae2fd8ceac6b6234c7706214fd39c1cd1e609a0528c199300f2aad550cf55f045cb27e9c559f9889fdfb6e6cdaa032301d6ea397784ae51d7c565b045403dc03c2eea82b81a0465edad9e2e7fc4d97e11421c209da93d7a93a16a46d94261c7517cc8ff89f61c0ce93598e3c849801011dee649a6a557d103a16a46d94261c7517cc8ff89f61c0ce93598e3c849801011dee649a6a557d10000d7616c8fe29c6c2fbe1d0c5bc8f2faa4c35b43746e70b24b4d532752affd0042ad5d3e1f2e6e70edcf6d991b8a3023d3fca8047a131592f9edb9fd9b89d57d360894a13ba1a3210667c828492db98dca3e2076cc3735a920a3ca505d382bbc5ab42ced628888259c08ac98db1eb0cf702fc1501344311d8b100cd1bfe4bb00a1cefa0f43667ef127a258e673c94202a79b656e62899531c4376d87a7f398008be0079c531659141344cd1fd0a4f28419497f9722a3daafe3b4186f6b6457e0bc7cd75a20ee27fd9adebab32041f755214dbc6bffa90cc0225b39da2e5c2d3b7e3f7f0708a84de9203036abaa450dccc85ad5ff52f78c170f3edb55cf5e8828db09d34ff80e776623819ad84ef2a0956f2059b38279718cfe7b896124ec06983e83946653575f9a39005e1545185629e92736b7528ab20ca3816f315424a8110987164c44e4cc39e96cb653b3871b8034953a4ec5908bec869190a5cc897d027c712897014dbe49c045ef1299aa2d5f9e67e48eea4403efa21f1e0f3ac0cb00f0c57e16840df040f15088dc2f81fe391c3923bec73e23a9662efc9c229c6a00a16a46d94261c7517cc8ff89f61c0ce93598e3c849801011dee649a6a557d1015f9ce34815f8e11431c7bb75a8e6886a91478f7ffc1dbb0a98dc240fddd76b75a264697066735822122034cd451e874120a43d59bd39ad0810410587c89e8d1a51281d45dfea5cae7a4964736f6c63430008210033f0c57e16840df040f15088dc2f81fe391c3923bec73e23a9662efc9c229c6a00","linkReferences":{}},"methodIdentifiers":{"BALLOT_TYPEHASH()":"deaaa7cc","CLOCK_MODE()":"4bf5d7e9","COUNTING_MODE()":"dd4e2ba5","EXTENDED_BALLOT_TYPEHASH()":"2fe3e261","UPGRADE_INTERFACE_VERSION()":"ad3cb1cc","addOrUpdateEarner(address,uint256,uint256)":"ab65037d","bridge()":"e78cea92","canPropose(address)":"42b4632e","canVote(address)":"adfaa72e","cancel(address[],uint256[],bytes[],bytes32)":"452115d6","castVote(uint256,uint8)":"56781388","castVoteBySig(uint256,uint8,address,bytes)":"8ff262e3","castVoteWithReason(uint256,uint8,string)":"7b3c71d3","castVoteWithReasonAndParams(uint256,uint8,string,bytes)":"5f398a14","castVoteWithReasonAndParamsBySig(uint256,uint8,address,string,bytes,bytes)":"5b8d0e0d","clock()":"91ddadf4","delegate(address)":"5c19a95c","eip712Domain()":"84b0196e","execute(address[],uint256[],bytes[],bytes32)":"2656227d","genesis()":"a7f0b3de","getActiveProposalIds()":"71a1aea7","getAllProposalIds()":"efa90d36","getAllStakers()":"6e4f88c8","getComprehensiveGovernanceInfo(address)":"8f1bbf6e","getEarner(address)":"cdbdb293","getGovernanceEligibility(address)":"d052ca85","getGovernanceThresholds()":"9fb2f647","getProposalCount()":"c08cc02d","getStakerInfo(address)":"733bdef0","getUserGovernancePower(address)":"99cd2107","getVotes(address,uint256)":"eb9019d4","getVotesWithParams(address,uint256,bytes)":"9a802a6d","getVotingPower(address)":"bb4d4436","hasVoted(uint256,address)":"43859632","hashProposal(address[],uint256[],bytes[],bytes32)":"c59057e4","initialize(address,address,address)":"c0c53b8b","name()":"06fdde03","nonces(address)":"7ecebe00","nowjContract()":"787bb310","onERC1155BatchReceived(address,address,uint256[],uint256[],bytes)":"bc197c81","onERC1155Received(address,address,uint256,uint256,bytes)":"f23a6e61","onERC721Received(address,address,uint256,bytes)":"150b7a02","owner()":"8da5cb5b","proposalDeadline(uint256)":"c01f9e37","proposalEta(uint256)":"ab58fb8e","proposalNeedsQueuing(uint256)":"a9a95294","proposalProposer(uint256)":"143489d0","proposalRewardThreshold()":"dbe69e51","proposalSnapshot(uint256)":"2d63f693","proposalStakeThreshold()":"4804874c","proposalThreshold()":"b58131b0","proposalVotes(uint256)":"544ffc9c","propose(address[],uint256[],bytes[],string)":"7d5e81e2","proxiableUUID()":"52d1902d","queue(address[],uint256[],bytes[],bytes32)":"160cbed7","quorum(uint256)":"f8ce560a","relay(address,uint256,bytes)":"c28bc2fa","renounceOwnership()":"715018a6","setBridge(address)":"8dd14802","setGenesis(address)":"eb14b353","setNOWJContract(address)":"059c2080","setProposalThreshold(uint256)":"ece40cc1","setVotingDelay(uint48)":"79051887","setVotingPeriod(uint32)":"e540d01d","state(uint256)":"3e4f49e6","supportsInterface(bytes4)":"01ffc9a7","transferOwnership(address)":"f2fde38b","updateProposalRewardThreshold(uint256)":"c333d05f","updateProposalStakeThreshold(uint256)":"c0e393c4","updateStakeData(address,uint256,uint256,uint256,bool)":"b44d3d4a","updateVotingRewardThreshold(uint256)":"554232cb","updateVotingStakeThreshold(uint256)":"922d01e9","upgradeFromDAO(address)":"40634e3b","upgradeToAndCall(address,bytes)":"4f1ef286","version()":"54fd4d50","votingDelay()":"3932abb1","votingPeriod()":"02a251a3","votingRewardThreshold()":"9b6797fd","votingStakeThreshold()":"f1de9a77","withdraw()":"3ccfd60b"},"id":84}