{"abi":[{"type":"constructor","inputs":[],"stateMutability":"nonpayable"},{"type":"function","name":"UPGRADE_INTERFACE_VERSION","inputs":[],"outputs":[{"name":"","type":"string","internalType":"string"}],"stateMutability":"view"},{"type":"function","name":"addMembers","inputs":[{"name":"_members","type":"address[]","internalType":"address[]"},{"name":"_oracleName","type":"string","internalType":"string"}],"outputs":[],"stateMutability":"nonpayable"},{"type":"function","name":"addOrUpdateOracle","inputs":[{"name":"_names","type":"string[]","internalType":"string[]"},{"name":"_members","type":"address[][]","internalType":"address[][]"},{"name":"_shortDescriptions","type":"string[]","internalType":"string[]"},{"name":"_hashOfDetails","type":"string[]","internalType":"string[]"},{"name":"_skillVerifiedAddresses","type":"address[][]","internalType":"address[][]"}],"outputs":[],"stateMutability":"nonpayable"},{"type":"function","name":"addSingleOracle","inputs":[{"name":"_name","type":"string","internalType":"string"},{"name":"_members","type":"address[]","internalType":"address[]"},{"name":"_shortDescription","type":"string","internalType":"string"},{"name":"_hashOfDetails","type":"string","internalType":"string"},{"name":"_skillVerifiedAddresses","type":"address[]","internalType":"address[]"}],"outputs":[],"stateMutability":"nonpayable"},{"type":"function","name":"authorizedCallers","inputs":[{"name":"","type":"address","internalType":"address"}],"outputs":[{"name":"","type":"bool","internalType":"bool"}],"stateMutability":"view"},{"type":"function","name":"genesis","inputs":[],"outputs":[{"name":"","type":"address","internalType":"contract IOpenworkGenesis"}],"stateMutability":"view"},{"type":"function","name":"getOracle","inputs":[{"name":"_oracleName","type":"string","internalType":"string"}],"outputs":[{"name":"name","type":"string","internalType":"string"},{"name":"members","type":"address[]","internalType":"address[]"},{"name":"shortDescription","type":"string","internalType":"string"},{"name":"hashOfDetails","type":"string","internalType":"string"},{"name":"skillVerifiedAddresses","type":"address[]","internalType":"address[]"}],"stateMutability":"view"},{"type":"function","name":"initialize","inputs":[{"name":"_owner","type":"address","internalType":"address"},{"name":"_genesis","type":"address","internalType":"address"},{"name":"_nativeAthena","type":"address","internalType":"address"}],"outputs":[],"stateMutability":"nonpayable"},{"type":"function","name":"nativeAthena","inputs":[],"outputs":[{"name":"","type":"address","internalType":"contract INativeAthena"}],"stateMutability":"view"},{"type":"function","name":"owner","inputs":[],"outputs":[{"name":"","type":"address","internalType":"address"}],"stateMutability":"view"},{"type":"function","name":"proxiableUUID","inputs":[],"outputs":[{"name":"","type":"bytes32","internalType":"bytes32"}],"stateMutability":"view"},{"type":"function","name":"removeMemberFromOracle","inputs":[{"name":"_oracleName","type":"string","internalType":"string"},{"name":"_memberToRemove","type":"address","internalType":"address"}],"outputs":[],"stateMutability":"nonpayable"},{"type":"function","name":"removeOracle","inputs":[{"name":"_oracleNames","type":"string[]","internalType":"string[]"}],"outputs":[],"stateMutability":"nonpayable"},{"type":"function","name":"renounceOwnership","inputs":[],"outputs":[],"stateMutability":"nonpayable"},{"type":"function","name":"setAuthorizedCaller","inputs":[{"name":"_caller","type":"address","internalType":"address"},{"name":"_authorized","type":"bool","internalType":"bool"}],"outputs":[],"stateMutability":"nonpayable"},{"type":"function","name":"setGenesis","inputs":[{"name":"_genesis","type":"address","internalType":"address"}],"outputs":[],"stateMutability":"nonpayable"},{"type":"function","name":"setNativeAthena","inputs":[{"name":"_nativeAthena","type":"address","internalType":"address"}],"outputs":[],"stateMutability":"nonpayable"},{"type":"function","name":"transferOwnership","inputs":[{"name":"newOwner","type":"address","internalType":"address"}],"outputs":[],"stateMutability":"nonpayable"},{"type":"function","name":"upgradeToAndCall","inputs":[{"name":"newImplementation","type":"address","internalType":"address"},{"name":"data","type":"bytes","internalType":"bytes"}],"outputs":[],"stateMutability":"payable"},{"type":"event","name":"AuthorizedCallerUpdated","inputs":[{"name":"caller","type":"address","indexed":true,"internalType":"address"},{"name":"authorized","type":"bool","indexed":false,"internalType":"bool"}],"anonymous":false},{"type":"event","name":"GenesisUpdated","inputs":[{"name":"oldGenesis","type":"address","indexed":true,"internalType":"address"},{"name":"newGenesis","type":"address","indexed":true,"internalType":"address"}],"anonymous":false},{"type":"event","name":"Initialized","inputs":[{"name":"version","type":"uint64","indexed":false,"internalType":"uint64"}],"anonymous":false},{"type":"event","name":"NativeAthenaUpdated","inputs":[{"name":"oldAthena","type":"address","indexed":true,"internalType":"address"},{"name":"newAthena","type":"address","indexed":true,"internalType":"address"}],"anonymous":false},{"type":"event","name":"OracleCreated","inputs":[{"name":"oracleName","type":"string","indexed":true,"internalType":"string"},{"name":"memberCount","type":"uint256","indexed":false,"internalType":"uint256"}],"anonymous":false},{"type":"event","name":"OracleMemberAdded","inputs":[{"name":"oracleName","type":"string","indexed":true,"internalType":"string"},{"name":"member","type":"address","indexed":true,"internalType":"address"}],"anonymous":false},{"type":"event","name":"OracleMemberRemoved","inputs":[{"name":"oracleName","type":"string","indexed":true,"internalType":"string"},{"name":"member","type":"address","indexed":true,"internalType":"address"}],"anonymous":false},{"type":"event","name":"OracleRemoved","inputs":[{"name":"oracleName","type":"string","indexed":true,"internalType":"string"}],"anonymous":false},{"type":"event","name":"OwnershipTransferred","inputs":[{"name":"previousOwner","type":"address","indexed":true,"internalType":"address"},{"name":"newOwner","type":"address","indexed":true,"internalType":"address"}],"anonymous":false},{"type":"event","name":"Upgraded","inputs":[{"name":"implementation","type":"address","indexed":true,"internalType":"address"}],"anonymous":false},{"type":"error","name":"AddressEmptyCode","inputs":[{"name":"target","type":"address","internalType":"address"}]},{"type":"error","name":"ERC1967InvalidImplementation","inputs":[{"name":"implementation","type":"address","internalType":"address"}]},{"type":"error","name":"ERC1967NonPayable","inputs":[]},{"type":"error","name":"FailedInnerCall","inputs":[]},{"type":"error","name":"InvalidInitialization","inputs":[]},{"type":"error","name":"NotInitializing","inputs":[]},{"type":"error","name":"OwnableInvalidOwner","inputs":[{"name":"owner","type":"address","internalType":"address"}]},{"type":"error","name":"OwnableUnauthorizedAccount","inputs":[{"name":"account","type":"address","internalType":"address"}]},{"type":"error","name":"UUPSUnauthorizedCallContext","inputs":[]},{"type":"error","name":"UUPSUnsupportedProxiableUUID","inputs":[{"name":"slot","type":"bytes32","internalType":"bytes32"}]}],"bytecode":{"object":"0x60a080604052346100c257306080525f516020611cd15f395f51905f525460ff8160401c166100b3576002600160401b03196001600160401b03821601610060575b604051611c0a90816100c782396080518181816109700152610a120152f35b6001600160401b0319166001600160401b039081175f516020611cd15f395f51905f525581527fc7f505b2f371ae2175ee4913f4499e1f2633a7b5936321eed1cdaeb6115181d290602090a15f80610041565b63f92ee8a960e01b5f5260045ffd5b5f80fdfe60806040526004361015610011575f80fd5b5f3560e01c806323165bb2146111a757806340db1a791461100d578063454bbd2914610f905780634a9fe8f914610c845780634efac43f14610c1b5780634f1ef286146109c457806352d1902d1461095e578063536fff6c14610921578063715018a6146108cd5780638da5cb5b14610899578063a7f0b3de14610872578063a9daf6ad146107bc578063ad3cb1cc14610771578063add6beaf146105d1578063c0c53b8b14610447578063d3075f2a146101a8578063dc209f1314610180578063eb14b353146101195763f2fde38b146100ea575f80fd5b3461011557602036600319011261011557610113610106611530565b61010e611a78565b611a1a565b005b5f80fd5b3461011557602036600319011261011557610132611530565b61013a611a78565b5f80546001600160a01b039283166001600160a01b03198216811783559216907f5f1d51aab4bd6e41be6c7feda322db860d93d0058238bf871dfafd43ecc951f99080a3005b34610115575f366003190112610115576001546040516001600160a01b039091168152602090f35b34610115576040366003190112610115576004356001600160401b038111610115576101d890369060040161155c565b6024356001600160401b038111610115576101f7903690600401611494565b335f52600260205260ff60405f2054168015610427575b61021790611703565b5f805460405163a9daf6ad60e01b815260206004820152919082906001600160a01b0316818061024a6024820188611648565b03915afa801561037557610269915f91610405575b50515115156119b3565b5f5b82518110156103ae576001546001600160a01b03908116906020906102908487611740565b51166024604051809481936356fd539760e11b835260048301525afa8015610375576102c3915f91610380575b5061179c565b5f546001600160a01b0390811691906102dc8286611740565b511691803b156101155760405163c9d2829360e01b8152925f91849182908490829061030c908a600484016119f2565b03925af191821561037557600192610365575b50818060a01b036103308286611740565b511661033b84611768565b7f60431d12c983b064b20a850c4f171f331458920932ab08a6e15559e2613598715f80a30161026b565b5f61036f916113f5565b8461031f565b6040513d5f823e3d90fd5b6103a1915060203d81116103a7575b61039981836113f5565b810190611784565b856102bd565b503d61038f565b506001546001600160a01b0316803b1561011557604051631dc14b0b60e31b815260206004820152905f9082908183816103eb6024820189611648565b03925af18015610375576103fb57005b5f610113916113f5565b61042191503d805f833e61041981836113f5565b8101906118c1565b8461025f565b505f516020611b555f395f51905f52546001600160a01b0316331461020e565b3461011557606036600319011261011557610460611530565b610468611546565b6044356001600160a01b0381169190829003610115575f516020611bb55f395f51905f5254604081901c60ff1615936001600160401b038216801590816105c9575b60011490816105bf575b1590816105b6575b506105a7576001600160401b031982166001175f516020611bb55f395f51905f52556104f9918561057f575b506104f1611aab565b61010e611aab565b610501611aab565b60018060a01b031660018060a01b03195f5416175f5560018060a01b0319600154161760015561052d57005b60ff60401b195f516020611bb55f395f51905f5254165f516020611bb55f395f51905f52557fc7f505b2f371ae2175ee4913f4499e1f2633a7b5936321eed1cdaeb6115181d2602060405160018152a1005b6001600160481b0319166001600160401b01175f516020611bb55f395f51905f5255856104e8565b63f92ee8a960e01b5f5260045ffd5b905015866104bc565b303b1591506104b4565b8691506104aa565b34610115576040366003190112610115576004356001600160401b03811161011557610601903690600401611494565b610609611546565b90335f52600260205260ff60405f2054168015610751575b61062a90611703565b5f805460405163a9daf6ad60e01b8152602060048201526001600160a01b0390911691818061065c6024820187611648565b0381855afa80156103755761067b915f916107375750515115156119b3565b803b15610115575f604051809263466a928960e01b82528183816106a38989600484016119f2565b03925af1801561037557610727575b506106bc81611768565b604051926001600160a01b0316907f9a4b9d88e5ba90714d5c6496b92fe87d394a4d3a38a1621d00beea522834a4015f80a36001546001600160a01b031690813b15610115575f918383816103eb8195631dc14b0b60e31b8352602060048401526024830190611648565b5f610731916113f5565b826106b2565b61074b91503d805f833e61041981836113f5565b8561025f565b505f516020611b555f395f51905f52546001600160a01b03163314610621565b34610115575f366003190112610115576107b86040516107926040826113f5565b60058152640352e302e360dc1b6020820152604051918291602083526020830190611648565b0390f35b34610115576020366003190112610115576004356001600160401b038111610115575f6107f061081d923690600401611494565b60018060a01b03825416604051808095819463a9daf6ad60e01b8352602060048401526024830190611648565b03915afa908115610375575f91610858575b5080516107b86020830151926040810151906080606082015191015191604051958695866116a8565b61086c91503d805f833e61041981836113f5565b8161082f565b34610115575f366003190112610115575f546040516001600160a01b039091168152602090f35b34610115575f366003190112610115575f516020611b555f395f51905f52546040516001600160a01b039091168152602090f35b34610115575f366003190112610115576108e5611a78565b5f516020611b555f395f51905f5280546001600160a01b031981169091555f906001600160a01b03165f516020611b955f395f51905f528280a3005b34610115576020366003190112610115576001600160a01b03610942611530565b165f526002602052602060ff60405f2054166040519015158152f35b34610115575f366003190112610115577f00000000000000000000000000000000000000000000000000000000000000006001600160a01b031630036109b55760206040515f516020611b755f395f51905f528152f35b63703e46dd60e11b5f5260045ffd5b6040366003190112610115576109d8611530565b6024356001600160401b038111610115573660238201121561011557610a0890369060248160040135910161145e565b6001600160a01b037f000000000000000000000000000000000000000000000000000000000000000016308114908115610bf9575b506109b5575f516020611b555f395f51905f52546001600160a01b03163303610bbd576040516352d1902d60e01b81526001600160a01b0383169290602081600481875afa5f9181610b89575b50610aa25783634c9c8ce360e01b5f5260045260245ffd5b805f516020611b755f395f51905f52859203610b775750813b15610b65575f516020611b755f395f51905f5280546001600160a01b031916821790557fbc7cd75a20ee27fd9adebab32041f755214dbc6bffa90cc0225b39da2e5c2d3b5f80a2815115610b4d575f8083602061011395519101845af43d15610b45573d91610b2983611443565b92610b3760405194856113f5565b83523d5f602085013e611ad6565b606091611ad6565b505034610b5657005b63b398979f60e01b5f5260045ffd5b634c9c8ce360e01b5f5260045260245ffd5b632a87526960e21b5f5260045260245ffd5b9091506020813d602011610bb5575b81610ba5602093836113f5565b8101031261011557519085610a8a565b3d9150610b98565b60405162461bcd60e51b8152602060048201526014602482015273556e617574686f72697a6564207570677261646560601b6044820152606490fd5b5f516020611b755f395f51905f52546001600160a01b03161415905083610a3d565b3461011557602036600319011261011557610c34611530565b610c3c611a78565b600180546001600160a01b039283166001600160a01b0319821681179092559091167f07d9e59518f3d6cbceb6404066ae85fc348e3793c127eb912fb9d55f384233d95f80a3005b346101155760a0366003190112610115576004356001600160401b03811161011557610cb4903690600401611494565b6024356001600160401b03811161011557610cd390369060040161155c565b6044356001600160401b03811161011557610cf2903690600401611494565b906064356001600160401b03811161011557610d12903690600401611494565b926084356001600160401b03811161011557610d3290369060040161155c565b93335f52600260205260ff60405f2054168015610f70575b610d5390611703565b815115610f2d5782518015908115610ebb575b5015610e76576001546001600160a01b031694935f5b8451811015610df4576001600160a01b03610d978287611740565b516040516356fd539760e11b815291166004820152906020826024818b5afa91821561037557600192610dd0915f91610dd6575061179c565b01610d7c565b610dee915060203d81116103a75761039981836113f5565b8a6102bd565b5090919360018060a01b035f5416803b1561011557610e2f935f809460405196879586948593631dbe96eb60e11b85528b8d600487016116a8565b03925af18015610375575f516020611b355f395f51905f5292602092610e5c92610e66575b505193611768565b92604051908152a2005b5f610e70916113f5565b85610e54565b60405162461bcd60e51b815260206004820152601d60248201527f4e6f7420656e6f756768206d656d6265727320666f72206f7261636c650000006044820152606490fd5b6001546040516305cd5dfd60e11b81529250602090839060049082906001600160a01b03165afa918215610375575f92610ef9575b50101586610d66565b9091506020813d602011610f25575b81610f15602093836113f5565b8101031261011557519087610ef0565b3d9150610f08565b60405162461bcd60e51b815260206004820152601b60248201527a4f7261636c65206e616d652063616e6e6f7420626520656d70747960281b6044820152606490fd5b505f516020611b555f395f51905f52546001600160a01b03163314610d4a565b3461011557604036600319011261011557610fa9611530565b602435908115158092036101155760207fad857fa38c9319cb80848f1ef2f924383b90297eb5d71755738ff037d100faa191610fe3611a78565b60018060a01b031692835f526002825260405f2060ff1981541660ff8316179055604051908152a2005b34610115576020366003190112610115576004356001600160401b0381116101155761103d9036906004016114b2565b335f52600260205260ff60405f2054168015611187575b61105d90611703565b5f5b81518110156101135760405190602061107881846113f5565b5f83525f3681376040519261108d82856113f5565b5f84525f3681375f546001600160a01b03166110a98487611740565b5192813b15610115575f80946111266110fa9860406110e895603c82519c8d9a8b998a98631dbe96eb60e11b8a5260a060048b015260a48a0190611648565b8881036003190160248a01529061166c565b918787840391600319830160448a0152818552601c830160648a0152840152016084860152019061166c565b03925af191821561037557600192611177575b5061114d6111478285611740565b51611768565b7fa28dc34059cd4716d51da651406dc8ff96399e3cf46725143a7f2855c68cf3945f80a20161105f565b5f611181916113f5565b83611139565b505f516020611b555f395f51905f52546001600160a01b03163314611054565b346101155760a0366003190112610115576004356001600160401b038111610115576111d79036906004016114b2565b6024356001600160401b038111610115576111f69036906004016115ca565b906044356001600160401b038111610115576112169036906004016114b2565b916064356001600160401b038111610115576112369036906004016114b2565b916084356001600160401b038111610115576112569036906004016115ca565b93335f52600260205260ff60405f20541680156113d5575b61127790611703565b81518351811490816113ca575b816113bf575b816113b4575b5015611374575f5b8251811015610113575f546001600160a01b0316906112b78185611740565b516112c28287611740565b51926112ce8386611740565b51906112da848a611740565b51946112e6858c611740565b51823b15610115575f946113128692604051998a9788968795631dbe96eb60e11b8752600487016116a8565b03925af191821561037557600192611364575b506113308185611740565b515f516020611b355f395f51905f52602061135661134e858a611740565b515193611768565b92604051908152a201611298565b5f61136e916113f5565b87611325565b60405162461bcd60e51b8152602060048201526018602482015277082e4e4c2f240d8cadccee8d0e640daeae6e840dac2e8c6d60431b6044820152606490fd5b905085511486611290565b85518114915061128a565b825181149150611284565b505f516020611b555f395f51905f52546001600160a01b0316331461126e565b601f909101601f19168101906001600160401b0382119082101761141857604052565b634e487b7160e01b5f52604160045260245ffd5b6001600160401b0381116114185760051b60200190565b6001600160401b03811161141857601f01601f191660200190565b92919261146a82611443565b9161147860405193846113f5565b829481845281830111610115578281602093845f960137010152565b9080601f83011215610115578160206114af9335910161145e565b90565b9080601f830112156101155781356114c98161142c565b926114d760405194856113f5565b81845260208085019260051b820101918383116101155760208201905b83821061150357505050505090565b81356001600160401b0381116101155760209161152587848094880101611494565b8152019101906114f4565b600435906001600160a01b038216820361011557565b602435906001600160a01b038216820361011557565b9080601f83011215610115578135906115748261142c565b9261158260405194856113f5565b82845260208085019360051b82010191821161011557602001915b8183106115aa5750505090565b82356001600160a01b03811681036101155781526020928301920161159d565b9080601f830112156101155781356115e18161142c565b926115ef60405194856113f5565b81845260208085019260051b820101918383116101155760208201905b83821061161b57505050505090565b81356001600160401b0381116101155760209161163d8784809488010161155c565b81520191019061160c565b805180835260209291819084018484015e5f828201840152601f01601f1916010190565b90602080835192838152019201905f5b8181106116895750505090565b82516001600160a01b031684526020938401939092019160010161167c565b93906114af95936116d96116f5946116cb6116e79460a08a5260a08a0190611648565b9088820360208a015261166c565b908682036040880152611648565b908482036060860152611648565b91608081840391015261166c565b1561170a57565b60405162461bcd60e51b815260206004820152600e60248201526d139bdd08185d5d1a1bdc9a5e995960921b6044820152606490fd5b80518210156117545760209160051b010190565b634e487b7160e01b5f52603260045260245ffd5b602090604051918183925191829101835e81015f815203902090565b90816020910312610115575180151581036101155790565b156117a357565b60405162461bcd60e51b815260206004820152603c60248201527f4d656d62657220646f6573206e6f74206d656574206d696e696d756d2073746160448201527b1ad94bd9585c9b9959081d1bdad95b9cc81c995c5d5a5c995b595b9d60221b6064820152608490fd5b81601f820112156101155780519061182482611443565b9261183260405194856113f5565b8284526020838301011161011557815f9260208093018386015e8301015290565b9080601f830112156101155781519061186b8261142c565b9261187960405194856113f5565b82845260208085019360051b82010191821161011557602001915b8183106118a15750505090565b82516001600160a01b038116810361011557815260209283019201611894565b602081830312610115578051906001600160401b038211610115570160a081830312610115576040519160a083016001600160401b038111848210176114185760405281516001600160401b038111610115578161192091840161180d565b835260208201516001600160401b0381116101155781611941918401611853565b602084015260408201516001600160401b038111610115578161196591840161180d565b604084015260608201516001600160401b038111610115578161198991840161180d565b606084015260808201516001600160401b038111610115576119ab9201611853565b608082015290565b156119ba57565b60405162461bcd60e51b815260206004820152601060248201526f13dc9858db19481b9bdd08199bdd5b9960821b6044820152606490fd5b90611a0a602091949394604084526040840190611648565b6001600160a01b03909416910152565b6001600160a01b03168015611a65575f516020611b555f395f51905f5280546001600160a01b0319811683179091556001600160a01b03165f516020611b955f395f51905f525f80a3565b631e4fbdf760e01b5f525f60045260245ffd5b5f516020611b555f395f51905f52546001600160a01b03163303611a9857565b63118cdaa760e01b5f523360045260245ffd5b60ff5f516020611bb55f395f51905f525460401c1615611ac757565b631afcd79f60e31b5f5260045ffd5b90611afa5750805115611aeb57805190602001fd5b630a12f52160e11b5f5260045ffd5b81511580611b2b575b611b0b575090565b639996b31560e01b5f9081526001600160a01b0391909116600452602490fd5b50803b15611b0356fed073d78381bb999430c048dd802e84bec6c0e2158e283bbda50528b1f75cc23b9016d09d72d40fdae2fd8ceac6b6234c7706214fd39c1cd1e609a0528c199300360894a13ba1a3210667c828492db98dca3e2076cc3735a920a3ca505d382bbc8be0079c531659141344cd1fd0a4f28419497f9722a3daafe3b4186f6b6457e0f0c57e16840df040f15088dc2f81fe391c3923bec73e23a9662efc9c229c6a00a26469706673582212203be5586929e86b0107a2f65722e1eee642e92c811eba887c80f44cadc969f61c64736f6c63430008210033f0c57e16840df040f15088dc2f81fe391c3923bec73e23a9662efc9c229c6a00","linkReferences":{}},"methodIdentifiers":{"UPGRADE_INTERFACE_VERSION()":"ad3cb1cc","addMembers(address[],string)":"d3075f2a","addOrUpdateOracle(string[],address[][],string[],string[],address[][])":"23165bb2","addSingleOracle(string,address[],string,string,address[])":"4a9fe8f9","authorizedCallers(address)":"536fff6c","genesis()":"a7f0b3de","getOracle(string)":"a9daf6ad","initialize(address,address,address)":"c0c53b8b","nativeAthena()":"dc209f13","owner()":"8da5cb5b","proxiableUUID()":"52d1902d","removeMemberFromOracle(string,address)":"add6beaf","removeOracle(string[])":"40db1a79","renounceOwnership()":"715018a6","setAuthorizedCaller(address,bool)":"454bbd29","setGenesis(address)":"eb14b353","setNativeAthena(address)":"4efac43f","transferOwnership(address)":"f2fde38b","upgradeToAndCall(address,bytes)":"4f1ef286"},"id":89}