{"abi":[{"type":"constructor","inputs":[],"stateMutability":"nonpayable"},{"type":"function","name":"UPGRADE_INTERFACE_VERSION","inputs":[],"outputs":[{"name":"","type":"string","internalType":"string"}],"stateMutability":"view"},{"type":"function","name":"addAskAthenaVoter","inputs":[{"name":"athenaId","type":"uint256","internalType":"uint256"},{"name":"voter","type":"address","internalType":"address"},{"name":"claimAddress","type":"address","internalType":"address"},{"name":"votingPower","type":"uint256","internalType":"uint256"},{"name":"voteFor","type":"bool","internalType":"bool"}],"outputs":[],"stateMutability":"nonpayable"},{"type":"function","name":"addDisputeVoter","inputs":[{"name":"disputeId","type":"string","internalType":"string"},{"name":"voter","type":"address","internalType":"address"},{"name":"claimAddress","type":"address","internalType":"address"},{"name":"votingPower","type":"uint256","internalType":"uint256"},{"name":"voteFor","type":"bool","internalType":"bool"}],"outputs":[],"stateMutability":"nonpayable"},{"type":"function","name":"addJobApplicant","inputs":[{"name":"jobId","type":"string","internalType":"string"},{"name":"applicant","type":"address","internalType":"address"}],"outputs":[],"stateMutability":"nonpayable"},{"type":"function","name":"addJobFinalMilestone","inputs":[{"name":"jobId","type":"string","internalType":"string"},{"name":"description","type":"string","internalType":"string"},{"name":"amount","type":"uint256","internalType":"uint256"}],"outputs":[],"stateMutability":"nonpayable"},{"type":"function","name":"addOracleMember","inputs":[{"name":"oracleName","type":"string","internalType":"string"},{"name":"member","type":"address","internalType":"address"}],"outputs":[],"stateMutability":"nonpayable"},{"type":"function","name":"addProposalId","inputs":[{"name":"proposalId","type":"uint256","internalType":"uint256"}],"outputs":[],"stateMutability":"nonpayable"},{"type":"function","name":"addSkillVerificationVoter","inputs":[{"name":"applicationId","type":"uint256","internalType":"uint256"},{"name":"voter","type":"address","internalType":"address"},{"name":"claimAddress","type":"address","internalType":"address"},{"name":"votingPower","type":"uint256","internalType":"uint256"},{"name":"voteFor","type":"bool","internalType":"bool"}],"outputs":[],"stateMutability":"nonpayable"},{"type":"function","name":"addSkillVerifiedAddress","inputs":[{"name":"oracleName","type":"string","internalType":"string"},{"name":"user","type":"address","internalType":"address"}],"outputs":[],"stateMutability":"nonpayable"},{"type":"function","name":"addWorkSubmission","inputs":[{"name":"jobId","type":"string","internalType":"string"},{"name":"submissionHash","type":"string","internalType":"string"}],"outputs":[],"stateMutability":"nonpayable"},{"type":"function","name":"admins","inputs":[{"name":"","type":"address","internalType":"address"}],"outputs":[{"name":"","type":"bool","internalType":"bool"}],"stateMutability":"view"},{"type":"function","name":"allJobIds","inputs":[{"name":"","type":"uint256","internalType":"uint256"}],"outputs":[{"name":"","type":"string","internalType":"string"}],"stateMutability":"view"},{"type":"function","name":"allStakers","inputs":[{"name":"","type":"uint256","internalType":"uint256"}],"outputs":[{"name":"","type":"address","internalType":"address"}],"stateMutability":"view"},{"type":"function","name":"applicationCounter","inputs":[],"outputs":[{"name":"","type":"uint256","internalType":"uint256"}],"stateMutability":"view"},{"type":"function","name":"askAthenaApplications","inputs":[{"name":"","type":"uint256","internalType":"uint256"}],"outputs":[{"name":"id","type":"uint256","internalType":"uint256"},{"name":"applicant","type":"address","internalType":"address"},{"name":"description","type":"string","internalType":"string"},{"name":"hash","type":"string","internalType":"string"},{"name":"targetOracle","type":"string","internalType":"string"},{"name":"fees","type":"string","internalType":"string"},{"name":"votesFor","type":"uint256","internalType":"uint256"},{"name":"votesAgainst","type":"uint256","internalType":"uint256"},{"name":"isVotingActive","type":"bool","internalType":"bool"},{"name":"timeStamp","type":"uint256","internalType":"uint256"},{"name":"result","type":"bool","internalType":"bool"},{"name":"isFinalized","type":"bool","internalType":"bool"}],"stateMutability":"view"},{"type":"function","name":"askAthenaCounter","inputs":[],"outputs":[{"name":"","type":"uint256","internalType":"uint256"}],"stateMutability":"view"},{"type":"function","name":"askAthenaVoters","inputs":[{"name":"","type":"uint256","internalType":"uint256"},{"name":"","type":"uint256","internalType":"uint256"}],"outputs":[{"name":"voter","type":"address","internalType":"address"},{"name":"claimAddress","type":"address","internalType":"address"},{"name":"votingPower","type":"uint256","internalType":"uint256"},{"name":"voteFor","type":"bool","internalType":"bool"}],"stateMutability":"view"},{"type":"function","name":"authorizeContract","inputs":[{"name":"_contract","type":"address","internalType":"address"},{"name":"_authorized","type":"bool","internalType":"bool"}],"outputs":[],"stateMutability":"nonpayable"},{"type":"function","name":"authorizedContracts","inputs":[{"name":"","type":"address","internalType":"address"}],"outputs":[{"name":"","type":"bool","internalType":"bool"}],"stateMutability":"view"},{"type":"function","name":"delegatedVotingPower","inputs":[{"name":"","type":"address","internalType":"address"}],"outputs":[{"name":"","type":"uint256","internalType":"uint256"}],"stateMutability":"view"},{"type":"function","name":"delegates","inputs":[{"name":"","type":"address","internalType":"address"}],"outputs":[{"name":"","type":"address","internalType":"address"}],"stateMutability":"view"},{"type":"function","name":"disputeVoterClaimAddresses","inputs":[{"name":"","type":"string","internalType":"string"},{"name":"","type":"address","internalType":"address"}],"outputs":[{"name":"","type":"address","internalType":"address"}],"stateMutability":"view"},{"type":"function","name":"disputeVoters","inputs":[{"name":"","type":"string","internalType":"string"},{"name":"","type":"uint256","internalType":"uint256"}],"outputs":[{"name":"voter","type":"address","internalType":"address"},{"name":"claimAddress","type":"address","internalType":"address"},{"name":"votingPower","type":"uint256","internalType":"uint256"},{"name":"voteFor","type":"bool","internalType":"bool"}],"stateMutability":"view"},{"type":"function","name":"disputes","inputs":[{"name":"","type":"string","internalType":"string"}],"outputs":[{"name":"jobId","type":"string","internalType":"string"},{"name":"disputedAmount","type":"uint256","internalType":"uint256"},{"name":"hash","type":"string","internalType":"string"},{"name":"disputeRaiserAddress","type":"address","internalType":"address"},{"name":"votesFor","type":"uint256","internalType":"uint256"},{"name":"votesAgainst","type":"uint256","internalType":"uint256"},{"name":"result","type":"bool","internalType":"bool"},{"name":"isVotingActive","type":"bool","internalType":"bool"},{"name":"isFinalized","type":"bool","internalType":"bool"},{"name":"timeStamp","type":"uint256","internalType":"uint256"},{"name":"fees","type":"uint256","internalType":"uint256"}],"stateMutability":"view"},{"type":"function","name":"earners","inputs":[{"name":"","type":"address","internalType":"address"}],"outputs":[{"name":"earnerAddress","type":"address","internalType":"address"},{"name":"balance","type":"uint256","internalType":"uint256"},{"name":"total_governance_actions","type":"uint256","internalType":"uint256"}],"stateMutability":"view"},{"type":"function","name":"finalizeAskAthena","inputs":[{"name":"athenaId","type":"uint256","internalType":"uint256"},{"name":"result","type":"bool","internalType":"bool"}],"outputs":[],"stateMutability":"nonpayable"},{"type":"function","name":"finalizeDispute","inputs":[{"name":"disputeId","type":"string","internalType":"string"},{"name":"result","type":"bool","internalType":"bool"}],"outputs":[],"stateMutability":"nonpayable"},{"type":"function","name":"finalizeSkillVerification","inputs":[{"name":"applicationId","type":"uint256","internalType":"uint256"},{"name":"result","type":"bool","internalType":"bool"}],"outputs":[],"stateMutability":"nonpayable"},{"type":"function","name":"getActiveStakersCount","inputs":[],"outputs":[{"name":"","type":"uint256","internalType":"uint256"}],"stateMutability":"view"},{"type":"function","name":"getAllJobIds","inputs":[],"outputs":[{"name":"","type":"string[]","internalType":"string[]"}],"stateMutability":"view"},{"type":"function","name":"getAllOracleNames","inputs":[],"outputs":[{"name":"","type":"string[]","internalType":"string[]"}],"stateMutability":"view"},{"type":"function","name":"getAllProposalIds","inputs":[],"outputs":[{"name":"","type":"uint256[]","internalType":"uint256[]"}],"stateMutability":"view"},{"type":"function","name":"getAllStakers","inputs":[],"outputs":[{"name":"","type":"address[]","internalType":"address[]"}],"stateMutability":"view"},{"type":"function","name":"getAskAthenaApplication","inputs":[{"name":"athenaId","type":"uint256","internalType":"uint256"}],"outputs":[{"name":"","type":"tuple","internalType":"struct NativeOpenworkGenesis.AskAthenaApplication","components":[{"name":"id","type":"uint256","internalType":"uint256"},{"name":"applicant","type":"address","internalType":"address"},{"name":"description","type":"string","internalType":"string"},{"name":"hash","type":"string","internalType":"string"},{"name":"targetOracle","type":"string","internalType":"string"},{"name":"fees","type":"string","internalType":"string"},{"name":"votesFor","type":"uint256","internalType":"uint256"},{"name":"votesAgainst","type":"uint256","internalType":"uint256"},{"name":"isVotingActive","type":"bool","internalType":"bool"},{"name":"timeStamp","type":"uint256","internalType":"uint256"},{"name":"result","type":"bool","internalType":"bool"},{"name":"isFinalized","type":"bool","internalType":"bool"}]}],"stateMutability":"view"},{"type":"function","name":"getAskAthenaVoterCount","inputs":[{"name":"athenaId","type":"uint256","internalType":"uint256"}],"outputs":[{"name":"","type":"uint256","internalType":"uint256"}],"stateMutability":"view"},{"type":"function","name":"getAskAthenaVoters","inputs":[{"name":"athenaId","type":"uint256","internalType":"uint256"}],"outputs":[{"name":"","type":"tuple[]","internalType":"struct NativeOpenworkGenesis.VoterData[]","components":[{"name":"voter","type":"address","internalType":"address"},{"name":"claimAddress","type":"address","internalType":"address"},{"name":"votingPower","type":"uint256","internalType":"uint256"},{"name":"voteFor","type":"bool","internalType":"bool"}]}],"stateMutability":"view"},{"type":"function","name":"getDelegate","inputs":[{"name":"delegator","type":"address","internalType":"address"}],"outputs":[{"name":"","type":"address","internalType":"address"}],"stateMutability":"view"},{"type":"function","name":"getDelegatedVotingPower","inputs":[{"name":"delegatee","type":"address","internalType":"address"}],"outputs":[{"name":"","type":"uint256","internalType":"uint256"}],"stateMutability":"view"},{"type":"function","name":"getDispute","inputs":[{"name":"disputeId","type":"string","internalType":"string"}],"outputs":[{"name":"","type":"tuple","internalType":"struct NativeOpenworkGenesis.Dispute","components":[{"name":"jobId","type":"string","internalType":"string"},{"name":"disputedAmount","type":"uint256","internalType":"uint256"},{"name":"hash","type":"string","internalType":"string"},{"name":"disputeRaiserAddress","type":"address","internalType":"address"},{"name":"votesFor","type":"uint256","internalType":"uint256"},{"name":"votesAgainst","type":"uint256","internalType":"uint256"},{"name":"result","type":"bool","internalType":"bool"},{"name":"isVotingActive","type":"bool","internalType":"bool"},{"name":"isFinalized","type":"bool","internalType":"bool"},{"name":"timeStamp","type":"uint256","internalType":"uint256"},{"name":"fees","type":"uint256","internalType":"uint256"}]}],"stateMutability":"view"},{"type":"function","name":"getDisputeVoterClaimAddress","inputs":[{"name":"disputeId","type":"string","internalType":"string"},{"name":"voter","type":"address","internalType":"address"}],"outputs":[{"name":"","type":"address","internalType":"address"}],"stateMutability":"view"},{"type":"function","name":"getDisputeVoterCount","inputs":[{"name":"disputeId","type":"string","internalType":"string"}],"outputs":[{"name":"","type":"uint256","internalType":"uint256"}],"stateMutability":"view"},{"type":"function","name":"getDisputeVoters","inputs":[{"name":"disputeId","type":"string","internalType":"string"}],"outputs":[{"name":"","type":"tuple[]","internalType":"struct NativeOpenworkGenesis.VoterData[]","components":[{"name":"voter","type":"address","internalType":"address"},{"name":"claimAddress","type":"address","internalType":"address"},{"name":"votingPower","type":"uint256","internalType":"uint256"},{"name":"voteFor","type":"bool","internalType":"bool"}]}],"stateMutability":"view"},{"type":"function","name":"getEarner","inputs":[{"name":"earnerAddress","type":"address","internalType":"address"}],"outputs":[{"name":"","type":"tuple","internalType":"struct NativeOpenworkGenesis.Earner","components":[{"name":"earnerAddress","type":"address","internalType":"address"},{"name":"balance","type":"uint256","internalType":"uint256"},{"name":"total_governance_actions","type":"uint256","internalType":"uint256"}]}],"stateMutability":"view"},{"type":"function","name":"getEarnerInfo","inputs":[{"name":"earnerAddress","type":"address","internalType":"address"}],"outputs":[{"name":"earner","type":"address","internalType":"address"},{"name":"balance","type":"uint256","internalType":"uint256"},{"name":"governanceActions","type":"uint256","internalType":"uint256"}],"stateMutability":"view"},{"type":"function","name":"getIsStaker","inputs":[{"name":"staker","type":"address","internalType":"address"}],"outputs":[{"name":"","type":"bool","internalType":"bool"}],"stateMutability":"view"},{"type":"function","name":"getJob","inputs":[{"name":"jobId","type":"string","internalType":"string"}],"outputs":[{"name":"","type":"tuple","internalType":"struct NativeOpenworkGenesis.Job","components":[{"name":"id","type":"string","internalType":"string"},{"name":"jobGiver","type":"address","internalType":"address"},{"name":"applicants","type":"address[]","internalType":"address[]"},{"name":"jobDetailHash","type":"string","internalType":"string"},{"name":"status","type":"uint8","internalType":"enum NativeOpenworkGenesis.JobStatus"},{"name":"workSubmissions","type":"string[]","internalType":"string[]"},{"name":"milestonePayments","type":"tuple[]","internalType":"struct NativeOpenworkGenesis.MilestonePayment[]","components":[{"name":"descriptionHash","type":"string","internalType":"string"},{"name":"amount","type":"uint256","internalType":"uint256"}]},{"name":"finalMilestones","type":"tuple[]","internalType":"struct NativeOpenworkGenesis.MilestonePayment[]","components":[{"name":"descriptionHash","type":"string","internalType":"string"},{"name":"amount","type":"uint256","internalType":"uint256"}]},{"name":"totalPaid","type":"uint256","internalType":"uint256"},{"name":"currentMilestone","type":"uint256","internalType":"uint256"},{"name":"selectedApplicant","type":"address","internalType":"address"},{"name":"selectedApplicationId","type":"uint256","internalType":"uint256"},{"name":"paymentTargetChainDomain","type":"uint32","internalType":"uint32"},{"name":"paymentTargetAddress","type":"address","internalType":"address"},{"name":"applierOriginChainDomain","type":"uint32","internalType":"uint32"}]}],"stateMutability":"view"},{"type":"function","name":"getJobApplication","inputs":[{"name":"jobId","type":"string","internalType":"string"},{"name":"applicationId","type":"uint256","internalType":"uint256"}],"outputs":[{"name":"","type":"tuple","internalType":"struct NativeOpenworkGenesis.Application","components":[{"name":"id","type":"uint256","internalType":"uint256"},{"name":"jobId","type":"string","internalType":"string"},{"name":"applicant","type":"address","internalType":"address"},{"name":"applicationHash","type":"string","internalType":"string"},{"name":"proposedMilestones","type":"tuple[]","internalType":"struct NativeOpenworkGenesis.MilestonePayment[]","components":[{"name":"descriptionHash","type":"string","internalType":"string"},{"name":"amount","type":"uint256","internalType":"uint256"}]},{"name":"preferredPaymentChainDomain","type":"uint32","internalType":"uint32"},{"name":"preferredPaymentAddress","type":"address","internalType":"address"}]}],"stateMutability":"view"},{"type":"function","name":"getJobApplicationCount","inputs":[{"name":"jobId","type":"string","internalType":"string"}],"outputs":[{"name":"","type":"uint256","internalType":"uint256"}],"stateMutability":"view"},{"type":"function","name":"getJobCount","inputs":[],"outputs":[{"name":"","type":"uint256","internalType":"uint256"}],"stateMutability":"view"},{"type":"function","name":"getJobsByPoster","inputs":[{"name":"poster","type":"address","internalType":"address"}],"outputs":[{"name":"","type":"string[]","internalType":"string[]"}],"stateMutability":"view"},{"type":"function","name":"getOracle","inputs":[{"name":"oracleName","type":"string","internalType":"string"}],"outputs":[{"name":"","type":"tuple","internalType":"struct NativeOpenworkGenesis.Oracle","components":[{"name":"name","type":"string","internalType":"string"},{"name":"members","type":"address[]","internalType":"address[]"},{"name":"shortDescription","type":"string","internalType":"string"},{"name":"hashOfDetails","type":"string","internalType":"string"},{"name":"skillVerifiedAddresses","type":"address[]","internalType":"address[]"}]}],"stateMutability":"view"},{"type":"function","name":"getOracleCount","inputs":[],"outputs":[{"name":"","type":"uint256","internalType":"uint256"}],"stateMutability":"view"},{"type":"function","name":"getOracleMembers","inputs":[{"name":"oracleName","type":"string","internalType":"string"}],"outputs":[{"name":"","type":"address[]","internalType":"address[]"}],"stateMutability":"view"},{"type":"function","name":"getOracleNamesBatch","inputs":[{"name":"startIndex","type":"uint256","internalType":"uint256"},{"name":"count","type":"uint256","internalType":"uint256"}],"outputs":[{"name":"names","type":"string[]","internalType":"string[]"}],"stateMutability":"view"},{"type":"function","name":"getProposalCount","inputs":[],"outputs":[{"name":"","type":"uint256","internalType":"uint256"}],"stateMutability":"view"},{"type":"function","name":"getSkillApplication","inputs":[{"name":"applicationId","type":"uint256","internalType":"uint256"}],"outputs":[{"name":"","type":"tuple","internalType":"struct NativeOpenworkGenesis.SkillVerificationApplication","components":[{"name":"id","type":"uint256","internalType":"uint256"},{"name":"applicant","type":"address","internalType":"address"},{"name":"applicationHash","type":"string","internalType":"string"},{"name":"feeAmount","type":"uint256","internalType":"uint256"},{"name":"targetOracleName","type":"string","internalType":"string"},{"name":"votesFor","type":"uint256","internalType":"uint256"},{"name":"votesAgainst","type":"uint256","internalType":"uint256"},{"name":"isVotingActive","type":"bool","internalType":"bool"},{"name":"timeStamp","type":"uint256","internalType":"uint256"},{"name":"result","type":"bool","internalType":"bool"},{"name":"isFinalized","type":"bool","internalType":"bool"}]}],"stateMutability":"view"},{"type":"function","name":"getSkillVerificationDate","inputs":[{"name":"oracleName","type":"string","internalType":"string"},{"name":"user","type":"address","internalType":"address"}],"outputs":[{"name":"","type":"uint256","internalType":"uint256"}],"stateMutability":"view"},{"type":"function","name":"getSkillVerificationVoterCount","inputs":[{"name":"applicationId","type":"uint256","internalType":"uint256"}],"outputs":[{"name":"","type":"uint256","internalType":"uint256"}],"stateMutability":"view"},{"type":"function","name":"getSkillVerificationVoters","inputs":[{"name":"applicationId","type":"uint256","internalType":"uint256"}],"outputs":[{"name":"","type":"tuple[]","internalType":"struct NativeOpenworkGenesis.VoterData[]","components":[{"name":"voter","type":"address","internalType":"address"},{"name":"claimAddress","type":"address","internalType":"address"},{"name":"votingPower","type":"uint256","internalType":"uint256"},{"name":"voteFor","type":"bool","internalType":"bool"}]}],"stateMutability":"view"},{"type":"function","name":"getStake","inputs":[{"name":"staker","type":"address","internalType":"address"}],"outputs":[{"name":"","type":"tuple","internalType":"struct NativeOpenworkGenesis.Stake","components":[{"name":"amount","type":"uint256","internalType":"uint256"},{"name":"unlockTime","type":"uint256","internalType":"uint256"},{"name":"durationMinutes","type":"uint256","internalType":"uint256"},{"name":"isActive","type":"bool","internalType":"bool"}]}],"stateMutability":"view"},{"type":"function","name":"getStakerInfo","inputs":[{"name":"staker","type":"address","internalType":"address"}],"outputs":[{"name":"amount","type":"uint256","internalType":"uint256"},{"name":"unlockTime","type":"uint256","internalType":"uint256"},{"name":"durationMinutes","type":"uint256","internalType":"uint256"},{"name":"isActive","type":"bool","internalType":"bool"}],"stateMutability":"view"},{"type":"function","name":"getUserEarnedTokens","inputs":[{"name":"user","type":"address","internalType":"address"}],"outputs":[{"name":"","type":"uint256","internalType":"uint256"}],"stateMutability":"view"},{"type":"function","name":"getUserGovernanceActions","inputs":[{"name":"user","type":"address","internalType":"address"}],"outputs":[{"name":"","type":"uint256","internalType":"uint256"}],"stateMutability":"view"},{"type":"function","name":"getUserRewardInfo","inputs":[{"name":"user","type":"address","internalType":"address"}],"outputs":[{"name":"totalTokens","type":"uint256","internalType":"uint256"},{"name":"governanceActions","type":"uint256","internalType":"uint256"}],"stateMutability":"view"},{"type":"function","name":"getUserTotalClaimedTokens","inputs":[{"name":"user","type":"address","internalType":"address"}],"outputs":[{"name":"","type":"uint256","internalType":"uint256"}],"stateMutability":"view"},{"type":"function","name":"hasUserVotedOnAskAthena","inputs":[{"name":"athenaId","type":"uint256","internalType":"uint256"},{"name":"user","type":"address","internalType":"address"}],"outputs":[{"name":"","type":"bool","internalType":"bool"}],"stateMutability":"view"},{"type":"function","name":"hasUserVotedOnDispute","inputs":[{"name":"disputeId","type":"string","internalType":"string"},{"name":"user","type":"address","internalType":"address"}],"outputs":[{"name":"","type":"bool","internalType":"bool"}],"stateMutability":"view"},{"type":"function","name":"hasUserVotedOnSkillApplication","inputs":[{"name":"applicationId","type":"uint256","internalType":"uint256"},{"name":"user","type":"address","internalType":"address"}],"outputs":[{"name":"","type":"bool","internalType":"bool"}],"stateMutability":"view"},{"type":"function","name":"hasVotedOnAskAthena","inputs":[{"name":"","type":"uint256","internalType":"uint256"},{"name":"","type":"address","internalType":"address"}],"outputs":[{"name":"","type":"bool","internalType":"bool"}],"stateMutability":"view"},{"type":"function","name":"hasVotedOnDispute","inputs":[{"name":"","type":"string","internalType":"string"},{"name":"","type":"address","internalType":"address"}],"outputs":[{"name":"","type":"bool","internalType":"bool"}],"stateMutability":"view"},{"type":"function","name":"hasVotedOnSkillApplication","inputs":[{"name":"","type":"uint256","internalType":"uint256"},{"name":"","type":"address","internalType":"address"}],"outputs":[{"name":"","type":"bool","internalType":"bool"}],"stateMutability":"view"},{"type":"function","name":"incrementUserGovernanceActions","inputs":[{"name":"user","type":"address","internalType":"address"}],"outputs":[],"stateMutability":"nonpayable"},{"type":"function","name":"initialize","inputs":[{"name":"_owner","type":"address","internalType":"address"}],"outputs":[],"stateMutability":"nonpayable"},{"type":"function","name":"isStaker","inputs":[{"name":"","type":"address","internalType":"address"}],"outputs":[{"name":"","type":"bool","internalType":"bool"}],"stateMutability":"view"},{"type":"function","name":"jobApplicationCounter","inputs":[{"name":"","type":"string","internalType":"string"}],"outputs":[{"name":"","type":"uint256","internalType":"uint256"}],"stateMutability":"view"},{"type":"function","name":"jobApplications","inputs":[{"name":"","type":"string","internalType":"string"},{"name":"","type":"uint256","internalType":"uint256"}],"outputs":[{"name":"id","type":"uint256","internalType":"uint256"},{"name":"jobId","type":"string","internalType":"string"},{"name":"applicant","type":"address","internalType":"address"},{"name":"applicationHash","type":"string","internalType":"string"},{"name":"preferredPaymentChainDomain","type":"uint32","internalType":"uint32"},{"name":"preferredPaymentAddress","type":"address","internalType":"address"}],"stateMutability":"view"},{"type":"function","name":"jobCounter","inputs":[],"outputs":[{"name":"","type":"uint256","internalType":"uint256"}],"stateMutability":"view"},{"type":"function","name":"jobExists","inputs":[{"name":"jobId","type":"string","internalType":"string"}],"outputs":[{"name":"","type":"bool","internalType":"bool"}],"stateMutability":"view"},{"type":"function","name":"jobs","inputs":[{"name":"","type":"string","internalType":"string"}],"outputs":[{"name":"id","type":"string","internalType":"string"},{"name":"jobGiver","type":"address","internalType":"address"},{"name":"jobDetailHash","type":"string","internalType":"string"},{"name":"status","type":"uint8","internalType":"enum NativeOpenworkGenesis.JobStatus"},{"name":"totalPaid","type":"uint256","internalType":"uint256"},{"name":"currentMilestone","type":"uint256","internalType":"uint256"},{"name":"selectedApplicant","type":"address","internalType":"address"},{"name":"selectedApplicationId","type":"uint256","internalType":"uint256"},{"name":"paymentTargetChainDomain","type":"uint32","internalType":"uint32"},{"name":"paymentTargetAddress","type":"address","internalType":"address"},{"name":"applierOriginChainDomain","type":"uint32","internalType":"uint32"}],"stateMutability":"view"},{"type":"function","name":"jobsByPoster","inputs":[{"name":"","type":"address","internalType":"address"},{"name":"","type":"uint256","internalType":"uint256"}],"outputs":[{"name":"","type":"string","internalType":"string"}],"stateMutability":"view"},{"type":"function","name":"memberStakeAmount","inputs":[{"name":"","type":"string","internalType":"string"},{"name":"","type":"address","internalType":"address"}],"outputs":[{"name":"","type":"uint256","internalType":"uint256"}],"stateMutability":"view"},{"type":"function","name":"nativeDAO","inputs":[],"outputs":[{"name":"","type":"address","internalType":"address"}],"stateMutability":"view"},{"type":"function","name":"oracles","inputs":[{"name":"","type":"string","internalType":"string"}],"outputs":[{"name":"name","type":"string","internalType":"string"},{"name":"shortDescription","type":"string","internalType":"string"},{"name":"hashOfDetails","type":"string","internalType":"string"}],"stateMutability":"view"},{"type":"function","name":"owner","inputs":[],"outputs":[{"name":"","type":"address","internalType":"address"}],"stateMutability":"view"},{"type":"function","name":"proposalIds","inputs":[{"name":"","type":"uint256","internalType":"uint256"}],"outputs":[{"name":"","type":"uint256","internalType":"uint256"}],"stateMutability":"view"},{"type":"function","name":"proxiableUUID","inputs":[],"outputs":[{"name":"","type":"bytes32","internalType":"bytes32"}],"stateMutability":"view"},{"type":"function","name":"removeOracleMember","inputs":[{"name":"oracleName","type":"string","internalType":"string"},{"name":"memberToRemove","type":"address","internalType":"address"}],"outputs":[],"stateMutability":"nonpayable"},{"type":"function","name":"removeStaker","inputs":[{"name":"staker","type":"address","internalType":"address"}],"outputs":[],"stateMutability":"nonpayable"},{"type":"function","name":"setAdmin","inputs":[{"name":"_admin","type":"address","internalType":"address"},{"name":"_status","type":"bool","internalType":"bool"}],"outputs":[],"stateMutability":"nonpayable"},{"type":"function","name":"setApplicationPaymentPreference","inputs":[{"name":"jobId","type":"string","internalType":"string"},{"name":"applicationId","type":"uint256","internalType":"uint256"},{"name":"preferredChainDomain","type":"uint32","internalType":"uint32"},{"name":"preferredAddress","type":"address","internalType":"address"}],"outputs":[],"stateMutability":"nonpayable"},{"type":"function","name":"setAskAthenaApplication","inputs":[{"name":"athenaId","type":"uint256","internalType":"uint256"},{"name":"applicant","type":"address","internalType":"address"},{"name":"description","type":"string","internalType":"string"},{"name":"hash","type":"string","internalType":"string"},{"name":"targetOracle","type":"string","internalType":"string"},{"name":"fees","type":"string","internalType":"string"}],"outputs":[],"stateMutability":"nonpayable"},{"type":"function","name":"setAskAthenaVote","inputs":[{"name":"athenaId","type":"uint256","internalType":"uint256"},{"name":"voter","type":"address","internalType":"address"}],"outputs":[],"stateMutability":"nonpayable"},{"type":"function","name":"setDelegate","inputs":[{"name":"delegator","type":"address","internalType":"address"},{"name":"delegatee","type":"address","internalType":"address"}],"outputs":[],"stateMutability":"nonpayable"},{"type":"function","name":"setDelegatedVotingPower","inputs":[{"name":"delegatee","type":"address","internalType":"address"},{"name":"power","type":"uint256","internalType":"uint256"}],"outputs":[],"stateMutability":"nonpayable"},{"type":"function","name":"setDispute","inputs":[{"name":"jobId","type":"string","internalType":"string"},{"name":"disputedAmount","type":"uint256","internalType":"uint256"},{"name":"hash","type":"string","internalType":"string"},{"name":"disputeRaiser","type":"address","internalType":"address"},{"name":"fees","type":"uint256","internalType":"uint256"}],"outputs":[],"stateMutability":"nonpayable"},{"type":"function","name":"setDisputeVote","inputs":[{"name":"disputeId","type":"string","internalType":"string"},{"name":"voter","type":"address","internalType":"address"}],"outputs":[],"stateMutability":"nonpayable"},{"type":"function","name":"setEarner","inputs":[{"name":"earnerAddress","type":"address","internalType":"address"},{"name":"balance","type":"uint256","internalType":"uint256"},{"name":"governanceActions","type":"uint256","internalType":"uint256"}],"outputs":[],"stateMutability":"nonpayable"},{"type":"function","name":"setJob","inputs":[{"name":"jobId","type":"string","internalType":"string"},{"name":"jobGiver","type":"address","internalType":"address"},{"name":"jobDetailHash","type":"string","internalType":"string"},{"name":"descriptions","type":"string[]","internalType":"string[]"},{"name":"amounts","type":"uint256[]","internalType":"uint256[]"}],"outputs":[],"stateMutability":"nonpayable"},{"type":"function","name":"setJobApplication","inputs":[{"name":"jobId","type":"string","internalType":"string"},{"name":"applicationId","type":"uint256","internalType":"uint256"},{"name":"applicant","type":"address","internalType":"address"},{"name":"applicationHash","type":"string","internalType":"string"},{"name":"descriptions","type":"string[]","internalType":"string[]"},{"name":"amounts","type":"uint256[]","internalType":"uint256[]"},{"name":"preferredPaymentChainDomain","type":"uint32","internalType":"uint32"},{"name":"preferredPaymentAddress","type":"address","internalType":"address"}],"outputs":[],"stateMutability":"nonpayable"},{"type":"function","name":"setJobCurrentMilestone","inputs":[{"name":"jobId","type":"string","internalType":"string"},{"name":"milestone","type":"uint256","internalType":"uint256"}],"outputs":[],"stateMutability":"nonpayable"},{"type":"function","name":"setJobPaymentTarget","inputs":[{"name":"jobId","type":"string","internalType":"string"},{"name":"targetChainDomain","type":"uint32","internalType":"uint32"},{"name":"targetAddress","type":"address","internalType":"address"},{"name":"applierOriginChainDomain","type":"uint32","internalType":"uint32"}],"outputs":[],"stateMutability":"nonpayable"},{"type":"function","name":"setJobSelectedApplicant","inputs":[{"name":"jobId","type":"string","internalType":"string"},{"name":"applicant","type":"address","internalType":"address"},{"name":"applicationId","type":"uint256","internalType":"uint256"}],"outputs":[],"stateMutability":"nonpayable"},{"type":"function","name":"setMemberStakeAmount","inputs":[{"name":"oracleName","type":"string","internalType":"string"},{"name":"member","type":"address","internalType":"address"},{"name":"amount","type":"uint256","internalType":"uint256"}],"outputs":[],"stateMutability":"nonpayable"},{"type":"function","name":"setNativeDAO","inputs":[{"name":"_nativeDAO","type":"address","internalType":"address"}],"outputs":[],"stateMutability":"nonpayable"},{"type":"function","name":"setOracle","inputs":[{"name":"name","type":"string","internalType":"string"},{"name":"members","type":"address[]","internalType":"address[]"},{"name":"shortDescription","type":"string","internalType":"string"},{"name":"hashOfDetails","type":"string","internalType":"string"},{"name":"skillVerifiedAddresses","type":"address[]","internalType":"address[]"}],"outputs":[],"stateMutability":"nonpayable"},{"type":"function","name":"setSkillApplication","inputs":[{"name":"applicationId","type":"uint256","internalType":"uint256"},{"name":"applicant","type":"address","internalType":"address"},{"name":"applicationHash","type":"string","internalType":"string"},{"name":"feeAmount","type":"uint256","internalType":"uint256"},{"name":"targetOracleName","type":"string","internalType":"string"}],"outputs":[],"stateMutability":"nonpayable"},{"type":"function","name":"setSkillApplicationVote","inputs":[{"name":"applicationId","type":"uint256","internalType":"uint256"},{"name":"voter","type":"address","internalType":"address"}],"outputs":[],"stateMutability":"nonpayable"},{"type":"function","name":"setStake","inputs":[{"name":"staker","type":"address","internalType":"address"},{"name":"amount","type":"uint256","internalType":"uint256"},{"name":"unlockTime","type":"uint256","internalType":"uint256"},{"name":"durationMinutes","type":"uint256","internalType":"uint256"},{"name":"isActive","type":"bool","internalType":"bool"}],"outputs":[],"stateMutability":"nonpayable"},{"type":"function","name":"setUserGovernanceActions","inputs":[{"name":"user","type":"address","internalType":"address"},{"name":"actions","type":"uint256","internalType":"uint256"}],"outputs":[],"stateMutability":"nonpayable"},{"type":"function","name":"setUserTotalOWTokens","inputs":[{"name":"user","type":"address","internalType":"address"},{"name":"tokens","type":"uint256","internalType":"uint256"}],"outputs":[],"stateMutability":"nonpayable"},{"type":"function","name":"skillApplications","inputs":[{"name":"","type":"uint256","internalType":"uint256"}],"outputs":[{"name":"id","type":"uint256","internalType":"uint256"},{"name":"applicant","type":"address","internalType":"address"},{"name":"applicationHash","type":"string","internalType":"string"},{"name":"feeAmount","type":"uint256","internalType":"uint256"},{"name":"targetOracleName","type":"string","internalType":"string"},{"name":"votesFor","type":"uint256","internalType":"uint256"},{"name":"votesAgainst","type":"uint256","internalType":"uint256"},{"name":"isVotingActive","type":"bool","internalType":"bool"},{"name":"timeStamp","type":"uint256","internalType":"uint256"},{"name":"result","type":"bool","internalType":"bool"},{"name":"isFinalized","type":"bool","internalType":"bool"}],"stateMutability":"view"},{"type":"function","name":"skillVerificationDates","inputs":[{"name":"","type":"string","internalType":"string"},{"name":"","type":"address","internalType":"address"}],"outputs":[{"name":"","type":"uint256","internalType":"uint256"}],"stateMutability":"view"},{"type":"function","name":"skillVerificationVoters","inputs":[{"name":"","type":"uint256","internalType":"uint256"},{"name":"","type":"uint256","internalType":"uint256"}],"outputs":[{"name":"voter","type":"address","internalType":"address"},{"name":"claimAddress","type":"address","internalType":"address"},{"name":"votingPower","type":"uint256","internalType":"uint256"},{"name":"voteFor","type":"bool","internalType":"bool"}],"stateMutability":"view"},{"type":"function","name":"stakes","inputs":[{"name":"","type":"address","internalType":"address"}],"outputs":[{"name":"amount","type":"uint256","internalType":"uint256"},{"name":"unlockTime","type":"uint256","internalType":"uint256"},{"name":"durationMinutes","type":"uint256","internalType":"uint256"},{"name":"isActive","type":"bool","internalType":"bool"}],"stateMutability":"view"},{"type":"function","name":"totalPlatformPayments","inputs":[],"outputs":[{"name":"","type":"uint256","internalType":"uint256"}],"stateMutability":"view"},{"type":"function","name":"transferOwnership","inputs":[{"name":"newOwner","type":"address","internalType":"address"}],"outputs":[],"stateMutability":"nonpayable"},{"type":"function","name":"updateAskAthenaVotes","inputs":[{"name":"athenaId","type":"uint256","internalType":"uint256"},{"name":"votesFor","type":"uint256","internalType":"uint256"},{"name":"votesAgainst","type":"uint256","internalType":"uint256"}],"outputs":[],"stateMutability":"nonpayable"},{"type":"function","name":"updateDelegatedVotingPower","inputs":[{"name":"delegatee","type":"address","internalType":"address"},{"name":"powerChange","type":"uint256","internalType":"uint256"},{"name":"increase","type":"bool","internalType":"bool"}],"outputs":[],"stateMutability":"nonpayable"},{"type":"function","name":"updateDisputeVotes","inputs":[{"name":"disputeId","type":"string","internalType":"string"},{"name":"votesFor","type":"uint256","internalType":"uint256"},{"name":"votesAgainst","type":"uint256","internalType":"uint256"}],"outputs":[],"stateMutability":"nonpayable"},{"type":"function","name":"updateJobStatus","inputs":[{"name":"jobId","type":"string","internalType":"string"},{"name":"status","type":"uint8","internalType":"enum NativeOpenworkGenesis.JobStatus"}],"outputs":[],"stateMutability":"nonpayable"},{"type":"function","name":"updateJobTotalPaid","inputs":[{"name":"jobId","type":"string","internalType":"string"},{"name":"amount","type":"uint256","internalType":"uint256"}],"outputs":[],"stateMutability":"nonpayable"},{"type":"function","name":"updateMemberActivity","inputs":[{"name":"","type":"address","internalType":"address"}],"outputs":[],"stateMutability":"nonpayable"},{"type":"function","name":"updateSkillApplicationVotes","inputs":[{"name":"applicationId","type":"uint256","internalType":"uint256"},{"name":"votesFor","type":"uint256","internalType":"uint256"},{"name":"votesAgainst","type":"uint256","internalType":"uint256"}],"outputs":[],"stateMutability":"nonpayable"},{"type":"function","name":"updateUserClaimData","inputs":[{"name":"user","type":"address","internalType":"address"},{"name":"claimedAmount","type":"uint256","internalType":"uint256"}],"outputs":[],"stateMutability":"nonpayable"},{"type":"function","name":"upgradeToAndCall","inputs":[{"name":"newImplementation","type":"address","internalType":"address"},{"name":"data","type":"bytes","internalType":"bytes"}],"outputs":[],"stateMutability":"payable"},{"type":"function","name":"userGovernanceActions","inputs":[{"name":"","type":"address","internalType":"address"}],"outputs":[{"name":"","type":"uint256","internalType":"uint256"}],"stateMutability":"view"},{"type":"function","name":"userTotalClaimedTokens","inputs":[{"name":"","type":"address","internalType":"address"}],"outputs":[{"name":"","type":"uint256","internalType":"uint256"}],"stateMutability":"view"},{"type":"function","name":"userTotalOWTokens","inputs":[{"name":"","type":"address","internalType":"address"}],"outputs":[{"name":"","type":"uint256","internalType":"uint256"}],"stateMutability":"view"},{"type":"event","name":"AdminUpdated","inputs":[{"name":"admin","type":"address","indexed":true,"internalType":"address"},{"name":"status","type":"bool","indexed":false,"internalType":"bool"}],"anonymous":false},{"type":"event","name":"ContractAuthorized","inputs":[{"name":"contractAddress","type":"address","indexed":true,"internalType":"address"},{"name":"authorized","type":"bool","indexed":false,"internalType":"bool"}],"anonymous":false},{"type":"event","name":"Initialized","inputs":[{"name":"version","type":"uint64","indexed":false,"internalType":"uint64"}],"anonymous":false},{"type":"event","name":"NativeDAOUpdated","inputs":[{"name":"oldDAO","type":"address","indexed":true,"internalType":"address"},{"name":"newDAO","type":"address","indexed":true,"internalType":"address"}],"anonymous":false},{"type":"event","name":"OwnershipTransferred","inputs":[{"name":"previousOwner","type":"address","indexed":true,"internalType":"address"},{"name":"newOwner","type":"address","indexed":true,"internalType":"address"}],"anonymous":false},{"type":"event","name":"Upgraded","inputs":[{"name":"implementation","type":"address","indexed":true,"internalType":"address"}],"anonymous":false},{"type":"error","name":"AddressEmptyCode","inputs":[{"name":"target","type":"address","internalType":"address"}]},{"type":"error","name":"ERC1967InvalidImplementation","inputs":[{"name":"implementation","type":"address","internalType":"address"}]},{"type":"error","name":"ERC1967NonPayable","inputs":[]},{"type":"error","name":"FailedInnerCall","inputs":[]},{"type":"error","name":"InvalidInitialization","inputs":[]},{"type":"error","name":"NotInitializing","inputs":[]},{"type":"error","name":"UUPSUnauthorizedCallContext","inputs":[]},{"type":"error","name":"UUPSUnsupportedProxiableUUID","inputs":[{"name":"slot","type":"bytes32","internalType":"bytes32"}]}],"bytecode":{"object":"0x60a080604052346100c257306080525f516020615f515f395f51905f525460ff8160401c166100b3576002600160401b03196001600160401b03821601610060575b604051615e8a90816100c78239608051818181613dae0152613ef70152f35b6001600160401b0319166001600160401b039081175f516020615f515f395f51905f525581527fc7f505b2f371ae2175ee4913f4499e1f2633a7b5936321eed1cdaeb6115181d290602090a15f80610041565b63f92ee8a960e01b5f5260045ffd5b5f80fdfe60806040526004361015610011575f80fd5b5f3560e01c80626d863014615186578062e09ee4146138ef57806306d1ab4b146151695780630857d05f146151025780630af401dc146150855780630cb4196d14615035578063111006db14614f975780631325f654146123ea5780631655954014614f3857806316934fc414614ee657806319dd10e814614e7957806324f808a514614ca457806328393d7914614b87578063286fd04f14614b1b5780632bfe51f014614add5780632c47fa9714614a345780632efc44161461499d5780632f52aff61461488557806338719e74146148305780633b7d2dd6146145575780633f4e42511461453a57806341b3d2a1146144ed578063429b62e5146144b0578063466a928914614391578063468159461461092857806349868b41146142b35780634b0bddd2146141f85780634d14a239146141125780634d16b840146140e85780634f1ef28614613ea95780634ffc65f814613e2c57806350355d7614611ac75780635296f5c114613e0257806352d1902d14613d9c578063544d856414613cef57806357ac257414613d2f5780635843905f14610960578063587cde1e14613cef5780635b3a8e1c14613c125780635c6ad34014613b9b5780635c87384914613b165780635cbeb13f14613a955780635cd028021461392757806361341473146138ef57806367c2f3e114613848578063687694ae14613820578063693975b0146137c15780636951731014613779578063697289231461374c5780636a699b6c14610bde5780636cb0124114610d4e5780636d0faa95146136ec5780636da25a54146107b15780636e4f88c81461368d5780636f1e853314612cbc578063733bdef014613616578063755f176e1461347357806377e324071461312857806378d4be1b146130bf5780637a627fd814612fac5780637a76646014612f075780637ec25c3c14612e2257806384137482146124f957806388c8837f14612daa57806388fc75f514612cf85780638ab3bd9014612cbc5780638b39905b14612c745780638cac641514612bc75780638d95ce5e14612b075780638da5cb5b14612adf5780639000a87f14612a2257806390c7417d1461297757806391c6bfae146128fa5780639661725c1461282057806396a9fdc014612788578063998f128e1461257e5780639b644a23146125465780639c87c928146124f95780639e2cc7e8146124325780639e4ffd54146123ea578063a2425f0614612378578063a2f7cb2614612302578063a53328dc146121fc578063a542599c14612073578063a54294af14611e9e578063a616132814611cf0578063a9daf6ad14611ba3578063aba01d8d14611b2b578063ad3cb1cc14611ae4578063aff4d416146107e9578063b02b4a2f14611ac7578063b05e6f5a146119ac578063b073997a14611947578063b5be4fe4146118a8578063ba20799514611699578063bd015d79146113eb578063beeb4ada146113ce578063c08cc02d146113b1578063c2cfe80e14611334578063c3214d6c146112f2578063c4d66de814611166578063c81418e814611114578063c9d28293146110aa578063c9fe8bf41461104b578063cae3831c14610fde578063cb29c12814610f5c578063cb8bde2e14610eaa578063cd5b752f14610e2c578063cdbdb29314610d9f578063ceff5c5d14610d4e578063d22e505314610cc8578063d3e8a57e14610c80578063d5b9221b14610c44578063db144d0114610c27578063dcde048514610bde578063e525510714610b45578063e9b8be9014610acf578063eb7d901b14610832578063ecd233cc14610a31578063efa90d3614610998578063f10f9a6914610960578063f14db78314610928578063f2fde38b14610887578063f4653c0b14610832578063f7edb880146107e9578063f9a5c639146107b1578063fec17fe9146106045763ffeea55314610597575f80fd5b34610600576040366003190112610600576105b061535b565b335f525f60205260ff60405f20541680156105ec575b6105cf90615989565b6001600160a01b03165f9081526023602052604090206024359055005b506001546001600160a01b031633146105c6565b5f80fd5b346106005760a0366003190112610600576004356001600160401b0381116106005761063490369060040161533d565b6044356001600160401b0381116106005761065390369060040161533d565b9061065c61539d565b91335f525f60205260ff60405f205416801561079d575b61067c90615989565b6040519261068984615275565b82845260208401916024358352604085019081526060850191600160a01b6001900316825260808501915f835260a086015f815260c08701935f855260e0880192600184526101008901945f86526101208a01974289526101408b01996084358b52604051818192516020819201835e8101601281520360200190209a51610711908c615a2e565b5160018b0155516107259060028b01615a2e565b516003890180546001600160a01b0319166001600160a01b03929092169190911790555160048801555160058701559151600686019290610768901515846159dc565b51151561077590836159ed565b51151581549060101b62ff0000169062ff000019161790555160078301555190600801555f80f35b506001546001600160a01b03163314610673565b34610600576020366003190112610600576001600160a01b036107d261535b565b165f52601f602052602060405f2054604051908152f35b3461060057604036600319011261060057610802615371565b6004355f52601460205260405f209060018060a01b03165f52602052602060ff60405f2054166040519015158152f35b34610600576020366003190112610600576004356001600160401b038111610600576020806108668193369060040161533d565b604051928184925191829101835e8101600581520301902054604051908152f35b34610600576020366003190112610600576108a061535b565b600154906001600160a01b038216906108ba338314615989565b6001600160a01b03169182156108ff576001600160a01b03191682176001557f8be0079c531659141344cd1fd0a4f28419497f9722a3daafe3b4186f6b6457e05f80a3005b60405162461bcd60e51b81526020600482015260016024820152600360fc1b6044820152606490fd5b34610600576020366003190112610600576001600160a01b0361094961535b565b165f526024602052602060405f2054604051908152f35b34610600576020366003190112610600576001600160a01b0361098161535b565b165f526023602052602060405f2054604051908152f35b34610600575f366003190112610600576040518060206022549283815201809260225f5260205f20905f5b818110610a1b57505050816109d99103826152c9565b604051918291602083019060208452518091526040830191905f5b818110610a02575050500390f35b82518452859450602093840193909201916001016109f4565b82548452602090930192600192830192016109c3565b3461060057604036600319011261060057600435610a90610a50615412565b335f525f60205260ff60405f2054168015610abb575b610a6f90615989565b610a7c6017548410615989565b825f526011602052600a60405f20016159dc565b5f908152601160205260409020600a8101805461ff001916610100179055600801805460ff19169055005b506001546001600160a01b03163314610a66565b34610600575f366003190112610600575f5f602154905b818110610af857602083604051908152f35b610b018161594e565b9054600391821b1c6001600160a01b03165f908152601c60205260409020015460ff16610b31575b600101610ae6565b91610b3d600191615a05565b929050610b29565b3461060057610b53366153b3565b90335f525f60205260ff60405f2054168015610bca575b610b7390615989565b602060405191610b9c846004835195858181870198808a835e8101600a815203019020016159b9565b604051928391518091835e8101600c8152030190209060018060a01b03165f5260205260405f204290555f80f35b506001546001600160a01b03163314610b6a565b3461060057604036600319011261060057610bf7615371565b6004355f52601560205260405f209060018060a01b03165f52602052602060ff60405f2054166040519015158152f35b34610600575f366003190112610600576020601654604051908152f35b34610600576020366003190112610600576001600160a01b03610c6561535b565b165f525f602052602060ff60405f2054166040519015158152f35b34610600576020366003190112610600576001600160a01b03610ca161535b565b165f526009602052610cc4610cb860405f20615d21565b604051918291826158d7565b0390f35b3461060057610d38610cd936615843565b919293335f525f60205260ff60405f2054168015610d3a575b610cfb90615989565b5f52601a60205260405f209260405194610d1486615209565b6001600160a01b039081168652166020850152604084015215156060830152615be4565b005b506001546001600160a01b03163314610cf2565b3461060057602080610d5f366153b3565b9290604051928184925191829101835e601b908201908152030190206001600160a01b039182165f90815260209182526040908190205490519216825290f35b3461060057602036600319011261060057610db861535b565b5f60408051610dc68161523f565b828152826020820152015260018060a01b03165f52601d602052606060405f20604051610df28161523f565b60018060a01b0382541691828252604060026001830154926020850193845201549201918252604051928352516020830152516040820152f35b3461060057602080610e3d366153b3565b9290335f525f825260ff60405f2054168015610e96575b610e5d90615989565b604051928184925191829101835e810160138152030190209060018060a01b03165f5260205260405f20600160ff198254161790555f80f35b506001546001600160a01b03163314610e54565b34610600576020366003190112610600576004355f52601a60205260405f208054610ed481615450565b91610ee260405193846152c9565b81835260208301905f5260205f205f915b838310610f085760405180610cc4878261563f565b60046020600192604051610f1b81615209565b848060a01b038654168152848060a01b038587015416838201526002860154604082015260ff60038701541615156060820152815201920192019190610ef3565b346106005760203660031901126106005760043560085481101561060057600854811015610fca5760085f525f516020615e155f395f51905f5201610fa3610cc4916156e3565b604051918291602083526020830190615783565b634e487b7160e01b5f525f60045260245ffd5b634e487b7160e01b5f52603260045260245ffd5b34610600576020366003190112610600576004356001600160401b038111610600576110376001602080611019610cc495369060040161533d565b604051928184925191829101835e8101600a81520301902001615cd0565b60405191829160208352602083019061588e565b346106005761105936615813565b9190335f525f60205260ff60405f2054168015611096575b61107a90615989565b5f91825260106020526040909120600581019190915560060155005b506001546001600160a01b03163314611071565b3461060057610d3860206001816110c0366153b3565b9390335f525f825260ff60405f20541680156110fe575b6110e090615989565b604051928184925191829101835e8101600a815203019020016159b9565b506110e0848060a01b03855416331490506110d7565b346106005760403660031901126106005761112d61535b565b6001600160a01b03165f90815260096020526040902080546024359081101561060057611160610fa391610cc493615966565b9061597b565b346106005760203660031901126106005761117f61535b565b5f516020615e355f395f51905f5254604081901c60ff161591906001600160401b038116801590816112ea575b60011490816112e0575b1590816112d7575b506112c8576001600160401b031981166001175f516020615e355f395f51905f5255826112a0575b5060ff5f516020615e355f395f51905f525460401c161561129157600180546001600160a01b0319166001600160a01b039290921691821781555f91825260256020526040909120805460ff1916909117905561123f57005b60ff60401b195f516020615e355f395f51905f5254165f516020615e355f395f51905f52557fc7f505b2f371ae2175ee4913f4499e1f2633a7b5936321eed1cdaeb6115181d2602060405160018152a1005b631afcd79f60e31b5f5260045ffd5b6001600160481b0319166001600160401b01175f516020615e355f395f51905f5255826111e6565b63f92ee8a960e01b5f5260045ffd5b905015846111be565b303b1591506111b6565b8491506111ac565b34610600576020366003190112610600576004356021548110156106005761131b60209161594e565b905460405160039290921b1c6001600160a01b03168152f35b3461060057611398602060088161134a36615542565b9390335f525f825260ff60405f205416801561139d575b61136a90615989565b604051928184925191829101835e810160038152030190200161138e828254615bd7565b9055600654615bd7565b600655005b506001546001600160a01b03163314611361565b34610600575f366003190112610600576020602254604051908152f35b34610600575f366003190112610600576020601754604051908152f35b3461060057610100366003190112610600576004356001600160401b0381116106005761141c90369060040161533d565b60243590611428615387565b916064356001600160401b0381116106005761144890369060040161533d565b906084356001600160401b03811161060057611468903690600401615467565b9360a4356001600160401b038111610600576114889036906004016154e5565b9360c43563ffffffff811681036106005760e435916001600160a01b03831683036106005760049561156f9461152961155393335f525f60205260ff60405f2054168015611685575b6114da90615989565b604051815190602081818501938085835e81016005815203019020548a11611668575b6020604051809284518091835e81018d815203019020895f5260205260405f2098895560018901615a2e565b6002870180546001600160a01b0319166001600160a01b0390921691909117905560038601615a2e565b63ffffffff60058501911663ffffffff19825416178155615bae565b019182545f8455806115c4575b505f5b8151811015610d3857806115be61159860019385615b5b565b516115a38387615b5b565b51604051916115b1836151ee565b8252602082015286615b6f565b0161157f565b600181901b906001600160ff1b0381160361165457835f5260205f205f5b8281106115f057505061157c565b805f6001600293850161160381546156ab565b80611612575b500155016115e2565b601f8111831461162757508281555b8a611609565b8184526020842061164391601f0160051c851901908401615a13565b808352826020812081835555611621565b634e487b7160e01b5f52601160045260245ffd5b8960405160208185518086835e81016005815203019020556114fd565b506001546001600160a01b031633146114d1565b346106005760c0366003190112610600576004356116b5615371565b906044356001600160401b038111610600576116d590369060040161533d565b6064356001600160401b038111610600576116f490369060040161533d565b906084356001600160401b0381116106005761171490369060040161533d565b9160a4356001600160401b0381116106005761173490369060040161533d565b92335f525f60205260ff60405f2054168015611894575b61175490615989565b601754851015611881575b6040519361176c856152ad565b8585526001600160a01b0396871660208087019182526040808801968752606088019586526080880194855260a088019384525f60c0890181815260e08a0182815260016101008c01818152426101208e019081526101408e018681526101608f018781529f87526011909852959094209b518c559551958b0180546001600160a01b03191696909d1695909517909b5596519199909695929490939290916118189060028a01615a2e565b516118269060038901615a2e565b516118349060048801615a2e565b516118429060058701615a2e565b5160068501555160078401555161185e901515600884016159dc565b516009820155600a019151151561187590836159dc565b511515610d38916159ed565b600185018086116116545760175561175f565b506001546001600160a01b0316331461174b565b34610600576040366003190112610600576004356001600160401b038111610600576118d890369060040161533d565b60243590600482101561060057602080600492335f525f825260ff60405f2054168015611933575b61190990615989565b604051928184925191829101835e81016003815203019020019060ff801983541691161790555f80f35b506001546001600160a01b03163314611900565b3461060057602060098161195a36615542565b9390335f525f825260ff60405f2054168015611998575b61197a90615989565b604051928184925191829101835e8101600381520301902001555f80f35b506001546001600160a01b03163314611971565b34610600576020366003190112610600576004356001600160401b0381116106005760206119df8192369060040161533d565b604051928184925191829101835e81016003815203019020610160611a03826156e3565b9163ffffffff60018060a01b0360018301541691611a23600382016156e3565b9060ff600482015416936008820154600983015490611a8a611a7f60018060a01b03600a8701541694600c600b88015497015497611a6c6040519d8d8f9e8f9081520190615783565b9160208d01528b820360408d0152615783565b9760608a01906158ca565b608088015260a087015260c086015260e085015281811661010085015260018060a01b038160201c1661012085015260c01c166101408301520390f35b34610600575f366003190112610600576020600754604051908152f35b34610600575f36600319011261060057610cc4604051611b056040826152c9565b60058152640352e302e360dc1b6020820152604051918291602083526020830190615783565b34610600575f36600319011261060057600d54611b4781615450565b90611b5560405192836152c9565b808252600d5f9081525f516020615dd55f395f51905f52602084015b838310611b865760405180610cc487826158d7565b600160208192611b95856156e3565b815201920192019190611b71565b34610600576020366003190112610600576004356001600160401b03811161060057602080611bd9611ca493369060040161533d565b60606080604051611be981615224565b828152828582015282604082015282808201520152604051928184925191829101835e8101600a815203019020610cc460405191611c2683615224565b611c2f816156e3565b8352611cdd611c4060018301615cd0565b9160208501928352611cca611c57600283016156e3565b60408701908152611cb7611c806004611c72600387016156e3565b9560608b0196875201615cd0565b9560808901968752604051998a9960208b525160a060208c015260c08b0190615783565b9051898203601f190160408b015261588e565b9051878203601f19016060890152615783565b9051858203601f19016080870152615783565b9051838203601f190160a085015261588e565b34610600576020366003190112610600575f610140604051611d1181615275565b82815282602082015260606040820152826060820152606060808201528260a08201528260c08201528260e0820152826101008201528261012082015201526004355f526010602052602060405f2060405190611d6d82615275565b8054825260018101546001600160a01b031683830190815290610140908390611d98600282016156e3565b936040830194855260038201549460608401958652611e6b611dbc600485016156e3565b966080860197885260058501549760a08701988952611e5260068701549460c0890195865260ff6007890154169660e08a01971515885260ff600960088b01549a6101008d019b8c5201549b8b826101208f9e019d1615158d52019b60081c1615158b526040518e819f9e829f83525191015260018060a01b0390511660408d01525161016060608d01526101808c0190615783565b915160808b015251898203601f190160a08b0152615783565b955160c08801525160e0870152511515610100860152516101208501525115156101408401525115156101608301520390f35b34610600576020366003190112610600576004356001600160401b03811161060057602080611ed461018093369060040161533d565b5f610140604051611ee481615275565b606081528285820152606060408201528260608201528260808201528260a08201528260c08201528260e082015282610100820152826101208201520152604051928184925191829101835e8101601281520301902060405190611f4782615275565b611f50816156e3565b825260018101549060208301918252611f6b600282016156e3565b906040840191825260018060a01b0360038201541692606085019384526004820154906080860191825260058301549160a0870192835260068401549260c088019160ff85161515835261202b60e08a019460ff8760081c161515865260ff6101008c019760101c161515875260086007890154986101208d01998a520154986101408c01998a52612012604051809e819e60208352519161016060208201520190615783565b915160408d0152518b8203601f190160608d0152615783565b97516001600160a01b031660808a01525160a08901525160c088015251151560e087015251151561010086015251151561012085015251610140840152516101608301520390f35b346106005760a03660031901126106005761208c61535b565b612094615421565b90335f525f60205260ff60405f20541680156121e8575b6120b490615989565b6040516120c081615209565b602435815260208101926044358452612119604083019260643584526003606082018415958615825260018060a01b03881698895f52601c60205260405f209451855551600185015551600284015551151591016159dc565b806121d2575b1561219b575060215490600160401b8210156121875761214a82600161216e94016021556021615966565b9080546001600160a01b0360039390931b83811b199091169290931690921b179055565b5f9081526020805260409020805460ff19166001179055005b634e487b7160e01b5f52604160045260245ffd5b9050806121bd575b6121a957005b5f526020805260405f2060ff198154169055005b50805f526020805260ff60405f2054166121a3565b50825f526020805260ff60405f2054161561211f565b506001546001600160a01b031633146120ab565b34610600576020366003190112610600576004356001600160401b038111610600576020806122326122ac93369060040161533d565b604051928184925191829101835e81016012815203019020612253816156e3565b90600181015490612266600282016156e3565b9060ff60018060a01b036003830154169360048301546005840154906122bf60068601549360086007880154970154976040519b8c9b6101608d526101608d0190615783565b9160208c01528a820360408c0152615783565b966060890152608088015260a0870152818116151560c0870152818160081c16151560e087015260101c1615156101008501526101208401526101408301520390f35b346106005760203660031901126106005761231b61535b565b61233060018060a01b03600154163314615989565b602680546001600160a01b039283166001600160a01b0319821681179092559091167febf0307548e44546701f6014620caeea64df200e2b3925bfd3c75d354fd7410d5f80a3005b34610600576123863661582d565b905f52601a60205260405f20908154811015610600576123a591615573565b50805460018201546002830154600390930154604080516001600160a01b0394851681529390921660208401529082019290925260ff90911615156060820152608090f35b34610600576020806123fb366153b3565b9290604051928184925191829101835e8101600c8152030190209060018060a01b03165f52602052602060405f2054604051908152f35b346106005760603660031901126106005761244b61535b565b60243590604435801515810361060057335f525f60205260ff60405f20541680156124e5575b61247a90615989565b156124a15760018060a01b03165f52601f60205261249d60405f20918254615bd7565b9055005b6001600160a01b03165f818152601f602052604090205482116124d4575f52601f60205261249d60405f20918254615c57565b90505f52601f6020525f6040812055005b506001546001600160a01b03163314612471565b346106005760208061250a366153b3565b9290604051928184925191829101835e810160138152030190209060018060a01b03165f52602052602060ff60405f2054166040519015158152f35b34610600576020366003190112610600576004356022548110156106005761256f602091615936565b90549060031b1c604051908152f35b346106005760203660031901126106005760405161259b816152ad565b5f8152602081015f905260408101606090526060810160609052608081016060905260a081016060905260c081015f905260e081015f905261010081015f905261012081015f905261014081015f9052610160015f90526004355f52601160205260405f2060405161260c816152ad565b8154815260018201546001600160a01b03166020820190815291612632600282016156e3565b60408301908152612645600383016156e3565b6060840190815290612659600484016156e3565b608085019081529261266d600582016156e3565b9360a0860194855260068201549460c0870195865260078301549060e08801918252600884015460ff1692610100890193151584526009850154946101208a01958652600a0154966101408a019660ff8916151588526101608b019860081c60ff16151589526040519b8c9b60208d525160208d0152600160a01b6001900390511660408c01525160608b0161018090526101a08b0161270c91615783565b90518a8203601f190160808c01526127249190615783565b9051898203601f190160a08b015261273c9190615783565b9051888203601f190160c08a01526127549190615783565b955160e088015251610100870152511515610120860152516101408501525115156101608401525115156101808301520390f35b34610600576020366003190112610600576127a161535b565b335f525f60205260ff60405f205416801561280c575b6127c090615989565b6001600160a01b03165f81815260208052604090205460ff166127df57005b805f526020805260405f2060ff1981541690555f52601c602052600360405f200160ff1981541690555f80f35b506001546001600160a01b031633146127b7565b34610600576040366003190112610600576004356001600160401b03811161060057612853610d3891369060040161533d565b600661285d615412565b91335f525f60205260ff60405f20541680156128e6575b61287d90615989565b602060405191838151938381818501968088835e810160128152030190200161ff0019815416905583604051838184518088835e81016012815203019020016201000062ff000019825416179055604051928391518091835e81016012815203019020016159dc565b506001546001600160a01b03163314612874565b3461060057604036600319011261060057612913615371565b335f525f60205260ff60405f2054168015612963575b61293290615989565b6004355f9081526015602090815260408083206001600160a01b03909416835292905220805460ff19166001179055005b506001546001600160a01b03163314612929565b34610600576060366003190112610600576004356001600160401b038111610600576129a790369060040161533d565b335f525f60205260ff60405f2054168015612a0e575b6129c690615989565b6005604051825190600460208501928084845e820191601283526020816024359403019020015560405192518091845e82019160128352602081604435940301902001555f80f35b506001546001600160a01b031633146129bd565b3461060057602080612a3336615542565b9290604051928184925191829101835e81016004815203019020905f5260205260405f208054612a65600183016156e3565b6002830154909290612abb906001600160a01b03166005612a88600385016156e3565b93015492612aa8604051968796875260c0602088015260c0870190615783565b9160408601528482036060860152615783565b63ffffffff8216608084015260209190911c6001600160a01b031660a08301520390f35b34610600575f366003190112610600576001546040516001600160a01b039091168152602090f35b34610600576060366003190112610600576004356001600160401b03811161060057612b3790369060040161533d565b602435906001600160401b038211610600576007602080612b5f610d3895369060040161533d565b93335f525f825260ff60405f2054168015612bb3575b612b7e90615989565b604051928184925191829101835e810160038152030190200160405191612ba4836151ee565b82526044356020830152615b6f565b506001546001600160a01b03163314612b75565b3461060057606036600319011261060057612be061535b565b335f525f60205260ff60405f2054168015612c60575b612bff90615989565b600260405191612c0e8361523f565b6001600160a01b03908116808452602435602080860191825260443560408088019182525f948552601d9092529220945185546001600160a01b03191693169290921784559051600184015551910155005b506001546001600160a01b03163314612bf6565b3461060057602080612c85366153b3565b9290604051928184925191829101835e8101600b8152030190209060018060a01b03165f52602052602060405f2054604051908152f35b34610600576020366003190112610600576001600160a01b03612cdd61535b565b165f5260208052602060ff60405f2054166040519015158152f35b34610600576020366003190112610600576004355f52601960205260405f208054612d2281615450565b91612d3060405193846152c9565b81835260208301905f5260205f205f915b838310612d565760405180610cc4878261563f565b60046020600192604051612d6981615209565b848060a01b038654168152848060a01b038587015416838201526002860154604082015260ff60038701541615156060820152815201920192019190612d41565b34610600575f36600319011261060057600854612dc681615450565b90612dd460405192836152c9565b80825260085f9081525f516020615e155f395f51905f52602084015b838310612e055760405180610cc487826158d7565b600160208192612e14856156e3565b815201920192019190612df0565b3461060057612e303661582d565b612e4782600f54612e42818310615989565b615c57565b9081811115612f0057505b612e5b81615450565b90612e6960405192836152c9565b808252601f19612e7882615450565b015f5b818110612eed575050600d54925f5b828110612e9f5760405180610cc486826158d7565b612ea98183615bd7565b9085821015610fca57600d5f52600191612ed1905f516020615dd55f395f51905f52016156e3565b612edb8287615b5b565b52612ee68186615b5b565b5001612e8a565b6060602082860181019190915201612e7b565b9050612e52565b3461060057602036600319011261060057612f2061535b565b5f6060604051612f2f81615209565b828152826020820152826040820152015260018060a01b03165f52601c602052608060405f20604051612f6181615209565b815491828252600181015460208301908152606060ff600360028501549460408701958652015416930192151583526040519384525160208401525160408301525115156060820152f35b34610600576020366003190112610600576004355f908152601160205260409020805460018201546001600160a01b031691612fea600282016156e3565b612ff6600383016156e3565b91613003600482016156e3565b92613010600583016156e3565b93600683015494600784015491600885015460ff1693600986015495600a0154966040519a8b9a8b5260208b015260408a0161018090526101808a0161305591615783565b89810360608b015261306691615783565b88810360808a015261307791615783565b87810360a089015261308891615783565b9460c087015260e0860152151561010085015261012084015260ff8116151561014084015260081c60ff1615156101608301520390f35b34610600576040366003190112610600576130d861535b565b335f525f60205260ff60405f2054168015613114575b6130f790615989565b6001600160a01b03165f908152601f602052604090206024359055005b506001546001600160a01b031633146130ee565b34610600576020366003190112610600576004356001600160401b03811161060057602061315b8192369060040161533d565b5f6101c060405161316b81615291565b60608152828582015260606040820152606080820152826080820152606060a0820152606060c0820152606060e08201528261010082015282610120820152826101408201528261016082015282610180820152826101a08201520152604051928184925191829101835e810160038152030190206040516131ec81615291565b6131f5826156e3565b815260018201546001600160a01b03166020820190815261321860028401615cd0565b6040830190815261322b600385016156e3565b906060840191825260ff600486015416926080850193600481101561345f57845261325860058701615d21565b60a086019081529561326c60068201615c64565b60c087019081529661328060078301615c64565b9760e0880198895260088301549661010089019788526009840154916101208a01928352600160a01b60019003600a86015416936101408b01948552600b860154956101608c01968752600c0154986101808c019763ffffffff8b1689526101a08d01998d600160a01b600190038d60201c168c526101c0019b60c01c63ffffffff168c52604051809e6020825251602082016101e09052610200820161332691615783565b92516001600160a01b0316604090910152518d8203601f190160608f015261334e919061588e565b90518c8203601f190160808e01526133669190615783565b925160a08c01613375916158ca565b5191601f198b82030160c08c0152825180825260208201918160051b810160200194602001925f915b838310613432575050505050916133e88a9b6133d463ffffffff9a999896948d8c9997519060e0601f19828503019101526157a7565b90518c8203601f19016101008e01526157a7565b98516101208b0152516101408a0152516001600160a01b039081166101608a015290516101808901529051919091166101a08701529051166101c085015251166101e08301520390f35b9091929395602080613450600193601f198682030187528a51615783565b9801930193019193929061339e565b634e487b7160e01b5f52602160045260245ffd5b346106005760a03660031901126106005760043561348f615371565b906044356001600160401b038111610600576134af90369060040161533d565b6084356001600160401b038111610600576134ce90369060040161533d565b90335f525f60205260ff60405f2054168015613602575b6134ee90615989565b6016548310156135ef575b6040519161350683615275565b8383526001600160a01b039485166020808501918252604080860194855260643560608701908152608087019485525f60a0880181815260c08901828152600160e08b01818152426101008d019081526101208d018681526101408e018781529e87526010909952969094209a518b559651968a0180546001600160a01b03191697909c1696909617909a559551929891959491926135a89060028901615a2e565b516003870155516135bc9060048701615a2e565b516005850155516006840155516135d8901515600784016159dc565b5160088201556009019151151561187590836159dc565b60018301808411611654576016556134f9565b506001546001600160a01b031633146134e5565b34610600576020366003190112610600576001600160a01b0361363761535b565b165f52601c60205260405f206040519061365082615209565b610cc4606082549283855260018101549485602082015260ff60036002840154938460408501520154161515928391015260405194859485615430565b34610600575f36600319011261060057604051602154808252602082019060215f5260205f20905f5b8181106136cd57610cc485611037818703826152c9565b82546001600160a01b03168452602090930192600192830192016136b6565b3461060057610d386136fd36615843565b919293335f525f60205260ff60405f2054168015613738575b61371f90615989565b5f52601960205260405f209260405194610d1486615209565b506001546001600160a01b03163314613716565b346106005761375a3661582d565b905f52601960205260405f20908154811015610600576123a591615573565b346106005760203660031901126106005760406001600160a01b0361379c61535b565b16805f526023602052815f2054905f526024602052815f205482519182526020820152f35b34610600576137cf36615813565b9190335f525f60205260ff60405f205416801561380c575b6137f090615989565b5f91825260116020526040909120600681019190915560070155005b506001546001600160a01b031633146137e7565b34610600575f366003190112610600576026546040516001600160a01b039091168152602090f35b34610600576020366003190112610600576004356001600160401b0381116106005760208061387e6138d393369060040161533d565b604051928184925191829101835e8101600a815203019020610cc46138a2826156e3565b916138e16138be60036138b7600285016156e3565b93016156e3565b91604051958695606087526060870190615783565b908582036020870152615783565b908382036040850152615783565b34610600576020366003190112610600576001600160a01b0361391061535b565b165f526002602052602060405f2054604051908152f35b346106005760208061393836615542565b92905f60c06040516139498161525a565b828152606085820152826040820152606080820152606060808201528260a08201520152604051928184925191829101835e81016004815203019020905f5260205260405f2060405161399b8161525a565b815481526139ab600183016156e3565b6020820190815260028301546001600160a01b03166040830190815290929063ffffffff613a7a6139de600385016156e3565b9360608601948552613a6760056139f760048401615c64565b926080890193845201549460a0880196858716885260c089019660018060a01b039060201c168752613a456040519a8b9a60208c525160208c01525160e060408c01526101008b0190615783565b91516001600160a01b031660608a015251888203601f190160808a0152615783565b9051868203601f190160a08801526157a7565b92511660c0840152516001600160a01b031660e08301520390f35b3461060057604036600319011261060057613aae61535b565b7f3213ab8ec2ed122402f038736b41878b69ae9f61f49a7edd0666bce891d29fc96020613ad9615412565b92613aef60018060a01b03600154163314615989565b60018060a01b031692835f525f8252613b0b8160405f206159dc565b6040519015158152a2005b3461060057604036600319011261060057613b2f61535b565b613b37615371565b90335f525f60205260ff60405f2054168015613b87575b613b5790615989565b6001600160a01b039081165f908152601e6020526040902080546001600160a01b03191692909116919091179055005b506001546001600160a01b03163314613b4e565b3461060057602080613bac3661558c565b9391929092335f525f825260ff60405f2054168015613bfe575b613bcf90615989565b604051928184925191829101835e8101600b8152030190209060018060a01b03165f5260205260405f20555f80f35b506001546001600160a01b03163314613bc6565b34610600576020366003190112610600576004355f908152601060205260409020805460018201546001600160a01b03169160ff613c52600283016156e3565b600383015492613c64600482016156e3565b600582015494613cbc6006840154918660078601541693613ca960096008880154970154976040519c8d9c8d5260208d015261016060408d01526101608c0190615783565b9160608b015289820360808b0152615783565b9560a088015260c0870152151560e0860152610100850152818116151561012085015260081c1615156101408301520390f35b34610600576020366003190112610600576001600160a01b03613d1061535b565b165f52601e602052602060018060a01b0360405f205416604051908152f35b34610600576020366003190112610600576001600160a01b03613d5061535b565b165f52601d60205260405f20604051613d688161523f565b610cc4604060018060a01b0384541692838152600260018601549586602084015201549182910152604051938493846153f4565b34610600575f366003190112610600577f00000000000000000000000000000000000000000000000000000000000000006001600160a01b03163003613df35760206040515f516020615df55f395f51905f528152f35b63703e46dd60e11b5f5260045ffd5b34610600576020366003190112610600576004355f526019602052602060405f2054604051908152f35b3461060057604036600319011261060057613e45615371565b335f525f60205260ff60405f2054168015613e95575b613e6490615989565b6004355f9081526014602090815260408083206001600160a01b03909416835292905220805460ff19166001179055005b506001546001600160a01b03163314613e5b565b604036600319011261060057613ebd61535b565b6024356001600160401b038111610600573660238201121561060057613eed903690602481600401359101615307565b6001600160a01b037f0000000000000000000000000000000000000000000000000000000000000000163081149081156140c6575b50613df357335f52602560205260ff60405f20541615614099576040516352d1902d60e01b81526001600160a01b0383169290602081600481875afa5f9181614065575b50613f7e5783634c9c8ce360e01b5f5260045260245ffd5b805f516020615df55f395f51905f528592036140535750813b15614041575f516020615df55f395f51905f5280546001600160a01b031916821790557fbc7cd75a20ee27fd9adebab32041f755214dbc6bffa90cc0225b39da2e5c2d3b5f80a2815115614029575f80836020610d3895519101845af43d15614021573d91614005836152ec565b9261401360405194856152c9565b83523d5f602085013e615d76565b606091615d76565b50503461403257005b63b398979f60e01b5f5260045ffd5b634c9c8ce360e01b5f5260045260245ffd5b632a87526960e21b5f5260045260245ffd5b9091506020813d602011614091575b81614081602093836152c9565b8101031261060057519085613f66565b3d9150614074565b60405162461bcd60e51b815260206004820152600560248201526420b236b4b760d91b6044820152606490fd5b5f516020615df55f395f51905f52546001600160a01b03161415905083613f22565b34610600576020366003190112610600576004355f52601a602052602060405f2054604051908152f35b34610600576080366003190112610600576004356001600160401b0381116106005761414290369060040161533d565b6044359060243563ffffffff8316830361060057610d3892602061416461539d565b93335f525f825260ff60405f20541680156141e4575b61418390615989565b604051928151938381818501968088835e81016004815203019020855f52835263ffffffff600560405f2001911663ffffffff19825416179055604051928391518091835e81016004815203019020905f52602052600560405f2001615bae565b506001546001600160a01b0316331461417a565b346106005760403660031901126106005761421161535b565b614219615412565b9060018060a01b03600154163314801561429f575b156142745760207f235bc17e7930760029e9f4d860a2a8089976de5b381cf8380fc11c1d88a111339160018060a01b031692835f5260258252613b0b8160405f206159dc565b606460405162461bcd60e51b8152602060048201526004602482015263082eae8d60e31b6044820152fd5b506026546001600160a01b0316331461422e565b34610600576020366003190112610600576004356001600160401b0381116106005760206142e68192369060040161533d565b604051928184925191829101835e81016018815203019020805461430981615450565b9161431760405193846152c9565b81835260208301905f5260205f205f915b83831061433d5760405180610cc4878261563f565b6004602060019260405161435081615209565b848060a01b038654168152848060a01b038587015416838201526002860154604082015260ff60038701541615156060820152815201920192019190614328565b346106005760206001816143a4366153b3565b9390335f525f825260ff60405f205416801561449a575b6143c490615989565b604051928184925191829101835e600a9082019081520301902001906001600160a01b03165f5b825480821015610d3857826144008386615966565b905460039190911b1c6001600160a01b03161461442057506001016143eb565b5f198101925082116116545761214a61443c6144559385615966565b905460039190911b1c6001600160a01b03169184615966565b80548015614486575f19019061446b8282615966565b81546001600160a01b0360039290921b9190911b1916905555005b634e487b7160e01b5f52603160045260245ffd5b506143c4848060a01b03855416331490506143bb565b34610600576020366003190112610600576001600160a01b036144d161535b565b165f526025602052602060ff60405f2054166040519015158152f35b346106005760203660031901126106005761450661535b565b50335f525f60205260ff60405f2054168015614526575b610d3890615989565b506001546001600160a01b0316331461451d565b34610600575f366003190112610600576020600f54604051908152f35b346106005760a0366003190112610600576004356001600160401b0381116106005761458790369060040161533d565b6024356001600160401b038111610600576145a69036906004016155d1565b906044356001600160401b038111610600576145c690369060040161533d565b906064356001600160401b038111610600576145e690369060040161533d565b6084356001600160401b038111610600576146059036906004016155d1565b92335f525f60205260ff60405f205416801561481c575b61462590615989565b604051614649845191602081818801948086835e8101600a815203019020546156ab565b156147ba575b61469d9060206040519561466287615224565b808752818701988952604087019485526060870195865260808701978852604051928391518091835e8101600a815203019020935184615a2e565b935180516001840195916001600160401b03821161218757600160401b821161218757602090875483895580841061479f575b5001955f5260205f20955f5b8281106147825786600487614703886146f9895160028501615a2e565b5160038301615a2e565b9151805191909201916001600160401b03821161218757600160401b8211612187576020908354838555808410614767575b5001915f5260205f20915f5b82811061474a57005b81516001600160a01b031681850155602090910190600101614741565b61477c90855f528480855f2001910390615a13565b84614735565b81516001600160a01b0316818901556020909101906001016146dc565b6147b490895f528480855f2001910390615a13565b886146d0565b600d54600160401b811015612187578060016147db9201600d55600d615966565b919091610fb7576147ef8561469d93615a2e565b614812600f54806040516020818a518088835e8101600e81520301902055615a05565b600f55905061464f565b506001546001600160a01b0316331461461c565b34610600576020366003190112610600576004356001600160401b038111610600576020806148648193369060040161533d565b604051928184925191829101835e8101601881520301902054604051908152f35b346106005760a0366003190112610600576004356001600160401b038111610600576148b590369060040161533d565b6148bd615371565b6148c5615387565b9160206148d0615421565b91335f525f825260ff60405f2054168015614989575b6148ef90615989565b614941604051938251948481818601978089835e810160188152030190206040519161491a83615209565b6001600160a01b038881168452891686840152606435604084015215156060830152615be4565b604051928391518091835e601b908201908152030190206001600160a01b039182165f9081526020919091526040902080546001600160a01b03191692909116919091179055005b506001546001600160a01b031633146148e6565b34610600576020600b6149af3661558c565b939091335f525f825260ff60405f2054168015614a20575b6149d090615989565b60405192600a8251948481818601978089835e81016003815203019020019060018060a01b031660018060a01b0319825416179055604051928391518091835e8101600381520301902001555f80f35b506001546001600160a01b031633146149c7565b34610600576040366003190112610600576004356001600160401b03811161060057614a6490369060040161533d565b602435906001600160401b038211610600576005602080614a8c610d3895369060040161533d565b93335f525f825260ff60405f2054168015614ac9575b614aab90615989565b604051928184925191829101835e8101600381520301902001615b2e565b506001546001600160a01b03163314614aa2565b3461060057602080614aee36615542565b9290604051928184925191829101835e81016018815203019020908154811015610600576123a591615573565b3461060057604036600319011261060057614b3461535b565b335f525f60205260ff60405f2054168015614b73575b614b5390615989565b60018060a01b03165f52600260205260405f2061249d6024358254615bd7565b506001546001600160a01b03163314614b4a565b34610600576080366003190112610600576004356001600160401b03811161060057614bb790369060040161533d565b6024359063ffffffff8216820361060057614bd0615387565b916064359263ffffffff8416840361060057600c92614c55602092335f525f845260ff60405f2054168015614c90575b614c0990615989565b6040519463ffffffff8785519787818189019a808c835e8101600381520301902001911663ffffffff198254161790558560405185818651808a835e8101600381520301902001615bae565b604051928391518091835e60039082019081520301902001805463ffffffff60c01b191660c09290921b63ffffffff60c01b16919091179055005b506001546001600160a01b03163314614c00565b346106005760a0366003190112610600576004356001600160401b03811161060057614cd490369060040161533d565b614cdc615371565b906044356001600160401b03811161060057614cfc90369060040161533d565b916064356001600160401b03811161060057614d1c903690600401615467565b906084356001600160401b03811161060057614d3c9036906004016154e5565b93335f525f60205260ff60405f2054168015614e65575b614d5c90615989565b614d67600754615a05565b600755600854600160401b81101561218757806001614d8b92016008556008615966565b929092610fb757614da285614e0b94979697615a2e565b60018060a01b0381165f526009602052614dbf8660405f20615b2e565b614de1604051602081895180838c01835e810160038152030190209687615a2e565b6001860180546001600160a01b0319166001600160a01b0390921691909117905560038501615a2e565b60048301805460ff191690555f6008840181905560098401819055600a840180546001600160a01b0319169055600b84018190556006909301925b8151811015610d385780614e5f61159860019385615b5b565b01614e46565b506001546001600160a01b03163314614d53565b3461060057602036600319011261060057614e9261535b565b335f525f60205260ff60405f2054168015614ed2575b614eb190615989565b6001600160a01b03165f908152602460205260409020805461249d90615a05565b506001546001600160a01b03163314614ea8565b34610600576020366003190112610600576001600160a01b03614f0761535b565b165f52601c60205260405f208054610cc460018301549260ff60036002830154920154169060405194859485615430565b34610600576020366003190112610600576004356001600160401b03811161060057614f8d602080614f6f8194369060040161533d565b604051928184925191829101835e81016003815203019020546156ab565b1515604051908152f35b3461060057604036600319011261060057600435614ff6614fb6615412565b335f525f60205260ff60405f2054168015615021575b614fd590615989565b614fe26016548410615989565b825f526010602052600960405f20016159dc565b5f90815260106020526040902060098101805461ff001916610100179055600701805460ff19169055005b506001546001600160a01b03163314614fcc565b34610600576020366003190112610600576001600160a01b0361505661535b565b165f52601d60205260405f2060018060a01b03815416610cc460026001840154930154604051938493846153f4565b3461060057602036600319011261060057335f525f60205260ff60405f20541680156150ee575b6150b590615989565b602254600160401b811015612187578060016150d49201602255615936565b81545f1960039290921b91821b191660043590911b179055005b506001546001600160a01b031633146150ac565b346106005760403660031901126106005761511b61535b565b335f525f60205260ff60405f2054168015615155575b61513a90615989565b60018060a01b03165f52602460205260243560405f20555f80f35b506001546001600160a01b03163314615131565b34610600575f366003190112610600576020600654604051908152f35b3461060057610d38602060028161519c366153b3565b9390335f525f825260ff60405f20541680156151da575b6151bc90615989565b604051928184925191829101835e81016003815203019020016159b9565b506001546001600160a01b031633146151b3565b604081019081106001600160401b0382111761218757604052565b608081019081106001600160401b0382111761218757604052565b60a081019081106001600160401b0382111761218757604052565b606081019081106001600160401b0382111761218757604052565b60e081019081106001600160401b0382111761218757604052565b61016081019081106001600160401b0382111761218757604052565b6101e081019081106001600160401b0382111761218757604052565b61018081019081106001600160401b0382111761218757604052565b601f909101601f19168101906001600160401b0382119082101761218757604052565b6001600160401b03811161218757601f01601f191660200190565b929192615313826152ec565b9161532160405193846152c9565b829481845281830111610600578281602093845f960137010152565b9080601f830112156106005781602061535893359101615307565b90565b600435906001600160a01b038216820361060057565b602435906001600160a01b038216820361060057565b604435906001600160a01b038216820361060057565b606435906001600160a01b038216820361060057565b604060031982011261060057600435906001600160401b038211610600576153dd9160040161533d565b906024356001600160a01b03811681036106005790565b604091949392606082019560018060a01b0316825260208201520152565b60243590811515820361060057565b60843590811515820361060057565b926060929594919560808501968552602085015260408401521515910152565b6001600160401b0381116121875760051b60200190565b9080601f8301121561060057813561547e81615450565b9261548c60405194856152c9565b81845260208085019260051b820101918383116106005760208201905b8382106154b857505050505090565b81356001600160401b038111610600576020916154da8784809488010161533d565b8152019101906154a9565b9080601f830112156106005781356154fc81615450565b9261550a60405194856152c9565b81845260208085019260051b82010192831161060057602001905b8282106155325750505090565b8135815260209182019101615525565b604060031982011261060057600435906001600160401b0382116106005761556c9160040161533d565b9060243590565b8054821015610fca575f5260205f209060021b01905f90565b606060031982011261060057600435906001600160401b038211610600576155b69160040161533d565b906024356001600160a01b0381168103610600579060443590565b9080601f83011215610600578135906155e982615450565b926155f760405194856152c9565b82845260208085019360051b82010191821161060057602001915b81831061561f5750505090565b82356001600160a01b038116810361060057815260209283019201615612565b60206040818301928281528451809452019201905f5b8181106156625750505090565b825180516001600160a01b039081168652602082810151909116818701526040808301519087015260609182015115159186019190915260809094019390920191600101615655565b90600182811c921680156156d9575b60208310146156c557565b634e487b7160e01b5f52602260045260245ffd5b91607f16916156ba565b9060405191825f8254926156f6846156ab565b8084529360018116908115615761575060011461571d575b5061571b925003836152c9565b565b90505f9291925260205f20905f915b81831061574557505090602061571b928201015f61570e565b602091935080600191548385890101520191019091849261572c565b90506020925061571b94915060ff191682840152151560051b8201015f61570e565b805180835260209291819084018484015e5f828201840152601f01601f1916010190565b9080602083519182815201916020808360051b8301019401925f915b8383106157d257505050505090565b9091929394602080600192601f1985820301865288519082806157fe8451604085526040850190615783565b930151910152970193019301919392906157c3565b606090600319011261060057600435906024359060443590565b6040906003190112610600576004359060243590565b60a090600319011261060057600435906024356001600160a01b038116810361060057906044356001600160a01b038116810361060057906064359060843580151581036106005790565b90602080835192838152019201905f5b8181106158ab5750505090565b82516001600160a01b031684526020938401939092019160010161589e565b90600482101561345f5752565b602081016020825282518091526040820191602060408360051b8301019401925f915b83831061590957505050505090565b9091929394602080615927600193603f198682030187528951615783565b970193019301919392906158fa565b602254811015610fca5760225f5260205f2001905f90565b602154811015610fca5760215f5260205f2001905f90565b8054821015610fca575f5260205f2001905f90565b90610fb757615358906156e3565b1561599057565b60405162461bcd60e51b81526020600482015260016024820152602160f81b6044820152606490fd5b80549190600160401b831015612187578261214a91600161571b95018155615966565b9060ff801983541691151516179055565b9061ff00825491151560081b169061ff001916179055565b5f1981146116545760010190565b5f5b828110615a2157505050565b5f82820155600101615a15565b81519192916001600160401b03811161218757615a4b82546156ab565b601f8111615aeb575b506020601f8211600114615a8d57819293945f92615a82575b50508160011b915f199060031b1c1916179055565b015190505f80615a6d565b601f19821690835f52805f20915f5b818110615ad357509583600195969710615abb575b505050811b019055565b01515f1960f88460031b161c191690555f8080615ab1565b9192602060018192868b015181550194019201615a9c565b81811115615a5457615b2090835f5260205f2090601f840160051c9060208510615b26575b601f82910160051c039101615a13565b5f615a54565b5f9150615b10565b8054600160401b81101561218757615b4b91600182018155615966565b919091610fb75761571b91615a2e565b8051821015610fca5760209160051b010190565b805490600160401b8210156121875760018201808255821015610fca576001916020915f52815f2090831b0192615ba7815185615a2e565b0151910155565b8054600160201b600160c01b03191660209290921b600160201b600160c01b0316919091179055565b9190820180921161165457565b8054600160401b81101561218757615c0191600182018155615573565b610fb757815181546001600160a01b039182166001600160a01b031991821617835560208401516001840180549190931691161790556040820151600282015560609091015161571b91901515906003016159dc565b9190820391821161165457565b908154615c7081615450565b92615c7e60405194856152c9565b81845260208401905f5260205f205f915b838310615c9c5750505050565b60026020600192604051615caf816151ee565b615cb8866156e3565b81528486015483820152815201920192019190615c8f565b90604051918281549182825260208201905f5260205f20925f5b818110615cff57505061571b925003836152c9565b84546001600160a01b0316835260019485019487945060209093019201615cea565b908154615d2d81615450565b92615d3b60405194856152c9565b81845260208401905f5260205f205f915b838310615d595750505050565b600160208192615d68856156e3565b815201920192019190615d4c565b90615d9a5750805115615d8b57805190602001fd5b630a12f52160e11b5f5260045ffd5b81511580615dcb575b615dab575090565b639996b31560e01b5f9081526001600160a01b0391909116600452602490fd5b50803b15615da356fed7b6990105719101dabeb77144f2a3385c8033acd3af97e9423a695e81ad1eb5360894a13ba1a3210667c828492db98dca3e2076cc3735a920a3ca505d382bbcf3f7a9fe364faab93b216da50a3214154f22a0a2b415b23a84c8169e8b636ee3f0c57e16840df040f15088dc2f81fe391c3923bec73e23a9662efc9c229c6a00a26469706673582212203ab854273a0b35ca75b6c4b4015e5871d1dad8bb6e6e1151b319719946cd6a0164736f6c63430008210033f0c57e16840df040f15088dc2f81fe391c3923bec73e23a9662efc9c229c6a00","linkReferences":{}},"methodIdentifiers":{"UPGRADE_INTERFACE_VERSION()":"ad3cb1cc","addAskAthenaVoter(uint256,address,address,uint256,bool)":"d22e5053","addDisputeVoter(string,address,address,uint256,bool)":"2f52aff6","addJobApplicant(string,address)":"006d8630","addJobFinalMilestone(string,string,uint256)":"8d95ce5e","addOracleMember(string,address)":"c9d28293","addProposalId(uint256)":"0af401dc","addSkillVerificationVoter(uint256,address,address,uint256,bool)":"6d0faa95","addSkillVerifiedAddress(string,address)":"e5255107","addWorkSubmission(string,string)":"2c47fa97","admins(address)":"429b62e5","allJobIds(uint256)":"cb29c128","allStakers(uint256)":"c3214d6c","applicationCounter()":"db144d01","askAthenaApplications(uint256)":"7a627fd8","askAthenaCounter()":"beeb4ada","askAthenaVoters(uint256,uint256)":"a2425f06","authorizeContract(address,bool)":"5cbeb13f","authorizedContracts(address)":"d5b9221b","delegatedVotingPower(address)":"f9a5c639","delegates(address)":"587cde1e","disputeVoterClaimAddresses(string,address)":"6cb01241","disputeVoters(string,uint256)":"2bfe51f0","disputes(string)":"a53328dc","earners(address)":"0cb4196d","finalizeAskAthena(uint256,bool)":"ecd233cc","finalizeDispute(string,bool)":"9661725c","finalizeSkillVerification(uint256,bool)":"111006db","getActiveStakersCount()":"e9b8be90","getAllJobIds()":"88c8837f","getAllOracleNames()":"aba01d8d","getAllProposalIds()":"efa90d36","getAllStakers()":"6e4f88c8","getAskAthenaApplication(uint256)":"998f128e","getAskAthenaVoterCount(uint256)":"4d16b840","getAskAthenaVoters(uint256)":"cb8bde2e","getDelegate(address)":"544d8564","getDelegatedVotingPower(address)":"6da25a54","getDispute(string)":"a54294af","getDisputeVoterClaimAddress(string,address)":"ceff5c5d","getDisputeVoterCount(string)":"38719e74","getDisputeVoters(string)":"49868b41","getEarner(address)":"cdbdb293","getEarnerInfo(address)":"57ac2574","getIsStaker(address)":"8ab3bd90","getJob(string)":"77e32407","getJobApplication(string,uint256)":"5cd02802","getJobApplicationCount(string)":"eb7d901b","getJobCount()":"b02b4a2f","getJobsByPoster(address)":"d3e8a57e","getOracle(string)":"a9daf6ad","getOracleCount()":"3f4e4251","getOracleMembers(string)":"cae3831c","getOracleNamesBatch(uint256,uint256)":"7ec25c3c","getProposalCount()":"c08cc02d","getSkillApplication(uint256)":"a6161328","getSkillVerificationDate(string,address)":"1325f654","getSkillVerificationVoterCount(uint256)":"5296f5c1","getSkillVerificationVoters(uint256)":"88fc75f5","getStake(address)":"7a766460","getStakerInfo(address)":"733bdef0","getUserEarnedTokens(address)":"5843905f","getUserGovernanceActions(address)":"f14db783","getUserRewardInfo(address)":"69517310","getUserTotalClaimedTokens(address)":"00e09ee4","hasUserVotedOnAskAthena(uint256,address)":"6a699b6c","hasUserVotedOnDispute(string,address)":"9c87c928","hasUserVotedOnSkillApplication(uint256,address)":"f7edb880","hasVotedOnAskAthena(uint256,address)":"dcde0485","hasVotedOnDispute(string,address)":"84137482","hasVotedOnSkillApplication(uint256,address)":"aff4d416","incrementUserGovernanceActions(address)":"19dd10e8","initialize(address)":"c4d66de8","isStaker(address)":"6f1e8533","jobApplicationCounter(string)":"f4653c0b","jobApplications(string,uint256)":"9000a87f","jobCounter()":"50355d76","jobExists(string)":"16559540","jobs(string)":"b05e6f5a","jobsByPoster(address,uint256)":"c81418e8","memberStakeAmount(string,address)":"8b39905b","nativeDAO()":"687694ae","oracles(string)":"67c2f3e1","owner()":"8da5cb5b","proposalIds(uint256)":"9b644a23","proxiableUUID()":"52d1902d","removeOracleMember(string,address)":"466a9289","removeStaker(address)":"96a9fdc0","setAdmin(address,bool)":"4b0bddd2","setApplicationPaymentPreference(string,uint256,uint32,address)":"4d14a239","setAskAthenaApplication(uint256,address,string,string,string,string)":"ba207995","setAskAthenaVote(uint256,address)":"91c6bfae","setDelegate(address,address)":"5c873849","setDelegatedVotingPower(address,uint256)":"78d4be1b","setDispute(string,uint256,string,address,uint256)":"fec17fe9","setDisputeVote(string,address)":"cd5b752f","setEarner(address,uint256,uint256)":"8cac6415","setJob(string,address,string,string[],uint256[])":"24f808a5","setJobApplication(string,uint256,address,string,string[],uint256[],uint32,address)":"bd015d79","setJobCurrentMilestone(string,uint256)":"b073997a","setJobPaymentTarget(string,uint32,address,uint32)":"28393d79","setJobSelectedApplicant(string,address,uint256)":"2efc4416","setMemberStakeAmount(string,address,uint256)":"5c6ad340","setNativeDAO(address)":"a2f7cb26","setOracle(string,address[],string,string,address[])":"3b7d2dd6","setSkillApplication(uint256,address,string,uint256,string)":"755f176e","setSkillApplicationVote(uint256,address)":"4ffc65f8","setStake(address,uint256,uint256,uint256,bool)":"a542599c","setUserGovernanceActions(address,uint256)":"0857d05f","setUserTotalOWTokens(address,uint256)":"ffeea553","skillApplications(uint256)":"5b3a8e1c","skillVerificationDates(string,address)":"9e4ffd54","skillVerificationVoters(uint256,uint256)":"69728923","stakes(address)":"16934fc4","totalPlatformPayments()":"06d1ab4b","transferOwnership(address)":"f2fde38b","updateAskAthenaVotes(uint256,uint256,uint256)":"693975b0","updateDelegatedVotingPower(address,uint256,bool)":"9e2cc7e8","updateDisputeVotes(string,uint256,uint256)":"90c7417d","updateJobStatus(string,uint8)":"b5be4fe4","updateJobTotalPaid(string,uint256)":"c2cfe80e","updateMemberActivity(address)":"41b3d2a1","updateSkillApplicationVotes(uint256,uint256,uint256)":"c9fe8bf4","updateUserClaimData(address,uint256)":"286fd04f","upgradeToAndCall(address,bytes)":"4f1ef286","userGovernanceActions(address)":"46815946","userTotalClaimedTokens(address)":"61341473","userTotalOWTokens(address)":"f10f9a69"},"id":16}